{
  "contractName": "CommonFunctionality",
  "abi": [
    {
      "constant": true,
      "inputs": [
        {
          "internalType": "address",
          "name": "_yeld",
          "type": "address"
        },
        {
          "internalType": "address",
          "name": "_weth",
          "type": "address"
        },
        {
          "internalType": "address",
          "name": "_dai",
          "type": "address"
        },
        {
          "internalType": "address",
          "name": "_uniswap",
          "type": "address"
        }
      ],
      "name": "getYeldPriceInDai",
      "outputs": [
        {
          "internalType": "uint256",
          "name": "",
          "type": "uint256"
        }
      ],
      "payable": false,
      "stateMutability": "view",
      "type": "function"
    }
  ],
  "bytecode": "0x608060405234801561001057600080fd5b506104fe806100206000396000f3fe608060405234801561001057600080fd5b506004361061002b5760003560e01c8063f34ce4bb14610030575b600080fd5b61004361003e3660046102ba565b610059565b6040516100509190610406565b60405180910390f35b6040805160038082526080820190925260009160609190602082018380388339019050509050858160008151811061008d57fe5b602002602001019073ffffffffffffffffffffffffffffffffffffffff16908173ffffffffffffffffffffffffffffffffffffffff168152505084816001815181106100d557fe5b602002602001019073ffffffffffffffffffffffffffffffffffffffff16908173ffffffffffffffffffffffffffffffffffffffff1681525050838160028151811061011d57fe5b73ffffffffffffffffffffffffffffffffffffffff92831660209182029290920101526040517fd06ca61f00000000000000000000000000000000000000000000000000000000815260609185169063d06ca61f9061018a90670de0b6b3a76400009086906004016103e6565b60006040518083038186803b1580156101a257600080fd5b505afa1580156101b6573d6000803e3d6000fd5b505050506040513d6000823e601f3d9081017fffffffffffffffffffffffffffffffffffffffffffffffffffffffffffffffe01682016040526101fc919081019061031b565b90508060028151811061020b57fe5b602002602001015192505050949350505050565b803561022a8161049b565b92915050565b600082601f83011261024157600080fd5b815161025461024f8261043b565b610414565b9150818183526020840193506020810190508385602084028201111561027957600080fd5b60005b838110156102a5578161028f88826102af565b845250602092830192919091019060010161027c565b5050505092915050565b805161022a816104b2565b600080600080608085870312156102d057600080fd5b60006102dc878761021f565b94505060206102ed8782880161021f565b93505060406102fe8782880161021f565b925050606061030f8782880161021f565b91505092959194509250565b60006020828403121561032d57600080fd5b815167ffffffffffffffff81111561034457600080fd5b61035084828501610230565b949350505050565b6000610364838361036c565b505060200190565b6103758161046f565b82525050565b600061038682610462565b6103908185610466565b935061039b8361045c565b8060005b838110156103c95781516103b38882610358565b97506103be8361045c565b92505060010161039f565b509495945050505050565b61037581610490565b6103758161048d565b604081016103f482856103d4565b8181036020830152610350818461037b565b6020810161022a82846103dd565b60405181810167ffffffffffffffff8111828210171561043357600080fd5b604052919050565b600067ffffffffffffffff82111561045257600080fd5b5060209081020190565b60200190565b5190565b90815260200190565b600073ffffffffffffffffffffffffffffffffffffffff821661022a565b90565b600061022a8261048d565b6104a48161046f565b81146104af57600080fd5b50565b6104a48161048d56fea365627a7a72315820e349f303a3d29e41bda7ab73740ac048d6f6896b7252375ece63061fe49578d66c6578706572696d656e74616cf564736f6c63430005110040",
  "source": "pragma solidity 0.5.17;\npragma experimental ABIEncoderV2;\n\nimport './ContractImports.sol';\n\n/// @notice To block contracts from interacting with the designated functions\ncontract CommonFunctionality {\n  using SafeMath for uint256;\n\n  function isContract(address account) internal view returns (bool) {\n    // This method relies on extcodesize, which returns 0 for contracts in\n    // construction, since the code is only stored at the end of the\n    // constructor execution.\n\n    uint256 size;\n    // solhint-disable-next-line no-inline-assembly\n    assembly { size := extcodesize(account) }\n    return size > 0;\n  }\n\n  modifier noContract() {\n      require(isContract(msg.sender) == false, 'Contracts are not allowed to interact with the farm');\n      _;\n  }\n\n  function getYeldPriceInDai(address _yeld, address _weth, address _dai, address _uniswap) public view returns(uint256) {\n    address[] memory path = new address[](3);\n    path[0] = _yeld;\n    path[1] = _weth;\n    path[2] = _dai;\n    uint256[] memory amounts = IUniswap(_uniswap).getAmountsOut(1e18, path);\n    return amounts[2];\n  }\n}",
  "sourcePath": "C:\\Users\\merun\\Desktop\\yeld-contracts\\contracts\\CommonFunctionality.sol",
  "compiler": {
    "name": "solc",
    "version": "0.5.17+commit.d19bba13.Emscripten.clang"
  },
  "schemaVersion": "3.2.2",
  "updatedAt": "2021-01-17T18:31:37.793Z",
  "devdoc": {
    "methods": {}
  },
  "userdoc": {
    "methods": {},
    "notice": "To block contracts from interacting with the designated functions"
  }
}