{
  "contractName": "CommonFunctionality",
  "abi": [
    {
      "anonymous": false,
      "inputs": [
        {
          "indexed": true,
          "internalType": "address",
          "name": "previousOwner",
          "type": "address"
        },
        {
          "indexed": true,
          "internalType": "address",
          "name": "newOwner",
          "type": "address"
        }
      ],
      "name": "OwnershipTransferred",
      "type": "event"
    },
    {
      "constant": true,
      "inputs": [],
      "name": "isOwner",
      "outputs": [
        {
          "internalType": "bool",
          "name": "",
          "type": "bool"
        }
      ],
      "payable": false,
      "stateMutability": "view",
      "type": "function"
    },
    {
      "constant": true,
      "inputs": [],
      "name": "owner",
      "outputs": [
        {
          "internalType": "address payable",
          "name": "",
          "type": "address"
        }
      ],
      "payable": false,
      "stateMutability": "view",
      "type": "function"
    },
    {
      "constant": true,
      "inputs": [],
      "name": "percentageBuyBurn",
      "outputs": [
        {
          "internalType": "uint256",
          "name": "",
          "type": "uint256"
        }
      ],
      "payable": false,
      "stateMutability": "view",
      "type": "function"
    },
    {
      "constant": true,
      "inputs": [],
      "name": "percentageDevTreasury",
      "outputs": [
        {
          "internalType": "uint256",
          "name": "",
          "type": "uint256"
        }
      ],
      "payable": false,
      "stateMutability": "view",
      "type": "function"
    },
    {
      "constant": true,
      "inputs": [],
      "name": "percentageRetirementYield",
      "outputs": [
        {
          "internalType": "uint256",
          "name": "",
          "type": "uint256"
        }
      ],
      "payable": false,
      "stateMutability": "view",
      "type": "function"
    },
    {
      "constant": false,
      "inputs": [],
      "name": "renounceOwnership",
      "outputs": [],
      "payable": false,
      "stateMutability": "nonpayable",
      "type": "function"
    },
    {
      "constant": false,
      "inputs": [
        {
          "internalType": "address payable",
          "name": "newOwner",
          "type": "address"
        }
      ],
      "name": "transferOwnership",
      "outputs": [],
      "payable": false,
      "stateMutability": "nonpayable",
      "type": "function"
    },
    {
      "constant": false,
      "inputs": [
        {
          "internalType": "uint256",
          "name": "a",
          "type": "uint256"
        },
        {
          "internalType": "uint256",
          "name": "b",
          "type": "uint256"
        },
        {
          "internalType": "uint256",
          "name": "c",
          "type": "uint256"
        }
      ],
      "name": "updatePercentages",
      "outputs": [],
      "payable": false,
      "stateMutability": "nonpayable",
      "type": "function"
    },
    {
      "constant": true,
      "inputs": [
        {
          "internalType": "address",
          "name": "_yeld",
          "type": "address"
        },
        {
          "internalType": "address",
          "name": "_weth",
          "type": "address"
        },
        {
          "internalType": "address",
          "name": "_dai",
          "type": "address"
        },
        {
          "internalType": "address",
          "name": "_uniswap",
          "type": "address"
        }
      ],
      "name": "getYeldPriceInDai",
      "outputs": [
        {
          "internalType": "uint256",
          "name": "",
          "type": "uint256"
        }
      ],
      "payable": false,
      "stateMutability": "view",
      "type": "function"
    }
  ],
  "bytecode": "0x60806040526714d1120d7b1600006001556722b1c8c1227a0000600255670de0b6b3a76400006003556100396001600160e01b0361008616565b600080546001600160a01b0319166001600160a01b03928316178082556040519216917f8be0079c531659141344cd1fd0a4f28419497f9722a3daafe3b4186f6b6457e0908290a361008a565b3390565b6109d9806100996000396000f3fe608060405234801561001057600080fd5b50600436106100a35760003560e01c80638da5cb5b11610076578063eb56faf01161005b578063eb56faf01461010a578063f2fde38b1461011d578063f34ce4bb14610130576100a3565b80638da5cb5b146100e05780638f32d59b146100f5576100a3565b806310391d25146100a8578063715018a6146100c65780637354b2e9146100d0578063858409ba146100d8575b600080fd5b6100b0610143565b6040516100bd91906108d9565b60405180910390f35b6100ce610149565b005b6100b06101ff565b6100b0610205565b6100e861020b565b6040516100bd919061087d565b6100fd610227565b6040516100bd919061088b565b6100ce610118366004610701565b610265565b6100ce61012b366004610645565b6102b1565b6100b061013e36600461066b565b6102fb565b60025481565b610151610227565b610190576040517f08c379a0000000000000000000000000000000000000000000000000000000008152600401610187906108c9565b60405180910390fd5b6000805460405173ffffffffffffffffffffffffffffffffffffffff909116907f8be0079c531659141344cd1fd0a4f28419497f9722a3daafe3b4186f6b6457e0908390a3600080547fffffffffffffffffffffffff0000000000000000000000000000000000000000169055565b60015481565b60035481565b60005473ffffffffffffffffffffffffffffffffffffffff1690565b6000805473ffffffffffffffffffffffffffffffffffffffff166102496104c1565b73ffffffffffffffffffffffffffffffffffffffff1614905090565b61026d610227565b6102a3576040517f08c379a0000000000000000000000000000000000000000000000000000000008152600401610187906108c9565b600192909255600255600355565b6102b9610227565b6102ef576040517f08c379a0000000000000000000000000000000000000000000000000000000008152600401610187906108c9565b6102f8816104c5565b50565b6040805160038082526080820190925260009160609190602082018380388339019050509050858160008151811061032f57fe5b602002602001019073ffffffffffffffffffffffffffffffffffffffff16908173ffffffffffffffffffffffffffffffffffffffff1681525050848160018151811061037757fe5b602002602001019073ffffffffffffffffffffffffffffffffffffffff16908173ffffffffffffffffffffffffffffffffffffffff168152505083816002815181106103bf57fe5b73ffffffffffffffffffffffffffffffffffffffff92831660209182029290920101526040517fd06ca61f00000000000000000000000000000000000000000000000000000000815260609185169063d06ca61f9061042c90670de0b6b3a7640000908690600401610899565b60006040518083038186803b15801561044457600080fd5b505afa158015610458573d6000803e3d6000fd5b505050506040513d6000823e601f3d9081017fffffffffffffffffffffffffffffffffffffffffffffffffffffffffffffffe016820160405261049e91908101906106cc565b9050806002815181106104ad57fe5b602002602001015192505050949350505050565b3390565b73ffffffffffffffffffffffffffffffffffffffff8116610512576040517f08c379a0000000000000000000000000000000000000000000000000000000008152600401610187906108b9565b6000805460405173ffffffffffffffffffffffffffffffffffffffff808516939216917f8be0079c531659141344cd1fd0a4f28419497f9722a3daafe3b4186f6b6457e091a3600080547fffffffffffffffffffffffff00000000000000000000000000000000000000001673ffffffffffffffffffffffffffffffffffffffff92909216919091179055565b80356105aa81610979565b92915050565b600082601f8301126105c157600080fd5b81516105d46105cf8261090e565b6108e7565b915081818352602084019350602081019050838560208402820111156105f957600080fd5b60005b83811015610625578161060f888261063a565b84525060209283019291909101906001016105fc565b5050505092915050565b80356105aa8161098d565b80516105aa8161098d565b60006020828403121561065757600080fd5b6000610663848461059f565b949350505050565b6000806000806080858703121561068157600080fd5b600061068d878761059f565b945050602061069e8782880161059f565b93505060406106af8782880161059f565b92505060606106c08782880161059f565b91505092959194509250565b6000602082840312156106de57600080fd5b815167ffffffffffffffff8111156106f557600080fd5b610663848285016105b0565b60008060006060848603121561071657600080fd5b6000610722868661062f565b93505060206107338682870161062f565b92505060406107448682870161062f565b9150509250925092565b600061075a8383610762565b505060200190565b61076b81610942565b82525050565b600061077c82610935565b6107868185610939565b93506107918361092f565b8060005b838110156107bf5781516107a9888261074e565b97506107b48361092f565b925050600101610795565b509495945050505050565b61076b8161094d565b61076b8161096e565b60006107e9602683610939565b7f4f776e61626c653a206e6577206f776e657220697320746865207a65726f206181527f6464726573730000000000000000000000000000000000000000000000000000602082015260400192915050565b6000610848602083610939565b7f4f776e61626c653a2063616c6c6572206973206e6f7420746865206f776e6572815260200192915050565b61076b8161096b565b602081016105aa8284610762565b602081016105aa82846107ca565b604081016108a782856107d3565b81810360208301526106638184610771565b602080825281016105aa816107dc565b602080825281016105aa8161083b565b602081016105aa8284610874565b60405181810167ffffffffffffffff8111828210171561090657600080fd5b604052919050565b600067ffffffffffffffff82111561092557600080fd5b5060209081020190565b60200190565b5190565b90815260200190565b60006105aa82610952565b151590565b73ffffffffffffffffffffffffffffffffffffffff1690565b90565b60006105aa8261096b565b61098281610942565b81146102f857600080fd5b6109828161096b56fea365627a7a7231582006bab508f5c46a55d19704946d616b330a3b97d402a08485368bcc003f004c806c6578706572696d656e74616cf564736f6c63430005110040",
  "source": "pragma solidity 0.5.17;\npragma experimental ABIEncoderV2;\n\nimport './ContractImports.sol';\n\n/// @notice To block contracts from interacting with the designated functions\ncontract CommonFunctionality is Ownable {\n  using SafeMath for uint256;\n\n  uint256 public percentageRetirementYield = 15e17; // 1.5e18 which should be 1.5%\n  uint256 public percentageDevTreasury = 25e17; // 2.5%\n  uint256 public percentageBuyBurn = 1e18; // 1%\n\n  function isContract(address account) internal view returns (bool) {\n    // This method relies on extcodesize, which returns 0 for contracts in\n    // construction, since the code is only stored at the end of the\n    // constructor execution.\n\n    uint256 size;\n    // solhint-disable-next-line no-inline-assembly\n    assembly { size := extcodesize(account) }\n    return size > 0;\n  }\n\n  modifier noContract() {\n      require(isContract(msg.sender) == false, 'Contracts are not allowed to interact with the farm');\n      _;\n  }\n\n  function updatePercentages(uint256 a, uint256 b, uint256 c) public onlyOwner {\n    percentageRetirementYield = a;\n    percentageDevTreasury = b;\n    percentageBuyBurn = c;\n  }\n\n  function getYeldPriceInDai(address _yeld, address _weth, address _dai, address _uniswap) public view returns(uint256) {\n    address[] memory path = new address[](3);\n    path[0] = _yeld;\n    path[1] = _weth;\n    path[2] = _dai;\n    uint256[] memory amounts = IUniswap(_uniswap).getAmountsOut(1e18, path);\n    return amounts[2];\n  }\n}",
  "sourcePath": "C:\\Users\\merun\\Desktop\\yeld & crypto\\yeld-contracts\\contracts\\CommonFunctionality.sol",
  "compiler": {
    "name": "solc",
    "version": "0.5.17+commit.d19bba13.Emscripten.clang"
  },
  "schemaVersion": "3.3.3",
  "updatedAt": "2021-01-22T14:13:46.793Z",
  "devdoc": {
    "methods": {}
  },
  "userdoc": {
    "methods": {},
    "notice": "To block contracts from interacting with the designated functions"
  }
}