{
  "contractName": "ExampleV2",
  "abi": [
    {
      "constant": true,
      "inputs": [],
      "name": "myNumber",
      "outputs": [
        {
          "internalType": "uint256",
          "name": "",
          "type": "uint256"
        }
      ],
      "payable": false,
      "stateMutability": "view",
      "type": "function"
    },
    {
      "constant": true,
      "inputs": [],
      "name": "myText",
      "outputs": [
        {
          "internalType": "string",
          "name": "",
          "type": "string"
        }
      ],
      "payable": false,
      "stateMutability": "view",
      "type": "function"
    },
    {
      "constant": false,
      "inputs": [
        {
          "internalType": "uint256",
          "name": "_num",
          "type": "uint256"
        }
      ],
      "name": "initialize",
      "outputs": [],
      "payable": false,
      "stateMutability": "nonpayable",
      "type": "function"
    },
    {
      "constant": false,
      "inputs": [
        {
          "internalType": "uint256",
          "name": "_num",
          "type": "uint256"
        }
      ],
      "name": "setNumber",
      "outputs": [],
      "payable": false,
      "stateMutability": "nonpayable",
      "type": "function"
    },
    {
      "constant": false,
      "inputs": [
        {
          "internalType": "string",
          "name": "_text",
          "type": "string"
        }
      ],
      "name": "setText",
      "outputs": [],
      "payable": false,
      "stateMutability": "nonpayable",
      "type": "function"
    }
  ],
  "bytecode": "0x608060405234801561001057600080fd5b50610365806100206000396000f3fe608060405234801561001057600080fd5b50600436106100675760003560e01c80635d3a1f9d116100505780635d3a1f9d146100a55780635d9032d71461014b578063fe4b84df1461008657610067565b806323fd0e401461006c5780633fb5c1cb14610086575b600080fd5b6100746101c8565b60408051918252519081900360200190f35b6100a36004803603602081101561009c57600080fd5b50356101ce565b005b6100a3600480360360208110156100bb57600080fd5b8101906020810181356401000000008111156100d657600080fd5b8201836020820111156100e857600080fd5b8035906020019184600183028401116401000000008311171561010a57600080fd5b91908080601f0160208091040260200160405190810160405280939291908181526020018383808284376000920191909152509295506101d3945050505050565b6101536101ea565b6040805160208082528351818301528351919283929083019185019080838360005b8381101561018d578181015183820152602001610175565b50505050905090810190601f1680156101ba5780820380516001836020036101000a031916815260200191505b509250505060405180910390f35b60005481565b600055565b80516101e6906001906020840190610295565b5050565b60018054604080516020600284861615610100027fffffffffffffffffffffffffffffffffffffffffffffffffffffffffffffffff0190941693909304601f8101849004840282018401909252818152929183018282801561028d5780601f106102625761010080835404028352916020019161028d565b820191906000526020600020905b81548152906001019060200180831161027057829003601f168201915b505050505081565b828054600181600116156101000203166002900490600052602060002090601f016020900481019282601f106102d657805160ff1916838001178555610303565b82800160010185558215610303579182015b828111156103035782518255916020019190600101906102e8565b5061030f929150610313565b5090565b61032d91905b8082111561030f5760008155600101610319565b9056fea265627a7a723158203499a5ffa997da299c36a62a7672c12defac8ed0e3d4e5539699aa2fb5cdbcc364736f6c63430005110032",
  "source": "pragma solidity 0.5.17;\n\ncontract ExampleV2 {\n  uint256 public myNumber;\n  string public myText;\n\n  function initialize(uint256 _num) public {\n    myNumber = _num;\n  }\n  \n  function setNumber(uint256 _num) public {\n    myNumber = _num;\n  }\n\n  function setText(string memory _text) public {\n    myText = _text;\n  }\n}",
  "sourcePath": "C:/Users/merun/Desktop/yeld-contracts/contracts/test-contracts/ExampleV2.sol",
  "compiler": {
    "name": "solc",
    "version": "0.5.17+commit.d19bba13.Emscripten.clang"
  },
  "schemaVersion": "3.2.2",
  "updatedAt": "2021-01-19T19:40:22.435Z",
  "devdoc": {
    "methods": {}
  },
  "userdoc": {
    "methods": {}
  }
}