{
  "contractName": "Example",
  "abi": [
    {
      "constant": true,
      "inputs": [],
      "name": "myNumber",
      "outputs": [
        {
          "internalType": "uint256",
          "name": "",
          "type": "uint256"
        }
      ],
      "payable": false,
      "stateMutability": "view",
      "type": "function"
    },
    {
      "constant": false,
      "inputs": [
        {
          "internalType": "uint256",
          "name": "_num",
          "type": "uint256"
        }
      ],
      "name": "initialize",
      "outputs": [],
      "payable": false,
      "stateMutability": "nonpayable",
      "type": "function"
    },
    {
      "constant": false,
      "inputs": [
        {
          "internalType": "uint256",
          "name": "_num",
          "type": "uint256"
        }
      ],
      "name": "setNumber",
      "outputs": [],
      "payable": false,
      "stateMutability": "nonpayable",
      "type": "function"
    }
  ],
  "bytecode": "0x608060405234801561001057600080fd5b5060b58061001f6000396000f3fe6080604052348015600f57600080fd5b5060043610603c5760003560e01c806323fd0e401460415780633fb5c1cb146059578063fe4b84df146059575b600080fd5b60476075565b60408051918252519081900360200190f35b607360048036036020811015606d57600080fd5b5035607b565b005b60005481565b60005556fea265627a7a723158203da1b4f34171bbc004d2d58532996757f52ae035c49c46b3ca0911d4ac09ba8c64736f6c63430005110032",
  "source": "pragma solidity 0.5.17;\n\ncontract Example {\n  uint256 public myNumber;\n\n  function initialize(uint256 _num) public {\n    myNumber = _num;\n  }\n\n  function setNumber(uint256 _num) public {\n    myNumber = _num;\n  }\n}",
  "sourcePath": "C:/Users/merun/Desktop/projects/yeld-contracts/contracts/test-contracts/Example.sol",
  "compiler": {
    "name": "solc",
    "version": "0.5.17+commit.d19bba13.Emscripten.clang"
  },
  "schemaVersion": "3.2.2",
  "updatedAt": "2020-10-15T23:48:53.251Z",
  "devdoc": {
    "methods": {}
  },
  "userdoc": {
    "methods": {}
  }
}