{
  "contractName": "RetirementYeldTreasury",
  "abi": [
    {
      "inputs": [
        {
          "internalType": "address",
          "name": "_yeld",
          "type": "address"
        }
      ],
      "payable": false,
      "stateMutability": "nonpayable",
      "type": "constructor"
    },
    {
      "anonymous": false,
      "inputs": [
        {
          "indexed": true,
          "internalType": "address",
          "name": "previousOwner",
          "type": "address"
        },
        {
          "indexed": true,
          "internalType": "address",
          "name": "newOwner",
          "type": "address"
        }
      ],
      "name": "OwnershipTransferred",
      "type": "event"
    },
    {
      "payable": true,
      "stateMutability": "payable",
      "type": "fallback"
    },
    {
      "constant": true,
      "inputs": [],
      "name": "isOwner",
      "outputs": [
        {
          "internalType": "bool",
          "name": "",
          "type": "bool"
        }
      ],
      "payable": false,
      "stateMutability": "view",
      "type": "function"
    },
    {
      "constant": true,
      "inputs": [],
      "name": "owner",
      "outputs": [
        {
          "internalType": "address payable",
          "name": "",
          "type": "address"
        }
      ],
      "payable": false,
      "stateMutability": "view",
      "type": "function"
    },
    {
      "constant": false,
      "inputs": [],
      "name": "renounceOwnership",
      "outputs": [],
      "payable": false,
      "stateMutability": "nonpayable",
      "type": "function"
    },
    {
      "constant": true,
      "inputs": [
        {
          "internalType": "address",
          "name": "",
          "type": "address"
        }
      ],
      "name": "stakes",
      "outputs": [
        {
          "internalType": "uint256",
          "name": "timestamp",
          "type": "uint256"
        },
        {
          "internalType": "uint256",
          "name": "yeldBalance",
          "type": "uint256"
        }
      ],
      "payable": false,
      "stateMutability": "view",
      "type": "function"
    },
    {
      "constant": true,
      "inputs": [],
      "name": "timeBetweenRedeems",
      "outputs": [
        {
          "internalType": "uint256",
          "name": "",
          "type": "uint256"
        }
      ],
      "payable": false,
      "stateMutability": "view",
      "type": "function"
    },
    {
      "constant": true,
      "inputs": [],
      "name": "totalStaked",
      "outputs": [
        {
          "internalType": "uint256",
          "name": "",
          "type": "uint256"
        }
      ],
      "payable": false,
      "stateMutability": "view",
      "type": "function"
    },
    {
      "constant": false,
      "inputs": [
        {
          "internalType": "address payable",
          "name": "newOwner",
          "type": "address"
        }
      ],
      "name": "transferOwnership",
      "outputs": [],
      "payable": false,
      "stateMutability": "nonpayable",
      "type": "function"
    },
    {
      "constant": false,
      "inputs": [
        {
          "internalType": "uint256",
          "name": "_amount",
          "type": "uint256"
        }
      ],
      "name": "stakeYeld",
      "outputs": [],
      "payable": false,
      "stateMutability": "nonpayable",
      "type": "function"
    },
    {
      "constant": false,
      "inputs": [
        {
          "internalType": "uint256",
          "name": "_amount",
          "type": "uint256"
        }
      ],
      "name": "unstake",
      "outputs": [],
      "payable": false,
      "stateMutability": "nonpayable",
      "type": "function"
    },
    {
      "constant": false,
      "inputs": [],
      "name": "redeemETH",
      "outputs": [],
      "payable": false,
      "stateMutability": "nonpayable",
      "type": "function"
    },
    {
      "constant": false,
      "inputs": [
        {
          "internalType": "address",
          "name": "_yeld",
          "type": "address"
        }
      ],
      "name": "setYeld",
      "outputs": [],
      "payable": false,
      "stateMutability": "nonpayable",
      "type": "function"
    },
    {
      "constant": false,
      "inputs": [],
      "name": "extractETHIfStuck",
      "outputs": [],
      "payable": false,
      "stateMutability": "nonpayable",
      "type": "function"
    },
    {
      "constant": false,
      "inputs": [
        {
          "internalType": "address",
          "name": "_token",
          "type": "address"
        },
        {
          "internalType": "uint256",
          "name": "_amount",
          "type": "uint256"
        }
      ],
      "name": "extractTokensIfStuck",
      "outputs": [],
      "payable": false,
      "stateMutability": "nonpayable",
      "type": "function"
    }
  ],
  "bytecode": "0x608060405234801561001057600080fd5b506040516112533803806112538339818101604052602081101561003357600080fd5b50516100466001600160e01b036100b316565b600080546001600160a01b0319166001600160a01b03928316178082556040519216917f8be0079c531659141344cd1fd0a4f28419497f9722a3daafe3b4186f6b6457e0908290a3600180546001600160a01b0319166001600160a01b03929092169190911790556100b7565b3390565b61118d806100c66000396000f3fe6080604052600436106100d25760003560e01c80638da5cb5b1161007f578063a9a1015a11610059578063a9a1015a14610279578063b0710ff8146102bf578063b8dd934e146102d4578063f2fde38b146102e9576100d2565b80638da5cb5b146101e85780638f32d59b146102265780639cd727e81461024f576100d2565b80634fe41129116100b05780634fe4112914610197578063715018a6146101ac578063817b1cd2146101c1576100d2565b806316934fc4146100d45780632834d6391461012d5780632e17de781461016d575b005b3480156100e057600080fd5b50610114600480360360208110156100f757600080fd5b503573ffffffffffffffffffffffffffffffffffffffff16610329565b6040805192835260208301919091528051918290030190f35b34801561013957600080fd5b506100d26004803603602081101561015057600080fd5b503573ffffffffffffffffffffffffffffffffffffffff16610342565b34801561017957600080fd5b506100d26004803603602081101561019057600080fd5b50356103fc565b3480156101a357600080fd5b506100d26105f8565b3480156101b857600080fd5b506100d26106bb565b3480156101cd57600080fd5b506101d661079d565b60408051918252519081900360200190f35b3480156101f457600080fd5b506101fd6107a3565b6040805173ffffffffffffffffffffffffffffffffffffffff9092168252519081900360200190f35b34801561023257600080fd5b5061023b6107bf565b604080519115158252519081900360200190f35b34801561025b57600080fd5b506100d26004803603602081101561027257600080fd5b50356107fd565b34801561028557600080fd5b506100d26004803603604081101561029c57600080fd5b5073ffffffffffffffffffffffffffffffffffffffff8135169060200135610918565b3480156102cb57600080fd5b506101d6610a00565b3480156102e057600080fd5b506100d2610a07565b3480156102f557600080fd5b506100d26004803603602081101561030c57600080fd5b503573ffffffffffffffffffffffffffffffffffffffff16610c84565b6002602052600090815260409020805460019091015482565b61034a6107bf565b6103b557604080517f08c379a000000000000000000000000000000000000000000000000000000000815260206004820181905260248201527f4f776e61626c653a2063616c6c6572206973206e6f7420746865206f776e6572604482015290519081900360640190fd5b600180547fffffffffffffffffffffffff00000000000000000000000000000000000000001673ffffffffffffffffffffffffffffffffffffffff92909216919091179055565b33600090815260026020526040902060010154801580159061041e5750600082115b61048957604080517f08c379a000000000000000000000000000000000000000000000000000000000815260206004820181905260248201527f596f752063616e277420756e7374616b65206c657373207468616e207a65726f604482015290519081900360640190fd5b808211156104e2576040517f08c379a00000000000000000000000000000000000000000000000000000000081526004018080602001828103825260298152602001806110e96029913960400191505060405180910390fd5b60408051808201825242815233600090815260026020908152929020600101549091820190610517908563ffffffff610d0016565b90523360009081526002602090815260409091208251815591015160019091015560035461054b908363ffffffff610d0016565b600355600154604080517fa9059cbb00000000000000000000000000000000000000000000000000000000815233600482015260248101859052905173ffffffffffffffffffffffffffffffffffffffff9092169163a9059cbb916044808201926020929091908290030181600087803b1580156105c857600080fd5b505af11580156105dc573d6000803e3d6000fd5b505050506040513d60208110156105f257600080fd5b50505050565b6106006107bf565b61066b57604080517f08c379a000000000000000000000000000000000000000000000000000000000815260206004820181905260248201527f4f776e61626c653a2063616c6c6572206973206e6f7420746865206f776e6572604482015290519081900360640190fd5b6106736107a3565b73ffffffffffffffffffffffffffffffffffffffff166108fc479081150290604051600060405180830381858888f193505050501580156106b8573d6000803e3d6000fd5b50565b6106c36107bf565b61072e57604080517f08c379a000000000000000000000000000000000000000000000000000000000815260206004820181905260248201527f4f776e61626c653a2063616c6c6572206973206e6f7420746865206f776e6572604482015290519081900360640190fd5b6000805460405173ffffffffffffffffffffffffffffffffffffffff909116907f8be0079c531659141344cd1fd0a4f28419497f9722a3daafe3b4186f6b6457e0908390a3600080547fffffffffffffffffffffffff0000000000000000000000000000000000000000169055565b60035481565b60005473ffffffffffffffffffffffffffffffffffffffff1690565b6000805473ffffffffffffffffffffffffffffffffffffffff166107e1610d4b565b73ffffffffffffffffffffffffffffffffffffffff1614905090565b600154604080517f23b872dd00000000000000000000000000000000000000000000000000000000815233600482015230602482015260448101849052905173ffffffffffffffffffffffffffffffffffffffff909216916323b872dd916064808201926020929091908290030181600087803b15801561087d57600080fd5b505af1158015610891573d6000803e3d6000fd5b505050506040513d60208110156108a757600080fd5b5050604080518082018252428152336000908152600260209081529290206001015490918201906108de908463ffffffff610d4f16565b905233600090815260026020908152604090912082518155910151600190910155600354610912908263ffffffff610d4f16565b60035550565b6109206107bf565b61098b57604080517f08c379a000000000000000000000000000000000000000000000000000000000815260206004820181905260248201527f4f776e61626c653a2063616c6c6572206973206e6f7420746865206f776e6572604482015290519081900360640190fd5b604080517fa9059cbb00000000000000000000000000000000000000000000000000000000815233600482015260248101839052905173ffffffffffffffffffffffffffffffffffffffff84169163a9059cbb9160448083019260209291908290030181600087803b1580156105c857600080fd5b6201518081565b336000908152600260205260409020546201518001421015610a74576040517f08c379a00000000000000000000000000000000000000000000000000000000081526004018080602001828103825260478152602001806110a26047913960600191505060405180910390fd5b600154604080517f70a082310000000000000000000000000000000000000000000000000000000081526000600482018190529151919273ffffffffffffffffffffffffffffffffffffffff16916370a0823191602480820192602092909190829003018186803b158015610ae857600080fd5b505afa158015610afc573d6000803e3d6000fd5b505050506040513d6020811015610b1257600080fd5b5051600154604080517f18160ddd0000000000000000000000000000000000000000000000000000000081529051929350600092610bfe92610bc792869273ffffffffffffffffffffffffffffffffffffffff909216916318160ddd91600480820192602092909190829003018186803b158015610b8f57600080fd5b505afa158015610ba3573d6000803e3d6000fd5b505050506040513d6020811015610bb957600080fd5b50519063ffffffff610d0016565b33600090815260026020526040902060010154610bf290670de0b6b3a764000063ffffffff610dc316565b9063ffffffff610e3616565b90506000610c1e670de0b6b3a7640000610bf2478563ffffffff610dc316565b60408051808201825242815233600081815260026020818152858320600181018054838801908152868652939092529451909455519092559151929350909183156108fc0291849190818181858888f193505050501580156105f2573d6000803e3d6000fd5b610c8c6107bf565b610cf757604080517f08c379a000000000000000000000000000000000000000000000000000000000815260206004820181905260248201527f4f776e61626c653a2063616c6c6572206973206e6f7420746865206f776e6572604482015290519081900360640190fd5b6106b881610e78565b6000610d4283836040518060400160405280601e81526020017f536166654d6174683a207375627472616374696f6e206f766572666c6f770000815250610f71565b90505b92915050565b3390565b600082820183811015610d4257604080517f08c379a000000000000000000000000000000000000000000000000000000000815260206004820152601b60248201527f536166654d6174683a206164646974696f6e206f766572666c6f770000000000604482015290519081900360640190fd5b600082610dd257506000610d45565b82820282848281610ddf57fe5b0414610d42576040517f08c379a00000000000000000000000000000000000000000000000000000000081526004018080602001828103825260218152602001806111386021913960400191505060405180910390fd5b6000610d4283836040518060400160405280601a81526020017f536166654d6174683a206469766973696f6e206279207a65726f000000000000815250611022565b73ffffffffffffffffffffffffffffffffffffffff8116610ee4576040517f08c379a00000000000000000000000000000000000000000000000000000000081526004018080602001828103825260268152602001806111126026913960400191505060405180910390fd5b6000805460405173ffffffffffffffffffffffffffffffffffffffff808516939216917f8be0079c531659141344cd1fd0a4f28419497f9722a3daafe3b4186f6b6457e091a3600080547fffffffffffffffffffffffff00000000000000000000000000000000000000001673ffffffffffffffffffffffffffffffffffffffff92909216919091179055565b6000818484111561101a576040517f08c379a00000000000000000000000000000000000000000000000000000000081526004018080602001828103825283818151815260200191508051906020019080838360005b83811015610fdf578181015183820152602001610fc7565b50505050905090810190601f16801561100c5780820380516001836020036101000a031916815260200191505b509250505060405180910390fd5b505050900390565b6000818361108b576040517f08c379a0000000000000000000000000000000000000000000000000000000008152602060048201818152835160248401528351909283926044909101919085019080838360008315610fdf578181015183820152602001610fc7565b50600083858161109757fe5b049594505050505056fe596f75206d7573742077616974206174206c656173742061206461792061667465722074686520736e617073686f7420746f2072656465656d20796f7572206561726e696e6773596f752063616e2774207769746864726177206d6f7265207468616e20796f75722062616c616e63654f776e61626c653a206e6577206f776e657220697320746865207a65726f2061646472657373536166654d6174683a206d756c7469706c69636174696f6e206f766572666c6f77a265627a7a7231582038daf8b0e0dd855621bd2fb65cef9f7c695c82cf6e746787fa3236a8f91582a064736f6c63430005110032",
  "source": "pragma solidity 0.5.17;\n\ncontract Context {\n    constructor () internal { }\n    // solhint-disable-previous-line no-empty-blocks\n\n    function _msgSender() internal view returns (address payable) {\n        return msg.sender;\n    }\n\n    function _msgData() internal view returns (bytes memory) {\n        this; // silence state mutability warning without generating bytecode - see https://github.com/ethereum/solidity/issues/2691\n        return msg.data;\n    }\n}\n\nlibrary SafeMath {\n    function add(uint256 a, uint256 b) internal pure returns (uint256) {\n        uint256 c = a + b;\n        require(c >= a, \"SafeMath: addition overflow\");\n\n        return c;\n    }\n    function sub(uint256 a, uint256 b) internal pure returns (uint256) {\n        return sub(a, b, \"SafeMath: subtraction overflow\");\n    }\n    function sub(uint256 a, uint256 b, string memory errorMessage) internal pure returns (uint256) {\n        require(b <= a, errorMessage);\n        uint256 c = a - b;\n\n        return c;\n    }\n    function mul(uint256 a, uint256 b) internal pure returns (uint256) {\n        if (a == 0) {\n            return 0;\n        }\n\n        uint256 c = a * b;\n        require(c / a == b, \"SafeMath: multiplication overflow\");\n\n        return c;\n    }\n    function div(uint256 a, uint256 b) internal pure returns (uint256) {\n        return div(a, b, \"SafeMath: division by zero\");\n    }\n    function div(uint256 a, uint256 b, string memory errorMessage) internal pure returns (uint256) {\n        // Solidity only automatically asserts when dividing by 0\n        require(b > 0, errorMessage);\n        uint256 c = a / b;\n\n        return c;\n    }\n    function mod(uint256 a, uint256 b) internal pure returns (uint256) {\n        return mod(a, b, \"SafeMath: modulo by zero\");\n    }\n    function mod(uint256 a, uint256 b, string memory errorMessage) internal pure returns (uint256) {\n        require(b != 0, errorMessage);\n        return a % b;\n    }\n}\n\ncontract Ownable is Context {\n    address payable private _owner;\n\n    event OwnershipTransferred(address indexed previousOwner, address indexed newOwner);\n    constructor () internal {\n        _owner = _msgSender();\n        emit OwnershipTransferred(address(0), _owner);\n    }\n    function owner() public view returns (address payable) {\n        return _owner;\n    }\n    modifier onlyOwner() {\n        require(isOwner(), \"Ownable: caller is not the owner\");\n        _;\n    }\n    function isOwner() public view returns (bool) {\n        return _msgSender() == _owner;\n    }\n    function renounceOwnership() public onlyOwner {\n        emit OwnershipTransferred(_owner, address(0));\n        _owner = address(0);\n    }\n    function transferOwnership(address payable newOwner) public onlyOwner {\n        _transferOwnership(newOwner);\n    }\n    function _transferOwnership(address payable newOwner) internal {\n        require(newOwner != address(0), \"Ownable: new owner is the zero address\");\n        emit OwnershipTransferred(_owner, newOwner);\n        _owner = newOwner;\n    }\n}\n\ninterface IERC20 {\n    function totalSupply() external view returns (uint256);\n    function balanceOf(address account) external view returns (uint256);\n    function transfer(address recipient, uint256 amount) external returns (bool);\n    function allowance(address owner, address spender) external view returns (uint256);\n    function approve(address spender, uint256 amount) external returns (bool);\n    function transferFrom(address sender, address recipient, uint256 amount) external returns (bool);\n    event Transfer(address indexed from, address indexed to, uint256 value);\n    event Approval(address indexed owner, address indexed spender, uint256 value);\n}\n\n/// @notice The contract that holds the retirement yeld funds and distributes them\ncontract RetirementYeldTreasury is Ownable {\n  using SafeMath for uint256;\n  IERC20 yeld;\n  uint256 public constant timeBetweenRedeems = 1 days;\n\n\tstruct Stake {\n\t\tuint256 timestamp;\n    uint256 yeldBalance;\n\t}\n\n\tmapping(address => Stake) public stakes;\n\tuint256 public totalStaked;\n\n  // Fallback function to receive payments\n  function () external payable {}\n\n  // To set the YELD contract address\n  constructor (address _yeld) public {\n    yeld = IERC20(_yeld);\n  }\n\n\t/// Stake yeld. Whenever you do so, the stake timestamp is restarted if you had any previous stakes\n\tfunction stakeYeld(uint256 _amount) public {\n\t\tyeld.transferFrom(msg.sender, address(this), _amount);\n\t\tstakes[msg.sender] = Stake(now, stakes[msg.sender].yeldBalance.add(_amount));\n\t\ttotalStaked = totalStaked.add(_amount);\n\t}\n\n\tfunction unstake(uint256 _amount) public {\n\t\tuint256 userBalance = stakes[msg.sender].yeldBalance;\n\t\trequire(userBalance > 0 && _amount > 0, \"You can't unstake less than zero\");\n\t\trequire(_amount <= userBalance, \"You can't withdraw more than your balance\");\n\t\tstakes[msg.sender] = Stake(now, stakes[msg.sender].yeldBalance.sub(_amount));\n\t\ttotalStaked = totalStaked.sub(_amount);\n\t\tyeld.transfer(msg.sender, _amount);\n\t}\n\n  /// Checks how much YELD the user currently has and sends him some eth based on that\n  function redeemETH() public {\n    require(now >= stakes[msg.sender].timestamp + timeBetweenRedeems, 'You must wait at least a day after the snapshot to redeem your earnings');\n    // Calculate his holdings % in 1 per 10^18% instead of 1 per 100%\n    uint256 burnedTokens = yeld.balanceOf(address(0));\n    uint256 userPercentage = stakes[msg.sender].yeldBalance.mul(1e18).div(yeld.totalSupply().sub(burnedTokens));\n    uint256 earnings = address(this).balance.mul(userPercentage).div(1e18);\n    stakes[msg.sender] = Stake(now, stakes[msg.sender].yeldBalance);\n    msg.sender.transfer(earnings);\n  }\n\n  function setYeld(address _yeld) public onlyOwner {\n    yeld = IERC20(_yeld);\n  }\n\n\tfunction extractETHIfStuck() public onlyOwner {\n    owner().transfer(address(this).balance);\n  }\n\n  function extractTokensIfStuck(address _token, uint256 _amount) public onlyOwner {\n    IERC20(_token).transfer(msg.sender, _amount);\n  }\n}",
  "sourcePath": "C:/Users/merun/Desktop/yeld & crypto/yeld-contracts/contracts/RetirementYeldTreasury.sol",
  "compiler": {
    "name": "solc",
    "version": "0.5.17+commit.d19bba13.Emscripten.clang"
  },
  "schemaVersion": "3.3.3",
  "updatedAt": "2021-01-30T18:30:23.325Z",
  "devdoc": {
    "methods": {}
  },
  "userdoc": {
    "methods": {
      "redeemETH()": {
        "notice": "Checks how much YELD the user currently has and sends him some eth based on that"
      },
      "stakeYeld(uint256)": {
        "notice": "Stake yeld. Whenever you do so, the stake timestamp is restarted if you had any previous stakes"
      }
    },
    "notice": "The contract that holds the retirement yeld funds and distributes them"
  }
}