{
  "contractName": "UpgradableRetirementYield",
  "abi": [
    {
      "anonymous": false,
      "inputs": [
        {
          "indexed": true,
          "internalType": "address",
          "name": "previousOwner",
          "type": "address"
        },
        {
          "indexed": true,
          "internalType": "address",
          "name": "newOwner",
          "type": "address"
        }
      ],
      "name": "OwnershipTransferred",
      "type": "event"
    },
    {
      "inputs": [],
      "name": "accomulatedRewards",
      "outputs": [
        {
          "internalType": "uint256",
          "name": "",
          "type": "uint256"
        }
      ],
      "stateMutability": "view",
      "type": "function"
    },
    {
      "inputs": [
        {
          "internalType": "address",
          "name": "",
          "type": "address"
        }
      ],
      "name": "amountLocked",
      "outputs": [
        {
          "internalType": "uint256",
          "name": "",
          "type": "uint256"
        }
      ],
      "stateMutability": "view",
      "type": "function"
    },
    {
      "inputs": [],
      "name": "chi",
      "outputs": [
        {
          "internalType": "address",
          "name": "",
          "type": "address"
        }
      ],
      "stateMutability": "view",
      "type": "function"
    },
    {
      "inputs": [],
      "name": "devTreasury",
      "outputs": [
        {
          "internalType": "address payable",
          "name": "",
          "type": "address"
        }
      ],
      "stateMutability": "view",
      "type": "function"
    },
    {
      "inputs": [],
      "name": "devTreasuryPercentage",
      "outputs": [
        {
          "internalType": "uint256",
          "name": "",
          "type": "uint256"
        }
      ],
      "stateMutability": "view",
      "type": "function"
    },
    {
      "inputs": [
        {
          "internalType": "address",
          "name": "",
          "type": "address"
        }
      ],
      "name": "lastPriceEarningsExtracted",
      "outputs": [
        {
          "internalType": "uint256",
          "name": "",
          "type": "uint256"
        }
      ],
      "stateMutability": "view",
      "type": "function"
    },
    {
      "inputs": [
        {
          "internalType": "address",
          "name": "",
          "type": "address"
        }
      ],
      "name": "lockingTime",
      "outputs": [
        {
          "internalType": "uint256",
          "name": "",
          "type": "uint256"
        }
      ],
      "stateMutability": "view",
      "type": "function"
    },
    {
      "inputs": [],
      "name": "owner",
      "outputs": [
        {
          "internalType": "address",
          "name": "",
          "type": "address"
        }
      ],
      "stateMutability": "view",
      "type": "function"
    },
    {
      "inputs": [],
      "name": "pricePadding",
      "outputs": [
        {
          "internalType": "uint256",
          "name": "",
          "type": "uint256"
        }
      ],
      "stateMutability": "view",
      "type": "function"
    },
    {
      "inputs": [],
      "name": "renounceOwnership",
      "outputs": [],
      "stateMutability": "nonpayable",
      "type": "function"
    },
    {
      "inputs": [],
      "name": "timeToExitLiquidity",
      "outputs": [
        {
          "internalType": "uint256",
          "name": "",
          "type": "uint256"
        }
      ],
      "stateMutability": "view",
      "type": "function"
    },
    {
      "inputs": [],
      "name": "totalLiquidityLocked",
      "outputs": [
        {
          "internalType": "uint256",
          "name": "",
          "type": "uint256"
        }
      ],
      "stateMutability": "view",
      "type": "function"
    },
    {
      "inputs": [],
      "name": "totalYeldFeeMined",
      "outputs": [
        {
          "internalType": "uint256",
          "name": "",
          "type": "uint256"
        }
      ],
      "stateMutability": "view",
      "type": "function"
    },
    {
      "inputs": [
        {
          "internalType": "address",
          "name": "newOwner",
          "type": "address"
        }
      ],
      "name": "transferOwnership",
      "outputs": [],
      "stateMutability": "nonpayable",
      "type": "function"
    },
    {
      "inputs": [],
      "name": "yeld",
      "outputs": [
        {
          "internalType": "address",
          "name": "",
          "type": "address"
        }
      ],
      "stateMutability": "view",
      "type": "function"
    },
    {
      "inputs": [],
      "name": "yeldFeePrice",
      "outputs": [
        {
          "internalType": "uint256",
          "name": "",
          "type": "uint256"
        }
      ],
      "stateMutability": "view",
      "type": "function"
    },
    {
      "stateMutability": "payable",
      "type": "receive"
    },
    {
      "inputs": [
        {
          "internalType": "address",
          "name": "_yeld",
          "type": "address"
        },
        {
          "internalType": "address payable",
          "name": "_devTreasury",
          "type": "address"
        },
        {
          "internalType": "address",
          "name": "_chi",
          "type": "address"
        }
      ],
      "name": "initialize",
      "outputs": [],
      "stateMutability": "nonpayable",
      "type": "function"
    },
    {
      "inputs": [
        {
          "internalType": "address",
          "name": "_yeld",
          "type": "address"
        }
      ],
      "name": "setYeld",
      "outputs": [],
      "stateMutability": "nonpayable",
      "type": "function"
    },
    {
      "inputs": [
        {
          "internalType": "uint256",
          "name": "_time",
          "type": "uint256"
        }
      ],
      "name": "setTimeToExitLiquidity",
      "outputs": [],
      "stateMutability": "nonpayable",
      "type": "function"
    },
    {
      "inputs": [
        {
          "internalType": "uint256",
          "name": "_amount",
          "type": "uint256"
        }
      ],
      "name": "discountedLockLiquidity",
      "outputs": [],
      "stateMutability": "nonpayable",
      "type": "function"
    },
    {
      "inputs": [],
      "name": "discountedExtractEarnings",
      "outputs": [],
      "stateMutability": "nonpayable",
      "type": "function"
    },
    {
      "inputs": [],
      "name": "discountedExtractLiquidity",
      "outputs": [],
      "stateMutability": "nonpayable",
      "type": "function"
    },
    {
      "inputs": [
        {
          "internalType": "uint256",
          "name": "_amount",
          "type": "uint256"
        }
      ],
      "name": "lockLiquidity",
      "outputs": [],
      "stateMutability": "nonpayable",
      "type": "function"
    },
    {
      "inputs": [],
      "name": "extractEarnings",
      "outputs": [],
      "stateMutability": "nonpayable",
      "type": "function"
    },
    {
      "inputs": [],
      "name": "extractLiquidity",
      "outputs": [],
      "stateMutability": "nonpayable",
      "type": "function"
    },
    {
      "inputs": [
        {
          "internalType": "address",
          "name": "_user",
          "type": "address"
        }
      ],
      "name": "getAmountLocked",
      "outputs": [
        {
          "internalType": "uint256",
          "name": "",
          "type": "uint256"
        }
      ],
      "stateMutability": "view",
      "type": "function"
    },
    {
      "inputs": [
        {
          "internalType": "address",
          "name": "_token",
          "type": "address"
        },
        {
          "internalType": "uint256",
          "name": "_amount",
          "type": "uint256"
        }
      ],
      "name": "extractTokensIfStuck",
      "outputs": [],
      "stateMutability": "nonpayable",
      "type": "function"
    },
    {
      "inputs": [],
      "name": "extractETHIfStruck",
      "outputs": [],
      "stateMutability": "nonpayable",
      "type": "function"
    }
  ],
  "bytecode": "0x608060405234801561001057600080fd5b50612129806100206000396000f3fe6080604052600436106101bb5760003560e01c80638f4b7fca116100ec578063dabf06301161008a578063f2fde38b11610064578063f2fde38b1461055c578063f6c788b21461059c578063f6ed4343146105dc578063f829d034146105f1576101cb565b8063dabf063014610508578063e01f62bf14610532578063e21b418e14610547576101cb565b8063aacc0edc116100c6578063aacc0edc14610462578063b19ab0761461048c578063c0c53b8b146104a1578063c92aecc4146104f3576101cb565b80638f4b7fca146103f2578063a7e9be3714610407578063a9a1015a1461041c576101cb565b80633fbb2c011161015957806371476c861161013357806371476c8614610375578063715018a61461038a578063801d277a1461039f5780638da5cb5b146103b4576101cb565b80633fbb2c01146102e0578063556f7fc014610320578063601fdff314610335576101cb565b80632834d639116101955780632834d639146102215780632bfbd9cf146102615780633b1796e31461028b5780633df28775146102a0576101cb565b8063048ce98c146101d057806309338b52146101e557806323584dce146101fa576101cb565b366101cb576101c934610606565b005b600080fd5b3480156101dc57600080fd5b506101c961066d565b3480156101f157600080fd5b506101c9610866565b34801561020657600080fd5b5061020f610944565b60408051918252519081900360200190f35b34801561022d57600080fd5b506101c96004803603602081101561024457600080fd5b503573ffffffffffffffffffffffffffffffffffffffff1661094a565b34801561026d57600080fd5b506101c96004803603602081101561028457600080fd5b5035610a22565b34801561029757600080fd5b506101c9610d1d565b3480156102ac57600080fd5b5061020f600480360360208110156102c357600080fd5b503573ffffffffffffffffffffffffffffffffffffffff16610f1d565b3480156102ec57600080fd5b5061020f6004803603602081101561030357600080fd5b503573ffffffffffffffffffffffffffffffffffffffff16610f2f565b34801561032c57600080fd5b5061020f610f41565b34801561034157600080fd5b5061020f6004803603602081101561035857600080fd5b503573ffffffffffffffffffffffffffffffffffffffff16610f47565b34801561038157600080fd5b5061020f610f6f565b34801561039657600080fd5b506101c9610f75565b3480156103ab57600080fd5b506101c9611075565b3480156103c057600080fd5b506103c961117a565b6040805173ffffffffffffffffffffffffffffffffffffffff9092168252519081900360200190f35b3480156103fe57600080fd5b506103c9611196565b34801561041357600080fd5b5061020f6111b2565b34801561042857600080fd5b506101c96004803603604081101561043f57600080fd5b5073ffffffffffffffffffffffffffffffffffffffff81351690602001356111b8565b34801561046e57600080fd5b506101c96004803603602081101561048557600080fd5b50356112d7565b34801561049857600080fd5b506103c96113d7565b3480156104ad57600080fd5b506101c9600480360360608110156104c457600080fd5b5073ffffffffffffffffffffffffffffffffffffffff81358116916020810135821691604090910135166113f3565b3480156104ff57600080fd5b506103c9611594565b34801561051457600080fd5b506101c96004803603602081101561052b57600080fd5b50356115b0565b34801561053e57600080fd5b5061020f611646565b34801561055357600080fd5b506101c961164c565b34801561056857600080fd5b506101c96004803603602081101561057f57600080fd5b503573ffffffffffffffffffffffffffffffffffffffff16611659565b3480156105a857600080fd5b5061020f600480360360208110156105bf57600080fd5b503573ffffffffffffffffffffffffffffffffffffffff166117e4565b3480156105e857600080fd5b5061020f6117f6565b3480156105fd57600080fd5b5061020f6117fc565b609e54610619908263ffffffff61180216565b609e55609b5461062d576000609d5561066a565b610666609d5461065a609b5461064e609f548661187f90919063ffffffff16565b9063ffffffff6118f216565b9063ffffffff61180216565b609d555b50565b336000908152609760205260409020546106d2576040517f08c379a0000000000000000000000000000000000000000000000000000000008152600401808060200182810382526059815260200180611e766059913960600191505060405180910390fd5b60a054336000908152609960205260409020544203101561073e576040517f08c379a000000000000000000000000000000000000000000000000000000000815260040180806020018281038252606d815260200180611ecf606d913960800191505060405180910390fd5b336000908152609860205260409020541580159061076d5750609d543360009081526098602052604090205414155b1561077a5761077a610d1d565b336000908152609760209081526040808320805490849055609983528184204290556098909252822091909155609b546107ba908263ffffffff61193416565b609b55609a54604080517fa9059cbb00000000000000000000000000000000000000000000000000000000815233600482015260248101849052905173ffffffffffffffffffffffffffffffffffffffff9092169163a9059cbb916044808201926020929091908290030181600087803b15801561083757600080fd5b505af115801561084b573d6000803e3d6000fd5b505050506040513d602081101561086157600080fd5b505050565b61086e611976565b60655473ffffffffffffffffffffffffffffffffffffffff9081169116146108f757604080517f08c379a000000000000000000000000000000000000000000000000000000000815260206004820181905260248201527f4f776e61626c653a2063616c6c6572206973206e6f7420746865206f776e6572604482015290519081900360640190fd5b6108ff61117a565b73ffffffffffffffffffffffffffffffffffffffff166108fc479081150290604051600060405180830381858888f1935050505015801561066a573d6000803e3d6000fd5b609d5481565b610952611976565b60655473ffffffffffffffffffffffffffffffffffffffff9081169116146109db57604080517f08c379a000000000000000000000000000000000000000000000000000000000815260206004820181905260248201527f4f776e61626c653a2063616c6c6572206973206e6f7420746865206f776e6572604482015290519081900360640190fd5b609a80547fffffffffffffffffffffffff00000000000000000000000000000000000000001673ffffffffffffffffffffffffffffffffffffffff92909216919091179055565b60008111610a7b576040517f08c379a000000000000000000000000000000000000000000000000000000000815260040180806020018281038252603a815260200180611f62603a913960400191505060405180910390fd5b609a54604080517fdd62ed3e000000000000000000000000000000000000000000000000000000008152336004820152306024820152905160009273ffffffffffffffffffffffffffffffffffffffff169163dd62ed3e916044808301926020929190829003018186803b158015610af257600080fd5b505afa158015610b06573d6000803e3d6000fd5b505050506040513d6020811015610b1c57600080fd5b5051905081811015610b79576040517f08c379a0000000000000000000000000000000000000000000000000000000008152600401808060200182810382526064815260200180611f9c6064913960800191505060405180910390fd5b609a54604080517f23b872dd00000000000000000000000000000000000000000000000000000000815233600482015230602482015260448101859052905173ffffffffffffffffffffffffffffffffffffffff909216916323b872dd916064808201926020929091908290030181600087803b158015610bf957600080fd5b505af1158015610c0d573d6000803e3d6000fd5b505050506040513d6020811015610c2357600080fd5b5050609b54610c38908363ffffffff61180216565b609b553360009081526098602052604090205415801590610c6a5750609d543360009081526098602052604090205414155b15610c7757610c77610d1d565b609d54610cc757610ca5670de0b6b3a764000061065a8461064e609f54609e5461187f90919063ffffffff16565b609d55336000908152609860205260409020670de0b6b3a76400009055610cdb565b609d54336000908152609860205260409020555b33600090815260976020526040902054610cfb908363ffffffff61180216565b3360009081526097602090815260408083209390935560999052204290555050565b33600090815260976020526040902054610d82576040517f08c379a00000000000000000000000000000000000000000000000000000000081526004018080602001828103825260628152602001806120926062913960800191505060405180910390fd5b33600090815260986020526040902054609d541415610dec576040517f08c379a000000000000000000000000000000000000000000000000000000000815260040180806020018281038252604381526020018061204f6043913960600191505060405180910390fd5b33600090815260986020526040812054609d54610e0e9163ffffffff61193416565b609f543360009081526097602052604081205492935091610e3a919061064e908563ffffffff61187f16565b609d5433600090815260986020526040902055609e54909150610e63908263ffffffff61193416565b609e5560a354600090610e8c9068056bc75e2d631000009061064e90859063ffffffff61187f16565b90506000610ea0838363ffffffff61193416565b60a25460405191925073ffffffffffffffffffffffffffffffffffffffff169083156108fc029084906000818181858888f19350505050158015610ee8573d6000803e3d6000fd5b50604051339082156108fc029083906000818181858888f19350505050158015610f16573d6000803e3d6000fd5b5050505050565b60986020526000908152604090205481565b60996020526000908152604090205481565b609c5481565b73ffffffffffffffffffffffffffffffffffffffff1660009081526097602052604090205490565b60a35481565b610f7d611976565b60655473ffffffffffffffffffffffffffffffffffffffff90811691161461100657604080517f08c379a000000000000000000000000000000000000000000000000000000000815260206004820181905260248201527f4f776e61626c653a2063616c6c6572206973206e6f7420746865206f776e6572604482015290519081900360640190fd5b60655460405160009173ffffffffffffffffffffffffffffffffffffffff16907f8be0079c531659141344cd1fd0a4f28419497f9722a3daafe3b4186f6b6457e0908390a3606580547fffffffffffffffffffffffff0000000000000000000000000000000000000000169055565b60005a9050611082610d1d565b6000601036025a83615208010301905060a160009054906101000a900473ffffffffffffffffffffffffffffffffffffffff1673ffffffffffffffffffffffffffffffffffffffff1663079d229f3361a3db8461374a01816110e057fe5b046040518363ffffffff1660e01b8152600401808373ffffffffffffffffffffffffffffffffffffffff1673ffffffffffffffffffffffffffffffffffffffff16815260200182815260200192505050602060405180830381600087803b15801561114a57600080fd5b505af115801561115e573d6000803e3d6000fd5b505050506040513d602081101561117457600080fd5b50505050565b60655473ffffffffffffffffffffffffffffffffffffffff1690565b609a5473ffffffffffffffffffffffffffffffffffffffff1681565b60a05481565b6111c0611976565b60655473ffffffffffffffffffffffffffffffffffffffff90811691161461124957604080517f08c379a000000000000000000000000000000000000000000000000000000000815260206004820181905260248201527f4f776e61626c653a2063616c6c6572206973206e6f7420746865206f776e6572604482015290519081900360640190fd5b8173ffffffffffffffffffffffffffffffffffffffff1663a9059cbb61126d61117a565b836040518363ffffffff1660e01b8152600401808373ffffffffffffffffffffffffffffffffffffffff1673ffffffffffffffffffffffffffffffffffffffff16815260200182815260200192505050602060405180830381600087803b15801561114a57600080fd5b60005a90506112e582610a22565b6000601036025a83615208010301905060a160009054906101000a900473ffffffffffffffffffffffffffffffffffffffff1673ffffffffffffffffffffffffffffffffffffffff1663079d229f3361a3db8461374a018161134357fe5b046040518363ffffffff1660e01b8152600401808373ffffffffffffffffffffffffffffffffffffffff1673ffffffffffffffffffffffffffffffffffffffff16815260200182815260200192505050602060405180830381600087803b1580156113ad57600080fd5b505af11580156113c1573d6000803e3d6000fd5b505050506040513d6020811015610f1657600080fd5b60a25473ffffffffffffffffffffffffffffffffffffffff1681565b600054610100900460ff168061140c575061140c61197a565b8061141a575060005460ff16155b61146f576040517f08c379a000000000000000000000000000000000000000000000000000000000815260040180806020018281038252602e815260200180612021602e913960400191505060405180910390fd5b600054610100900460ff161580156114d557600080547fffffffffffffffffffffffffffffffffffffffffffffffffffffffffffffff007fffffffffffffffffffffffffffffffffffffffffffffffffffffffffffff00ff909116610100171660011790555b6114dd611980565b609a805473ffffffffffffffffffffffffffffffffffffffff8087167fffffffffffffffffffffffff000000000000000000000000000000000000000092831617909255670de0b6b3a7640000609f556301e1338060a05560a1805485841690831617905560a28054928616929091169190911790556802b5e3af16b188000060a355801561117457600080547fffffffffffffffffffffffffffffffffffffffffffffffffffffffffffff00ff16905550505050565b60a15473ffffffffffffffffffffffffffffffffffffffff1681565b6115b8611976565b60655473ffffffffffffffffffffffffffffffffffffffff90811691161461164157604080517f08c379a000000000000000000000000000000000000000000000000000000000815260206004820181905260248201527f4f776e61626c653a2063616c6c6572206973206e6f7420746865206f776e6572604482015290519081900360640190fd5b60a055565b609b5481565b60005a905061108261066d565b611661611976565b60655473ffffffffffffffffffffffffffffffffffffffff9081169116146116ea57604080517f08c379a000000000000000000000000000000000000000000000000000000000815260206004820181905260248201527f4f776e61626c653a2063616c6c6572206973206e6f7420746865206f776e6572604482015290519081900360640190fd5b73ffffffffffffffffffffffffffffffffffffffff8116611756576040517f08c379a0000000000000000000000000000000000000000000000000000000008152600401808060200182810382526026815260200180611f3c6026913960400191505060405180910390fd5b60655460405173ffffffffffffffffffffffffffffffffffffffff8084169216907f8be0079c531659141344cd1fd0a4f28419497f9722a3daafe3b4186f6b6457e090600090a3606580547fffffffffffffffffffffffff00000000000000000000000000000000000000001673ffffffffffffffffffffffffffffffffffffffff92909216919091179055565b60976020526000908152604090205481565b609e5481565b609f5481565b60008282018381101561187657604080517f08c379a000000000000000000000000000000000000000000000000000000000815260206004820152601b60248201527f536166654d6174683a206164646974696f6e206f766572666c6f770000000000604482015290519081900360640190fd5b90505b92915050565b60008261188e57506000611879565b8282028284828161189b57fe5b0414611876576040517f08c379a00000000000000000000000000000000000000000000000000000000081526004018080602001828103825260218152602001806120006021913960400191505060405180910390fd5b600061187683836040518060400160405280601a81526020017f536166654d6174683a206469766973696f6e206279207a65726f000000000000815250611aa3565b600061187683836040518060400160405280601e81526020017f536166654d6174683a207375627472616374696f6e206f766572666c6f770000815250611b5f565b3390565b303b1590565b600054610100900460ff1680611999575061199961197a565b806119a7575060005460ff16155b6119fc576040517f08c379a000000000000000000000000000000000000000000000000000000000815260040180806020018281038252602e815260200180612021602e913960400191505060405180910390fd5b600054610100900460ff16158015611a6257600080547fffffffffffffffffffffffffffffffffffffffffffffffffffffffffffffff007fffffffffffffffffffffffffffffffffffffffffffffffffffffffffffff00ff909116610100171660011790555b611a6a611bd3565b611a72611ce5565b801561066a57600080547fffffffffffffffffffffffffffffffffffffffffffffffffffffffffffff00ff16905550565b60008183611b49576040517f08c379a00000000000000000000000000000000000000000000000000000000081526004018080602001828103825283818151815260200191508051906020019080838360005b83811015611b0e578181015183820152602001611af6565b50505050905090810190601f168015611b3b5780820380516001836020036101000a031916815260200191505b509250505060405180910390fd5b506000838581611b5557fe5b0495945050505050565b60008184841115611bcb576040517f08c379a0000000000000000000000000000000000000000000000000000000008152602060048201818152835160248401528351909283926044909101919085019080838360008315611b0e578181015183820152602001611af6565b505050900390565b600054610100900460ff1680611bec5750611bec61197a565b80611bfa575060005460ff16155b611c4f576040517f08c379a000000000000000000000000000000000000000000000000000000000815260040180806020018281038252602e815260200180612021602e913960400191505060405180910390fd5b600054610100900460ff16158015611a7257600080547fffffffffffffffffffffffffffffffffffffffffffffffffffffffffffffff007fffffffffffffffffffffffffffffffffffffffffffffffffffffffffffff00ff90911661010017166001179055801561066a57600080547fffffffffffffffffffffffffffffffffffffffffffffffffffffffffffff00ff16905550565b600054610100900460ff1680611cfe5750611cfe61197a565b80611d0c575060005460ff16155b611d61576040517f08c379a000000000000000000000000000000000000000000000000000000000815260040180806020018281038252602e815260200180612021602e913960400191505060405180910390fd5b600054610100900460ff16158015611dc757600080547fffffffffffffffffffffffffffffffffffffffffffffffffffffffffffffff007fffffffffffffffffffffffffffffffffffffffffffffffffffffffffffff00ff909116610100171660011790555b6000611dd1611976565b606580547fffffffffffffffffffffffff00000000000000000000000000000000000000001673ffffffffffffffffffffffffffffffffffffffff8316908117909155604051919250906000907f8be0079c531659141344cd1fd0a4f28419497f9722a3daafe3b4186f6b6457e0908290a350801561066a57600080547fffffffffffffffffffffffffffffffffffffffffffffffffffffffffffff00ff1690555056fe55706772616461626c655265746972656d656e745969656c643a20596f75206d7573742068617665206c6f636b6564206c69717569646974792070726f766964657220746f6b656e7320746f2065787472616374207468656d55706772616461626c655265746972656d656e745969656c643a20596f75206d75737420776169742074686520737065636966696564206c6f636b696e672074696d6520746f206578747261637420796f7572206c69717569646974792070726f766964657220746f6b656e734f776e61626c653a206e6577206f776e657220697320746865207a65726f206164647265737355706772616461626c655265746972656d656e745969656c643a20416d6f756e74206d757374206265206c6172676572207468616e207a65726f55706772616461626c655265746972656d656e745969656c643a20596f75206d75737420617070726f766520746865206465736972656420616d6f756e74206f662059454c4420746f6b656e7320746f207468697320636f6e7472616374206669727374536166654d6174683a206d756c7469706c69636174696f6e206f766572666c6f77436f6e747261637420696e7374616e63652068617320616c7265616479206265656e20696e697469616c697a656455706772616461626c655265746972656d656e745969656c643a20596f75206861766520616c72656164792065787472616374656420796f7572206561726e696e677355706772616461626c655265746972656d656e745969656c643a20596f75206d7573742068617665206c6f636b6564206c69717569646974792070726f766964657220746f6b656e7320746f206578747261637420796f7572206561726e696e6773a2646970667358221220d86f84542f897bffad51db1479f347609f7e3949553c401053228168b214710c64736f6c63430006020033",
  "source": "pragma solidity =0.6.2;\n\nimport '@openzeppelin/contracts-ethereum-package/contracts/access/Ownable.sol';\nimport '@openzeppelin/contracts-ethereum-package/contracts/token/ERC20/IERC20.sol';\nimport '@openzeppelin/contracts-ethereum-package/contracts/Initializable.sol';\nimport '@openzeppelin/contracts-ethereum-package/contracts/math/SafeMath.sol';\n\nabstract contract IFreeFromUpTo is IERC20 {\n    function freeFromUpTo(address from, uint256 value) external virtual returns(uint256 freed);\n}\n\n/// @notice This contract allows you to lock liquidity LP tokens and receive earnings\n/// It also allows you to extract those earnings\ncontract UpgradableRetirementYield is Initializable, OwnableUpgradeSafe {\n    using SafeMath for uint256;\n\n    // How many LP tokens each user has\n    mapping (address => uint256) public amountLocked;\n    // The price when you extracted your earnings so we can whether you got new earnings or not\n    mapping (address => uint256) public lastPriceEarningsExtracted;\n    // When the user started locking his LP tokens\n    mapping (address => uint256) public lockingTime;\n    // The uniswap LP token contract\n    address public yeld;\n    // How many LP tokens are locked\n    uint256 public totalLiquidityLocked;\n    // The total YELDFee generated\n    uint256 public totalYeldFeeMined;\n    uint256 public yeldFeePrice;\n    uint256 public accomulatedRewards;\n    uint256 public pricePadding;\n    uint256 public timeToExitLiquidity;\n    address public chi; // The gastoken\n    address payable public devTreasury;\n    uint256 public devTreasuryPercentage;\n\n    modifier discountCHI {\n        uint256 gasStart = gasleft();\n        _;\n        uint256 gasSpent = 21000 + gasStart - gasleft() + 16 * msg.data.length;\n        IFreeFromUpTo(chi).freeFromUpTo(msg.sender, (gasSpent + 14154) / 41947);\n    }\n    \n    // increase the yeldFeePrice\n    receive() external payable {\n        addFeeAndUpdatePrice(msg.value);\n    }\n\n    // Chi mainnet 0x0000000000004946c0e9F43F4Dee607b0eF1fA1c\n    function initialize(address _yeld, address payable _devTreasury, address _chi) public initializer {\n        __Ownable_init();\n        yeld = _yeld;\n        pricePadding = 1e18;\n        timeToExitLiquidity = 365 days;\n        chi = _chi;\n        devTreasury = _devTreasury;\n        devTreasuryPercentage = 50e18; // 50% padded 1e18\n    }\n\n    function setYeld(address _yeld) public onlyOwner {\n        yeld = _yeld;\n    }\n\n    function setTimeToExitLiquidity(uint256 _time) public onlyOwner {\n        timeToExitLiquidity = _time;\n    }\n\n    /// @notice When ETH is added, the price is increased\n    /// Price is = (feeIn / totalYELDFeeDistributed) + currentPrice\n    /// padded with 18 zeroes that get removed after the calculations\n    /// if there are no locked LPs, the price is 0\n    function addFeeAndUpdatePrice(uint256 _feeIn) internal {\n        accomulatedRewards = accomulatedRewards.add(_feeIn);\n        if (totalLiquidityLocked == 0) {\n            yeldFeePrice = 0;\n        } else {\n            yeldFeePrice = (_feeIn.mul(pricePadding).div(totalLiquidityLocked)).add(yeldFeePrice);\n        }\n    }\n\n    function discountedLockLiquidity(uint256 _amount) public discountCHI {\n        lockLiquidity(_amount);\n    }\n\n    function discountedExtractEarnings() public discountCHI {\n        extractEarnings();\n    }\n\n    function discountedExtractLiquidity() public discountCHI {\n        extractLiquidity();\n    }\n\n    function lockLiquidity(uint256 _amount) public {\n        require(_amount > 0, 'UpgradableRetirementYield: Amount must be larger than zero');\n        // Transfer UNI-LP-V2 tokens inside here forever while earning fees from every transfer, LP tokens can't be extracted\n        uint256 approval = IERC20(yeld).allowance(msg.sender, address(this));\n        require(approval >= _amount, 'UpgradableRetirementYield: You must approve the desired amount of YELD tokens to this contract first');\n        IERC20(yeld).transferFrom(msg.sender, address(this), _amount);\n        totalLiquidityLocked = totalLiquidityLocked.add(_amount);\n        // Extract earnings in case the user is not a new Locked LP\n        if (lastPriceEarningsExtracted[msg.sender] != 0 && lastPriceEarningsExtracted[msg.sender] != yeldFeePrice) {\n            extractEarnings();\n        }\n        // Set the initial price\n        if (yeldFeePrice == 0) {\n            yeldFeePrice = accomulatedRewards.mul(pricePadding).div(_amount).add(1e18);\n            lastPriceEarningsExtracted[msg.sender] = 1e18;\n        } else {\n            lastPriceEarningsExtracted[msg.sender] = yeldFeePrice;\n        }\n        // The price doesn't change when locking liquidity. It changes when fees are generated from transfers\n        amountLocked[msg.sender] = amountLocked[msg.sender].add(_amount);\n        // Notice that the locking time is reset when new liquidity is added\n        lockingTime[msg.sender] = now;\n    }\n\n    // We check for new earnings by seeing if the price the user last extracted his earnings\n    // is the same or not to determine whether he can extract new earnings or not\n    function extractEarnings() public {\n        require(amountLocked[msg.sender] > 0, 'UpgradableRetirementYield: You must have locked liquidity provider tokens to extract your earnings');\n        require(yeldFeePrice != lastPriceEarningsExtracted[msg.sender], 'UpgradableRetirementYield: You have already extracted your earnings');\n        // The amountLocked price minus the last price extracted\n        uint256 myPrice = yeldFeePrice.sub(lastPriceEarningsExtracted[msg.sender]);\n        uint256 earnings = amountLocked[msg.sender].mul(myPrice).div(pricePadding);\n        lastPriceEarningsExtracted[msg.sender] = yeldFeePrice;\n        accomulatedRewards = accomulatedRewards.sub(earnings);\n        uint256 devTreasuryEarnings = earnings.mul(devTreasuryPercentage).div(1e20);\n        uint256 remaining = earnings.sub(devTreasuryEarnings);\n\n        // Transfer the ETH earnings\n        devTreasury.transfer(devTreasuryEarnings);\n        msg.sender.transfer(remaining);\n    }\n\n    // The user must lock the liquidity for 1 year and only then can extract his Locked LP tokens\n    // he must extract all the LPs for simplicity and security purposes\n    function extractLiquidity() public {\n        require(amountLocked[msg.sender] > 0, 'UpgradableRetirementYield: You must have locked liquidity provider tokens to extract them');\n        require(now - lockingTime[msg.sender] >= timeToExitLiquidity, 'UpgradableRetirementYield: You must wait the specified locking time to extract your liquidity provider tokens');\n        // Extract earnings in case there are some\n        if (lastPriceEarningsExtracted[msg.sender] != 0 && lastPriceEarningsExtracted[msg.sender] != yeldFeePrice) {\n            extractEarnings();\n        }\n        uint256 locked = amountLocked[msg.sender];\n        amountLocked[msg.sender] = 0;\n        lockingTime[msg.sender] = now;\n        lastPriceEarningsExtracted[msg.sender] = 0;\n        totalLiquidityLocked = totalLiquidityLocked.sub(locked);\n        IERC20(yeld).transfer(msg.sender, locked);\n    }\n\n    function getAmountLocked(address _user) public view returns (uint256) {\n        return amountLocked[_user];\n    }\n\n    function extractTokensIfStuck(address _token, uint256 _amount) public onlyOwner {\n        IERC20(_token).transfer(owner(), _amount);\n    }\n\n    function extractETHIfStruck() public onlyOwner {\n        payable(address(owner())).transfer(address(this).balance);\n    }\n}",
  "sourcePath": "C:/Users/merun/Desktop/yeld & crypto/yeld-contracts/contracts/UpgradableRetirementYield.sol",
  "compiler": {
    "name": "solc",
    "version": "0.6.2+commit.bacdbe57.Emscripten.clang"
  },
  "schemaVersion": "3.3.3",
  "updatedAt": "2021-01-30T18:33:37.766Z",
  "devdoc": {
    "methods": {
      "owner()": {
        "details": "Returns the address of the current owner."
      },
      "renounceOwnership()": {
        "details": "Leaves the contract without owner. It will not be possible to call `onlyOwner` functions anymore. Can only be called by the current owner.     * NOTE: Renouncing ownership will leave the contract without an owner, thereby removing any functionality that is only available to the owner."
      },
      "transferOwnership(address)": {
        "details": "Transfers ownership of the contract to a new account (`newOwner`). Can only be called by the current owner."
      }
    }
  },
  "userdoc": {
    "methods": {},
    "notice": "This contract allows you to lock liquidity LP tokens and receive earnings It also allows you to extract those earnings"
  }
}