{
  "contractName": "yDAI",
  "abi": [
    {
      "inputs": [
        {
          "internalType": "address",
          "name": "_yeldToken",
          "type": "address"
        },
        {
          "internalType": "address payable",
          "name": "_retirementYeldTreasury",
          "type": "address"
        },
        {
          "internalType": "address",
          "name": "_devTreasury",
          "type": "address"
        }
      ],
      "payable": true,
      "stateMutability": "payable",
      "type": "constructor"
    },
    {
      "anonymous": false,
      "inputs": [
        {
          "indexed": true,
          "internalType": "address",
          "name": "owner",
          "type": "address"
        },
        {
          "indexed": true,
          "internalType": "address",
          "name": "spender",
          "type": "address"
        },
        {
          "indexed": false,
          "internalType": "uint256",
          "name": "value",
          "type": "uint256"
        }
      ],
      "name": "Approval",
      "type": "event"
    },
    {
      "anonymous": false,
      "inputs": [
        {
          "indexed": true,
          "internalType": "address",
          "name": "previousOwner",
          "type": "address"
        },
        {
          "indexed": true,
          "internalType": "address",
          "name": "newOwner",
          "type": "address"
        }
      ],
      "name": "OwnershipTransferred",
      "type": "event"
    },
    {
      "anonymous": false,
      "inputs": [
        {
          "indexed": true,
          "internalType": "address",
          "name": "from",
          "type": "address"
        },
        {
          "indexed": true,
          "internalType": "address",
          "name": "to",
          "type": "address"
        },
        {
          "indexed": false,
          "internalType": "uint256",
          "name": "value",
          "type": "uint256"
        }
      ],
      "name": "Transfer",
      "type": "event"
    },
    {
      "payable": true,
      "stateMutability": "payable",
      "type": "fallback"
    },
    {
      "constant": true,
      "inputs": [],
      "name": "aave",
      "outputs": [
        {
          "internalType": "address",
          "name": "",
          "type": "address"
        }
      ],
      "payable": false,
      "stateMutability": "view",
      "type": "function"
    },
    {
      "constant": true,
      "inputs": [],
      "name": "aavePool",
      "outputs": [
        {
          "internalType": "address",
          "name": "",
          "type": "address"
        }
      ],
      "payable": false,
      "stateMutability": "view",
      "type": "function"
    },
    {
      "constant": true,
      "inputs": [],
      "name": "aaveToken",
      "outputs": [
        {
          "internalType": "address",
          "name": "",
          "type": "address"
        }
      ],
      "payable": false,
      "stateMutability": "view",
      "type": "function"
    },
    {
      "constant": true,
      "inputs": [
        {
          "internalType": "address",
          "name": "owner",
          "type": "address"
        },
        {
          "internalType": "address",
          "name": "spender",
          "type": "address"
        }
      ],
      "name": "allowance",
      "outputs": [
        {
          "internalType": "uint256",
          "name": "",
          "type": "uint256"
        }
      ],
      "payable": false,
      "stateMutability": "view",
      "type": "function"
    },
    {
      "constant": false,
      "inputs": [
        {
          "internalType": "address",
          "name": "spender",
          "type": "address"
        },
        {
          "internalType": "uint256",
          "name": "amount",
          "type": "uint256"
        }
      ],
      "name": "approve",
      "outputs": [
        {
          "internalType": "bool",
          "name": "",
          "type": "bool"
        }
      ],
      "payable": false,
      "stateMutability": "nonpayable",
      "type": "function"
    },
    {
      "constant": true,
      "inputs": [],
      "name": "apr",
      "outputs": [
        {
          "internalType": "address",
          "name": "",
          "type": "address"
        }
      ],
      "payable": false,
      "stateMutability": "view",
      "type": "function"
    },
    {
      "constant": true,
      "inputs": [
        {
          "internalType": "address",
          "name": "account",
          "type": "address"
        }
      ],
      "name": "balanceOf",
      "outputs": [
        {
          "internalType": "uint256",
          "name": "",
          "type": "uint256"
        }
      ],
      "payable": false,
      "stateMutability": "view",
      "type": "function"
    },
    {
      "constant": true,
      "inputs": [],
      "name": "chai",
      "outputs": [
        {
          "internalType": "address",
          "name": "",
          "type": "address"
        }
      ],
      "payable": false,
      "stateMutability": "view",
      "type": "function"
    },
    {
      "constant": true,
      "inputs": [],
      "name": "compound",
      "outputs": [
        {
          "internalType": "address",
          "name": "",
          "type": "address"
        }
      ],
      "payable": false,
      "stateMutability": "view",
      "type": "function"
    },
    {
      "constant": true,
      "inputs": [],
      "name": "dToken",
      "outputs": [
        {
          "internalType": "uint256",
          "name": "",
          "type": "uint256"
        }
      ],
      "payable": false,
      "stateMutability": "view",
      "type": "function"
    },
    {
      "constant": true,
      "inputs": [],
      "name": "dai",
      "outputs": [
        {
          "internalType": "address",
          "name": "",
          "type": "address"
        }
      ],
      "payable": false,
      "stateMutability": "view",
      "type": "function"
    },
    {
      "constant": true,
      "inputs": [],
      "name": "decimals",
      "outputs": [
        {
          "internalType": "uint8",
          "name": "",
          "type": "uint8"
        }
      ],
      "payable": false,
      "stateMutability": "view",
      "type": "function"
    },
    {
      "constant": false,
      "inputs": [
        {
          "internalType": "address",
          "name": "spender",
          "type": "address"
        },
        {
          "internalType": "uint256",
          "name": "subtractedValue",
          "type": "uint256"
        }
      ],
      "name": "decreaseAllowance",
      "outputs": [
        {
          "internalType": "bool",
          "name": "",
          "type": "bool"
        }
      ],
      "payable": false,
      "stateMutability": "nonpayable",
      "type": "function"
    },
    {
      "constant": true,
      "inputs": [
        {
          "internalType": "address",
          "name": "",
          "type": "address"
        }
      ],
      "name": "depositAmount",
      "outputs": [
        {
          "internalType": "uint256",
          "name": "",
          "type": "uint256"
        }
      ],
      "payable": false,
      "stateMutability": "view",
      "type": "function"
    },
    {
      "constant": true,
      "inputs": [
        {
          "internalType": "address",
          "name": "",
          "type": "address"
        }
      ],
      "name": "depositBlockStarts",
      "outputs": [
        {
          "internalType": "uint256",
          "name": "",
          "type": "uint256"
        }
      ],
      "payable": false,
      "stateMutability": "view",
      "type": "function"
    },
    {
      "constant": true,
      "inputs": [],
      "name": "devTreasury",
      "outputs": [
        {
          "internalType": "address",
          "name": "",
          "type": "address"
        }
      ],
      "payable": false,
      "stateMutability": "view",
      "type": "function"
    },
    {
      "constant": true,
      "inputs": [],
      "name": "dydx",
      "outputs": [
        {
          "internalType": "address",
          "name": "",
          "type": "address"
        }
      ],
      "payable": false,
      "stateMutability": "view",
      "type": "function"
    },
    {
      "constant": true,
      "inputs": [],
      "name": "fulcrum",
      "outputs": [
        {
          "internalType": "address",
          "name": "",
          "type": "address"
        }
      ],
      "payable": false,
      "stateMutability": "view",
      "type": "function"
    },
    {
      "constant": true,
      "inputs": [
        {
          "internalType": "address",
          "name": "_yeld",
          "type": "address"
        },
        {
          "internalType": "address",
          "name": "_weth",
          "type": "address"
        },
        {
          "internalType": "address",
          "name": "_dai",
          "type": "address"
        },
        {
          "internalType": "address",
          "name": "_uniswap",
          "type": "address"
        }
      ],
      "name": "getYeldPriceInDai",
      "outputs": [
        {
          "internalType": "uint256",
          "name": "",
          "type": "uint256"
        }
      ],
      "payable": false,
      "stateMutability": "view",
      "type": "function"
    },
    {
      "constant": true,
      "inputs": [],
      "name": "holdPercentage",
      "outputs": [
        {
          "internalType": "uint256",
          "name": "",
          "type": "uint256"
        }
      ],
      "payable": false,
      "stateMutability": "view",
      "type": "function"
    },
    {
      "constant": false,
      "inputs": [
        {
          "internalType": "address",
          "name": "spender",
          "type": "address"
        },
        {
          "internalType": "uint256",
          "name": "addedValue",
          "type": "uint256"
        }
      ],
      "name": "increaseAllowance",
      "outputs": [
        {
          "internalType": "bool",
          "name": "",
          "type": "bool"
        }
      ],
      "payable": false,
      "stateMutability": "nonpayable",
      "type": "function"
    },
    {
      "constant": true,
      "inputs": [],
      "name": "isOwner",
      "outputs": [
        {
          "internalType": "bool",
          "name": "",
          "type": "bool"
        }
      ],
      "payable": false,
      "stateMutability": "view",
      "type": "function"
    },
    {
      "constant": true,
      "inputs": [],
      "name": "maximumTokensToBurn",
      "outputs": [
        {
          "internalType": "uint256",
          "name": "",
          "type": "uint256"
        }
      ],
      "payable": false,
      "stateMutability": "view",
      "type": "function"
    },
    {
      "constant": true,
      "inputs": [],
      "name": "name",
      "outputs": [
        {
          "internalType": "string",
          "name": "",
          "type": "string"
        }
      ],
      "payable": false,
      "stateMutability": "view",
      "type": "function"
    },
    {
      "constant": true,
      "inputs": [],
      "name": "oneDayInBlocks",
      "outputs": [
        {
          "internalType": "uint256",
          "name": "",
          "type": "uint256"
        }
      ],
      "payable": false,
      "stateMutability": "view",
      "type": "function"
    },
    {
      "constant": true,
      "inputs": [],
      "name": "oneMillion",
      "outputs": [
        {
          "internalType": "uint256",
          "name": "",
          "type": "uint256"
        }
      ],
      "payable": false,
      "stateMutability": "view",
      "type": "function"
    },
    {
      "constant": true,
      "inputs": [],
      "name": "owner",
      "outputs": [
        {
          "internalType": "address payable",
          "name": "",
          "type": "address"
        }
      ],
      "payable": false,
      "stateMutability": "view",
      "type": "function"
    },
    {
      "constant": true,
      "inputs": [],
      "name": "percentageBuyBurn",
      "outputs": [
        {
          "internalType": "uint256",
          "name": "",
          "type": "uint256"
        }
      ],
      "payable": false,
      "stateMutability": "view",
      "type": "function"
    },
    {
      "constant": true,
      "inputs": [],
      "name": "percentageDevTreasury",
      "outputs": [
        {
          "internalType": "uint256",
          "name": "",
          "type": "uint256"
        }
      ],
      "payable": false,
      "stateMutability": "view",
      "type": "function"
    },
    {
      "constant": true,
      "inputs": [],
      "name": "percentageRetirementYield",
      "outputs": [
        {
          "internalType": "uint256",
          "name": "",
          "type": "uint256"
        }
      ],
      "payable": false,
      "stateMutability": "view",
      "type": "function"
    },
    {
      "constant": true,
      "inputs": [],
      "name": "pool",
      "outputs": [
        {
          "internalType": "uint256",
          "name": "",
          "type": "uint256"
        }
      ],
      "payable": false,
      "stateMutability": "view",
      "type": "function"
    },
    {
      "constant": true,
      "inputs": [],
      "name": "provider",
      "outputs": [
        {
          "internalType": "enum yDAI.Lender",
          "name": "",
          "type": "uint8"
        }
      ],
      "payable": false,
      "stateMutability": "view",
      "type": "function"
    },
    {
      "constant": false,
      "inputs": [],
      "name": "renounceOwnership",
      "outputs": [],
      "payable": false,
      "stateMutability": "nonpayable",
      "type": "function"
    },
    {
      "constant": true,
      "inputs": [],
      "name": "retirementYeldTreasury",
      "outputs": [
        {
          "internalType": "address payable",
          "name": "",
          "type": "address"
        }
      ],
      "payable": false,
      "stateMutability": "view",
      "type": "function"
    },
    {
      "constant": true,
      "inputs": [],
      "name": "symbol",
      "outputs": [
        {
          "internalType": "string",
          "name": "",
          "type": "string"
        }
      ],
      "payable": false,
      "stateMutability": "view",
      "type": "function"
    },
    {
      "constant": true,
      "inputs": [],
      "name": "token",
      "outputs": [
        {
          "internalType": "address",
          "name": "",
          "type": "address"
        }
      ],
      "payable": false,
      "stateMutability": "view",
      "type": "function"
    },
    {
      "constant": true,
      "inputs": [],
      "name": "totalSupply",
      "outputs": [
        {
          "internalType": "uint256",
          "name": "",
          "type": "uint256"
        }
      ],
      "payable": false,
      "stateMutability": "view",
      "type": "function"
    },
    {
      "constant": false,
      "inputs": [
        {
          "internalType": "address",
          "name": "recipient",
          "type": "address"
        },
        {
          "internalType": "uint256",
          "name": "amount",
          "type": "uint256"
        }
      ],
      "name": "transfer",
      "outputs": [
        {
          "internalType": "bool",
          "name": "",
          "type": "bool"
        }
      ],
      "payable": false,
      "stateMutability": "nonpayable",
      "type": "function"
    },
    {
      "constant": false,
      "inputs": [
        {
          "internalType": "address",
          "name": "sender",
          "type": "address"
        },
        {
          "internalType": "address",
          "name": "recipient",
          "type": "address"
        },
        {
          "internalType": "uint256",
          "name": "amount",
          "type": "uint256"
        }
      ],
      "name": "transferFrom",
      "outputs": [
        {
          "internalType": "bool",
          "name": "",
          "type": "bool"
        }
      ],
      "payable": false,
      "stateMutability": "nonpayable",
      "type": "function"
    },
    {
      "constant": false,
      "inputs": [
        {
          "internalType": "address payable",
          "name": "newOwner",
          "type": "address"
        }
      ],
      "name": "transferOwnership",
      "outputs": [],
      "payable": false,
      "stateMutability": "nonpayable",
      "type": "function"
    },
    {
      "constant": true,
      "inputs": [],
      "name": "uniswapRouter",
      "outputs": [
        {
          "internalType": "address",
          "name": "",
          "type": "address"
        }
      ],
      "payable": false,
      "stateMutability": "view",
      "type": "function"
    },
    {
      "constant": false,
      "inputs": [
        {
          "internalType": "uint256",
          "name": "a",
          "type": "uint256"
        },
        {
          "internalType": "uint256",
          "name": "b",
          "type": "uint256"
        },
        {
          "internalType": "uint256",
          "name": "c",
          "type": "uint256"
        }
      ],
      "name": "updatePercentages",
      "outputs": [],
      "payable": false,
      "stateMutability": "nonpayable",
      "type": "function"
    },
    {
      "constant": true,
      "inputs": [],
      "name": "weth",
      "outputs": [
        {
          "internalType": "address",
          "name": "",
          "type": "address"
        }
      ],
      "payable": false,
      "stateMutability": "view",
      "type": "function"
    },
    {
      "constant": true,
      "inputs": [],
      "name": "yeldToRewardPerDay",
      "outputs": [
        {
          "internalType": "uint256",
          "name": "",
          "type": "uint256"
        }
      ],
      "payable": false,
      "stateMutability": "view",
      "type": "function"
    },
    {
      "constant": true,
      "inputs": [],
      "name": "yeldToken",
      "outputs": [
        {
          "internalType": "contract IERC20",
          "name": "",
          "type": "address"
        }
      ],
      "payable": false,
      "stateMutability": "view",
      "type": "function"
    },
    {
      "constant": false,
      "inputs": [
        {
          "internalType": "address payable",
          "name": "_treasury",
          "type": "address"
        }
      ],
      "name": "setRetirementYeldTreasury",
      "outputs": [],
      "payable": false,
      "stateMutability": "nonpayable",
      "type": "function"
    },
    {
      "constant": false,
      "inputs": [
        {
          "internalType": "address",
          "name": "_devTreasury",
          "type": "address"
        }
      ],
      "name": "setDevTreasury",
      "outputs": [],
      "payable": false,
      "stateMutability": "nonpayable",
      "type": "function"
    },
    {
      "constant": false,
      "inputs": [
        {
          "internalType": "address",
          "name": "_uniswapRouter",
          "type": "address"
        }
      ],
      "name": "setUniswapRouter",
      "outputs": [],
      "payable": false,
      "stateMutability": "nonpayable",
      "type": "function"
    },
    {
      "constant": false,
      "inputs": [
        {
          "internalType": "address",
          "name": "_yeldToken",
          "type": "address"
        }
      ],
      "name": "setYeldToken",
      "outputs": [],
      "payable": false,
      "stateMutability": "nonpayable",
      "type": "function"
    },
    {
      "constant": false,
      "inputs": [
        {
          "internalType": "address",
          "name": "_token",
          "type": "address"
        },
        {
          "internalType": "uint256",
          "name": "_amount",
          "type": "uint256"
        }
      ],
      "name": "extractTokensIfStuck",
      "outputs": [],
      "payable": false,
      "stateMutability": "nonpayable",
      "type": "function"
    },
    {
      "constant": false,
      "inputs": [],
      "name": "extractETHIfStuck",
      "outputs": [],
      "payable": false,
      "stateMutability": "nonpayable",
      "type": "function"
    },
    {
      "constant": false,
      "inputs": [
        {
          "internalType": "uint256",
          "name": "_amount",
          "type": "uint256"
        }
      ],
      "name": "changeYeldToRewardPerDay",
      "outputs": [],
      "payable": false,
      "stateMutability": "nonpayable",
      "type": "function"
    },
    {
      "constant": true,
      "inputs": [],
      "name": "getGeneratedYelds",
      "outputs": [
        {
          "internalType": "uint256",
          "name": "",
          "type": "uint256"
        }
      ],
      "payable": false,
      "stateMutability": "view",
      "type": "function"
    },
    {
      "constant": false,
      "inputs": [
        {
          "internalType": "uint256",
          "name": "_holdPercentage",
          "type": "uint256"
        }
      ],
      "name": "setHoldPercentage",
      "outputs": [],
      "payable": false,
      "stateMutability": "nonpayable",
      "type": "function"
    },
    {
      "constant": false,
      "inputs": [
        {
          "internalType": "uint256",
          "name": "_amount",
          "type": "uint256"
        }
      ],
      "name": "deposit",
      "outputs": [],
      "payable": false,
      "stateMutability": "nonpayable",
      "type": "function"
    },
    {
      "constant": false,
      "inputs": [
        {
          "internalType": "uint256",
          "name": "_shares",
          "type": "uint256"
        }
      ],
      "name": "withdraw",
      "outputs": [],
      "payable": false,
      "stateMutability": "nonpayable",
      "type": "function"
    },
    {
      "constant": true,
      "inputs": [],
      "name": "recommend",
      "outputs": [
        {
          "internalType": "enum yDAI.Lender",
          "name": "",
          "type": "uint8"
        }
      ],
      "payable": false,
      "stateMutability": "view",
      "type": "function"
    },
    {
      "constant": true,
      "inputs": [],
      "name": "getAave",
      "outputs": [
        {
          "internalType": "address",
          "name": "",
          "type": "address"
        }
      ],
      "payable": false,
      "stateMutability": "view",
      "type": "function"
    },
    {
      "constant": true,
      "inputs": [],
      "name": "getAaveCore",
      "outputs": [
        {
          "internalType": "address",
          "name": "",
          "type": "address"
        }
      ],
      "payable": false,
      "stateMutability": "view",
      "type": "function"
    },
    {
      "constant": false,
      "inputs": [],
      "name": "approveToken",
      "outputs": [],
      "payable": false,
      "stateMutability": "nonpayable",
      "type": "function"
    },
    {
      "constant": true,
      "inputs": [],
      "name": "balance",
      "outputs": [
        {
          "internalType": "uint256",
          "name": "",
          "type": "uint256"
        }
      ],
      "payable": false,
      "stateMutability": "view",
      "type": "function"
    },
    {
      "constant": true,
      "inputs": [],
      "name": "balanceDydxAvailable",
      "outputs": [
        {
          "internalType": "uint256",
          "name": "",
          "type": "uint256"
        }
      ],
      "payable": false,
      "stateMutability": "view",
      "type": "function"
    },
    {
      "constant": true,
      "inputs": [],
      "name": "balanceDydx",
      "outputs": [
        {
          "internalType": "uint256",
          "name": "",
          "type": "uint256"
        }
      ],
      "payable": false,
      "stateMutability": "view",
      "type": "function"
    },
    {
      "constant": true,
      "inputs": [],
      "name": "balanceCompound",
      "outputs": [
        {
          "internalType": "uint256",
          "name": "",
          "type": "uint256"
        }
      ],
      "payable": false,
      "stateMutability": "view",
      "type": "function"
    },
    {
      "constant": true,
      "inputs": [],
      "name": "balanceCompoundInToken",
      "outputs": [
        {
          "internalType": "uint256",
          "name": "",
          "type": "uint256"
        }
      ],
      "payable": false,
      "stateMutability": "view",
      "type": "function"
    },
    {
      "constant": true,
      "inputs": [],
      "name": "balanceFulcrumAvailable",
      "outputs": [
        {
          "internalType": "uint256",
          "name": "",
          "type": "uint256"
        }
      ],
      "payable": false,
      "stateMutability": "view",
      "type": "function"
    },
    {
      "constant": true,
      "inputs": [],
      "name": "balanceFulcrumInToken",
      "outputs": [
        {
          "internalType": "uint256",
          "name": "",
          "type": "uint256"
        }
      ],
      "payable": false,
      "stateMutability": "view",
      "type": "function"
    },
    {
      "constant": true,
      "inputs": [],
      "name": "balanceFulcrum",
      "outputs": [
        {
          "internalType": "uint256",
          "name": "",
          "type": "uint256"
        }
      ],
      "payable": false,
      "stateMutability": "view",
      "type": "function"
    },
    {
      "constant": true,
      "inputs": [],
      "name": "balanceAaveAvailable",
      "outputs": [
        {
          "internalType": "uint256",
          "name": "",
          "type": "uint256"
        }
      ],
      "payable": false,
      "stateMutability": "view",
      "type": "function"
    },
    {
      "constant": true,
      "inputs": [],
      "name": "balanceAave",
      "outputs": [
        {
          "internalType": "uint256",
          "name": "",
          "type": "uint256"
        }
      ],
      "payable": false,
      "stateMutability": "view",
      "type": "function"
    },
    {
      "constant": false,
      "inputs": [],
      "name": "rebalance",
      "outputs": [],
      "payable": false,
      "stateMutability": "nonpayable",
      "type": "function"
    },
    {
      "constant": true,
      "inputs": [],
      "name": "calcPoolValueInToken",
      "outputs": [
        {
          "internalType": "uint256",
          "name": "",
          "type": "uint256"
        }
      ],
      "payable": false,
      "stateMutability": "view",
      "type": "function"
    },
    {
      "constant": true,
      "inputs": [],
      "name": "getPricePerFullShare",
      "outputs": [
        {
          "internalType": "uint256",
          "name": "",
          "type": "uint256"
        }
      ],
      "payable": false,
      "stateMutability": "view",
      "type": "function"
    }
  ],
  "bytecode": "0x608060408190526714d1120d7b1600006008556722b1c8c1227a0000600955670de0b6b3a7640000600a55601680546001600160a01b0319908116737a250d5630b4cf539739df2c5dacb4c659f2488d17909155601780548216736b175474e89094c44da98b954eedeac495271d0f1790556018805490911673c02aaa39b223fe8d0a0e5c4f27ead9083c756cc2179055690a968163f0a57b400000601b556802b5e3af16b1880000601e55674563918244f40000601f556020805460ff60a01b191690556200680038819003908190833981016040819052620000e391620007c6565b6040805180820182526009815268796561726e2044414960b81b6020808301918252835180850190945260048452637944414960e01b908401528151919291601291620001349160039190620006d6565b5081516200014a906004906020850190620006d6565b506005805460ff191660ff9290921691909117905550506001600655620001706200032a565b600780546001600160a01b0319166001600160a01b0392831617908190556040519116906000907f8be0079c531659141344cd1fd0a4f28419497f9722a3daafe3b4186f6b6457e0908290a3600c80546001600160a01b0319908116736b175474e89094c44da98b954eedeac495271d0f1790915560148054821673dd6d648c991f7d47454354f4ef326b04025a48a8179055601280548216731e0447b19bb6ecfdae1e4ae1694b0c3659614e4e179055600f805482167324a42fd28c976a61df5d00d0599c34c4f90748c8179055601080548216733dfd23a6c5e8bbcfc9581d2e864a68feb6a076d3179055600e8054821673493c57c4763932315a328269e1adad09653b908117905560118054821673fc1e690f61efd961294b3e1ce3313fbd8aa4f85d179055600d80548216735d3a536e4d6dbd6114cc1ead35777bab948e36431790556015805482167306af07097c9eeb7fd685c692751d5c66db49c2151790556003601355601a80546001600160a01b0386811691841691909117909155601980548583169084161790556020805491841691909216179055620003216001600160e01b036200032f16565b50505062000afc565b335b90565b600d54600c546200035c916001600160a01b039182169116600019620003f1602090811b62003e8417901c565b601254600c5462000389916001600160a01b039182169116600019620003f1602090811b62003e8417901c565b620003c2620003a06001600160e01b036200050b16565b600c546001600160a01b031690600019620003f1602090811b62003e8417901c565b600e54600c54620003ef916001600160a01b039182169116600019620003f1602090811b62003e8417901c565b565b801580620004805750604051636eb1769f60e11b81526001600160a01b0384169063dd62ed3e906200042a9030908690600401620009e7565b60206040518083038186803b1580156200044357600080fd5b505afa15801562000458573d6000803e3d6000fd5b505050506040513d601f19601f820116820180604052506200047e91908101906200083b565b155b620004a85760405162461bcd60e51b81526004016200049f9062000a49565b60405180910390fd5b6040516200050690849063095ea7b360e01b90620004cd908690869060240162000a06565b60408051808303601f190181529190526020810180516001600160e01b0319939093166001600160e01b03938416179052906200059116565b505050565b600f546040805163076b7fbb60e51b815290516000926001600160a01b03169163ed6ff760916004808301926020929190829003018186803b1580156200055157600080fd5b505afa15801562000566573d6000803e3d6000fd5b505050506040513d601f19601f820116820180604052506200058c9190810190620007a5565b905090565b620005b0826001600160a01b03166200069960201b6200477c1760201c565b620005cf5760405162461bcd60e51b81526004016200049f9062000a5b565b60006060836001600160a01b031683604051620005ed9190620009d2565b6000604051808303816000865af19150503d80600081146200062c576040519150601f19603f3d011682016040523d82523d6000602084013e62000631565b606091505b509150915081620006565760405162461bcd60e51b81526004016200049f9062000a25565b8051156200069357808060200190516200067491908101906200081a565b620006935760405162461bcd60e51b81526004016200049f9062000a37565b50505050565b6000813f7fc5d2460186f7233c927e7db2dcc703c0e500b653ca82273b7bfad8045d85a4708115801590620006ce5750808214155b949350505050565b828054600181600116156101000203166002900490600052602060002090601f016020900481019282601f106200071957805160ff191683800117855562000749565b8280016001018555821562000749579182015b82811115620007495782518255916020019190600101906200072c565b50620007579291506200075b565b5090565b6200032c91905b8082111562000757576000815560010162000762565b8051620007858162000acc565b92915050565b8051620007858162000ae6565b8051620007858162000af1565b600060208284031215620007b857600080fd5b6000620006ce848462000778565b600080600060608486031215620007dc57600080fd5b6000620007ea868662000778565b9350506020620007fd8682870162000778565b9250506040620008108682870162000778565b9150509250925092565b6000602082840312156200082d57600080fd5b6000620006ce84846200078b565b6000602082840312156200084e57600080fd5b6000620006ce848462000798565b620008678162000a7f565b82525050565b60006200087a8262000a6d565b62000886818562000a71565b93506200089881856020860162000a9d565b9290920192915050565b6000620008b160208362000a76565b7f5361666545524332303a206c6f772d6c6576656c2063616c6c206661696c6564815260200192915050565b6000620008ec602a8362000a76565b7f5361666545524332303a204552433230206f7065726174696f6e20646964206e8152691bdd081cdd58d8d9595960b21b602082015260400192915050565b60006200093a60368362000a76565b7f5361666545524332303a20617070726f76652066726f6d206e6f6e2d7a65726f81527f20746f206e6f6e2d7a65726f20616c6c6f77616e636500000000000000000000602082015260400192915050565b60006200099b601f8362000a76565b7f5361666545524332303a2063616c6c20746f206e6f6e2d636f6e747261637400815260200192915050565b62000867816200032c565b6000620009e082846200086d565b9392505050565b60408101620009f782856200085c565b620009e060208301846200085c565b6040810162000a1682856200085c565b620009e06020830184620009c7565b602080825281016200078581620008a2565b602080825281016200078581620008dd565b6020808252810162000785816200092b565b6020808252810162000785816200098c565b5190565b919050565b90815260200190565b6000620007858262000a91565b151590565b6001600160a01b031690565b60005b8381101562000aba57818101518382015260200162000aa0565b83811115620006935750506000910152565b62000ad78162000a7f565b811462000ae357600080fd5b50565b62000ad78162000a8c565b62000ad7816200032c565b615cf48062000b0c6000396000f3fe6080604052600436106104b65760003560e01c8063858409ba11610279578063bea9849e1161015e578063f2978d98116100d6578063f5a41dea1161008a578063f7c1ec771161006f578063f7c1ec7714610bc1578063f82ce27d14610bd6578063fc0c546a14610beb576104b6565b8063f5a41dea14610b97578063f69e204614610bac576104b6565b8063f2fde38b116100bb578063f2fde38b14610b42578063f34ce4bb14610b62578063f4b9fa7514610b82576104b6565b8063f2978d9814610b18578063f29e15a214610b2d576104b6565b8063dd62ed3e1161012d578063eb56faf011610112578063eb56faf014610ac3578063ebc5116014610ae3578063f02fbd4a14610af8576104b6565b8063dd62ed3e14610a83578063e26f21bf14610aa3576104b6565b8063bea9849e14610a24578063cf8ca42614610a44578063d54e324414610a59578063d9d7858a14610a6e576104b6565b8063a457c2d7116101f1578063b098fc80116101c0578063b69d0456116101a5578063b69d0456146109da578063b69ef8a8146109ef578063b6b55f2514610a04576104b6565b8063b098fc80146109b0578063b19ab076146109c5576104b6565b8063a457c2d71461093b578063a72879711461095b578063a9059cbb14610970578063a9a1015a14610990576104b6565b80638f9225ca1161024857806399b71d5c1161022d57806399b71d5c146108fc578063a03e4bc314610911578063a160176d14610926576104b6565b80638f9225ca146108d257806395d89b41146108e7576104b6565b8063858409ba1461087e5780638da5cb5b146108935780638e4ec6ef146108a85780638f32d59b146108bd576104b6565b8063413e920d1161039f5780637137ef991161031757806377c7b8fc116102e65780637d7c2a1c116102cb5780637d7c2a1c146108325780637f50d4d814610847578063819faf7b14610869576104b6565b806377c7b8fc146107fd5780637b82784c14610812576104b6565b80637137ef99146107a9578063715018a6146107be5780637354b2e9146107d3578063735de9f7146107e8576104b6565b806357ded9c91161036e57806361c1ec551161035357806361c1ec551461075f5780636ff2bf081461077457806370a0823114610789576104b6565b806357ded9c91461073557806358782c211461074a576104b6565b8063413e920d146106cb5780634fd96cb6146106e05780634fe411291461070057806350f62da714610715576104b6565b806323b872dd11610432578063313ce5671161040157806339c0a7e1116103e657806339c0a7e1146106815780633bd777a8146106965780633fc8cef3146106b6576104b6565b8063313ce5671461063f5780633950935114610661576104b6565b806323b872dd146105ca5780632622678c146105ea5780632e1a7d4d146105ff5780632eb4520a1461061f576104b6565b80630eb2a2671161048957806316f0115b1161046e57806316f0115b1461058b57806318160ddd146105a0578063202a2735146105b5576104b6565b80630eb2a2671461055457806310391d2514610576576104b6565b806306a3fe59146104b857806306fdde03146104e3578063085d488314610505578063095ea7b314610527575b005b3480156104c457600080fd5b506104cd610c00565b6040516104da91906156e2565b60405180910390f35b3480156104ef57600080fd5b506104f8610c1c565b6040516104da9190615801565b34801561051157600080fd5b5061051a610cd1565b6040516104da91906157d3565b34801561053357600080fd5b50610547610542366004614ac2565b610cf2565b6040516104da91906157b7565b34801561056057600080fd5b50610569610d10565b6040516104da91906159bd565b34801561058257600080fd5b50610569610dbc565b34801561059757600080fd5b50610569610dc2565b3480156105ac57600080fd5b50610569610dc8565b3480156105c157600080fd5b50610569610dce565b3480156105d657600080fd5b506105476105e5366004614a75565b610dd4565b3480156105f657600080fd5b506104cd610e7c565b34801561060b57600080fd5b506104b661061a366004614bef565b610e98565b34801561062b57600080fd5b506104b661063a36600461499e565b611669565b34801561064b57600080fd5b506106546116ee565b6040516104da9190615a5a565b34801561066d57600080fd5b5061054761067c366004614ac2565b6116f7565b34801561068d57600080fd5b50610569611758565b3480156106a257600080fd5b506104b66106b136600461499e565b611825565b3480156106c257600080fd5b506104cd6118aa565b3480156106d757600080fd5b506105696118c6565b3480156106ec57600080fd5b506104b66106fb36600461499e565b6118cd565b34801561070c57600080fd5b506104b6611952565b34801561072157600080fd5b5061056961073036600461499e565b6119e0565b34801561074157600080fd5b506104cd6119f2565b34801561075657600080fd5b506104cd611a0e565b34801561076b57600080fd5b50610569611a2a565b34801561078057600080fd5b50610569611a81565b34801561079557600080fd5b506105696107a436600461499e565b611b21565b3480156107b557600080fd5b50610569611b4d565b3480156107ca57600080fd5b506104b6611b83565b3480156107df57600080fd5b50610569611c30565b3480156107f457600080fd5b506104cd611c36565b34801561080957600080fd5b50610569611c52565b34801561081e57600080fd5b5061056961082d36600461499e565b611c85565b34801561083e57600080fd5b506104b6611c97565b34801561085357600080fd5b5061085c611dde565b6040516104da91906157c5565b34801561087557600080fd5b506104cd611dfa565b34801561088a57600080fd5b50610569611e16565b34801561089f57600080fd5b506104cd611e1c565b3480156108b457600080fd5b506104cd611e38565b3480156108c957600080fd5b50610547611e54565b3480156108de57600080fd5b50610569611e94565b3480156108f357600080fd5b506104f8611ef2565b34801561090857600080fd5b506104b6611f71565b34801561091d57600080fd5b506104cd6120b4565b34801561093257600080fd5b5061051a6120d0565b34801561094757600080fd5b50610547610956366004614ac2565b612226565b34801561096757600080fd5b506105696122a1565b34801561097c57600080fd5b5061054761098b366004614ac2565b612370565b34801561099c57600080fd5b506104b66109ab366004614ac2565b612384565b3480156109bc57600080fd5b5061056961246d565b3480156109d157600080fd5b506104cd6124cb565b3480156109e657600080fd5b506104cd6124e7565b3480156109fb57600080fd5b50610569612503565b348015610a1057600080fd5b506104b6610a1f366004614bef565b61255a565b348015610a3057600080fd5b506104b6610a3f36600461499e565b6126e8565b348015610a5057600080fd5b5061056961276d565b348015610a6557600080fd5b506105696127c4565b348015610a7a57600080fd5b50610569612822565b348015610a8f57600080fd5b50610569610a9e3660046149da565b612828565b348015610aaf57600080fd5b506104b6610abe366004614bef565b612860565b348015610acf57600080fd5b506104b6610ade366004614c2b565b6128a3565b348015610aef57600080fd5b506105696128ef565b348015610b0457600080fd5b506104b6610b13366004614bef565b6128f5565b348015610b2457600080fd5b50610569612938565b348015610b3957600080fd5b5061056961293e565b348015610b4e57600080fd5b506104b6610b5d36600461499e565b612944565b348015610b6e57600080fd5b50610569610b7d366004614a14565b61298b565b348015610b8e57600080fd5b506104cd612b52565b348015610ba357600080fd5b50610569612b6e565b348015610bb857600080fd5b506104cd612c27565b348015610bcd57600080fd5b506104cd612c43565b348015610be257600080fd5b506104cd612ce6565b348015610bf757600080fd5b506104cd612d51565b60115473ffffffffffffffffffffffffffffffffffffffff1681565b60038054604080516020601f60027fffffffffffffffffffffffffffffffffffffffffffffffffffffffffffffffff610100600188161502019095169490940493840181900481028201810190925282815260609390929091830182828015610cc65780601f10610c9b57610100808354040283529160200191610cc6565b820191906000526020600020905b815481529060010190602001808311610ca957829003601f168201915b505050505090505b90565b60205474010000000000000000000000000000000000000000900460ff1681565b6000610d06610cff612d6d565b8484612d71565b5060015b92915050565b600e546040517f70a0823100000000000000000000000000000000000000000000000000000000815260009173ffffffffffffffffffffffffffffffffffffffff16906370a0823190610d679030906004016156f0565b60206040518083038186803b158015610d7f57600080fd5b505afa158015610d93573d6000803e3d6000fd5b505050506040513d601f19601f82011682018060405250610db79190810190614c0d565b905090565b60095481565b600b5481565b60025490565b601f5481565b6000610de1848484612e80565b610e7184610ded612d6d565b610e6c85604051806060016040528060288152602001615c656028913973ffffffffffffffffffffffffffffffffffffffff8a16600090815260016020526040812090610e38612d6d565b73ffffffffffffffffffffffffffffffffffffffff168152602081019190915260400160002054919063ffffffff61300b16565b612d71565b5060015b9392505050565b60195473ffffffffffffffffffffffffffffffffffffffff1681565b6006805460010190819055610eac33613051565b15610eec576040517f08c379a0000000000000000000000000000000000000000000000000000000008152600401610ee3906158d2565b60405180910390fd5b60008211610f26576040517f08c379a0000000000000000000000000000000000000000000000000000000008152600401610ee3906158f2565b6000610f3133611b21565b905080831115610f6d576040517f08c379a0000000000000000000000000000000000000000000000000000000008152600401610ee3906158e2565b610f75611b4d565b600b556000610f82611a81565b90506000610fad600254610fa187600b5461305790919063ffffffff16565b9063ffffffff6130ab16565b9050610fb8816130ed565b604080518082018252601d81527f72656465656d20616d6f756e7420657863656564732062616c616e636500000060208083019190915233600090815290819052919091205461100f91879063ffffffff61300b16565b3360009081526020818152604091829020929092558051808201909152601981527f233120546f74616c20737570706c7920737562206572726f72000000000000009181019190915260025461106c91879063ffffffff61300b16565b60025560405160009033907fddf252ad1be2c89b69c2b068fc378daa952ba7f163c4a11628f55a4df523b3ef906110a49089906159bd565b60405180910390a3600c546040517f70a0823100000000000000000000000000000000000000000000000000000000815260009173ffffffffffffffffffffffffffffffffffffffff16906370a08231906111039030906004016156f0565b60206040518083038186803b15801561111b57600080fd5b505afa15801561112f573d6000803e3d6000fd5b505050506040513d601f19601f820116820180604052506111539190810190614c0d565b9050818110156111b1576111af6111aa826040518060400160405280601a81526020017f233220576974686472617720736f6d6520737562206572726f720000000000008152508561300b9092919063ffffffff16565b61324c565b505b60006111dc600a546111d060095460085461354390919063ffffffff16565b9063ffffffff61354316565b905060006111fd68056bc75e2d63100000610fa1868563ffffffff61305716565b336000908152601c60209081526040808320439055601d90915290205490915061122d908563ffffffff61358216565b336000818152601d60205260409081902092909255601a5491517fa9059cbb00000000000000000000000000000000000000000000000000000000815273ffffffffffffffffffffffffffffffffffffffff9092169163a9059cbb916112979189906004016156fe565b602060405180830381600087803b1580156112b157600080fd5b505af11580156112c5573d6000803e3d6000fd5b505050506040513d601f19601f820116820180604052506112e99190810190614b27565b5060006112f5826135c4565b601a546040517f70a0823100000000000000000000000000000000000000000000000000000000815291925060009173ffffffffffffffffffffffffffffffffffffffff909116906370a08231906113519084906004016156f0565b60206040518083038186803b15801561136957600080fd5b505afa15801561137d573d6000803e3d6000fd5b505050506040513d601f19601f820116820180604052506113a19190810190614c0d565b905060006113e468056bc75e2d63100000610fa16113d788610fa160095468056bc75e2d6310000061305790919063ffffffff16565b869063ffffffff61305716565b9050601b548210156114ce57600061143168056bc75e2d63100000610fa161142489610fa1600a5468056bc75e2d6310000061305790919063ffffffff16565b879063ffffffff61305716565b905061143c816137a0565b50600061147e68056bc75e2d63100000610fa16114718a610fa160085468056bc75e2d6310000061305790919063ffffffff16565b889063ffffffff61305716565b60195460405191925073ffffffffffffffffffffffffffffffffffffffff169082156108fc029083906000818181858888f193505050501580156114c6573d6000803e3d6000fd5b50505061152b565b60006114e0848363ffffffff61358216565b60195460405191925073ffffffffffffffffffffffffffffffffffffffff169082156108fc029083906000818181858888f19350505050158015611528573d6000803e3d6000fd5b50505b60205460405160009173ffffffffffffffffffffffffffffffffffffffff16908390611556906156d7565b60006040518083038185875af1925050503d8060008114611593576040519150601f19603f3d011682016040523d82523d6000602084013e611598565b606091505b50509050806115d3576040517f08c379a0000000000000000000000000000000000000000000000000000000008152600401610ee390615882565b61160d336115e78a8863ffffffff61358216565b600c5473ffffffffffffffffffffffffffffffffffffffff16919063ffffffff6138fe16565b611615611b4d565b600b55611620611c97565b505050505050505050506006548114611665576040517f08c379a0000000000000000000000000000000000000000000000000000000008152600401610ee390615962565b5050565b611671611e54565b6116a7576040517f08c379a0000000000000000000000000000000000000000000000000000000008152600401610ee3906158c2565b601980547fffffffffffffffffffffffff00000000000000000000000000000000000000001673ffffffffffffffffffffffffffffffffffffffff92909216919091179055565b60055460ff1690565b6000610d06611704612d6d565b84610e6c8560016000611715612d6d565b73ffffffffffffffffffffffffffffffffffffffff908116825260208083019390935260409182016000908120918c16815292529020549063ffffffff61354316565b60006117626147b3565b6012546040805180820182523081526000602082015260135491517fc190c2ec00000000000000000000000000000000000000000000000000000000815273ffffffffffffffffffffffffffffffffffffffff9093169263c190c2ec926117cc92916004016159a2565b604080518083038186803b1580156117e357600080fd5b505afa1580156117f7573d6000803e3d6000fd5b505050506040513d601f19601f8201168201806040525061181b9190810190614bd1565b6020015191505090565b61182d611e54565b611863576040517f08c379a0000000000000000000000000000000000000000000000000000000008152600401610ee3906158c2565b602080547fffffffffffffffffffffffff00000000000000000000000000000000000000001673ffffffffffffffffffffffffffffffffffffffff92909216919091179055565b60185473ffffffffffffffffffffffffffffffffffffffff1681565b620f424081565b6118d5611e54565b61190b576040517f08c379a0000000000000000000000000000000000000000000000000000000008152600401610ee3906158c2565b601a80547fffffffffffffffffffffffff00000000000000000000000000000000000000001673ffffffffffffffffffffffffffffffffffffffff92909216919091179055565b61195a611e54565b611990576040517f08c379a0000000000000000000000000000000000000000000000000000000008152600401610ee3906158c2565b611998611e1c565b73ffffffffffffffffffffffffffffffffffffffff166108fc479081150290604051600060405180830381858888f193505050501580156119dd573d6000803e3d6000fd5b50565b601d6020526000908152604090205481565b60145473ffffffffffffffffffffffffffffffffffffffff1681565b600e5473ffffffffffffffffffffffffffffffffffffffff1681565b600d546040517f70a0823100000000000000000000000000000000000000000000000000000000815260009173ffffffffffffffffffffffffffffffffffffffff16906370a0823190610d679030906004016156f0565b336000908152601c6020526040812054819015611ac057336000908152601c6020526040902054611ab990439063ffffffff61358216565b9050611aca565b6000915050610cce565b601e54336000908152601d60205260408120549091611b1a9161196491610fa1918691611b0e91670de0b6b3a76400009185918490620f424063ffffffff6130ab16565b9063ffffffff61305716565b9250505090565b73ffffffffffffffffffffffffffffffffffffffff81166000908152602081905260409020545b919050565b6000610db7611b5a612503565b6111d0611b6561276d565b6111d0611b70611758565b6111d0611b7b612b6e565b6111d06122a1565b611b8b611e54565b611bc1576040517f08c379a0000000000000000000000000000000000000000000000000000000008152600401610ee3906158c2565b60075460405160009173ffffffffffffffffffffffffffffffffffffffff16907f8be0079c531659141344cd1fd0a4f28419497f9722a3daafe3b4186f6b6457e0908390a3600780547fffffffffffffffffffffffff0000000000000000000000000000000000000000169055565b60085481565b60165473ffffffffffffffffffffffffffffffffffffffff1681565b600080611c5d611b4d565b600254909150611c7f90610fa183670de0b6b3a764000063ffffffff61305716565b91505090565b601c6020526000908152604090205481565b6000611ca16120d0565b60205490915074010000000000000000000000000000000000000000900460ff166004811115611ccd57fe5b816004811115611cd957fe5b14611ce657611ce66139bb565b6000611cf0612503565b1115611d8b576001816004811115611d0457fe5b1415611d1f57611d1a611d15612503565b613a80565b611d8b565b6004816004811115611d2d57fe5b1415611d4357611d1a611d3e612503565b613c31565b6002816004811115611d5157fe5b1415611d6757611d1a611d62612503565b613d13565b6003816004811115611d7557fe5b1415611d8b57611d8b611d86612503565b613df2565b602080548291907fffffffffffffffffffffff00ffffffffffffffffffffffffffffffffffffffff1674010000000000000000000000000000000000000000836004811115611dd657fe5b021790555050565b601a5473ffffffffffffffffffffffffffffffffffffffff1681565b600f5473ffffffffffffffffffffffffffffffffffffffff1681565b600a5481565b60075473ffffffffffffffffffffffffffffffffffffffff1690565b60125473ffffffffffffffffffffffffffffffffffffffff1681565b60075460009073ffffffffffffffffffffffffffffffffffffffff16611e78612d6d565b73ffffffffffffffffffffffffffffffffffffffff1614905090565b601554600e546040517f70a0823100000000000000000000000000000000000000000000000000000000815260009273ffffffffffffffffffffffffffffffffffffffff908116926370a0823192610d6792909116906004016156e2565b60048054604080516020601f60027fffffffffffffffffffffffffffffffffffffffffffffffffffffffffffffffff610100600188161502019095169490940493840181900481028201810190925282815260609390929091830182828015610cc65780601f10610c9b57610100808354040283529160200191610cc6565b600d54600c54611fc19173ffffffffffffffffffffffffffffffffffffffff91821691167fffffffffffffffffffffffffffffffffffffffffffffffffffffffffffffffff63ffffffff613e8416565b601254600c546120119173ffffffffffffffffffffffffffffffffffffffff91821691167fffffffffffffffffffffffffffffffffffffffffffffffffffffffffffffffff63ffffffff613e8416565b61206261201c612ce6565b600c5473ffffffffffffffffffffffffffffffffffffffff16907fffffffffffffffffffffffffffffffffffffffffffffffffffffffffffffffff63ffffffff613e8416565b600e54600c546120b29173ffffffffffffffffffffffffffffffffffffffff91821691167fffffffffffffffffffffffffffffffffffffffffffffffffffffffffffffffff63ffffffff613e8416565b565b60105473ffffffffffffffffffffffffffffffffffffffff1681565b601454600c546040517fd88be3c0000000000000000000000000000000000000000000000000000000008152600092839283928392839273ffffffffffffffffffffffffffffffffffffffff9182169263d88be3c0926121349216906004016156e2565b60006040518083038186803b15801561214c57600080fd5b505afa158015612160573d6000803e3d6000fd5b505050506040513d6000823e601f3d9081017fffffffffffffffffffffffffffffffffffffffffffffffffffffffffffffffe01682016040526121a69190810190614b45565b929750909550935091506000905084156121bd5750835b808411156121c85750825b808311156121d35750815b808211156121de5750805b6000818614156121f05750600261221c565b848214156122005750600461221c565b838214156122105750600361221c565b8282141561221c575060015b9550505050505090565b6000610d06612233612d6d565b84610e6c85604051806060016040528060258152602001615c8d602591396001600061225d612d6d565b73ffffffffffffffffffffffffffffffffffffffff908116825260208083019390935260409182016000908120918d1681529252902054919063ffffffff61300b16565b6000806122ac611a2a565b90508015610db757610d0a670de0b6b3a7640000610fa1600d60009054906101000a900473ffffffffffffffffffffffffffffffffffffffff1673ffffffffffffffffffffffffffffffffffffffff1663182df0f56040518163ffffffff1660e01b815260040160206040518083038186803b15801561232b57600080fd5b505afa15801561233f573d6000803e3d6000fd5b505050506040513d601f19601f820116820180604052506123639190810190614c0d565b849063ffffffff61305716565b6000610d0661237d612d6d565b8484612e80565b61238c611e54565b6123c2576040517f08c379a0000000000000000000000000000000000000000000000000000000008152600401610ee3906158c2565b6040517fa9059cbb00000000000000000000000000000000000000000000000000000000815273ffffffffffffffffffffffffffffffffffffffff83169063a9059cbb9061241690339085906004016156fe565b602060405180830381600087803b15801561243057600080fd5b505af1158015612444573d6000803e3d6000fd5b505050506040513d601f19601f820116820180604052506124689190810190614b27565b505050565b600c546010546040517f70a0823100000000000000000000000000000000000000000000000000000000815260009273ffffffffffffffffffffffffffffffffffffffff908116926370a0823192610d6792909116906004016156e2565b60205473ffffffffffffffffffffffffffffffffffffffff1681565b60155473ffffffffffffffffffffffffffffffffffffffff1681565b600c546040517f70a0823100000000000000000000000000000000000000000000000000000000815260009173ffffffffffffffffffffffffffffffffffffffff16906370a0823190610d679030906004016156f0565b600680546001019081905561256e33613051565b156125a5576040517f08c379a0000000000000000000000000000000000000000000000000000000008152600401610ee3906158d2565b600082116125df576040517f08c379a0000000000000000000000000000000000000000000000000000000008152600401610ee390615932565b6125e8826130ed565b6125f0611b4d565b600b55600c5461261e9073ffffffffffffffffffffffffffffffffffffffff1633308563ffffffff613fa316565b336000908152601c60209081526040808320439055601d90915290205461264b908363ffffffff61354316565b336000908152601d6020526040812091909155600b546126715750600b8290558161268f565b61268c600b54610fa16002548661305790919063ffffffff16565b90505b612697611b4d565b600b556126a43382613fe6565b6126ac611c97565b506006548114611665576040517f08c379a0000000000000000000000000000000000000000000000000000000008152600401610ee390615962565b6126f0611e54565b612726576040517f08c379a0000000000000000000000000000000000000000000000000000000008152600401610ee3906158c2565b601680547fffffffffffffffffffffffff00000000000000000000000000000000000000001673ffffffffffffffffffffffffffffffffffffffff92909216919091179055565b6011546040517f70a0823100000000000000000000000000000000000000000000000000000000815260009173ffffffffffffffffffffffffffffffffffffffff16906370a0823190610d679030906004016156f0565b600c546012546040517f70a0823100000000000000000000000000000000000000000000000000000000815260009273ffffffffffffffffffffffffffffffffffffffff908116926370a0823192610d6792909116906004016156e2565b60135481565b73ffffffffffffffffffffffffffffffffffffffff918216600090815260016020908152604080832093909416825291909152205490565b612868611e54565b61289e576040517f08c379a0000000000000000000000000000000000000000000000000000000008152600401610ee3906158c2565b601f55565b6128ab611e54565b6128e1576040517f08c379a0000000000000000000000000000000000000000000000000000000008152600401610ee3906158c2565b600892909255600955600a55565b601e5481565b6128fd611e54565b612933576040517f08c379a0000000000000000000000000000000000000000000000000000000008152600401610ee3906158c2565b601e55565b61196481565b601b5481565b61294c611e54565b612982576040517f08c379a0000000000000000000000000000000000000000000000000000000008152600401610ee3906158c2565b6119dd816140e7565b604080516003808252608082019092526000916060919060208201838038833901905050905085816000815181106129bf57fe5b602002602001019073ffffffffffffffffffffffffffffffffffffffff16908173ffffffffffffffffffffffffffffffffffffffff16815250508481600181518110612a0757fe5b602002602001019073ffffffffffffffffffffffffffffffffffffffff16908173ffffffffffffffffffffffffffffffffffffffff16815250508381600281518110612a4f57fe5b73ffffffffffffffffffffffffffffffffffffffff92831660209182029290920101526040517fd06ca61f00000000000000000000000000000000000000000000000000000000815260609185169063d06ca61f90612abc90670de0b6b3a76400009086906004016157e1565b60006040518083038186803b158015612ad457600080fd5b505afa158015612ae8573d6000803e3d6000fd5b505050506040513d6000823e601f3d9081017fffffffffffffffffffffffffffffffffffffffffffffffffffffffffffffffe0168201604052612b2e9190810190614af2565b905080600281518110612b3d57fe5b6020026020010151925050505b949350505050565b60175473ffffffffffffffffffffffffffffffffffffffff1681565b600080612b79610d10565b90508015610db757600e546040517f06b3efd600000000000000000000000000000000000000000000000000000000815273ffffffffffffffffffffffffffffffffffffffff909116906306b3efd690612bd79030906004016156f0565b60206040518083038186803b158015612bef57600080fd5b505afa158015612c03573d6000803e3d6000fd5b505050506040513d601f19601f82011682018060405250610d0a9190810190614c0d565b600d5473ffffffffffffffffffffffffffffffffffffffff1681565b600f54604080517f0261bf8b000000000000000000000000000000000000000000000000000000008152905160009273ffffffffffffffffffffffffffffffffffffffff1691630261bf8b916004808301926020929190829003018186803b158015612cae57600080fd5b505afa158015612cc2573d6000803e3d6000fd5b505050506040513d601f19601f82011682018060405250610db791908101906149bc565b600f54604080517fed6ff760000000000000000000000000000000000000000000000000000000008152905160009273ffffffffffffffffffffffffffffffffffffffff169163ed6ff760916004808301926020929190829003018186803b158015612cae57600080fd5b600c5473ffffffffffffffffffffffffffffffffffffffff1681565b3390565b73ffffffffffffffffffffffffffffffffffffffff8316612dbe576040517f08c379a0000000000000000000000000000000000000000000000000000000008152600401610ee390615922565b73ffffffffffffffffffffffffffffffffffffffff8216612e0b576040517f08c379a0000000000000000000000000000000000000000000000000000000008152600401610ee390615852565b73ffffffffffffffffffffffffffffffffffffffff80841660008181526001602090815260408083209487168084529490915290819020849055517f8c5be1e5ebec7d5bd14f71427d1e84f3dd0314c0f7b2291e5b200ac8c7c3b92590612e739085906159bd565b60405180910390a3505050565b73ffffffffffffffffffffffffffffffffffffffff8316612ecd576040517f08c379a0000000000000000000000000000000000000000000000000000000008152600401610ee390615902565b73ffffffffffffffffffffffffffffffffffffffff8216612f1a576040517f08c379a0000000000000000000000000000000000000000000000000000000008152600401610ee390615812565b612f6a81604051806060016040528060268152602001615c3f6026913973ffffffffffffffffffffffffffffffffffffffff8616600090815260208190526040902054919063ffffffff61300b16565b73ffffffffffffffffffffffffffffffffffffffff8085166000908152602081905260408082209390935590841681522054612fac908263ffffffff61354316565b73ffffffffffffffffffffffffffffffffffffffff80841660008181526020819052604090819020939093559151908516907fddf252ad1be2c89b69c2b068fc378daa952ba7f163c4a11628f55a4df523b3ef90612e739085906159bd565b60008184841115613049576040517f08c379a0000000000000000000000000000000000000000000000000000000008152600401610ee39190615801565b505050900390565b3b151590565b60008261306657506000610d0a565b8282028284828161307357fe5b0414610e75576040517f08c379a0000000000000000000000000000000000000000000000000000000008152600401610ee3906158a2565b6000610e7583836040518060400160405280601a81526020017f536166654d6174683a206469766973696f6e206279207a65726f0000000000008152506141c2565b601a546040517f70a0823100000000000000000000000000000000000000000000000000000000815260009173ffffffffffffffffffffffffffffffffffffffff16906370a08231906131449033906004016156f0565b60206040518083038186803b15801561315c57600080fd5b505afa158015613170573d6000803e3d6000fd5b505050506040513d601f19601f820116820180604052506131949190810190614c0d565b601a546018546017546016549394506000936131cf9373ffffffffffffffffffffffffffffffffffffffff908116938116928116911661298b565b905060006131f568056bc75e2d63100000610fa1601f548761305790919063ffffffff16565b90506000613209828463ffffffff6130ab16565b905080841015613245576040517f08c379a0000000000000000000000000000000000000000000000000000000008152600401610ee390615822565b5050505050565b60008181613258611a2a565b9050801561336557613279600161326d6122a1565b9063ffffffff61358216565b84111561335157613295613290600161326d6122a1565b614213565b600c546040517f70a0823100000000000000000000000000000000000000000000000000000000815261334a9173ffffffffffffffffffffffffffffffffffffffff16906370a08231906132ed9030906004016156f0565b60206040518083038186803b15801561330557600080fd5b505afa158015613319573d6000803e3d6000fd5b505050506040513d601f19601f8201168201806040525061333d9190810190614c0d565b839063ffffffff61358216565b9350613365565b61335a84614213565b600192505050611b48565b61336d611758565b905080156133fc5761337d6127c4565b8411156133f35761339461338f6127c4565b61428b565b600c546040517f70a082310000000000000000000000000000000000000000000000000000000081526133ec9173ffffffffffffffffffffffffffffffffffffffff16906370a08231906132ed9030906004016156f0565b93506133fc565b61335a8461428b565b613404610d10565b905080156134ac57613419600161326d611e94565b8411156134a35761342d600161326d611e94565b905061344461343f600161326d611e94565b6143a0565b600c546040517f70a0823100000000000000000000000000000000000000000000000000000000815261349c9173ffffffffffffffffffffffffffffffffffffffff16906370a08231906132ed9030906004016156f0565b93506134ac565b61335a816143a0565b6134b461276d565b90508015610e71576134c461246d565b84111561353a576134db6134d661246d565b614418565b600c546040517f70a082310000000000000000000000000000000000000000000000000000000081526135339173ffffffffffffffffffffffffffffffffffffffff16906370a08231906132ed9030906004016156f0565b9350610e71565b61335a84614418565b600082820183811015610e75576040517f08c379a0000000000000000000000000000000000000000000000000000000008152600401610ee390615872565b6000610e7583836040518060400160405280601e81526020017f536166654d6174683a207375627472616374696f6e206f766572666c6f77000081525061300b565b6016546017546000916135f79173ffffffffffffffffffffffffffffffffffffffff90811691168363ffffffff613e8416565b6016546017546136279173ffffffffffffffffffffffffffffffffffffffff91821691168463ffffffff613e8416565b60408051600280825260608083018452926020830190803883395050601754825192935073ffffffffffffffffffffffffffffffffffffffff169183915060009061366e57fe5b73ffffffffffffffffffffffffffffffffffffffff92831660209182029290920101526018548251911690829060019081106136a657fe5b73ffffffffffffffffffffffffffffffffffffffff9283166020918202929092010152601654606091166318cbafe585600085306136ec4261070863ffffffff61354316565b6040518663ffffffff1660e01b815260040161370c959493929190615a07565b600060405180830381600087803b15801561372657600080fd5b505af115801561373a573d6000803e3d6000fd5b505050506040513d6000823e601f3d9081017fffffffffffffffffffffffffffffffffffffffffffffffffffffffffffffffe01682016040526137809190810190614af2565b90508060018151811061378f57fe5b602002602001015192505050919050565b60408051600280825260608083018452600093909291906020830190803883395050601854825192935073ffffffffffffffffffffffffffffffffffffffff16918391506000906137ed57fe5b73ffffffffffffffffffffffffffffffffffffffff9283166020918202929092010152601a5482519116908290600190811061382557fe5b73ffffffffffffffffffffffffffffffffffffffff928316602091820292909201015260165460609116637ff36ab5856000858161386b4261070863ffffffff61354316565b6040518663ffffffff1660e01b815260040161388a94939291906159cb565b6000604051808303818588803b1580156138a357600080fd5b505af11580156138b7573d6000803e3d6000fd5b50505050506040513d6000823e601f3d9081017fffffffffffffffffffffffffffffffffffffffffffffffffffffffffffffffe01682016040526137809190810190614af2565b6040516124689084907fa9059cbb0000000000000000000000000000000000000000000000000000000090613939908690869060240161575c565b604080517fffffffffffffffffffffffffffffffffffffffffffffffffffffffffffffffe08184030181529190526020810180517bffffffffffffffffffffffffffffffffffffffffffffffffffffffff167fffffffff000000000000000000000000000000000000000000000000000000009093169290921790915261446e565b60006139c5611a2a565b905080156139dd576139dd613290600161326d6122a1565b6139e5611758565b90508015613a10576139f56127c4565b811115613a0757613a046127c4565b90505b613a108161428b565b613a18610d10565b90508015613a4d57613a2d600161326d611e94565b811115613a4457613a41600161326d611e94565b90505b613a4d816143a0565b613a5561276d565b905080156119dd57613a6561246d565b811115613a7757613a7461246d565b90505b6119dd81614418565b604080516001808252818301909252606091816020015b613a9f6147b3565b815260200190600190039081613a9757905050905060405180604001604052803073ffffffffffffffffffffffffffffffffffffffff168152602001600081525081600081518110613aed57fe5b6020026020010181905250613b006147ca565b6040805160808101909152600181526020810160008152602001600081526020018490529050613b2e6147f3565b600081819052506000602082015260408082018390526013546060808401919091523060a0840152815160018082528184019093529091816020015b613b726147f3565b815260200190600190039081613b6a5790505090508181600081518110613b9557fe5b60209081029190910101526012546040517fa67a6a4500000000000000000000000000000000000000000000000000000000815273ffffffffffffffffffffffffffffffffffffffff9091169063a67a6a4590613bf89087908590600401615792565b600060405180830381600087803b158015613c1257600080fd5b505af1158015613c26573d6000803e3d6000fd5b505050505050505050565b600e546040517f40c10f1900000000000000000000000000000000000000000000000000000000815260009173ffffffffffffffffffffffffffffffffffffffff16906340c10f1990613c8a90309086906004016156fe565b602060405180830381600087803b158015613ca457600080fd5b505af1158015613cb8573d6000803e3d6000fd5b505050506040513d601f19601f82011682018060405250613cdc9190810190614c0d565b116119dd576040517f08c379a0000000000000000000000000000000000000000000000000000000008152600401610ee390615942565b600d546040517fa0712d6800000000000000000000000000000000000000000000000000000000815273ffffffffffffffffffffffffffffffffffffffff9091169063a0712d6890613d699084906004016159bd565b602060405180830381600087803b158015613d8357600080fd5b505af1158015613d97573d6000803e3d6000fd5b505050506040513d601f19601f82011682018060405250613dbb9190810190614c0d565b156119dd576040517f08c379a0000000000000000000000000000000000000000000000000000000008152600401610ee390615862565b613dfa612c43565b600c546040517fd2d0e06600000000000000000000000000000000000000000000000000000000815273ffffffffffffffffffffffffffffffffffffffff9283169263d2d0e06692613e5692911690859060009060040161576a565b600060405180830381600087803b158015613e7057600080fd5b505af1158015613245573d6000803e3d6000fd5b801580613f3257506040517fdd62ed3e00000000000000000000000000000000000000000000000000000000815273ffffffffffffffffffffffffffffffffffffffff84169063dd62ed3e90613ee09030908690600401615719565b60206040518083038186803b158015613ef857600080fd5b505afa158015613f0c573d6000803e3d6000fd5b505050506040513d601f19601f82011682018060405250613f309190810190614c0d565b155b613f68576040517f08c379a0000000000000000000000000000000000000000000000000000000008152600401610ee390615972565b6040516124689084907f095ea7b30000000000000000000000000000000000000000000000000000000090613939908690869060240161575c565b604051613fe09085907f23b872dd000000000000000000000000000000000000000000000000000000009061393990879087908790602401615734565b50505050565b73ffffffffffffffffffffffffffffffffffffffff8216614033576040517f08c379a0000000000000000000000000000000000000000000000000000000008152600401610ee390615992565b600254614046908263ffffffff61354316565b60025573ffffffffffffffffffffffffffffffffffffffff821660009081526020819052604090205461407f908263ffffffff61354316565b73ffffffffffffffffffffffffffffffffffffffff83166000818152602081905260408082209390935591519091907fddf252ad1be2c89b69c2b068fc378daa952ba7f163c4a11628f55a4df523b3ef906140db9085906159bd565b60405180910390a35050565b73ffffffffffffffffffffffffffffffffffffffff8116614134576040517f08c379a0000000000000000000000000000000000000000000000000000000008152600401610ee390615842565b60075460405173ffffffffffffffffffffffffffffffffffffffff8084169216907f8be0079c531659141344cd1fd0a4f28419497f9722a3daafe3b4186f6b6457e090600090a3600780547fffffffffffffffffffffffff00000000000000000000000000000000000000001673ffffffffffffffffffffffffffffffffffffffff92909216919091179055565b600081836141fd576040517f08c379a0000000000000000000000000000000000000000000000000000000008152600401610ee39190615801565b50600083858161420957fe5b0495945050505050565b600061421d611a2a565b905060006142296122a1565b905082811015614265576040517f08c379a0000000000000000000000000000000000000000000000000000000008152600401610ee390615912565b600061428060016111d084610fa1878963ffffffff61305716565b9050613fe0816145bb565b604080516001808252818301909252606091816020015b6142aa6147b3565b8152602001906001900390816142a257905050905060405180604001604052803073ffffffffffffffffffffffffffffffffffffffff1681526020016000815250816000815181106142f857fe5b602002602001018190525061430b6147ca565b60408051608081019091526000808252602082019081526020016000815260200184905290506143396147f3565b600181819052506000602082015260408082018390526013546060808401919091523060a0840152815160018082528184019093529091816020015b61437d6147f3565b8152602001906001900390816143755790505090508181600081518110613b9557fe5b60006143aa610d10565b905060006143b6612b6e565b9050828110156143f2576040517f08c379a0000000000000000000000000000000000000000000000000000000008152600401610ee390615912565b600061440d60016111d084610fa1878963ffffffff61305716565b9050613fe08161469a565b6011546040517fdb006a7500000000000000000000000000000000000000000000000000000000815273ffffffffffffffffffffffffffffffffffffffff9091169063db006a7590613e569084906004016159bd565b61448d8273ffffffffffffffffffffffffffffffffffffffff1661477c565b6144c3576040517f08c379a0000000000000000000000000000000000000000000000000000000008152600401610ee390615982565b600060608373ffffffffffffffffffffffffffffffffffffffff16836040516144ec91906156cb565b6000604051808303816000865af19150503d8060008114614529576040519150601f19603f3d011682016040523d82523d6000602084013e61452e565b606091505b50915091508161456a576040517f08c379a0000000000000000000000000000000000000000000000000000000008152600401610ee390615892565b805115613fe057808060200190516145859190810190614b27565b613fe0576040517f08c379a0000000000000000000000000000000000000000000000000000000008152600401610ee390615952565b600d546040517fdb006a7500000000000000000000000000000000000000000000000000000000815273ffffffffffffffffffffffffffffffffffffffff9091169063db006a75906146119084906004016159bd565b602060405180830381600087803b15801561462b57600080fd5b505af115801561463f573d6000803e3d6000fd5b505050506040513d601f19601f820116820180604052506146639190810190614c0d565b156119dd576040517f08c379a0000000000000000000000000000000000000000000000000000000008152600401610ee390615832565b600e546040517f9dc29fac00000000000000000000000000000000000000000000000000000000815260009173ffffffffffffffffffffffffffffffffffffffff1690639dc29fac906146f390309086906004016156fe565b602060405180830381600087803b15801561470d57600080fd5b505af1158015614721573d6000803e3d6000fd5b505050506040513d601f19601f820116820180604052506147459190810190614c0d565b116119dd576040517f08c379a0000000000000000000000000000000000000000000000000000000008152600401610ee3906158b2565b6000813f7fc5d2460186f7233c927e7db2dcc703c0e500b653ca82273b7bfad8045d85a4708115801590612b4a5750141592915050565b604080518082019091526000808252602082015290565b604080516080810190915260008082526020820190815260200160008152602001600081525090565b6040805161010081018252600080825260208201529081016148136147ca565b81526020016000815260200160008152602001600073ffffffffffffffffffffffffffffffffffffffff16815260200160008152602001606081525090565b8035610d0a81615c18565b8051610d0a81615c18565b600082601f83011261487957600080fd5b815161488c61488782615a8f565b615a68565b915081818352602084019350602081019050838560208402820111156148b157600080fd5b60005b838110156148dd57816148c78882614993565b84525060209283019291909101906001016148b4565b5050505092915050565b8051610d0a81615c2c565b600082601f83011261490357600080fd5b815161491161488782615ab0565b9150808252602083016020830185838301111561492d57600080fd5b614938838284615ba6565b50505092915050565b60006040828403121561495357600080fd5b61495d6040615a68565b9050600061496b84846148e7565b825250602061497c84848301614993565b60208301525092915050565b8035610d0a81615c35565b8051610d0a81615c35565b6000602082840312156149b057600080fd5b6000612b4a8484614852565b6000602082840312156149ce57600080fd5b6000612b4a848461485d565b600080604083850312156149ed57600080fd5b60006149f98585614852565b9250506020614a0a85828601614852565b9150509250929050565b60008060008060808587031215614a2a57600080fd5b6000614a368787614852565b9450506020614a4787828801614852565b9350506040614a5887828801614852565b9250506060614a6987828801614852565b91505092959194509250565b600080600060608486031215614a8a57600080fd5b6000614a968686614852565b9350506020614aa786828701614852565b9250506040614ab886828701614988565b9150509250925092565b60008060408385031215614ad557600080fd5b6000614ae18585614852565b9250506020614a0a85828601614988565b600060208284031215614b0457600080fd5b815167ffffffffffffffff811115614b1b57600080fd5b612b4a84828501614868565b600060208284031215614b3957600080fd5b6000612b4a84846148e7565b600080600080600060a08688031215614b5d57600080fd5b855167ffffffffffffffff811115614b7457600080fd5b614b80888289016148f2565b9550506020614b9188828901614993565b9450506040614ba288828901614993565b9350506060614bb388828901614993565b9250506080614bc488828901614993565b9150509295509295909350565b600060408284031215614be357600080fd5b6000612b4a8484614941565b600060208284031215614c0157600080fd5b6000612b4a8484614988565b600060208284031215614c1f57600080fd5b6000612b4a8484614993565b600080600060608486031215614c4057600080fd5b6000614c4c8686614988565b9350506020614aa786828701614988565b6000614c698383614ca0565b505060200190565b6000610e7583836155a4565b6000614c898383615699565b505060400190565b614c9a81615b5d565b82525050565b614c9a81615b09565b6000614cb482615afc565b614cbe8185615b00565b9350614cc983615af6565b8060005b83811015614cf7578151614ce18882614c5d565b9750614cec83615af6565b925050600101614ccd565b509495945050505050565b6000614d0d82615afc565b614d178185615b00565b935083602082028501614d2985615af6565b8060005b85811015614d635784840389528151614d468582614c71565b9450614d5183615af6565b60209a909a0199925050600101614d2d565b5091979650505050505050565b6000614d7b82615afc565b614d858185615b00565b9350614d9083615af6565b8060005b83811015614cf7578151614da88882614c7d565b9750614db383615af6565b925050600101614d94565b614c9a81615b14565b6000614dd282615afc565b614ddc8185611b48565b9350614dec818560208601615ba6565b9290920192915050565b6000614e0182615afc565b614e0b8185615b00565b9350614e1b818560208601615ba6565b614e2481615bd2565b9093019392505050565b614c9a81615b64565b614c9a81615b6f565b614c9a81615b7a565b614c9a81615b85565b614c9a81615b90565b614c9a81615b9b565b6000614e71602383615b00565b7f45524332303a207472616e7366657220746f20746865207a65726f206164647281527f6573730000000000000000000000000000000000000000000000000000000000602082015260400192915050565b6000614ed0605083615b00565b7f596f75206d75737420686f6c6420612025206f6620796f7572206465706f736981527f7420696e2059454c4420746f6b656e7320746f2062652061626c6520746f207360208201527f74616b65206f7220776974686472617700000000000000000000000000000000604082015260600192915050565b6000614f55601983615b00565b7f434f4d504f554e443a207769746864726177206661696c656400000000000000815260200192915050565b6000614f8e602683615b00565b7f4f776e61626c653a206e6577206f776e657220697320746865207a65726f206181527f6464726573730000000000000000000000000000000000000000000000000000602082015260400192915050565b6000614fed602283615b00565b7f45524332303a20617070726f766520746f20746865207a65726f20616464726581527f7373000000000000000000000000000000000000000000000000000000000000602082015260400192915050565b600061504c601783615b00565b7f434f4d504f554e443a20737570706c79206661696c6564000000000000000000815260200192915050565b6000615085601b83615b00565b7f536166654d6174683a206164646974696f6e206f766572666c6f770000000000815260200192915050565b60006150be601c83615b00565b7f446576207472656173757279207472616e73666572206661696c656400000000815260200192915050565b60006150f7602083615b00565b7f5361666545524332303a206c6f772d6c6576656c2063616c6c206661696c6564815260200192915050565b6000615130602183615b00565b7f536166654d6174683a206d756c7469706c69636174696f6e206f766572666c6f81527f7700000000000000000000000000000000000000000000000000000000000000602082015260400192915050565b600061518f601883615b00565b7f46554c4352554d3a207769746864726177206661696c65640000000000000000815260200192915050565b60006151c8602083615b00565b7f4f776e61626c653a2063616c6c6572206973206e6f7420746865206f776e6572815260200192915050565b6000615201603383615b00565b7f436f6e74726163747320617265206e6f7420616c6c6f77656420746f20696e7481527f6572616374207769746820746865206661726d00000000000000000000000000602082015260400192915050565b6000615260601483615b00565b7f696e73756666696369656e742062616c616e6365000000000000000000000000815260200192915050565b6000615299601f83615b00565b7f7769746864726177206d7573742062652067726561746572207468616e203000815260200192915050565b60006152d2602583615b00565b7f45524332303a207472616e736665722066726f6d20746865207a65726f20616481527f6472657373000000000000000000000000000000000000000000000000000000602082015260400192915050565b6000610d0a600083611b48565b600061533e601283615b00565b7f696e73756666696369656e742066756e64730000000000000000000000000000815260200192915050565b6000615377602483615b00565b7f45524332303a20617070726f76652066726f6d20746865207a65726f2061646481527f7265737300000000000000000000000000000000000000000000000000000000602082015260400192915050565b60006153d6601e83615b00565b7f6465706f736974206d7573742062652067726561746572207468616e20300000815260200192915050565b600061540f601683615b00565b7f46554c4352554d3a20737570706c79206661696c656400000000000000000000815260200192915050565b6000615448602a83615b00565b7f5361666545524332303a204552433230206f7065726174696f6e20646964206e81527f6f74207375636365656400000000000000000000000000000000000000000000602082015260400192915050565b60006154a7601f83615b00565b7f5265656e7472616e637947756172643a207265656e7472616e742063616c6c00815260200192915050565b60006154e0603683615b00565b7f5361666545524332303a20617070726f76652066726f6d206e6f6e2d7a65726f81527f20746f206e6f6e2d7a65726f20616c6c6f77616e636500000000000000000000602082015260400192915050565b600061553f601f83615b00565b7f5361666545524332303a2063616c6c20746f206e6f6e2d636f6e747261637400815260200192915050565b6000615578601f83615b00565b7f45524332303a206d696e7420746f20746865207a65726f206164647265737300815260200192915050565b80516000906101608401906155b98582614e37565b5060208301516155cc60208601826156b9565b5060408301516155df604086018261564f565b5060608301516155f260c08601826156b9565b50608083015161560560e08601826156b9565b5060a0830151615619610100860182614ca0565b5060c083015161562d6101208601826156b9565b5060e08301518482036101408601526156468282614df6565b95945050505050565b805160808301906156608482614dbe565b5060208201516156736020850182614e40565b5060408201516156866040850182614e40565b506060820151613fe060608501826156b9565b805160408301906156aa8482614ca0565b506020820151613fe060208501825b614c9a81610cce565b614c9a81615b57565b6000610e758284614dc7565b6000610d0a82615324565b60208101610d0a8284614ca0565b60208101610d0a8284614c91565b6040810161570c8285614c91565b610e7560208301846156b9565b604081016157278285614ca0565b610e756020830184614ca0565b606081016157428286614ca0565b61574f6020830185614ca0565b612b4a60408301846156b9565b6040810161570c8285614ca0565b606081016157788286614ca0565b61578560208301856156b9565b612b4a6040830184614e52565b604080825281016157a38185614d70565b90508181036020830152612b4a8184614d02565b60208101610d0a8284614dbe565b60208101610d0a8284614e2e565b60208101610d0a8284614e49565b604081016157ef8285614e5b565b8181036020830152612b4a8184614ca9565b60208082528101610e758184614df6565b60208082528101610d0a81614e64565b60208082528101610d0a81614ec3565b60208082528101610d0a81614f48565b60208082528101610d0a81614f81565b60208082528101610d0a81614fe0565b60208082528101610d0a8161503f565b60208082528101610d0a81615078565b60208082528101610d0a816150b1565b60208082528101610d0a816150ea565b60208082528101610d0a81615123565b60208082528101610d0a81615182565b60208082528101610d0a816151bb565b60208082528101610d0a816151f4565b60208082528101610d0a81615253565b60208082528101610d0a8161528c565b60208082528101610d0a816152c5565b60208082528101610d0a81615331565b60208082528101610d0a8161536a565b60208082528101610d0a816153c9565b60208082528101610d0a81615402565b60208082528101610d0a8161543b565b60208082528101610d0a8161549a565b60208082528101610d0a816154d3565b60208082528101610d0a81615532565b60208082528101610d0a8161556b565b606081016159b08285615699565b610e7560408301846156b9565b60208101610d0a82846156b9565b608081016159d982876156b9565b81810360208301526159eb8186614ca9565b90506159fa6040830185614c91565b61564660608301846156b9565b60a08101615a1582886156b9565b615a2260208301876156b9565b8181036040830152615a348186614ca9565b9050615a436060830185614c91565b615a5060808301846156b9565b9695505050505050565b60208101610d0a82846156c2565b60405181810167ffffffffffffffff81118282101715615a8757600080fd5b604052919050565b600067ffffffffffffffff821115615aa657600080fd5b5060209081020190565b600067ffffffffffffffff821115615ac757600080fd5b506020601f919091017fffffffffffffffffffffffffffffffffffffffffffffffffffffffffffffffe0160190565b60200190565b5190565b90815260200190565b6000610d0a82615b3e565b151590565b80611b4881615bfa565b80611b4881615c04565b80611b4881615c0e565b61ffff1690565b73ffffffffffffffffffffffffffffffffffffffff1690565b60ff1690565b6000610d0a825b6000610d0a82615b09565b6000610d0a82615b19565b6000610d0a82615b23565b6000610d0a82615b2d565b6000610d0a82615b37565b6000610d0a82610cce565b60005b83811015615bc1578181015183820152602001615ba9565b83811115613fe05750506000910152565b601f017fffffffffffffffffffffffffffffffffffffffffffffffffffffffffffffffe01690565b600281106119dd57fe5b600181106119dd57fe5b600581106119dd57fe5b615c2181615b09565b81146119dd57600080fd5b615c2181615b14565b615c2181610cce56fe45524332303a207472616e7366657220616d6f756e7420657863656564732062616c616e636545524332303a207472616e7366657220616d6f756e74206578636565647320616c6c6f77616e636545524332303a2064656372656173656420616c6c6f77616e63652062656c6f77207a65726fa365627a7a723158200c05a09c0177b9a85d9f936dc110f8df925e35be8921044801ef50c0ecaf6a8f6c6578706572696d656e74616cf564736f6c63430005110040",
  "source": "pragma solidity 0.5.17;\npragma experimental ABIEncoderV2;\n\nimport './ContractImports.sol';\nimport './CommonFunctionality.sol';\n\ncontract yDAI is ERC20, ERC20Detailed, ReentrancyGuard, Structs, Ownable, CommonFunctionality {\n  using SafeERC20 for IERC20;\n  using Address for address;\n  using SafeMath for uint256;\n\n  uint256 public pool;\n  address public token;\n  address public compound;\n  address public fulcrum;\n  address public aave;\n  address public aavePool;\n  address public aaveToken;\n  address public dydx;\n  uint256 public dToken;\n  address public apr;\n  address public chai;\n  // Add other tokens if implemented for another stablecoin\n  address public uniswapRouter = 0x7a250d5630B4cF539739dF2C5dAcb4c659F2488D;\n  address public dai = 0x6B175474E89094C44Da98b954EedeAC495271d0F;\n  address public weth = 0xC02aaA39b223FE8D0A0e5C4F27eAD9083C756Cc2;\n  address payable public retirementYeldTreasury;\n  IERC20 public yeldToken;\n  uint256 public maximumTokensToBurn = 50000 * 1e18;\n\n  mapping(address => uint256) public depositBlockStarts;\n  mapping(address => uint256) public depositAmount;\n  uint256 public constant oneDayInBlocks = 6500;\n  uint256 public yeldToRewardPerDay = 50e18; // 50 YELD per day per 1 million stablecoins padded with 18 zeroes to have that flexibility\n  uint256 public constant oneMillion = 1e6;\n  uint256 public holdPercentage = 5e18;\n  address public devTreasury;\n\n  enum Lender {\n      NONE,\n      DYDX,\n      COMPOUND,\n      AAVE,\n      FULCRUM\n  }\n\n  Lender public provider = Lender.NONE;\n\n  constructor (address _yeldToken, address payable _retirementYeldTreasury, address _devTreasury) public payable ERC20Detailed(\"yearn DAI\", \"yDAI\", 18) {\n    token = address(0x6B175474E89094C44Da98b954EedeAC495271d0F);\n    apr = address(0xdD6d648C991f7d47454354f4Ef326b04025a48A8);\n    dydx = address(0x1E0447b19BB6EcFdAe1e4AE1694b0C3659614e4e);\n    aave = address(0x24a42fD28C976A61Df5D00D0599C34c4f90748c8);\n    aavePool = address(0x3dfd23A6c5E8BbcFc9581d2E864a68feb6a076d3);\n    fulcrum = address(0x493C57C4763932315A328269E1ADaD09653B9081);\n    aaveToken = address(0xfC1E690f61EFd961294b3e1Ce3313fBD8aa4f85d);\n    compound = address(0x5d3a536E4D6DbD6114cc1Ead35777bAB948E3643);\n    chai = address(0x06AF07097C9Eeb7fD685c692751D5C66dB49c215);\n    dToken = 3;\n    yeldToken = IERC20(_yeldToken);\n    retirementYeldTreasury = _retirementYeldTreasury;\n    devTreasury = _devTreasury;\n    approveToken();\n  }\n\n  // To receive ETH after converting it from DAI\n  function () external payable {}\n\n  function setRetirementYeldTreasury(address payable _treasury) public onlyOwner {\n    retirementYeldTreasury = _treasury;\n  }\n\n  function setDevTreasury(address _devTreasury) public onlyOwner {\n    devTreasury = _devTreasury;\n  }\n\n  // In case a new uniswap router version is released\n  function setUniswapRouter(address _uniswapRouter) public onlyOwner {\n    uniswapRouter = _uniswapRouter;\n  }\n\n  function setYeldToken(address _yeldToken) public onlyOwner {\n    yeldToken = IERC20(_yeldToken);\n  }\n\n  function extractTokensIfStuck(address _token, uint256 _amount) public onlyOwner {\n    IERC20(_token).transfer(msg.sender, _amount);\n  }\n\n  function extractETHIfStuck() public onlyOwner {\n    owner().transfer(address(this).balance);\n  }\n\n  function changeYeldToRewardPerDay(uint256 _amount) public onlyOwner {\n    yeldToRewardPerDay = _amount;\n  }\n\n  function getGeneratedYelds() public view returns(uint256) {\n    uint256 blocksPassed;\n    if (depositBlockStarts[msg.sender] > 0) {\n      blocksPassed = block.number.sub(depositBlockStarts[msg.sender]);\n    } else {\n      return 0;\n    }\n    uint256 generatedYelds = depositAmount[msg.sender].div(oneMillion).mul(yeldToRewardPerDay).div(1e18).mul(blocksPassed).div(oneDayInBlocks);\n    return generatedYelds;\n  }\n\n  function setHoldPercentage(uint256 _holdPercentage) public onlyOwner {\n    holdPercentage = _holdPercentage;\n  }\n\n  function yeldHoldingRequirement(uint256 _amount) internal {\n    uint256 yeldHold = yeldToken.balanceOf(msg.sender);\n    uint256 yeldPriceInDai = getYeldPriceInDai(address(yeldToken), weth, dai, uniswapRouter);\n    uint256 amountPercentage = _amount.mul(holdPercentage).div(1e20);\n    uint256 yeldRequirement = amountPercentage.div(yeldPriceInDai);\n    require(yeldHold >= yeldRequirement, 'You must hold a % of your deposit in YELD tokens to be able to stake or withdraw');\n  }\n\n  function deposit(uint256 _amount)\n      external\n      nonReentrant\n      noContract\n  {\n    require(_amount > 0, \"deposit must be greater than 0\");\n    yeldHoldingRequirement(_amount);\n    pool = calcPoolValueInToken();\n    IERC20(token).safeTransferFrom(msg.sender, address(this), _amount);\n\n    // Yeld\n    depositBlockStarts[msg.sender] = block.number;\n    depositAmount[msg.sender] = depositAmount[msg.sender].add(_amount);\n    // Yeld\n\n    // Calculate pool shares\n    uint256 shares = 0;\n    if (pool == 0) {\n      shares = _amount;\n      pool = _amount;\n    } else {\n      shares = (_amount.mul(_totalSupply)).div(pool);\n    }\n    pool = calcPoolValueInToken();\n    _mint(msg.sender, shares);\n    rebalance();\n  }\n\n  // Converts DAI to ETH and returns how much ETH has been received from Uniswap\n  function daiToETH(uint256 _amount) internal returns(uint256) {\n      IERC20(dai).safeApprove(uniswapRouter, 0);\n      IERC20(dai).safeApprove(uniswapRouter, _amount);\n      address[] memory path = new address[](2);\n      path[0] = dai;\n      path[1] = weth;\n      // swapExactTokensForETH(uint amountIn, uint amountOutMin, address[] calldata path, address to, uint deadline)\n      // 'amounts' is an array where [0] is input DAI amount and [1] is the resulting ETH after the conversion\n      // even tho we've specified the WETH address, we'll receive ETH since that's how it works on uniswap\n      // https://uniswap.org/docs/v2/smart-contracts/router02/#swapexacttokensforeth\n      uint[] memory amounts = IUniswap(uniswapRouter).swapExactTokensForETH(_amount, uint(0), path, address(this), now.add(1800));\n      return amounts[1];\n  }\n\n  // Buys YELD tokens paying in ETH on Uniswap and removes them from circulation\n  // Returns how many YELD tokens have been burned\n  function buyNBurn(uint256 _ethToSwap) internal returns(uint256) {\n    address[] memory path = new address[](2);\n    path[0] = weth;\n    path[1] = address(yeldToken);\n    // Burns the tokens by taking them out of circulation, sending them to the 0x0 address\n    uint[] memory amounts = IUniswap(uniswapRouter).swapExactETHForTokens.value(_ethToSwap)(uint(0), path, address(0), now.add(1800));\n    return amounts[1];\n  }\n\n  // No rebalance implementation for lower fees and faster swaps\n  function withdraw(uint256 _shares)\n      external\n      nonReentrant\n      noContract\n  {\n      require(_shares > 0, \"withdraw must be greater than 0\");\n      uint256 ibalance = balanceOf(msg.sender);\n      require(_shares <= ibalance, \"insufficient balance\");\n      pool = calcPoolValueInToken();\n      // Yeld\n      uint256 generatedYelds = getGeneratedYelds();\n      // Yeld\n      uint256 stablecoinsToWithdraw = (pool.mul(_shares)).div(_totalSupply);\n      yeldHoldingRequirement(stablecoinsToWithdraw);\n      _balances[msg.sender] = _balances[msg.sender].sub(_shares, \"redeem amount exceeds balance\");\n      _totalSupply = _totalSupply.sub(_shares, '#1 Total supply sub error');\n      emit Transfer(msg.sender, address(0), _shares);\n      uint256 b = IERC20(token).balanceOf(address(this));\n      if (b < stablecoinsToWithdraw) {\n        _withdrawSome(stablecoinsToWithdraw.sub(b, '#2 Withdraw some sub error'));\n      }\n\n      // Yeld\n      uint256 totalPercentage = percentageRetirementYield.add(percentageDevTreasury).add(percentageBuyBurn);\n      uint256 combined = stablecoinsToWithdraw.mul(totalPercentage).div(1e20);\n      depositBlockStarts[msg.sender] = block.number;\n      depositAmount[msg.sender] = depositAmount[msg.sender].sub(stablecoinsToWithdraw);\n      yeldToken.transfer(msg.sender, generatedYelds);\n\n      // Take a portion of the profits for the buy and burn and retirement yeld\n      // Convert half the DAI earned into ETH for the protocol algorithms\n      uint256 stakingProfits = daiToETH(combined); // 5%\n      uint256 tokensAlreadyBurned = yeldToken.balanceOf(address(0));\n      uint256 devTreasuryAmount = stakingProfits.mul(uint256(100e18).mul(percentageDevTreasury).div(totalPercentage)).div(100e18);\n      if (tokensAlreadyBurned < maximumTokensToBurn) {\n        // buynburn 5% -> 100% so 1% -> 20%\n        uint256 ethToSwap = stakingProfits.mul(uint256(100e18).mul(percentageBuyBurn).div(totalPercentage)).div(100e18);\n        // Buy and burn only applies up to 50k tokens burned\n        buyNBurn(ethToSwap);\n        // RY 1.5% where 5% -> 100% so 1.5% -> 30%\n        uint256 retirementYeld = stakingProfits.mul(uint256(100e18).mul(percentageRetirementYield).div(totalPercentage)).div(100e18);\n        // Send to the treasury\n        retirementYeldTreasury.transfer(retirementYeld);\n      } else {\n        // If we've reached the maximum burn point, send half the profits to the treasury to reward holders\n        uint256 retirementYeld = stakingProfits.sub(devTreasuryAmount);\n        // Send to the treasury\n        retirementYeldTreasury.transfer(retirementYeld);\n      }\n      // DT 2.5% where 5% -> 100% so 2.5% -> 50%\n      (bool success, ) = devTreasury.call.value(devTreasuryAmount)(\"\");\n      require(success, \"Dev treasury transfer failed\");\n      IERC20(token).safeTransfer(msg.sender, stablecoinsToWithdraw.sub(combined));\n      // Yeld\n\n      pool = calcPoolValueInToken();\n      rebalance();\n  }\n\n  function recommend() public view returns (Lender) {\n    (,uint256 capr,uint256 iapr,uint256 aapr,uint256 dapr) = IIEarnManager(apr).recommend(token);\n    uint256 max = 0;\n    if (capr > max) {\n      max = capr;\n    }\n    if (iapr > max) {\n      max = iapr;\n    }\n    if (aapr > max) {\n      max = aapr;\n    }\n    if (dapr > max) {\n      max = dapr;\n    }\n\n    Lender newProvider = Lender.NONE;\n    if (max == capr) {\n      newProvider = Lender.COMPOUND;\n    } else if (max == iapr) {\n      newProvider = Lender.FULCRUM;\n    } else if (max == aapr) {\n      newProvider = Lender.AAVE;\n    } else if (max == dapr) {\n      newProvider = Lender.DYDX;\n    }\n    return newProvider;\n  }\n\n  function getAave() public view returns (address) {\n    return LendingPoolAddressesProvider(aave).getLendingPool();\n  }\n  function getAaveCore() public view returns (address) {\n    return LendingPoolAddressesProvider(aave).getLendingPoolCore();\n  }\n\n  function approveToken() public {\n      IERC20(token).safeApprove(compound, uint(-1));\n      IERC20(token).safeApprove(dydx, uint(-1));\n      IERC20(token).safeApprove(getAaveCore(), uint(-1));\n      IERC20(token).safeApprove(fulcrum, uint(-1));\n  }\n\n  function balance() public view returns (uint256) {\n    return IERC20(token).balanceOf(address(this));\n  }\n  function balanceDydxAvailable() public view returns (uint256) {\n      return IERC20(token).balanceOf(dydx);\n  }\n  function balanceDydx() public view returns (uint256) {\n      Wei memory bal = DyDx(dydx).getAccountWei(Info(address(this), 0), dToken);\n      return bal.value;\n  }\n  function balanceCompound() public view returns (uint256) {\n      return IERC20(compound).balanceOf(address(this));\n  }\n  function balanceCompoundInToken() public view returns (uint256) {\n    // Mantisa 1e18 to decimals\n    uint256 b = balanceCompound();\n    if (b > 0) {\n      b = b.mul(Compound(compound).exchangeRateStored()).div(1e18);\n    }\n    return b;\n  }\n  function balanceFulcrumAvailable() public view returns (uint256) {\n      return IERC20(chai).balanceOf(fulcrum);\n  }\n  function balanceFulcrumInToken() public view returns (uint256) {\n    uint256 b = balanceFulcrum();\n    if (b > 0) {\n      b = Fulcrum(fulcrum).assetBalanceOf(address(this));\n    }\n    return b;\n  }\n  function balanceFulcrum() public view returns (uint256) {\n    return IERC20(fulcrum).balanceOf(address(this));\n  }\n  function balanceAaveAvailable() public view returns (uint256) {\n      return IERC20(token).balanceOf(aavePool);\n  }\n  function balanceAave() public view returns (uint256) {\n    return IERC20(aaveToken).balanceOf(address(this));\n  }\n\n  function rebalance() public {\n    Lender newProvider = recommend();\n\n    if (newProvider != provider) {\n      _withdrawAll();\n    }\n\n    if (balance() > 0) {\n      if (newProvider == Lender.DYDX) {\n        _supplyDydx(balance());\n      } else if (newProvider == Lender.FULCRUM) {\n        _supplyFulcrum(balance());\n      } else if (newProvider == Lender.COMPOUND) {\n        _supplyCompound(balance());\n      } else if (newProvider == Lender.AAVE) {\n        _supplyAave(balance());\n      }\n    }\n\n    provider = newProvider;\n  }\n\n  function _withdrawAll() internal {\n    uint256 amount = balanceCompound();\n    if (amount > 0) {\n      _withdrawSomeCompound(balanceCompoundInToken().sub(1));\n    }\n    amount = balanceDydx();\n    if (amount > 0) {\n      if (amount > balanceDydxAvailable()) {\n        amount = balanceDydxAvailable();\n      }\n      _withdrawDydx(amount);\n    }\n    amount = balanceFulcrum();\n    if (amount > 0) {\n      if (amount > balanceFulcrumAvailable().sub(1)) {\n        amount = balanceFulcrumAvailable().sub(1);\n      }\n      _withdrawSomeFulcrum(amount);\n    }\n    amount = balanceAave();\n    if (amount > 0) {\n      if (amount > balanceAaveAvailable()) {\n        amount = balanceAaveAvailable();\n      }\n      _withdrawAave(amount);\n    }\n  }\n\n  function _withdrawSomeCompound(uint256 _amount) internal {\n    uint256 b = balanceCompound();\n    uint256 bT = balanceCompoundInToken();\n    require(bT >= _amount, \"insufficient funds\");\n    // can have unintentional rounding errors\n    uint256 amount = (b.mul(_amount)).div(bT).add(1);\n    _withdrawCompound(amount);\n  }\n\n  function _withdrawSomeFulcrum(uint256 _amount) internal {\n    uint256 b = balanceFulcrum();\n    uint256 bT = balanceFulcrumInToken();\n    require(bT >= _amount, \"insufficient funds\");\n    // can have unintentional rounding errors\n    uint256 amount = (b.mul(_amount)).div(bT).add(1);\n    _withdrawFulcrum(amount);\n  }\n\n\n  function _withdrawSome(uint256 _amount) internal returns (bool) {\n    uint256 origAmount = _amount;\n\n    uint256 amount = balanceCompound();\n    if (amount > 0) {\n      if (_amount > balanceCompoundInToken().sub(1)) {\n        _withdrawSomeCompound(balanceCompoundInToken().sub(1));\n        _amount = origAmount.sub(IERC20(token).balanceOf(address(this)));\n      } else {\n        _withdrawSomeCompound(_amount);\n        return true;\n      }\n    }\n\n    amount = balanceDydx();\n    if (amount > 0) {\n      if (_amount > balanceDydxAvailable()) {\n        _withdrawDydx(balanceDydxAvailable());\n        _amount = origAmount.sub(IERC20(token).balanceOf(address(this)));\n      } else {\n        _withdrawDydx(_amount);\n        return true;\n      }\n    }\n\n    amount = balanceFulcrum();\n    if (amount > 0) {\n      if (_amount > balanceFulcrumAvailable().sub(1)) {\n        amount = balanceFulcrumAvailable().sub(1);\n        _withdrawSomeFulcrum(balanceFulcrumAvailable().sub(1));\n        _amount = origAmount.sub(IERC20(token).balanceOf(address(this)));\n      } else {\n        _withdrawSomeFulcrum(amount);\n        return true;\n      }\n    }\n\n    amount = balanceAave();\n    if (amount > 0) {\n      if (_amount > balanceAaveAvailable()) {\n        _withdrawAave(balanceAaveAvailable());\n        _amount = origAmount.sub(IERC20(token).balanceOf(address(this)));\n      } else {\n        _withdrawAave(_amount);\n        return true;\n      }\n    }\n\n    return true;\n  }\n\n  function _supplyDydx(uint256 amount) internal {\n      Info[] memory infos = new Info[](1);\n      infos[0] = Info(address(this), 0);\n\n      AssetAmount memory amt = AssetAmount(true, AssetDenomination.Wei, AssetReference.Delta, amount);\n      ActionArgs memory act;\n      act.actionType = ActionType.Deposit;\n      act.accountId = 0;\n      act.amount = amt;\n      act.primaryMarketId = dToken;\n      act.otherAddress = address(this);\n\n      ActionArgs[] memory args = new ActionArgs[](1);\n      args[0] = act;\n\n      DyDx(dydx).operate(infos, args);\n  }\n\n  function _supplyAave(uint amount) internal {\n      Aave(getAave()).deposit(token, amount, 0);\n  }\n  function _supplyFulcrum(uint amount) internal {\n      require(Fulcrum(fulcrum).mint(address(this), amount) > 0, \"FULCRUM: supply failed\");\n  }\n  function _supplyCompound(uint amount) internal {\n      require(Compound(compound).mint(amount) == 0, \"COMPOUND: supply failed\");\n  }\n  function _withdrawAave(uint amount) internal {\n      AToken(aaveToken).redeem(amount);\n  }\n  function _withdrawFulcrum(uint amount) internal {\n      require(Fulcrum(fulcrum).burn(address(this), amount) > 0, \"FULCRUM: withdraw failed\");\n  }\n  function _withdrawCompound(uint amount) internal {\n      require(Compound(compound).redeem(amount) == 0, \"COMPOUND: withdraw failed\");\n  }\n\n  function _withdrawDydx(uint256 amount) internal {\n      Info[] memory infos = new Info[](1);\n      infos[0] = Info(address(this), 0);\n\n      AssetAmount memory amt = AssetAmount(false, AssetDenomination.Wei, AssetReference.Delta, amount);\n      ActionArgs memory act;\n      act.actionType = ActionType.Withdraw;\n      act.accountId = 0;\n      act.amount = amt;\n      act.primaryMarketId = dToken;\n      act.otherAddress = address(this);\n\n      ActionArgs[] memory args = new ActionArgs[](1);\n      args[0] = act;\n\n      DyDx(dydx).operate(infos, args);\n  }\n\n  function calcPoolValueInToken() public view returns (uint) {\n    return balanceCompoundInToken()\n      .add(balanceFulcrumInToken())\n      .add(balanceDydx())\n      .add(balanceAave())\n      .add(balance());\n  }\n\n  function getPricePerFullShare() public view returns (uint) {\n    uint _pool = calcPoolValueInToken();\n    return _pool.mul(1e18).div(_totalSupply);\n  }\n}\n",
  "sourcePath": "C:/Users/merun/Desktop/yeld & crypto/yeld-contracts/contracts/yDAI.sol",
  "compiler": {
    "name": "solc",
    "version": "0.5.17+commit.d19bba13.Emscripten.clang"
  },
  "schemaVersion": "3.3.3",
  "updatedAt": "2021-01-30T18:30:23.333Z",
  "devdoc": {
    "methods": {}
  },
  "userdoc": {
    "methods": {}
  }
}