{
  "contractName": "yDAI",
  "abi": [
    {
      "inputs": [
        {
          "internalType": "address",
          "name": "_yeldToken",
          "type": "address"
        },
        {
          "internalType": "address payable",
          "name": "_retirementYeldTreasury",
          "type": "address"
        }
      ],
      "payable": true,
      "stateMutability": "payable",
      "type": "constructor"
    },
    {
      "anonymous": false,
      "inputs": [
        {
          "indexed": true,
          "internalType": "address",
          "name": "owner",
          "type": "address"
        },
        {
          "indexed": true,
          "internalType": "address",
          "name": "spender",
          "type": "address"
        },
        {
          "indexed": false,
          "internalType": "uint256",
          "name": "value",
          "type": "uint256"
        }
      ],
      "name": "Approval",
      "type": "event"
    },
    {
      "anonymous": false,
      "inputs": [
        {
          "indexed": true,
          "internalType": "address",
          "name": "previousOwner",
          "type": "address"
        },
        {
          "indexed": true,
          "internalType": "address",
          "name": "newOwner",
          "type": "address"
        }
      ],
      "name": "OwnershipTransferred",
      "type": "event"
    },
    {
      "anonymous": false,
      "inputs": [
        {
          "indexed": true,
          "internalType": "address",
          "name": "from",
          "type": "address"
        },
        {
          "indexed": true,
          "internalType": "address",
          "name": "to",
          "type": "address"
        },
        {
          "indexed": false,
          "internalType": "uint256",
          "name": "value",
          "type": "uint256"
        }
      ],
      "name": "Transfer",
      "type": "event"
    },
    {
      "payable": true,
      "stateMutability": "payable",
      "type": "fallback"
    },
    {
      "constant": true,
      "inputs": [],
      "name": "aave",
      "outputs": [
        {
          "internalType": "address",
          "name": "",
          "type": "address"
        }
      ],
      "payable": false,
      "stateMutability": "view",
      "type": "function"
    },
    {
      "constant": true,
      "inputs": [],
      "name": "aavePool",
      "outputs": [
        {
          "internalType": "address",
          "name": "",
          "type": "address"
        }
      ],
      "payable": false,
      "stateMutability": "view",
      "type": "function"
    },
    {
      "constant": true,
      "inputs": [],
      "name": "aaveToken",
      "outputs": [
        {
          "internalType": "address",
          "name": "",
          "type": "address"
        }
      ],
      "payable": false,
      "stateMutability": "view",
      "type": "function"
    },
    {
      "constant": true,
      "inputs": [
        {
          "internalType": "address",
          "name": "owner",
          "type": "address"
        },
        {
          "internalType": "address",
          "name": "spender",
          "type": "address"
        }
      ],
      "name": "allowance",
      "outputs": [
        {
          "internalType": "uint256",
          "name": "",
          "type": "uint256"
        }
      ],
      "payable": false,
      "stateMutability": "view",
      "type": "function"
    },
    {
      "constant": false,
      "inputs": [
        {
          "internalType": "address",
          "name": "spender",
          "type": "address"
        },
        {
          "internalType": "uint256",
          "name": "amount",
          "type": "uint256"
        }
      ],
      "name": "approve",
      "outputs": [
        {
          "internalType": "bool",
          "name": "",
          "type": "bool"
        }
      ],
      "payable": false,
      "stateMutability": "nonpayable",
      "type": "function"
    },
    {
      "constant": true,
      "inputs": [],
      "name": "apr",
      "outputs": [
        {
          "internalType": "address",
          "name": "",
          "type": "address"
        }
      ],
      "payable": false,
      "stateMutability": "view",
      "type": "function"
    },
    {
      "constant": true,
      "inputs": [
        {
          "internalType": "address",
          "name": "account",
          "type": "address"
        }
      ],
      "name": "balanceOf",
      "outputs": [
        {
          "internalType": "uint256",
          "name": "",
          "type": "uint256"
        }
      ],
      "payable": false,
      "stateMutability": "view",
      "type": "function"
    },
    {
      "constant": true,
      "inputs": [],
      "name": "chai",
      "outputs": [
        {
          "internalType": "address",
          "name": "",
          "type": "address"
        }
      ],
      "payable": false,
      "stateMutability": "view",
      "type": "function"
    },
    {
      "constant": true,
      "inputs": [],
      "name": "compound",
      "outputs": [
        {
          "internalType": "address",
          "name": "",
          "type": "address"
        }
      ],
      "payable": false,
      "stateMutability": "view",
      "type": "function"
    },
    {
      "constant": true,
      "inputs": [],
      "name": "dToken",
      "outputs": [
        {
          "internalType": "uint256",
          "name": "",
          "type": "uint256"
        }
      ],
      "payable": false,
      "stateMutability": "view",
      "type": "function"
    },
    {
      "constant": true,
      "inputs": [],
      "name": "dai",
      "outputs": [
        {
          "internalType": "address",
          "name": "",
          "type": "address"
        }
      ],
      "payable": false,
      "stateMutability": "view",
      "type": "function"
    },
    {
      "constant": true,
      "inputs": [],
      "name": "decimals",
      "outputs": [
        {
          "internalType": "uint8",
          "name": "",
          "type": "uint8"
        }
      ],
      "payable": false,
      "stateMutability": "view",
      "type": "function"
    },
    {
      "constant": false,
      "inputs": [
        {
          "internalType": "address",
          "name": "spender",
          "type": "address"
        },
        {
          "internalType": "uint256",
          "name": "subtractedValue",
          "type": "uint256"
        }
      ],
      "name": "decreaseAllowance",
      "outputs": [
        {
          "internalType": "bool",
          "name": "",
          "type": "bool"
        }
      ],
      "payable": false,
      "stateMutability": "nonpayable",
      "type": "function"
    },
    {
      "constant": true,
      "inputs": [
        {
          "internalType": "address",
          "name": "",
          "type": "address"
        }
      ],
      "name": "depositAmount",
      "outputs": [
        {
          "internalType": "uint256",
          "name": "",
          "type": "uint256"
        }
      ],
      "payable": false,
      "stateMutability": "view",
      "type": "function"
    },
    {
      "constant": true,
      "inputs": [
        {
          "internalType": "address",
          "name": "",
          "type": "address"
        }
      ],
      "name": "depositBlockStarts",
      "outputs": [
        {
          "internalType": "uint256",
          "name": "",
          "type": "uint256"
        }
      ],
      "payable": false,
      "stateMutability": "view",
      "type": "function"
    },
    {
      "constant": true,
      "inputs": [],
      "name": "dydx",
      "outputs": [
        {
          "internalType": "address",
          "name": "",
          "type": "address"
        }
      ],
      "payable": false,
      "stateMutability": "view",
      "type": "function"
    },
    {
      "constant": true,
      "inputs": [],
      "name": "fulcrum",
      "outputs": [
        {
          "internalType": "address",
          "name": "",
          "type": "address"
        }
      ],
      "payable": false,
      "stateMutability": "view",
      "type": "function"
    },
    {
      "constant": true,
      "inputs": [
        {
          "internalType": "address",
          "name": "_yeld",
          "type": "address"
        },
        {
          "internalType": "address",
          "name": "_weth",
          "type": "address"
        },
        {
          "internalType": "address",
          "name": "_dai",
          "type": "address"
        },
        {
          "internalType": "address",
          "name": "_uniswap",
          "type": "address"
        }
      ],
      "name": "getYeldPriceInDai",
      "outputs": [
        {
          "internalType": "uint256",
          "name": "",
          "type": "uint256"
        }
      ],
      "payable": false,
      "stateMutability": "view",
      "type": "function"
    },
    {
      "constant": true,
      "inputs": [],
      "name": "holdPercentage",
      "outputs": [
        {
          "internalType": "uint256",
          "name": "",
          "type": "uint256"
        }
      ],
      "payable": false,
      "stateMutability": "view",
      "type": "function"
    },
    {
      "constant": false,
      "inputs": [
        {
          "internalType": "address",
          "name": "spender",
          "type": "address"
        },
        {
          "internalType": "uint256",
          "name": "addedValue",
          "type": "uint256"
        }
      ],
      "name": "increaseAllowance",
      "outputs": [
        {
          "internalType": "bool",
          "name": "",
          "type": "bool"
        }
      ],
      "payable": false,
      "stateMutability": "nonpayable",
      "type": "function"
    },
    {
      "constant": true,
      "inputs": [],
      "name": "isOwner",
      "outputs": [
        {
          "internalType": "bool",
          "name": "",
          "type": "bool"
        }
      ],
      "payable": false,
      "stateMutability": "view",
      "type": "function"
    },
    {
      "constant": true,
      "inputs": [],
      "name": "maximumTokensToBurn",
      "outputs": [
        {
          "internalType": "uint256",
          "name": "",
          "type": "uint256"
        }
      ],
      "payable": false,
      "stateMutability": "view",
      "type": "function"
    },
    {
      "constant": true,
      "inputs": [],
      "name": "name",
      "outputs": [
        {
          "internalType": "string",
          "name": "",
          "type": "string"
        }
      ],
      "payable": false,
      "stateMutability": "view",
      "type": "function"
    },
    {
      "constant": true,
      "inputs": [],
      "name": "oneDayInBlocks",
      "outputs": [
        {
          "internalType": "uint256",
          "name": "",
          "type": "uint256"
        }
      ],
      "payable": false,
      "stateMutability": "view",
      "type": "function"
    },
    {
      "constant": true,
      "inputs": [],
      "name": "oneMillion",
      "outputs": [
        {
          "internalType": "uint256",
          "name": "",
          "type": "uint256"
        }
      ],
      "payable": false,
      "stateMutability": "view",
      "type": "function"
    },
    {
      "constant": true,
      "inputs": [],
      "name": "owner",
      "outputs": [
        {
          "internalType": "address payable",
          "name": "",
          "type": "address"
        }
      ],
      "payable": false,
      "stateMutability": "view",
      "type": "function"
    },
    {
      "constant": true,
      "inputs": [],
      "name": "pool",
      "outputs": [
        {
          "internalType": "uint256",
          "name": "",
          "type": "uint256"
        }
      ],
      "payable": false,
      "stateMutability": "view",
      "type": "function"
    },
    {
      "constant": true,
      "inputs": [],
      "name": "provider",
      "outputs": [
        {
          "internalType": "enum yDAI.Lender",
          "name": "",
          "type": "uint8"
        }
      ],
      "payable": false,
      "stateMutability": "view",
      "type": "function"
    },
    {
      "constant": false,
      "inputs": [],
      "name": "renounceOwnership",
      "outputs": [],
      "payable": false,
      "stateMutability": "nonpayable",
      "type": "function"
    },
    {
      "constant": true,
      "inputs": [],
      "name": "retirementYeldTreasury",
      "outputs": [
        {
          "internalType": "address payable",
          "name": "",
          "type": "address"
        }
      ],
      "payable": false,
      "stateMutability": "view",
      "type": "function"
    },
    {
      "constant": true,
      "inputs": [],
      "name": "symbol",
      "outputs": [
        {
          "internalType": "string",
          "name": "",
          "type": "string"
        }
      ],
      "payable": false,
      "stateMutability": "view",
      "type": "function"
    },
    {
      "constant": true,
      "inputs": [],
      "name": "token",
      "outputs": [
        {
          "internalType": "address",
          "name": "",
          "type": "address"
        }
      ],
      "payable": false,
      "stateMutability": "view",
      "type": "function"
    },
    {
      "constant": true,
      "inputs": [],
      "name": "totalSupply",
      "outputs": [
        {
          "internalType": "uint256",
          "name": "",
          "type": "uint256"
        }
      ],
      "payable": false,
      "stateMutability": "view",
      "type": "function"
    },
    {
      "constant": false,
      "inputs": [
        {
          "internalType": "address",
          "name": "recipient",
          "type": "address"
        },
        {
          "internalType": "uint256",
          "name": "amount",
          "type": "uint256"
        }
      ],
      "name": "transfer",
      "outputs": [
        {
          "internalType": "bool",
          "name": "",
          "type": "bool"
        }
      ],
      "payable": false,
      "stateMutability": "nonpayable",
      "type": "function"
    },
    {
      "constant": false,
      "inputs": [
        {
          "internalType": "address",
          "name": "sender",
          "type": "address"
        },
        {
          "internalType": "address",
          "name": "recipient",
          "type": "address"
        },
        {
          "internalType": "uint256",
          "name": "amount",
          "type": "uint256"
        }
      ],
      "name": "transferFrom",
      "outputs": [
        {
          "internalType": "bool",
          "name": "",
          "type": "bool"
        }
      ],
      "payable": false,
      "stateMutability": "nonpayable",
      "type": "function"
    },
    {
      "constant": false,
      "inputs": [
        {
          "internalType": "address payable",
          "name": "newOwner",
          "type": "address"
        }
      ],
      "name": "transferOwnership",
      "outputs": [],
      "payable": false,
      "stateMutability": "nonpayable",
      "type": "function"
    },
    {
      "constant": true,
      "inputs": [],
      "name": "uniswapRouter",
      "outputs": [
        {
          "internalType": "address",
          "name": "",
          "type": "address"
        }
      ],
      "payable": false,
      "stateMutability": "view",
      "type": "function"
    },
    {
      "constant": true,
      "inputs": [],
      "name": "weth",
      "outputs": [
        {
          "internalType": "address",
          "name": "",
          "type": "address"
        }
      ],
      "payable": false,
      "stateMutability": "view",
      "type": "function"
    },
    {
      "constant": true,
      "inputs": [],
      "name": "yeldToRewardPerDay",
      "outputs": [
        {
          "internalType": "uint256",
          "name": "",
          "type": "uint256"
        }
      ],
      "payable": false,
      "stateMutability": "view",
      "type": "function"
    },
    {
      "constant": true,
      "inputs": [],
      "name": "yeldToken",
      "outputs": [
        {
          "internalType": "contract IERC20",
          "name": "",
          "type": "address"
        }
      ],
      "payable": false,
      "stateMutability": "view",
      "type": "function"
    },
    {
      "constant": false,
      "inputs": [
        {
          "internalType": "address payable",
          "name": "_treasury",
          "type": "address"
        }
      ],
      "name": "setRetirementYeldTreasury",
      "outputs": [],
      "payable": false,
      "stateMutability": "nonpayable",
      "type": "function"
    },
    {
      "constant": false,
      "inputs": [
        {
          "internalType": "address",
          "name": "_uniswapRouter",
          "type": "address"
        }
      ],
      "name": "setUniswapRouter",
      "outputs": [],
      "payable": false,
      "stateMutability": "nonpayable",
      "type": "function"
    },
    {
      "constant": false,
      "inputs": [
        {
          "internalType": "address",
          "name": "_yeldToken",
          "type": "address"
        }
      ],
      "name": "setYeldToken",
      "outputs": [],
      "payable": false,
      "stateMutability": "nonpayable",
      "type": "function"
    },
    {
      "constant": false,
      "inputs": [
        {
          "internalType": "address",
          "name": "_token",
          "type": "address"
        },
        {
          "internalType": "uint256",
          "name": "_amount",
          "type": "uint256"
        }
      ],
      "name": "extractTokensIfStuck",
      "outputs": [],
      "payable": false,
      "stateMutability": "nonpayable",
      "type": "function"
    },
    {
      "constant": false,
      "inputs": [],
      "name": "extractETHIfStuck",
      "outputs": [],
      "payable": false,
      "stateMutability": "nonpayable",
      "type": "function"
    },
    {
      "constant": false,
      "inputs": [
        {
          "internalType": "uint256",
          "name": "_amount",
          "type": "uint256"
        }
      ],
      "name": "changeYeldToRewardPerDay",
      "outputs": [],
      "payable": false,
      "stateMutability": "nonpayable",
      "type": "function"
    },
    {
      "constant": true,
      "inputs": [],
      "name": "getGeneratedYelds",
      "outputs": [
        {
          "internalType": "uint256",
          "name": "",
          "type": "uint256"
        }
      ],
      "payable": false,
      "stateMutability": "view",
      "type": "function"
    },
    {
      "constant": false,
      "inputs": [
        {
          "internalType": "uint256",
          "name": "_holdPercentage",
          "type": "uint256"
        }
      ],
      "name": "setHoldPercentage",
      "outputs": [],
      "payable": false,
      "stateMutability": "nonpayable",
      "type": "function"
    },
    {
      "constant": false,
      "inputs": [
        {
          "internalType": "uint256",
          "name": "_amount",
          "type": "uint256"
        }
      ],
      "name": "deposit",
      "outputs": [],
      "payable": false,
      "stateMutability": "nonpayable",
      "type": "function"
    },
    {
      "constant": false,
      "inputs": [
        {
          "internalType": "uint256",
          "name": "_shares",
          "type": "uint256"
        }
      ],
      "name": "withdraw",
      "outputs": [],
      "payable": false,
      "stateMutability": "nonpayable",
      "type": "function"
    },
    {
      "constant": true,
      "inputs": [],
      "name": "recommend",
      "outputs": [
        {
          "internalType": "enum yDAI.Lender",
          "name": "",
          "type": "uint8"
        }
      ],
      "payable": false,
      "stateMutability": "view",
      "type": "function"
    },
    {
      "constant": true,
      "inputs": [],
      "name": "getAave",
      "outputs": [
        {
          "internalType": "address",
          "name": "",
          "type": "address"
        }
      ],
      "payable": false,
      "stateMutability": "view",
      "type": "function"
    },
    {
      "constant": true,
      "inputs": [],
      "name": "getAaveCore",
      "outputs": [
        {
          "internalType": "address",
          "name": "",
          "type": "address"
        }
      ],
      "payable": false,
      "stateMutability": "view",
      "type": "function"
    },
    {
      "constant": false,
      "inputs": [],
      "name": "approveToken",
      "outputs": [],
      "payable": false,
      "stateMutability": "nonpayable",
      "type": "function"
    },
    {
      "constant": true,
      "inputs": [],
      "name": "balance",
      "outputs": [
        {
          "internalType": "uint256",
          "name": "",
          "type": "uint256"
        }
      ],
      "payable": false,
      "stateMutability": "view",
      "type": "function"
    },
    {
      "constant": true,
      "inputs": [],
      "name": "balanceDydxAvailable",
      "outputs": [
        {
          "internalType": "uint256",
          "name": "",
          "type": "uint256"
        }
      ],
      "payable": false,
      "stateMutability": "view",
      "type": "function"
    },
    {
      "constant": true,
      "inputs": [],
      "name": "balanceDydx",
      "outputs": [
        {
          "internalType": "uint256",
          "name": "",
          "type": "uint256"
        }
      ],
      "payable": false,
      "stateMutability": "view",
      "type": "function"
    },
    {
      "constant": true,
      "inputs": [],
      "name": "balanceCompound",
      "outputs": [
        {
          "internalType": "uint256",
          "name": "",
          "type": "uint256"
        }
      ],
      "payable": false,
      "stateMutability": "view",
      "type": "function"
    },
    {
      "constant": true,
      "inputs": [],
      "name": "balanceCompoundInToken",
      "outputs": [
        {
          "internalType": "uint256",
          "name": "",
          "type": "uint256"
        }
      ],
      "payable": false,
      "stateMutability": "view",
      "type": "function"
    },
    {
      "constant": true,
      "inputs": [],
      "name": "balanceFulcrumAvailable",
      "outputs": [
        {
          "internalType": "uint256",
          "name": "",
          "type": "uint256"
        }
      ],
      "payable": false,
      "stateMutability": "view",
      "type": "function"
    },
    {
      "constant": true,
      "inputs": [],
      "name": "balanceFulcrumInToken",
      "outputs": [
        {
          "internalType": "uint256",
          "name": "",
          "type": "uint256"
        }
      ],
      "payable": false,
      "stateMutability": "view",
      "type": "function"
    },
    {
      "constant": true,
      "inputs": [],
      "name": "balanceFulcrum",
      "outputs": [
        {
          "internalType": "uint256",
          "name": "",
          "type": "uint256"
        }
      ],
      "payable": false,
      "stateMutability": "view",
      "type": "function"
    },
    {
      "constant": true,
      "inputs": [],
      "name": "balanceAaveAvailable",
      "outputs": [
        {
          "internalType": "uint256",
          "name": "",
          "type": "uint256"
        }
      ],
      "payable": false,
      "stateMutability": "view",
      "type": "function"
    },
    {
      "constant": true,
      "inputs": [],
      "name": "balanceAave",
      "outputs": [
        {
          "internalType": "uint256",
          "name": "",
          "type": "uint256"
        }
      ],
      "payable": false,
      "stateMutability": "view",
      "type": "function"
    },
    {
      "constant": false,
      "inputs": [],
      "name": "rebalance",
      "outputs": [],
      "payable": false,
      "stateMutability": "nonpayable",
      "type": "function"
    },
    {
      "constant": true,
      "inputs": [],
      "name": "calcPoolValueInToken",
      "outputs": [
        {
          "internalType": "uint256",
          "name": "",
          "type": "uint256"
        }
      ],
      "payable": false,
      "stateMutability": "view",
      "type": "function"
    },
    {
      "constant": true,
      "inputs": [],
      "name": "getPricePerFullShare",
      "outputs": [
        {
          "internalType": "uint256",
          "name": "",
          "type": "uint256"
        }
      ],
      "payable": false,
      "stateMutability": "view",
      "type": "function"
    }
  ],
  "bytecode": "0x60806040819052601380546001600160a01b0319908116737a250d5630b4cf539739df2c5dacb4c659f2488d17909155601480548216736b175474e89094c44da98b954eedeac495271d0f1790556015805490911673c02aaa39b223fe8d0a0e5c4f27ead9083c756cc2179055690a968163f0a57b4000006018556000601b55674563918244f40000601c55601d805460ff1916905562005c6438819003908190833981016040819052620000b4916200038d565b6040805180820182526009815268796561726e2044414960b81b6020808301918252835180850190945260048452637944414960e01b908401528151919291601291620001059160039190620002d8565b5081516200011b906004906020850190620002d8565b506005805460ff191660ff929092169190911790555050600160065562000141620002d3565b600780546001600160a01b0319166001600160a01b0392831617908190556040519116906000907f8be0079c531659141344cd1fd0a4f28419497f9722a3daafe3b4186f6b6457e0908290a3600980546001600160a01b0319908116736b175474e89094c44da98b954eedeac495271d0f1790915560118054821673dd6d648c991f7d47454354f4ef326b04025a48a8179055600f80548216731e0447b19bb6ecfdae1e4ae1694b0c3659614e4e179055600c805482167324a42fd28c976a61df5d00d0599c34c4f90748c8179055600d80548216733dfd23a6c5e8bbcfc9581d2e864a68feb6a076d3179055600b8054821673493c57c4763932315a328269e1adad09653b9081179055600e8054821673fc1e690f61efd961294b3e1ce3313fbd8aa4f85d179055600a80548216735d3a536e4d6dbd6114cc1ead35777bab948e36431790556012805482167306af07097c9eeb7fd685c692751d5c66db49c2151790556003601055601780546001600160a01b0394851690831617905560168054929093169116179055620003f8565b335b90565b828054600181600116156101000203166002900490600052602060002090601f016020900481019282601f106200031b57805160ff19168380011785556200034b565b828001600101855582156200034b579182015b828111156200034b5782518255916020019190600101906200032e565b50620003599291506200035d565b5090565b620002d591905b8082111562000359576000815560010162000364565b80516200038781620003de565b92915050565b60008060408385031215620003a157600080fd5b6000620003af85856200037a565b9250506020620003c2858286016200037a565b9150509250929050565b60006001600160a01b03821662000387565b620003e981620003cc565b8114620003f557600080fd5b50565b61585c80620004086000396000f3fe6080604052600436106104145760003560e01c80638da5cb5b11610228578063cf8ca42611610128578063f29e15a2116100bb578063f5a41dea1161008a578063f7c1ec771161006f578063f7c1ec7714610a8b578063f82ce27d14610aa0578063fc0c546a14610ab557610414565b8063f5a41dea14610a61578063f69e204614610a7657610414565b8063f29e15a2146109f7578063f2fde38b14610a0c578063f34ce4bb14610a2c578063f4b9fa7514610a4c57610414565b8063e26f21bf116100f7578063e26f21bf1461098d578063ebc51160146109ad578063f02fbd4a146109c2578063f2978d98146109e257610414565b8063cf8ca4261461092e578063d54e324414610943578063d9d7858a14610958578063dd62ed3e1461096d57610414565b8063a457c2d7116101bb578063b098fc801161018a578063b69ef8a81161016f578063b69ef8a8146108d9578063b6b55f25146108ee578063bea9849e1461090e57610414565b8063b098fc80146108af578063b69d0456146108c457610414565b8063a457c2d71461083a578063a72879711461085a578063a9059cbb1461086f578063a9a1015a1461088f57610414565b806395d89b41116101f757806395d89b41146107e657806399b71d5c146107fb578063a03e4bc314610810578063a160176d1461082557610414565b80638da5cb5b146107925780638e4ec6ef146107a75780638f32d59b146107bc5780638f9225ca146107d157610414565b8063413e920d1161033357806370a08231116102c657806377c7b8fc116102955780637d7c2a1c1161027a5780637d7c2a1c146107465780637f50d4d81461075b578063819faf7b1461077d57610414565b806377c7b8fc146107115780637b82784c1461072657610414565b806370a08231146106b25780637137ef99146106d2578063715018a6146106e7578063735de9f7146106fc57610414565b806357ded9c91161030257806357ded9c91461065e57806358782c211461067357806361c1ec55146106885780636ff2bf081461069d57610414565b8063413e920d146105f45780634fd96cb6146106095780634fe411291461062957806350f62da71461063e57610414565b806323b872dd116103ab578063313ce5671161037a578063313ce5671461058857806339509351146105aa57806339c0a7e1146105ca5780633fc8cef3146105df57610414565b806323b872dd146105135780632622678c146105335780632e1a7d4d146105485780632eb4520a1461056857610414565b80630eb2a267116103e75780630eb2a267146104b257806316f0115b146104d457806318160ddd146104e9578063202a2735146104fe57610414565b806306a3fe591461041657806306fdde0314610441578063085d488314610463578063095ea7b314610485575b005b34801561042257600080fd5b5061042b610aca565b604051610438919061525a565b60405180910390f35b34801561044d57600080fd5b50610456610ae6565b6040516104389190615379565b34801561046f57600080fd5b50610478610b9b565b604051610438919061534b565b34801561049157600080fd5b506104a56104a03660046146bd565b610ba4565b604051610438919061532f565b3480156104be57600080fd5b506104c7610bc2565b6040516104389190615525565b3480156104e057600080fd5b506104c7610c6e565b3480156104f557600080fd5b506104c7610c74565b34801561050a57600080fd5b506104c7610c7a565b34801561051f57600080fd5b506104a561052e366004614670565b610c80565b34801561053f57600080fd5b5061042b610d28565b34801561055457600080fd5b506104146105633660046147ea565b610d44565b34801561057457600080fd5b50610414610583366004614599565b611382565b34801561059457600080fd5b5061059d611407565b60405161043891906155c2565b3480156105b657600080fd5b506104a56105c53660046146bd565b611410565b3480156105d657600080fd5b506104c7611471565b3480156105eb57600080fd5b5061042b61153e565b34801561060057600080fd5b506104c761155a565b34801561061557600080fd5b50610414610624366004614599565b611561565b34801561063557600080fd5b506104146115e6565b34801561064a57600080fd5b506104c7610659366004614599565b611674565b34801561066a57600080fd5b5061042b611686565b34801561067f57600080fd5b5061042b6116a2565b34801561069457600080fd5b506104c76116be565b3480156106a957600080fd5b506104c7611715565b3480156106be57600080fd5b506104c76106cd366004614599565b6117b5565b3480156106de57600080fd5b506104c76117e1565b3480156106f357600080fd5b50610414611823565b34801561070857600080fd5b5061042b6118d0565b34801561071d57600080fd5b506104c76118ec565b34801561073257600080fd5b506104c7610741366004614599565b61191f565b34801561075257600080fd5b50610414611931565b34801561076757600080fd5b50610770611a4c565b604051610438919061533d565b34801561078957600080fd5b5061042b611a68565b34801561079e57600080fd5b5061042b611a84565b3480156107b357600080fd5b5061042b611aa0565b3480156107c857600080fd5b506104a5611abc565b3480156107dd57600080fd5b506104c7611afc565b3480156107f257600080fd5b50610456611b5a565b34801561080757600080fd5b50610414611bd9565b34801561081c57600080fd5b5061042b611d1c565b34801561083157600080fd5b50610478611d38565b34801561084657600080fd5b506104a56108553660046146bd565b611e8e565b34801561086657600080fd5b506104c7611f09565b34801561087b57600080fd5b506104a561088a3660046146bd565b611fd8565b34801561089b57600080fd5b506104146108aa3660046146bd565b611fec565b3480156108bb57600080fd5b506104c76120d5565b3480156108d057600080fd5b5061042b612133565b3480156108e557600080fd5b506104c761214f565b3480156108fa57600080fd5b506104146109093660046147ea565b6121a6565b34801561091a57600080fd5b50610414610929366004614599565b612487565b34801561093a57600080fd5b506104c761250c565b34801561094f57600080fd5b506104c7612563565b34801561096457600080fd5b506104c76125c1565b34801561097957600080fd5b506104c76109883660046145d5565b6125c7565b34801561099957600080fd5b506104146109a83660046147ea565b6125ff565b3480156109b957600080fd5b506104c7612642565b3480156109ce57600080fd5b506104146109dd3660046147ea565b612648565b3480156109ee57600080fd5b506104c761268b565b348015610a0357600080fd5b506104c7612691565b348015610a1857600080fd5b50610414610a27366004614599565b612697565b348015610a3857600080fd5b506104c7610a4736600461460f565b6126de565b348015610a5857600080fd5b5061042b6128a5565b348015610a6d57600080fd5b506104c76128c1565b348015610a8257600080fd5b5061042b61297a565b348015610a9757600080fd5b5061042b612996565b348015610aac57600080fd5b5061042b612a39565b348015610ac157600080fd5b5061042b612aa4565b600e5473ffffffffffffffffffffffffffffffffffffffff1681565b60038054604080516020601f60027fffffffffffffffffffffffffffffffffffffffffffffffffffffffffffffffff610100600188161502019095169490940493840181900481028201810190925282815260609390929091830182828015610b905780601f10610b6557610100808354040283529160200191610b90565b820191906000526020600020905b815481529060010190602001808311610b7357829003601f168201915b505050505090505b90565b601d5460ff1681565b6000610bb8610bb1612ac0565b8484612ac4565b5060015b92915050565b600b546040517f70a0823100000000000000000000000000000000000000000000000000000000815260009173ffffffffffffffffffffffffffffffffffffffff16906370a0823190610c19903090600401615268565b60206040518083038186803b158015610c3157600080fd5b505afa158015610c45573d6000803e3d6000fd5b505050506040513d601f19601f82011682018060405250610c699190810190614808565b905090565b60085481565b60025490565b601c5481565b6000610c8d848484612bd3565b610d1d84610c99612ac0565b610d18856040518060600160405280602881526020016157cd6028913973ffffffffffffffffffffffffffffffffffffffff8a16600090815260016020526040812090610ce4612ac0565b73ffffffffffffffffffffffffffffffffffffffff168152602081019190915260400160002054919063ffffffff612d5e16565b612ac4565b5060015b9392505050565b60165473ffffffffffffffffffffffffffffffffffffffff1681565b6006805460010190819055610d5833612da4565b15610d98576040517f08c379a0000000000000000000000000000000000000000000000000000000008152600401610d8f9061542a565b60405180910390fd5b60008211610dd2576040517f08c379a0000000000000000000000000000000000000000000000000000000008152600401610d8f9061544a565b6000610ddd336117b5565b905080831115610e19576040517f08c379a0000000000000000000000000000000000000000000000000000000008152600401610d8f9061543a565b610e216117e1565b6008556000610e2e611715565b90506000610e59600254610e4d87600854612daa90919063ffffffff16565b9063ffffffff612dfe16565b604080518082018252601d81527f72656465656d20616d6f756e7420657863656564732062616c616e6365000000602080830191909152336000908152908190529190912054919250610eb49190879063ffffffff612d5e16565b3360009081526020818152604091829020929092558051808201909152601981527f233120546f74616c20737570706c7920737562206572726f720000000000000091810191909152600254610f1191879063ffffffff612d5e16565b60025560405160009033907fddf252ad1be2c89b69c2b068fc378daa952ba7f163c4a11628f55a4df523b3ef90610f49908990615525565b60405180910390a36009546040517f70a0823100000000000000000000000000000000000000000000000000000000815260009173ffffffffffffffffffffffffffffffffffffffff16906370a0823190610fa8903090600401615268565b60206040518083038186803b158015610fc057600080fd5b505afa158015610fd4573d6000803e3d6000fd5b505050506040513d601f19601f82011682018060405250610ff89190810190614808565b9050818110156110565761105461104f826040518060400160405280601a81526020017f233220576974686472617720736f6d6520737562206572726f7200000000000081525085612d5e9092919063ffffffff16565b612e40565b505b600061106983606463ffffffff612dfe16565b336000908152601960209081526040808320439055601a909152902054909150611099908463ffffffff61313716565b336000818152601a6020526040908190209290925560175491517fa9059cbb00000000000000000000000000000000000000000000000000000000815273ffffffffffffffffffffffffffffffffffffffff9092169163a9059cbb91611103918890600401615276565b602060405180830381600087803b15801561111d57600080fd5b505af1158015611131573d6000803e3d6000fd5b505050506040513d601f19601f820116820180604052506111559190810190614722565b50600061116182613179565b6017546040517f70a0823100000000000000000000000000000000000000000000000000000000815291925060009173ffffffffffffffffffffffffffffffffffffffff909116906370a08231906111bd908490600401615268565b60206040518083038186803b1580156111d557600080fd5b505afa1580156111e9573d6000803e3d6000fd5b505050506040513d601f19601f8201168201806040525061120d9190810190614808565b90506018548110156112a55760006112316064610e4d85606263ffffffff612daa16565b905061123c81613355565b5060006112556064610e4d86600263ffffffff612daa16565b60165460405191925073ffffffffffffffffffffffffffffffffffffffff169082156108fc029083906000818181858888f1935050505015801561129d573d6000803e3d6000fd5b5050506112ef565b601654604051839173ffffffffffffffffffffffffffffffffffffffff169082156108fc029083906000818181858888f193505050501580156112ec573d6000803e3d6000fd5b50505b61132933611303878663ffffffff61313716565b60095473ffffffffffffffffffffffffffffffffffffffff16919063ffffffff6134b316565b6113316117e1565b60085561133c611931565b50505050505050600654811461137e576040517f08c379a0000000000000000000000000000000000000000000000000000000008152600401610d8f906154ca565b5050565b61138a611abc565b6113c0576040517f08c379a0000000000000000000000000000000000000000000000000000000008152600401610d8f9061541a565b601680547fffffffffffffffffffffffff00000000000000000000000000000000000000001673ffffffffffffffffffffffffffffffffffffffff92909216919091179055565b60055460ff1690565b6000610bb861141d612ac0565b84610d18856001600061142e612ac0565b73ffffffffffffffffffffffffffffffffffffffff908116825260208083019390935260409182016000908120918c16815292529020549063ffffffff61357016565b600061147b6143ae565b600f546040805180820182523081526000602082015260105491517fc190c2ec00000000000000000000000000000000000000000000000000000000815273ffffffffffffffffffffffffffffffffffffffff9093169263c190c2ec926114e5929160040161550a565b604080518083038186803b1580156114fc57600080fd5b505afa158015611510573d6000803e3d6000fd5b505050506040513d601f19601f8201168201806040525061153491908101906147cc565b6020015191505090565b60155473ffffffffffffffffffffffffffffffffffffffff1681565b620f424081565b611569611abc565b61159f576040517f08c379a0000000000000000000000000000000000000000000000000000000008152600401610d8f9061541a565b601780547fffffffffffffffffffffffff00000000000000000000000000000000000000001673ffffffffffffffffffffffffffffffffffffffff92909216919091179055565b6115ee611abc565b611624576040517f08c379a0000000000000000000000000000000000000000000000000000000008152600401610d8f9061541a565b61162c611a84565b73ffffffffffffffffffffffffffffffffffffffff166108fc479081150290604051600060405180830381858888f19350505050158015611671573d6000803e3d6000fd5b50565b601a6020526000908152604090205481565b60115473ffffffffffffffffffffffffffffffffffffffff1681565b600b5473ffffffffffffffffffffffffffffffffffffffff1681565b600a546040517f70a0823100000000000000000000000000000000000000000000000000000000815260009173ffffffffffffffffffffffffffffffffffffffff16906370a0823190610c19903090600401615268565b33600090815260196020526040812054819015611754573360009081526019602052604090205461174d90439063ffffffff61313716565b905061175e565b6000915050610b98565b601b54336000908152601a602052604081205490916117ae9161196491610e4d9186916117a291670de0b6b3a76400009185918490620f424063ffffffff612dfe16565b9063ffffffff612daa16565b9250505090565b73ffffffffffffffffffffffffffffffffffffffff81166000908152602081905260409020545b919050565b6000610c696117ee61214f565b6118176117f961250c565b611817611804611471565b61181761180f6128c1565b611817611f09565b9063ffffffff61357016565b61182b611abc565b611861576040517f08c379a0000000000000000000000000000000000000000000000000000000008152600401610d8f9061541a565b60075460405160009173ffffffffffffffffffffffffffffffffffffffff16907f8be0079c531659141344cd1fd0a4f28419497f9722a3daafe3b4186f6b6457e0908390a3600780547fffffffffffffffffffffffff0000000000000000000000000000000000000000169055565b60135473ffffffffffffffffffffffffffffffffffffffff1681565b6000806118f76117e1565b60025490915061191990610e4d83670de0b6b3a764000063ffffffff612daa16565b91505090565b60196020526000908152604090205481565b600061193b611d38565b601d5490915060ff16600481111561194f57fe5b81600481111561195b57fe5b14611968576119686135af565b600061197261214f565b1115611a0d57600181600481111561198657fe5b14156119a15761199c61199761214f565b613674565b611a0d565b60048160048111156119af57fe5b14156119c55761199c6119c061214f565b613825565b60028160048111156119d357fe5b14156119e95761199c6119e461214f565b613907565b60038160048111156119f757fe5b1415611a0d57611a0d611a0861214f565b6139e6565b601d80548291907fffffffffffffffffffffffffffffffffffffffffffffffffffffffffffffff00166001836004811115611a4457fe5b021790555050565b60175473ffffffffffffffffffffffffffffffffffffffff1681565b600c5473ffffffffffffffffffffffffffffffffffffffff1681565b60075473ffffffffffffffffffffffffffffffffffffffff1690565b600f5473ffffffffffffffffffffffffffffffffffffffff1681565b60075460009073ffffffffffffffffffffffffffffffffffffffff16611ae0612ac0565b73ffffffffffffffffffffffffffffffffffffffff1614905090565b601254600b546040517f70a0823100000000000000000000000000000000000000000000000000000000815260009273ffffffffffffffffffffffffffffffffffffffff908116926370a0823192610c19929091169060040161525a565b60048054604080516020601f60027fffffffffffffffffffffffffffffffffffffffffffffffffffffffffffffffff610100600188161502019095169490940493840181900481028201810190925282815260609390929091830182828015610b905780601f10610b6557610100808354040283529160200191610b90565b600a54600954611c299173ffffffffffffffffffffffffffffffffffffffff91821691167fffffffffffffffffffffffffffffffffffffffffffffffffffffffffffffffff63ffffffff613a7f16565b600f54600954611c799173ffffffffffffffffffffffffffffffffffffffff91821691167fffffffffffffffffffffffffffffffffffffffffffffffffffffffffffffffff63ffffffff613a7f16565b611cca611c84612a39565b60095473ffffffffffffffffffffffffffffffffffffffff16907fffffffffffffffffffffffffffffffffffffffffffffffffffffffffffffffff63ffffffff613a7f16565b600b54600954611d1a9173ffffffffffffffffffffffffffffffffffffffff91821691167fffffffffffffffffffffffffffffffffffffffffffffffffffffffffffffffff63ffffffff613a7f16565b565b600d5473ffffffffffffffffffffffffffffffffffffffff1681565b6011546009546040517fd88be3c0000000000000000000000000000000000000000000000000000000008152600092839283928392839273ffffffffffffffffffffffffffffffffffffffff9182169263d88be3c092611d9c92169060040161525a565b60006040518083038186803b158015611db457600080fd5b505afa158015611dc8573d6000803e3d6000fd5b505050506040513d6000823e601f3d9081017fffffffffffffffffffffffffffffffffffffffffffffffffffffffffffffffe0168201604052611e0e9190810190614740565b92975090955093509150600090508415611e255750835b80841115611e305750825b80831115611e3b5750815b80821115611e465750805b600081861415611e5857506002611e84565b84821415611e6857506004611e84565b83821415611e7857506003611e84565b82821415611e84575060015b9550505050505090565b6000610bb8611e9b612ac0565b84610d18856040518060600160405280602581526020016157f56025913960016000611ec5612ac0565b73ffffffffffffffffffffffffffffffffffffffff908116825260208083019390935260409182016000908120918d1681529252902054919063ffffffff612d5e16565b600080611f146116be565b90508015610c6957610bbc670de0b6b3a7640000610e4d600a60009054906101000a900473ffffffffffffffffffffffffffffffffffffffff1673ffffffffffffffffffffffffffffffffffffffff1663182df0f56040518163ffffffff1660e01b815260040160206040518083038186803b158015611f9357600080fd5b505afa158015611fa7573d6000803e3d6000fd5b505050506040513d601f19601f82011682018060405250611fcb9190810190614808565b849063ffffffff612daa16565b6000610bb8611fe5612ac0565b8484612bd3565b611ff4611abc565b61202a576040517f08c379a0000000000000000000000000000000000000000000000000000000008152600401610d8f9061541a565b6040517fa9059cbb00000000000000000000000000000000000000000000000000000000815273ffffffffffffffffffffffffffffffffffffffff83169063a9059cbb9061207e9033908590600401615276565b602060405180830381600087803b15801561209857600080fd5b505af11580156120ac573d6000803e3d6000fd5b505050506040513d601f19601f820116820180604052506120d09190810190614722565b505050565b600954600d546040517f70a0823100000000000000000000000000000000000000000000000000000000815260009273ffffffffffffffffffffffffffffffffffffffff908116926370a0823192610c19929091169060040161525a565b60125473ffffffffffffffffffffffffffffffffffffffff1681565b6009546040517f70a0823100000000000000000000000000000000000000000000000000000000815260009173ffffffffffffffffffffffffffffffffffffffff16906370a0823190610c19903090600401615268565b60068054600101908190556121ba33612da4565b156121f1576040517f08c379a0000000000000000000000000000000000000000000000000000000008152600401610d8f9061542a565b6000821161222b576040517f08c379a0000000000000000000000000000000000000000000000000000000008152600401610d8f9061549a565b6017546040517f70a0823100000000000000000000000000000000000000000000000000000000815260009173ffffffffffffffffffffffffffffffffffffffff16906370a0823190612282903390600401615268565b60206040518083038186803b15801561229a57600080fd5b505afa1580156122ae573d6000803e3d6000fd5b505050506040513d601f19601f820116820180604052506122d29190810190614808565b60175460155460145460135493945060009361230d9373ffffffffffffffffffffffffffffffffffffffff90811693811692811691166126de565b9050600061233368056bc75e2d63100000610e4d601c5488612daa90919063ffffffff16565b90506000612347828463ffffffff612dfe16565b905080841015612383576040517f08c379a0000000000000000000000000000000000000000000000000000000008152600401610d8f9061545a565b61238b6117e1565b6008556009546123b99073ffffffffffffffffffffffffffffffffffffffff1633308963ffffffff613b9e16565b336000908152601960209081526040808320439055601a9091529020546123e6908763ffffffff61357016565b336000908152601a602052604081209190915560085461240c575060088690558561242a565b612427600854610e4d6002548a612daa90919063ffffffff16565b90505b6124326117e1565b60085561243f3382613be1565b612447611931565b5050505050600654811461137e576040517f08c379a0000000000000000000000000000000000000000000000000000000008152600401610d8f906154ca565b61248f611abc565b6124c5576040517f08c379a0000000000000000000000000000000000000000000000000000000008152600401610d8f9061541a565b601380547fffffffffffffffffffffffff00000000000000000000000000000000000000001673ffffffffffffffffffffffffffffffffffffffff92909216919091179055565b600e546040517f70a0823100000000000000000000000000000000000000000000000000000000815260009173ffffffffffffffffffffffffffffffffffffffff16906370a0823190610c19903090600401615268565b600954600f546040517f70a0823100000000000000000000000000000000000000000000000000000000815260009273ffffffffffffffffffffffffffffffffffffffff908116926370a0823192610c19929091169060040161525a565b60105481565b73ffffffffffffffffffffffffffffffffffffffff918216600090815260016020908152604080832093909416825291909152205490565b612607611abc565b61263d576040517f08c379a0000000000000000000000000000000000000000000000000000000008152600401610d8f9061541a565b601c55565b601b5481565b612650611abc565b612686576040517f08c379a0000000000000000000000000000000000000000000000000000000008152600401610d8f9061541a565b601b55565b61196481565b60185481565b61269f611abc565b6126d5576040517f08c379a0000000000000000000000000000000000000000000000000000000008152600401610d8f9061541a565b61167181613ce2565b6040805160038082526080820190925260009160609190602082018380388339019050509050858160008151811061271257fe5b602002602001019073ffffffffffffffffffffffffffffffffffffffff16908173ffffffffffffffffffffffffffffffffffffffff1681525050848160018151811061275a57fe5b602002602001019073ffffffffffffffffffffffffffffffffffffffff16908173ffffffffffffffffffffffffffffffffffffffff168152505083816002815181106127a257fe5b73ffffffffffffffffffffffffffffffffffffffff92831660209182029290920101526040517fd06ca61f00000000000000000000000000000000000000000000000000000000815260609185169063d06ca61f9061280f90670de0b6b3a7640000908690600401615359565b60006040518083038186803b15801561282757600080fd5b505afa15801561283b573d6000803e3d6000fd5b505050506040513d6000823e601f3d9081017fffffffffffffffffffffffffffffffffffffffffffffffffffffffffffffffe016820160405261288191908101906146ed565b90508060028151811061289057fe5b6020026020010151925050505b949350505050565b60145473ffffffffffffffffffffffffffffffffffffffff1681565b6000806128cc610bc2565b90508015610c6957600b546040517f06b3efd600000000000000000000000000000000000000000000000000000000815273ffffffffffffffffffffffffffffffffffffffff909116906306b3efd69061292a903090600401615268565b60206040518083038186803b15801561294257600080fd5b505afa158015612956573d6000803e3d6000fd5b505050506040513d601f19601f82011682018060405250610bbc9190810190614808565b600a5473ffffffffffffffffffffffffffffffffffffffff1681565b600c54604080517f0261bf8b000000000000000000000000000000000000000000000000000000008152905160009273ffffffffffffffffffffffffffffffffffffffff1691630261bf8b916004808301926020929190829003018186803b158015612a0157600080fd5b505afa158015612a15573d6000803e3d6000fd5b505050506040513d601f19601f82011682018060405250610c6991908101906145b7565b600c54604080517fed6ff760000000000000000000000000000000000000000000000000000000008152905160009273ffffffffffffffffffffffffffffffffffffffff169163ed6ff760916004808301926020929190829003018186803b158015612a0157600080fd5b60095473ffffffffffffffffffffffffffffffffffffffff1681565b3390565b73ffffffffffffffffffffffffffffffffffffffff8316612b11576040517f08c379a0000000000000000000000000000000000000000000000000000000008152600401610d8f9061548a565b73ffffffffffffffffffffffffffffffffffffffff8216612b5e576040517f08c379a0000000000000000000000000000000000000000000000000000000008152600401610d8f906153ba565b73ffffffffffffffffffffffffffffffffffffffff80841660008181526001602090815260408083209487168084529490915290819020849055517f8c5be1e5ebec7d5bd14f71427d1e84f3dd0314c0f7b2291e5b200ac8c7c3b92590612bc6908590615525565b60405180910390a3505050565b73ffffffffffffffffffffffffffffffffffffffff8316612c20576040517f08c379a0000000000000000000000000000000000000000000000000000000008152600401610d8f9061546a565b73ffffffffffffffffffffffffffffffffffffffff8216612c6d576040517f08c379a0000000000000000000000000000000000000000000000000000000008152600401610d8f9061538a565b612cbd816040518060600160405280602681526020016157a76026913973ffffffffffffffffffffffffffffffffffffffff8616600090815260208190526040902054919063ffffffff612d5e16565b73ffffffffffffffffffffffffffffffffffffffff8085166000908152602081905260408082209390935590841681522054612cff908263ffffffff61357016565b73ffffffffffffffffffffffffffffffffffffffff80841660008181526020819052604090819020939093559151908516907fddf252ad1be2c89b69c2b068fc378daa952ba7f163c4a11628f55a4df523b3ef90612bc6908590615525565b60008184841115612d9c576040517f08c379a0000000000000000000000000000000000000000000000000000000008152600401610d8f9190615379565b505050900390565b3b151590565b600082612db957506000610bbc565b82820282848281612dc657fe5b0414610d21576040517f08c379a0000000000000000000000000000000000000000000000000000000008152600401610d8f906153fa565b6000610d2183836040518060400160405280601a81526020017f536166654d6174683a206469766973696f6e206279207a65726f000000000000815250613dbd565b60008181612e4c6116be565b90508015612f5957612e6d6001612e61611f09565b9063ffffffff61313716565b841115612f4557612e89612e846001612e61611f09565b613e0e565b6009546040517f70a08231000000000000000000000000000000000000000000000000000000008152612f3e9173ffffffffffffffffffffffffffffffffffffffff16906370a0823190612ee1903090600401615268565b60206040518083038186803b158015612ef957600080fd5b505afa158015612f0d573d6000803e3d6000fd5b505050506040513d601f19601f82011682018060405250612f319190810190614808565b839063ffffffff61313716565b9350612f59565b612f4e84613e0e565b6001925050506117dc565b612f61611471565b90508015612ff057612f71612563565b841115612fe757612f88612f83612563565b613e86565b6009546040517f70a08231000000000000000000000000000000000000000000000000000000008152612fe09173ffffffffffffffffffffffffffffffffffffffff16906370a0823190612ee1903090600401615268565b9350612ff0565b612f4e84613e86565b612ff8610bc2565b905080156130a05761300d6001612e61611afc565b841115613097576130216001612e61611afc565b90506130386130336001612e61611afc565b613f9b565b6009546040517f70a082310000000000000000000000000000000000000000000000000000000081526130909173ffffffffffffffffffffffffffffffffffffffff16906370a0823190612ee1903090600401615268565b93506130a0565b612f4e81613f9b565b6130a861250c565b90508015610d1d576130b86120d5565b84111561312e576130cf6130ca6120d5565b614013565b6009546040517f70a082310000000000000000000000000000000000000000000000000000000081526131279173ffffffffffffffffffffffffffffffffffffffff16906370a0823190612ee1903090600401615268565b9350610d1d565b612f4e84614013565b6000610d2183836040518060400160405280601e81526020017f536166654d6174683a207375627472616374696f6e206f766572666c6f770000815250612d5e565b6013546014546000916131ac9173ffffffffffffffffffffffffffffffffffffffff90811691168363ffffffff613a7f16565b6013546014546131dc9173ffffffffffffffffffffffffffffffffffffffff91821691168463ffffffff613a7f16565b60408051600280825260608083018452926020830190803883395050601454825192935073ffffffffffffffffffffffffffffffffffffffff169183915060009061322357fe5b73ffffffffffffffffffffffffffffffffffffffff928316602091820292909201015260155482519116908290600190811061325b57fe5b73ffffffffffffffffffffffffffffffffffffffff9283166020918202929092010152601354606091166318cbafe585600085306132a14261070863ffffffff61357016565b6040518663ffffffff1660e01b81526004016132c195949392919061556f565b600060405180830381600087803b1580156132db57600080fd5b505af11580156132ef573d6000803e3d6000fd5b505050506040513d6000823e601f3d9081017fffffffffffffffffffffffffffffffffffffffffffffffffffffffffffffffe016820160405261333591908101906146ed565b90508060018151811061334457fe5b602002602001015192505050919050565b60408051600280825260608083018452600093909291906020830190803883395050601554825192935073ffffffffffffffffffffffffffffffffffffffff16918391506000906133a257fe5b73ffffffffffffffffffffffffffffffffffffffff92831660209182029290920101526017548251911690829060019081106133da57fe5b73ffffffffffffffffffffffffffffffffffffffff928316602091820292909201015260135460609116637ff36ab585600085816134204261070863ffffffff61357016565b6040518663ffffffff1660e01b815260040161343f9493929190615533565b6000604051808303818588803b15801561345857600080fd5b505af115801561346c573d6000803e3d6000fd5b50505050506040513d6000823e601f3d9081017fffffffffffffffffffffffffffffffffffffffffffffffffffffffffffffffe016820160405261333591908101906146ed565b6040516120d09084907fa9059cbb00000000000000000000000000000000000000000000000000000000906134ee90869086906024016152d4565b604080517fffffffffffffffffffffffffffffffffffffffffffffffffffffffffffffffe08184030181529190526020810180517bffffffffffffffffffffffffffffffffffffffffffffffffffffffff167fffffffff0000000000000000000000000000000000000000000000000000000090931692909217909152614069565b600082820183811015610d21576040517f08c379a0000000000000000000000000000000000000000000000000000000008152600401610d8f906153da565b60006135b96116be565b905080156135d1576135d1612e846001612e61611f09565b6135d9611471565b90508015613604576135e9612563565b8111156135fb576135f8612563565b90505b61360481613e86565b61360c610bc2565b90508015613641576136216001612e61611afc565b811115613638576136356001612e61611afc565b90505b61364181613f9b565b61364961250c565b90508015611671576136596120d5565b81111561366b576136686120d5565b90505b61167181614013565b604080516001808252818301909252606091816020015b6136936143ae565b81526020019060019003908161368b57905050905060405180604001604052803073ffffffffffffffffffffffffffffffffffffffff1681526020016000815250816000815181106136e157fe5b60200260200101819052506136f46143c5565b60408051608081019091526001815260208101600081526020016000815260200184905290506137226143ee565b600081819052506000602082015260408082018390526010546060808401919091523060a0840152815160018082528184019093529091816020015b6137666143ee565b81526020019060019003908161375e579050509050818160008151811061378957fe5b6020908102919091010152600f546040517fa67a6a4500000000000000000000000000000000000000000000000000000000815273ffffffffffffffffffffffffffffffffffffffff9091169063a67a6a45906137ec908790859060040161530a565b600060405180830381600087803b15801561380657600080fd5b505af115801561381a573d6000803e3d6000fd5b505050505050505050565b600b546040517f40c10f1900000000000000000000000000000000000000000000000000000000815260009173ffffffffffffffffffffffffffffffffffffffff16906340c10f199061387e9030908690600401615276565b602060405180830381600087803b15801561389857600080fd5b505af11580156138ac573d6000803e3d6000fd5b505050506040513d601f19601f820116820180604052506138d09190810190614808565b11611671576040517f08c379a0000000000000000000000000000000000000000000000000000000008152600401610d8f906154aa565b600a546040517fa0712d6800000000000000000000000000000000000000000000000000000000815273ffffffffffffffffffffffffffffffffffffffff9091169063a0712d689061395d908490600401615525565b602060405180830381600087803b15801561397757600080fd5b505af115801561398b573d6000803e3d6000fd5b505050506040513d601f19601f820116820180604052506139af9190810190614808565b15611671576040517f08c379a0000000000000000000000000000000000000000000000000000000008152600401610d8f906153ca565b6139ee612996565b6009546040517fd2d0e06600000000000000000000000000000000000000000000000000000000815273ffffffffffffffffffffffffffffffffffffffff9283169263d2d0e06692613a4a9291169085906000906004016152e2565b600060405180830381600087803b158015613a6457600080fd5b505af1158015613a78573d6000803e3d6000fd5b5050505050565b801580613b2d57506040517fdd62ed3e00000000000000000000000000000000000000000000000000000000815273ffffffffffffffffffffffffffffffffffffffff84169063dd62ed3e90613adb9030908690600401615291565b60206040518083038186803b158015613af357600080fd5b505afa158015613b07573d6000803e3d6000fd5b505050506040513d601f19601f82011682018060405250613b2b9190810190614808565b155b613b63576040517f08c379a0000000000000000000000000000000000000000000000000000000008152600401610d8f906154da565b6040516120d09084907f095ea7b300000000000000000000000000000000000000000000000000000000906134ee90869086906024016152d4565b604051613bdb9085907f23b872dd00000000000000000000000000000000000000000000000000000000906134ee908790879087906024016152ac565b50505050565b73ffffffffffffffffffffffffffffffffffffffff8216613c2e576040517f08c379a0000000000000000000000000000000000000000000000000000000008152600401610d8f906154fa565b600254613c41908263ffffffff61357016565b60025573ffffffffffffffffffffffffffffffffffffffff8216600090815260208190526040902054613c7a908263ffffffff61357016565b73ffffffffffffffffffffffffffffffffffffffff83166000818152602081905260408082209390935591519091907fddf252ad1be2c89b69c2b068fc378daa952ba7f163c4a11628f55a4df523b3ef90613cd6908590615525565b60405180910390a35050565b73ffffffffffffffffffffffffffffffffffffffff8116613d2f576040517f08c379a0000000000000000000000000000000000000000000000000000000008152600401610d8f906153aa565b60075460405173ffffffffffffffffffffffffffffffffffffffff8084169216907f8be0079c531659141344cd1fd0a4f28419497f9722a3daafe3b4186f6b6457e090600090a3600780547fffffffffffffffffffffffff00000000000000000000000000000000000000001673ffffffffffffffffffffffffffffffffffffffff92909216919091179055565b60008183613df8576040517f08c379a0000000000000000000000000000000000000000000000000000000008152600401610d8f9190615379565b506000838581613e0457fe5b0495945050505050565b6000613e186116be565b90506000613e24611f09565b905082811015613e60576040517f08c379a0000000000000000000000000000000000000000000000000000000008152600401610d8f9061547a565b6000613e7b600161181784610e4d878963ffffffff612daa16565b9050613bdb816141b6565b604080516001808252818301909252606091816020015b613ea56143ae565b815260200190600190039081613e9d57905050905060405180604001604052803073ffffffffffffffffffffffffffffffffffffffff168152602001600081525081600081518110613ef357fe5b6020026020010181905250613f066143c5565b6040805160808101909152600080825260208201908152602001600081526020018490529050613f346143ee565b600181819052506000602082015260408082018390526010546060808401919091523060a0840152815160018082528184019093529091816020015b613f786143ee565b815260200190600190039081613f70579050509050818160008151811061378957fe5b6000613fa5610bc2565b90506000613fb16128c1565b905082811015613fed576040517f08c379a0000000000000000000000000000000000000000000000000000000008152600401610d8f9061547a565b6000614008600161181784610e4d878963ffffffff612daa16565b9050613bdb81614295565b600e546040517fdb006a7500000000000000000000000000000000000000000000000000000000815273ffffffffffffffffffffffffffffffffffffffff9091169063db006a7590613a4a908490600401615525565b6140888273ffffffffffffffffffffffffffffffffffffffff16614377565b6140be576040517f08c379a0000000000000000000000000000000000000000000000000000000008152600401610d8f906154ea565b600060608373ffffffffffffffffffffffffffffffffffffffff16836040516140e7919061524e565b6000604051808303816000865af19150503d8060008114614124576040519150601f19603f3d011682016040523d82523d6000602084013e614129565b606091505b509150915081614165576040517f08c379a0000000000000000000000000000000000000000000000000000000008152600401610d8f906153ea565b805115613bdb57808060200190516141809190810190614722565b613bdb576040517f08c379a0000000000000000000000000000000000000000000000000000000008152600401610d8f906154ba565b600a546040517fdb006a7500000000000000000000000000000000000000000000000000000000815273ffffffffffffffffffffffffffffffffffffffff9091169063db006a759061420c908490600401615525565b602060405180830381600087803b15801561422657600080fd5b505af115801561423a573d6000803e3d6000fd5b505050506040513d601f19601f8201168201806040525061425e9190810190614808565b15611671576040517f08c379a0000000000000000000000000000000000000000000000000000000008152600401610d8f9061539a565b600b546040517f9dc29fac00000000000000000000000000000000000000000000000000000000815260009173ffffffffffffffffffffffffffffffffffffffff1690639dc29fac906142ee9030908690600401615276565b602060405180830381600087803b15801561430857600080fd5b505af115801561431c573d6000803e3d6000fd5b505050506040513d601f19601f820116820180604052506143409190810190614808565b11611671576040517f08c379a0000000000000000000000000000000000000000000000000000000008152600401610d8f9061540a565b6000813f7fc5d2460186f7233c927e7db2dcc703c0e500b653ca82273b7bfad8045d85a470811580159061289d5750141592915050565b604080518082019091526000808252602082015290565b604080516080810190915260008082526020820190815260200160008152602001600081525090565b60408051610100810182526000808252602082015290810161440e6143c5565b81526020016000815260200160008152602001600073ffffffffffffffffffffffffffffffffffffffff16815260200160008152602001606081525090565b8035610bbc81615780565b8051610bbc81615780565b600082601f83011261447457600080fd5b8151614487614482826155f7565b6155d0565b915081818352602084019350602081019050838560208402820111156144ac57600080fd5b60005b838110156144d857816144c2888261458e565b84525060209283019291909101906001016144af565b5050505092915050565b8051610bbc81615794565b600082601f8301126144fe57600080fd5b815161450c61448282615618565b9150808252602083016020830185838301111561452857600080fd5b61453383828461570e565b50505092915050565b60006040828403121561454e57600080fd5b61455860406155d0565b9050600061456684846144e2565b82525060206145778484830161458e565b60208301525092915050565b8035610bbc8161579d565b8051610bbc8161579d565b6000602082840312156145ab57600080fd5b600061289d848461444d565b6000602082840312156145c957600080fd5b600061289d8484614458565b600080604083850312156145e857600080fd5b60006145f4858561444d565b92505060206146058582860161444d565b9150509250929050565b6000806000806080858703121561462557600080fd5b6000614631878761444d565b94505060206146428782880161444d565b93505060406146538782880161444d565b92505060606146648782880161444d565b91505092959194509250565b60008060006060848603121561468557600080fd5b6000614691868661444d565b93505060206146a28682870161444d565b92505060406146b386828701614583565b9150509250925092565b600080604083850312156146d057600080fd5b60006146dc858561444d565b925050602061460585828601614583565b6000602082840312156146ff57600080fd5b815167ffffffffffffffff81111561471657600080fd5b61289d84828501614463565b60006020828403121561473457600080fd5b600061289d84846144e2565b600080600080600060a0868803121561475857600080fd5b855167ffffffffffffffff81111561476f57600080fd5b61477b888289016144ed565b955050602061478c8882890161458e565b945050604061479d8882890161458e565b93505060606147ae8882890161458e565b92505060806147bf8882890161458e565b9150509295509295909350565b6000604082840312156147de57600080fd5b600061289d848461453c565b6000602082840312156147fc57600080fd5b600061289d8484614583565b60006020828403121561481a57600080fd5b600061289d848461458e565b60006148328383614869565b505060200190565b6000610d218383615127565b6000614852838361521c565b505060400190565b614863816156c5565b82525050565b61486381615671565b600061487d82615664565b6148878185615668565b93506148928361565e565b8060005b838110156148c05781516148aa8882614826565b97506148b58361565e565b925050600101614896565b509495945050505050565b60006148d682615664565b6148e08185615668565b9350836020820285016148f28561565e565b8060005b8581101561492c578484038952815161490f858261483a565b945061491a8361565e565b60209a909a01999250506001016148f6565b5091979650505050505050565b600061494482615664565b61494e8185615668565b93506149598361565e565b8060005b838110156148c05781516149718882614846565b975061497c8361565e565b92505060010161495d565b6148638161567c565b600061499b82615664565b6149a581856117dc565b93506149b581856020860161570e565b9290920192915050565b60006149ca82615664565b6149d48185615668565b93506149e481856020860161570e565b6149ed8161573a565b9093019392505050565b614863816156cc565b614863816156d7565b614863816156e2565b614863816156ed565b614863816156f8565b61486381615703565b6000614a3a602383615668565b7f45524332303a207472616e7366657220746f20746865207a65726f206164647281527f6573730000000000000000000000000000000000000000000000000000000000602082015260400192915050565b6000614a99601983615668565b7f434f4d504f554e443a207769746864726177206661696c656400000000000000815260200192915050565b6000614ad2602683615668565b7f4f776e61626c653a206e6577206f776e657220697320746865207a65726f206181527f6464726573730000000000000000000000000000000000000000000000000000602082015260400192915050565b6000614b31602283615668565b7f45524332303a20617070726f766520746f20746865207a65726f20616464726581527f7373000000000000000000000000000000000000000000000000000000000000602082015260400192915050565b6000614b90601783615668565b7f434f4d504f554e443a20737570706c79206661696c6564000000000000000000815260200192915050565b6000614bc9601b83615668565b7f536166654d6174683a206164646974696f6e206f766572666c6f770000000000815260200192915050565b6000614c02602083615668565b7f5361666545524332303a206c6f772d6c6576656c2063616c6c206661696c6564815260200192915050565b6000614c3b602183615668565b7f536166654d6174683a206d756c7469706c69636174696f6e206f766572666c6f81527f7700000000000000000000000000000000000000000000000000000000000000602082015260400192915050565b6000614c9a601883615668565b7f46554c4352554d3a207769746864726177206661696c65640000000000000000815260200192915050565b6000614cd3602083615668565b7f4f776e61626c653a2063616c6c6572206973206e6f7420746865206f776e6572815260200192915050565b6000614d0c603383615668565b7f436f6e74726163747320617265206e6f7420616c6c6f77656420746f20696e7481527f6572616374207769746820746865206661726d00000000000000000000000000602082015260400192915050565b6000614d6b601483615668565b7f696e73756666696369656e742062616c616e6365000000000000000000000000815260200192915050565b6000614da4601f83615668565b7f7769746864726177206d7573742062652067726561746572207468616e203000815260200192915050565b6000614ddd604583615668565b7f596f75206d75737420686f6c642061203525206f6620796f7572206465706f7381527f697420696e2059454c4420746f6b656e7320746f2062652061626c6520746f2060208201527f7374616b65000000000000000000000000000000000000000000000000000000604082015260600192915050565b6000614e62602583615668565b7f45524332303a207472616e736665722066726f6d20746865207a65726f20616481527f6472657373000000000000000000000000000000000000000000000000000000602082015260400192915050565b6000614ec1601283615668565b7f696e73756666696369656e742066756e64730000000000000000000000000000815260200192915050565b6000614efa602483615668565b7f45524332303a20617070726f76652066726f6d20746865207a65726f2061646481527f7265737300000000000000000000000000000000000000000000000000000000602082015260400192915050565b6000614f59601e83615668565b7f6465706f736974206d7573742062652067726561746572207468616e20300000815260200192915050565b6000614f92601683615668565b7f46554c4352554d3a20737570706c79206661696c656400000000000000000000815260200192915050565b6000614fcb602a83615668565b7f5361666545524332303a204552433230206f7065726174696f6e20646964206e81527f6f74207375636365656400000000000000000000000000000000000000000000602082015260400192915050565b600061502a601f83615668565b7f5265656e7472616e637947756172643a207265656e7472616e742063616c6c00815260200192915050565b6000615063603683615668565b7f5361666545524332303a20617070726f76652066726f6d206e6f6e2d7a65726f81527f20746f206e6f6e2d7a65726f20616c6c6f77616e636500000000000000000000602082015260400192915050565b60006150c2601f83615668565b7f5361666545524332303a2063616c6c20746f206e6f6e2d636f6e747261637400815260200192915050565b60006150fb601f83615668565b7f45524332303a206d696e7420746f20746865207a65726f206164647265737300815260200192915050565b805160009061016084019061513c8582614a00565b50602083015161514f602086018261523c565b50604083015161516260408601826151d2565b50606083015161517560c086018261523c565b50608083015161518860e086018261523c565b5060a083015161519c610100860182614869565b5060c08301516151b061012086018261523c565b5060e08301518482036101408601526151c982826149bf565b95945050505050565b805160808301906151e38482614987565b5060208201516151f66020850182614a09565b5060408201516152096040850182614a09565b506060820151613bdb606085018261523c565b8051604083019061522d8482614869565b506020820151613bdb60208501825b61486381610b98565b614863816156bf565b6000610d218284614990565b60208101610bbc8284614869565b60208101610bbc828461485a565b60408101615284828561485a565b610d21602083018461523c565b6040810161529f8285614869565b610d216020830184614869565b606081016152ba8286614869565b6152c76020830185614869565b61289d604083018461523c565b604081016152848285614869565b606081016152f08286614869565b6152fd602083018561523c565b61289d6040830184614a1b565b6040808252810161531b8185614939565b9050818103602083015261289d81846148cb565b60208101610bbc8284614987565b60208101610bbc82846149f7565b60208101610bbc8284614a12565b604081016153678285614a24565b818103602083015261289d8184614872565b60208082528101610d2181846149bf565b60208082528101610bbc81614a2d565b60208082528101610bbc81614a8c565b60208082528101610bbc81614ac5565b60208082528101610bbc81614b24565b60208082528101610bbc81614b83565b60208082528101610bbc81614bbc565b60208082528101610bbc81614bf5565b60208082528101610bbc81614c2e565b60208082528101610bbc81614c8d565b60208082528101610bbc81614cc6565b60208082528101610bbc81614cff565b60208082528101610bbc81614d5e565b60208082528101610bbc81614d97565b60208082528101610bbc81614dd0565b60208082528101610bbc81614e55565b60208082528101610bbc81614eb4565b60208082528101610bbc81614eed565b60208082528101610bbc81614f4c565b60208082528101610bbc81614f85565b60208082528101610bbc81614fbe565b60208082528101610bbc8161501d565b60208082528101610bbc81615056565b60208082528101610bbc816150b5565b60208082528101610bbc816150ee565b60608101615518828561521c565b610d21604083018461523c565b60208101610bbc828461523c565b60808101615541828761523c565b81810360208301526155538186614872565b9050615562604083018561485a565b6151c9606083018461523c565b60a0810161557d828861523c565b61558a602083018761523c565b818103604083015261559c8186614872565b90506155ab606083018561485a565b6155b8608083018461523c565b9695505050505050565b60208101610bbc8284615245565b60405181810167ffffffffffffffff811182821017156155ef57600080fd5b604052919050565b600067ffffffffffffffff82111561560e57600080fd5b5060209081020190565b600067ffffffffffffffff82111561562f57600080fd5b506020601f919091017fffffffffffffffffffffffffffffffffffffffffffffffffffffffffffffffe0160190565b60200190565b5190565b90815260200190565b6000610bbc826156a6565b151590565b806117dc81615762565b806117dc8161576c565b806117dc81615776565b61ffff1690565b73ffffffffffffffffffffffffffffffffffffffff1690565b60ff1690565b6000610bbc825b6000610bbc82615671565b6000610bbc82615681565b6000610bbc8261568b565b6000610bbc82615695565b6000610bbc8261569f565b6000610bbc82610b98565b60005b83811015615729578181015183820152602001615711565b83811115613bdb5750506000910152565b601f017fffffffffffffffffffffffffffffffffffffffffffffffffffffffffffffffe01690565b6002811061167157fe5b6001811061167157fe5b6005811061167157fe5b61578981615671565b811461167157600080fd5b6157898161567c565b61578981610b9856fe45524332303a207472616e7366657220616d6f756e7420657863656564732062616c616e636545524332303a207472616e7366657220616d6f756e74206578636565647320616c6c6f77616e636545524332303a2064656372656173656420616c6c6f77616e63652062656c6f77207a65726fa365627a7a72315820fa3495e287354a618057d74c4f54828b1a929ea6cc34bb421ada6726667c84276c6578706572696d656e74616cf564736f6c63430005110040",
  "source": "pragma solidity 0.5.17;\npragma experimental ABIEncoderV2;\n\nimport './ContractImports.sol';\nimport './CommonFunctionality.sol';\n\ncontract yDAI is ERC20, ERC20Detailed, ReentrancyGuard, Structs, Ownable, CommonFunctionality {\n  using SafeERC20 for IERC20;\n  using Address for address;\n  using SafeMath for uint256;\n\n  uint256 public pool;\n  address public token;\n  address public compound;\n  address public fulcrum;\n  address public aave;\n  address public aavePool;\n  address public aaveToken;\n  address public dydx;\n  uint256 public dToken;\n  address public apr;\n  address public chai;\n  // Add other tokens if implemented for another stablecoin\n  address public uniswapRouter = 0x7a250d5630B4cF539739dF2C5dAcb4c659F2488D;\n  address public dai = 0x6B175474E89094C44Da98b954EedeAC495271d0F;\n  address public weth = 0xC02aaA39b223FE8D0A0e5C4F27eAD9083C756Cc2;\n  address payable public retirementYeldTreasury;\n  IERC20 public yeldToken;\n  uint256 public maximumTokensToBurn = 50000 * 1e18;\n\n  mapping(address => uint256) public depositBlockStarts;\n  mapping(address => uint256) public depositAmount;\n  uint256 public constant oneDayInBlocks = 6500;\n  uint256 public yeldToRewardPerDay = 0e18; // 100 YELD per day per 1 million stablecoins padded with 18 zeroes to have that flexibility\n  uint256 public constant oneMillion = 1e6;\n  uint256 public holdPercentage = 5e18;\n\n  enum Lender {\n      NONE,\n      DYDX,\n      COMPOUND,\n      AAVE,\n      FULCRUM\n  }\n\n  Lender public provider = Lender.NONE;\n\n  constructor (address _yeldToken, address payable _retirementYeldTreasury) public payable ERC20Detailed(\"yearn DAI\", \"yDAI\", 18) {\n    token = address(0x6B175474E89094C44Da98b954EedeAC495271d0F);\n    apr = address(0xdD6d648C991f7d47454354f4Ef326b04025a48A8);\n    dydx = address(0x1E0447b19BB6EcFdAe1e4AE1694b0C3659614e4e);\n    aave = address(0x24a42fD28C976A61Df5D00D0599C34c4f90748c8);\n    aavePool = address(0x3dfd23A6c5E8BbcFc9581d2E864a68feb6a076d3);\n    fulcrum = address(0x493C57C4763932315A328269E1ADaD09653B9081);\n    aaveToken = address(0xfC1E690f61EFd961294b3e1Ce3313fBD8aa4f85d);\n    compound = address(0x5d3a536E4D6DbD6114cc1Ead35777bAB948E3643);\n    chai = address(0x06AF07097C9Eeb7fD685c692751D5C66dB49c215);\n    dToken = 3;\n    yeldToken = IERC20(_yeldToken);\n    retirementYeldTreasury = _retirementYeldTreasury;\n    // approveToken();\n  }\n\n  // To receive ETH after converting it from DAI\n  function () external payable {}\n\n  function setRetirementYeldTreasury(address payable _treasury) public onlyOwner {\n    retirementYeldTreasury = _treasury;\n  }\n\n  // In case a new uniswap router version is released\n  function setUniswapRouter(address _uniswapRouter) public onlyOwner {\n    uniswapRouter = _uniswapRouter;\n  }\n\n  function setYeldToken(address _yeldToken) public onlyOwner {\n    yeldToken = IERC20(_yeldToken);\n  }\n\n  function extractTokensIfStuck(address _token, uint256 _amount) public onlyOwner {\n    IERC20(_token).transfer(msg.sender, _amount);\n  }\n\n  function extractETHIfStuck() public onlyOwner {\n    owner().transfer(address(this).balance);\n  }\n\n  function changeYeldToRewardPerDay(uint256 _amount) public onlyOwner {\n    yeldToRewardPerDay = _amount;\n  }\n\n  function getGeneratedYelds() public view returns(uint256) {\n    uint256 blocksPassed;\n    if (depositBlockStarts[msg.sender] > 0) {\n      blocksPassed = block.number.sub(depositBlockStarts[msg.sender]);\n    } else {\n      return 0;\n    }\n    uint256 generatedYelds = depositAmount[msg.sender].div(oneMillion).mul(yeldToRewardPerDay).div(1e18).mul(blocksPassed).div(oneDayInBlocks);\n    return generatedYelds;\n  }\n\n  function setHoldPercentage(uint256 _holdPercentage) public onlyOwner {\n    holdPercentage = _holdPercentage;\n  }\n\n  function deposit(uint256 _amount)\n      external\n      nonReentrant\n      noContract\n  {\n    require(_amount > 0, \"deposit must be greater than 0\");\n    uint256 yeldHold = yeldToken.balanceOf(msg.sender);\n    uint256 yeldPriceInDai = getYeldPriceInDai(address(yeldToken), weth, dai, uniswapRouter);\n    uint256 amountPercentage = _amount.mul(holdPercentage).div(1e20);\n    uint256 yeldRequirement = amountPercentage.div(yeldPriceInDai);\n    require(yeldHold >= yeldRequirement, 'You must hold a 5% of your deposit in YELD tokens to be able to stake');\n    pool = calcPoolValueInToken();\n    IERC20(token).safeTransferFrom(msg.sender, address(this), _amount);\n\n    // Yeld\n    depositBlockStarts[msg.sender] = block.number;\n    depositAmount[msg.sender] = depositAmount[msg.sender].add(_amount);\n    // Yeld\n\n    // Calculate pool shares\n    uint256 shares = 0;\n    if (pool == 0) {\n      shares = _amount;\n      pool = _amount;\n    } else {\n      shares = (_amount.mul(_totalSupply)).div(pool);\n    }\n    pool = calcPoolValueInToken();\n    _mint(msg.sender, shares);\n    rebalance();\n  }\n\n  // Converts DAI to ETH and returns how much ETH has been received from Uniswap\n  function daiToETH(uint256 _amount) internal returns(uint256) {\n      IERC20(dai).safeApprove(uniswapRouter, 0);\n      IERC20(dai).safeApprove(uniswapRouter, _amount);\n      address[] memory path = new address[](2);\n      path[0] = dai;\n      path[1] = weth;\n      // swapExactTokensForETH(uint amountIn, uint amountOutMin, address[] calldata path, address to, uint deadline)\n      // 'amounts' is an array where [0] is input DAI amount and [1] is the resulting ETH after the conversion\n      // even tho we've specified the WETH address, we'll receive ETH since that's how it works on uniswap\n      // https://uniswap.org/docs/v2/smart-contracts/router02/#swapexacttokensforeth\n      uint[] memory amounts = IUniswap(uniswapRouter).swapExactTokensForETH(_amount, uint(0), path, address(this), now.add(1800));\n      return amounts[1];\n  }\n\n  // Buys YELD tokens paying in ETH on Uniswap and removes them from circulation\n  // Returns how many YELD tokens have been burned\n  function buyNBurn(uint256 _ethToSwap) internal returns(uint256) {\n    address[] memory path = new address[](2);\n    path[0] = weth;\n    path[1] = address(yeldToken);\n    // Burns the tokens by taking them out of circulation, sending them to the 0x0 address\n    uint[] memory amounts = IUniswap(uniswapRouter).swapExactETHForTokens.value(_ethToSwap)(uint(0), path, address(0), now.add(1800));\n    return amounts[1];\n  }\n\n  // No rebalance implementation for lower fees and faster swaps\n  function withdraw(uint256 _shares)\n      external\n      nonReentrant\n      noContract\n  {\n      require(_shares > 0, \"withdraw must be greater than 0\");\n      uint256 ibalance = balanceOf(msg.sender);\n      require(_shares <= ibalance, \"insufficient balance\");\n      pool = calcPoolValueInToken();\n      // Yeld\n      uint256 generatedYelds = getGeneratedYelds();\n      // Yeld\n      uint256 stablecoinsToWithdraw = (pool.mul(_shares)).div(_totalSupply);\n      _balances[msg.sender] = _balances[msg.sender].sub(_shares, \"redeem amount exceeds balance\");\n      _totalSupply = _totalSupply.sub(_shares, '#1 Total supply sub error');\n      emit Transfer(msg.sender, address(0), _shares);\n      uint256 b = IERC20(token).balanceOf(address(this));\n      if (b < stablecoinsToWithdraw) {\n        _withdrawSome(stablecoinsToWithdraw.sub(b, '#2 Withdraw some sub error'));\n      }\n\n      // Yeld\n      // Take 1% of the amount to withdraw\n      uint256 onePercent = stablecoinsToWithdraw.div(100);\n      depositBlockStarts[msg.sender] = block.number;\n      depositAmount[msg.sender] = depositAmount[msg.sender].sub(stablecoinsToWithdraw);\n      yeldToken.transfer(msg.sender, generatedYelds);\n\n      // Take a portion of the profits for the buy and burn and retirement yeld\n      // Convert half the DAI earned into ETH for the protocol algorithms\n      uint256 stakingProfits = daiToETH(onePercent);\n      uint256 tokensAlreadyBurned = yeldToken.balanceOf(address(0));\n      if (tokensAlreadyBurned < maximumTokensToBurn) {\n        // 98% is the 49% doubled since we already took the 50%\n        uint256 ethToSwap = stakingProfits.mul(98).div(100);\n        // Buy and burn only applies up to 50k tokens burned\n        buyNBurn(ethToSwap);\n        // 1% for the Retirement Yield\n        uint256 retirementYeld = stakingProfits.mul(2).div(100);\n        // Send to the treasury\n        retirementYeldTreasury.transfer(retirementYeld);\n      } else {\n        // If we've reached the maximum burn point, send half the profits to the treasury to reward holders\n        uint256 retirementYeld = stakingProfits;\n        // Send to the treasury\n        retirementYeldTreasury.transfer(retirementYeld);\n      }\n      IERC20(token).safeTransfer(msg.sender, stablecoinsToWithdraw.sub(onePercent));\n      // Yeld\n\n      pool = calcPoolValueInToken();\n      rebalance();\n  }\n\n  function recommend() public view returns (Lender) {\n    (,uint256 capr,uint256 iapr,uint256 aapr,uint256 dapr) = IIEarnManager(apr).recommend(token);\n    uint256 max = 0;\n    if (capr > max) {\n      max = capr;\n    }\n    if (iapr > max) {\n      max = iapr;\n    }\n    if (aapr > max) {\n      max = aapr;\n    }\n    if (dapr > max) {\n      max = dapr;\n    }\n\n    Lender newProvider = Lender.NONE;\n    if (max == capr) {\n      newProvider = Lender.COMPOUND;\n    } else if (max == iapr) {\n      newProvider = Lender.FULCRUM;\n    } else if (max == aapr) {\n      newProvider = Lender.AAVE;\n    } else if (max == dapr) {\n      newProvider = Lender.DYDX;\n    }\n    return newProvider;\n  }\n\n  function getAave() public view returns (address) {\n    return LendingPoolAddressesProvider(aave).getLendingPool();\n  }\n  function getAaveCore() public view returns (address) {\n    return LendingPoolAddressesProvider(aave).getLendingPoolCore();\n  }\n\n  function approveToken() public {\n      IERC20(token).safeApprove(compound, uint(-1));\n      IERC20(token).safeApprove(dydx, uint(-1));\n      IERC20(token).safeApprove(getAaveCore(), uint(-1));\n      IERC20(token).safeApprove(fulcrum, uint(-1));\n  }\n\n  function balance() public view returns (uint256) {\n    return IERC20(token).balanceOf(address(this));\n  }\n  function balanceDydxAvailable() public view returns (uint256) {\n      return IERC20(token).balanceOf(dydx);\n  }\n  function balanceDydx() public view returns (uint256) {\n      Wei memory bal = DyDx(dydx).getAccountWei(Info(address(this), 0), dToken);\n      return bal.value;\n  }\n  function balanceCompound() public view returns (uint256) {\n      return IERC20(compound).balanceOf(address(this));\n  }\n  function balanceCompoundInToken() public view returns (uint256) {\n    // Mantisa 1e18 to decimals\n    uint256 b = balanceCompound();\n    if (b > 0) {\n      b = b.mul(Compound(compound).exchangeRateStored()).div(1e18);\n    }\n    return b;\n  }\n  function balanceFulcrumAvailable() public view returns (uint256) {\n      return IERC20(chai).balanceOf(fulcrum);\n  }\n  function balanceFulcrumInToken() public view returns (uint256) {\n    uint256 b = balanceFulcrum();\n    if (b > 0) {\n      b = Fulcrum(fulcrum).assetBalanceOf(address(this));\n    }\n    return b;\n  }\n  function balanceFulcrum() public view returns (uint256) {\n    return IERC20(fulcrum).balanceOf(address(this));\n  }\n  function balanceAaveAvailable() public view returns (uint256) {\n      return IERC20(token).balanceOf(aavePool);\n  }\n  function balanceAave() public view returns (uint256) {\n    return IERC20(aaveToken).balanceOf(address(this));\n  }\n\n  function rebalance() public {\n    Lender newProvider = recommend();\n\n    if (newProvider != provider) {\n      _withdrawAll();\n    }\n\n    if (balance() > 0) {\n      if (newProvider == Lender.DYDX) {\n        _supplyDydx(balance());\n      } else if (newProvider == Lender.FULCRUM) {\n        _supplyFulcrum(balance());\n      } else if (newProvider == Lender.COMPOUND) {\n        _supplyCompound(balance());\n      } else if (newProvider == Lender.AAVE) {\n        _supplyAave(balance());\n      }\n    }\n\n    provider = newProvider;\n  }\n\n  function _withdrawAll() internal {\n    uint256 amount = balanceCompound();\n    if (amount > 0) {\n      _withdrawSomeCompound(balanceCompoundInToken().sub(1));\n    }\n    amount = balanceDydx();\n    if (amount > 0) {\n      if (amount > balanceDydxAvailable()) {\n        amount = balanceDydxAvailable();\n      }\n      _withdrawDydx(amount);\n    }\n    amount = balanceFulcrum();\n    if (amount > 0) {\n      if (amount > balanceFulcrumAvailable().sub(1)) {\n        amount = balanceFulcrumAvailable().sub(1);\n      }\n      _withdrawSomeFulcrum(amount);\n    }\n    amount = balanceAave();\n    if (amount > 0) {\n      if (amount > balanceAaveAvailable()) {\n        amount = balanceAaveAvailable();\n      }\n      _withdrawAave(amount);\n    }\n  }\n\n  function _withdrawSomeCompound(uint256 _amount) internal {\n    uint256 b = balanceCompound();\n    uint256 bT = balanceCompoundInToken();\n    require(bT >= _amount, \"insufficient funds\");\n    // can have unintentional rounding errors\n    uint256 amount = (b.mul(_amount)).div(bT).add(1);\n    _withdrawCompound(amount);\n  }\n\n  function _withdrawSomeFulcrum(uint256 _amount) internal {\n    uint256 b = balanceFulcrum();\n    uint256 bT = balanceFulcrumInToken();\n    require(bT >= _amount, \"insufficient funds\");\n    // can have unintentional rounding errors\n    uint256 amount = (b.mul(_amount)).div(bT).add(1);\n    _withdrawFulcrum(amount);\n  }\n\n\n  function _withdrawSome(uint256 _amount) internal returns (bool) {\n    uint256 origAmount = _amount;\n\n    uint256 amount = balanceCompound();\n    if (amount > 0) {\n      if (_amount > balanceCompoundInToken().sub(1)) {\n        _withdrawSomeCompound(balanceCompoundInToken().sub(1));\n        _amount = origAmount.sub(IERC20(token).balanceOf(address(this)));\n      } else {\n        _withdrawSomeCompound(_amount);\n        return true;\n      }\n    }\n\n    amount = balanceDydx();\n    if (amount > 0) {\n      if (_amount > balanceDydxAvailable()) {\n        _withdrawDydx(balanceDydxAvailable());\n        _amount = origAmount.sub(IERC20(token).balanceOf(address(this)));\n      } else {\n        _withdrawDydx(_amount);\n        return true;\n      }\n    }\n\n    amount = balanceFulcrum();\n    if (amount > 0) {\n      if (_amount > balanceFulcrumAvailable().sub(1)) {\n        amount = balanceFulcrumAvailable().sub(1);\n        _withdrawSomeFulcrum(balanceFulcrumAvailable().sub(1));\n        _amount = origAmount.sub(IERC20(token).balanceOf(address(this)));\n      } else {\n        _withdrawSomeFulcrum(amount);\n        return true;\n      }\n    }\n\n    amount = balanceAave();\n    if (amount > 0) {\n      if (_amount > balanceAaveAvailable()) {\n        _withdrawAave(balanceAaveAvailable());\n        _amount = origAmount.sub(IERC20(token).balanceOf(address(this)));\n      } else {\n        _withdrawAave(_amount);\n        return true;\n      }\n    }\n\n    return true;\n  }\n\n  function _supplyDydx(uint256 amount) internal {\n      Info[] memory infos = new Info[](1);\n      infos[0] = Info(address(this), 0);\n\n      AssetAmount memory amt = AssetAmount(true, AssetDenomination.Wei, AssetReference.Delta, amount);\n      ActionArgs memory act;\n      act.actionType = ActionType.Deposit;\n      act.accountId = 0;\n      act.amount = amt;\n      act.primaryMarketId = dToken;\n      act.otherAddress = address(this);\n\n      ActionArgs[] memory args = new ActionArgs[](1);\n      args[0] = act;\n\n      DyDx(dydx).operate(infos, args);\n  }\n\n  function _supplyAave(uint amount) internal {\n      Aave(getAave()).deposit(token, amount, 0);\n  }\n  function _supplyFulcrum(uint amount) internal {\n      require(Fulcrum(fulcrum).mint(address(this), amount) > 0, \"FULCRUM: supply failed\");\n  }\n  function _supplyCompound(uint amount) internal {\n      require(Compound(compound).mint(amount) == 0, \"COMPOUND: supply failed\");\n  }\n  function _withdrawAave(uint amount) internal {\n      AToken(aaveToken).redeem(amount);\n  }\n  function _withdrawFulcrum(uint amount) internal {\n      require(Fulcrum(fulcrum).burn(address(this), amount) > 0, \"FULCRUM: withdraw failed\");\n  }\n  function _withdrawCompound(uint amount) internal {\n      require(Compound(compound).redeem(amount) == 0, \"COMPOUND: withdraw failed\");\n  }\n\n  function _withdrawDydx(uint256 amount) internal {\n      Info[] memory infos = new Info[](1);\n      infos[0] = Info(address(this), 0);\n\n      AssetAmount memory amt = AssetAmount(false, AssetDenomination.Wei, AssetReference.Delta, amount);\n      ActionArgs memory act;\n      act.actionType = ActionType.Withdraw;\n      act.accountId = 0;\n      act.amount = amt;\n      act.primaryMarketId = dToken;\n      act.otherAddress = address(this);\n\n      ActionArgs[] memory args = new ActionArgs[](1);\n      args[0] = act;\n\n      DyDx(dydx).operate(infos, args);\n  }\n\n  function calcPoolValueInToken() public view returns (uint) {\n    return balanceCompoundInToken()\n      .add(balanceFulcrumInToken())\n      .add(balanceDydx())\n      .add(balanceAave())\n      .add(balance());\n  }\n\n  function getPricePerFullShare() public view returns (uint) {\n    uint _pool = calcPoolValueInToken();\n    return _pool.mul(1e18).div(_totalSupply);\n  }\n}\n",
  "sourcePath": "C:/Users/merun/Desktop/yeld-contracts/contracts/yDAI.sol",
  "compiler": {
    "name": "solc",
    "version": "0.5.17+commit.d19bba13.Emscripten.clang"
  },
  "schemaVersion": "3.2.2",
  "updatedAt": "2021-01-17T18:34:01.611Z",
  "networkType": "ethereum",
  "devdoc": {
    "methods": {}
  },
  "userdoc": {
    "methods": {}
  }
}