{
  "contractName": "yDAI",
  "abi": [
    {
      "inputs": [
        {
          "internalType": "address",
          "name": "_yeldToken",
          "type": "address"
        },
        {
          "internalType": "address payable",
          "name": "_retirementYeldTreasury",
          "type": "address"
        }
      ],
      "payable": true,
      "stateMutability": "payable",
      "type": "constructor"
    },
    {
      "anonymous": false,
      "inputs": [
        {
          "indexed": true,
          "internalType": "address",
          "name": "owner",
          "type": "address"
        },
        {
          "indexed": true,
          "internalType": "address",
          "name": "spender",
          "type": "address"
        },
        {
          "indexed": false,
          "internalType": "uint256",
          "name": "value",
          "type": "uint256"
        }
      ],
      "name": "Approval",
      "type": "event"
    },
    {
      "anonymous": false,
      "inputs": [
        {
          "indexed": true,
          "internalType": "address",
          "name": "previousOwner",
          "type": "address"
        },
        {
          "indexed": true,
          "internalType": "address",
          "name": "newOwner",
          "type": "address"
        }
      ],
      "name": "OwnershipTransferred",
      "type": "event"
    },
    {
      "anonymous": false,
      "inputs": [
        {
          "indexed": true,
          "internalType": "address",
          "name": "from",
          "type": "address"
        },
        {
          "indexed": true,
          "internalType": "address",
          "name": "to",
          "type": "address"
        },
        {
          "indexed": false,
          "internalType": "uint256",
          "name": "value",
          "type": "uint256"
        }
      ],
      "name": "Transfer",
      "type": "event"
    },
    {
      "payable": true,
      "stateMutability": "payable",
      "type": "fallback"
    },
    {
      "constant": true,
      "inputs": [],
      "name": "aave",
      "outputs": [
        {
          "internalType": "address",
          "name": "",
          "type": "address"
        }
      ],
      "payable": false,
      "stateMutability": "view",
      "type": "function"
    },
    {
      "constant": true,
      "inputs": [],
      "name": "aavePool",
      "outputs": [
        {
          "internalType": "address",
          "name": "",
          "type": "address"
        }
      ],
      "payable": false,
      "stateMutability": "view",
      "type": "function"
    },
    {
      "constant": true,
      "inputs": [],
      "name": "aaveToken",
      "outputs": [
        {
          "internalType": "address",
          "name": "",
          "type": "address"
        }
      ],
      "payable": false,
      "stateMutability": "view",
      "type": "function"
    },
    {
      "constant": true,
      "inputs": [
        {
          "internalType": "address",
          "name": "owner",
          "type": "address"
        },
        {
          "internalType": "address",
          "name": "spender",
          "type": "address"
        }
      ],
      "name": "allowance",
      "outputs": [
        {
          "internalType": "uint256",
          "name": "",
          "type": "uint256"
        }
      ],
      "payable": false,
      "stateMutability": "view",
      "type": "function"
    },
    {
      "constant": false,
      "inputs": [
        {
          "internalType": "address",
          "name": "spender",
          "type": "address"
        },
        {
          "internalType": "uint256",
          "name": "amount",
          "type": "uint256"
        }
      ],
      "name": "approve",
      "outputs": [
        {
          "internalType": "bool",
          "name": "",
          "type": "bool"
        }
      ],
      "payable": false,
      "stateMutability": "nonpayable",
      "type": "function"
    },
    {
      "constant": true,
      "inputs": [],
      "name": "apr",
      "outputs": [
        {
          "internalType": "address",
          "name": "",
          "type": "address"
        }
      ],
      "payable": false,
      "stateMutability": "view",
      "type": "function"
    },
    {
      "constant": true,
      "inputs": [
        {
          "internalType": "address",
          "name": "account",
          "type": "address"
        }
      ],
      "name": "balanceOf",
      "outputs": [
        {
          "internalType": "uint256",
          "name": "",
          "type": "uint256"
        }
      ],
      "payable": false,
      "stateMutability": "view",
      "type": "function"
    },
    {
      "constant": true,
      "inputs": [],
      "name": "chai",
      "outputs": [
        {
          "internalType": "address",
          "name": "",
          "type": "address"
        }
      ],
      "payable": false,
      "stateMutability": "view",
      "type": "function"
    },
    {
      "constant": true,
      "inputs": [],
      "name": "compound",
      "outputs": [
        {
          "internalType": "address",
          "name": "",
          "type": "address"
        }
      ],
      "payable": false,
      "stateMutability": "view",
      "type": "function"
    },
    {
      "constant": true,
      "inputs": [],
      "name": "dToken",
      "outputs": [
        {
          "internalType": "uint256",
          "name": "",
          "type": "uint256"
        }
      ],
      "payable": false,
      "stateMutability": "view",
      "type": "function"
    },
    {
      "constant": true,
      "inputs": [],
      "name": "dai",
      "outputs": [
        {
          "internalType": "address",
          "name": "",
          "type": "address"
        }
      ],
      "payable": false,
      "stateMutability": "view",
      "type": "function"
    },
    {
      "constant": true,
      "inputs": [],
      "name": "decimals",
      "outputs": [
        {
          "internalType": "uint8",
          "name": "",
          "type": "uint8"
        }
      ],
      "payable": false,
      "stateMutability": "view",
      "type": "function"
    },
    {
      "constant": false,
      "inputs": [
        {
          "internalType": "address",
          "name": "spender",
          "type": "address"
        },
        {
          "internalType": "uint256",
          "name": "subtractedValue",
          "type": "uint256"
        }
      ],
      "name": "decreaseAllowance",
      "outputs": [
        {
          "internalType": "bool",
          "name": "",
          "type": "bool"
        }
      ],
      "payable": false,
      "stateMutability": "nonpayable",
      "type": "function"
    },
    {
      "constant": true,
      "inputs": [
        {
          "internalType": "address",
          "name": "",
          "type": "address"
        }
      ],
      "name": "depositBlockStarts",
      "outputs": [
        {
          "internalType": "uint256",
          "name": "",
          "type": "uint256"
        }
      ],
      "payable": false,
      "stateMutability": "view",
      "type": "function"
    },
    {
      "constant": true,
      "inputs": [],
      "name": "dydx",
      "outputs": [
        {
          "internalType": "address",
          "name": "",
          "type": "address"
        }
      ],
      "payable": false,
      "stateMutability": "view",
      "type": "function"
    },
    {
      "constant": true,
      "inputs": [],
      "name": "fulcrum",
      "outputs": [
        {
          "internalType": "address",
          "name": "",
          "type": "address"
        }
      ],
      "payable": false,
      "stateMutability": "view",
      "type": "function"
    },
    {
      "constant": false,
      "inputs": [
        {
          "internalType": "address",
          "name": "spender",
          "type": "address"
        },
        {
          "internalType": "uint256",
          "name": "addedValue",
          "type": "uint256"
        }
      ],
      "name": "increaseAllowance",
      "outputs": [
        {
          "internalType": "bool",
          "name": "",
          "type": "bool"
        }
      ],
      "payable": false,
      "stateMutability": "nonpayable",
      "type": "function"
    },
    {
      "constant": true,
      "inputs": [],
      "name": "isOwner",
      "outputs": [
        {
          "internalType": "bool",
          "name": "",
          "type": "bool"
        }
      ],
      "payable": false,
      "stateMutability": "view",
      "type": "function"
    },
    {
      "constant": true,
      "inputs": [],
      "name": "maximumTokensToBurn",
      "outputs": [
        {
          "internalType": "uint256",
          "name": "",
          "type": "uint256"
        }
      ],
      "payable": false,
      "stateMutability": "view",
      "type": "function"
    },
    {
      "constant": true,
      "inputs": [],
      "name": "name",
      "outputs": [
        {
          "internalType": "string",
          "name": "",
          "type": "string"
        }
      ],
      "payable": false,
      "stateMutability": "view",
      "type": "function"
    },
    {
      "constant": true,
      "inputs": [
        {
          "internalType": "bytes32",
          "name": "",
          "type": "bytes32"
        }
      ],
      "name": "numberOfParticipants",
      "outputs": [
        {
          "internalType": "uint256",
          "name": "",
          "type": "uint256"
        }
      ],
      "payable": false,
      "stateMutability": "view",
      "type": "function"
    },
    {
      "constant": true,
      "inputs": [],
      "name": "oneDayInBlocks",
      "outputs": [
        {
          "internalType": "uint256",
          "name": "",
          "type": "uint256"
        }
      ],
      "payable": false,
      "stateMutability": "view",
      "type": "function"
    },
    {
      "constant": true,
      "inputs": [],
      "name": "oneMillion",
      "outputs": [
        {
          "internalType": "uint256",
          "name": "",
          "type": "uint256"
        }
      ],
      "payable": false,
      "stateMutability": "view",
      "type": "function"
    },
    {
      "constant": true,
      "inputs": [],
      "name": "owner",
      "outputs": [
        {
          "internalType": "address payable",
          "name": "",
          "type": "address"
        }
      ],
      "payable": false,
      "stateMutability": "view",
      "type": "function"
    },
    {
      "constant": true,
      "inputs": [],
      "name": "pool",
      "outputs": [
        {
          "internalType": "uint256",
          "name": "",
          "type": "uint256"
        }
      ],
      "payable": false,
      "stateMutability": "view",
      "type": "function"
    },
    {
      "constant": true,
      "inputs": [],
      "name": "provider",
      "outputs": [
        {
          "internalType": "enum yDAI.Lender",
          "name": "",
          "type": "uint8"
        }
      ],
      "payable": false,
      "stateMutability": "view",
      "type": "function"
    },
    {
      "constant": false,
      "inputs": [],
      "name": "renounceOwnership",
      "outputs": [],
      "payable": false,
      "stateMutability": "nonpayable",
      "type": "function"
    },
    {
      "constant": true,
      "inputs": [],
      "name": "retirementYeldTreasury",
      "outputs": [
        {
          "internalType": "address payable",
          "name": "",
          "type": "address"
        }
      ],
      "payable": false,
      "stateMutability": "view",
      "type": "function"
    },
    {
      "constant": true,
      "inputs": [],
      "name": "symbol",
      "outputs": [
        {
          "internalType": "string",
          "name": "",
          "type": "string"
        }
      ],
      "payable": false,
      "stateMutability": "view",
      "type": "function"
    },
    {
      "constant": true,
      "inputs": [],
      "name": "token",
      "outputs": [
        {
          "internalType": "address",
          "name": "",
          "type": "address"
        }
      ],
      "payable": false,
      "stateMutability": "view",
      "type": "function"
    },
    {
      "constant": true,
      "inputs": [],
      "name": "totalSupply",
      "outputs": [
        {
          "internalType": "uint256",
          "name": "",
          "type": "uint256"
        }
      ],
      "payable": false,
      "stateMutability": "view",
      "type": "function"
    },
    {
      "constant": false,
      "inputs": [
        {
          "internalType": "address",
          "name": "recipient",
          "type": "address"
        },
        {
          "internalType": "uint256",
          "name": "amount",
          "type": "uint256"
        }
      ],
      "name": "transfer",
      "outputs": [
        {
          "internalType": "bool",
          "name": "",
          "type": "bool"
        }
      ],
      "payable": false,
      "stateMutability": "nonpayable",
      "type": "function"
    },
    {
      "constant": false,
      "inputs": [
        {
          "internalType": "address",
          "name": "sender",
          "type": "address"
        },
        {
          "internalType": "address",
          "name": "recipient",
          "type": "address"
        },
        {
          "internalType": "uint256",
          "name": "amount",
          "type": "uint256"
        }
      ],
      "name": "transferFrom",
      "outputs": [
        {
          "internalType": "bool",
          "name": "",
          "type": "bool"
        }
      ],
      "payable": false,
      "stateMutability": "nonpayable",
      "type": "function"
    },
    {
      "constant": false,
      "inputs": [
        {
          "internalType": "address payable",
          "name": "newOwner",
          "type": "address"
        }
      ],
      "name": "transferOwnership",
      "outputs": [],
      "payable": false,
      "stateMutability": "nonpayable",
      "type": "function"
    },
    {
      "constant": true,
      "inputs": [],
      "name": "uniswapRouter",
      "outputs": [
        {
          "internalType": "address",
          "name": "",
          "type": "address"
        }
      ],
      "payable": false,
      "stateMutability": "view",
      "type": "function"
    },
    {
      "constant": true,
      "inputs": [],
      "name": "weth",
      "outputs": [
        {
          "internalType": "address",
          "name": "",
          "type": "address"
        }
      ],
      "payable": false,
      "stateMutability": "view",
      "type": "function"
    },
    {
      "constant": true,
      "inputs": [],
      "name": "yeldToRewardPerDay",
      "outputs": [
        {
          "internalType": "uint256",
          "name": "",
          "type": "uint256"
        }
      ],
      "payable": false,
      "stateMutability": "view",
      "type": "function"
    },
    {
      "constant": true,
      "inputs": [],
      "name": "yeldToken",
      "outputs": [
        {
          "internalType": "contract IERC20",
          "name": "",
          "type": "address"
        }
      ],
      "payable": false,
      "stateMutability": "view",
      "type": "function"
    },
    {
      "constant": false,
      "inputs": [
        {
          "internalType": "address payable",
          "name": "_treasury",
          "type": "address"
        }
      ],
      "name": "setRetirementYeldTreasury",
      "outputs": [],
      "payable": false,
      "stateMutability": "nonpayable",
      "type": "function"
    },
    {
      "constant": false,
      "inputs": [
        {
          "internalType": "address",
          "name": "_uniswapRouter",
          "type": "address"
        }
      ],
      "name": "setUniswapRouter",
      "outputs": [],
      "payable": false,
      "stateMutability": "nonpayable",
      "type": "function"
    },
    {
      "constant": false,
      "inputs": [
        {
          "internalType": "address",
          "name": "_yeldToken",
          "type": "address"
        }
      ],
      "name": "setYeldToken",
      "outputs": [],
      "payable": false,
      "stateMutability": "nonpayable",
      "type": "function"
    },
    {
      "constant": false,
      "inputs": [
        {
          "internalType": "address",
          "name": "_token",
          "type": "address"
        },
        {
          "internalType": "uint256",
          "name": "_amount",
          "type": "uint256"
        }
      ],
      "name": "extractTokensIfStuck",
      "outputs": [],
      "payable": false,
      "stateMutability": "nonpayable",
      "type": "function"
    },
    {
      "constant": false,
      "inputs": [],
      "name": "extractETHIfStuck",
      "outputs": [],
      "payable": false,
      "stateMutability": "nonpayable",
      "type": "function"
    },
    {
      "constant": false,
      "inputs": [
        {
          "internalType": "uint256",
          "name": "_amount",
          "type": "uint256"
        }
      ],
      "name": "changeYeldToRewardPerDay",
      "outputs": [],
      "payable": false,
      "stateMutability": "nonpayable",
      "type": "function"
    },
    {
      "constant": true,
      "inputs": [],
      "name": "getGeneratedYelds",
      "outputs": [
        {
          "internalType": "uint256",
          "name": "",
          "type": "uint256"
        }
      ],
      "payable": false,
      "stateMutability": "view",
      "type": "function"
    },
    {
      "constant": false,
      "inputs": [
        {
          "internalType": "uint256",
          "name": "_amount",
          "type": "uint256"
        }
      ],
      "name": "deposit",
      "outputs": [],
      "payable": false,
      "stateMutability": "nonpayable",
      "type": "function"
    },
    {
      "constant": false,
      "inputs": [
        {
          "internalType": "uint256",
          "name": "_shares",
          "type": "uint256"
        }
      ],
      "name": "withdraw",
      "outputs": [],
      "payable": false,
      "stateMutability": "nonpayable",
      "type": "function"
    },
    {
      "constant": true,
      "inputs": [],
      "name": "recommend",
      "outputs": [
        {
          "internalType": "enum yDAI.Lender",
          "name": "",
          "type": "uint8"
        }
      ],
      "payable": false,
      "stateMutability": "view",
      "type": "function"
    },
    {
      "constant": true,
      "inputs": [],
      "name": "getAave",
      "outputs": [
        {
          "internalType": "address",
          "name": "",
          "type": "address"
        }
      ],
      "payable": false,
      "stateMutability": "view",
      "type": "function"
    },
    {
      "constant": true,
      "inputs": [],
      "name": "getAaveCore",
      "outputs": [
        {
          "internalType": "address",
          "name": "",
          "type": "address"
        }
      ],
      "payable": false,
      "stateMutability": "view",
      "type": "function"
    },
    {
      "constant": false,
      "inputs": [],
      "name": "approveToken",
      "outputs": [],
      "payable": false,
      "stateMutability": "nonpayable",
      "type": "function"
    },
    {
      "constant": true,
      "inputs": [],
      "name": "balance",
      "outputs": [
        {
          "internalType": "uint256",
          "name": "",
          "type": "uint256"
        }
      ],
      "payable": false,
      "stateMutability": "view",
      "type": "function"
    },
    {
      "constant": true,
      "inputs": [],
      "name": "balanceDydxAvailable",
      "outputs": [
        {
          "internalType": "uint256",
          "name": "",
          "type": "uint256"
        }
      ],
      "payable": false,
      "stateMutability": "view",
      "type": "function"
    },
    {
      "constant": true,
      "inputs": [],
      "name": "balanceDydx",
      "outputs": [
        {
          "internalType": "uint256",
          "name": "",
          "type": "uint256"
        }
      ],
      "payable": false,
      "stateMutability": "view",
      "type": "function"
    },
    {
      "constant": true,
      "inputs": [],
      "name": "balanceCompound",
      "outputs": [
        {
          "internalType": "uint256",
          "name": "",
          "type": "uint256"
        }
      ],
      "payable": false,
      "stateMutability": "view",
      "type": "function"
    },
    {
      "constant": true,
      "inputs": [],
      "name": "balanceCompoundInToken",
      "outputs": [
        {
          "internalType": "uint256",
          "name": "",
          "type": "uint256"
        }
      ],
      "payable": false,
      "stateMutability": "view",
      "type": "function"
    },
    {
      "constant": true,
      "inputs": [],
      "name": "balanceFulcrumAvailable",
      "outputs": [
        {
          "internalType": "uint256",
          "name": "",
          "type": "uint256"
        }
      ],
      "payable": false,
      "stateMutability": "view",
      "type": "function"
    },
    {
      "constant": true,
      "inputs": [],
      "name": "balanceFulcrumInToken",
      "outputs": [
        {
          "internalType": "uint256",
          "name": "",
          "type": "uint256"
        }
      ],
      "payable": false,
      "stateMutability": "view",
      "type": "function"
    },
    {
      "constant": true,
      "inputs": [],
      "name": "balanceFulcrum",
      "outputs": [
        {
          "internalType": "uint256",
          "name": "",
          "type": "uint256"
        }
      ],
      "payable": false,
      "stateMutability": "view",
      "type": "function"
    },
    {
      "constant": true,
      "inputs": [],
      "name": "balanceAaveAvailable",
      "outputs": [
        {
          "internalType": "uint256",
          "name": "",
          "type": "uint256"
        }
      ],
      "payable": false,
      "stateMutability": "view",
      "type": "function"
    },
    {
      "constant": true,
      "inputs": [],
      "name": "balanceAave",
      "outputs": [
        {
          "internalType": "uint256",
          "name": "",
          "type": "uint256"
        }
      ],
      "payable": false,
      "stateMutability": "view",
      "type": "function"
    },
    {
      "constant": false,
      "inputs": [],
      "name": "rebalance",
      "outputs": [],
      "payable": false,
      "stateMutability": "nonpayable",
      "type": "function"
    },
    {
      "constant": true,
      "inputs": [],
      "name": "calcPoolValueInToken",
      "outputs": [
        {
          "internalType": "uint256",
          "name": "",
          "type": "uint256"
        }
      ],
      "payable": false,
      "stateMutability": "view",
      "type": "function"
    },
    {
      "constant": true,
      "inputs": [],
      "name": "getPricePerFullShare",
      "outputs": [
        {
          "internalType": "uint256",
          "name": "",
          "type": "uint256"
        }
      ],
      "payable": false,
      "stateMutability": "view",
      "type": "function"
    }
  ],
  "bytecode": "0x60806040819052601380546001600160a01b0319908116737a250d5630b4cf539739df2c5dacb4c659f2488d17909155601480548216736b175474e89094c44da98b954eedeac495271d0f1790556015805490911673c02aaa39b223fe8d0a0e5c4f27ead9083c756cc2179055690a968163f0a57b4000006018556000601b55601c805460ff1916905562005d9c38819003908190833981016040819052620000a8916200077d565b6040805180820182526009815268796561726e2044414960b81b6020808301918252835180850190945260048452637944414960e01b908401528151919291601291620000f991600391906200068d565b5081516200010f9060049060208501906200068d565b506005805460ff191660ff929092169190911790555050600160065562000135620002e1565b600780546001600160a01b0319166001600160a01b0392831617908190556040519116906000907f8be0079c531659141344cd1fd0a4f28419497f9722a3daafe3b4186f6b6457e0908290a3600980546001600160a01b0319908116736b175474e89094c44da98b954eedeac495271d0f1790915560118054821673dd6d648c991f7d47454354f4ef326b04025a48a8179055600f80548216731e0447b19bb6ecfdae1e4ae1694b0c3659614e4e179055600c805482167324a42fd28c976a61df5d00d0599c34c4f90748c8179055600d80548216733dfd23a6c5e8bbcfc9581d2e864a68feb6a076d3179055600b8054821673493c57c4763932315a328269e1adad09653b9081179055600e8054821673fc1e690f61efd961294b3e1ce3313fbd8aa4f85d179055600a80548216735d3a536e4d6dbd6114cc1ead35777bab948e36431790556012805482167306af07097c9eeb7fd685c692751d5c66db49c2151790556003601055601780546001600160a01b03858116918416919091179091556016805491841691909216179055620002d96001600160e01b03620002e616565b505062000a9e565b335b90565b600a5460095462000313916001600160a01b039182169116600019620003a8602090811b6200363617901c565b600f5460095462000340916001600160a01b039182169116600019620003a8602090811b6200363617901c565b62000379620003576001600160e01b03620004c216565b6009546001600160a01b031690600019620003a8602090811b6200363617901c565b600b54600954620003a6916001600160a01b039182169116600019620003a8602090811b6200363617901c565b565b801580620004375750604051636eb1769f60e11b81526001600160a01b0384169063dd62ed3e90620003e1903090869060040162000989565b60206040518083038186803b158015620003fa57600080fd5b505afa1580156200040f573d6000803e3d6000fd5b505050506040513d601f19601f82011682018060405250620004359190810190620007dd565b155b6200045f5760405162461bcd60e51b81526004016200045690620009eb565b60405180910390fd5b604051620004bd90849063095ea7b360e01b90620004849086908690602401620009a8565b60408051808303601f190181529190526020810180516001600160e01b0319939093166001600160e01b03938416179052906200054816565b505050565b600c546040805163076b7fbb60e51b815290516000926001600160a01b03169163ed6ff760916004808301926020929190829003018186803b1580156200050857600080fd5b505afa1580156200051d573d6000803e3d6000fd5b505050506040513d601f19601f820116820180604052506200054391908101906200075c565b905090565b62000567826001600160a01b03166200065060201b62003f2e1760201c565b620005865760405162461bcd60e51b81526004016200045690620009fd565b60006060836001600160a01b031683604051620005a4919062000974565b6000604051808303816000865af19150503d8060008114620005e3576040519150601f19603f3d011682016040523d82523d6000602084013e620005e8565b606091505b5091509150816200060d5760405162461bcd60e51b81526004016200045690620009c7565b8051156200064a57808060200190516200062b9190810190620007bc565b6200064a5760405162461bcd60e51b81526004016200045690620009d9565b50505050565b6000813f7fc5d2460186f7233c927e7db2dcc703c0e500b653ca82273b7bfad8045d85a4708115801590620006855750808214155b949350505050565b828054600181600116156101000203166002900490600052602060002090601f016020900481019282601f10620006d057805160ff191683800117855562000700565b8280016001018555821562000700579182015b8281111562000700578251825591602001919060010190620006e3565b506200070e92915062000712565b5090565b620002e391905b808211156200070e576000815560010162000719565b80516200073c8162000a6e565b92915050565b80516200073c8162000a88565b80516200073c8162000a93565b6000602082840312156200076f57600080fd5b60006200068584846200072f565b600080604083850312156200079157600080fd5b60006200079f85856200072f565b9250506020620007b2858286016200072f565b9150509250929050565b600060208284031215620007cf57600080fd5b600062000685848462000742565b600060208284031215620007f057600080fd5b60006200068584846200074f565b620008098162000a21565b82525050565b60006200081c8262000a0f565b62000828818562000a13565b93506200083a81856020860162000a3f565b9290920192915050565b60006200085360208362000a18565b7f5361666545524332303a206c6f772d6c6576656c2063616c6c206661696c6564815260200192915050565b60006200088e602a8362000a18565b7f5361666545524332303a204552433230206f7065726174696f6e20646964206e8152691bdd081cdd58d8d9595960b21b602082015260400192915050565b6000620008dc60368362000a18565b7f5361666545524332303a20617070726f76652066726f6d206e6f6e2d7a65726f81527f20746f206e6f6e2d7a65726f20616c6c6f77616e636500000000000000000000602082015260400192915050565b60006200093d601f8362000a18565b7f5361666545524332303a2063616c6c20746f206e6f6e2d636f6e747261637400815260200192915050565b6200080981620002e3565b60006200098282846200080f565b9392505050565b60408101620009998285620007fe565b620009826020830184620007fe565b60408101620009b88285620007fe565b62000982602083018462000969565b602080825281016200073c8162000844565b602080825281016200073c816200087f565b602080825281016200073c81620008cd565b602080825281016200073c816200092e565b5190565b919050565b90815260200190565b60006200073c8262000a33565b151590565b6001600160a01b031690565b60005b8381101562000a5c57818101518382015260200162000a42565b838111156200064a5750506000910152565b62000a798162000a21565b811462000a8557600080fd5b50565b62000a798162000a2e565b62000a7981620002e3565b6152ee8062000aae6000396000f3fe6080604052600436106103c35760003560e01c80638da5cb5b116101f2578063bea9849e1161010d578063f29e15a2116100a0578063f69e20461161006f578063f69e2046146109d0578063f7c1ec77146109e5578063f82ce27d146109fa578063fc0c546a14610a0f576103c3565b8063f29e15a214610971578063f2fde38b14610986578063f4b9fa75146109a6578063f5a41dea146109bb576103c3565b8063dd62ed3e116100dc578063dd62ed3e14610907578063ebc5116014610927578063f02fbd4a1461093c578063f2978d981461095c576103c3565b8063bea9849e146108a8578063cf8ca426146108c8578063d54e3244146108dd578063d9d7858a146108f2576103c3565b8063a457c2d711610185578063b098fc8011610154578063b098fc8014610849578063b69d04561461085e578063b69ef8a814610873578063b6b55f2514610888576103c3565b8063a457c2d7146107d4578063a7287971146107f4578063a9059cbb14610809578063a9a1015a14610829576103c3565b806395d89b41116101c157806395d89b411461078057806399b71d5c14610795578063a03e4bc3146107aa578063a160176d146107bf576103c3565b80638da5cb5b1461072c5780638e4ec6ef146107415780638f32d59b146107565780638f9225ca1461076b576103c3565b8063413e920d116102e25780637137ef99116102755780637b82784c116102445780637b82784c146106c05780637d7c2a1c146106e05780637f50d4d8146106f5578063819faf7b14610717576103c3565b80637137ef991461066c578063715018a614610681578063735de9f71461069657806377c7b8fc146106ab576103c3565b806358782c21116102b157806358782c211461060d57806361c1ec55146106225780636ff2bf081461063757806370a082311461064c576103c3565b8063413e920d146105ae5780634fd96cb6146105c35780634fe41129146105e357806357ded9c9146105f8576103c3565b80632622678c1161035a5780633889cab1116103295780633889cab114610544578063395093511461056457806339c0a7e1146105845780633fc8cef314610599576103c3565b80632622678c146104cd5780632e1a7d4d146104e25780632eb4520a14610502578063313ce56714610522576103c3565b80630eb2a267116103965780630eb2a2671461046157806316f0115b1461048357806318160ddd1461049857806323b872dd146104ad576103c3565b806306a3fe59146103c557806306fdde03146103f0578063085d488314610412578063095ea7b314610434575b005b3480156103d157600080fd5b506103da610a24565b6040516103e79190614d27565b60405180910390f35b3480156103fc57600080fd5b50610405610a40565b6040516103e79190614e26565b34801561041e57600080fd5b50610427610af5565b6040516103e79190614e18565b34801561044057600080fd5b5061045461044f366004614218565b610afe565b6040516103e79190614dfc565b34801561046d57600080fd5b50610476610b1c565b6040516103e79190614fc2565b34801561048f57600080fd5b50610476610bc8565b3480156104a457600080fd5b50610476610bce565b3480156104b957600080fd5b506104546104c83660046141cb565b610bd4565b3480156104d957600080fd5b506103da610c7c565b3480156104ee57600080fd5b506103c36104fd36600461429b565b610c98565b34801561050e57600080fd5b506103c361051d366004614155565b6112a6565b34801561052e57600080fd5b5061053761132b565b6040516103e7919061505f565b34801561055057600080fd5b5061047661055f36600461429b565b611334565b34801561057057600080fd5b5061045461057f366004614218565b611346565b34801561059057600080fd5b506104766113a7565b3480156105a557600080fd5b506103da611474565b3480156105ba57600080fd5b50610476611490565b3480156105cf57600080fd5b506103c36105de366004614155565b611497565b3480156105ef57600080fd5b506103c361151c565b34801561060457600080fd5b506103da6115aa565b34801561061957600080fd5b506103da6115c6565b34801561062e57600080fd5b506104766115e2565b34801561064357600080fd5b50610476611639565b34801561065857600080fd5b50610476610667366004614155565b611700565b34801561067857600080fd5b5061047661172c565b34801561068d57600080fd5b506103c361176e565b3480156106a257600080fd5b506103da61181b565b3480156106b757600080fd5b50610476611837565b3480156106cc57600080fd5b506104766106db366004614155565b61186a565b3480156106ec57600080fd5b506103c361187c565b34801561070157600080fd5b5061070a611997565b6040516103e79190614e0a565b34801561072357600080fd5b506103da6119b3565b34801561073857600080fd5b506103da6119cf565b34801561074d57600080fd5b506103da6119eb565b34801561076257600080fd5b50610454611a07565b34801561077757600080fd5b50610476611a47565b34801561078c57600080fd5b50610405611aa5565b3480156107a157600080fd5b506103c3611b24565b3480156107b657600080fd5b506103da611c67565b3480156107cb57600080fd5b50610427611c83565b3480156107e057600080fd5b506104546107ef366004614218565b611dd9565b34801561080057600080fd5b50610476611e54565b34801561081557600080fd5b50610454610824366004614218565b611f23565b34801561083557600080fd5b506103c3610844366004614218565b611f37565b34801561085557600080fd5b50610476612020565b34801561086a57600080fd5b506103da61207e565b34801561087f57600080fd5b5061047661209a565b34801561089457600080fd5b506103c36108a336600461429b565b6120f1565b3480156108b457600080fd5b506103c36108c3366004614155565b612248565b3480156108d457600080fd5b506104766122cd565b3480156108e957600080fd5b50610476612324565b3480156108fe57600080fd5b50610476612382565b34801561091357600080fd5b50610476610922366004614191565b612388565b34801561093357600080fd5b506104766123c0565b34801561094857600080fd5b506103c361095736600461429b565b6123c6565b34801561096857600080fd5b50610476612409565b34801561097d57600080fd5b5061047661240f565b34801561099257600080fd5b506103c36109a1366004614155565b612415565b3480156109b257600080fd5b506103da61245c565b3480156109c757600080fd5b50610476612478565b3480156109dc57600080fd5b506103da612531565b3480156109f157600080fd5b506103da61254d565b348015610a0657600080fd5b506103da6125f0565b348015610a1b57600080fd5b506103da61265b565b600e5473ffffffffffffffffffffffffffffffffffffffff1681565b60038054604080516020601f60027fffffffffffffffffffffffffffffffffffffffffffffffffffffffffffffffff610100600188161502019095169490940493840181900481028201810190925282815260609390929091830182828015610aea5780601f10610abf57610100808354040283529160200191610aea565b820191906000526020600020905b815481529060010190602001808311610acd57829003601f168201915b505050505090505b90565b601c5460ff1681565b6000610b12610b0b612677565b848461267b565b5060015b92915050565b600b546040517f70a0823100000000000000000000000000000000000000000000000000000000815260009173ffffffffffffffffffffffffffffffffffffffff16906370a0823190610b73903090600401614d35565b60206040518083038186803b158015610b8b57600080fd5b505afa158015610b9f573d6000803e3d6000fd5b505050506040513d601f19601f82011682018060405250610bc39190810190614363565b905090565b60085481565b60025490565b6000610be184848461278a565b610c7184610bed612677565b610c6c8560405180606001604052806028815260200161525f6028913973ffffffffffffffffffffffffffffffffffffffff8a16600090815260016020526040812090610c38612677565b73ffffffffffffffffffffffffffffffffffffffff168152602081019190915260400160002054919063ffffffff61291516565b61267b565b5060015b9392505050565b60165473ffffffffffffffffffffffffffffffffffffffff1681565b6006805460010190819055610cac3361295b565b15610cec576040517f08c379a0000000000000000000000000000000000000000000000000000000008152600401610ce390614ed7565b60405180910390fd5b60008211610d26576040517f08c379a0000000000000000000000000000000000000000000000000000000008152600401610ce390614ef7565b6000610d3133611700565b905080831115610d6d576040517f08c379a0000000000000000000000000000000000000000000000000000000008152600401610ce390614ee7565b610d7561172c565b6008556000610d82611639565b90506000610dad600254610da18760085461296190919063ffffffff16565b9063ffffffff6129b516565b604080518082018252601d81527f72656465656d20616d6f756e7420657863656564732062616c616e6365000000602080830191909152336000908152908190529190912054919250610e089190879063ffffffff61291516565b3360009081526020818152604091829020929092558051808201909152601981527f233120546f74616c20737570706c7920737562206572726f720000000000000091810191909152600254610e6591879063ffffffff61291516565b60025560405160009033907fddf252ad1be2c89b69c2b068fc378daa952ba7f163c4a11628f55a4df523b3ef90610e9d908990614fc2565b60405180910390a36009546040517f70a0823100000000000000000000000000000000000000000000000000000000815260009173ffffffffffffffffffffffffffffffffffffffff16906370a0823190610efc903090600401614d35565b60206040518083038186803b158015610f1457600080fd5b505afa158015610f28573d6000803e3d6000fd5b505050506040513d601f19601f82011682018060405250610f4c9190810190614363565b905081811015610faa57610fa8610fa3826040518060400160405280601a81526020017f233220576974686472617720736f6d6520737562206572726f72000000000000815250856129159092919063ffffffff16565b6129f7565b505b6000610fbd83606463ffffffff6129b516565b336000818152601a60205260409081902043905560175490517fa9059cbb00000000000000000000000000000000000000000000000000000000815292935073ffffffffffffffffffffffffffffffffffffffff169163a9059cbb91611027918890600401614d43565b602060405180830381600087803b15801561104157600080fd5b505af1158015611055573d6000803e3d6000fd5b505050506040513d601f19601f82011682018060405250611079919081019061427d565b50600061108582612cee565b6017546040517f70a0823100000000000000000000000000000000000000000000000000000000815291925060009173ffffffffffffffffffffffffffffffffffffffff909116906370a08231906110e1908490600401614d35565b60206040518083038186803b1580156110f957600080fd5b505afa15801561110d573d6000803e3d6000fd5b505050506040513d601f19601f820116820180604052506111319190810190614363565b90506018548110156111c95760006111556064610da185606263ffffffff61296116565b905061116081612eca565b5060006111796064610da186600263ffffffff61296116565b60165460405191925073ffffffffffffffffffffffffffffffffffffffff169082156108fc029083906000818181858888f193505050501580156111c1573d6000803e3d6000fd5b505050611213565b601654604051839173ffffffffffffffffffffffffffffffffffffffff169082156108fc029083906000818181858888f19350505050158015611210573d6000803e3d6000fd5b50505b61124d33611227878663ffffffff61302816565b60095473ffffffffffffffffffffffffffffffffffffffff16919063ffffffff61306a16565b61125561172c565b60085561126061187c565b5050505050505060065481146112a2576040517f08c379a0000000000000000000000000000000000000000000000000000000008152600401610ce390614f67565b5050565b6112ae611a07565b6112e4576040517f08c379a0000000000000000000000000000000000000000000000000000000008152600401610ce390614ec7565b601680547fffffffffffffffffffffffff00000000000000000000000000000000000000001673ffffffffffffffffffffffffffffffffffffffff92909216919091179055565b60055460ff1690565b60196020526000908152604090205481565b6000610b12611353612677565b84610c6c8560016000611364612677565b73ffffffffffffffffffffffffffffffffffffffff908116825260208083019390935260409182016000908120918c16815292529020549063ffffffff61312716565b60006113b1613f6a565b600f546040805180820182523081526000602082015260105491517fc190c2ec00000000000000000000000000000000000000000000000000000000815273ffffffffffffffffffffffffffffffffffffffff9093169263c190c2ec9261141b9291600401614fa7565b604080518083038186803b15801561143257600080fd5b505afa158015611446573d6000803e3d6000fd5b505050506040513d601f19601f8201168201806040525061146a9190810190614345565b6020015191505090565b60155473ffffffffffffffffffffffffffffffffffffffff1681565b620f424081565b61149f611a07565b6114d5576040517f08c379a0000000000000000000000000000000000000000000000000000000008152600401610ce390614ec7565b601780547fffffffffffffffffffffffff00000000000000000000000000000000000000001673ffffffffffffffffffffffffffffffffffffffff92909216919091179055565b611524611a07565b61155a576040517f08c379a0000000000000000000000000000000000000000000000000000000008152600401610ce390614ec7565b6115626119cf565b73ffffffffffffffffffffffffffffffffffffffff166108fc479081150290604051600060405180830381858888f193505050501580156115a7573d6000803e3d6000fd5b50565b60115473ffffffffffffffffffffffffffffffffffffffff1681565b600b5473ffffffffffffffffffffffffffffffffffffffff1681565b600a546040517f70a0823100000000000000000000000000000000000000000000000000000000815260009173ffffffffffffffffffffffffffffffffffffffff16906370a0823190610b73903090600401614d35565b336000908152601a602052604081205481901561167857336000908152601a602052604090205461167190439063ffffffff61302816565b9050611682565b6000915050610af2565b600061168d33611700565b9050600080600254116116a2575060006116c3565b6116c0600254610da1846116b461172c565b9063ffffffff61296116565b90505b60006116f7611964610da1866116b4670de0b6b3a7640000610da1601b546116b4620f42408b6129b590919063ffffffff16565b94505050505090565b73ffffffffffffffffffffffffffffffffffffffff81166000908152602081905260409020545b919050565b6000610bc361173961209a565b6117626117446122cd565b61176261174f6113a7565b61176261175a612478565b611762611e54565b9063ffffffff61312716565b611776611a07565b6117ac576040517f08c379a0000000000000000000000000000000000000000000000000000000008152600401610ce390614ec7565b60075460405160009173ffffffffffffffffffffffffffffffffffffffff16907f8be0079c531659141344cd1fd0a4f28419497f9722a3daafe3b4186f6b6457e0908390a3600780547fffffffffffffffffffffffff0000000000000000000000000000000000000000169055565b60135473ffffffffffffffffffffffffffffffffffffffff1681565b60008061184261172c565b60025490915061186490610da183670de0b6b3a764000063ffffffff61296116565b91505090565b601a6020526000908152604090205481565b6000611886611c83565b601c5490915060ff16600481111561189a57fe5b8160048111156118a657fe5b146118b3576118b3613166565b60006118bd61209a565b11156119585760018160048111156118d157fe5b14156118ec576118e76118e261209a565b61322b565b611958565b60048160048111156118fa57fe5b1415611910576118e761190b61209a565b6133dc565b600281600481111561191e57fe5b1415611934576118e761192f61209a565b6134be565b600381600481111561194257fe5b14156119585761195861195361209a565b61359d565b601c80548291907fffffffffffffffffffffffffffffffffffffffffffffffffffffffffffffff0016600183600481111561198f57fe5b021790555050565b60175473ffffffffffffffffffffffffffffffffffffffff1681565b600c5473ffffffffffffffffffffffffffffffffffffffff1681565b60075473ffffffffffffffffffffffffffffffffffffffff1690565b600f5473ffffffffffffffffffffffffffffffffffffffff1681565b60075460009073ffffffffffffffffffffffffffffffffffffffff16611a2b612677565b73ffffffffffffffffffffffffffffffffffffffff1614905090565b601254600b546040517f70a0823100000000000000000000000000000000000000000000000000000000815260009273ffffffffffffffffffffffffffffffffffffffff908116926370a0823192610b739290911690600401614d27565b60048054604080516020601f60027fffffffffffffffffffffffffffffffffffffffffffffffffffffffffffffffff610100600188161502019095169490940493840181900481028201810190925282815260609390929091830182828015610aea5780601f10610abf57610100808354040283529160200191610aea565b600a54600954611b749173ffffffffffffffffffffffffffffffffffffffff91821691167fffffffffffffffffffffffffffffffffffffffffffffffffffffffffffffffff63ffffffff61363616565b600f54600954611bc49173ffffffffffffffffffffffffffffffffffffffff91821691167fffffffffffffffffffffffffffffffffffffffffffffffffffffffffffffffff63ffffffff61363616565b611c15611bcf6125f0565b60095473ffffffffffffffffffffffffffffffffffffffff16907fffffffffffffffffffffffffffffffffffffffffffffffffffffffffffffffff63ffffffff61363616565b600b54600954611c659173ffffffffffffffffffffffffffffffffffffffff91821691167fffffffffffffffffffffffffffffffffffffffffffffffffffffffffffffffff63ffffffff61363616565b565b600d5473ffffffffffffffffffffffffffffffffffffffff1681565b6011546009546040517fd88be3c0000000000000000000000000000000000000000000000000000000008152600092839283928392839273ffffffffffffffffffffffffffffffffffffffff9182169263d88be3c092611ce7921690600401614d27565b60006040518083038186803b158015611cff57600080fd5b505afa158015611d13573d6000803e3d6000fd5b505050506040513d6000823e601f3d9081017fffffffffffffffffffffffffffffffffffffffffffffffffffffffffffffffe0168201604052611d5991908101906142b9565b92975090955093509150600090508415611d705750835b80841115611d7b5750825b80831115611d865750815b80821115611d915750805b600081861415611da357506002611dcf565b84821415611db357506004611dcf565b83821415611dc357506003611dcf565b82821415611dcf575060015b9550505050505090565b6000610b12611de6612677565b84610c6c856040518060600160405280602581526020016152876025913960016000611e10612677565b73ffffffffffffffffffffffffffffffffffffffff908116825260208083019390935260409182016000908120918d1681529252902054919063ffffffff61291516565b600080611e5f6115e2565b90508015610bc357610b16670de0b6b3a7640000610da1600a60009054906101000a900473ffffffffffffffffffffffffffffffffffffffff1673ffffffffffffffffffffffffffffffffffffffff1663182df0f56040518163ffffffff1660e01b815260040160206040518083038186803b158015611ede57600080fd5b505afa158015611ef2573d6000803e3d6000fd5b505050506040513d601f19601f82011682018060405250611f169190810190614363565b849063ffffffff61296116565b6000610b12611f30612677565b848461278a565b611f3f611a07565b611f75576040517f08c379a0000000000000000000000000000000000000000000000000000000008152600401610ce390614ec7565b6040517fa9059cbb00000000000000000000000000000000000000000000000000000000815273ffffffffffffffffffffffffffffffffffffffff83169063a9059cbb90611fc99033908590600401614d43565b602060405180830381600087803b158015611fe357600080fd5b505af1158015611ff7573d6000803e3d6000fd5b505050506040513d601f19601f8201168201806040525061201b919081019061427d565b505050565b600954600d546040517f70a0823100000000000000000000000000000000000000000000000000000000815260009273ffffffffffffffffffffffffffffffffffffffff908116926370a0823192610b739290911690600401614d27565b60125473ffffffffffffffffffffffffffffffffffffffff1681565b6009546040517f70a0823100000000000000000000000000000000000000000000000000000000815260009173ffffffffffffffffffffffffffffffffffffffff16906370a0823190610b73903090600401614d35565b60068054600101908190556121053361295b565b1561213c576040517f08c379a0000000000000000000000000000000000000000000000000000000008152600401610ce390614ed7565b60008211612176576040517f08c379a0000000000000000000000000000000000000000000000000000000008152600401610ce390614f37565b61217e61172c565b6008556009546121ac9073ffffffffffffffffffffffffffffffffffffffff1633308563ffffffff61375516565b336000908152601a602052604081204390556008546121d157506008829055816121ef565b6121ec600854610da16002548661296190919063ffffffff16565b90505b6121f761172c565b6008556122043382613798565b61220c61187c565b5060065481146112a2576040517f08c379a0000000000000000000000000000000000000000000000000000000008152600401610ce390614f67565b612250611a07565b612286576040517f08c379a0000000000000000000000000000000000000000000000000000000008152600401610ce390614ec7565b601380547fffffffffffffffffffffffff00000000000000000000000000000000000000001673ffffffffffffffffffffffffffffffffffffffff92909216919091179055565b600e546040517f70a0823100000000000000000000000000000000000000000000000000000000815260009173ffffffffffffffffffffffffffffffffffffffff16906370a0823190610b73903090600401614d35565b600954600f546040517f70a0823100000000000000000000000000000000000000000000000000000000815260009273ffffffffffffffffffffffffffffffffffffffff908116926370a0823192610b739290911690600401614d27565b60105481565b73ffffffffffffffffffffffffffffffffffffffff918216600090815260016020908152604080832093909416825291909152205490565b601b5481565b6123ce611a07565b612404576040517f08c379a0000000000000000000000000000000000000000000000000000000008152600401610ce390614ec7565b601b55565b61196481565b60185481565b61241d611a07565b612453576040517f08c379a0000000000000000000000000000000000000000000000000000000008152600401610ce390614ec7565b6115a781613899565b60145473ffffffffffffffffffffffffffffffffffffffff1681565b600080612483610b1c565b90508015610bc357600b546040517f06b3efd600000000000000000000000000000000000000000000000000000000815273ffffffffffffffffffffffffffffffffffffffff909116906306b3efd6906124e1903090600401614d35565b60206040518083038186803b1580156124f957600080fd5b505afa15801561250d573d6000803e3d6000fd5b505050506040513d601f19601f82011682018060405250610b169190810190614363565b600a5473ffffffffffffffffffffffffffffffffffffffff1681565b600c54604080517f0261bf8b000000000000000000000000000000000000000000000000000000008152905160009273ffffffffffffffffffffffffffffffffffffffff1691630261bf8b916004808301926020929190829003018186803b1580156125b857600080fd5b505afa1580156125cc573d6000803e3d6000fd5b505050506040513d601f19601f82011682018060405250610bc39190810190614173565b600c54604080517fed6ff760000000000000000000000000000000000000000000000000000000008152905160009273ffffffffffffffffffffffffffffffffffffffff169163ed6ff760916004808301926020929190829003018186803b1580156125b857600080fd5b60095473ffffffffffffffffffffffffffffffffffffffff1681565b3390565b73ffffffffffffffffffffffffffffffffffffffff83166126c8576040517f08c379a0000000000000000000000000000000000000000000000000000000008152600401610ce390614f27565b73ffffffffffffffffffffffffffffffffffffffff8216612715576040517f08c379a0000000000000000000000000000000000000000000000000000000008152600401610ce390614e67565b73ffffffffffffffffffffffffffffffffffffffff80841660008181526001602090815260408083209487168084529490915290819020849055517f8c5be1e5ebec7d5bd14f71427d1e84f3dd0314c0f7b2291e5b200ac8c7c3b9259061277d908590614fc2565b60405180910390a3505050565b73ffffffffffffffffffffffffffffffffffffffff83166127d7576040517f08c379a0000000000000000000000000000000000000000000000000000000008152600401610ce390614f07565b73ffffffffffffffffffffffffffffffffffffffff8216612824576040517f08c379a0000000000000000000000000000000000000000000000000000000008152600401610ce390614e37565b612874816040518060600160405280602681526020016152396026913973ffffffffffffffffffffffffffffffffffffffff8616600090815260208190526040902054919063ffffffff61291516565b73ffffffffffffffffffffffffffffffffffffffff80851660009081526020819052604080822093909355908416815220546128b6908263ffffffff61312716565b73ffffffffffffffffffffffffffffffffffffffff80841660008181526020819052604090819020939093559151908516907fddf252ad1be2c89b69c2b068fc378daa952ba7f163c4a11628f55a4df523b3ef9061277d908590614fc2565b60008184841115612953576040517f08c379a0000000000000000000000000000000000000000000000000000000008152600401610ce39190614e26565b505050900390565b3b151590565b60008261297057506000610b16565b8282028284828161297d57fe5b0414610c75576040517f08c379a0000000000000000000000000000000000000000000000000000000008152600401610ce390614ea7565b6000610c7583836040518060400160405280601a81526020017f536166654d6174683a206469766973696f6e206279207a65726f000000000000815250613974565b60008181612a036115e2565b90508015612b1057612a246001612a18611e54565b9063ffffffff61302816565b841115612afc57612a40612a3b6001612a18611e54565b6139c5565b6009546040517f70a08231000000000000000000000000000000000000000000000000000000008152612af59173ffffffffffffffffffffffffffffffffffffffff16906370a0823190612a98903090600401614d35565b60206040518083038186803b158015612ab057600080fd5b505afa158015612ac4573d6000803e3d6000fd5b505050506040513d601f19601f82011682018060405250612ae89190810190614363565b839063ffffffff61302816565b9350612b10565b612b05846139c5565b600192505050611727565b612b186113a7565b90508015612ba757612b28612324565b841115612b9e57612b3f612b3a612324565b613a3d565b6009546040517f70a08231000000000000000000000000000000000000000000000000000000008152612b979173ffffffffffffffffffffffffffffffffffffffff16906370a0823190612a98903090600401614d35565b9350612ba7565b612b0584613a3d565b612baf610b1c565b90508015612c5757612bc46001612a18611a47565b841115612c4e57612bd86001612a18611a47565b9050612bef612bea6001612a18611a47565b613b52565b6009546040517f70a08231000000000000000000000000000000000000000000000000000000008152612c479173ffffffffffffffffffffffffffffffffffffffff16906370a0823190612a98903090600401614d35565b9350612c57565b612b0581613b52565b612c5f6122cd565b90508015610c7157612c6f612020565b841115612ce557612c86612c81612020565b613bca565b6009546040517f70a08231000000000000000000000000000000000000000000000000000000008152612cde9173ffffffffffffffffffffffffffffffffffffffff16906370a0823190612a98903090600401614d35565b9350610c71565b612b0584613bca565b601354601454600091612d219173ffffffffffffffffffffffffffffffffffffffff90811691168363ffffffff61363616565b601354601454612d519173ffffffffffffffffffffffffffffffffffffffff91821691168463ffffffff61363616565b60408051600280825260608083018452926020830190803883395050601454825192935073ffffffffffffffffffffffffffffffffffffffff1691839150600090612d9857fe5b73ffffffffffffffffffffffffffffffffffffffff9283166020918202929092010152601554825191169082906001908110612dd057fe5b73ffffffffffffffffffffffffffffffffffffffff9283166020918202929092010152601354606091166318cbafe58560008530612e164261070863ffffffff61312716565b6040518663ffffffff1660e01b8152600401612e3695949392919061500c565b600060405180830381600087803b158015612e5057600080fd5b505af1158015612e64573d6000803e3d6000fd5b505050506040513d6000823e601f3d9081017fffffffffffffffffffffffffffffffffffffffffffffffffffffffffffffffe0168201604052612eaa9190810190614248565b905080600181518110612eb957fe5b602002602001015192505050919050565b60408051600280825260608083018452600093909291906020830190803883395050601554825192935073ffffffffffffffffffffffffffffffffffffffff1691839150600090612f1757fe5b73ffffffffffffffffffffffffffffffffffffffff9283166020918202929092010152601754825191169082906001908110612f4f57fe5b73ffffffffffffffffffffffffffffffffffffffff928316602091820292909201015260135460609116637ff36ab58560008581612f954261070863ffffffff61312716565b6040518663ffffffff1660e01b8152600401612fb49493929190614fd0565b6000604051808303818588803b158015612fcd57600080fd5b505af1158015612fe1573d6000803e3d6000fd5b50505050506040513d6000823e601f3d9081017fffffffffffffffffffffffffffffffffffffffffffffffffffffffffffffffe0168201604052612eaa9190810190614248565b6000610c7583836040518060400160405280601e81526020017f536166654d6174683a207375627472616374696f6e206f766572666c6f770000815250612915565b60405161201b9084907fa9059cbb00000000000000000000000000000000000000000000000000000000906130a59086908690602401614da1565b604080517fffffffffffffffffffffffffffffffffffffffffffffffffffffffffffffffe08184030181529190526020810180517bffffffffffffffffffffffffffffffffffffffffffffffffffffffff167fffffffff0000000000000000000000000000000000000000000000000000000090931692909217909152613c20565b600082820183811015610c75576040517f08c379a0000000000000000000000000000000000000000000000000000000008152600401610ce390614e87565b60006131706115e2565b9050801561318857613188612a3b6001612a18611e54565b6131906113a7565b905080156131bb576131a0612324565b8111156131b2576131af612324565b90505b6131bb81613a3d565b6131c3610b1c565b905080156131f8576131d86001612a18611a47565b8111156131ef576131ec6001612a18611a47565b90505b6131f881613b52565b6132006122cd565b905080156115a757613210612020565b8111156132225761321f612020565b90505b6115a781613bca565b604080516001808252818301909252606091816020015b61324a613f6a565b81526020019060019003908161324257905050905060405180604001604052803073ffffffffffffffffffffffffffffffffffffffff16815260200160008152508160008151811061329857fe5b60200260200101819052506132ab613f81565b60408051608081019091526001815260208101600081526020016000815260200184905290506132d9613faa565b600081819052506000602082015260408082018390526010546060808401919091523060a0840152815160018082528184019093529091816020015b61331d613faa565b815260200190600190039081613315579050509050818160008151811061334057fe5b6020908102919091010152600f546040517fa67a6a4500000000000000000000000000000000000000000000000000000000815273ffffffffffffffffffffffffffffffffffffffff9091169063a67a6a45906133a39087908590600401614dd7565b600060405180830381600087803b1580156133bd57600080fd5b505af11580156133d1573d6000803e3d6000fd5b505050505050505050565b600b546040517f40c10f1900000000000000000000000000000000000000000000000000000000815260009173ffffffffffffffffffffffffffffffffffffffff16906340c10f19906134359030908690600401614d43565b602060405180830381600087803b15801561344f57600080fd5b505af1158015613463573d6000803e3d6000fd5b505050506040513d601f19601f820116820180604052506134879190810190614363565b116115a7576040517f08c379a0000000000000000000000000000000000000000000000000000000008152600401610ce390614f47565b600a546040517fa0712d6800000000000000000000000000000000000000000000000000000000815273ffffffffffffffffffffffffffffffffffffffff9091169063a0712d6890613514908490600401614fc2565b602060405180830381600087803b15801561352e57600080fd5b505af1158015613542573d6000803e3d6000fd5b505050506040513d601f19601f820116820180604052506135669190810190614363565b156115a7576040517f08c379a0000000000000000000000000000000000000000000000000000000008152600401610ce390614e77565b6135a561254d565b6009546040517fd2d0e06600000000000000000000000000000000000000000000000000000000815273ffffffffffffffffffffffffffffffffffffffff9283169263d2d0e06692613601929116908590600090600401614daf565b600060405180830381600087803b15801561361b57600080fd5b505af115801561362f573d6000803e3d6000fd5b5050505050565b8015806136e457506040517fdd62ed3e00000000000000000000000000000000000000000000000000000000815273ffffffffffffffffffffffffffffffffffffffff84169063dd62ed3e906136929030908690600401614d5e565b60206040518083038186803b1580156136aa57600080fd5b505afa1580156136be573d6000803e3d6000fd5b505050506040513d601f19601f820116820180604052506136e29190810190614363565b155b61371a576040517f08c379a0000000000000000000000000000000000000000000000000000000008152600401610ce390614f77565b60405161201b9084907f095ea7b300000000000000000000000000000000000000000000000000000000906130a59086908690602401614da1565b6040516137929085907f23b872dd00000000000000000000000000000000000000000000000000000000906130a590879087908790602401614d79565b50505050565b73ffffffffffffffffffffffffffffffffffffffff82166137e5576040517f08c379a0000000000000000000000000000000000000000000000000000000008152600401610ce390614f97565b6002546137f8908263ffffffff61312716565b60025573ffffffffffffffffffffffffffffffffffffffff8216600090815260208190526040902054613831908263ffffffff61312716565b73ffffffffffffffffffffffffffffffffffffffff83166000818152602081905260408082209390935591519091907fddf252ad1be2c89b69c2b068fc378daa952ba7f163c4a11628f55a4df523b3ef9061388d908590614fc2565b60405180910390a35050565b73ffffffffffffffffffffffffffffffffffffffff81166138e6576040517f08c379a0000000000000000000000000000000000000000000000000000000008152600401610ce390614e57565b60075460405173ffffffffffffffffffffffffffffffffffffffff8084169216907f8be0079c531659141344cd1fd0a4f28419497f9722a3daafe3b4186f6b6457e090600090a3600780547fffffffffffffffffffffffff00000000000000000000000000000000000000001673ffffffffffffffffffffffffffffffffffffffff92909216919091179055565b600081836139af576040517f08c379a0000000000000000000000000000000000000000000000000000000008152600401610ce39190614e26565b5060008385816139bb57fe5b0495945050505050565b60006139cf6115e2565b905060006139db611e54565b905082811015613a17576040517f08c379a0000000000000000000000000000000000000000000000000000000008152600401610ce390614f17565b6000613a32600161176284610da1878963ffffffff61296116565b905061379281613d6d565b604080516001808252818301909252606091816020015b613a5c613f6a565b815260200190600190039081613a5457905050905060405180604001604052803073ffffffffffffffffffffffffffffffffffffffff168152602001600081525081600081518110613aaa57fe5b6020026020010181905250613abd613f81565b6040805160808101909152600080825260208201908152602001600081526020018490529050613aeb613faa565b600181819052506000602082015260408082018390526010546060808401919091523060a0840152815160018082528184019093529091816020015b613b2f613faa565b815260200190600190039081613b27579050509050818160008151811061334057fe5b6000613b5c610b1c565b90506000613b68612478565b905082811015613ba4576040517f08c379a0000000000000000000000000000000000000000000000000000000008152600401610ce390614f17565b6000613bbf600161176284610da1878963ffffffff61296116565b905061379281613e4c565b600e546040517fdb006a7500000000000000000000000000000000000000000000000000000000815273ffffffffffffffffffffffffffffffffffffffff9091169063db006a7590613601908490600401614fc2565b613c3f8273ffffffffffffffffffffffffffffffffffffffff16613f2e565b613c75576040517f08c379a0000000000000000000000000000000000000000000000000000000008152600401610ce390614f87565b600060608373ffffffffffffffffffffffffffffffffffffffff1683604051613c9e9190614d1b565b6000604051808303816000865af19150503d8060008114613cdb576040519150601f19603f3d011682016040523d82523d6000602084013e613ce0565b606091505b509150915081613d1c576040517f08c379a0000000000000000000000000000000000000000000000000000000008152600401610ce390614e97565b8051156137925780806020019051613d37919081019061427d565b613792576040517f08c379a0000000000000000000000000000000000000000000000000000000008152600401610ce390614f57565b600a546040517fdb006a7500000000000000000000000000000000000000000000000000000000815273ffffffffffffffffffffffffffffffffffffffff9091169063db006a7590613dc3908490600401614fc2565b602060405180830381600087803b158015613ddd57600080fd5b505af1158015613df1573d6000803e3d6000fd5b505050506040513d601f19601f82011682018060405250613e159190810190614363565b156115a7576040517f08c379a0000000000000000000000000000000000000000000000000000000008152600401610ce390614e47565b600b546040517f9dc29fac00000000000000000000000000000000000000000000000000000000815260009173ffffffffffffffffffffffffffffffffffffffff1690639dc29fac90613ea59030908690600401614d43565b602060405180830381600087803b158015613ebf57600080fd5b505af1158015613ed3573d6000803e3d6000fd5b505050506040513d601f19601f82011682018060405250613ef79190810190614363565b116115a7576040517f08c379a0000000000000000000000000000000000000000000000000000000008152600401610ce390614eb7565b6000813f7fc5d2460186f7233c927e7db2dcc703c0e500b653ca82273b7bfad8045d85a4708115801590613f625750808214155b949350505050565b604080518082019091526000808252602082015290565b604080516080810190915260008082526020820190815260200160008152602001600081525090565b604080516101008101825260008082526020820152908101613fca613f81565b81526020016000815260200160008152602001600073ffffffffffffffffffffffffffffffffffffffff16815260200160008152602001606081525090565b8035610b1681615212565b8051610b1681615212565b600082601f83011261403057600080fd5b815161404361403e82615094565b61506d565b9150818183526020840193506020810190508385602084028201111561406857600080fd5b60005b83811015614094578161407e888261414a565b845250602092830192919091019060010161406b565b5050505092915050565b8051610b1681615226565b8035610b168161522f565b600082601f8301126140c557600080fd5b81516140d361403e826150b5565b915080825260208301602083018583830111156140ef57600080fd5b6140fa8382846151a0565b50505092915050565b60006040828403121561411557600080fd5b61411f604061506d565b9050600061412d848461409e565b825250602061413e8484830161414a565b60208301525092915050565b8051610b168161522f565b60006020828403121561416757600080fd5b6000613f628484614009565b60006020828403121561418557600080fd5b6000613f628484614014565b600080604083850312156141a457600080fd5b60006141b08585614009565b92505060206141c185828601614009565b9150509250929050565b6000806000606084860312156141e057600080fd5b60006141ec8686614009565b93505060206141fd86828701614009565b925050604061420e868287016140a9565b9150509250925092565b6000806040838503121561422b57600080fd5b60006142378585614009565b92505060206141c1858286016140a9565b60006020828403121561425a57600080fd5b815167ffffffffffffffff81111561427157600080fd5b613f628482850161401f565b60006020828403121561428f57600080fd5b6000613f62848461409e565b6000602082840312156142ad57600080fd5b6000613f6284846140a9565b600080600080600060a086880312156142d157600080fd5b855167ffffffffffffffff8111156142e857600080fd5b6142f4888289016140b4565b95505060206143058882890161414a565b94505060406143168882890161414a565b93505060606143278882890161414a565b92505060806143388882890161414a565b9150509295509295909350565b60006040828403121561435757600080fd5b6000613f628484614103565b60006020828403121561437557600080fd5b6000613f62848461414a565b600061438d83836143c4565b505060200190565b6000610c758383614bf4565b60006143ad8383614ce9565b505060400190565b6143be81615162565b82525050565b6143be8161510e565b60006143d882615101565b6143e28185615105565b93506143ed836150fb565b8060005b8381101561441b5781516144058882614381565b9750614410836150fb565b9250506001016143f1565b509495945050505050565b600061443182615101565b61443b8185615105565b93508360208202850161444d856150fb565b8060005b85811015614487578484038952815161446a8582614395565b9450614475836150fb565b60209a909a0199925050600101614451565b5091979650505050505050565b600061449f82615101565b6144a98185615105565b93506144b4836150fb565b8060005b8381101561441b5781516144cc88826143a1565b97506144d7836150fb565b9250506001016144b8565b6143be81615119565b60006144f682615101565b6145008185611727565b93506145108185602086016151a0565b9290920192915050565b600061452582615101565b61452f8185615105565b935061453f8185602086016151a0565b614548816151cc565b9093019392505050565b6143be81615169565b6143be81615174565b6143be8161517f565b6143be8161518a565b6143be81615195565b600061458c602383615105565b7f45524332303a207472616e7366657220746f20746865207a65726f206164647281527f6573730000000000000000000000000000000000000000000000000000000000602082015260400192915050565b60006145eb601983615105565b7f434f4d504f554e443a207769746864726177206661696c656400000000000000815260200192915050565b6000614624602683615105565b7f4f776e61626c653a206e6577206f776e657220697320746865207a65726f206181527f6464726573730000000000000000000000000000000000000000000000000000602082015260400192915050565b6000614683602283615105565b7f45524332303a20617070726f766520746f20746865207a65726f20616464726581527f7373000000000000000000000000000000000000000000000000000000000000602082015260400192915050565b60006146e2601783615105565b7f434f4d504f554e443a20737570706c79206661696c6564000000000000000000815260200192915050565b600061471b601b83615105565b7f536166654d6174683a206164646974696f6e206f766572666c6f770000000000815260200192915050565b6000614754602083615105565b7f5361666545524332303a206c6f772d6c6576656c2063616c6c206661696c6564815260200192915050565b600061478d602183615105565b7f536166654d6174683a206d756c7469706c69636174696f6e206f766572666c6f81527f7700000000000000000000000000000000000000000000000000000000000000602082015260400192915050565b60006147ec601883615105565b7f46554c4352554d3a207769746864726177206661696c65640000000000000000815260200192915050565b6000614825602083615105565b7f4f776e61626c653a2063616c6c6572206973206e6f7420746865206f776e6572815260200192915050565b600061485e603383615105565b7f436f6e74726163747320617265206e6f7420616c6c6f77656420746f20696e7481527f6572616374207769746820746865206661726d00000000000000000000000000602082015260400192915050565b60006148bd601483615105565b7f696e73756666696369656e742062616c616e6365000000000000000000000000815260200192915050565b60006148f6601f83615105565b7f7769746864726177206d7573742062652067726561746572207468616e203000815260200192915050565b600061492f602583615105565b7f45524332303a207472616e736665722066726f6d20746865207a65726f20616481527f6472657373000000000000000000000000000000000000000000000000000000602082015260400192915050565b600061498e601283615105565b7f696e73756666696369656e742066756e64730000000000000000000000000000815260200192915050565b60006149c7602483615105565b7f45524332303a20617070726f76652066726f6d20746865207a65726f2061646481527f7265737300000000000000000000000000000000000000000000000000000000602082015260400192915050565b6000614a26601e83615105565b7f6465706f736974206d7573742062652067726561746572207468616e20300000815260200192915050565b6000614a5f601683615105565b7f46554c4352554d3a20737570706c79206661696c656400000000000000000000815260200192915050565b6000614a98602a83615105565b7f5361666545524332303a204552433230206f7065726174696f6e20646964206e81527f6f74207375636365656400000000000000000000000000000000000000000000602082015260400192915050565b6000614af7601f83615105565b7f5265656e7472616e637947756172643a207265656e7472616e742063616c6c00815260200192915050565b6000614b30603683615105565b7f5361666545524332303a20617070726f76652066726f6d206e6f6e2d7a65726f81527f20746f206e6f6e2d7a65726f20616c6c6f77616e636500000000000000000000602082015260400192915050565b6000614b8f601f83615105565b7f5361666545524332303a2063616c6c20746f206e6f6e2d636f6e747261637400815260200192915050565b6000614bc8601f83615105565b7f45524332303a206d696e7420746f20746865207a65726f206164647265737300815260200192915050565b8051600090610160840190614c09858261455b565b506020830151614c1c6020860182614d09565b506040830151614c2f6040860182614c9f565b506060830151614c4260c0860182614d09565b506080830151614c5560e0860182614d09565b5060a0830151614c696101008601826143c4565b5060c0830151614c7d610120860182614d09565b5060e0830151848203610140860152614c96828261451a565b95945050505050565b80516080830190614cb084826144e2565b506020820151614cc36020850182614564565b506040820151614cd66040850182614564565b5060608201516137926060850182614d09565b80516040830190614cfa84826143c4565b50602082015161379260208501825b6143be81610af2565b6143be8161515c565b6000610c7582846144eb565b60208101610b1682846143c4565b60208101610b1682846143b5565b60408101614d5182856143b5565b610c756020830184614d09565b60408101614d6c82856143c4565b610c7560208301846143c4565b60608101614d8782866143c4565b614d9460208301856143c4565b613f626040830184614d09565b60408101614d5182856143c4565b60608101614dbd82866143c4565b614dca6020830185614d09565b613f626040830184614576565b60408082528101614de88185614494565b90508181036020830152613f628184614426565b60208101610b1682846144e2565b60208101610b168284614552565b60208101610b16828461456d565b60208082528101610c75818461451a565b60208082528101610b168161457f565b60208082528101610b16816145de565b60208082528101610b1681614617565b60208082528101610b1681614676565b60208082528101610b16816146d5565b60208082528101610b168161470e565b60208082528101610b1681614747565b60208082528101610b1681614780565b60208082528101610b16816147df565b60208082528101610b1681614818565b60208082528101610b1681614851565b60208082528101610b16816148b0565b60208082528101610b16816148e9565b60208082528101610b1681614922565b60208082528101610b1681614981565b60208082528101610b16816149ba565b60208082528101610b1681614a19565b60208082528101610b1681614a52565b60208082528101610b1681614a8b565b60208082528101610b1681614aea565b60208082528101610b1681614b23565b60208082528101610b1681614b82565b60208082528101610b1681614bbb565b60608101614fb58285614ce9565b610c756040830184614d09565b60208101610b168284614d09565b60808101614fde8287614d09565b8181036020830152614ff081866143cd565b9050614fff60408301856143b5565b614c966060830184614d09565b60a0810161501a8288614d09565b6150276020830187614d09565b818103604083015261503981866143cd565b905061504860608301856143b5565b6150556080830184614d09565b9695505050505050565b60208101610b168284614d12565b60405181810167ffffffffffffffff8111828210171561508c57600080fd5b604052919050565b600067ffffffffffffffff8211156150ab57600080fd5b5060209081020190565b600067ffffffffffffffff8211156150cc57600080fd5b506020601f919091017fffffffffffffffffffffffffffffffffffffffffffffffffffffffffffffffe0160190565b60200190565b5190565b90815260200190565b6000610b1682615143565b151590565b80611727816151f4565b80611727816151fe565b8061172781615208565b61ffff1690565b73ffffffffffffffffffffffffffffffffffffffff1690565b60ff1690565b6000610b16825b6000610b168261510e565b6000610b168261511e565b6000610b1682615128565b6000610b1682615132565b6000610b168261513c565b60005b838110156151bb5781810151838201526020016151a3565b838111156137925750506000910152565b601f017fffffffffffffffffffffffffffffffffffffffffffffffffffffffffffffffe01690565b600281106115a757fe5b600181106115a757fe5b600581106115a757fe5b61521b8161510e565b81146115a757600080fd5b61521b81615119565b61521b81610af256fe45524332303a207472616e7366657220616d6f756e7420657863656564732062616c616e636545524332303a207472616e7366657220616d6f756e74206578636565647320616c6c6f77616e636545524332303a2064656372656173656420616c6c6f77616e63652062656c6f77207a65726fa365627a7a72315820130988ddf2c9e2950ed617be647d3cdf76a7d79792a164bfb2e2fd71f2c8435a6c6578706572696d656e74616cf564736f6c63430005110040",
  "source": "pragma solidity 0.5.17;\npragma experimental ABIEncoderV2;\n\nimport './ContractImports.sol';\nimport './CommonFunctionality.sol';\n\ncontract yDAI is ERC20, ERC20Detailed, ReentrancyGuard, Structs, Ownable, CommonFunctionality {\n  using SafeERC20 for IERC20;\n  using Address for address;\n  using SafeMath for uint256;\n\n  uint256 public pool;\n  address public token;\n  address public compound;\n  address public fulcrum;\n  address public aave;\n  address public aavePool;\n  address public aaveToken;\n  address public dydx;\n  uint256 public dToken;\n  address public apr;\n  address public chai;\n  // Add other tokens if implemented for another stablecoin\n  address public uniswapRouter = 0x7a250d5630B4cF539739dF2C5dAcb4c659F2488D;\n  address public dai = 0x6B175474E89094C44Da98b954EedeAC495271d0F;\n  address public weth = 0xC02aaA39b223FE8D0A0e5C4F27eAD9083C756Cc2;\n  address payable public retirementYeldTreasury;\n  IERC20 public yeldToken;\n  uint256 public maximumTokensToBurn = 50000 * 1e18;\n\n  // When you stake say 1000 DAI for a day that will be your maximum\n  // if you stake the next time 300 DAI your maximum will stay the same\n  // if you stake 2000 at once it will increase to 2000 DAI\n  mapping(bytes32 => uint256) public numberOfParticipants;\n  mapping(address => uint256) public depositBlockStarts;\n  uint256 public constant oneDayInBlocks = 6500;\n  uint256 public yeldToRewardPerDay = 0e18; // 100 YELD per day per 1 million stablecoins padded with 18 zeroes to have that flexibility\n  uint256 public constant oneMillion = 1e6;\n\n\n  enum Lender {\n      NONE,\n      DYDX,\n      COMPOUND,\n      AAVE,\n      FULCRUM\n  }\n\n  Lender public provider = Lender.NONE;\n\n  constructor (address _yeldToken, address payable _retirementYeldTreasury) public payable ERC20Detailed(\"yearn DAI\", \"yDAI\", 18) {\n    token = address(0x6B175474E89094C44Da98b954EedeAC495271d0F);\n    apr = address(0xdD6d648C991f7d47454354f4Ef326b04025a48A8);\n    dydx = address(0x1E0447b19BB6EcFdAe1e4AE1694b0C3659614e4e);\n    aave = address(0x24a42fD28C976A61Df5D00D0599C34c4f90748c8);\n    aavePool = address(0x3dfd23A6c5E8BbcFc9581d2E864a68feb6a076d3);\n    fulcrum = address(0x493C57C4763932315A328269E1ADaD09653B9081);\n    aaveToken = address(0xfC1E690f61EFd961294b3e1Ce3313fBD8aa4f85d);\n    compound = address(0x5d3a536E4D6DbD6114cc1Ead35777bAB948E3643);\n    chai = address(0x06AF07097C9Eeb7fD685c692751D5C66dB49c215);\n    dToken = 3;\n    yeldToken = IERC20(_yeldToken);\n    retirementYeldTreasury = _retirementYeldTreasury;\n    approveToken();\n  }\n\n  // To receive ETH after converting it from DAI\n  function () external payable {}\n\n  function setRetirementYeldTreasury(address payable _treasury) public onlyOwner {\n    retirementYeldTreasury = _treasury;\n  }\n\n  // In case a new uniswap router version is released\n  function setUniswapRouter(address _uniswapRouter) public onlyOwner {\n    uniswapRouter = _uniswapRouter;\n  }\n\n  function setYeldToken(address _yeldToken) public onlyOwner {\n    yeldToken = IERC20(_yeldToken);\n  }\n\n  function extractTokensIfStuck(address _token, uint256 _amount) public onlyOwner {\n    IERC20(_token).transfer(msg.sender, _amount);\n  }\n\n  function extractETHIfStuck() public onlyOwner {\n    owner().transfer(address(this).balance);\n  }\n\n  function changeYeldToRewardPerDay(uint256 _amount) public onlyOwner {\n    yeldToRewardPerDay = _amount;\n  }\n\n  function getGeneratedYelds() public view returns(uint256) {\n    uint256 blocksPassed;\n    if (depositBlockStarts[msg.sender] > 0) {\n      blocksPassed = block.number.sub(depositBlockStarts[msg.sender]);\n    } else {\n      return 0;\n    }\n    // This will work because amount is a token with 18 decimals\n    // Take the deposit, reduce it by 1 million (by removing 6 zeroes) so you get 1\n    // That 1 means get 1 YELD per day (in blocks). Now multiply that 1 by 100 to get 100 YELD per day\n    //                       your deposits in dai       div by 1 million * by yeld to reward / 1e18 since yeldToReward is in 18 decimals to be able to provide a smaller price since\n    // we can't go below 1 in a variable. You can't make the price 0.00001 that's why we need that 1e18 padding\n    // For USDC and Tether gotta multiply by 1e12 since they have 6 decimals to get the proper result of YELD\n    uint256 ibalance = balanceOf(msg.sender); // Balance of yTokens\n    uint256 accomulatedStablecoins;\n    if (_totalSupply <= 0) {\n      accomulatedStablecoins = 0;\n    } else {\n      accomulatedStablecoins = (calcPoolValueInToken().mul(ibalance)).div(_totalSupply);\n    }\n    uint256 generatedYelds = accomulatedStablecoins.div(oneMillion).mul(yeldToRewardPerDay).div(1e18).mul(blocksPassed).div(oneDayInBlocks);\n    return generatedYelds;\n  }\n\n  function deposit(uint256 _amount)\n      external\n      nonReentrant\n      noContract\n  {\n    require(_amount > 0, \"deposit must be greater than 0\");\n    pool = calcPoolValueInToken();\n    IERC20(token).safeTransferFrom(msg.sender, address(this), _amount);\n\n    // Yeld\n    depositBlockStarts[msg.sender] = block.number;\n    // Yeld\n\n    // Calculate pool shares\n    uint256 shares = 0;\n    if (pool == 0) {\n      shares = _amount;\n      pool = _amount;\n    } else {\n      shares = (_amount.mul(_totalSupply)).div(pool);\n    }\n    pool = calcPoolValueInToken();\n    _mint(msg.sender, shares);\n    rebalance();\n  }\n\n  // Converts DAI to ETH and returns how much ETH has been received from Uniswap\n  function daiToETH(uint256 _amount) internal returns(uint256) {\n      IERC20(dai).safeApprove(uniswapRouter, 0);\n      IERC20(dai).safeApprove(uniswapRouter, _amount);\n      address[] memory path = new address[](2);\n      path[0] = dai;\n      path[1] = weth;\n      // swapExactTokensForETH(uint amountIn, uint amountOutMin, address[] calldata path, address to, uint deadline)\n      // 'amounts' is an array where [0] is input DAI amount and [1] is the resulting ETH after the conversion\n      // even tho we've specified the WETH address, we'll receive ETH since that's how it works on uniswap\n      // https://uniswap.org/docs/v2/smart-contracts/router02/#swapexacttokensforeth\n      uint[] memory amounts = IUniswap(uniswapRouter).swapExactTokensForETH(_amount, uint(0), path, address(this), now.add(1800));\n      return amounts[1];\n  }\n\n  // Buys YELD tokens paying in ETH on Uniswap and removes them from circulation\n  // Returns how many YELD tokens have been burned\n  function buyNBurn(uint256 _ethToSwap) internal returns(uint256) {\n    address[] memory path = new address[](2);\n    path[0] = weth;\n    path[1] = address(yeldToken);\n    // Burns the tokens by taking them out of circulation, sending them to the 0x0 address\n    uint[] memory amounts = IUniswap(uniswapRouter).swapExactETHForTokens.value(_ethToSwap)(uint(0), path, address(0), now.add(1800));\n    return amounts[1];\n  }\n\n  // No rebalance implementation for lower fees and faster swaps\n  function withdraw(uint256 _shares)\n      external\n      nonReentrant\n      noContract\n  {\n      require(_shares > 0, \"withdraw must be greater than 0\");\n      uint256 ibalance = balanceOf(msg.sender);\n      require(_shares <= ibalance, \"insufficient balance\");\n      pool = calcPoolValueInToken();\n      // Yeld\n      uint256 generatedYelds = getGeneratedYelds();\n      // Yeld\n      uint256 stablecoinsToWithdraw = (pool.mul(_shares)).div(_totalSupply);\n      _balances[msg.sender] = _balances[msg.sender].sub(_shares, \"redeem amount exceeds balance\");\n      _totalSupply = _totalSupply.sub(_shares, '#1 Total supply sub error');\n      emit Transfer(msg.sender, address(0), _shares);\n      uint256 b = IERC20(token).balanceOf(address(this));\n      if (b < stablecoinsToWithdraw) {\n        _withdrawSome(stablecoinsToWithdraw.sub(b, '#2 Withdraw some sub error'));\n      }\n\n      // Yeld\n      // Take 1% of the amount to withdraw\n      uint256 onePercent = stablecoinsToWithdraw.div(100);\n      depositBlockStarts[msg.sender] = block.number;\n      yeldToken.transfer(msg.sender, generatedYelds);\n\n      // Take a portion of the profits for the buy and burn and retirement yeld\n      // Convert half the DAI earned into ETH for the protocol algorithms\n      uint256 stakingProfits = daiToETH(onePercent);\n      uint256 tokensAlreadyBurned = yeldToken.balanceOf(address(0));\n      if (tokensAlreadyBurned < maximumTokensToBurn) {\n        // 98% is the 49% doubled since we already took the 50%\n        uint256 ethToSwap = stakingProfits.mul(98).div(100);\n        // Buy and burn only applies up to 50k tokens burned\n        buyNBurn(ethToSwap);\n        // 1% for the Retirement Yield\n        uint256 retirementYeld = stakingProfits.mul(2).div(100);\n        // Send to the treasury\n        retirementYeldTreasury.transfer(retirementYeld);\n      } else {\n        // If we've reached the maximum burn point, send half the profits to the treasury to reward holders\n        uint256 retirementYeld = stakingProfits;\n        // Send to the treasury\n        retirementYeldTreasury.transfer(retirementYeld);\n      }\n      IERC20(token).safeTransfer(msg.sender, stablecoinsToWithdraw.sub(onePercent));\n      // Yeld\n\n      pool = calcPoolValueInToken();\n      rebalance();\n  }\n\n  function recommend() public view returns (Lender) {\n    (,uint256 capr,uint256 iapr,uint256 aapr,uint256 dapr) = IIEarnManager(apr).recommend(token);\n    uint256 max = 0;\n    if (capr > max) {\n      max = capr;\n    }\n    if (iapr > max) {\n      max = iapr;\n    }\n    if (aapr > max) {\n      max = aapr;\n    }\n    if (dapr > max) {\n      max = dapr;\n    }\n\n    Lender newProvider = Lender.NONE;\n    if (max == capr) {\n      newProvider = Lender.COMPOUND;\n    } else if (max == iapr) {\n      newProvider = Lender.FULCRUM;\n    } else if (max == aapr) {\n      newProvider = Lender.AAVE;\n    } else if (max == dapr) {\n      newProvider = Lender.DYDX;\n    }\n    return newProvider;\n  }\n\n  function getAave() public view returns (address) {\n    return LendingPoolAddressesProvider(aave).getLendingPool();\n  }\n  function getAaveCore() public view returns (address) {\n    return LendingPoolAddressesProvider(aave).getLendingPoolCore();\n  }\n\n  function approveToken() public {\n      IERC20(token).safeApprove(compound, uint(-1));\n      IERC20(token).safeApprove(dydx, uint(-1));\n      IERC20(token).safeApprove(getAaveCore(), uint(-1));\n      IERC20(token).safeApprove(fulcrum, uint(-1));\n  }\n\n  function balance() public view returns (uint256) {\n    return IERC20(token).balanceOf(address(this));\n  }\n  function balanceDydxAvailable() public view returns (uint256) {\n      return IERC20(token).balanceOf(dydx);\n  }\n  function balanceDydx() public view returns (uint256) {\n      Wei memory bal = DyDx(dydx).getAccountWei(Info(address(this), 0), dToken);\n      return bal.value;\n  }\n  function balanceCompound() public view returns (uint256) {\n      return IERC20(compound).balanceOf(address(this));\n  }\n  function balanceCompoundInToken() public view returns (uint256) {\n    // Mantisa 1e18 to decimals\n    uint256 b = balanceCompound();\n    if (b > 0) {\n      b = b.mul(Compound(compound).exchangeRateStored()).div(1e18);\n    }\n    return b;\n  }\n  function balanceFulcrumAvailable() public view returns (uint256) {\n      return IERC20(chai).balanceOf(fulcrum);\n  }\n  function balanceFulcrumInToken() public view returns (uint256) {\n    uint256 b = balanceFulcrum();\n    if (b > 0) {\n      b = Fulcrum(fulcrum).assetBalanceOf(address(this));\n    }\n    return b;\n  }\n  function balanceFulcrum() public view returns (uint256) {\n    return IERC20(fulcrum).balanceOf(address(this));\n  }\n  function balanceAaveAvailable() public view returns (uint256) {\n      return IERC20(token).balanceOf(aavePool);\n  }\n  function balanceAave() public view returns (uint256) {\n    return IERC20(aaveToken).balanceOf(address(this));\n  }\n\n  function rebalance() public {\n    Lender newProvider = recommend();\n\n    if (newProvider != provider) {\n      _withdrawAll();\n    }\n\n    if (balance() > 0) {\n      if (newProvider == Lender.DYDX) {\n        _supplyDydx(balance());\n      } else if (newProvider == Lender.FULCRUM) {\n        _supplyFulcrum(balance());\n      } else if (newProvider == Lender.COMPOUND) {\n        _supplyCompound(balance());\n      } else if (newProvider == Lender.AAVE) {\n        _supplyAave(balance());\n      }\n    }\n\n    provider = newProvider;\n  }\n\n  function _withdrawAll() internal {\n    uint256 amount = balanceCompound();\n    if (amount > 0) {\n      _withdrawSomeCompound(balanceCompoundInToken().sub(1));\n    }\n    amount = balanceDydx();\n    if (amount > 0) {\n      if (amount > balanceDydxAvailable()) {\n        amount = balanceDydxAvailable();\n      }\n      _withdrawDydx(amount);\n    }\n    amount = balanceFulcrum();\n    if (amount > 0) {\n      if (amount > balanceFulcrumAvailable().sub(1)) {\n        amount = balanceFulcrumAvailable().sub(1);\n      }\n      _withdrawSomeFulcrum(amount);\n    }\n    amount = balanceAave();\n    if (amount > 0) {\n      if (amount > balanceAaveAvailable()) {\n        amount = balanceAaveAvailable();\n      }\n      _withdrawAave(amount);\n    }\n  }\n\n  function _withdrawSomeCompound(uint256 _amount) internal {\n    uint256 b = balanceCompound();\n    uint256 bT = balanceCompoundInToken();\n    require(bT >= _amount, \"insufficient funds\");\n    // can have unintentional rounding errors\n    uint256 amount = (b.mul(_amount)).div(bT).add(1);\n    _withdrawCompound(amount);\n  }\n\n  function _withdrawSomeFulcrum(uint256 _amount) internal {\n    uint256 b = balanceFulcrum();\n    uint256 bT = balanceFulcrumInToken();\n    require(bT >= _amount, \"insufficient funds\");\n    // can have unintentional rounding errors\n    uint256 amount = (b.mul(_amount)).div(bT).add(1);\n    _withdrawFulcrum(amount);\n  }\n\n\n  function _withdrawSome(uint256 _amount) internal returns (bool) {\n    uint256 origAmount = _amount;\n\n    uint256 amount = balanceCompound();\n    if (amount > 0) {\n      if (_amount > balanceCompoundInToken().sub(1)) {\n        _withdrawSomeCompound(balanceCompoundInToken().sub(1));\n        _amount = origAmount.sub(IERC20(token).balanceOf(address(this)));\n      } else {\n        _withdrawSomeCompound(_amount);\n        return true;\n      }\n    }\n\n    amount = balanceDydx();\n    if (amount > 0) {\n      if (_amount > balanceDydxAvailable()) {\n        _withdrawDydx(balanceDydxAvailable());\n        _amount = origAmount.sub(IERC20(token).balanceOf(address(this)));\n      } else {\n        _withdrawDydx(_amount);\n        return true;\n      }\n    }\n\n    amount = balanceFulcrum();\n    if (amount > 0) {\n      if (_amount > balanceFulcrumAvailable().sub(1)) {\n        amount = balanceFulcrumAvailable().sub(1);\n        _withdrawSomeFulcrum(balanceFulcrumAvailable().sub(1));\n        _amount = origAmount.sub(IERC20(token).balanceOf(address(this)));\n      } else {\n        _withdrawSomeFulcrum(amount);\n        return true;\n      }\n    }\n\n    amount = balanceAave();\n    if (amount > 0) {\n      if (_amount > balanceAaveAvailable()) {\n        _withdrawAave(balanceAaveAvailable());\n        _amount = origAmount.sub(IERC20(token).balanceOf(address(this)));\n      } else {\n        _withdrawAave(_amount);\n        return true;\n      }\n    }\n\n    return true;\n  }\n\n  function _supplyDydx(uint256 amount) internal {\n      Info[] memory infos = new Info[](1);\n      infos[0] = Info(address(this), 0);\n\n      AssetAmount memory amt = AssetAmount(true, AssetDenomination.Wei, AssetReference.Delta, amount);\n      ActionArgs memory act;\n      act.actionType = ActionType.Deposit;\n      act.accountId = 0;\n      act.amount = amt;\n      act.primaryMarketId = dToken;\n      act.otherAddress = address(this);\n\n      ActionArgs[] memory args = new ActionArgs[](1);\n      args[0] = act;\n\n      DyDx(dydx).operate(infos, args);\n  }\n\n  function _supplyAave(uint amount) internal {\n      Aave(getAave()).deposit(token, amount, 0);\n  }\n  function _supplyFulcrum(uint amount) internal {\n      require(Fulcrum(fulcrum).mint(address(this), amount) > 0, \"FULCRUM: supply failed\");\n  }\n  function _supplyCompound(uint amount) internal {\n      require(Compound(compound).mint(amount) == 0, \"COMPOUND: supply failed\");\n  }\n  function _withdrawAave(uint amount) internal {\n      AToken(aaveToken).redeem(amount);\n  }\n  function _withdrawFulcrum(uint amount) internal {\n      require(Fulcrum(fulcrum).burn(address(this), amount) > 0, \"FULCRUM: withdraw failed\");\n  }\n  function _withdrawCompound(uint amount) internal {\n      require(Compound(compound).redeem(amount) == 0, \"COMPOUND: withdraw failed\");\n  }\n\n  function _withdrawDydx(uint256 amount) internal {\n      Info[] memory infos = new Info[](1);\n      infos[0] = Info(address(this), 0);\n\n      AssetAmount memory amt = AssetAmount(false, AssetDenomination.Wei, AssetReference.Delta, amount);\n      ActionArgs memory act;\n      act.actionType = ActionType.Withdraw;\n      act.accountId = 0;\n      act.amount = amt;\n      act.primaryMarketId = dToken;\n      act.otherAddress = address(this);\n\n      ActionArgs[] memory args = new ActionArgs[](1);\n      args[0] = act;\n\n      DyDx(dydx).operate(infos, args);\n  }\n\n  function calcPoolValueInToken() public view returns (uint) {\n    return balanceCompoundInToken()\n      .add(balanceFulcrumInToken())\n      .add(balanceDydx())\n      .add(balanceAave())\n      .add(balance());\n  }\n\n  function getPricePerFullShare() public view returns (uint) {\n    uint _pool = calcPoolValueInToken();\n    return _pool.mul(1e18).div(_totalSupply);\n  }\n}\n",
  "sourcePath": "C:/Users/merun/Desktop/yeld-contracts/contracts/yDAI.sol",
  "compiler": {
    "name": "solc",
    "version": "0.5.17+commit.d19bba13.Emscripten.clang"
  },
  "schemaVersion": "3.2.2",
  "updatedAt": "2021-01-16T17:40:37.213Z",
  "devdoc": {
    "methods": {}
  },
  "userdoc": {
    "methods": {}
  }
}