{
  "contractName": "yDAI",
  "abi": [
    {
      "inputs": [
        {
          "internalType": "address",
          "name": "_yeldToken",
          "type": "address"
        },
        {
          "internalType": "address payable",
          "name": "_retirementYeldTreasury",
          "type": "address"
        },
        {
          "internalType": "address",
          "name": "_devTreasury",
          "type": "address"
        }
      ],
      "payable": true,
      "stateMutability": "payable",
      "type": "constructor"
    },
    {
      "anonymous": false,
      "inputs": [
        {
          "indexed": true,
          "internalType": "address",
          "name": "owner",
          "type": "address"
        },
        {
          "indexed": true,
          "internalType": "address",
          "name": "spender",
          "type": "address"
        },
        {
          "indexed": false,
          "internalType": "uint256",
          "name": "value",
          "type": "uint256"
        }
      ],
      "name": "Approval",
      "type": "event"
    },
    {
      "anonymous": false,
      "inputs": [
        {
          "indexed": true,
          "internalType": "address",
          "name": "previousOwner",
          "type": "address"
        },
        {
          "indexed": true,
          "internalType": "address",
          "name": "newOwner",
          "type": "address"
        }
      ],
      "name": "OwnershipTransferred",
      "type": "event"
    },
    {
      "anonymous": false,
      "inputs": [
        {
          "indexed": true,
          "internalType": "address",
          "name": "from",
          "type": "address"
        },
        {
          "indexed": true,
          "internalType": "address",
          "name": "to",
          "type": "address"
        },
        {
          "indexed": false,
          "internalType": "uint256",
          "name": "value",
          "type": "uint256"
        }
      ],
      "name": "Transfer",
      "type": "event"
    },
    {
      "payable": true,
      "stateMutability": "payable",
      "type": "fallback"
    },
    {
      "constant": true,
      "inputs": [],
      "name": "aave",
      "outputs": [
        {
          "internalType": "address",
          "name": "",
          "type": "address"
        }
      ],
      "payable": false,
      "stateMutability": "view",
      "type": "function"
    },
    {
      "constant": true,
      "inputs": [],
      "name": "aavePool",
      "outputs": [
        {
          "internalType": "address",
          "name": "",
          "type": "address"
        }
      ],
      "payable": false,
      "stateMutability": "view",
      "type": "function"
    },
    {
      "constant": true,
      "inputs": [],
      "name": "aaveToken",
      "outputs": [
        {
          "internalType": "address",
          "name": "",
          "type": "address"
        }
      ],
      "payable": false,
      "stateMutability": "view",
      "type": "function"
    },
    {
      "constant": true,
      "inputs": [
        {
          "internalType": "address",
          "name": "owner",
          "type": "address"
        },
        {
          "internalType": "address",
          "name": "spender",
          "type": "address"
        }
      ],
      "name": "allowance",
      "outputs": [
        {
          "internalType": "uint256",
          "name": "",
          "type": "uint256"
        }
      ],
      "payable": false,
      "stateMutability": "view",
      "type": "function"
    },
    {
      "constant": false,
      "inputs": [
        {
          "internalType": "address",
          "name": "spender",
          "type": "address"
        },
        {
          "internalType": "uint256",
          "name": "amount",
          "type": "uint256"
        }
      ],
      "name": "approve",
      "outputs": [
        {
          "internalType": "bool",
          "name": "",
          "type": "bool"
        }
      ],
      "payable": false,
      "stateMutability": "nonpayable",
      "type": "function"
    },
    {
      "constant": true,
      "inputs": [],
      "name": "apr",
      "outputs": [
        {
          "internalType": "address",
          "name": "",
          "type": "address"
        }
      ],
      "payable": false,
      "stateMutability": "view",
      "type": "function"
    },
    {
      "constant": true,
      "inputs": [
        {
          "internalType": "address",
          "name": "account",
          "type": "address"
        }
      ],
      "name": "balanceOf",
      "outputs": [
        {
          "internalType": "uint256",
          "name": "",
          "type": "uint256"
        }
      ],
      "payable": false,
      "stateMutability": "view",
      "type": "function"
    },
    {
      "constant": true,
      "inputs": [],
      "name": "chai",
      "outputs": [
        {
          "internalType": "address",
          "name": "",
          "type": "address"
        }
      ],
      "payable": false,
      "stateMutability": "view",
      "type": "function"
    },
    {
      "constant": true,
      "inputs": [],
      "name": "compound",
      "outputs": [
        {
          "internalType": "address",
          "name": "",
          "type": "address"
        }
      ],
      "payable": false,
      "stateMutability": "view",
      "type": "function"
    },
    {
      "constant": true,
      "inputs": [],
      "name": "dToken",
      "outputs": [
        {
          "internalType": "uint256",
          "name": "",
          "type": "uint256"
        }
      ],
      "payable": false,
      "stateMutability": "view",
      "type": "function"
    },
    {
      "constant": true,
      "inputs": [],
      "name": "dai",
      "outputs": [
        {
          "internalType": "address",
          "name": "",
          "type": "address"
        }
      ],
      "payable": false,
      "stateMutability": "view",
      "type": "function"
    },
    {
      "constant": true,
      "inputs": [],
      "name": "decimals",
      "outputs": [
        {
          "internalType": "uint8",
          "name": "",
          "type": "uint8"
        }
      ],
      "payable": false,
      "stateMutability": "view",
      "type": "function"
    },
    {
      "constant": false,
      "inputs": [
        {
          "internalType": "address",
          "name": "spender",
          "type": "address"
        },
        {
          "internalType": "uint256",
          "name": "subtractedValue",
          "type": "uint256"
        }
      ],
      "name": "decreaseAllowance",
      "outputs": [
        {
          "internalType": "bool",
          "name": "",
          "type": "bool"
        }
      ],
      "payable": false,
      "stateMutability": "nonpayable",
      "type": "function"
    },
    {
      "constant": true,
      "inputs": [
        {
          "internalType": "address",
          "name": "",
          "type": "address"
        }
      ],
      "name": "depositAmount",
      "outputs": [
        {
          "internalType": "uint256",
          "name": "",
          "type": "uint256"
        }
      ],
      "payable": false,
      "stateMutability": "view",
      "type": "function"
    },
    {
      "constant": true,
      "inputs": [
        {
          "internalType": "address",
          "name": "",
          "type": "address"
        }
      ],
      "name": "depositBlockStarts",
      "outputs": [
        {
          "internalType": "uint256",
          "name": "",
          "type": "uint256"
        }
      ],
      "payable": false,
      "stateMutability": "view",
      "type": "function"
    },
    {
      "constant": true,
      "inputs": [],
      "name": "devTreasury",
      "outputs": [
        {
          "internalType": "address",
          "name": "",
          "type": "address"
        }
      ],
      "payable": false,
      "stateMutability": "view",
      "type": "function"
    },
    {
      "constant": true,
      "inputs": [],
      "name": "dydx",
      "outputs": [
        {
          "internalType": "address",
          "name": "",
          "type": "address"
        }
      ],
      "payable": false,
      "stateMutability": "view",
      "type": "function"
    },
    {
      "constant": true,
      "inputs": [],
      "name": "fulcrum",
      "outputs": [
        {
          "internalType": "address",
          "name": "",
          "type": "address"
        }
      ],
      "payable": false,
      "stateMutability": "view",
      "type": "function"
    },
    {
      "constant": true,
      "inputs": [
        {
          "internalType": "address",
          "name": "_yeld",
          "type": "address"
        },
        {
          "internalType": "address",
          "name": "_weth",
          "type": "address"
        },
        {
          "internalType": "address",
          "name": "_dai",
          "type": "address"
        },
        {
          "internalType": "address",
          "name": "_uniswap",
          "type": "address"
        }
      ],
      "name": "getYeldPriceInDai",
      "outputs": [
        {
          "internalType": "uint256",
          "name": "",
          "type": "uint256"
        }
      ],
      "payable": false,
      "stateMutability": "view",
      "type": "function"
    },
    {
      "constant": true,
      "inputs": [],
      "name": "holdPercentage",
      "outputs": [
        {
          "internalType": "uint256",
          "name": "",
          "type": "uint256"
        }
      ],
      "payable": false,
      "stateMutability": "view",
      "type": "function"
    },
    {
      "constant": false,
      "inputs": [
        {
          "internalType": "address",
          "name": "spender",
          "type": "address"
        },
        {
          "internalType": "uint256",
          "name": "addedValue",
          "type": "uint256"
        }
      ],
      "name": "increaseAllowance",
      "outputs": [
        {
          "internalType": "bool",
          "name": "",
          "type": "bool"
        }
      ],
      "payable": false,
      "stateMutability": "nonpayable",
      "type": "function"
    },
    {
      "constant": true,
      "inputs": [],
      "name": "isOwner",
      "outputs": [
        {
          "internalType": "bool",
          "name": "",
          "type": "bool"
        }
      ],
      "payable": false,
      "stateMutability": "view",
      "type": "function"
    },
    {
      "constant": true,
      "inputs": [],
      "name": "maximumTokensToBurn",
      "outputs": [
        {
          "internalType": "uint256",
          "name": "",
          "type": "uint256"
        }
      ],
      "payable": false,
      "stateMutability": "view",
      "type": "function"
    },
    {
      "constant": true,
      "inputs": [],
      "name": "name",
      "outputs": [
        {
          "internalType": "string",
          "name": "",
          "type": "string"
        }
      ],
      "payable": false,
      "stateMutability": "view",
      "type": "function"
    },
    {
      "constant": true,
      "inputs": [],
      "name": "oneDayInBlocks",
      "outputs": [
        {
          "internalType": "uint256",
          "name": "",
          "type": "uint256"
        }
      ],
      "payable": false,
      "stateMutability": "view",
      "type": "function"
    },
    {
      "constant": true,
      "inputs": [],
      "name": "oneMillion",
      "outputs": [
        {
          "internalType": "uint256",
          "name": "",
          "type": "uint256"
        }
      ],
      "payable": false,
      "stateMutability": "view",
      "type": "function"
    },
    {
      "constant": true,
      "inputs": [],
      "name": "owner",
      "outputs": [
        {
          "internalType": "address payable",
          "name": "",
          "type": "address"
        }
      ],
      "payable": false,
      "stateMutability": "view",
      "type": "function"
    },
    {
      "constant": true,
      "inputs": [],
      "name": "percentageBuyBurn",
      "outputs": [
        {
          "internalType": "uint256",
          "name": "",
          "type": "uint256"
        }
      ],
      "payable": false,
      "stateMutability": "view",
      "type": "function"
    },
    {
      "constant": true,
      "inputs": [],
      "name": "percentageDevTreasury",
      "outputs": [
        {
          "internalType": "uint256",
          "name": "",
          "type": "uint256"
        }
      ],
      "payable": false,
      "stateMutability": "view",
      "type": "function"
    },
    {
      "constant": true,
      "inputs": [],
      "name": "percentageRetirementYield",
      "outputs": [
        {
          "internalType": "uint256",
          "name": "",
          "type": "uint256"
        }
      ],
      "payable": false,
      "stateMutability": "view",
      "type": "function"
    },
    {
      "constant": true,
      "inputs": [],
      "name": "pool",
      "outputs": [
        {
          "internalType": "uint256",
          "name": "",
          "type": "uint256"
        }
      ],
      "payable": false,
      "stateMutability": "view",
      "type": "function"
    },
    {
      "constant": true,
      "inputs": [],
      "name": "provider",
      "outputs": [
        {
          "internalType": "enum yDAI.Lender",
          "name": "",
          "type": "uint8"
        }
      ],
      "payable": false,
      "stateMutability": "view",
      "type": "function"
    },
    {
      "constant": false,
      "inputs": [],
      "name": "renounceOwnership",
      "outputs": [],
      "payable": false,
      "stateMutability": "nonpayable",
      "type": "function"
    },
    {
      "constant": true,
      "inputs": [],
      "name": "retirementYeldTreasury",
      "outputs": [
        {
          "internalType": "address payable",
          "name": "",
          "type": "address"
        }
      ],
      "payable": false,
      "stateMutability": "view",
      "type": "function"
    },
    {
      "constant": true,
      "inputs": [],
      "name": "symbol",
      "outputs": [
        {
          "internalType": "string",
          "name": "",
          "type": "string"
        }
      ],
      "payable": false,
      "stateMutability": "view",
      "type": "function"
    },
    {
      "constant": true,
      "inputs": [],
      "name": "token",
      "outputs": [
        {
          "internalType": "address",
          "name": "",
          "type": "address"
        }
      ],
      "payable": false,
      "stateMutability": "view",
      "type": "function"
    },
    {
      "constant": true,
      "inputs": [],
      "name": "totalSupply",
      "outputs": [
        {
          "internalType": "uint256",
          "name": "",
          "type": "uint256"
        }
      ],
      "payable": false,
      "stateMutability": "view",
      "type": "function"
    },
    {
      "constant": false,
      "inputs": [
        {
          "internalType": "address",
          "name": "recipient",
          "type": "address"
        },
        {
          "internalType": "uint256",
          "name": "amount",
          "type": "uint256"
        }
      ],
      "name": "transfer",
      "outputs": [
        {
          "internalType": "bool",
          "name": "",
          "type": "bool"
        }
      ],
      "payable": false,
      "stateMutability": "nonpayable",
      "type": "function"
    },
    {
      "constant": false,
      "inputs": [
        {
          "internalType": "address",
          "name": "sender",
          "type": "address"
        },
        {
          "internalType": "address",
          "name": "recipient",
          "type": "address"
        },
        {
          "internalType": "uint256",
          "name": "amount",
          "type": "uint256"
        }
      ],
      "name": "transferFrom",
      "outputs": [
        {
          "internalType": "bool",
          "name": "",
          "type": "bool"
        }
      ],
      "payable": false,
      "stateMutability": "nonpayable",
      "type": "function"
    },
    {
      "constant": false,
      "inputs": [
        {
          "internalType": "address payable",
          "name": "newOwner",
          "type": "address"
        }
      ],
      "name": "transferOwnership",
      "outputs": [],
      "payable": false,
      "stateMutability": "nonpayable",
      "type": "function"
    },
    {
      "constant": true,
      "inputs": [],
      "name": "uniswapRouter",
      "outputs": [
        {
          "internalType": "address",
          "name": "",
          "type": "address"
        }
      ],
      "payable": false,
      "stateMutability": "view",
      "type": "function"
    },
    {
      "constant": false,
      "inputs": [
        {
          "internalType": "uint256",
          "name": "a",
          "type": "uint256"
        },
        {
          "internalType": "uint256",
          "name": "b",
          "type": "uint256"
        },
        {
          "internalType": "uint256",
          "name": "c",
          "type": "uint256"
        }
      ],
      "name": "updatePercentages",
      "outputs": [],
      "payable": false,
      "stateMutability": "nonpayable",
      "type": "function"
    },
    {
      "constant": true,
      "inputs": [],
      "name": "weth",
      "outputs": [
        {
          "internalType": "address",
          "name": "",
          "type": "address"
        }
      ],
      "payable": false,
      "stateMutability": "view",
      "type": "function"
    },
    {
      "constant": true,
      "inputs": [],
      "name": "yeldToRewardPerDay",
      "outputs": [
        {
          "internalType": "uint256",
          "name": "",
          "type": "uint256"
        }
      ],
      "payable": false,
      "stateMutability": "view",
      "type": "function"
    },
    {
      "constant": true,
      "inputs": [],
      "name": "yeldToken",
      "outputs": [
        {
          "internalType": "contract IERC20",
          "name": "",
          "type": "address"
        }
      ],
      "payable": false,
      "stateMutability": "view",
      "type": "function"
    },
    {
      "constant": false,
      "inputs": [
        {
          "internalType": "address payable",
          "name": "_treasury",
          "type": "address"
        }
      ],
      "name": "setRetirementYeldTreasury",
      "outputs": [],
      "payable": false,
      "stateMutability": "nonpayable",
      "type": "function"
    },
    {
      "constant": false,
      "inputs": [
        {
          "internalType": "address",
          "name": "_uniswapRouter",
          "type": "address"
        }
      ],
      "name": "setUniswapRouter",
      "outputs": [],
      "payable": false,
      "stateMutability": "nonpayable",
      "type": "function"
    },
    {
      "constant": false,
      "inputs": [
        {
          "internalType": "address",
          "name": "_yeldToken",
          "type": "address"
        }
      ],
      "name": "setYeldToken",
      "outputs": [],
      "payable": false,
      "stateMutability": "nonpayable",
      "type": "function"
    },
    {
      "constant": false,
      "inputs": [
        {
          "internalType": "address",
          "name": "_token",
          "type": "address"
        },
        {
          "internalType": "uint256",
          "name": "_amount",
          "type": "uint256"
        }
      ],
      "name": "extractTokensIfStuck",
      "outputs": [],
      "payable": false,
      "stateMutability": "nonpayable",
      "type": "function"
    },
    {
      "constant": false,
      "inputs": [],
      "name": "extractETHIfStuck",
      "outputs": [],
      "payable": false,
      "stateMutability": "nonpayable",
      "type": "function"
    },
    {
      "constant": false,
      "inputs": [
        {
          "internalType": "uint256",
          "name": "_amount",
          "type": "uint256"
        }
      ],
      "name": "changeYeldToRewardPerDay",
      "outputs": [],
      "payable": false,
      "stateMutability": "nonpayable",
      "type": "function"
    },
    {
      "constant": true,
      "inputs": [],
      "name": "getGeneratedYelds",
      "outputs": [
        {
          "internalType": "uint256",
          "name": "",
          "type": "uint256"
        }
      ],
      "payable": false,
      "stateMutability": "view",
      "type": "function"
    },
    {
      "constant": false,
      "inputs": [
        {
          "internalType": "uint256",
          "name": "_holdPercentage",
          "type": "uint256"
        }
      ],
      "name": "setHoldPercentage",
      "outputs": [],
      "payable": false,
      "stateMutability": "nonpayable",
      "type": "function"
    },
    {
      "constant": false,
      "inputs": [
        {
          "internalType": "uint256",
          "name": "_amount",
          "type": "uint256"
        }
      ],
      "name": "deposit",
      "outputs": [],
      "payable": false,
      "stateMutability": "nonpayable",
      "type": "function"
    },
    {
      "constant": false,
      "inputs": [
        {
          "internalType": "uint256",
          "name": "_shares",
          "type": "uint256"
        }
      ],
      "name": "withdraw",
      "outputs": [],
      "payable": false,
      "stateMutability": "nonpayable",
      "type": "function"
    },
    {
      "constant": true,
      "inputs": [],
      "name": "recommend",
      "outputs": [
        {
          "internalType": "enum yDAI.Lender",
          "name": "",
          "type": "uint8"
        }
      ],
      "payable": false,
      "stateMutability": "view",
      "type": "function"
    },
    {
      "constant": true,
      "inputs": [],
      "name": "getAave",
      "outputs": [
        {
          "internalType": "address",
          "name": "",
          "type": "address"
        }
      ],
      "payable": false,
      "stateMutability": "view",
      "type": "function"
    },
    {
      "constant": true,
      "inputs": [],
      "name": "getAaveCore",
      "outputs": [
        {
          "internalType": "address",
          "name": "",
          "type": "address"
        }
      ],
      "payable": false,
      "stateMutability": "view",
      "type": "function"
    },
    {
      "constant": false,
      "inputs": [],
      "name": "approveToken",
      "outputs": [],
      "payable": false,
      "stateMutability": "nonpayable",
      "type": "function"
    },
    {
      "constant": true,
      "inputs": [],
      "name": "balance",
      "outputs": [
        {
          "internalType": "uint256",
          "name": "",
          "type": "uint256"
        }
      ],
      "payable": false,
      "stateMutability": "view",
      "type": "function"
    },
    {
      "constant": true,
      "inputs": [],
      "name": "balanceDydxAvailable",
      "outputs": [
        {
          "internalType": "uint256",
          "name": "",
          "type": "uint256"
        }
      ],
      "payable": false,
      "stateMutability": "view",
      "type": "function"
    },
    {
      "constant": true,
      "inputs": [],
      "name": "balanceDydx",
      "outputs": [
        {
          "internalType": "uint256",
          "name": "",
          "type": "uint256"
        }
      ],
      "payable": false,
      "stateMutability": "view",
      "type": "function"
    },
    {
      "constant": true,
      "inputs": [],
      "name": "balanceCompound",
      "outputs": [
        {
          "internalType": "uint256",
          "name": "",
          "type": "uint256"
        }
      ],
      "payable": false,
      "stateMutability": "view",
      "type": "function"
    },
    {
      "constant": true,
      "inputs": [],
      "name": "balanceCompoundInToken",
      "outputs": [
        {
          "internalType": "uint256",
          "name": "",
          "type": "uint256"
        }
      ],
      "payable": false,
      "stateMutability": "view",
      "type": "function"
    },
    {
      "constant": true,
      "inputs": [],
      "name": "balanceFulcrumAvailable",
      "outputs": [
        {
          "internalType": "uint256",
          "name": "",
          "type": "uint256"
        }
      ],
      "payable": false,
      "stateMutability": "view",
      "type": "function"
    },
    {
      "constant": true,
      "inputs": [],
      "name": "balanceFulcrumInToken",
      "outputs": [
        {
          "internalType": "uint256",
          "name": "",
          "type": "uint256"
        }
      ],
      "payable": false,
      "stateMutability": "view",
      "type": "function"
    },
    {
      "constant": true,
      "inputs": [],
      "name": "balanceFulcrum",
      "outputs": [
        {
          "internalType": "uint256",
          "name": "",
          "type": "uint256"
        }
      ],
      "payable": false,
      "stateMutability": "view",
      "type": "function"
    },
    {
      "constant": true,
      "inputs": [],
      "name": "balanceAaveAvailable",
      "outputs": [
        {
          "internalType": "uint256",
          "name": "",
          "type": "uint256"
        }
      ],
      "payable": false,
      "stateMutability": "view",
      "type": "function"
    },
    {
      "constant": true,
      "inputs": [],
      "name": "balanceAave",
      "outputs": [
        {
          "internalType": "uint256",
          "name": "",
          "type": "uint256"
        }
      ],
      "payable": false,
      "stateMutability": "view",
      "type": "function"
    },
    {
      "constant": false,
      "inputs": [],
      "name": "rebalance",
      "outputs": [],
      "payable": false,
      "stateMutability": "nonpayable",
      "type": "function"
    },
    {
      "constant": true,
      "inputs": [],
      "name": "calcPoolValueInToken",
      "outputs": [
        {
          "internalType": "uint256",
          "name": "",
          "type": "uint256"
        }
      ],
      "payable": false,
      "stateMutability": "view",
      "type": "function"
    },
    {
      "constant": true,
      "inputs": [],
      "name": "getPricePerFullShare",
      "outputs": [
        {
          "internalType": "uint256",
          "name": "",
          "type": "uint256"
        }
      ],
      "payable": false,
      "stateMutability": "view",
      "type": "function"
    }
  ],
  "bytecode": "0x608060408190526714d1120d7b1600006008556722b1c8c1227a0000600955670de0b6b3a7640000600a55601680546001600160a01b0319908116737a250d5630b4cf539739df2c5dacb4c659f2488d17909155601780548216736b175474e89094c44da98b954eedeac495271d0f1790556018805490911673c02aaa39b223fe8d0a0e5c4f27ead9083c756cc2179055690a968163f0a57b400000601b556000601e55674563918244f40000601f556020805460ff60a01b191690556200672c38819003908190833981016040819052620000db91620007be565b6040805180820182526009815268796561726e2044414960b81b6020808301918252835180850190945260048452637944414960e01b9084015281519192916012916200012c9160039190620006ce565b50815162000142906004906020850190620006ce565b506005805460ff191660ff92909216919091179055505060016006556200016862000322565b600780546001600160a01b0319166001600160a01b0392831617908190556040519116906000907f8be0079c531659141344cd1fd0a4f28419497f9722a3daafe3b4186f6b6457e0908290a3600c80546001600160a01b0319908116736b175474e89094c44da98b954eedeac495271d0f1790915560148054821673dd6d648c991f7d47454354f4ef326b04025a48a8179055601280548216731e0447b19bb6ecfdae1e4ae1694b0c3659614e4e179055600f805482167324a42fd28c976a61df5d00d0599c34c4f90748c8179055601080548216733dfd23a6c5e8bbcfc9581d2e864a68feb6a076d3179055600e8054821673493c57c4763932315a328269e1adad09653b908117905560118054821673fc1e690f61efd961294b3e1ce3313fbd8aa4f85d179055600d80548216735d3a536e4d6dbd6114cc1ead35777bab948e36431790556015805482167306af07097c9eeb7fd685c692751d5c66db49c2151790556003601355601a80546001600160a01b0386811691841691909117909155601980548583169084161790556020805491841691909216179055620003196001600160e01b036200032716565b50505062000af4565b335b90565b600d54600c5462000354916001600160a01b039182169116600019620003e9602090811b62003db817901c565b601254600c5462000381916001600160a01b039182169116600019620003e9602090811b62003db817901c565b620003ba620003986001600160e01b036200050316565b600c546001600160a01b031690600019620003e9602090811b62003db817901c565b600e54600c54620003e7916001600160a01b039182169116600019620003e9602090811b62003db817901c565b565b801580620004785750604051636eb1769f60e11b81526001600160a01b0384169063dd62ed3e90620004229030908690600401620009df565b60206040518083038186803b1580156200043b57600080fd5b505afa15801562000450573d6000803e3d6000fd5b505050506040513d601f19601f8201168201806040525062000476919081019062000833565b155b620004a05760405162461bcd60e51b8152600401620004979062000a41565b60405180910390fd5b604051620004fe90849063095ea7b360e01b90620004c59086908690602401620009fe565b60408051808303601f190181529190526020810180516001600160e01b0319939093166001600160e01b03938416179052906200058916565b505050565b600f546040805163076b7fbb60e51b815290516000926001600160a01b03169163ed6ff760916004808301926020929190829003018186803b1580156200054957600080fd5b505afa1580156200055e573d6000803e3d6000fd5b505050506040513d601f19601f820116820180604052506200058491908101906200079d565b905090565b620005a8826001600160a01b03166200069160201b620046b01760201c565b620005c75760405162461bcd60e51b8152600401620004979062000a53565b60006060836001600160a01b031683604051620005e59190620009ca565b6000604051808303816000865af19150503d806000811462000624576040519150601f19603f3d011682016040523d82523d6000602084013e62000629565b606091505b5091509150816200064e5760405162461bcd60e51b8152600401620004979062000a1d565b8051156200068b57808060200190516200066c919081019062000812565b6200068b5760405162461bcd60e51b8152600401620004979062000a2f565b50505050565b6000813f7fc5d2460186f7233c927e7db2dcc703c0e500b653ca82273b7bfad8045d85a4708115801590620006c65750808214155b949350505050565b828054600181600116156101000203166002900490600052602060002090601f016020900481019282601f106200071157805160ff191683800117855562000741565b8280016001018555821562000741579182015b828111156200074157825182559160200191906001019062000724565b506200074f92915062000753565b5090565b6200032491905b808211156200074f57600081556001016200075a565b80516200077d8162000ac4565b92915050565b80516200077d8162000ade565b80516200077d8162000ae9565b600060208284031215620007b057600080fd5b6000620006c6848462000770565b600080600060608486031215620007d457600080fd5b6000620007e2868662000770565b9350506020620007f58682870162000770565b9250506040620008088682870162000770565b9150509250925092565b6000602082840312156200082557600080fd5b6000620006c6848462000783565b6000602082840312156200084657600080fd5b6000620006c6848462000790565b6200085f8162000a77565b82525050565b6000620008728262000a65565b6200087e818562000a69565b93506200089081856020860162000a95565b9290920192915050565b6000620008a960208362000a6e565b7f5361666545524332303a206c6f772d6c6576656c2063616c6c206661696c6564815260200192915050565b6000620008e4602a8362000a6e565b7f5361666545524332303a204552433230206f7065726174696f6e20646964206e8152691bdd081cdd58d8d9595960b21b602082015260400192915050565b60006200093260368362000a6e565b7f5361666545524332303a20617070726f76652066726f6d206e6f6e2d7a65726f81527f20746f206e6f6e2d7a65726f20616c6c6f77616e636500000000000000000000602082015260400192915050565b600062000993601f8362000a6e565b7f5361666545524332303a2063616c6c20746f206e6f6e2d636f6e747261637400815260200192915050565b6200085f8162000324565b6000620009d8828462000865565b9392505050565b60408101620009ef828562000854565b620009d8602083018462000854565b6040810162000a0e828562000854565b620009d86020830184620009bf565b602080825281016200077d816200089a565b602080825281016200077d81620008d5565b602080825281016200077d8162000923565b602080825281016200077d8162000984565b5190565b919050565b90815260200190565b60006200077d8262000a89565b151590565b6001600160a01b031690565b60005b8381101562000ab257818101518382015260200162000a98565b838111156200068b5750506000910152565b62000acf8162000a77565b811462000adb57600080fd5b50565b62000acf8162000a84565b62000acf8162000324565b615c288062000b046000396000f3fe60806040526004361061049b5760003560e01c80638da5cb5b1161025e578063cf8ca42611610143578063f29e15a2116100bb578063f5a41dea1161008a578063f7c1ec771161006f578063f7c1ec7714610b86578063f82ce27d14610b9b578063fc0c546a14610bb05761049b565b8063f5a41dea14610b5c578063f69e204614610b715761049b565b8063f29e15a214610af2578063f2fde38b14610b07578063f34ce4bb14610b27578063f4b9fa7514610b475761049b565b8063e26f21bf11610112578063ebc51160116100f7578063ebc5116014610aa8578063f02fbd4a14610abd578063f2978d9814610add5761049b565b8063e26f21bf14610a68578063eb56faf014610a885761049b565b8063cf8ca42614610a09578063d54e324414610a1e578063d9d7858a14610a33578063dd62ed3e14610a485761049b565b8063a7287971116101d6578063b19ab076116101a5578063b69ef8a81161018a578063b69ef8a8146109b4578063b6b55f25146109c9578063bea9849e146109e95761049b565b8063b19ab0761461098a578063b69d04561461099f5761049b565b8063a728797114610920578063a9059cbb14610935578063a9a1015a14610955578063b098fc80146109755761049b565b806395d89b411161022d578063a03e4bc311610212578063a03e4bc3146108d6578063a160176d146108eb578063a457c2d7146109005761049b565b806395d89b41146108ac57806399b71d5c146108c15761049b565b80638da5cb5b146108585780638e4ec6ef1461086d5780638f32d59b146108825780638f9225ca146108975761049b565b80634fd96cb611610384578063715018a6116102fc5780637b82784c116102cb5780637f50d4d8116102b05780637f50d4d81461080c578063819faf7b1461082e578063858409ba146108435761049b565b80637b82784c146107d75780637d7c2a1c146107f75761049b565b8063715018a6146107835780637354b2e914610798578063735de9f7146107ad57806377c7b8fc146107c25761049b565b806358782c21116103535780636ff2bf08116103385780636ff2bf081461073957806370a082311461074e5780637137ef991461076e5761049b565b806358782c211461070f57806361c1ec55146107245761049b565b80634fd96cb6146106a55780634fe41129146106c557806350f62da7146106da57806357ded9c9146106fa5761049b565b806323b872dd11610417578063313ce567116103e657806339c0a7e1116103cb57806339c0a7e1146106665780633fc8cef31461067b578063413e920d146106905761049b565b8063313ce5671461062457806339509351146106465761049b565b806323b872dd146105af5780632622678c146105cf5780632e1a7d4d146105e45780632eb4520a146106045761049b565b80630eb2a2671161046e57806316f0115b1161045357806316f0115b1461057057806318160ddd14610585578063202a27351461059a5761049b565b80630eb2a2671461053957806310391d251461055b5761049b565b806306a3fe591461049d57806306fdde03146104c8578063085d4883146104ea578063095ea7b31461050c575b005b3480156104a957600080fd5b506104b2610bc5565b6040516104bf9190615616565b60405180910390f35b3480156104d457600080fd5b506104dd610be1565b6040516104bf9190615735565b3480156104f657600080fd5b506104ff610c96565b6040516104bf9190615707565b34801561051857600080fd5b5061052c6105273660046149f6565b610cb7565b6040516104bf91906156eb565b34801561054557600080fd5b5061054e610cd5565b6040516104bf91906158f1565b34801561056757600080fd5b5061054e610d81565b34801561057c57600080fd5b5061054e610d87565b34801561059157600080fd5b5061054e610d8d565b3480156105a657600080fd5b5061054e610d93565b3480156105bb57600080fd5b5061052c6105ca3660046149a9565b610d99565b3480156105db57600080fd5b506104b2610e41565b3480156105f057600080fd5b5061049b6105ff366004614b23565b610e5d565b34801561061057600080fd5b5061049b61061f3660046148d2565b611627565b34801561063057600080fd5b506106396116ac565b6040516104bf919061598e565b34801561065257600080fd5b5061052c6106613660046149f6565b6116b5565b34801561067257600080fd5b5061054e611716565b34801561068757600080fd5b506104b26117e3565b34801561069c57600080fd5b5061054e6117ff565b3480156106b157600080fd5b5061049b6106c03660046148d2565b611806565b3480156106d157600080fd5b5061049b61188b565b3480156106e657600080fd5b5061054e6106f53660046148d2565b611919565b34801561070657600080fd5b506104b261192b565b34801561071b57600080fd5b506104b2611947565b34801561073057600080fd5b5061054e611963565b34801561074557600080fd5b5061054e6119ba565b34801561075a57600080fd5b5061054e6107693660046148d2565b611a5a565b34801561077a57600080fd5b5061054e611a86565b34801561078f57600080fd5b5061049b611abc565b3480156107a457600080fd5b5061054e611b69565b3480156107b957600080fd5b506104b2611b6f565b3480156107ce57600080fd5b5061054e611b8b565b3480156107e357600080fd5b5061054e6107f23660046148d2565b611bbe565b34801561080357600080fd5b5061049b611bd0565b34801561081857600080fd5b50610821611d17565b6040516104bf91906156f9565b34801561083a57600080fd5b506104b2611d33565b34801561084f57600080fd5b5061054e611d4f565b34801561086457600080fd5b506104b2611d55565b34801561087957600080fd5b506104b2611d71565b34801561088e57600080fd5b5061052c611d8d565b3480156108a357600080fd5b5061054e611dcd565b3480156108b857600080fd5b506104dd611e2b565b3480156108cd57600080fd5b5061049b611eaa565b3480156108e257600080fd5b506104b2611fed565b3480156108f757600080fd5b506104ff612009565b34801561090c57600080fd5b5061052c61091b3660046149f6565b61215f565b34801561092c57600080fd5b5061054e6121da565b34801561094157600080fd5b5061052c6109503660046149f6565b6122a9565b34801561096157600080fd5b5061049b6109703660046149f6565b6122bd565b34801561098157600080fd5b5061054e6123a6565b34801561099657600080fd5b506104b2612404565b3480156109ab57600080fd5b506104b2612420565b3480156109c057600080fd5b5061054e61243c565b3480156109d557600080fd5b5061049b6109e4366004614b23565b612493565b3480156109f557600080fd5b5061049b610a043660046148d2565b612774565b348015610a1557600080fd5b5061054e6127f9565b348015610a2a57600080fd5b5061054e612850565b348015610a3f57600080fd5b5061054e6128ae565b348015610a5457600080fd5b5061054e610a6336600461490e565b6128b4565b348015610a7457600080fd5b5061049b610a83366004614b23565b6128ec565b348015610a9457600080fd5b5061049b610aa3366004614b5f565b61292f565b348015610ab457600080fd5b5061054e61297b565b348015610ac957600080fd5b5061049b610ad8366004614b23565b612981565b348015610ae957600080fd5b5061054e6129c4565b348015610afe57600080fd5b5061054e6129ca565b348015610b1357600080fd5b5061049b610b223660046148d2565b6129d0565b348015610b3357600080fd5b5061054e610b42366004614948565b612a17565b348015610b5357600080fd5b506104b2612bde565b348015610b6857600080fd5b5061054e612bfa565b348015610b7d57600080fd5b506104b2612cb3565b348015610b9257600080fd5b506104b2612ccf565b348015610ba757600080fd5b506104b2612d72565b348015610bbc57600080fd5b506104b2612ddd565b60115473ffffffffffffffffffffffffffffffffffffffff1681565b60038054604080516020601f60027fffffffffffffffffffffffffffffffffffffffffffffffffffffffffffffffff610100600188161502019095169490940493840181900481028201810190925282815260609390929091830182828015610c8b5780601f10610c6057610100808354040283529160200191610c8b565b820191906000526020600020905b815481529060010190602001808311610c6e57829003601f168201915b505050505090505b90565b60205474010000000000000000000000000000000000000000900460ff1681565b6000610ccb610cc4612df9565b8484612dfd565b5060015b92915050565b600e546040517f70a0823100000000000000000000000000000000000000000000000000000000815260009173ffffffffffffffffffffffffffffffffffffffff16906370a0823190610d2c903090600401615624565b60206040518083038186803b158015610d4457600080fd5b505afa158015610d58573d6000803e3d6000fd5b505050506040513d601f19601f82011682018060405250610d7c9190810190614b41565b905090565b60095481565b600b5481565b60025490565b601f5481565b6000610da6848484612f0c565b610e3684610db2612df9565b610e3185604051806060016040528060288152602001615b996028913973ffffffffffffffffffffffffffffffffffffffff8a16600090815260016020526040812090610dfd612df9565b73ffffffffffffffffffffffffffffffffffffffff168152602081019190915260400160002054919063ffffffff61309716565b612dfd565b5060015b9392505050565b60195473ffffffffffffffffffffffffffffffffffffffff1681565b6006805460010190819055610e71336130dd565b15610eb1576040517f08c379a0000000000000000000000000000000000000000000000000000000008152600401610ea8906157f6565b60405180910390fd5b60008211610eeb576040517f08c379a0000000000000000000000000000000000000000000000000000000008152600401610ea890615816565b6000610ef633611a5a565b905080831115610f32576040517f08c379a0000000000000000000000000000000000000000000000000000000008152600401610ea890615806565b610f3a611a86565b600b556000610f476119ba565b90506000610f72600254610f6687600b546130e390919063ffffffff16565b9063ffffffff61313716565b604080518082018252601d81527f72656465656d20616d6f756e7420657863656564732062616c616e6365000000602080830191909152336000908152908190529190912054919250610fcd9190879063ffffffff61309716565b3360009081526020818152604091829020929092558051808201909152601981527f233120546f74616c20737570706c7920737562206572726f72000000000000009181019190915260025461102a91879063ffffffff61309716565b60025560405160009033907fddf252ad1be2c89b69c2b068fc378daa952ba7f163c4a11628f55a4df523b3ef906110629089906158f1565b60405180910390a3600c546040517f70a0823100000000000000000000000000000000000000000000000000000000815260009173ffffffffffffffffffffffffffffffffffffffff16906370a08231906110c1903090600401615624565b60206040518083038186803b1580156110d957600080fd5b505afa1580156110ed573d6000803e3d6000fd5b505050506040513d601f19601f820116820180604052506111119190810190614b41565b90508181101561116f5761116d611168826040518060400160405280601a81526020017f233220576974686472617720736f6d6520737562206572726f72000000000000815250856130979092919063ffffffff16565b613179565b505b600061119a600a5461118e60095460085461347090919063ffffffff16565b9063ffffffff61347016565b905060006111bb68056bc75e2d63100000610f66868563ffffffff6130e316565b336000908152601c60209081526040808320439055601d9091529020549091506111eb908563ffffffff6134af16565b336000818152601d60205260409081902092909255601a5491517fa9059cbb00000000000000000000000000000000000000000000000000000000815273ffffffffffffffffffffffffffffffffffffffff9092169163a9059cbb91611255918990600401615632565b602060405180830381600087803b15801561126f57600080fd5b505af1158015611283573d6000803e3d6000fd5b505050506040513d601f19601f820116820180604052506112a79190810190614a5b565b5060006112b3826134f1565b601a546040517f70a0823100000000000000000000000000000000000000000000000000000000815291925060009173ffffffffffffffffffffffffffffffffffffffff909116906370a082319061130f908490600401615624565b60206040518083038186803b15801561132757600080fd5b505afa15801561133b573d6000803e3d6000fd5b505050506040513d601f19601f8201168201806040525061135f9190810190614b41565b905060006113a268056bc75e2d63100000610f6661139588610f6660095468056bc75e2d631000006130e390919063ffffffff16565b869063ffffffff6130e316565b9050601b5482101561148c5760006113ef68056bc75e2d63100000610f666113e289610f66600a5468056bc75e2d631000006130e390919063ffffffff16565b879063ffffffff6130e316565b90506113fa816136cd565b50600061143c68056bc75e2d63100000610f6661142f8a610f6660085468056bc75e2d631000006130e390919063ffffffff16565b889063ffffffff6130e316565b60195460405191925073ffffffffffffffffffffffffffffffffffffffff169082156108fc029083906000818181858888f19350505050158015611484573d6000803e3d6000fd5b5050506114e9565b600061149e848363ffffffff6134af16565b60195460405191925073ffffffffffffffffffffffffffffffffffffffff169082156108fc029083906000818181858888f193505050501580156114e6573d6000803e3d6000fd5b50505b60205460405160009173ffffffffffffffffffffffffffffffffffffffff169083906115149061560b565b60006040518083038185875af1925050503d8060008114611551576040519150601f19603f3d011682016040523d82523d6000602084013e611556565b606091505b5050905080611591576040517f08c379a0000000000000000000000000000000000000000000000000000000008152600401610ea8906157a6565b6115cb336115a58a8863ffffffff6134af16565b600c5473ffffffffffffffffffffffffffffffffffffffff16919063ffffffff61382b16565b6115d3611a86565b600b556115de611bd0565b505050505050505050506006548114611623576040517f08c379a0000000000000000000000000000000000000000000000000000000008152600401610ea890615896565b5050565b61162f611d8d565b611665576040517f08c379a0000000000000000000000000000000000000000000000000000000008152600401610ea8906157e6565b601980547fffffffffffffffffffffffff00000000000000000000000000000000000000001673ffffffffffffffffffffffffffffffffffffffff92909216919091179055565b60055460ff1690565b6000610ccb6116c2612df9565b84610e3185600160006116d3612df9565b73ffffffffffffffffffffffffffffffffffffffff908116825260208083019390935260409182016000908120918c16815292529020549063ffffffff61347016565b60006117206146e7565b6012546040805180820182523081526000602082015260135491517fc190c2ec00000000000000000000000000000000000000000000000000000000815273ffffffffffffffffffffffffffffffffffffffff9093169263c190c2ec9261178a92916004016158d6565b604080518083038186803b1580156117a157600080fd5b505afa1580156117b5573d6000803e3d6000fd5b505050506040513d601f19601f820116820180604052506117d99190810190614b05565b6020015191505090565b60185473ffffffffffffffffffffffffffffffffffffffff1681565b620f424081565b61180e611d8d565b611844576040517f08c379a0000000000000000000000000000000000000000000000000000000008152600401610ea8906157e6565b601a80547fffffffffffffffffffffffff00000000000000000000000000000000000000001673ffffffffffffffffffffffffffffffffffffffff92909216919091179055565b611893611d8d565b6118c9576040517f08c379a0000000000000000000000000000000000000000000000000000000008152600401610ea8906157e6565b6118d1611d55565b73ffffffffffffffffffffffffffffffffffffffff166108fc479081150290604051600060405180830381858888f19350505050158015611916573d6000803e3d6000fd5b50565b601d6020526000908152604090205481565b60145473ffffffffffffffffffffffffffffffffffffffff1681565b600e5473ffffffffffffffffffffffffffffffffffffffff1681565b600d546040517f70a0823100000000000000000000000000000000000000000000000000000000815260009173ffffffffffffffffffffffffffffffffffffffff16906370a0823190610d2c903090600401615624565b336000908152601c60205260408120548190156119f957336000908152601c60205260409020546119f290439063ffffffff6134af16565b9050611a03565b6000915050610c93565b601e54336000908152601d60205260408120549091611a539161196491610f66918691611a4791670de0b6b3a76400009185918490620f424063ffffffff61313716565b9063ffffffff6130e316565b9250505090565b73ffffffffffffffffffffffffffffffffffffffff81166000908152602081905260409020545b919050565b6000610d7c611a9361243c565b61118e611a9e6127f9565b61118e611aa9611716565b61118e611ab4612bfa565b61118e6121da565b611ac4611d8d565b611afa576040517f08c379a0000000000000000000000000000000000000000000000000000000008152600401610ea8906157e6565b60075460405160009173ffffffffffffffffffffffffffffffffffffffff16907f8be0079c531659141344cd1fd0a4f28419497f9722a3daafe3b4186f6b6457e0908390a3600780547fffffffffffffffffffffffff0000000000000000000000000000000000000000169055565b60085481565b60165473ffffffffffffffffffffffffffffffffffffffff1681565b600080611b96611a86565b600254909150611bb890610f6683670de0b6b3a764000063ffffffff6130e316565b91505090565b601c6020526000908152604090205481565b6000611bda612009565b60205490915074010000000000000000000000000000000000000000900460ff166004811115611c0657fe5b816004811115611c1257fe5b14611c1f57611c1f6138e8565b6000611c2961243c565b1115611cc4576001816004811115611c3d57fe5b1415611c5857611c53611c4e61243c565b6139ad565b611cc4565b6004816004811115611c6657fe5b1415611c7c57611c53611c7761243c565b613b5e565b6002816004811115611c8a57fe5b1415611ca057611c53611c9b61243c565b613c40565b6003816004811115611cae57fe5b1415611cc457611cc4611cbf61243c565b613d1f565b602080548291907fffffffffffffffffffffff00ffffffffffffffffffffffffffffffffffffffff1674010000000000000000000000000000000000000000836004811115611d0f57fe5b021790555050565b601a5473ffffffffffffffffffffffffffffffffffffffff1681565b600f5473ffffffffffffffffffffffffffffffffffffffff1681565b600a5481565b60075473ffffffffffffffffffffffffffffffffffffffff1690565b60125473ffffffffffffffffffffffffffffffffffffffff1681565b60075460009073ffffffffffffffffffffffffffffffffffffffff16611db1612df9565b73ffffffffffffffffffffffffffffffffffffffff1614905090565b601554600e546040517f70a0823100000000000000000000000000000000000000000000000000000000815260009273ffffffffffffffffffffffffffffffffffffffff908116926370a0823192610d2c9290911690600401615616565b60048054604080516020601f60027fffffffffffffffffffffffffffffffffffffffffffffffffffffffffffffffff610100600188161502019095169490940493840181900481028201810190925282815260609390929091830182828015610c8b5780601f10610c6057610100808354040283529160200191610c8b565b600d54600c54611efa9173ffffffffffffffffffffffffffffffffffffffff91821691167fffffffffffffffffffffffffffffffffffffffffffffffffffffffffffffffff63ffffffff613db816565b601254600c54611f4a9173ffffffffffffffffffffffffffffffffffffffff91821691167fffffffffffffffffffffffffffffffffffffffffffffffffffffffffffffffff63ffffffff613db816565b611f9b611f55612d72565b600c5473ffffffffffffffffffffffffffffffffffffffff16907fffffffffffffffffffffffffffffffffffffffffffffffffffffffffffffffff63ffffffff613db816565b600e54600c54611feb9173ffffffffffffffffffffffffffffffffffffffff91821691167fffffffffffffffffffffffffffffffffffffffffffffffffffffffffffffffff63ffffffff613db816565b565b60105473ffffffffffffffffffffffffffffffffffffffff1681565b601454600c546040517fd88be3c0000000000000000000000000000000000000000000000000000000008152600092839283928392839273ffffffffffffffffffffffffffffffffffffffff9182169263d88be3c09261206d921690600401615616565b60006040518083038186803b15801561208557600080fd5b505afa158015612099573d6000803e3d6000fd5b505050506040513d6000823e601f3d9081017fffffffffffffffffffffffffffffffffffffffffffffffffffffffffffffffe01682016040526120df9190810190614a79565b929750909550935091506000905084156120f65750835b808411156121015750825b8083111561210c5750815b808211156121175750805b60008186141561212957506002612155565b8482141561213957506004612155565b8382141561214957506003612155565b82821415612155575060015b9550505050505090565b6000610ccb61216c612df9565b84610e3185604051806060016040528060258152602001615bc16025913960016000612196612df9565b73ffffffffffffffffffffffffffffffffffffffff908116825260208083019390935260409182016000908120918d1681529252902054919063ffffffff61309716565b6000806121e5611963565b90508015610d7c57610ccf670de0b6b3a7640000610f66600d60009054906101000a900473ffffffffffffffffffffffffffffffffffffffff1673ffffffffffffffffffffffffffffffffffffffff1663182df0f56040518163ffffffff1660e01b815260040160206040518083038186803b15801561226457600080fd5b505afa158015612278573d6000803e3d6000fd5b505050506040513d601f19601f8201168201806040525061229c9190810190614b41565b849063ffffffff6130e316565b6000610ccb6122b6612df9565b8484612f0c565b6122c5611d8d565b6122fb576040517f08c379a0000000000000000000000000000000000000000000000000000000008152600401610ea8906157e6565b6040517fa9059cbb00000000000000000000000000000000000000000000000000000000815273ffffffffffffffffffffffffffffffffffffffff83169063a9059cbb9061234f9033908590600401615632565b602060405180830381600087803b15801561236957600080fd5b505af115801561237d573d6000803e3d6000fd5b505050506040513d601f19601f820116820180604052506123a19190810190614a5b565b505050565b600c546010546040517f70a0823100000000000000000000000000000000000000000000000000000000815260009273ffffffffffffffffffffffffffffffffffffffff908116926370a0823192610d2c9290911690600401615616565b60205473ffffffffffffffffffffffffffffffffffffffff1681565b60155473ffffffffffffffffffffffffffffffffffffffff1681565b600c546040517f70a0823100000000000000000000000000000000000000000000000000000000815260009173ffffffffffffffffffffffffffffffffffffffff16906370a0823190610d2c903090600401615624565b60068054600101908190556124a7336130dd565b156124de576040517f08c379a0000000000000000000000000000000000000000000000000000000008152600401610ea8906157f6565b60008211612518576040517f08c379a0000000000000000000000000000000000000000000000000000000008152600401610ea890615866565b601a546040517f70a0823100000000000000000000000000000000000000000000000000000000815260009173ffffffffffffffffffffffffffffffffffffffff16906370a082319061256f903390600401615624565b60206040518083038186803b15801561258757600080fd5b505afa15801561259b573d6000803e3d6000fd5b505050506040513d601f19601f820116820180604052506125bf9190810190614b41565b601a546018546017546016549394506000936125fa9373ffffffffffffffffffffffffffffffffffffffff9081169381169281169116612a17565b9050600061262068056bc75e2d63100000610f66601f54886130e390919063ffffffff16565b90506000612634828463ffffffff61313716565b905080841015612670576040517f08c379a0000000000000000000000000000000000000000000000000000000008152600401610ea890615826565b612678611a86565b600b55600c546126a69073ffffffffffffffffffffffffffffffffffffffff1633308963ffffffff613ed716565b336000908152601c60209081526040808320439055601d9091529020546126d3908763ffffffff61347016565b336000908152601d6020526040812091909155600b546126f95750600b86905585612717565b612714600b54610f666002548a6130e390919063ffffffff16565b90505b61271f611a86565b600b5561272c3382613f1a565b612734611bd0565b50505050506006548114611623576040517f08c379a0000000000000000000000000000000000000000000000000000000008152600401610ea890615896565b61277c611d8d565b6127b2576040517f08c379a0000000000000000000000000000000000000000000000000000000008152600401610ea8906157e6565b601680547fffffffffffffffffffffffff00000000000000000000000000000000000000001673ffffffffffffffffffffffffffffffffffffffff92909216919091179055565b6011546040517f70a0823100000000000000000000000000000000000000000000000000000000815260009173ffffffffffffffffffffffffffffffffffffffff16906370a0823190610d2c903090600401615624565b600c546012546040517f70a0823100000000000000000000000000000000000000000000000000000000815260009273ffffffffffffffffffffffffffffffffffffffff908116926370a0823192610d2c9290911690600401615616565b60135481565b73ffffffffffffffffffffffffffffffffffffffff918216600090815260016020908152604080832093909416825291909152205490565b6128f4611d8d565b61292a576040517f08c379a0000000000000000000000000000000000000000000000000000000008152600401610ea8906157e6565b601f55565b612937611d8d565b61296d576040517f08c379a0000000000000000000000000000000000000000000000000000000008152600401610ea8906157e6565b600892909255600955600a55565b601e5481565b612989611d8d565b6129bf576040517f08c379a0000000000000000000000000000000000000000000000000000000008152600401610ea8906157e6565b601e55565b61196481565b601b5481565b6129d8611d8d565b612a0e576040517f08c379a0000000000000000000000000000000000000000000000000000000008152600401610ea8906157e6565b6119168161401b565b60408051600380825260808201909252600091606091906020820183803883390190505090508581600081518110612a4b57fe5b602002602001019073ffffffffffffffffffffffffffffffffffffffff16908173ffffffffffffffffffffffffffffffffffffffff16815250508481600181518110612a9357fe5b602002602001019073ffffffffffffffffffffffffffffffffffffffff16908173ffffffffffffffffffffffffffffffffffffffff16815250508381600281518110612adb57fe5b73ffffffffffffffffffffffffffffffffffffffff92831660209182029290920101526040517fd06ca61f00000000000000000000000000000000000000000000000000000000815260609185169063d06ca61f90612b4890670de0b6b3a7640000908690600401615715565b60006040518083038186803b158015612b6057600080fd5b505afa158015612b74573d6000803e3d6000fd5b505050506040513d6000823e601f3d9081017fffffffffffffffffffffffffffffffffffffffffffffffffffffffffffffffe0168201604052612bba9190810190614a26565b905080600281518110612bc957fe5b6020026020010151925050505b949350505050565b60175473ffffffffffffffffffffffffffffffffffffffff1681565b600080612c05610cd5565b90508015610d7c57600e546040517f06b3efd600000000000000000000000000000000000000000000000000000000815273ffffffffffffffffffffffffffffffffffffffff909116906306b3efd690612c63903090600401615624565b60206040518083038186803b158015612c7b57600080fd5b505afa158015612c8f573d6000803e3d6000fd5b505050506040513d601f19601f82011682018060405250610ccf9190810190614b41565b600d5473ffffffffffffffffffffffffffffffffffffffff1681565b600f54604080517f0261bf8b000000000000000000000000000000000000000000000000000000008152905160009273ffffffffffffffffffffffffffffffffffffffff1691630261bf8b916004808301926020929190829003018186803b158015612d3a57600080fd5b505afa158015612d4e573d6000803e3d6000fd5b505050506040513d601f19601f82011682018060405250610d7c91908101906148f0565b600f54604080517fed6ff760000000000000000000000000000000000000000000000000000000008152905160009273ffffffffffffffffffffffffffffffffffffffff169163ed6ff760916004808301926020929190829003018186803b158015612d3a57600080fd5b600c5473ffffffffffffffffffffffffffffffffffffffff1681565b3390565b73ffffffffffffffffffffffffffffffffffffffff8316612e4a576040517f08c379a0000000000000000000000000000000000000000000000000000000008152600401610ea890615856565b73ffffffffffffffffffffffffffffffffffffffff8216612e97576040517f08c379a0000000000000000000000000000000000000000000000000000000008152600401610ea890615776565b73ffffffffffffffffffffffffffffffffffffffff80841660008181526001602090815260408083209487168084529490915290819020849055517f8c5be1e5ebec7d5bd14f71427d1e84f3dd0314c0f7b2291e5b200ac8c7c3b92590612eff9085906158f1565b60405180910390a3505050565b73ffffffffffffffffffffffffffffffffffffffff8316612f59576040517f08c379a0000000000000000000000000000000000000000000000000000000008152600401610ea890615836565b73ffffffffffffffffffffffffffffffffffffffff8216612fa6576040517f08c379a0000000000000000000000000000000000000000000000000000000008152600401610ea890615746565b612ff681604051806060016040528060268152602001615b736026913973ffffffffffffffffffffffffffffffffffffffff8616600090815260208190526040902054919063ffffffff61309716565b73ffffffffffffffffffffffffffffffffffffffff8085166000908152602081905260408082209390935590841681522054613038908263ffffffff61347016565b73ffffffffffffffffffffffffffffffffffffffff80841660008181526020819052604090819020939093559151908516907fddf252ad1be2c89b69c2b068fc378daa952ba7f163c4a11628f55a4df523b3ef90612eff9085906158f1565b600081848411156130d5576040517f08c379a0000000000000000000000000000000000000000000000000000000008152600401610ea89190615735565b505050900390565b3b151590565b6000826130f257506000610ccf565b828202828482816130ff57fe5b0414610e3a576040517f08c379a0000000000000000000000000000000000000000000000000000000008152600401610ea8906157c6565b6000610e3a83836040518060400160405280601a81526020017f536166654d6174683a206469766973696f6e206279207a65726f0000000000008152506140f6565b60008181613185611963565b90508015613292576131a6600161319a6121da565b9063ffffffff6134af16565b84111561327e576131c26131bd600161319a6121da565b614147565b600c546040517f70a082310000000000000000000000000000000000000000000000000000000081526132779173ffffffffffffffffffffffffffffffffffffffff16906370a082319061321a903090600401615624565b60206040518083038186803b15801561323257600080fd5b505afa158015613246573d6000803e3d6000fd5b505050506040513d601f19601f8201168201806040525061326a9190810190614b41565b839063ffffffff6134af16565b9350613292565b61328784614147565b600192505050611a81565b61329a611716565b90508015613329576132aa612850565b841115613320576132c16132bc612850565b6141bf565b600c546040517f70a082310000000000000000000000000000000000000000000000000000000081526133199173ffffffffffffffffffffffffffffffffffffffff16906370a082319061321a903090600401615624565b9350613329565b613287846141bf565b613331610cd5565b905080156133d957613346600161319a611dcd565b8411156133d05761335a600161319a611dcd565b905061337161336c600161319a611dcd565b6142d4565b600c546040517f70a082310000000000000000000000000000000000000000000000000000000081526133c99173ffffffffffffffffffffffffffffffffffffffff16906370a082319061321a903090600401615624565b93506133d9565b613287816142d4565b6133e16127f9565b90508015610e36576133f16123a6565b841115613467576134086134036123a6565b61434c565b600c546040517f70a082310000000000000000000000000000000000000000000000000000000081526134609173ffffffffffffffffffffffffffffffffffffffff16906370a082319061321a903090600401615624565b9350610e36565b6132878461434c565b600082820183811015610e3a576040517f08c379a0000000000000000000000000000000000000000000000000000000008152600401610ea890615796565b6000610e3a83836040518060400160405280601e81526020017f536166654d6174683a207375627472616374696f6e206f766572666c6f770000815250613097565b6016546017546000916135249173ffffffffffffffffffffffffffffffffffffffff90811691168363ffffffff613db816565b6016546017546135549173ffffffffffffffffffffffffffffffffffffffff91821691168463ffffffff613db816565b60408051600280825260608083018452926020830190803883395050601754825192935073ffffffffffffffffffffffffffffffffffffffff169183915060009061359b57fe5b73ffffffffffffffffffffffffffffffffffffffff92831660209182029290920101526018548251911690829060019081106135d357fe5b73ffffffffffffffffffffffffffffffffffffffff9283166020918202929092010152601654606091166318cbafe585600085306136194261070863ffffffff61347016565b6040518663ffffffff1660e01b815260040161363995949392919061593b565b600060405180830381600087803b15801561365357600080fd5b505af1158015613667573d6000803e3d6000fd5b505050506040513d6000823e601f3d9081017fffffffffffffffffffffffffffffffffffffffffffffffffffffffffffffffe01682016040526136ad9190810190614a26565b9050806001815181106136bc57fe5b602002602001015192505050919050565b60408051600280825260608083018452600093909291906020830190803883395050601854825192935073ffffffffffffffffffffffffffffffffffffffff169183915060009061371a57fe5b73ffffffffffffffffffffffffffffffffffffffff9283166020918202929092010152601a5482519116908290600190811061375257fe5b73ffffffffffffffffffffffffffffffffffffffff928316602091820292909201015260165460609116637ff36ab585600085816137984261070863ffffffff61347016565b6040518663ffffffff1660e01b81526004016137b794939291906158ff565b6000604051808303818588803b1580156137d057600080fd5b505af11580156137e4573d6000803e3d6000fd5b50505050506040513d6000823e601f3d9081017fffffffffffffffffffffffffffffffffffffffffffffffffffffffffffffffe01682016040526136ad9190810190614a26565b6040516123a19084907fa9059cbb00000000000000000000000000000000000000000000000000000000906138669086908690602401615690565b604080517fffffffffffffffffffffffffffffffffffffffffffffffffffffffffffffffe08184030181529190526020810180517bffffffffffffffffffffffffffffffffffffffffffffffffffffffff167fffffffff00000000000000000000000000000000000000000000000000000000909316929092179091526143a2565b60006138f2611963565b9050801561390a5761390a6131bd600161319a6121da565b613912611716565b9050801561393d57613922612850565b81111561393457613931612850565b90505b61393d816141bf565b613945610cd5565b9050801561397a5761395a600161319a611dcd565b8111156139715761396e600161319a611dcd565b90505b61397a816142d4565b6139826127f9565b90508015611916576139926123a6565b8111156139a4576139a16123a6565b90505b6119168161434c565b604080516001808252818301909252606091816020015b6139cc6146e7565b8152602001906001900390816139c457905050905060405180604001604052803073ffffffffffffffffffffffffffffffffffffffff168152602001600081525081600081518110613a1a57fe5b6020026020010181905250613a2d6146fe565b6040805160808101909152600181526020810160008152602001600081526020018490529050613a5b614727565b600081819052506000602082015260408082018390526013546060808401919091523060a0840152815160018082528184019093529091816020015b613a9f614727565b815260200190600190039081613a975790505090508181600081518110613ac257fe5b60209081029190910101526012546040517fa67a6a4500000000000000000000000000000000000000000000000000000000815273ffffffffffffffffffffffffffffffffffffffff9091169063a67a6a4590613b2590879085906004016156c6565b600060405180830381600087803b158015613b3f57600080fd5b505af1158015613b53573d6000803e3d6000fd5b505050505050505050565b600e546040517f40c10f1900000000000000000000000000000000000000000000000000000000815260009173ffffffffffffffffffffffffffffffffffffffff16906340c10f1990613bb79030908690600401615632565b602060405180830381600087803b158015613bd157600080fd5b505af1158015613be5573d6000803e3d6000fd5b505050506040513d601f19601f82011682018060405250613c099190810190614b41565b11611916576040517f08c379a0000000000000000000000000000000000000000000000000000000008152600401610ea890615876565b600d546040517fa0712d6800000000000000000000000000000000000000000000000000000000815273ffffffffffffffffffffffffffffffffffffffff9091169063a0712d6890613c969084906004016158f1565b602060405180830381600087803b158015613cb057600080fd5b505af1158015613cc4573d6000803e3d6000fd5b505050506040513d601f19601f82011682018060405250613ce89190810190614b41565b15611916576040517f08c379a0000000000000000000000000000000000000000000000000000000008152600401610ea890615786565b613d27612ccf565b600c546040517fd2d0e06600000000000000000000000000000000000000000000000000000000815273ffffffffffffffffffffffffffffffffffffffff9283169263d2d0e06692613d8392911690859060009060040161569e565b600060405180830381600087803b158015613d9d57600080fd5b505af1158015613db1573d6000803e3d6000fd5b5050505050565b801580613e6657506040517fdd62ed3e00000000000000000000000000000000000000000000000000000000815273ffffffffffffffffffffffffffffffffffffffff84169063dd62ed3e90613e14903090869060040161564d565b60206040518083038186803b158015613e2c57600080fd5b505afa158015613e40573d6000803e3d6000fd5b505050506040513d601f19601f82011682018060405250613e649190810190614b41565b155b613e9c576040517f08c379a0000000000000000000000000000000000000000000000000000000008152600401610ea8906158a6565b6040516123a19084907f095ea7b300000000000000000000000000000000000000000000000000000000906138669086908690602401615690565b604051613f149085907f23b872dd000000000000000000000000000000000000000000000000000000009061386690879087908790602401615668565b50505050565b73ffffffffffffffffffffffffffffffffffffffff8216613f67576040517f08c379a0000000000000000000000000000000000000000000000000000000008152600401610ea8906158c6565b600254613f7a908263ffffffff61347016565b60025573ffffffffffffffffffffffffffffffffffffffff8216600090815260208190526040902054613fb3908263ffffffff61347016565b73ffffffffffffffffffffffffffffffffffffffff83166000818152602081905260408082209390935591519091907fddf252ad1be2c89b69c2b068fc378daa952ba7f163c4a11628f55a4df523b3ef9061400f9085906158f1565b60405180910390a35050565b73ffffffffffffffffffffffffffffffffffffffff8116614068576040517f08c379a0000000000000000000000000000000000000000000000000000000008152600401610ea890615766565b60075460405173ffffffffffffffffffffffffffffffffffffffff8084169216907f8be0079c531659141344cd1fd0a4f28419497f9722a3daafe3b4186f6b6457e090600090a3600780547fffffffffffffffffffffffff00000000000000000000000000000000000000001673ffffffffffffffffffffffffffffffffffffffff92909216919091179055565b60008183614131576040517f08c379a0000000000000000000000000000000000000000000000000000000008152600401610ea89190615735565b50600083858161413d57fe5b0495945050505050565b6000614151611963565b9050600061415d6121da565b905082811015614199576040517f08c379a0000000000000000000000000000000000000000000000000000000008152600401610ea890615846565b60006141b4600161118e84610f66878963ffffffff6130e316565b9050613f14816144ef565b604080516001808252818301909252606091816020015b6141de6146e7565b8152602001906001900390816141d657905050905060405180604001604052803073ffffffffffffffffffffffffffffffffffffffff16815260200160008152508160008151811061422c57fe5b602002602001018190525061423f6146fe565b604080516080810190915260008082526020820190815260200160008152602001849052905061426d614727565b600181819052506000602082015260408082018390526013546060808401919091523060a0840152815160018082528184019093529091816020015b6142b1614727565b8152602001906001900390816142a95790505090508181600081518110613ac257fe5b60006142de610cd5565b905060006142ea612bfa565b905082811015614326576040517f08c379a0000000000000000000000000000000000000000000000000000000008152600401610ea890615846565b6000614341600161118e84610f66878963ffffffff6130e316565b9050613f14816145ce565b6011546040517fdb006a7500000000000000000000000000000000000000000000000000000000815273ffffffffffffffffffffffffffffffffffffffff9091169063db006a7590613d839084906004016158f1565b6143c18273ffffffffffffffffffffffffffffffffffffffff166146b0565b6143f7576040517f08c379a0000000000000000000000000000000000000000000000000000000008152600401610ea8906158b6565b600060608373ffffffffffffffffffffffffffffffffffffffff168360405161442091906155ff565b6000604051808303816000865af19150503d806000811461445d576040519150601f19603f3d011682016040523d82523d6000602084013e614462565b606091505b50915091508161449e576040517f08c379a0000000000000000000000000000000000000000000000000000000008152600401610ea8906157b6565b805115613f1457808060200190516144b99190810190614a5b565b613f14576040517f08c379a0000000000000000000000000000000000000000000000000000000008152600401610ea890615886565b600d546040517fdb006a7500000000000000000000000000000000000000000000000000000000815273ffffffffffffffffffffffffffffffffffffffff9091169063db006a75906145459084906004016158f1565b602060405180830381600087803b15801561455f57600080fd5b505af1158015614573573d6000803e3d6000fd5b505050506040513d601f19601f820116820180604052506145979190810190614b41565b15611916576040517f08c379a0000000000000000000000000000000000000000000000000000000008152600401610ea890615756565b600e546040517f9dc29fac00000000000000000000000000000000000000000000000000000000815260009173ffffffffffffffffffffffffffffffffffffffff1690639dc29fac906146279030908690600401615632565b602060405180830381600087803b15801561464157600080fd5b505af1158015614655573d6000803e3d6000fd5b505050506040513d601f19601f820116820180604052506146799190810190614b41565b11611916576040517f08c379a0000000000000000000000000000000000000000000000000000000008152600401610ea8906157d6565b6000813f7fc5d2460186f7233c927e7db2dcc703c0e500b653ca82273b7bfad8045d85a4708115801590612bd65750141592915050565b604080518082019091526000808252602082015290565b604080516080810190915260008082526020820190815260200160008152602001600081525090565b6040805161010081018252600080825260208201529081016147476146fe565b81526020016000815260200160008152602001600073ffffffffffffffffffffffffffffffffffffffff16815260200160008152602001606081525090565b8035610ccf81615b4c565b8051610ccf81615b4c565b600082601f8301126147ad57600080fd5b81516147c06147bb826159c3565b61599c565b915081818352602084019350602081019050838560208402820111156147e557600080fd5b60005b8381101561481157816147fb88826148c7565b84525060209283019291909101906001016147e8565b5050505092915050565b8051610ccf81615b60565b600082601f83011261483757600080fd5b81516148456147bb826159e4565b9150808252602083016020830185838301111561486157600080fd5b61486c838284615ada565b50505092915050565b60006040828403121561488757600080fd5b614891604061599c565b9050600061489f848461481b565b82525060206148b0848483016148c7565b60208301525092915050565b8035610ccf81615b69565b8051610ccf81615b69565b6000602082840312156148e457600080fd5b6000612bd68484614786565b60006020828403121561490257600080fd5b6000612bd68484614791565b6000806040838503121561492157600080fd5b600061492d8585614786565b925050602061493e85828601614786565b9150509250929050565b6000806000806080858703121561495e57600080fd5b600061496a8787614786565b945050602061497b87828801614786565b935050604061498c87828801614786565b925050606061499d87828801614786565b91505092959194509250565b6000806000606084860312156149be57600080fd5b60006149ca8686614786565b93505060206149db86828701614786565b92505060406149ec868287016148bc565b9150509250925092565b60008060408385031215614a0957600080fd5b6000614a158585614786565b925050602061493e858286016148bc565b600060208284031215614a3857600080fd5b815167ffffffffffffffff811115614a4f57600080fd5b612bd68482850161479c565b600060208284031215614a6d57600080fd5b6000612bd6848461481b565b600080600080600060a08688031215614a9157600080fd5b855167ffffffffffffffff811115614aa857600080fd5b614ab488828901614826565b9550506020614ac5888289016148c7565b9450506040614ad6888289016148c7565b9350506060614ae7888289016148c7565b9250506080614af8888289016148c7565b9150509295509295909350565b600060408284031215614b1757600080fd5b6000612bd68484614875565b600060208284031215614b3557600080fd5b6000612bd684846148bc565b600060208284031215614b5357600080fd5b6000612bd684846148c7565b600080600060608486031215614b7457600080fd5b6000614b8086866148bc565b93505060206149db868287016148bc565b6000614b9d8383614bd4565b505060200190565b6000610e3a83836154d8565b6000614bbd83836155cd565b505060400190565b614bce81615a91565b82525050565b614bce81615a3d565b6000614be882615a30565b614bf28185615a34565b9350614bfd83615a2a565b8060005b83811015614c2b578151614c158882614b91565b9750614c2083615a2a565b925050600101614c01565b509495945050505050565b6000614c4182615a30565b614c4b8185615a34565b935083602082028501614c5d85615a2a565b8060005b85811015614c975784840389528151614c7a8582614ba5565b9450614c8583615a2a565b60209a909a0199925050600101614c61565b5091979650505050505050565b6000614caf82615a30565b614cb98185615a34565b9350614cc483615a2a565b8060005b83811015614c2b578151614cdc8882614bb1565b9750614ce783615a2a565b925050600101614cc8565b614bce81615a48565b6000614d0682615a30565b614d108185611a81565b9350614d20818560208601615ada565b9290920192915050565b6000614d3582615a30565b614d3f8185615a34565b9350614d4f818560208601615ada565b614d5881615b06565b9093019392505050565b614bce81615a98565b614bce81615aa3565b614bce81615aae565b614bce81615ab9565b614bce81615ac4565b614bce81615acf565b6000614da5602383615a34565b7f45524332303a207472616e7366657220746f20746865207a65726f206164647281527f6573730000000000000000000000000000000000000000000000000000000000602082015260400192915050565b6000614e04601983615a34565b7f434f4d504f554e443a207769746864726177206661696c656400000000000000815260200192915050565b6000614e3d602683615a34565b7f4f776e61626c653a206e6577206f776e657220697320746865207a65726f206181527f6464726573730000000000000000000000000000000000000000000000000000602082015260400192915050565b6000614e9c602283615a34565b7f45524332303a20617070726f766520746f20746865207a65726f20616464726581527f7373000000000000000000000000000000000000000000000000000000000000602082015260400192915050565b6000614efb601783615a34565b7f434f4d504f554e443a20737570706c79206661696c6564000000000000000000815260200192915050565b6000614f34601b83615a34565b7f536166654d6174683a206164646974696f6e206f766572666c6f770000000000815260200192915050565b6000614f6d601c83615a34565b7f446576207472656173757279207472616e73666572206661696c656400000000815260200192915050565b6000614fa6602083615a34565b7f5361666545524332303a206c6f772d6c6576656c2063616c6c206661696c6564815260200192915050565b6000614fdf602183615a34565b7f536166654d6174683a206d756c7469706c69636174696f6e206f766572666c6f81527f7700000000000000000000000000000000000000000000000000000000000000602082015260400192915050565b600061503e601883615a34565b7f46554c4352554d3a207769746864726177206661696c65640000000000000000815260200192915050565b6000615077602083615a34565b7f4f776e61626c653a2063616c6c6572206973206e6f7420746865206f776e6572815260200192915050565b60006150b0603383615a34565b7f436f6e74726163747320617265206e6f7420616c6c6f77656420746f20696e7481527f6572616374207769746820746865206661726d00000000000000000000000000602082015260400192915050565b600061510f601483615a34565b7f696e73756666696369656e742062616c616e6365000000000000000000000000815260200192915050565b6000615148601f83615a34565b7f7769746864726177206d7573742062652067726561746572207468616e203000815260200192915050565b6000615181604583615a34565b7f596f75206d75737420686f6c642061203525206f6620796f7572206465706f7381527f697420696e2059454c4420746f6b656e7320746f2062652061626c6520746f2060208201527f7374616b65000000000000000000000000000000000000000000000000000000604082015260600192915050565b6000615206602583615a34565b7f45524332303a207472616e736665722066726f6d20746865207a65726f20616481527f6472657373000000000000000000000000000000000000000000000000000000602082015260400192915050565b6000610ccf600083611a81565b6000615272601283615a34565b7f696e73756666696369656e742066756e64730000000000000000000000000000815260200192915050565b60006152ab602483615a34565b7f45524332303a20617070726f76652066726f6d20746865207a65726f2061646481527f7265737300000000000000000000000000000000000000000000000000000000602082015260400192915050565b600061530a601e83615a34565b7f6465706f736974206d7573742062652067726561746572207468616e20300000815260200192915050565b6000615343601683615a34565b7f46554c4352554d3a20737570706c79206661696c656400000000000000000000815260200192915050565b600061537c602a83615a34565b7f5361666545524332303a204552433230206f7065726174696f6e20646964206e81527f6f74207375636365656400000000000000000000000000000000000000000000602082015260400192915050565b60006153db601f83615a34565b7f5265656e7472616e637947756172643a207265656e7472616e742063616c6c00815260200192915050565b6000615414603683615a34565b7f5361666545524332303a20617070726f76652066726f6d206e6f6e2d7a65726f81527f20746f206e6f6e2d7a65726f20616c6c6f77616e636500000000000000000000602082015260400192915050565b6000615473601f83615a34565b7f5361666545524332303a2063616c6c20746f206e6f6e2d636f6e747261637400815260200192915050565b60006154ac601f83615a34565b7f45524332303a206d696e7420746f20746865207a65726f206164647265737300815260200192915050565b80516000906101608401906154ed8582614d6b565b50602083015161550060208601826155ed565b5060408301516155136040860182615583565b50606083015161552660c08601826155ed565b50608083015161553960e08601826155ed565b5060a083015161554d610100860182614bd4565b5060c08301516155616101208601826155ed565b5060e083015184820361014086015261557a8282614d2a565b95945050505050565b805160808301906155948482614cf2565b5060208201516155a76020850182614d74565b5060408201516155ba6040850182614d74565b506060820151613f1460608501826155ed565b805160408301906155de8482614bd4565b506020820151613f1460208501825b614bce81610c93565b614bce81615a8b565b6000610e3a8284614cfb565b6000610ccf82615258565b60208101610ccf8284614bd4565b60208101610ccf8284614bc5565b604081016156408285614bc5565b610e3a60208301846155ed565b6040810161565b8285614bd4565b610e3a6020830184614bd4565b606081016156768286614bd4565b6156836020830185614bd4565b612bd660408301846155ed565b604081016156408285614bd4565b606081016156ac8286614bd4565b6156b960208301856155ed565b612bd66040830184614d86565b604080825281016156d78185614ca4565b90508181036020830152612bd68184614c36565b60208101610ccf8284614cf2565b60208101610ccf8284614d62565b60208101610ccf8284614d7d565b604081016157238285614d8f565b8181036020830152612bd68184614bdd565b60208082528101610e3a8184614d2a565b60208082528101610ccf81614d98565b60208082528101610ccf81614df7565b60208082528101610ccf81614e30565b60208082528101610ccf81614e8f565b60208082528101610ccf81614eee565b60208082528101610ccf81614f27565b60208082528101610ccf81614f60565b60208082528101610ccf81614f99565b60208082528101610ccf81614fd2565b60208082528101610ccf81615031565b60208082528101610ccf8161506a565b60208082528101610ccf816150a3565b60208082528101610ccf81615102565b60208082528101610ccf8161513b565b60208082528101610ccf81615174565b60208082528101610ccf816151f9565b60208082528101610ccf81615265565b60208082528101610ccf8161529e565b60208082528101610ccf816152fd565b60208082528101610ccf81615336565b60208082528101610ccf8161536f565b60208082528101610ccf816153ce565b60208082528101610ccf81615407565b60208082528101610ccf81615466565b60208082528101610ccf8161549f565b606081016158e482856155cd565b610e3a60408301846155ed565b60208101610ccf82846155ed565b6080810161590d82876155ed565b818103602083015261591f8186614bdd565b905061592e6040830185614bc5565b61557a60608301846155ed565b60a0810161594982886155ed565b61595660208301876155ed565b81810360408301526159688186614bdd565b90506159776060830185614bc5565b61598460808301846155ed565b9695505050505050565b60208101610ccf82846155f6565b60405181810167ffffffffffffffff811182821017156159bb57600080fd5b604052919050565b600067ffffffffffffffff8211156159da57600080fd5b5060209081020190565b600067ffffffffffffffff8211156159fb57600080fd5b506020601f919091017fffffffffffffffffffffffffffffffffffffffffffffffffffffffffffffffe0160190565b60200190565b5190565b90815260200190565b6000610ccf82615a72565b151590565b80611a8181615b2e565b80611a8181615b38565b80611a8181615b42565b61ffff1690565b73ffffffffffffffffffffffffffffffffffffffff1690565b60ff1690565b6000610ccf825b6000610ccf82615a3d565b6000610ccf82615a4d565b6000610ccf82615a57565b6000610ccf82615a61565b6000610ccf82615a6b565b6000610ccf82610c93565b60005b83811015615af5578181015183820152602001615add565b83811115613f145750506000910152565b601f017fffffffffffffffffffffffffffffffffffffffffffffffffffffffffffffffe01690565b6002811061191657fe5b6001811061191657fe5b6005811061191657fe5b615b5581615a3d565b811461191657600080fd5b615b5581615a48565b615b5581610c9356fe45524332303a207472616e7366657220616d6f756e7420657863656564732062616c616e636545524332303a207472616e7366657220616d6f756e74206578636565647320616c6c6f77616e636545524332303a2064656372656173656420616c6c6f77616e63652062656c6f77207a65726fa365627a7a72315820fb19f1e2b67ff8b75d429034bc78f4e4eb20ec9624df12ffbc0135c8fd68d9ee6c6578706572696d656e74616cf564736f6c63430005110040",
  "source": "pragma solidity 0.5.17;\npragma experimental ABIEncoderV2;\n\nimport './ContractImports.sol';\nimport './CommonFunctionality.sol';\n\ncontract yDAI is ERC20, ERC20Detailed, ReentrancyGuard, Structs, Ownable, CommonFunctionality {\n  using SafeERC20 for IERC20;\n  using Address for address;\n  using SafeMath for uint256;\n\n  uint256 public pool;\n  address public token;\n  address public compound;\n  address public fulcrum;\n  address public aave;\n  address public aavePool;\n  address public aaveToken;\n  address public dydx;\n  uint256 public dToken;\n  address public apr;\n  address public chai;\n  // Add other tokens if implemented for another stablecoin\n  address public uniswapRouter = 0x7a250d5630B4cF539739dF2C5dAcb4c659F2488D;\n  address public dai = 0x6B175474E89094C44Da98b954EedeAC495271d0F;\n  address public weth = 0xC02aaA39b223FE8D0A0e5C4F27eAD9083C756Cc2;\n  address payable public retirementYeldTreasury;\n  IERC20 public yeldToken;\n  uint256 public maximumTokensToBurn = 50000 * 1e18;\n\n  mapping(address => uint256) public depositBlockStarts;\n  mapping(address => uint256) public depositAmount;\n  uint256 public constant oneDayInBlocks = 6500;\n  uint256 public yeldToRewardPerDay = 0e18; // 100 YELD per day per 1 million stablecoins padded with 18 zeroes to have that flexibility\n  uint256 public constant oneMillion = 1e6;\n  uint256 public holdPercentage = 5e18;\n  address public devTreasury;\n\n  enum Lender {\n      NONE,\n      DYDX,\n      COMPOUND,\n      AAVE,\n      FULCRUM\n  }\n\n  Lender public provider = Lender.NONE;\n\n  constructor (address _yeldToken, address payable _retirementYeldTreasury, address _devTreasury) public payable ERC20Detailed(\"yearn DAI\", \"yDAI\", 18) {\n    token = address(0x6B175474E89094C44Da98b954EedeAC495271d0F);\n    apr = address(0xdD6d648C991f7d47454354f4Ef326b04025a48A8);\n    dydx = address(0x1E0447b19BB6EcFdAe1e4AE1694b0C3659614e4e);\n    aave = address(0x24a42fD28C976A61Df5D00D0599C34c4f90748c8);\n    aavePool = address(0x3dfd23A6c5E8BbcFc9581d2E864a68feb6a076d3);\n    fulcrum = address(0x493C57C4763932315A328269E1ADaD09653B9081);\n    aaveToken = address(0xfC1E690f61EFd961294b3e1Ce3313fBD8aa4f85d);\n    compound = address(0x5d3a536E4D6DbD6114cc1Ead35777bAB948E3643);\n    chai = address(0x06AF07097C9Eeb7fD685c692751D5C66dB49c215);\n    dToken = 3;\n    yeldToken = IERC20(_yeldToken);\n    retirementYeldTreasury = _retirementYeldTreasury;\n    devTreasury = _devTreasury;\n    approveToken();\n  }\n\n  // To receive ETH after converting it from DAI\n  function () external payable {}\n\n  function setRetirementYeldTreasury(address payable _treasury) public onlyOwner {\n    retirementYeldTreasury = _treasury;\n  }\n\n  // In case a new uniswap router version is released\n  function setUniswapRouter(address _uniswapRouter) public onlyOwner {\n    uniswapRouter = _uniswapRouter;\n  }\n\n  function setYeldToken(address _yeldToken) public onlyOwner {\n    yeldToken = IERC20(_yeldToken);\n  }\n\n  function extractTokensIfStuck(address _token, uint256 _amount) public onlyOwner {\n    IERC20(_token).transfer(msg.sender, _amount);\n  }\n\n  function extractETHIfStuck() public onlyOwner {\n    owner().transfer(address(this).balance);\n  }\n\n  function changeYeldToRewardPerDay(uint256 _amount) public onlyOwner {\n    yeldToRewardPerDay = _amount;\n  }\n\n  function getGeneratedYelds() public view returns(uint256) {\n    uint256 blocksPassed;\n    if (depositBlockStarts[msg.sender] > 0) {\n      blocksPassed = block.number.sub(depositBlockStarts[msg.sender]);\n    } else {\n      return 0;\n    }\n    uint256 generatedYelds = depositAmount[msg.sender].div(oneMillion).mul(yeldToRewardPerDay).div(1e18).mul(blocksPassed).div(oneDayInBlocks);\n    return generatedYelds;\n  }\n\n  function setHoldPercentage(uint256 _holdPercentage) public onlyOwner {\n    holdPercentage = _holdPercentage;\n  }\n\n  function deposit(uint256 _amount)\n      external\n      nonReentrant\n      noContract\n  {\n    require(_amount > 0, \"deposit must be greater than 0\");\n    uint256 yeldHold = yeldToken.balanceOf(msg.sender);\n    uint256 yeldPriceInDai = getYeldPriceInDai(address(yeldToken), weth, dai, uniswapRouter);\n    uint256 amountPercentage = _amount.mul(holdPercentage).div(1e20);\n    uint256 yeldRequirement = amountPercentage.div(yeldPriceInDai);\n    require(yeldHold >= yeldRequirement, 'You must hold a 5% of your deposit in YELD tokens to be able to stake');\n    pool = calcPoolValueInToken();\n    IERC20(token).safeTransferFrom(msg.sender, address(this), _amount);\n\n    // Yeld\n    depositBlockStarts[msg.sender] = block.number;\n    depositAmount[msg.sender] = depositAmount[msg.sender].add(_amount);\n    // Yeld\n\n    // Calculate pool shares\n    uint256 shares = 0;\n    if (pool == 0) {\n      shares = _amount;\n      pool = _amount;\n    } else {\n      shares = (_amount.mul(_totalSupply)).div(pool);\n    }\n    pool = calcPoolValueInToken();\n    _mint(msg.sender, shares);\n    rebalance();\n  }\n\n  // Converts DAI to ETH and returns how much ETH has been received from Uniswap\n  function daiToETH(uint256 _amount) internal returns(uint256) {\n      IERC20(dai).safeApprove(uniswapRouter, 0);\n      IERC20(dai).safeApprove(uniswapRouter, _amount);\n      address[] memory path = new address[](2);\n      path[0] = dai;\n      path[1] = weth;\n      // swapExactTokensForETH(uint amountIn, uint amountOutMin, address[] calldata path, address to, uint deadline)\n      // 'amounts' is an array where [0] is input DAI amount and [1] is the resulting ETH after the conversion\n      // even tho we've specified the WETH address, we'll receive ETH since that's how it works on uniswap\n      // https://uniswap.org/docs/v2/smart-contracts/router02/#swapexacttokensforeth\n      uint[] memory amounts = IUniswap(uniswapRouter).swapExactTokensForETH(_amount, uint(0), path, address(this), now.add(1800));\n      return amounts[1];\n  }\n\n  // Buys YELD tokens paying in ETH on Uniswap and removes them from circulation\n  // Returns how many YELD tokens have been burned\n  function buyNBurn(uint256 _ethToSwap) internal returns(uint256) {\n    address[] memory path = new address[](2);\n    path[0] = weth;\n    path[1] = address(yeldToken);\n    // Burns the tokens by taking them out of circulation, sending them to the 0x0 address\n    uint[] memory amounts = IUniswap(uniswapRouter).swapExactETHForTokens.value(_ethToSwap)(uint(0), path, address(0), now.add(1800));\n    return amounts[1];\n  }\n\n  // No rebalance implementation for lower fees and faster swaps\n  function withdraw(uint256 _shares)\n      external\n      nonReentrant\n      noContract\n  {\n      require(_shares > 0, \"withdraw must be greater than 0\");\n      uint256 ibalance = balanceOf(msg.sender);\n      require(_shares <= ibalance, \"insufficient balance\");\n      pool = calcPoolValueInToken();\n      // Yeld\n      uint256 generatedYelds = getGeneratedYelds();\n      // Yeld\n      uint256 stablecoinsToWithdraw = (pool.mul(_shares)).div(_totalSupply);\n      _balances[msg.sender] = _balances[msg.sender].sub(_shares, \"redeem amount exceeds balance\");\n      _totalSupply = _totalSupply.sub(_shares, '#1 Total supply sub error');\n      emit Transfer(msg.sender, address(0), _shares);\n      uint256 b = IERC20(token).balanceOf(address(this));\n      if (b < stablecoinsToWithdraw) {\n        _withdrawSome(stablecoinsToWithdraw.sub(b, '#2 Withdraw some sub error'));\n      }\n\n      // Yeld\n      uint256 totalPercentage = percentageRetirementYield.add(percentageDevTreasury).add(percentageBuyBurn);\n      uint256 combined = stablecoinsToWithdraw.mul(totalPercentage).div(1e20);\n      depositBlockStarts[msg.sender] = block.number;\n      depositAmount[msg.sender] = depositAmount[msg.sender].sub(stablecoinsToWithdraw);\n      yeldToken.transfer(msg.sender, generatedYelds);\n\n      // Take a portion of the profits for the buy and burn and retirement yeld\n      // Convert half the DAI earned into ETH for the protocol algorithms\n      uint256 stakingProfits = daiToETH(combined); // 5%\n      uint256 tokensAlreadyBurned = yeldToken.balanceOf(address(0));\n      uint256 devTreasuryAmount = stakingProfits.mul(uint256(100e18).mul(percentageDevTreasury).div(totalPercentage)).div(100e18);\n      if (tokensAlreadyBurned < maximumTokensToBurn) {\n        // buynburn 5% -> 100% so 1% -> 20%\n        uint256 ethToSwap = stakingProfits.mul(uint256(100e18).mul(percentageBuyBurn).div(totalPercentage)).div(100e18);\n        // Buy and burn only applies up to 50k tokens burned\n        buyNBurn(ethToSwap);\n        // RY 1.5% where 5% -> 100% so 1.5% -> 30%\n        uint256 retirementYeld = stakingProfits.mul(uint256(100e18).mul(percentageRetirementYield).div(totalPercentage)).div(100e18);\n        // Send to the treasury\n        retirementYeldTreasury.transfer(retirementYeld);\n      } else {\n        // If we've reached the maximum burn point, send half the profits to the treasury to reward holders\n        uint256 retirementYeld = stakingProfits.sub(devTreasuryAmount);\n        // Send to the treasury\n        retirementYeldTreasury.transfer(retirementYeld);\n      }\n      // DT 2.5% where 5% -> 100% so 2.5% -> 50%\n      (bool success, ) = devTreasury.call.value(devTreasuryAmount)(\"\");\n      require(success, \"Dev treasury transfer failed\");\n      IERC20(token).safeTransfer(msg.sender, stablecoinsToWithdraw.sub(combined));\n      // Yeld\n\n      pool = calcPoolValueInToken();\n      rebalance();\n  }\n\n  function recommend() public view returns (Lender) {\n    (,uint256 capr,uint256 iapr,uint256 aapr,uint256 dapr) = IIEarnManager(apr).recommend(token);\n    uint256 max = 0;\n    if (capr > max) {\n      max = capr;\n    }\n    if (iapr > max) {\n      max = iapr;\n    }\n    if (aapr > max) {\n      max = aapr;\n    }\n    if (dapr > max) {\n      max = dapr;\n    }\n\n    Lender newProvider = Lender.NONE;\n    if (max == capr) {\n      newProvider = Lender.COMPOUND;\n    } else if (max == iapr) {\n      newProvider = Lender.FULCRUM;\n    } else if (max == aapr) {\n      newProvider = Lender.AAVE;\n    } else if (max == dapr) {\n      newProvider = Lender.DYDX;\n    }\n    return newProvider;\n  }\n\n  function getAave() public view returns (address) {\n    return LendingPoolAddressesProvider(aave).getLendingPool();\n  }\n  function getAaveCore() public view returns (address) {\n    return LendingPoolAddressesProvider(aave).getLendingPoolCore();\n  }\n\n  function approveToken() public {\n      IERC20(token).safeApprove(compound, uint(-1));\n      IERC20(token).safeApprove(dydx, uint(-1));\n      IERC20(token).safeApprove(getAaveCore(), uint(-1));\n      IERC20(token).safeApprove(fulcrum, uint(-1));\n  }\n\n  function balance() public view returns (uint256) {\n    return IERC20(token).balanceOf(address(this));\n  }\n  function balanceDydxAvailable() public view returns (uint256) {\n      return IERC20(token).balanceOf(dydx);\n  }\n  function balanceDydx() public view returns (uint256) {\n      Wei memory bal = DyDx(dydx).getAccountWei(Info(address(this), 0), dToken);\n      return bal.value;\n  }\n  function balanceCompound() public view returns (uint256) {\n      return IERC20(compound).balanceOf(address(this));\n  }\n  function balanceCompoundInToken() public view returns (uint256) {\n    // Mantisa 1e18 to decimals\n    uint256 b = balanceCompound();\n    if (b > 0) {\n      b = b.mul(Compound(compound).exchangeRateStored()).div(1e18);\n    }\n    return b;\n  }\n  function balanceFulcrumAvailable() public view returns (uint256) {\n      return IERC20(chai).balanceOf(fulcrum);\n  }\n  function balanceFulcrumInToken() public view returns (uint256) {\n    uint256 b = balanceFulcrum();\n    if (b > 0) {\n      b = Fulcrum(fulcrum).assetBalanceOf(address(this));\n    }\n    return b;\n  }\n  function balanceFulcrum() public view returns (uint256) {\n    return IERC20(fulcrum).balanceOf(address(this));\n  }\n  function balanceAaveAvailable() public view returns (uint256) {\n      return IERC20(token).balanceOf(aavePool);\n  }\n  function balanceAave() public view returns (uint256) {\n    return IERC20(aaveToken).balanceOf(address(this));\n  }\n\n  function rebalance() public {\n    Lender newProvider = recommend();\n\n    if (newProvider != provider) {\n      _withdrawAll();\n    }\n\n    if (balance() > 0) {\n      if (newProvider == Lender.DYDX) {\n        _supplyDydx(balance());\n      } else if (newProvider == Lender.FULCRUM) {\n        _supplyFulcrum(balance());\n      } else if (newProvider == Lender.COMPOUND) {\n        _supplyCompound(balance());\n      } else if (newProvider == Lender.AAVE) {\n        _supplyAave(balance());\n      }\n    }\n\n    provider = newProvider;\n  }\n\n  function _withdrawAll() internal {\n    uint256 amount = balanceCompound();\n    if (amount > 0) {\n      _withdrawSomeCompound(balanceCompoundInToken().sub(1));\n    }\n    amount = balanceDydx();\n    if (amount > 0) {\n      if (amount > balanceDydxAvailable()) {\n        amount = balanceDydxAvailable();\n      }\n      _withdrawDydx(amount);\n    }\n    amount = balanceFulcrum();\n    if (amount > 0) {\n      if (amount > balanceFulcrumAvailable().sub(1)) {\n        amount = balanceFulcrumAvailable().sub(1);\n      }\n      _withdrawSomeFulcrum(amount);\n    }\n    amount = balanceAave();\n    if (amount > 0) {\n      if (amount > balanceAaveAvailable()) {\n        amount = balanceAaveAvailable();\n      }\n      _withdrawAave(amount);\n    }\n  }\n\n  function _withdrawSomeCompound(uint256 _amount) internal {\n    uint256 b = balanceCompound();\n    uint256 bT = balanceCompoundInToken();\n    require(bT >= _amount, \"insufficient funds\");\n    // can have unintentional rounding errors\n    uint256 amount = (b.mul(_amount)).div(bT).add(1);\n    _withdrawCompound(amount);\n  }\n\n  function _withdrawSomeFulcrum(uint256 _amount) internal {\n    uint256 b = balanceFulcrum();\n    uint256 bT = balanceFulcrumInToken();\n    require(bT >= _amount, \"insufficient funds\");\n    // can have unintentional rounding errors\n    uint256 amount = (b.mul(_amount)).div(bT).add(1);\n    _withdrawFulcrum(amount);\n  }\n\n\n  function _withdrawSome(uint256 _amount) internal returns (bool) {\n    uint256 origAmount = _amount;\n\n    uint256 amount = balanceCompound();\n    if (amount > 0) {\n      if (_amount > balanceCompoundInToken().sub(1)) {\n        _withdrawSomeCompound(balanceCompoundInToken().sub(1));\n        _amount = origAmount.sub(IERC20(token).balanceOf(address(this)));\n      } else {\n        _withdrawSomeCompound(_amount);\n        return true;\n      }\n    }\n\n    amount = balanceDydx();\n    if (amount > 0) {\n      if (_amount > balanceDydxAvailable()) {\n        _withdrawDydx(balanceDydxAvailable());\n        _amount = origAmount.sub(IERC20(token).balanceOf(address(this)));\n      } else {\n        _withdrawDydx(_amount);\n        return true;\n      }\n    }\n\n    amount = balanceFulcrum();\n    if (amount > 0) {\n      if (_amount > balanceFulcrumAvailable().sub(1)) {\n        amount = balanceFulcrumAvailable().sub(1);\n        _withdrawSomeFulcrum(balanceFulcrumAvailable().sub(1));\n        _amount = origAmount.sub(IERC20(token).balanceOf(address(this)));\n      } else {\n        _withdrawSomeFulcrum(amount);\n        return true;\n      }\n    }\n\n    amount = balanceAave();\n    if (amount > 0) {\n      if (_amount > balanceAaveAvailable()) {\n        _withdrawAave(balanceAaveAvailable());\n        _amount = origAmount.sub(IERC20(token).balanceOf(address(this)));\n      } else {\n        _withdrawAave(_amount);\n        return true;\n      }\n    }\n\n    return true;\n  }\n\n  function _supplyDydx(uint256 amount) internal {\n      Info[] memory infos = new Info[](1);\n      infos[0] = Info(address(this), 0);\n\n      AssetAmount memory amt = AssetAmount(true, AssetDenomination.Wei, AssetReference.Delta, amount);\n      ActionArgs memory act;\n      act.actionType = ActionType.Deposit;\n      act.accountId = 0;\n      act.amount = amt;\n      act.primaryMarketId = dToken;\n      act.otherAddress = address(this);\n\n      ActionArgs[] memory args = new ActionArgs[](1);\n      args[0] = act;\n\n      DyDx(dydx).operate(infos, args);\n  }\n\n  function _supplyAave(uint amount) internal {\n      Aave(getAave()).deposit(token, amount, 0);\n  }\n  function _supplyFulcrum(uint amount) internal {\n      require(Fulcrum(fulcrum).mint(address(this), amount) > 0, \"FULCRUM: supply failed\");\n  }\n  function _supplyCompound(uint amount) internal {\n      require(Compound(compound).mint(amount) == 0, \"COMPOUND: supply failed\");\n  }\n  function _withdrawAave(uint amount) internal {\n      AToken(aaveToken).redeem(amount);\n  }\n  function _withdrawFulcrum(uint amount) internal {\n      require(Fulcrum(fulcrum).burn(address(this), amount) > 0, \"FULCRUM: withdraw failed\");\n  }\n  function _withdrawCompound(uint amount) internal {\n      require(Compound(compound).redeem(amount) == 0, \"COMPOUND: withdraw failed\");\n  }\n\n  function _withdrawDydx(uint256 amount) internal {\n      Info[] memory infos = new Info[](1);\n      infos[0] = Info(address(this), 0);\n\n      AssetAmount memory amt = AssetAmount(false, AssetDenomination.Wei, AssetReference.Delta, amount);\n      ActionArgs memory act;\n      act.actionType = ActionType.Withdraw;\n      act.accountId = 0;\n      act.amount = amt;\n      act.primaryMarketId = dToken;\n      act.otherAddress = address(this);\n\n      ActionArgs[] memory args = new ActionArgs[](1);\n      args[0] = act;\n\n      DyDx(dydx).operate(infos, args);\n  }\n\n  function calcPoolValueInToken() public view returns (uint) {\n    return balanceCompoundInToken()\n      .add(balanceFulcrumInToken())\n      .add(balanceDydx())\n      .add(balanceAave())\n      .add(balance());\n  }\n\n  function getPricePerFullShare() public view returns (uint) {\n    uint _pool = calcPoolValueInToken();\n    return _pool.mul(1e18).div(_totalSupply);\n  }\n}\n",
  "sourcePath": "C:/Users/merun/Desktop/yeld-contracts/contracts/yDAI.sol",
  "compiler": {
    "name": "solc",
    "version": "0.5.17+commit.d19bba13.Emscripten.clang"
  },
  "schemaVersion": "3.2.2",
  "updatedAt": "2021-01-17T21:33:01.828Z",
  "devdoc": {
    "methods": {}
  },
  "userdoc": {
    "methods": {}
  }
}