{
  "contractName": "yDAI",
  "abi": [
    {
      "inputs": [
        {
          "internalType": "address",
          "name": "_yeldToken",
          "type": "address"
        },
        {
          "internalType": "address payable",
          "name": "_retirementYeldTreasury",
          "type": "address"
        },
        {
          "internalType": "address",
          "name": "_devTreasury",
          "type": "address"
        }
      ],
      "payable": true,
      "stateMutability": "payable",
      "type": "constructor"
    },
    {
      "anonymous": false,
      "inputs": [
        {
          "indexed": true,
          "internalType": "address",
          "name": "owner",
          "type": "address"
        },
        {
          "indexed": true,
          "internalType": "address",
          "name": "spender",
          "type": "address"
        },
        {
          "indexed": false,
          "internalType": "uint256",
          "name": "value",
          "type": "uint256"
        }
      ],
      "name": "Approval",
      "type": "event"
    },
    {
      "anonymous": false,
      "inputs": [
        {
          "indexed": true,
          "internalType": "address",
          "name": "previousOwner",
          "type": "address"
        },
        {
          "indexed": true,
          "internalType": "address",
          "name": "newOwner",
          "type": "address"
        }
      ],
      "name": "OwnershipTransferred",
      "type": "event"
    },
    {
      "anonymous": false,
      "inputs": [
        {
          "indexed": true,
          "internalType": "address",
          "name": "from",
          "type": "address"
        },
        {
          "indexed": true,
          "internalType": "address",
          "name": "to",
          "type": "address"
        },
        {
          "indexed": false,
          "internalType": "uint256",
          "name": "value",
          "type": "uint256"
        }
      ],
      "name": "Transfer",
      "type": "event"
    },
    {
      "payable": true,
      "stateMutability": "payable",
      "type": "fallback"
    },
    {
      "constant": true,
      "inputs": [],
      "name": "aave",
      "outputs": [
        {
          "internalType": "address",
          "name": "",
          "type": "address"
        }
      ],
      "payable": false,
      "stateMutability": "view",
      "type": "function"
    },
    {
      "constant": true,
      "inputs": [],
      "name": "aavePool",
      "outputs": [
        {
          "internalType": "address",
          "name": "",
          "type": "address"
        }
      ],
      "payable": false,
      "stateMutability": "view",
      "type": "function"
    },
    {
      "constant": true,
      "inputs": [],
      "name": "aaveToken",
      "outputs": [
        {
          "internalType": "address",
          "name": "",
          "type": "address"
        }
      ],
      "payable": false,
      "stateMutability": "view",
      "type": "function"
    },
    {
      "constant": true,
      "inputs": [
        {
          "internalType": "address",
          "name": "owner",
          "type": "address"
        },
        {
          "internalType": "address",
          "name": "spender",
          "type": "address"
        }
      ],
      "name": "allowance",
      "outputs": [
        {
          "internalType": "uint256",
          "name": "",
          "type": "uint256"
        }
      ],
      "payable": false,
      "stateMutability": "view",
      "type": "function"
    },
    {
      "constant": false,
      "inputs": [
        {
          "internalType": "address",
          "name": "spender",
          "type": "address"
        },
        {
          "internalType": "uint256",
          "name": "amount",
          "type": "uint256"
        }
      ],
      "name": "approve",
      "outputs": [
        {
          "internalType": "bool",
          "name": "",
          "type": "bool"
        }
      ],
      "payable": false,
      "stateMutability": "nonpayable",
      "type": "function"
    },
    {
      "constant": true,
      "inputs": [],
      "name": "apr",
      "outputs": [
        {
          "internalType": "address",
          "name": "",
          "type": "address"
        }
      ],
      "payable": false,
      "stateMutability": "view",
      "type": "function"
    },
    {
      "constant": true,
      "inputs": [
        {
          "internalType": "address",
          "name": "account",
          "type": "address"
        }
      ],
      "name": "balanceOf",
      "outputs": [
        {
          "internalType": "uint256",
          "name": "",
          "type": "uint256"
        }
      ],
      "payable": false,
      "stateMutability": "view",
      "type": "function"
    },
    {
      "constant": true,
      "inputs": [],
      "name": "chai",
      "outputs": [
        {
          "internalType": "address",
          "name": "",
          "type": "address"
        }
      ],
      "payable": false,
      "stateMutability": "view",
      "type": "function"
    },
    {
      "constant": true,
      "inputs": [],
      "name": "compound",
      "outputs": [
        {
          "internalType": "address",
          "name": "",
          "type": "address"
        }
      ],
      "payable": false,
      "stateMutability": "view",
      "type": "function"
    },
    {
      "constant": true,
      "inputs": [],
      "name": "dToken",
      "outputs": [
        {
          "internalType": "uint256",
          "name": "",
          "type": "uint256"
        }
      ],
      "payable": false,
      "stateMutability": "view",
      "type": "function"
    },
    {
      "constant": true,
      "inputs": [],
      "name": "dai",
      "outputs": [
        {
          "internalType": "address",
          "name": "",
          "type": "address"
        }
      ],
      "payable": false,
      "stateMutability": "view",
      "type": "function"
    },
    {
      "constant": true,
      "inputs": [],
      "name": "decimals",
      "outputs": [
        {
          "internalType": "uint8",
          "name": "",
          "type": "uint8"
        }
      ],
      "payable": false,
      "stateMutability": "view",
      "type": "function"
    },
    {
      "constant": false,
      "inputs": [
        {
          "internalType": "address",
          "name": "spender",
          "type": "address"
        },
        {
          "internalType": "uint256",
          "name": "subtractedValue",
          "type": "uint256"
        }
      ],
      "name": "decreaseAllowance",
      "outputs": [
        {
          "internalType": "bool",
          "name": "",
          "type": "bool"
        }
      ],
      "payable": false,
      "stateMutability": "nonpayable",
      "type": "function"
    },
    {
      "constant": true,
      "inputs": [
        {
          "internalType": "address",
          "name": "",
          "type": "address"
        }
      ],
      "name": "depositAmount",
      "outputs": [
        {
          "internalType": "uint256",
          "name": "",
          "type": "uint256"
        }
      ],
      "payable": false,
      "stateMutability": "view",
      "type": "function"
    },
    {
      "constant": true,
      "inputs": [
        {
          "internalType": "address",
          "name": "",
          "type": "address"
        }
      ],
      "name": "depositBlockStarts",
      "outputs": [
        {
          "internalType": "uint256",
          "name": "",
          "type": "uint256"
        }
      ],
      "payable": false,
      "stateMutability": "view",
      "type": "function"
    },
    {
      "constant": true,
      "inputs": [],
      "name": "devTreasury",
      "outputs": [
        {
          "internalType": "address",
          "name": "",
          "type": "address"
        }
      ],
      "payable": false,
      "stateMutability": "view",
      "type": "function"
    },
    {
      "constant": true,
      "inputs": [],
      "name": "dydx",
      "outputs": [
        {
          "internalType": "address",
          "name": "",
          "type": "address"
        }
      ],
      "payable": false,
      "stateMutability": "view",
      "type": "function"
    },
    {
      "constant": true,
      "inputs": [],
      "name": "fulcrum",
      "outputs": [
        {
          "internalType": "address",
          "name": "",
          "type": "address"
        }
      ],
      "payable": false,
      "stateMutability": "view",
      "type": "function"
    },
    {
      "constant": true,
      "inputs": [
        {
          "internalType": "address",
          "name": "_yeld",
          "type": "address"
        },
        {
          "internalType": "address",
          "name": "_weth",
          "type": "address"
        },
        {
          "internalType": "address",
          "name": "_dai",
          "type": "address"
        },
        {
          "internalType": "address",
          "name": "_uniswap",
          "type": "address"
        }
      ],
      "name": "getYeldPriceInDai",
      "outputs": [
        {
          "internalType": "uint256",
          "name": "",
          "type": "uint256"
        }
      ],
      "payable": false,
      "stateMutability": "view",
      "type": "function"
    },
    {
      "constant": true,
      "inputs": [],
      "name": "holdPercentage",
      "outputs": [
        {
          "internalType": "uint256",
          "name": "",
          "type": "uint256"
        }
      ],
      "payable": false,
      "stateMutability": "view",
      "type": "function"
    },
    {
      "constant": false,
      "inputs": [
        {
          "internalType": "address",
          "name": "spender",
          "type": "address"
        },
        {
          "internalType": "uint256",
          "name": "addedValue",
          "type": "uint256"
        }
      ],
      "name": "increaseAllowance",
      "outputs": [
        {
          "internalType": "bool",
          "name": "",
          "type": "bool"
        }
      ],
      "payable": false,
      "stateMutability": "nonpayable",
      "type": "function"
    },
    {
      "constant": true,
      "inputs": [],
      "name": "isOwner",
      "outputs": [
        {
          "internalType": "bool",
          "name": "",
          "type": "bool"
        }
      ],
      "payable": false,
      "stateMutability": "view",
      "type": "function"
    },
    {
      "constant": true,
      "inputs": [],
      "name": "maximumTokensToBurn",
      "outputs": [
        {
          "internalType": "uint256",
          "name": "",
          "type": "uint256"
        }
      ],
      "payable": false,
      "stateMutability": "view",
      "type": "function"
    },
    {
      "constant": true,
      "inputs": [],
      "name": "name",
      "outputs": [
        {
          "internalType": "string",
          "name": "",
          "type": "string"
        }
      ],
      "payable": false,
      "stateMutability": "view",
      "type": "function"
    },
    {
      "constant": true,
      "inputs": [],
      "name": "oneDayInBlocks",
      "outputs": [
        {
          "internalType": "uint256",
          "name": "",
          "type": "uint256"
        }
      ],
      "payable": false,
      "stateMutability": "view",
      "type": "function"
    },
    {
      "constant": true,
      "inputs": [],
      "name": "oneMillion",
      "outputs": [
        {
          "internalType": "uint256",
          "name": "",
          "type": "uint256"
        }
      ],
      "payable": false,
      "stateMutability": "view",
      "type": "function"
    },
    {
      "constant": true,
      "inputs": [],
      "name": "owner",
      "outputs": [
        {
          "internalType": "address payable",
          "name": "",
          "type": "address"
        }
      ],
      "payable": false,
      "stateMutability": "view",
      "type": "function"
    },
    {
      "constant": true,
      "inputs": [],
      "name": "percentageBuyBurn",
      "outputs": [
        {
          "internalType": "uint256",
          "name": "",
          "type": "uint256"
        }
      ],
      "payable": false,
      "stateMutability": "view",
      "type": "function"
    },
    {
      "constant": true,
      "inputs": [],
      "name": "percentageDevTreasury",
      "outputs": [
        {
          "internalType": "uint256",
          "name": "",
          "type": "uint256"
        }
      ],
      "payable": false,
      "stateMutability": "view",
      "type": "function"
    },
    {
      "constant": true,
      "inputs": [],
      "name": "percentageRetirementYield",
      "outputs": [
        {
          "internalType": "uint256",
          "name": "",
          "type": "uint256"
        }
      ],
      "payable": false,
      "stateMutability": "view",
      "type": "function"
    },
    {
      "constant": true,
      "inputs": [],
      "name": "pool",
      "outputs": [
        {
          "internalType": "uint256",
          "name": "",
          "type": "uint256"
        }
      ],
      "payable": false,
      "stateMutability": "view",
      "type": "function"
    },
    {
      "constant": true,
      "inputs": [],
      "name": "provider",
      "outputs": [
        {
          "internalType": "enum yDAI.Lender",
          "name": "",
          "type": "uint8"
        }
      ],
      "payable": false,
      "stateMutability": "view",
      "type": "function"
    },
    {
      "constant": false,
      "inputs": [],
      "name": "renounceOwnership",
      "outputs": [],
      "payable": false,
      "stateMutability": "nonpayable",
      "type": "function"
    },
    {
      "constant": true,
      "inputs": [],
      "name": "retirementYeldTreasury",
      "outputs": [
        {
          "internalType": "address payable",
          "name": "",
          "type": "address"
        }
      ],
      "payable": false,
      "stateMutability": "view",
      "type": "function"
    },
    {
      "constant": true,
      "inputs": [],
      "name": "symbol",
      "outputs": [
        {
          "internalType": "string",
          "name": "",
          "type": "string"
        }
      ],
      "payable": false,
      "stateMutability": "view",
      "type": "function"
    },
    {
      "constant": true,
      "inputs": [],
      "name": "token",
      "outputs": [
        {
          "internalType": "address",
          "name": "",
          "type": "address"
        }
      ],
      "payable": false,
      "stateMutability": "view",
      "type": "function"
    },
    {
      "constant": true,
      "inputs": [],
      "name": "totalSupply",
      "outputs": [
        {
          "internalType": "uint256",
          "name": "",
          "type": "uint256"
        }
      ],
      "payable": false,
      "stateMutability": "view",
      "type": "function"
    },
    {
      "constant": false,
      "inputs": [
        {
          "internalType": "address",
          "name": "recipient",
          "type": "address"
        },
        {
          "internalType": "uint256",
          "name": "amount",
          "type": "uint256"
        }
      ],
      "name": "transfer",
      "outputs": [
        {
          "internalType": "bool",
          "name": "",
          "type": "bool"
        }
      ],
      "payable": false,
      "stateMutability": "nonpayable",
      "type": "function"
    },
    {
      "constant": false,
      "inputs": [
        {
          "internalType": "address",
          "name": "sender",
          "type": "address"
        },
        {
          "internalType": "address",
          "name": "recipient",
          "type": "address"
        },
        {
          "internalType": "uint256",
          "name": "amount",
          "type": "uint256"
        }
      ],
      "name": "transferFrom",
      "outputs": [
        {
          "internalType": "bool",
          "name": "",
          "type": "bool"
        }
      ],
      "payable": false,
      "stateMutability": "nonpayable",
      "type": "function"
    },
    {
      "constant": false,
      "inputs": [
        {
          "internalType": "address payable",
          "name": "newOwner",
          "type": "address"
        }
      ],
      "name": "transferOwnership",
      "outputs": [],
      "payable": false,
      "stateMutability": "nonpayable",
      "type": "function"
    },
    {
      "constant": true,
      "inputs": [],
      "name": "uniswapRouter",
      "outputs": [
        {
          "internalType": "address",
          "name": "",
          "type": "address"
        }
      ],
      "payable": false,
      "stateMutability": "view",
      "type": "function"
    },
    {
      "constant": false,
      "inputs": [
        {
          "internalType": "uint256",
          "name": "a",
          "type": "uint256"
        },
        {
          "internalType": "uint256",
          "name": "b",
          "type": "uint256"
        },
        {
          "internalType": "uint256",
          "name": "c",
          "type": "uint256"
        }
      ],
      "name": "updatePercentages",
      "outputs": [],
      "payable": false,
      "stateMutability": "nonpayable",
      "type": "function"
    },
    {
      "constant": true,
      "inputs": [],
      "name": "weth",
      "outputs": [
        {
          "internalType": "address",
          "name": "",
          "type": "address"
        }
      ],
      "payable": false,
      "stateMutability": "view",
      "type": "function"
    },
    {
      "constant": true,
      "inputs": [],
      "name": "yeldToRewardPerDay",
      "outputs": [
        {
          "internalType": "uint256",
          "name": "",
          "type": "uint256"
        }
      ],
      "payable": false,
      "stateMutability": "view",
      "type": "function"
    },
    {
      "constant": true,
      "inputs": [],
      "name": "yeldToken",
      "outputs": [
        {
          "internalType": "contract IERC20",
          "name": "",
          "type": "address"
        }
      ],
      "payable": false,
      "stateMutability": "view",
      "type": "function"
    },
    {
      "constant": false,
      "inputs": [
        {
          "internalType": "address payable",
          "name": "_treasury",
          "type": "address"
        }
      ],
      "name": "setRetirementYeldTreasury",
      "outputs": [],
      "payable": false,
      "stateMutability": "nonpayable",
      "type": "function"
    },
    {
      "constant": false,
      "inputs": [
        {
          "internalType": "address",
          "name": "_uniswapRouter",
          "type": "address"
        }
      ],
      "name": "setUniswapRouter",
      "outputs": [],
      "payable": false,
      "stateMutability": "nonpayable",
      "type": "function"
    },
    {
      "constant": false,
      "inputs": [
        {
          "internalType": "address",
          "name": "_yeldToken",
          "type": "address"
        }
      ],
      "name": "setYeldToken",
      "outputs": [],
      "payable": false,
      "stateMutability": "nonpayable",
      "type": "function"
    },
    {
      "constant": false,
      "inputs": [
        {
          "internalType": "address",
          "name": "_token",
          "type": "address"
        },
        {
          "internalType": "uint256",
          "name": "_amount",
          "type": "uint256"
        }
      ],
      "name": "extractTokensIfStuck",
      "outputs": [],
      "payable": false,
      "stateMutability": "nonpayable",
      "type": "function"
    },
    {
      "constant": false,
      "inputs": [],
      "name": "extractETHIfStuck",
      "outputs": [],
      "payable": false,
      "stateMutability": "nonpayable",
      "type": "function"
    },
    {
      "constant": false,
      "inputs": [
        {
          "internalType": "uint256",
          "name": "_amount",
          "type": "uint256"
        }
      ],
      "name": "changeYeldToRewardPerDay",
      "outputs": [],
      "payable": false,
      "stateMutability": "nonpayable",
      "type": "function"
    },
    {
      "constant": true,
      "inputs": [],
      "name": "getGeneratedYelds",
      "outputs": [
        {
          "internalType": "uint256",
          "name": "",
          "type": "uint256"
        }
      ],
      "payable": false,
      "stateMutability": "view",
      "type": "function"
    },
    {
      "constant": false,
      "inputs": [
        {
          "internalType": "uint256",
          "name": "_holdPercentage",
          "type": "uint256"
        }
      ],
      "name": "setHoldPercentage",
      "outputs": [],
      "payable": false,
      "stateMutability": "nonpayable",
      "type": "function"
    },
    {
      "constant": false,
      "inputs": [
        {
          "internalType": "uint256",
          "name": "_amount",
          "type": "uint256"
        }
      ],
      "name": "deposit",
      "outputs": [],
      "payable": false,
      "stateMutability": "nonpayable",
      "type": "function"
    },
    {
      "constant": false,
      "inputs": [
        {
          "internalType": "uint256",
          "name": "_shares",
          "type": "uint256"
        }
      ],
      "name": "withdraw",
      "outputs": [],
      "payable": false,
      "stateMutability": "nonpayable",
      "type": "function"
    },
    {
      "constant": true,
      "inputs": [],
      "name": "recommend",
      "outputs": [
        {
          "internalType": "enum yDAI.Lender",
          "name": "",
          "type": "uint8"
        }
      ],
      "payable": false,
      "stateMutability": "view",
      "type": "function"
    },
    {
      "constant": true,
      "inputs": [],
      "name": "getAave",
      "outputs": [
        {
          "internalType": "address",
          "name": "",
          "type": "address"
        }
      ],
      "payable": false,
      "stateMutability": "view",
      "type": "function"
    },
    {
      "constant": true,
      "inputs": [],
      "name": "getAaveCore",
      "outputs": [
        {
          "internalType": "address",
          "name": "",
          "type": "address"
        }
      ],
      "payable": false,
      "stateMutability": "view",
      "type": "function"
    },
    {
      "constant": false,
      "inputs": [],
      "name": "approveToken",
      "outputs": [],
      "payable": false,
      "stateMutability": "nonpayable",
      "type": "function"
    },
    {
      "constant": true,
      "inputs": [],
      "name": "balance",
      "outputs": [
        {
          "internalType": "uint256",
          "name": "",
          "type": "uint256"
        }
      ],
      "payable": false,
      "stateMutability": "view",
      "type": "function"
    },
    {
      "constant": true,
      "inputs": [],
      "name": "balanceDydxAvailable",
      "outputs": [
        {
          "internalType": "uint256",
          "name": "",
          "type": "uint256"
        }
      ],
      "payable": false,
      "stateMutability": "view",
      "type": "function"
    },
    {
      "constant": true,
      "inputs": [],
      "name": "balanceDydx",
      "outputs": [
        {
          "internalType": "uint256",
          "name": "",
          "type": "uint256"
        }
      ],
      "payable": false,
      "stateMutability": "view",
      "type": "function"
    },
    {
      "constant": true,
      "inputs": [],
      "name": "balanceCompound",
      "outputs": [
        {
          "internalType": "uint256",
          "name": "",
          "type": "uint256"
        }
      ],
      "payable": false,
      "stateMutability": "view",
      "type": "function"
    },
    {
      "constant": true,
      "inputs": [],
      "name": "balanceCompoundInToken",
      "outputs": [
        {
          "internalType": "uint256",
          "name": "",
          "type": "uint256"
        }
      ],
      "payable": false,
      "stateMutability": "view",
      "type": "function"
    },
    {
      "constant": true,
      "inputs": [],
      "name": "balanceFulcrumAvailable",
      "outputs": [
        {
          "internalType": "uint256",
          "name": "",
          "type": "uint256"
        }
      ],
      "payable": false,
      "stateMutability": "view",
      "type": "function"
    },
    {
      "constant": true,
      "inputs": [],
      "name": "balanceFulcrumInToken",
      "outputs": [
        {
          "internalType": "uint256",
          "name": "",
          "type": "uint256"
        }
      ],
      "payable": false,
      "stateMutability": "view",
      "type": "function"
    },
    {
      "constant": true,
      "inputs": [],
      "name": "balanceFulcrum",
      "outputs": [
        {
          "internalType": "uint256",
          "name": "",
          "type": "uint256"
        }
      ],
      "payable": false,
      "stateMutability": "view",
      "type": "function"
    },
    {
      "constant": true,
      "inputs": [],
      "name": "balanceAaveAvailable",
      "outputs": [
        {
          "internalType": "uint256",
          "name": "",
          "type": "uint256"
        }
      ],
      "payable": false,
      "stateMutability": "view",
      "type": "function"
    },
    {
      "constant": true,
      "inputs": [],
      "name": "balanceAave",
      "outputs": [
        {
          "internalType": "uint256",
          "name": "",
          "type": "uint256"
        }
      ],
      "payable": false,
      "stateMutability": "view",
      "type": "function"
    },
    {
      "constant": false,
      "inputs": [],
      "name": "rebalance",
      "outputs": [],
      "payable": false,
      "stateMutability": "nonpayable",
      "type": "function"
    },
    {
      "constant": true,
      "inputs": [],
      "name": "calcPoolValueInToken",
      "outputs": [
        {
          "internalType": "uint256",
          "name": "",
          "type": "uint256"
        }
      ],
      "payable": false,
      "stateMutability": "view",
      "type": "function"
    },
    {
      "constant": true,
      "inputs": [],
      "name": "getPricePerFullShare",
      "outputs": [
        {
          "internalType": "uint256",
          "name": "",
          "type": "uint256"
        }
      ],
      "payable": false,
      "stateMutability": "view",
      "type": "function"
    }
  ],
  "bytecode": "0x608060408190526714d1120d7b1600006008556722b1c8c1227a0000600955670de0b6b3a7640000600a55601680546001600160a01b0319908116737a250d5630b4cf539739df2c5dacb4c659f2488d17909155601780548216736b175474e89094c44da98b954eedeac495271d0f1790556018805490911673c02aaa39b223fe8d0a0e5c4f27ead9083c756cc2179055690a968163f0a57b400000601b556802b5e3af16b1880000601e55674563918244f40000601f556020805460ff60a01b191690556200674038819003908190833981016040819052620000e391620007c6565b6040805180820182526009815268796561726e2044414960b81b6020808301918252835180850190945260048452637944414960e01b908401528151919291601291620001349160039190620006d6565b5081516200014a906004906020850190620006d6565b506005805460ff191660ff9290921691909117905550506001600655620001706200032a565b600780546001600160a01b0319166001600160a01b0392831617908190556040519116906000907f8be0079c531659141344cd1fd0a4f28419497f9722a3daafe3b4186f6b6457e0908290a3600c80546001600160a01b0319908116736b175474e89094c44da98b954eedeac495271d0f1790915560148054821673dd6d648c991f7d47454354f4ef326b04025a48a8179055601280548216731e0447b19bb6ecfdae1e4ae1694b0c3659614e4e179055600f805482167324a42fd28c976a61df5d00d0599c34c4f90748c8179055601080548216733dfd23a6c5e8bbcfc9581d2e864a68feb6a076d3179055600e8054821673493c57c4763932315a328269e1adad09653b908117905560118054821673fc1e690f61efd961294b3e1ce3313fbd8aa4f85d179055600d80548216735d3a536e4d6dbd6114cc1ead35777bab948e36431790556015805482167306af07097c9eeb7fd685c692751d5c66db49c2151790556003601355601a80546001600160a01b0386811691841691909117909155601980548583169084161790556020805491841691909216179055620003216001600160e01b036200032f16565b50505062000afc565b335b90565b600d54600c546200035c916001600160a01b039182169116600019620003f1602090811b62003dc417901c565b601254600c5462000389916001600160a01b039182169116600019620003f1602090811b62003dc417901c565b620003c2620003a06001600160e01b036200050b16565b600c546001600160a01b031690600019620003f1602090811b62003dc417901c565b600e54600c54620003ef916001600160a01b039182169116600019620003f1602090811b62003dc417901c565b565b801580620004805750604051636eb1769f60e11b81526001600160a01b0384169063dd62ed3e906200042a9030908690600401620009e7565b60206040518083038186803b1580156200044357600080fd5b505afa15801562000458573d6000803e3d6000fd5b505050506040513d601f19601f820116820180604052506200047e91908101906200083b565b155b620004a85760405162461bcd60e51b81526004016200049f9062000a49565b60405180910390fd5b6040516200050690849063095ea7b360e01b90620004cd908690869060240162000a06565b60408051808303601f190181529190526020810180516001600160e01b0319939093166001600160e01b03938416179052906200059116565b505050565b600f546040805163076b7fbb60e51b815290516000926001600160a01b03169163ed6ff760916004808301926020929190829003018186803b1580156200055157600080fd5b505afa15801562000566573d6000803e3d6000fd5b505050506040513d601f19601f820116820180604052506200058c9190810190620007a5565b905090565b620005b0826001600160a01b03166200069960201b620046bc1760201c565b620005cf5760405162461bcd60e51b81526004016200049f9062000a5b565b60006060836001600160a01b031683604051620005ed9190620009d2565b6000604051808303816000865af19150503d80600081146200062c576040519150601f19603f3d011682016040523d82523d6000602084013e62000631565b606091505b509150915081620006565760405162461bcd60e51b81526004016200049f9062000a25565b8051156200069357808060200190516200067491908101906200081a565b620006935760405162461bcd60e51b81526004016200049f9062000a37565b50505050565b6000813f7fc5d2460186f7233c927e7db2dcc703c0e500b653ca82273b7bfad8045d85a4708115801590620006ce5750808214155b949350505050565b828054600181600116156101000203166002900490600052602060002090601f016020900481019282601f106200071957805160ff191683800117855562000749565b8280016001018555821562000749579182015b82811115620007495782518255916020019190600101906200072c565b50620007579291506200075b565b5090565b6200032c91905b8082111562000757576000815560010162000762565b8051620007858162000acc565b92915050565b8051620007858162000ae6565b8051620007858162000af1565b600060208284031215620007b857600080fd5b6000620006ce848462000778565b600080600060608486031215620007dc57600080fd5b6000620007ea868662000778565b9350506020620007fd8682870162000778565b9250506040620008108682870162000778565b9150509250925092565b6000602082840312156200082d57600080fd5b6000620006ce84846200078b565b6000602082840312156200084e57600080fd5b6000620006ce848462000798565b620008678162000a7f565b82525050565b60006200087a8262000a6d565b62000886818562000a71565b93506200089881856020860162000a9d565b9290920192915050565b6000620008b160208362000a76565b7f5361666545524332303a206c6f772d6c6576656c2063616c6c206661696c6564815260200192915050565b6000620008ec602a8362000a76565b7f5361666545524332303a204552433230206f7065726174696f6e20646964206e8152691bdd081cdd58d8d9595960b21b602082015260400192915050565b60006200093a60368362000a76565b7f5361666545524332303a20617070726f76652066726f6d206e6f6e2d7a65726f81527f20746f206e6f6e2d7a65726f20616c6c6f77616e636500000000000000000000602082015260400192915050565b60006200099b601f8362000a76565b7f5361666545524332303a2063616c6c20746f206e6f6e2d636f6e747261637400815260200192915050565b62000867816200032c565b6000620009e082846200086d565b9392505050565b60408101620009f782856200085c565b620009e060208301846200085c565b6040810162000a1682856200085c565b620009e06020830184620009c7565b602080825281016200078581620008a2565b602080825281016200078581620008dd565b6020808252810162000785816200092b565b6020808252810162000785816200098c565b5190565b919050565b90815260200190565b6000620007858262000a91565b151590565b6001600160a01b031690565b60005b8381101562000aba57818101518382015260200162000aa0565b83811115620006935750506000910152565b62000ad78162000a7f565b811462000ae357600080fd5b50565b62000ad78162000a8c565b62000ad7816200032c565b615c348062000b0c6000396000f3fe60806040526004361061049b5760003560e01c80638da5cb5b1161025e578063cf8ca42611610143578063f29e15a2116100bb578063f5a41dea1161008a578063f7c1ec771161006f578063f7c1ec7714610b86578063f82ce27d14610b9b578063fc0c546a14610bb05761049b565b8063f5a41dea14610b5c578063f69e204614610b715761049b565b8063f29e15a214610af2578063f2fde38b14610b07578063f34ce4bb14610b27578063f4b9fa7514610b475761049b565b8063e26f21bf11610112578063ebc51160116100f7578063ebc5116014610aa8578063f02fbd4a14610abd578063f2978d9814610add5761049b565b8063e26f21bf14610a68578063eb56faf014610a885761049b565b8063cf8ca42614610a09578063d54e324414610a1e578063d9d7858a14610a33578063dd62ed3e14610a485761049b565b8063a7287971116101d6578063b19ab076116101a5578063b69ef8a81161018a578063b69ef8a8146109b4578063b6b55f25146109c9578063bea9849e146109e95761049b565b8063b19ab0761461098a578063b69d04561461099f5761049b565b8063a728797114610920578063a9059cbb14610935578063a9a1015a14610955578063b098fc80146109755761049b565b806395d89b411161022d578063a03e4bc311610212578063a03e4bc3146108d6578063a160176d146108eb578063a457c2d7146109005761049b565b806395d89b41146108ac57806399b71d5c146108c15761049b565b80638da5cb5b146108585780638e4ec6ef1461086d5780638f32d59b146108825780638f9225ca146108975761049b565b80634fd96cb611610384578063715018a6116102fc5780637b82784c116102cb5780637f50d4d8116102b05780637f50d4d81461080c578063819faf7b1461082e578063858409ba146108435761049b565b80637b82784c146107d75780637d7c2a1c146107f75761049b565b8063715018a6146107835780637354b2e914610798578063735de9f7146107ad57806377c7b8fc146107c25761049b565b806358782c21116103535780636ff2bf08116103385780636ff2bf081461073957806370a082311461074e5780637137ef991461076e5761049b565b806358782c211461070f57806361c1ec55146107245761049b565b80634fd96cb6146106a55780634fe41129146106c557806350f62da7146106da57806357ded9c9146106fa5761049b565b806323b872dd11610417578063313ce567116103e657806339c0a7e1116103cb57806339c0a7e1146106665780633fc8cef31461067b578063413e920d146106905761049b565b8063313ce5671461062457806339509351146106465761049b565b806323b872dd146105af5780632622678c146105cf5780632e1a7d4d146105e45780632eb4520a146106045761049b565b80630eb2a2671161046e57806316f0115b1161045357806316f0115b1461057057806318160ddd14610585578063202a27351461059a5761049b565b80630eb2a2671461053957806310391d251461055b5761049b565b806306a3fe591461049d57806306fdde03146104c8578063085d4883146104ea578063095ea7b31461050c575b005b3480156104a957600080fd5b506104b2610bc5565b6040516104bf9190615622565b60405180910390f35b3480156104d457600080fd5b506104dd610be1565b6040516104bf9190615741565b3480156104f657600080fd5b506104ff610c96565b6040516104bf9190615713565b34801561051857600080fd5b5061052c610527366004614a02565b610cb7565b6040516104bf91906156f7565b34801561054557600080fd5b5061054e610cd5565b6040516104bf91906158fd565b34801561056757600080fd5b5061054e610d81565b34801561057c57600080fd5b5061054e610d87565b34801561059157600080fd5b5061054e610d8d565b3480156105a657600080fd5b5061054e610d93565b3480156105bb57600080fd5b5061052c6105ca3660046149b5565b610d99565b3480156105db57600080fd5b506104b2610e41565b3480156105f057600080fd5b5061049b6105ff366004614b2f565b610e5d565b34801561061057600080fd5b5061049b61061f3660046148de565b61162e565b34801561063057600080fd5b506106396116b3565b6040516104bf919061599a565b34801561065257600080fd5b5061052c610661366004614a02565b6116bc565b34801561067257600080fd5b5061054e61171d565b34801561068757600080fd5b506104b26117ea565b34801561069c57600080fd5b5061054e611806565b3480156106b157600080fd5b5061049b6106c03660046148de565b61180d565b3480156106d157600080fd5b5061049b611892565b3480156106e657600080fd5b5061054e6106f53660046148de565b611920565b34801561070657600080fd5b506104b2611932565b34801561071b57600080fd5b506104b261194e565b34801561073057600080fd5b5061054e61196a565b34801561074557600080fd5b5061054e6119c1565b34801561075a57600080fd5b5061054e6107693660046148de565b611a61565b34801561077a57600080fd5b5061054e611a8d565b34801561078f57600080fd5b5061049b611ac3565b3480156107a457600080fd5b5061054e611b70565b3480156107b957600080fd5b506104b2611b76565b3480156107ce57600080fd5b5061054e611b92565b3480156107e357600080fd5b5061054e6107f23660046148de565b611bc5565b34801561080357600080fd5b5061049b611bd7565b34801561081857600080fd5b50610821611d1e565b6040516104bf9190615705565b34801561083a57600080fd5b506104b2611d3a565b34801561084f57600080fd5b5061054e611d56565b34801561086457600080fd5b506104b2611d5c565b34801561087957600080fd5b506104b2611d78565b34801561088e57600080fd5b5061052c611d94565b3480156108a357600080fd5b5061054e611dd4565b3480156108b857600080fd5b506104dd611e32565b3480156108cd57600080fd5b5061049b611eb1565b3480156108e257600080fd5b506104b2611ff4565b3480156108f757600080fd5b506104ff612010565b34801561090c57600080fd5b5061052c61091b366004614a02565b612166565b34801561092c57600080fd5b5061054e6121e1565b34801561094157600080fd5b5061052c610950366004614a02565b6122b0565b34801561096157600080fd5b5061049b610970366004614a02565b6122c4565b34801561098157600080fd5b5061054e6123ad565b34801561099657600080fd5b506104b261240b565b3480156109ab57600080fd5b506104b2612427565b3480156109c057600080fd5b5061054e612443565b3480156109d557600080fd5b5061049b6109e4366004614b2f565b61249a565b3480156109f557600080fd5b5061049b610a043660046148de565b612628565b348015610a1557600080fd5b5061054e6126ad565b348015610a2a57600080fd5b5061054e612704565b348015610a3f57600080fd5b5061054e612762565b348015610a5457600080fd5b5061054e610a6336600461491a565b612768565b348015610a7457600080fd5b5061049b610a83366004614b2f565b6127a0565b348015610a9457600080fd5b5061049b610aa3366004614b6b565b6127e3565b348015610ab457600080fd5b5061054e61282f565b348015610ac957600080fd5b5061049b610ad8366004614b2f565b612835565b348015610ae957600080fd5b5061054e612878565b348015610afe57600080fd5b5061054e61287e565b348015610b1357600080fd5b5061049b610b223660046148de565b612884565b348015610b3357600080fd5b5061054e610b42366004614954565b6128cb565b348015610b5357600080fd5b506104b2612a92565b348015610b6857600080fd5b5061054e612aae565b348015610b7d57600080fd5b506104b2612b67565b348015610b9257600080fd5b506104b2612b83565b348015610ba757600080fd5b506104b2612c26565b348015610bbc57600080fd5b506104b2612c91565b60115473ffffffffffffffffffffffffffffffffffffffff1681565b60038054604080516020601f60027fffffffffffffffffffffffffffffffffffffffffffffffffffffffffffffffff610100600188161502019095169490940493840181900481028201810190925282815260609390929091830182828015610c8b5780601f10610c6057610100808354040283529160200191610c8b565b820191906000526020600020905b815481529060010190602001808311610c6e57829003601f168201915b505050505090505b90565b60205474010000000000000000000000000000000000000000900460ff1681565b6000610ccb610cc4612cad565b8484612cb1565b5060015b92915050565b600e546040517f70a0823100000000000000000000000000000000000000000000000000000000815260009173ffffffffffffffffffffffffffffffffffffffff16906370a0823190610d2c903090600401615630565b60206040518083038186803b158015610d4457600080fd5b505afa158015610d58573d6000803e3d6000fd5b505050506040513d601f19601f82011682018060405250610d7c9190810190614b4d565b905090565b60095481565b600b5481565b60025490565b601f5481565b6000610da6848484612dc0565b610e3684610db2612cad565b610e3185604051806060016040528060288152602001615ba56028913973ffffffffffffffffffffffffffffffffffffffff8a16600090815260016020526040812090610dfd612cad565b73ffffffffffffffffffffffffffffffffffffffff168152602081019190915260400160002054919063ffffffff612f4b16565b612cb1565b5060015b9392505050565b60195473ffffffffffffffffffffffffffffffffffffffff1681565b6006805460010190819055610e7133612f91565b15610eb1576040517f08c379a0000000000000000000000000000000000000000000000000000000008152600401610ea890615812565b60405180910390fd5b60008211610eeb576040517f08c379a0000000000000000000000000000000000000000000000000000000008152600401610ea890615832565b6000610ef633611a61565b905080831115610f32576040517f08c379a0000000000000000000000000000000000000000000000000000000008152600401610ea890615822565b610f3a611a8d565b600b556000610f476119c1565b90506000610f72600254610f6687600b54612f9790919063ffffffff16565b9063ffffffff612feb16565b9050610f7d8161302d565b604080518082018252601d81527f72656465656d20616d6f756e7420657863656564732062616c616e6365000000602080830191909152336000908152908190529190912054610fd491879063ffffffff612f4b16565b3360009081526020818152604091829020929092558051808201909152601981527f233120546f74616c20737570706c7920737562206572726f72000000000000009181019190915260025461103191879063ffffffff612f4b16565b60025560405160009033907fddf252ad1be2c89b69c2b068fc378daa952ba7f163c4a11628f55a4df523b3ef906110699089906158fd565b60405180910390a3600c546040517f70a0823100000000000000000000000000000000000000000000000000000000815260009173ffffffffffffffffffffffffffffffffffffffff16906370a08231906110c8903090600401615630565b60206040518083038186803b1580156110e057600080fd5b505afa1580156110f4573d6000803e3d6000fd5b505050506040513d601f19601f820116820180604052506111189190810190614b4d565b9050818110156111765761117461116f826040518060400160405280601a81526020017f233220576974686472617720736f6d6520737562206572726f7200000000000081525085612f4b9092919063ffffffff16565b61318c565b505b60006111a1600a5461119560095460085461348390919063ffffffff16565b9063ffffffff61348316565b905060006111c268056bc75e2d63100000610f66868563ffffffff612f9716565b336000908152601c60209081526040808320439055601d9091529020549091506111f2908563ffffffff6134c216565b336000818152601d60205260409081902092909255601a5491517fa9059cbb00000000000000000000000000000000000000000000000000000000815273ffffffffffffffffffffffffffffffffffffffff9092169163a9059cbb9161125c91899060040161563e565b602060405180830381600087803b15801561127657600080fd5b505af115801561128a573d6000803e3d6000fd5b505050506040513d601f19601f820116820180604052506112ae9190810190614a67565b5060006112ba82613504565b601a546040517f70a0823100000000000000000000000000000000000000000000000000000000815291925060009173ffffffffffffffffffffffffffffffffffffffff909116906370a0823190611316908490600401615630565b60206040518083038186803b15801561132e57600080fd5b505afa158015611342573d6000803e3d6000fd5b505050506040513d601f19601f820116820180604052506113669190810190614b4d565b905060006113a968056bc75e2d63100000610f6661139c88610f6660095468056bc75e2d63100000612f9790919063ffffffff16565b869063ffffffff612f9716565b9050601b548210156114935760006113f668056bc75e2d63100000610f666113e989610f66600a5468056bc75e2d63100000612f9790919063ffffffff16565b879063ffffffff612f9716565b9050611401816136e0565b50600061144368056bc75e2d63100000610f666114368a610f6660085468056bc75e2d63100000612f9790919063ffffffff16565b889063ffffffff612f9716565b60195460405191925073ffffffffffffffffffffffffffffffffffffffff169082156108fc029083906000818181858888f1935050505015801561148b573d6000803e3d6000fd5b5050506114f0565b60006114a5848363ffffffff6134c216565b60195460405191925073ffffffffffffffffffffffffffffffffffffffff169082156108fc029083906000818181858888f193505050501580156114ed573d6000803e3d6000fd5b50505b60205460405160009173ffffffffffffffffffffffffffffffffffffffff1690839061151b90615617565b60006040518083038185875af1925050503d8060008114611558576040519150601f19603f3d011682016040523d82523d6000602084013e61155d565b606091505b5050905080611598576040517f08c379a0000000000000000000000000000000000000000000000000000000008152600401610ea8906157c2565b6115d2336115ac8a8863ffffffff6134c216565b600c5473ffffffffffffffffffffffffffffffffffffffff16919063ffffffff61383e16565b6115da611a8d565b600b556115e5611bd7565b50505050505050505050600654811461162a576040517f08c379a0000000000000000000000000000000000000000000000000000000008152600401610ea8906158a2565b5050565b611636611d94565b61166c576040517f08c379a0000000000000000000000000000000000000000000000000000000008152600401610ea890615802565b601980547fffffffffffffffffffffffff00000000000000000000000000000000000000001673ffffffffffffffffffffffffffffffffffffffff92909216919091179055565b60055460ff1690565b6000610ccb6116c9612cad565b84610e3185600160006116da612cad565b73ffffffffffffffffffffffffffffffffffffffff908116825260208083019390935260409182016000908120918c16815292529020549063ffffffff61348316565b60006117276146f3565b6012546040805180820182523081526000602082015260135491517fc190c2ec00000000000000000000000000000000000000000000000000000000815273ffffffffffffffffffffffffffffffffffffffff9093169263c190c2ec9261179192916004016158e2565b604080518083038186803b1580156117a857600080fd5b505afa1580156117bc573d6000803e3d6000fd5b505050506040513d601f19601f820116820180604052506117e09190810190614b11565b6020015191505090565b60185473ffffffffffffffffffffffffffffffffffffffff1681565b620f424081565b611815611d94565b61184b576040517f08c379a0000000000000000000000000000000000000000000000000000000008152600401610ea890615802565b601a80547fffffffffffffffffffffffff00000000000000000000000000000000000000001673ffffffffffffffffffffffffffffffffffffffff92909216919091179055565b61189a611d94565b6118d0576040517f08c379a0000000000000000000000000000000000000000000000000000000008152600401610ea890615802565b6118d8611d5c565b73ffffffffffffffffffffffffffffffffffffffff166108fc479081150290604051600060405180830381858888f1935050505015801561191d573d6000803e3d6000fd5b50565b601d6020526000908152604090205481565b60145473ffffffffffffffffffffffffffffffffffffffff1681565b600e5473ffffffffffffffffffffffffffffffffffffffff1681565b600d546040517f70a0823100000000000000000000000000000000000000000000000000000000815260009173ffffffffffffffffffffffffffffffffffffffff16906370a0823190610d2c903090600401615630565b336000908152601c6020526040812054819015611a0057336000908152601c60205260409020546119f990439063ffffffff6134c216565b9050611a0a565b6000915050610c93565b601e54336000908152601d60205260408120549091611a5a9161196491610f66918691611a4e91670de0b6b3a76400009185918490620f424063ffffffff612feb16565b9063ffffffff612f9716565b9250505090565b73ffffffffffffffffffffffffffffffffffffffff81166000908152602081905260409020545b919050565b6000610d7c611a9a612443565b611195611aa56126ad565b611195611ab061171d565b611195611abb612aae565b6111956121e1565b611acb611d94565b611b01576040517f08c379a0000000000000000000000000000000000000000000000000000000008152600401610ea890615802565b60075460405160009173ffffffffffffffffffffffffffffffffffffffff16907f8be0079c531659141344cd1fd0a4f28419497f9722a3daafe3b4186f6b6457e0908390a3600780547fffffffffffffffffffffffff0000000000000000000000000000000000000000169055565b60085481565b60165473ffffffffffffffffffffffffffffffffffffffff1681565b600080611b9d611a8d565b600254909150611bbf90610f6683670de0b6b3a764000063ffffffff612f9716565b91505090565b601c6020526000908152604090205481565b6000611be1612010565b60205490915074010000000000000000000000000000000000000000900460ff166004811115611c0d57fe5b816004811115611c1957fe5b14611c2657611c266138fb565b6000611c30612443565b1115611ccb576001816004811115611c4457fe5b1415611c5f57611c5a611c55612443565b6139c0565b611ccb565b6004816004811115611c6d57fe5b1415611c8357611c5a611c7e612443565b613b71565b6002816004811115611c9157fe5b1415611ca757611c5a611ca2612443565b613c53565b6003816004811115611cb557fe5b1415611ccb57611ccb611cc6612443565b613d32565b602080548291907fffffffffffffffffffffff00ffffffffffffffffffffffffffffffffffffffff1674010000000000000000000000000000000000000000836004811115611d1657fe5b021790555050565b601a5473ffffffffffffffffffffffffffffffffffffffff1681565b600f5473ffffffffffffffffffffffffffffffffffffffff1681565b600a5481565b60075473ffffffffffffffffffffffffffffffffffffffff1690565b60125473ffffffffffffffffffffffffffffffffffffffff1681565b60075460009073ffffffffffffffffffffffffffffffffffffffff16611db8612cad565b73ffffffffffffffffffffffffffffffffffffffff1614905090565b601554600e546040517f70a0823100000000000000000000000000000000000000000000000000000000815260009273ffffffffffffffffffffffffffffffffffffffff908116926370a0823192610d2c9290911690600401615622565b60048054604080516020601f60027fffffffffffffffffffffffffffffffffffffffffffffffffffffffffffffffff610100600188161502019095169490940493840181900481028201810190925282815260609390929091830182828015610c8b5780601f10610c6057610100808354040283529160200191610c8b565b600d54600c54611f019173ffffffffffffffffffffffffffffffffffffffff91821691167fffffffffffffffffffffffffffffffffffffffffffffffffffffffffffffffff63ffffffff613dc416565b601254600c54611f519173ffffffffffffffffffffffffffffffffffffffff91821691167fffffffffffffffffffffffffffffffffffffffffffffffffffffffffffffffff63ffffffff613dc416565b611fa2611f5c612c26565b600c5473ffffffffffffffffffffffffffffffffffffffff16907fffffffffffffffffffffffffffffffffffffffffffffffffffffffffffffffff63ffffffff613dc416565b600e54600c54611ff29173ffffffffffffffffffffffffffffffffffffffff91821691167fffffffffffffffffffffffffffffffffffffffffffffffffffffffffffffffff63ffffffff613dc416565b565b60105473ffffffffffffffffffffffffffffffffffffffff1681565b601454600c546040517fd88be3c0000000000000000000000000000000000000000000000000000000008152600092839283928392839273ffffffffffffffffffffffffffffffffffffffff9182169263d88be3c092612074921690600401615622565b60006040518083038186803b15801561208c57600080fd5b505afa1580156120a0573d6000803e3d6000fd5b505050506040513d6000823e601f3d9081017fffffffffffffffffffffffffffffffffffffffffffffffffffffffffffffffe01682016040526120e69190810190614a85565b929750909550935091506000905084156120fd5750835b808411156121085750825b808311156121135750815b8082111561211e5750805b6000818614156121305750600261215c565b848214156121405750600461215c565b838214156121505750600361215c565b8282141561215c575060015b9550505050505090565b6000610ccb612173612cad565b84610e3185604051806060016040528060258152602001615bcd602591396001600061219d612cad565b73ffffffffffffffffffffffffffffffffffffffff908116825260208083019390935260409182016000908120918d1681529252902054919063ffffffff612f4b16565b6000806121ec61196a565b90508015610d7c57610ccf670de0b6b3a7640000610f66600d60009054906101000a900473ffffffffffffffffffffffffffffffffffffffff1673ffffffffffffffffffffffffffffffffffffffff1663182df0f56040518163ffffffff1660e01b815260040160206040518083038186803b15801561226b57600080fd5b505afa15801561227f573d6000803e3d6000fd5b505050506040513d601f19601f820116820180604052506122a39190810190614b4d565b849063ffffffff612f9716565b6000610ccb6122bd612cad565b8484612dc0565b6122cc611d94565b612302576040517f08c379a0000000000000000000000000000000000000000000000000000000008152600401610ea890615802565b6040517fa9059cbb00000000000000000000000000000000000000000000000000000000815273ffffffffffffffffffffffffffffffffffffffff83169063a9059cbb90612356903390859060040161563e565b602060405180830381600087803b15801561237057600080fd5b505af1158015612384573d6000803e3d6000fd5b505050506040513d601f19601f820116820180604052506123a89190810190614a67565b505050565b600c546010546040517f70a0823100000000000000000000000000000000000000000000000000000000815260009273ffffffffffffffffffffffffffffffffffffffff908116926370a0823192610d2c9290911690600401615622565b60205473ffffffffffffffffffffffffffffffffffffffff1681565b60155473ffffffffffffffffffffffffffffffffffffffff1681565b600c546040517f70a0823100000000000000000000000000000000000000000000000000000000815260009173ffffffffffffffffffffffffffffffffffffffff16906370a0823190610d2c903090600401615630565b60068054600101908190556124ae33612f91565b156124e5576040517f08c379a0000000000000000000000000000000000000000000000000000000008152600401610ea890615812565b6000821161251f576040517f08c379a0000000000000000000000000000000000000000000000000000000008152600401610ea890615872565b6125288261302d565b612530611a8d565b600b55600c5461255e9073ffffffffffffffffffffffffffffffffffffffff1633308563ffffffff613ee316565b336000908152601c60209081526040808320439055601d90915290205461258b908363ffffffff61348316565b336000908152601d6020526040812091909155600b546125b15750600b829055816125cf565b6125cc600b54610f6660025486612f9790919063ffffffff16565b90505b6125d7611a8d565b600b556125e43382613f26565b6125ec611bd7565b50600654811461162a576040517f08c379a0000000000000000000000000000000000000000000000000000000008152600401610ea8906158a2565b612630611d94565b612666576040517f08c379a0000000000000000000000000000000000000000000000000000000008152600401610ea890615802565b601680547fffffffffffffffffffffffff00000000000000000000000000000000000000001673ffffffffffffffffffffffffffffffffffffffff92909216919091179055565b6011546040517f70a0823100000000000000000000000000000000000000000000000000000000815260009173ffffffffffffffffffffffffffffffffffffffff16906370a0823190610d2c903090600401615630565b600c546012546040517f70a0823100000000000000000000000000000000000000000000000000000000815260009273ffffffffffffffffffffffffffffffffffffffff908116926370a0823192610d2c9290911690600401615622565b60135481565b73ffffffffffffffffffffffffffffffffffffffff918216600090815260016020908152604080832093909416825291909152205490565b6127a8611d94565b6127de576040517f08c379a0000000000000000000000000000000000000000000000000000000008152600401610ea890615802565b601f55565b6127eb611d94565b612821576040517f08c379a0000000000000000000000000000000000000000000000000000000008152600401610ea890615802565b600892909255600955600a55565b601e5481565b61283d611d94565b612873576040517f08c379a0000000000000000000000000000000000000000000000000000000008152600401610ea890615802565b601e55565b61196481565b601b5481565b61288c611d94565b6128c2576040517f08c379a0000000000000000000000000000000000000000000000000000000008152600401610ea890615802565b61191d81614027565b604080516003808252608082019092526000916060919060208201838038833901905050905085816000815181106128ff57fe5b602002602001019073ffffffffffffffffffffffffffffffffffffffff16908173ffffffffffffffffffffffffffffffffffffffff1681525050848160018151811061294757fe5b602002602001019073ffffffffffffffffffffffffffffffffffffffff16908173ffffffffffffffffffffffffffffffffffffffff1681525050838160028151811061298f57fe5b73ffffffffffffffffffffffffffffffffffffffff92831660209182029290920101526040517fd06ca61f00000000000000000000000000000000000000000000000000000000815260609185169063d06ca61f906129fc90670de0b6b3a7640000908690600401615721565b60006040518083038186803b158015612a1457600080fd5b505afa158015612a28573d6000803e3d6000fd5b505050506040513d6000823e601f3d9081017fffffffffffffffffffffffffffffffffffffffffffffffffffffffffffffffe0168201604052612a6e9190810190614a32565b905080600281518110612a7d57fe5b6020026020010151925050505b949350505050565b60175473ffffffffffffffffffffffffffffffffffffffff1681565b600080612ab9610cd5565b90508015610d7c57600e546040517f06b3efd600000000000000000000000000000000000000000000000000000000815273ffffffffffffffffffffffffffffffffffffffff909116906306b3efd690612b17903090600401615630565b60206040518083038186803b158015612b2f57600080fd5b505afa158015612b43573d6000803e3d6000fd5b505050506040513d601f19601f82011682018060405250610ccf9190810190614b4d565b600d5473ffffffffffffffffffffffffffffffffffffffff1681565b600f54604080517f0261bf8b000000000000000000000000000000000000000000000000000000008152905160009273ffffffffffffffffffffffffffffffffffffffff1691630261bf8b916004808301926020929190829003018186803b158015612bee57600080fd5b505afa158015612c02573d6000803e3d6000fd5b505050506040513d601f19601f82011682018060405250610d7c91908101906148fc565b600f54604080517fed6ff760000000000000000000000000000000000000000000000000000000008152905160009273ffffffffffffffffffffffffffffffffffffffff169163ed6ff760916004808301926020929190829003018186803b158015612bee57600080fd5b600c5473ffffffffffffffffffffffffffffffffffffffff1681565b3390565b73ffffffffffffffffffffffffffffffffffffffff8316612cfe576040517f08c379a0000000000000000000000000000000000000000000000000000000008152600401610ea890615862565b73ffffffffffffffffffffffffffffffffffffffff8216612d4b576040517f08c379a0000000000000000000000000000000000000000000000000000000008152600401610ea890615792565b73ffffffffffffffffffffffffffffffffffffffff80841660008181526001602090815260408083209487168084529490915290819020849055517f8c5be1e5ebec7d5bd14f71427d1e84f3dd0314c0f7b2291e5b200ac8c7c3b92590612db39085906158fd565b60405180910390a3505050565b73ffffffffffffffffffffffffffffffffffffffff8316612e0d576040517f08c379a0000000000000000000000000000000000000000000000000000000008152600401610ea890615842565b73ffffffffffffffffffffffffffffffffffffffff8216612e5a576040517f08c379a0000000000000000000000000000000000000000000000000000000008152600401610ea890615752565b612eaa81604051806060016040528060268152602001615b7f6026913973ffffffffffffffffffffffffffffffffffffffff8616600090815260208190526040902054919063ffffffff612f4b16565b73ffffffffffffffffffffffffffffffffffffffff8085166000908152602081905260408082209390935590841681522054612eec908263ffffffff61348316565b73ffffffffffffffffffffffffffffffffffffffff80841660008181526020819052604090819020939093559151908516907fddf252ad1be2c89b69c2b068fc378daa952ba7f163c4a11628f55a4df523b3ef90612db39085906158fd565b60008184841115612f89576040517f08c379a0000000000000000000000000000000000000000000000000000000008152600401610ea89190615741565b505050900390565b3b151590565b600082612fa657506000610ccf565b82820282848281612fb357fe5b0414610e3a576040517f08c379a0000000000000000000000000000000000000000000000000000000008152600401610ea8906157e2565b6000610e3a83836040518060400160405280601a81526020017f536166654d6174683a206469766973696f6e206279207a65726f000000000000815250614102565b601a546040517f70a0823100000000000000000000000000000000000000000000000000000000815260009173ffffffffffffffffffffffffffffffffffffffff16906370a0823190613084903390600401615630565b60206040518083038186803b15801561309c57600080fd5b505afa1580156130b0573d6000803e3d6000fd5b505050506040513d601f19601f820116820180604052506130d49190810190614b4d565b601a5460185460175460165493945060009361310f9373ffffffffffffffffffffffffffffffffffffffff90811693811692811691166128cb565b9050600061313568056bc75e2d63100000610f66601f5487612f9790919063ffffffff16565b90506000613149828463ffffffff612feb16565b905080841015613185576040517f08c379a0000000000000000000000000000000000000000000000000000000008152600401610ea890615762565b5050505050565b6000818161319861196a565b905080156132a5576131b960016131ad6121e1565b9063ffffffff6134c216565b841115613291576131d56131d060016131ad6121e1565b614153565b600c546040517f70a0823100000000000000000000000000000000000000000000000000000000815261328a9173ffffffffffffffffffffffffffffffffffffffff16906370a082319061322d903090600401615630565b60206040518083038186803b15801561324557600080fd5b505afa158015613259573d6000803e3d6000fd5b505050506040513d601f19601f8201168201806040525061327d9190810190614b4d565b839063ffffffff6134c216565b93506132a5565b61329a84614153565b600192505050611a88565b6132ad61171d565b9050801561333c576132bd612704565b841115613333576132d46132cf612704565b6141cb565b600c546040517f70a0823100000000000000000000000000000000000000000000000000000000815261332c9173ffffffffffffffffffffffffffffffffffffffff16906370a082319061322d903090600401615630565b935061333c565b61329a846141cb565b613344610cd5565b905080156133ec5761335960016131ad611dd4565b8411156133e35761336d60016131ad611dd4565b905061338461337f60016131ad611dd4565b6142e0565b600c546040517f70a082310000000000000000000000000000000000000000000000000000000081526133dc9173ffffffffffffffffffffffffffffffffffffffff16906370a082319061322d903090600401615630565b93506133ec565b61329a816142e0565b6133f46126ad565b90508015610e36576134046123ad565b84111561347a5761341b6134166123ad565b614358565b600c546040517f70a082310000000000000000000000000000000000000000000000000000000081526134739173ffffffffffffffffffffffffffffffffffffffff16906370a082319061322d903090600401615630565b9350610e36565b61329a84614358565b600082820183811015610e3a576040517f08c379a0000000000000000000000000000000000000000000000000000000008152600401610ea8906157b2565b6000610e3a83836040518060400160405280601e81526020017f536166654d6174683a207375627472616374696f6e206f766572666c6f770000815250612f4b565b6016546017546000916135379173ffffffffffffffffffffffffffffffffffffffff90811691168363ffffffff613dc416565b6016546017546135679173ffffffffffffffffffffffffffffffffffffffff91821691168463ffffffff613dc416565b60408051600280825260608083018452926020830190803883395050601754825192935073ffffffffffffffffffffffffffffffffffffffff16918391506000906135ae57fe5b73ffffffffffffffffffffffffffffffffffffffff92831660209182029290920101526018548251911690829060019081106135e657fe5b73ffffffffffffffffffffffffffffffffffffffff9283166020918202929092010152601654606091166318cbafe5856000853061362c4261070863ffffffff61348316565b6040518663ffffffff1660e01b815260040161364c959493929190615947565b600060405180830381600087803b15801561366657600080fd5b505af115801561367a573d6000803e3d6000fd5b505050506040513d6000823e601f3d9081017fffffffffffffffffffffffffffffffffffffffffffffffffffffffffffffffe01682016040526136c09190810190614a32565b9050806001815181106136cf57fe5b602002602001015192505050919050565b60408051600280825260608083018452600093909291906020830190803883395050601854825192935073ffffffffffffffffffffffffffffffffffffffff169183915060009061372d57fe5b73ffffffffffffffffffffffffffffffffffffffff9283166020918202929092010152601a5482519116908290600190811061376557fe5b73ffffffffffffffffffffffffffffffffffffffff928316602091820292909201015260165460609116637ff36ab585600085816137ab4261070863ffffffff61348316565b6040518663ffffffff1660e01b81526004016137ca949392919061590b565b6000604051808303818588803b1580156137e357600080fd5b505af11580156137f7573d6000803e3d6000fd5b50505050506040513d6000823e601f3d9081017fffffffffffffffffffffffffffffffffffffffffffffffffffffffffffffffe01682016040526136c09190810190614a32565b6040516123a89084907fa9059cbb0000000000000000000000000000000000000000000000000000000090613879908690869060240161569c565b604080517fffffffffffffffffffffffffffffffffffffffffffffffffffffffffffffffe08184030181529190526020810180517bffffffffffffffffffffffffffffffffffffffffffffffffffffffff167fffffffff00000000000000000000000000000000000000000000000000000000909316929092179091526143ae565b600061390561196a565b9050801561391d5761391d6131d060016131ad6121e1565b61392561171d565b9050801561395057613935612704565b81111561394757613944612704565b90505b613950816141cb565b613958610cd5565b9050801561398d5761396d60016131ad611dd4565b8111156139845761398160016131ad611dd4565b90505b61398d816142e0565b6139956126ad565b9050801561191d576139a56123ad565b8111156139b7576139b46123ad565b90505b61191d81614358565b604080516001808252818301909252606091816020015b6139df6146f3565b8152602001906001900390816139d757905050905060405180604001604052803073ffffffffffffffffffffffffffffffffffffffff168152602001600081525081600081518110613a2d57fe5b6020026020010181905250613a4061470a565b6040805160808101909152600181526020810160008152602001600081526020018490529050613a6e614733565b600081819052506000602082015260408082018390526013546060808401919091523060a0840152815160018082528184019093529091816020015b613ab2614733565b815260200190600190039081613aaa5790505090508181600081518110613ad557fe5b60209081029190910101526012546040517fa67a6a4500000000000000000000000000000000000000000000000000000000815273ffffffffffffffffffffffffffffffffffffffff9091169063a67a6a4590613b3890879085906004016156d2565b600060405180830381600087803b158015613b5257600080fd5b505af1158015613b66573d6000803e3d6000fd5b505050505050505050565b600e546040517f40c10f1900000000000000000000000000000000000000000000000000000000815260009173ffffffffffffffffffffffffffffffffffffffff16906340c10f1990613bca903090869060040161563e565b602060405180830381600087803b158015613be457600080fd5b505af1158015613bf8573d6000803e3d6000fd5b505050506040513d601f19601f82011682018060405250613c1c9190810190614b4d565b1161191d576040517f08c379a0000000000000000000000000000000000000000000000000000000008152600401610ea890615882565b600d546040517fa0712d6800000000000000000000000000000000000000000000000000000000815273ffffffffffffffffffffffffffffffffffffffff9091169063a0712d6890613ca99084906004016158fd565b602060405180830381600087803b158015613cc357600080fd5b505af1158015613cd7573d6000803e3d6000fd5b505050506040513d601f19601f82011682018060405250613cfb9190810190614b4d565b1561191d576040517f08c379a0000000000000000000000000000000000000000000000000000000008152600401610ea8906157a2565b613d3a612b83565b600c546040517fd2d0e06600000000000000000000000000000000000000000000000000000000815273ffffffffffffffffffffffffffffffffffffffff9283169263d2d0e06692613d969291169085906000906004016156aa565b600060405180830381600087803b158015613db057600080fd5b505af1158015613185573d6000803e3d6000fd5b801580613e7257506040517fdd62ed3e00000000000000000000000000000000000000000000000000000000815273ffffffffffffffffffffffffffffffffffffffff84169063dd62ed3e90613e209030908690600401615659565b60206040518083038186803b158015613e3857600080fd5b505afa158015613e4c573d6000803e3d6000fd5b505050506040513d601f19601f82011682018060405250613e709190810190614b4d565b155b613ea8576040517f08c379a0000000000000000000000000000000000000000000000000000000008152600401610ea8906158b2565b6040516123a89084907f095ea7b30000000000000000000000000000000000000000000000000000000090613879908690869060240161569c565b604051613f209085907f23b872dd000000000000000000000000000000000000000000000000000000009061387990879087908790602401615674565b50505050565b73ffffffffffffffffffffffffffffffffffffffff8216613f73576040517f08c379a0000000000000000000000000000000000000000000000000000000008152600401610ea8906158d2565b600254613f86908263ffffffff61348316565b60025573ffffffffffffffffffffffffffffffffffffffff8216600090815260208190526040902054613fbf908263ffffffff61348316565b73ffffffffffffffffffffffffffffffffffffffff83166000818152602081905260408082209390935591519091907fddf252ad1be2c89b69c2b068fc378daa952ba7f163c4a11628f55a4df523b3ef9061401b9085906158fd565b60405180910390a35050565b73ffffffffffffffffffffffffffffffffffffffff8116614074576040517f08c379a0000000000000000000000000000000000000000000000000000000008152600401610ea890615782565b60075460405173ffffffffffffffffffffffffffffffffffffffff8084169216907f8be0079c531659141344cd1fd0a4f28419497f9722a3daafe3b4186f6b6457e090600090a3600780547fffffffffffffffffffffffff00000000000000000000000000000000000000001673ffffffffffffffffffffffffffffffffffffffff92909216919091179055565b6000818361413d576040517f08c379a0000000000000000000000000000000000000000000000000000000008152600401610ea89190615741565b50600083858161414957fe5b0495945050505050565b600061415d61196a565b905060006141696121e1565b9050828110156141a5576040517f08c379a0000000000000000000000000000000000000000000000000000000008152600401610ea890615852565b60006141c0600161119584610f66878963ffffffff612f9716565b9050613f20816144fb565b604080516001808252818301909252606091816020015b6141ea6146f3565b8152602001906001900390816141e257905050905060405180604001604052803073ffffffffffffffffffffffffffffffffffffffff16815260200160008152508160008151811061423857fe5b602002602001018190525061424b61470a565b6040805160808101909152600080825260208201908152602001600081526020018490529050614279614733565b600181819052506000602082015260408082018390526013546060808401919091523060a0840152815160018082528184019093529091816020015b6142bd614733565b8152602001906001900390816142b55790505090508181600081518110613ad557fe5b60006142ea610cd5565b905060006142f6612aae565b905082811015614332576040517f08c379a0000000000000000000000000000000000000000000000000000000008152600401610ea890615852565b600061434d600161119584610f66878963ffffffff612f9716565b9050613f20816145da565b6011546040517fdb006a7500000000000000000000000000000000000000000000000000000000815273ffffffffffffffffffffffffffffffffffffffff9091169063db006a7590613d969084906004016158fd565b6143cd8273ffffffffffffffffffffffffffffffffffffffff166146bc565b614403576040517f08c379a0000000000000000000000000000000000000000000000000000000008152600401610ea8906158c2565b600060608373ffffffffffffffffffffffffffffffffffffffff168360405161442c919061560b565b6000604051808303816000865af19150503d8060008114614469576040519150601f19603f3d011682016040523d82523d6000602084013e61446e565b606091505b5091509150816144aa576040517f08c379a0000000000000000000000000000000000000000000000000000000008152600401610ea8906157d2565b805115613f2057808060200190516144c59190810190614a67565b613f20576040517f08c379a0000000000000000000000000000000000000000000000000000000008152600401610ea890615892565b600d546040517fdb006a7500000000000000000000000000000000000000000000000000000000815273ffffffffffffffffffffffffffffffffffffffff9091169063db006a75906145519084906004016158fd565b602060405180830381600087803b15801561456b57600080fd5b505af115801561457f573d6000803e3d6000fd5b505050506040513d601f19601f820116820180604052506145a39190810190614b4d565b1561191d576040517f08c379a0000000000000000000000000000000000000000000000000000000008152600401610ea890615772565b600e546040517f9dc29fac00000000000000000000000000000000000000000000000000000000815260009173ffffffffffffffffffffffffffffffffffffffff1690639dc29fac90614633903090869060040161563e565b602060405180830381600087803b15801561464d57600080fd5b505af1158015614661573d6000803e3d6000fd5b505050506040513d601f19601f820116820180604052506146859190810190614b4d565b1161191d576040517f08c379a0000000000000000000000000000000000000000000000000000000008152600401610ea8906157f2565b6000813f7fc5d2460186f7233c927e7db2dcc703c0e500b653ca82273b7bfad8045d85a4708115801590612a8a5750141592915050565b604080518082019091526000808252602082015290565b604080516080810190915260008082526020820190815260200160008152602001600081525090565b60408051610100810182526000808252602082015290810161475361470a565b81526020016000815260200160008152602001600073ffffffffffffffffffffffffffffffffffffffff16815260200160008152602001606081525090565b8035610ccf81615b58565b8051610ccf81615b58565b600082601f8301126147b957600080fd5b81516147cc6147c7826159cf565b6159a8565b915081818352602084019350602081019050838560208402820111156147f157600080fd5b60005b8381101561481d578161480788826148d3565b84525060209283019291909101906001016147f4565b5050505092915050565b8051610ccf81615b6c565b600082601f83011261484357600080fd5b81516148516147c7826159f0565b9150808252602083016020830185838301111561486d57600080fd5b614878838284615ae6565b50505092915050565b60006040828403121561489357600080fd5b61489d60406159a8565b905060006148ab8484614827565b82525060206148bc848483016148d3565b60208301525092915050565b8035610ccf81615b75565b8051610ccf81615b75565b6000602082840312156148f057600080fd5b6000612a8a8484614792565b60006020828403121561490e57600080fd5b6000612a8a848461479d565b6000806040838503121561492d57600080fd5b60006149398585614792565b925050602061494a85828601614792565b9150509250929050565b6000806000806080858703121561496a57600080fd5b60006149768787614792565b945050602061498787828801614792565b935050604061499887828801614792565b92505060606149a987828801614792565b91505092959194509250565b6000806000606084860312156149ca57600080fd5b60006149d68686614792565b93505060206149e786828701614792565b92505060406149f8868287016148c8565b9150509250925092565b60008060408385031215614a1557600080fd5b6000614a218585614792565b925050602061494a858286016148c8565b600060208284031215614a4457600080fd5b815167ffffffffffffffff811115614a5b57600080fd5b612a8a848285016147a8565b600060208284031215614a7957600080fd5b6000612a8a8484614827565b600080600080600060a08688031215614a9d57600080fd5b855167ffffffffffffffff811115614ab457600080fd5b614ac088828901614832565b9550506020614ad1888289016148d3565b9450506040614ae2888289016148d3565b9350506060614af3888289016148d3565b9250506080614b04888289016148d3565b9150509295509295909350565b600060408284031215614b2357600080fd5b6000612a8a8484614881565b600060208284031215614b4157600080fd5b6000612a8a84846148c8565b600060208284031215614b5f57600080fd5b6000612a8a84846148d3565b600080600060608486031215614b8057600080fd5b6000614b8c86866148c8565b93505060206149e7868287016148c8565b6000614ba98383614be0565b505060200190565b6000610e3a83836154e4565b6000614bc983836155d9565b505060400190565b614bda81615a9d565b82525050565b614bda81615a49565b6000614bf482615a3c565b614bfe8185615a40565b9350614c0983615a36565b8060005b83811015614c37578151614c218882614b9d565b9750614c2c83615a36565b925050600101614c0d565b509495945050505050565b6000614c4d82615a3c565b614c578185615a40565b935083602082028501614c6985615a36565b8060005b85811015614ca35784840389528151614c868582614bb1565b9450614c9183615a36565b60209a909a0199925050600101614c6d565b5091979650505050505050565b6000614cbb82615a3c565b614cc58185615a40565b9350614cd083615a36565b8060005b83811015614c37578151614ce88882614bbd565b9750614cf383615a36565b925050600101614cd4565b614bda81615a54565b6000614d1282615a3c565b614d1c8185611a88565b9350614d2c818560208601615ae6565b9290920192915050565b6000614d4182615a3c565b614d4b8185615a40565b9350614d5b818560208601615ae6565b614d6481615b12565b9093019392505050565b614bda81615aa4565b614bda81615aaf565b614bda81615aba565b614bda81615ac5565b614bda81615ad0565b614bda81615adb565b6000614db1602383615a40565b7f45524332303a207472616e7366657220746f20746865207a65726f206164647281527f6573730000000000000000000000000000000000000000000000000000000000602082015260400192915050565b6000614e10605083615a40565b7f596f75206d75737420686f6c6420612025206f6620796f7572206465706f736981527f7420696e2059454c4420746f6b656e7320746f2062652061626c6520746f207360208201527f74616b65206f7220776974686472617700000000000000000000000000000000604082015260600192915050565b6000614e95601983615a40565b7f434f4d504f554e443a207769746864726177206661696c656400000000000000815260200192915050565b6000614ece602683615a40565b7f4f776e61626c653a206e6577206f776e657220697320746865207a65726f206181527f6464726573730000000000000000000000000000000000000000000000000000602082015260400192915050565b6000614f2d602283615a40565b7f45524332303a20617070726f766520746f20746865207a65726f20616464726581527f7373000000000000000000000000000000000000000000000000000000000000602082015260400192915050565b6000614f8c601783615a40565b7f434f4d504f554e443a20737570706c79206661696c6564000000000000000000815260200192915050565b6000614fc5601b83615a40565b7f536166654d6174683a206164646974696f6e206f766572666c6f770000000000815260200192915050565b6000614ffe601c83615a40565b7f446576207472656173757279207472616e73666572206661696c656400000000815260200192915050565b6000615037602083615a40565b7f5361666545524332303a206c6f772d6c6576656c2063616c6c206661696c6564815260200192915050565b6000615070602183615a40565b7f536166654d6174683a206d756c7469706c69636174696f6e206f766572666c6f81527f7700000000000000000000000000000000000000000000000000000000000000602082015260400192915050565b60006150cf601883615a40565b7f46554c4352554d3a207769746864726177206661696c65640000000000000000815260200192915050565b6000615108602083615a40565b7f4f776e61626c653a2063616c6c6572206973206e6f7420746865206f776e6572815260200192915050565b6000615141603383615a40565b7f436f6e74726163747320617265206e6f7420616c6c6f77656420746f20696e7481527f6572616374207769746820746865206661726d00000000000000000000000000602082015260400192915050565b60006151a0601483615a40565b7f696e73756666696369656e742062616c616e6365000000000000000000000000815260200192915050565b60006151d9601f83615a40565b7f7769746864726177206d7573742062652067726561746572207468616e203000815260200192915050565b6000615212602583615a40565b7f45524332303a207472616e736665722066726f6d20746865207a65726f20616481527f6472657373000000000000000000000000000000000000000000000000000000602082015260400192915050565b6000610ccf600083611a88565b600061527e601283615a40565b7f696e73756666696369656e742066756e64730000000000000000000000000000815260200192915050565b60006152b7602483615a40565b7f45524332303a20617070726f76652066726f6d20746865207a65726f2061646481527f7265737300000000000000000000000000000000000000000000000000000000602082015260400192915050565b6000615316601e83615a40565b7f6465706f736974206d7573742062652067726561746572207468616e20300000815260200192915050565b600061534f601683615a40565b7f46554c4352554d3a20737570706c79206661696c656400000000000000000000815260200192915050565b6000615388602a83615a40565b7f5361666545524332303a204552433230206f7065726174696f6e20646964206e81527f6f74207375636365656400000000000000000000000000000000000000000000602082015260400192915050565b60006153e7601f83615a40565b7f5265656e7472616e637947756172643a207265656e7472616e742063616c6c00815260200192915050565b6000615420603683615a40565b7f5361666545524332303a20617070726f76652066726f6d206e6f6e2d7a65726f81527f20746f206e6f6e2d7a65726f20616c6c6f77616e636500000000000000000000602082015260400192915050565b600061547f601f83615a40565b7f5361666545524332303a2063616c6c20746f206e6f6e2d636f6e747261637400815260200192915050565b60006154b8601f83615a40565b7f45524332303a206d696e7420746f20746865207a65726f206164647265737300815260200192915050565b80516000906101608401906154f98582614d77565b50602083015161550c60208601826155f9565b50604083015161551f604086018261558f565b50606083015161553260c08601826155f9565b50608083015161554560e08601826155f9565b5060a0830151615559610100860182614be0565b5060c083015161556d6101208601826155f9565b5060e08301518482036101408601526155868282614d36565b95945050505050565b805160808301906155a08482614cfe565b5060208201516155b36020850182614d80565b5060408201516155c66040850182614d80565b506060820151613f2060608501826155f9565b805160408301906155ea8482614be0565b506020820151613f2060208501825b614bda81610c93565b614bda81615a97565b6000610e3a8284614d07565b6000610ccf82615264565b60208101610ccf8284614be0565b60208101610ccf8284614bd1565b6040810161564c8285614bd1565b610e3a60208301846155f9565b604081016156678285614be0565b610e3a6020830184614be0565b606081016156828286614be0565b61568f6020830185614be0565b612a8a60408301846155f9565b6040810161564c8285614be0565b606081016156b88286614be0565b6156c560208301856155f9565b612a8a6040830184614d92565b604080825281016156e38185614cb0565b90508181036020830152612a8a8184614c42565b60208101610ccf8284614cfe565b60208101610ccf8284614d6e565b60208101610ccf8284614d89565b6040810161572f8285614d9b565b8181036020830152612a8a8184614be9565b60208082528101610e3a8184614d36565b60208082528101610ccf81614da4565b60208082528101610ccf81614e03565b60208082528101610ccf81614e88565b60208082528101610ccf81614ec1565b60208082528101610ccf81614f20565b60208082528101610ccf81614f7f565b60208082528101610ccf81614fb8565b60208082528101610ccf81614ff1565b60208082528101610ccf8161502a565b60208082528101610ccf81615063565b60208082528101610ccf816150c2565b60208082528101610ccf816150fb565b60208082528101610ccf81615134565b60208082528101610ccf81615193565b60208082528101610ccf816151cc565b60208082528101610ccf81615205565b60208082528101610ccf81615271565b60208082528101610ccf816152aa565b60208082528101610ccf81615309565b60208082528101610ccf81615342565b60208082528101610ccf8161537b565b60208082528101610ccf816153da565b60208082528101610ccf81615413565b60208082528101610ccf81615472565b60208082528101610ccf816154ab565b606081016158f082856155d9565b610e3a60408301846155f9565b60208101610ccf82846155f9565b6080810161591982876155f9565b818103602083015261592b8186614be9565b905061593a6040830185614bd1565b61558660608301846155f9565b60a0810161595582886155f9565b61596260208301876155f9565b81810360408301526159748186614be9565b90506159836060830185614bd1565b61599060808301846155f9565b9695505050505050565b60208101610ccf8284615602565b60405181810167ffffffffffffffff811182821017156159c757600080fd5b604052919050565b600067ffffffffffffffff8211156159e657600080fd5b5060209081020190565b600067ffffffffffffffff821115615a0757600080fd5b506020601f919091017fffffffffffffffffffffffffffffffffffffffffffffffffffffffffffffffe0160190565b60200190565b5190565b90815260200190565b6000610ccf82615a7e565b151590565b80611a8881615b3a565b80611a8881615b44565b80611a8881615b4e565b61ffff1690565b73ffffffffffffffffffffffffffffffffffffffff1690565b60ff1690565b6000610ccf825b6000610ccf82615a49565b6000610ccf82615a59565b6000610ccf82615a63565b6000610ccf82615a6d565b6000610ccf82615a77565b6000610ccf82610c93565b60005b83811015615b01578181015183820152602001615ae9565b83811115613f205750506000910152565b601f017fffffffffffffffffffffffffffffffffffffffffffffffffffffffffffffffe01690565b6002811061191d57fe5b6001811061191d57fe5b6005811061191d57fe5b615b6181615a49565b811461191d57600080fd5b615b6181615a54565b615b6181610c9356fe45524332303a207472616e7366657220616d6f756e7420657863656564732062616c616e636545524332303a207472616e7366657220616d6f756e74206578636565647320616c6c6f77616e636545524332303a2064656372656173656420616c6c6f77616e63652062656c6f77207a65726fa365627a7a7231582060208342069aa306721754489629082571eab808236fe3578d4f147cb8035f0c6c6578706572696d656e74616cf564736f6c63430005110040",
  "source": "pragma solidity 0.5.17;\npragma experimental ABIEncoderV2;\n\nimport './ContractImports.sol';\nimport './CommonFunctionality.sol';\n\ncontract yDAI is ERC20, ERC20Detailed, ReentrancyGuard, Structs, Ownable, CommonFunctionality {\n  using SafeERC20 for IERC20;\n  using Address for address;\n  using SafeMath for uint256;\n\n  uint256 public pool;\n  address public token;\n  address public compound;\n  address public fulcrum;\n  address public aave;\n  address public aavePool;\n  address public aaveToken;\n  address public dydx;\n  uint256 public dToken;\n  address public apr;\n  address public chai;\n  // Add other tokens if implemented for another stablecoin\n  address public uniswapRouter = 0x7a250d5630B4cF539739dF2C5dAcb4c659F2488D;\n  address public dai = 0x6B175474E89094C44Da98b954EedeAC495271d0F;\n  address public weth = 0xC02aaA39b223FE8D0A0e5C4F27eAD9083C756Cc2;\n  address payable public retirementYeldTreasury;\n  IERC20 public yeldToken;\n  uint256 public maximumTokensToBurn = 50000 * 1e18;\n\n  mapping(address => uint256) public depositBlockStarts;\n  mapping(address => uint256) public depositAmount;\n  uint256 public constant oneDayInBlocks = 6500;\n  uint256 public yeldToRewardPerDay = 50e18; // 50 YELD per day per 1 million stablecoins padded with 18 zeroes to have that flexibility\n  uint256 public constant oneMillion = 1e6;\n  uint256 public holdPercentage = 5e18;\n  address public devTreasury;\n\n  enum Lender {\n      NONE,\n      DYDX,\n      COMPOUND,\n      AAVE,\n      FULCRUM\n  }\n\n  Lender public provider = Lender.NONE;\n\n  constructor (address _yeldToken, address payable _retirementYeldTreasury, address _devTreasury) public payable ERC20Detailed(\"yearn DAI\", \"yDAI\", 18) {\n    token = address(0x6B175474E89094C44Da98b954EedeAC495271d0F);\n    apr = address(0xdD6d648C991f7d47454354f4Ef326b04025a48A8);\n    dydx = address(0x1E0447b19BB6EcFdAe1e4AE1694b0C3659614e4e);\n    aave = address(0x24a42fD28C976A61Df5D00D0599C34c4f90748c8);\n    aavePool = address(0x3dfd23A6c5E8BbcFc9581d2E864a68feb6a076d3);\n    fulcrum = address(0x493C57C4763932315A328269E1ADaD09653B9081);\n    aaveToken = address(0xfC1E690f61EFd961294b3e1Ce3313fBD8aa4f85d);\n    compound = address(0x5d3a536E4D6DbD6114cc1Ead35777bAB948E3643);\n    chai = address(0x06AF07097C9Eeb7fD685c692751D5C66dB49c215);\n    dToken = 3;\n    yeldToken = IERC20(_yeldToken);\n    retirementYeldTreasury = _retirementYeldTreasury;\n    devTreasury = _devTreasury;\n    approveToken();\n  }\n\n  // To receive ETH after converting it from DAI\n  function () external payable {}\n\n  function setRetirementYeldTreasury(address payable _treasury) public onlyOwner {\n    retirementYeldTreasury = _treasury;\n  }\n\n  // In case a new uniswap router version is released\n  function setUniswapRouter(address _uniswapRouter) public onlyOwner {\n    uniswapRouter = _uniswapRouter;\n  }\n\n  function setYeldToken(address _yeldToken) public onlyOwner {\n    yeldToken = IERC20(_yeldToken);\n  }\n\n  function extractTokensIfStuck(address _token, uint256 _amount) public onlyOwner {\n    IERC20(_token).transfer(msg.sender, _amount);\n  }\n\n  function extractETHIfStuck() public onlyOwner {\n    owner().transfer(address(this).balance);\n  }\n\n  function changeYeldToRewardPerDay(uint256 _amount) public onlyOwner {\n    yeldToRewardPerDay = _amount;\n  }\n\n  function getGeneratedYelds() public view returns(uint256) {\n    uint256 blocksPassed;\n    if (depositBlockStarts[msg.sender] > 0) {\n      blocksPassed = block.number.sub(depositBlockStarts[msg.sender]);\n    } else {\n      return 0;\n    }\n    uint256 generatedYelds = depositAmount[msg.sender].div(oneMillion).mul(yeldToRewardPerDay).div(1e18).mul(blocksPassed).div(oneDayInBlocks);\n    return generatedYelds;\n  }\n\n  function setHoldPercentage(uint256 _holdPercentage) public onlyOwner {\n    holdPercentage = _holdPercentage;\n  }\n\n  function yeldHoldingRequirement(uint256 _amount) internal view {\n    uint256 yeldHold = yeldToken.balanceOf(msg.sender);\n    uint256 yeldPriceInDai = getYeldPriceInDai(address(yeldToken), weth, dai, uniswapRouter);\n    uint256 amountPercentage = _amount.mul(holdPercentage).div(1e20);\n    uint256 yeldRequirement = amountPercentage.div(yeldPriceInDai);\n    require(yeldHold >= yeldRequirement, 'You must hold a % of your deposit in YELD tokens to be able to stake or withdraw');\n  }\n\n  function deposit(uint256 _amount)\n      external\n      nonReentrant\n      noContract\n  {\n    require(_amount > 0, \"deposit must be greater than 0\");\n    yeldHoldingRequirement(_amount);\n    pool = calcPoolValueInToken();\n    IERC20(token).safeTransferFrom(msg.sender, address(this), _amount);\n\n    // Yeld\n    depositBlockStarts[msg.sender] = block.number;\n    depositAmount[msg.sender] = depositAmount[msg.sender].add(_amount);\n    // Yeld\n\n    // Calculate pool shares\n    uint256 shares = 0;\n    if (pool == 0) {\n      shares = _amount;\n      pool = _amount;\n    } else {\n      shares = (_amount.mul(_totalSupply)).div(pool);\n    }\n    pool = calcPoolValueInToken();\n    _mint(msg.sender, shares);\n    rebalance();\n  }\n\n  // Converts DAI to ETH and returns how much ETH has been received from Uniswap\n  function daiToETH(uint256 _amount) internal returns(uint256) {\n      IERC20(dai).safeApprove(uniswapRouter, 0);\n      IERC20(dai).safeApprove(uniswapRouter, _amount);\n      address[] memory path = new address[](2);\n      path[0] = dai;\n      path[1] = weth;\n      // swapExactTokensForETH(uint amountIn, uint amountOutMin, address[] calldata path, address to, uint deadline)\n      // 'amounts' is an array where [0] is input DAI amount and [1] is the resulting ETH after the conversion\n      // even tho we've specified the WETH address, we'll receive ETH since that's how it works on uniswap\n      // https://uniswap.org/docs/v2/smart-contracts/router02/#swapexacttokensforeth\n      uint[] memory amounts = IUniswap(uniswapRouter).swapExactTokensForETH(_amount, uint(0), path, address(this), now.add(1800));\n      return amounts[1];\n  }\n\n  // Buys YELD tokens paying in ETH on Uniswap and removes them from circulation\n  // Returns how many YELD tokens have been burned\n  function buyNBurn(uint256 _ethToSwap) internal returns(uint256) {\n    address[] memory path = new address[](2);\n    path[0] = weth;\n    path[1] = address(yeldToken);\n    // Burns the tokens by taking them out of circulation, sending them to the 0x0 address\n    uint[] memory amounts = IUniswap(uniswapRouter).swapExactETHForTokens.value(_ethToSwap)(uint(0), path, address(0), now.add(1800));\n    return amounts[1];\n  }\n\n  // No rebalance implementation for lower fees and faster swaps\n  function withdraw(uint256 _shares)\n      external\n      nonReentrant\n      noContract\n  {\n      require(_shares > 0, \"withdraw must be greater than 0\");\n      uint256 ibalance = balanceOf(msg.sender);\n      require(_shares <= ibalance, \"insufficient balance\");\n      pool = calcPoolValueInToken();\n      // Yeld\n      uint256 generatedYelds = getGeneratedYelds();\n      // Yeld\n      uint256 stablecoinsToWithdraw = (pool.mul(_shares)).div(_totalSupply);\n      yeldHoldingRequirement(stablecoinsToWithdraw);\n      _balances[msg.sender] = _balances[msg.sender].sub(_shares, \"redeem amount exceeds balance\");\n      _totalSupply = _totalSupply.sub(_shares, '#1 Total supply sub error');\n      emit Transfer(msg.sender, address(0), _shares);\n      uint256 b = IERC20(token).balanceOf(address(this));\n      if (b < stablecoinsToWithdraw) {\n        _withdrawSome(stablecoinsToWithdraw.sub(b, '#2 Withdraw some sub error'));\n      }\n\n      // Yeld\n      uint256 totalPercentage = percentageRetirementYield.add(percentageDevTreasury).add(percentageBuyBurn);\n      uint256 combined = stablecoinsToWithdraw.mul(totalPercentage).div(1e20);\n      depositBlockStarts[msg.sender] = block.number;\n      depositAmount[msg.sender] = depositAmount[msg.sender].sub(stablecoinsToWithdraw);\n      yeldToken.transfer(msg.sender, generatedYelds);\n\n      // Take a portion of the profits for the buy and burn and retirement yeld\n      // Convert half the DAI earned into ETH for the protocol algorithms\n      uint256 stakingProfits = daiToETH(combined); // 5%\n      uint256 tokensAlreadyBurned = yeldToken.balanceOf(address(0));\n      uint256 devTreasuryAmount = stakingProfits.mul(uint256(100e18).mul(percentageDevTreasury).div(totalPercentage)).div(100e18);\n      if (tokensAlreadyBurned < maximumTokensToBurn) {\n        // buynburn 5% -> 100% so 1% -> 20%\n        uint256 ethToSwap = stakingProfits.mul(uint256(100e18).mul(percentageBuyBurn).div(totalPercentage)).div(100e18);\n        // Buy and burn only applies up to 50k tokens burned\n        buyNBurn(ethToSwap);\n        // RY 1.5% where 5% -> 100% so 1.5% -> 30%\n        uint256 retirementYeld = stakingProfits.mul(uint256(100e18).mul(percentageRetirementYield).div(totalPercentage)).div(100e18);\n        // Send to the treasury\n        retirementYeldTreasury.transfer(retirementYeld);\n      } else {\n        // If we've reached the maximum burn point, send half the profits to the treasury to reward holders\n        uint256 retirementYeld = stakingProfits.sub(devTreasuryAmount);\n        // Send to the treasury\n        retirementYeldTreasury.transfer(retirementYeld);\n      }\n      // DT 2.5% where 5% -> 100% so 2.5% -> 50%\n      (bool success, ) = devTreasury.call.value(devTreasuryAmount)(\"\");\n      require(success, \"Dev treasury transfer failed\");\n      IERC20(token).safeTransfer(msg.sender, stablecoinsToWithdraw.sub(combined));\n      // Yeld\n\n      pool = calcPoolValueInToken();\n      rebalance();\n  }\n\n  function recommend() public view returns (Lender) {\n    (,uint256 capr,uint256 iapr,uint256 aapr,uint256 dapr) = IIEarnManager(apr).recommend(token);\n    uint256 max = 0;\n    if (capr > max) {\n      max = capr;\n    }\n    if (iapr > max) {\n      max = iapr;\n    }\n    if (aapr > max) {\n      max = aapr;\n    }\n    if (dapr > max) {\n      max = dapr;\n    }\n\n    Lender newProvider = Lender.NONE;\n    if (max == capr) {\n      newProvider = Lender.COMPOUND;\n    } else if (max == iapr) {\n      newProvider = Lender.FULCRUM;\n    } else if (max == aapr) {\n      newProvider = Lender.AAVE;\n    } else if (max == dapr) {\n      newProvider = Lender.DYDX;\n    }\n    return newProvider;\n  }\n\n  function getAave() public view returns (address) {\n    return LendingPoolAddressesProvider(aave).getLendingPool();\n  }\n  function getAaveCore() public view returns (address) {\n    return LendingPoolAddressesProvider(aave).getLendingPoolCore();\n  }\n\n  function approveToken() public {\n      IERC20(token).safeApprove(compound, uint(-1));\n      IERC20(token).safeApprove(dydx, uint(-1));\n      IERC20(token).safeApprove(getAaveCore(), uint(-1));\n      IERC20(token).safeApprove(fulcrum, uint(-1));\n  }\n\n  function balance() public view returns (uint256) {\n    return IERC20(token).balanceOf(address(this));\n  }\n  function balanceDydxAvailable() public view returns (uint256) {\n      return IERC20(token).balanceOf(dydx);\n  }\n  function balanceDydx() public view returns (uint256) {\n      Wei memory bal = DyDx(dydx).getAccountWei(Info(address(this), 0), dToken);\n      return bal.value;\n  }\n  function balanceCompound() public view returns (uint256) {\n      return IERC20(compound).balanceOf(address(this));\n  }\n  function balanceCompoundInToken() public view returns (uint256) {\n    // Mantisa 1e18 to decimals\n    uint256 b = balanceCompound();\n    if (b > 0) {\n      b = b.mul(Compound(compound).exchangeRateStored()).div(1e18);\n    }\n    return b;\n  }\n  function balanceFulcrumAvailable() public view returns (uint256) {\n      return IERC20(chai).balanceOf(fulcrum);\n  }\n  function balanceFulcrumInToken() public view returns (uint256) {\n    uint256 b = balanceFulcrum();\n    if (b > 0) {\n      b = Fulcrum(fulcrum).assetBalanceOf(address(this));\n    }\n    return b;\n  }\n  function balanceFulcrum() public view returns (uint256) {\n    return IERC20(fulcrum).balanceOf(address(this));\n  }\n  function balanceAaveAvailable() public view returns (uint256) {\n      return IERC20(token).balanceOf(aavePool);\n  }\n  function balanceAave() public view returns (uint256) {\n    return IERC20(aaveToken).balanceOf(address(this));\n  }\n\n  function rebalance() public {\n    Lender newProvider = recommend();\n\n    if (newProvider != provider) {\n      _withdrawAll();\n    }\n\n    if (balance() > 0) {\n      if (newProvider == Lender.DYDX) {\n        _supplyDydx(balance());\n      } else if (newProvider == Lender.FULCRUM) {\n        _supplyFulcrum(balance());\n      } else if (newProvider == Lender.COMPOUND) {\n        _supplyCompound(balance());\n      } else if (newProvider == Lender.AAVE) {\n        _supplyAave(balance());\n      }\n    }\n\n    provider = newProvider;\n  }\n\n  function _withdrawAll() internal {\n    uint256 amount = balanceCompound();\n    if (amount > 0) {\n      _withdrawSomeCompound(balanceCompoundInToken().sub(1));\n    }\n    amount = balanceDydx();\n    if (amount > 0) {\n      if (amount > balanceDydxAvailable()) {\n        amount = balanceDydxAvailable();\n      }\n      _withdrawDydx(amount);\n    }\n    amount = balanceFulcrum();\n    if (amount > 0) {\n      if (amount > balanceFulcrumAvailable().sub(1)) {\n        amount = balanceFulcrumAvailable().sub(1);\n      }\n      _withdrawSomeFulcrum(amount);\n    }\n    amount = balanceAave();\n    if (amount > 0) {\n      if (amount > balanceAaveAvailable()) {\n        amount = balanceAaveAvailable();\n      }\n      _withdrawAave(amount);\n    }\n  }\n\n  function _withdrawSomeCompound(uint256 _amount) internal {\n    uint256 b = balanceCompound();\n    uint256 bT = balanceCompoundInToken();\n    require(bT >= _amount, \"insufficient funds\");\n    // can have unintentional rounding errors\n    uint256 amount = (b.mul(_amount)).div(bT).add(1);\n    _withdrawCompound(amount);\n  }\n\n  function _withdrawSomeFulcrum(uint256 _amount) internal {\n    uint256 b = balanceFulcrum();\n    uint256 bT = balanceFulcrumInToken();\n    require(bT >= _amount, \"insufficient funds\");\n    // can have unintentional rounding errors\n    uint256 amount = (b.mul(_amount)).div(bT).add(1);\n    _withdrawFulcrum(amount);\n  }\n\n\n  function _withdrawSome(uint256 _amount) internal returns (bool) {\n    uint256 origAmount = _amount;\n\n    uint256 amount = balanceCompound();\n    if (amount > 0) {\n      if (_amount > balanceCompoundInToken().sub(1)) {\n        _withdrawSomeCompound(balanceCompoundInToken().sub(1));\n        _amount = origAmount.sub(IERC20(token).balanceOf(address(this)));\n      } else {\n        _withdrawSomeCompound(_amount);\n        return true;\n      }\n    }\n\n    amount = balanceDydx();\n    if (amount > 0) {\n      if (_amount > balanceDydxAvailable()) {\n        _withdrawDydx(balanceDydxAvailable());\n        _amount = origAmount.sub(IERC20(token).balanceOf(address(this)));\n      } else {\n        _withdrawDydx(_amount);\n        return true;\n      }\n    }\n\n    amount = balanceFulcrum();\n    if (amount > 0) {\n      if (_amount > balanceFulcrumAvailable().sub(1)) {\n        amount = balanceFulcrumAvailable().sub(1);\n        _withdrawSomeFulcrum(balanceFulcrumAvailable().sub(1));\n        _amount = origAmount.sub(IERC20(token).balanceOf(address(this)));\n      } else {\n        _withdrawSomeFulcrum(amount);\n        return true;\n      }\n    }\n\n    amount = balanceAave();\n    if (amount > 0) {\n      if (_amount > balanceAaveAvailable()) {\n        _withdrawAave(balanceAaveAvailable());\n        _amount = origAmount.sub(IERC20(token).balanceOf(address(this)));\n      } else {\n        _withdrawAave(_amount);\n        return true;\n      }\n    }\n\n    return true;\n  }\n\n  function _supplyDydx(uint256 amount) internal {\n      Info[] memory infos = new Info[](1);\n      infos[0] = Info(address(this), 0);\n\n      AssetAmount memory amt = AssetAmount(true, AssetDenomination.Wei, AssetReference.Delta, amount);\n      ActionArgs memory act;\n      act.actionType = ActionType.Deposit;\n      act.accountId = 0;\n      act.amount = amt;\n      act.primaryMarketId = dToken;\n      act.otherAddress = address(this);\n\n      ActionArgs[] memory args = new ActionArgs[](1);\n      args[0] = act;\n\n      DyDx(dydx).operate(infos, args);\n  }\n\n  function _supplyAave(uint amount) internal {\n      Aave(getAave()).deposit(token, amount, 0);\n  }\n  function _supplyFulcrum(uint amount) internal {\n      require(Fulcrum(fulcrum).mint(address(this), amount) > 0, \"FULCRUM: supply failed\");\n  }\n  function _supplyCompound(uint amount) internal {\n      require(Compound(compound).mint(amount) == 0, \"COMPOUND: supply failed\");\n  }\n  function _withdrawAave(uint amount) internal {\n      AToken(aaveToken).redeem(amount);\n  }\n  function _withdrawFulcrum(uint amount) internal {\n      require(Fulcrum(fulcrum).burn(address(this), amount) > 0, \"FULCRUM: withdraw failed\");\n  }\n  function _withdrawCompound(uint amount) internal {\n      require(Compound(compound).redeem(amount) == 0, \"COMPOUND: withdraw failed\");\n  }\n\n  function _withdrawDydx(uint256 amount) internal {\n      Info[] memory infos = new Info[](1);\n      infos[0] = Info(address(this), 0);\n\n      AssetAmount memory amt = AssetAmount(false, AssetDenomination.Wei, AssetReference.Delta, amount);\n      ActionArgs memory act;\n      act.actionType = ActionType.Withdraw;\n      act.accountId = 0;\n      act.amount = amt;\n      act.primaryMarketId = dToken;\n      act.otherAddress = address(this);\n\n      ActionArgs[] memory args = new ActionArgs[](1);\n      args[0] = act;\n\n      DyDx(dydx).operate(infos, args);\n  }\n\n  function calcPoolValueInToken() public view returns (uint) {\n    return balanceCompoundInToken()\n      .add(balanceFulcrumInToken())\n      .add(balanceDydx())\n      .add(balanceAave())\n      .add(balance());\n  }\n\n  function getPricePerFullShare() public view returns (uint) {\n    uint _pool = calcPoolValueInToken();\n    return _pool.mul(1e18).div(_totalSupply);\n  }\n}\n",
  "sourcePath": "C:/Users/merun/Desktop/yeld & crypto/yeld-contracts/contracts/yDAI.sol",
  "compiler": {
    "name": "solc",
    "version": "0.5.17+commit.d19bba13.Emscripten.clang"
  },
  "schemaVersion": "3.3.3",
  "updatedAt": "2021-01-22T14:13:47.213Z",
  "devdoc": {
    "methods": {}
  },
  "userdoc": {
    "methods": {}
  }
}