{
  "contractName": "YeldOracle",
  "abi": [
    {
      "inputs": [
        {
          "internalType": "address",
          "name": "_yDAI",
          "type": "address"
        },
        {
          "internalType": "address",
          "name": "_yTether",
          "type": "address"
        },
        {
          "internalType": "address",
          "name": "_yTrueUSD",
          "type": "address"
        },
        {
          "internalType": "address",
          "name": "_yUSDC",
          "type": "address"
        }
      ],
      "payable": false,
      "stateMutability": "nonpayable",
      "type": "constructor"
    },
    {
      "anonymous": false,
      "inputs": [
        {
          "indexed": true,
          "internalType": "address",
          "name": "previousOwner",
          "type": "address"
        },
        {
          "indexed": true,
          "internalType": "address",
          "name": "newOwner",
          "type": "address"
        }
      ],
      "name": "OwnershipTransferred",
      "type": "event"
    },
    {
      "payable": true,
      "stateMutability": "payable",
      "type": "fallback"
    },
    {
      "constant": true,
      "inputs": [],
      "name": "isOwner",
      "outputs": [
        {
          "internalType": "bool",
          "name": "",
          "type": "bool"
        }
      ],
      "payable": false,
      "stateMutability": "view",
      "type": "function"
    },
    {
      "constant": true,
      "inputs": [],
      "name": "owner",
      "outputs": [
        {
          "internalType": "address payable",
          "name": "",
          "type": "address"
        }
      ],
      "payable": false,
      "stateMutability": "view",
      "type": "function"
    },
    {
      "constant": false,
      "inputs": [],
      "name": "renounceOwnership",
      "outputs": [],
      "payable": false,
      "stateMutability": "nonpayable",
      "type": "function"
    },
    {
      "constant": false,
      "inputs": [
        {
          "internalType": "address payable",
          "name": "newOwner",
          "type": "address"
        }
      ],
      "name": "transferOwnership",
      "outputs": [],
      "payable": false,
      "stateMutability": "nonpayable",
      "type": "function"
    },
    {
      "constant": true,
      "inputs": [],
      "name": "yDAI",
      "outputs": [
        {
          "internalType": "address",
          "name": "",
          "type": "address"
        }
      ],
      "payable": false,
      "stateMutability": "view",
      "type": "function"
    },
    {
      "constant": true,
      "inputs": [],
      "name": "yTether",
      "outputs": [
        {
          "internalType": "address",
          "name": "",
          "type": "address"
        }
      ],
      "payable": false,
      "stateMutability": "view",
      "type": "function"
    },
    {
      "constant": true,
      "inputs": [],
      "name": "yTrueUSD",
      "outputs": [
        {
          "internalType": "address",
          "name": "",
          "type": "address"
        }
      ],
      "payable": false,
      "stateMutability": "view",
      "type": "function"
    },
    {
      "constant": true,
      "inputs": [],
      "name": "yUSDC",
      "outputs": [
        {
          "internalType": "address",
          "name": "",
          "type": "address"
        }
      ],
      "payable": false,
      "stateMutability": "view",
      "type": "function"
    },
    {
      "constant": false,
      "inputs": [
        {
          "internalType": "address",
          "name": "_token",
          "type": "address"
        },
        {
          "internalType": "uint256",
          "name": "_amount",
          "type": "uint256"
        }
      ],
      "name": "extractTokensIfStuck",
      "outputs": [],
      "payable": false,
      "stateMutability": "nonpayable",
      "type": "function"
    },
    {
      "constant": false,
      "inputs": [],
      "name": "extractETHIfStuck",
      "outputs": [],
      "payable": false,
      "stateMutability": "nonpayable",
      "type": "function"
    },
    {
      "constant": false,
      "inputs": [
        {
          "internalType": "address",
          "name": "_contract",
          "type": "address"
        }
      ],
      "name": "setyDAI",
      "outputs": [],
      "payable": false,
      "stateMutability": "nonpayable",
      "type": "function"
    },
    {
      "constant": false,
      "inputs": [
        {
          "internalType": "address",
          "name": "_contract",
          "type": "address"
        }
      ],
      "name": "setyTether",
      "outputs": [],
      "payable": false,
      "stateMutability": "nonpayable",
      "type": "function"
    },
    {
      "constant": false,
      "inputs": [
        {
          "internalType": "address",
          "name": "_contract",
          "type": "address"
        }
      ],
      "name": "setyTrueUSD",
      "outputs": [],
      "payable": false,
      "stateMutability": "nonpayable",
      "type": "function"
    },
    {
      "constant": false,
      "inputs": [
        {
          "internalType": "address",
          "name": "_contract",
          "type": "address"
        }
      ],
      "name": "setyUSDC",
      "outputs": [],
      "payable": false,
      "stateMutability": "nonpayable",
      "type": "function"
    },
    {
      "constant": false,
      "inputs": [],
      "name": "rebalance",
      "outputs": [],
      "payable": false,
      "stateMutability": "nonpayable",
      "type": "function"
    }
  ],
  "bytecode": "0x608060405234801561001057600080fd5b5060405161105f38038061105f8339818101604052608081101561003357600080fd5b508051602082015160408301516060909301519192909161005b6001600160e01b0361010716565b600080546001600160a01b0319166001600160a01b03928316178082556040519216917f8be0079c531659141344cd1fd0a4f28419497f9722a3daafe3b4186f6b6457e0908290a3600180546001600160a01b038087166001600160a01b031992831617909255600280548684169083161790556003805485841690831617905560048054928416929091169190911790556100fe6001600160e01b0361010b16565b505050506102a0565b3390565b600160009054906101000a90046001600160a01b03166001600160a01b0316637d7c2a1c6040518163ffffffff1660e01b8152600401600060405180830381600087803b15801561015b57600080fd5b505af115801561016f573d6000803e3d6000fd5b50505050600260009054906101000a90046001600160a01b03166001600160a01b0316637d7c2a1c6040518163ffffffff1660e01b8152600401600060405180830381600087803b1580156101c357600080fd5b505af11580156101d7573d6000803e3d6000fd5b50505050600360009054906101000a90046001600160a01b03166001600160a01b0316637d7c2a1c6040518163ffffffff1660e01b8152600401600060405180830381600087803b15801561022b57600080fd5b505af115801561023f573d6000803e3d6000fd5b50506004805460408051631f5f0a8760e21b815290516001600160a01b039092169450637d7c2a1c9350808301926000929182900301818387803b15801561028657600080fd5b505af115801561029a573d6000803e3d6000fd5b50505050565b610db0806102af6000396000f3fe6080604052600436106100e85760003560e01c80638da5cb5b1161008a578063a9a1015a11610059578063a9a1015a14610264578063d15110e7146102aa578063eb179b44146102ea578063f2fde38b1461032a576100e8565b80638da5cb5b146101a65780638f32d59b146101bb5780639394e673146101e4578063a943a47414610224576100e8565b80634fe41129116100c65780634fe4112914610152578063715018a614610167578063756bb1cc1461017c5780637d7c2a1c14610191576100e8565b80630b526e8d146100ea57806319d9e008146101285780633f00474f1461013d575b005b3480156100f657600080fd5b506100ff61036a565b6040805173ffffffffffffffffffffffffffffffffffffffff9092168252519081900360200190f35b34801561013457600080fd5b506100ff610386565b34801561014957600080fd5b506100ff6103a2565b34801561015e57600080fd5b506100e86103be565b34801561017357600080fd5b506100e8610481565b34801561018857600080fd5b506100ff610563565b34801561019d57600080fd5b506100e861057f565b3480156101b257600080fd5b506100ff610788565b3480156101c757600080fd5b506101d06107a4565b604080519115158252519081900360200190f35b3480156101f057600080fd5b506100e86004803603602081101561020757600080fd5b503573ffffffffffffffffffffffffffffffffffffffff166107e2565b34801561023057600080fd5b506100e86004803603602081101561024757600080fd5b503573ffffffffffffffffffffffffffffffffffffffff1661089c565b34801561027057600080fd5b506100e86004803603604081101561028757600080fd5b5073ffffffffffffffffffffffffffffffffffffffff8135169060200135610956565b3480156102b657600080fd5b506100e8600480360360208110156102cd57600080fd5b503573ffffffffffffffffffffffffffffffffffffffff16610a68565b3480156102f657600080fd5b506100e86004803603602081101561030d57600080fd5b503573ffffffffffffffffffffffffffffffffffffffff16610b22565b34801561033657600080fd5b506100e86004803603602081101561034d57600080fd5b503573ffffffffffffffffffffffffffffffffffffffff16610bdc565b60035473ffffffffffffffffffffffffffffffffffffffff1681565b60045473ffffffffffffffffffffffffffffffffffffffff1681565b60025473ffffffffffffffffffffffffffffffffffffffff1681565b6103c66107a4565b61043157604080517f08c379a000000000000000000000000000000000000000000000000000000000815260206004820181905260248201527f4f776e61626c653a2063616c6c6572206973206e6f7420746865206f776e6572604482015290519081900360640190fd5b610439610788565b73ffffffffffffffffffffffffffffffffffffffff166108fc479081150290604051600060405180830381858888f1935050505015801561047e573d6000803e3d6000fd5b50565b6104896107a4565b6104f457604080517f08c379a000000000000000000000000000000000000000000000000000000000815260206004820181905260248201527f4f776e61626c653a2063616c6c6572206973206e6f7420746865206f776e6572604482015290519081900360640190fd5b6000805460405173ffffffffffffffffffffffffffffffffffffffff909116907f8be0079c531659141344cd1fd0a4f28419497f9722a3daafe3b4186f6b6457e0908390a3600080547fffffffffffffffffffffffff0000000000000000000000000000000000000000169055565b60015473ffffffffffffffffffffffffffffffffffffffff1681565b600160009054906101000a900473ffffffffffffffffffffffffffffffffffffffff1673ffffffffffffffffffffffffffffffffffffffff16637d7c2a1c6040518163ffffffff1660e01b8152600401600060405180830381600087803b1580156105e957600080fd5b505af11580156105fd573d6000803e3d6000fd5b50505050600260009054906101000a900473ffffffffffffffffffffffffffffffffffffffff1673ffffffffffffffffffffffffffffffffffffffff16637d7c2a1c6040518163ffffffff1660e01b8152600401600060405180830381600087803b15801561066b57600080fd5b505af115801561067f573d6000803e3d6000fd5b50505050600360009054906101000a900473ffffffffffffffffffffffffffffffffffffffff1673ffffffffffffffffffffffffffffffffffffffff16637d7c2a1c6040518163ffffffff1660e01b8152600401600060405180830381600087803b1580156106ed57600080fd5b505af1158015610701573d6000803e3d6000fd5b505060048054604080517f7d7c2a1c000000000000000000000000000000000000000000000000000000008152905173ffffffffffffffffffffffffffffffffffffffff9092169450637d7c2a1c9350808301926000929182900301818387803b15801561076e57600080fd5b505af1158015610782573d6000803e3d6000fd5b50505050565b60005473ffffffffffffffffffffffffffffffffffffffff1690565b6000805473ffffffffffffffffffffffffffffffffffffffff166107c6610c58565b73ffffffffffffffffffffffffffffffffffffffff1614905090565b6107ea6107a4565b61085557604080517f08c379a000000000000000000000000000000000000000000000000000000000815260206004820181905260248201527f4f776e61626c653a2063616c6c6572206973206e6f7420746865206f776e6572604482015290519081900360640190fd5b600480547fffffffffffffffffffffffff00000000000000000000000000000000000000001673ffffffffffffffffffffffffffffffffffffffff92909216919091179055565b6108a46107a4565b61090f57604080517f08c379a000000000000000000000000000000000000000000000000000000000815260206004820181905260248201527f4f776e61626c653a2063616c6c6572206973206e6f7420746865206f776e6572604482015290519081900360640190fd5b600380547fffffffffffffffffffffffff00000000000000000000000000000000000000001673ffffffffffffffffffffffffffffffffffffffff92909216919091179055565b61095e6107a4565b6109c957604080517f08c379a000000000000000000000000000000000000000000000000000000000815260206004820181905260248201527f4f776e61626c653a2063616c6c6572206973206e6f7420746865206f776e6572604482015290519081900360640190fd5b604080517fa9059cbb00000000000000000000000000000000000000000000000000000000815233600482015260248101839052905173ffffffffffffffffffffffffffffffffffffffff84169163a9059cbb9160448083019260209291908290030181600087803b158015610a3e57600080fd5b505af1158015610a52573d6000803e3d6000fd5b505050506040513d602081101561078257600080fd5b610a706107a4565b610adb57604080517f08c379a000000000000000000000000000000000000000000000000000000000815260206004820181905260248201527f4f776e61626c653a2063616c6c6572206973206e6f7420746865206f776e6572604482015290519081900360640190fd5b600280547fffffffffffffffffffffffff00000000000000000000000000000000000000001673ffffffffffffffffffffffffffffffffffffffff92909216919091179055565b610b2a6107a4565b610b9557604080517f08c379a000000000000000000000000000000000000000000000000000000000815260206004820181905260248201527f4f776e61626c653a2063616c6c6572206973206e6f7420746865206f776e6572604482015290519081900360640190fd5b600180547fffffffffffffffffffffffff00000000000000000000000000000000000000001673ffffffffffffffffffffffffffffffffffffffff92909216919091179055565b610be46107a4565b610c4f57604080517f08c379a000000000000000000000000000000000000000000000000000000000815260206004820181905260248201527f4f776e61626c653a2063616c6c6572206973206e6f7420746865206f776e6572604482015290519081900360640190fd5b61047e81610c5c565b3390565b73ffffffffffffffffffffffffffffffffffffffff8116610cc8576040517f08c379a0000000000000000000000000000000000000000000000000000000008152600401808060200182810382526026815260200180610d566026913960400191505060405180910390fd5b6000805460405173ffffffffffffffffffffffffffffffffffffffff808516939216917f8be0079c531659141344cd1fd0a4f28419497f9722a3daafe3b4186f6b6457e091a3600080547fffffffffffffffffffffffff00000000000000000000000000000000000000001673ffffffffffffffffffffffffffffffffffffffff9290921691909117905556fe4f776e61626c653a206e6577206f776e657220697320746865207a65726f2061646472657373a265627a7a7231582040f720e6c391187e5589bc4d6a434555f0985ac0ebbd8e6d6dc37aefb6b34a9f64736f6c63430005110032",
  "source": "pragma solidity 0.5.17;\n\ninterface IYeldContract {\n  function rebalance() external;\n}\n\ninterface IERC20 {\n    function transfer(address recipient, uint256 amount) external returns (bool);\n}\n\ncontract Context {\n    constructor () internal { }\n    // solhint-disable-previous-line no-empty-blocks\n\n    function _msgSender() internal view returns (address payable) {\n        return msg.sender;\n    }\n\n    function _msgData() internal view returns (bytes memory) {\n        this; // silence state mutability warning without generating bytecode - see https://github.com/ethereum/solidity/issues/2691\n        return msg.data;\n    }\n}\n\ncontract Ownable is Context {\n    address payable private _owner;\n\n    event OwnershipTransferred(address indexed previousOwner, address indexed newOwner);\n    constructor () internal {\n        _owner = _msgSender();\n        emit OwnershipTransferred(address(0), _owner);\n    }\n    function owner() public view returns (address payable) {\n        return _owner;\n    }\n    modifier onlyOwner() {\n        require(isOwner(), \"Ownable: caller is not the owner\");\n        _;\n    }\n    function isOwner() public view returns (bool) {\n        return _msgSender() == _owner;\n    }\n    function renounceOwnership() public onlyOwner {\n        emit OwnershipTransferred(_owner, address(0));\n        _owner = address(0);\n    }\n    function transferOwnership(address payable newOwner) public onlyOwner {\n        _transferOwnership(newOwner);\n    }\n    function _transferOwnership(address payable newOwner) internal {\n        require(newOwner != address(0), \"Ownable: new owner is the zero address\");\n        emit OwnershipTransferred(_owner, newOwner);\n        _owner = newOwner;\n    }\n}\n\ncontract YeldOracle is Ownable {\n  address public yDAI;\n  address public yTether;\n  address public yTrueUSD;\n  address public yUSDC;\n\n  function () external payable {}\n\n  constructor (address _yDAI, address _yTether, address _yTrueUSD, address _yUSDC) public {\n    yDAI = _yDAI;\n    yTether = _yTether;\n    yTrueUSD = _yTrueUSD;\n    yUSDC = _yUSDC;\n    rebalance();\n  }\n\n  function extractTokensIfStuck(address _token, uint256 _amount) public onlyOwner {\n    IERC20(_token).transfer(msg.sender, _amount);\n  }\n\n  function extractETHIfStuck() public onlyOwner {\n    owner().transfer(address(this).balance);\n  }\n\n  function setyDAI(address _contract) public onlyOwner {\n    yDAI = _contract;\n  }\n\n  function setyTether(address _contract) public onlyOwner {\n    yTether = _contract;\n  }\n\n  function setyTrueUSD(address _contract) public onlyOwner {\n    yTrueUSD = _contract;\n  }\n\n  function setyUSDC(address _contract) public onlyOwner {\n    yUSDC = _contract;\n  }\n\n  function rebalance() public {\n    IYeldContract(yDAI).rebalance();\n    IYeldContract(yTether).rebalance();\n    IYeldContract(yTrueUSD).rebalance();\n    IYeldContract(yUSDC).rebalance();\n  }\n}",
  "sourcePath": "C:/Users/merun/Desktop/projects/yeld-contracts/contracts/YeldOracle.sol",
  "compiler": {
    "name": "solc",
    "version": "0.5.17+commit.d19bba13.Emscripten.clang"
  },
  "schemaVersion": "3.2.2",
  "updatedAt": "2020-10-15T23:48:53.248Z",
  "devdoc": {
    "methods": {}
  },
  "userdoc": {
    "methods": {}
  }
}