{
  "contractName": "yTUSD",
  "abi": [
    {
      "inputs": [
        {
          "internalType": "address",
          "name": "_yeldToken",
          "type": "address"
        },
        {
          "internalType": "address payable",
          "name": "_retirementYeldTreasury",
          "type": "address"
        }
      ],
      "payable": false,
      "stateMutability": "nonpayable",
      "type": "constructor"
    },
    {
      "anonymous": false,
      "inputs": [
        {
          "indexed": true,
          "internalType": "address",
          "name": "owner",
          "type": "address"
        },
        {
          "indexed": true,
          "internalType": "address",
          "name": "spender",
          "type": "address"
        },
        {
          "indexed": false,
          "internalType": "uint256",
          "name": "value",
          "type": "uint256"
        }
      ],
      "name": "Approval",
      "type": "event"
    },
    {
      "anonymous": false,
      "inputs": [
        {
          "indexed": true,
          "internalType": "address",
          "name": "previousOwner",
          "type": "address"
        },
        {
          "indexed": true,
          "internalType": "address",
          "name": "newOwner",
          "type": "address"
        }
      ],
      "name": "OwnershipTransferred",
      "type": "event"
    },
    {
      "anonymous": false,
      "inputs": [
        {
          "indexed": true,
          "internalType": "address",
          "name": "from",
          "type": "address"
        },
        {
          "indexed": true,
          "internalType": "address",
          "name": "to",
          "type": "address"
        },
        {
          "indexed": false,
          "internalType": "uint256",
          "name": "value",
          "type": "uint256"
        }
      ],
      "name": "Transfer",
      "type": "event"
    },
    {
      "payable": true,
      "stateMutability": "payable",
      "type": "fallback"
    },
    {
      "constant": true,
      "inputs": [],
      "name": "aave",
      "outputs": [
        {
          "internalType": "address",
          "name": "",
          "type": "address"
        }
      ],
      "payable": false,
      "stateMutability": "view",
      "type": "function"
    },
    {
      "constant": true,
      "inputs": [],
      "name": "aaveToken",
      "outputs": [
        {
          "internalType": "address",
          "name": "",
          "type": "address"
        }
      ],
      "payable": false,
      "stateMutability": "view",
      "type": "function"
    },
    {
      "constant": true,
      "inputs": [
        {
          "internalType": "address",
          "name": "owner",
          "type": "address"
        },
        {
          "internalType": "address",
          "name": "spender",
          "type": "address"
        }
      ],
      "name": "allowance",
      "outputs": [
        {
          "internalType": "uint256",
          "name": "",
          "type": "uint256"
        }
      ],
      "payable": false,
      "stateMutability": "view",
      "type": "function"
    },
    {
      "constant": false,
      "inputs": [
        {
          "internalType": "address",
          "name": "spender",
          "type": "address"
        },
        {
          "internalType": "uint256",
          "name": "amount",
          "type": "uint256"
        }
      ],
      "name": "approve",
      "outputs": [
        {
          "internalType": "bool",
          "name": "",
          "type": "bool"
        }
      ],
      "payable": false,
      "stateMutability": "nonpayable",
      "type": "function"
    },
    {
      "constant": true,
      "inputs": [],
      "name": "apr",
      "outputs": [
        {
          "internalType": "address",
          "name": "",
          "type": "address"
        }
      ],
      "payable": false,
      "stateMutability": "view",
      "type": "function"
    },
    {
      "constant": true,
      "inputs": [
        {
          "internalType": "address",
          "name": "account",
          "type": "address"
        }
      ],
      "name": "balanceOf",
      "outputs": [
        {
          "internalType": "uint256",
          "name": "",
          "type": "uint256"
        }
      ],
      "payable": false,
      "stateMutability": "view",
      "type": "function"
    },
    {
      "constant": true,
      "inputs": [],
      "name": "compound",
      "outputs": [
        {
          "internalType": "address",
          "name": "",
          "type": "address"
        }
      ],
      "payable": false,
      "stateMutability": "view",
      "type": "function"
    },
    {
      "constant": true,
      "inputs": [],
      "name": "dToken",
      "outputs": [
        {
          "internalType": "uint256",
          "name": "",
          "type": "uint256"
        }
      ],
      "payable": false,
      "stateMutability": "view",
      "type": "function"
    },
    {
      "constant": true,
      "inputs": [],
      "name": "decimals",
      "outputs": [
        {
          "internalType": "uint8",
          "name": "",
          "type": "uint8"
        }
      ],
      "payable": false,
      "stateMutability": "view",
      "type": "function"
    },
    {
      "constant": false,
      "inputs": [
        {
          "internalType": "address",
          "name": "spender",
          "type": "address"
        },
        {
          "internalType": "uint256",
          "name": "subtractedValue",
          "type": "uint256"
        }
      ],
      "name": "decreaseAllowance",
      "outputs": [
        {
          "internalType": "bool",
          "name": "",
          "type": "bool"
        }
      ],
      "payable": false,
      "stateMutability": "nonpayable",
      "type": "function"
    },
    {
      "constant": true,
      "inputs": [
        {
          "internalType": "address",
          "name": "",
          "type": "address"
        }
      ],
      "name": "depositBlockStarts",
      "outputs": [
        {
          "internalType": "uint256",
          "name": "",
          "type": "uint256"
        }
      ],
      "payable": false,
      "stateMutability": "view",
      "type": "function"
    },
    {
      "constant": true,
      "inputs": [],
      "name": "dydx",
      "outputs": [
        {
          "internalType": "address",
          "name": "",
          "type": "address"
        }
      ],
      "payable": false,
      "stateMutability": "view",
      "type": "function"
    },
    {
      "constant": true,
      "inputs": [],
      "name": "fulcrum",
      "outputs": [
        {
          "internalType": "address",
          "name": "",
          "type": "address"
        }
      ],
      "payable": false,
      "stateMutability": "view",
      "type": "function"
    },
    {
      "constant": false,
      "inputs": [
        {
          "internalType": "address",
          "name": "spender",
          "type": "address"
        },
        {
          "internalType": "uint256",
          "name": "addedValue",
          "type": "uint256"
        }
      ],
      "name": "increaseAllowance",
      "outputs": [
        {
          "internalType": "bool",
          "name": "",
          "type": "bool"
        }
      ],
      "payable": false,
      "stateMutability": "nonpayable",
      "type": "function"
    },
    {
      "constant": true,
      "inputs": [],
      "name": "isOwner",
      "outputs": [
        {
          "internalType": "bool",
          "name": "",
          "type": "bool"
        }
      ],
      "payable": false,
      "stateMutability": "view",
      "type": "function"
    },
    {
      "constant": true,
      "inputs": [],
      "name": "maximumTokensToBurn",
      "outputs": [
        {
          "internalType": "uint256",
          "name": "",
          "type": "uint256"
        }
      ],
      "payable": false,
      "stateMutability": "view",
      "type": "function"
    },
    {
      "constant": true,
      "inputs": [],
      "name": "name",
      "outputs": [
        {
          "internalType": "string",
          "name": "",
          "type": "string"
        }
      ],
      "payable": false,
      "stateMutability": "view",
      "type": "function"
    },
    {
      "constant": true,
      "inputs": [],
      "name": "oneDayInBlocks",
      "outputs": [
        {
          "internalType": "uint256",
          "name": "",
          "type": "uint256"
        }
      ],
      "payable": false,
      "stateMutability": "view",
      "type": "function"
    },
    {
      "constant": true,
      "inputs": [],
      "name": "oneMillion",
      "outputs": [
        {
          "internalType": "uint256",
          "name": "",
          "type": "uint256"
        }
      ],
      "payable": false,
      "stateMutability": "view",
      "type": "function"
    },
    {
      "constant": true,
      "inputs": [],
      "name": "owner",
      "outputs": [
        {
          "internalType": "address payable",
          "name": "",
          "type": "address"
        }
      ],
      "payable": false,
      "stateMutability": "view",
      "type": "function"
    },
    {
      "constant": true,
      "inputs": [],
      "name": "pool",
      "outputs": [
        {
          "internalType": "uint256",
          "name": "",
          "type": "uint256"
        }
      ],
      "payable": false,
      "stateMutability": "view",
      "type": "function"
    },
    {
      "constant": true,
      "inputs": [],
      "name": "provider",
      "outputs": [
        {
          "internalType": "enum yTUSD.Lender",
          "name": "",
          "type": "uint8"
        }
      ],
      "payable": false,
      "stateMutability": "view",
      "type": "function"
    },
    {
      "constant": false,
      "inputs": [],
      "name": "renounceOwnership",
      "outputs": [],
      "payable": false,
      "stateMutability": "nonpayable",
      "type": "function"
    },
    {
      "constant": true,
      "inputs": [],
      "name": "retirementYeldTreasury",
      "outputs": [
        {
          "internalType": "address payable",
          "name": "",
          "type": "address"
        }
      ],
      "payable": false,
      "stateMutability": "view",
      "type": "function"
    },
    {
      "constant": true,
      "inputs": [],
      "name": "symbol",
      "outputs": [
        {
          "internalType": "string",
          "name": "",
          "type": "string"
        }
      ],
      "payable": false,
      "stateMutability": "view",
      "type": "function"
    },
    {
      "constant": true,
      "inputs": [],
      "name": "token",
      "outputs": [
        {
          "internalType": "address",
          "name": "",
          "type": "address"
        }
      ],
      "payable": false,
      "stateMutability": "view",
      "type": "function"
    },
    {
      "constant": true,
      "inputs": [],
      "name": "totalSupply",
      "outputs": [
        {
          "internalType": "uint256",
          "name": "",
          "type": "uint256"
        }
      ],
      "payable": false,
      "stateMutability": "view",
      "type": "function"
    },
    {
      "constant": false,
      "inputs": [
        {
          "internalType": "address",
          "name": "recipient",
          "type": "address"
        },
        {
          "internalType": "uint256",
          "name": "amount",
          "type": "uint256"
        }
      ],
      "name": "transfer",
      "outputs": [
        {
          "internalType": "bool",
          "name": "",
          "type": "bool"
        }
      ],
      "payable": false,
      "stateMutability": "nonpayable",
      "type": "function"
    },
    {
      "constant": false,
      "inputs": [
        {
          "internalType": "address",
          "name": "sender",
          "type": "address"
        },
        {
          "internalType": "address",
          "name": "recipient",
          "type": "address"
        },
        {
          "internalType": "uint256",
          "name": "amount",
          "type": "uint256"
        }
      ],
      "name": "transferFrom",
      "outputs": [
        {
          "internalType": "bool",
          "name": "",
          "type": "bool"
        }
      ],
      "payable": false,
      "stateMutability": "nonpayable",
      "type": "function"
    },
    {
      "constant": false,
      "inputs": [
        {
          "internalType": "address payable",
          "name": "newOwner",
          "type": "address"
        }
      ],
      "name": "transferOwnership",
      "outputs": [],
      "payable": false,
      "stateMutability": "nonpayable",
      "type": "function"
    },
    {
      "constant": true,
      "inputs": [],
      "name": "tusd",
      "outputs": [
        {
          "internalType": "address",
          "name": "",
          "type": "address"
        }
      ],
      "payable": false,
      "stateMutability": "view",
      "type": "function"
    },
    {
      "constant": true,
      "inputs": [],
      "name": "uniswapRouter",
      "outputs": [
        {
          "internalType": "address",
          "name": "",
          "type": "address"
        }
      ],
      "payable": false,
      "stateMutability": "view",
      "type": "function"
    },
    {
      "constant": true,
      "inputs": [],
      "name": "weth",
      "outputs": [
        {
          "internalType": "address",
          "name": "",
          "type": "address"
        }
      ],
      "payable": false,
      "stateMutability": "view",
      "type": "function"
    },
    {
      "constant": true,
      "inputs": [],
      "name": "yeldToRewardPerDay",
      "outputs": [
        {
          "internalType": "uint256",
          "name": "",
          "type": "uint256"
        }
      ],
      "payable": false,
      "stateMutability": "view",
      "type": "function"
    },
    {
      "constant": true,
      "inputs": [],
      "name": "yeldToken",
      "outputs": [
        {
          "internalType": "contract IERC20",
          "name": "",
          "type": "address"
        }
      ],
      "payable": false,
      "stateMutability": "view",
      "type": "function"
    },
    {
      "constant": false,
      "inputs": [
        {
          "internalType": "address payable",
          "name": "_treasury",
          "type": "address"
        }
      ],
      "name": "setRetirementYeldTreasury",
      "outputs": [],
      "payable": false,
      "stateMutability": "nonpayable",
      "type": "function"
    },
    {
      "constant": false,
      "inputs": [
        {
          "internalType": "address",
          "name": "_uniswapRouter",
          "type": "address"
        }
      ],
      "name": "setUniswapRouter",
      "outputs": [],
      "payable": false,
      "stateMutability": "nonpayable",
      "type": "function"
    },
    {
      "constant": false,
      "inputs": [
        {
          "internalType": "address",
          "name": "_yeldToken",
          "type": "address"
        }
      ],
      "name": "setYeldToken",
      "outputs": [],
      "payable": false,
      "stateMutability": "nonpayable",
      "type": "function"
    },
    {
      "constant": false,
      "inputs": [
        {
          "internalType": "address",
          "name": "_token",
          "type": "address"
        },
        {
          "internalType": "uint256",
          "name": "_amount",
          "type": "uint256"
        }
      ],
      "name": "extractTokensIfStuck",
      "outputs": [],
      "payable": false,
      "stateMutability": "nonpayable",
      "type": "function"
    },
    {
      "constant": false,
      "inputs": [],
      "name": "extractETHIfStuck",
      "outputs": [],
      "payable": false,
      "stateMutability": "nonpayable",
      "type": "function"
    },
    {
      "constant": false,
      "inputs": [
        {
          "internalType": "uint256",
          "name": "_amount",
          "type": "uint256"
        }
      ],
      "name": "changeYeldToRewardPerDay",
      "outputs": [],
      "payable": false,
      "stateMutability": "nonpayable",
      "type": "function"
    },
    {
      "constant": true,
      "inputs": [],
      "name": "getGeneratedYelds",
      "outputs": [
        {
          "internalType": "uint256",
          "name": "",
          "type": "uint256"
        }
      ],
      "payable": false,
      "stateMutability": "view",
      "type": "function"
    },
    {
      "constant": false,
      "inputs": [
        {
          "internalType": "uint256",
          "name": "_amount",
          "type": "uint256"
        }
      ],
      "name": "deposit",
      "outputs": [],
      "payable": false,
      "stateMutability": "nonpayable",
      "type": "function"
    },
    {
      "constant": false,
      "inputs": [
        {
          "internalType": "uint256",
          "name": "_shares",
          "type": "uint256"
        }
      ],
      "name": "withdraw",
      "outputs": [],
      "payable": false,
      "stateMutability": "nonpayable",
      "type": "function"
    },
    {
      "constant": false,
      "inputs": [
        {
          "internalType": "address",
          "name": "_new_APR",
          "type": "address"
        }
      ],
      "name": "set_new_APR",
      "outputs": [],
      "payable": false,
      "stateMutability": "nonpayable",
      "type": "function"
    },
    {
      "constant": false,
      "inputs": [
        {
          "internalType": "address",
          "name": "_new_COMPOUND",
          "type": "address"
        }
      ],
      "name": "set_new_COMPOUND",
      "outputs": [],
      "payable": false,
      "stateMutability": "nonpayable",
      "type": "function"
    },
    {
      "constant": false,
      "inputs": [
        {
          "internalType": "uint256",
          "name": "_new_DTOKEN",
          "type": "uint256"
        }
      ],
      "name": "set_new_DTOKEN",
      "outputs": [],
      "payable": false,
      "stateMutability": "nonpayable",
      "type": "function"
    },
    {
      "constant": true,
      "inputs": [],
      "name": "recommend",
      "outputs": [
        {
          "internalType": "enum yTUSD.Lender",
          "name": "",
          "type": "uint8"
        }
      ],
      "payable": false,
      "stateMutability": "view",
      "type": "function"
    },
    {
      "constant": false,
      "inputs": [
        {
          "internalType": "uint256",
          "name": "amount",
          "type": "uint256"
        }
      ],
      "name": "supplyDydx",
      "outputs": [
        {
          "internalType": "uint256",
          "name": "",
          "type": "uint256"
        }
      ],
      "payable": false,
      "stateMutability": "nonpayable",
      "type": "function"
    },
    {
      "constant": true,
      "inputs": [],
      "name": "getAave",
      "outputs": [
        {
          "internalType": "address",
          "name": "",
          "type": "address"
        }
      ],
      "payable": false,
      "stateMutability": "view",
      "type": "function"
    },
    {
      "constant": true,
      "inputs": [],
      "name": "getAaveCore",
      "outputs": [
        {
          "internalType": "address",
          "name": "",
          "type": "address"
        }
      ],
      "payable": false,
      "stateMutability": "view",
      "type": "function"
    },
    {
      "constant": false,
      "inputs": [],
      "name": "approveToken",
      "outputs": [],
      "payable": false,
      "stateMutability": "nonpayable",
      "type": "function"
    },
    {
      "constant": true,
      "inputs": [],
      "name": "balance",
      "outputs": [
        {
          "internalType": "uint256",
          "name": "",
          "type": "uint256"
        }
      ],
      "payable": false,
      "stateMutability": "view",
      "type": "function"
    },
    {
      "constant": true,
      "inputs": [],
      "name": "balanceDydx",
      "outputs": [
        {
          "internalType": "uint256",
          "name": "",
          "type": "uint256"
        }
      ],
      "payable": false,
      "stateMutability": "view",
      "type": "function"
    },
    {
      "constant": true,
      "inputs": [],
      "name": "balanceCompound",
      "outputs": [
        {
          "internalType": "uint256",
          "name": "",
          "type": "uint256"
        }
      ],
      "payable": false,
      "stateMutability": "view",
      "type": "function"
    },
    {
      "constant": true,
      "inputs": [],
      "name": "balanceCompoundInToken",
      "outputs": [
        {
          "internalType": "uint256",
          "name": "",
          "type": "uint256"
        }
      ],
      "payable": false,
      "stateMutability": "view",
      "type": "function"
    },
    {
      "constant": true,
      "inputs": [],
      "name": "balanceFulcrumInToken",
      "outputs": [
        {
          "internalType": "uint256",
          "name": "",
          "type": "uint256"
        }
      ],
      "payable": false,
      "stateMutability": "view",
      "type": "function"
    },
    {
      "constant": true,
      "inputs": [],
      "name": "balanceFulcrum",
      "outputs": [
        {
          "internalType": "uint256",
          "name": "",
          "type": "uint256"
        }
      ],
      "payable": false,
      "stateMutability": "view",
      "type": "function"
    },
    {
      "constant": true,
      "inputs": [],
      "name": "balanceAave",
      "outputs": [
        {
          "internalType": "uint256",
          "name": "",
          "type": "uint256"
        }
      ],
      "payable": false,
      "stateMutability": "view",
      "type": "function"
    },
    {
      "constant": false,
      "inputs": [],
      "name": "rebalance",
      "outputs": [],
      "payable": false,
      "stateMutability": "nonpayable",
      "type": "function"
    },
    {
      "constant": false,
      "inputs": [
        {
          "internalType": "uint256",
          "name": "amount",
          "type": "uint256"
        }
      ],
      "name": "supplyAave",
      "outputs": [],
      "payable": false,
      "stateMutability": "nonpayable",
      "type": "function"
    },
    {
      "constant": false,
      "inputs": [
        {
          "internalType": "uint256",
          "name": "amount",
          "type": "uint256"
        }
      ],
      "name": "supplyFulcrum",
      "outputs": [],
      "payable": false,
      "stateMutability": "nonpayable",
      "type": "function"
    },
    {
      "constant": false,
      "inputs": [
        {
          "internalType": "uint256",
          "name": "amount",
          "type": "uint256"
        }
      ],
      "name": "supplyCompound",
      "outputs": [],
      "payable": false,
      "stateMutability": "nonpayable",
      "type": "function"
    },
    {
      "constant": true,
      "inputs": [],
      "name": "calcPoolValueInToken",
      "outputs": [
        {
          "internalType": "uint256",
          "name": "",
          "type": "uint256"
        }
      ],
      "payable": false,
      "stateMutability": "view",
      "type": "function"
    },
    {
      "constant": true,
      "inputs": [],
      "name": "getPricePerFullShare",
      "outputs": [
        {
          "internalType": "uint256",
          "name": "",
          "type": "uint256"
        }
      ],
      "payable": false,
      "stateMutability": "view",
      "type": "function"
    }
  ],
  "bytecode": "0x6080604052601280546001600160a01b0319908116737a250d5630b4cf539739df2c5dacb4c659f2488d179091556013805482166e085d4780b73119b644ae5ecd22b3761790556014805490911673c02aaa39b223fe8d0a0e5c4f27ead9083c756cc2179055690a968163f0a57b40000060175560006018556019805460ff191690553480156200008f57600080fd5b5060405162005b9438038062005b94833981016040819052620000b29162000748565b604080518082018252600a8152691e59585c9b88151554d160b21b6020808301918252835180850190945260058452641e551554d160da1b90840152815191929160129162000105916003919062000658565b5081516200011b90600490602085019062000658565b506005805460ff191660ff929092169190911790555050600160065562000141620002ac565b600780546001600160a01b0319166001600160a01b0392831617908190556040519116906000907f8be0079c531659141344cd1fd0a4f28419497f9722a3daafe3b4186f6b6457e0908290a3600980546001600160a01b03199081166e085d4780b73119b644ae5ecd22b3761790915560108054821673dd6d648c991f7d47454354f4ef326b04025a48a8179055600e80548216731e0447b19bb6ecfdae1e4ae1694b0c3659614e4e179055600c805482167324a42fd28c976a61df5d00d0599c34c4f90748c8179055600b805482167349f4592e641820e928f9919ef4abd92a719b4b49179055600d80548216734da9b813057d04baef4e5800e36083717b4a0341179055600a805482167339aa39c021dfbae8fac545936693ac917d5e75631790556000600f55601680546001600160a01b03858116918416919091179091556015805491841691909216179055620002a46001600160e01b03620002b116565b505062000a69565b335b90565b600a54600954620002de916001600160a01b03918216911660001962000373602090811b620033c717901c565b600e546009546200030b916001600160a01b03918216911660001962000373602090811b620033c717901c565b62000344620003226001600160e01b036200048d16565b6009546001600160a01b03169060001962000373602090811b620033c717901c565b600b5460095462000371916001600160a01b03918216911660001962000373602090811b620033c717901c565b565b801580620004025750604051636eb1769f60e11b81526001600160a01b0384169063dd62ed3e90620003ac903090869060040162000954565b60206040518083038186803b158015620003c557600080fd5b505afa158015620003da573d6000803e3d6000fd5b505050506040513d601f19601f82011682018060405250620004009190810190620007a8565b155b6200042a5760405162461bcd60e51b81526004016200042190620009b6565b60405180910390fd5b6040516200048890849063095ea7b360e01b906200044f908690869060240162000973565b60408051808303601f190181529190526020810180516001600160e01b0319939093166001600160e01b03938416179052906200051316565b505050565b600c546040805163076b7fbb60e51b815290516000926001600160a01b03169163ed6ff760916004808301926020929190829003018186803b158015620004d357600080fd5b505afa158015620004e8573d6000803e3d6000fd5b505050506040513d601f19601f820116820180604052506200050e919081019062000727565b905090565b62000532826001600160a01b03166200061b60201b62003d5b1760201c565b620005515760405162461bcd60e51b81526004016200042190620009c8565b60006060836001600160a01b0316836040516200056f91906200093f565b6000604051808303816000865af19150503d8060008114620005ae576040519150601f19603f3d011682016040523d82523d6000602084013e620005b3565b606091505b509150915081620005d85760405162461bcd60e51b8152600401620004219062000992565b805115620006155780806020019051620005f6919081019062000787565b620006155760405162461bcd60e51b81526004016200042190620009a4565b50505050565b6000813f7fc5d2460186f7233c927e7db2dcc703c0e500b653ca82273b7bfad8045d85a4708115801590620006505750808214155b949350505050565b828054600181600116156101000203166002900490600052602060002090601f016020900481019282601f106200069b57805160ff1916838001178555620006cb565b82800160010185558215620006cb579182015b82811115620006cb578251825591602001919060010190620006ae565b50620006d9929150620006dd565b5090565b620002ae91905b80821115620006d95760008155600101620006e4565b8051620007078162000a39565b92915050565b8051620007078162000a53565b8051620007078162000a5e565b6000602082840312156200073a57600080fd5b6000620006508484620006fa565b600080604083850312156200075c57600080fd5b60006200076a8585620006fa565b92505060206200077d85828601620006fa565b9150509250929050565b6000602082840312156200079a57600080fd5b60006200065084846200070d565b600060208284031215620007bb57600080fd5b60006200065084846200071a565b620007d481620009ec565b82525050565b6000620007e782620009da565b620007f38185620009de565b93506200080581856020860162000a0a565b9290920192915050565b60006200081e602083620009e3565b7f5361666545524332303a206c6f772d6c6576656c2063616c6c206661696c6564815260200192915050565b600062000859602a83620009e3565b7f5361666545524332303a204552433230206f7065726174696f6e20646964206e8152691bdd081cdd58d8d9595960b21b602082015260400192915050565b6000620008a7603683620009e3565b7f5361666545524332303a20617070726f76652066726f6d206e6f6e2d7a65726f81527f20746f206e6f6e2d7a65726f20616c6c6f77616e636500000000000000000000602082015260400192915050565b600062000908601f83620009e3565b7f5361666545524332303a2063616c6c20746f206e6f6e2d636f6e747261637400815260200192915050565b620007d481620002ae565b60006200094d8284620007da565b9392505050565b60408101620009648285620007c9565b6200094d6020830184620007c9565b60408101620009838285620007c9565b6200094d602083018462000934565b6020808252810162000707816200080f565b6020808252810162000707816200084a565b60208082528101620007078162000898565b602080825281016200070781620008f9565b5190565b919050565b90815260200190565b60006200070782620009fe565b151590565b6001600160a01b031690565b60005b8381101562000a2757818101518382015260200162000a0d565b83811115620006155750506000910152565b62000a4481620009ec565b811462000a5057600080fd5b50565b62000a4481620009f9565b62000a4481620002ae565b61511b8062000a796000396000f3fe6080604052600436106103de5760003560e01c80637d7c2a1c1161020d578063b6b55f2511610128578063f2978d98116100bb578063f5ff19161161008a578063f7c1ec771161006f578063f7c1ec7714610a57578063f82ce27d14610a6c578063fc0c546a14610a81576103de565b8063f5ff191614610a22578063f69e204614610a42576103de565b8063f2978d98146109c3578063f29e15a2146109d8578063f2fde38b146109ed578063f5a41dea14610a0d576103de565b8063dd62ed3e116100f7578063dd62ed3e1461094e578063e849d6591461096e578063ebc511601461098e578063f02fbd4a146109a3576103de565b8063b6b55f25146108e4578063bea9849e14610904578063cf8ca42614610924578063d9d7858a14610939576103de565b806399b71d5c116101a0578063a72879711161016f578063a72879711461087a578063a9059cbb1461088f578063a9a1015a146108af578063b69ef8a8146108cf576103de565b806399b71d5c146108105780639ff011b914610825578063a160176d14610845578063a457c2d71461085a576103de565b80638da5cb5b116101dc5780638da5cb5b146107bc5780638e4ec6ef146107d15780638f32d59b146107e657806395d89b41146107fb576103de565b80637d7c2a1c146107505780637f50d4d8146107655780638124955c14610787578063819faf7b146107a7576103de565b8063413e920d116102fd5780636ff2bf0811610290578063735de9f71161025f578063735de9f7146106f157806375b5be2d1461070657806377c7b8fc1461071b5780637b82784c14610730576103de565b80636ff2bf081461069257806370a08231146106a75780637137ef99146106c7578063715018a6146106dc576103de565b806357ded9c9116102cc57806357ded9c91461063357806358782c211461064857806361c1ec551461065d57806365aab74914610672576103de565b8063413e920d146105c957806346357473146105de5780634fd96cb6146105fe5780634fe411291461061e576103de565b806323b872dd11610375578063313ce56711610344578063313ce5671461055d578063395093511461057f57806339c0a7e11461059f5780633fc8cef3146105b4576103de565b806323b872dd146104e85780632622678c146105085780632e1a7d4d1461051d5780632eb4520a1461053d576103de565b8063095ea7b3116103b1578063095ea7b31461047c5780630eb2a267146104a957806316f0115b146104be57806318160ddd146104d3576103de565b806306636c1c146103e057806306a3fe591461041657806306fdde0314610438578063085d48831461045a575b005b3480156103ec57600080fd5b506104006103fb366004614172565b610a96565b60405161040d9190614def565b60405180910390f35b34801561042257600080fd5b5061042b610c4d565b60405161040d9190614b54565b34801561044457600080fd5b5061044d610c69565b60405161040d9190614c53565b34801561046657600080fd5b5061046f610d1e565b60405161040d9190614c45565b34801561048857600080fd5b5061049c610497366004614045565b610d27565b60405161040d9190614c29565b3480156104b557600080fd5b50610400610d45565b3480156104ca57600080fd5b50610400610df1565b3480156104df57600080fd5b50610400610df7565b3480156104f457600080fd5b5061049c610503366004613ff8565b610dfd565b34801561051457600080fd5b5061042b610ea5565b34801561052957600080fd5b506103de610538366004614172565b610ec1565b34801561054957600080fd5b506103de610558366004613f82565b611459565b34801561056957600080fd5b506105726114de565b60405161040d9190614e8c565b34801561058b57600080fd5b5061049c61059a366004614045565b6114e7565b3480156105ab57600080fd5b50610400611548565b3480156105c057600080fd5b5061042b611615565b3480156105d557600080fd5b50610400611631565b3480156105ea57600080fd5b506103de6105f9366004613f82565b611638565b34801561060a57600080fd5b506103de610619366004613f82565b6116bd565b34801561062a57600080fd5b506103de611742565b34801561063f57600080fd5b5061042b6117d0565b34801561065457600080fd5b5061042b6117ec565b34801561066957600080fd5b50610400611808565b34801561067e57600080fd5b506103de61068d366004614172565b61185f565b34801561069e57600080fd5b506104006118f8565b3480156106b357600080fd5b506104006106c2366004613f82565b6119bf565b3480156106d357600080fd5b506104006119eb565b3480156106e857600080fd5b506103de611a2d565b3480156106fd57600080fd5b5061042b611ada565b34801561071257600080fd5b5061042b611af6565b34801561072757600080fd5b50610400611b12565b34801561073c57600080fd5b5061040061074b366004613f82565b611b45565b34801561075c57600080fd5b506103de611b57565b34801561077157600080fd5b5061077a611c64565b60405161040d9190614c37565b34801561079357600080fd5b506103de6107a2366004614172565b611c80565b3480156107b357600080fd5b5061042b611d62565b3480156107c857600080fd5b5061042b611d7e565b3480156107dd57600080fd5b5061042b611d9a565b3480156107f257600080fd5b5061049c611db6565b34801561080757600080fd5b5061044d611df6565b34801561081c57600080fd5b506103de611e75565b34801561083157600080fd5b506103de610840366004614172565b611fb8565b34801561085157600080fd5b5061046f611ffb565b34801561086657600080fd5b5061049c610875366004614045565b612151565b34801561088657600080fd5b506104006121cc565b34801561089b57600080fd5b5061049c6108aa366004614045565b61229b565b3480156108bb57600080fd5b506103de6108ca366004614045565b6122af565b3480156108db57600080fd5b50610400612398565b3480156108f057600080fd5b506103de6108ff366004614172565b6123ef565b34801561091057600080fd5b506103de61091f366004613f82565b612546565b34801561093057600080fd5b506104006125cb565b34801561094557600080fd5b50610400612622565b34801561095a57600080fd5b50610400610969366004613fbe565b612628565b34801561097a57600080fd5b506103de610989366004614172565b612660565b34801561099a57600080fd5b5061040061273f565b3480156109af57600080fd5b506103de6109be366004614172565b612745565b3480156109cf57600080fd5b50610400612788565b3480156109e457600080fd5b5061040061278e565b3480156109f957600080fd5b506103de610a08366004613f82565b612794565b348015610a1957600080fd5b506104006127db565b348015610a2e57600080fd5b506103de610a3d366004613f82565b612894565b348015610a4e57600080fd5b5061042b612919565b348015610a6357600080fd5b5061042b612935565b348015610a7857600080fd5b5061042b6129d8565b348015610a8d57600080fd5b5061042b612a43565b60408051600180825281830190925260009160609190816020015b610ab9613d97565b815260200190600190039081610ab157905050905060405180604001604052803073ffffffffffffffffffffffffffffffffffffffff168152602001600081525081600081518110610b0757fe5b6020026020010181905250610b1a613dae565b6040805160808101909152600181526020810160008152602001600081526020018590529050610b48613dd7565b60008181905250600060208201526040808201839052600f546060808401919091523060a0840152815160018082528184019093529091816020015b610b8c613dd7565b815260200190600190039081610b845790505090508181600081518110610baf57fe5b6020908102919091010152600e546040517fa67a6a4500000000000000000000000000000000000000000000000000000000815273ffffffffffffffffffffffffffffffffffffffff9091169063a67a6a4590610c129087908590600401614c04565b600060405180830381600087803b158015610c2c57600080fd5b505af1158015610c40573d6000803e3d6000fd5b5050505050505050919050565b600d5473ffffffffffffffffffffffffffffffffffffffff1681565b60038054604080516020601f60027fffffffffffffffffffffffffffffffffffffffffffffffffffffffffffffffff610100600188161502019095169490940493840181900481028201810190925282815260609390929091830182828015610d135780601f10610ce857610100808354040283529160200191610d13565b820191906000526020600020905b815481529060010190602001808311610cf657829003601f168201915b505050505090505b90565b60195460ff1681565b6000610d3b610d34612a5f565b8484612a63565b5060015b92915050565b600b546040517f70a0823100000000000000000000000000000000000000000000000000000000815260009173ffffffffffffffffffffffffffffffffffffffff16906370a0823190610d9c903090600401614b62565b60206040518083038186803b158015610db457600080fd5b505afa158015610dc8573d6000803e3d6000fd5b505050506040513d601f19601f82011682018060405250610dec9190810190614190565b905090565b60085481565b60025490565b6000610e0a848484612b72565b610e9a84610e16612a5f565b610e958560405180606001604052806028815260200161508c6028913973ffffffffffffffffffffffffffffffffffffffff8a16600090815260016020526040812090610e61612a5f565b73ffffffffffffffffffffffffffffffffffffffff168152602081019190915260400160002054919063ffffffff612cfd16565b612a63565b5060015b9392505050565b60155473ffffffffffffffffffffffffffffffffffffffff1681565b6006805460010190819055610ed533612d43565b15610f15576040517f08c379a0000000000000000000000000000000000000000000000000000000008152600401610f0c90614d04565b60405180910390fd5b60008211610f4f576040517f08c379a0000000000000000000000000000000000000000000000000000000008152600401610f0c90614d24565b6000610f5a336119bf565b905080831115610f96576040517f08c379a0000000000000000000000000000000000000000000000000000000008152600401610f0c90614d14565b610f9e6119eb565b6008556000610fab6118f8565b90506000610fd6600254610fca87600854612d4990919063ffffffff16565b9063ffffffff612d9d16565b604080518082018252601d81527f72656465656d20616d6f756e7420657863656564732062616c616e63650000006020808301919091523360009081529081905291909120549192506110319190879063ffffffff612cfd16565b33600090815260208190526040902055600254611054908663ffffffff612ddf16565b60025560405160009033907fddf252ad1be2c89b69c2b068fc378daa952ba7f163c4a11628f55a4df523b3ef9061108c908990614def565b60405180910390a36009546040517f70a0823100000000000000000000000000000000000000000000000000000000815260009173ffffffffffffffffffffffffffffffffffffffff16906370a08231906110eb903090600401614b62565b60206040518083038186803b15801561110357600080fd5b505afa158015611117573d6000803e3d6000fd5b505050506040513d601f19601f8201168201806040525061113b9190810190614190565b90508181101561115d5761115d611158838363ffffffff612ddf16565b612e21565b600061117083606463ffffffff612d9d16565b336000818152601160205260409081902043905560165490517fa9059cbb00000000000000000000000000000000000000000000000000000000815292935073ffffffffffffffffffffffffffffffffffffffff169163a9059cbb916111da918890600401614b70565b602060405180830381600087803b1580156111f457600080fd5b505af1158015611208573d6000803e3d6000fd5b505050506040513d601f19601f8201168201806040525061122c91908101906140aa565b50600061123882612f2b565b6016546040517f70a0823100000000000000000000000000000000000000000000000000000000815291925060009173ffffffffffffffffffffffffffffffffffffffff909116906370a0823190611294908490600401614b62565b60206040518083038186803b1580156112ac57600080fd5b505afa1580156112c0573d6000803e3d6000fd5b505050506040513d601f19601f820116820180604052506112e49190810190614190565b905060175481101561137c5760006113086064610fca85606263ffffffff612d4916565b905061131381613107565b50600061132c6064610fca86600263ffffffff612d4916565b60155460405191925073ffffffffffffffffffffffffffffffffffffffff169082156108fc029083906000818181858888f19350505050158015611374573d6000803e3d6000fd5b5050506113c6565b601554604051839173ffffffffffffffffffffffffffffffffffffffff169082156108fc029083906000818181858888f193505050501580156113c3573d6000803e3d6000fd5b50505b611400336113da878663ffffffff612ddf16565b60095473ffffffffffffffffffffffffffffffffffffffff16919063ffffffff61326516565b6114086119eb565b600855611413611b57565b505050505050506006548114611455576040517f08c379a0000000000000000000000000000000000000000000000000000000008152600401610f0c90614d94565b5050565b611461611db6565b611497576040517f08c379a0000000000000000000000000000000000000000000000000000000008152600401610f0c90614cf4565b601580547fffffffffffffffffffffffff00000000000000000000000000000000000000001673ffffffffffffffffffffffffffffffffffffffff92909216919091179055565b60055460ff1690565b6000610d3b6114f4612a5f565b84610e958560016000611505612a5f565b73ffffffffffffffffffffffffffffffffffffffff908116825260208083019390935260409182016000908120918c16815292529020549063ffffffff61332216565b6000611552613d97565b600e5460408051808201825230815260006020820152600f5491517fc190c2ec00000000000000000000000000000000000000000000000000000000815273ffffffffffffffffffffffffffffffffffffffff9093169263c190c2ec926115bc9291600401614dd4565b604080518083038186803b1580156115d357600080fd5b505afa1580156115e7573d6000803e3d6000fd5b505050506040513d601f19601f8201168201806040525061160b9190810190614154565b6020015191505090565b60145473ffffffffffffffffffffffffffffffffffffffff1681565b620f424081565b611640611db6565b611676576040517f08c379a0000000000000000000000000000000000000000000000000000000008152600401610f0c90614cf4565b601080547fffffffffffffffffffffffff00000000000000000000000000000000000000001673ffffffffffffffffffffffffffffffffffffffff92909216919091179055565b6116c5611db6565b6116fb576040517f08c379a0000000000000000000000000000000000000000000000000000000008152600401610f0c90614cf4565b601680547fffffffffffffffffffffffff00000000000000000000000000000000000000001673ffffffffffffffffffffffffffffffffffffffff92909216919091179055565b61174a611db6565b611780576040517f08c379a0000000000000000000000000000000000000000000000000000000008152600401610f0c90614cf4565b611788611d7e565b73ffffffffffffffffffffffffffffffffffffffff166108fc479081150290604051600060405180830381858888f193505050501580156117cd573d6000803e3d6000fd5b50565b60105473ffffffffffffffffffffffffffffffffffffffff1681565b600b5473ffffffffffffffffffffffffffffffffffffffff1681565b600a546040517f70a0823100000000000000000000000000000000000000000000000000000000815260009173ffffffffffffffffffffffffffffffffffffffff16906370a0823190610d9c903090600401614b62565b611867612935565b6009546040517fd2d0e06600000000000000000000000000000000000000000000000000000000815273ffffffffffffffffffffffffffffffffffffffff9283169263d2d0e066926118c3929116908590600090600401614bdc565b600060405180830381600087803b1580156118dd57600080fd5b505af11580156118f1573d6000803e3d6000fd5b5050505050565b33600090815260116020526040812054819015611937573360009081526011602052604090205461193090439063ffffffff612ddf16565b9050611941565b6000915050610d1b565b600061194c336119bf565b90506000806002541161196157506000611982565b61197f600254610fca846119736119eb565b9063ffffffff612d4916565b90505b60006119b6611964610fca86611973670de0b6b3a7640000610fca601854611973620f42408b612d9d90919063ffffffff16565b94505050505090565b73ffffffffffffffffffffffffffffffffffffffff81166000908152602081905260409020545b919050565b6000610dec6119f8612398565b611a21611a036125cb565b611a21611a0e611548565b611a21611a196127db565b611a216121cc565b9063ffffffff61332216565b611a35611db6565b611a6b576040517f08c379a0000000000000000000000000000000000000000000000000000000008152600401610f0c90614cf4565b60075460405160009173ffffffffffffffffffffffffffffffffffffffff16907f8be0079c531659141344cd1fd0a4f28419497f9722a3daafe3b4186f6b6457e0908390a3600780547fffffffffffffffffffffffff0000000000000000000000000000000000000000169055565b60125473ffffffffffffffffffffffffffffffffffffffff1681565b60135473ffffffffffffffffffffffffffffffffffffffff1681565b600080611b1d6119eb565b600254909150611b3f90610fca83670de0b6b3a764000063ffffffff612d4916565b91505090565b60116020526000908152604090205481565b6000611b61611ffb565b60195490915060ff166004811115611b7557fe5b816004811115611b8157fe5b14611b8e57611b8e613361565b6000611b98612398565b1115611c25576001816004811115611bac57fe5b1415611bc357611bbd6103fb612398565b50611c25565b6004816004811115611bd157fe5b1415611be757611be26107a2612398565b611c25565b6002816004811115611bf557fe5b1415611c0657611be2610989612398565b6003816004811115611c1457fe5b1415611c2557611c2561068d612398565b601980548291907fffffffffffffffffffffffffffffffffffffffffffffffffffffffffffffff00166001836004811115611c5c57fe5b021790555050565b60165473ffffffffffffffffffffffffffffffffffffffff1681565b600b546040517f40c10f1900000000000000000000000000000000000000000000000000000000815260009173ffffffffffffffffffffffffffffffffffffffff16906340c10f1990611cd99030908690600401614b70565b602060405180830381600087803b158015611cf357600080fd5b505af1158015611d07573d6000803e3d6000fd5b505050506040513d601f19601f82011682018060405250611d2b9190810190614190565b116117cd576040517f08c379a0000000000000000000000000000000000000000000000000000000008152600401610f0c90614d74565b600c5473ffffffffffffffffffffffffffffffffffffffff1681565b60075473ffffffffffffffffffffffffffffffffffffffff1690565b600e5473ffffffffffffffffffffffffffffffffffffffff1681565b60075460009073ffffffffffffffffffffffffffffffffffffffff16611dda612a5f565b73ffffffffffffffffffffffffffffffffffffffff1614905090565b60048054604080516020601f60027fffffffffffffffffffffffffffffffffffffffffffffffffffffffffffffffff610100600188161502019095169490940493840181900481028201810190925282815260609390929091830182828015610d135780601f10610ce857610100808354040283529160200191610d13565b600a54600954611ec59173ffffffffffffffffffffffffffffffffffffffff91821691167fffffffffffffffffffffffffffffffffffffffffffffffffffffffffffffffff63ffffffff6133c716565b600e54600954611f159173ffffffffffffffffffffffffffffffffffffffff91821691167fffffffffffffffffffffffffffffffffffffffffffffffffffffffffffffffff63ffffffff6133c716565b611f66611f206129d8565b60095473ffffffffffffffffffffffffffffffffffffffff16907fffffffffffffffffffffffffffffffffffffffffffffffffffffffffffffffff63ffffffff6133c716565b600b54600954611fb69173ffffffffffffffffffffffffffffffffffffffff91821691167fffffffffffffffffffffffffffffffffffffffffffffffffffffffffffffffff63ffffffff6133c716565b565b611fc0611db6565b611ff6576040517f08c379a0000000000000000000000000000000000000000000000000000000008152600401610f0c90614cf4565b600f55565b6010546009546040517fd88be3c0000000000000000000000000000000000000000000000000000000008152600092839283928392839273ffffffffffffffffffffffffffffffffffffffff9182169263d88be3c09261205f921690600401614b54565b60006040518083038186803b15801561207757600080fd5b505afa15801561208b573d6000803e3d6000fd5b505050506040513d6000823e601f3d9081017fffffffffffffffffffffffffffffffffffffffffffffffffffffffffffffffe01682016040526120d191908101906140c8565b929750909550935091506000905084156120e85750835b808411156120f35750825b808311156120fe5750815b808211156121095750805b60008186141561211b57506002612147565b8482141561212b57506004612147565b8382141561213b57506003612147565b82821415612147575060015b9550505050505090565b6000610d3b61215e612a5f565b84610e95856040518060600160405280602581526020016150b46025913960016000612188612a5f565b73ffffffffffffffffffffffffffffffffffffffff908116825260208083019390935260409182016000908120918d1681529252902054919063ffffffff612cfd16565b6000806121d7611808565b90508015610dec57610d3f670de0b6b3a7640000610fca600a60009054906101000a900473ffffffffffffffffffffffffffffffffffffffff1673ffffffffffffffffffffffffffffffffffffffff1663182df0f56040518163ffffffff1660e01b815260040160206040518083038186803b15801561225657600080fd5b505afa15801561226a573d6000803e3d6000fd5b505050506040513d601f19601f8201168201806040525061228e9190810190614190565b849063ffffffff612d4916565b6000610d3b6122a8612a5f565b8484612b72565b6122b7611db6565b6122ed576040517f08c379a0000000000000000000000000000000000000000000000000000000008152600401610f0c90614cf4565b6040517fa9059cbb00000000000000000000000000000000000000000000000000000000815273ffffffffffffffffffffffffffffffffffffffff83169063a9059cbb906123419033908590600401614b70565b602060405180830381600087803b15801561235b57600080fd5b505af115801561236f573d6000803e3d6000fd5b505050506040513d601f19601f8201168201806040525061239391908101906140aa565b505050565b6009546040517f70a0823100000000000000000000000000000000000000000000000000000000815260009173ffffffffffffffffffffffffffffffffffffffff16906370a0823190610d9c903090600401614b62565b600680546001019081905561240333612d43565b1561243a576040517f08c379a0000000000000000000000000000000000000000000000000000000008152600401610f0c90614d04565b60008211612474576040517f08c379a0000000000000000000000000000000000000000000000000000000008152600401610f0c90614d64565b61247c6119eb565b6008556009546124aa9073ffffffffffffffffffffffffffffffffffffffff1633308563ffffffff6134e616565b3360009081526011602052604081204390556008546124cf57506008829055816124ed565b6124ea600854610fca60025486612d4990919063ffffffff16565b90505b6124f56119eb565b6008556125023382613529565b61250a611b57565b506006548114611455576040517f08c379a0000000000000000000000000000000000000000000000000000000008152600401610f0c90614d94565b61254e611db6565b612584576040517f08c379a0000000000000000000000000000000000000000000000000000000008152600401610f0c90614cf4565b601280547fffffffffffffffffffffffff00000000000000000000000000000000000000001673ffffffffffffffffffffffffffffffffffffffff92909216919091179055565b600d546040517f70a0823100000000000000000000000000000000000000000000000000000000815260009173ffffffffffffffffffffffffffffffffffffffff16906370a0823190610d9c903090600401614b62565b600f5481565b73ffffffffffffffffffffffffffffffffffffffff918216600090815260016020908152604080832093909416825291909152205490565b600a546040517fa0712d6800000000000000000000000000000000000000000000000000000000815273ffffffffffffffffffffffffffffffffffffffff9091169063a0712d68906126b6908490600401614def565b602060405180830381600087803b1580156126d057600080fd5b505af11580156126e4573d6000803e3d6000fd5b505050506040513d601f19601f820116820180604052506127089190810190614190565b156117cd576040517f08c379a0000000000000000000000000000000000000000000000000000000008152600401610f0c90614ca4565b60185481565b61274d611db6565b612783576040517f08c379a0000000000000000000000000000000000000000000000000000000008152600401610f0c90614cf4565b601855565b61196481565b60175481565b61279c611db6565b6127d2576040517f08c379a0000000000000000000000000000000000000000000000000000000008152600401610f0c90614cf4565b6117cd8161362a565b6000806127e6610d45565b90508015610dec57600b546040517f06b3efd600000000000000000000000000000000000000000000000000000000815273ffffffffffffffffffffffffffffffffffffffff909116906306b3efd690612844903090600401614b62565b60206040518083038186803b15801561285c57600080fd5b505afa158015612870573d6000803e3d6000fd5b505050506040513d601f19601f82011682018060405250610d3f9190810190614190565b61289c611db6565b6128d2576040517f08c379a0000000000000000000000000000000000000000000000000000000008152600401610f0c90614cf4565b600a80547fffffffffffffffffffffffff00000000000000000000000000000000000000001673ffffffffffffffffffffffffffffffffffffffff92909216919091179055565b600a5473ffffffffffffffffffffffffffffffffffffffff1681565b600c54604080517f0261bf8b000000000000000000000000000000000000000000000000000000008152905160009273ffffffffffffffffffffffffffffffffffffffff1691630261bf8b916004808301926020929190829003018186803b1580156129a057600080fd5b505afa1580156129b4573d6000803e3d6000fd5b505050506040513d601f19601f82011682018060405250610dec9190810190613fa0565b600c54604080517fed6ff760000000000000000000000000000000000000000000000000000000008152905160009273ffffffffffffffffffffffffffffffffffffffff169163ed6ff760916004808301926020929190829003018186803b1580156129a057600080fd5b60095473ffffffffffffffffffffffffffffffffffffffff1681565b3390565b73ffffffffffffffffffffffffffffffffffffffff8316612ab0576040517f08c379a0000000000000000000000000000000000000000000000000000000008152600401610f0c90614d54565b73ffffffffffffffffffffffffffffffffffffffff8216612afd576040517f08c379a0000000000000000000000000000000000000000000000000000000008152600401610f0c90614c94565b73ffffffffffffffffffffffffffffffffffffffff80841660008181526001602090815260408083209487168084529490915290819020849055517f8c5be1e5ebec7d5bd14f71427d1e84f3dd0314c0f7b2291e5b200ac8c7c3b92590612b65908590614def565b60405180910390a3505050565b73ffffffffffffffffffffffffffffffffffffffff8316612bbf576040517f08c379a0000000000000000000000000000000000000000000000000000000008152600401610f0c90614d34565b73ffffffffffffffffffffffffffffffffffffffff8216612c0c576040517f08c379a0000000000000000000000000000000000000000000000000000000008152600401610f0c90614c64565b612c5c816040518060600160405280602681526020016150666026913973ffffffffffffffffffffffffffffffffffffffff8616600090815260208190526040902054919063ffffffff612cfd16565b73ffffffffffffffffffffffffffffffffffffffff8085166000908152602081905260408082209390935590841681522054612c9e908263ffffffff61332216565b73ffffffffffffffffffffffffffffffffffffffff80841660008181526020819052604090819020939093559151908516907fddf252ad1be2c89b69c2b068fc378daa952ba7f163c4a11628f55a4df523b3ef90612b65908590614def565b60008184841115612d3b576040517f08c379a0000000000000000000000000000000000000000000000000000000008152600401610f0c9190614c53565b505050900390565b3b151590565b600082612d5857506000610d3f565b82820282848281612d6557fe5b0414610e9e576040517f08c379a0000000000000000000000000000000000000000000000000000000008152600401610f0c90614cd4565b6000610e9e83836040518060400160405280601a81526020017f536166654d6174683a206469766973696f6e206279207a65726f000000000000815250613705565b6000610e9e83836040518060400160405280601e81526020017f536166654d6174683a207375627472616374696f6e206f766572666c6f770000815250612cfd565b600260195460ff166004811115612e3457fe5b1415612e4357612e4381613756565b600360195460ff166004811115612e5657fe5b1415612ea65780612e656125cb565b1015612e9d576040517f08c379a0000000000000000000000000000000000000000000000000000000008152600401610f0c90614d44565b612ea6816137ce565b600160195460ff166004811115612eb957fe5b1415612f095780612ec8611548565b1015612f00576040517f08c379a0000000000000000000000000000000000000000000000000000000008152600401610f0c90614d44565b612f0981613824565b600460195460ff166004811115612f1c57fe5b14156117cd576117cd816139d5565b601254601354600091612f5e9173ffffffffffffffffffffffffffffffffffffffff90811691168363ffffffff6133c716565b601254601354612f8e9173ffffffffffffffffffffffffffffffffffffffff91821691168463ffffffff6133c716565b60408051600280825260608083018452926020830190803883395050601354825192935073ffffffffffffffffffffffffffffffffffffffff1691839150600090612fd557fe5b73ffffffffffffffffffffffffffffffffffffffff928316602091820292909201015260145482519116908290600190811061300d57fe5b73ffffffffffffffffffffffffffffffffffffffff9283166020918202929092010152601254606091166318cbafe585600085306130534261070863ffffffff61332216565b6040518663ffffffff1660e01b8152600401613073959493929190614e39565b600060405180830381600087803b15801561308d57600080fd5b505af11580156130a1573d6000803e3d6000fd5b505050506040513d6000823e601f3d9081017fffffffffffffffffffffffffffffffffffffffffffffffffffffffffffffffe01682016040526130e79190810190614075565b9050806001815181106130f657fe5b602002602001015192505050919050565b60408051600280825260608083018452600093909291906020830190803883395050601454825192935073ffffffffffffffffffffffffffffffffffffffff169183915060009061315457fe5b73ffffffffffffffffffffffffffffffffffffffff928316602091820292909201015260165482519116908290600190811061318c57fe5b73ffffffffffffffffffffffffffffffffffffffff928316602091820292909201015260125460609116637ff36ab585600085816131d24261070863ffffffff61332216565b6040518663ffffffff1660e01b81526004016131f19493929190614dfd565b6000604051808303818588803b15801561320a57600080fd5b505af115801561321e573d6000803e3d6000fd5b50505050506040513d6000823e601f3d9081017fffffffffffffffffffffffffffffffffffffffffffffffffffffffffffffffe01682016040526130e79190810190614075565b6040516123939084907fa9059cbb00000000000000000000000000000000000000000000000000000000906132a09086908690602401614bce565b604080517fffffffffffffffffffffffffffffffffffffffffffffffffffffffffffffffe08184030181529190526020810180517bffffffffffffffffffffffffffffffffffffffffffffffffffffffff167fffffffff0000000000000000000000000000000000000000000000000000000090931692909217909152613a4d565b600082820183811015610e9e576040517f08c379a0000000000000000000000000000000000000000000000000000000008152600401610f0c90614cb4565b600061336b611808565b9050801561337c5761337c81613b9a565b613384611548565b905080156133955761339581613824565b61339d610d45565b905080156133ae576133ae81613c79565b6133b66125cb565b905080156117cd576117cd816137ce565b80158061347557506040517fdd62ed3e00000000000000000000000000000000000000000000000000000000815273ffffffffffffffffffffffffffffffffffffffff84169063dd62ed3e906134239030908690600401614b8b565b60206040518083038186803b15801561343b57600080fd5b505afa15801561344f573d6000803e3d6000fd5b505050506040513d601f19601f820116820180604052506134739190810190614190565b155b6134ab576040517f08c379a0000000000000000000000000000000000000000000000000000000008152600401610f0c90614da4565b6040516123939084907f095ea7b300000000000000000000000000000000000000000000000000000000906132a09086908690602401614bce565b6040516135239085907f23b872dd00000000000000000000000000000000000000000000000000000000906132a090879087908790602401614ba6565b50505050565b73ffffffffffffffffffffffffffffffffffffffff8216613576576040517f08c379a0000000000000000000000000000000000000000000000000000000008152600401610f0c90614dc4565b600254613589908263ffffffff61332216565b60025573ffffffffffffffffffffffffffffffffffffffff82166000908152602081905260409020546135c2908263ffffffff61332216565b73ffffffffffffffffffffffffffffffffffffffff83166000818152602081905260408082209390935591519091907fddf252ad1be2c89b69c2b068fc378daa952ba7f163c4a11628f55a4df523b3ef9061361e908590614def565b60405180910390a35050565b73ffffffffffffffffffffffffffffffffffffffff8116613677576040517f08c379a0000000000000000000000000000000000000000000000000000000008152600401610f0c90614c84565b60075460405173ffffffffffffffffffffffffffffffffffffffff8084169216907f8be0079c531659141344cd1fd0a4f28419497f9722a3daafe3b4186f6b6457e090600090a3600780547fffffffffffffffffffffffff00000000000000000000000000000000000000001673ffffffffffffffffffffffffffffffffffffffff92909216919091179055565b60008183613740576040517f08c379a0000000000000000000000000000000000000000000000000000000008152600401610f0c9190614c53565b50600083858161374c57fe5b0495945050505050565b6000613760611808565b9050600061376c6121cc565b9050828110156137a8576040517f08c379a0000000000000000000000000000000000000000000000000000000008152600401610f0c90614d44565b60006137c36001611a2184610fca878963ffffffff612d4916565b905061352381613b9a565b600d546040517fdb006a7500000000000000000000000000000000000000000000000000000000815273ffffffffffffffffffffffffffffffffffffffff9091169063db006a75906118c3908490600401614def565b604080516001808252818301909252606091816020015b613843613d97565b81526020019060019003908161383b57905050905060405180604001604052803073ffffffffffffffffffffffffffffffffffffffff16815260200160008152508160008151811061389157fe5b60200260200101819052506138a4613dae565b60408051608081019091526000808252602082019081526020016000815260200184905290506138d2613dd7565b60018181905250600060208201526040808201839052600f546060808401919091523060a0840152815160018082528184019093529091816020015b613916613dd7565b81526020019060019003908161390e579050509050818160008151811061393957fe5b6020908102919091010152600e546040517fa67a6a4500000000000000000000000000000000000000000000000000000000815273ffffffffffffffffffffffffffffffffffffffff9091169063a67a6a459061399c9087908590600401614c04565b600060405180830381600087803b1580156139b657600080fd5b505af11580156139ca573d6000803e3d6000fd5b505050505050505050565b60006139df610d45565b905060006139eb6127db565b905082811015613a27576040517f08c379a0000000000000000000000000000000000000000000000000000000008152600401610f0c90614d44565b6000613a426001611a2184610fca878963ffffffff612d4916565b905061352381613c79565b613a6c8273ffffffffffffffffffffffffffffffffffffffff16613d5b565b613aa2576040517f08c379a0000000000000000000000000000000000000000000000000000000008152600401610f0c90614db4565b600060608373ffffffffffffffffffffffffffffffffffffffff1683604051613acb9190614b48565b6000604051808303816000865af19150503d8060008114613b08576040519150601f19603f3d011682016040523d82523d6000602084013e613b0d565b606091505b509150915081613b49576040517f08c379a0000000000000000000000000000000000000000000000000000000008152600401610f0c90614cc4565b8051156135235780806020019051613b6491908101906140aa565b613523576040517f08c379a0000000000000000000000000000000000000000000000000000000008152600401610f0c90614d84565b600a546040517fdb006a7500000000000000000000000000000000000000000000000000000000815273ffffffffffffffffffffffffffffffffffffffff9091169063db006a7590613bf0908490600401614def565b602060405180830381600087803b158015613c0a57600080fd5b505af1158015613c1e573d6000803e3d6000fd5b505050506040513d601f19601f82011682018060405250613c429190810190614190565b156117cd576040517f08c379a0000000000000000000000000000000000000000000000000000000008152600401610f0c90614c74565b600b546040517f9dc29fac00000000000000000000000000000000000000000000000000000000815260009173ffffffffffffffffffffffffffffffffffffffff1690639dc29fac90613cd29030908690600401614b70565b602060405180830381600087803b158015613cec57600080fd5b505af1158015613d00573d6000803e3d6000fd5b505050506040513d601f19601f82011682018060405250613d249190810190614190565b116117cd576040517f08c379a0000000000000000000000000000000000000000000000000000000008152600401610f0c90614ce4565b6000813f7fc5d2460186f7233c927e7db2dcc703c0e500b653ca82273b7bfad8045d85a4708115801590613d8f5750808214155b949350505050565b604080518082019091526000808252602082015290565b604080516080810190915260008082526020820190815260200160008152602001600081525090565b604080516101008101825260008082526020820152908101613df7613dae565b81526020016000815260200160008152602001600073ffffffffffffffffffffffffffffffffffffffff16815260200160008152602001606081525090565b8035610d3f8161503f565b8051610d3f8161503f565b600082601f830112613e5d57600080fd5b8151613e70613e6b82614ec1565b614e9a565b91508181835260208401935060208101905083856020840282011115613e9557600080fd5b60005b83811015613ec15781613eab8882613f77565b8452506020928301929190910190600101613e98565b5050505092915050565b8051610d3f81615053565b600082601f830112613ee757600080fd5b8151613ef5613e6b82614ee2565b91508082526020830160208301858383011115613f1157600080fd5b613f1c838284614fcd565b50505092915050565b600060408284031215613f3757600080fd5b613f416040614e9a565b90506000613f4f8484613ecb565b8252506020613f6084848301613f77565b60208301525092915050565b8035610d3f8161505c565b8051610d3f8161505c565b600060208284031215613f9457600080fd5b6000613d8f8484613e36565b600060208284031215613fb257600080fd5b6000613d8f8484613e41565b60008060408385031215613fd157600080fd5b6000613fdd8585613e36565b9250506020613fee85828601613e36565b9150509250929050565b60008060006060848603121561400d57600080fd5b60006140198686613e36565b935050602061402a86828701613e36565b925050604061403b86828701613f6c565b9150509250925092565b6000806040838503121561405857600080fd5b60006140648585613e36565b9250506020613fee85828601613f6c565b60006020828403121561408757600080fd5b815167ffffffffffffffff81111561409e57600080fd5b613d8f84828501613e4c565b6000602082840312156140bc57600080fd5b6000613d8f8484613ecb565b600080600080600060a086880312156140e057600080fd5b855167ffffffffffffffff8111156140f757600080fd5b61410388828901613ed6565b955050602061411488828901613f77565b945050604061412588828901613f77565b935050606061413688828901613f77565b925050608061414788828901613f77565b9150509295509295909350565b60006040828403121561416657600080fd5b6000613d8f8484613f25565b60006020828403121561418457600080fd5b6000613d8f8484613f6c565b6000602082840312156141a257600080fd5b6000613d8f8484613f77565b60006141ba83836141f1565b505060200190565b6000610e9e8383614a21565b60006141da8383614b16565b505060400190565b6141eb81614f8f565b82525050565b6141eb81614f3b565b600061420582614f2e565b61420f8185614f32565b935061421a83614f28565b8060005b8381101561424857815161423288826141ae565b975061423d83614f28565b92505060010161421e565b509495945050505050565b600061425e82614f2e565b6142688185614f32565b93508360208202850161427a85614f28565b8060005b858110156142b4578484038952815161429785826141c2565b94506142a283614f28565b60209a909a019992505060010161427e565b5091979650505050505050565b60006142cc82614f2e565b6142d68185614f32565b93506142e183614f28565b8060005b838110156142485781516142f988826141ce565b975061430483614f28565b9250506001016142e5565b6141eb81614f46565b600061432382614f2e565b61432d81856119e6565b935061433d818560208601614fcd565b9290920192915050565b600061435282614f2e565b61435c8185614f32565b935061436c818560208601614fcd565b61437581614ff9565b9093019392505050565b6141eb81614f96565b6141eb81614fa1565b6141eb81614fac565b6141eb81614fb7565b6141eb81614fc2565b60006143b9602383614f32565b7f45524332303a207472616e7366657220746f20746865207a65726f206164647281527f6573730000000000000000000000000000000000000000000000000000000000602082015260400192915050565b6000614418601983614f32565b7f434f4d504f554e443a207769746864726177206661696c656400000000000000815260200192915050565b6000614451602683614f32565b7f4f776e61626c653a206e6577206f776e657220697320746865207a65726f206181527f6464726573730000000000000000000000000000000000000000000000000000602082015260400192915050565b60006144b0602283614f32565b7f45524332303a20617070726f766520746f20746865207a65726f20616464726581527f7373000000000000000000000000000000000000000000000000000000000000602082015260400192915050565b600061450f601783614f32565b7f434f4d504f554e443a20737570706c79206661696c6564000000000000000000815260200192915050565b6000614548601b83614f32565b7f536166654d6174683a206164646974696f6e206f766572666c6f770000000000815260200192915050565b6000614581602083614f32565b7f5361666545524332303a206c6f772d6c6576656c2063616c6c206661696c6564815260200192915050565b60006145ba602183614f32565b7f536166654d6174683a206d756c7469706c69636174696f6e206f766572666c6f81527f7700000000000000000000000000000000000000000000000000000000000000602082015260400192915050565b6000614619601883614f32565b7f46554c4352554d3a207769746864726177206661696c65640000000000000000815260200192915050565b6000614652602083614f32565b7f4f776e61626c653a2063616c6c6572206973206e6f7420746865206f776e6572815260200192915050565b600061468b603383614f32565b7f436f6e74726163747320617265206e6f7420616c6c6f77656420746f20696e7481527f6572616374207769746820746865206661726d00000000000000000000000000602082015260400192915050565b60006146ea601483614f32565b7f696e73756666696369656e742062616c616e6365000000000000000000000000815260200192915050565b6000614723601f83614f32565b7f7769746864726177206d7573742062652067726561746572207468616e203000815260200192915050565b600061475c602583614f32565b7f45524332303a207472616e736665722066726f6d20746865207a65726f20616481527f6472657373000000000000000000000000000000000000000000000000000000602082015260400192915050565b60006147bb601283614f32565b7f696e73756666696369656e742066756e64730000000000000000000000000000815260200192915050565b60006147f4602483614f32565b7f45524332303a20617070726f76652066726f6d20746865207a65726f2061646481527f7265737300000000000000000000000000000000000000000000000000000000602082015260400192915050565b6000614853601e83614f32565b7f6465706f736974206d7573742062652067726561746572207468616e20300000815260200192915050565b600061488c601683614f32565b7f46554c4352554d3a20737570706c79206661696c656400000000000000000000815260200192915050565b60006148c5602a83614f32565b7f5361666545524332303a204552433230206f7065726174696f6e20646964206e81527f6f74207375636365656400000000000000000000000000000000000000000000602082015260400192915050565b6000614924601f83614f32565b7f5265656e7472616e637947756172643a207265656e7472616e742063616c6c00815260200192915050565b600061495d603683614f32565b7f5361666545524332303a20617070726f76652066726f6d206e6f6e2d7a65726f81527f20746f206e6f6e2d7a65726f20616c6c6f77616e636500000000000000000000602082015260400192915050565b60006149bc601f83614f32565b7f5361666545524332303a2063616c6c20746f206e6f6e2d636f6e747261637400815260200192915050565b60006149f5601f83614f32565b7f45524332303a206d696e7420746f20746865207a65726f206164647265737300815260200192915050565b8051600090610160840190614a368582614388565b506020830151614a496020860182614b36565b506040830151614a5c6040860182614acc565b506060830151614a6f60c0860182614b36565b506080830151614a8260e0860182614b36565b5060a0830151614a966101008601826141f1565b5060c0830151614aaa610120860182614b36565b5060e0830151848203610140860152614ac38282614347565b95945050505050565b80516080830190614add848261430f565b506020820151614af06020850182614391565b506040820151614b036040850182614391565b5060608201516135236060850182614b36565b80516040830190614b2784826141f1565b50602082015161352360208501825b6141eb81610d1b565b6141eb81614f89565b6000610e9e8284614318565b60208101610d3f82846141f1565b60208101610d3f82846141e2565b60408101614b7e82856141e2565b610e9e6020830184614b36565b60408101614b9982856141f1565b610e9e60208301846141f1565b60608101614bb482866141f1565b614bc160208301856141f1565b613d8f6040830184614b36565b60408101614b7e82856141f1565b60608101614bea82866141f1565b614bf76020830185614b36565b613d8f60408301846143a3565b60408082528101614c1581856142c1565b90508181036020830152613d8f8184614253565b60208101610d3f828461430f565b60208101610d3f828461437f565b60208101610d3f828461439a565b60208082528101610e9e8184614347565b60208082528101610d3f816143ac565b60208082528101610d3f8161440b565b60208082528101610d3f81614444565b60208082528101610d3f816144a3565b60208082528101610d3f81614502565b60208082528101610d3f8161453b565b60208082528101610d3f81614574565b60208082528101610d3f816145ad565b60208082528101610d3f8161460c565b60208082528101610d3f81614645565b60208082528101610d3f8161467e565b60208082528101610d3f816146dd565b60208082528101610d3f81614716565b60208082528101610d3f8161474f565b60208082528101610d3f816147ae565b60208082528101610d3f816147e7565b60208082528101610d3f81614846565b60208082528101610d3f8161487f565b60208082528101610d3f816148b8565b60208082528101610d3f81614917565b60208082528101610d3f81614950565b60208082528101610d3f816149af565b60208082528101610d3f816149e8565b60608101614de28285614b16565b610e9e6040830184614b36565b60208101610d3f8284614b36565b60808101614e0b8287614b36565b8181036020830152614e1d81866141fa565b9050614e2c60408301856141e2565b614ac36060830184614b36565b60a08101614e478288614b36565b614e546020830187614b36565b8181036040830152614e6681866141fa565b9050614e7560608301856141e2565b614e826080830184614b36565b9695505050505050565b60208101610d3f8284614b3f565b60405181810167ffffffffffffffff81118282101715614eb957600080fd5b604052919050565b600067ffffffffffffffff821115614ed857600080fd5b5060209081020190565b600067ffffffffffffffff821115614ef957600080fd5b506020601f919091017fffffffffffffffffffffffffffffffffffffffffffffffffffffffffffffffe0160190565b60200190565b5190565b90815260200190565b6000610d3f82614f70565b151590565b806119e681615021565b806119e68161502b565b806119e681615035565b61ffff1690565b73ffffffffffffffffffffffffffffffffffffffff1690565b60ff1690565b6000610d3f825b6000610d3f82614f3b565b6000610d3f82614f4b565b6000610d3f82614f55565b6000610d3f82614f5f565b6000610d3f82614f69565b60005b83811015614fe8578181015183820152602001614fd0565b838111156135235750506000910152565b601f017fffffffffffffffffffffffffffffffffffffffffffffffffffffffffffffffe01690565b600281106117cd57fe5b600181106117cd57fe5b600581106117cd57fe5b61504881614f3b565b81146117cd57600080fd5b61504881614f46565b61504881610d1b56fe45524332303a207472616e7366657220616d6f756e7420657863656564732062616c616e636545524332303a207472616e7366657220616d6f756e74206578636565647320616c6c6f77616e636545524332303a2064656372656173656420616c6c6f77616e63652062656c6f77207a65726fa365627a7a723158200995d6068d6a446edb29b513ab74355c5600c2ff12120c88cee93e9e9ae9b1426c6578706572696d656e74616cf564736f6c63430005110040",
  "source": "pragma solidity 0.5.17;\npragma experimental ABIEncoderV2;\n\nimport \"./ContractImports.sol\";\nimport \"./CommonFunctionality.sol\";\n\ncontract yTUSD is\n    ERC20,\n    ERC20Detailed,\n    ReentrancyGuard,\n    Ownable,\n    Structs,\n    CommonFunctionality\n{\n    using SafeERC20 for IERC20;\n    using Address for address;\n    using SafeMath for uint256;\n\n    uint256 public pool;\n    address public token;\n    address public compound;\n    address public fulcrum;\n    address public aave;\n    address public aaveToken;\n    address public dydx;\n    uint256 public dToken;\n    address public apr;\n\n    // Yeld\n    mapping(address => uint256) public depositBlockStarts;\n    address public uniswapRouter = 0x7a250d5630B4cF539739dF2C5dAcb4c659F2488D;\n    address public tusd = 0x0000000000085d4780B73119b644AE5ecd22b376;\n    address public weth = 0xC02aaA39b223FE8D0A0e5C4F27eAD9083C756Cc2;\n    address payable public retirementYeldTreasury;\n    IERC20 public yeldToken;\n    uint256 public maximumTokensToBurn = 50000 * 1e18;\n    uint256 public constant oneDayInBlocks = 6500;\n    uint256 public yeldToRewardPerDay = 0e18; // 100 YELD per day per 1 million stablecoins padded with 18 zeroes to have that flexibility\n    uint256 public constant oneMillion = 1e6;\n    // Yeld\n\n    enum Lender {NONE, DYDX, COMPOUND, AAVE, FULCRUM}\n\n    Lender public provider = Lender.NONE;\n\n    constructor(address _yeldToken, address payable _retirementYeldTreasury)\n        public\n        ERC20Detailed(\"yearn TUSD\", \"yTUSD\", 18)\n    {\n        token = address(0x0000000000085d4780B73119b644AE5ecd22b376);\n        apr = address(0xdD6d648C991f7d47454354f4Ef326b04025a48A8);\n        dydx = address(0x1E0447b19BB6EcFdAe1e4AE1694b0C3659614e4e);\n        aave = address(0x24a42fD28C976A61Df5D00D0599C34c4f90748c8);\n        fulcrum = address(0x49f4592E641820e928F9919Ef4aBd92a719B4b49);\n        aaveToken = address(0x4DA9b813057D04BAef4e5800E36083717b4a0341);\n        compound = address(0x39AA39c021dfbaE8faC545936693aC917d5E7563);\n        dToken = 0;\n        yeldToken = IERC20(_yeldToken);\n        retirementYeldTreasury = _retirementYeldTreasury;\n        approveToken();\n    }\n\n    // Yeld\n    // To receive ETH after converting it from TUSD\n    function() external payable {}\n\n    function setRetirementYeldTreasury(address payable _treasury)\n        public\n        onlyOwner\n    {\n        retirementYeldTreasury = _treasury;\n    }\n\n    // In case a new uniswap router version is released\n    function setUniswapRouter(address _uniswapRouter) public onlyOwner {\n        uniswapRouter = _uniswapRouter;\n    }\n\n    function setYeldToken(address _yeldToken) public onlyOwner {\n      yeldToken = IERC20(_yeldToken);\n    }\n\n    function extractTokensIfStuck(address _token, uint256 _amount)\n        public\n        onlyOwner\n    {\n        IERC20(_token).transfer(msg.sender, _amount);\n    }\n\n    function extractETHIfStuck() public onlyOwner {\n        owner().transfer(address(this).balance);\n    }\n\n    function changeYeldToRewardPerDay(uint256 _amount) public onlyOwner {\n        yeldToRewardPerDay = _amount;\n    }\n\n    function getGeneratedYelds() public view returns (uint256) {\n        uint256 blocksPassed;\n        if (depositBlockStarts[msg.sender] > 0) {\n            blocksPassed = block.number.sub(depositBlockStarts[msg.sender]);\n        } else {\n            return 0;\n        }\n        uint256 ibalance = balanceOf(msg.sender); // Balance of yTokens\n        uint256 accomulatedStablecoins;\n        if (_totalSupply <= 0) {\n            accomulatedStablecoins = 0;\n        } else {\n            accomulatedStablecoins = (calcPoolValueInToken().mul(ibalance)).div(\n                _totalSupply\n            );\n        }\n        uint256 generatedYelds =\n            accomulatedStablecoins\n                .div(oneMillion)\n                .mul(yeldToRewardPerDay)\n                .div(1e18)\n                .mul(blocksPassed)\n                .div(oneDayInBlocks);\n        return generatedYelds;\n    }\n\n    function tusdToETH(uint256 _amount) internal returns (uint256) {\n        IERC20(tusd).safeApprove(uniswapRouter, 0);\n        IERC20(tusd).safeApprove(uniswapRouter, _amount);\n        address[] memory path = new address[](2);\n        path[0] = tusd;\n        path[1] = weth;\n        uint256[] memory amounts =\n            IUniswap(uniswapRouter).swapExactTokensForETH(\n                _amount,\n                uint256(0),\n                path,\n                address(this),\n                now.add(1800)\n            );\n        return amounts[1];\n    }\n\n    function buyNBurn(uint256 _ethToSwap) internal returns (uint256) {\n        address[] memory path = new address[](2);\n        path[0] = weth;\n        path[1] = address(yeldToken);\n        // Burns the tokens by taking them out of circulation, sending them to the 0x0 address\n        uint256[] memory amounts =\n            IUniswap(uniswapRouter).swapExactETHForTokens.value(_ethToSwap)(\n                uint256(0),\n                path,\n                address(0),\n                now.add(1800)\n            );\n        return amounts[1];\n    }\n\n    // Yeld\n\n    // Quick swap low gas method for pool swaps\n    function deposit(uint256 _amount) external nonReentrant noContract {\n        require(_amount > 0, \"deposit must be greater than 0\");\n        pool = _calcPoolValueInToken();\n\n        IERC20(token).safeTransferFrom(msg.sender, address(this), _amount);\n\n        // Yeld\n        depositBlockStarts[msg.sender] = block.number;\n        // Yeld\n\n        // Calculate pool shares\n        uint256 shares = 0;\n        if (pool == 0) {\n            shares = _amount;\n            pool = _amount;\n        } else {\n            shares = (_amount.mul(_totalSupply)).div(pool);\n        }\n        pool = _calcPoolValueInToken();\n        _mint(msg.sender, shares);\n        rebalance();\n    }\n\n    // No rebalance implementation for lower fees and faster swaps\n    function withdraw(uint256 _shares) external nonReentrant noContract {\n        require(_shares > 0, \"withdraw must be greater than 0\");\n        uint256 ibalance = balanceOf(msg.sender);\n        require(_shares <= ibalance, \"insufficient balance\");\n        // Could have over value from cTokens\n        pool = _calcPoolValueInToken();\n        // Yeld\n        uint256 generatedYelds = getGeneratedYelds();\n        // Yeld\n        // Calc to redeem before updating balances\n        uint256 stablecoinsToWithdraw = (pool.mul(_shares)).div(_totalSupply);\n        _balances[msg.sender] = _balances[msg.sender].sub(\n            _shares,\n            \"redeem amount exceeds balance\"\n        );\n        _totalSupply = _totalSupply.sub(_shares);\n        emit Transfer(msg.sender, address(0), _shares);\n        // Check balance\n        uint256 b = IERC20(token).balanceOf(address(this));\n        if (b < stablecoinsToWithdraw) {\n            _withdrawSome(stablecoinsToWithdraw.sub(b));\n        }\n\n        // Yeld\n        // Take 1% of the amount to withdraw\n        uint256 onePercent = stablecoinsToWithdraw.div(100);\n        depositBlockStarts[msg.sender] = block.number;\n        yeldToken.transfer(msg.sender, generatedYelds);\n        // Take a portion of the profits for the buy and burn and retirement yeld\n        // Convert half the TUSD earned into ETH for the protocol algorithms\n        uint256 stakingProfits = tusdToETH(onePercent);\n        uint256 tokensAlreadyBurned = yeldToken.balanceOf(address(0));\n        if (tokensAlreadyBurned < maximumTokensToBurn) {\n            // 98% is the 49% doubled since we already took the 50%\n            uint256 ethToSwap = stakingProfits.mul(98).div(100);\n            // Buy and burn only applies up to 50k tokens burned\n            buyNBurn(ethToSwap);\n            // 1% for the Retirement Yield\n            uint256 retirementYeld = stakingProfits.mul(2).div(100);\n            // Send to the treasury\n            retirementYeldTreasury.transfer(retirementYeld);\n        } else {\n            // If we've reached the maximum burn point, send half the profits to the treasury to reward holders\n            uint256 retirementYeld = stakingProfits;\n            // Send to the treasury\n            retirementYeldTreasury.transfer(retirementYeld);\n        }\n        IERC20(token).safeTransfer(\n            msg.sender,\n            stablecoinsToWithdraw.sub(onePercent)\n        );\n        // Yeld\n\n        pool = _calcPoolValueInToken();\n        rebalance();\n    }\n\n    // Ownable setters incase of support in future for these systems\n    function set_new_APR(address _new_APR) public onlyOwner {\n        apr = _new_APR;\n    }\n\n    function set_new_COMPOUND(address _new_COMPOUND) public onlyOwner {\n        compound = _new_COMPOUND;\n    }\n\n    function set_new_DTOKEN(uint256 _new_DTOKEN) public onlyOwner {\n        dToken = _new_DTOKEN;\n    }\n\n    function recommend() public view returns (Lender) {\n        (, uint256 capr, uint256 iapr, uint256 aapr, uint256 dapr) =\n            IIEarnManager(apr).recommend(token);\n        uint256 max = 0;\n        if (capr > max) {\n            max = capr;\n        }\n        if (iapr > max) {\n            max = iapr;\n        }\n        if (aapr > max) {\n            max = aapr;\n        }\n        if (dapr > max) {\n            max = dapr;\n        }\n\n        Lender newProvider = Lender.NONE;\n        if (max == capr) {\n            newProvider = Lender.COMPOUND;\n        } else if (max == iapr) {\n            newProvider = Lender.FULCRUM;\n        } else if (max == aapr) {\n            newProvider = Lender.AAVE;\n        } else if (max == dapr) {\n            newProvider = Lender.DYDX;\n        }\n        return newProvider;\n    }\n\n    function supplyDydx(uint256 amount) public returns (uint256) {\n        Info[] memory infos = new Info[](1);\n        infos[0] = Info(address(this), 0);\n\n        AssetAmount memory amt =\n            AssetAmount(\n                true,\n                AssetDenomination.Wei,\n                AssetReference.Delta,\n                amount\n            );\n        ActionArgs memory act;\n        act.actionType = ActionType.Deposit;\n        act.accountId = 0;\n        act.amount = amt;\n        act.primaryMarketId = dToken;\n        act.otherAddress = address(this);\n\n        ActionArgs[] memory args = new ActionArgs[](1);\n        args[0] = act;\n\n        DyDx(dydx).operate(infos, args);\n    }\n\n    function _withdrawDydx(uint256 amount) internal {\n        Info[] memory infos = new Info[](1);\n        infos[0] = Info(address(this), 0);\n\n        AssetAmount memory amt =\n            AssetAmount(\n                false,\n                AssetDenomination.Wei,\n                AssetReference.Delta,\n                amount\n            );\n        ActionArgs memory act;\n        act.actionType = ActionType.Withdraw;\n        act.accountId = 0;\n        act.amount = amt;\n        act.primaryMarketId = dToken;\n        act.otherAddress = address(this);\n\n        ActionArgs[] memory args = new ActionArgs[](1);\n        args[0] = act;\n\n        DyDx(dydx).operate(infos, args);\n    }\n\n    function getAave() public view returns (address) {\n        return LendingPoolAddressesProvider(aave).getLendingPool();\n    }\n\n    function getAaveCore() public view returns (address) {\n        return LendingPoolAddressesProvider(aave).getLendingPoolCore();\n    }\n\n    function approveToken() public {\n        IERC20(token).safeApprove(compound, uint256(-1)); //also add to constructor\n        IERC20(token).safeApprove(dydx, uint256(-1));\n        IERC20(token).safeApprove(getAaveCore(), uint256(-1));\n        IERC20(token).safeApprove(fulcrum, uint256(-1));\n    }\n\n    function balance() public view returns (uint256) {\n        return IERC20(token).balanceOf(address(this));\n    }\n\n    function balanceDydx() public view returns (uint256) {\n        Wei memory bal =\n            DyDx(dydx).getAccountWei(Info(address(this), 0), dToken);\n        return bal.value;\n    }\n\n    function balanceCompound() public view returns (uint256) {\n        return IERC20(compound).balanceOf(address(this));\n    }\n\n    function balanceCompoundInToken() public view returns (uint256) {\n        // Mantisa 1e18 to decimals\n        uint256 b = balanceCompound();\n        if (b > 0) {\n            b = b.mul(Compound(compound).exchangeRateStored()).div(1e18);\n        }\n        return b;\n    }\n\n    function balanceFulcrumInToken() public view returns (uint256) {\n        uint256 b = balanceFulcrum();\n        if (b > 0) {\n            b = Fulcrum(fulcrum).assetBalanceOf(address(this));\n        }\n        return b;\n    }\n\n    function balanceFulcrum() public view returns (uint256) {\n        return IERC20(fulcrum).balanceOf(address(this));\n    }\n\n    function balanceAave() public view returns (uint256) {\n        return IERC20(aaveToken).balanceOf(address(this));\n    }\n\n    function _balance() internal view returns (uint256) {\n        return IERC20(token).balanceOf(address(this));\n    }\n\n    function _balanceDydx() internal view returns (uint256) {\n        Wei memory bal =\n            DyDx(dydx).getAccountWei(Info(address(this), 0), dToken);\n        return bal.value;\n    }\n\n    function _balanceCompound() internal view returns (uint256) {\n        return IERC20(compound).balanceOf(address(this));\n    }\n\n    function _balanceCompoundInToken() internal view returns (uint256) {\n        // Mantisa 1e18 to decimals\n        uint256 b = balanceCompound();\n        if (b > 0) {\n            b = b.mul(Compound(compound).exchangeRateStored()).div(1e18);\n        }\n        return b;\n    }\n\n    function _balanceFulcrumInToken() internal view returns (uint256) {\n        uint256 b = balanceFulcrum();\n        if (b > 0) {\n            b = Fulcrum(fulcrum).assetBalanceOf(address(this));\n        }\n        return b;\n    }\n\n    function _balanceFulcrum() internal view returns (uint256) {\n        return IERC20(fulcrum).balanceOf(address(this));\n    }\n\n    function _balanceAave() internal view returns (uint256) {\n        return IERC20(aaveToken).balanceOf(address(this));\n    }\n\n    function _withdrawAll() internal {\n        uint256 amount = _balanceCompound();\n        if (amount > 0) {\n            _withdrawCompound(amount);\n        }\n        amount = _balanceDydx();\n        if (amount > 0) {\n            _withdrawDydx(amount);\n        }\n        amount = _balanceFulcrum();\n        if (amount > 0) {\n            _withdrawFulcrum(amount);\n        }\n        amount = _balanceAave();\n        if (amount > 0) {\n            _withdrawAave(amount);\n        }\n    }\n\n    function _withdrawSomeCompound(uint256 _amount) internal {\n        uint256 b = balanceCompound();\n        uint256 bT = balanceCompoundInToken();\n        require(bT >= _amount, \"insufficient funds\");\n        // can have unintentional rounding errors\n        uint256 amount = (b.mul(_amount)).div(bT).add(1);\n        _withdrawCompound(amount);\n    }\n\n    // 1999999614570950845\n    function _withdrawSomeFulcrum(uint256 _amount) internal {\n        // Balance of fulcrum tokens, 1 iDAI = 1.00x DAI\n        uint256 b = balanceFulcrum(); // 1970469086655766652\n        // Balance of token in fulcrum\n        uint256 bT = balanceFulcrumInToken(); // 2000000803224344406\n        require(bT >= _amount, \"insufficient funds\");\n        // can have unintentional rounding errors\n        uint256 amount = (b.mul(_amount)).div(bT).add(1);\n        _withdrawFulcrum(amount);\n    }\n\n    function _withdrawSome(uint256 _amount) internal {\n        if (provider == Lender.COMPOUND) {\n            _withdrawSomeCompound(_amount);\n        }\n        if (provider == Lender.AAVE) {\n            require(balanceAave() >= _amount, \"insufficient funds\");\n            _withdrawAave(_amount);\n        }\n        if (provider == Lender.DYDX) {\n            require(balanceDydx() >= _amount, \"insufficient funds\");\n            _withdrawDydx(_amount);\n        }\n        if (provider == Lender.FULCRUM) {\n            _withdrawSomeFulcrum(_amount);\n        }\n    }\n\n    function rebalance() public {\n        Lender newProvider = recommend();\n\n        if (newProvider != provider) {\n            _withdrawAll();\n        }\n\n        if (balance() > 0) {\n            if (newProvider == Lender.DYDX) {\n                supplyDydx(balance());\n            } else if (newProvider == Lender.FULCRUM) {\n                supplyFulcrum(balance());\n            } else if (newProvider == Lender.COMPOUND) {\n                supplyCompound(balance());\n            } else if (newProvider == Lender.AAVE) {\n                supplyAave(balance());\n            }\n        }\n\n        provider = newProvider;\n    }\n\n    // Internal only rebalance for better gas in redeem\n    function _rebalance(Lender newProvider) internal {\n        if (_balance() > 0) {\n            if (newProvider == Lender.DYDX) {\n                supplyDydx(_balance());\n            } else if (newProvider == Lender.FULCRUM) {\n                supplyFulcrum(_balance());\n            } else if (newProvider == Lender.COMPOUND) {\n                supplyCompound(_balance());\n            } else if (newProvider == Lender.AAVE) {\n                supplyAave(_balance());\n            }\n        }\n        provider = newProvider;\n    }\n\n    function supplyAave(uint256 amount) public {\n        Aave(getAave()).deposit(token, amount, 0);\n    }\n\n    function supplyFulcrum(uint256 amount) public {\n        require(\n            Fulcrum(fulcrum).mint(address(this), amount) > 0,\n            \"FULCRUM: supply failed\"\n        );\n    }\n\n    function supplyCompound(uint256 amount) public {\n        require(\n            Compound(compound).mint(amount) == 0,\n            \"COMPOUND: supply failed\"\n        );\n    }\n\n    function _withdrawAave(uint256 amount) internal {\n        AToken(aaveToken).redeem(amount);\n    }\n\n    function _withdrawFulcrum(uint256 amount) internal {\n        require(\n            Fulcrum(fulcrum).burn(address(this), amount) > 0,\n            \"FULCRUM: withdraw failed\"\n        );\n    }\n\n    function _withdrawCompound(uint256 amount) internal {\n        require(\n            Compound(compound).redeem(amount) == 0,\n            \"COMPOUND: withdraw failed\"\n        );\n    }\n\n    function _calcPoolValueInToken() internal view returns (uint256) {\n        return\n            _balanceCompoundInToken()\n                .add(_balanceFulcrumInToken())\n                .add(_balanceDydx())\n                .add(_balanceAave())\n                .add(_balance());\n    }\n\n    function calcPoolValueInToken() public view returns (uint256) {\n        return\n            balanceCompoundInToken()\n                .add(balanceFulcrumInToken())\n                .add(balanceDydx())\n                .add(balanceAave())\n                .add(balance());\n    }\n\n    function getPricePerFullShare() public view returns (uint256) {\n        uint256 _pool = calcPoolValueInToken();\n        return _pool.mul(1e18).div(_totalSupply);\n    }\n}\n",
  "sourcePath": "C:/Users/merun/Desktop/yeld-contracts/contracts/yTUSD.sol",
  "compiler": {
    "name": "solc",
    "version": "0.5.17+commit.d19bba13.Emscripten.clang"
  },
  "schemaVersion": "3.2.2",
  "updatedAt": "2021-01-16T17:40:37.225Z",
  "devdoc": {
    "methods": {}
  },
  "userdoc": {
    "methods": {}
  }
}