{
  "contractName": "yTUSD",
  "abi": [
    {
      "inputs": [
        {
          "internalType": "address",
          "name": "_yeldToken",
          "type": "address"
        },
        {
          "internalType": "address payable",
          "name": "_retirementYeldTreasury",
          "type": "address"
        },
        {
          "internalType": "address",
          "name": "_devTreasury",
          "type": "address"
        }
      ],
      "payable": false,
      "stateMutability": "nonpayable",
      "type": "constructor"
    },
    {
      "anonymous": false,
      "inputs": [
        {
          "indexed": true,
          "internalType": "address",
          "name": "owner",
          "type": "address"
        },
        {
          "indexed": true,
          "internalType": "address",
          "name": "spender",
          "type": "address"
        },
        {
          "indexed": false,
          "internalType": "uint256",
          "name": "value",
          "type": "uint256"
        }
      ],
      "name": "Approval",
      "type": "event"
    },
    {
      "anonymous": false,
      "inputs": [
        {
          "indexed": true,
          "internalType": "address",
          "name": "previousOwner",
          "type": "address"
        },
        {
          "indexed": true,
          "internalType": "address",
          "name": "newOwner",
          "type": "address"
        }
      ],
      "name": "OwnershipTransferred",
      "type": "event"
    },
    {
      "anonymous": false,
      "inputs": [
        {
          "indexed": true,
          "internalType": "address",
          "name": "from",
          "type": "address"
        },
        {
          "indexed": true,
          "internalType": "address",
          "name": "to",
          "type": "address"
        },
        {
          "indexed": false,
          "internalType": "uint256",
          "name": "value",
          "type": "uint256"
        }
      ],
      "name": "Transfer",
      "type": "event"
    },
    {
      "payable": true,
      "stateMutability": "payable",
      "type": "fallback"
    },
    {
      "constant": true,
      "inputs": [],
      "name": "aave",
      "outputs": [
        {
          "internalType": "address",
          "name": "",
          "type": "address"
        }
      ],
      "payable": false,
      "stateMutability": "view",
      "type": "function"
    },
    {
      "constant": true,
      "inputs": [],
      "name": "aaveToken",
      "outputs": [
        {
          "internalType": "address",
          "name": "",
          "type": "address"
        }
      ],
      "payable": false,
      "stateMutability": "view",
      "type": "function"
    },
    {
      "constant": true,
      "inputs": [
        {
          "internalType": "address",
          "name": "owner",
          "type": "address"
        },
        {
          "internalType": "address",
          "name": "spender",
          "type": "address"
        }
      ],
      "name": "allowance",
      "outputs": [
        {
          "internalType": "uint256",
          "name": "",
          "type": "uint256"
        }
      ],
      "payable": false,
      "stateMutability": "view",
      "type": "function"
    },
    {
      "constant": false,
      "inputs": [
        {
          "internalType": "address",
          "name": "spender",
          "type": "address"
        },
        {
          "internalType": "uint256",
          "name": "amount",
          "type": "uint256"
        }
      ],
      "name": "approve",
      "outputs": [
        {
          "internalType": "bool",
          "name": "",
          "type": "bool"
        }
      ],
      "payable": false,
      "stateMutability": "nonpayable",
      "type": "function"
    },
    {
      "constant": true,
      "inputs": [],
      "name": "apr",
      "outputs": [
        {
          "internalType": "address",
          "name": "",
          "type": "address"
        }
      ],
      "payable": false,
      "stateMutability": "view",
      "type": "function"
    },
    {
      "constant": true,
      "inputs": [
        {
          "internalType": "address",
          "name": "account",
          "type": "address"
        }
      ],
      "name": "balanceOf",
      "outputs": [
        {
          "internalType": "uint256",
          "name": "",
          "type": "uint256"
        }
      ],
      "payable": false,
      "stateMutability": "view",
      "type": "function"
    },
    {
      "constant": true,
      "inputs": [],
      "name": "compound",
      "outputs": [
        {
          "internalType": "address",
          "name": "",
          "type": "address"
        }
      ],
      "payable": false,
      "stateMutability": "view",
      "type": "function"
    },
    {
      "constant": true,
      "inputs": [],
      "name": "dToken",
      "outputs": [
        {
          "internalType": "uint256",
          "name": "",
          "type": "uint256"
        }
      ],
      "payable": false,
      "stateMutability": "view",
      "type": "function"
    },
    {
      "constant": true,
      "inputs": [],
      "name": "dai",
      "outputs": [
        {
          "internalType": "address",
          "name": "",
          "type": "address"
        }
      ],
      "payable": false,
      "stateMutability": "view",
      "type": "function"
    },
    {
      "constant": true,
      "inputs": [],
      "name": "decimals",
      "outputs": [
        {
          "internalType": "uint8",
          "name": "",
          "type": "uint8"
        }
      ],
      "payable": false,
      "stateMutability": "view",
      "type": "function"
    },
    {
      "constant": false,
      "inputs": [
        {
          "internalType": "address",
          "name": "spender",
          "type": "address"
        },
        {
          "internalType": "uint256",
          "name": "subtractedValue",
          "type": "uint256"
        }
      ],
      "name": "decreaseAllowance",
      "outputs": [
        {
          "internalType": "bool",
          "name": "",
          "type": "bool"
        }
      ],
      "payable": false,
      "stateMutability": "nonpayable",
      "type": "function"
    },
    {
      "constant": true,
      "inputs": [
        {
          "internalType": "address",
          "name": "",
          "type": "address"
        }
      ],
      "name": "depositAmount",
      "outputs": [
        {
          "internalType": "uint256",
          "name": "",
          "type": "uint256"
        }
      ],
      "payable": false,
      "stateMutability": "view",
      "type": "function"
    },
    {
      "constant": true,
      "inputs": [
        {
          "internalType": "address",
          "name": "",
          "type": "address"
        }
      ],
      "name": "depositBlockStarts",
      "outputs": [
        {
          "internalType": "uint256",
          "name": "",
          "type": "uint256"
        }
      ],
      "payable": false,
      "stateMutability": "view",
      "type": "function"
    },
    {
      "constant": true,
      "inputs": [],
      "name": "devTreasury",
      "outputs": [
        {
          "internalType": "address",
          "name": "",
          "type": "address"
        }
      ],
      "payable": false,
      "stateMutability": "view",
      "type": "function"
    },
    {
      "constant": true,
      "inputs": [],
      "name": "dydx",
      "outputs": [
        {
          "internalType": "address",
          "name": "",
          "type": "address"
        }
      ],
      "payable": false,
      "stateMutability": "view",
      "type": "function"
    },
    {
      "constant": true,
      "inputs": [],
      "name": "fulcrum",
      "outputs": [
        {
          "internalType": "address",
          "name": "",
          "type": "address"
        }
      ],
      "payable": false,
      "stateMutability": "view",
      "type": "function"
    },
    {
      "constant": true,
      "inputs": [
        {
          "internalType": "address",
          "name": "_yeld",
          "type": "address"
        },
        {
          "internalType": "address",
          "name": "_weth",
          "type": "address"
        },
        {
          "internalType": "address",
          "name": "_dai",
          "type": "address"
        },
        {
          "internalType": "address",
          "name": "_uniswap",
          "type": "address"
        }
      ],
      "name": "getYeldPriceInDai",
      "outputs": [
        {
          "internalType": "uint256",
          "name": "",
          "type": "uint256"
        }
      ],
      "payable": false,
      "stateMutability": "view",
      "type": "function"
    },
    {
      "constant": true,
      "inputs": [],
      "name": "holdPercentage",
      "outputs": [
        {
          "internalType": "uint256",
          "name": "",
          "type": "uint256"
        }
      ],
      "payable": false,
      "stateMutability": "view",
      "type": "function"
    },
    {
      "constant": false,
      "inputs": [
        {
          "internalType": "address",
          "name": "spender",
          "type": "address"
        },
        {
          "internalType": "uint256",
          "name": "addedValue",
          "type": "uint256"
        }
      ],
      "name": "increaseAllowance",
      "outputs": [
        {
          "internalType": "bool",
          "name": "",
          "type": "bool"
        }
      ],
      "payable": false,
      "stateMutability": "nonpayable",
      "type": "function"
    },
    {
      "constant": true,
      "inputs": [],
      "name": "isOwner",
      "outputs": [
        {
          "internalType": "bool",
          "name": "",
          "type": "bool"
        }
      ],
      "payable": false,
      "stateMutability": "view",
      "type": "function"
    },
    {
      "constant": true,
      "inputs": [],
      "name": "maximumTokensToBurn",
      "outputs": [
        {
          "internalType": "uint256",
          "name": "",
          "type": "uint256"
        }
      ],
      "payable": false,
      "stateMutability": "view",
      "type": "function"
    },
    {
      "constant": true,
      "inputs": [],
      "name": "name",
      "outputs": [
        {
          "internalType": "string",
          "name": "",
          "type": "string"
        }
      ],
      "payable": false,
      "stateMutability": "view",
      "type": "function"
    },
    {
      "constant": true,
      "inputs": [],
      "name": "oneDayInBlocks",
      "outputs": [
        {
          "internalType": "uint256",
          "name": "",
          "type": "uint256"
        }
      ],
      "payable": false,
      "stateMutability": "view",
      "type": "function"
    },
    {
      "constant": true,
      "inputs": [],
      "name": "oneMillion",
      "outputs": [
        {
          "internalType": "uint256",
          "name": "",
          "type": "uint256"
        }
      ],
      "payable": false,
      "stateMutability": "view",
      "type": "function"
    },
    {
      "constant": true,
      "inputs": [],
      "name": "owner",
      "outputs": [
        {
          "internalType": "address payable",
          "name": "",
          "type": "address"
        }
      ],
      "payable": false,
      "stateMutability": "view",
      "type": "function"
    },
    {
      "constant": true,
      "inputs": [],
      "name": "percentageBuyBurn",
      "outputs": [
        {
          "internalType": "uint256",
          "name": "",
          "type": "uint256"
        }
      ],
      "payable": false,
      "stateMutability": "view",
      "type": "function"
    },
    {
      "constant": true,
      "inputs": [],
      "name": "percentageDevTreasury",
      "outputs": [
        {
          "internalType": "uint256",
          "name": "",
          "type": "uint256"
        }
      ],
      "payable": false,
      "stateMutability": "view",
      "type": "function"
    },
    {
      "constant": true,
      "inputs": [],
      "name": "percentageRetirementYield",
      "outputs": [
        {
          "internalType": "uint256",
          "name": "",
          "type": "uint256"
        }
      ],
      "payable": false,
      "stateMutability": "view",
      "type": "function"
    },
    {
      "constant": true,
      "inputs": [],
      "name": "pool",
      "outputs": [
        {
          "internalType": "uint256",
          "name": "",
          "type": "uint256"
        }
      ],
      "payable": false,
      "stateMutability": "view",
      "type": "function"
    },
    {
      "constant": true,
      "inputs": [],
      "name": "provider",
      "outputs": [
        {
          "internalType": "enum yTUSD.Lender",
          "name": "",
          "type": "uint8"
        }
      ],
      "payable": false,
      "stateMutability": "view",
      "type": "function"
    },
    {
      "constant": false,
      "inputs": [],
      "name": "renounceOwnership",
      "outputs": [],
      "payable": false,
      "stateMutability": "nonpayable",
      "type": "function"
    },
    {
      "constant": true,
      "inputs": [],
      "name": "retirementYeldTreasury",
      "outputs": [
        {
          "internalType": "address payable",
          "name": "",
          "type": "address"
        }
      ],
      "payable": false,
      "stateMutability": "view",
      "type": "function"
    },
    {
      "constant": true,
      "inputs": [],
      "name": "symbol",
      "outputs": [
        {
          "internalType": "string",
          "name": "",
          "type": "string"
        }
      ],
      "payable": false,
      "stateMutability": "view",
      "type": "function"
    },
    {
      "constant": true,
      "inputs": [],
      "name": "token",
      "outputs": [
        {
          "internalType": "address",
          "name": "",
          "type": "address"
        }
      ],
      "payable": false,
      "stateMutability": "view",
      "type": "function"
    },
    {
      "constant": true,
      "inputs": [],
      "name": "totalSupply",
      "outputs": [
        {
          "internalType": "uint256",
          "name": "",
          "type": "uint256"
        }
      ],
      "payable": false,
      "stateMutability": "view",
      "type": "function"
    },
    {
      "constant": false,
      "inputs": [
        {
          "internalType": "address",
          "name": "recipient",
          "type": "address"
        },
        {
          "internalType": "uint256",
          "name": "amount",
          "type": "uint256"
        }
      ],
      "name": "transfer",
      "outputs": [
        {
          "internalType": "bool",
          "name": "",
          "type": "bool"
        }
      ],
      "payable": false,
      "stateMutability": "nonpayable",
      "type": "function"
    },
    {
      "constant": false,
      "inputs": [
        {
          "internalType": "address",
          "name": "sender",
          "type": "address"
        },
        {
          "internalType": "address",
          "name": "recipient",
          "type": "address"
        },
        {
          "internalType": "uint256",
          "name": "amount",
          "type": "uint256"
        }
      ],
      "name": "transferFrom",
      "outputs": [
        {
          "internalType": "bool",
          "name": "",
          "type": "bool"
        }
      ],
      "payable": false,
      "stateMutability": "nonpayable",
      "type": "function"
    },
    {
      "constant": false,
      "inputs": [
        {
          "internalType": "address payable",
          "name": "newOwner",
          "type": "address"
        }
      ],
      "name": "transferOwnership",
      "outputs": [],
      "payable": false,
      "stateMutability": "nonpayable",
      "type": "function"
    },
    {
      "constant": true,
      "inputs": [],
      "name": "tusd",
      "outputs": [
        {
          "internalType": "address",
          "name": "",
          "type": "address"
        }
      ],
      "payable": false,
      "stateMutability": "view",
      "type": "function"
    },
    {
      "constant": true,
      "inputs": [],
      "name": "uniswapRouter",
      "outputs": [
        {
          "internalType": "address",
          "name": "",
          "type": "address"
        }
      ],
      "payable": false,
      "stateMutability": "view",
      "type": "function"
    },
    {
      "constant": false,
      "inputs": [
        {
          "internalType": "uint256",
          "name": "a",
          "type": "uint256"
        },
        {
          "internalType": "uint256",
          "name": "b",
          "type": "uint256"
        },
        {
          "internalType": "uint256",
          "name": "c",
          "type": "uint256"
        }
      ],
      "name": "updatePercentages",
      "outputs": [],
      "payable": false,
      "stateMutability": "nonpayable",
      "type": "function"
    },
    {
      "constant": true,
      "inputs": [],
      "name": "weth",
      "outputs": [
        {
          "internalType": "address",
          "name": "",
          "type": "address"
        }
      ],
      "payable": false,
      "stateMutability": "view",
      "type": "function"
    },
    {
      "constant": true,
      "inputs": [],
      "name": "yeldToRewardPerDay",
      "outputs": [
        {
          "internalType": "uint256",
          "name": "",
          "type": "uint256"
        }
      ],
      "payable": false,
      "stateMutability": "view",
      "type": "function"
    },
    {
      "constant": true,
      "inputs": [],
      "name": "yeldToken",
      "outputs": [
        {
          "internalType": "contract IERC20",
          "name": "",
          "type": "address"
        }
      ],
      "payable": false,
      "stateMutability": "view",
      "type": "function"
    },
    {
      "constant": false,
      "inputs": [
        {
          "internalType": "address payable",
          "name": "_treasury",
          "type": "address"
        }
      ],
      "name": "setRetirementYeldTreasury",
      "outputs": [],
      "payable": false,
      "stateMutability": "nonpayable",
      "type": "function"
    },
    {
      "constant": false,
      "inputs": [
        {
          "internalType": "address",
          "name": "_uniswapRouter",
          "type": "address"
        }
      ],
      "name": "setUniswapRouter",
      "outputs": [],
      "payable": false,
      "stateMutability": "nonpayable",
      "type": "function"
    },
    {
      "constant": false,
      "inputs": [
        {
          "internalType": "address",
          "name": "_yeldToken",
          "type": "address"
        }
      ],
      "name": "setYeldToken",
      "outputs": [],
      "payable": false,
      "stateMutability": "nonpayable",
      "type": "function"
    },
    {
      "constant": false,
      "inputs": [
        {
          "internalType": "address",
          "name": "_devTreasury",
          "type": "address"
        }
      ],
      "name": "setDevTreasury",
      "outputs": [],
      "payable": false,
      "stateMutability": "nonpayable",
      "type": "function"
    },
    {
      "constant": false,
      "inputs": [
        {
          "internalType": "address",
          "name": "_token",
          "type": "address"
        },
        {
          "internalType": "uint256",
          "name": "_amount",
          "type": "uint256"
        }
      ],
      "name": "extractTokensIfStuck",
      "outputs": [],
      "payable": false,
      "stateMutability": "nonpayable",
      "type": "function"
    },
    {
      "constant": false,
      "inputs": [],
      "name": "extractETHIfStuck",
      "outputs": [],
      "payable": false,
      "stateMutability": "nonpayable",
      "type": "function"
    },
    {
      "constant": false,
      "inputs": [
        {
          "internalType": "uint256",
          "name": "_amount",
          "type": "uint256"
        }
      ],
      "name": "changeYeldToRewardPerDay",
      "outputs": [],
      "payable": false,
      "stateMutability": "nonpayable",
      "type": "function"
    },
    {
      "constant": true,
      "inputs": [],
      "name": "getGeneratedYelds",
      "outputs": [
        {
          "internalType": "uint256",
          "name": "",
          "type": "uint256"
        }
      ],
      "payable": false,
      "stateMutability": "view",
      "type": "function"
    },
    {
      "constant": false,
      "inputs": [
        {
          "internalType": "uint256",
          "name": "_holdPercentage",
          "type": "uint256"
        }
      ],
      "name": "setHoldPercentage",
      "outputs": [],
      "payable": false,
      "stateMutability": "nonpayable",
      "type": "function"
    },
    {
      "constant": false,
      "inputs": [
        {
          "internalType": "uint256",
          "name": "_amount",
          "type": "uint256"
        }
      ],
      "name": "deposit",
      "outputs": [],
      "payable": false,
      "stateMutability": "nonpayable",
      "type": "function"
    },
    {
      "constant": false,
      "inputs": [
        {
          "internalType": "uint256",
          "name": "_shares",
          "type": "uint256"
        }
      ],
      "name": "withdraw",
      "outputs": [],
      "payable": false,
      "stateMutability": "nonpayable",
      "type": "function"
    },
    {
      "constant": false,
      "inputs": [
        {
          "internalType": "address",
          "name": "_new_APR",
          "type": "address"
        }
      ],
      "name": "set_new_APR",
      "outputs": [],
      "payable": false,
      "stateMutability": "nonpayable",
      "type": "function"
    },
    {
      "constant": false,
      "inputs": [
        {
          "internalType": "address",
          "name": "_new_COMPOUND",
          "type": "address"
        }
      ],
      "name": "set_new_COMPOUND",
      "outputs": [],
      "payable": false,
      "stateMutability": "nonpayable",
      "type": "function"
    },
    {
      "constant": false,
      "inputs": [
        {
          "internalType": "uint256",
          "name": "_new_DTOKEN",
          "type": "uint256"
        }
      ],
      "name": "set_new_DTOKEN",
      "outputs": [],
      "payable": false,
      "stateMutability": "nonpayable",
      "type": "function"
    },
    {
      "constant": true,
      "inputs": [],
      "name": "recommend",
      "outputs": [
        {
          "internalType": "enum yTUSD.Lender",
          "name": "",
          "type": "uint8"
        }
      ],
      "payable": false,
      "stateMutability": "view",
      "type": "function"
    },
    {
      "constant": false,
      "inputs": [
        {
          "internalType": "uint256",
          "name": "amount",
          "type": "uint256"
        }
      ],
      "name": "supplyDydx",
      "outputs": [
        {
          "internalType": "uint256",
          "name": "",
          "type": "uint256"
        }
      ],
      "payable": false,
      "stateMutability": "nonpayable",
      "type": "function"
    },
    {
      "constant": true,
      "inputs": [],
      "name": "getAave",
      "outputs": [
        {
          "internalType": "address",
          "name": "",
          "type": "address"
        }
      ],
      "payable": false,
      "stateMutability": "view",
      "type": "function"
    },
    {
      "constant": true,
      "inputs": [],
      "name": "getAaveCore",
      "outputs": [
        {
          "internalType": "address",
          "name": "",
          "type": "address"
        }
      ],
      "payable": false,
      "stateMutability": "view",
      "type": "function"
    },
    {
      "constant": false,
      "inputs": [],
      "name": "approveToken",
      "outputs": [],
      "payable": false,
      "stateMutability": "nonpayable",
      "type": "function"
    },
    {
      "constant": true,
      "inputs": [],
      "name": "balance",
      "outputs": [
        {
          "internalType": "uint256",
          "name": "",
          "type": "uint256"
        }
      ],
      "payable": false,
      "stateMutability": "view",
      "type": "function"
    },
    {
      "constant": true,
      "inputs": [],
      "name": "balanceDydx",
      "outputs": [
        {
          "internalType": "uint256",
          "name": "",
          "type": "uint256"
        }
      ],
      "payable": false,
      "stateMutability": "view",
      "type": "function"
    },
    {
      "constant": true,
      "inputs": [],
      "name": "balanceCompound",
      "outputs": [
        {
          "internalType": "uint256",
          "name": "",
          "type": "uint256"
        }
      ],
      "payable": false,
      "stateMutability": "view",
      "type": "function"
    },
    {
      "constant": true,
      "inputs": [],
      "name": "balanceCompoundInToken",
      "outputs": [
        {
          "internalType": "uint256",
          "name": "",
          "type": "uint256"
        }
      ],
      "payable": false,
      "stateMutability": "view",
      "type": "function"
    },
    {
      "constant": true,
      "inputs": [],
      "name": "balanceFulcrumInToken",
      "outputs": [
        {
          "internalType": "uint256",
          "name": "",
          "type": "uint256"
        }
      ],
      "payable": false,
      "stateMutability": "view",
      "type": "function"
    },
    {
      "constant": true,
      "inputs": [],
      "name": "balanceFulcrum",
      "outputs": [
        {
          "internalType": "uint256",
          "name": "",
          "type": "uint256"
        }
      ],
      "payable": false,
      "stateMutability": "view",
      "type": "function"
    },
    {
      "constant": true,
      "inputs": [],
      "name": "balanceAave",
      "outputs": [
        {
          "internalType": "uint256",
          "name": "",
          "type": "uint256"
        }
      ],
      "payable": false,
      "stateMutability": "view",
      "type": "function"
    },
    {
      "constant": false,
      "inputs": [],
      "name": "rebalance",
      "outputs": [],
      "payable": false,
      "stateMutability": "nonpayable",
      "type": "function"
    },
    {
      "constant": false,
      "inputs": [
        {
          "internalType": "uint256",
          "name": "amount",
          "type": "uint256"
        }
      ],
      "name": "supplyAave",
      "outputs": [],
      "payable": false,
      "stateMutability": "nonpayable",
      "type": "function"
    },
    {
      "constant": false,
      "inputs": [
        {
          "internalType": "uint256",
          "name": "amount",
          "type": "uint256"
        }
      ],
      "name": "supplyFulcrum",
      "outputs": [],
      "payable": false,
      "stateMutability": "nonpayable",
      "type": "function"
    },
    {
      "constant": false,
      "inputs": [
        {
          "internalType": "uint256",
          "name": "amount",
          "type": "uint256"
        }
      ],
      "name": "supplyCompound",
      "outputs": [],
      "payable": false,
      "stateMutability": "nonpayable",
      "type": "function"
    },
    {
      "constant": true,
      "inputs": [],
      "name": "calcPoolValueInToken",
      "outputs": [
        {
          "internalType": "uint256",
          "name": "",
          "type": "uint256"
        }
      ],
      "payable": false,
      "stateMutability": "view",
      "type": "function"
    },
    {
      "constant": true,
      "inputs": [],
      "name": "getPricePerFullShare",
      "outputs": [
        {
          "internalType": "uint256",
          "name": "",
          "type": "uint256"
        }
      ],
      "payable": false,
      "stateMutability": "view",
      "type": "function"
    }
  ],
  "bytecode": "0x60806040526714d1120d7b1600006008556722b1c8c1227a0000600955670de0b6b3a7640000600a55601680546001600160a01b0319908116737a250d5630b4cf539739df2c5dacb4c659f2488d179091556017805482166e085d4780b73119b644ae5ecd22b37617905560188054821673c02aaa39b223fe8d0a0e5c4f27ead9083c756cc217905560198054909116736b175474e89094c44da98b954eedeac495271d0f179055690a968163f0a57b400000601c556802b5e3af16b1880000601d5567d02ab486cedc0000601e55601f805460ff60a01b19169055348015620000e857600080fd5b506040516200673a3803806200673a8339810160408190526200010b91620007af565b604080518082018252600a8152691e59585c9b88151554d160b21b6020808301918252835180850190945260058452641e551554d160da1b9084015281519192916012916200015e9160039190620006bf565b50815162000174906004906020850190620006bf565b506005805460ff191660ff92909216919091179055505060016006556200019a62000313565b600780546001600160a01b0319166001600160a01b0392831617908190556040519116906000907f8be0079c531659141344cd1fd0a4f28419497f9722a3daafe3b4186f6b6457e0908290a3600c80546001600160a01b03199081166e085d4780b73119b644ae5ecd22b3761790915560138054821673dd6d648c991f7d47454354f4ef326b04025a48a8179055601180548216731e0447b19bb6ecfdae1e4ae1694b0c3659614e4e179055600f805482167324a42fd28c976a61df5d00d0599c34c4f90748c8179055600e805482167349f4592e641820e928f9919ef4abd92a719b4b49179055601080548216734da9b813057d04baef4e5800e36083717b4a0341179055600d805482167339aa39c021dfbae8fac545936693ac917d5e75631790556000601255601b80546001600160a01b0386811691841691909117909155601a8054858316908416179055601f8054918416919092161790556200030a6001600160e01b036200031816565b50505062000ae5565b335b90565b600d54600c5462000345916001600160a01b039182169116600019620003da602090811b62003d3917901c565b601154600c5462000372916001600160a01b039182169116600019620003da602090811b62003d3917901c565b620003ab620003896001600160e01b03620004f416565b600c546001600160a01b031690600019620003da602090811b62003d3917901c565b600e54600c54620003d8916001600160a01b039182169116600019620003da602090811b62003d3917901c565b565b801580620004695750604051636eb1769f60e11b81526001600160a01b0384169063dd62ed3e90620004139030908690600401620009d0565b60206040518083038186803b1580156200042c57600080fd5b505afa15801562000441573d6000803e3d6000fd5b505050506040513d601f19601f8201168201806040525062000467919081019062000824565b155b620004915760405162461bcd60e51b8152600401620004889062000a32565b60405180910390fd5b604051620004ef90849063095ea7b360e01b90620004b69086908690602401620009ef565b60408051808303601f190181529190526020810180516001600160e01b0319939093166001600160e01b03938416179052906200057a16565b505050565b600f546040805163076b7fbb60e51b815290516000926001600160a01b03169163ed6ff760916004808301926020929190829003018186803b1580156200053a57600080fd5b505afa1580156200054f573d6000803e3d6000fd5b505050506040513d601f19601f820116820180604052506200057591908101906200078e565b905090565b62000599826001600160a01b03166200068260201b620046cd1760201c565b620005b85760405162461bcd60e51b8152600401620004889062000a44565b60006060836001600160a01b031683604051620005d69190620009bb565b6000604051808303816000865af19150503d806000811462000615576040519150601f19603f3d011682016040523d82523d6000602084013e6200061a565b606091505b5091509150816200063f5760405162461bcd60e51b8152600401620004889062000a0e565b8051156200067c57808060200190516200065d919081019062000803565b6200067c5760405162461bcd60e51b8152600401620004889062000a20565b50505050565b6000813f7fc5d2460186f7233c927e7db2dcc703c0e500b653ca82273b7bfad8045d85a4708115801590620006b75750808214155b949350505050565b828054600181600116156101000203166002900490600052602060002090601f016020900481019282601f106200070257805160ff191683800117855562000732565b8280016001018555821562000732579182015b828111156200073257825182559160200191906001019062000715565b506200074092915062000744565b5090565b6200031591905b808211156200074057600081556001016200074b565b80516200076e8162000ab5565b92915050565b80516200076e8162000acf565b80516200076e8162000ada565b600060208284031215620007a157600080fd5b6000620006b7848462000761565b600080600060608486031215620007c557600080fd5b6000620007d3868662000761565b9350506020620007e68682870162000761565b9250506040620007f98682870162000761565b9150509250925092565b6000602082840312156200081657600080fd5b6000620006b7848462000774565b6000602082840312156200083757600080fd5b6000620006b7848462000781565b620008508162000a68565b82525050565b6000620008638262000a56565b6200086f818562000a5a565b93506200088181856020860162000a86565b9290920192915050565b60006200089a60208362000a5f565b7f5361666545524332303a206c6f772d6c6576656c2063616c6c206661696c6564815260200192915050565b6000620008d5602a8362000a5f565b7f5361666545524332303a204552433230206f7065726174696f6e20646964206e8152691bdd081cdd58d8d9595960b21b602082015260400192915050565b60006200092360368362000a5f565b7f5361666545524332303a20617070726f76652066726f6d206e6f6e2d7a65726f81527f20746f206e6f6e2d7a65726f20616c6c6f77616e636500000000000000000000602082015260400192915050565b600062000984601f8362000a5f565b7f5361666545524332303a2063616c6c20746f206e6f6e2d636f6e747261637400815260200192915050565b620008508162000315565b6000620009c9828462000856565b9392505050565b60408101620009e0828562000845565b620009c9602083018462000845565b60408101620009ff828562000845565b620009c96020830184620009b0565b602080825281016200076e816200088b565b602080825281016200076e81620008c6565b602080825281016200076e8162000914565b602080825281016200076e8162000975565b5190565b919050565b90815260200190565b60006200076e8262000a7a565b151590565b6001600160a01b031690565b60005b8381101562000aa357818101518382015260200162000a89565b838111156200067c5750506000910152565b62000ac08162000a68565b811462000acc57600080fd5b50565b62000ac08162000a75565b62000ac08162000315565b615c458062000af56000396000f3fe6080604052600436106105075760003560e01c80637f50d4d811610294578063cf8ca4261161015e578063f29e15a2116100d6578063f5ff19161161008a578063f7c1ec771161006f578063f7c1ec7714610c9e578063f82ce27d14610cb3578063fc0c546a14610cc857610507565b8063f5ff191614610c69578063f69e204614610c8957610507565b8063f34ce4bb116100bb578063f34ce4bb14610c1f578063f4b9fa7514610c3f578063f5a41dea14610c5457610507565b8063f29e15a214610bea578063f2fde38b14610bff57610507565b8063e849d6591161012d578063ebc5116011610112578063ebc5116014610ba0578063f02fbd4a14610bb5578063f2978d9814610bd557610507565b8063e849d65914610b60578063eb56faf014610b8057610507565b8063cf8ca42614610af6578063d9d7858a14610b0b578063dd62ed3e14610b20578063e26f21bf14610b4057610507565b80639ff011b91161020c578063a9a1015a116101c0578063b69ef8a8116101a5578063b69ef8a814610aa1578063b6b55f2514610ab6578063bea9849e14610ad657610507565b8063a9a1015a14610a6c578063b19ab07614610a8c57610507565b8063a457c2d7116101f1578063a457c2d714610a17578063a728797114610a37578063a9059cbb14610a4c57610507565b80639ff011b9146109e2578063a160176d14610a0257610507565b80638da5cb5b116102635780638f32d59b116102485780638f32d59b146109a357806395d89b41146109b857806399b71d5c146109cd57610507565b80638da5cb5b146109795780638e4ec6ef1461098e57610507565b80637f50d4d81461090d5780638124955c1461092f578063819faf7b1461094f578063858409ba1461096457610507565b8063413e920d116103d55780636ff2bf081161034d578063735de9f71161030157806377c7b8fc116102e657806377c7b8fc146108c35780637b82784c146108d85780637d7c2a1c146108f857610507565b8063735de9f71461089957806375b5be2d146108ae57610507565b80637137ef99116103325780637137ef991461085a578063715018a61461086f5780637354b2e91461088457610507565b80636ff2bf081461082557806370a082311461083a57610507565b806350f62da7116103a457806358782c211161038957806358782c21146107db57806361c1ec55146107f057806365aab7491461080557610507565b806350f62da7146107a657806357ded9c9146107c657610507565b8063413e920d1461073c57806346357473146107515780634fd96cb6146107715780634fe411291461079157610507565b8063202a273511610483578063313ce5671161043757806339c0a7e11161041c57806339c0a7e1146106f25780633bd777a8146107075780633fc8cef31461072757610507565b8063313ce567146106b057806339509351146106d257610507565b80632622678c116104685780632622678c1461065b5780632e1a7d4d146106705780632eb4520a1461069057610507565b8063202a27351461062657806323b872dd1461063b57610507565b8063095ea7b3116104da57806310391d25116104bf57806310391d25146105e757806316f0115b146105fc57806318160ddd1461061157610507565b8063095ea7b3146105a55780630eb2a267146105d257610507565b806306636c1c1461050957806306a3fe591461053f57806306fdde0314610561578063085d488314610583575b005b34801561051557600080fd5b50610529610524366004614b40565b610cdd565b604051610536919061590e565b60405180910390f35b34801561054b57600080fd5b50610554610e94565b6040516105369190615633565b34801561056d57600080fd5b50610576610eb0565b6040516105369190615752565b34801561058f57600080fd5b50610598610f65565b6040516105369190615724565b3480156105b157600080fd5b506105c56105c0366004614a13565b610f86565b6040516105369190615708565b3480156105de57600080fd5b50610529610fa4565b3480156105f357600080fd5b50610529611050565b34801561060857600080fd5b50610529611056565b34801561061d57600080fd5b5061052961105c565b34801561063257600080fd5b50610529611062565b34801561064757600080fd5b506105c56106563660046149c6565b611068565b34801561066757600080fd5b50610554611110565b34801561067c57600080fd5b5061050761068b366004614b40565b61112c565b34801561069c57600080fd5b506105076106ab3660046148ef565b6118b2565b3480156106bc57600080fd5b506106c5611937565b60405161053691906159ab565b3480156106de57600080fd5b506105c56106ed366004614a13565b611940565b3480156106fe57600080fd5b506105296119a1565b34801561071357600080fd5b506105076107223660046148ef565b611a6e565b34801561073357600080fd5b50610554611af3565b34801561074857600080fd5b50610529611b0f565b34801561075d57600080fd5b5061050761076c3660046148ef565b611b16565b34801561077d57600080fd5b5061050761078c3660046148ef565b611b9b565b34801561079d57600080fd5b50610507611c20565b3480156107b257600080fd5b506105296107c13660046148ef565b611cae565b3480156107d257600080fd5b50610554611cc0565b3480156107e757600080fd5b50610554611cdc565b3480156107fc57600080fd5b50610529611cf8565b34801561081157600080fd5b50610507610820366004614b40565b611d4f565b34801561083157600080fd5b50610529611de8565b34801561084657600080fd5b506105296108553660046148ef565b611e88565b34801561086657600080fd5b50610529611eb4565b34801561087b57600080fd5b50610507611eea565b34801561089057600080fd5b50610529611f97565b3480156108a557600080fd5b50610554611f9d565b3480156108ba57600080fd5b50610554611fb9565b3480156108cf57600080fd5b50610529611fd5565b3480156108e457600080fd5b506105296108f33660046148ef565b612008565b34801561090457600080fd5b5061050761201a565b34801561091957600080fd5b50610922612153565b6040516105369190615716565b34801561093b57600080fd5b5061050761094a366004614b40565b61216f565b34801561095b57600080fd5b50610554612251565b34801561097057600080fd5b5061052961226d565b34801561098557600080fd5b50610554612273565b34801561099a57600080fd5b5061055461228f565b3480156109af57600080fd5b506105c56122ab565b3480156109c457600080fd5b506105766122eb565b3480156109d957600080fd5b5061050761236a565b3480156109ee57600080fd5b506105076109fd366004614b40565b6124ad565b348015610a0e57600080fd5b506105986124f0565b348015610a2357600080fd5b506105c5610a32366004614a13565b612646565b348015610a4357600080fd5b506105296126c1565b348015610a5857600080fd5b506105c5610a67366004614a13565b612790565b348015610a7857600080fd5b50610507610a87366004614a13565b6127a4565b348015610a9857600080fd5b5061055461288d565b348015610aad57600080fd5b506105296128a9565b348015610ac257600080fd5b50610507610ad1366004614b40565b612900565b348015610ae257600080fd5b50610507610af13660046148ef565b612a8e565b348015610b0257600080fd5b50610529612b13565b348015610b1757600080fd5b50610529612b6a565b348015610b2c57600080fd5b50610529610b3b36600461492b565b612b70565b348015610b4c57600080fd5b50610507610b5b366004614b40565b612ba8565b348015610b6c57600080fd5b50610507610b7b366004614b40565b612beb565b348015610b8c57600080fd5b50610507610b9b366004614b7c565b612cca565b348015610bac57600080fd5b50610529612d16565b348015610bc157600080fd5b50610507610bd0366004614b40565b612d1c565b348015610be157600080fd5b50610529612d5f565b348015610bf657600080fd5b50610529612d65565b348015610c0b57600080fd5b50610507610c1a3660046148ef565b612d6b565b348015610c2b57600080fd5b50610529610c3a366004614965565b612db2565b348015610c4b57600080fd5b50610554612f79565b348015610c6057600080fd5b50610529612f95565b348015610c7557600080fd5b50610507610c843660046148ef565b61304e565b348015610c9557600080fd5b506105546130d3565b348015610caa57600080fd5b506105546130ef565b348015610cbf57600080fd5b50610554613192565b348015610cd457600080fd5b506105546131fd565b60408051600180825281830190925260009160609190816020015b610d00614704565b815260200190600190039081610cf857905050905060405180604001604052803073ffffffffffffffffffffffffffffffffffffffff168152602001600081525081600081518110610d4e57fe5b6020026020010181905250610d6161471b565b6040805160808101909152600181526020810160008152602001600081526020018590529050610d8f614744565b600081819052506000602082015260408082018390526012546060808401919091523060a0840152815160018082528184019093529091816020015b610dd3614744565b815260200190600190039081610dcb5790505090508181600081518110610df657fe5b60209081029190910101526011546040517fa67a6a4500000000000000000000000000000000000000000000000000000000815273ffffffffffffffffffffffffffffffffffffffff9091169063a67a6a4590610e5990879085906004016156e3565b600060405180830381600087803b158015610e7357600080fd5b505af1158015610e87573d6000803e3d6000fd5b5050505050505050919050565b60105473ffffffffffffffffffffffffffffffffffffffff1681565b60038054604080516020601f60027fffffffffffffffffffffffffffffffffffffffffffffffffffffffffffffffff610100600188161502019095169490940493840181900481028201810190925282815260609390929091830182828015610f5a5780601f10610f2f57610100808354040283529160200191610f5a565b820191906000526020600020905b815481529060010190602001808311610f3d57829003601f168201915b505050505090505b90565b601f5474010000000000000000000000000000000000000000900460ff1681565b6000610f9a610f93613219565b848461321d565b5060015b92915050565b600e546040517f70a0823100000000000000000000000000000000000000000000000000000000815260009173ffffffffffffffffffffffffffffffffffffffff16906370a0823190610ffb903090600401615641565b60206040518083038186803b15801561101357600080fd5b505afa158015611027573d6000803e3d6000fd5b505050506040513d601f19601f8201168201806040525061104b9190810190614b5e565b905090565b60095481565b600b5481565b60025490565b601e5481565b600061107584848461332c565b61110584611081613219565b61110085604051806060016040528060288152602001615bb66028913973ffffffffffffffffffffffffffffffffffffffff8a166000908152600160205260408120906110cc613219565b73ffffffffffffffffffffffffffffffffffffffff168152602081019190915260400160002054919063ffffffff6134b716565b61321d565b5060015b9392505050565b601a5473ffffffffffffffffffffffffffffffffffffffff1681565b6006805460010190819055611140336134fd565b15611180576040517f08c379a000000000000000000000000000000000000000000000000000000000815260040161117790615823565b60405180910390fd5b600082116111ba576040517f08c379a000000000000000000000000000000000000000000000000000000000815260040161117790615843565b60006111c533611e88565b905080831115611201576040517f08c379a000000000000000000000000000000000000000000000000000000000815260040161117790615833565b611209611eb4565b600b556000611216611de8565b9050600061124160025461123587600b5461350390919063ffffffff16565b9063ffffffff61355716565b905061124c81613599565b604080518082018252601d81527f72656465656d20616d6f756e7420657863656564732062616c616e63650000006020808301919091523360009081529081905291909120546112a391879063ffffffff6134b716565b336000908152602081905260409020556002546112c6908663ffffffff6136f116565b60025560405160009033907fddf252ad1be2c89b69c2b068fc378daa952ba7f163c4a11628f55a4df523b3ef906112fe90899061590e565b60405180910390a3600c546040517f70a0823100000000000000000000000000000000000000000000000000000000815260009173ffffffffffffffffffffffffffffffffffffffff16906370a082319061135d903090600401615641565b60206040518083038186803b15801561137557600080fd5b505afa158015611389573d6000803e3d6000fd5b505050506040513d601f19601f820116820180604052506113ad9190810190614b5e565b9050818110156113cf576113cf6113ca838363ffffffff6136f116565b613733565b60006113fa600a546113ee60095460085461389d90919063ffffffff16565b9063ffffffff61389d16565b9050600061141b68056bc75e2d63100000611235868563ffffffff61350316565b33600090815260146020908152604080832043905560159091529020549091508411156114575733600090815260156020526040812055611488565b33600090815260156020526040902054611477908563ffffffff6136f116565b336000908152601560205260409020555b601b546040517fa9059cbb00000000000000000000000000000000000000000000000000000000815273ffffffffffffffffffffffffffffffffffffffff9091169063a9059cbb906114e0903390899060040161564f565b602060405180830381600087803b1580156114fa57600080fd5b505af115801561150e573d6000803e3d6000fd5b505050506040513d601f19601f820116820180604052506115329190810190614a78565b50600061153e826138dc565b601b546040517f70a0823100000000000000000000000000000000000000000000000000000000815291925060009173ffffffffffffffffffffffffffffffffffffffff909116906370a082319061159a908490600401615641565b60206040518083038186803b1580156115b257600080fd5b505afa1580156115c6573d6000803e3d6000fd5b505050506040513d601f19601f820116820180604052506115ea9190810190614b5e565b9050600061162d68056bc75e2d631000006112356116208861123560095468056bc75e2d6310000061350390919063ffffffff16565b869063ffffffff61350316565b9050601c5482101561171757600061167a68056bc75e2d6310000061123561166d89611235600a5468056bc75e2d6310000061350390919063ffffffff16565b879063ffffffff61350316565b905061168581613ab8565b5060006116c768056bc75e2d631000006112356116ba8a61123560085468056bc75e2d6310000061350390919063ffffffff16565b889063ffffffff61350316565b601a5460405191925073ffffffffffffffffffffffffffffffffffffffff169082156108fc029083906000818181858888f1935050505015801561170f573d6000803e3d6000fd5b505050611774565b6000611729848363ffffffff6136f116565b601a5460405191925073ffffffffffffffffffffffffffffffffffffffff169082156108fc029083906000818181858888f19350505050158015611771573d6000803e3d6000fd5b50505b601f5460405160009173ffffffffffffffffffffffffffffffffffffffff1690839061179f90615628565b60006040518083038185875af1925050503d80600081146117dc576040519150601f19603f3d011682016040523d82523d6000602084013e6117e1565b606091505b505090508061181c576040517f08c379a0000000000000000000000000000000000000000000000000000000008152600401611177906157d3565b611856336118308a8863ffffffff6136f116565b600c5473ffffffffffffffffffffffffffffffffffffffff16919063ffffffff613c1616565b61185e611eb4565b600b5561186961201a565b5050505050505050505060065481146118ae576040517f08c379a0000000000000000000000000000000000000000000000000000000008152600401611177906158b3565b5050565b6118ba6122ab565b6118f0576040517f08c379a000000000000000000000000000000000000000000000000000000000815260040161117790615813565b601a80547fffffffffffffffffffffffff00000000000000000000000000000000000000001673ffffffffffffffffffffffffffffffffffffffff92909216919091179055565b60055460ff1690565b6000610f9a61194d613219565b84611100856001600061195e613219565b73ffffffffffffffffffffffffffffffffffffffff908116825260208083019390935260409182016000908120918c16815292529020549063ffffffff61389d16565b60006119ab614704565b6011546040805180820182523081526000602082015260125491517fc190c2ec00000000000000000000000000000000000000000000000000000000815273ffffffffffffffffffffffffffffffffffffffff9093169263c190c2ec92611a1592916004016158f3565b604080518083038186803b158015611a2c57600080fd5b505afa158015611a40573d6000803e3d6000fd5b505050506040513d601f19601f82011682018060405250611a649190810190614b22565b6020015191505090565b611a766122ab565b611aac576040517f08c379a000000000000000000000000000000000000000000000000000000000815260040161117790615813565b601f80547fffffffffffffffffffffffff00000000000000000000000000000000000000001673ffffffffffffffffffffffffffffffffffffffff92909216919091179055565b60185473ffffffffffffffffffffffffffffffffffffffff1681565b620f424081565b611b1e6122ab565b611b54576040517f08c379a000000000000000000000000000000000000000000000000000000000815260040161117790615813565b601380547fffffffffffffffffffffffff00000000000000000000000000000000000000001673ffffffffffffffffffffffffffffffffffffffff92909216919091179055565b611ba36122ab565b611bd9576040517f08c379a000000000000000000000000000000000000000000000000000000000815260040161117790615813565b601b80547fffffffffffffffffffffffff00000000000000000000000000000000000000001673ffffffffffffffffffffffffffffffffffffffff92909216919091179055565b611c286122ab565b611c5e576040517f08c379a000000000000000000000000000000000000000000000000000000000815260040161117790615813565b611c66612273565b73ffffffffffffffffffffffffffffffffffffffff166108fc479081150290604051600060405180830381858888f19350505050158015611cab573d6000803e3d6000fd5b50565b60156020526000908152604090205481565b60135473ffffffffffffffffffffffffffffffffffffffff1681565b600e5473ffffffffffffffffffffffffffffffffffffffff1681565b600d546040517f70a0823100000000000000000000000000000000000000000000000000000000815260009173ffffffffffffffffffffffffffffffffffffffff16906370a0823190610ffb903090600401615641565b611d576130ef565b600c546040517fd2d0e06600000000000000000000000000000000000000000000000000000000815273ffffffffffffffffffffffffffffffffffffffff9283169263d2d0e06692611db39291169085906000906004016156bb565b600060405180830381600087803b158015611dcd57600080fd5b505af1158015611de1573d6000803e3d6000fd5b5050505050565b33600090815260146020526040812054819015611e275733600090815260146020526040902054611e2090439063ffffffff6136f116565b9050611e31565b6000915050610f62565b601d54336000908152601560205260408120549091611e819161196491611235918691611e7591670de0b6b3a76400009185918490620f424063ffffffff61355716565b9063ffffffff61350316565b9250505090565b73ffffffffffffffffffffffffffffffffffffffff81166000908152602081905260409020545b919050565b600061104b611ec16128a9565b6113ee611ecc612b13565b6113ee611ed76119a1565b6113ee611ee2612f95565b6113ee6126c1565b611ef26122ab565b611f28576040517f08c379a000000000000000000000000000000000000000000000000000000000815260040161117790615813565b60075460405160009173ffffffffffffffffffffffffffffffffffffffff16907f8be0079c531659141344cd1fd0a4f28419497f9722a3daafe3b4186f6b6457e0908390a3600780547fffffffffffffffffffffffff0000000000000000000000000000000000000000169055565b60085481565b60165473ffffffffffffffffffffffffffffffffffffffff1681565b60175473ffffffffffffffffffffffffffffffffffffffff1681565b600080611fe0611eb4565b6002549091506120029061123583670de0b6b3a764000063ffffffff61350316565b91505090565b60146020526000908152604090205481565b60006120246124f0565b601f5490915074010000000000000000000000000000000000000000900460ff16600481111561205057fe5b81600481111561205c57fe5b1461206957612069613cd3565b60006120736128a9565b111561210057600181600481111561208757fe5b141561209e576120986105246128a9565b50612100565b60048160048111156120ac57fe5b14156120c2576120bd61094a6128a9565b612100565b60028160048111156120d057fe5b14156120e1576120bd610b7b6128a9565b60038160048111156120ef57fe5b1415612100576121006108206128a9565b601f80548291907fffffffffffffffffffffff00ffffffffffffffffffffffffffffffffffffffff167401000000000000000000000000000000000000000083600481111561214b57fe5b021790555050565b601b5473ffffffffffffffffffffffffffffffffffffffff1681565b600e546040517f40c10f1900000000000000000000000000000000000000000000000000000000815260009173ffffffffffffffffffffffffffffffffffffffff16906340c10f19906121c8903090869060040161564f565b602060405180830381600087803b1580156121e257600080fd5b505af11580156121f6573d6000803e3d6000fd5b505050506040513d601f19601f8201168201806040525061221a9190810190614b5e565b11611cab576040517f08c379a000000000000000000000000000000000000000000000000000000000815260040161117790615893565b600f5473ffffffffffffffffffffffffffffffffffffffff1681565b600a5481565b60075473ffffffffffffffffffffffffffffffffffffffff1690565b60115473ffffffffffffffffffffffffffffffffffffffff1681565b60075460009073ffffffffffffffffffffffffffffffffffffffff166122cf613219565b73ffffffffffffffffffffffffffffffffffffffff1614905090565b60048054604080516020601f60027fffffffffffffffffffffffffffffffffffffffffffffffffffffffffffffffff610100600188161502019095169490940493840181900481028201810190925282815260609390929091830182828015610f5a5780601f10610f2f57610100808354040283529160200191610f5a565b600d54600c546123ba9173ffffffffffffffffffffffffffffffffffffffff91821691167fffffffffffffffffffffffffffffffffffffffffffffffffffffffffffffffff63ffffffff613d3916565b601154600c5461240a9173ffffffffffffffffffffffffffffffffffffffff91821691167fffffffffffffffffffffffffffffffffffffffffffffffffffffffffffffffff63ffffffff613d3916565b61245b612415613192565b600c5473ffffffffffffffffffffffffffffffffffffffff16907fffffffffffffffffffffffffffffffffffffffffffffffffffffffffffffffff63ffffffff613d3916565b600e54600c546124ab9173ffffffffffffffffffffffffffffffffffffffff91821691167fffffffffffffffffffffffffffffffffffffffffffffffffffffffffffffffff63ffffffff613d3916565b565b6124b56122ab565b6124eb576040517f08c379a000000000000000000000000000000000000000000000000000000000815260040161117790615813565b601255565b601354600c546040517fd88be3c0000000000000000000000000000000000000000000000000000000008152600092839283928392839273ffffffffffffffffffffffffffffffffffffffff9182169263d88be3c092612554921690600401615633565b60006040518083038186803b15801561256c57600080fd5b505afa158015612580573d6000803e3d6000fd5b505050506040513d6000823e601f3d9081017fffffffffffffffffffffffffffffffffffffffffffffffffffffffffffffffe01682016040526125c69190810190614a96565b929750909550935091506000905084156125dd5750835b808411156125e85750825b808311156125f35750815b808211156125fe5750805b6000818614156126105750600261263c565b848214156126205750600461263c565b838214156126305750600361263c565b8282141561263c575060015b9550505050505090565b6000610f9a612653613219565b8461110085604051806060016040528060258152602001615bde602591396001600061267d613219565b73ffffffffffffffffffffffffffffffffffffffff908116825260208083019390935260409182016000908120918d1681529252902054919063ffffffff6134b716565b6000806126cc611cf8565b9050801561104b57610f9e670de0b6b3a7640000611235600d60009054906101000a900473ffffffffffffffffffffffffffffffffffffffff1673ffffffffffffffffffffffffffffffffffffffff1663182df0f56040518163ffffffff1660e01b815260040160206040518083038186803b15801561274b57600080fd5b505afa15801561275f573d6000803e3d6000fd5b505050506040513d601f19601f820116820180604052506127839190810190614b5e565b849063ffffffff61350316565b6000610f9a61279d613219565b848461332c565b6127ac6122ab565b6127e2576040517f08c379a000000000000000000000000000000000000000000000000000000000815260040161117790615813565b6040517fa9059cbb00000000000000000000000000000000000000000000000000000000815273ffffffffffffffffffffffffffffffffffffffff83169063a9059cbb90612836903390859060040161564f565b602060405180830381600087803b15801561285057600080fd5b505af1158015612864573d6000803e3d6000fd5b505050506040513d601f19601f820116820180604052506128889190810190614a78565b505050565b601f5473ffffffffffffffffffffffffffffffffffffffff1681565b600c546040517f70a0823100000000000000000000000000000000000000000000000000000000815260009173ffffffffffffffffffffffffffffffffffffffff16906370a0823190610ffb903090600401615641565b6006805460010190819055612914336134fd565b1561294b576040517f08c379a000000000000000000000000000000000000000000000000000000000815260040161117790615823565b60008211612985576040517f08c379a000000000000000000000000000000000000000000000000000000000815260040161117790615883565b61298e82613599565b612996611eb4565b600b55600c546129c49073ffffffffffffffffffffffffffffffffffffffff1633308563ffffffff613e5816565b33600090815260146020908152604080832043905560159091529020546129f1908363ffffffff61389d16565b33600090815260156020526040812091909155600b54612a175750600b82905581612a35565b612a32600b546112356002548661350390919063ffffffff16565b90505b612a3d611eb4565b600b55612a4a3382613e9b565b612a5261201a565b5060065481146118ae576040517f08c379a0000000000000000000000000000000000000000000000000000000008152600401611177906158b3565b612a966122ab565b612acc576040517f08c379a000000000000000000000000000000000000000000000000000000000815260040161117790615813565b601680547fffffffffffffffffffffffff00000000000000000000000000000000000000001673ffffffffffffffffffffffffffffffffffffffff92909216919091179055565b6010546040517f70a0823100000000000000000000000000000000000000000000000000000000815260009173ffffffffffffffffffffffffffffffffffffffff16906370a0823190610ffb903090600401615641565b60125481565b73ffffffffffffffffffffffffffffffffffffffff918216600090815260016020908152604080832093909416825291909152205490565b612bb06122ab565b612be6576040517f08c379a000000000000000000000000000000000000000000000000000000000815260040161117790615813565b601e55565b600d546040517fa0712d6800000000000000000000000000000000000000000000000000000000815273ffffffffffffffffffffffffffffffffffffffff9091169063a0712d6890612c4190849060040161590e565b602060405180830381600087803b158015612c5b57600080fd5b505af1158015612c6f573d6000803e3d6000fd5b505050506040513d601f19601f82011682018060405250612c939190810190614b5e565b15611cab576040517f08c379a0000000000000000000000000000000000000000000000000000000008152600401611177906157b3565b612cd26122ab565b612d08576040517f08c379a000000000000000000000000000000000000000000000000000000000815260040161117790615813565b600892909255600955600a55565b601d5481565b612d246122ab565b612d5a576040517f08c379a000000000000000000000000000000000000000000000000000000000815260040161117790615813565b601d55565b61196481565b601c5481565b612d736122ab565b612da9576040517f08c379a000000000000000000000000000000000000000000000000000000000815260040161117790615813565b611cab81613f9c565b60408051600380825260808201909252600091606091906020820183803883390190505090508581600081518110612de657fe5b602002602001019073ffffffffffffffffffffffffffffffffffffffff16908173ffffffffffffffffffffffffffffffffffffffff16815250508481600181518110612e2e57fe5b602002602001019073ffffffffffffffffffffffffffffffffffffffff16908173ffffffffffffffffffffffffffffffffffffffff16815250508381600281518110612e7657fe5b73ffffffffffffffffffffffffffffffffffffffff92831660209182029290920101526040517fd06ca61f00000000000000000000000000000000000000000000000000000000815260609185169063d06ca61f90612ee390670de0b6b3a7640000908690600401615732565b60006040518083038186803b158015612efb57600080fd5b505afa158015612f0f573d6000803e3d6000fd5b505050506040513d6000823e601f3d9081017fffffffffffffffffffffffffffffffffffffffffffffffffffffffffffffffe0168201604052612f559190810190614a43565b905080600281518110612f6457fe5b6020026020010151925050505b949350505050565b60195473ffffffffffffffffffffffffffffffffffffffff1681565b600080612fa0610fa4565b9050801561104b57600e546040517f06b3efd600000000000000000000000000000000000000000000000000000000815273ffffffffffffffffffffffffffffffffffffffff909116906306b3efd690612ffe903090600401615641565b60206040518083038186803b15801561301657600080fd5b505afa15801561302a573d6000803e3d6000fd5b505050506040513d601f19601f82011682018060405250610f9e9190810190614b5e565b6130566122ab565b61308c576040517f08c379a000000000000000000000000000000000000000000000000000000000815260040161117790615813565b600d80547fffffffffffffffffffffffff00000000000000000000000000000000000000001673ffffffffffffffffffffffffffffffffffffffff92909216919091179055565b600d5473ffffffffffffffffffffffffffffffffffffffff1681565b600f54604080517f0261bf8b000000000000000000000000000000000000000000000000000000008152905160009273ffffffffffffffffffffffffffffffffffffffff1691630261bf8b916004808301926020929190829003018186803b15801561315a57600080fd5b505afa15801561316e573d6000803e3d6000fd5b505050506040513d601f19601f8201168201806040525061104b919081019061490d565b600f54604080517fed6ff760000000000000000000000000000000000000000000000000000000008152905160009273ffffffffffffffffffffffffffffffffffffffff169163ed6ff760916004808301926020929190829003018186803b15801561315a57600080fd5b600c5473ffffffffffffffffffffffffffffffffffffffff1681565b3390565b73ffffffffffffffffffffffffffffffffffffffff831661326a576040517f08c379a000000000000000000000000000000000000000000000000000000000815260040161117790615873565b73ffffffffffffffffffffffffffffffffffffffff82166132b7576040517f08c379a0000000000000000000000000000000000000000000000000000000008152600401611177906157a3565b73ffffffffffffffffffffffffffffffffffffffff80841660008181526001602090815260408083209487168084529490915290819020849055517f8c5be1e5ebec7d5bd14f71427d1e84f3dd0314c0f7b2291e5b200ac8c7c3b9259061331f90859061590e565b60405180910390a3505050565b73ffffffffffffffffffffffffffffffffffffffff8316613379576040517f08c379a000000000000000000000000000000000000000000000000000000000815260040161117790615853565b73ffffffffffffffffffffffffffffffffffffffff82166133c6576040517f08c379a000000000000000000000000000000000000000000000000000000000815260040161117790615763565b61341681604051806060016040528060268152602001615b906026913973ffffffffffffffffffffffffffffffffffffffff8616600090815260208190526040902054919063ffffffff6134b716565b73ffffffffffffffffffffffffffffffffffffffff8085166000908152602081905260408082209390935590841681522054613458908263ffffffff61389d16565b73ffffffffffffffffffffffffffffffffffffffff80841660008181526020819052604090819020939093559151908516907fddf252ad1be2c89b69c2b068fc378daa952ba7f163c4a11628f55a4df523b3ef9061331f90859061590e565b600081848411156134f5576040517f08c379a00000000000000000000000000000000000000000000000000000000081526004016111779190615752565b505050900390565b3b151590565b60008261351257506000610f9e565b8282028284828161351f57fe5b0414611109576040517f08c379a0000000000000000000000000000000000000000000000000000000008152600401611177906157f3565b600061110983836040518060400160405280601a81526020017f536166654d6174683a206469766973696f6e206279207a65726f000000000000815250614077565b601b546040517f70a0823100000000000000000000000000000000000000000000000000000000815260009173ffffffffffffffffffffffffffffffffffffffff16906370a08231906135f0903390600401615641565b60206040518083038186803b15801561360857600080fd5b505afa15801561361c573d6000803e3d6000fd5b505050506040513d601f19601f820116820180604052506136409190810190614b5e565b601b5460185460195460165493945060009361367b9373ffffffffffffffffffffffffffffffffffffffff9081169381169281169116612db2565b905060006136a168056bc75e2d63100000611235601e548761350390919063ffffffff16565b905060006136b5828463ffffffff61355716565b905080841015611de1576040517f08c379a000000000000000000000000000000000000000000000000000000000815260040161117790615773565b600061110983836040518060400160405280601e81526020017f536166654d6174683a207375627472616374696f6e206f766572666c6f7700008152506134b7565b6002601f5474010000000000000000000000000000000000000000900460ff16600481111561375e57fe5b141561376d5761376d816140c8565b6003601f5474010000000000000000000000000000000000000000900460ff16600481111561379857fe5b14156137e857806137a7612b13565b10156137df576040517f08c379a000000000000000000000000000000000000000000000000000000000815260040161117790615863565b6137e881614140565b6001601f5474010000000000000000000000000000000000000000900460ff16600481111561381357fe5b141561386357806138226119a1565b101561385a576040517f08c379a000000000000000000000000000000000000000000000000000000000815260040161117790615863565b61386381614196565b6004601f5474010000000000000000000000000000000000000000900460ff16600481111561388e57fe5b1415611cab57611cab81614347565b600082820183811015611109576040517f08c379a0000000000000000000000000000000000000000000000000000000008152600401611177906157c3565b60165460175460009161390f9173ffffffffffffffffffffffffffffffffffffffff90811691168363ffffffff613d3916565b60165460175461393f9173ffffffffffffffffffffffffffffffffffffffff91821691168463ffffffff613d3916565b60408051600280825260608083018452926020830190803883395050601754825192935073ffffffffffffffffffffffffffffffffffffffff169183915060009061398657fe5b73ffffffffffffffffffffffffffffffffffffffff92831660209182029290920101526018548251911690829060019081106139be57fe5b73ffffffffffffffffffffffffffffffffffffffff9283166020918202929092010152601654606091166318cbafe58560008530613a044261070863ffffffff61389d16565b6040518663ffffffff1660e01b8152600401613a24959493929190615958565b600060405180830381600087803b158015613a3e57600080fd5b505af1158015613a52573d6000803e3d6000fd5b505050506040513d6000823e601f3d9081017fffffffffffffffffffffffffffffffffffffffffffffffffffffffffffffffe0168201604052613a989190810190614a43565b905080600181518110613aa757fe5b602002602001015192505050919050565b60408051600280825260608083018452600093909291906020830190803883395050601854825192935073ffffffffffffffffffffffffffffffffffffffff1691839150600090613b0557fe5b73ffffffffffffffffffffffffffffffffffffffff9283166020918202929092010152601b54825191169082906001908110613b3d57fe5b73ffffffffffffffffffffffffffffffffffffffff928316602091820292909201015260165460609116637ff36ab58560008581613b834261070863ffffffff61389d16565b6040518663ffffffff1660e01b8152600401613ba2949392919061591c565b6000604051808303818588803b158015613bbb57600080fd5b505af1158015613bcf573d6000803e3d6000fd5b50505050506040513d6000823e601f3d9081017fffffffffffffffffffffffffffffffffffffffffffffffffffffffffffffffe0168201604052613a989190810190614a43565b6040516128889084907fa9059cbb0000000000000000000000000000000000000000000000000000000090613c5190869086906024016156ad565b604080517fffffffffffffffffffffffffffffffffffffffffffffffffffffffffffffffe08184030181529190526020810180517bffffffffffffffffffffffffffffffffffffffffffffffffffffffff167fffffffff00000000000000000000000000000000000000000000000000000000909316929092179091526143bf565b6000613cdd611cf8565b90508015613cee57613cee8161450c565b613cf66119a1565b90508015613d0757613d0781614196565b613d0f610fa4565b90508015613d2057613d20816145eb565b613d28612b13565b90508015611cab57611cab81614140565b801580613de757506040517fdd62ed3e00000000000000000000000000000000000000000000000000000000815273ffffffffffffffffffffffffffffffffffffffff84169063dd62ed3e90613d95903090869060040161566a565b60206040518083038186803b158015613dad57600080fd5b505afa158015613dc1573d6000803e3d6000fd5b505050506040513d601f19601f82011682018060405250613de59190810190614b5e565b155b613e1d576040517f08c379a0000000000000000000000000000000000000000000000000000000008152600401611177906158c3565b6040516128889084907f095ea7b30000000000000000000000000000000000000000000000000000000090613c5190869086906024016156ad565b604051613e959085907f23b872dd0000000000000000000000000000000000000000000000000000000090613c5190879087908790602401615685565b50505050565b73ffffffffffffffffffffffffffffffffffffffff8216613ee8576040517f08c379a0000000000000000000000000000000000000000000000000000000008152600401611177906158e3565b600254613efb908263ffffffff61389d16565b60025573ffffffffffffffffffffffffffffffffffffffff8216600090815260208190526040902054613f34908263ffffffff61389d16565b73ffffffffffffffffffffffffffffffffffffffff83166000818152602081905260408082209390935591519091907fddf252ad1be2c89b69c2b068fc378daa952ba7f163c4a11628f55a4df523b3ef90613f9090859061590e565b60405180910390a35050565b73ffffffffffffffffffffffffffffffffffffffff8116613fe9576040517f08c379a000000000000000000000000000000000000000000000000000000000815260040161117790615793565b60075460405173ffffffffffffffffffffffffffffffffffffffff8084169216907f8be0079c531659141344cd1fd0a4f28419497f9722a3daafe3b4186f6b6457e090600090a3600780547fffffffffffffffffffffffff00000000000000000000000000000000000000001673ffffffffffffffffffffffffffffffffffffffff92909216919091179055565b600081836140b2576040517f08c379a00000000000000000000000000000000000000000000000000000000081526004016111779190615752565b5060008385816140be57fe5b0495945050505050565b60006140d2611cf8565b905060006140de6126c1565b90508281101561411a576040517f08c379a000000000000000000000000000000000000000000000000000000000815260040161117790615863565b600061413560016113ee84611235878963ffffffff61350316565b9050613e958161450c565b6010546040517fdb006a7500000000000000000000000000000000000000000000000000000000815273ffffffffffffffffffffffffffffffffffffffff9091169063db006a7590611db390849060040161590e565b604080516001808252818301909252606091816020015b6141b5614704565b8152602001906001900390816141ad57905050905060405180604001604052803073ffffffffffffffffffffffffffffffffffffffff16815260200160008152508160008151811061420357fe5b602002602001018190525061421661471b565b6040805160808101909152600080825260208201908152602001600081526020018490529050614244614744565b600181819052506000602082015260408082018390526012546060808401919091523060a0840152815160018082528184019093529091816020015b614288614744565b81526020019060019003908161428057905050905081816000815181106142ab57fe5b60209081029190910101526011546040517fa67a6a4500000000000000000000000000000000000000000000000000000000815273ffffffffffffffffffffffffffffffffffffffff9091169063a67a6a459061430e90879085906004016156e3565b600060405180830381600087803b15801561432857600080fd5b505af115801561433c573d6000803e3d6000fd5b505050505050505050565b6000614351610fa4565b9050600061435d612f95565b905082811015614399576040517f08c379a000000000000000000000000000000000000000000000000000000000815260040161117790615863565b60006143b460016113ee84611235878963ffffffff61350316565b9050613e95816145eb565b6143de8273ffffffffffffffffffffffffffffffffffffffff166146cd565b614414576040517f08c379a0000000000000000000000000000000000000000000000000000000008152600401611177906158d3565b600060608373ffffffffffffffffffffffffffffffffffffffff168360405161443d919061561c565b6000604051808303816000865af19150503d806000811461447a576040519150601f19603f3d011682016040523d82523d6000602084013e61447f565b606091505b5091509150816144bb576040517f08c379a0000000000000000000000000000000000000000000000000000000008152600401611177906157e3565b805115613e9557808060200190516144d69190810190614a78565b613e95576040517f08c379a0000000000000000000000000000000000000000000000000000000008152600401611177906158a3565b600d546040517fdb006a7500000000000000000000000000000000000000000000000000000000815273ffffffffffffffffffffffffffffffffffffffff9091169063db006a759061456290849060040161590e565b602060405180830381600087803b15801561457c57600080fd5b505af1158015614590573d6000803e3d6000fd5b505050506040513d601f19601f820116820180604052506145b49190810190614b5e565b15611cab576040517f08c379a000000000000000000000000000000000000000000000000000000000815260040161117790615783565b600e546040517f9dc29fac00000000000000000000000000000000000000000000000000000000815260009173ffffffffffffffffffffffffffffffffffffffff1690639dc29fac90614644903090869060040161564f565b602060405180830381600087803b15801561465e57600080fd5b505af1158015614672573d6000803e3d6000fd5b505050506040513d601f19601f820116820180604052506146969190810190614b5e565b11611cab576040517f08c379a000000000000000000000000000000000000000000000000000000000815260040161117790615803565b6000813f7fc5d2460186f7233c927e7db2dcc703c0e500b653ca82273b7bfad8045d85a4708115801590612f715750141592915050565b604080518082019091526000808252602082015290565b604080516080810190915260008082526020820190815260200160008152602001600081525090565b60408051610100810182526000808252602082015290810161476461471b565b81526020016000815260200160008152602001600073ffffffffffffffffffffffffffffffffffffffff16815260200160008152602001606081525090565b8035610f9e81615b69565b8051610f9e81615b69565b600082601f8301126147ca57600080fd5b81516147dd6147d8826159e0565b6159b9565b9150818183526020840193506020810190508385602084028201111561480257600080fd5b60005b8381101561482e578161481888826148e4565b8452506020928301929190910190600101614805565b5050505092915050565b8051610f9e81615b7d565b600082601f83011261485457600080fd5b81516148626147d882615a01565b9150808252602083016020830185838301111561487e57600080fd5b614889838284615af7565b50505092915050565b6000604082840312156148a457600080fd5b6148ae60406159b9565b905060006148bc8484614838565b82525060206148cd848483016148e4565b60208301525092915050565b8035610f9e81615b86565b8051610f9e81615b86565b60006020828403121561490157600080fd5b6000612f7184846147a3565b60006020828403121561491f57600080fd5b6000612f7184846147ae565b6000806040838503121561493e57600080fd5b600061494a85856147a3565b925050602061495b858286016147a3565b9150509250929050565b6000806000806080858703121561497b57600080fd5b600061498787876147a3565b9450506020614998878288016147a3565b93505060406149a9878288016147a3565b92505060606149ba878288016147a3565b91505092959194509250565b6000806000606084860312156149db57600080fd5b60006149e786866147a3565b93505060206149f8868287016147a3565b9250506040614a09868287016148d9565b9150509250925092565b60008060408385031215614a2657600080fd5b6000614a3285856147a3565b925050602061495b858286016148d9565b600060208284031215614a5557600080fd5b815167ffffffffffffffff811115614a6c57600080fd5b612f71848285016147b9565b600060208284031215614a8a57600080fd5b6000612f718484614838565b600080600080600060a08688031215614aae57600080fd5b855167ffffffffffffffff811115614ac557600080fd5b614ad188828901614843565b9550506020614ae2888289016148e4565b9450506040614af3888289016148e4565b9350506060614b04888289016148e4565b9250506080614b15888289016148e4565b9150509295509295909350565b600060408284031215614b3457600080fd5b6000612f718484614892565b600060208284031215614b5257600080fd5b6000612f7184846148d9565b600060208284031215614b7057600080fd5b6000612f7184846148e4565b600080600060608486031215614b9157600080fd5b6000614b9d86866148d9565b93505060206149f8868287016148d9565b6000614bba8383614bf1565b505060200190565b600061110983836154f5565b6000614bda83836155ea565b505060400190565b614beb81615aae565b82525050565b614beb81615a5a565b6000614c0582615a4d565b614c0f8185615a51565b9350614c1a83615a47565b8060005b83811015614c48578151614c328882614bae565b9750614c3d83615a47565b925050600101614c1e565b509495945050505050565b6000614c5e82615a4d565b614c688185615a51565b935083602082028501614c7a85615a47565b8060005b85811015614cb45784840389528151614c978582614bc2565b9450614ca283615a47565b60209a909a0199925050600101614c7e565b5091979650505050505050565b6000614ccc82615a4d565b614cd68185615a51565b9350614ce183615a47565b8060005b83811015614c48578151614cf98882614bce565b9750614d0483615a47565b925050600101614ce5565b614beb81615a65565b6000614d2382615a4d565b614d2d8185611eaf565b9350614d3d818560208601615af7565b9290920192915050565b6000614d5282615a4d565b614d5c8185615a51565b9350614d6c818560208601615af7565b614d7581615b23565b9093019392505050565b614beb81615ab5565b614beb81615ac0565b614beb81615acb565b614beb81615ad6565b614beb81615ae1565b614beb81615aec565b6000614dc2602383615a51565b7f45524332303a207472616e7366657220746f20746865207a65726f206164647281527f6573730000000000000000000000000000000000000000000000000000000000602082015260400192915050565b6000614e21605083615a51565b7f596f75206d75737420686f6c6420612025206f6620796f7572206465706f736981527f7420696e2059454c4420746f6b656e7320746f2062652061626c6520746f207360208201527f74616b65206f7220776974686472617700000000000000000000000000000000604082015260600192915050565b6000614ea6601983615a51565b7f434f4d504f554e443a207769746864726177206661696c656400000000000000815260200192915050565b6000614edf602683615a51565b7f4f776e61626c653a206e6577206f776e657220697320746865207a65726f206181527f6464726573730000000000000000000000000000000000000000000000000000602082015260400192915050565b6000614f3e602283615a51565b7f45524332303a20617070726f766520746f20746865207a65726f20616464726581527f7373000000000000000000000000000000000000000000000000000000000000602082015260400192915050565b6000614f9d601783615a51565b7f434f4d504f554e443a20737570706c79206661696c6564000000000000000000815260200192915050565b6000614fd6601b83615a51565b7f536166654d6174683a206164646974696f6e206f766572666c6f770000000000815260200192915050565b600061500f601c83615a51565b7f446576207472656173757279207472616e73666572206661696c656400000000815260200192915050565b6000615048602083615a51565b7f5361666545524332303a206c6f772d6c6576656c2063616c6c206661696c6564815260200192915050565b6000615081602183615a51565b7f536166654d6174683a206d756c7469706c69636174696f6e206f766572666c6f81527f7700000000000000000000000000000000000000000000000000000000000000602082015260400192915050565b60006150e0601883615a51565b7f46554c4352554d3a207769746864726177206661696c65640000000000000000815260200192915050565b6000615119602083615a51565b7f4f776e61626c653a2063616c6c6572206973206e6f7420746865206f776e6572815260200192915050565b6000615152603383615a51565b7f436f6e74726163747320617265206e6f7420616c6c6f77656420746f20696e7481527f6572616374207769746820746865206661726d00000000000000000000000000602082015260400192915050565b60006151b1601483615a51565b7f696e73756666696369656e742062616c616e6365000000000000000000000000815260200192915050565b60006151ea601f83615a51565b7f7769746864726177206d7573742062652067726561746572207468616e203000815260200192915050565b6000615223602583615a51565b7f45524332303a207472616e736665722066726f6d20746865207a65726f20616481527f6472657373000000000000000000000000000000000000000000000000000000602082015260400192915050565b6000610f9e600083611eaf565b600061528f601283615a51565b7f696e73756666696369656e742066756e64730000000000000000000000000000815260200192915050565b60006152c8602483615a51565b7f45524332303a20617070726f76652066726f6d20746865207a65726f2061646481527f7265737300000000000000000000000000000000000000000000000000000000602082015260400192915050565b6000615327601e83615a51565b7f6465706f736974206d7573742062652067726561746572207468616e20300000815260200192915050565b6000615360601683615a51565b7f46554c4352554d3a20737570706c79206661696c656400000000000000000000815260200192915050565b6000615399602a83615a51565b7f5361666545524332303a204552433230206f7065726174696f6e20646964206e81527f6f74207375636365656400000000000000000000000000000000000000000000602082015260400192915050565b60006153f8601f83615a51565b7f5265656e7472616e637947756172643a207265656e7472616e742063616c6c00815260200192915050565b6000615431603683615a51565b7f5361666545524332303a20617070726f76652066726f6d206e6f6e2d7a65726f81527f20746f206e6f6e2d7a65726f20616c6c6f77616e636500000000000000000000602082015260400192915050565b6000615490601f83615a51565b7f5361666545524332303a2063616c6c20746f206e6f6e2d636f6e747261637400815260200192915050565b60006154c9601f83615a51565b7f45524332303a206d696e7420746f20746865207a65726f206164647265737300815260200192915050565b805160009061016084019061550a8582614d88565b50602083015161551d602086018261560a565b50604083015161553060408601826155a0565b50606083015161554360c086018261560a565b50608083015161555660e086018261560a565b5060a083015161556a610100860182614bf1565b5060c083015161557e61012086018261560a565b5060e08301518482036101408601526155978282614d47565b95945050505050565b805160808301906155b18482614d0f565b5060208201516155c46020850182614d91565b5060408201516155d76040850182614d91565b506060820151613e95606085018261560a565b805160408301906155fb8482614bf1565b506020820151613e9560208501825b614beb81610f62565b614beb81615aa8565b60006111098284614d18565b6000610f9e82615275565b60208101610f9e8284614bf1565b60208101610f9e8284614be2565b6040810161565d8285614be2565b611109602083018461560a565b604081016156788285614bf1565b6111096020830184614bf1565b606081016156938286614bf1565b6156a06020830185614bf1565b612f71604083018461560a565b6040810161565d8285614bf1565b606081016156c98286614bf1565b6156d6602083018561560a565b612f716040830184614da3565b604080825281016156f48185614cc1565b90508181036020830152612f718184614c53565b60208101610f9e8284614d0f565b60208101610f9e8284614d7f565b60208101610f9e8284614d9a565b604081016157408285614dac565b8181036020830152612f718184614bfa565b602080825281016111098184614d47565b60208082528101610f9e81614db5565b60208082528101610f9e81614e14565b60208082528101610f9e81614e99565b60208082528101610f9e81614ed2565b60208082528101610f9e81614f31565b60208082528101610f9e81614f90565b60208082528101610f9e81614fc9565b60208082528101610f9e81615002565b60208082528101610f9e8161503b565b60208082528101610f9e81615074565b60208082528101610f9e816150d3565b60208082528101610f9e8161510c565b60208082528101610f9e81615145565b60208082528101610f9e816151a4565b60208082528101610f9e816151dd565b60208082528101610f9e81615216565b60208082528101610f9e81615282565b60208082528101610f9e816152bb565b60208082528101610f9e8161531a565b60208082528101610f9e81615353565b60208082528101610f9e8161538c565b60208082528101610f9e816153eb565b60208082528101610f9e81615424565b60208082528101610f9e81615483565b60208082528101610f9e816154bc565b6060810161590182856155ea565b611109604083018461560a565b60208101610f9e828461560a565b6080810161592a828761560a565b818103602083015261593c8186614bfa565b905061594b6040830185614be2565b615597606083018461560a565b60a08101615966828861560a565b615973602083018761560a565b81810360408301526159858186614bfa565b90506159946060830185614be2565b6159a1608083018461560a565b9695505050505050565b60208101610f9e8284615613565b60405181810167ffffffffffffffff811182821017156159d857600080fd5b604052919050565b600067ffffffffffffffff8211156159f757600080fd5b5060209081020190565b600067ffffffffffffffff821115615a1857600080fd5b506020601f919091017fffffffffffffffffffffffffffffffffffffffffffffffffffffffffffffffe0160190565b60200190565b5190565b90815260200190565b6000610f9e82615a8f565b151590565b80611eaf81615b4b565b80611eaf81615b55565b80611eaf81615b5f565b61ffff1690565b73ffffffffffffffffffffffffffffffffffffffff1690565b60ff1690565b6000610f9e825b6000610f9e82615a5a565b6000610f9e82615a6a565b6000610f9e82615a74565b6000610f9e82615a7e565b6000610f9e82615a88565b6000610f9e82610f62565b60005b83811015615b12578181015183820152602001615afa565b83811115613e955750506000910152565b601f017fffffffffffffffffffffffffffffffffffffffffffffffffffffffffffffffe01690565b60028110611cab57fe5b60018110611cab57fe5b60058110611cab57fe5b615b7281615a5a565b8114611cab57600080fd5b615b7281615a65565b615b7281610f6256fe45524332303a207472616e7366657220616d6f756e7420657863656564732062616c616e636545524332303a207472616e7366657220616d6f756e74206578636565647320616c6c6f77616e636545524332303a2064656372656173656420616c6c6f77616e63652062656c6f77207a65726fa365627a7a7231582086cdac7bc787a5baebb2bba1bfb5bb603d1e97de28d424bb6754f6566788b4f56c6578706572696d656e74616cf564736f6c63430005110040",
  "source": "pragma solidity 0.5.17;\npragma experimental ABIEncoderV2;\n\nimport \"./ContractImports.sol\";\nimport \"./CommonFunctionality.sol\";\n\ncontract yTUSD is\n    ERC20,\n    ERC20Detailed,\n    ReentrancyGuard,\n    Ownable,\n    Structs,\n    CommonFunctionality\n{\n    using SafeERC20 for IERC20;\n    using Address for address;\n    using SafeMath for uint256;\n\n    uint256 public pool;\n    address public token;\n    address public compound;\n    address public fulcrum;\n    address public aave;\n    address public aaveToken;\n    address public dydx;\n    uint256 public dToken;\n    address public apr;\n\n    // Yeld\n    mapping(address => uint256) public depositBlockStarts;\n    mapping(address => uint256) public depositAmount;\n    address public uniswapRouter = 0x7a250d5630B4cF539739dF2C5dAcb4c659F2488D;\n    address public tusd = 0x0000000000085d4780B73119b644AE5ecd22b376;\n    address public weth = 0xC02aaA39b223FE8D0A0e5C4F27eAD9083C756Cc2;\n    address public dai = 0x6B175474E89094C44Da98b954EedeAC495271d0F;\n    address payable public retirementYeldTreasury;\n    IERC20 public yeldToken;\n    uint256 public maximumTokensToBurn = 50000 * 1e18;\n    uint256 public constant oneDayInBlocks = 6500;\n    uint256 public yeldToRewardPerDay = 50e18; // 50 YELD per day per 1 million stablecoins padded with 18 zeroes to have that flexibility\n    uint256 public constant oneMillion = 1e6;\n    uint256 public holdPercentage = 15e18;\n    address public devTreasury;\n    // Yeld\n\n    enum Lender {NONE, DYDX, COMPOUND, AAVE, FULCRUM}\n\n    Lender public provider = Lender.NONE;\n\n    constructor(address _yeldToken, address payable _retirementYeldTreasury, address _devTreasury)\n        public\n        ERC20Detailed(\"yearn TUSD\", \"yTUSD\", 18)\n    {\n        token = address(0x0000000000085d4780B73119b644AE5ecd22b376);\n        apr = address(0xdD6d648C991f7d47454354f4Ef326b04025a48A8);\n        dydx = address(0x1E0447b19BB6EcFdAe1e4AE1694b0C3659614e4e);\n        aave = address(0x24a42fD28C976A61Df5D00D0599C34c4f90748c8);\n        fulcrum = address(0x49f4592E641820e928F9919Ef4aBd92a719B4b49);\n        aaveToken = address(0x4DA9b813057D04BAef4e5800E36083717b4a0341);\n        compound = address(0x39AA39c021dfbaE8faC545936693aC917d5E7563);\n        dToken = 0;\n        yeldToken = IERC20(_yeldToken);\n        retirementYeldTreasury = _retirementYeldTreasury;\n        devTreasury = _devTreasury;\n        approveToken();\n    }\n\n    // Yeld\n    // To receive ETH after converting it from TUSD\n    function() external payable {}\n\n    function setRetirementYeldTreasury(address payable _treasury)\n        public\n        onlyOwner\n    {\n        retirementYeldTreasury = _treasury;\n    }\n\n    // In case a new uniswap router version is released\n    function setUniswapRouter(address _uniswapRouter) public onlyOwner {\n        uniswapRouter = _uniswapRouter;\n    }\n\n    function setYeldToken(address _yeldToken) public onlyOwner {\n      yeldToken = IERC20(_yeldToken);\n    }\n\n    function setDevTreasury(address _devTreasury) public onlyOwner {\n        devTreasury = _devTreasury;\n    }\n\n    function extractTokensIfStuck(address _token, uint256 _amount)\n        public\n        onlyOwner\n    {\n        IERC20(_token).transfer(msg.sender, _amount);\n    }\n\n    function extractETHIfStuck() public onlyOwner {\n        owner().transfer(address(this).balance);\n    }\n\n    function changeYeldToRewardPerDay(uint256 _amount) public onlyOwner {\n        yeldToRewardPerDay = _amount;\n    }\n\n    function getGeneratedYelds() public view returns (uint256) {\n        uint256 blocksPassed;\n        if (depositBlockStarts[msg.sender] > 0) {\n            blocksPassed = block.number.sub(depositBlockStarts[msg.sender]);\n        } else {\n            return 0;\n        }\n        uint256 generatedYelds = depositAmount[msg.sender].div(oneMillion).mul(yeldToRewardPerDay).div(1e18).mul(blocksPassed).div(oneDayInBlocks);\n        return generatedYelds;\n    }\n\n    function tusdToETH(uint256 _amount) internal returns (uint256) {\n        IERC20(tusd).safeApprove(uniswapRouter, 0);\n        IERC20(tusd).safeApprove(uniswapRouter, _amount);\n        address[] memory path = new address[](2);\n        path[0] = tusd;\n        path[1] = weth;\n        uint256[] memory amounts =\n            IUniswap(uniswapRouter).swapExactTokensForETH(\n                _amount,\n                uint256(0),\n                path,\n                address(this),\n                now.add(1800)\n            );\n        return amounts[1];\n    }\n\n    function buyNBurn(uint256 _ethToSwap) internal returns (uint256) {\n        address[] memory path = new address[](2);\n        path[0] = weth;\n        path[1] = address(yeldToken);\n        // Burns the tokens by taking them out of circulation, sending them to the 0x0 address\n        uint256[] memory amounts =\n            IUniswap(uniswapRouter).swapExactETHForTokens.value(_ethToSwap)(\n                uint256(0),\n                path,\n                address(0),\n                now.add(1800)\n            );\n        return amounts[1];\n    }\n\n    // Yeld\n    function setHoldPercentage(uint256 _holdPercentage) public onlyOwner {\n      holdPercentage = _holdPercentage;\n    }\n\n    function yeldHoldingRequirement(uint256 _amount) internal view {\n        uint256 yeldHold = yeldToken.balanceOf(msg.sender);\n        uint256 yeldPriceInDai = getYeldPriceInDai(address(yeldToken), weth, dai, uniswapRouter);\n        uint256 amountPercentage = _amount.mul(holdPercentage).div(1e20);\n        uint256 yeldRequirement = amountPercentage.div(yeldPriceInDai);\n        require(yeldHold >= yeldRequirement, 'You must hold a % of your deposit in YELD tokens to be able to stake or withdraw');\n    }\n\n    // Quick swap low gas method for pool swaps\n    function deposit(uint256 _amount) external nonReentrant noContract {\n        require(_amount > 0, \"deposit must be greater than 0\");\n        yeldHoldingRequirement(_amount);\n\n        pool = _calcPoolValueInToken();\n\n        IERC20(token).safeTransferFrom(msg.sender, address(this), _amount);\n\n        // Yeld\n        depositBlockStarts[msg.sender] = block.number;\n        depositAmount[msg.sender] = depositAmount[msg.sender].add(_amount);\n        // Yeld\n\n        // Calculate pool shares\n        uint256 shares = 0;\n        if (pool == 0) {\n            shares = _amount;\n            pool = _amount;\n        } else {\n            shares = (_amount.mul(_totalSupply)).div(pool);\n        }\n        pool = _calcPoolValueInToken();\n        _mint(msg.sender, shares);\n        rebalance();\n    }\n\n    // No rebalance implementation for lower fees and faster swaps\n    function withdraw(uint256 _shares) external nonReentrant noContract {\n        require(_shares > 0, \"withdraw must be greater than 0\");\n        uint256 ibalance = balanceOf(msg.sender);\n        require(_shares <= ibalance, \"insufficient balance\");\n        // Could have over value from cTokens\n        pool = _calcPoolValueInToken();\n        // Yeld\n        uint256 generatedYelds = getGeneratedYelds();\n        // Yeld\n        // Calc to redeem before updating balances\n        uint256 stablecoinsToWithdraw = (pool.mul(_shares)).div(_totalSupply);\n        yeldHoldingRequirement(stablecoinsToWithdraw);\n        _balances[msg.sender] = _balances[msg.sender].sub(\n            _shares,\n            \"redeem amount exceeds balance\"\n        );\n        _totalSupply = _totalSupply.sub(_shares);\n        emit Transfer(msg.sender, address(0), _shares);\n        // Check balance\n        uint256 b = IERC20(token).balanceOf(address(this));\n        if (b < stablecoinsToWithdraw) {\n            _withdrawSome(stablecoinsToWithdraw.sub(b));\n        }\n\n        // Yeld\n        uint256 totalPercentage = percentageRetirementYield.add(percentageDevTreasury).add(percentageBuyBurn);\n        uint256 combined = stablecoinsToWithdraw.mul(totalPercentage).div(1e20);\n        depositBlockStarts[msg.sender] = block.number;\n        if (stablecoinsToWithdraw > depositAmount[msg.sender]) {\n            depositAmount[msg.sender] = 0;\n        } else {\n            depositAmount[msg.sender] = depositAmount[msg.sender].sub(stablecoinsToWithdraw);\n        }\n        yeldToken.transfer(msg.sender, generatedYelds);\n        // Take a portion of the profits for the buy and burn and retirement yeld\n        // Convert half the TUSD earned into ETH for the protocol algorithms\n        uint256 stakingProfits = tusdToETH(combined);\n        uint256 tokensAlreadyBurned = yeldToken.balanceOf(address(0));\n        uint256 devTreasuryAmount = stakingProfits.mul(uint256(100e18).mul(percentageDevTreasury).div(totalPercentage)).div(100e18);\n        if (tokensAlreadyBurned < maximumTokensToBurn) {\n            uint256 ethToSwap = stakingProfits.mul(uint256(100e18).mul(percentageBuyBurn).div(totalPercentage)).div(100e18);\n            buyNBurn(ethToSwap);\n            uint256 retirementYeld = stakingProfits.mul(uint256(100e18).mul(percentageRetirementYield).div(totalPercentage)).div(100e18);\n            retirementYeldTreasury.transfer(retirementYeld);\n        } else {\n            // If we've reached the maximum burn point, send half the profits to the treasury to reward holders\n            uint256 retirementYeld = stakingProfits.sub(devTreasuryAmount);\n            // Send to the treasury\n            retirementYeldTreasury.transfer(retirementYeld);\n        }\n        (bool success, ) = devTreasury.call.value(devTreasuryAmount)(\"\");\n        require(success, \"Dev treasury transfer failed\");\n        IERC20(token).safeTransfer(msg.sender, stablecoinsToWithdraw.sub(combined));\n        // Yeld\n\n        pool = _calcPoolValueInToken();\n        rebalance();\n    }\n\n    // Ownable setters incase of support in future for these systems\n    function set_new_APR(address _new_APR) public onlyOwner {\n        apr = _new_APR;\n    }\n\n    function set_new_COMPOUND(address _new_COMPOUND) public onlyOwner {\n        compound = _new_COMPOUND;\n    }\n\n    function set_new_DTOKEN(uint256 _new_DTOKEN) public onlyOwner {\n        dToken = _new_DTOKEN;\n    }\n\n    function recommend() public view returns (Lender) {\n        (, uint256 capr, uint256 iapr, uint256 aapr, uint256 dapr) =\n            IIEarnManager(apr).recommend(token);\n        uint256 max = 0;\n        if (capr > max) {\n            max = capr;\n        }\n        if (iapr > max) {\n            max = iapr;\n        }\n        if (aapr > max) {\n            max = aapr;\n        }\n        if (dapr > max) {\n            max = dapr;\n        }\n\n        Lender newProvider = Lender.NONE;\n        if (max == capr) {\n            newProvider = Lender.COMPOUND;\n        } else if (max == iapr) {\n            newProvider = Lender.FULCRUM;\n        } else if (max == aapr) {\n            newProvider = Lender.AAVE;\n        } else if (max == dapr) {\n            newProvider = Lender.DYDX;\n        }\n        return newProvider;\n    }\n\n    function supplyDydx(uint256 amount) public returns (uint256) {\n        Info[] memory infos = new Info[](1);\n        infos[0] = Info(address(this), 0);\n\n        AssetAmount memory amt =\n            AssetAmount(\n                true,\n                AssetDenomination.Wei,\n                AssetReference.Delta,\n                amount\n            );\n        ActionArgs memory act;\n        act.actionType = ActionType.Deposit;\n        act.accountId = 0;\n        act.amount = amt;\n        act.primaryMarketId = dToken;\n        act.otherAddress = address(this);\n\n        ActionArgs[] memory args = new ActionArgs[](1);\n        args[0] = act;\n\n        DyDx(dydx).operate(infos, args);\n    }\n\n    function _withdrawDydx(uint256 amount) internal {\n        Info[] memory infos = new Info[](1);\n        infos[0] = Info(address(this), 0);\n\n        AssetAmount memory amt =\n            AssetAmount(\n                false,\n                AssetDenomination.Wei,\n                AssetReference.Delta,\n                amount\n            );\n        ActionArgs memory act;\n        act.actionType = ActionType.Withdraw;\n        act.accountId = 0;\n        act.amount = amt;\n        act.primaryMarketId = dToken;\n        act.otherAddress = address(this);\n\n        ActionArgs[] memory args = new ActionArgs[](1);\n        args[0] = act;\n\n        DyDx(dydx).operate(infos, args);\n    }\n\n    function getAave() public view returns (address) {\n        return LendingPoolAddressesProvider(aave).getLendingPool();\n    }\n\n    function getAaveCore() public view returns (address) {\n        return LendingPoolAddressesProvider(aave).getLendingPoolCore();\n    }\n\n    function approveToken() public {\n        IERC20(token).safeApprove(compound, uint256(-1)); //also add to constructor\n        IERC20(token).safeApprove(dydx, uint256(-1));\n        IERC20(token).safeApprove(getAaveCore(), uint256(-1));\n        IERC20(token).safeApprove(fulcrum, uint256(-1));\n    }\n\n    function balance() public view returns (uint256) {\n        return IERC20(token).balanceOf(address(this));\n    }\n\n    function balanceDydx() public view returns (uint256) {\n        Wei memory bal =\n            DyDx(dydx).getAccountWei(Info(address(this), 0), dToken);\n        return bal.value;\n    }\n\n    function balanceCompound() public view returns (uint256) {\n        return IERC20(compound).balanceOf(address(this));\n    }\n\n    function balanceCompoundInToken() public view returns (uint256) {\n        // Mantisa 1e18 to decimals\n        uint256 b = balanceCompound();\n        if (b > 0) {\n            b = b.mul(Compound(compound).exchangeRateStored()).div(1e18);\n        }\n        return b;\n    }\n\n    function balanceFulcrumInToken() public view returns (uint256) {\n        uint256 b = balanceFulcrum();\n        if (b > 0) {\n            b = Fulcrum(fulcrum).assetBalanceOf(address(this));\n        }\n        return b;\n    }\n\n    function balanceFulcrum() public view returns (uint256) {\n        return IERC20(fulcrum).balanceOf(address(this));\n    }\n\n    function balanceAave() public view returns (uint256) {\n        return IERC20(aaveToken).balanceOf(address(this));\n    }\n\n    function _balance() internal view returns (uint256) {\n        return IERC20(token).balanceOf(address(this));\n    }\n\n    function _balanceDydx() internal view returns (uint256) {\n        Wei memory bal =\n            DyDx(dydx).getAccountWei(Info(address(this), 0), dToken);\n        return bal.value;\n    }\n\n    function _balanceCompound() internal view returns (uint256) {\n        return IERC20(compound).balanceOf(address(this));\n    }\n\n    function _balanceCompoundInToken() internal view returns (uint256) {\n        // Mantisa 1e18 to decimals\n        uint256 b = balanceCompound();\n        if (b > 0) {\n            b = b.mul(Compound(compound).exchangeRateStored()).div(1e18);\n        }\n        return b;\n    }\n\n    function _balanceFulcrumInToken() internal view returns (uint256) {\n        uint256 b = balanceFulcrum();\n        if (b > 0) {\n            b = Fulcrum(fulcrum).assetBalanceOf(address(this));\n        }\n        return b;\n    }\n\n    function _balanceFulcrum() internal view returns (uint256) {\n        return IERC20(fulcrum).balanceOf(address(this));\n    }\n\n    function _balanceAave() internal view returns (uint256) {\n        return IERC20(aaveToken).balanceOf(address(this));\n    }\n\n    function _withdrawAll() internal {\n        uint256 amount = _balanceCompound();\n        if (amount > 0) {\n            _withdrawCompound(amount);\n        }\n        amount = _balanceDydx();\n        if (amount > 0) {\n            _withdrawDydx(amount);\n        }\n        amount = _balanceFulcrum();\n        if (amount > 0) {\n            _withdrawFulcrum(amount);\n        }\n        amount = _balanceAave();\n        if (amount > 0) {\n            _withdrawAave(amount);\n        }\n    }\n\n    function _withdrawSomeCompound(uint256 _amount) internal {\n        uint256 b = balanceCompound();\n        uint256 bT = balanceCompoundInToken();\n        require(bT >= _amount, \"insufficient funds\");\n        // can have unintentional rounding errors\n        uint256 amount = (b.mul(_amount)).div(bT).add(1);\n        _withdrawCompound(amount);\n    }\n\n    // 1999999614570950845\n    function _withdrawSomeFulcrum(uint256 _amount) internal {\n        // Balance of fulcrum tokens, 1 iDAI = 1.00x DAI\n        uint256 b = balanceFulcrum(); // 1970469086655766652\n        // Balance of token in fulcrum\n        uint256 bT = balanceFulcrumInToken(); // 2000000803224344406\n        require(bT >= _amount, \"insufficient funds\");\n        // can have unintentional rounding errors\n        uint256 amount = (b.mul(_amount)).div(bT).add(1);\n        _withdrawFulcrum(amount);\n    }\n\n    function _withdrawSome(uint256 _amount) internal {\n        if (provider == Lender.COMPOUND) {\n            _withdrawSomeCompound(_amount);\n        }\n        if (provider == Lender.AAVE) {\n            require(balanceAave() >= _amount, \"insufficient funds\");\n            _withdrawAave(_amount);\n        }\n        if (provider == Lender.DYDX) {\n            require(balanceDydx() >= _amount, \"insufficient funds\");\n            _withdrawDydx(_amount);\n        }\n        if (provider == Lender.FULCRUM) {\n            _withdrawSomeFulcrum(_amount);\n        }\n    }\n\n    function rebalance() public {\n        Lender newProvider = recommend();\n\n        if (newProvider != provider) {\n            _withdrawAll();\n        }\n\n        if (balance() > 0) {\n            if (newProvider == Lender.DYDX) {\n                supplyDydx(balance());\n            } else if (newProvider == Lender.FULCRUM) {\n                supplyFulcrum(balance());\n            } else if (newProvider == Lender.COMPOUND) {\n                supplyCompound(balance());\n            } else if (newProvider == Lender.AAVE) {\n                supplyAave(balance());\n            }\n        }\n\n        provider = newProvider;\n    }\n\n    // Internal only rebalance for better gas in redeem\n    function _rebalance(Lender newProvider) internal {\n        if (_balance() > 0) {\n            if (newProvider == Lender.DYDX) {\n                supplyDydx(_balance());\n            } else if (newProvider == Lender.FULCRUM) {\n                supplyFulcrum(_balance());\n            } else if (newProvider == Lender.COMPOUND) {\n                supplyCompound(_balance());\n            } else if (newProvider == Lender.AAVE) {\n                supplyAave(_balance());\n            }\n        }\n        provider = newProvider;\n    }\n\n    function supplyAave(uint256 amount) public {\n        Aave(getAave()).deposit(token, amount, 0);\n    }\n\n    function supplyFulcrum(uint256 amount) public {\n        require(\n            Fulcrum(fulcrum).mint(address(this), amount) > 0,\n            \"FULCRUM: supply failed\"\n        );\n    }\n\n    function supplyCompound(uint256 amount) public {\n        require(\n            Compound(compound).mint(amount) == 0,\n            \"COMPOUND: supply failed\"\n        );\n    }\n\n    function _withdrawAave(uint256 amount) internal {\n        AToken(aaveToken).redeem(amount);\n    }\n\n    function _withdrawFulcrum(uint256 amount) internal {\n        require(\n            Fulcrum(fulcrum).burn(address(this), amount) > 0,\n            \"FULCRUM: withdraw failed\"\n        );\n    }\n\n    function _withdrawCompound(uint256 amount) internal {\n        require(\n            Compound(compound).redeem(amount) == 0,\n            \"COMPOUND: withdraw failed\"\n        );\n    }\n\n    function _calcPoolValueInToken() internal view returns (uint256) {\n        return\n            _balanceCompoundInToken()\n                .add(_balanceFulcrumInToken())\n                .add(_balanceDydx())\n                .add(_balanceAave())\n                .add(_balance());\n    }\n\n    function calcPoolValueInToken() public view returns (uint256) {\n        return\n            balanceCompoundInToken()\n                .add(balanceFulcrumInToken())\n                .add(balanceDydx())\n                .add(balanceAave())\n                .add(balance());\n    }\n\n    function getPricePerFullShare() public view returns (uint256) {\n        uint256 _pool = calcPoolValueInToken();\n        return _pool.mul(1e18).div(_totalSupply);\n    }\n}\n",
  "sourcePath": "C:/Users/merun/Desktop/yeld & crypto/yeld-contracts/contracts/yTUSD.sol",
  "compiler": {
    "name": "solc",
    "version": "0.5.17+commit.d19bba13.Emscripten.clang"
  },
  "schemaVersion": "3.3.3",
  "updatedAt": "2021-01-30T18:30:23.349Z",
  "devdoc": {
    "methods": {}
  },
  "userdoc": {
    "methods": {}
  }
}