{
  "contractName": "yTUSD",
  "abi": [
    {
      "inputs": [
        {
          "internalType": "address",
          "name": "_yeldToken",
          "type": "address"
        },
        {
          "internalType": "address payable",
          "name": "_retirementYeldTreasury",
          "type": "address"
        },
        {
          "internalType": "address",
          "name": "_devTreasury",
          "type": "address"
        }
      ],
      "payable": false,
      "stateMutability": "nonpayable",
      "type": "constructor"
    },
    {
      "anonymous": false,
      "inputs": [
        {
          "indexed": true,
          "internalType": "address",
          "name": "owner",
          "type": "address"
        },
        {
          "indexed": true,
          "internalType": "address",
          "name": "spender",
          "type": "address"
        },
        {
          "indexed": false,
          "internalType": "uint256",
          "name": "value",
          "type": "uint256"
        }
      ],
      "name": "Approval",
      "type": "event"
    },
    {
      "anonymous": false,
      "inputs": [
        {
          "indexed": true,
          "internalType": "address",
          "name": "previousOwner",
          "type": "address"
        },
        {
          "indexed": true,
          "internalType": "address",
          "name": "newOwner",
          "type": "address"
        }
      ],
      "name": "OwnershipTransferred",
      "type": "event"
    },
    {
      "anonymous": false,
      "inputs": [
        {
          "indexed": true,
          "internalType": "address",
          "name": "from",
          "type": "address"
        },
        {
          "indexed": true,
          "internalType": "address",
          "name": "to",
          "type": "address"
        },
        {
          "indexed": false,
          "internalType": "uint256",
          "name": "value",
          "type": "uint256"
        }
      ],
      "name": "Transfer",
      "type": "event"
    },
    {
      "payable": true,
      "stateMutability": "payable",
      "type": "fallback"
    },
    {
      "constant": true,
      "inputs": [],
      "name": "aave",
      "outputs": [
        {
          "internalType": "address",
          "name": "",
          "type": "address"
        }
      ],
      "payable": false,
      "stateMutability": "view",
      "type": "function"
    },
    {
      "constant": true,
      "inputs": [],
      "name": "aaveToken",
      "outputs": [
        {
          "internalType": "address",
          "name": "",
          "type": "address"
        }
      ],
      "payable": false,
      "stateMutability": "view",
      "type": "function"
    },
    {
      "constant": true,
      "inputs": [
        {
          "internalType": "address",
          "name": "owner",
          "type": "address"
        },
        {
          "internalType": "address",
          "name": "spender",
          "type": "address"
        }
      ],
      "name": "allowance",
      "outputs": [
        {
          "internalType": "uint256",
          "name": "",
          "type": "uint256"
        }
      ],
      "payable": false,
      "stateMutability": "view",
      "type": "function"
    },
    {
      "constant": false,
      "inputs": [
        {
          "internalType": "address",
          "name": "spender",
          "type": "address"
        },
        {
          "internalType": "uint256",
          "name": "amount",
          "type": "uint256"
        }
      ],
      "name": "approve",
      "outputs": [
        {
          "internalType": "bool",
          "name": "",
          "type": "bool"
        }
      ],
      "payable": false,
      "stateMutability": "nonpayable",
      "type": "function"
    },
    {
      "constant": true,
      "inputs": [],
      "name": "apr",
      "outputs": [
        {
          "internalType": "address",
          "name": "",
          "type": "address"
        }
      ],
      "payable": false,
      "stateMutability": "view",
      "type": "function"
    },
    {
      "constant": true,
      "inputs": [
        {
          "internalType": "address",
          "name": "account",
          "type": "address"
        }
      ],
      "name": "balanceOf",
      "outputs": [
        {
          "internalType": "uint256",
          "name": "",
          "type": "uint256"
        }
      ],
      "payable": false,
      "stateMutability": "view",
      "type": "function"
    },
    {
      "constant": true,
      "inputs": [],
      "name": "compound",
      "outputs": [
        {
          "internalType": "address",
          "name": "",
          "type": "address"
        }
      ],
      "payable": false,
      "stateMutability": "view",
      "type": "function"
    },
    {
      "constant": true,
      "inputs": [],
      "name": "dToken",
      "outputs": [
        {
          "internalType": "uint256",
          "name": "",
          "type": "uint256"
        }
      ],
      "payable": false,
      "stateMutability": "view",
      "type": "function"
    },
    {
      "constant": true,
      "inputs": [],
      "name": "dai",
      "outputs": [
        {
          "internalType": "address",
          "name": "",
          "type": "address"
        }
      ],
      "payable": false,
      "stateMutability": "view",
      "type": "function"
    },
    {
      "constant": true,
      "inputs": [],
      "name": "decimals",
      "outputs": [
        {
          "internalType": "uint8",
          "name": "",
          "type": "uint8"
        }
      ],
      "payable": false,
      "stateMutability": "view",
      "type": "function"
    },
    {
      "constant": false,
      "inputs": [
        {
          "internalType": "address",
          "name": "spender",
          "type": "address"
        },
        {
          "internalType": "uint256",
          "name": "subtractedValue",
          "type": "uint256"
        }
      ],
      "name": "decreaseAllowance",
      "outputs": [
        {
          "internalType": "bool",
          "name": "",
          "type": "bool"
        }
      ],
      "payable": false,
      "stateMutability": "nonpayable",
      "type": "function"
    },
    {
      "constant": true,
      "inputs": [
        {
          "internalType": "address",
          "name": "",
          "type": "address"
        }
      ],
      "name": "depositAmount",
      "outputs": [
        {
          "internalType": "uint256",
          "name": "",
          "type": "uint256"
        }
      ],
      "payable": false,
      "stateMutability": "view",
      "type": "function"
    },
    {
      "constant": true,
      "inputs": [
        {
          "internalType": "address",
          "name": "",
          "type": "address"
        }
      ],
      "name": "depositBlockStarts",
      "outputs": [
        {
          "internalType": "uint256",
          "name": "",
          "type": "uint256"
        }
      ],
      "payable": false,
      "stateMutability": "view",
      "type": "function"
    },
    {
      "constant": true,
      "inputs": [],
      "name": "devTreasury",
      "outputs": [
        {
          "internalType": "address",
          "name": "",
          "type": "address"
        }
      ],
      "payable": false,
      "stateMutability": "view",
      "type": "function"
    },
    {
      "constant": true,
      "inputs": [],
      "name": "dydx",
      "outputs": [
        {
          "internalType": "address",
          "name": "",
          "type": "address"
        }
      ],
      "payable": false,
      "stateMutability": "view",
      "type": "function"
    },
    {
      "constant": true,
      "inputs": [],
      "name": "fulcrum",
      "outputs": [
        {
          "internalType": "address",
          "name": "",
          "type": "address"
        }
      ],
      "payable": false,
      "stateMutability": "view",
      "type": "function"
    },
    {
      "constant": true,
      "inputs": [
        {
          "internalType": "address",
          "name": "_yeld",
          "type": "address"
        },
        {
          "internalType": "address",
          "name": "_weth",
          "type": "address"
        },
        {
          "internalType": "address",
          "name": "_dai",
          "type": "address"
        },
        {
          "internalType": "address",
          "name": "_uniswap",
          "type": "address"
        }
      ],
      "name": "getYeldPriceInDai",
      "outputs": [
        {
          "internalType": "uint256",
          "name": "",
          "type": "uint256"
        }
      ],
      "payable": false,
      "stateMutability": "view",
      "type": "function"
    },
    {
      "constant": true,
      "inputs": [],
      "name": "holdPercentage",
      "outputs": [
        {
          "internalType": "uint256",
          "name": "",
          "type": "uint256"
        }
      ],
      "payable": false,
      "stateMutability": "view",
      "type": "function"
    },
    {
      "constant": false,
      "inputs": [
        {
          "internalType": "address",
          "name": "spender",
          "type": "address"
        },
        {
          "internalType": "uint256",
          "name": "addedValue",
          "type": "uint256"
        }
      ],
      "name": "increaseAllowance",
      "outputs": [
        {
          "internalType": "bool",
          "name": "",
          "type": "bool"
        }
      ],
      "payable": false,
      "stateMutability": "nonpayable",
      "type": "function"
    },
    {
      "constant": true,
      "inputs": [],
      "name": "isOwner",
      "outputs": [
        {
          "internalType": "bool",
          "name": "",
          "type": "bool"
        }
      ],
      "payable": false,
      "stateMutability": "view",
      "type": "function"
    },
    {
      "constant": true,
      "inputs": [],
      "name": "maximumTokensToBurn",
      "outputs": [
        {
          "internalType": "uint256",
          "name": "",
          "type": "uint256"
        }
      ],
      "payable": false,
      "stateMutability": "view",
      "type": "function"
    },
    {
      "constant": true,
      "inputs": [],
      "name": "name",
      "outputs": [
        {
          "internalType": "string",
          "name": "",
          "type": "string"
        }
      ],
      "payable": false,
      "stateMutability": "view",
      "type": "function"
    },
    {
      "constant": true,
      "inputs": [],
      "name": "oneDayInBlocks",
      "outputs": [
        {
          "internalType": "uint256",
          "name": "",
          "type": "uint256"
        }
      ],
      "payable": false,
      "stateMutability": "view",
      "type": "function"
    },
    {
      "constant": true,
      "inputs": [],
      "name": "oneMillion",
      "outputs": [
        {
          "internalType": "uint256",
          "name": "",
          "type": "uint256"
        }
      ],
      "payable": false,
      "stateMutability": "view",
      "type": "function"
    },
    {
      "constant": true,
      "inputs": [],
      "name": "owner",
      "outputs": [
        {
          "internalType": "address payable",
          "name": "",
          "type": "address"
        }
      ],
      "payable": false,
      "stateMutability": "view",
      "type": "function"
    },
    {
      "constant": true,
      "inputs": [],
      "name": "percentageBuyBurn",
      "outputs": [
        {
          "internalType": "uint256",
          "name": "",
          "type": "uint256"
        }
      ],
      "payable": false,
      "stateMutability": "view",
      "type": "function"
    },
    {
      "constant": true,
      "inputs": [],
      "name": "percentageDevTreasury",
      "outputs": [
        {
          "internalType": "uint256",
          "name": "",
          "type": "uint256"
        }
      ],
      "payable": false,
      "stateMutability": "view",
      "type": "function"
    },
    {
      "constant": true,
      "inputs": [],
      "name": "percentageRetirementYield",
      "outputs": [
        {
          "internalType": "uint256",
          "name": "",
          "type": "uint256"
        }
      ],
      "payable": false,
      "stateMutability": "view",
      "type": "function"
    },
    {
      "constant": true,
      "inputs": [],
      "name": "pool",
      "outputs": [
        {
          "internalType": "uint256",
          "name": "",
          "type": "uint256"
        }
      ],
      "payable": false,
      "stateMutability": "view",
      "type": "function"
    },
    {
      "constant": true,
      "inputs": [],
      "name": "provider",
      "outputs": [
        {
          "internalType": "enum yTUSD.Lender",
          "name": "",
          "type": "uint8"
        }
      ],
      "payable": false,
      "stateMutability": "view",
      "type": "function"
    },
    {
      "constant": false,
      "inputs": [],
      "name": "renounceOwnership",
      "outputs": [],
      "payable": false,
      "stateMutability": "nonpayable",
      "type": "function"
    },
    {
      "constant": true,
      "inputs": [],
      "name": "retirementYeldTreasury",
      "outputs": [
        {
          "internalType": "address payable",
          "name": "",
          "type": "address"
        }
      ],
      "payable": false,
      "stateMutability": "view",
      "type": "function"
    },
    {
      "constant": true,
      "inputs": [],
      "name": "symbol",
      "outputs": [
        {
          "internalType": "string",
          "name": "",
          "type": "string"
        }
      ],
      "payable": false,
      "stateMutability": "view",
      "type": "function"
    },
    {
      "constant": true,
      "inputs": [],
      "name": "token",
      "outputs": [
        {
          "internalType": "address",
          "name": "",
          "type": "address"
        }
      ],
      "payable": false,
      "stateMutability": "view",
      "type": "function"
    },
    {
      "constant": true,
      "inputs": [],
      "name": "totalSupply",
      "outputs": [
        {
          "internalType": "uint256",
          "name": "",
          "type": "uint256"
        }
      ],
      "payable": false,
      "stateMutability": "view",
      "type": "function"
    },
    {
      "constant": false,
      "inputs": [
        {
          "internalType": "address",
          "name": "recipient",
          "type": "address"
        },
        {
          "internalType": "uint256",
          "name": "amount",
          "type": "uint256"
        }
      ],
      "name": "transfer",
      "outputs": [
        {
          "internalType": "bool",
          "name": "",
          "type": "bool"
        }
      ],
      "payable": false,
      "stateMutability": "nonpayable",
      "type": "function"
    },
    {
      "constant": false,
      "inputs": [
        {
          "internalType": "address",
          "name": "sender",
          "type": "address"
        },
        {
          "internalType": "address",
          "name": "recipient",
          "type": "address"
        },
        {
          "internalType": "uint256",
          "name": "amount",
          "type": "uint256"
        }
      ],
      "name": "transferFrom",
      "outputs": [
        {
          "internalType": "bool",
          "name": "",
          "type": "bool"
        }
      ],
      "payable": false,
      "stateMutability": "nonpayable",
      "type": "function"
    },
    {
      "constant": false,
      "inputs": [
        {
          "internalType": "address payable",
          "name": "newOwner",
          "type": "address"
        }
      ],
      "name": "transferOwnership",
      "outputs": [],
      "payable": false,
      "stateMutability": "nonpayable",
      "type": "function"
    },
    {
      "constant": true,
      "inputs": [],
      "name": "tusd",
      "outputs": [
        {
          "internalType": "address",
          "name": "",
          "type": "address"
        }
      ],
      "payable": false,
      "stateMutability": "view",
      "type": "function"
    },
    {
      "constant": true,
      "inputs": [],
      "name": "uniswapRouter",
      "outputs": [
        {
          "internalType": "address",
          "name": "",
          "type": "address"
        }
      ],
      "payable": false,
      "stateMutability": "view",
      "type": "function"
    },
    {
      "constant": false,
      "inputs": [
        {
          "internalType": "uint256",
          "name": "a",
          "type": "uint256"
        },
        {
          "internalType": "uint256",
          "name": "b",
          "type": "uint256"
        },
        {
          "internalType": "uint256",
          "name": "c",
          "type": "uint256"
        }
      ],
      "name": "updatePercentages",
      "outputs": [],
      "payable": false,
      "stateMutability": "nonpayable",
      "type": "function"
    },
    {
      "constant": true,
      "inputs": [],
      "name": "weth",
      "outputs": [
        {
          "internalType": "address",
          "name": "",
          "type": "address"
        }
      ],
      "payable": false,
      "stateMutability": "view",
      "type": "function"
    },
    {
      "constant": true,
      "inputs": [],
      "name": "yeldToRewardPerDay",
      "outputs": [
        {
          "internalType": "uint256",
          "name": "",
          "type": "uint256"
        }
      ],
      "payable": false,
      "stateMutability": "view",
      "type": "function"
    },
    {
      "constant": true,
      "inputs": [],
      "name": "yeldToken",
      "outputs": [
        {
          "internalType": "contract IERC20",
          "name": "",
          "type": "address"
        }
      ],
      "payable": false,
      "stateMutability": "view",
      "type": "function"
    },
    {
      "constant": false,
      "inputs": [
        {
          "internalType": "address payable",
          "name": "_treasury",
          "type": "address"
        }
      ],
      "name": "setRetirementYeldTreasury",
      "outputs": [],
      "payable": false,
      "stateMutability": "nonpayable",
      "type": "function"
    },
    {
      "constant": false,
      "inputs": [
        {
          "internalType": "address",
          "name": "_uniswapRouter",
          "type": "address"
        }
      ],
      "name": "setUniswapRouter",
      "outputs": [],
      "payable": false,
      "stateMutability": "nonpayable",
      "type": "function"
    },
    {
      "constant": false,
      "inputs": [
        {
          "internalType": "address",
          "name": "_yeldToken",
          "type": "address"
        }
      ],
      "name": "setYeldToken",
      "outputs": [],
      "payable": false,
      "stateMutability": "nonpayable",
      "type": "function"
    },
    {
      "constant": false,
      "inputs": [
        {
          "internalType": "address",
          "name": "_token",
          "type": "address"
        },
        {
          "internalType": "uint256",
          "name": "_amount",
          "type": "uint256"
        }
      ],
      "name": "extractTokensIfStuck",
      "outputs": [],
      "payable": false,
      "stateMutability": "nonpayable",
      "type": "function"
    },
    {
      "constant": false,
      "inputs": [],
      "name": "extractETHIfStuck",
      "outputs": [],
      "payable": false,
      "stateMutability": "nonpayable",
      "type": "function"
    },
    {
      "constant": false,
      "inputs": [
        {
          "internalType": "uint256",
          "name": "_amount",
          "type": "uint256"
        }
      ],
      "name": "changeYeldToRewardPerDay",
      "outputs": [],
      "payable": false,
      "stateMutability": "nonpayable",
      "type": "function"
    },
    {
      "constant": true,
      "inputs": [],
      "name": "getGeneratedYelds",
      "outputs": [
        {
          "internalType": "uint256",
          "name": "",
          "type": "uint256"
        }
      ],
      "payable": false,
      "stateMutability": "view",
      "type": "function"
    },
    {
      "constant": false,
      "inputs": [
        {
          "internalType": "uint256",
          "name": "_holdPercentage",
          "type": "uint256"
        }
      ],
      "name": "setHoldPercentage",
      "outputs": [],
      "payable": false,
      "stateMutability": "nonpayable",
      "type": "function"
    },
    {
      "constant": false,
      "inputs": [
        {
          "internalType": "uint256",
          "name": "_amount",
          "type": "uint256"
        }
      ],
      "name": "deposit",
      "outputs": [],
      "payable": false,
      "stateMutability": "nonpayable",
      "type": "function"
    },
    {
      "constant": false,
      "inputs": [
        {
          "internalType": "uint256",
          "name": "_shares",
          "type": "uint256"
        }
      ],
      "name": "withdraw",
      "outputs": [],
      "payable": false,
      "stateMutability": "nonpayable",
      "type": "function"
    },
    {
      "constant": false,
      "inputs": [
        {
          "internalType": "address",
          "name": "_new_APR",
          "type": "address"
        }
      ],
      "name": "set_new_APR",
      "outputs": [],
      "payable": false,
      "stateMutability": "nonpayable",
      "type": "function"
    },
    {
      "constant": false,
      "inputs": [
        {
          "internalType": "address",
          "name": "_new_COMPOUND",
          "type": "address"
        }
      ],
      "name": "set_new_COMPOUND",
      "outputs": [],
      "payable": false,
      "stateMutability": "nonpayable",
      "type": "function"
    },
    {
      "constant": false,
      "inputs": [
        {
          "internalType": "uint256",
          "name": "_new_DTOKEN",
          "type": "uint256"
        }
      ],
      "name": "set_new_DTOKEN",
      "outputs": [],
      "payable": false,
      "stateMutability": "nonpayable",
      "type": "function"
    },
    {
      "constant": true,
      "inputs": [],
      "name": "recommend",
      "outputs": [
        {
          "internalType": "enum yTUSD.Lender",
          "name": "",
          "type": "uint8"
        }
      ],
      "payable": false,
      "stateMutability": "view",
      "type": "function"
    },
    {
      "constant": false,
      "inputs": [
        {
          "internalType": "uint256",
          "name": "amount",
          "type": "uint256"
        }
      ],
      "name": "supplyDydx",
      "outputs": [
        {
          "internalType": "uint256",
          "name": "",
          "type": "uint256"
        }
      ],
      "payable": false,
      "stateMutability": "nonpayable",
      "type": "function"
    },
    {
      "constant": true,
      "inputs": [],
      "name": "getAave",
      "outputs": [
        {
          "internalType": "address",
          "name": "",
          "type": "address"
        }
      ],
      "payable": false,
      "stateMutability": "view",
      "type": "function"
    },
    {
      "constant": true,
      "inputs": [],
      "name": "getAaveCore",
      "outputs": [
        {
          "internalType": "address",
          "name": "",
          "type": "address"
        }
      ],
      "payable": false,
      "stateMutability": "view",
      "type": "function"
    },
    {
      "constant": false,
      "inputs": [],
      "name": "approveToken",
      "outputs": [],
      "payable": false,
      "stateMutability": "nonpayable",
      "type": "function"
    },
    {
      "constant": true,
      "inputs": [],
      "name": "balance",
      "outputs": [
        {
          "internalType": "uint256",
          "name": "",
          "type": "uint256"
        }
      ],
      "payable": false,
      "stateMutability": "view",
      "type": "function"
    },
    {
      "constant": true,
      "inputs": [],
      "name": "balanceDydx",
      "outputs": [
        {
          "internalType": "uint256",
          "name": "",
          "type": "uint256"
        }
      ],
      "payable": false,
      "stateMutability": "view",
      "type": "function"
    },
    {
      "constant": true,
      "inputs": [],
      "name": "balanceCompound",
      "outputs": [
        {
          "internalType": "uint256",
          "name": "",
          "type": "uint256"
        }
      ],
      "payable": false,
      "stateMutability": "view",
      "type": "function"
    },
    {
      "constant": true,
      "inputs": [],
      "name": "balanceCompoundInToken",
      "outputs": [
        {
          "internalType": "uint256",
          "name": "",
          "type": "uint256"
        }
      ],
      "payable": false,
      "stateMutability": "view",
      "type": "function"
    },
    {
      "constant": true,
      "inputs": [],
      "name": "balanceFulcrumInToken",
      "outputs": [
        {
          "internalType": "uint256",
          "name": "",
          "type": "uint256"
        }
      ],
      "payable": false,
      "stateMutability": "view",
      "type": "function"
    },
    {
      "constant": true,
      "inputs": [],
      "name": "balanceFulcrum",
      "outputs": [
        {
          "internalType": "uint256",
          "name": "",
          "type": "uint256"
        }
      ],
      "payable": false,
      "stateMutability": "view",
      "type": "function"
    },
    {
      "constant": true,
      "inputs": [],
      "name": "balanceAave",
      "outputs": [
        {
          "internalType": "uint256",
          "name": "",
          "type": "uint256"
        }
      ],
      "payable": false,
      "stateMutability": "view",
      "type": "function"
    },
    {
      "constant": false,
      "inputs": [],
      "name": "rebalance",
      "outputs": [],
      "payable": false,
      "stateMutability": "nonpayable",
      "type": "function"
    },
    {
      "constant": false,
      "inputs": [
        {
          "internalType": "uint256",
          "name": "amount",
          "type": "uint256"
        }
      ],
      "name": "supplyAave",
      "outputs": [],
      "payable": false,
      "stateMutability": "nonpayable",
      "type": "function"
    },
    {
      "constant": false,
      "inputs": [
        {
          "internalType": "uint256",
          "name": "amount",
          "type": "uint256"
        }
      ],
      "name": "supplyFulcrum",
      "outputs": [],
      "payable": false,
      "stateMutability": "nonpayable",
      "type": "function"
    },
    {
      "constant": false,
      "inputs": [
        {
          "internalType": "uint256",
          "name": "amount",
          "type": "uint256"
        }
      ],
      "name": "supplyCompound",
      "outputs": [],
      "payable": false,
      "stateMutability": "nonpayable",
      "type": "function"
    },
    {
      "constant": true,
      "inputs": [],
      "name": "calcPoolValueInToken",
      "outputs": [
        {
          "internalType": "uint256",
          "name": "",
          "type": "uint256"
        }
      ],
      "payable": false,
      "stateMutability": "view",
      "type": "function"
    },
    {
      "constant": true,
      "inputs": [],
      "name": "getPricePerFullShare",
      "outputs": [
        {
          "internalType": "uint256",
          "name": "",
          "type": "uint256"
        }
      ],
      "payable": false,
      "stateMutability": "view",
      "type": "function"
    }
  ],
  "bytecode": "0x60806040526714d1120d7b1600006008556722b1c8c1227a0000600955670de0b6b3a7640000600a55601680546001600160a01b0319908116737a250d5630b4cf539739df2c5dacb4c659f2488d179091556017805482166e085d4780b73119b644ae5ecd22b37617905560188054821673c02aaa39b223fe8d0a0e5c4f27ead9083c756cc217905560198054909116736b175474e89094c44da98b954eedeac495271d0f179055690a968163f0a57b400000601c556000601d55674563918244f40000601e55601f805460ff60a01b19169055348015620000e057600080fd5b506040516200663b3803806200663b8339810160408190526200010391620007a7565b604080518082018252600a8152691e59585c9b88151554d160b21b6020808301918252835180850190945260058452641e551554d160da1b908401528151919291601291620001569160039190620006b7565b5081516200016c906004906020850190620006b7565b506005805460ff191660ff9290921691909117905550506001600655620001926200030b565b600780546001600160a01b0319166001600160a01b0392831617908190556040519116906000907f8be0079c531659141344cd1fd0a4f28419497f9722a3daafe3b4186f6b6457e0908290a3600c80546001600160a01b03199081166e085d4780b73119b644ae5ecd22b3761790915560138054821673dd6d648c991f7d47454354f4ef326b04025a48a8179055601180548216731e0447b19bb6ecfdae1e4ae1694b0c3659614e4e179055600f805482167324a42fd28c976a61df5d00d0599c34c4f90748c8179055600e805482167349f4592e641820e928f9919ef4abd92a719b4b49179055601080548216734da9b813057d04baef4e5800e36083717b4a0341179055600d805482167339aa39c021dfbae8fac545936693ac917d5e75631790556000601255601b80546001600160a01b0386811691841691909117909155601a8054858316908416179055601f805491841691909216179055620003026001600160e01b036200031016565b50505062000add565b335b90565b600d54600c546200033d916001600160a01b039182169116600019620003d2602090811b62003c4217901c565b601154600c546200036a916001600160a01b039182169116600019620003d2602090811b62003c4217901c565b620003a3620003816001600160e01b03620004ec16565b600c546001600160a01b031690600019620003d2602090811b62003c4217901c565b600e54600c54620003d0916001600160a01b039182169116600019620003d2602090811b62003c4217901c565b565b801580620004615750604051636eb1769f60e11b81526001600160a01b0384169063dd62ed3e906200040b9030908690600401620009c8565b60206040518083038186803b1580156200042457600080fd5b505afa15801562000439573d6000803e3d6000fd5b505050506040513d601f19601f820116820180604052506200045f91908101906200081c565b155b620004895760405162461bcd60e51b8152600401620004809062000a2a565b60405180910390fd5b604051620004e790849063095ea7b360e01b90620004ae9086908690602401620009e7565b60408051808303601f190181529190526020810180516001600160e01b0319939093166001600160e01b03938416179052906200057216565b505050565b600f546040805163076b7fbb60e51b815290516000926001600160a01b03169163ed6ff760916004808301926020929190829003018186803b1580156200053257600080fd5b505afa15801562000547573d6000803e3d6000fd5b505050506040513d601f19601f820116820180604052506200056d919081019062000786565b905090565b62000591826001600160a01b03166200067a60201b620045d61760201c565b620005b05760405162461bcd60e51b8152600401620004809062000a3c565b60006060836001600160a01b031683604051620005ce9190620009b3565b6000604051808303816000865af19150503d80600081146200060d576040519150601f19603f3d011682016040523d82523d6000602084013e62000612565b606091505b509150915081620006375760405162461bcd60e51b8152600401620004809062000a06565b805115620006745780806020019051620006559190810190620007fb565b620006745760405162461bcd60e51b8152600401620004809062000a18565b50505050565b6000813f7fc5d2460186f7233c927e7db2dcc703c0e500b653ca82273b7bfad8045d85a4708115801590620006af5750808214155b949350505050565b828054600181600116156101000203166002900490600052602060002090601f016020900481019282601f10620006fa57805160ff19168380011785556200072a565b828001600101855582156200072a579182015b828111156200072a5782518255916020019190600101906200070d565b50620007389291506200073c565b5090565b6200030d91905b8082111562000738576000815560010162000743565b8051620007668162000aad565b92915050565b8051620007668162000ac7565b8051620007668162000ad2565b6000602082840312156200079957600080fd5b6000620006af848462000759565b600080600060608486031215620007bd57600080fd5b6000620007cb868662000759565b9350506020620007de8682870162000759565b9250506040620007f18682870162000759565b9150509250925092565b6000602082840312156200080e57600080fd5b6000620006af84846200076c565b6000602082840312156200082f57600080fd5b6000620006af848462000779565b620008488162000a60565b82525050565b60006200085b8262000a4e565b62000867818562000a52565b93506200087981856020860162000a7e565b9290920192915050565b60006200089260208362000a57565b7f5361666545524332303a206c6f772d6c6576656c2063616c6c206661696c6564815260200192915050565b6000620008cd602a8362000a57565b7f5361666545524332303a204552433230206f7065726174696f6e20646964206e8152691bdd081cdd58d8d9595960b21b602082015260400192915050565b60006200091b60368362000a57565b7f5361666545524332303a20617070726f76652066726f6d206e6f6e2d7a65726f81527f20746f206e6f6e2d7a65726f20616c6c6f77616e636500000000000000000000602082015260400192915050565b60006200097c601f8362000a57565b7f5361666545524332303a2063616c6c20746f206e6f6e2d636f6e747261637400815260200192915050565b62000848816200030d565b6000620009c182846200084e565b9392505050565b60408101620009d882856200083d565b620009c160208301846200083d565b60408101620009f782856200083d565b620009c16020830184620009a8565b60208082528101620007668162000883565b602080825281016200076681620008be565b6020808252810162000766816200090c565b6020808252810162000766816200096d565b5190565b919050565b90815260200190565b6000620007668262000a72565b151590565b6001600160a01b031690565b60005b8381101562000a9b57818101518382015260200162000a81565b83811115620006745750506000910152565b62000ab88162000a60565b811462000ac457600080fd5b50565b62000ab88162000a6d565b62000ab8816200030d565b615b4e8062000aed6000396000f3fe6080604052600436106104ec5760003560e01c80637f50d4d811610294578063cf8ca4261161015e578063f29e15a2116100d6578063f5ff19161161008a578063f7c1ec771161006f578063f7c1ec7714610c63578063f82ce27d14610c78578063fc0c546a14610c8d576104ec565b8063f5ff191614610c2e578063f69e204614610c4e576104ec565b8063f34ce4bb116100bb578063f34ce4bb14610be4578063f4b9fa7514610c04578063f5a41dea14610c19576104ec565b8063f29e15a214610baf578063f2fde38b14610bc4576104ec565b8063e849d6591161012d578063ebc5116011610112578063ebc5116014610b65578063f02fbd4a14610b7a578063f2978d9814610b9a576104ec565b8063e849d65914610b25578063eb56faf014610b45576104ec565b8063cf8ca42614610abb578063d9d7858a14610ad0578063dd62ed3e14610ae5578063e26f21bf14610b05576104ec565b80639ff011b91161020c578063a9a1015a116101c0578063b69ef8a8116101a5578063b69ef8a814610a66578063b6b55f2514610a7b578063bea9849e14610a9b576104ec565b8063a9a1015a14610a31578063b19ab07614610a51576104ec565b8063a457c2d7116101f1578063a457c2d7146109dc578063a7287971146109fc578063a9059cbb14610a11576104ec565b80639ff011b9146109a7578063a160176d146109c7576104ec565b80638da5cb5b116102635780638f32d59b116102485780638f32d59b1461096857806395d89b411461097d57806399b71d5c14610992576104ec565b80638da5cb5b1461093e5780638e4ec6ef14610953576104ec565b80637f50d4d8146108d25780638124955c146108f4578063819faf7b14610914578063858409ba14610929576104ec565b8063413e920d116103d55780636ff2bf081161034d578063735de9f71161030157806377c7b8fc116102e657806377c7b8fc146108885780637b82784c1461089d5780637d7c2a1c146108bd576104ec565b8063735de9f71461085e57806375b5be2d14610873576104ec565b80637137ef99116103325780637137ef991461081f578063715018a6146108345780637354b2e914610849576104ec565b80636ff2bf08146107ea57806370a08231146107ff576104ec565b806350f62da7116103a457806358782c211161038957806358782c21146107a057806361c1ec55146107b557806365aab749146107ca576104ec565b806350f62da71461076b57806357ded9c91461078b576104ec565b8063413e920d1461070157806346357473146107165780634fd96cb6146107365780634fe4112914610756576104ec565b8063202a2735116104685780632eb4520a11610437578063395093511161041c57806339509351146106b757806339c0a7e1146106d75780633fc8cef3146106ec576104ec565b80632eb4520a14610675578063313ce56714610695576104ec565b8063202a27351461060b57806323b872dd146106205780632622678c146106405780632e1a7d4d14610655576104ec565b8063095ea7b3116104bf57806310391d25116104a457806310391d25146105cc57806316f0115b146105e157806318160ddd146105f6576104ec565b8063095ea7b31461058a5780630eb2a267146105b7576104ec565b806306636c1c146104ee57806306a3fe591461052457806306fdde0314610546578063085d488314610568575b005b3480156104fa57600080fd5b5061050e610509366004614a49565b610ca2565b60405161051b9190615817565b60405180910390f35b34801561053057600080fd5b50610539610e59565b60405161051b919061553c565b34801561055257600080fd5b5061055b610e75565b60405161051b919061565b565b34801561057457600080fd5b5061057d610f2a565b60405161051b919061562d565b34801561059657600080fd5b506105aa6105a536600461491c565b610f4b565b60405161051b9190615611565b3480156105c357600080fd5b5061050e610f69565b3480156105d857600080fd5b5061050e611015565b3480156105ed57600080fd5b5061050e61101b565b34801561060257600080fd5b5061050e611021565b34801561061757600080fd5b5061050e611027565b34801561062c57600080fd5b506105aa61063b3660046148cf565b61102d565b34801561064c57600080fd5b506105396110d5565b34801561066157600080fd5b506104ec610670366004614a49565b6110f1565b34801561068157600080fd5b506104ec6106903660046147f8565b611845565b3480156106a157600080fd5b506106aa6118ca565b60405161051b91906158b4565b3480156106c357600080fd5b506105aa6106d236600461491c565b6118d3565b3480156106e357600080fd5b5061050e611934565b3480156106f857600080fd5b50610539611a01565b34801561070d57600080fd5b5061050e611a1d565b34801561072257600080fd5b506104ec6107313660046147f8565b611a24565b34801561074257600080fd5b506104ec6107513660046147f8565b611aa9565b34801561076257600080fd5b506104ec611b2e565b34801561077757600080fd5b5061050e6107863660046147f8565b611bbc565b34801561079757600080fd5b50610539611bce565b3480156107ac57600080fd5b50610539611bea565b3480156107c157600080fd5b5061050e611c06565b3480156107d657600080fd5b506104ec6107e5366004614a49565b611c5d565b3480156107f657600080fd5b5061050e611cf6565b34801561080b57600080fd5b5061050e61081a3660046147f8565b611d96565b34801561082b57600080fd5b5061050e611dc2565b34801561084057600080fd5b506104ec611df8565b34801561085557600080fd5b5061050e611ea5565b34801561086a57600080fd5b50610539611eab565b34801561087f57600080fd5b50610539611ec7565b34801561089457600080fd5b5061050e611ee3565b3480156108a957600080fd5b5061050e6108b83660046147f8565b611f16565b3480156108c957600080fd5b506104ec611f28565b3480156108de57600080fd5b506108e7612061565b60405161051b919061561f565b34801561090057600080fd5b506104ec61090f366004614a49565b61207d565b34801561092057600080fd5b5061053961215f565b34801561093557600080fd5b5061050e61217b565b34801561094a57600080fd5b50610539612181565b34801561095f57600080fd5b5061053961219d565b34801561097457600080fd5b506105aa6121b9565b34801561098957600080fd5b5061055b6121f9565b34801561099e57600080fd5b506104ec612278565b3480156109b357600080fd5b506104ec6109c2366004614a49565b6123bb565b3480156109d357600080fd5b5061057d6123fe565b3480156109e857600080fd5b506105aa6109f736600461491c565b612554565b348015610a0857600080fd5b5061050e6125cf565b348015610a1d57600080fd5b506105aa610a2c36600461491c565b61269e565b348015610a3d57600080fd5b506104ec610a4c36600461491c565b6126b2565b348015610a5d57600080fd5b5061053961279b565b348015610a7257600080fd5b5061050e6127b7565b348015610a8757600080fd5b506104ec610a96366004614a49565b61280e565b348015610aa757600080fd5b506104ec610ab63660046147f8565b612aef565b348015610ac757600080fd5b5061050e612b74565b348015610adc57600080fd5b5061050e612bcb565b348015610af157600080fd5b5061050e610b00366004614834565b612bd1565b348015610b1157600080fd5b506104ec610b20366004614a49565b612c09565b348015610b3157600080fd5b506104ec610b40366004614a49565b612c4c565b348015610b5157600080fd5b506104ec610b60366004614a85565b612d2b565b348015610b7157600080fd5b5061050e612d77565b348015610b8657600080fd5b506104ec610b95366004614a49565b612d7d565b348015610ba657600080fd5b5061050e612dc0565b348015610bbb57600080fd5b5061050e612dc6565b348015610bd057600080fd5b506104ec610bdf3660046147f8565b612dcc565b348015610bf057600080fd5b5061050e610bff36600461486e565b612e13565b348015610c1057600080fd5b50610539612fda565b348015610c2557600080fd5b5061050e612ff6565b348015610c3a57600080fd5b506104ec610c493660046147f8565b6130af565b348015610c5a57600080fd5b50610539613134565b348015610c6f57600080fd5b50610539613150565b348015610c8457600080fd5b506105396131f3565b348015610c9957600080fd5b5061053961325e565b60408051600180825281830190925260009160609190816020015b610cc561460d565b815260200190600190039081610cbd57905050905060405180604001604052803073ffffffffffffffffffffffffffffffffffffffff168152602001600081525081600081518110610d1357fe5b6020026020010181905250610d26614624565b6040805160808101909152600181526020810160008152602001600081526020018590529050610d5461464d565b600081819052506000602082015260408082018390526012546060808401919091523060a0840152815160018082528184019093529091816020015b610d9861464d565b815260200190600190039081610d905790505090508181600081518110610dbb57fe5b60209081029190910101526011546040517fa67a6a4500000000000000000000000000000000000000000000000000000000815273ffffffffffffffffffffffffffffffffffffffff9091169063a67a6a4590610e1e90879085906004016155ec565b600060405180830381600087803b158015610e3857600080fd5b505af1158015610e4c573d6000803e3d6000fd5b5050505050505050919050565b60105473ffffffffffffffffffffffffffffffffffffffff1681565b60038054604080516020601f60027fffffffffffffffffffffffffffffffffffffffffffffffffffffffffffffffff610100600188161502019095169490940493840181900481028201810190925282815260609390929091830182828015610f1f5780601f10610ef457610100808354040283529160200191610f1f565b820191906000526020600020905b815481529060010190602001808311610f0257829003601f168201915b505050505090505b90565b601f5474010000000000000000000000000000000000000000900460ff1681565b6000610f5f610f5861327a565b848461327e565b5060015b92915050565b600e546040517f70a0823100000000000000000000000000000000000000000000000000000000815260009173ffffffffffffffffffffffffffffffffffffffff16906370a0823190610fc090309060040161554a565b60206040518083038186803b158015610fd857600080fd5b505afa158015610fec573d6000803e3d6000fd5b505050506040513d601f19601f820116820180604052506110109190810190614a67565b905090565b60095481565b600b5481565b60025490565b601e5481565b600061103a84848461338d565b6110ca8461104661327a565b6110c585604051806060016040528060288152602001615abf6028913973ffffffffffffffffffffffffffffffffffffffff8a1660009081526001602052604081209061109161327a565b73ffffffffffffffffffffffffffffffffffffffff168152602081019190915260400160002054919063ffffffff61351816565b61327e565b5060015b9392505050565b601a5473ffffffffffffffffffffffffffffffffffffffff1681565b60068054600101908190556111053361355e565b15611145576040517f08c379a000000000000000000000000000000000000000000000000000000000815260040161113c9061571c565b60405180910390fd5b6000821161117f576040517f08c379a000000000000000000000000000000000000000000000000000000000815260040161113c9061573c565b600061118a33611d96565b9050808311156111c6576040517f08c379a000000000000000000000000000000000000000000000000000000000815260040161113c9061572c565b6111ce611dc2565b600b5560006111db611cf6565b905060006112066002546111fa87600b5461356490919063ffffffff16565b9063ffffffff6135b816565b604080518082018252601d81527f72656465656d20616d6f756e7420657863656564732062616c616e63650000006020808301919091523360009081529081905291909120549192506112619190879063ffffffff61351816565b33600090815260208190526040902055600254611284908663ffffffff6135fa16565b60025560405160009033907fddf252ad1be2c89b69c2b068fc378daa952ba7f163c4a11628f55a4df523b3ef906112bc908990615817565b60405180910390a3600c546040517f70a0823100000000000000000000000000000000000000000000000000000000815260009173ffffffffffffffffffffffffffffffffffffffff16906370a082319061131b90309060040161554a565b60206040518083038186803b15801561133357600080fd5b505afa158015611347573d6000803e3d6000fd5b505050506040513d601f19601f8201168201806040525061136b9190810190614a67565b90508181101561138d5761138d611388838363ffffffff6135fa16565b61363c565b60006113b8600a546113ac6009546008546137a690919063ffffffff16565b9063ffffffff6137a616565b905060006113d968056bc75e2d631000006111fa868563ffffffff61356416565b3360009081526014602090815260408083204390556015909152902054909150611409908563ffffffff6135fa16565b336000818152601560205260409081902092909255601b5491517fa9059cbb00000000000000000000000000000000000000000000000000000000815273ffffffffffffffffffffffffffffffffffffffff9092169163a9059cbb91611473918990600401615558565b602060405180830381600087803b15801561148d57600080fd5b505af11580156114a1573d6000803e3d6000fd5b505050506040513d601f19601f820116820180604052506114c59190810190614981565b5060006114d1826137e5565b601b546040517f70a0823100000000000000000000000000000000000000000000000000000000815291925060009173ffffffffffffffffffffffffffffffffffffffff909116906370a082319061152d90849060040161554a565b60206040518083038186803b15801561154557600080fd5b505afa158015611559573d6000803e3d6000fd5b505050506040513d601f19601f8201168201806040525061157d9190810190614a67565b905060006115c068056bc75e2d631000006111fa6115b3886111fa60095468056bc75e2d6310000061356490919063ffffffff16565b869063ffffffff61356416565b9050601c548210156116aa57600061160d68056bc75e2d631000006111fa611600896111fa600a5468056bc75e2d6310000061356490919063ffffffff16565b879063ffffffff61356416565b9050611618816139c1565b50600061165a68056bc75e2d631000006111fa61164d8a6111fa60085468056bc75e2d6310000061356490919063ffffffff16565b889063ffffffff61356416565b601a5460405191925073ffffffffffffffffffffffffffffffffffffffff169082156108fc029083906000818181858888f193505050501580156116a2573d6000803e3d6000fd5b505050611707565b60006116bc848363ffffffff6135fa16565b601a5460405191925073ffffffffffffffffffffffffffffffffffffffff169082156108fc029083906000818181858888f19350505050158015611704573d6000803e3d6000fd5b50505b601f5460405160009173ffffffffffffffffffffffffffffffffffffffff1690839061173290615531565b60006040518083038185875af1925050503d806000811461176f576040519150601f19603f3d011682016040523d82523d6000602084013e611774565b606091505b50509050806117af576040517f08c379a000000000000000000000000000000000000000000000000000000000815260040161113c906156cc565b6117e9336117c38a8863ffffffff6135fa16565b600c5473ffffffffffffffffffffffffffffffffffffffff16919063ffffffff613b1f16565b6117f1611dc2565b600b556117fc611f28565b505050505050505050506006548114611841576040517f08c379a000000000000000000000000000000000000000000000000000000000815260040161113c906157bc565b5050565b61184d6121b9565b611883576040517f08c379a000000000000000000000000000000000000000000000000000000000815260040161113c9061570c565b601a80547fffffffffffffffffffffffff00000000000000000000000000000000000000001673ffffffffffffffffffffffffffffffffffffffff92909216919091179055565b60055460ff1690565b6000610f5f6118e061327a565b846110c585600160006118f161327a565b73ffffffffffffffffffffffffffffffffffffffff908116825260208083019390935260409182016000908120918c16815292529020549063ffffffff6137a616565b600061193e61460d565b6011546040805180820182523081526000602082015260125491517fc190c2ec00000000000000000000000000000000000000000000000000000000815273ffffffffffffffffffffffffffffffffffffffff9093169263c190c2ec926119a892916004016157fc565b604080518083038186803b1580156119bf57600080fd5b505afa1580156119d3573d6000803e3d6000fd5b505050506040513d601f19601f820116820180604052506119f79190810190614a2b565b6020015191505090565b60185473ffffffffffffffffffffffffffffffffffffffff1681565b620f424081565b611a2c6121b9565b611a62576040517f08c379a000000000000000000000000000000000000000000000000000000000815260040161113c9061570c565b601380547fffffffffffffffffffffffff00000000000000000000000000000000000000001673ffffffffffffffffffffffffffffffffffffffff92909216919091179055565b611ab16121b9565b611ae7576040517f08c379a000000000000000000000000000000000000000000000000000000000815260040161113c9061570c565b601b80547fffffffffffffffffffffffff00000000000000000000000000000000000000001673ffffffffffffffffffffffffffffffffffffffff92909216919091179055565b611b366121b9565b611b6c576040517f08c379a000000000000000000000000000000000000000000000000000000000815260040161113c9061570c565b611b74612181565b73ffffffffffffffffffffffffffffffffffffffff166108fc479081150290604051600060405180830381858888f19350505050158015611bb9573d6000803e3d6000fd5b50565b60156020526000908152604090205481565b60135473ffffffffffffffffffffffffffffffffffffffff1681565b600e5473ffffffffffffffffffffffffffffffffffffffff1681565b600d546040517f70a0823100000000000000000000000000000000000000000000000000000000815260009173ffffffffffffffffffffffffffffffffffffffff16906370a0823190610fc090309060040161554a565b611c65613150565b600c546040517fd2d0e06600000000000000000000000000000000000000000000000000000000815273ffffffffffffffffffffffffffffffffffffffff9283169263d2d0e06692611cc19291169085906000906004016155c4565b600060405180830381600087803b158015611cdb57600080fd5b505af1158015611cef573d6000803e3d6000fd5b5050505050565b33600090815260146020526040812054819015611d355733600090815260146020526040902054611d2e90439063ffffffff6135fa16565b9050611d3f565b6000915050610f27565b601d54336000908152601560205260408120549091611d8f91611964916111fa918691611d8391670de0b6b3a76400009185918490620f424063ffffffff6135b816565b9063ffffffff61356416565b9250505090565b73ffffffffffffffffffffffffffffffffffffffff81166000908152602081905260409020545b919050565b6000611010611dcf6127b7565b6113ac611dda612b74565b6113ac611de5611934565b6113ac611df0612ff6565b6113ac6125cf565b611e006121b9565b611e36576040517f08c379a000000000000000000000000000000000000000000000000000000000815260040161113c9061570c565b60075460405160009173ffffffffffffffffffffffffffffffffffffffff16907f8be0079c531659141344cd1fd0a4f28419497f9722a3daafe3b4186f6b6457e0908390a3600780547fffffffffffffffffffffffff0000000000000000000000000000000000000000169055565b60085481565b60165473ffffffffffffffffffffffffffffffffffffffff1681565b60175473ffffffffffffffffffffffffffffffffffffffff1681565b600080611eee611dc2565b600254909150611f10906111fa83670de0b6b3a764000063ffffffff61356416565b91505090565b60146020526000908152604090205481565b6000611f326123fe565b601f5490915074010000000000000000000000000000000000000000900460ff166004811115611f5e57fe5b816004811115611f6a57fe5b14611f7757611f77613bdc565b6000611f816127b7565b111561200e576001816004811115611f9557fe5b1415611fac57611fa66105096127b7565b5061200e565b6004816004811115611fba57fe5b1415611fd057611fcb61090f6127b7565b61200e565b6002816004811115611fde57fe5b1415611fef57611fcb610b406127b7565b6003816004811115611ffd57fe5b141561200e5761200e6107e56127b7565b601f80548291907fffffffffffffffffffffff00ffffffffffffffffffffffffffffffffffffffff167401000000000000000000000000000000000000000083600481111561205957fe5b021790555050565b601b5473ffffffffffffffffffffffffffffffffffffffff1681565b600e546040517f40c10f1900000000000000000000000000000000000000000000000000000000815260009173ffffffffffffffffffffffffffffffffffffffff16906340c10f19906120d69030908690600401615558565b602060405180830381600087803b1580156120f057600080fd5b505af1158015612104573d6000803e3d6000fd5b505050506040513d601f19601f820116820180604052506121289190810190614a67565b11611bb9576040517f08c379a000000000000000000000000000000000000000000000000000000000815260040161113c9061579c565b600f5473ffffffffffffffffffffffffffffffffffffffff1681565b600a5481565b60075473ffffffffffffffffffffffffffffffffffffffff1690565b60115473ffffffffffffffffffffffffffffffffffffffff1681565b60075460009073ffffffffffffffffffffffffffffffffffffffff166121dd61327a565b73ffffffffffffffffffffffffffffffffffffffff1614905090565b60048054604080516020601f60027fffffffffffffffffffffffffffffffffffffffffffffffffffffffffffffffff610100600188161502019095169490940493840181900481028201810190925282815260609390929091830182828015610f1f5780601f10610ef457610100808354040283529160200191610f1f565b600d54600c546122c89173ffffffffffffffffffffffffffffffffffffffff91821691167fffffffffffffffffffffffffffffffffffffffffffffffffffffffffffffffff63ffffffff613c4216565b601154600c546123189173ffffffffffffffffffffffffffffffffffffffff91821691167fffffffffffffffffffffffffffffffffffffffffffffffffffffffffffffffff63ffffffff613c4216565b6123696123236131f3565b600c5473ffffffffffffffffffffffffffffffffffffffff16907fffffffffffffffffffffffffffffffffffffffffffffffffffffffffffffffff63ffffffff613c4216565b600e54600c546123b99173ffffffffffffffffffffffffffffffffffffffff91821691167fffffffffffffffffffffffffffffffffffffffffffffffffffffffffffffffff63ffffffff613c4216565b565b6123c36121b9565b6123f9576040517f08c379a000000000000000000000000000000000000000000000000000000000815260040161113c9061570c565b601255565b601354600c546040517fd88be3c0000000000000000000000000000000000000000000000000000000008152600092839283928392839273ffffffffffffffffffffffffffffffffffffffff9182169263d88be3c09261246292169060040161553c565b60006040518083038186803b15801561247a57600080fd5b505afa15801561248e573d6000803e3d6000fd5b505050506040513d6000823e601f3d9081017fffffffffffffffffffffffffffffffffffffffffffffffffffffffffffffffe01682016040526124d4919081019061499f565b929750909550935091506000905084156124eb5750835b808411156124f65750825b808311156125015750815b8082111561250c5750805b60008186141561251e5750600261254a565b8482141561252e5750600461254a565b8382141561253e5750600361254a565b8282141561254a575060015b9550505050505090565b6000610f5f61256161327a565b846110c585604051806060016040528060258152602001615ae7602591396001600061258b61327a565b73ffffffffffffffffffffffffffffffffffffffff908116825260208083019390935260409182016000908120918d1681529252902054919063ffffffff61351816565b6000806125da611c06565b9050801561101057610f63670de0b6b3a76400006111fa600d60009054906101000a900473ffffffffffffffffffffffffffffffffffffffff1673ffffffffffffffffffffffffffffffffffffffff1663182df0f56040518163ffffffff1660e01b815260040160206040518083038186803b15801561265957600080fd5b505afa15801561266d573d6000803e3d6000fd5b505050506040513d601f19601f820116820180604052506126919190810190614a67565b849063ffffffff61356416565b6000610f5f6126ab61327a565b848461338d565b6126ba6121b9565b6126f0576040517f08c379a000000000000000000000000000000000000000000000000000000000815260040161113c9061570c565b6040517fa9059cbb00000000000000000000000000000000000000000000000000000000815273ffffffffffffffffffffffffffffffffffffffff83169063a9059cbb906127449033908590600401615558565b602060405180830381600087803b15801561275e57600080fd5b505af1158015612772573d6000803e3d6000fd5b505050506040513d601f19601f820116820180604052506127969190810190614981565b505050565b601f5473ffffffffffffffffffffffffffffffffffffffff1681565b600c546040517f70a0823100000000000000000000000000000000000000000000000000000000815260009173ffffffffffffffffffffffffffffffffffffffff16906370a0823190610fc090309060040161554a565b60068054600101908190556128223361355e565b15612859576040517f08c379a000000000000000000000000000000000000000000000000000000000815260040161113c9061571c565b60008211612893576040517f08c379a000000000000000000000000000000000000000000000000000000000815260040161113c9061578c565b601b546040517f70a0823100000000000000000000000000000000000000000000000000000000815260009173ffffffffffffffffffffffffffffffffffffffff16906370a08231906128ea90339060040161554a565b60206040518083038186803b15801561290257600080fd5b505afa158015612916573d6000803e3d6000fd5b505050506040513d601f19601f8201168201806040525061293a9190810190614a67565b601b546018546019546016549394506000936129759373ffffffffffffffffffffffffffffffffffffffff9081169381169281169116612e13565b9050600061299b68056bc75e2d631000006111fa601e548861356490919063ffffffff16565b905060006129af828463ffffffff6135b816565b9050808410156129eb576040517f08c379a000000000000000000000000000000000000000000000000000000000815260040161113c9061574c565b6129f3611dc2565b600b55600c54612a219073ffffffffffffffffffffffffffffffffffffffff1633308963ffffffff613d6116565b3360009081526014602090815260408083204390556015909152902054612a4e908763ffffffff6137a616565b33600090815260156020526040812091909155600b54612a745750600b86905585612a92565b612a8f600b546111fa6002548a61356490919063ffffffff16565b90505b612a9a611dc2565b600b55612aa73382613da4565b612aaf611f28565b50505050506006548114611841576040517f08c379a000000000000000000000000000000000000000000000000000000000815260040161113c906157bc565b612af76121b9565b612b2d576040517f08c379a000000000000000000000000000000000000000000000000000000000815260040161113c9061570c565b601680547fffffffffffffffffffffffff00000000000000000000000000000000000000001673ffffffffffffffffffffffffffffffffffffffff92909216919091179055565b6010546040517f70a0823100000000000000000000000000000000000000000000000000000000815260009173ffffffffffffffffffffffffffffffffffffffff16906370a0823190610fc090309060040161554a565b60125481565b73ffffffffffffffffffffffffffffffffffffffff918216600090815260016020908152604080832093909416825291909152205490565b612c116121b9565b612c47576040517f08c379a000000000000000000000000000000000000000000000000000000000815260040161113c9061570c565b601e55565b600d546040517fa0712d6800000000000000000000000000000000000000000000000000000000815273ffffffffffffffffffffffffffffffffffffffff9091169063a0712d6890612ca2908490600401615817565b602060405180830381600087803b158015612cbc57600080fd5b505af1158015612cd0573d6000803e3d6000fd5b505050506040513d601f19601f82011682018060405250612cf49190810190614a67565b15611bb9576040517f08c379a000000000000000000000000000000000000000000000000000000000815260040161113c906156ac565b612d336121b9565b612d69576040517f08c379a000000000000000000000000000000000000000000000000000000000815260040161113c9061570c565b600892909255600955600a55565b601d5481565b612d856121b9565b612dbb576040517f08c379a000000000000000000000000000000000000000000000000000000000815260040161113c9061570c565b601d55565b61196481565b601c5481565b612dd46121b9565b612e0a576040517f08c379a000000000000000000000000000000000000000000000000000000000815260040161113c9061570c565b611bb981613ea5565b60408051600380825260808201909252600091606091906020820183803883390190505090508581600081518110612e4757fe5b602002602001019073ffffffffffffffffffffffffffffffffffffffff16908173ffffffffffffffffffffffffffffffffffffffff16815250508481600181518110612e8f57fe5b602002602001019073ffffffffffffffffffffffffffffffffffffffff16908173ffffffffffffffffffffffffffffffffffffffff16815250508381600281518110612ed757fe5b73ffffffffffffffffffffffffffffffffffffffff92831660209182029290920101526040517fd06ca61f00000000000000000000000000000000000000000000000000000000815260609185169063d06ca61f90612f4490670de0b6b3a764000090869060040161563b565b60006040518083038186803b158015612f5c57600080fd5b505afa158015612f70573d6000803e3d6000fd5b505050506040513d6000823e601f3d9081017fffffffffffffffffffffffffffffffffffffffffffffffffffffffffffffffe0168201604052612fb6919081019061494c565b905080600281518110612fc557fe5b6020026020010151925050505b949350505050565b60195473ffffffffffffffffffffffffffffffffffffffff1681565b600080613001610f69565b9050801561101057600e546040517f06b3efd600000000000000000000000000000000000000000000000000000000815273ffffffffffffffffffffffffffffffffffffffff909116906306b3efd69061305f90309060040161554a565b60206040518083038186803b15801561307757600080fd5b505afa15801561308b573d6000803e3d6000fd5b505050506040513d601f19601f82011682018060405250610f639190810190614a67565b6130b76121b9565b6130ed576040517f08c379a000000000000000000000000000000000000000000000000000000000815260040161113c9061570c565b600d80547fffffffffffffffffffffffff00000000000000000000000000000000000000001673ffffffffffffffffffffffffffffffffffffffff92909216919091179055565b600d5473ffffffffffffffffffffffffffffffffffffffff1681565b600f54604080517f0261bf8b000000000000000000000000000000000000000000000000000000008152905160009273ffffffffffffffffffffffffffffffffffffffff1691630261bf8b916004808301926020929190829003018186803b1580156131bb57600080fd5b505afa1580156131cf573d6000803e3d6000fd5b505050506040513d601f19601f820116820180604052506110109190810190614816565b600f54604080517fed6ff760000000000000000000000000000000000000000000000000000000008152905160009273ffffffffffffffffffffffffffffffffffffffff169163ed6ff760916004808301926020929190829003018186803b1580156131bb57600080fd5b600c5473ffffffffffffffffffffffffffffffffffffffff1681565b3390565b73ffffffffffffffffffffffffffffffffffffffff83166132cb576040517f08c379a000000000000000000000000000000000000000000000000000000000815260040161113c9061577c565b73ffffffffffffffffffffffffffffffffffffffff8216613318576040517f08c379a000000000000000000000000000000000000000000000000000000000815260040161113c9061569c565b73ffffffffffffffffffffffffffffffffffffffff80841660008181526001602090815260408083209487168084529490915290819020849055517f8c5be1e5ebec7d5bd14f71427d1e84f3dd0314c0f7b2291e5b200ac8c7c3b92590613380908590615817565b60405180910390a3505050565b73ffffffffffffffffffffffffffffffffffffffff83166133da576040517f08c379a000000000000000000000000000000000000000000000000000000000815260040161113c9061575c565b73ffffffffffffffffffffffffffffffffffffffff8216613427576040517f08c379a000000000000000000000000000000000000000000000000000000000815260040161113c9061566c565b61347781604051806060016040528060268152602001615a996026913973ffffffffffffffffffffffffffffffffffffffff8616600090815260208190526040902054919063ffffffff61351816565b73ffffffffffffffffffffffffffffffffffffffff80851660009081526020819052604080822093909355908416815220546134b9908263ffffffff6137a616565b73ffffffffffffffffffffffffffffffffffffffff80841660008181526020819052604090819020939093559151908516907fddf252ad1be2c89b69c2b068fc378daa952ba7f163c4a11628f55a4df523b3ef90613380908590615817565b60008184841115613556576040517f08c379a000000000000000000000000000000000000000000000000000000000815260040161113c919061565b565b505050900390565b3b151590565b60008261357357506000610f63565b8282028284828161358057fe5b04146110ce576040517f08c379a000000000000000000000000000000000000000000000000000000000815260040161113c906156ec565b60006110ce83836040518060400160405280601a81526020017f536166654d6174683a206469766973696f6e206279207a65726f000000000000815250613f80565b60006110ce83836040518060400160405280601e81526020017f536166654d6174683a207375627472616374696f6e206f766572666c6f770000815250613518565b6002601f5474010000000000000000000000000000000000000000900460ff16600481111561366757fe5b14156136765761367681613fd1565b6003601f5474010000000000000000000000000000000000000000900460ff1660048111156136a157fe5b14156136f157806136b0612b74565b10156136e8576040517f08c379a000000000000000000000000000000000000000000000000000000000815260040161113c9061576c565b6136f181614049565b6001601f5474010000000000000000000000000000000000000000900460ff16600481111561371c57fe5b141561376c578061372b611934565b1015613763576040517f08c379a000000000000000000000000000000000000000000000000000000000815260040161113c9061576c565b61376c8161409f565b6004601f5474010000000000000000000000000000000000000000900460ff16600481111561379757fe5b1415611bb957611bb981614250565b6000828201838110156110ce576040517f08c379a000000000000000000000000000000000000000000000000000000000815260040161113c906156bc565b6016546017546000916138189173ffffffffffffffffffffffffffffffffffffffff90811691168363ffffffff613c4216565b6016546017546138489173ffffffffffffffffffffffffffffffffffffffff91821691168463ffffffff613c4216565b60408051600280825260608083018452926020830190803883395050601754825192935073ffffffffffffffffffffffffffffffffffffffff169183915060009061388f57fe5b73ffffffffffffffffffffffffffffffffffffffff92831660209182029290920101526018548251911690829060019081106138c757fe5b73ffffffffffffffffffffffffffffffffffffffff9283166020918202929092010152601654606091166318cbafe5856000853061390d4261070863ffffffff6137a616565b6040518663ffffffff1660e01b815260040161392d959493929190615861565b600060405180830381600087803b15801561394757600080fd5b505af115801561395b573d6000803e3d6000fd5b505050506040513d6000823e601f3d9081017fffffffffffffffffffffffffffffffffffffffffffffffffffffffffffffffe01682016040526139a1919081019061494c565b9050806001815181106139b057fe5b602002602001015192505050919050565b60408051600280825260608083018452600093909291906020830190803883395050601854825192935073ffffffffffffffffffffffffffffffffffffffff1691839150600090613a0e57fe5b73ffffffffffffffffffffffffffffffffffffffff9283166020918202929092010152601b54825191169082906001908110613a4657fe5b73ffffffffffffffffffffffffffffffffffffffff928316602091820292909201015260165460609116637ff36ab58560008581613a8c4261070863ffffffff6137a616565b6040518663ffffffff1660e01b8152600401613aab9493929190615825565b6000604051808303818588803b158015613ac457600080fd5b505af1158015613ad8573d6000803e3d6000fd5b50505050506040513d6000823e601f3d9081017fffffffffffffffffffffffffffffffffffffffffffffffffffffffffffffffe01682016040526139a1919081019061494c565b6040516127969084907fa9059cbb0000000000000000000000000000000000000000000000000000000090613b5a90869086906024016155b6565b604080517fffffffffffffffffffffffffffffffffffffffffffffffffffffffffffffffe08184030181529190526020810180517bffffffffffffffffffffffffffffffffffffffffffffffffffffffff167fffffffff00000000000000000000000000000000000000000000000000000000909316929092179091526142c8565b6000613be6611c06565b90508015613bf757613bf781614415565b613bff611934565b90508015613c1057613c108161409f565b613c18610f69565b90508015613c2957613c29816144f4565b613c31612b74565b90508015611bb957611bb981614049565b801580613cf057506040517fdd62ed3e00000000000000000000000000000000000000000000000000000000815273ffffffffffffffffffffffffffffffffffffffff84169063dd62ed3e90613c9e9030908690600401615573565b60206040518083038186803b158015613cb657600080fd5b505afa158015613cca573d6000803e3d6000fd5b505050506040513d601f19601f82011682018060405250613cee9190810190614a67565b155b613d26576040517f08c379a000000000000000000000000000000000000000000000000000000000815260040161113c906157cc565b6040516127969084907f095ea7b30000000000000000000000000000000000000000000000000000000090613b5a90869086906024016155b6565b604051613d9e9085907f23b872dd0000000000000000000000000000000000000000000000000000000090613b5a9087908790879060240161558e565b50505050565b73ffffffffffffffffffffffffffffffffffffffff8216613df1576040517f08c379a000000000000000000000000000000000000000000000000000000000815260040161113c906157ec565b600254613e04908263ffffffff6137a616565b60025573ffffffffffffffffffffffffffffffffffffffff8216600090815260208190526040902054613e3d908263ffffffff6137a616565b73ffffffffffffffffffffffffffffffffffffffff83166000818152602081905260408082209390935591519091907fddf252ad1be2c89b69c2b068fc378daa952ba7f163c4a11628f55a4df523b3ef90613e99908590615817565b60405180910390a35050565b73ffffffffffffffffffffffffffffffffffffffff8116613ef2576040517f08c379a000000000000000000000000000000000000000000000000000000000815260040161113c9061568c565b60075460405173ffffffffffffffffffffffffffffffffffffffff8084169216907f8be0079c531659141344cd1fd0a4f28419497f9722a3daafe3b4186f6b6457e090600090a3600780547fffffffffffffffffffffffff00000000000000000000000000000000000000001673ffffffffffffffffffffffffffffffffffffffff92909216919091179055565b60008183613fbb576040517f08c379a000000000000000000000000000000000000000000000000000000000815260040161113c919061565b565b506000838581613fc757fe5b0495945050505050565b6000613fdb611c06565b90506000613fe76125cf565b905082811015614023576040517f08c379a000000000000000000000000000000000000000000000000000000000815260040161113c9061576c565b600061403e60016113ac846111fa878963ffffffff61356416565b9050613d9e81614415565b6010546040517fdb006a7500000000000000000000000000000000000000000000000000000000815273ffffffffffffffffffffffffffffffffffffffff9091169063db006a7590611cc1908490600401615817565b604080516001808252818301909252606091816020015b6140be61460d565b8152602001906001900390816140b657905050905060405180604001604052803073ffffffffffffffffffffffffffffffffffffffff16815260200160008152508160008151811061410c57fe5b602002602001018190525061411f614624565b604080516080810190915260008082526020820190815260200160008152602001849052905061414d61464d565b600181819052506000602082015260408082018390526012546060808401919091523060a0840152815160018082528184019093529091816020015b61419161464d565b81526020019060019003908161418957905050905081816000815181106141b457fe5b60209081029190910101526011546040517fa67a6a4500000000000000000000000000000000000000000000000000000000815273ffffffffffffffffffffffffffffffffffffffff9091169063a67a6a459061421790879085906004016155ec565b600060405180830381600087803b15801561423157600080fd5b505af1158015614245573d6000803e3d6000fd5b505050505050505050565b600061425a610f69565b90506000614266612ff6565b9050828110156142a2576040517f08c379a000000000000000000000000000000000000000000000000000000000815260040161113c9061576c565b60006142bd60016113ac846111fa878963ffffffff61356416565b9050613d9e816144f4565b6142e78273ffffffffffffffffffffffffffffffffffffffff166145d6565b61431d576040517f08c379a000000000000000000000000000000000000000000000000000000000815260040161113c906157dc565b600060608373ffffffffffffffffffffffffffffffffffffffff16836040516143469190615525565b6000604051808303816000865af19150503d8060008114614383576040519150601f19603f3d011682016040523d82523d6000602084013e614388565b606091505b5091509150816143c4576040517f08c379a000000000000000000000000000000000000000000000000000000000815260040161113c906156dc565b805115613d9e57808060200190516143df9190810190614981565b613d9e576040517f08c379a000000000000000000000000000000000000000000000000000000000815260040161113c906157ac565b600d546040517fdb006a7500000000000000000000000000000000000000000000000000000000815273ffffffffffffffffffffffffffffffffffffffff9091169063db006a759061446b908490600401615817565b602060405180830381600087803b15801561448557600080fd5b505af1158015614499573d6000803e3d6000fd5b505050506040513d601f19601f820116820180604052506144bd9190810190614a67565b15611bb9576040517f08c379a000000000000000000000000000000000000000000000000000000000815260040161113c9061567c565b600e546040517f9dc29fac00000000000000000000000000000000000000000000000000000000815260009173ffffffffffffffffffffffffffffffffffffffff1690639dc29fac9061454d9030908690600401615558565b602060405180830381600087803b15801561456757600080fd5b505af115801561457b573d6000803e3d6000fd5b505050506040513d601f19601f8201168201806040525061459f9190810190614a67565b11611bb9576040517f08c379a000000000000000000000000000000000000000000000000000000000815260040161113c906156fc565b6000813f7fc5d2460186f7233c927e7db2dcc703c0e500b653ca82273b7bfad8045d85a4708115801590612fd25750141592915050565b604080518082019091526000808252602082015290565b604080516080810190915260008082526020820190815260200160008152602001600081525090565b60408051610100810182526000808252602082015290810161466d614624565b81526020016000815260200160008152602001600073ffffffffffffffffffffffffffffffffffffffff16815260200160008152602001606081525090565b8035610f6381615a72565b8051610f6381615a72565b600082601f8301126146d357600080fd5b81516146e66146e1826158e9565b6158c2565b9150818183526020840193506020810190508385602084028201111561470b57600080fd5b60005b83811015614737578161472188826147ed565b845250602092830192919091019060010161470e565b5050505092915050565b8051610f6381615a86565b600082601f83011261475d57600080fd5b815161476b6146e18261590a565b9150808252602083016020830185838301111561478757600080fd5b614792838284615a00565b50505092915050565b6000604082840312156147ad57600080fd5b6147b760406158c2565b905060006147c58484614741565b82525060206147d6848483016147ed565b60208301525092915050565b8035610f6381615a8f565b8051610f6381615a8f565b60006020828403121561480a57600080fd5b6000612fd284846146ac565b60006020828403121561482857600080fd5b6000612fd284846146b7565b6000806040838503121561484757600080fd5b600061485385856146ac565b9250506020614864858286016146ac565b9150509250929050565b6000806000806080858703121561488457600080fd5b600061489087876146ac565b94505060206148a1878288016146ac565b93505060406148b2878288016146ac565b92505060606148c3878288016146ac565b91505092959194509250565b6000806000606084860312156148e457600080fd5b60006148f086866146ac565b9350506020614901868287016146ac565b9250506040614912868287016147e2565b9150509250925092565b6000806040838503121561492f57600080fd5b600061493b85856146ac565b9250506020614864858286016147e2565b60006020828403121561495e57600080fd5b815167ffffffffffffffff81111561497557600080fd5b612fd2848285016146c2565b60006020828403121561499357600080fd5b6000612fd28484614741565b600080600080600060a086880312156149b757600080fd5b855167ffffffffffffffff8111156149ce57600080fd5b6149da8882890161474c565b95505060206149eb888289016147ed565b94505060406149fc888289016147ed565b9350506060614a0d888289016147ed565b9250506080614a1e888289016147ed565b9150509295509295909350565b600060408284031215614a3d57600080fd5b6000612fd2848461479b565b600060208284031215614a5b57600080fd5b6000612fd284846147e2565b600060208284031215614a7957600080fd5b6000612fd284846147ed565b600080600060608486031215614a9a57600080fd5b6000614aa686866147e2565b9350506020614901868287016147e2565b6000614ac38383614afa565b505060200190565b60006110ce83836153fe565b6000614ae383836154f3565b505060400190565b614af4816159b7565b82525050565b614af481615963565b6000614b0e82615956565b614b18818561595a565b9350614b2383615950565b8060005b83811015614b51578151614b3b8882614ab7565b9750614b4683615950565b925050600101614b27565b509495945050505050565b6000614b6782615956565b614b71818561595a565b935083602082028501614b8385615950565b8060005b85811015614bbd5784840389528151614ba08582614acb565b9450614bab83615950565b60209a909a0199925050600101614b87565b5091979650505050505050565b6000614bd582615956565b614bdf818561595a565b9350614bea83615950565b8060005b83811015614b51578151614c028882614ad7565b9750614c0d83615950565b925050600101614bee565b614af48161596e565b6000614c2c82615956565b614c368185611dbd565b9350614c46818560208601615a00565b9290920192915050565b6000614c5b82615956565b614c65818561595a565b9350614c75818560208601615a00565b614c7e81615a2c565b9093019392505050565b614af4816159be565b614af4816159c9565b614af4816159d4565b614af4816159df565b614af4816159ea565b614af4816159f5565b6000614ccb60238361595a565b7f45524332303a207472616e7366657220746f20746865207a65726f206164647281527f6573730000000000000000000000000000000000000000000000000000000000602082015260400192915050565b6000614d2a60198361595a565b7f434f4d504f554e443a207769746864726177206661696c656400000000000000815260200192915050565b6000614d6360268361595a565b7f4f776e61626c653a206e6577206f776e657220697320746865207a65726f206181527f6464726573730000000000000000000000000000000000000000000000000000602082015260400192915050565b6000614dc260228361595a565b7f45524332303a20617070726f766520746f20746865207a65726f20616464726581527f7373000000000000000000000000000000000000000000000000000000000000602082015260400192915050565b6000614e2160178361595a565b7f434f4d504f554e443a20737570706c79206661696c6564000000000000000000815260200192915050565b6000614e5a601b8361595a565b7f536166654d6174683a206164646974696f6e206f766572666c6f770000000000815260200192915050565b6000614e93601c8361595a565b7f446576207472656173757279207472616e73666572206661696c656400000000815260200192915050565b6000614ecc60208361595a565b7f5361666545524332303a206c6f772d6c6576656c2063616c6c206661696c6564815260200192915050565b6000614f0560218361595a565b7f536166654d6174683a206d756c7469706c69636174696f6e206f766572666c6f81527f7700000000000000000000000000000000000000000000000000000000000000602082015260400192915050565b6000614f6460188361595a565b7f46554c4352554d3a207769746864726177206661696c65640000000000000000815260200192915050565b6000614f9d60208361595a565b7f4f776e61626c653a2063616c6c6572206973206e6f7420746865206f776e6572815260200192915050565b6000614fd660338361595a565b7f436f6e74726163747320617265206e6f7420616c6c6f77656420746f20696e7481527f6572616374207769746820746865206661726d00000000000000000000000000602082015260400192915050565b600061503560148361595a565b7f696e73756666696369656e742062616c616e6365000000000000000000000000815260200192915050565b600061506e601f8361595a565b7f7769746864726177206d7573742062652067726561746572207468616e203000815260200192915050565b60006150a760458361595a565b7f596f75206d75737420686f6c642061203525206f6620796f7572206465706f7381527f697420696e2059454c4420746f6b656e7320746f2062652061626c6520746f2060208201527f7374616b65000000000000000000000000000000000000000000000000000000604082015260600192915050565b600061512c60258361595a565b7f45524332303a207472616e736665722066726f6d20746865207a65726f20616481527f6472657373000000000000000000000000000000000000000000000000000000602082015260400192915050565b6000610f63600083611dbd565b600061519860128361595a565b7f696e73756666696369656e742066756e64730000000000000000000000000000815260200192915050565b60006151d160248361595a565b7f45524332303a20617070726f76652066726f6d20746865207a65726f2061646481527f7265737300000000000000000000000000000000000000000000000000000000602082015260400192915050565b6000615230601e8361595a565b7f6465706f736974206d7573742062652067726561746572207468616e20300000815260200192915050565b600061526960168361595a565b7f46554c4352554d3a20737570706c79206661696c656400000000000000000000815260200192915050565b60006152a2602a8361595a565b7f5361666545524332303a204552433230206f7065726174696f6e20646964206e81527f6f74207375636365656400000000000000000000000000000000000000000000602082015260400192915050565b6000615301601f8361595a565b7f5265656e7472616e637947756172643a207265656e7472616e742063616c6c00815260200192915050565b600061533a60368361595a565b7f5361666545524332303a20617070726f76652066726f6d206e6f6e2d7a65726f81527f20746f206e6f6e2d7a65726f20616c6c6f77616e636500000000000000000000602082015260400192915050565b6000615399601f8361595a565b7f5361666545524332303a2063616c6c20746f206e6f6e2d636f6e747261637400815260200192915050565b60006153d2601f8361595a565b7f45524332303a206d696e7420746f20746865207a65726f206164647265737300815260200192915050565b80516000906101608401906154138582614c91565b5060208301516154266020860182615513565b50604083015161543960408601826154a9565b50606083015161544c60c0860182615513565b50608083015161545f60e0860182615513565b5060a0830151615473610100860182614afa565b5060c0830151615487610120860182615513565b5060e08301518482036101408601526154a08282614c50565b95945050505050565b805160808301906154ba8482614c18565b5060208201516154cd6020850182614c9a565b5060408201516154e06040850182614c9a565b506060820151613d9e6060850182615513565b805160408301906155048482614afa565b506020820151613d9e60208501825b614af481610f27565b614af4816159b1565b60006110ce8284614c21565b6000610f638261517e565b60208101610f638284614afa565b60208101610f638284614aeb565b604081016155668285614aeb565b6110ce6020830184615513565b604081016155818285614afa565b6110ce6020830184614afa565b6060810161559c8286614afa565b6155a96020830185614afa565b612fd26040830184615513565b604081016155668285614afa565b606081016155d28286614afa565b6155df6020830185615513565b612fd26040830184614cac565b604080825281016155fd8185614bca565b90508181036020830152612fd28184614b5c565b60208101610f638284614c18565b60208101610f638284614c88565b60208101610f638284614ca3565b604081016156498285614cb5565b8181036020830152612fd28184614b03565b602080825281016110ce8184614c50565b60208082528101610f6381614cbe565b60208082528101610f6381614d1d565b60208082528101610f6381614d56565b60208082528101610f6381614db5565b60208082528101610f6381614e14565b60208082528101610f6381614e4d565b60208082528101610f6381614e86565b60208082528101610f6381614ebf565b60208082528101610f6381614ef8565b60208082528101610f6381614f57565b60208082528101610f6381614f90565b60208082528101610f6381614fc9565b60208082528101610f6381615028565b60208082528101610f6381615061565b60208082528101610f638161509a565b60208082528101610f638161511f565b60208082528101610f638161518b565b60208082528101610f63816151c4565b60208082528101610f6381615223565b60208082528101610f638161525c565b60208082528101610f6381615295565b60208082528101610f63816152f4565b60208082528101610f638161532d565b60208082528101610f638161538c565b60208082528101610f63816153c5565b6060810161580a82856154f3565b6110ce6040830184615513565b60208101610f638284615513565b608081016158338287615513565b81810360208301526158458186614b03565b90506158546040830185614aeb565b6154a06060830184615513565b60a0810161586f8288615513565b61587c6020830187615513565b818103604083015261588e8186614b03565b905061589d6060830185614aeb565b6158aa6080830184615513565b9695505050505050565b60208101610f63828461551c565b60405181810167ffffffffffffffff811182821017156158e157600080fd5b604052919050565b600067ffffffffffffffff82111561590057600080fd5b5060209081020190565b600067ffffffffffffffff82111561592157600080fd5b506020601f919091017fffffffffffffffffffffffffffffffffffffffffffffffffffffffffffffffe0160190565b60200190565b5190565b90815260200190565b6000610f6382615998565b151590565b80611dbd81615a54565b80611dbd81615a5e565b80611dbd81615a68565b61ffff1690565b73ffffffffffffffffffffffffffffffffffffffff1690565b60ff1690565b6000610f63825b6000610f6382615963565b6000610f6382615973565b6000610f638261597d565b6000610f6382615987565b6000610f6382615991565b6000610f6382610f27565b60005b83811015615a1b578181015183820152602001615a03565b83811115613d9e5750506000910152565b601f017fffffffffffffffffffffffffffffffffffffffffffffffffffffffffffffffe01690565b60028110611bb957fe5b60018110611bb957fe5b60058110611bb957fe5b615a7b81615963565b8114611bb957600080fd5b615a7b8161596e565b615a7b81610f2756fe45524332303a207472616e7366657220616d6f756e7420657863656564732062616c616e636545524332303a207472616e7366657220616d6f756e74206578636565647320616c6c6f77616e636545524332303a2064656372656173656420616c6c6f77616e63652062656c6f77207a65726fa365627a7a7231582015e465e67d94e0b569ee02f62e69acba5d4680524e3286e4f807cf1277a94a066c6578706572696d656e74616cf564736f6c63430005110040",
  "source": "pragma solidity 0.5.17;\npragma experimental ABIEncoderV2;\n\nimport \"./ContractImports.sol\";\nimport \"./CommonFunctionality.sol\";\n\ncontract yTUSD is\n    ERC20,\n    ERC20Detailed,\n    ReentrancyGuard,\n    Ownable,\n    Structs,\n    CommonFunctionality\n{\n    using SafeERC20 for IERC20;\n    using Address for address;\n    using SafeMath for uint256;\n\n    uint256 public pool;\n    address public token;\n    address public compound;\n    address public fulcrum;\n    address public aave;\n    address public aaveToken;\n    address public dydx;\n    uint256 public dToken;\n    address public apr;\n\n    // Yeld\n    mapping(address => uint256) public depositBlockStarts;\n    mapping(address => uint256) public depositAmount;\n    address public uniswapRouter = 0x7a250d5630B4cF539739dF2C5dAcb4c659F2488D;\n    address public tusd = 0x0000000000085d4780B73119b644AE5ecd22b376;\n    address public weth = 0xC02aaA39b223FE8D0A0e5C4F27eAD9083C756Cc2;\n    address public dai = 0x6B175474E89094C44Da98b954EedeAC495271d0F;\n    address payable public retirementYeldTreasury;\n    IERC20 public yeldToken;\n    uint256 public maximumTokensToBurn = 50000 * 1e18;\n    uint256 public constant oneDayInBlocks = 6500;\n    uint256 public yeldToRewardPerDay = 0e18; // 100 YELD per day per 1 million stablecoins padded with 18 zeroes to have that flexibility\n    uint256 public constant oneMillion = 1e6;\n    uint256 public holdPercentage = 5e18;\n    address public devTreasury;\n    // Yeld\n\n    enum Lender {NONE, DYDX, COMPOUND, AAVE, FULCRUM}\n\n    Lender public provider = Lender.NONE;\n\n    constructor(address _yeldToken, address payable _retirementYeldTreasury, address _devTreasury)\n        public\n        ERC20Detailed(\"yearn TUSD\", \"yTUSD\", 18)\n    {\n        token = address(0x0000000000085d4780B73119b644AE5ecd22b376);\n        apr = address(0xdD6d648C991f7d47454354f4Ef326b04025a48A8);\n        dydx = address(0x1E0447b19BB6EcFdAe1e4AE1694b0C3659614e4e);\n        aave = address(0x24a42fD28C976A61Df5D00D0599C34c4f90748c8);\n        fulcrum = address(0x49f4592E641820e928F9919Ef4aBd92a719B4b49);\n        aaveToken = address(0x4DA9b813057D04BAef4e5800E36083717b4a0341);\n        compound = address(0x39AA39c021dfbaE8faC545936693aC917d5E7563);\n        dToken = 0;\n        yeldToken = IERC20(_yeldToken);\n        retirementYeldTreasury = _retirementYeldTreasury;\n        devTreasury = _devTreasury;\n        approveToken();\n    }\n\n    // Yeld\n    // To receive ETH after converting it from TUSD\n    function() external payable {}\n\n    function setRetirementYeldTreasury(address payable _treasury)\n        public\n        onlyOwner\n    {\n        retirementYeldTreasury = _treasury;\n    }\n\n    // In case a new uniswap router version is released\n    function setUniswapRouter(address _uniswapRouter) public onlyOwner {\n        uniswapRouter = _uniswapRouter;\n    }\n\n    function setYeldToken(address _yeldToken) public onlyOwner {\n      yeldToken = IERC20(_yeldToken);\n    }\n\n    function extractTokensIfStuck(address _token, uint256 _amount)\n        public\n        onlyOwner\n    {\n        IERC20(_token).transfer(msg.sender, _amount);\n    }\n\n    function extractETHIfStuck() public onlyOwner {\n        owner().transfer(address(this).balance);\n    }\n\n    function changeYeldToRewardPerDay(uint256 _amount) public onlyOwner {\n        yeldToRewardPerDay = _amount;\n    }\n\n    function getGeneratedYelds() public view returns (uint256) {\n        uint256 blocksPassed;\n        if (depositBlockStarts[msg.sender] > 0) {\n            blocksPassed = block.number.sub(depositBlockStarts[msg.sender]);\n        } else {\n            return 0;\n        }\n        uint256 generatedYelds = depositAmount[msg.sender].div(oneMillion).mul(yeldToRewardPerDay).div(1e18).mul(blocksPassed).div(oneDayInBlocks);\n        return generatedYelds;\n    }\n\n    function tusdToETH(uint256 _amount) internal returns (uint256) {\n        IERC20(tusd).safeApprove(uniswapRouter, 0);\n        IERC20(tusd).safeApprove(uniswapRouter, _amount);\n        address[] memory path = new address[](2);\n        path[0] = tusd;\n        path[1] = weth;\n        uint256[] memory amounts =\n            IUniswap(uniswapRouter).swapExactTokensForETH(\n                _amount,\n                uint256(0),\n                path,\n                address(this),\n                now.add(1800)\n            );\n        return amounts[1];\n    }\n\n    function buyNBurn(uint256 _ethToSwap) internal returns (uint256) {\n        address[] memory path = new address[](2);\n        path[0] = weth;\n        path[1] = address(yeldToken);\n        // Burns the tokens by taking them out of circulation, sending them to the 0x0 address\n        uint256[] memory amounts =\n            IUniswap(uniswapRouter).swapExactETHForTokens.value(_ethToSwap)(\n                uint256(0),\n                path,\n                address(0),\n                now.add(1800)\n            );\n        return amounts[1];\n    }\n\n    // Yeld\n    function setHoldPercentage(uint256 _holdPercentage) public onlyOwner {\n      holdPercentage = _holdPercentage;\n    }\n\n    // Quick swap low gas method for pool swaps\n    function deposit(uint256 _amount) external nonReentrant noContract {\n        require(_amount > 0, \"deposit must be greater than 0\");\n        uint256 yeldHold = yeldToken.balanceOf(msg.sender);\n        uint256 yeldPriceInDai = getYeldPriceInDai(address(yeldToken), weth, dai, uniswapRouter);\n        uint256 amountPercentage = _amount.mul(holdPercentage).div(1e20);\n        uint256 yeldRequirement = amountPercentage.div(yeldPriceInDai);\n        require(yeldHold >= yeldRequirement, 'You must hold a 5% of your deposit in YELD tokens to be able to stake');\n\n        pool = _calcPoolValueInToken();\n\n        IERC20(token).safeTransferFrom(msg.sender, address(this), _amount);\n\n        // Yeld\n        depositBlockStarts[msg.sender] = block.number;\n        depositAmount[msg.sender] = depositAmount[msg.sender].add(_amount);\n        // Yeld\n\n        // Calculate pool shares\n        uint256 shares = 0;\n        if (pool == 0) {\n            shares = _amount;\n            pool = _amount;\n        } else {\n            shares = (_amount.mul(_totalSupply)).div(pool);\n        }\n        pool = _calcPoolValueInToken();\n        _mint(msg.sender, shares);\n        rebalance();\n    }\n\n    // No rebalance implementation for lower fees and faster swaps\n    function withdraw(uint256 _shares) external nonReentrant noContract {\n        require(_shares > 0, \"withdraw must be greater than 0\");\n        uint256 ibalance = balanceOf(msg.sender);\n        require(_shares <= ibalance, \"insufficient balance\");\n        // Could have over value from cTokens\n        pool = _calcPoolValueInToken();\n        // Yeld\n        uint256 generatedYelds = getGeneratedYelds();\n        // Yeld\n        // Calc to redeem before updating balances\n        uint256 stablecoinsToWithdraw = (pool.mul(_shares)).div(_totalSupply);\n        _balances[msg.sender] = _balances[msg.sender].sub(\n            _shares,\n            \"redeem amount exceeds balance\"\n        );\n        _totalSupply = _totalSupply.sub(_shares);\n        emit Transfer(msg.sender, address(0), _shares);\n        // Check balance\n        uint256 b = IERC20(token).balanceOf(address(this));\n        if (b < stablecoinsToWithdraw) {\n            _withdrawSome(stablecoinsToWithdraw.sub(b));\n        }\n\n        // Yeld\n        uint256 totalPercentage = percentageRetirementYield.add(percentageDevTreasury).add(percentageBuyBurn);\n        uint256 combined = stablecoinsToWithdraw.mul(totalPercentage).div(1e20);\n        depositBlockStarts[msg.sender] = block.number;\n        depositAmount[msg.sender] = depositAmount[msg.sender].sub(stablecoinsToWithdraw);\n        yeldToken.transfer(msg.sender, generatedYelds);\n        // Take a portion of the profits for the buy and burn and retirement yeld\n        // Convert half the TUSD earned into ETH for the protocol algorithms\n        uint256 stakingProfits = tusdToETH(combined);\n        uint256 tokensAlreadyBurned = yeldToken.balanceOf(address(0));\n        uint256 devTreasuryAmount = stakingProfits.mul(uint256(100e18).mul(percentageDevTreasury).div(totalPercentage)).div(100e18);\n        if (tokensAlreadyBurned < maximumTokensToBurn) {\n            uint256 ethToSwap = stakingProfits.mul(uint256(100e18).mul(percentageBuyBurn).div(totalPercentage)).div(100e18);\n            buyNBurn(ethToSwap);\n            uint256 retirementYeld = stakingProfits.mul(uint256(100e18).mul(percentageRetirementYield).div(totalPercentage)).div(100e18);\n            retirementYeldTreasury.transfer(retirementYeld);\n        } else {\n            // If we've reached the maximum burn point, send half the profits to the treasury to reward holders\n            uint256 retirementYeld = stakingProfits.sub(devTreasuryAmount);\n            // Send to the treasury\n            retirementYeldTreasury.transfer(retirementYeld);\n        }\n        (bool success, ) = devTreasury.call.value(devTreasuryAmount)(\"\");\n        require(success, \"Dev treasury transfer failed\");\n        IERC20(token).safeTransfer(msg.sender, stablecoinsToWithdraw.sub(combined));\n        // Yeld\n\n        pool = _calcPoolValueInToken();\n        rebalance();\n    }\n\n    // Ownable setters incase of support in future for these systems\n    function set_new_APR(address _new_APR) public onlyOwner {\n        apr = _new_APR;\n    }\n\n    function set_new_COMPOUND(address _new_COMPOUND) public onlyOwner {\n        compound = _new_COMPOUND;\n    }\n\n    function set_new_DTOKEN(uint256 _new_DTOKEN) public onlyOwner {\n        dToken = _new_DTOKEN;\n    }\n\n    function recommend() public view returns (Lender) {\n        (, uint256 capr, uint256 iapr, uint256 aapr, uint256 dapr) =\n            IIEarnManager(apr).recommend(token);\n        uint256 max = 0;\n        if (capr > max) {\n            max = capr;\n        }\n        if (iapr > max) {\n            max = iapr;\n        }\n        if (aapr > max) {\n            max = aapr;\n        }\n        if (dapr > max) {\n            max = dapr;\n        }\n\n        Lender newProvider = Lender.NONE;\n        if (max == capr) {\n            newProvider = Lender.COMPOUND;\n        } else if (max == iapr) {\n            newProvider = Lender.FULCRUM;\n        } else if (max == aapr) {\n            newProvider = Lender.AAVE;\n        } else if (max == dapr) {\n            newProvider = Lender.DYDX;\n        }\n        return newProvider;\n    }\n\n    function supplyDydx(uint256 amount) public returns (uint256) {\n        Info[] memory infos = new Info[](1);\n        infos[0] = Info(address(this), 0);\n\n        AssetAmount memory amt =\n            AssetAmount(\n                true,\n                AssetDenomination.Wei,\n                AssetReference.Delta,\n                amount\n            );\n        ActionArgs memory act;\n        act.actionType = ActionType.Deposit;\n        act.accountId = 0;\n        act.amount = amt;\n        act.primaryMarketId = dToken;\n        act.otherAddress = address(this);\n\n        ActionArgs[] memory args = new ActionArgs[](1);\n        args[0] = act;\n\n        DyDx(dydx).operate(infos, args);\n    }\n\n    function _withdrawDydx(uint256 amount) internal {\n        Info[] memory infos = new Info[](1);\n        infos[0] = Info(address(this), 0);\n\n        AssetAmount memory amt =\n            AssetAmount(\n                false,\n                AssetDenomination.Wei,\n                AssetReference.Delta,\n                amount\n            );\n        ActionArgs memory act;\n        act.actionType = ActionType.Withdraw;\n        act.accountId = 0;\n        act.amount = amt;\n        act.primaryMarketId = dToken;\n        act.otherAddress = address(this);\n\n        ActionArgs[] memory args = new ActionArgs[](1);\n        args[0] = act;\n\n        DyDx(dydx).operate(infos, args);\n    }\n\n    function getAave() public view returns (address) {\n        return LendingPoolAddressesProvider(aave).getLendingPool();\n    }\n\n    function getAaveCore() public view returns (address) {\n        return LendingPoolAddressesProvider(aave).getLendingPoolCore();\n    }\n\n    function approveToken() public {\n        IERC20(token).safeApprove(compound, uint256(-1)); //also add to constructor\n        IERC20(token).safeApprove(dydx, uint256(-1));\n        IERC20(token).safeApprove(getAaveCore(), uint256(-1));\n        IERC20(token).safeApprove(fulcrum, uint256(-1));\n    }\n\n    function balance() public view returns (uint256) {\n        return IERC20(token).balanceOf(address(this));\n    }\n\n    function balanceDydx() public view returns (uint256) {\n        Wei memory bal =\n            DyDx(dydx).getAccountWei(Info(address(this), 0), dToken);\n        return bal.value;\n    }\n\n    function balanceCompound() public view returns (uint256) {\n        return IERC20(compound).balanceOf(address(this));\n    }\n\n    function balanceCompoundInToken() public view returns (uint256) {\n        // Mantisa 1e18 to decimals\n        uint256 b = balanceCompound();\n        if (b > 0) {\n            b = b.mul(Compound(compound).exchangeRateStored()).div(1e18);\n        }\n        return b;\n    }\n\n    function balanceFulcrumInToken() public view returns (uint256) {\n        uint256 b = balanceFulcrum();\n        if (b > 0) {\n            b = Fulcrum(fulcrum).assetBalanceOf(address(this));\n        }\n        return b;\n    }\n\n    function balanceFulcrum() public view returns (uint256) {\n        return IERC20(fulcrum).balanceOf(address(this));\n    }\n\n    function balanceAave() public view returns (uint256) {\n        return IERC20(aaveToken).balanceOf(address(this));\n    }\n\n    function _balance() internal view returns (uint256) {\n        return IERC20(token).balanceOf(address(this));\n    }\n\n    function _balanceDydx() internal view returns (uint256) {\n        Wei memory bal =\n            DyDx(dydx).getAccountWei(Info(address(this), 0), dToken);\n        return bal.value;\n    }\n\n    function _balanceCompound() internal view returns (uint256) {\n        return IERC20(compound).balanceOf(address(this));\n    }\n\n    function _balanceCompoundInToken() internal view returns (uint256) {\n        // Mantisa 1e18 to decimals\n        uint256 b = balanceCompound();\n        if (b > 0) {\n            b = b.mul(Compound(compound).exchangeRateStored()).div(1e18);\n        }\n        return b;\n    }\n\n    function _balanceFulcrumInToken() internal view returns (uint256) {\n        uint256 b = balanceFulcrum();\n        if (b > 0) {\n            b = Fulcrum(fulcrum).assetBalanceOf(address(this));\n        }\n        return b;\n    }\n\n    function _balanceFulcrum() internal view returns (uint256) {\n        return IERC20(fulcrum).balanceOf(address(this));\n    }\n\n    function _balanceAave() internal view returns (uint256) {\n        return IERC20(aaveToken).balanceOf(address(this));\n    }\n\n    function _withdrawAll() internal {\n        uint256 amount = _balanceCompound();\n        if (amount > 0) {\n            _withdrawCompound(amount);\n        }\n        amount = _balanceDydx();\n        if (amount > 0) {\n            _withdrawDydx(amount);\n        }\n        amount = _balanceFulcrum();\n        if (amount > 0) {\n            _withdrawFulcrum(amount);\n        }\n        amount = _balanceAave();\n        if (amount > 0) {\n            _withdrawAave(amount);\n        }\n    }\n\n    function _withdrawSomeCompound(uint256 _amount) internal {\n        uint256 b = balanceCompound();\n        uint256 bT = balanceCompoundInToken();\n        require(bT >= _amount, \"insufficient funds\");\n        // can have unintentional rounding errors\n        uint256 amount = (b.mul(_amount)).div(bT).add(1);\n        _withdrawCompound(amount);\n    }\n\n    // 1999999614570950845\n    function _withdrawSomeFulcrum(uint256 _amount) internal {\n        // Balance of fulcrum tokens, 1 iDAI = 1.00x DAI\n        uint256 b = balanceFulcrum(); // 1970469086655766652\n        // Balance of token in fulcrum\n        uint256 bT = balanceFulcrumInToken(); // 2000000803224344406\n        require(bT >= _amount, \"insufficient funds\");\n        // can have unintentional rounding errors\n        uint256 amount = (b.mul(_amount)).div(bT).add(1);\n        _withdrawFulcrum(amount);\n    }\n\n    function _withdrawSome(uint256 _amount) internal {\n        if (provider == Lender.COMPOUND) {\n            _withdrawSomeCompound(_amount);\n        }\n        if (provider == Lender.AAVE) {\n            require(balanceAave() >= _amount, \"insufficient funds\");\n            _withdrawAave(_amount);\n        }\n        if (provider == Lender.DYDX) {\n            require(balanceDydx() >= _amount, \"insufficient funds\");\n            _withdrawDydx(_amount);\n        }\n        if (provider == Lender.FULCRUM) {\n            _withdrawSomeFulcrum(_amount);\n        }\n    }\n\n    function rebalance() public {\n        Lender newProvider = recommend();\n\n        if (newProvider != provider) {\n            _withdrawAll();\n        }\n\n        if (balance() > 0) {\n            if (newProvider == Lender.DYDX) {\n                supplyDydx(balance());\n            } else if (newProvider == Lender.FULCRUM) {\n                supplyFulcrum(balance());\n            } else if (newProvider == Lender.COMPOUND) {\n                supplyCompound(balance());\n            } else if (newProvider == Lender.AAVE) {\n                supplyAave(balance());\n            }\n        }\n\n        provider = newProvider;\n    }\n\n    // Internal only rebalance for better gas in redeem\n    function _rebalance(Lender newProvider) internal {\n        if (_balance() > 0) {\n            if (newProvider == Lender.DYDX) {\n                supplyDydx(_balance());\n            } else if (newProvider == Lender.FULCRUM) {\n                supplyFulcrum(_balance());\n            } else if (newProvider == Lender.COMPOUND) {\n                supplyCompound(_balance());\n            } else if (newProvider == Lender.AAVE) {\n                supplyAave(_balance());\n            }\n        }\n        provider = newProvider;\n    }\n\n    function supplyAave(uint256 amount) public {\n        Aave(getAave()).deposit(token, amount, 0);\n    }\n\n    function supplyFulcrum(uint256 amount) public {\n        require(\n            Fulcrum(fulcrum).mint(address(this), amount) > 0,\n            \"FULCRUM: supply failed\"\n        );\n    }\n\n    function supplyCompound(uint256 amount) public {\n        require(\n            Compound(compound).mint(amount) == 0,\n            \"COMPOUND: supply failed\"\n        );\n    }\n\n    function _withdrawAave(uint256 amount) internal {\n        AToken(aaveToken).redeem(amount);\n    }\n\n    function _withdrawFulcrum(uint256 amount) internal {\n        require(\n            Fulcrum(fulcrum).burn(address(this), amount) > 0,\n            \"FULCRUM: withdraw failed\"\n        );\n    }\n\n    function _withdrawCompound(uint256 amount) internal {\n        require(\n            Compound(compound).redeem(amount) == 0,\n            \"COMPOUND: withdraw failed\"\n        );\n    }\n\n    function _calcPoolValueInToken() internal view returns (uint256) {\n        return\n            _balanceCompoundInToken()\n                .add(_balanceFulcrumInToken())\n                .add(_balanceDydx())\n                .add(_balanceAave())\n                .add(_balance());\n    }\n\n    function calcPoolValueInToken() public view returns (uint256) {\n        return\n            balanceCompoundInToken()\n                .add(balanceFulcrumInToken())\n                .add(balanceDydx())\n                .add(balanceAave())\n                .add(balance());\n    }\n\n    function getPricePerFullShare() public view returns (uint256) {\n        uint256 _pool = calcPoolValueInToken();\n        return _pool.mul(1e18).div(_totalSupply);\n    }\n}\n",
  "sourcePath": "C:/Users/merun/Desktop/yeld-contracts/contracts/yTUSD.sol",
  "compiler": {
    "name": "solc",
    "version": "0.5.17+commit.d19bba13.Emscripten.clang"
  },
  "schemaVersion": "3.3.3",
  "updatedAt": "2021-01-19T20:24:37.064Z",
  "networkType": "ethereum",
  "devdoc": {
    "methods": {}
  },
  "userdoc": {
    "methods": {}
  }
}