{
  "contractName": "yTUSD",
  "abi": [
    {
      "inputs": [
        {
          "internalType": "address",
          "name": "_yeldToken",
          "type": "address"
        },
        {
          "internalType": "address payable",
          "name": "_retirementYeldTreasury",
          "type": "address"
        },
        {
          "internalType": "address",
          "name": "_devTreasury",
          "type": "address"
        }
      ],
      "payable": false,
      "stateMutability": "nonpayable",
      "type": "constructor"
    },
    {
      "anonymous": false,
      "inputs": [
        {
          "indexed": true,
          "internalType": "address",
          "name": "owner",
          "type": "address"
        },
        {
          "indexed": true,
          "internalType": "address",
          "name": "spender",
          "type": "address"
        },
        {
          "indexed": false,
          "internalType": "uint256",
          "name": "value",
          "type": "uint256"
        }
      ],
      "name": "Approval",
      "type": "event"
    },
    {
      "anonymous": false,
      "inputs": [
        {
          "indexed": true,
          "internalType": "address",
          "name": "previousOwner",
          "type": "address"
        },
        {
          "indexed": true,
          "internalType": "address",
          "name": "newOwner",
          "type": "address"
        }
      ],
      "name": "OwnershipTransferred",
      "type": "event"
    },
    {
      "anonymous": false,
      "inputs": [
        {
          "indexed": true,
          "internalType": "address",
          "name": "from",
          "type": "address"
        },
        {
          "indexed": true,
          "internalType": "address",
          "name": "to",
          "type": "address"
        },
        {
          "indexed": false,
          "internalType": "uint256",
          "name": "value",
          "type": "uint256"
        }
      ],
      "name": "Transfer",
      "type": "event"
    },
    {
      "payable": true,
      "stateMutability": "payable",
      "type": "fallback"
    },
    {
      "constant": true,
      "inputs": [],
      "name": "aave",
      "outputs": [
        {
          "internalType": "address",
          "name": "",
          "type": "address"
        }
      ],
      "payable": false,
      "stateMutability": "view",
      "type": "function"
    },
    {
      "constant": true,
      "inputs": [],
      "name": "aaveToken",
      "outputs": [
        {
          "internalType": "address",
          "name": "",
          "type": "address"
        }
      ],
      "payable": false,
      "stateMutability": "view",
      "type": "function"
    },
    {
      "constant": true,
      "inputs": [
        {
          "internalType": "address",
          "name": "owner",
          "type": "address"
        },
        {
          "internalType": "address",
          "name": "spender",
          "type": "address"
        }
      ],
      "name": "allowance",
      "outputs": [
        {
          "internalType": "uint256",
          "name": "",
          "type": "uint256"
        }
      ],
      "payable": false,
      "stateMutability": "view",
      "type": "function"
    },
    {
      "constant": false,
      "inputs": [
        {
          "internalType": "address",
          "name": "spender",
          "type": "address"
        },
        {
          "internalType": "uint256",
          "name": "amount",
          "type": "uint256"
        }
      ],
      "name": "approve",
      "outputs": [
        {
          "internalType": "bool",
          "name": "",
          "type": "bool"
        }
      ],
      "payable": false,
      "stateMutability": "nonpayable",
      "type": "function"
    },
    {
      "constant": true,
      "inputs": [],
      "name": "apr",
      "outputs": [
        {
          "internalType": "address",
          "name": "",
          "type": "address"
        }
      ],
      "payable": false,
      "stateMutability": "view",
      "type": "function"
    },
    {
      "constant": true,
      "inputs": [
        {
          "internalType": "address",
          "name": "account",
          "type": "address"
        }
      ],
      "name": "balanceOf",
      "outputs": [
        {
          "internalType": "uint256",
          "name": "",
          "type": "uint256"
        }
      ],
      "payable": false,
      "stateMutability": "view",
      "type": "function"
    },
    {
      "constant": true,
      "inputs": [],
      "name": "compound",
      "outputs": [
        {
          "internalType": "address",
          "name": "",
          "type": "address"
        }
      ],
      "payable": false,
      "stateMutability": "view",
      "type": "function"
    },
    {
      "constant": true,
      "inputs": [],
      "name": "dToken",
      "outputs": [
        {
          "internalType": "uint256",
          "name": "",
          "type": "uint256"
        }
      ],
      "payable": false,
      "stateMutability": "view",
      "type": "function"
    },
    {
      "constant": true,
      "inputs": [],
      "name": "dai",
      "outputs": [
        {
          "internalType": "address",
          "name": "",
          "type": "address"
        }
      ],
      "payable": false,
      "stateMutability": "view",
      "type": "function"
    },
    {
      "constant": true,
      "inputs": [],
      "name": "decimals",
      "outputs": [
        {
          "internalType": "uint8",
          "name": "",
          "type": "uint8"
        }
      ],
      "payable": false,
      "stateMutability": "view",
      "type": "function"
    },
    {
      "constant": false,
      "inputs": [
        {
          "internalType": "address",
          "name": "spender",
          "type": "address"
        },
        {
          "internalType": "uint256",
          "name": "subtractedValue",
          "type": "uint256"
        }
      ],
      "name": "decreaseAllowance",
      "outputs": [
        {
          "internalType": "bool",
          "name": "",
          "type": "bool"
        }
      ],
      "payable": false,
      "stateMutability": "nonpayable",
      "type": "function"
    },
    {
      "constant": true,
      "inputs": [
        {
          "internalType": "address",
          "name": "",
          "type": "address"
        }
      ],
      "name": "depositAmount",
      "outputs": [
        {
          "internalType": "uint256",
          "name": "",
          "type": "uint256"
        }
      ],
      "payable": false,
      "stateMutability": "view",
      "type": "function"
    },
    {
      "constant": true,
      "inputs": [
        {
          "internalType": "address",
          "name": "",
          "type": "address"
        }
      ],
      "name": "depositBlockStarts",
      "outputs": [
        {
          "internalType": "uint256",
          "name": "",
          "type": "uint256"
        }
      ],
      "payable": false,
      "stateMutability": "view",
      "type": "function"
    },
    {
      "constant": true,
      "inputs": [],
      "name": "devTreasury",
      "outputs": [
        {
          "internalType": "address",
          "name": "",
          "type": "address"
        }
      ],
      "payable": false,
      "stateMutability": "view",
      "type": "function"
    },
    {
      "constant": true,
      "inputs": [],
      "name": "dydx",
      "outputs": [
        {
          "internalType": "address",
          "name": "",
          "type": "address"
        }
      ],
      "payable": false,
      "stateMutability": "view",
      "type": "function"
    },
    {
      "constant": true,
      "inputs": [],
      "name": "fulcrum",
      "outputs": [
        {
          "internalType": "address",
          "name": "",
          "type": "address"
        }
      ],
      "payable": false,
      "stateMutability": "view",
      "type": "function"
    },
    {
      "constant": true,
      "inputs": [
        {
          "internalType": "address",
          "name": "_yeld",
          "type": "address"
        },
        {
          "internalType": "address",
          "name": "_weth",
          "type": "address"
        },
        {
          "internalType": "address",
          "name": "_dai",
          "type": "address"
        },
        {
          "internalType": "address",
          "name": "_uniswap",
          "type": "address"
        }
      ],
      "name": "getYeldPriceInDai",
      "outputs": [
        {
          "internalType": "uint256",
          "name": "",
          "type": "uint256"
        }
      ],
      "payable": false,
      "stateMutability": "view",
      "type": "function"
    },
    {
      "constant": true,
      "inputs": [],
      "name": "holdPercentage",
      "outputs": [
        {
          "internalType": "uint256",
          "name": "",
          "type": "uint256"
        }
      ],
      "payable": false,
      "stateMutability": "view",
      "type": "function"
    },
    {
      "constant": false,
      "inputs": [
        {
          "internalType": "address",
          "name": "spender",
          "type": "address"
        },
        {
          "internalType": "uint256",
          "name": "addedValue",
          "type": "uint256"
        }
      ],
      "name": "increaseAllowance",
      "outputs": [
        {
          "internalType": "bool",
          "name": "",
          "type": "bool"
        }
      ],
      "payable": false,
      "stateMutability": "nonpayable",
      "type": "function"
    },
    {
      "constant": true,
      "inputs": [],
      "name": "isOwner",
      "outputs": [
        {
          "internalType": "bool",
          "name": "",
          "type": "bool"
        }
      ],
      "payable": false,
      "stateMutability": "view",
      "type": "function"
    },
    {
      "constant": true,
      "inputs": [],
      "name": "maximumTokensToBurn",
      "outputs": [
        {
          "internalType": "uint256",
          "name": "",
          "type": "uint256"
        }
      ],
      "payable": false,
      "stateMutability": "view",
      "type": "function"
    },
    {
      "constant": true,
      "inputs": [],
      "name": "name",
      "outputs": [
        {
          "internalType": "string",
          "name": "",
          "type": "string"
        }
      ],
      "payable": false,
      "stateMutability": "view",
      "type": "function"
    },
    {
      "constant": true,
      "inputs": [],
      "name": "oneDayInBlocks",
      "outputs": [
        {
          "internalType": "uint256",
          "name": "",
          "type": "uint256"
        }
      ],
      "payable": false,
      "stateMutability": "view",
      "type": "function"
    },
    {
      "constant": true,
      "inputs": [],
      "name": "oneMillion",
      "outputs": [
        {
          "internalType": "uint256",
          "name": "",
          "type": "uint256"
        }
      ],
      "payable": false,
      "stateMutability": "view",
      "type": "function"
    },
    {
      "constant": true,
      "inputs": [],
      "name": "owner",
      "outputs": [
        {
          "internalType": "address payable",
          "name": "",
          "type": "address"
        }
      ],
      "payable": false,
      "stateMutability": "view",
      "type": "function"
    },
    {
      "constant": true,
      "inputs": [],
      "name": "percentageBuyBurn",
      "outputs": [
        {
          "internalType": "uint256",
          "name": "",
          "type": "uint256"
        }
      ],
      "payable": false,
      "stateMutability": "view",
      "type": "function"
    },
    {
      "constant": true,
      "inputs": [],
      "name": "percentageDevTreasury",
      "outputs": [
        {
          "internalType": "uint256",
          "name": "",
          "type": "uint256"
        }
      ],
      "payable": false,
      "stateMutability": "view",
      "type": "function"
    },
    {
      "constant": true,
      "inputs": [],
      "name": "percentageRetirementYield",
      "outputs": [
        {
          "internalType": "uint256",
          "name": "",
          "type": "uint256"
        }
      ],
      "payable": false,
      "stateMutability": "view",
      "type": "function"
    },
    {
      "constant": true,
      "inputs": [],
      "name": "pool",
      "outputs": [
        {
          "internalType": "uint256",
          "name": "",
          "type": "uint256"
        }
      ],
      "payable": false,
      "stateMutability": "view",
      "type": "function"
    },
    {
      "constant": true,
      "inputs": [],
      "name": "provider",
      "outputs": [
        {
          "internalType": "enum yTUSD.Lender",
          "name": "",
          "type": "uint8"
        }
      ],
      "payable": false,
      "stateMutability": "view",
      "type": "function"
    },
    {
      "constant": false,
      "inputs": [],
      "name": "renounceOwnership",
      "outputs": [],
      "payable": false,
      "stateMutability": "nonpayable",
      "type": "function"
    },
    {
      "constant": true,
      "inputs": [],
      "name": "retirementYeldTreasury",
      "outputs": [
        {
          "internalType": "address payable",
          "name": "",
          "type": "address"
        }
      ],
      "payable": false,
      "stateMutability": "view",
      "type": "function"
    },
    {
      "constant": true,
      "inputs": [],
      "name": "symbol",
      "outputs": [
        {
          "internalType": "string",
          "name": "",
          "type": "string"
        }
      ],
      "payable": false,
      "stateMutability": "view",
      "type": "function"
    },
    {
      "constant": true,
      "inputs": [],
      "name": "token",
      "outputs": [
        {
          "internalType": "address",
          "name": "",
          "type": "address"
        }
      ],
      "payable": false,
      "stateMutability": "view",
      "type": "function"
    },
    {
      "constant": true,
      "inputs": [],
      "name": "totalSupply",
      "outputs": [
        {
          "internalType": "uint256",
          "name": "",
          "type": "uint256"
        }
      ],
      "payable": false,
      "stateMutability": "view",
      "type": "function"
    },
    {
      "constant": false,
      "inputs": [
        {
          "internalType": "address",
          "name": "recipient",
          "type": "address"
        },
        {
          "internalType": "uint256",
          "name": "amount",
          "type": "uint256"
        }
      ],
      "name": "transfer",
      "outputs": [
        {
          "internalType": "bool",
          "name": "",
          "type": "bool"
        }
      ],
      "payable": false,
      "stateMutability": "nonpayable",
      "type": "function"
    },
    {
      "constant": false,
      "inputs": [
        {
          "internalType": "address",
          "name": "sender",
          "type": "address"
        },
        {
          "internalType": "address",
          "name": "recipient",
          "type": "address"
        },
        {
          "internalType": "uint256",
          "name": "amount",
          "type": "uint256"
        }
      ],
      "name": "transferFrom",
      "outputs": [
        {
          "internalType": "bool",
          "name": "",
          "type": "bool"
        }
      ],
      "payable": false,
      "stateMutability": "nonpayable",
      "type": "function"
    },
    {
      "constant": false,
      "inputs": [
        {
          "internalType": "address payable",
          "name": "newOwner",
          "type": "address"
        }
      ],
      "name": "transferOwnership",
      "outputs": [],
      "payable": false,
      "stateMutability": "nonpayable",
      "type": "function"
    },
    {
      "constant": true,
      "inputs": [],
      "name": "tusd",
      "outputs": [
        {
          "internalType": "address",
          "name": "",
          "type": "address"
        }
      ],
      "payable": false,
      "stateMutability": "view",
      "type": "function"
    },
    {
      "constant": true,
      "inputs": [],
      "name": "uniswapRouter",
      "outputs": [
        {
          "internalType": "address",
          "name": "",
          "type": "address"
        }
      ],
      "payable": false,
      "stateMutability": "view",
      "type": "function"
    },
    {
      "constant": false,
      "inputs": [
        {
          "internalType": "uint256",
          "name": "a",
          "type": "uint256"
        },
        {
          "internalType": "uint256",
          "name": "b",
          "type": "uint256"
        },
        {
          "internalType": "uint256",
          "name": "c",
          "type": "uint256"
        }
      ],
      "name": "updatePercentages",
      "outputs": [],
      "payable": false,
      "stateMutability": "nonpayable",
      "type": "function"
    },
    {
      "constant": true,
      "inputs": [],
      "name": "weth",
      "outputs": [
        {
          "internalType": "address",
          "name": "",
          "type": "address"
        }
      ],
      "payable": false,
      "stateMutability": "view",
      "type": "function"
    },
    {
      "constant": true,
      "inputs": [],
      "name": "yeldToRewardPerDay",
      "outputs": [
        {
          "internalType": "uint256",
          "name": "",
          "type": "uint256"
        }
      ],
      "payable": false,
      "stateMutability": "view",
      "type": "function"
    },
    {
      "constant": true,
      "inputs": [],
      "name": "yeldToken",
      "outputs": [
        {
          "internalType": "contract IERC20",
          "name": "",
          "type": "address"
        }
      ],
      "payable": false,
      "stateMutability": "view",
      "type": "function"
    },
    {
      "constant": false,
      "inputs": [
        {
          "internalType": "address payable",
          "name": "_treasury",
          "type": "address"
        }
      ],
      "name": "setRetirementYeldTreasury",
      "outputs": [],
      "payable": false,
      "stateMutability": "nonpayable",
      "type": "function"
    },
    {
      "constant": false,
      "inputs": [
        {
          "internalType": "address",
          "name": "_uniswapRouter",
          "type": "address"
        }
      ],
      "name": "setUniswapRouter",
      "outputs": [],
      "payable": false,
      "stateMutability": "nonpayable",
      "type": "function"
    },
    {
      "constant": false,
      "inputs": [
        {
          "internalType": "address",
          "name": "_yeldToken",
          "type": "address"
        }
      ],
      "name": "setYeldToken",
      "outputs": [],
      "payable": false,
      "stateMutability": "nonpayable",
      "type": "function"
    },
    {
      "constant": false,
      "inputs": [
        {
          "internalType": "address",
          "name": "_token",
          "type": "address"
        },
        {
          "internalType": "uint256",
          "name": "_amount",
          "type": "uint256"
        }
      ],
      "name": "extractTokensIfStuck",
      "outputs": [],
      "payable": false,
      "stateMutability": "nonpayable",
      "type": "function"
    },
    {
      "constant": false,
      "inputs": [],
      "name": "extractETHIfStuck",
      "outputs": [],
      "payable": false,
      "stateMutability": "nonpayable",
      "type": "function"
    },
    {
      "constant": false,
      "inputs": [
        {
          "internalType": "uint256",
          "name": "_amount",
          "type": "uint256"
        }
      ],
      "name": "changeYeldToRewardPerDay",
      "outputs": [],
      "payable": false,
      "stateMutability": "nonpayable",
      "type": "function"
    },
    {
      "constant": true,
      "inputs": [],
      "name": "getGeneratedYelds",
      "outputs": [
        {
          "internalType": "uint256",
          "name": "",
          "type": "uint256"
        }
      ],
      "payable": false,
      "stateMutability": "view",
      "type": "function"
    },
    {
      "constant": false,
      "inputs": [
        {
          "internalType": "uint256",
          "name": "_holdPercentage",
          "type": "uint256"
        }
      ],
      "name": "setHoldPercentage",
      "outputs": [],
      "payable": false,
      "stateMutability": "nonpayable",
      "type": "function"
    },
    {
      "constant": false,
      "inputs": [
        {
          "internalType": "uint256",
          "name": "_amount",
          "type": "uint256"
        }
      ],
      "name": "deposit",
      "outputs": [],
      "payable": false,
      "stateMutability": "nonpayable",
      "type": "function"
    },
    {
      "constant": false,
      "inputs": [
        {
          "internalType": "uint256",
          "name": "_shares",
          "type": "uint256"
        }
      ],
      "name": "withdraw",
      "outputs": [],
      "payable": false,
      "stateMutability": "nonpayable",
      "type": "function"
    },
    {
      "constant": false,
      "inputs": [
        {
          "internalType": "address",
          "name": "_new_APR",
          "type": "address"
        }
      ],
      "name": "set_new_APR",
      "outputs": [],
      "payable": false,
      "stateMutability": "nonpayable",
      "type": "function"
    },
    {
      "constant": false,
      "inputs": [
        {
          "internalType": "address",
          "name": "_new_COMPOUND",
          "type": "address"
        }
      ],
      "name": "set_new_COMPOUND",
      "outputs": [],
      "payable": false,
      "stateMutability": "nonpayable",
      "type": "function"
    },
    {
      "constant": false,
      "inputs": [
        {
          "internalType": "uint256",
          "name": "_new_DTOKEN",
          "type": "uint256"
        }
      ],
      "name": "set_new_DTOKEN",
      "outputs": [],
      "payable": false,
      "stateMutability": "nonpayable",
      "type": "function"
    },
    {
      "constant": true,
      "inputs": [],
      "name": "recommend",
      "outputs": [
        {
          "internalType": "enum yTUSD.Lender",
          "name": "",
          "type": "uint8"
        }
      ],
      "payable": false,
      "stateMutability": "view",
      "type": "function"
    },
    {
      "constant": false,
      "inputs": [
        {
          "internalType": "uint256",
          "name": "amount",
          "type": "uint256"
        }
      ],
      "name": "supplyDydx",
      "outputs": [
        {
          "internalType": "uint256",
          "name": "",
          "type": "uint256"
        }
      ],
      "payable": false,
      "stateMutability": "nonpayable",
      "type": "function"
    },
    {
      "constant": true,
      "inputs": [],
      "name": "getAave",
      "outputs": [
        {
          "internalType": "address",
          "name": "",
          "type": "address"
        }
      ],
      "payable": false,
      "stateMutability": "view",
      "type": "function"
    },
    {
      "constant": true,
      "inputs": [],
      "name": "getAaveCore",
      "outputs": [
        {
          "internalType": "address",
          "name": "",
          "type": "address"
        }
      ],
      "payable": false,
      "stateMutability": "view",
      "type": "function"
    },
    {
      "constant": false,
      "inputs": [],
      "name": "approveToken",
      "outputs": [],
      "payable": false,
      "stateMutability": "nonpayable",
      "type": "function"
    },
    {
      "constant": true,
      "inputs": [],
      "name": "balance",
      "outputs": [
        {
          "internalType": "uint256",
          "name": "",
          "type": "uint256"
        }
      ],
      "payable": false,
      "stateMutability": "view",
      "type": "function"
    },
    {
      "constant": true,
      "inputs": [],
      "name": "balanceDydx",
      "outputs": [
        {
          "internalType": "uint256",
          "name": "",
          "type": "uint256"
        }
      ],
      "payable": false,
      "stateMutability": "view",
      "type": "function"
    },
    {
      "constant": true,
      "inputs": [],
      "name": "balanceCompound",
      "outputs": [
        {
          "internalType": "uint256",
          "name": "",
          "type": "uint256"
        }
      ],
      "payable": false,
      "stateMutability": "view",
      "type": "function"
    },
    {
      "constant": true,
      "inputs": [],
      "name": "balanceCompoundInToken",
      "outputs": [
        {
          "internalType": "uint256",
          "name": "",
          "type": "uint256"
        }
      ],
      "payable": false,
      "stateMutability": "view",
      "type": "function"
    },
    {
      "constant": true,
      "inputs": [],
      "name": "balanceFulcrumInToken",
      "outputs": [
        {
          "internalType": "uint256",
          "name": "",
          "type": "uint256"
        }
      ],
      "payable": false,
      "stateMutability": "view",
      "type": "function"
    },
    {
      "constant": true,
      "inputs": [],
      "name": "balanceFulcrum",
      "outputs": [
        {
          "internalType": "uint256",
          "name": "",
          "type": "uint256"
        }
      ],
      "payable": false,
      "stateMutability": "view",
      "type": "function"
    },
    {
      "constant": true,
      "inputs": [],
      "name": "balanceAave",
      "outputs": [
        {
          "internalType": "uint256",
          "name": "",
          "type": "uint256"
        }
      ],
      "payable": false,
      "stateMutability": "view",
      "type": "function"
    },
    {
      "constant": false,
      "inputs": [],
      "name": "rebalance",
      "outputs": [],
      "payable": false,
      "stateMutability": "nonpayable",
      "type": "function"
    },
    {
      "constant": false,
      "inputs": [
        {
          "internalType": "uint256",
          "name": "amount",
          "type": "uint256"
        }
      ],
      "name": "supplyAave",
      "outputs": [],
      "payable": false,
      "stateMutability": "nonpayable",
      "type": "function"
    },
    {
      "constant": false,
      "inputs": [
        {
          "internalType": "uint256",
          "name": "amount",
          "type": "uint256"
        }
      ],
      "name": "supplyFulcrum",
      "outputs": [],
      "payable": false,
      "stateMutability": "nonpayable",
      "type": "function"
    },
    {
      "constant": false,
      "inputs": [
        {
          "internalType": "uint256",
          "name": "amount",
          "type": "uint256"
        }
      ],
      "name": "supplyCompound",
      "outputs": [],
      "payable": false,
      "stateMutability": "nonpayable",
      "type": "function"
    },
    {
      "constant": true,
      "inputs": [],
      "name": "calcPoolValueInToken",
      "outputs": [
        {
          "internalType": "uint256",
          "name": "",
          "type": "uint256"
        }
      ],
      "payable": false,
      "stateMutability": "view",
      "type": "function"
    },
    {
      "constant": true,
      "inputs": [],
      "name": "getPricePerFullShare",
      "outputs": [
        {
          "internalType": "uint256",
          "name": "",
          "type": "uint256"
        }
      ],
      "payable": false,
      "stateMutability": "view",
      "type": "function"
    }
  ],
  "bytecode": "0x60806040526714d1120d7b1600006008556722b1c8c1227a0000600955670de0b6b3a7640000600a55601680546001600160a01b0319908116737a250d5630b4cf539739df2c5dacb4c659f2488d179091556017805482166e085d4780b73119b644ae5ecd22b37617905560188054821673c02aaa39b223fe8d0a0e5c4f27ead9083c756cc217905560198054909116736b175474e89094c44da98b954eedeac495271d0f179055690a968163f0a57b400000601c556802b5e3af16b1880000601d55674563918244f40000601e55601f805460ff60a01b19169055348015620000e857600080fd5b506040516200664f3803806200664f8339810160408190526200010b91620007af565b604080518082018252600a8152691e59585c9b88151554d160b21b6020808301918252835180850190945260058452641e551554d160da1b9084015281519192916012916200015e9160039190620006bf565b50815162000174906004906020850190620006bf565b506005805460ff191660ff92909216919091179055505060016006556200019a62000313565b600780546001600160a01b0319166001600160a01b0392831617908190556040519116906000907f8be0079c531659141344cd1fd0a4f28419497f9722a3daafe3b4186f6b6457e0908290a3600c80546001600160a01b03199081166e085d4780b73119b644ae5ecd22b3761790915560138054821673dd6d648c991f7d47454354f4ef326b04025a48a8179055601180548216731e0447b19bb6ecfdae1e4ae1694b0c3659614e4e179055600f805482167324a42fd28c976a61df5d00d0599c34c4f90748c8179055600e805482167349f4592e641820e928f9919ef4abd92a719b4b49179055601080548216734da9b813057d04baef4e5800e36083717b4a0341179055600d805482167339aa39c021dfbae8fac545936693ac917d5e75631790556000601255601b80546001600160a01b0386811691841691909117909155601a8054858316908416179055601f8054918416919092161790556200030a6001600160e01b036200031816565b50505062000ae5565b335b90565b600d54600c5462000345916001600160a01b039182169116600019620003da602090811b62003c4e17901c565b601154600c5462000372916001600160a01b039182169116600019620003da602090811b62003c4e17901c565b620003ab620003896001600160e01b03620004f416565b600c546001600160a01b031690600019620003da602090811b62003c4e17901c565b600e54600c54620003d8916001600160a01b039182169116600019620003da602090811b62003c4e17901c565b565b801580620004695750604051636eb1769f60e11b81526001600160a01b0384169063dd62ed3e90620004139030908690600401620009d0565b60206040518083038186803b1580156200042c57600080fd5b505afa15801562000441573d6000803e3d6000fd5b505050506040513d601f19601f8201168201806040525062000467919081019062000824565b155b620004915760405162461bcd60e51b8152600401620004889062000a32565b60405180910390fd5b604051620004ef90849063095ea7b360e01b90620004b69086908690602401620009ef565b60408051808303601f190181529190526020810180516001600160e01b0319939093166001600160e01b03938416179052906200057a16565b505050565b600f546040805163076b7fbb60e51b815290516000926001600160a01b03169163ed6ff760916004808301926020929190829003018186803b1580156200053a57600080fd5b505afa1580156200054f573d6000803e3d6000fd5b505050506040513d601f19601f820116820180604052506200057591908101906200078e565b905090565b62000599826001600160a01b03166200068260201b620045e21760201c565b620005b85760405162461bcd60e51b8152600401620004889062000a44565b60006060836001600160a01b031683604051620005d69190620009bb565b6000604051808303816000865af19150503d806000811462000615576040519150601f19603f3d011682016040523d82523d6000602084013e6200061a565b606091505b5091509150816200063f5760405162461bcd60e51b8152600401620004889062000a0e565b8051156200067c57808060200190516200065d919081019062000803565b6200067c5760405162461bcd60e51b8152600401620004889062000a20565b50505050565b6000813f7fc5d2460186f7233c927e7db2dcc703c0e500b653ca82273b7bfad8045d85a4708115801590620006b75750808214155b949350505050565b828054600181600116156101000203166002900490600052602060002090601f016020900481019282601f106200070257805160ff191683800117855562000732565b8280016001018555821562000732579182015b828111156200073257825182559160200191906001019062000715565b506200074092915062000744565b5090565b6200031591905b808211156200074057600081556001016200074b565b80516200076e8162000ab5565b92915050565b80516200076e8162000acf565b80516200076e8162000ada565b600060208284031215620007a157600080fd5b6000620006b7848462000761565b600080600060608486031215620007c557600080fd5b6000620007d3868662000761565b9350506020620007e68682870162000761565b9250506040620007f98682870162000761565b9150509250925092565b6000602082840312156200081657600080fd5b6000620006b7848462000774565b6000602082840312156200083757600080fd5b6000620006b7848462000781565b620008508162000a68565b82525050565b6000620008638262000a56565b6200086f818562000a5a565b93506200088181856020860162000a86565b9290920192915050565b60006200089a60208362000a5f565b7f5361666545524332303a206c6f772d6c6576656c2063616c6c206661696c6564815260200192915050565b6000620008d5602a8362000a5f565b7f5361666545524332303a204552433230206f7065726174696f6e20646964206e8152691bdd081cdd58d8d9595960b21b602082015260400192915050565b60006200092360368362000a5f565b7f5361666545524332303a20617070726f76652066726f6d206e6f6e2d7a65726f81527f20746f206e6f6e2d7a65726f20616c6c6f77616e636500000000000000000000602082015260400192915050565b600062000984601f8362000a5f565b7f5361666545524332303a2063616c6c20746f206e6f6e2d636f6e747261637400815260200192915050565b620008508162000315565b6000620009c9828462000856565b9392505050565b60408101620009e0828562000845565b620009c9602083018462000845565b60408101620009ff828562000845565b620009c96020830184620009b0565b602080825281016200076e816200088b565b602080825281016200076e81620008c6565b602080825281016200076e8162000914565b602080825281016200076e8162000975565b5190565b919050565b90815260200190565b60006200076e8262000a7a565b151590565b6001600160a01b031690565b60005b8381101562000aa357818101518382015260200162000a89565b838111156200067c5750506000910152565b62000ac08162000a68565b811462000acc57600080fd5b50565b62000ac08162000a75565b62000ac08162000315565b615b5a8062000af56000396000f3fe6080604052600436106104ec5760003560e01c80637f50d4d811610294578063cf8ca4261161015e578063f29e15a2116100d6578063f5ff19161161008a578063f7c1ec771161006f578063f7c1ec7714610c63578063f82ce27d14610c78578063fc0c546a14610c8d576104ec565b8063f5ff191614610c2e578063f69e204614610c4e576104ec565b8063f34ce4bb116100bb578063f34ce4bb14610be4578063f4b9fa7514610c04578063f5a41dea14610c19576104ec565b8063f29e15a214610baf578063f2fde38b14610bc4576104ec565b8063e849d6591161012d578063ebc5116011610112578063ebc5116014610b65578063f02fbd4a14610b7a578063f2978d9814610b9a576104ec565b8063e849d65914610b25578063eb56faf014610b45576104ec565b8063cf8ca42614610abb578063d9d7858a14610ad0578063dd62ed3e14610ae5578063e26f21bf14610b05576104ec565b80639ff011b91161020c578063a9a1015a116101c0578063b69ef8a8116101a5578063b69ef8a814610a66578063b6b55f2514610a7b578063bea9849e14610a9b576104ec565b8063a9a1015a14610a31578063b19ab07614610a51576104ec565b8063a457c2d7116101f1578063a457c2d7146109dc578063a7287971146109fc578063a9059cbb14610a11576104ec565b80639ff011b9146109a7578063a160176d146109c7576104ec565b80638da5cb5b116102635780638f32d59b116102485780638f32d59b1461096857806395d89b411461097d57806399b71d5c14610992576104ec565b80638da5cb5b1461093e5780638e4ec6ef14610953576104ec565b80637f50d4d8146108d25780638124955c146108f4578063819faf7b14610914578063858409ba14610929576104ec565b8063413e920d116103d55780636ff2bf081161034d578063735de9f71161030157806377c7b8fc116102e657806377c7b8fc146108885780637b82784c1461089d5780637d7c2a1c146108bd576104ec565b8063735de9f71461085e57806375b5be2d14610873576104ec565b80637137ef99116103325780637137ef991461081f578063715018a6146108345780637354b2e914610849576104ec565b80636ff2bf08146107ea57806370a08231146107ff576104ec565b806350f62da7116103a457806358782c211161038957806358782c21146107a057806361c1ec55146107b557806365aab749146107ca576104ec565b806350f62da71461076b57806357ded9c91461078b576104ec565b8063413e920d1461070157806346357473146107165780634fd96cb6146107365780634fe4112914610756576104ec565b8063202a2735116104685780632eb4520a11610437578063395093511161041c57806339509351146106b757806339c0a7e1146106d75780633fc8cef3146106ec576104ec565b80632eb4520a14610675578063313ce56714610695576104ec565b8063202a27351461060b57806323b872dd146106205780632622678c146106405780632e1a7d4d14610655576104ec565b8063095ea7b3116104bf57806310391d25116104a457806310391d25146105cc57806316f0115b146105e157806318160ddd146105f6576104ec565b8063095ea7b31461058a5780630eb2a267146105b7576104ec565b806306636c1c146104ee57806306a3fe591461052457806306fdde0314610546578063085d488314610568575b005b3480156104fa57600080fd5b5061050e610509366004614a55565b610ca2565b60405161051b9190615823565b60405180910390f35b34801561053057600080fd5b50610539610e59565b60405161051b9190615548565b34801561055257600080fd5b5061055b610e75565b60405161051b9190615667565b34801561057457600080fd5b5061057d610f2a565b60405161051b9190615639565b34801561059657600080fd5b506105aa6105a5366004614928565b610f4b565b60405161051b919061561d565b3480156105c357600080fd5b5061050e610f69565b3480156105d857600080fd5b5061050e611015565b3480156105ed57600080fd5b5061050e61101b565b34801561060257600080fd5b5061050e611021565b34801561061757600080fd5b5061050e611027565b34801561062c57600080fd5b506105aa61063b3660046148db565b61102d565b34801561064c57600080fd5b506105396110d5565b34801561066157600080fd5b506104ec610670366004614a55565b6110f1565b34801561068157600080fd5b506104ec610690366004614804565b61184c565b3480156106a157600080fd5b506106aa6118d1565b60405161051b91906158c0565b3480156106c357600080fd5b506105aa6106d2366004614928565b6118da565b3480156106e357600080fd5b5061050e61193b565b3480156106f857600080fd5b50610539611a08565b34801561070d57600080fd5b5061050e611a24565b34801561072257600080fd5b506104ec610731366004614804565b611a2b565b34801561074257600080fd5b506104ec610751366004614804565b611ab0565b34801561076257600080fd5b506104ec611b35565b34801561077757600080fd5b5061050e610786366004614804565b611bc3565b34801561079757600080fd5b50610539611bd5565b3480156107ac57600080fd5b50610539611bf1565b3480156107c157600080fd5b5061050e611c0d565b3480156107d657600080fd5b506104ec6107e5366004614a55565b611c64565b3480156107f657600080fd5b5061050e611cfd565b34801561080b57600080fd5b5061050e61081a366004614804565b611d9d565b34801561082b57600080fd5b5061050e611dc9565b34801561084057600080fd5b506104ec611dff565b34801561085557600080fd5b5061050e611eac565b34801561086a57600080fd5b50610539611eb2565b34801561087f57600080fd5b50610539611ece565b34801561089457600080fd5b5061050e611eea565b3480156108a957600080fd5b5061050e6108b8366004614804565b611f1d565b3480156108c957600080fd5b506104ec611f2f565b3480156108de57600080fd5b506108e7612068565b60405161051b919061562b565b34801561090057600080fd5b506104ec61090f366004614a55565b612084565b34801561092057600080fd5b50610539612166565b34801561093557600080fd5b5061050e612182565b34801561094a57600080fd5b50610539612188565b34801561095f57600080fd5b506105396121a4565b34801561097457600080fd5b506105aa6121c0565b34801561098957600080fd5b5061055b612200565b34801561099e57600080fd5b506104ec61227f565b3480156109b357600080fd5b506104ec6109c2366004614a55565b6123c2565b3480156109d357600080fd5b5061057d612405565b3480156109e857600080fd5b506105aa6109f7366004614928565b61255b565b348015610a0857600080fd5b5061050e6125d6565b348015610a1d57600080fd5b506105aa610a2c366004614928565b6126a5565b348015610a3d57600080fd5b506104ec610a4c366004614928565b6126b9565b348015610a5d57600080fd5b506105396127a2565b348015610a7257600080fd5b5061050e6127be565b348015610a8757600080fd5b506104ec610a96366004614a55565b612815565b348015610aa757600080fd5b506104ec610ab6366004614804565b6129a3565b348015610ac757600080fd5b5061050e612a28565b348015610adc57600080fd5b5061050e612a7f565b348015610af157600080fd5b5061050e610b00366004614840565b612a85565b348015610b1157600080fd5b506104ec610b20366004614a55565b612abd565b348015610b3157600080fd5b506104ec610b40366004614a55565b612b00565b348015610b5157600080fd5b506104ec610b60366004614a91565b612bdf565b348015610b7157600080fd5b5061050e612c2b565b348015610b8657600080fd5b506104ec610b95366004614a55565b612c31565b348015610ba657600080fd5b5061050e612c74565b348015610bbb57600080fd5b5061050e612c7a565b348015610bd057600080fd5b506104ec610bdf366004614804565b612c80565b348015610bf057600080fd5b5061050e610bff36600461487a565b612cc7565b348015610c1057600080fd5b50610539612e8e565b348015610c2557600080fd5b5061050e612eaa565b348015610c3a57600080fd5b506104ec610c49366004614804565b612f63565b348015610c5a57600080fd5b50610539612fe8565b348015610c6f57600080fd5b50610539613004565b348015610c8457600080fd5b506105396130a7565b348015610c9957600080fd5b50610539613112565b60408051600180825281830190925260009160609190816020015b610cc5614619565b815260200190600190039081610cbd57905050905060405180604001604052803073ffffffffffffffffffffffffffffffffffffffff168152602001600081525081600081518110610d1357fe5b6020026020010181905250610d26614630565b6040805160808101909152600181526020810160008152602001600081526020018590529050610d54614659565b600081819052506000602082015260408082018390526012546060808401919091523060a0840152815160018082528184019093529091816020015b610d98614659565b815260200190600190039081610d905790505090508181600081518110610dbb57fe5b60209081029190910101526011546040517fa67a6a4500000000000000000000000000000000000000000000000000000000815273ffffffffffffffffffffffffffffffffffffffff9091169063a67a6a4590610e1e90879085906004016155f8565b600060405180830381600087803b158015610e3857600080fd5b505af1158015610e4c573d6000803e3d6000fd5b5050505050505050919050565b60105473ffffffffffffffffffffffffffffffffffffffff1681565b60038054604080516020601f60027fffffffffffffffffffffffffffffffffffffffffffffffffffffffffffffffff610100600188161502019095169490940493840181900481028201810190925282815260609390929091830182828015610f1f5780601f10610ef457610100808354040283529160200191610f1f565b820191906000526020600020905b815481529060010190602001808311610f0257829003601f168201915b505050505090505b90565b601f5474010000000000000000000000000000000000000000900460ff1681565b6000610f5f610f5861312e565b8484613132565b5060015b92915050565b600e546040517f70a0823100000000000000000000000000000000000000000000000000000000815260009173ffffffffffffffffffffffffffffffffffffffff16906370a0823190610fc0903090600401615556565b60206040518083038186803b158015610fd857600080fd5b505afa158015610fec573d6000803e3d6000fd5b505050506040513d601f19601f820116820180604052506110109190810190614a73565b905090565b60095481565b600b5481565b60025490565b601e5481565b600061103a848484613241565b6110ca8461104661312e565b6110c585604051806060016040528060288152602001615acb6028913973ffffffffffffffffffffffffffffffffffffffff8a1660009081526001602052604081209061109161312e565b73ffffffffffffffffffffffffffffffffffffffff168152602081019190915260400160002054919063ffffffff6133cc16565b613132565b5060015b9392505050565b601a5473ffffffffffffffffffffffffffffffffffffffff1681565b600680546001019081905561110533613412565b15611145576040517f08c379a000000000000000000000000000000000000000000000000000000000815260040161113c90615738565b60405180910390fd5b6000821161117f576040517f08c379a000000000000000000000000000000000000000000000000000000000815260040161113c90615758565b600061118a33611d9d565b9050808311156111c6576040517f08c379a000000000000000000000000000000000000000000000000000000000815260040161113c90615748565b6111ce611dc9565b600b5560006111db611cfd565b905060006112066002546111fa87600b5461341890919063ffffffff16565b9063ffffffff61346c16565b9050611211816134ae565b604080518082018252601d81527f72656465656d20616d6f756e7420657863656564732062616c616e636500000060208083019190915233600090815290819052919091205461126891879063ffffffff6133cc16565b3360009081526020819052604090205560025461128b908663ffffffff61360616565b60025560405160009033907fddf252ad1be2c89b69c2b068fc378daa952ba7f163c4a11628f55a4df523b3ef906112c3908990615823565b60405180910390a3600c546040517f70a0823100000000000000000000000000000000000000000000000000000000815260009173ffffffffffffffffffffffffffffffffffffffff16906370a0823190611322903090600401615556565b60206040518083038186803b15801561133a57600080fd5b505afa15801561134e573d6000803e3d6000fd5b505050506040513d601f19601f820116820180604052506113729190810190614a73565b9050818110156113945761139461138f838363ffffffff61360616565b613648565b60006113bf600a546113b36009546008546137b290919063ffffffff16565b9063ffffffff6137b216565b905060006113e068056bc75e2d631000006111fa868563ffffffff61341816565b3360009081526014602090815260408083204390556015909152902054909150611410908563ffffffff61360616565b336000818152601560205260409081902092909255601b5491517fa9059cbb00000000000000000000000000000000000000000000000000000000815273ffffffffffffffffffffffffffffffffffffffff9092169163a9059cbb9161147a918990600401615564565b602060405180830381600087803b15801561149457600080fd5b505af11580156114a8573d6000803e3d6000fd5b505050506040513d601f19601f820116820180604052506114cc919081019061498d565b5060006114d8826137f1565b601b546040517f70a0823100000000000000000000000000000000000000000000000000000000815291925060009173ffffffffffffffffffffffffffffffffffffffff909116906370a0823190611534908490600401615556565b60206040518083038186803b15801561154c57600080fd5b505afa158015611560573d6000803e3d6000fd5b505050506040513d601f19601f820116820180604052506115849190810190614a73565b905060006115c768056bc75e2d631000006111fa6115ba886111fa60095468056bc75e2d6310000061341890919063ffffffff16565b869063ffffffff61341816565b9050601c548210156116b157600061161468056bc75e2d631000006111fa611607896111fa600a5468056bc75e2d6310000061341890919063ffffffff16565b879063ffffffff61341816565b905061161f816139cd565b50600061166168056bc75e2d631000006111fa6116548a6111fa60085468056bc75e2d6310000061341890919063ffffffff16565b889063ffffffff61341816565b601a5460405191925073ffffffffffffffffffffffffffffffffffffffff169082156108fc029083906000818181858888f193505050501580156116a9573d6000803e3d6000fd5b50505061170e565b60006116c3848363ffffffff61360616565b601a5460405191925073ffffffffffffffffffffffffffffffffffffffff169082156108fc029083906000818181858888f1935050505015801561170b573d6000803e3d6000fd5b50505b601f5460405160009173ffffffffffffffffffffffffffffffffffffffff169083906117399061553d565b60006040518083038185875af1925050503d8060008114611776576040519150601f19603f3d011682016040523d82523d6000602084013e61177b565b606091505b50509050806117b6576040517f08c379a000000000000000000000000000000000000000000000000000000000815260040161113c906156e8565b6117f0336117ca8a8863ffffffff61360616565b600c5473ffffffffffffffffffffffffffffffffffffffff16919063ffffffff613b2b16565b6117f8611dc9565b600b55611803611f2f565b505050505050505050506006548114611848576040517f08c379a000000000000000000000000000000000000000000000000000000000815260040161113c906157c8565b5050565b6118546121c0565b61188a576040517f08c379a000000000000000000000000000000000000000000000000000000000815260040161113c90615728565b601a80547fffffffffffffffffffffffff00000000000000000000000000000000000000001673ffffffffffffffffffffffffffffffffffffffff92909216919091179055565b60055460ff1690565b6000610f5f6118e761312e565b846110c585600160006118f861312e565b73ffffffffffffffffffffffffffffffffffffffff908116825260208083019390935260409182016000908120918c16815292529020549063ffffffff6137b216565b6000611945614619565b6011546040805180820182523081526000602082015260125491517fc190c2ec00000000000000000000000000000000000000000000000000000000815273ffffffffffffffffffffffffffffffffffffffff9093169263c190c2ec926119af9291600401615808565b604080518083038186803b1580156119c657600080fd5b505afa1580156119da573d6000803e3d6000fd5b505050506040513d601f19601f820116820180604052506119fe9190810190614a37565b6020015191505090565b60185473ffffffffffffffffffffffffffffffffffffffff1681565b620f424081565b611a336121c0565b611a69576040517f08c379a000000000000000000000000000000000000000000000000000000000815260040161113c90615728565b601380547fffffffffffffffffffffffff00000000000000000000000000000000000000001673ffffffffffffffffffffffffffffffffffffffff92909216919091179055565b611ab86121c0565b611aee576040517f08c379a000000000000000000000000000000000000000000000000000000000815260040161113c90615728565b601b80547fffffffffffffffffffffffff00000000000000000000000000000000000000001673ffffffffffffffffffffffffffffffffffffffff92909216919091179055565b611b3d6121c0565b611b73576040517f08c379a000000000000000000000000000000000000000000000000000000000815260040161113c90615728565b611b7b612188565b73ffffffffffffffffffffffffffffffffffffffff166108fc479081150290604051600060405180830381858888f19350505050158015611bc0573d6000803e3d6000fd5b50565b60156020526000908152604090205481565b60135473ffffffffffffffffffffffffffffffffffffffff1681565b600e5473ffffffffffffffffffffffffffffffffffffffff1681565b600d546040517f70a0823100000000000000000000000000000000000000000000000000000000815260009173ffffffffffffffffffffffffffffffffffffffff16906370a0823190610fc0903090600401615556565b611c6c613004565b600c546040517fd2d0e06600000000000000000000000000000000000000000000000000000000815273ffffffffffffffffffffffffffffffffffffffff9283169263d2d0e06692611cc89291169085906000906004016155d0565b600060405180830381600087803b158015611ce257600080fd5b505af1158015611cf6573d6000803e3d6000fd5b5050505050565b33600090815260146020526040812054819015611d3c5733600090815260146020526040902054611d3590439063ffffffff61360616565b9050611d46565b6000915050610f27565b601d54336000908152601560205260408120549091611d9691611964916111fa918691611d8a91670de0b6b3a76400009185918490620f424063ffffffff61346c16565b9063ffffffff61341816565b9250505090565b73ffffffffffffffffffffffffffffffffffffffff81166000908152602081905260409020545b919050565b6000611010611dd66127be565b6113b3611de1612a28565b6113b3611dec61193b565b6113b3611df7612eaa565b6113b36125d6565b611e076121c0565b611e3d576040517f08c379a000000000000000000000000000000000000000000000000000000000815260040161113c90615728565b60075460405160009173ffffffffffffffffffffffffffffffffffffffff16907f8be0079c531659141344cd1fd0a4f28419497f9722a3daafe3b4186f6b6457e0908390a3600780547fffffffffffffffffffffffff0000000000000000000000000000000000000000169055565b60085481565b60165473ffffffffffffffffffffffffffffffffffffffff1681565b60175473ffffffffffffffffffffffffffffffffffffffff1681565b600080611ef5611dc9565b600254909150611f17906111fa83670de0b6b3a764000063ffffffff61341816565b91505090565b60146020526000908152604090205481565b6000611f39612405565b601f5490915074010000000000000000000000000000000000000000900460ff166004811115611f6557fe5b816004811115611f7157fe5b14611f7e57611f7e613be8565b6000611f886127be565b1115612015576001816004811115611f9c57fe5b1415611fb357611fad6105096127be565b50612015565b6004816004811115611fc157fe5b1415611fd757611fd261090f6127be565b612015565b6002816004811115611fe557fe5b1415611ff657611fd2610b406127be565b600381600481111561200457fe5b1415612015576120156107e56127be565b601f80548291907fffffffffffffffffffffff00ffffffffffffffffffffffffffffffffffffffff167401000000000000000000000000000000000000000083600481111561206057fe5b021790555050565b601b5473ffffffffffffffffffffffffffffffffffffffff1681565b600e546040517f40c10f1900000000000000000000000000000000000000000000000000000000815260009173ffffffffffffffffffffffffffffffffffffffff16906340c10f19906120dd9030908690600401615564565b602060405180830381600087803b1580156120f757600080fd5b505af115801561210b573d6000803e3d6000fd5b505050506040513d601f19601f8201168201806040525061212f9190810190614a73565b11611bc0576040517f08c379a000000000000000000000000000000000000000000000000000000000815260040161113c906157a8565b600f5473ffffffffffffffffffffffffffffffffffffffff1681565b600a5481565b60075473ffffffffffffffffffffffffffffffffffffffff1690565b60115473ffffffffffffffffffffffffffffffffffffffff1681565b60075460009073ffffffffffffffffffffffffffffffffffffffff166121e461312e565b73ffffffffffffffffffffffffffffffffffffffff1614905090565b60048054604080516020601f60027fffffffffffffffffffffffffffffffffffffffffffffffffffffffffffffffff610100600188161502019095169490940493840181900481028201810190925282815260609390929091830182828015610f1f5780601f10610ef457610100808354040283529160200191610f1f565b600d54600c546122cf9173ffffffffffffffffffffffffffffffffffffffff91821691167fffffffffffffffffffffffffffffffffffffffffffffffffffffffffffffffff63ffffffff613c4e16565b601154600c5461231f9173ffffffffffffffffffffffffffffffffffffffff91821691167fffffffffffffffffffffffffffffffffffffffffffffffffffffffffffffffff63ffffffff613c4e16565b61237061232a6130a7565b600c5473ffffffffffffffffffffffffffffffffffffffff16907fffffffffffffffffffffffffffffffffffffffffffffffffffffffffffffffff63ffffffff613c4e16565b600e54600c546123c09173ffffffffffffffffffffffffffffffffffffffff91821691167fffffffffffffffffffffffffffffffffffffffffffffffffffffffffffffffff63ffffffff613c4e16565b565b6123ca6121c0565b612400576040517f08c379a000000000000000000000000000000000000000000000000000000000815260040161113c90615728565b601255565b601354600c546040517fd88be3c0000000000000000000000000000000000000000000000000000000008152600092839283928392839273ffffffffffffffffffffffffffffffffffffffff9182169263d88be3c092612469921690600401615548565b60006040518083038186803b15801561248157600080fd5b505afa158015612495573d6000803e3d6000fd5b505050506040513d6000823e601f3d9081017fffffffffffffffffffffffffffffffffffffffffffffffffffffffffffffffe01682016040526124db91908101906149ab565b929750909550935091506000905084156124f25750835b808411156124fd5750825b808311156125085750815b808211156125135750805b60008186141561252557506002612551565b8482141561253557506004612551565b8382141561254557506003612551565b82821415612551575060015b9550505050505090565b6000610f5f61256861312e565b846110c585604051806060016040528060258152602001615af3602591396001600061259261312e565b73ffffffffffffffffffffffffffffffffffffffff908116825260208083019390935260409182016000908120918d1681529252902054919063ffffffff6133cc16565b6000806125e1611c0d565b9050801561101057610f63670de0b6b3a76400006111fa600d60009054906101000a900473ffffffffffffffffffffffffffffffffffffffff1673ffffffffffffffffffffffffffffffffffffffff1663182df0f56040518163ffffffff1660e01b815260040160206040518083038186803b15801561266057600080fd5b505afa158015612674573d6000803e3d6000fd5b505050506040513d601f19601f820116820180604052506126989190810190614a73565b849063ffffffff61341816565b6000610f5f6126b261312e565b8484613241565b6126c16121c0565b6126f7576040517f08c379a000000000000000000000000000000000000000000000000000000000815260040161113c90615728565b6040517fa9059cbb00000000000000000000000000000000000000000000000000000000815273ffffffffffffffffffffffffffffffffffffffff83169063a9059cbb9061274b9033908590600401615564565b602060405180830381600087803b15801561276557600080fd5b505af1158015612779573d6000803e3d6000fd5b505050506040513d601f19601f8201168201806040525061279d919081019061498d565b505050565b601f5473ffffffffffffffffffffffffffffffffffffffff1681565b600c546040517f70a0823100000000000000000000000000000000000000000000000000000000815260009173ffffffffffffffffffffffffffffffffffffffff16906370a0823190610fc0903090600401615556565b600680546001019081905561282933613412565b15612860576040517f08c379a000000000000000000000000000000000000000000000000000000000815260040161113c90615738565b6000821161289a576040517f08c379a000000000000000000000000000000000000000000000000000000000815260040161113c90615798565b6128a3826134ae565b6128ab611dc9565b600b55600c546128d99073ffffffffffffffffffffffffffffffffffffffff1633308563ffffffff613d6d16565b3360009081526014602090815260408083204390556015909152902054612906908363ffffffff6137b216565b33600090815260156020526040812091909155600b5461292c5750600b8290558161294a565b612947600b546111fa6002548661341890919063ffffffff16565b90505b612952611dc9565b600b5561295f3382613db0565b612967611f2f565b506006548114611848576040517f08c379a000000000000000000000000000000000000000000000000000000000815260040161113c906157c8565b6129ab6121c0565b6129e1576040517f08c379a000000000000000000000000000000000000000000000000000000000815260040161113c90615728565b601680547fffffffffffffffffffffffff00000000000000000000000000000000000000001673ffffffffffffffffffffffffffffffffffffffff92909216919091179055565b6010546040517f70a0823100000000000000000000000000000000000000000000000000000000815260009173ffffffffffffffffffffffffffffffffffffffff16906370a0823190610fc0903090600401615556565b60125481565b73ffffffffffffffffffffffffffffffffffffffff918216600090815260016020908152604080832093909416825291909152205490565b612ac56121c0565b612afb576040517f08c379a000000000000000000000000000000000000000000000000000000000815260040161113c90615728565b601e55565b600d546040517fa0712d6800000000000000000000000000000000000000000000000000000000815273ffffffffffffffffffffffffffffffffffffffff9091169063a0712d6890612b56908490600401615823565b602060405180830381600087803b158015612b7057600080fd5b505af1158015612b84573d6000803e3d6000fd5b505050506040513d601f19601f82011682018060405250612ba89190810190614a73565b15611bc0576040517f08c379a000000000000000000000000000000000000000000000000000000000815260040161113c906156c8565b612be76121c0565b612c1d576040517f08c379a000000000000000000000000000000000000000000000000000000000815260040161113c90615728565b600892909255600955600a55565b601d5481565b612c396121c0565b612c6f576040517f08c379a000000000000000000000000000000000000000000000000000000000815260040161113c90615728565b601d55565b61196481565b601c5481565b612c886121c0565b612cbe576040517f08c379a000000000000000000000000000000000000000000000000000000000815260040161113c90615728565b611bc081613eb1565b60408051600380825260808201909252600091606091906020820183803883390190505090508581600081518110612cfb57fe5b602002602001019073ffffffffffffffffffffffffffffffffffffffff16908173ffffffffffffffffffffffffffffffffffffffff16815250508481600181518110612d4357fe5b602002602001019073ffffffffffffffffffffffffffffffffffffffff16908173ffffffffffffffffffffffffffffffffffffffff16815250508381600281518110612d8b57fe5b73ffffffffffffffffffffffffffffffffffffffff92831660209182029290920101526040517fd06ca61f00000000000000000000000000000000000000000000000000000000815260609185169063d06ca61f90612df890670de0b6b3a7640000908690600401615647565b60006040518083038186803b158015612e1057600080fd5b505afa158015612e24573d6000803e3d6000fd5b505050506040513d6000823e601f3d9081017fffffffffffffffffffffffffffffffffffffffffffffffffffffffffffffffe0168201604052612e6a9190810190614958565b905080600281518110612e7957fe5b6020026020010151925050505b949350505050565b60195473ffffffffffffffffffffffffffffffffffffffff1681565b600080612eb5610f69565b9050801561101057600e546040517f06b3efd600000000000000000000000000000000000000000000000000000000815273ffffffffffffffffffffffffffffffffffffffff909116906306b3efd690612f13903090600401615556565b60206040518083038186803b158015612f2b57600080fd5b505afa158015612f3f573d6000803e3d6000fd5b505050506040513d601f19601f82011682018060405250610f639190810190614a73565b612f6b6121c0565b612fa1576040517f08c379a000000000000000000000000000000000000000000000000000000000815260040161113c90615728565b600d80547fffffffffffffffffffffffff00000000000000000000000000000000000000001673ffffffffffffffffffffffffffffffffffffffff92909216919091179055565b600d5473ffffffffffffffffffffffffffffffffffffffff1681565b600f54604080517f0261bf8b000000000000000000000000000000000000000000000000000000008152905160009273ffffffffffffffffffffffffffffffffffffffff1691630261bf8b916004808301926020929190829003018186803b15801561306f57600080fd5b505afa158015613083573d6000803e3d6000fd5b505050506040513d601f19601f820116820180604052506110109190810190614822565b600f54604080517fed6ff760000000000000000000000000000000000000000000000000000000008152905160009273ffffffffffffffffffffffffffffffffffffffff169163ed6ff760916004808301926020929190829003018186803b15801561306f57600080fd5b600c5473ffffffffffffffffffffffffffffffffffffffff1681565b3390565b73ffffffffffffffffffffffffffffffffffffffff831661317f576040517f08c379a000000000000000000000000000000000000000000000000000000000815260040161113c90615788565b73ffffffffffffffffffffffffffffffffffffffff82166131cc576040517f08c379a000000000000000000000000000000000000000000000000000000000815260040161113c906156b8565b73ffffffffffffffffffffffffffffffffffffffff80841660008181526001602090815260408083209487168084529490915290819020849055517f8c5be1e5ebec7d5bd14f71427d1e84f3dd0314c0f7b2291e5b200ac8c7c3b92590613234908590615823565b60405180910390a3505050565b73ffffffffffffffffffffffffffffffffffffffff831661328e576040517f08c379a000000000000000000000000000000000000000000000000000000000815260040161113c90615768565b73ffffffffffffffffffffffffffffffffffffffff82166132db576040517f08c379a000000000000000000000000000000000000000000000000000000000815260040161113c90615678565b61332b81604051806060016040528060268152602001615aa56026913973ffffffffffffffffffffffffffffffffffffffff8616600090815260208190526040902054919063ffffffff6133cc16565b73ffffffffffffffffffffffffffffffffffffffff808516600090815260208190526040808220939093559084168152205461336d908263ffffffff6137b216565b73ffffffffffffffffffffffffffffffffffffffff80841660008181526020819052604090819020939093559151908516907fddf252ad1be2c89b69c2b068fc378daa952ba7f163c4a11628f55a4df523b3ef90613234908590615823565b6000818484111561340a576040517f08c379a000000000000000000000000000000000000000000000000000000000815260040161113c9190615667565b505050900390565b3b151590565b60008261342757506000610f63565b8282028284828161343457fe5b04146110ce576040517f08c379a000000000000000000000000000000000000000000000000000000000815260040161113c90615708565b60006110ce83836040518060400160405280601a81526020017f536166654d6174683a206469766973696f6e206279207a65726f000000000000815250613f8c565b601b546040517f70a0823100000000000000000000000000000000000000000000000000000000815260009173ffffffffffffffffffffffffffffffffffffffff16906370a0823190613505903390600401615556565b60206040518083038186803b15801561351d57600080fd5b505afa158015613531573d6000803e3d6000fd5b505050506040513d601f19601f820116820180604052506135559190810190614a73565b601b546018546019546016549394506000936135909373ffffffffffffffffffffffffffffffffffffffff9081169381169281169116612cc7565b905060006135b668056bc75e2d631000006111fa601e548761341890919063ffffffff16565b905060006135ca828463ffffffff61346c16565b905080841015611cf6576040517f08c379a000000000000000000000000000000000000000000000000000000000815260040161113c90615688565b60006110ce83836040518060400160405280601e81526020017f536166654d6174683a207375627472616374696f6e206f766572666c6f7700008152506133cc565b6002601f5474010000000000000000000000000000000000000000900460ff16600481111561367357fe5b14156136825761368281613fdd565b6003601f5474010000000000000000000000000000000000000000900460ff1660048111156136ad57fe5b14156136fd57806136bc612a28565b10156136f4576040517f08c379a000000000000000000000000000000000000000000000000000000000815260040161113c90615778565b6136fd81614055565b6001601f5474010000000000000000000000000000000000000000900460ff16600481111561372857fe5b1415613778578061373761193b565b101561376f576040517f08c379a000000000000000000000000000000000000000000000000000000000815260040161113c90615778565b613778816140ab565b6004601f5474010000000000000000000000000000000000000000900460ff1660048111156137a357fe5b1415611bc057611bc08161425c565b6000828201838110156110ce576040517f08c379a000000000000000000000000000000000000000000000000000000000815260040161113c906156d8565b6016546017546000916138249173ffffffffffffffffffffffffffffffffffffffff90811691168363ffffffff613c4e16565b6016546017546138549173ffffffffffffffffffffffffffffffffffffffff91821691168463ffffffff613c4e16565b60408051600280825260608083018452926020830190803883395050601754825192935073ffffffffffffffffffffffffffffffffffffffff169183915060009061389b57fe5b73ffffffffffffffffffffffffffffffffffffffff92831660209182029290920101526018548251911690829060019081106138d357fe5b73ffffffffffffffffffffffffffffffffffffffff9283166020918202929092010152601654606091166318cbafe585600085306139194261070863ffffffff6137b216565b6040518663ffffffff1660e01b815260040161393995949392919061586d565b600060405180830381600087803b15801561395357600080fd5b505af1158015613967573d6000803e3d6000fd5b505050506040513d6000823e601f3d9081017fffffffffffffffffffffffffffffffffffffffffffffffffffffffffffffffe01682016040526139ad9190810190614958565b9050806001815181106139bc57fe5b602002602001015192505050919050565b60408051600280825260608083018452600093909291906020830190803883395050601854825192935073ffffffffffffffffffffffffffffffffffffffff1691839150600090613a1a57fe5b73ffffffffffffffffffffffffffffffffffffffff9283166020918202929092010152601b54825191169082906001908110613a5257fe5b73ffffffffffffffffffffffffffffffffffffffff928316602091820292909201015260165460609116637ff36ab58560008581613a984261070863ffffffff6137b216565b6040518663ffffffff1660e01b8152600401613ab79493929190615831565b6000604051808303818588803b158015613ad057600080fd5b505af1158015613ae4573d6000803e3d6000fd5b50505050506040513d6000823e601f3d9081017fffffffffffffffffffffffffffffffffffffffffffffffffffffffffffffffe01682016040526139ad9190810190614958565b60405161279d9084907fa9059cbb0000000000000000000000000000000000000000000000000000000090613b6690869086906024016155c2565b604080517fffffffffffffffffffffffffffffffffffffffffffffffffffffffffffffffe08184030181529190526020810180517bffffffffffffffffffffffffffffffffffffffffffffffffffffffff167fffffffff00000000000000000000000000000000000000000000000000000000909316929092179091526142d4565b6000613bf2611c0d565b90508015613c0357613c0381614421565b613c0b61193b565b90508015613c1c57613c1c816140ab565b613c24610f69565b90508015613c3557613c3581614500565b613c3d612a28565b90508015611bc057611bc081614055565b801580613cfc57506040517fdd62ed3e00000000000000000000000000000000000000000000000000000000815273ffffffffffffffffffffffffffffffffffffffff84169063dd62ed3e90613caa903090869060040161557f565b60206040518083038186803b158015613cc257600080fd5b505afa158015613cd6573d6000803e3d6000fd5b505050506040513d601f19601f82011682018060405250613cfa9190810190614a73565b155b613d32576040517f08c379a000000000000000000000000000000000000000000000000000000000815260040161113c906157d8565b60405161279d9084907f095ea7b30000000000000000000000000000000000000000000000000000000090613b6690869086906024016155c2565b604051613daa9085907f23b872dd0000000000000000000000000000000000000000000000000000000090613b669087908790879060240161559a565b50505050565b73ffffffffffffffffffffffffffffffffffffffff8216613dfd576040517f08c379a000000000000000000000000000000000000000000000000000000000815260040161113c906157f8565b600254613e10908263ffffffff6137b216565b60025573ffffffffffffffffffffffffffffffffffffffff8216600090815260208190526040902054613e49908263ffffffff6137b216565b73ffffffffffffffffffffffffffffffffffffffff83166000818152602081905260408082209390935591519091907fddf252ad1be2c89b69c2b068fc378daa952ba7f163c4a11628f55a4df523b3ef90613ea5908590615823565b60405180910390a35050565b73ffffffffffffffffffffffffffffffffffffffff8116613efe576040517f08c379a000000000000000000000000000000000000000000000000000000000815260040161113c906156a8565b60075460405173ffffffffffffffffffffffffffffffffffffffff8084169216907f8be0079c531659141344cd1fd0a4f28419497f9722a3daafe3b4186f6b6457e090600090a3600780547fffffffffffffffffffffffff00000000000000000000000000000000000000001673ffffffffffffffffffffffffffffffffffffffff92909216919091179055565b60008183613fc7576040517f08c379a000000000000000000000000000000000000000000000000000000000815260040161113c9190615667565b506000838581613fd357fe5b0495945050505050565b6000613fe7611c0d565b90506000613ff36125d6565b90508281101561402f576040517f08c379a000000000000000000000000000000000000000000000000000000000815260040161113c90615778565b600061404a60016113b3846111fa878963ffffffff61341816565b9050613daa81614421565b6010546040517fdb006a7500000000000000000000000000000000000000000000000000000000815273ffffffffffffffffffffffffffffffffffffffff9091169063db006a7590611cc8908490600401615823565b604080516001808252818301909252606091816020015b6140ca614619565b8152602001906001900390816140c257905050905060405180604001604052803073ffffffffffffffffffffffffffffffffffffffff16815260200160008152508160008151811061411857fe5b602002602001018190525061412b614630565b6040805160808101909152600080825260208201908152602001600081526020018490529050614159614659565b600181819052506000602082015260408082018390526012546060808401919091523060a0840152815160018082528184019093529091816020015b61419d614659565b81526020019060019003908161419557905050905081816000815181106141c057fe5b60209081029190910101526011546040517fa67a6a4500000000000000000000000000000000000000000000000000000000815273ffffffffffffffffffffffffffffffffffffffff9091169063a67a6a459061422390879085906004016155f8565b600060405180830381600087803b15801561423d57600080fd5b505af1158015614251573d6000803e3d6000fd5b505050505050505050565b6000614266610f69565b90506000614272612eaa565b9050828110156142ae576040517f08c379a000000000000000000000000000000000000000000000000000000000815260040161113c90615778565b60006142c960016113b3846111fa878963ffffffff61341816565b9050613daa81614500565b6142f38273ffffffffffffffffffffffffffffffffffffffff166145e2565b614329576040517f08c379a000000000000000000000000000000000000000000000000000000000815260040161113c906157e8565b600060608373ffffffffffffffffffffffffffffffffffffffff16836040516143529190615531565b6000604051808303816000865af19150503d806000811461438f576040519150601f19603f3d011682016040523d82523d6000602084013e614394565b606091505b5091509150816143d0576040517f08c379a000000000000000000000000000000000000000000000000000000000815260040161113c906156f8565b805115613daa57808060200190516143eb919081019061498d565b613daa576040517f08c379a000000000000000000000000000000000000000000000000000000000815260040161113c906157b8565b600d546040517fdb006a7500000000000000000000000000000000000000000000000000000000815273ffffffffffffffffffffffffffffffffffffffff9091169063db006a7590614477908490600401615823565b602060405180830381600087803b15801561449157600080fd5b505af11580156144a5573d6000803e3d6000fd5b505050506040513d601f19601f820116820180604052506144c99190810190614a73565b15611bc0576040517f08c379a000000000000000000000000000000000000000000000000000000000815260040161113c90615698565b600e546040517f9dc29fac00000000000000000000000000000000000000000000000000000000815260009173ffffffffffffffffffffffffffffffffffffffff1690639dc29fac906145599030908690600401615564565b602060405180830381600087803b15801561457357600080fd5b505af1158015614587573d6000803e3d6000fd5b505050506040513d601f19601f820116820180604052506145ab9190810190614a73565b11611bc0576040517f08c379a000000000000000000000000000000000000000000000000000000000815260040161113c90615718565b6000813f7fc5d2460186f7233c927e7db2dcc703c0e500b653ca82273b7bfad8045d85a4708115801590612e865750141592915050565b604080518082019091526000808252602082015290565b604080516080810190915260008082526020820190815260200160008152602001600081525090565b604080516101008101825260008082526020820152908101614679614630565b81526020016000815260200160008152602001600073ffffffffffffffffffffffffffffffffffffffff16815260200160008152602001606081525090565b8035610f6381615a7e565b8051610f6381615a7e565b600082601f8301126146df57600080fd5b81516146f26146ed826158f5565b6158ce565b9150818183526020840193506020810190508385602084028201111561471757600080fd5b60005b83811015614743578161472d88826147f9565b845250602092830192919091019060010161471a565b5050505092915050565b8051610f6381615a92565b600082601f83011261476957600080fd5b81516147776146ed82615916565b9150808252602083016020830185838301111561479357600080fd5b61479e838284615a0c565b50505092915050565b6000604082840312156147b957600080fd5b6147c360406158ce565b905060006147d1848461474d565b82525060206147e2848483016147f9565b60208301525092915050565b8035610f6381615a9b565b8051610f6381615a9b565b60006020828403121561481657600080fd5b6000612e8684846146b8565b60006020828403121561483457600080fd5b6000612e8684846146c3565b6000806040838503121561485357600080fd5b600061485f85856146b8565b9250506020614870858286016146b8565b9150509250929050565b6000806000806080858703121561489057600080fd5b600061489c87876146b8565b94505060206148ad878288016146b8565b93505060406148be878288016146b8565b92505060606148cf878288016146b8565b91505092959194509250565b6000806000606084860312156148f057600080fd5b60006148fc86866146b8565b935050602061490d868287016146b8565b925050604061491e868287016147ee565b9150509250925092565b6000806040838503121561493b57600080fd5b600061494785856146b8565b9250506020614870858286016147ee565b60006020828403121561496a57600080fd5b815167ffffffffffffffff81111561498157600080fd5b612e86848285016146ce565b60006020828403121561499f57600080fd5b6000612e86848461474d565b600080600080600060a086880312156149c357600080fd5b855167ffffffffffffffff8111156149da57600080fd5b6149e688828901614758565b95505060206149f7888289016147f9565b9450506040614a08888289016147f9565b9350506060614a19888289016147f9565b9250506080614a2a888289016147f9565b9150509295509295909350565b600060408284031215614a4957600080fd5b6000612e8684846147a7565b600060208284031215614a6757600080fd5b6000612e8684846147ee565b600060208284031215614a8557600080fd5b6000612e8684846147f9565b600080600060608486031215614aa657600080fd5b6000614ab286866147ee565b935050602061490d868287016147ee565b6000614acf8383614b06565b505060200190565b60006110ce838361540a565b6000614aef83836154ff565b505060400190565b614b00816159c3565b82525050565b614b008161596f565b6000614b1a82615962565b614b248185615966565b9350614b2f8361595c565b8060005b83811015614b5d578151614b478882614ac3565b9750614b528361595c565b925050600101614b33565b509495945050505050565b6000614b7382615962565b614b7d8185615966565b935083602082028501614b8f8561595c565b8060005b85811015614bc95784840389528151614bac8582614ad7565b9450614bb78361595c565b60209a909a0199925050600101614b93565b5091979650505050505050565b6000614be182615962565b614beb8185615966565b9350614bf68361595c565b8060005b83811015614b5d578151614c0e8882614ae3565b9750614c198361595c565b925050600101614bfa565b614b008161597a565b6000614c3882615962565b614c428185611dc4565b9350614c52818560208601615a0c565b9290920192915050565b6000614c6782615962565b614c718185615966565b9350614c81818560208601615a0c565b614c8a81615a38565b9093019392505050565b614b00816159ca565b614b00816159d5565b614b00816159e0565b614b00816159eb565b614b00816159f6565b614b0081615a01565b6000614cd7602383615966565b7f45524332303a207472616e7366657220746f20746865207a65726f206164647281527f6573730000000000000000000000000000000000000000000000000000000000602082015260400192915050565b6000614d36605083615966565b7f596f75206d75737420686f6c6420612025206f6620796f7572206465706f736981527f7420696e2059454c4420746f6b656e7320746f2062652061626c6520746f207360208201527f74616b65206f7220776974686472617700000000000000000000000000000000604082015260600192915050565b6000614dbb601983615966565b7f434f4d504f554e443a207769746864726177206661696c656400000000000000815260200192915050565b6000614df4602683615966565b7f4f776e61626c653a206e6577206f776e657220697320746865207a65726f206181527f6464726573730000000000000000000000000000000000000000000000000000602082015260400192915050565b6000614e53602283615966565b7f45524332303a20617070726f766520746f20746865207a65726f20616464726581527f7373000000000000000000000000000000000000000000000000000000000000602082015260400192915050565b6000614eb2601783615966565b7f434f4d504f554e443a20737570706c79206661696c6564000000000000000000815260200192915050565b6000614eeb601b83615966565b7f536166654d6174683a206164646974696f6e206f766572666c6f770000000000815260200192915050565b6000614f24601c83615966565b7f446576207472656173757279207472616e73666572206661696c656400000000815260200192915050565b6000614f5d602083615966565b7f5361666545524332303a206c6f772d6c6576656c2063616c6c206661696c6564815260200192915050565b6000614f96602183615966565b7f536166654d6174683a206d756c7469706c69636174696f6e206f766572666c6f81527f7700000000000000000000000000000000000000000000000000000000000000602082015260400192915050565b6000614ff5601883615966565b7f46554c4352554d3a207769746864726177206661696c65640000000000000000815260200192915050565b600061502e602083615966565b7f4f776e61626c653a2063616c6c6572206973206e6f7420746865206f776e6572815260200192915050565b6000615067603383615966565b7f436f6e74726163747320617265206e6f7420616c6c6f77656420746f20696e7481527f6572616374207769746820746865206661726d00000000000000000000000000602082015260400192915050565b60006150c6601483615966565b7f696e73756666696369656e742062616c616e6365000000000000000000000000815260200192915050565b60006150ff601f83615966565b7f7769746864726177206d7573742062652067726561746572207468616e203000815260200192915050565b6000615138602583615966565b7f45524332303a207472616e736665722066726f6d20746865207a65726f20616481527f6472657373000000000000000000000000000000000000000000000000000000602082015260400192915050565b6000610f63600083611dc4565b60006151a4601283615966565b7f696e73756666696369656e742066756e64730000000000000000000000000000815260200192915050565b60006151dd602483615966565b7f45524332303a20617070726f76652066726f6d20746865207a65726f2061646481527f7265737300000000000000000000000000000000000000000000000000000000602082015260400192915050565b600061523c601e83615966565b7f6465706f736974206d7573742062652067726561746572207468616e20300000815260200192915050565b6000615275601683615966565b7f46554c4352554d3a20737570706c79206661696c656400000000000000000000815260200192915050565b60006152ae602a83615966565b7f5361666545524332303a204552433230206f7065726174696f6e20646964206e81527f6f74207375636365656400000000000000000000000000000000000000000000602082015260400192915050565b600061530d601f83615966565b7f5265656e7472616e637947756172643a207265656e7472616e742063616c6c00815260200192915050565b6000615346603683615966565b7f5361666545524332303a20617070726f76652066726f6d206e6f6e2d7a65726f81527f20746f206e6f6e2d7a65726f20616c6c6f77616e636500000000000000000000602082015260400192915050565b60006153a5601f83615966565b7f5361666545524332303a2063616c6c20746f206e6f6e2d636f6e747261637400815260200192915050565b60006153de601f83615966565b7f45524332303a206d696e7420746f20746865207a65726f206164647265737300815260200192915050565b805160009061016084019061541f8582614c9d565b506020830151615432602086018261551f565b50604083015161544560408601826154b5565b50606083015161545860c086018261551f565b50608083015161546b60e086018261551f565b5060a083015161547f610100860182614b06565b5060c083015161549361012086018261551f565b5060e08301518482036101408601526154ac8282614c5c565b95945050505050565b805160808301906154c68482614c24565b5060208201516154d96020850182614ca6565b5060408201516154ec6040850182614ca6565b506060820151613daa606085018261551f565b805160408301906155108482614b06565b506020820151613daa60208501825b614b0081610f27565b614b00816159bd565b60006110ce8284614c2d565b6000610f638261518a565b60208101610f638284614b06565b60208101610f638284614af7565b604081016155728285614af7565b6110ce602083018461551f565b6040810161558d8285614b06565b6110ce6020830184614b06565b606081016155a88286614b06565b6155b56020830185614b06565b612e86604083018461551f565b604081016155728285614b06565b606081016155de8286614b06565b6155eb602083018561551f565b612e866040830184614cb8565b604080825281016156098185614bd6565b90508181036020830152612e868184614b68565b60208101610f638284614c24565b60208101610f638284614c94565b60208101610f638284614caf565b604081016156558285614cc1565b8181036020830152612e868184614b0f565b602080825281016110ce8184614c5c565b60208082528101610f6381614cca565b60208082528101610f6381614d29565b60208082528101610f6381614dae565b60208082528101610f6381614de7565b60208082528101610f6381614e46565b60208082528101610f6381614ea5565b60208082528101610f6381614ede565b60208082528101610f6381614f17565b60208082528101610f6381614f50565b60208082528101610f6381614f89565b60208082528101610f6381614fe8565b60208082528101610f6381615021565b60208082528101610f638161505a565b60208082528101610f63816150b9565b60208082528101610f63816150f2565b60208082528101610f638161512b565b60208082528101610f6381615197565b60208082528101610f63816151d0565b60208082528101610f638161522f565b60208082528101610f6381615268565b60208082528101610f63816152a1565b60208082528101610f6381615300565b60208082528101610f6381615339565b60208082528101610f6381615398565b60208082528101610f63816153d1565b6060810161581682856154ff565b6110ce604083018461551f565b60208101610f63828461551f565b6080810161583f828761551f565b81810360208301526158518186614b0f565b90506158606040830185614af7565b6154ac606083018461551f565b60a0810161587b828861551f565b615888602083018761551f565b818103604083015261589a8186614b0f565b90506158a96060830185614af7565b6158b6608083018461551f565b9695505050505050565b60208101610f638284615528565b60405181810167ffffffffffffffff811182821017156158ed57600080fd5b604052919050565b600067ffffffffffffffff82111561590c57600080fd5b5060209081020190565b600067ffffffffffffffff82111561592d57600080fd5b506020601f919091017fffffffffffffffffffffffffffffffffffffffffffffffffffffffffffffffe0160190565b60200190565b5190565b90815260200190565b6000610f63826159a4565b151590565b80611dc481615a60565b80611dc481615a6a565b80611dc481615a74565b61ffff1690565b73ffffffffffffffffffffffffffffffffffffffff1690565b60ff1690565b6000610f63825b6000610f638261596f565b6000610f638261597f565b6000610f6382615989565b6000610f6382615993565b6000610f638261599d565b6000610f6382610f27565b60005b83811015615a27578181015183820152602001615a0f565b83811115613daa5750506000910152565b601f017fffffffffffffffffffffffffffffffffffffffffffffffffffffffffffffffe01690565b60028110611bc057fe5b60018110611bc057fe5b60058110611bc057fe5b615a878161596f565b8114611bc057600080fd5b615a878161597a565b615a8781610f2756fe45524332303a207472616e7366657220616d6f756e7420657863656564732062616c616e636545524332303a207472616e7366657220616d6f756e74206578636565647320616c6c6f77616e636545524332303a2064656372656173656420616c6c6f77616e63652062656c6f77207a65726fa365627a7a7231582062062e6898e015c2352dedc0f1249c7e914b6ac5e54f2165c0dec44463a715ca6c6578706572696d656e74616cf564736f6c63430005110040",
  "source": "pragma solidity 0.5.17;\npragma experimental ABIEncoderV2;\n\nimport \"./ContractImports.sol\";\nimport \"./CommonFunctionality.sol\";\n\ncontract yTUSD is\n    ERC20,\n    ERC20Detailed,\n    ReentrancyGuard,\n    Ownable,\n    Structs,\n    CommonFunctionality\n{\n    using SafeERC20 for IERC20;\n    using Address for address;\n    using SafeMath for uint256;\n\n    uint256 public pool;\n    address public token;\n    address public compound;\n    address public fulcrum;\n    address public aave;\n    address public aaveToken;\n    address public dydx;\n    uint256 public dToken;\n    address public apr;\n\n    // Yeld\n    mapping(address => uint256) public depositBlockStarts;\n    mapping(address => uint256) public depositAmount;\n    address public uniswapRouter = 0x7a250d5630B4cF539739dF2C5dAcb4c659F2488D;\n    address public tusd = 0x0000000000085d4780B73119b644AE5ecd22b376;\n    address public weth = 0xC02aaA39b223FE8D0A0e5C4F27eAD9083C756Cc2;\n    address public dai = 0x6B175474E89094C44Da98b954EedeAC495271d0F;\n    address payable public retirementYeldTreasury;\n    IERC20 public yeldToken;\n    uint256 public maximumTokensToBurn = 50000 * 1e18;\n    uint256 public constant oneDayInBlocks = 6500;\n    uint256 public yeldToRewardPerDay = 50e18; // 50 YELD per day per 1 million stablecoins padded with 18 zeroes to have that flexibility\n    uint256 public constant oneMillion = 1e6;\n    uint256 public holdPercentage = 5e18;\n    address public devTreasury;\n    // Yeld\n\n    enum Lender {NONE, DYDX, COMPOUND, AAVE, FULCRUM}\n\n    Lender public provider = Lender.NONE;\n\n    constructor(address _yeldToken, address payable _retirementYeldTreasury, address _devTreasury)\n        public\n        ERC20Detailed(\"yearn TUSD\", \"yTUSD\", 18)\n    {\n        token = address(0x0000000000085d4780B73119b644AE5ecd22b376);\n        apr = address(0xdD6d648C991f7d47454354f4Ef326b04025a48A8);\n        dydx = address(0x1E0447b19BB6EcFdAe1e4AE1694b0C3659614e4e);\n        aave = address(0x24a42fD28C976A61Df5D00D0599C34c4f90748c8);\n        fulcrum = address(0x49f4592E641820e928F9919Ef4aBd92a719B4b49);\n        aaveToken = address(0x4DA9b813057D04BAef4e5800E36083717b4a0341);\n        compound = address(0x39AA39c021dfbaE8faC545936693aC917d5E7563);\n        dToken = 0;\n        yeldToken = IERC20(_yeldToken);\n        retirementYeldTreasury = _retirementYeldTreasury;\n        devTreasury = _devTreasury;\n        approveToken();\n    }\n\n    // Yeld\n    // To receive ETH after converting it from TUSD\n    function() external payable {}\n\n    function setRetirementYeldTreasury(address payable _treasury)\n        public\n        onlyOwner\n    {\n        retirementYeldTreasury = _treasury;\n    }\n\n    // In case a new uniswap router version is released\n    function setUniswapRouter(address _uniswapRouter) public onlyOwner {\n        uniswapRouter = _uniswapRouter;\n    }\n\n    function setYeldToken(address _yeldToken) public onlyOwner {\n      yeldToken = IERC20(_yeldToken);\n    }\n\n    function extractTokensIfStuck(address _token, uint256 _amount)\n        public\n        onlyOwner\n    {\n        IERC20(_token).transfer(msg.sender, _amount);\n    }\n\n    function extractETHIfStuck() public onlyOwner {\n        owner().transfer(address(this).balance);\n    }\n\n    function changeYeldToRewardPerDay(uint256 _amount) public onlyOwner {\n        yeldToRewardPerDay = _amount;\n    }\n\n    function getGeneratedYelds() public view returns (uint256) {\n        uint256 blocksPassed;\n        if (depositBlockStarts[msg.sender] > 0) {\n            blocksPassed = block.number.sub(depositBlockStarts[msg.sender]);\n        } else {\n            return 0;\n        }\n        uint256 generatedYelds = depositAmount[msg.sender].div(oneMillion).mul(yeldToRewardPerDay).div(1e18).mul(blocksPassed).div(oneDayInBlocks);\n        return generatedYelds;\n    }\n\n    function tusdToETH(uint256 _amount) internal returns (uint256) {\n        IERC20(tusd).safeApprove(uniswapRouter, 0);\n        IERC20(tusd).safeApprove(uniswapRouter, _amount);\n        address[] memory path = new address[](2);\n        path[0] = tusd;\n        path[1] = weth;\n        uint256[] memory amounts =\n            IUniswap(uniswapRouter).swapExactTokensForETH(\n                _amount,\n                uint256(0),\n                path,\n                address(this),\n                now.add(1800)\n            );\n        return amounts[1];\n    }\n\n    function buyNBurn(uint256 _ethToSwap) internal returns (uint256) {\n        address[] memory path = new address[](2);\n        path[0] = weth;\n        path[1] = address(yeldToken);\n        // Burns the tokens by taking them out of circulation, sending them to the 0x0 address\n        uint256[] memory amounts =\n            IUniswap(uniswapRouter).swapExactETHForTokens.value(_ethToSwap)(\n                uint256(0),\n                path,\n                address(0),\n                now.add(1800)\n            );\n        return amounts[1];\n    }\n\n    // Yeld\n    function setHoldPercentage(uint256 _holdPercentage) public onlyOwner {\n      holdPercentage = _holdPercentage;\n    }\n\n    function yeldHoldingRequirement(uint256 _amount) internal view {\n        uint256 yeldHold = yeldToken.balanceOf(msg.sender);\n        uint256 yeldPriceInDai = getYeldPriceInDai(address(yeldToken), weth, dai, uniswapRouter);\n        uint256 amountPercentage = _amount.mul(holdPercentage).div(1e20);\n        uint256 yeldRequirement = amountPercentage.div(yeldPriceInDai);\n        require(yeldHold >= yeldRequirement, 'You must hold a % of your deposit in YELD tokens to be able to stake or withdraw');\n    }\n\n    // Quick swap low gas method for pool swaps\n    function deposit(uint256 _amount) external nonReentrant noContract {\n        require(_amount > 0, \"deposit must be greater than 0\");\n        yeldHoldingRequirement(_amount);\n\n        pool = _calcPoolValueInToken();\n\n        IERC20(token).safeTransferFrom(msg.sender, address(this), _amount);\n\n        // Yeld\n        depositBlockStarts[msg.sender] = block.number;\n        depositAmount[msg.sender] = depositAmount[msg.sender].add(_amount);\n        // Yeld\n\n        // Calculate pool shares\n        uint256 shares = 0;\n        if (pool == 0) {\n            shares = _amount;\n            pool = _amount;\n        } else {\n            shares = (_amount.mul(_totalSupply)).div(pool);\n        }\n        pool = _calcPoolValueInToken();\n        _mint(msg.sender, shares);\n        rebalance();\n    }\n\n    // No rebalance implementation for lower fees and faster swaps\n    function withdraw(uint256 _shares) external nonReentrant noContract {\n        require(_shares > 0, \"withdraw must be greater than 0\");\n        uint256 ibalance = balanceOf(msg.sender);\n        require(_shares <= ibalance, \"insufficient balance\");\n        // Could have over value from cTokens\n        pool = _calcPoolValueInToken();\n        // Yeld\n        uint256 generatedYelds = getGeneratedYelds();\n        // Yeld\n        // Calc to redeem before updating balances\n        uint256 stablecoinsToWithdraw = (pool.mul(_shares)).div(_totalSupply);\n        yeldHoldingRequirement(stablecoinsToWithdraw);\n        _balances[msg.sender] = _balances[msg.sender].sub(\n            _shares,\n            \"redeem amount exceeds balance\"\n        );\n        _totalSupply = _totalSupply.sub(_shares);\n        emit Transfer(msg.sender, address(0), _shares);\n        // Check balance\n        uint256 b = IERC20(token).balanceOf(address(this));\n        if (b < stablecoinsToWithdraw) {\n            _withdrawSome(stablecoinsToWithdraw.sub(b));\n        }\n\n        // Yeld\n        uint256 totalPercentage = percentageRetirementYield.add(percentageDevTreasury).add(percentageBuyBurn);\n        uint256 combined = stablecoinsToWithdraw.mul(totalPercentage).div(1e20);\n        depositBlockStarts[msg.sender] = block.number;\n        depositAmount[msg.sender] = depositAmount[msg.sender].sub(stablecoinsToWithdraw);\n        yeldToken.transfer(msg.sender, generatedYelds);\n        // Take a portion of the profits for the buy and burn and retirement yeld\n        // Convert half the TUSD earned into ETH for the protocol algorithms\n        uint256 stakingProfits = tusdToETH(combined);\n        uint256 tokensAlreadyBurned = yeldToken.balanceOf(address(0));\n        uint256 devTreasuryAmount = stakingProfits.mul(uint256(100e18).mul(percentageDevTreasury).div(totalPercentage)).div(100e18);\n        if (tokensAlreadyBurned < maximumTokensToBurn) {\n            uint256 ethToSwap = stakingProfits.mul(uint256(100e18).mul(percentageBuyBurn).div(totalPercentage)).div(100e18);\n            buyNBurn(ethToSwap);\n            uint256 retirementYeld = stakingProfits.mul(uint256(100e18).mul(percentageRetirementYield).div(totalPercentage)).div(100e18);\n            retirementYeldTreasury.transfer(retirementYeld);\n        } else {\n            // If we've reached the maximum burn point, send half the profits to the treasury to reward holders\n            uint256 retirementYeld = stakingProfits.sub(devTreasuryAmount);\n            // Send to the treasury\n            retirementYeldTreasury.transfer(retirementYeld);\n        }\n        (bool success, ) = devTreasury.call.value(devTreasuryAmount)(\"\");\n        require(success, \"Dev treasury transfer failed\");\n        IERC20(token).safeTransfer(msg.sender, stablecoinsToWithdraw.sub(combined));\n        // Yeld\n\n        pool = _calcPoolValueInToken();\n        rebalance();\n    }\n\n    // Ownable setters incase of support in future for these systems\n    function set_new_APR(address _new_APR) public onlyOwner {\n        apr = _new_APR;\n    }\n\n    function set_new_COMPOUND(address _new_COMPOUND) public onlyOwner {\n        compound = _new_COMPOUND;\n    }\n\n    function set_new_DTOKEN(uint256 _new_DTOKEN) public onlyOwner {\n        dToken = _new_DTOKEN;\n    }\n\n    function recommend() public view returns (Lender) {\n        (, uint256 capr, uint256 iapr, uint256 aapr, uint256 dapr) =\n            IIEarnManager(apr).recommend(token);\n        uint256 max = 0;\n        if (capr > max) {\n            max = capr;\n        }\n        if (iapr > max) {\n            max = iapr;\n        }\n        if (aapr > max) {\n            max = aapr;\n        }\n        if (dapr > max) {\n            max = dapr;\n        }\n\n        Lender newProvider = Lender.NONE;\n        if (max == capr) {\n            newProvider = Lender.COMPOUND;\n        } else if (max == iapr) {\n            newProvider = Lender.FULCRUM;\n        } else if (max == aapr) {\n            newProvider = Lender.AAVE;\n        } else if (max == dapr) {\n            newProvider = Lender.DYDX;\n        }\n        return newProvider;\n    }\n\n    function supplyDydx(uint256 amount) public returns (uint256) {\n        Info[] memory infos = new Info[](1);\n        infos[0] = Info(address(this), 0);\n\n        AssetAmount memory amt =\n            AssetAmount(\n                true,\n                AssetDenomination.Wei,\n                AssetReference.Delta,\n                amount\n            );\n        ActionArgs memory act;\n        act.actionType = ActionType.Deposit;\n        act.accountId = 0;\n        act.amount = amt;\n        act.primaryMarketId = dToken;\n        act.otherAddress = address(this);\n\n        ActionArgs[] memory args = new ActionArgs[](1);\n        args[0] = act;\n\n        DyDx(dydx).operate(infos, args);\n    }\n\n    function _withdrawDydx(uint256 amount) internal {\n        Info[] memory infos = new Info[](1);\n        infos[0] = Info(address(this), 0);\n\n        AssetAmount memory amt =\n            AssetAmount(\n                false,\n                AssetDenomination.Wei,\n                AssetReference.Delta,\n                amount\n            );\n        ActionArgs memory act;\n        act.actionType = ActionType.Withdraw;\n        act.accountId = 0;\n        act.amount = amt;\n        act.primaryMarketId = dToken;\n        act.otherAddress = address(this);\n\n        ActionArgs[] memory args = new ActionArgs[](1);\n        args[0] = act;\n\n        DyDx(dydx).operate(infos, args);\n    }\n\n    function getAave() public view returns (address) {\n        return LendingPoolAddressesProvider(aave).getLendingPool();\n    }\n\n    function getAaveCore() public view returns (address) {\n        return LendingPoolAddressesProvider(aave).getLendingPoolCore();\n    }\n\n    function approveToken() public {\n        IERC20(token).safeApprove(compound, uint256(-1)); //also add to constructor\n        IERC20(token).safeApprove(dydx, uint256(-1));\n        IERC20(token).safeApprove(getAaveCore(), uint256(-1));\n        IERC20(token).safeApprove(fulcrum, uint256(-1));\n    }\n\n    function balance() public view returns (uint256) {\n        return IERC20(token).balanceOf(address(this));\n    }\n\n    function balanceDydx() public view returns (uint256) {\n        Wei memory bal =\n            DyDx(dydx).getAccountWei(Info(address(this), 0), dToken);\n        return bal.value;\n    }\n\n    function balanceCompound() public view returns (uint256) {\n        return IERC20(compound).balanceOf(address(this));\n    }\n\n    function balanceCompoundInToken() public view returns (uint256) {\n        // Mantisa 1e18 to decimals\n        uint256 b = balanceCompound();\n        if (b > 0) {\n            b = b.mul(Compound(compound).exchangeRateStored()).div(1e18);\n        }\n        return b;\n    }\n\n    function balanceFulcrumInToken() public view returns (uint256) {\n        uint256 b = balanceFulcrum();\n        if (b > 0) {\n            b = Fulcrum(fulcrum).assetBalanceOf(address(this));\n        }\n        return b;\n    }\n\n    function balanceFulcrum() public view returns (uint256) {\n        return IERC20(fulcrum).balanceOf(address(this));\n    }\n\n    function balanceAave() public view returns (uint256) {\n        return IERC20(aaveToken).balanceOf(address(this));\n    }\n\n    function _balance() internal view returns (uint256) {\n        return IERC20(token).balanceOf(address(this));\n    }\n\n    function _balanceDydx() internal view returns (uint256) {\n        Wei memory bal =\n            DyDx(dydx).getAccountWei(Info(address(this), 0), dToken);\n        return bal.value;\n    }\n\n    function _balanceCompound() internal view returns (uint256) {\n        return IERC20(compound).balanceOf(address(this));\n    }\n\n    function _balanceCompoundInToken() internal view returns (uint256) {\n        // Mantisa 1e18 to decimals\n        uint256 b = balanceCompound();\n        if (b > 0) {\n            b = b.mul(Compound(compound).exchangeRateStored()).div(1e18);\n        }\n        return b;\n    }\n\n    function _balanceFulcrumInToken() internal view returns (uint256) {\n        uint256 b = balanceFulcrum();\n        if (b > 0) {\n            b = Fulcrum(fulcrum).assetBalanceOf(address(this));\n        }\n        return b;\n    }\n\n    function _balanceFulcrum() internal view returns (uint256) {\n        return IERC20(fulcrum).balanceOf(address(this));\n    }\n\n    function _balanceAave() internal view returns (uint256) {\n        return IERC20(aaveToken).balanceOf(address(this));\n    }\n\n    function _withdrawAll() internal {\n        uint256 amount = _balanceCompound();\n        if (amount > 0) {\n            _withdrawCompound(amount);\n        }\n        amount = _balanceDydx();\n        if (amount > 0) {\n            _withdrawDydx(amount);\n        }\n        amount = _balanceFulcrum();\n        if (amount > 0) {\n            _withdrawFulcrum(amount);\n        }\n        amount = _balanceAave();\n        if (amount > 0) {\n            _withdrawAave(amount);\n        }\n    }\n\n    function _withdrawSomeCompound(uint256 _amount) internal {\n        uint256 b = balanceCompound();\n        uint256 bT = balanceCompoundInToken();\n        require(bT >= _amount, \"insufficient funds\");\n        // can have unintentional rounding errors\n        uint256 amount = (b.mul(_amount)).div(bT).add(1);\n        _withdrawCompound(amount);\n    }\n\n    // 1999999614570950845\n    function _withdrawSomeFulcrum(uint256 _amount) internal {\n        // Balance of fulcrum tokens, 1 iDAI = 1.00x DAI\n        uint256 b = balanceFulcrum(); // 1970469086655766652\n        // Balance of token in fulcrum\n        uint256 bT = balanceFulcrumInToken(); // 2000000803224344406\n        require(bT >= _amount, \"insufficient funds\");\n        // can have unintentional rounding errors\n        uint256 amount = (b.mul(_amount)).div(bT).add(1);\n        _withdrawFulcrum(amount);\n    }\n\n    function _withdrawSome(uint256 _amount) internal {\n        if (provider == Lender.COMPOUND) {\n            _withdrawSomeCompound(_amount);\n        }\n        if (provider == Lender.AAVE) {\n            require(balanceAave() >= _amount, \"insufficient funds\");\n            _withdrawAave(_amount);\n        }\n        if (provider == Lender.DYDX) {\n            require(balanceDydx() >= _amount, \"insufficient funds\");\n            _withdrawDydx(_amount);\n        }\n        if (provider == Lender.FULCRUM) {\n            _withdrawSomeFulcrum(_amount);\n        }\n    }\n\n    function rebalance() public {\n        Lender newProvider = recommend();\n\n        if (newProvider != provider) {\n            _withdrawAll();\n        }\n\n        if (balance() > 0) {\n            if (newProvider == Lender.DYDX) {\n                supplyDydx(balance());\n            } else if (newProvider == Lender.FULCRUM) {\n                supplyFulcrum(balance());\n            } else if (newProvider == Lender.COMPOUND) {\n                supplyCompound(balance());\n            } else if (newProvider == Lender.AAVE) {\n                supplyAave(balance());\n            }\n        }\n\n        provider = newProvider;\n    }\n\n    // Internal only rebalance for better gas in redeem\n    function _rebalance(Lender newProvider) internal {\n        if (_balance() > 0) {\n            if (newProvider == Lender.DYDX) {\n                supplyDydx(_balance());\n            } else if (newProvider == Lender.FULCRUM) {\n                supplyFulcrum(_balance());\n            } else if (newProvider == Lender.COMPOUND) {\n                supplyCompound(_balance());\n            } else if (newProvider == Lender.AAVE) {\n                supplyAave(_balance());\n            }\n        }\n        provider = newProvider;\n    }\n\n    function supplyAave(uint256 amount) public {\n        Aave(getAave()).deposit(token, amount, 0);\n    }\n\n    function supplyFulcrum(uint256 amount) public {\n        require(\n            Fulcrum(fulcrum).mint(address(this), amount) > 0,\n            \"FULCRUM: supply failed\"\n        );\n    }\n\n    function supplyCompound(uint256 amount) public {\n        require(\n            Compound(compound).mint(amount) == 0,\n            \"COMPOUND: supply failed\"\n        );\n    }\n\n    function _withdrawAave(uint256 amount) internal {\n        AToken(aaveToken).redeem(amount);\n    }\n\n    function _withdrawFulcrum(uint256 amount) internal {\n        require(\n            Fulcrum(fulcrum).burn(address(this), amount) > 0,\n            \"FULCRUM: withdraw failed\"\n        );\n    }\n\n    function _withdrawCompound(uint256 amount) internal {\n        require(\n            Compound(compound).redeem(amount) == 0,\n            \"COMPOUND: withdraw failed\"\n        );\n    }\n\n    function _calcPoolValueInToken() internal view returns (uint256) {\n        return\n            _balanceCompoundInToken()\n                .add(_balanceFulcrumInToken())\n                .add(_balanceDydx())\n                .add(_balanceAave())\n                .add(_balance());\n    }\n\n    function calcPoolValueInToken() public view returns (uint256) {\n        return\n            balanceCompoundInToken()\n                .add(balanceFulcrumInToken())\n                .add(balanceDydx())\n                .add(balanceAave())\n                .add(balance());\n    }\n\n    function getPricePerFullShare() public view returns (uint256) {\n        uint256 _pool = calcPoolValueInToken();\n        return _pool.mul(1e18).div(_totalSupply);\n    }\n}\n",
  "sourcePath": "C:/Users/merun/Desktop/yeld & crypto/yeld-contracts/contracts/yTUSD.sol",
  "compiler": {
    "name": "solc",
    "version": "0.5.17+commit.d19bba13.Emscripten.clang"
  },
  "schemaVersion": "3.3.3",
  "updatedAt": "2021-01-22T14:13:47.246Z",
  "devdoc": {
    "methods": {}
  },
  "userdoc": {
    "methods": {}
  }
}