{
  "contractName": "yTUSD",
  "abi": [
    {
      "inputs": [
        {
          "internalType": "address",
          "name": "_yeldToken",
          "type": "address"
        },
        {
          "internalType": "address payable",
          "name": "_retirementYeldTreasury",
          "type": "address"
        }
      ],
      "payable": false,
      "stateMutability": "nonpayable",
      "type": "constructor"
    },
    {
      "anonymous": false,
      "inputs": [
        {
          "indexed": true,
          "internalType": "address",
          "name": "owner",
          "type": "address"
        },
        {
          "indexed": true,
          "internalType": "address",
          "name": "spender",
          "type": "address"
        },
        {
          "indexed": false,
          "internalType": "uint256",
          "name": "value",
          "type": "uint256"
        }
      ],
      "name": "Approval",
      "type": "event"
    },
    {
      "anonymous": false,
      "inputs": [
        {
          "indexed": true,
          "internalType": "address",
          "name": "previousOwner",
          "type": "address"
        },
        {
          "indexed": true,
          "internalType": "address",
          "name": "newOwner",
          "type": "address"
        }
      ],
      "name": "OwnershipTransferred",
      "type": "event"
    },
    {
      "anonymous": false,
      "inputs": [
        {
          "indexed": true,
          "internalType": "address",
          "name": "from",
          "type": "address"
        },
        {
          "indexed": true,
          "internalType": "address",
          "name": "to",
          "type": "address"
        },
        {
          "indexed": false,
          "internalType": "uint256",
          "name": "value",
          "type": "uint256"
        }
      ],
      "name": "Transfer",
      "type": "event"
    },
    {
      "payable": true,
      "stateMutability": "payable",
      "type": "fallback"
    },
    {
      "constant": true,
      "inputs": [],
      "name": "aave",
      "outputs": [
        {
          "internalType": "address",
          "name": "",
          "type": "address"
        }
      ],
      "payable": false,
      "stateMutability": "view",
      "type": "function"
    },
    {
      "constant": true,
      "inputs": [],
      "name": "aaveToken",
      "outputs": [
        {
          "internalType": "address",
          "name": "",
          "type": "address"
        }
      ],
      "payable": false,
      "stateMutability": "view",
      "type": "function"
    },
    {
      "constant": true,
      "inputs": [
        {
          "internalType": "address",
          "name": "owner",
          "type": "address"
        },
        {
          "internalType": "address",
          "name": "spender",
          "type": "address"
        }
      ],
      "name": "allowance",
      "outputs": [
        {
          "internalType": "uint256",
          "name": "",
          "type": "uint256"
        }
      ],
      "payable": false,
      "stateMutability": "view",
      "type": "function"
    },
    {
      "constant": false,
      "inputs": [
        {
          "internalType": "address",
          "name": "spender",
          "type": "address"
        },
        {
          "internalType": "uint256",
          "name": "amount",
          "type": "uint256"
        }
      ],
      "name": "approve",
      "outputs": [
        {
          "internalType": "bool",
          "name": "",
          "type": "bool"
        }
      ],
      "payable": false,
      "stateMutability": "nonpayable",
      "type": "function"
    },
    {
      "constant": true,
      "inputs": [],
      "name": "apr",
      "outputs": [
        {
          "internalType": "address",
          "name": "",
          "type": "address"
        }
      ],
      "payable": false,
      "stateMutability": "view",
      "type": "function"
    },
    {
      "constant": true,
      "inputs": [
        {
          "internalType": "address",
          "name": "account",
          "type": "address"
        }
      ],
      "name": "balanceOf",
      "outputs": [
        {
          "internalType": "uint256",
          "name": "",
          "type": "uint256"
        }
      ],
      "payable": false,
      "stateMutability": "view",
      "type": "function"
    },
    {
      "constant": true,
      "inputs": [],
      "name": "compound",
      "outputs": [
        {
          "internalType": "address",
          "name": "",
          "type": "address"
        }
      ],
      "payable": false,
      "stateMutability": "view",
      "type": "function"
    },
    {
      "constant": true,
      "inputs": [],
      "name": "dToken",
      "outputs": [
        {
          "internalType": "uint256",
          "name": "",
          "type": "uint256"
        }
      ],
      "payable": false,
      "stateMutability": "view",
      "type": "function"
    },
    {
      "constant": true,
      "inputs": [],
      "name": "dai",
      "outputs": [
        {
          "internalType": "address",
          "name": "",
          "type": "address"
        }
      ],
      "payable": false,
      "stateMutability": "view",
      "type": "function"
    },
    {
      "constant": true,
      "inputs": [],
      "name": "decimals",
      "outputs": [
        {
          "internalType": "uint8",
          "name": "",
          "type": "uint8"
        }
      ],
      "payable": false,
      "stateMutability": "view",
      "type": "function"
    },
    {
      "constant": false,
      "inputs": [
        {
          "internalType": "address",
          "name": "spender",
          "type": "address"
        },
        {
          "internalType": "uint256",
          "name": "subtractedValue",
          "type": "uint256"
        }
      ],
      "name": "decreaseAllowance",
      "outputs": [
        {
          "internalType": "bool",
          "name": "",
          "type": "bool"
        }
      ],
      "payable": false,
      "stateMutability": "nonpayable",
      "type": "function"
    },
    {
      "constant": true,
      "inputs": [
        {
          "internalType": "address",
          "name": "",
          "type": "address"
        }
      ],
      "name": "depositAmount",
      "outputs": [
        {
          "internalType": "uint256",
          "name": "",
          "type": "uint256"
        }
      ],
      "payable": false,
      "stateMutability": "view",
      "type": "function"
    },
    {
      "constant": true,
      "inputs": [
        {
          "internalType": "address",
          "name": "",
          "type": "address"
        }
      ],
      "name": "depositBlockStarts",
      "outputs": [
        {
          "internalType": "uint256",
          "name": "",
          "type": "uint256"
        }
      ],
      "payable": false,
      "stateMutability": "view",
      "type": "function"
    },
    {
      "constant": true,
      "inputs": [],
      "name": "dydx",
      "outputs": [
        {
          "internalType": "address",
          "name": "",
          "type": "address"
        }
      ],
      "payable": false,
      "stateMutability": "view",
      "type": "function"
    },
    {
      "constant": true,
      "inputs": [],
      "name": "fulcrum",
      "outputs": [
        {
          "internalType": "address",
          "name": "",
          "type": "address"
        }
      ],
      "payable": false,
      "stateMutability": "view",
      "type": "function"
    },
    {
      "constant": true,
      "inputs": [
        {
          "internalType": "address",
          "name": "_yeld",
          "type": "address"
        },
        {
          "internalType": "address",
          "name": "_weth",
          "type": "address"
        },
        {
          "internalType": "address",
          "name": "_dai",
          "type": "address"
        },
        {
          "internalType": "address",
          "name": "_uniswap",
          "type": "address"
        }
      ],
      "name": "getYeldPriceInDai",
      "outputs": [
        {
          "internalType": "uint256",
          "name": "",
          "type": "uint256"
        }
      ],
      "payable": false,
      "stateMutability": "view",
      "type": "function"
    },
    {
      "constant": true,
      "inputs": [],
      "name": "holdPercentage",
      "outputs": [
        {
          "internalType": "uint256",
          "name": "",
          "type": "uint256"
        }
      ],
      "payable": false,
      "stateMutability": "view",
      "type": "function"
    },
    {
      "constant": false,
      "inputs": [
        {
          "internalType": "address",
          "name": "spender",
          "type": "address"
        },
        {
          "internalType": "uint256",
          "name": "addedValue",
          "type": "uint256"
        }
      ],
      "name": "increaseAllowance",
      "outputs": [
        {
          "internalType": "bool",
          "name": "",
          "type": "bool"
        }
      ],
      "payable": false,
      "stateMutability": "nonpayable",
      "type": "function"
    },
    {
      "constant": true,
      "inputs": [],
      "name": "isOwner",
      "outputs": [
        {
          "internalType": "bool",
          "name": "",
          "type": "bool"
        }
      ],
      "payable": false,
      "stateMutability": "view",
      "type": "function"
    },
    {
      "constant": true,
      "inputs": [],
      "name": "maximumTokensToBurn",
      "outputs": [
        {
          "internalType": "uint256",
          "name": "",
          "type": "uint256"
        }
      ],
      "payable": false,
      "stateMutability": "view",
      "type": "function"
    },
    {
      "constant": true,
      "inputs": [],
      "name": "name",
      "outputs": [
        {
          "internalType": "string",
          "name": "",
          "type": "string"
        }
      ],
      "payable": false,
      "stateMutability": "view",
      "type": "function"
    },
    {
      "constant": true,
      "inputs": [],
      "name": "oneDayInBlocks",
      "outputs": [
        {
          "internalType": "uint256",
          "name": "",
          "type": "uint256"
        }
      ],
      "payable": false,
      "stateMutability": "view",
      "type": "function"
    },
    {
      "constant": true,
      "inputs": [],
      "name": "oneMillion",
      "outputs": [
        {
          "internalType": "uint256",
          "name": "",
          "type": "uint256"
        }
      ],
      "payable": false,
      "stateMutability": "view",
      "type": "function"
    },
    {
      "constant": true,
      "inputs": [],
      "name": "owner",
      "outputs": [
        {
          "internalType": "address payable",
          "name": "",
          "type": "address"
        }
      ],
      "payable": false,
      "stateMutability": "view",
      "type": "function"
    },
    {
      "constant": true,
      "inputs": [],
      "name": "pool",
      "outputs": [
        {
          "internalType": "uint256",
          "name": "",
          "type": "uint256"
        }
      ],
      "payable": false,
      "stateMutability": "view",
      "type": "function"
    },
    {
      "constant": true,
      "inputs": [],
      "name": "provider",
      "outputs": [
        {
          "internalType": "enum yTUSD.Lender",
          "name": "",
          "type": "uint8"
        }
      ],
      "payable": false,
      "stateMutability": "view",
      "type": "function"
    },
    {
      "constant": false,
      "inputs": [],
      "name": "renounceOwnership",
      "outputs": [],
      "payable": false,
      "stateMutability": "nonpayable",
      "type": "function"
    },
    {
      "constant": true,
      "inputs": [],
      "name": "retirementYeldTreasury",
      "outputs": [
        {
          "internalType": "address payable",
          "name": "",
          "type": "address"
        }
      ],
      "payable": false,
      "stateMutability": "view",
      "type": "function"
    },
    {
      "constant": true,
      "inputs": [],
      "name": "symbol",
      "outputs": [
        {
          "internalType": "string",
          "name": "",
          "type": "string"
        }
      ],
      "payable": false,
      "stateMutability": "view",
      "type": "function"
    },
    {
      "constant": true,
      "inputs": [],
      "name": "token",
      "outputs": [
        {
          "internalType": "address",
          "name": "",
          "type": "address"
        }
      ],
      "payable": false,
      "stateMutability": "view",
      "type": "function"
    },
    {
      "constant": true,
      "inputs": [],
      "name": "totalSupply",
      "outputs": [
        {
          "internalType": "uint256",
          "name": "",
          "type": "uint256"
        }
      ],
      "payable": false,
      "stateMutability": "view",
      "type": "function"
    },
    {
      "constant": false,
      "inputs": [
        {
          "internalType": "address",
          "name": "recipient",
          "type": "address"
        },
        {
          "internalType": "uint256",
          "name": "amount",
          "type": "uint256"
        }
      ],
      "name": "transfer",
      "outputs": [
        {
          "internalType": "bool",
          "name": "",
          "type": "bool"
        }
      ],
      "payable": false,
      "stateMutability": "nonpayable",
      "type": "function"
    },
    {
      "constant": false,
      "inputs": [
        {
          "internalType": "address",
          "name": "sender",
          "type": "address"
        },
        {
          "internalType": "address",
          "name": "recipient",
          "type": "address"
        },
        {
          "internalType": "uint256",
          "name": "amount",
          "type": "uint256"
        }
      ],
      "name": "transferFrom",
      "outputs": [
        {
          "internalType": "bool",
          "name": "",
          "type": "bool"
        }
      ],
      "payable": false,
      "stateMutability": "nonpayable",
      "type": "function"
    },
    {
      "constant": false,
      "inputs": [
        {
          "internalType": "address payable",
          "name": "newOwner",
          "type": "address"
        }
      ],
      "name": "transferOwnership",
      "outputs": [],
      "payable": false,
      "stateMutability": "nonpayable",
      "type": "function"
    },
    {
      "constant": true,
      "inputs": [],
      "name": "tusd",
      "outputs": [
        {
          "internalType": "address",
          "name": "",
          "type": "address"
        }
      ],
      "payable": false,
      "stateMutability": "view",
      "type": "function"
    },
    {
      "constant": true,
      "inputs": [],
      "name": "uniswapRouter",
      "outputs": [
        {
          "internalType": "address",
          "name": "",
          "type": "address"
        }
      ],
      "payable": false,
      "stateMutability": "view",
      "type": "function"
    },
    {
      "constant": true,
      "inputs": [],
      "name": "weth",
      "outputs": [
        {
          "internalType": "address",
          "name": "",
          "type": "address"
        }
      ],
      "payable": false,
      "stateMutability": "view",
      "type": "function"
    },
    {
      "constant": true,
      "inputs": [],
      "name": "yeldToRewardPerDay",
      "outputs": [
        {
          "internalType": "uint256",
          "name": "",
          "type": "uint256"
        }
      ],
      "payable": false,
      "stateMutability": "view",
      "type": "function"
    },
    {
      "constant": true,
      "inputs": [],
      "name": "yeldToken",
      "outputs": [
        {
          "internalType": "contract IERC20",
          "name": "",
          "type": "address"
        }
      ],
      "payable": false,
      "stateMutability": "view",
      "type": "function"
    },
    {
      "constant": false,
      "inputs": [
        {
          "internalType": "address payable",
          "name": "_treasury",
          "type": "address"
        }
      ],
      "name": "setRetirementYeldTreasury",
      "outputs": [],
      "payable": false,
      "stateMutability": "nonpayable",
      "type": "function"
    },
    {
      "constant": false,
      "inputs": [
        {
          "internalType": "address",
          "name": "_uniswapRouter",
          "type": "address"
        }
      ],
      "name": "setUniswapRouter",
      "outputs": [],
      "payable": false,
      "stateMutability": "nonpayable",
      "type": "function"
    },
    {
      "constant": false,
      "inputs": [
        {
          "internalType": "address",
          "name": "_yeldToken",
          "type": "address"
        }
      ],
      "name": "setYeldToken",
      "outputs": [],
      "payable": false,
      "stateMutability": "nonpayable",
      "type": "function"
    },
    {
      "constant": false,
      "inputs": [
        {
          "internalType": "address",
          "name": "_token",
          "type": "address"
        },
        {
          "internalType": "uint256",
          "name": "_amount",
          "type": "uint256"
        }
      ],
      "name": "extractTokensIfStuck",
      "outputs": [],
      "payable": false,
      "stateMutability": "nonpayable",
      "type": "function"
    },
    {
      "constant": false,
      "inputs": [],
      "name": "extractETHIfStuck",
      "outputs": [],
      "payable": false,
      "stateMutability": "nonpayable",
      "type": "function"
    },
    {
      "constant": false,
      "inputs": [
        {
          "internalType": "uint256",
          "name": "_amount",
          "type": "uint256"
        }
      ],
      "name": "changeYeldToRewardPerDay",
      "outputs": [],
      "payable": false,
      "stateMutability": "nonpayable",
      "type": "function"
    },
    {
      "constant": true,
      "inputs": [],
      "name": "getGeneratedYelds",
      "outputs": [
        {
          "internalType": "uint256",
          "name": "",
          "type": "uint256"
        }
      ],
      "payable": false,
      "stateMutability": "view",
      "type": "function"
    },
    {
      "constant": false,
      "inputs": [
        {
          "internalType": "uint256",
          "name": "_holdPercentage",
          "type": "uint256"
        }
      ],
      "name": "setHoldPercentage",
      "outputs": [],
      "payable": false,
      "stateMutability": "nonpayable",
      "type": "function"
    },
    {
      "constant": false,
      "inputs": [
        {
          "internalType": "uint256",
          "name": "_amount",
          "type": "uint256"
        }
      ],
      "name": "deposit",
      "outputs": [],
      "payable": false,
      "stateMutability": "nonpayable",
      "type": "function"
    },
    {
      "constant": false,
      "inputs": [
        {
          "internalType": "uint256",
          "name": "_shares",
          "type": "uint256"
        }
      ],
      "name": "withdraw",
      "outputs": [],
      "payable": false,
      "stateMutability": "nonpayable",
      "type": "function"
    },
    {
      "constant": false,
      "inputs": [
        {
          "internalType": "address",
          "name": "_new_APR",
          "type": "address"
        }
      ],
      "name": "set_new_APR",
      "outputs": [],
      "payable": false,
      "stateMutability": "nonpayable",
      "type": "function"
    },
    {
      "constant": false,
      "inputs": [
        {
          "internalType": "address",
          "name": "_new_COMPOUND",
          "type": "address"
        }
      ],
      "name": "set_new_COMPOUND",
      "outputs": [],
      "payable": false,
      "stateMutability": "nonpayable",
      "type": "function"
    },
    {
      "constant": false,
      "inputs": [
        {
          "internalType": "uint256",
          "name": "_new_DTOKEN",
          "type": "uint256"
        }
      ],
      "name": "set_new_DTOKEN",
      "outputs": [],
      "payable": false,
      "stateMutability": "nonpayable",
      "type": "function"
    },
    {
      "constant": true,
      "inputs": [],
      "name": "recommend",
      "outputs": [
        {
          "internalType": "enum yTUSD.Lender",
          "name": "",
          "type": "uint8"
        }
      ],
      "payable": false,
      "stateMutability": "view",
      "type": "function"
    },
    {
      "constant": false,
      "inputs": [
        {
          "internalType": "uint256",
          "name": "amount",
          "type": "uint256"
        }
      ],
      "name": "supplyDydx",
      "outputs": [
        {
          "internalType": "uint256",
          "name": "",
          "type": "uint256"
        }
      ],
      "payable": false,
      "stateMutability": "nonpayable",
      "type": "function"
    },
    {
      "constant": true,
      "inputs": [],
      "name": "getAave",
      "outputs": [
        {
          "internalType": "address",
          "name": "",
          "type": "address"
        }
      ],
      "payable": false,
      "stateMutability": "view",
      "type": "function"
    },
    {
      "constant": true,
      "inputs": [],
      "name": "getAaveCore",
      "outputs": [
        {
          "internalType": "address",
          "name": "",
          "type": "address"
        }
      ],
      "payable": false,
      "stateMutability": "view",
      "type": "function"
    },
    {
      "constant": false,
      "inputs": [],
      "name": "approveToken",
      "outputs": [],
      "payable": false,
      "stateMutability": "nonpayable",
      "type": "function"
    },
    {
      "constant": true,
      "inputs": [],
      "name": "balance",
      "outputs": [
        {
          "internalType": "uint256",
          "name": "",
          "type": "uint256"
        }
      ],
      "payable": false,
      "stateMutability": "view",
      "type": "function"
    },
    {
      "constant": true,
      "inputs": [],
      "name": "balanceDydx",
      "outputs": [
        {
          "internalType": "uint256",
          "name": "",
          "type": "uint256"
        }
      ],
      "payable": false,
      "stateMutability": "view",
      "type": "function"
    },
    {
      "constant": true,
      "inputs": [],
      "name": "balanceCompound",
      "outputs": [
        {
          "internalType": "uint256",
          "name": "",
          "type": "uint256"
        }
      ],
      "payable": false,
      "stateMutability": "view",
      "type": "function"
    },
    {
      "constant": true,
      "inputs": [],
      "name": "balanceCompoundInToken",
      "outputs": [
        {
          "internalType": "uint256",
          "name": "",
          "type": "uint256"
        }
      ],
      "payable": false,
      "stateMutability": "view",
      "type": "function"
    },
    {
      "constant": true,
      "inputs": [],
      "name": "balanceFulcrumInToken",
      "outputs": [
        {
          "internalType": "uint256",
          "name": "",
          "type": "uint256"
        }
      ],
      "payable": false,
      "stateMutability": "view",
      "type": "function"
    },
    {
      "constant": true,
      "inputs": [],
      "name": "balanceFulcrum",
      "outputs": [
        {
          "internalType": "uint256",
          "name": "",
          "type": "uint256"
        }
      ],
      "payable": false,
      "stateMutability": "view",
      "type": "function"
    },
    {
      "constant": true,
      "inputs": [],
      "name": "balanceAave",
      "outputs": [
        {
          "internalType": "uint256",
          "name": "",
          "type": "uint256"
        }
      ],
      "payable": false,
      "stateMutability": "view",
      "type": "function"
    },
    {
      "constant": false,
      "inputs": [],
      "name": "rebalance",
      "outputs": [],
      "payable": false,
      "stateMutability": "nonpayable",
      "type": "function"
    },
    {
      "constant": false,
      "inputs": [
        {
          "internalType": "uint256",
          "name": "amount",
          "type": "uint256"
        }
      ],
      "name": "supplyAave",
      "outputs": [],
      "payable": false,
      "stateMutability": "nonpayable",
      "type": "function"
    },
    {
      "constant": false,
      "inputs": [
        {
          "internalType": "uint256",
          "name": "amount",
          "type": "uint256"
        }
      ],
      "name": "supplyFulcrum",
      "outputs": [],
      "payable": false,
      "stateMutability": "nonpayable",
      "type": "function"
    },
    {
      "constant": false,
      "inputs": [
        {
          "internalType": "uint256",
          "name": "amount",
          "type": "uint256"
        }
      ],
      "name": "supplyCompound",
      "outputs": [],
      "payable": false,
      "stateMutability": "nonpayable",
      "type": "function"
    },
    {
      "constant": true,
      "inputs": [],
      "name": "calcPoolValueInToken",
      "outputs": [
        {
          "internalType": "uint256",
          "name": "",
          "type": "uint256"
        }
      ],
      "payable": false,
      "stateMutability": "view",
      "type": "function"
    },
    {
      "constant": true,
      "inputs": [],
      "name": "getPricePerFullShare",
      "outputs": [
        {
          "internalType": "uint256",
          "name": "",
          "type": "uint256"
        }
      ],
      "payable": false,
      "stateMutability": "view",
      "type": "function"
    }
  ],
  "bytecode": "0x6080604052601380546001600160a01b0319908116737a250d5630b4cf539739df2c5dacb4c659f2488d179091556014805482166e085d4780b73119b644ae5ecd22b37617905560158054821673c02aaa39b223fe8d0a0e5c4f27ead9083c756cc217905560168054909116736b175474e89094c44da98b954eedeac495271d0f179055690a968163f0a57b4000006019556000601a55674563918244f40000601b55601c805460ff19169055348015620000b957600080fd5b5060405162005b1338038062005b13833981016040819052620000dc9162000376565b604080518082018252600a8152691e59585c9b88151554d160b21b6020808301918252835180850190945260058452641e551554d160da1b9084015281519192916012916200012f9160039190620002c1565b50815162000145906004906020850190620002c1565b506005805460ff191660ff92909216919091179055505060016006556200016b620002bc565b600780546001600160a01b0319166001600160a01b0392831617908190556040519116906000907f8be0079c531659141344cd1fd0a4f28419497f9722a3daafe3b4186f6b6457e0908290a3600980546001600160a01b03199081166e085d4780b73119b644ae5ecd22b3761790915560108054821673dd6d648c991f7d47454354f4ef326b04025a48a8179055600e80548216731e0447b19bb6ecfdae1e4ae1694b0c3659614e4e179055600c805482167324a42fd28c976a61df5d00d0599c34c4f90748c8179055600b805482167349f4592e641820e928f9919ef4abd92a719b4b49179055600d80548216734da9b813057d04baef4e5800e36083717b4a0341179055600a805482167339aa39c021dfbae8fac545936693ac917d5e75631790556000600f55601880546001600160a01b0394851690831617905560178054929093169116179055620003e1565b335b90565b828054600181600116156101000203166002900490600052602060002090601f016020900481019282601f106200030457805160ff191683800117855562000334565b8280016001018555821562000334579182015b828111156200033457825182559160200191906001019062000317565b506200034292915062000346565b5090565b620002be91905b808211156200034257600081556001016200034d565b80516200037081620003c7565b92915050565b600080604083850312156200038a57600080fd5b600062000398858562000363565b9250506020620003ab8582860162000363565b9150509250929050565b60006001600160a01b03821662000370565b620003d281620003b5565b8114620003de57600080fd5b50565b61572280620003f16000396000f3fe6080604052600436106104655760003560e01c80637f50d4d811610243578063cf8ca42611610143578063f2fde38b116100bb578063f5ff19161161008a578063f7c1ec771161006f578063f7c1ec7714610b68578063f82ce27d14610b7d578063fc0c546a14610b9257610465565b8063f5ff191614610b33578063f69e204614610b5357610465565b8063f2fde38b14610ac9578063f34ce4bb14610ae9578063f4b9fa7514610b09578063f5a41dea14610b1e57610465565b8063e849d65911610112578063f02fbd4a116100f7578063f02fbd4a14610a7f578063f2978d9814610a9f578063f29e15a214610ab457610465565b8063e849d65914610a4a578063ebc5116014610a6a57610465565b8063cf8ca426146109e0578063d9d7858a146109f5578063dd62ed3e14610a0a578063e26f21bf14610a2a57610465565b80639ff011b9116101d6578063a9059cbb116101a5578063b69ef8a81161018a578063b69ef8a81461098b578063b6b55f25146109a0578063bea9849e146109c057610465565b8063a9059cbb1461094b578063a9a1015a1461096b57610465565b80639ff011b9146108e1578063a160176d14610901578063a457c2d714610916578063a72879711461093657610465565b80638e4ec6ef116102125780638e4ec6ef1461088d5780638f32d59b146108a257806395d89b41146108b757806399b71d5c146108cc57610465565b80637f50d4d8146108215780638124955c14610843578063819faf7b146108635780638da5cb5b1461087857610465565b8063413e920d116103695780636ff2bf08116102e1578063735de9f7116102b057806377c7b8fc1161029557806377c7b8fc146107d75780637b82784c146107ec5780637d7c2a1c1461080c57610465565b8063735de9f7146107ad57806375b5be2d146107c257610465565b80636ff2bf081461074e57806370a08231146107635780637137ef9914610783578063715018a61461079857610465565b806350f62da71161033857806358782c211161031d57806358782c211461070457806361c1ec551461071957806365aab7491461072e57610465565b806350f62da7146106cf57806357ded9c9146106ef57610465565b8063413e920d14610665578063463574731461067a5780634fd96cb61461069a5780634fe41129146106ba57610465565b8063202a2735116103fc5780632eb4520a116103cb57806339509351116103b0578063395093511461061b57806339c0a7e11461063b5780633fc8cef31461065057610465565b80632eb4520a146105d9578063313ce567146105f957610465565b8063202a27351461056f57806323b872dd146105845780632622678c146105a45780632e1a7d4d146105b957610465565b8063095ea7b311610438578063095ea7b3146105035780630eb2a2671461053057806316f0115b1461054557806318160ddd1461055a57610465565b806306636c1c1461046757806306a3fe591461049d57806306fdde03146104bf578063085d4883146104e1575b005b34801561047357600080fd5b506104876104823660046146b0565b610ba7565b60405161049491906153eb565b60405180910390f35b3480156104a957600080fd5b506104b2610d5e565b6040516104949190615120565b3480156104cb57600080fd5b506104d4610d7a565b604051610494919061523f565b3480156104ed57600080fd5b506104f6610e2f565b6040516104949190615211565b34801561050f57600080fd5b5061052361051e366004614583565b610e38565b60405161049491906151f5565b34801561053c57600080fd5b50610487610e56565b34801561055157600080fd5b50610487610f02565b34801561056657600080fd5b50610487610f08565b34801561057b57600080fd5b50610487610f0e565b34801561059057600080fd5b5061052361059f366004614536565b610f14565b3480156105b057600080fd5b506104b2610fbc565b3480156105c557600080fd5b506104656105d43660046146b0565b610fd8565b3480156105e557600080fd5b506104656105f436600461445f565b6115a0565b34801561060557600080fd5b5061060e611625565b6040516104949190615488565b34801561062757600080fd5b50610523610636366004614583565b61162e565b34801561064757600080fd5b5061048761168f565b34801561065c57600080fd5b506104b261175c565b34801561067157600080fd5b50610487611778565b34801561068657600080fd5b5061046561069536600461445f565b61177f565b3480156106a657600080fd5b506104656106b536600461445f565b611804565b3480156106c657600080fd5b50610465611889565b3480156106db57600080fd5b506104876106ea36600461445f565b611917565b3480156106fb57600080fd5b506104b2611929565b34801561071057600080fd5b506104b2611945565b34801561072557600080fd5b50610487611961565b34801561073a57600080fd5b506104656107493660046146b0565b6119b8565b34801561075a57600080fd5b50610487611a51565b34801561076f57600080fd5b5061048761077e36600461445f565b611af1565b34801561078f57600080fd5b50610487611b1d565b3480156107a457600080fd5b50610465611b5f565b3480156107b957600080fd5b506104b2611c0c565b3480156107ce57600080fd5b506104b2611c28565b3480156107e357600080fd5b50610487611c44565b3480156107f857600080fd5b5061048761080736600461445f565b611c77565b34801561081857600080fd5b50610465611c89565b34801561082d57600080fd5b50610836611d96565b6040516104949190615203565b34801561084f57600080fd5b5061046561085e3660046146b0565b611db2565b34801561086f57600080fd5b506104b2611e94565b34801561088457600080fd5b506104b2611eb0565b34801561089957600080fd5b506104b2611ecc565b3480156108ae57600080fd5b50610523611ee8565b3480156108c357600080fd5b506104d4611f28565b3480156108d857600080fd5b50610465611fa7565b3480156108ed57600080fd5b506104656108fc3660046146b0565b6120ea565b34801561090d57600080fd5b506104f661212d565b34801561092257600080fd5b50610523610931366004614583565b612283565b34801561094257600080fd5b506104876122fe565b34801561095757600080fd5b50610523610966366004614583565b6123cd565b34801561097757600080fd5b50610465610986366004614583565b6123e1565b34801561099757600080fd5b506104876124ca565b3480156109ac57600080fd5b506104656109bb3660046146b0565b612521565b3480156109cc57600080fd5b506104656109db36600461445f565b612802565b3480156109ec57600080fd5b50610487612887565b348015610a0157600080fd5b506104876128de565b348015610a1657600080fd5b50610487610a2536600461449b565b6128e4565b348015610a3657600080fd5b50610465610a453660046146b0565b61291c565b348015610a5657600080fd5b50610465610a653660046146b0565b61295f565b348015610a7657600080fd5b50610487612a3e565b348015610a8b57600080fd5b50610465610a9a3660046146b0565b612a44565b348015610aab57600080fd5b50610487612a87565b348015610ac057600080fd5b50610487612a8d565b348015610ad557600080fd5b50610465610ae436600461445f565b612a93565b348015610af557600080fd5b50610487610b043660046144d5565b612ada565b348015610b1557600080fd5b506104b2612ca1565b348015610b2a57600080fd5b50610487612cbd565b348015610b3f57600080fd5b50610465610b4e36600461445f565b612d76565b348015610b5f57600080fd5b506104b2612dfb565b348015610b7457600080fd5b506104b2612e17565b348015610b8957600080fd5b506104b2612eba565b348015610b9e57600080fd5b506104b2612f25565b60408051600180825281830190925260009160609190816020015b610bca614274565b815260200190600190039081610bc257905050905060405180604001604052803073ffffffffffffffffffffffffffffffffffffffff168152602001600081525081600081518110610c1857fe5b6020026020010181905250610c2b61428b565b6040805160808101909152600181526020810160008152602001600081526020018590529050610c596142b4565b60008181905250600060208201526040808201839052600f546060808401919091523060a0840152815160018082528184019093529091816020015b610c9d6142b4565b815260200190600190039081610c955790505090508181600081518110610cc057fe5b6020908102919091010152600e546040517fa67a6a4500000000000000000000000000000000000000000000000000000000815273ffffffffffffffffffffffffffffffffffffffff9091169063a67a6a4590610d2390879085906004016151d0565b600060405180830381600087803b158015610d3d57600080fd5b505af1158015610d51573d6000803e3d6000fd5b5050505050505050919050565b600d5473ffffffffffffffffffffffffffffffffffffffff1681565b60038054604080516020601f60027fffffffffffffffffffffffffffffffffffffffffffffffffffffffffffffffff610100600188161502019095169490940493840181900481028201810190925282815260609390929091830182828015610e245780601f10610df957610100808354040283529160200191610e24565b820191906000526020600020905b815481529060010190602001808311610e0757829003601f168201915b505050505090505b90565b601c5460ff1681565b6000610e4c610e45612f41565b8484612f45565b5060015b92915050565b600b546040517f70a0823100000000000000000000000000000000000000000000000000000000815260009173ffffffffffffffffffffffffffffffffffffffff16906370a0823190610ead90309060040161512e565b60206040518083038186803b158015610ec557600080fd5b505afa158015610ed9573d6000803e3d6000fd5b505050506040513d601f19601f82011682018060405250610efd91908101906146ce565b905090565b60085481565b60025490565b601b5481565b6000610f21848484613054565b610fb184610f2d612f41565b610fac856040518060600160405280602881526020016156936028913973ffffffffffffffffffffffffffffffffffffffff8a16600090815260016020526040812090610f78612f41565b73ffffffffffffffffffffffffffffffffffffffff168152602081019190915260400160002054919063ffffffff6131df16565b612f45565b5060015b9392505050565b60175473ffffffffffffffffffffffffffffffffffffffff1681565b6006805460010190819055610fec33613225565b1561102c576040517f08c379a0000000000000000000000000000000000000000000000000000000008152600401611023906152f0565b60405180910390fd5b60008211611066576040517f08c379a000000000000000000000000000000000000000000000000000000000815260040161102390615310565b600061107133611af1565b9050808311156110ad576040517f08c379a000000000000000000000000000000000000000000000000000000000815260040161102390615300565b6110b5611b1d565b60085560006110c2611a51565b905060006110ed6002546110e18760085461322b90919063ffffffff16565b9063ffffffff61327f16565b604080518082018252601d81527f72656465656d20616d6f756e7420657863656564732062616c616e63650000006020808301919091523360009081529081905291909120549192506111489190879063ffffffff6131df16565b3360009081526020819052604090205560025461116b908663ffffffff6132c116565b60025560405160009033907fddf252ad1be2c89b69c2b068fc378daa952ba7f163c4a11628f55a4df523b3ef906111a39089906153eb565b60405180910390a36009546040517f70a0823100000000000000000000000000000000000000000000000000000000815260009173ffffffffffffffffffffffffffffffffffffffff16906370a082319061120290309060040161512e565b60206040518083038186803b15801561121a57600080fd5b505afa15801561122e573d6000803e3d6000fd5b505050506040513d601f19601f8201168201806040525061125291908101906146ce565b9050818110156112745761127461126f838363ffffffff6132c116565b613303565b600061128783606463ffffffff61327f16565b33600090815260116020908152604080832043905560129091529020549091506112b7908463ffffffff6132c116565b33600081815260126020526040908190209290925560185491517fa9059cbb00000000000000000000000000000000000000000000000000000000815273ffffffffffffffffffffffffffffffffffffffff9092169163a9059cbb9161132191889060040161513c565b602060405180830381600087803b15801561133b57600080fd5b505af115801561134f573d6000803e3d6000fd5b505050506040513d601f19601f8201168201806040525061137391908101906145e8565b50600061137f8261340d565b6018546040517f70a0823100000000000000000000000000000000000000000000000000000000815291925060009173ffffffffffffffffffffffffffffffffffffffff909116906370a08231906113db90849060040161512e565b60206040518083038186803b1580156113f357600080fd5b505afa158015611407573d6000803e3d6000fd5b505050506040513d601f19601f8201168201806040525061142b91908101906146ce565b90506019548110156114c357600061144f60646110e185606263ffffffff61322b16565b905061145a816135e9565b50600061147360646110e186600263ffffffff61322b16565b60175460405191925073ffffffffffffffffffffffffffffffffffffffff169082156108fc029083906000818181858888f193505050501580156114bb573d6000803e3d6000fd5b50505061150d565b601754604051839173ffffffffffffffffffffffffffffffffffffffff169082156108fc029083906000818181858888f1935050505015801561150a573d6000803e3d6000fd5b50505b61154733611521878663ffffffff6132c116565b60095473ffffffffffffffffffffffffffffffffffffffff16919063ffffffff61374716565b61154f611b1d565b60085561155a611c89565b50505050505050600654811461159c576040517f08c379a000000000000000000000000000000000000000000000000000000000815260040161102390615390565b5050565b6115a8611ee8565b6115de576040517f08c379a0000000000000000000000000000000000000000000000000000000008152600401611023906152e0565b601780547fffffffffffffffffffffffff00000000000000000000000000000000000000001673ffffffffffffffffffffffffffffffffffffffff92909216919091179055565b60055460ff1690565b6000610e4c61163b612f41565b84610fac856001600061164c612f41565b73ffffffffffffffffffffffffffffffffffffffff908116825260208083019390935260409182016000908120918c16815292529020549063ffffffff61380416565b6000611699614274565b600e5460408051808201825230815260006020820152600f5491517fc190c2ec00000000000000000000000000000000000000000000000000000000815273ffffffffffffffffffffffffffffffffffffffff9093169263c190c2ec9261170392916004016153d0565b604080518083038186803b15801561171a57600080fd5b505afa15801561172e573d6000803e3d6000fd5b505050506040513d601f19601f820116820180604052506117529190810190614692565b6020015191505090565b60155473ffffffffffffffffffffffffffffffffffffffff1681565b620f424081565b611787611ee8565b6117bd576040517f08c379a0000000000000000000000000000000000000000000000000000000008152600401611023906152e0565b601080547fffffffffffffffffffffffff00000000000000000000000000000000000000001673ffffffffffffffffffffffffffffffffffffffff92909216919091179055565b61180c611ee8565b611842576040517f08c379a0000000000000000000000000000000000000000000000000000000008152600401611023906152e0565b601880547fffffffffffffffffffffffff00000000000000000000000000000000000000001673ffffffffffffffffffffffffffffffffffffffff92909216919091179055565b611891611ee8565b6118c7576040517f08c379a0000000000000000000000000000000000000000000000000000000008152600401611023906152e0565b6118cf611eb0565b73ffffffffffffffffffffffffffffffffffffffff166108fc479081150290604051600060405180830381858888f19350505050158015611914573d6000803e3d6000fd5b50565b60126020526000908152604090205481565b60105473ffffffffffffffffffffffffffffffffffffffff1681565b600b5473ffffffffffffffffffffffffffffffffffffffff1681565b600a546040517f70a0823100000000000000000000000000000000000000000000000000000000815260009173ffffffffffffffffffffffffffffffffffffffff16906370a0823190610ead90309060040161512e565b6119c0612e17565b6009546040517fd2d0e06600000000000000000000000000000000000000000000000000000000815273ffffffffffffffffffffffffffffffffffffffff9283169263d2d0e06692611a1c9291169085906000906004016151a8565b600060405180830381600087803b158015611a3657600080fd5b505af1158015611a4a573d6000803e3d6000fd5b5050505050565b33600090815260116020526040812054819015611a905733600090815260116020526040902054611a8990439063ffffffff6132c116565b9050611a9a565b6000915050610e2c565b601a54336000908152601260205260408120549091611aea91611964916110e1918691611ade91670de0b6b3a76400009185918490620f424063ffffffff61327f16565b9063ffffffff61322b16565b9250505090565b73ffffffffffffffffffffffffffffffffffffffff81166000908152602081905260409020545b919050565b6000610efd611b2a6124ca565b611b53611b35612887565b611b53611b4061168f565b611b53611b4b612cbd565b611b536122fe565b9063ffffffff61380416565b611b67611ee8565b611b9d576040517f08c379a0000000000000000000000000000000000000000000000000000000008152600401611023906152e0565b60075460405160009173ffffffffffffffffffffffffffffffffffffffff16907f8be0079c531659141344cd1fd0a4f28419497f9722a3daafe3b4186f6b6457e0908390a3600780547fffffffffffffffffffffffff0000000000000000000000000000000000000000169055565b60135473ffffffffffffffffffffffffffffffffffffffff1681565b60145473ffffffffffffffffffffffffffffffffffffffff1681565b600080611c4f611b1d565b600254909150611c71906110e183670de0b6b3a764000063ffffffff61322b16565b91505090565b60116020526000908152604090205481565b6000611c9361212d565b601c5490915060ff166004811115611ca757fe5b816004811115611cb357fe5b14611cc057611cc0613843565b6000611cca6124ca565b1115611d57576001816004811115611cde57fe5b1415611cf557611cef6104826124ca565b50611d57565b6004816004811115611d0357fe5b1415611d1957611d1461085e6124ca565b611d57565b6002816004811115611d2757fe5b1415611d3857611d14610a656124ca565b6003816004811115611d4657fe5b1415611d5757611d576107496124ca565b601c80548291907fffffffffffffffffffffffffffffffffffffffffffffffffffffffffffffff00166001836004811115611d8e57fe5b021790555050565b60185473ffffffffffffffffffffffffffffffffffffffff1681565b600b546040517f40c10f1900000000000000000000000000000000000000000000000000000000815260009173ffffffffffffffffffffffffffffffffffffffff16906340c10f1990611e0b903090869060040161513c565b602060405180830381600087803b158015611e2557600080fd5b505af1158015611e39573d6000803e3d6000fd5b505050506040513d601f19601f82011682018060405250611e5d91908101906146ce565b11611914576040517f08c379a000000000000000000000000000000000000000000000000000000000815260040161102390615370565b600c5473ffffffffffffffffffffffffffffffffffffffff1681565b60075473ffffffffffffffffffffffffffffffffffffffff1690565b600e5473ffffffffffffffffffffffffffffffffffffffff1681565b60075460009073ffffffffffffffffffffffffffffffffffffffff16611f0c612f41565b73ffffffffffffffffffffffffffffffffffffffff1614905090565b60048054604080516020601f60027fffffffffffffffffffffffffffffffffffffffffffffffffffffffffffffffff610100600188161502019095169490940493840181900481028201810190925282815260609390929091830182828015610e245780601f10610df957610100808354040283529160200191610e24565b600a54600954611ff79173ffffffffffffffffffffffffffffffffffffffff91821691167fffffffffffffffffffffffffffffffffffffffffffffffffffffffffffffffff63ffffffff6138a916565b600e546009546120479173ffffffffffffffffffffffffffffffffffffffff91821691167fffffffffffffffffffffffffffffffffffffffffffffffffffffffffffffffff63ffffffff6138a916565b612098612052612eba565b60095473ffffffffffffffffffffffffffffffffffffffff16907fffffffffffffffffffffffffffffffffffffffffffffffffffffffffffffffff63ffffffff6138a916565b600b546009546120e89173ffffffffffffffffffffffffffffffffffffffff91821691167fffffffffffffffffffffffffffffffffffffffffffffffffffffffffffffffff63ffffffff6138a916565b565b6120f2611ee8565b612128576040517f08c379a0000000000000000000000000000000000000000000000000000000008152600401611023906152e0565b600f55565b6010546009546040517fd88be3c0000000000000000000000000000000000000000000000000000000008152600092839283928392839273ffffffffffffffffffffffffffffffffffffffff9182169263d88be3c092612191921690600401615120565b60006040518083038186803b1580156121a957600080fd5b505afa1580156121bd573d6000803e3d6000fd5b505050506040513d6000823e601f3d9081017fffffffffffffffffffffffffffffffffffffffffffffffffffffffffffffffe01682016040526122039190810190614606565b9297509095509350915060009050841561221a5750835b808411156122255750825b808311156122305750815b8082111561223b5750805b60008186141561224d57506002612279565b8482141561225d57506004612279565b8382141561226d57506003612279565b82821415612279575060015b9550505050505090565b6000610e4c612290612f41565b84610fac856040518060600160405280602581526020016156bb60259139600160006122ba612f41565b73ffffffffffffffffffffffffffffffffffffffff908116825260208083019390935260409182016000908120918d1681529252902054919063ffffffff6131df16565b600080612309611961565b90508015610efd57610e50670de0b6b3a76400006110e1600a60009054906101000a900473ffffffffffffffffffffffffffffffffffffffff1673ffffffffffffffffffffffffffffffffffffffff1663182df0f56040518163ffffffff1660e01b815260040160206040518083038186803b15801561238857600080fd5b505afa15801561239c573d6000803e3d6000fd5b505050506040513d601f19601f820116820180604052506123c091908101906146ce565b849063ffffffff61322b16565b6000610e4c6123da612f41565b8484613054565b6123e9611ee8565b61241f576040517f08c379a0000000000000000000000000000000000000000000000000000000008152600401611023906152e0565b6040517fa9059cbb00000000000000000000000000000000000000000000000000000000815273ffffffffffffffffffffffffffffffffffffffff83169063a9059cbb90612473903390859060040161513c565b602060405180830381600087803b15801561248d57600080fd5b505af11580156124a1573d6000803e3d6000fd5b505050506040513d601f19601f820116820180604052506124c591908101906145e8565b505050565b6009546040517f70a0823100000000000000000000000000000000000000000000000000000000815260009173ffffffffffffffffffffffffffffffffffffffff16906370a0823190610ead90309060040161512e565b600680546001019081905561253533613225565b1561256c576040517f08c379a0000000000000000000000000000000000000000000000000000000008152600401611023906152f0565b600082116125a6576040517f08c379a000000000000000000000000000000000000000000000000000000000815260040161102390615360565b6018546040517f70a0823100000000000000000000000000000000000000000000000000000000815260009173ffffffffffffffffffffffffffffffffffffffff16906370a08231906125fd90339060040161512e565b60206040518083038186803b15801561261557600080fd5b505afa158015612629573d6000803e3d6000fd5b505050506040513d601f19601f8201168201806040525061264d91908101906146ce565b6018546015546016546013549394506000936126889373ffffffffffffffffffffffffffffffffffffffff9081169381169281169116612ada565b905060006126ae68056bc75e2d631000006110e1601b548861322b90919063ffffffff16565b905060006126c2828463ffffffff61327f16565b9050808410156126fe576040517f08c379a000000000000000000000000000000000000000000000000000000000815260040161102390615320565b612706611b1d565b6008556009546127349073ffffffffffffffffffffffffffffffffffffffff1633308963ffffffff6139c816565b3360009081526011602090815260408083204390556012909152902054612761908763ffffffff61380416565b3360009081526012602052604081209190915560085461278757506008869055856127a5565b6127a26008546110e16002548a61322b90919063ffffffff16565b90505b6127ad611b1d565b6008556127ba3382613a0b565b6127c2611c89565b5050505050600654811461159c576040517f08c379a000000000000000000000000000000000000000000000000000000000815260040161102390615390565b61280a611ee8565b612840576040517f08c379a0000000000000000000000000000000000000000000000000000000008152600401611023906152e0565b601380547fffffffffffffffffffffffff00000000000000000000000000000000000000001673ffffffffffffffffffffffffffffffffffffffff92909216919091179055565b600d546040517f70a0823100000000000000000000000000000000000000000000000000000000815260009173ffffffffffffffffffffffffffffffffffffffff16906370a0823190610ead90309060040161512e565b600f5481565b73ffffffffffffffffffffffffffffffffffffffff918216600090815260016020908152604080832093909416825291909152205490565b612924611ee8565b61295a576040517f08c379a0000000000000000000000000000000000000000000000000000000008152600401611023906152e0565b601b55565b600a546040517fa0712d6800000000000000000000000000000000000000000000000000000000815273ffffffffffffffffffffffffffffffffffffffff9091169063a0712d68906129b59084906004016153eb565b602060405180830381600087803b1580156129cf57600080fd5b505af11580156129e3573d6000803e3d6000fd5b505050506040513d601f19601f82011682018060405250612a0791908101906146ce565b15611914576040517f08c379a000000000000000000000000000000000000000000000000000000000815260040161102390615290565b601a5481565b612a4c611ee8565b612a82576040517f08c379a0000000000000000000000000000000000000000000000000000000008152600401611023906152e0565b601a55565b61196481565b60195481565b612a9b611ee8565b612ad1576040517f08c379a0000000000000000000000000000000000000000000000000000000008152600401611023906152e0565b61191481613b0c565b60408051600380825260808201909252600091606091906020820183803883390190505090508581600081518110612b0e57fe5b602002602001019073ffffffffffffffffffffffffffffffffffffffff16908173ffffffffffffffffffffffffffffffffffffffff16815250508481600181518110612b5657fe5b602002602001019073ffffffffffffffffffffffffffffffffffffffff16908173ffffffffffffffffffffffffffffffffffffffff16815250508381600281518110612b9e57fe5b73ffffffffffffffffffffffffffffffffffffffff92831660209182029290920101526040517fd06ca61f00000000000000000000000000000000000000000000000000000000815260609185169063d06ca61f90612c0b90670de0b6b3a764000090869060040161521f565b60006040518083038186803b158015612c2357600080fd5b505afa158015612c37573d6000803e3d6000fd5b505050506040513d6000823e601f3d9081017fffffffffffffffffffffffffffffffffffffffffffffffffffffffffffffffe0168201604052612c7d91908101906145b3565b905080600281518110612c8c57fe5b6020026020010151925050505b949350505050565b60165473ffffffffffffffffffffffffffffffffffffffff1681565b600080612cc8610e56565b90508015610efd57600b546040517f06b3efd600000000000000000000000000000000000000000000000000000000815273ffffffffffffffffffffffffffffffffffffffff909116906306b3efd690612d2690309060040161512e565b60206040518083038186803b158015612d3e57600080fd5b505afa158015612d52573d6000803e3d6000fd5b505050506040513d601f19601f82011682018060405250610e5091908101906146ce565b612d7e611ee8565b612db4576040517f08c379a0000000000000000000000000000000000000000000000000000000008152600401611023906152e0565b600a80547fffffffffffffffffffffffff00000000000000000000000000000000000000001673ffffffffffffffffffffffffffffffffffffffff92909216919091179055565b600a5473ffffffffffffffffffffffffffffffffffffffff1681565b600c54604080517f0261bf8b000000000000000000000000000000000000000000000000000000008152905160009273ffffffffffffffffffffffffffffffffffffffff1691630261bf8b916004808301926020929190829003018186803b158015612e8257600080fd5b505afa158015612e96573d6000803e3d6000fd5b505050506040513d601f19601f82011682018060405250610efd919081019061447d565b600c54604080517fed6ff760000000000000000000000000000000000000000000000000000000008152905160009273ffffffffffffffffffffffffffffffffffffffff169163ed6ff760916004808301926020929190829003018186803b158015612e8257600080fd5b60095473ffffffffffffffffffffffffffffffffffffffff1681565b3390565b73ffffffffffffffffffffffffffffffffffffffff8316612f92576040517f08c379a000000000000000000000000000000000000000000000000000000000815260040161102390615350565b73ffffffffffffffffffffffffffffffffffffffff8216612fdf576040517f08c379a000000000000000000000000000000000000000000000000000000000815260040161102390615280565b73ffffffffffffffffffffffffffffffffffffffff80841660008181526001602090815260408083209487168084529490915290819020849055517f8c5be1e5ebec7d5bd14f71427d1e84f3dd0314c0f7b2291e5b200ac8c7c3b925906130479085906153eb565b60405180910390a3505050565b73ffffffffffffffffffffffffffffffffffffffff83166130a1576040517f08c379a000000000000000000000000000000000000000000000000000000000815260040161102390615330565b73ffffffffffffffffffffffffffffffffffffffff82166130ee576040517f08c379a000000000000000000000000000000000000000000000000000000000815260040161102390615250565b61313e8160405180606001604052806026815260200161566d6026913973ffffffffffffffffffffffffffffffffffffffff8616600090815260208190526040902054919063ffffffff6131df16565b73ffffffffffffffffffffffffffffffffffffffff8085166000908152602081905260408082209390935590841681522054613180908263ffffffff61380416565b73ffffffffffffffffffffffffffffffffffffffff80841660008181526020819052604090819020939093559151908516907fddf252ad1be2c89b69c2b068fc378daa952ba7f163c4a11628f55a4df523b3ef906130479085906153eb565b6000818484111561321d576040517f08c379a0000000000000000000000000000000000000000000000000000000008152600401611023919061523f565b505050900390565b3b151590565b60008261323a57506000610e50565b8282028284828161324757fe5b0414610fb5576040517f08c379a0000000000000000000000000000000000000000000000000000000008152600401611023906152c0565b6000610fb583836040518060400160405280601a81526020017f536166654d6174683a206469766973696f6e206279207a65726f000000000000815250613be7565b6000610fb583836040518060400160405280601e81526020017f536166654d6174683a207375627472616374696f6e206f766572666c6f7700008152506131df565b6002601c5460ff16600481111561331657fe5b14156133255761332581613c38565b6003601c5460ff16600481111561333857fe5b14156133885780613347612887565b101561337f576040517f08c379a000000000000000000000000000000000000000000000000000000000815260040161102390615340565b61338881613cb0565b6001601c5460ff16600481111561339b57fe5b14156133eb57806133aa61168f565b10156133e2576040517f08c379a000000000000000000000000000000000000000000000000000000000815260040161102390615340565b6133eb81613d06565b6004601c5460ff1660048111156133fe57fe5b14156119145761191481613eb7565b6013546014546000916134409173ffffffffffffffffffffffffffffffffffffffff90811691168363ffffffff6138a916565b6013546014546134709173ffffffffffffffffffffffffffffffffffffffff91821691168463ffffffff6138a916565b60408051600280825260608083018452926020830190803883395050601454825192935073ffffffffffffffffffffffffffffffffffffffff16918391506000906134b757fe5b73ffffffffffffffffffffffffffffffffffffffff92831660209182029290920101526015548251911690829060019081106134ef57fe5b73ffffffffffffffffffffffffffffffffffffffff9283166020918202929092010152601354606091166318cbafe585600085306135354261070863ffffffff61380416565b6040518663ffffffff1660e01b8152600401613555959493929190615435565b600060405180830381600087803b15801561356f57600080fd5b505af1158015613583573d6000803e3d6000fd5b505050506040513d6000823e601f3d9081017fffffffffffffffffffffffffffffffffffffffffffffffffffffffffffffffe01682016040526135c991908101906145b3565b9050806001815181106135d857fe5b602002602001015192505050919050565b60408051600280825260608083018452600093909291906020830190803883395050601554825192935073ffffffffffffffffffffffffffffffffffffffff169183915060009061363657fe5b73ffffffffffffffffffffffffffffffffffffffff928316602091820292909201015260185482519116908290600190811061366e57fe5b73ffffffffffffffffffffffffffffffffffffffff928316602091820292909201015260135460609116637ff36ab585600085816136b44261070863ffffffff61380416565b6040518663ffffffff1660e01b81526004016136d394939291906153f9565b6000604051808303818588803b1580156136ec57600080fd5b505af1158015613700573d6000803e3d6000fd5b50505050506040513d6000823e601f3d9081017fffffffffffffffffffffffffffffffffffffffffffffffffffffffffffffffe01682016040526135c991908101906145b3565b6040516124c59084907fa9059cbb0000000000000000000000000000000000000000000000000000000090613782908690869060240161519a565b604080517fffffffffffffffffffffffffffffffffffffffffffffffffffffffffffffffe08184030181529190526020810180517bffffffffffffffffffffffffffffffffffffffffffffffffffffffff167fffffffff0000000000000000000000000000000000000000000000000000000090931692909217909152613f2f565b600082820183811015610fb5576040517f08c379a0000000000000000000000000000000000000000000000000000000008152600401611023906152a0565b600061384d611961565b9050801561385e5761385e8161407c565b61386661168f565b905080156138775761387781613d06565b61387f610e56565b90508015613890576138908161415b565b613898612887565b905080156119145761191481613cb0565b80158061395757506040517fdd62ed3e00000000000000000000000000000000000000000000000000000000815273ffffffffffffffffffffffffffffffffffffffff84169063dd62ed3e906139059030908690600401615157565b60206040518083038186803b15801561391d57600080fd5b505afa158015613931573d6000803e3d6000fd5b505050506040513d601f19601f8201168201806040525061395591908101906146ce565b155b61398d576040517f08c379a0000000000000000000000000000000000000000000000000000000008152600401611023906153a0565b6040516124c59084907f095ea7b30000000000000000000000000000000000000000000000000000000090613782908690869060240161519a565b604051613a059085907f23b872dd000000000000000000000000000000000000000000000000000000009061378290879087908790602401615172565b50505050565b73ffffffffffffffffffffffffffffffffffffffff8216613a58576040517f08c379a0000000000000000000000000000000000000000000000000000000008152600401611023906153c0565b600254613a6b908263ffffffff61380416565b60025573ffffffffffffffffffffffffffffffffffffffff8216600090815260208190526040902054613aa4908263ffffffff61380416565b73ffffffffffffffffffffffffffffffffffffffff83166000818152602081905260408082209390935591519091907fddf252ad1be2c89b69c2b068fc378daa952ba7f163c4a11628f55a4df523b3ef90613b009085906153eb565b60405180910390a35050565b73ffffffffffffffffffffffffffffffffffffffff8116613b59576040517f08c379a000000000000000000000000000000000000000000000000000000000815260040161102390615270565b60075460405173ffffffffffffffffffffffffffffffffffffffff8084169216907f8be0079c531659141344cd1fd0a4f28419497f9722a3daafe3b4186f6b6457e090600090a3600780547fffffffffffffffffffffffff00000000000000000000000000000000000000001673ffffffffffffffffffffffffffffffffffffffff92909216919091179055565b60008183613c22576040517f08c379a0000000000000000000000000000000000000000000000000000000008152600401611023919061523f565b506000838581613c2e57fe5b0495945050505050565b6000613c42611961565b90506000613c4e6122fe565b905082811015613c8a576040517f08c379a000000000000000000000000000000000000000000000000000000000815260040161102390615340565b6000613ca56001611b53846110e1878963ffffffff61322b16565b9050613a058161407c565b600d546040517fdb006a7500000000000000000000000000000000000000000000000000000000815273ffffffffffffffffffffffffffffffffffffffff9091169063db006a7590611a1c9084906004016153eb565b604080516001808252818301909252606091816020015b613d25614274565b815260200190600190039081613d1d57905050905060405180604001604052803073ffffffffffffffffffffffffffffffffffffffff168152602001600081525081600081518110613d7357fe5b6020026020010181905250613d8661428b565b6040805160808101909152600080825260208201908152602001600081526020018490529050613db46142b4565b60018181905250600060208201526040808201839052600f546060808401919091523060a0840152815160018082528184019093529091816020015b613df86142b4565b815260200190600190039081613df05790505090508181600081518110613e1b57fe5b6020908102919091010152600e546040517fa67a6a4500000000000000000000000000000000000000000000000000000000815273ffffffffffffffffffffffffffffffffffffffff9091169063a67a6a4590613e7e90879085906004016151d0565b600060405180830381600087803b158015613e9857600080fd5b505af1158015613eac573d6000803e3d6000fd5b505050505050505050565b6000613ec1610e56565b90506000613ecd612cbd565b905082811015613f09576040517f08c379a000000000000000000000000000000000000000000000000000000000815260040161102390615340565b6000613f246001611b53846110e1878963ffffffff61322b16565b9050613a058161415b565b613f4e8273ffffffffffffffffffffffffffffffffffffffff1661423d565b613f84576040517f08c379a0000000000000000000000000000000000000000000000000000000008152600401611023906153b0565b600060608373ffffffffffffffffffffffffffffffffffffffff1683604051613fad9190615114565b6000604051808303816000865af19150503d8060008114613fea576040519150601f19603f3d011682016040523d82523d6000602084013e613fef565b606091505b50915091508161402b576040517f08c379a0000000000000000000000000000000000000000000000000000000008152600401611023906152b0565b805115613a05578080602001905161404691908101906145e8565b613a05576040517f08c379a000000000000000000000000000000000000000000000000000000000815260040161102390615380565b600a546040517fdb006a7500000000000000000000000000000000000000000000000000000000815273ffffffffffffffffffffffffffffffffffffffff9091169063db006a75906140d29084906004016153eb565b602060405180830381600087803b1580156140ec57600080fd5b505af1158015614100573d6000803e3d6000fd5b505050506040513d601f19601f8201168201806040525061412491908101906146ce565b15611914576040517f08c379a000000000000000000000000000000000000000000000000000000000815260040161102390615260565b600b546040517f9dc29fac00000000000000000000000000000000000000000000000000000000815260009173ffffffffffffffffffffffffffffffffffffffff1690639dc29fac906141b4903090869060040161513c565b602060405180830381600087803b1580156141ce57600080fd5b505af11580156141e2573d6000803e3d6000fd5b505050506040513d601f19601f8201168201806040525061420691908101906146ce565b11611914576040517f08c379a0000000000000000000000000000000000000000000000000000000008152600401611023906152d0565b6000813f7fc5d2460186f7233c927e7db2dcc703c0e500b653ca82273b7bfad8045d85a4708115801590612c995750141592915050565b604080518082019091526000808252602082015290565b604080516080810190915260008082526020820190815260200160008152602001600081525090565b6040805161010081018252600080825260208201529081016142d461428b565b81526020016000815260200160008152602001600073ffffffffffffffffffffffffffffffffffffffff16815260200160008152602001606081525090565b8035610e5081615646565b8051610e5081615646565b600082601f83011261433a57600080fd5b815161434d614348826154bd565b615496565b9150818183526020840193506020810190508385602084028201111561437257600080fd5b60005b8381101561439e57816143888882614454565b8452506020928301929190910190600101614375565b5050505092915050565b8051610e508161565a565b600082601f8301126143c457600080fd5b81516143d2614348826154de565b915080825260208301602083018583830111156143ee57600080fd5b6143f98382846155d4565b50505092915050565b60006040828403121561441457600080fd5b61441e6040615496565b9050600061442c84846143a8565b825250602061443d84848301614454565b60208301525092915050565b8035610e5081615663565b8051610e5081615663565b60006020828403121561447157600080fd5b6000612c998484614313565b60006020828403121561448f57600080fd5b6000612c99848461431e565b600080604083850312156144ae57600080fd5b60006144ba8585614313565b92505060206144cb85828601614313565b9150509250929050565b600080600080608085870312156144eb57600080fd5b60006144f78787614313565b945050602061450887828801614313565b935050604061451987828801614313565b925050606061452a87828801614313565b91505092959194509250565b60008060006060848603121561454b57600080fd5b60006145578686614313565b935050602061456886828701614313565b925050604061457986828701614449565b9150509250925092565b6000806040838503121561459657600080fd5b60006145a28585614313565b92505060206144cb85828601614449565b6000602082840312156145c557600080fd5b815167ffffffffffffffff8111156145dc57600080fd5b612c9984828501614329565b6000602082840312156145fa57600080fd5b6000612c9984846143a8565b600080600080600060a0868803121561461e57600080fd5b855167ffffffffffffffff81111561463557600080fd5b614641888289016143b3565b955050602061465288828901614454565b945050604061466388828901614454565b935050606061467488828901614454565b925050608061468588828901614454565b9150509295509295909350565b6000604082840312156146a457600080fd5b6000612c998484614402565b6000602082840312156146c257600080fd5b6000612c998484614449565b6000602082840312156146e057600080fd5b6000612c998484614454565b60006146f8838361472f565b505060200190565b6000610fb58383614fed565b600061471883836150e2565b505060400190565b6147298161558b565b82525050565b61472981615537565b60006147438261552a565b61474d818561552e565b935061475883615524565b8060005b8381101561478657815161477088826146ec565b975061477b83615524565b92505060010161475c565b509495945050505050565b600061479c8261552a565b6147a6818561552e565b9350836020820285016147b885615524565b8060005b858110156147f257848403895281516147d58582614700565b94506147e083615524565b60209a909a01999250506001016147bc565b5091979650505050505050565b600061480a8261552a565b614814818561552e565b935061481f83615524565b8060005b83811015614786578151614837888261470c565b975061484283615524565b925050600101614823565b61472981615542565b60006148618261552a565b61486b8185611b18565b935061487b8185602086016155d4565b9290920192915050565b60006148908261552a565b61489a818561552e565b93506148aa8185602086016155d4565b6148b381615600565b9093019392505050565b61472981615592565b6147298161559d565b614729816155a8565b614729816155b3565b614729816155be565b614729816155c9565b600061490060238361552e565b7f45524332303a207472616e7366657220746f20746865207a65726f206164647281527f6573730000000000000000000000000000000000000000000000000000000000602082015260400192915050565b600061495f60198361552e565b7f434f4d504f554e443a207769746864726177206661696c656400000000000000815260200192915050565b600061499860268361552e565b7f4f776e61626c653a206e6577206f776e657220697320746865207a65726f206181527f6464726573730000000000000000000000000000000000000000000000000000602082015260400192915050565b60006149f760228361552e565b7f45524332303a20617070726f766520746f20746865207a65726f20616464726581527f7373000000000000000000000000000000000000000000000000000000000000602082015260400192915050565b6000614a5660178361552e565b7f434f4d504f554e443a20737570706c79206661696c6564000000000000000000815260200192915050565b6000614a8f601b8361552e565b7f536166654d6174683a206164646974696f6e206f766572666c6f770000000000815260200192915050565b6000614ac860208361552e565b7f5361666545524332303a206c6f772d6c6576656c2063616c6c206661696c6564815260200192915050565b6000614b0160218361552e565b7f536166654d6174683a206d756c7469706c69636174696f6e206f766572666c6f81527f7700000000000000000000000000000000000000000000000000000000000000602082015260400192915050565b6000614b6060188361552e565b7f46554c4352554d3a207769746864726177206661696c65640000000000000000815260200192915050565b6000614b9960208361552e565b7f4f776e61626c653a2063616c6c6572206973206e6f7420746865206f776e6572815260200192915050565b6000614bd260338361552e565b7f436f6e74726163747320617265206e6f7420616c6c6f77656420746f20696e7481527f6572616374207769746820746865206661726d00000000000000000000000000602082015260400192915050565b6000614c3160148361552e565b7f696e73756666696369656e742062616c616e6365000000000000000000000000815260200192915050565b6000614c6a601f8361552e565b7f7769746864726177206d7573742062652067726561746572207468616e203000815260200192915050565b6000614ca360458361552e565b7f596f75206d75737420686f6c642061203525206f6620796f7572206465706f7381527f697420696e2059454c4420746f6b656e7320746f2062652061626c6520746f2060208201527f7374616b65000000000000000000000000000000000000000000000000000000604082015260600192915050565b6000614d2860258361552e565b7f45524332303a207472616e736665722066726f6d20746865207a65726f20616481527f6472657373000000000000000000000000000000000000000000000000000000602082015260400192915050565b6000614d8760128361552e565b7f696e73756666696369656e742066756e64730000000000000000000000000000815260200192915050565b6000614dc060248361552e565b7f45524332303a20617070726f76652066726f6d20746865207a65726f2061646481527f7265737300000000000000000000000000000000000000000000000000000000602082015260400192915050565b6000614e1f601e8361552e565b7f6465706f736974206d7573742062652067726561746572207468616e20300000815260200192915050565b6000614e5860168361552e565b7f46554c4352554d3a20737570706c79206661696c656400000000000000000000815260200192915050565b6000614e91602a8361552e565b7f5361666545524332303a204552433230206f7065726174696f6e20646964206e81527f6f74207375636365656400000000000000000000000000000000000000000000602082015260400192915050565b6000614ef0601f8361552e565b7f5265656e7472616e637947756172643a207265656e7472616e742063616c6c00815260200192915050565b6000614f2960368361552e565b7f5361666545524332303a20617070726f76652066726f6d206e6f6e2d7a65726f81527f20746f206e6f6e2d7a65726f20616c6c6f77616e636500000000000000000000602082015260400192915050565b6000614f88601f8361552e565b7f5361666545524332303a2063616c6c20746f206e6f6e2d636f6e747261637400815260200192915050565b6000614fc1601f8361552e565b7f45524332303a206d696e7420746f20746865207a65726f206164647265737300815260200192915050565b805160009061016084019061500285826148c6565b5060208301516150156020860182615102565b5060408301516150286040860182615098565b50606083015161503b60c0860182615102565b50608083015161504e60e0860182615102565b5060a083015161506261010086018261472f565b5060c0830151615076610120860182615102565b5060e083015184820361014086015261508f8282614885565b95945050505050565b805160808301906150a9848261484d565b5060208201516150bc60208501826148cf565b5060408201516150cf60408501826148cf565b506060820151613a056060850182615102565b805160408301906150f3848261472f565b506020820151613a0560208501825b61472981610e2c565b61472981615585565b6000610fb58284614856565b60208101610e50828461472f565b60208101610e508284614720565b6040810161514a8285614720565b610fb56020830184615102565b60408101615165828561472f565b610fb5602083018461472f565b60608101615180828661472f565b61518d602083018561472f565b612c996040830184615102565b6040810161514a828561472f565b606081016151b6828661472f565b6151c36020830185615102565b612c9960408301846148e1565b604080825281016151e181856147ff565b90508181036020830152612c998184614791565b60208101610e50828461484d565b60208101610e5082846148bd565b60208101610e5082846148d8565b6040810161522d82856148ea565b8181036020830152612c998184614738565b60208082528101610fb58184614885565b60208082528101610e50816148f3565b60208082528101610e5081614952565b60208082528101610e508161498b565b60208082528101610e50816149ea565b60208082528101610e5081614a49565b60208082528101610e5081614a82565b60208082528101610e5081614abb565b60208082528101610e5081614af4565b60208082528101610e5081614b53565b60208082528101610e5081614b8c565b60208082528101610e5081614bc5565b60208082528101610e5081614c24565b60208082528101610e5081614c5d565b60208082528101610e5081614c96565b60208082528101610e5081614d1b565b60208082528101610e5081614d7a565b60208082528101610e5081614db3565b60208082528101610e5081614e12565b60208082528101610e5081614e4b565b60208082528101610e5081614e84565b60208082528101610e5081614ee3565b60208082528101610e5081614f1c565b60208082528101610e5081614f7b565b60208082528101610e5081614fb4565b606081016153de82856150e2565b610fb56040830184615102565b60208101610e508284615102565b608081016154078287615102565b81810360208301526154198186614738565b90506154286040830185614720565b61508f6060830184615102565b60a081016154438288615102565b6154506020830187615102565b81810360408301526154628186614738565b90506154716060830185614720565b61547e6080830184615102565b9695505050505050565b60208101610e50828461510b565b60405181810167ffffffffffffffff811182821017156154b557600080fd5b604052919050565b600067ffffffffffffffff8211156154d457600080fd5b5060209081020190565b600067ffffffffffffffff8211156154f557600080fd5b506020601f919091017fffffffffffffffffffffffffffffffffffffffffffffffffffffffffffffffe0160190565b60200190565b5190565b90815260200190565b6000610e508261556c565b151590565b80611b1881615628565b80611b1881615632565b80611b188161563c565b61ffff1690565b73ffffffffffffffffffffffffffffffffffffffff1690565b60ff1690565b6000610e50825b6000610e5082615537565b6000610e5082615547565b6000610e5082615551565b6000610e508261555b565b6000610e5082615565565b6000610e5082610e2c565b60005b838110156155ef5781810151838201526020016155d7565b83811115613a055750506000910152565b601f017fffffffffffffffffffffffffffffffffffffffffffffffffffffffffffffffe01690565b6002811061191457fe5b6001811061191457fe5b6005811061191457fe5b61564f81615537565b811461191457600080fd5b61564f81615542565b61564f81610e2c56fe45524332303a207472616e7366657220616d6f756e7420657863656564732062616c616e636545524332303a207472616e7366657220616d6f756e74206578636565647320616c6c6f77616e636545524332303a2064656372656173656420616c6c6f77616e63652062656c6f77207a65726fa365627a7a723158200f061115a5baad1e1a9cb9c299e35d68e95c03b24be75e29bc970bcb6c4276996c6578706572696d656e74616cf564736f6c63430005110040",
  "source": "pragma solidity 0.5.17;\npragma experimental ABIEncoderV2;\n\nimport \"./ContractImports.sol\";\nimport \"./CommonFunctionality.sol\";\n\ncontract yTUSD is\n    ERC20,\n    ERC20Detailed,\n    ReentrancyGuard,\n    Ownable,\n    Structs,\n    CommonFunctionality\n{\n    using SafeERC20 for IERC20;\n    using Address for address;\n    using SafeMath for uint256;\n\n    uint256 public pool;\n    address public token;\n    address public compound;\n    address public fulcrum;\n    address public aave;\n    address public aaveToken;\n    address public dydx;\n    uint256 public dToken;\n    address public apr;\n\n    // Yeld\n    mapping(address => uint256) public depositBlockStarts;\n    mapping(address => uint256) public depositAmount;\n    address public uniswapRouter = 0x7a250d5630B4cF539739dF2C5dAcb4c659F2488D;\n    address public tusd = 0x0000000000085d4780B73119b644AE5ecd22b376;\n    address public weth = 0xC02aaA39b223FE8D0A0e5C4F27eAD9083C756Cc2;\n    address public dai = 0x6B175474E89094C44Da98b954EedeAC495271d0F;\n    address payable public retirementYeldTreasury;\n    IERC20 public yeldToken;\n    uint256 public maximumTokensToBurn = 50000 * 1e18;\n    uint256 public constant oneDayInBlocks = 6500;\n    uint256 public yeldToRewardPerDay = 0e18; // 100 YELD per day per 1 million stablecoins padded with 18 zeroes to have that flexibility\n    uint256 public constant oneMillion = 1e6;\n    uint256 public holdPercentage = 5e18;\n    // Yeld\n\n    enum Lender {NONE, DYDX, COMPOUND, AAVE, FULCRUM}\n\n    Lender public provider = Lender.NONE;\n\n    constructor(address _yeldToken, address payable _retirementYeldTreasury)\n        public\n        ERC20Detailed(\"yearn TUSD\", \"yTUSD\", 18)\n    {\n        token = address(0x0000000000085d4780B73119b644AE5ecd22b376);\n        apr = address(0xdD6d648C991f7d47454354f4Ef326b04025a48A8);\n        dydx = address(0x1E0447b19BB6EcFdAe1e4AE1694b0C3659614e4e);\n        aave = address(0x24a42fD28C976A61Df5D00D0599C34c4f90748c8);\n        fulcrum = address(0x49f4592E641820e928F9919Ef4aBd92a719B4b49);\n        aaveToken = address(0x4DA9b813057D04BAef4e5800E36083717b4a0341);\n        compound = address(0x39AA39c021dfbaE8faC545936693aC917d5E7563);\n        dToken = 0;\n        yeldToken = IERC20(_yeldToken);\n        retirementYeldTreasury = _retirementYeldTreasury;\n        // approveToken();\n    }\n\n    // Yeld\n    // To receive ETH after converting it from TUSD\n    function() external payable {}\n\n    function setRetirementYeldTreasury(address payable _treasury)\n        public\n        onlyOwner\n    {\n        retirementYeldTreasury = _treasury;\n    }\n\n    // In case a new uniswap router version is released\n    function setUniswapRouter(address _uniswapRouter) public onlyOwner {\n        uniswapRouter = _uniswapRouter;\n    }\n\n    function setYeldToken(address _yeldToken) public onlyOwner {\n      yeldToken = IERC20(_yeldToken);\n    }\n\n    function extractTokensIfStuck(address _token, uint256 _amount)\n        public\n        onlyOwner\n    {\n        IERC20(_token).transfer(msg.sender, _amount);\n    }\n\n    function extractETHIfStuck() public onlyOwner {\n        owner().transfer(address(this).balance);\n    }\n\n    function changeYeldToRewardPerDay(uint256 _amount) public onlyOwner {\n        yeldToRewardPerDay = _amount;\n    }\n\n    function getGeneratedYelds() public view returns (uint256) {\n        uint256 blocksPassed;\n        if (depositBlockStarts[msg.sender] > 0) {\n            blocksPassed = block.number.sub(depositBlockStarts[msg.sender]);\n        } else {\n            return 0;\n        }\n        uint256 generatedYelds = depositAmount[msg.sender].div(oneMillion).mul(yeldToRewardPerDay).div(1e18).mul(blocksPassed).div(oneDayInBlocks);\n        return generatedYelds;\n    }\n\n    function tusdToETH(uint256 _amount) internal returns (uint256) {\n        IERC20(tusd).safeApprove(uniswapRouter, 0);\n        IERC20(tusd).safeApprove(uniswapRouter, _amount);\n        address[] memory path = new address[](2);\n        path[0] = tusd;\n        path[1] = weth;\n        uint256[] memory amounts =\n            IUniswap(uniswapRouter).swapExactTokensForETH(\n                _amount,\n                uint256(0),\n                path,\n                address(this),\n                now.add(1800)\n            );\n        return amounts[1];\n    }\n\n    function buyNBurn(uint256 _ethToSwap) internal returns (uint256) {\n        address[] memory path = new address[](2);\n        path[0] = weth;\n        path[1] = address(yeldToken);\n        // Burns the tokens by taking them out of circulation, sending them to the 0x0 address\n        uint256[] memory amounts =\n            IUniswap(uniswapRouter).swapExactETHForTokens.value(_ethToSwap)(\n                uint256(0),\n                path,\n                address(0),\n                now.add(1800)\n            );\n        return amounts[1];\n    }\n\n    // Yeld\n    function setHoldPercentage(uint256 _holdPercentage) public onlyOwner {\n      holdPercentage = _holdPercentage;\n    }\n\n    // Quick swap low gas method for pool swaps\n    function deposit(uint256 _amount) external nonReentrant noContract {\n        require(_amount > 0, \"deposit must be greater than 0\");\n        uint256 yeldHold = yeldToken.balanceOf(msg.sender);\n        uint256 yeldPriceInDai = getYeldPriceInDai(address(yeldToken), weth, dai, uniswapRouter);\n        uint256 amountPercentage = _amount.mul(holdPercentage).div(1e20);\n        uint256 yeldRequirement = amountPercentage.div(yeldPriceInDai);\n        require(yeldHold >= yeldRequirement, 'You must hold a 5% of your deposit in YELD tokens to be able to stake');\n\n        pool = _calcPoolValueInToken();\n\n        IERC20(token).safeTransferFrom(msg.sender, address(this), _amount);\n\n        // Yeld\n        depositBlockStarts[msg.sender] = block.number;\n        depositAmount[msg.sender] = depositAmount[msg.sender].add(_amount);\n        // Yeld\n\n        // Calculate pool shares\n        uint256 shares = 0;\n        if (pool == 0) {\n            shares = _amount;\n            pool = _amount;\n        } else {\n            shares = (_amount.mul(_totalSupply)).div(pool);\n        }\n        pool = _calcPoolValueInToken();\n        _mint(msg.sender, shares);\n        rebalance();\n    }\n\n    // No rebalance implementation for lower fees and faster swaps\n    function withdraw(uint256 _shares) external nonReentrant noContract {\n        require(_shares > 0, \"withdraw must be greater than 0\");\n        uint256 ibalance = balanceOf(msg.sender);\n        require(_shares <= ibalance, \"insufficient balance\");\n        // Could have over value from cTokens\n        pool = _calcPoolValueInToken();\n        // Yeld\n        uint256 generatedYelds = getGeneratedYelds();\n        // Yeld\n        // Calc to redeem before updating balances\n        uint256 stablecoinsToWithdraw = (pool.mul(_shares)).div(_totalSupply);\n        _balances[msg.sender] = _balances[msg.sender].sub(\n            _shares,\n            \"redeem amount exceeds balance\"\n        );\n        _totalSupply = _totalSupply.sub(_shares);\n        emit Transfer(msg.sender, address(0), _shares);\n        // Check balance\n        uint256 b = IERC20(token).balanceOf(address(this));\n        if (b < stablecoinsToWithdraw) {\n            _withdrawSome(stablecoinsToWithdraw.sub(b));\n        }\n\n        // Yeld\n        // Take 1% of the amount to withdraw\n        uint256 onePercent = stablecoinsToWithdraw.div(100);\n        depositBlockStarts[msg.sender] = block.number;\n        depositAmount[msg.sender] = depositAmount[msg.sender].sub(stablecoinsToWithdraw);\n        yeldToken.transfer(msg.sender, generatedYelds);\n        // Take a portion of the profits for the buy and burn and retirement yeld\n        // Convert half the TUSD earned into ETH for the protocol algorithms\n        uint256 stakingProfits = tusdToETH(onePercent);\n        uint256 tokensAlreadyBurned = yeldToken.balanceOf(address(0));\n        if (tokensAlreadyBurned < maximumTokensToBurn) {\n            // 98% is the 49% doubled since we already took the 50%\n            uint256 ethToSwap = stakingProfits.mul(98).div(100);\n            // Buy and burn only applies up to 50k tokens burned\n            buyNBurn(ethToSwap);\n            // 1% for the Retirement Yield\n            uint256 retirementYeld = stakingProfits.mul(2).div(100);\n            // Send to the treasury\n            retirementYeldTreasury.transfer(retirementYeld);\n        } else {\n            // If we've reached the maximum burn point, send half the profits to the treasury to reward holders\n            uint256 retirementYeld = stakingProfits;\n            // Send to the treasury\n            retirementYeldTreasury.transfer(retirementYeld);\n        }\n        IERC20(token).safeTransfer(\n            msg.sender,\n            stablecoinsToWithdraw.sub(onePercent)\n        );\n        // Yeld\n\n        pool = _calcPoolValueInToken();\n        rebalance();\n    }\n\n    // Ownable setters incase of support in future for these systems\n    function set_new_APR(address _new_APR) public onlyOwner {\n        apr = _new_APR;\n    }\n\n    function set_new_COMPOUND(address _new_COMPOUND) public onlyOwner {\n        compound = _new_COMPOUND;\n    }\n\n    function set_new_DTOKEN(uint256 _new_DTOKEN) public onlyOwner {\n        dToken = _new_DTOKEN;\n    }\n\n    function recommend() public view returns (Lender) {\n        (, uint256 capr, uint256 iapr, uint256 aapr, uint256 dapr) =\n            IIEarnManager(apr).recommend(token);\n        uint256 max = 0;\n        if (capr > max) {\n            max = capr;\n        }\n        if (iapr > max) {\n            max = iapr;\n        }\n        if (aapr > max) {\n            max = aapr;\n        }\n        if (dapr > max) {\n            max = dapr;\n        }\n\n        Lender newProvider = Lender.NONE;\n        if (max == capr) {\n            newProvider = Lender.COMPOUND;\n        } else if (max == iapr) {\n            newProvider = Lender.FULCRUM;\n        } else if (max == aapr) {\n            newProvider = Lender.AAVE;\n        } else if (max == dapr) {\n            newProvider = Lender.DYDX;\n        }\n        return newProvider;\n    }\n\n    function supplyDydx(uint256 amount) public returns (uint256) {\n        Info[] memory infos = new Info[](1);\n        infos[0] = Info(address(this), 0);\n\n        AssetAmount memory amt =\n            AssetAmount(\n                true,\n                AssetDenomination.Wei,\n                AssetReference.Delta,\n                amount\n            );\n        ActionArgs memory act;\n        act.actionType = ActionType.Deposit;\n        act.accountId = 0;\n        act.amount = amt;\n        act.primaryMarketId = dToken;\n        act.otherAddress = address(this);\n\n        ActionArgs[] memory args = new ActionArgs[](1);\n        args[0] = act;\n\n        DyDx(dydx).operate(infos, args);\n    }\n\n    function _withdrawDydx(uint256 amount) internal {\n        Info[] memory infos = new Info[](1);\n        infos[0] = Info(address(this), 0);\n\n        AssetAmount memory amt =\n            AssetAmount(\n                false,\n                AssetDenomination.Wei,\n                AssetReference.Delta,\n                amount\n            );\n        ActionArgs memory act;\n        act.actionType = ActionType.Withdraw;\n        act.accountId = 0;\n        act.amount = amt;\n        act.primaryMarketId = dToken;\n        act.otherAddress = address(this);\n\n        ActionArgs[] memory args = new ActionArgs[](1);\n        args[0] = act;\n\n        DyDx(dydx).operate(infos, args);\n    }\n\n    function getAave() public view returns (address) {\n        return LendingPoolAddressesProvider(aave).getLendingPool();\n    }\n\n    function getAaveCore() public view returns (address) {\n        return LendingPoolAddressesProvider(aave).getLendingPoolCore();\n    }\n\n    function approveToken() public {\n        IERC20(token).safeApprove(compound, uint256(-1)); //also add to constructor\n        IERC20(token).safeApprove(dydx, uint256(-1));\n        IERC20(token).safeApprove(getAaveCore(), uint256(-1));\n        IERC20(token).safeApprove(fulcrum, uint256(-1));\n    }\n\n    function balance() public view returns (uint256) {\n        return IERC20(token).balanceOf(address(this));\n    }\n\n    function balanceDydx() public view returns (uint256) {\n        Wei memory bal =\n            DyDx(dydx).getAccountWei(Info(address(this), 0), dToken);\n        return bal.value;\n    }\n\n    function balanceCompound() public view returns (uint256) {\n        return IERC20(compound).balanceOf(address(this));\n    }\n\n    function balanceCompoundInToken() public view returns (uint256) {\n        // Mantisa 1e18 to decimals\n        uint256 b = balanceCompound();\n        if (b > 0) {\n            b = b.mul(Compound(compound).exchangeRateStored()).div(1e18);\n        }\n        return b;\n    }\n\n    function balanceFulcrumInToken() public view returns (uint256) {\n        uint256 b = balanceFulcrum();\n        if (b > 0) {\n            b = Fulcrum(fulcrum).assetBalanceOf(address(this));\n        }\n        return b;\n    }\n\n    function balanceFulcrum() public view returns (uint256) {\n        return IERC20(fulcrum).balanceOf(address(this));\n    }\n\n    function balanceAave() public view returns (uint256) {\n        return IERC20(aaveToken).balanceOf(address(this));\n    }\n\n    function _balance() internal view returns (uint256) {\n        return IERC20(token).balanceOf(address(this));\n    }\n\n    function _balanceDydx() internal view returns (uint256) {\n        Wei memory bal =\n            DyDx(dydx).getAccountWei(Info(address(this), 0), dToken);\n        return bal.value;\n    }\n\n    function _balanceCompound() internal view returns (uint256) {\n        return IERC20(compound).balanceOf(address(this));\n    }\n\n    function _balanceCompoundInToken() internal view returns (uint256) {\n        // Mantisa 1e18 to decimals\n        uint256 b = balanceCompound();\n        if (b > 0) {\n            b = b.mul(Compound(compound).exchangeRateStored()).div(1e18);\n        }\n        return b;\n    }\n\n    function _balanceFulcrumInToken() internal view returns (uint256) {\n        uint256 b = balanceFulcrum();\n        if (b > 0) {\n            b = Fulcrum(fulcrum).assetBalanceOf(address(this));\n        }\n        return b;\n    }\n\n    function _balanceFulcrum() internal view returns (uint256) {\n        return IERC20(fulcrum).balanceOf(address(this));\n    }\n\n    function _balanceAave() internal view returns (uint256) {\n        return IERC20(aaveToken).balanceOf(address(this));\n    }\n\n    function _withdrawAll() internal {\n        uint256 amount = _balanceCompound();\n        if (amount > 0) {\n            _withdrawCompound(amount);\n        }\n        amount = _balanceDydx();\n        if (amount > 0) {\n            _withdrawDydx(amount);\n        }\n        amount = _balanceFulcrum();\n        if (amount > 0) {\n            _withdrawFulcrum(amount);\n        }\n        amount = _balanceAave();\n        if (amount > 0) {\n            _withdrawAave(amount);\n        }\n    }\n\n    function _withdrawSomeCompound(uint256 _amount) internal {\n        uint256 b = balanceCompound();\n        uint256 bT = balanceCompoundInToken();\n        require(bT >= _amount, \"insufficient funds\");\n        // can have unintentional rounding errors\n        uint256 amount = (b.mul(_amount)).div(bT).add(1);\n        _withdrawCompound(amount);\n    }\n\n    // 1999999614570950845\n    function _withdrawSomeFulcrum(uint256 _amount) internal {\n        // Balance of fulcrum tokens, 1 iDAI = 1.00x DAI\n        uint256 b = balanceFulcrum(); // 1970469086655766652\n        // Balance of token in fulcrum\n        uint256 bT = balanceFulcrumInToken(); // 2000000803224344406\n        require(bT >= _amount, \"insufficient funds\");\n        // can have unintentional rounding errors\n        uint256 amount = (b.mul(_amount)).div(bT).add(1);\n        _withdrawFulcrum(amount);\n    }\n\n    function _withdrawSome(uint256 _amount) internal {\n        if (provider == Lender.COMPOUND) {\n            _withdrawSomeCompound(_amount);\n        }\n        if (provider == Lender.AAVE) {\n            require(balanceAave() >= _amount, \"insufficient funds\");\n            _withdrawAave(_amount);\n        }\n        if (provider == Lender.DYDX) {\n            require(balanceDydx() >= _amount, \"insufficient funds\");\n            _withdrawDydx(_amount);\n        }\n        if (provider == Lender.FULCRUM) {\n            _withdrawSomeFulcrum(_amount);\n        }\n    }\n\n    function rebalance() public {\n        Lender newProvider = recommend();\n\n        if (newProvider != provider) {\n            _withdrawAll();\n        }\n\n        if (balance() > 0) {\n            if (newProvider == Lender.DYDX) {\n                supplyDydx(balance());\n            } else if (newProvider == Lender.FULCRUM) {\n                supplyFulcrum(balance());\n            } else if (newProvider == Lender.COMPOUND) {\n                supplyCompound(balance());\n            } else if (newProvider == Lender.AAVE) {\n                supplyAave(balance());\n            }\n        }\n\n        provider = newProvider;\n    }\n\n    // Internal only rebalance for better gas in redeem\n    function _rebalance(Lender newProvider) internal {\n        if (_balance() > 0) {\n            if (newProvider == Lender.DYDX) {\n                supplyDydx(_balance());\n            } else if (newProvider == Lender.FULCRUM) {\n                supplyFulcrum(_balance());\n            } else if (newProvider == Lender.COMPOUND) {\n                supplyCompound(_balance());\n            } else if (newProvider == Lender.AAVE) {\n                supplyAave(_balance());\n            }\n        }\n        provider = newProvider;\n    }\n\n    function supplyAave(uint256 amount) public {\n        Aave(getAave()).deposit(token, amount, 0);\n    }\n\n    function supplyFulcrum(uint256 amount) public {\n        require(\n            Fulcrum(fulcrum).mint(address(this), amount) > 0,\n            \"FULCRUM: supply failed\"\n        );\n    }\n\n    function supplyCompound(uint256 amount) public {\n        require(\n            Compound(compound).mint(amount) == 0,\n            \"COMPOUND: supply failed\"\n        );\n    }\n\n    function _withdrawAave(uint256 amount) internal {\n        AToken(aaveToken).redeem(amount);\n    }\n\n    function _withdrawFulcrum(uint256 amount) internal {\n        require(\n            Fulcrum(fulcrum).burn(address(this), amount) > 0,\n            \"FULCRUM: withdraw failed\"\n        );\n    }\n\n    function _withdrawCompound(uint256 amount) internal {\n        require(\n            Compound(compound).redeem(amount) == 0,\n            \"COMPOUND: withdraw failed\"\n        );\n    }\n\n    function _calcPoolValueInToken() internal view returns (uint256) {\n        return\n            _balanceCompoundInToken()\n                .add(_balanceFulcrumInToken())\n                .add(_balanceDydx())\n                .add(_balanceAave())\n                .add(_balance());\n    }\n\n    function calcPoolValueInToken() public view returns (uint256) {\n        return\n            balanceCompoundInToken()\n                .add(balanceFulcrumInToken())\n                .add(balanceDydx())\n                .add(balanceAave())\n                .add(balance());\n    }\n\n    function getPricePerFullShare() public view returns (uint256) {\n        uint256 _pool = calcPoolValueInToken();\n        return _pool.mul(1e18).div(_totalSupply);\n    }\n}\n",
  "sourcePath": "C:/Users/merun/Desktop/yeld-contracts/contracts/yTUSD.sol",
  "compiler": {
    "name": "solc",
    "version": "0.5.17+commit.d19bba13.Emscripten.clang"
  },
  "schemaVersion": "3.2.2",
  "updatedAt": "2021-01-17T18:34:01.643Z",
  "networkType": "ethereum",
  "devdoc": {
    "methods": {}
  },
  "userdoc": {
    "methods": {}
  }
}