{
  "contractName": "yUSDT",
  "abi": [
    {
      "inputs": [
        {
          "internalType": "address",
          "name": "_yeldToken",
          "type": "address"
        },
        {
          "internalType": "address payable",
          "name": "_retirementYeldTreasury",
          "type": "address"
        }
      ],
      "payable": false,
      "stateMutability": "nonpayable",
      "type": "constructor"
    },
    {
      "anonymous": false,
      "inputs": [
        {
          "indexed": true,
          "internalType": "address",
          "name": "owner",
          "type": "address"
        },
        {
          "indexed": true,
          "internalType": "address",
          "name": "spender",
          "type": "address"
        },
        {
          "indexed": false,
          "internalType": "uint256",
          "name": "value",
          "type": "uint256"
        }
      ],
      "name": "Approval",
      "type": "event"
    },
    {
      "anonymous": false,
      "inputs": [
        {
          "indexed": true,
          "internalType": "address",
          "name": "previousOwner",
          "type": "address"
        },
        {
          "indexed": true,
          "internalType": "address",
          "name": "newOwner",
          "type": "address"
        }
      ],
      "name": "OwnershipTransferred",
      "type": "event"
    },
    {
      "anonymous": false,
      "inputs": [
        {
          "indexed": true,
          "internalType": "address",
          "name": "from",
          "type": "address"
        },
        {
          "indexed": true,
          "internalType": "address",
          "name": "to",
          "type": "address"
        },
        {
          "indexed": false,
          "internalType": "uint256",
          "name": "value",
          "type": "uint256"
        }
      ],
      "name": "Transfer",
      "type": "event"
    },
    {
      "payable": true,
      "stateMutability": "payable",
      "type": "fallback"
    },
    {
      "constant": true,
      "inputs": [],
      "name": "aave",
      "outputs": [
        {
          "internalType": "address",
          "name": "",
          "type": "address"
        }
      ],
      "payable": false,
      "stateMutability": "view",
      "type": "function"
    },
    {
      "constant": true,
      "inputs": [],
      "name": "aaveToken",
      "outputs": [
        {
          "internalType": "address",
          "name": "",
          "type": "address"
        }
      ],
      "payable": false,
      "stateMutability": "view",
      "type": "function"
    },
    {
      "constant": true,
      "inputs": [
        {
          "internalType": "address",
          "name": "owner",
          "type": "address"
        },
        {
          "internalType": "address",
          "name": "spender",
          "type": "address"
        }
      ],
      "name": "allowance",
      "outputs": [
        {
          "internalType": "uint256",
          "name": "",
          "type": "uint256"
        }
      ],
      "payable": false,
      "stateMutability": "view",
      "type": "function"
    },
    {
      "constant": false,
      "inputs": [
        {
          "internalType": "address",
          "name": "spender",
          "type": "address"
        },
        {
          "internalType": "uint256",
          "name": "amount",
          "type": "uint256"
        }
      ],
      "name": "approve",
      "outputs": [
        {
          "internalType": "bool",
          "name": "",
          "type": "bool"
        }
      ],
      "payable": false,
      "stateMutability": "nonpayable",
      "type": "function"
    },
    {
      "constant": true,
      "inputs": [],
      "name": "apr",
      "outputs": [
        {
          "internalType": "address",
          "name": "",
          "type": "address"
        }
      ],
      "payable": false,
      "stateMutability": "view",
      "type": "function"
    },
    {
      "constant": true,
      "inputs": [
        {
          "internalType": "address",
          "name": "account",
          "type": "address"
        }
      ],
      "name": "balanceOf",
      "outputs": [
        {
          "internalType": "uint256",
          "name": "",
          "type": "uint256"
        }
      ],
      "payable": false,
      "stateMutability": "view",
      "type": "function"
    },
    {
      "constant": true,
      "inputs": [],
      "name": "compound",
      "outputs": [
        {
          "internalType": "address",
          "name": "",
          "type": "address"
        }
      ],
      "payable": false,
      "stateMutability": "view",
      "type": "function"
    },
    {
      "constant": true,
      "inputs": [],
      "name": "dToken",
      "outputs": [
        {
          "internalType": "uint256",
          "name": "",
          "type": "uint256"
        }
      ],
      "payable": false,
      "stateMutability": "view",
      "type": "function"
    },
    {
      "constant": true,
      "inputs": [],
      "name": "dai",
      "outputs": [
        {
          "internalType": "address",
          "name": "",
          "type": "address"
        }
      ],
      "payable": false,
      "stateMutability": "view",
      "type": "function"
    },
    {
      "constant": true,
      "inputs": [],
      "name": "decimals",
      "outputs": [
        {
          "internalType": "uint8",
          "name": "",
          "type": "uint8"
        }
      ],
      "payable": false,
      "stateMutability": "view",
      "type": "function"
    },
    {
      "constant": false,
      "inputs": [
        {
          "internalType": "address",
          "name": "spender",
          "type": "address"
        },
        {
          "internalType": "uint256",
          "name": "subtractedValue",
          "type": "uint256"
        }
      ],
      "name": "decreaseAllowance",
      "outputs": [
        {
          "internalType": "bool",
          "name": "",
          "type": "bool"
        }
      ],
      "payable": false,
      "stateMutability": "nonpayable",
      "type": "function"
    },
    {
      "constant": true,
      "inputs": [
        {
          "internalType": "address",
          "name": "",
          "type": "address"
        }
      ],
      "name": "depositAmount",
      "outputs": [
        {
          "internalType": "uint256",
          "name": "",
          "type": "uint256"
        }
      ],
      "payable": false,
      "stateMutability": "view",
      "type": "function"
    },
    {
      "constant": true,
      "inputs": [
        {
          "internalType": "address",
          "name": "",
          "type": "address"
        }
      ],
      "name": "depositBlockStarts",
      "outputs": [
        {
          "internalType": "uint256",
          "name": "",
          "type": "uint256"
        }
      ],
      "payable": false,
      "stateMutability": "view",
      "type": "function"
    },
    {
      "constant": true,
      "inputs": [],
      "name": "dydx",
      "outputs": [
        {
          "internalType": "address",
          "name": "",
          "type": "address"
        }
      ],
      "payable": false,
      "stateMutability": "view",
      "type": "function"
    },
    {
      "constant": true,
      "inputs": [],
      "name": "fulcrum",
      "outputs": [
        {
          "internalType": "address",
          "name": "",
          "type": "address"
        }
      ],
      "payable": false,
      "stateMutability": "view",
      "type": "function"
    },
    {
      "constant": true,
      "inputs": [
        {
          "internalType": "address",
          "name": "_yeld",
          "type": "address"
        },
        {
          "internalType": "address",
          "name": "_weth",
          "type": "address"
        },
        {
          "internalType": "address",
          "name": "_dai",
          "type": "address"
        },
        {
          "internalType": "address",
          "name": "_uniswap",
          "type": "address"
        }
      ],
      "name": "getYeldPriceInDai",
      "outputs": [
        {
          "internalType": "uint256",
          "name": "",
          "type": "uint256"
        }
      ],
      "payable": false,
      "stateMutability": "view",
      "type": "function"
    },
    {
      "constant": true,
      "inputs": [],
      "name": "holdPercentage",
      "outputs": [
        {
          "internalType": "uint256",
          "name": "",
          "type": "uint256"
        }
      ],
      "payable": false,
      "stateMutability": "view",
      "type": "function"
    },
    {
      "constant": false,
      "inputs": [
        {
          "internalType": "address",
          "name": "spender",
          "type": "address"
        },
        {
          "internalType": "uint256",
          "name": "addedValue",
          "type": "uint256"
        }
      ],
      "name": "increaseAllowance",
      "outputs": [
        {
          "internalType": "bool",
          "name": "",
          "type": "bool"
        }
      ],
      "payable": false,
      "stateMutability": "nonpayable",
      "type": "function"
    },
    {
      "constant": true,
      "inputs": [],
      "name": "isOwner",
      "outputs": [
        {
          "internalType": "bool",
          "name": "",
          "type": "bool"
        }
      ],
      "payable": false,
      "stateMutability": "view",
      "type": "function"
    },
    {
      "constant": true,
      "inputs": [],
      "name": "maximumTokensToBurn",
      "outputs": [
        {
          "internalType": "uint256",
          "name": "",
          "type": "uint256"
        }
      ],
      "payable": false,
      "stateMutability": "view",
      "type": "function"
    },
    {
      "constant": true,
      "inputs": [],
      "name": "name",
      "outputs": [
        {
          "internalType": "string",
          "name": "",
          "type": "string"
        }
      ],
      "payable": false,
      "stateMutability": "view",
      "type": "function"
    },
    {
      "constant": true,
      "inputs": [],
      "name": "oneDayInBlocks",
      "outputs": [
        {
          "internalType": "uint256",
          "name": "",
          "type": "uint256"
        }
      ],
      "payable": false,
      "stateMutability": "view",
      "type": "function"
    },
    {
      "constant": true,
      "inputs": [],
      "name": "oneMillion",
      "outputs": [
        {
          "internalType": "uint256",
          "name": "",
          "type": "uint256"
        }
      ],
      "payable": false,
      "stateMutability": "view",
      "type": "function"
    },
    {
      "constant": true,
      "inputs": [],
      "name": "owner",
      "outputs": [
        {
          "internalType": "address payable",
          "name": "",
          "type": "address"
        }
      ],
      "payable": false,
      "stateMutability": "view",
      "type": "function"
    },
    {
      "constant": true,
      "inputs": [],
      "name": "pool",
      "outputs": [
        {
          "internalType": "uint256",
          "name": "",
          "type": "uint256"
        }
      ],
      "payable": false,
      "stateMutability": "view",
      "type": "function"
    },
    {
      "constant": true,
      "inputs": [],
      "name": "provider",
      "outputs": [
        {
          "internalType": "enum yUSDT.Lender",
          "name": "",
          "type": "uint8"
        }
      ],
      "payable": false,
      "stateMutability": "view",
      "type": "function"
    },
    {
      "constant": false,
      "inputs": [],
      "name": "renounceOwnership",
      "outputs": [],
      "payable": false,
      "stateMutability": "nonpayable",
      "type": "function"
    },
    {
      "constant": true,
      "inputs": [],
      "name": "retirementYeldTreasury",
      "outputs": [
        {
          "internalType": "address payable",
          "name": "",
          "type": "address"
        }
      ],
      "payable": false,
      "stateMutability": "view",
      "type": "function"
    },
    {
      "constant": true,
      "inputs": [],
      "name": "symbol",
      "outputs": [
        {
          "internalType": "string",
          "name": "",
          "type": "string"
        }
      ],
      "payable": false,
      "stateMutability": "view",
      "type": "function"
    },
    {
      "constant": true,
      "inputs": [],
      "name": "token",
      "outputs": [
        {
          "internalType": "address",
          "name": "",
          "type": "address"
        }
      ],
      "payable": false,
      "stateMutability": "view",
      "type": "function"
    },
    {
      "constant": true,
      "inputs": [],
      "name": "totalSupply",
      "outputs": [
        {
          "internalType": "uint256",
          "name": "",
          "type": "uint256"
        }
      ],
      "payable": false,
      "stateMutability": "view",
      "type": "function"
    },
    {
      "constant": false,
      "inputs": [
        {
          "internalType": "address",
          "name": "recipient",
          "type": "address"
        },
        {
          "internalType": "uint256",
          "name": "amount",
          "type": "uint256"
        }
      ],
      "name": "transfer",
      "outputs": [
        {
          "internalType": "bool",
          "name": "",
          "type": "bool"
        }
      ],
      "payable": false,
      "stateMutability": "nonpayable",
      "type": "function"
    },
    {
      "constant": false,
      "inputs": [
        {
          "internalType": "address",
          "name": "sender",
          "type": "address"
        },
        {
          "internalType": "address",
          "name": "recipient",
          "type": "address"
        },
        {
          "internalType": "uint256",
          "name": "amount",
          "type": "uint256"
        }
      ],
      "name": "transferFrom",
      "outputs": [
        {
          "internalType": "bool",
          "name": "",
          "type": "bool"
        }
      ],
      "payable": false,
      "stateMutability": "nonpayable",
      "type": "function"
    },
    {
      "constant": false,
      "inputs": [
        {
          "internalType": "address payable",
          "name": "newOwner",
          "type": "address"
        }
      ],
      "name": "transferOwnership",
      "outputs": [],
      "payable": false,
      "stateMutability": "nonpayable",
      "type": "function"
    },
    {
      "constant": true,
      "inputs": [],
      "name": "uniswapRouter",
      "outputs": [
        {
          "internalType": "address",
          "name": "",
          "type": "address"
        }
      ],
      "payable": false,
      "stateMutability": "view",
      "type": "function"
    },
    {
      "constant": true,
      "inputs": [],
      "name": "usdt",
      "outputs": [
        {
          "internalType": "address",
          "name": "",
          "type": "address"
        }
      ],
      "payable": false,
      "stateMutability": "view",
      "type": "function"
    },
    {
      "constant": true,
      "inputs": [],
      "name": "weth",
      "outputs": [
        {
          "internalType": "address",
          "name": "",
          "type": "address"
        }
      ],
      "payable": false,
      "stateMutability": "view",
      "type": "function"
    },
    {
      "constant": true,
      "inputs": [],
      "name": "yeldToRewardPerDay",
      "outputs": [
        {
          "internalType": "uint256",
          "name": "",
          "type": "uint256"
        }
      ],
      "payable": false,
      "stateMutability": "view",
      "type": "function"
    },
    {
      "constant": true,
      "inputs": [],
      "name": "yeldToken",
      "outputs": [
        {
          "internalType": "contract IERC20",
          "name": "",
          "type": "address"
        }
      ],
      "payable": false,
      "stateMutability": "view",
      "type": "function"
    },
    {
      "constant": false,
      "inputs": [
        {
          "internalType": "address payable",
          "name": "_treasury",
          "type": "address"
        }
      ],
      "name": "setRetirementYeldTreasury",
      "outputs": [],
      "payable": false,
      "stateMutability": "nonpayable",
      "type": "function"
    },
    {
      "constant": false,
      "inputs": [
        {
          "internalType": "address",
          "name": "_uniswapRouter",
          "type": "address"
        }
      ],
      "name": "setUniswapRouter",
      "outputs": [],
      "payable": false,
      "stateMutability": "nonpayable",
      "type": "function"
    },
    {
      "constant": false,
      "inputs": [
        {
          "internalType": "address",
          "name": "_yeldToken",
          "type": "address"
        }
      ],
      "name": "setYeldToken",
      "outputs": [],
      "payable": false,
      "stateMutability": "nonpayable",
      "type": "function"
    },
    {
      "constant": false,
      "inputs": [
        {
          "internalType": "address",
          "name": "_token",
          "type": "address"
        },
        {
          "internalType": "uint256",
          "name": "_amount",
          "type": "uint256"
        }
      ],
      "name": "extractTokensIfStuck",
      "outputs": [],
      "payable": false,
      "stateMutability": "nonpayable",
      "type": "function"
    },
    {
      "constant": false,
      "inputs": [],
      "name": "extractETHIfStuck",
      "outputs": [],
      "payable": false,
      "stateMutability": "nonpayable",
      "type": "function"
    },
    {
      "constant": false,
      "inputs": [
        {
          "internalType": "uint256",
          "name": "_amount",
          "type": "uint256"
        }
      ],
      "name": "changeYeldToRewardPerDay",
      "outputs": [],
      "payable": false,
      "stateMutability": "nonpayable",
      "type": "function"
    },
    {
      "constant": true,
      "inputs": [],
      "name": "getGeneratedYelds",
      "outputs": [
        {
          "internalType": "uint256",
          "name": "",
          "type": "uint256"
        }
      ],
      "payable": false,
      "stateMutability": "view",
      "type": "function"
    },
    {
      "constant": false,
      "inputs": [
        {
          "internalType": "uint256",
          "name": "_holdPercentage",
          "type": "uint256"
        }
      ],
      "name": "setHoldPercentage",
      "outputs": [],
      "payable": false,
      "stateMutability": "nonpayable",
      "type": "function"
    },
    {
      "constant": false,
      "inputs": [
        {
          "internalType": "uint256",
          "name": "_amount",
          "type": "uint256"
        }
      ],
      "name": "deposit",
      "outputs": [],
      "payable": false,
      "stateMutability": "nonpayable",
      "type": "function"
    },
    {
      "constant": false,
      "inputs": [
        {
          "internalType": "uint256",
          "name": "_shares",
          "type": "uint256"
        }
      ],
      "name": "withdraw",
      "outputs": [],
      "payable": false,
      "stateMutability": "nonpayable",
      "type": "function"
    },
    {
      "constant": false,
      "inputs": [
        {
          "internalType": "address",
          "name": "_new_APR",
          "type": "address"
        }
      ],
      "name": "set_new_APR",
      "outputs": [],
      "payable": false,
      "stateMutability": "nonpayable",
      "type": "function"
    },
    {
      "constant": false,
      "inputs": [
        {
          "internalType": "address",
          "name": "_new_FULCRUM",
          "type": "address"
        }
      ],
      "name": "set_new_FULCRUM",
      "outputs": [],
      "payable": false,
      "stateMutability": "nonpayable",
      "type": "function"
    },
    {
      "constant": false,
      "inputs": [
        {
          "internalType": "address",
          "name": "_new_COMPOUND",
          "type": "address"
        }
      ],
      "name": "set_new_COMPOUND",
      "outputs": [],
      "payable": false,
      "stateMutability": "nonpayable",
      "type": "function"
    },
    {
      "constant": false,
      "inputs": [
        {
          "internalType": "uint256",
          "name": "_new_DTOKEN",
          "type": "uint256"
        }
      ],
      "name": "set_new_DTOKEN",
      "outputs": [],
      "payable": false,
      "stateMutability": "nonpayable",
      "type": "function"
    },
    {
      "constant": true,
      "inputs": [],
      "name": "recommend",
      "outputs": [
        {
          "internalType": "enum yUSDT.Lender",
          "name": "",
          "type": "uint8"
        }
      ],
      "payable": false,
      "stateMutability": "view",
      "type": "function"
    },
    {
      "constant": false,
      "inputs": [
        {
          "internalType": "uint256",
          "name": "amount",
          "type": "uint256"
        }
      ],
      "name": "supplyDydx",
      "outputs": [
        {
          "internalType": "uint256",
          "name": "",
          "type": "uint256"
        }
      ],
      "payable": false,
      "stateMutability": "nonpayable",
      "type": "function"
    },
    {
      "constant": true,
      "inputs": [],
      "name": "getAave",
      "outputs": [
        {
          "internalType": "address",
          "name": "",
          "type": "address"
        }
      ],
      "payable": false,
      "stateMutability": "view",
      "type": "function"
    },
    {
      "constant": true,
      "inputs": [],
      "name": "getAaveCore",
      "outputs": [
        {
          "internalType": "address",
          "name": "",
          "type": "address"
        }
      ],
      "payable": false,
      "stateMutability": "view",
      "type": "function"
    },
    {
      "constant": false,
      "inputs": [],
      "name": "approveToken",
      "outputs": [],
      "payable": false,
      "stateMutability": "nonpayable",
      "type": "function"
    },
    {
      "constant": true,
      "inputs": [],
      "name": "balance",
      "outputs": [
        {
          "internalType": "uint256",
          "name": "",
          "type": "uint256"
        }
      ],
      "payable": false,
      "stateMutability": "view",
      "type": "function"
    },
    {
      "constant": true,
      "inputs": [],
      "name": "balanceDydx",
      "outputs": [
        {
          "internalType": "uint256",
          "name": "",
          "type": "uint256"
        }
      ],
      "payable": false,
      "stateMutability": "view",
      "type": "function"
    },
    {
      "constant": true,
      "inputs": [],
      "name": "balanceCompound",
      "outputs": [
        {
          "internalType": "uint256",
          "name": "",
          "type": "uint256"
        }
      ],
      "payable": false,
      "stateMutability": "view",
      "type": "function"
    },
    {
      "constant": true,
      "inputs": [],
      "name": "balanceCompoundInToken",
      "outputs": [
        {
          "internalType": "uint256",
          "name": "",
          "type": "uint256"
        }
      ],
      "payable": false,
      "stateMutability": "view",
      "type": "function"
    },
    {
      "constant": true,
      "inputs": [],
      "name": "balanceFulcrumInToken",
      "outputs": [
        {
          "internalType": "uint256",
          "name": "",
          "type": "uint256"
        }
      ],
      "payable": false,
      "stateMutability": "view",
      "type": "function"
    },
    {
      "constant": true,
      "inputs": [],
      "name": "balanceFulcrum",
      "outputs": [
        {
          "internalType": "uint256",
          "name": "",
          "type": "uint256"
        }
      ],
      "payable": false,
      "stateMutability": "view",
      "type": "function"
    },
    {
      "constant": true,
      "inputs": [],
      "name": "balanceAave",
      "outputs": [
        {
          "internalType": "uint256",
          "name": "",
          "type": "uint256"
        }
      ],
      "payable": false,
      "stateMutability": "view",
      "type": "function"
    },
    {
      "constant": false,
      "inputs": [],
      "name": "rebalance",
      "outputs": [],
      "payable": false,
      "stateMutability": "nonpayable",
      "type": "function"
    },
    {
      "constant": false,
      "inputs": [
        {
          "internalType": "uint256",
          "name": "amount",
          "type": "uint256"
        }
      ],
      "name": "supplyAave",
      "outputs": [],
      "payable": false,
      "stateMutability": "nonpayable",
      "type": "function"
    },
    {
      "constant": false,
      "inputs": [
        {
          "internalType": "uint256",
          "name": "amount",
          "type": "uint256"
        }
      ],
      "name": "supplyFulcrum",
      "outputs": [],
      "payable": false,
      "stateMutability": "nonpayable",
      "type": "function"
    },
    {
      "constant": false,
      "inputs": [
        {
          "internalType": "uint256",
          "name": "amount",
          "type": "uint256"
        }
      ],
      "name": "supplyCompound",
      "outputs": [],
      "payable": false,
      "stateMutability": "nonpayable",
      "type": "function"
    },
    {
      "constant": true,
      "inputs": [],
      "name": "calcPoolValueInToken",
      "outputs": [
        {
          "internalType": "uint256",
          "name": "",
          "type": "uint256"
        }
      ],
      "payable": false,
      "stateMutability": "view",
      "type": "function"
    },
    {
      "constant": true,
      "inputs": [],
      "name": "getPricePerFullShare",
      "outputs": [
        {
          "internalType": "uint256",
          "name": "",
          "type": "uint256"
        }
      ],
      "payable": false,
      "stateMutability": "view",
      "type": "function"
    }
  ],
  "bytecode": "0x6080604052601380546001600160a01b0319908116737a250d5630b4cf539739df2c5dacb4c659f2488d1790915560148054821673dac17f958d2ee523a2206206994597c13d831ec717905560158054821673c02aaa39b223fe8d0a0e5c4f27ead9083c756cc217905560168054909116736b175474e89094c44da98b954eedeac495271d0f179055690a968163f0a57b4000006019556000601a55674563918244f40000601b55601c805460ff19169055348015620000be57600080fd5b5060405162005c1438038062005c14833981016040819052620000e1916200037f565b60408051808201825260098152681e595b19081554d11560ba1b6020808301918252835180850190945260058452641e5554d11560da1b908401528151919291600691620001339160039190620002ca565b50815162000149906004906020850190620002ca565b506005805460ff191660ff92909216919091179055505060016006556200016f620002c5565b600780546001600160a01b0319166001600160a01b0392831617908190556040519116906000907f8be0079c531659141344cd1fd0a4f28419497f9722a3daafe3b4186f6b6457e0908290a3600980546001600160a01b031990811673dac17f958d2ee523a2206206994597c13d831ec71790915560108054821673dd6d648c991f7d47454354f4ef326b04025a48a8179055600e80548216731e0447b19bb6ecfdae1e4ae1694b0c3659614e4e179055600c805482167324a42fd28c976a61df5d00d0599c34c4f90748c8179055600b8054821673f013406a0b1d544238083df0b93ad0d2cbe0f65f179055600d805482167371fc860f7d3a592a4a98740e39db31d25db65ae8179055600a805482167339aa39c021dfbae8fac545936693ac917d5e75631790556000600f55601880546001600160a01b0394851690831617905560178054929093169116179055620003ea565b335b90565b828054600181600116156101000203166002900490600052602060002090601f016020900481019282601f106200030d57805160ff19168380011785556200033d565b828001600101855582156200033d579182015b828111156200033d57825182559160200191906001019062000320565b506200034b9291506200034f565b5090565b620002c791905b808211156200034b576000815560010162000356565b80516200037981620003d0565b92915050565b600080604083850312156200039357600080fd5b6000620003a185856200036c565b9250506020620003b4858286016200036c565b9150509250929050565b60006001600160a01b03821662000379565b620003db81620003be565b8114620003e757600080fd5b50565b61581a80620003fa6000396000f3fe6080604052600436106104805760003560e01c80637f50d4d81161025e578063cf8ca42611610143578063f2fde38b116100bb578063f5ff19161161008a578063f7c1ec771161006f578063f7c1ec7714610ba3578063f82ce27d14610bb8578063fc0c546a14610bcd57610480565b8063f5ff191614610b6e578063f69e204614610b8e57610480565b8063f2fde38b14610b04578063f34ce4bb14610b24578063f4b9fa7514610b44578063f5a41dea14610b5957610480565b8063e849d65911610112578063f02fbd4a116100f7578063f02fbd4a14610aba578063f2978d9814610ada578063f29e15a214610aef57610480565b8063e849d65914610a85578063ebc5116014610aa557610480565b8063cf8ca42614610a1b578063d9d7858a14610a30578063dd62ed3e14610a45578063e26f21bf14610a6557610480565b8063a160176d116101d6578063a9a1015a116101a5578063b6b55f251161018a578063b6b55f25146109bb578063bbf31644146109db578063bea9849e146109fb57610480565b8063a9a1015a14610986578063b69ef8a8146109a657610480565b8063a160176d1461091c578063a457c2d714610931578063a728797114610951578063a9059cbb1461096657610480565b80638e4ec6ef1161022d57806395d89b411161021257806395d89b41146108d257806399b71d5c146108e75780639ff011b9146108fc57610480565b80638e4ec6ef146108a85780638f32d59b146108bd57610480565b80637f50d4d81461083c5780638124955c1461085e578063819faf7b1461087e5780638da5cb5b1461089357610480565b80633fc8cef31161038457806365aab749116102fc578063715018a6116102cb57806377c7b8fc116102b057806377c7b8fc146107f25780637b82784c146108075780637d7c2a1c1461082757610480565b8063715018a6146107c8578063735de9f7146107dd57610480565b806365aab7491461075e5780636ff2bf081461077e57806370a08231146107935780637137ef99146107b357610480565b80634fe411291161035357806357ded9c91161033857806357ded9c91461071f57806358782c211461073457806361c1ec551461074957610480565b80634fe41129146106ea57806350f62da7146106ff57610480565b80633fc8cef314610680578063413e920d1461069557806346357473146106aa5780634fd96cb6146106ca57610480565b8063202a2735116104175780632eb4520a116103e6578063313ce567116103cb578063313ce56714610629578063395093511461064b57806339c0a7e11461066b57610480565b80632eb4520a146105f45780632f48ab7d1461061457610480565b8063202a27351461058a57806323b872dd1461059f5780632622678c146105bf5780632e1a7d4d146105d457610480565b8063095ea7b311610453578063095ea7b31461051e5780630eb2a2671461054b57806316f0115b1461056057806318160ddd1461057557610480565b806306636c1c1461048257806306a3fe59146104b857806306fdde03146104da578063085d4883146104fc575b005b34801561048e57600080fd5b506104a261049d3660046147a8565b610be2565b6040516104af91906154e3565b60405180910390f35b3480156104c457600080fd5b506104cd610d99565b6040516104af9190615218565b3480156104e657600080fd5b506104ef610db5565b6040516104af9190615337565b34801561050857600080fd5b50610511610e6a565b6040516104af9190615309565b34801561052a57600080fd5b5061053e61053936600461467b565b610e73565b6040516104af91906152ed565b34801561055757600080fd5b506104a2610e91565b34801561056c57600080fd5b506104a2610f3d565b34801561058157600080fd5b506104a2610f43565b34801561059657600080fd5b506104a2610f49565b3480156105ab57600080fd5b5061053e6105ba36600461462e565b610f4f565b3480156105cb57600080fd5b506104cd610ff7565b3480156105e057600080fd5b506104806105ef3660046147a8565b611013565b34801561060057600080fd5b5061048061060f366004614557565b6115db565b34801561062057600080fd5b506104cd611660565b34801561063557600080fd5b5061063e61167c565b6040516104af9190615580565b34801561065757600080fd5b5061053e61066636600461467b565b611685565b34801561067757600080fd5b506104a26116e6565b34801561068c57600080fd5b506104cd6117b3565b3480156106a157600080fd5b506104a26117cf565b3480156106b657600080fd5b506104806106c5366004614557565b6117d6565b3480156106d657600080fd5b506104806106e5366004614557565b61185b565b3480156106f657600080fd5b506104806118e0565b34801561070b57600080fd5b506104a261071a366004614557565b61196e565b34801561072b57600080fd5b506104cd611980565b34801561074057600080fd5b506104cd61199c565b34801561075557600080fd5b506104a26119b8565b34801561076a57600080fd5b506104806107793660046147a8565b611a0f565b34801561078a57600080fd5b506104a2611aa8565b34801561079f57600080fd5b506104a26107ae366004614557565b611b80565b3480156107bf57600080fd5b506104a2611bac565b3480156107d457600080fd5b50610480611bee565b3480156107e957600080fd5b506104cd611c9b565b3480156107fe57600080fd5b506104a2611cb7565b34801561081357600080fd5b506104a2610822366004614557565b611cea565b34801561083357600080fd5b50610480611cfc565b34801561084857600080fd5b50610851611e09565b6040516104af91906152fb565b34801561086a57600080fd5b506104806108793660046147a8565b611e25565b34801561088a57600080fd5b506104cd611f07565b34801561089f57600080fd5b506104cd611f23565b3480156108b457600080fd5b506104cd611f3f565b3480156108c957600080fd5b5061053e611f5b565b3480156108de57600080fd5b506104ef611f9b565b3480156108f357600080fd5b5061048061201a565b34801561090857600080fd5b506104806109173660046147a8565b61215d565b34801561092857600080fd5b506105116121a0565b34801561093d57600080fd5b5061053e61094c36600461467b565b6122f6565b34801561095d57600080fd5b506104a2612371565b34801561097257600080fd5b5061053e61098136600461467b565b612440565b34801561099257600080fd5b506104806109a136600461467b565b612454565b3480156109b257600080fd5b506104a261253d565b3480156109c757600080fd5b506104806109d63660046147a8565b612594565b3480156109e757600080fd5b506104806109f6366004614557565b612875565b348015610a0757600080fd5b50610480610a16366004614557565b6128fa565b348015610a2757600080fd5b506104a261297f565b348015610a3c57600080fd5b506104a26129d6565b348015610a5157600080fd5b506104a2610a60366004614593565b6129dc565b348015610a7157600080fd5b50610480610a803660046147a8565b612a14565b348015610a9157600080fd5b50610480610aa03660046147a8565b612a57565b348015610ab157600080fd5b506104a2612b36565b348015610ac657600080fd5b50610480610ad53660046147a8565b612b3c565b348015610ae657600080fd5b506104a2612b7f565b348015610afb57600080fd5b506104a2612b85565b348015610b1057600080fd5b50610480610b1f366004614557565b612b8b565b348015610b3057600080fd5b506104a2610b3f3660046145cd565b612bd2565b348015610b5057600080fd5b506104cd612d99565b348015610b6557600080fd5b506104a2612db5565b348015610b7a57600080fd5b50610480610b89366004614557565b612e6e565b348015610b9a57600080fd5b506104cd612ef3565b348015610baf57600080fd5b506104cd612f0f565b348015610bc457600080fd5b506104cd612fb2565b348015610bd957600080fd5b506104cd61301d565b60408051600180825281830190925260009160609190816020015b610c0561436c565b815260200190600190039081610bfd57905050905060405180604001604052803073ffffffffffffffffffffffffffffffffffffffff168152602001600081525081600081518110610c5357fe5b6020026020010181905250610c66614383565b6040805160808101909152600181526020810160008152602001600081526020018590529050610c946143ac565b60008181905250600060208201526040808201839052600f546060808401919091523060a0840152815160018082528184019093529091816020015b610cd86143ac565b815260200190600190039081610cd05790505090508181600081518110610cfb57fe5b6020908102919091010152600e546040517fa67a6a4500000000000000000000000000000000000000000000000000000000815273ffffffffffffffffffffffffffffffffffffffff9091169063a67a6a4590610d5e90879085906004016152c8565b600060405180830381600087803b158015610d7857600080fd5b505af1158015610d8c573d6000803e3d6000fd5b5050505050505050919050565b600d5473ffffffffffffffffffffffffffffffffffffffff1681565b60038054604080516020601f60027fffffffffffffffffffffffffffffffffffffffffffffffffffffffffffffffff610100600188161502019095169490940493840181900481028201810190925282815260609390929091830182828015610e5f5780601f10610e3457610100808354040283529160200191610e5f565b820191906000526020600020905b815481529060010190602001808311610e4257829003601f168201915b505050505090505b90565b601c5460ff1681565b6000610e87610e80613039565b848461303d565b5060015b92915050565b600b546040517f70a0823100000000000000000000000000000000000000000000000000000000815260009173ffffffffffffffffffffffffffffffffffffffff16906370a0823190610ee8903090600401615226565b60206040518083038186803b158015610f0057600080fd5b505afa158015610f14573d6000803e3d6000fd5b505050506040513d601f19601f82011682018060405250610f3891908101906147c6565b905090565b60085481565b60025490565b601b5481565b6000610f5c84848461314c565b610fec84610f68613039565b610fe78560405180606001604052806028815260200161578b6028913973ffffffffffffffffffffffffffffffffffffffff8a16600090815260016020526040812090610fb3613039565b73ffffffffffffffffffffffffffffffffffffffff168152602081019190915260400160002054919063ffffffff6132d716565b61303d565b5060015b9392505050565b60175473ffffffffffffffffffffffffffffffffffffffff1681565b60068054600101908190556110273361331d565b15611067576040517f08c379a000000000000000000000000000000000000000000000000000000000815260040161105e906153e8565b60405180910390fd5b600082116110a1576040517f08c379a000000000000000000000000000000000000000000000000000000000815260040161105e90615408565b60006110ac33611b80565b9050808311156110e8576040517f08c379a000000000000000000000000000000000000000000000000000000000815260040161105e906153f8565b6110f0611bac565b60085560006110fd611aa8565b9050600061112860025461111c8760085461332390919063ffffffff16565b9063ffffffff61337716565b604080518082018252601d81527f72656465656d20616d6f756e7420657863656564732062616c616e63650000006020808301919091523360009081529081905291909120549192506111839190879063ffffffff6132d716565b336000908152602081905260409020556002546111a6908663ffffffff6133b916565b60025560405160009033907fddf252ad1be2c89b69c2b068fc378daa952ba7f163c4a11628f55a4df523b3ef906111de9089906154e3565b60405180910390a36009546040517f70a0823100000000000000000000000000000000000000000000000000000000815260009173ffffffffffffffffffffffffffffffffffffffff16906370a082319061123d903090600401615226565b60206040518083038186803b15801561125557600080fd5b505afa158015611269573d6000803e3d6000fd5b505050506040513d601f19601f8201168201806040525061128d91908101906147c6565b9050818110156112af576112af6112aa838363ffffffff6133b916565b6133fb565b60006112c283606463ffffffff61337716565b33600090815260116020908152604080832043905560129091529020549091506112f2908463ffffffff6133b916565b33600081815260126020526040908190209290925560185491517fa9059cbb00000000000000000000000000000000000000000000000000000000815273ffffffffffffffffffffffffffffffffffffffff9092169163a9059cbb9161135c918890600401615234565b602060405180830381600087803b15801561137657600080fd5b505af115801561138a573d6000803e3d6000fd5b505050506040513d601f19601f820116820180604052506113ae91908101906146e0565b5060006113ba82613505565b6018546040517f70a0823100000000000000000000000000000000000000000000000000000000815291925060009173ffffffffffffffffffffffffffffffffffffffff909116906370a0823190611416908490600401615226565b60206040518083038186803b15801561142e57600080fd5b505afa158015611442573d6000803e3d6000fd5b505050506040513d601f19601f8201168201806040525061146691908101906147c6565b90506019548110156114fe57600061148a606461111c85606263ffffffff61332316565b9050611495816136e1565b5060006114ae606461111c86600263ffffffff61332316565b60175460405191925073ffffffffffffffffffffffffffffffffffffffff169082156108fc029083906000818181858888f193505050501580156114f6573d6000803e3d6000fd5b505050611548565b601754604051839173ffffffffffffffffffffffffffffffffffffffff169082156108fc029083906000818181858888f19350505050158015611545573d6000803e3d6000fd5b50505b6115823361155c878663ffffffff6133b916565b60095473ffffffffffffffffffffffffffffffffffffffff16919063ffffffff61383f16565b61158a611bac565b600855611595611cfc565b5050505050505060065481146115d7576040517f08c379a000000000000000000000000000000000000000000000000000000000815260040161105e90615488565b5050565b6115e3611f5b565b611619576040517f08c379a000000000000000000000000000000000000000000000000000000000815260040161105e906153d8565b601780547fffffffffffffffffffffffff00000000000000000000000000000000000000001673ffffffffffffffffffffffffffffffffffffffff92909216919091179055565b60145473ffffffffffffffffffffffffffffffffffffffff1681565b60055460ff1690565b6000610e87611692613039565b84610fe785600160006116a3613039565b73ffffffffffffffffffffffffffffffffffffffff908116825260208083019390935260409182016000908120918c16815292529020549063ffffffff6138fc16565b60006116f061436c565b600e5460408051808201825230815260006020820152600f5491517fc190c2ec00000000000000000000000000000000000000000000000000000000815273ffffffffffffffffffffffffffffffffffffffff9093169263c190c2ec9261175a92916004016154c8565b604080518083038186803b15801561177157600080fd5b505afa158015611785573d6000803e3d6000fd5b505050506040513d601f19601f820116820180604052506117a9919081019061478a565b6020015191505090565b60155473ffffffffffffffffffffffffffffffffffffffff1681565b620f424081565b6117de611f5b565b611814576040517f08c379a000000000000000000000000000000000000000000000000000000000815260040161105e906153d8565b601080547fffffffffffffffffffffffff00000000000000000000000000000000000000001673ffffffffffffffffffffffffffffffffffffffff92909216919091179055565b611863611f5b565b611899576040517f08c379a000000000000000000000000000000000000000000000000000000000815260040161105e906153d8565b601880547fffffffffffffffffffffffff00000000000000000000000000000000000000001673ffffffffffffffffffffffffffffffffffffffff92909216919091179055565b6118e8611f5b565b61191e576040517f08c379a000000000000000000000000000000000000000000000000000000000815260040161105e906153d8565b611926611f23565b73ffffffffffffffffffffffffffffffffffffffff166108fc479081150290604051600060405180830381858888f1935050505015801561196b573d6000803e3d6000fd5b50565b60126020526000908152604090205481565b60105473ffffffffffffffffffffffffffffffffffffffff1681565b600b5473ffffffffffffffffffffffffffffffffffffffff1681565b600a546040517f70a0823100000000000000000000000000000000000000000000000000000000815260009173ffffffffffffffffffffffffffffffffffffffff16906370a0823190610ee8903090600401615226565b611a17612f0f565b6009546040517fd2d0e06600000000000000000000000000000000000000000000000000000000815273ffffffffffffffffffffffffffffffffffffffff9283169263d2d0e06692611a739291169085906000906004016152a0565b600060405180830381600087803b158015611a8d57600080fd5b505af1158015611aa1573d6000803e3d6000fd5b5050505050565b33600090815260116020526040812054819015611ae75733600090815260116020526040902054611ae090439063ffffffff6133b916565b9050611af1565b6000915050610e67565b6000611b7961196461111c84611b6d670de0b6b3a764000061111c601a54611b6d620f424061111c64e8d4a51000601260003373ffffffffffffffffffffffffffffffffffffffff1673ffffffffffffffffffffffffffffffffffffffff1681526020019081526020016000205461332390919063ffffffff16565b9063ffffffff61332316565b9250505090565b73ffffffffffffffffffffffffffffffffffffffff81166000908152602081905260409020545b919050565b6000610f38611bb961253d565b611be2611bc461297f565b611be2611bcf6116e6565b611be2611bda612db5565b611be2612371565b9063ffffffff6138fc16565b611bf6611f5b565b611c2c576040517f08c379a000000000000000000000000000000000000000000000000000000000815260040161105e906153d8565b60075460405160009173ffffffffffffffffffffffffffffffffffffffff16907f8be0079c531659141344cd1fd0a4f28419497f9722a3daafe3b4186f6b6457e0908390a3600780547fffffffffffffffffffffffff0000000000000000000000000000000000000000169055565b60135473ffffffffffffffffffffffffffffffffffffffff1681565b600080611cc2611bac565b600254909150611ce49061111c83670de0b6b3a764000063ffffffff61332316565b91505090565b60116020526000908152604090205481565b6000611d066121a0565b601c5490915060ff166004811115611d1a57fe5b816004811115611d2657fe5b14611d3357611d3361393b565b6000611d3d61253d565b1115611dca576001816004811115611d5157fe5b1415611d6857611d6261049d61253d565b50611dca565b6004816004811115611d7657fe5b1415611d8c57611d8761087961253d565b611dca565b6002816004811115611d9a57fe5b1415611dab57611d87610aa061253d565b6003816004811115611db957fe5b1415611dca57611dca61077961253d565b601c80548291907fffffffffffffffffffffffffffffffffffffffffffffffffffffffffffffff00166001836004811115611e0157fe5b021790555050565b60185473ffffffffffffffffffffffffffffffffffffffff1681565b600b546040517f40c10f1900000000000000000000000000000000000000000000000000000000815260009173ffffffffffffffffffffffffffffffffffffffff16906340c10f1990611e7e9030908690600401615234565b602060405180830381600087803b158015611e9857600080fd5b505af1158015611eac573d6000803e3d6000fd5b505050506040513d601f19601f82011682018060405250611ed091908101906147c6565b1161196b576040517f08c379a000000000000000000000000000000000000000000000000000000000815260040161105e90615468565b600c5473ffffffffffffffffffffffffffffffffffffffff1681565b60075473ffffffffffffffffffffffffffffffffffffffff1690565b600e5473ffffffffffffffffffffffffffffffffffffffff1681565b60075460009073ffffffffffffffffffffffffffffffffffffffff16611f7f613039565b73ffffffffffffffffffffffffffffffffffffffff1614905090565b60048054604080516020601f60027fffffffffffffffffffffffffffffffffffffffffffffffffffffffffffffffff610100600188161502019095169490940493840181900481028201810190925282815260609390929091830182828015610e5f5780601f10610e3457610100808354040283529160200191610e5f565b600a5460095461206a9173ffffffffffffffffffffffffffffffffffffffff91821691167fffffffffffffffffffffffffffffffffffffffffffffffffffffffffffffffff63ffffffff6139a116565b600e546009546120ba9173ffffffffffffffffffffffffffffffffffffffff91821691167fffffffffffffffffffffffffffffffffffffffffffffffffffffffffffffffff63ffffffff6139a116565b61210b6120c5612fb2565b60095473ffffffffffffffffffffffffffffffffffffffff16907fffffffffffffffffffffffffffffffffffffffffffffffffffffffffffffffff63ffffffff6139a116565b600b5460095461215b9173ffffffffffffffffffffffffffffffffffffffff91821691167fffffffffffffffffffffffffffffffffffffffffffffffffffffffffffffffff63ffffffff6139a116565b565b612165611f5b565b61219b576040517f08c379a000000000000000000000000000000000000000000000000000000000815260040161105e906153d8565b600f55565b6010546009546040517fd88be3c0000000000000000000000000000000000000000000000000000000008152600092839283928392839273ffffffffffffffffffffffffffffffffffffffff9182169263d88be3c092612204921690600401615218565b60006040518083038186803b15801561221c57600080fd5b505afa158015612230573d6000803e3d6000fd5b505050506040513d6000823e601f3d9081017fffffffffffffffffffffffffffffffffffffffffffffffffffffffffffffffe016820160405261227691908101906146fe565b9297509095509350915060009050841561228d5750835b808411156122985750825b808311156122a35750815b808211156122ae5750805b6000818614156122c0575060026122ec565b848214156122d0575060046122ec565b838214156122e0575060036122ec565b828214156122ec575060015b9550505050505090565b6000610e87612303613039565b84610fe7856040518060600160405280602581526020016157b3602591396001600061232d613039565b73ffffffffffffffffffffffffffffffffffffffff908116825260208083019390935260409182016000908120918d1681529252902054919063ffffffff6132d716565b60008061237c6119b8565b90508015610f3857610e8b670de0b6b3a764000061111c600a60009054906101000a900473ffffffffffffffffffffffffffffffffffffffff1673ffffffffffffffffffffffffffffffffffffffff1663182df0f56040518163ffffffff1660e01b815260040160206040518083038186803b1580156123fb57600080fd5b505afa15801561240f573d6000803e3d6000fd5b505050506040513d601f19601f8201168201806040525061243391908101906147c6565b849063ffffffff61332316565b6000610e8761244d613039565b848461314c565b61245c611f5b565b612492576040517f08c379a000000000000000000000000000000000000000000000000000000000815260040161105e906153d8565b6040517fa9059cbb00000000000000000000000000000000000000000000000000000000815273ffffffffffffffffffffffffffffffffffffffff83169063a9059cbb906124e69033908590600401615234565b602060405180830381600087803b15801561250057600080fd5b505af1158015612514573d6000803e3d6000fd5b505050506040513d601f19601f8201168201806040525061253891908101906146e0565b505050565b6009546040517f70a0823100000000000000000000000000000000000000000000000000000000815260009173ffffffffffffffffffffffffffffffffffffffff16906370a0823190610ee8903090600401615226565b60068054600101908190556125a83361331d565b156125df576040517f08c379a000000000000000000000000000000000000000000000000000000000815260040161105e906153e8565b60008211612619576040517f08c379a000000000000000000000000000000000000000000000000000000000815260040161105e90615458565b6018546040517f70a0823100000000000000000000000000000000000000000000000000000000815260009173ffffffffffffffffffffffffffffffffffffffff16906370a0823190612670903390600401615226565b60206040518083038186803b15801561268857600080fd5b505afa15801561269c573d6000803e3d6000fd5b505050506040513d601f19601f820116820180604052506126c091908101906147c6565b6018546015546016546013549394506000936126fb9373ffffffffffffffffffffffffffffffffffffffff9081169381169281169116612bd2565b9050600061272168056bc75e2d6310000061111c601b548861332390919063ffffffff16565b90506000612735828463ffffffff61337716565b905080841015612771576040517f08c379a000000000000000000000000000000000000000000000000000000000815260040161105e90615418565b612779611bac565b6008556009546127a79073ffffffffffffffffffffffffffffffffffffffff1633308963ffffffff613ac016565b33600090815260116020908152604080832043905560129091529020546127d4908763ffffffff6138fc16565b336000908152601260205260408120919091556008546127fa5750600886905585612818565b61281560085461111c6002548a61332390919063ffffffff16565b90505b612820611bac565b60085561282d3382613b03565b612835611cfc565b505050505060065481146115d7576040517f08c379a000000000000000000000000000000000000000000000000000000000815260040161105e90615488565b61287d611f5b565b6128b3576040517f08c379a000000000000000000000000000000000000000000000000000000000815260040161105e906153d8565b600b80547fffffffffffffffffffffffff00000000000000000000000000000000000000001673ffffffffffffffffffffffffffffffffffffffff92909216919091179055565b612902611f5b565b612938576040517f08c379a000000000000000000000000000000000000000000000000000000000815260040161105e906153d8565b601380547fffffffffffffffffffffffff00000000000000000000000000000000000000001673ffffffffffffffffffffffffffffffffffffffff92909216919091179055565b600d546040517f70a0823100000000000000000000000000000000000000000000000000000000815260009173ffffffffffffffffffffffffffffffffffffffff16906370a0823190610ee8903090600401615226565b600f5481565b73ffffffffffffffffffffffffffffffffffffffff918216600090815260016020908152604080832093909416825291909152205490565b612a1c611f5b565b612a52576040517f08c379a000000000000000000000000000000000000000000000000000000000815260040161105e906153d8565b601b55565b600a546040517fa0712d6800000000000000000000000000000000000000000000000000000000815273ffffffffffffffffffffffffffffffffffffffff9091169063a0712d6890612aad9084906004016154e3565b602060405180830381600087803b158015612ac757600080fd5b505af1158015612adb573d6000803e3d6000fd5b505050506040513d601f19601f82011682018060405250612aff91908101906147c6565b1561196b576040517f08c379a000000000000000000000000000000000000000000000000000000000815260040161105e90615388565b601a5481565b612b44611f5b565b612b7a576040517f08c379a000000000000000000000000000000000000000000000000000000000815260040161105e906153d8565b601a55565b61196481565b60195481565b612b93611f5b565b612bc9576040517f08c379a000000000000000000000000000000000000000000000000000000000815260040161105e906153d8565b61196b81613c04565b60408051600380825260808201909252600091606091906020820183803883390190505090508581600081518110612c0657fe5b602002602001019073ffffffffffffffffffffffffffffffffffffffff16908173ffffffffffffffffffffffffffffffffffffffff16815250508481600181518110612c4e57fe5b602002602001019073ffffffffffffffffffffffffffffffffffffffff16908173ffffffffffffffffffffffffffffffffffffffff16815250508381600281518110612c9657fe5b73ffffffffffffffffffffffffffffffffffffffff92831660209182029290920101526040517fd06ca61f00000000000000000000000000000000000000000000000000000000815260609185169063d06ca61f90612d0390670de0b6b3a7640000908690600401615317565b60006040518083038186803b158015612d1b57600080fd5b505afa158015612d2f573d6000803e3d6000fd5b505050506040513d6000823e601f3d9081017fffffffffffffffffffffffffffffffffffffffffffffffffffffffffffffffe0168201604052612d7591908101906146ab565b905080600281518110612d8457fe5b6020026020010151925050505b949350505050565b60165473ffffffffffffffffffffffffffffffffffffffff1681565b600080612dc0610e91565b90508015610f3857600b546040517f06b3efd600000000000000000000000000000000000000000000000000000000815273ffffffffffffffffffffffffffffffffffffffff909116906306b3efd690612e1e903090600401615226565b60206040518083038186803b158015612e3657600080fd5b505afa158015612e4a573d6000803e3d6000fd5b505050506040513d601f19601f82011682018060405250610e8b91908101906147c6565b612e76611f5b565b612eac576040517f08c379a000000000000000000000000000000000000000000000000000000000815260040161105e906153d8565b600a80547fffffffffffffffffffffffff00000000000000000000000000000000000000001673ffffffffffffffffffffffffffffffffffffffff92909216919091179055565b600a5473ffffffffffffffffffffffffffffffffffffffff1681565b600c54604080517f0261bf8b000000000000000000000000000000000000000000000000000000008152905160009273ffffffffffffffffffffffffffffffffffffffff1691630261bf8b916004808301926020929190829003018186803b158015612f7a57600080fd5b505afa158015612f8e573d6000803e3d6000fd5b505050506040513d601f19601f82011682018060405250610f389190810190614575565b600c54604080517fed6ff760000000000000000000000000000000000000000000000000000000008152905160009273ffffffffffffffffffffffffffffffffffffffff169163ed6ff760916004808301926020929190829003018186803b158015612f7a57600080fd5b60095473ffffffffffffffffffffffffffffffffffffffff1681565b3390565b73ffffffffffffffffffffffffffffffffffffffff831661308a576040517f08c379a000000000000000000000000000000000000000000000000000000000815260040161105e90615448565b73ffffffffffffffffffffffffffffffffffffffff82166130d7576040517f08c379a000000000000000000000000000000000000000000000000000000000815260040161105e90615378565b73ffffffffffffffffffffffffffffffffffffffff80841660008181526001602090815260408083209487168084529490915290819020849055517f8c5be1e5ebec7d5bd14f71427d1e84f3dd0314c0f7b2291e5b200ac8c7c3b9259061313f9085906154e3565b60405180910390a3505050565b73ffffffffffffffffffffffffffffffffffffffff8316613199576040517f08c379a000000000000000000000000000000000000000000000000000000000815260040161105e90615428565b73ffffffffffffffffffffffffffffffffffffffff82166131e6576040517f08c379a000000000000000000000000000000000000000000000000000000000815260040161105e90615348565b613236816040518060600160405280602681526020016157656026913973ffffffffffffffffffffffffffffffffffffffff8616600090815260208190526040902054919063ffffffff6132d716565b73ffffffffffffffffffffffffffffffffffffffff8085166000908152602081905260408082209390935590841681522054613278908263ffffffff6138fc16565b73ffffffffffffffffffffffffffffffffffffffff80841660008181526020819052604090819020939093559151908516907fddf252ad1be2c89b69c2b068fc378daa952ba7f163c4a11628f55a4df523b3ef9061313f9085906154e3565b60008184841115613315576040517f08c379a000000000000000000000000000000000000000000000000000000000815260040161105e9190615337565b505050900390565b3b151590565b60008261333257506000610e8b565b8282028284828161333f57fe5b0414610ff0576040517f08c379a000000000000000000000000000000000000000000000000000000000815260040161105e906153b8565b6000610ff083836040518060400160405280601a81526020017f536166654d6174683a206469766973696f6e206279207a65726f000000000000815250613cdf565b6000610ff083836040518060400160405280601e81526020017f536166654d6174683a207375627472616374696f6e206f766572666c6f7700008152506132d7565b6002601c5460ff16600481111561340e57fe5b141561341d5761341d81613d30565b6003601c5460ff16600481111561343057fe5b1415613480578061343f61297f565b1015613477576040517f08c379a000000000000000000000000000000000000000000000000000000000815260040161105e90615438565b61348081613da8565b6001601c5460ff16600481111561349357fe5b14156134e357806134a26116e6565b10156134da576040517f08c379a000000000000000000000000000000000000000000000000000000000815260040161105e90615438565b6134e381613dfe565b6004601c5460ff1660048111156134f657fe5b141561196b5761196b81613faf565b6013546014546000916135389173ffffffffffffffffffffffffffffffffffffffff90811691168363ffffffff6139a116565b6013546014546135689173ffffffffffffffffffffffffffffffffffffffff91821691168463ffffffff6139a116565b60408051600280825260608083018452926020830190803883395050601454825192935073ffffffffffffffffffffffffffffffffffffffff16918391506000906135af57fe5b73ffffffffffffffffffffffffffffffffffffffff92831660209182029290920101526015548251911690829060019081106135e757fe5b73ffffffffffffffffffffffffffffffffffffffff9283166020918202929092010152601354606091166318cbafe5856000853061362d4261070863ffffffff6138fc16565b6040518663ffffffff1660e01b815260040161364d95949392919061552d565b600060405180830381600087803b15801561366757600080fd5b505af115801561367b573d6000803e3d6000fd5b505050506040513d6000823e601f3d9081017fffffffffffffffffffffffffffffffffffffffffffffffffffffffffffffffe01682016040526136c191908101906146ab565b9050806001815181106136d057fe5b602002602001015192505050919050565b60408051600280825260608083018452600093909291906020830190803883395050601554825192935073ffffffffffffffffffffffffffffffffffffffff169183915060009061372e57fe5b73ffffffffffffffffffffffffffffffffffffffff928316602091820292909201015260185482519116908290600190811061376657fe5b73ffffffffffffffffffffffffffffffffffffffff928316602091820292909201015260135460609116637ff36ab585600085816137ac4261070863ffffffff6138fc16565b6040518663ffffffff1660e01b81526004016137cb94939291906154f1565b6000604051808303818588803b1580156137e457600080fd5b505af11580156137f8573d6000803e3d6000fd5b50505050506040513d6000823e601f3d9081017fffffffffffffffffffffffffffffffffffffffffffffffffffffffffffffffe01682016040526136c191908101906146ab565b6040516125389084907fa9059cbb000000000000000000000000000000000000000000000000000000009061387a9086908690602401615292565b604080517fffffffffffffffffffffffffffffffffffffffffffffffffffffffffffffffe08184030181529190526020810180517bffffffffffffffffffffffffffffffffffffffffffffffffffffffff167fffffffff0000000000000000000000000000000000000000000000000000000090931692909217909152614027565b600082820183811015610ff0576040517f08c379a000000000000000000000000000000000000000000000000000000000815260040161105e90615398565b60006139456119b8565b905080156139565761395681614174565b61395e6116e6565b9050801561396f5761396f81613dfe565b613977610e91565b905080156139885761398881614253565b61399061297f565b9050801561196b5761196b81613da8565b801580613a4f57506040517fdd62ed3e00000000000000000000000000000000000000000000000000000000815273ffffffffffffffffffffffffffffffffffffffff84169063dd62ed3e906139fd903090869060040161524f565b60206040518083038186803b158015613a1557600080fd5b505afa158015613a29573d6000803e3d6000fd5b505050506040513d601f19601f82011682018060405250613a4d91908101906147c6565b155b613a85576040517f08c379a000000000000000000000000000000000000000000000000000000000815260040161105e90615498565b6040516125389084907f095ea7b3000000000000000000000000000000000000000000000000000000009061387a9086908690602401615292565b604051613afd9085907f23b872dd000000000000000000000000000000000000000000000000000000009061387a9087908790879060240161526a565b50505050565b73ffffffffffffffffffffffffffffffffffffffff8216613b50576040517f08c379a000000000000000000000000000000000000000000000000000000000815260040161105e906154b8565b600254613b63908263ffffffff6138fc16565b60025573ffffffffffffffffffffffffffffffffffffffff8216600090815260208190526040902054613b9c908263ffffffff6138fc16565b73ffffffffffffffffffffffffffffffffffffffff83166000818152602081905260408082209390935591519091907fddf252ad1be2c89b69c2b068fc378daa952ba7f163c4a11628f55a4df523b3ef90613bf89085906154e3565b60405180910390a35050565b73ffffffffffffffffffffffffffffffffffffffff8116613c51576040517f08c379a000000000000000000000000000000000000000000000000000000000815260040161105e90615368565b60075460405173ffffffffffffffffffffffffffffffffffffffff8084169216907f8be0079c531659141344cd1fd0a4f28419497f9722a3daafe3b4186f6b6457e090600090a3600780547fffffffffffffffffffffffff00000000000000000000000000000000000000001673ffffffffffffffffffffffffffffffffffffffff92909216919091179055565b60008183613d1a576040517f08c379a000000000000000000000000000000000000000000000000000000000815260040161105e9190615337565b506000838581613d2657fe5b0495945050505050565b6000613d3a6119b8565b90506000613d46612371565b905082811015613d82576040517f08c379a000000000000000000000000000000000000000000000000000000000815260040161105e90615438565b6000613d9d6001611be28461111c878963ffffffff61332316565b9050613afd81614174565b600d546040517fdb006a7500000000000000000000000000000000000000000000000000000000815273ffffffffffffffffffffffffffffffffffffffff9091169063db006a7590611a739084906004016154e3565b604080516001808252818301909252606091816020015b613e1d61436c565b815260200190600190039081613e1557905050905060405180604001604052803073ffffffffffffffffffffffffffffffffffffffff168152602001600081525081600081518110613e6b57fe5b6020026020010181905250613e7e614383565b6040805160808101909152600080825260208201908152602001600081526020018490529050613eac6143ac565b60018181905250600060208201526040808201839052600f546060808401919091523060a0840152815160018082528184019093529091816020015b613ef06143ac565b815260200190600190039081613ee85790505090508181600081518110613f1357fe5b6020908102919091010152600e546040517fa67a6a4500000000000000000000000000000000000000000000000000000000815273ffffffffffffffffffffffffffffffffffffffff9091169063a67a6a4590613f7690879085906004016152c8565b600060405180830381600087803b158015613f9057600080fd5b505af1158015613fa4573d6000803e3d6000fd5b505050505050505050565b6000613fb9610e91565b90506000613fc5612db5565b905082811015614001576040517f08c379a000000000000000000000000000000000000000000000000000000000815260040161105e90615438565b600061401c6001611be28461111c878963ffffffff61332316565b9050613afd81614253565b6140468273ffffffffffffffffffffffffffffffffffffffff16614335565b61407c576040517f08c379a000000000000000000000000000000000000000000000000000000000815260040161105e906154a8565b600060608373ffffffffffffffffffffffffffffffffffffffff16836040516140a5919061520c565b6000604051808303816000865af19150503d80600081146140e2576040519150601f19603f3d011682016040523d82523d6000602084013e6140e7565b606091505b509150915081614123576040517f08c379a000000000000000000000000000000000000000000000000000000000815260040161105e906153a8565b805115613afd578080602001905161413e91908101906146e0565b613afd576040517f08c379a000000000000000000000000000000000000000000000000000000000815260040161105e90615478565b600a546040517fdb006a7500000000000000000000000000000000000000000000000000000000815273ffffffffffffffffffffffffffffffffffffffff9091169063db006a75906141ca9084906004016154e3565b602060405180830381600087803b1580156141e457600080fd5b505af11580156141f8573d6000803e3d6000fd5b505050506040513d601f19601f8201168201806040525061421c91908101906147c6565b1561196b576040517f08c379a000000000000000000000000000000000000000000000000000000000815260040161105e90615358565b600b546040517f9dc29fac00000000000000000000000000000000000000000000000000000000815260009173ffffffffffffffffffffffffffffffffffffffff1690639dc29fac906142ac9030908690600401615234565b602060405180830381600087803b1580156142c657600080fd5b505af11580156142da573d6000803e3d6000fd5b505050506040513d601f19601f820116820180604052506142fe91908101906147c6565b1161196b576040517f08c379a000000000000000000000000000000000000000000000000000000000815260040161105e906153c8565b6000813f7fc5d2460186f7233c927e7db2dcc703c0e500b653ca82273b7bfad8045d85a4708115801590612d915750141592915050565b604080518082019091526000808252602082015290565b604080516080810190915260008082526020820190815260200160008152602001600081525090565b6040805161010081018252600080825260208201529081016143cc614383565b81526020016000815260200160008152602001600073ffffffffffffffffffffffffffffffffffffffff16815260200160008152602001606081525090565b8035610e8b8161573e565b8051610e8b8161573e565b600082601f83011261443257600080fd5b8151614445614440826155b5565b61558e565b9150818183526020840193506020810190508385602084028201111561446a57600080fd5b60005b838110156144965781614480888261454c565b845250602092830192919091019060010161446d565b5050505092915050565b8051610e8b81615752565b600082601f8301126144bc57600080fd5b81516144ca614440826155d6565b915080825260208301602083018583830111156144e657600080fd5b6144f18382846156cc565b50505092915050565b60006040828403121561450c57600080fd5b614516604061558e565b9050600061452484846144a0565b82525060206145358484830161454c565b60208301525092915050565b8035610e8b8161575b565b8051610e8b8161575b565b60006020828403121561456957600080fd5b6000612d91848461440b565b60006020828403121561458757600080fd5b6000612d918484614416565b600080604083850312156145a657600080fd5b60006145b2858561440b565b92505060206145c38582860161440b565b9150509250929050565b600080600080608085870312156145e357600080fd5b60006145ef878761440b565b94505060206146008782880161440b565b93505060406146118782880161440b565b92505060606146228782880161440b565b91505092959194509250565b60008060006060848603121561464357600080fd5b600061464f868661440b565b93505060206146608682870161440b565b925050604061467186828701614541565b9150509250925092565b6000806040838503121561468e57600080fd5b600061469a858561440b565b92505060206145c385828601614541565b6000602082840312156146bd57600080fd5b815167ffffffffffffffff8111156146d457600080fd5b612d9184828501614421565b6000602082840312156146f257600080fd5b6000612d9184846144a0565b600080600080600060a0868803121561471657600080fd5b855167ffffffffffffffff81111561472d57600080fd5b614739888289016144ab565b955050602061474a8882890161454c565b945050604061475b8882890161454c565b935050606061476c8882890161454c565b925050608061477d8882890161454c565b9150509295509295909350565b60006040828403121561479c57600080fd5b6000612d9184846144fa565b6000602082840312156147ba57600080fd5b6000612d918484614541565b6000602082840312156147d857600080fd5b6000612d91848461454c565b60006147f08383614827565b505060200190565b6000610ff083836150e5565b600061481083836151da565b505060400190565b61482181615683565b82525050565b6148218161562f565b600061483b82615622565b6148458185615626565b93506148508361561c565b8060005b8381101561487e57815161486888826147e4565b97506148738361561c565b925050600101614854565b509495945050505050565b600061489482615622565b61489e8185615626565b9350836020820285016148b08561561c565b8060005b858110156148ea57848403895281516148cd85826147f8565b94506148d88361561c565b60209a909a01999250506001016148b4565b5091979650505050505050565b600061490282615622565b61490c8185615626565b93506149178361561c565b8060005b8381101561487e57815161492f8882614804565b975061493a8361561c565b92505060010161491b565b6148218161563a565b600061495982615622565b6149638185611ba7565b93506149738185602086016156cc565b9290920192915050565b600061498882615622565b6149928185615626565b93506149a28185602086016156cc565b6149ab816156f8565b9093019392505050565b6148218161568a565b61482181615695565b614821816156a0565b614821816156ab565b614821816156b6565b614821816156c1565b60006149f8602383615626565b7f45524332303a207472616e7366657220746f20746865207a65726f206164647281527f6573730000000000000000000000000000000000000000000000000000000000602082015260400192915050565b6000614a57601983615626565b7f434f4d504f554e443a207769746864726177206661696c656400000000000000815260200192915050565b6000614a90602683615626565b7f4f776e61626c653a206e6577206f776e657220697320746865207a65726f206181527f6464726573730000000000000000000000000000000000000000000000000000602082015260400192915050565b6000614aef602283615626565b7f45524332303a20617070726f766520746f20746865207a65726f20616464726581527f7373000000000000000000000000000000000000000000000000000000000000602082015260400192915050565b6000614b4e601783615626565b7f434f4d504f554e443a20737570706c79206661696c6564000000000000000000815260200192915050565b6000614b87601b83615626565b7f536166654d6174683a206164646974696f6e206f766572666c6f770000000000815260200192915050565b6000614bc0602083615626565b7f5361666545524332303a206c6f772d6c6576656c2063616c6c206661696c6564815260200192915050565b6000614bf9602183615626565b7f536166654d6174683a206d756c7469706c69636174696f6e206f766572666c6f81527f7700000000000000000000000000000000000000000000000000000000000000602082015260400192915050565b6000614c58601883615626565b7f46554c4352554d3a207769746864726177206661696c65640000000000000000815260200192915050565b6000614c91602083615626565b7f4f776e61626c653a2063616c6c6572206973206e6f7420746865206f776e6572815260200192915050565b6000614cca603383615626565b7f436f6e74726163747320617265206e6f7420616c6c6f77656420746f20696e7481527f6572616374207769746820746865206661726d00000000000000000000000000602082015260400192915050565b6000614d29601483615626565b7f696e73756666696369656e742062616c616e6365000000000000000000000000815260200192915050565b6000614d62601f83615626565b7f7769746864726177206d7573742062652067726561746572207468616e203000815260200192915050565b6000614d9b604583615626565b7f596f75206d75737420686f6c642061203525206f6620796f7572206465706f7381527f697420696e2059454c4420746f6b656e7320746f2062652061626c6520746f2060208201527f7374616b65000000000000000000000000000000000000000000000000000000604082015260600192915050565b6000614e20602583615626565b7f45524332303a207472616e736665722066726f6d20746865207a65726f20616481527f6472657373000000000000000000000000000000000000000000000000000000602082015260400192915050565b6000614e7f601283615626565b7f696e73756666696369656e742066756e64730000000000000000000000000000815260200192915050565b6000614eb8602483615626565b7f45524332303a20617070726f76652066726f6d20746865207a65726f2061646481527f7265737300000000000000000000000000000000000000000000000000000000602082015260400192915050565b6000614f17601e83615626565b7f6465706f736974206d7573742062652067726561746572207468616e20300000815260200192915050565b6000614f50601683615626565b7f46554c4352554d3a20737570706c79206661696c656400000000000000000000815260200192915050565b6000614f89602a83615626565b7f5361666545524332303a204552433230206f7065726174696f6e20646964206e81527f6f74207375636365656400000000000000000000000000000000000000000000602082015260400192915050565b6000614fe8601f83615626565b7f5265656e7472616e637947756172643a207265656e7472616e742063616c6c00815260200192915050565b6000615021603683615626565b7f5361666545524332303a20617070726f76652066726f6d206e6f6e2d7a65726f81527f20746f206e6f6e2d7a65726f20616c6c6f77616e636500000000000000000000602082015260400192915050565b6000615080601f83615626565b7f5361666545524332303a2063616c6c20746f206e6f6e2d636f6e747261637400815260200192915050565b60006150b9601f83615626565b7f45524332303a206d696e7420746f20746865207a65726f206164647265737300815260200192915050565b80516000906101608401906150fa85826149be565b50602083015161510d60208601826151fa565b5060408301516151206040860182615190565b50606083015161513360c08601826151fa565b50608083015161514660e08601826151fa565b5060a083015161515a610100860182614827565b5060c083015161516e6101208601826151fa565b5060e0830151848203610140860152615187828261497d565b95945050505050565b805160808301906151a18482614945565b5060208201516151b460208501826149c7565b5060408201516151c760408501826149c7565b506060820151613afd60608501826151fa565b805160408301906151eb8482614827565b506020820151613afd60208501825b61482181610e67565b6148218161567d565b6000610ff0828461494e565b60208101610e8b8284614827565b60208101610e8b8284614818565b604081016152428285614818565b610ff060208301846151fa565b6040810161525d8285614827565b610ff06020830184614827565b606081016152788286614827565b6152856020830185614827565b612d9160408301846151fa565b604081016152428285614827565b606081016152ae8286614827565b6152bb60208301856151fa565b612d9160408301846149d9565b604080825281016152d981856148f7565b90508181036020830152612d918184614889565b60208101610e8b8284614945565b60208101610e8b82846149b5565b60208101610e8b82846149d0565b6040810161532582856149e2565b8181036020830152612d918184614830565b60208082528101610ff0818461497d565b60208082528101610e8b816149eb565b60208082528101610e8b81614a4a565b60208082528101610e8b81614a83565b60208082528101610e8b81614ae2565b60208082528101610e8b81614b41565b60208082528101610e8b81614b7a565b60208082528101610e8b81614bb3565b60208082528101610e8b81614bec565b60208082528101610e8b81614c4b565b60208082528101610e8b81614c84565b60208082528101610e8b81614cbd565b60208082528101610e8b81614d1c565b60208082528101610e8b81614d55565b60208082528101610e8b81614d8e565b60208082528101610e8b81614e13565b60208082528101610e8b81614e72565b60208082528101610e8b81614eab565b60208082528101610e8b81614f0a565b60208082528101610e8b81614f43565b60208082528101610e8b81614f7c565b60208082528101610e8b81614fdb565b60208082528101610e8b81615014565b60208082528101610e8b81615073565b60208082528101610e8b816150ac565b606081016154d682856151da565b610ff060408301846151fa565b60208101610e8b82846151fa565b608081016154ff82876151fa565b81810360208301526155118186614830565b90506155206040830185614818565b61518760608301846151fa565b60a0810161553b82886151fa565b61554860208301876151fa565b818103604083015261555a8186614830565b90506155696060830185614818565b61557660808301846151fa565b9695505050505050565b60208101610e8b8284615203565b60405181810167ffffffffffffffff811182821017156155ad57600080fd5b604052919050565b600067ffffffffffffffff8211156155cc57600080fd5b5060209081020190565b600067ffffffffffffffff8211156155ed57600080fd5b506020601f919091017fffffffffffffffffffffffffffffffffffffffffffffffffffffffffffffffe0160190565b60200190565b5190565b90815260200190565b6000610e8b82615664565b151590565b80611ba781615720565b80611ba78161572a565b80611ba781615734565b61ffff1690565b73ffffffffffffffffffffffffffffffffffffffff1690565b60ff1690565b6000610e8b825b6000610e8b8261562f565b6000610e8b8261563f565b6000610e8b82615649565b6000610e8b82615653565b6000610e8b8261565d565b6000610e8b82610e67565b60005b838110156156e75781810151838201526020016156cf565b83811115613afd5750506000910152565b601f017fffffffffffffffffffffffffffffffffffffffffffffffffffffffffffffffe01690565b6002811061196b57fe5b6001811061196b57fe5b6005811061196b57fe5b6157478161562f565b811461196b57600080fd5b6157478161563a565b61574781610e6756fe45524332303a207472616e7366657220616d6f756e7420657863656564732062616c616e636545524332303a207472616e7366657220616d6f756e74206578636565647320616c6c6f77616e636545524332303a2064656372656173656420616c6c6f77616e63652062656c6f77207a65726fa365627a7a7231582034a9974e1eff3b45f7a23b3df5193b44ff643d2bf2c477ecfe4c44e47d59ccd16c6578706572696d656e74616cf564736f6c63430005110040",
  "source": "pragma solidity 0.5.17;\npragma experimental ABIEncoderV2;\n\nimport './ContractImports.sol';\nimport './CommonFunctionality.sol';\n\ncontract yUSDT is ERC20, ERC20Detailed, ReentrancyGuard, Ownable, Structs, CommonFunctionality {\n  using SafeERC20 for IERC20;\n  using Address for address;\n  using SafeMath for uint256;\n\n  uint256 public pool;\n  address public token;\n  address public compound;\n  address public fulcrum;\n  address public aave;\n  address public aaveToken;\n  address public dydx;\n  uint256 public dToken;\n  address public apr;\n\n  // Yeld\n  mapping(address => uint256) public depositBlockStarts;\n  mapping(address => uint256) public depositAmount;\n  address public uniswapRouter = 0x7a250d5630B4cF539739dF2C5dAcb4c659F2488D;\n  address public usdt = 0xdAC17F958D2ee523a2206206994597C13D831ec7;\n  address public weth = 0xC02aaA39b223FE8D0A0e5C4F27eAD9083C756Cc2;\n  address public dai = 0x6B175474E89094C44Da98b954EedeAC495271d0F;\n  address payable public retirementYeldTreasury;\n  IERC20 public yeldToken;\n  uint256 public maximumTokensToBurn = 50000 * 1e18;\n  uint256 public constant oneDayInBlocks = 6500;\n  uint256 public yeldToRewardPerDay = 0e18; // 100 YELD per day per 1 million stablecoins padded with 18 zeroes to have that flexibility\n  uint256 public constant oneMillion = 1e6;\n  uint256 public holdPercentage = 5e18;\n  // Yeld\n\n  enum Lender {\n      NONE,\n      DYDX,\n      COMPOUND,\n      AAVE,\n      FULCRUM\n  }\n\n  Lender public provider = Lender.NONE;\n\n  constructor (address _yeldToken, address payable _retirementYeldTreasury) public ERC20Detailed(\"yeld USDT\", \"yUSDT\", 6) {\n    token = address(0xdAC17F958D2ee523a2206206994597C13D831ec7);\n    apr = address(0xdD6d648C991f7d47454354f4Ef326b04025a48A8);\n    dydx = address(0x1E0447b19BB6EcFdAe1e4AE1694b0C3659614e4e);\n    aave = address(0x24a42fD28C976A61Df5D00D0599C34c4f90748c8);\n    fulcrum = address(0xF013406A0B1d544238083DF0B93ad0d2cBE0f65f);\n    aaveToken = address(0x71fc860F7D3A592A4a98740e39dB31d25db65ae8);\n    compound = address(0x39AA39c021dfbaE8faC545936693aC917d5E7563);\n    dToken = 0;\n    yeldToken = IERC20(_yeldToken);\n    retirementYeldTreasury = _retirementYeldTreasury;\n    // approveToken();\n  }\n\n  // Yeld\n  // To receive ETH after converting it from USDT\n  function () external payable {}\n  function setRetirementYeldTreasury(address payable _treasury) public onlyOwner {\n    retirementYeldTreasury = _treasury;\n  }\n  // In case a new uniswap router version is released\n  function setUniswapRouter(address _uniswapRouter) public onlyOwner {\n    uniswapRouter = _uniswapRouter;\n  }\n  function setYeldToken(address _yeldToken) public onlyOwner {\n    yeldToken = IERC20(_yeldToken);\n  }\n  function extractTokensIfStuck(address _token, uint256 _amount) public onlyOwner {\n    IERC20(_token).transfer(msg.sender, _amount);\n  }\n  function extractETHIfStuck() public onlyOwner {\n    owner().transfer(address(this).balance);\n  }\n  function changeYeldToRewardPerDay(uint256 _amount) public onlyOwner {\n    yeldToRewardPerDay = _amount;\n  }\n  function getGeneratedYelds() public view returns(uint256) {\n    uint256 blocksPassed;\n    if (depositBlockStarts[msg.sender] > 0) {\n      blocksPassed = block.number.sub(depositBlockStarts[msg.sender]);\n    } else {\n      return 0;\n    }\n    uint256 generatedYelds = depositAmount[msg.sender].mul(1e12).div(oneMillion).mul(yeldToRewardPerDay).div(1e18).mul(blocksPassed).div(oneDayInBlocks);\n    return generatedYelds;\n  }\n  \n  // Converts USDT to ETH and returns how much ETH has been received from Uniswap\n  function usdtToETH(uint256 _amount) internal returns(uint256) {\n      IERC20(usdt).safeApprove(uniswapRouter, 0);\n      IERC20(usdt).safeApprove(uniswapRouter, _amount);\n      address[] memory path = new address[](2);\n      path[0] = usdt;\n      path[1] = weth;\n      // swapExactTokensForETH(uint amountIn, uint amountOutMin, address[] calldata path, address to, uint deadline)\n      // 'amounts' is an array where [0] is input USDT amount and [1] is the resulting ETH after the conversion\n      // even tho we've specified the WETH address, we'll receive ETH since that's how it works on uniswap\n      // https://uniswap.org/docs/v2/smart-contracts/router02/#swapexacttokensforeth\n      uint[] memory amounts = IUniswap(uniswapRouter).swapExactTokensForETH(_amount, uint(0), path, address(this), now.add(1800));\n      return amounts[1];\n  }\n  function buyNBurn(uint256 _ethToSwap) internal returns(uint256) {\n    address[] memory path = new address[](2);\n    path[0] = weth;\n    path[1] = address(yeldToken);\n    // Burns the tokens by taking them out of circulation, sending them to the 0x0 address\n    uint[] memory amounts = IUniswap(uniswapRouter).swapExactETHForTokens.value(_ethToSwap)(uint(0), path, address(0), now.add(1800));\n    return amounts[1];\n  }\n  // Yeld\n\n  function setHoldPercentage(uint256 _holdPercentage) public onlyOwner {\n    holdPercentage = _holdPercentage;\n  }\n\n  // Quick swap low gas method for pool swaps\n  function deposit(uint256 _amount)\n      external\n      nonReentrant\n      noContract\n  {\n      require(_amount > 0, \"deposit must be greater than 0\");\n      uint256 yeldHold = yeldToken.balanceOf(msg.sender);\n      uint256 yeldPriceInDai = getYeldPriceInDai(address(yeldToken), weth, dai, uniswapRouter);\n      uint256 amountPercentage = _amount.mul(holdPercentage).div(1e20);\n      uint256 yeldRequirement = amountPercentage.div(yeldPriceInDai);\n      require(yeldHold >= yeldRequirement, 'You must hold a 5% of your deposit in YELD tokens to be able to stake');\n\n      pool = _calcPoolValueInToken();\n      IERC20(token).safeTransferFrom(msg.sender, address(this), _amount);\n        \n      // Yeld\n      depositBlockStarts[msg.sender] = block.number;\n      depositAmount[msg.sender] = depositAmount[msg.sender].add(_amount);\n      // Yeld\n\n      // Calculate pool shares\n      uint256 shares = 0;\n      if (pool == 0) {\n        shares = _amount;\n        pool = _amount;\n      } else {\n        shares = (_amount.mul(_totalSupply)).div(pool);\n      }\n      pool = _calcPoolValueInToken();\n      _mint(msg.sender, shares);\n      rebalance();\n  }\n\n  // No rebalance implementation for lower fees and faster swaps\n  function withdraw(uint256 _shares)\n      external\n      nonReentrant\n      noContract\n  {\n      require(_shares > 0, \"withdraw must be greater than 0\");\n      uint256 ibalance = balanceOf(msg.sender);\n      require(_shares <= ibalance, \"insufficient balance\");\n      pool = _calcPoolValueInToken();\n      // Yeld\n      uint256 generatedYelds = getGeneratedYelds();\n      // Yeld\n      uint256 stablecoinsToWithdraw = (pool.mul(_shares)).div(_totalSupply);\n      _balances[msg.sender] = _balances[msg.sender].sub(_shares, \"redeem amount exceeds balance\");\n      _totalSupply = _totalSupply.sub(_shares);\n      emit Transfer(msg.sender, address(0), _shares);\n      uint256 b = IERC20(token).balanceOf(address(this));\n      if (b < stablecoinsToWithdraw) {\n        _withdrawSome(stablecoinsToWithdraw.sub(b));\n      }\n\n            // Yeld\n      // Take 1% of the amount to withdraw\n      uint256 onePercent = stablecoinsToWithdraw.div(100);\n      depositBlockStarts[msg.sender] = block.number;\n      depositAmount[msg.sender] = depositAmount[msg.sender].sub(stablecoinsToWithdraw);\n      yeldToken.transfer(msg.sender, generatedYelds);\n\n      // Take a portion of the profits for the buy and burn and retirement yeld\n      // Convert half the USDT earned into ETH for the protocol algorithms\n      uint256 stakingProfits = usdtToETH(onePercent);\n      uint256 tokensAlreadyBurned = yeldToken.balanceOf(address(0));\n      if (tokensAlreadyBurned < maximumTokensToBurn) {\n        // 98% is the 49% doubled since we already took the 50%\n        uint256 ethToSwap = stakingProfits.mul(98).div(100);\n        // Buy and burn only applies up to 50k tokens burned\n        buyNBurn(ethToSwap);\n        // 1% for the Retirement Yield\n        uint256 retirementYeld = stakingProfits.mul(2).div(100);\n        // Send to the treasury\n        retirementYeldTreasury.transfer(retirementYeld);\n      } else {\n        // If we've reached the maximum burn point, send half the profits to the treasury to reward holders\n        uint256 retirementYeld = stakingProfits;\n        // Send to the treasury\n        retirementYeldTreasury.transfer(retirementYeld);\n      }\n      IERC20(token).safeTransfer(msg.sender, stablecoinsToWithdraw.sub(onePercent));\n      // Yeld\n\n      pool = _calcPoolValueInToken();\n      rebalance();\n  }\n\n  // Ownable setters incase of support in future for these systems\n  function set_new_APR(address _new_APR) public onlyOwner {\n      apr = _new_APR;\n  }\n  function set_new_FULCRUM(address _new_FULCRUM) public onlyOwner {\n      fulcrum = _new_FULCRUM;\n  }\n  function set_new_COMPOUND(address _new_COMPOUND) public onlyOwner {\n      compound = _new_COMPOUND;\n  }\n  function set_new_DTOKEN(uint256 _new_DTOKEN) public onlyOwner {\n      dToken = _new_DTOKEN;\n  }\n\n  function recommend() public view returns (Lender) {\n    (,uint256 capr,uint256 iapr,uint256 aapr,uint256 dapr) = IIEarnManager(apr).recommend(token);\n    uint256 max = 0;\n    if (capr > max) {\n      max = capr;\n    }\n    if (iapr > max) {\n      max = iapr;\n    }\n    if (aapr > max) {\n      max = aapr;\n    }\n    if (dapr > max) {\n      max = dapr;\n    }\n\n    Lender newProvider = Lender.NONE;\n    if (max == capr) {\n      newProvider = Lender.COMPOUND;\n    } else if (max == iapr) {\n      newProvider = Lender.FULCRUM;\n    } else if (max == aapr) {\n      newProvider = Lender.AAVE;\n    } else if (max == dapr) {\n      newProvider = Lender.DYDX;\n    }\n    return newProvider;\n  }\n\n  function supplyDydx(uint256 amount) public returns(uint) {\n      Info[] memory infos = new Info[](1);\n      infos[0] = Info(address(this), 0);\n\n      AssetAmount memory amt = AssetAmount(true, AssetDenomination.Wei, AssetReference.Delta, amount);\n      ActionArgs memory act;\n      act.actionType = ActionType.Deposit;\n      act.accountId = 0;\n      act.amount = amt;\n      act.primaryMarketId = dToken;\n      act.otherAddress = address(this);\n\n      ActionArgs[] memory args = new ActionArgs[](1);\n      args[0] = act;\n\n      DyDx(dydx).operate(infos, args);\n  }\n\n  function _withdrawDydx(uint256 amount) internal {\n      Info[] memory infos = new Info[](1);\n      infos[0] = Info(address(this), 0);\n\n      AssetAmount memory amt = AssetAmount(false, AssetDenomination.Wei, AssetReference.Delta, amount);\n      ActionArgs memory act;\n      act.actionType = ActionType.Withdraw;\n      act.accountId = 0;\n      act.amount = amt;\n      act.primaryMarketId = dToken;\n      act.otherAddress = address(this);\n\n      ActionArgs[] memory args = new ActionArgs[](1);\n      args[0] = act;\n\n      DyDx(dydx).operate(infos, args);\n  }\n\n  function getAave() public view returns (address) {\n    return LendingPoolAddressesProvider(aave).getLendingPool();\n  }\n  function getAaveCore() public view returns (address) {\n    return LendingPoolAddressesProvider(aave).getLendingPoolCore();\n  }\n\n  function approveToken() public {\n      IERC20(token).safeApprove(compound, uint(-1)); //also add to constructor\n      IERC20(token).safeApprove(dydx, uint(-1));\n      IERC20(token).safeApprove(getAaveCore(), uint(-1));\n      IERC20(token).safeApprove(fulcrum, uint(-1));\n  }\n\n  function balance() public view returns (uint256) {\n    return IERC20(token).balanceOf(address(this));\n  }\n\n  function balanceDydx() public view returns (uint256) {\n      Wei memory bal = DyDx(dydx).getAccountWei(Info(address(this), 0), dToken);\n      return bal.value;\n  }\n  function balanceCompound() public view returns (uint256) {\n      return IERC20(compound).balanceOf(address(this));\n  }\n  function balanceCompoundInToken() public view returns (uint256) {\n    // Mantisa 1e18 to decimals\n    uint256 b = balanceCompound();\n    if (b > 0) {\n      b = b.mul(Compound(compound).exchangeRateStored()).div(1e18);\n    }\n    return b;\n  }\n  function balanceFulcrumInToken() public view returns (uint256) {\n    uint256 b = balanceFulcrum();\n    if (b > 0) {\n      b = Fulcrum(fulcrum).assetBalanceOf(address(this));\n    }\n    return b;\n  }\n  function balanceFulcrum() public view returns (uint256) {\n    return IERC20(fulcrum).balanceOf(address(this));\n  }\n  function balanceAave() public view returns (uint256) {\n    return IERC20(aaveToken).balanceOf(address(this));\n  }\n\n  function _balance() internal view returns (uint256) {\n    return IERC20(token).balanceOf(address(this));\n  }\n\n  function _balanceDydx() internal view returns (uint256) {\n      Wei memory bal = DyDx(dydx).getAccountWei(Info(address(this), 0), dToken);\n      return bal.value;\n  }\n  function _balanceCompound() internal view returns (uint256) {\n      return IERC20(compound).balanceOf(address(this));\n  }\n  function _balanceCompoundInToken() internal view returns (uint256) {\n    // Mantisa 1e18 to decimals\n    uint256 b = balanceCompound();\n    if (b > 0) {\n      b = b.mul(Compound(compound).exchangeRateStored()).div(1e18);\n    }\n    return b;\n  }\n  function _balanceFulcrumInToken() internal view returns (uint256) {\n    uint256 b = balanceFulcrum();\n    if (b > 0) {\n      b = Fulcrum(fulcrum).assetBalanceOf(address(this));\n    }\n    return b;\n  }\n  function _balanceFulcrum() internal view returns (uint256) {\n    return IERC20(fulcrum).balanceOf(address(this));\n  }\n  function _balanceAave() internal view returns (uint256) {\n    return IERC20(aaveToken).balanceOf(address(this));\n  }\n\n  function _withdrawAll() internal {\n    uint256 amount = _balanceCompound();\n    if (amount > 0) {\n      _withdrawCompound(amount);\n    }\n    amount = _balanceDydx();\n    if (amount > 0) {\n      _withdrawDydx(amount);\n    }\n    amount = _balanceFulcrum();\n    if (amount > 0) {\n      _withdrawFulcrum(amount);\n    }\n    amount = _balanceAave();\n    if (amount > 0) {\n      _withdrawAave(amount);\n    }\n  }\n\n  function _withdrawSomeCompound(uint256 _amount) internal {\n    uint256 b = balanceCompound();\n    uint256 bT = balanceCompoundInToken();\n    require(bT >= _amount, \"insufficient funds\");\n    // can have unintentional rounding errors\n    uint256 amount = (b.mul(_amount)).div(bT).add(1);\n    _withdrawCompound(amount);\n  }\n\n  // 1999999614570950845\n  function _withdrawSomeFulcrum(uint256 _amount) internal {\n    // Balance of fulcrum tokens, 1 iDAI = 1.00x DAI\n    uint256 b = balanceFulcrum(); // 1970469086655766652\n    // Balance of token in fulcrum\n    uint256 bT = balanceFulcrumInToken(); // 2000000803224344406\n    require(bT >= _amount, \"insufficient funds\");\n    // can have unintentional rounding errors\n    uint256 amount = (b.mul(_amount)).div(bT).add(1);\n    _withdrawFulcrum(amount);\n  }\n\n  function _withdrawSome(uint256 _amount) internal {\n    if (provider == Lender.COMPOUND) {\n      _withdrawSomeCompound(_amount);\n    }\n    if (provider == Lender.AAVE) {\n      require(balanceAave() >= _amount, \"insufficient funds\");\n      _withdrawAave(_amount);\n    }\n    if (provider == Lender.DYDX) {\n      require(balanceDydx() >= _amount, \"insufficient funds\");\n      _withdrawDydx(_amount);\n    }\n    if (provider == Lender.FULCRUM) {\n      _withdrawSomeFulcrum(_amount);\n    }\n  }\n\n  function rebalance() public {\n    Lender newProvider = recommend();\n\n    if (newProvider != provider) {\n      _withdrawAll();\n    }\n\n    if (balance() > 0) {\n      if (newProvider == Lender.DYDX) {\n        supplyDydx(balance());\n      } else if (newProvider == Lender.FULCRUM) {\n        supplyFulcrum(balance());\n      } else if (newProvider == Lender.COMPOUND) {\n        supplyCompound(balance());\n      } else if (newProvider == Lender.AAVE) {\n        supplyAave(balance());\n      }\n    }\n\n    provider = newProvider;\n  }\n\n  // Internal only rebalance for better gas in redeem\n  function _rebalance(Lender newProvider) internal {\n    if (_balance() > 0) {\n      if (newProvider == Lender.DYDX) {\n        supplyDydx(_balance());\n      } else if (newProvider == Lender.FULCRUM) {\n        supplyFulcrum(_balance());\n      } else if (newProvider == Lender.COMPOUND) {\n        supplyCompound(_balance());\n      } else if (newProvider == Lender.AAVE) {\n        supplyAave(_balance());\n      }\n    }\n    provider = newProvider;\n  }\n\n  function supplyAave(uint amount) public {\n      Aave(getAave()).deposit(token, amount, 0);\n  }\n  function supplyFulcrum(uint amount) public {\n      require(Fulcrum(fulcrum).mint(address(this), amount) > 0, \"FULCRUM: supply failed\");\n  }\n  function supplyCompound(uint amount) public {\n      require(Compound(compound).mint(amount) == 0, \"COMPOUND: supply failed\");\n  }\n  function _withdrawAave(uint amount) internal {\n      AToken(aaveToken).redeem(amount);\n  }\n  function _withdrawFulcrum(uint amount) internal {\n      require(Fulcrum(fulcrum).burn(address(this), amount) > 0, \"FULCRUM: withdraw failed\");\n  }\n  function _withdrawCompound(uint amount) internal {\n      require(Compound(compound).redeem(amount) == 0, \"COMPOUND: withdraw failed\");\n  }\n\n  function _calcPoolValueInToken() internal view returns (uint) {\n    return _balanceCompoundInToken()\n      .add(_balanceFulcrumInToken())\n      .add(_balanceDydx())\n      .add(_balanceAave())\n      .add(_balance());\n  }\n\n  function calcPoolValueInToken() public view returns (uint) {\n    return balanceCompoundInToken()\n      .add(balanceFulcrumInToken())\n      .add(balanceDydx())\n      .add(balanceAave())\n      .add(balance());\n  }\n\n  function getPricePerFullShare() public view returns (uint) {\n    uint _pool = calcPoolValueInToken();\n    return _pool.mul(1e18).div(_totalSupply);\n  }\n}\n",
  "sourcePath": "C:/Users/merun/Desktop/yeld-contracts/contracts/yUSDT.sol",
  "compiler": {
    "name": "solc",
    "version": "0.5.17+commit.d19bba13.Emscripten.clang"
  },
  "schemaVersion": "3.2.2",
  "updatedAt": "2021-01-17T18:34:01.711Z",
  "networkType": "ethereum",
  "devdoc": {
    "methods": {}
  },
  "userdoc": {
    "methods": {}
  }
}