{
  "contractName": "yUSDT",
  "abi": [
    {
      "inputs": [
        {
          "internalType": "address",
          "name": "_yeldToken",
          "type": "address"
        },
        {
          "internalType": "address payable",
          "name": "_retirementYeldTreasury",
          "type": "address"
        },
        {
          "internalType": "address",
          "name": "_devTreasury",
          "type": "address"
        }
      ],
      "payable": false,
      "stateMutability": "nonpayable",
      "type": "constructor"
    },
    {
      "anonymous": false,
      "inputs": [
        {
          "indexed": true,
          "internalType": "address",
          "name": "owner",
          "type": "address"
        },
        {
          "indexed": true,
          "internalType": "address",
          "name": "spender",
          "type": "address"
        },
        {
          "indexed": false,
          "internalType": "uint256",
          "name": "value",
          "type": "uint256"
        }
      ],
      "name": "Approval",
      "type": "event"
    },
    {
      "anonymous": false,
      "inputs": [
        {
          "indexed": true,
          "internalType": "address",
          "name": "previousOwner",
          "type": "address"
        },
        {
          "indexed": true,
          "internalType": "address",
          "name": "newOwner",
          "type": "address"
        }
      ],
      "name": "OwnershipTransferred",
      "type": "event"
    },
    {
      "anonymous": false,
      "inputs": [
        {
          "indexed": true,
          "internalType": "address",
          "name": "from",
          "type": "address"
        },
        {
          "indexed": true,
          "internalType": "address",
          "name": "to",
          "type": "address"
        },
        {
          "indexed": false,
          "internalType": "uint256",
          "name": "value",
          "type": "uint256"
        }
      ],
      "name": "Transfer",
      "type": "event"
    },
    {
      "payable": true,
      "stateMutability": "payable",
      "type": "fallback"
    },
    {
      "constant": true,
      "inputs": [],
      "name": "aave",
      "outputs": [
        {
          "internalType": "address",
          "name": "",
          "type": "address"
        }
      ],
      "payable": false,
      "stateMutability": "view",
      "type": "function"
    },
    {
      "constant": true,
      "inputs": [],
      "name": "aaveToken",
      "outputs": [
        {
          "internalType": "address",
          "name": "",
          "type": "address"
        }
      ],
      "payable": false,
      "stateMutability": "view",
      "type": "function"
    },
    {
      "constant": true,
      "inputs": [
        {
          "internalType": "address",
          "name": "owner",
          "type": "address"
        },
        {
          "internalType": "address",
          "name": "spender",
          "type": "address"
        }
      ],
      "name": "allowance",
      "outputs": [
        {
          "internalType": "uint256",
          "name": "",
          "type": "uint256"
        }
      ],
      "payable": false,
      "stateMutability": "view",
      "type": "function"
    },
    {
      "constant": false,
      "inputs": [
        {
          "internalType": "address",
          "name": "spender",
          "type": "address"
        },
        {
          "internalType": "uint256",
          "name": "amount",
          "type": "uint256"
        }
      ],
      "name": "approve",
      "outputs": [
        {
          "internalType": "bool",
          "name": "",
          "type": "bool"
        }
      ],
      "payable": false,
      "stateMutability": "nonpayable",
      "type": "function"
    },
    {
      "constant": true,
      "inputs": [],
      "name": "apr",
      "outputs": [
        {
          "internalType": "address",
          "name": "",
          "type": "address"
        }
      ],
      "payable": false,
      "stateMutability": "view",
      "type": "function"
    },
    {
      "constant": true,
      "inputs": [
        {
          "internalType": "address",
          "name": "account",
          "type": "address"
        }
      ],
      "name": "balanceOf",
      "outputs": [
        {
          "internalType": "uint256",
          "name": "",
          "type": "uint256"
        }
      ],
      "payable": false,
      "stateMutability": "view",
      "type": "function"
    },
    {
      "constant": true,
      "inputs": [],
      "name": "compound",
      "outputs": [
        {
          "internalType": "address",
          "name": "",
          "type": "address"
        }
      ],
      "payable": false,
      "stateMutability": "view",
      "type": "function"
    },
    {
      "constant": true,
      "inputs": [],
      "name": "dToken",
      "outputs": [
        {
          "internalType": "uint256",
          "name": "",
          "type": "uint256"
        }
      ],
      "payable": false,
      "stateMutability": "view",
      "type": "function"
    },
    {
      "constant": true,
      "inputs": [],
      "name": "dai",
      "outputs": [
        {
          "internalType": "address",
          "name": "",
          "type": "address"
        }
      ],
      "payable": false,
      "stateMutability": "view",
      "type": "function"
    },
    {
      "constant": true,
      "inputs": [],
      "name": "decimals",
      "outputs": [
        {
          "internalType": "uint8",
          "name": "",
          "type": "uint8"
        }
      ],
      "payable": false,
      "stateMutability": "view",
      "type": "function"
    },
    {
      "constant": false,
      "inputs": [
        {
          "internalType": "address",
          "name": "spender",
          "type": "address"
        },
        {
          "internalType": "uint256",
          "name": "subtractedValue",
          "type": "uint256"
        }
      ],
      "name": "decreaseAllowance",
      "outputs": [
        {
          "internalType": "bool",
          "name": "",
          "type": "bool"
        }
      ],
      "payable": false,
      "stateMutability": "nonpayable",
      "type": "function"
    },
    {
      "constant": true,
      "inputs": [
        {
          "internalType": "address",
          "name": "",
          "type": "address"
        }
      ],
      "name": "depositAmount",
      "outputs": [
        {
          "internalType": "uint256",
          "name": "",
          "type": "uint256"
        }
      ],
      "payable": false,
      "stateMutability": "view",
      "type": "function"
    },
    {
      "constant": true,
      "inputs": [
        {
          "internalType": "address",
          "name": "",
          "type": "address"
        }
      ],
      "name": "depositBlockStarts",
      "outputs": [
        {
          "internalType": "uint256",
          "name": "",
          "type": "uint256"
        }
      ],
      "payable": false,
      "stateMutability": "view",
      "type": "function"
    },
    {
      "constant": true,
      "inputs": [],
      "name": "devTreasury",
      "outputs": [
        {
          "internalType": "address",
          "name": "",
          "type": "address"
        }
      ],
      "payable": false,
      "stateMutability": "view",
      "type": "function"
    },
    {
      "constant": true,
      "inputs": [],
      "name": "dydx",
      "outputs": [
        {
          "internalType": "address",
          "name": "",
          "type": "address"
        }
      ],
      "payable": false,
      "stateMutability": "view",
      "type": "function"
    },
    {
      "constant": true,
      "inputs": [],
      "name": "fulcrum",
      "outputs": [
        {
          "internalType": "address",
          "name": "",
          "type": "address"
        }
      ],
      "payable": false,
      "stateMutability": "view",
      "type": "function"
    },
    {
      "constant": true,
      "inputs": [
        {
          "internalType": "address",
          "name": "_yeld",
          "type": "address"
        },
        {
          "internalType": "address",
          "name": "_weth",
          "type": "address"
        },
        {
          "internalType": "address",
          "name": "_dai",
          "type": "address"
        },
        {
          "internalType": "address",
          "name": "_uniswap",
          "type": "address"
        }
      ],
      "name": "getYeldPriceInDai",
      "outputs": [
        {
          "internalType": "uint256",
          "name": "",
          "type": "uint256"
        }
      ],
      "payable": false,
      "stateMutability": "view",
      "type": "function"
    },
    {
      "constant": true,
      "inputs": [],
      "name": "holdPercentage",
      "outputs": [
        {
          "internalType": "uint256",
          "name": "",
          "type": "uint256"
        }
      ],
      "payable": false,
      "stateMutability": "view",
      "type": "function"
    },
    {
      "constant": false,
      "inputs": [
        {
          "internalType": "address",
          "name": "spender",
          "type": "address"
        },
        {
          "internalType": "uint256",
          "name": "addedValue",
          "type": "uint256"
        }
      ],
      "name": "increaseAllowance",
      "outputs": [
        {
          "internalType": "bool",
          "name": "",
          "type": "bool"
        }
      ],
      "payable": false,
      "stateMutability": "nonpayable",
      "type": "function"
    },
    {
      "constant": true,
      "inputs": [],
      "name": "isOwner",
      "outputs": [
        {
          "internalType": "bool",
          "name": "",
          "type": "bool"
        }
      ],
      "payable": false,
      "stateMutability": "view",
      "type": "function"
    },
    {
      "constant": true,
      "inputs": [],
      "name": "maximumTokensToBurn",
      "outputs": [
        {
          "internalType": "uint256",
          "name": "",
          "type": "uint256"
        }
      ],
      "payable": false,
      "stateMutability": "view",
      "type": "function"
    },
    {
      "constant": true,
      "inputs": [],
      "name": "name",
      "outputs": [
        {
          "internalType": "string",
          "name": "",
          "type": "string"
        }
      ],
      "payable": false,
      "stateMutability": "view",
      "type": "function"
    },
    {
      "constant": true,
      "inputs": [],
      "name": "oneDayInBlocks",
      "outputs": [
        {
          "internalType": "uint256",
          "name": "",
          "type": "uint256"
        }
      ],
      "payable": false,
      "stateMutability": "view",
      "type": "function"
    },
    {
      "constant": true,
      "inputs": [],
      "name": "oneMillion",
      "outputs": [
        {
          "internalType": "uint256",
          "name": "",
          "type": "uint256"
        }
      ],
      "payable": false,
      "stateMutability": "view",
      "type": "function"
    },
    {
      "constant": true,
      "inputs": [],
      "name": "owner",
      "outputs": [
        {
          "internalType": "address payable",
          "name": "",
          "type": "address"
        }
      ],
      "payable": false,
      "stateMutability": "view",
      "type": "function"
    },
    {
      "constant": true,
      "inputs": [],
      "name": "percentageBuyBurn",
      "outputs": [
        {
          "internalType": "uint256",
          "name": "",
          "type": "uint256"
        }
      ],
      "payable": false,
      "stateMutability": "view",
      "type": "function"
    },
    {
      "constant": true,
      "inputs": [],
      "name": "percentageDevTreasury",
      "outputs": [
        {
          "internalType": "uint256",
          "name": "",
          "type": "uint256"
        }
      ],
      "payable": false,
      "stateMutability": "view",
      "type": "function"
    },
    {
      "constant": true,
      "inputs": [],
      "name": "percentageRetirementYield",
      "outputs": [
        {
          "internalType": "uint256",
          "name": "",
          "type": "uint256"
        }
      ],
      "payable": false,
      "stateMutability": "view",
      "type": "function"
    },
    {
      "constant": true,
      "inputs": [],
      "name": "pool",
      "outputs": [
        {
          "internalType": "uint256",
          "name": "",
          "type": "uint256"
        }
      ],
      "payable": false,
      "stateMutability": "view",
      "type": "function"
    },
    {
      "constant": true,
      "inputs": [],
      "name": "provider",
      "outputs": [
        {
          "internalType": "enum yUSDT.Lender",
          "name": "",
          "type": "uint8"
        }
      ],
      "payable": false,
      "stateMutability": "view",
      "type": "function"
    },
    {
      "constant": false,
      "inputs": [],
      "name": "renounceOwnership",
      "outputs": [],
      "payable": false,
      "stateMutability": "nonpayable",
      "type": "function"
    },
    {
      "constant": true,
      "inputs": [],
      "name": "retirementYeldTreasury",
      "outputs": [
        {
          "internalType": "address payable",
          "name": "",
          "type": "address"
        }
      ],
      "payable": false,
      "stateMutability": "view",
      "type": "function"
    },
    {
      "constant": true,
      "inputs": [],
      "name": "symbol",
      "outputs": [
        {
          "internalType": "string",
          "name": "",
          "type": "string"
        }
      ],
      "payable": false,
      "stateMutability": "view",
      "type": "function"
    },
    {
      "constant": true,
      "inputs": [],
      "name": "token",
      "outputs": [
        {
          "internalType": "address",
          "name": "",
          "type": "address"
        }
      ],
      "payable": false,
      "stateMutability": "view",
      "type": "function"
    },
    {
      "constant": true,
      "inputs": [],
      "name": "totalSupply",
      "outputs": [
        {
          "internalType": "uint256",
          "name": "",
          "type": "uint256"
        }
      ],
      "payable": false,
      "stateMutability": "view",
      "type": "function"
    },
    {
      "constant": false,
      "inputs": [
        {
          "internalType": "address",
          "name": "recipient",
          "type": "address"
        },
        {
          "internalType": "uint256",
          "name": "amount",
          "type": "uint256"
        }
      ],
      "name": "transfer",
      "outputs": [
        {
          "internalType": "bool",
          "name": "",
          "type": "bool"
        }
      ],
      "payable": false,
      "stateMutability": "nonpayable",
      "type": "function"
    },
    {
      "constant": false,
      "inputs": [
        {
          "internalType": "address",
          "name": "sender",
          "type": "address"
        },
        {
          "internalType": "address",
          "name": "recipient",
          "type": "address"
        },
        {
          "internalType": "uint256",
          "name": "amount",
          "type": "uint256"
        }
      ],
      "name": "transferFrom",
      "outputs": [
        {
          "internalType": "bool",
          "name": "",
          "type": "bool"
        }
      ],
      "payable": false,
      "stateMutability": "nonpayable",
      "type": "function"
    },
    {
      "constant": false,
      "inputs": [
        {
          "internalType": "address payable",
          "name": "newOwner",
          "type": "address"
        }
      ],
      "name": "transferOwnership",
      "outputs": [],
      "payable": false,
      "stateMutability": "nonpayable",
      "type": "function"
    },
    {
      "constant": true,
      "inputs": [],
      "name": "uniswapRouter",
      "outputs": [
        {
          "internalType": "address",
          "name": "",
          "type": "address"
        }
      ],
      "payable": false,
      "stateMutability": "view",
      "type": "function"
    },
    {
      "constant": false,
      "inputs": [
        {
          "internalType": "uint256",
          "name": "a",
          "type": "uint256"
        },
        {
          "internalType": "uint256",
          "name": "b",
          "type": "uint256"
        },
        {
          "internalType": "uint256",
          "name": "c",
          "type": "uint256"
        }
      ],
      "name": "updatePercentages",
      "outputs": [],
      "payable": false,
      "stateMutability": "nonpayable",
      "type": "function"
    },
    {
      "constant": true,
      "inputs": [],
      "name": "usdt",
      "outputs": [
        {
          "internalType": "address",
          "name": "",
          "type": "address"
        }
      ],
      "payable": false,
      "stateMutability": "view",
      "type": "function"
    },
    {
      "constant": true,
      "inputs": [],
      "name": "weth",
      "outputs": [
        {
          "internalType": "address",
          "name": "",
          "type": "address"
        }
      ],
      "payable": false,
      "stateMutability": "view",
      "type": "function"
    },
    {
      "constant": true,
      "inputs": [],
      "name": "yeldToRewardPerDay",
      "outputs": [
        {
          "internalType": "uint256",
          "name": "",
          "type": "uint256"
        }
      ],
      "payable": false,
      "stateMutability": "view",
      "type": "function"
    },
    {
      "constant": true,
      "inputs": [],
      "name": "yeldToken",
      "outputs": [
        {
          "internalType": "contract IERC20",
          "name": "",
          "type": "address"
        }
      ],
      "payable": false,
      "stateMutability": "view",
      "type": "function"
    },
    {
      "constant": false,
      "inputs": [
        {
          "internalType": "address payable",
          "name": "_treasury",
          "type": "address"
        }
      ],
      "name": "setRetirementYeldTreasury",
      "outputs": [],
      "payable": false,
      "stateMutability": "nonpayable",
      "type": "function"
    },
    {
      "constant": false,
      "inputs": [
        {
          "internalType": "address",
          "name": "_uniswapRouter",
          "type": "address"
        }
      ],
      "name": "setUniswapRouter",
      "outputs": [],
      "payable": false,
      "stateMutability": "nonpayable",
      "type": "function"
    },
    {
      "constant": false,
      "inputs": [
        {
          "internalType": "address",
          "name": "_yeldToken",
          "type": "address"
        }
      ],
      "name": "setYeldToken",
      "outputs": [],
      "payable": false,
      "stateMutability": "nonpayable",
      "type": "function"
    },
    {
      "constant": false,
      "inputs": [
        {
          "internalType": "address",
          "name": "_token",
          "type": "address"
        },
        {
          "internalType": "uint256",
          "name": "_amount",
          "type": "uint256"
        }
      ],
      "name": "extractTokensIfStuck",
      "outputs": [],
      "payable": false,
      "stateMutability": "nonpayable",
      "type": "function"
    },
    {
      "constant": false,
      "inputs": [],
      "name": "extractETHIfStuck",
      "outputs": [],
      "payable": false,
      "stateMutability": "nonpayable",
      "type": "function"
    },
    {
      "constant": false,
      "inputs": [
        {
          "internalType": "uint256",
          "name": "_amount",
          "type": "uint256"
        }
      ],
      "name": "changeYeldToRewardPerDay",
      "outputs": [],
      "payable": false,
      "stateMutability": "nonpayable",
      "type": "function"
    },
    {
      "constant": true,
      "inputs": [],
      "name": "getGeneratedYelds",
      "outputs": [
        {
          "internalType": "uint256",
          "name": "",
          "type": "uint256"
        }
      ],
      "payable": false,
      "stateMutability": "view",
      "type": "function"
    },
    {
      "constant": false,
      "inputs": [
        {
          "internalType": "uint256",
          "name": "_holdPercentage",
          "type": "uint256"
        }
      ],
      "name": "setHoldPercentage",
      "outputs": [],
      "payable": false,
      "stateMutability": "nonpayable",
      "type": "function"
    },
    {
      "constant": false,
      "inputs": [
        {
          "internalType": "uint256",
          "name": "_amount",
          "type": "uint256"
        }
      ],
      "name": "deposit",
      "outputs": [],
      "payable": false,
      "stateMutability": "nonpayable",
      "type": "function"
    },
    {
      "constant": false,
      "inputs": [
        {
          "internalType": "uint256",
          "name": "_shares",
          "type": "uint256"
        }
      ],
      "name": "withdraw",
      "outputs": [],
      "payable": false,
      "stateMutability": "nonpayable",
      "type": "function"
    },
    {
      "constant": false,
      "inputs": [
        {
          "internalType": "address",
          "name": "_new_APR",
          "type": "address"
        }
      ],
      "name": "set_new_APR",
      "outputs": [],
      "payable": false,
      "stateMutability": "nonpayable",
      "type": "function"
    },
    {
      "constant": false,
      "inputs": [
        {
          "internalType": "address",
          "name": "_new_FULCRUM",
          "type": "address"
        }
      ],
      "name": "set_new_FULCRUM",
      "outputs": [],
      "payable": false,
      "stateMutability": "nonpayable",
      "type": "function"
    },
    {
      "constant": false,
      "inputs": [
        {
          "internalType": "address",
          "name": "_new_COMPOUND",
          "type": "address"
        }
      ],
      "name": "set_new_COMPOUND",
      "outputs": [],
      "payable": false,
      "stateMutability": "nonpayable",
      "type": "function"
    },
    {
      "constant": false,
      "inputs": [
        {
          "internalType": "uint256",
          "name": "_new_DTOKEN",
          "type": "uint256"
        }
      ],
      "name": "set_new_DTOKEN",
      "outputs": [],
      "payable": false,
      "stateMutability": "nonpayable",
      "type": "function"
    },
    {
      "constant": true,
      "inputs": [],
      "name": "recommend",
      "outputs": [
        {
          "internalType": "enum yUSDT.Lender",
          "name": "",
          "type": "uint8"
        }
      ],
      "payable": false,
      "stateMutability": "view",
      "type": "function"
    },
    {
      "constant": false,
      "inputs": [
        {
          "internalType": "uint256",
          "name": "amount",
          "type": "uint256"
        }
      ],
      "name": "supplyDydx",
      "outputs": [
        {
          "internalType": "uint256",
          "name": "",
          "type": "uint256"
        }
      ],
      "payable": false,
      "stateMutability": "nonpayable",
      "type": "function"
    },
    {
      "constant": true,
      "inputs": [],
      "name": "getAave",
      "outputs": [
        {
          "internalType": "address",
          "name": "",
          "type": "address"
        }
      ],
      "payable": false,
      "stateMutability": "view",
      "type": "function"
    },
    {
      "constant": true,
      "inputs": [],
      "name": "getAaveCore",
      "outputs": [
        {
          "internalType": "address",
          "name": "",
          "type": "address"
        }
      ],
      "payable": false,
      "stateMutability": "view",
      "type": "function"
    },
    {
      "constant": false,
      "inputs": [],
      "name": "approveToken",
      "outputs": [],
      "payable": false,
      "stateMutability": "nonpayable",
      "type": "function"
    },
    {
      "constant": true,
      "inputs": [],
      "name": "balance",
      "outputs": [
        {
          "internalType": "uint256",
          "name": "",
          "type": "uint256"
        }
      ],
      "payable": false,
      "stateMutability": "view",
      "type": "function"
    },
    {
      "constant": true,
      "inputs": [],
      "name": "balanceDydx",
      "outputs": [
        {
          "internalType": "uint256",
          "name": "",
          "type": "uint256"
        }
      ],
      "payable": false,
      "stateMutability": "view",
      "type": "function"
    },
    {
      "constant": true,
      "inputs": [],
      "name": "balanceCompound",
      "outputs": [
        {
          "internalType": "uint256",
          "name": "",
          "type": "uint256"
        }
      ],
      "payable": false,
      "stateMutability": "view",
      "type": "function"
    },
    {
      "constant": true,
      "inputs": [],
      "name": "balanceCompoundInToken",
      "outputs": [
        {
          "internalType": "uint256",
          "name": "",
          "type": "uint256"
        }
      ],
      "payable": false,
      "stateMutability": "view",
      "type": "function"
    },
    {
      "constant": true,
      "inputs": [],
      "name": "balanceFulcrumInToken",
      "outputs": [
        {
          "internalType": "uint256",
          "name": "",
          "type": "uint256"
        }
      ],
      "payable": false,
      "stateMutability": "view",
      "type": "function"
    },
    {
      "constant": true,
      "inputs": [],
      "name": "balanceFulcrum",
      "outputs": [
        {
          "internalType": "uint256",
          "name": "",
          "type": "uint256"
        }
      ],
      "payable": false,
      "stateMutability": "view",
      "type": "function"
    },
    {
      "constant": true,
      "inputs": [],
      "name": "balanceAave",
      "outputs": [
        {
          "internalType": "uint256",
          "name": "",
          "type": "uint256"
        }
      ],
      "payable": false,
      "stateMutability": "view",
      "type": "function"
    },
    {
      "constant": false,
      "inputs": [],
      "name": "rebalance",
      "outputs": [],
      "payable": false,
      "stateMutability": "nonpayable",
      "type": "function"
    },
    {
      "constant": false,
      "inputs": [
        {
          "internalType": "uint256",
          "name": "amount",
          "type": "uint256"
        }
      ],
      "name": "supplyAave",
      "outputs": [],
      "payable": false,
      "stateMutability": "nonpayable",
      "type": "function"
    },
    {
      "constant": false,
      "inputs": [
        {
          "internalType": "uint256",
          "name": "amount",
          "type": "uint256"
        }
      ],
      "name": "supplyFulcrum",
      "outputs": [],
      "payable": false,
      "stateMutability": "nonpayable",
      "type": "function"
    },
    {
      "constant": false,
      "inputs": [
        {
          "internalType": "uint256",
          "name": "amount",
          "type": "uint256"
        }
      ],
      "name": "supplyCompound",
      "outputs": [],
      "payable": false,
      "stateMutability": "nonpayable",
      "type": "function"
    },
    {
      "constant": true,
      "inputs": [],
      "name": "calcPoolValueInToken",
      "outputs": [
        {
          "internalType": "uint256",
          "name": "",
          "type": "uint256"
        }
      ],
      "payable": false,
      "stateMutability": "view",
      "type": "function"
    },
    {
      "constant": true,
      "inputs": [],
      "name": "getPricePerFullShare",
      "outputs": [
        {
          "internalType": "uint256",
          "name": "",
          "type": "uint256"
        }
      ],
      "payable": false,
      "stateMutability": "view",
      "type": "function"
    }
  ],
  "bytecode": "0x60806040526714d1120d7b1600006008556722b1c8c1227a0000600955670de0b6b3a7640000600a55601680546001600160a01b0319908116737a250d5630b4cf539739df2c5dacb4c659f2488d1790915560178054821673dac17f958d2ee523a2206206994597c13d831ec717905560188054821673c02aaa39b223fe8d0a0e5c4f27ead9083c756cc217905560198054909116736b175474e89094c44da98b954eedeac495271d0f179055690a968163f0a57b400000601c556000601d55674563918244f40000601e55601f805460ff60a01b19169055348015620000e557600080fd5b506040516200673c3803806200673c8339810160408190526200010891620007b0565b60408051808201825260098152681e595b19081554d11560ba1b6020808301918252835180850190945260058452641e5554d11560da1b9084015281519192916006916200015a9160039190620006c0565b50815162000170906004906020850190620006c0565b506005805460ff191660ff92909216919091179055505060016006556200019662000314565b600780546001600160a01b0319166001600160a01b0392831617908190556040519116906000907f8be0079c531659141344cd1fd0a4f28419497f9722a3daafe3b4186f6b6457e0908290a3600c80546001600160a01b031990811673dac17f958d2ee523a2206206994597c13d831ec71790915560138054821673dd6d648c991f7d47454354f4ef326b04025a48a8179055601180548216731e0447b19bb6ecfdae1e4ae1694b0c3659614e4e179055600f805482167324a42fd28c976a61df5d00d0599c34c4f90748c8179055600e8054821673f013406a0b1d544238083df0b93ad0d2cbe0f65f1790556010805482167371fc860f7d3a592a4a98740e39db31d25db65ae8179055600d805482167339aa39c021dfbae8fac545936693ac917d5e75631790556000601255601b80546001600160a01b0386811691841691909117909155601a8054858316908416179055601f8054918416919092161790556200030b6001600160e01b036200031916565b50505062000ae6565b335b90565b600d54600c5462000346916001600160a01b039182169116600019620003db602090811b62003d3a17901c565b601154600c5462000373916001600160a01b039182169116600019620003db602090811b62003d3a17901c565b620003ac6200038a6001600160e01b03620004f516565b600c546001600160a01b031690600019620003db602090811b62003d3a17901c565b600e54600c54620003d9916001600160a01b039182169116600019620003db602090811b62003d3a17901c565b565b8015806200046a5750604051636eb1769f60e11b81526001600160a01b0384169063dd62ed3e90620004149030908690600401620009d1565b60206040518083038186803b1580156200042d57600080fd5b505afa15801562000442573d6000803e3d6000fd5b505050506040513d601f19601f8201168201806040525062000468919081019062000825565b155b620004925760405162461bcd60e51b8152600401620004899062000a33565b60405180910390fd5b604051620004f090849063095ea7b360e01b90620004b79086908690602401620009f0565b60408051808303601f190181529190526020810180516001600160e01b0319939093166001600160e01b03938416179052906200057b16565b505050565b600f546040805163076b7fbb60e51b815290516000926001600160a01b03169163ed6ff760916004808301926020929190829003018186803b1580156200053b57600080fd5b505afa15801562000550573d6000803e3d6000fd5b505050506040513d601f19601f820116820180604052506200057691908101906200078f565b905090565b6200059a826001600160a01b03166200068360201b620046ce1760201c565b620005b95760405162461bcd60e51b8152600401620004899062000a45565b60006060836001600160a01b031683604051620005d79190620009bc565b6000604051808303816000865af19150503d806000811462000616576040519150601f19603f3d011682016040523d82523d6000602084013e6200061b565b606091505b509150915081620006405760405162461bcd60e51b8152600401620004899062000a0f565b8051156200067d57808060200190516200065e919081019062000804565b6200067d5760405162461bcd60e51b8152600401620004899062000a21565b50505050565b6000813f7fc5d2460186f7233c927e7db2dcc703c0e500b653ca82273b7bfad8045d85a4708115801590620006b85750808214155b949350505050565b828054600181600116156101000203166002900490600052602060002090601f016020900481019282601f106200070357805160ff191683800117855562000733565b8280016001018555821562000733579182015b828111156200073357825182559160200191906001019062000716565b506200074192915062000745565b5090565b6200031691905b808211156200074157600081556001016200074c565b80516200076f8162000ab6565b92915050565b80516200076f8162000ad0565b80516200076f8162000adb565b600060208284031215620007a257600080fd5b6000620006b8848462000762565b600080600060608486031215620007c657600080fd5b6000620007d4868662000762565b9350506020620007e78682870162000762565b9250506040620007fa8682870162000762565b9150509250925092565b6000602082840312156200081757600080fd5b6000620006b8848462000775565b6000602082840312156200083857600080fd5b6000620006b8848462000782565b620008518162000a69565b82525050565b6000620008648262000a57565b62000870818562000a5b565b93506200088281856020860162000a87565b9290920192915050565b60006200089b60208362000a60565b7f5361666545524332303a206c6f772d6c6576656c2063616c6c206661696c6564815260200192915050565b6000620008d6602a8362000a60565b7f5361666545524332303a204552433230206f7065726174696f6e20646964206e8152691bdd081cdd58d8d9595960b21b602082015260400192915050565b60006200092460368362000a60565b7f5361666545524332303a20617070726f76652066726f6d206e6f6e2d7a65726f81527f20746f206e6f6e2d7a65726f20616c6c6f77616e636500000000000000000000602082015260400192915050565b600062000985601f8362000a60565b7f5361666545524332303a2063616c6c20746f206e6f6e2d636f6e747261637400815260200192915050565b620008518162000316565b6000620009ca828462000857565b9392505050565b60408101620009e1828562000846565b620009ca602083018462000846565b6040810162000a00828562000846565b620009ca6020830184620009b1565b602080825281016200076f816200088c565b602080825281016200076f81620008c7565b602080825281016200076f8162000915565b602080825281016200076f8162000976565b5190565b919050565b90815260200190565b60006200076f8262000a7b565b151590565b6001600160a01b031690565b60005b8381101562000aa457818101518382015260200162000a8a565b838111156200067d5750506000910152565b62000ac18162000a69565b811462000acd57600080fd5b50565b62000ac18162000a76565b62000ac18162000316565b615c468062000af66000396000f3fe6080604052600436106105075760003560e01c80638124955c11610294578063cf8ca4261161015e578063f29e15a2116100d6578063f5ff19161161008a578063f7c1ec771161006f578063f7c1ec7714610c9e578063f82ce27d14610cb3578063fc0c546a14610cc857610507565b8063f5ff191614610c69578063f69e204614610c8957610507565b8063f34ce4bb116100bb578063f34ce4bb14610c1f578063f4b9fa7514610c3f578063f5a41dea14610c5457610507565b8063f29e15a214610bea578063f2fde38b14610bff57610507565b8063e849d6591161012d578063ebc5116011610112578063ebc5116014610ba0578063f02fbd4a14610bb5578063f2978d9814610bd557610507565b8063e849d65914610b60578063eb56faf014610b8057610507565b8063cf8ca42614610af6578063d9d7858a14610b0b578063dd62ed3e14610b20578063e26f21bf14610b4057610507565b8063a160176d1161020c578063b19ab076116101c0578063b6b55f25116101a5578063b6b55f2514610a96578063bbf3164414610ab6578063bea9849e14610ad657610507565b8063b19ab07614610a6c578063b69ef8a814610a8157610507565b8063a7287971116101f1578063a728797114610a17578063a9059cbb14610a2c578063a9a1015a14610a4c57610507565b8063a160176d146109e2578063a457c2d7146109f757610507565b80638e4ec6ef1161026357806395d89b411161024857806395d89b411461099857806399b71d5c146109ad5780639ff011b9146109c257610507565b80638e4ec6ef1461096e5780638f32d59b1461098357610507565b80638124955c1461090f578063819faf7b1461092f578063858409ba146109445780638da5cb5b1461095957610507565b8063413e920d116103d55780636ff2bf081161034d578063735de9f7116103015780637b82784c116102e65780637b82784c146108b85780637d7c2a1c146108d85780637f50d4d8146108ed57610507565b8063735de9f71461088e57806377c7b8fc146108a357610507565b80637137ef99116103325780637137ef991461084f578063715018a6146108645780637354b2e91461087957610507565b80636ff2bf081461081a57806370a082311461082f57610507565b806350f62da7116103a457806358782c211161038957806358782c21146107d057806361c1ec55146107e557806365aab749146107fa57610507565b806350f62da71461079b57806357ded9c9146107bb57610507565b8063413e920d1461073157806346357473146107465780634fd96cb6146107665780634fe411291461078657610507565b8063202a2735116104835780632f48ab7d11610437578063395093511161041c57806339509351146106e757806339c0a7e1146107075780633fc8cef31461071c57610507565b80632f48ab7d146106b0578063313ce567146106c557610507565b80632622678c116104685780632622678c1461065b5780632e1a7d4d146106705780632eb4520a1461069057610507565b8063202a27351461062657806323b872dd1461063b57610507565b8063095ea7b3116104da57806310391d25116104bf57806310391d25146105e757806316f0115b146105fc57806318160ddd1461061157610507565b8063095ea7b3146105a55780630eb2a267146105d257610507565b806306636c1c1461050957806306a3fe591461053f57806306fdde0314610561578063085d488314610583575b005b34801561051557600080fd5b50610529610524366004614b41565b610cdd565b604051610536919061590f565b60405180910390f35b34801561054b57600080fd5b50610554610e94565b6040516105369190615634565b34801561056d57600080fd5b50610576610eb0565b6040516105369190615753565b34801561058f57600080fd5b50610598610f65565b6040516105369190615725565b3480156105b157600080fd5b506105c56105c0366004614a14565b610f86565b6040516105369190615709565b3480156105de57600080fd5b50610529610fa4565b3480156105f357600080fd5b50610529611050565b34801561060857600080fd5b50610529611056565b34801561061d57600080fd5b5061052961105c565b34801561063257600080fd5b50610529611062565b34801561064757600080fd5b506105c56106563660046149c7565b611068565b34801561066757600080fd5b50610554611110565b34801561067c57600080fd5b5061050761068b366004614b41565b61112c565b34801561069c57600080fd5b506105076106ab3660046148f0565b611880565b3480156106bc57600080fd5b50610554611905565b3480156106d157600080fd5b506106da611921565b60405161053691906159ac565b3480156106f357600080fd5b506105c5610702366004614a14565b61192a565b34801561071357600080fd5b5061052961198b565b34801561072857600080fd5b50610554611a58565b34801561073d57600080fd5b50610529611a74565b34801561075257600080fd5b506105076107613660046148f0565b611a7b565b34801561077257600080fd5b506105076107813660046148f0565b611b00565b34801561079257600080fd5b50610507611b85565b3480156107a757600080fd5b506105296107b63660046148f0565b611c13565b3480156107c757600080fd5b50610554611c25565b3480156107dc57600080fd5b50610554611c41565b3480156107f157600080fd5b50610529611c5d565b34801561080657600080fd5b50610507610815366004614b41565b611cb4565b34801561082657600080fd5b50610529611d4d565b34801561083b57600080fd5b5061052961084a3660046148f0565b611e25565b34801561085b57600080fd5b50610529611e51565b34801561087057600080fd5b50610507611e87565b34801561088557600080fd5b50610529611f34565b34801561089a57600080fd5b50610554611f3a565b3480156108af57600080fd5b50610529611f56565b3480156108c457600080fd5b506105296108d33660046148f0565b611f89565b3480156108e457600080fd5b50610507611f9b565b3480156108f957600080fd5b506109026120d4565b6040516105369190615717565b34801561091b57600080fd5b5061050761092a366004614b41565b6120f0565b34801561093b57600080fd5b506105546121d2565b34801561095057600080fd5b506105296121ee565b34801561096557600080fd5b506105546121f4565b34801561097a57600080fd5b50610554612210565b34801561098f57600080fd5b506105c561222c565b3480156109a457600080fd5b5061057661226c565b3480156109b957600080fd5b506105076122eb565b3480156109ce57600080fd5b506105076109dd366004614b41565b61242e565b3480156109ee57600080fd5b50610598612471565b348015610a0357600080fd5b506105c5610a12366004614a14565b6125c7565b348015610a2357600080fd5b50610529612642565b348015610a3857600080fd5b506105c5610a47366004614a14565b612711565b348015610a5857600080fd5b50610507610a67366004614a14565b612725565b348015610a7857600080fd5b5061055461280e565b348015610a8d57600080fd5b5061052961282a565b348015610aa257600080fd5b50610507610ab1366004614b41565b612881565b348015610ac257600080fd5b50610507610ad13660046148f0565b612b62565b348015610ae257600080fd5b50610507610af13660046148f0565b612be7565b348015610b0257600080fd5b50610529612c6c565b348015610b1757600080fd5b50610529612cc3565b348015610b2c57600080fd5b50610529610b3b36600461492c565b612cc9565b348015610b4c57600080fd5b50610507610b5b366004614b41565b612d01565b348015610b6c57600080fd5b50610507610b7b366004614b41565b612d44565b348015610b8c57600080fd5b50610507610b9b366004614b7d565b612e23565b348015610bac57600080fd5b50610529612e6f565b348015610bc157600080fd5b50610507610bd0366004614b41565b612e75565b348015610be157600080fd5b50610529612eb8565b348015610bf657600080fd5b50610529612ebe565b348015610c0b57600080fd5b50610507610c1a3660046148f0565b612ec4565b348015610c2b57600080fd5b50610529610c3a366004614966565b612f0b565b348015610c4b57600080fd5b506105546130d2565b348015610c6057600080fd5b506105296130ee565b348015610c7557600080fd5b50610507610c843660046148f0565b6131a7565b348015610c9557600080fd5b5061055461322c565b348015610caa57600080fd5b50610554613248565b348015610cbf57600080fd5b506105546132eb565b348015610cd457600080fd5b50610554613356565b60408051600180825281830190925260009160609190816020015b610d00614705565b815260200190600190039081610cf857905050905060405180604001604052803073ffffffffffffffffffffffffffffffffffffffff168152602001600081525081600081518110610d4e57fe5b6020026020010181905250610d6161471c565b6040805160808101909152600181526020810160008152602001600081526020018590529050610d8f614745565b600081819052506000602082015260408082018390526012546060808401919091523060a0840152815160018082528184019093529091816020015b610dd3614745565b815260200190600190039081610dcb5790505090508181600081518110610df657fe5b60209081029190910101526011546040517fa67a6a4500000000000000000000000000000000000000000000000000000000815273ffffffffffffffffffffffffffffffffffffffff9091169063a67a6a4590610e5990879085906004016156e4565b600060405180830381600087803b158015610e7357600080fd5b505af1158015610e87573d6000803e3d6000fd5b5050505050505050919050565b60105473ffffffffffffffffffffffffffffffffffffffff1681565b60038054604080516020601f60027fffffffffffffffffffffffffffffffffffffffffffffffffffffffffffffffff610100600188161502019095169490940493840181900481028201810190925282815260609390929091830182828015610f5a5780601f10610f2f57610100808354040283529160200191610f5a565b820191906000526020600020905b815481529060010190602001808311610f3d57829003601f168201915b505050505090505b90565b601f5474010000000000000000000000000000000000000000900460ff1681565b6000610f9a610f93613372565b8484613376565b5060015b92915050565b600e546040517f70a0823100000000000000000000000000000000000000000000000000000000815260009173ffffffffffffffffffffffffffffffffffffffff16906370a0823190610ffb903090600401615642565b60206040518083038186803b15801561101357600080fd5b505afa158015611027573d6000803e3d6000fd5b505050506040513d601f19601f8201168201806040525061104b9190810190614b5f565b905090565b60095481565b600b5481565b60025490565b601e5481565b6000611075848484613485565b61110584611081613372565b61110085604051806060016040528060288152602001615bb76028913973ffffffffffffffffffffffffffffffffffffffff8a166000908152600160205260408120906110cc613372565b73ffffffffffffffffffffffffffffffffffffffff168152602081019190915260400160002054919063ffffffff61361016565b613376565b5060015b9392505050565b601a5473ffffffffffffffffffffffffffffffffffffffff1681565b600680546001019081905561114033613656565b15611180576040517f08c379a000000000000000000000000000000000000000000000000000000000815260040161117790615814565b60405180910390fd5b600082116111ba576040517f08c379a000000000000000000000000000000000000000000000000000000000815260040161117790615834565b60006111c533611e25565b905080831115611201576040517f08c379a000000000000000000000000000000000000000000000000000000000815260040161117790615824565b611209611e51565b600b556000611216611d4d565b9050600061124160025461123587600b5461365c90919063ffffffff16565b9063ffffffff6136b016565b604080518082018252601d81527f72656465656d20616d6f756e7420657863656564732062616c616e636500000060208083019190915233600090815290819052919091205491925061129c9190879063ffffffff61361016565b336000908152602081905260409020556002546112bf908663ffffffff6136f216565b60025560405160009033907fddf252ad1be2c89b69c2b068fc378daa952ba7f163c4a11628f55a4df523b3ef906112f790899061590f565b60405180910390a3600c546040517f70a0823100000000000000000000000000000000000000000000000000000000815260009173ffffffffffffffffffffffffffffffffffffffff16906370a0823190611356903090600401615642565b60206040518083038186803b15801561136e57600080fd5b505afa158015611382573d6000803e3d6000fd5b505050506040513d601f19601f820116820180604052506113a69190810190614b5f565b9050818110156113c8576113c86113c3838363ffffffff6136f216565b613734565b60006113f3600a546113e760095460085461389e90919063ffffffff16565b9063ffffffff61389e16565b9050600061141468056bc75e2d63100000611235868563ffffffff61365c16565b3360009081526014602090815260408083204390556015909152902054909150611444908563ffffffff6136f216565b336000818152601560205260409081902092909255601b5491517fa9059cbb00000000000000000000000000000000000000000000000000000000815273ffffffffffffffffffffffffffffffffffffffff9092169163a9059cbb916114ae918990600401615650565b602060405180830381600087803b1580156114c857600080fd5b505af11580156114dc573d6000803e3d6000fd5b505050506040513d601f19601f820116820180604052506115009190810190614a79565b50600061150c826138dd565b601b546040517f70a0823100000000000000000000000000000000000000000000000000000000815291925060009173ffffffffffffffffffffffffffffffffffffffff909116906370a0823190611568908490600401615642565b60206040518083038186803b15801561158057600080fd5b505afa158015611594573d6000803e3d6000fd5b505050506040513d601f19601f820116820180604052506115b89190810190614b5f565b905060006115fb68056bc75e2d631000006112356115ee8861123560095468056bc75e2d6310000061365c90919063ffffffff16565b869063ffffffff61365c16565b9050601c548210156116e557600061164868056bc75e2d6310000061123561163b89611235600a5468056bc75e2d6310000061365c90919063ffffffff16565b879063ffffffff61365c16565b905061165381613ab9565b50600061169568056bc75e2d631000006112356116888a61123560085468056bc75e2d6310000061365c90919063ffffffff16565b889063ffffffff61365c16565b601a5460405191925073ffffffffffffffffffffffffffffffffffffffff169082156108fc029083906000818181858888f193505050501580156116dd573d6000803e3d6000fd5b505050611742565b60006116f7848363ffffffff6136f216565b601a5460405191925073ffffffffffffffffffffffffffffffffffffffff169082156108fc029083906000818181858888f1935050505015801561173f573d6000803e3d6000fd5b50505b601f5460405160009173ffffffffffffffffffffffffffffffffffffffff1690839061176d90615629565b60006040518083038185875af1925050503d80600081146117aa576040519150601f19603f3d011682016040523d82523d6000602084013e6117af565b606091505b50509050806117ea576040517f08c379a0000000000000000000000000000000000000000000000000000000008152600401611177906157c4565b611824336117fe8a8863ffffffff6136f216565b600c5473ffffffffffffffffffffffffffffffffffffffff16919063ffffffff613c1716565b61182c611e51565b600b55611837611f9b565b50505050505050505050600654811461187c576040517f08c379a0000000000000000000000000000000000000000000000000000000008152600401611177906158b4565b5050565b61188861222c565b6118be576040517f08c379a000000000000000000000000000000000000000000000000000000000815260040161117790615804565b601a80547fffffffffffffffffffffffff00000000000000000000000000000000000000001673ffffffffffffffffffffffffffffffffffffffff92909216919091179055565b60175473ffffffffffffffffffffffffffffffffffffffff1681565b60055460ff1690565b6000610f9a611937613372565b846111008560016000611948613372565b73ffffffffffffffffffffffffffffffffffffffff908116825260208083019390935260409182016000908120918c16815292529020549063ffffffff61389e16565b6000611995614705565b6011546040805180820182523081526000602082015260125491517fc190c2ec00000000000000000000000000000000000000000000000000000000815273ffffffffffffffffffffffffffffffffffffffff9093169263c190c2ec926119ff92916004016158f4565b604080518083038186803b158015611a1657600080fd5b505afa158015611a2a573d6000803e3d6000fd5b505050506040513d601f19601f82011682018060405250611a4e9190810190614b23565b6020015191505090565b60185473ffffffffffffffffffffffffffffffffffffffff1681565b620f424081565b611a8361222c565b611ab9576040517f08c379a000000000000000000000000000000000000000000000000000000000815260040161117790615804565b601380547fffffffffffffffffffffffff00000000000000000000000000000000000000001673ffffffffffffffffffffffffffffffffffffffff92909216919091179055565b611b0861222c565b611b3e576040517f08c379a000000000000000000000000000000000000000000000000000000000815260040161117790615804565b601b80547fffffffffffffffffffffffff00000000000000000000000000000000000000001673ffffffffffffffffffffffffffffffffffffffff92909216919091179055565b611b8d61222c565b611bc3576040517f08c379a000000000000000000000000000000000000000000000000000000000815260040161117790615804565b611bcb6121f4565b73ffffffffffffffffffffffffffffffffffffffff166108fc479081150290604051600060405180830381858888f19350505050158015611c10573d6000803e3d6000fd5b50565b60156020526000908152604090205481565b60135473ffffffffffffffffffffffffffffffffffffffff1681565b600e5473ffffffffffffffffffffffffffffffffffffffff1681565b600d546040517f70a0823100000000000000000000000000000000000000000000000000000000815260009173ffffffffffffffffffffffffffffffffffffffff16906370a0823190610ffb903090600401615642565b611cbc613248565b600c546040517fd2d0e06600000000000000000000000000000000000000000000000000000000815273ffffffffffffffffffffffffffffffffffffffff9283169263d2d0e06692611d189291169085906000906004016156bc565b600060405180830381600087803b158015611d3257600080fd5b505af1158015611d46573d6000803e3d6000fd5b5050505050565b33600090815260146020526040812054819015611d8c5733600090815260146020526040902054611d8590439063ffffffff6136f216565b9050611d96565b6000915050610f62565b6000611e1e61196461123584611e12670de0b6b3a7640000611235601d54611e12620f424061123564e8d4a51000601560003373ffffffffffffffffffffffffffffffffffffffff1673ffffffffffffffffffffffffffffffffffffffff1681526020019081526020016000205461365c90919063ffffffff16565b9063ffffffff61365c16565b9250505090565b73ffffffffffffffffffffffffffffffffffffffff81166000908152602081905260409020545b919050565b600061104b611e5e61282a565b6113e7611e69612c6c565b6113e7611e7461198b565b6113e7611e7f6130ee565b6113e7612642565b611e8f61222c565b611ec5576040517f08c379a000000000000000000000000000000000000000000000000000000000815260040161117790615804565b60075460405160009173ffffffffffffffffffffffffffffffffffffffff16907f8be0079c531659141344cd1fd0a4f28419497f9722a3daafe3b4186f6b6457e0908390a3600780547fffffffffffffffffffffffff0000000000000000000000000000000000000000169055565b60085481565b60165473ffffffffffffffffffffffffffffffffffffffff1681565b600080611f61611e51565b600254909150611f839061123583670de0b6b3a764000063ffffffff61365c16565b91505090565b60146020526000908152604090205481565b6000611fa5612471565b601f5490915074010000000000000000000000000000000000000000900460ff166004811115611fd157fe5b816004811115611fdd57fe5b14611fea57611fea613cd4565b6000611ff461282a565b111561208157600181600481111561200857fe5b141561201f5761201961052461282a565b50612081565b600481600481111561202d57fe5b14156120435761203e61092a61282a565b612081565b600281600481111561205157fe5b14156120625761203e610b7b61282a565b600381600481111561207057fe5b14156120815761208161081561282a565b601f80548291907fffffffffffffffffffffff00ffffffffffffffffffffffffffffffffffffffff16740100000000000000000000000000000000000000008360048111156120cc57fe5b021790555050565b601b5473ffffffffffffffffffffffffffffffffffffffff1681565b600e546040517f40c10f1900000000000000000000000000000000000000000000000000000000815260009173ffffffffffffffffffffffffffffffffffffffff16906340c10f19906121499030908690600401615650565b602060405180830381600087803b15801561216357600080fd5b505af1158015612177573d6000803e3d6000fd5b505050506040513d601f19601f8201168201806040525061219b9190810190614b5f565b11611c10576040517f08c379a000000000000000000000000000000000000000000000000000000000815260040161117790615894565b600f5473ffffffffffffffffffffffffffffffffffffffff1681565b600a5481565b60075473ffffffffffffffffffffffffffffffffffffffff1690565b60115473ffffffffffffffffffffffffffffffffffffffff1681565b60075460009073ffffffffffffffffffffffffffffffffffffffff16612250613372565b73ffffffffffffffffffffffffffffffffffffffff1614905090565b60048054604080516020601f60027fffffffffffffffffffffffffffffffffffffffffffffffffffffffffffffffff610100600188161502019095169490940493840181900481028201810190925282815260609390929091830182828015610f5a5780601f10610f2f57610100808354040283529160200191610f5a565b600d54600c5461233b9173ffffffffffffffffffffffffffffffffffffffff91821691167fffffffffffffffffffffffffffffffffffffffffffffffffffffffffffffffff63ffffffff613d3a16565b601154600c5461238b9173ffffffffffffffffffffffffffffffffffffffff91821691167fffffffffffffffffffffffffffffffffffffffffffffffffffffffffffffffff63ffffffff613d3a16565b6123dc6123966132eb565b600c5473ffffffffffffffffffffffffffffffffffffffff16907fffffffffffffffffffffffffffffffffffffffffffffffffffffffffffffffff63ffffffff613d3a16565b600e54600c5461242c9173ffffffffffffffffffffffffffffffffffffffff91821691167fffffffffffffffffffffffffffffffffffffffffffffffffffffffffffffffff63ffffffff613d3a16565b565b61243661222c565b61246c576040517f08c379a000000000000000000000000000000000000000000000000000000000815260040161117790615804565b601255565b601354600c546040517fd88be3c0000000000000000000000000000000000000000000000000000000008152600092839283928392839273ffffffffffffffffffffffffffffffffffffffff9182169263d88be3c0926124d5921690600401615634565b60006040518083038186803b1580156124ed57600080fd5b505afa158015612501573d6000803e3d6000fd5b505050506040513d6000823e601f3d9081017fffffffffffffffffffffffffffffffffffffffffffffffffffffffffffffffe01682016040526125479190810190614a97565b9297509095509350915060009050841561255e5750835b808411156125695750825b808311156125745750815b8082111561257f5750805b600081861415612591575060026125bd565b848214156125a1575060046125bd565b838214156125b1575060036125bd565b828214156125bd575060015b9550505050505090565b6000610f9a6125d4613372565b8461110085604051806060016040528060258152602001615bdf60259139600160006125fe613372565b73ffffffffffffffffffffffffffffffffffffffff908116825260208083019390935260409182016000908120918d1681529252902054919063ffffffff61361016565b60008061264d611c5d565b9050801561104b57610f9e670de0b6b3a7640000611235600d60009054906101000a900473ffffffffffffffffffffffffffffffffffffffff1673ffffffffffffffffffffffffffffffffffffffff1663182df0f56040518163ffffffff1660e01b815260040160206040518083038186803b1580156126cc57600080fd5b505afa1580156126e0573d6000803e3d6000fd5b505050506040513d601f19601f820116820180604052506127049190810190614b5f565b849063ffffffff61365c16565b6000610f9a61271e613372565b8484613485565b61272d61222c565b612763576040517f08c379a000000000000000000000000000000000000000000000000000000000815260040161117790615804565b6040517fa9059cbb00000000000000000000000000000000000000000000000000000000815273ffffffffffffffffffffffffffffffffffffffff83169063a9059cbb906127b79033908590600401615650565b602060405180830381600087803b1580156127d157600080fd5b505af11580156127e5573d6000803e3d6000fd5b505050506040513d601f19601f820116820180604052506128099190810190614a79565b505050565b601f5473ffffffffffffffffffffffffffffffffffffffff1681565b600c546040517f70a0823100000000000000000000000000000000000000000000000000000000815260009173ffffffffffffffffffffffffffffffffffffffff16906370a0823190610ffb903090600401615642565b600680546001019081905561289533613656565b156128cc576040517f08c379a000000000000000000000000000000000000000000000000000000000815260040161117790615814565b60008211612906576040517f08c379a000000000000000000000000000000000000000000000000000000000815260040161117790615884565b601b546040517f70a0823100000000000000000000000000000000000000000000000000000000815260009173ffffffffffffffffffffffffffffffffffffffff16906370a082319061295d903390600401615642565b60206040518083038186803b15801561297557600080fd5b505afa158015612989573d6000803e3d6000fd5b505050506040513d601f19601f820116820180604052506129ad9190810190614b5f565b601b546018546019546016549394506000936129e89373ffffffffffffffffffffffffffffffffffffffff9081169381169281169116612f0b565b90506000612a0e68056bc75e2d63100000611235601e548861365c90919063ffffffff16565b90506000612a22828463ffffffff6136b016565b905080841015612a5e576040517f08c379a000000000000000000000000000000000000000000000000000000000815260040161117790615844565b612a66611e51565b600b55600c54612a949073ffffffffffffffffffffffffffffffffffffffff1633308963ffffffff613e5916565b3360009081526014602090815260408083204390556015909152902054612ac1908763ffffffff61389e16565b33600090815260156020526040812091909155600b54612ae75750600b86905585612b05565b612b02600b546112356002548a61365c90919063ffffffff16565b90505b612b0d611e51565b600b55612b1a3382613e9c565b612b22611f9b565b5050505050600654811461187c576040517f08c379a0000000000000000000000000000000000000000000000000000000008152600401611177906158b4565b612b6a61222c565b612ba0576040517f08c379a000000000000000000000000000000000000000000000000000000000815260040161117790615804565b600e80547fffffffffffffffffffffffff00000000000000000000000000000000000000001673ffffffffffffffffffffffffffffffffffffffff92909216919091179055565b612bef61222c565b612c25576040517f08c379a000000000000000000000000000000000000000000000000000000000815260040161117790615804565b601680547fffffffffffffffffffffffff00000000000000000000000000000000000000001673ffffffffffffffffffffffffffffffffffffffff92909216919091179055565b6010546040517f70a0823100000000000000000000000000000000000000000000000000000000815260009173ffffffffffffffffffffffffffffffffffffffff16906370a0823190610ffb903090600401615642565b60125481565b73ffffffffffffffffffffffffffffffffffffffff918216600090815260016020908152604080832093909416825291909152205490565b612d0961222c565b612d3f576040517f08c379a000000000000000000000000000000000000000000000000000000000815260040161117790615804565b601e55565b600d546040517fa0712d6800000000000000000000000000000000000000000000000000000000815273ffffffffffffffffffffffffffffffffffffffff9091169063a0712d6890612d9a90849060040161590f565b602060405180830381600087803b158015612db457600080fd5b505af1158015612dc8573d6000803e3d6000fd5b505050506040513d601f19601f82011682018060405250612dec9190810190614b5f565b15611c10576040517f08c379a0000000000000000000000000000000000000000000000000000000008152600401611177906157a4565b612e2b61222c565b612e61576040517f08c379a000000000000000000000000000000000000000000000000000000000815260040161117790615804565b600892909255600955600a55565b601d5481565b612e7d61222c565b612eb3576040517f08c379a000000000000000000000000000000000000000000000000000000000815260040161117790615804565b601d55565b61196481565b601c5481565b612ecc61222c565b612f02576040517f08c379a000000000000000000000000000000000000000000000000000000000815260040161117790615804565b611c1081613f9d565b60408051600380825260808201909252600091606091906020820183803883390190505090508581600081518110612f3f57fe5b602002602001019073ffffffffffffffffffffffffffffffffffffffff16908173ffffffffffffffffffffffffffffffffffffffff16815250508481600181518110612f8757fe5b602002602001019073ffffffffffffffffffffffffffffffffffffffff16908173ffffffffffffffffffffffffffffffffffffffff16815250508381600281518110612fcf57fe5b73ffffffffffffffffffffffffffffffffffffffff92831660209182029290920101526040517fd06ca61f00000000000000000000000000000000000000000000000000000000815260609185169063d06ca61f9061303c90670de0b6b3a7640000908690600401615733565b60006040518083038186803b15801561305457600080fd5b505afa158015613068573d6000803e3d6000fd5b505050506040513d6000823e601f3d9081017fffffffffffffffffffffffffffffffffffffffffffffffffffffffffffffffe01682016040526130ae9190810190614a44565b9050806002815181106130bd57fe5b6020026020010151925050505b949350505050565b60195473ffffffffffffffffffffffffffffffffffffffff1681565b6000806130f9610fa4565b9050801561104b57600e546040517f06b3efd600000000000000000000000000000000000000000000000000000000815273ffffffffffffffffffffffffffffffffffffffff909116906306b3efd690613157903090600401615642565b60206040518083038186803b15801561316f57600080fd5b505afa158015613183573d6000803e3d6000fd5b505050506040513d601f19601f82011682018060405250610f9e9190810190614b5f565b6131af61222c565b6131e5576040517f08c379a000000000000000000000000000000000000000000000000000000000815260040161117790615804565b600d80547fffffffffffffffffffffffff00000000000000000000000000000000000000001673ffffffffffffffffffffffffffffffffffffffff92909216919091179055565b600d5473ffffffffffffffffffffffffffffffffffffffff1681565b600f54604080517f0261bf8b000000000000000000000000000000000000000000000000000000008152905160009273ffffffffffffffffffffffffffffffffffffffff1691630261bf8b916004808301926020929190829003018186803b1580156132b357600080fd5b505afa1580156132c7573d6000803e3d6000fd5b505050506040513d601f19601f8201168201806040525061104b919081019061490e565b600f54604080517fed6ff760000000000000000000000000000000000000000000000000000000008152905160009273ffffffffffffffffffffffffffffffffffffffff169163ed6ff760916004808301926020929190829003018186803b1580156132b357600080fd5b600c5473ffffffffffffffffffffffffffffffffffffffff1681565b3390565b73ffffffffffffffffffffffffffffffffffffffff83166133c3576040517f08c379a000000000000000000000000000000000000000000000000000000000815260040161117790615874565b73ffffffffffffffffffffffffffffffffffffffff8216613410576040517f08c379a000000000000000000000000000000000000000000000000000000000815260040161117790615794565b73ffffffffffffffffffffffffffffffffffffffff80841660008181526001602090815260408083209487168084529490915290819020849055517f8c5be1e5ebec7d5bd14f71427d1e84f3dd0314c0f7b2291e5b200ac8c7c3b9259061347890859061590f565b60405180910390a3505050565b73ffffffffffffffffffffffffffffffffffffffff83166134d2576040517f08c379a000000000000000000000000000000000000000000000000000000000815260040161117790615854565b73ffffffffffffffffffffffffffffffffffffffff821661351f576040517f08c379a000000000000000000000000000000000000000000000000000000000815260040161117790615764565b61356f81604051806060016040528060268152602001615b916026913973ffffffffffffffffffffffffffffffffffffffff8616600090815260208190526040902054919063ffffffff61361016565b73ffffffffffffffffffffffffffffffffffffffff80851660009081526020819052604080822093909355908416815220546135b1908263ffffffff61389e16565b73ffffffffffffffffffffffffffffffffffffffff80841660008181526020819052604090819020939093559151908516907fddf252ad1be2c89b69c2b068fc378daa952ba7f163c4a11628f55a4df523b3ef9061347890859061590f565b6000818484111561364e576040517f08c379a00000000000000000000000000000000000000000000000000000000081526004016111779190615753565b505050900390565b3b151590565b60008261366b57506000610f9e565b8282028284828161367857fe5b0414611109576040517f08c379a0000000000000000000000000000000000000000000000000000000008152600401611177906157e4565b600061110983836040518060400160405280601a81526020017f536166654d6174683a206469766973696f6e206279207a65726f000000000000815250614078565b600061110983836040518060400160405280601e81526020017f536166654d6174683a207375627472616374696f6e206f766572666c6f770000815250613610565b6002601f5474010000000000000000000000000000000000000000900460ff16600481111561375f57fe5b141561376e5761376e816140c9565b6003601f5474010000000000000000000000000000000000000000900460ff16600481111561379957fe5b14156137e957806137a8612c6c565b10156137e0576040517f08c379a000000000000000000000000000000000000000000000000000000000815260040161117790615864565b6137e981614141565b6001601f5474010000000000000000000000000000000000000000900460ff16600481111561381457fe5b1415613864578061382361198b565b101561385b576040517f08c379a000000000000000000000000000000000000000000000000000000000815260040161117790615864565b61386481614197565b6004601f5474010000000000000000000000000000000000000000900460ff16600481111561388f57fe5b1415611c1057611c1081614348565b600082820183811015611109576040517f08c379a0000000000000000000000000000000000000000000000000000000008152600401611177906157b4565b6016546017546000916139109173ffffffffffffffffffffffffffffffffffffffff90811691168363ffffffff613d3a16565b6016546017546139409173ffffffffffffffffffffffffffffffffffffffff91821691168463ffffffff613d3a16565b60408051600280825260608083018452926020830190803883395050601754825192935073ffffffffffffffffffffffffffffffffffffffff169183915060009061398757fe5b73ffffffffffffffffffffffffffffffffffffffff92831660209182029290920101526018548251911690829060019081106139bf57fe5b73ffffffffffffffffffffffffffffffffffffffff9283166020918202929092010152601654606091166318cbafe58560008530613a054261070863ffffffff61389e16565b6040518663ffffffff1660e01b8152600401613a25959493929190615959565b600060405180830381600087803b158015613a3f57600080fd5b505af1158015613a53573d6000803e3d6000fd5b505050506040513d6000823e601f3d9081017fffffffffffffffffffffffffffffffffffffffffffffffffffffffffffffffe0168201604052613a999190810190614a44565b905080600181518110613aa857fe5b602002602001015192505050919050565b60408051600280825260608083018452600093909291906020830190803883395050601854825192935073ffffffffffffffffffffffffffffffffffffffff1691839150600090613b0657fe5b73ffffffffffffffffffffffffffffffffffffffff9283166020918202929092010152601b54825191169082906001908110613b3e57fe5b73ffffffffffffffffffffffffffffffffffffffff928316602091820292909201015260165460609116637ff36ab58560008581613b844261070863ffffffff61389e16565b6040518663ffffffff1660e01b8152600401613ba3949392919061591d565b6000604051808303818588803b158015613bbc57600080fd5b505af1158015613bd0573d6000803e3d6000fd5b50505050506040513d6000823e601f3d9081017fffffffffffffffffffffffffffffffffffffffffffffffffffffffffffffffe0168201604052613a999190810190614a44565b6040516128099084907fa9059cbb0000000000000000000000000000000000000000000000000000000090613c5290869086906024016156ae565b604080517fffffffffffffffffffffffffffffffffffffffffffffffffffffffffffffffe08184030181529190526020810180517bffffffffffffffffffffffffffffffffffffffffffffffffffffffff167fffffffff00000000000000000000000000000000000000000000000000000000909316929092179091526143c0565b6000613cde611c5d565b90508015613cef57613cef8161450d565b613cf761198b565b90508015613d0857613d0881614197565b613d10610fa4565b90508015613d2157613d21816145ec565b613d29612c6c565b90508015611c1057611c1081614141565b801580613de857506040517fdd62ed3e00000000000000000000000000000000000000000000000000000000815273ffffffffffffffffffffffffffffffffffffffff84169063dd62ed3e90613d96903090869060040161566b565b60206040518083038186803b158015613dae57600080fd5b505afa158015613dc2573d6000803e3d6000fd5b505050506040513d601f19601f82011682018060405250613de69190810190614b5f565b155b613e1e576040517f08c379a0000000000000000000000000000000000000000000000000000000008152600401611177906158c4565b6040516128099084907f095ea7b30000000000000000000000000000000000000000000000000000000090613c5290869086906024016156ae565b604051613e969085907f23b872dd0000000000000000000000000000000000000000000000000000000090613c5290879087908790602401615686565b50505050565b73ffffffffffffffffffffffffffffffffffffffff8216613ee9576040517f08c379a0000000000000000000000000000000000000000000000000000000008152600401611177906158e4565b600254613efc908263ffffffff61389e16565b60025573ffffffffffffffffffffffffffffffffffffffff8216600090815260208190526040902054613f35908263ffffffff61389e16565b73ffffffffffffffffffffffffffffffffffffffff83166000818152602081905260408082209390935591519091907fddf252ad1be2c89b69c2b068fc378daa952ba7f163c4a11628f55a4df523b3ef90613f9190859061590f565b60405180910390a35050565b73ffffffffffffffffffffffffffffffffffffffff8116613fea576040517f08c379a000000000000000000000000000000000000000000000000000000000815260040161117790615784565b60075460405173ffffffffffffffffffffffffffffffffffffffff8084169216907f8be0079c531659141344cd1fd0a4f28419497f9722a3daafe3b4186f6b6457e090600090a3600780547fffffffffffffffffffffffff00000000000000000000000000000000000000001673ffffffffffffffffffffffffffffffffffffffff92909216919091179055565b600081836140b3576040517f08c379a00000000000000000000000000000000000000000000000000000000081526004016111779190615753565b5060008385816140bf57fe5b0495945050505050565b60006140d3611c5d565b905060006140df612642565b90508281101561411b576040517f08c379a000000000000000000000000000000000000000000000000000000000815260040161117790615864565b600061413660016113e784611235878963ffffffff61365c16565b9050613e968161450d565b6010546040517fdb006a7500000000000000000000000000000000000000000000000000000000815273ffffffffffffffffffffffffffffffffffffffff9091169063db006a7590611d1890849060040161590f565b604080516001808252818301909252606091816020015b6141b6614705565b8152602001906001900390816141ae57905050905060405180604001604052803073ffffffffffffffffffffffffffffffffffffffff16815260200160008152508160008151811061420457fe5b602002602001018190525061421761471c565b6040805160808101909152600080825260208201908152602001600081526020018490529050614245614745565b600181819052506000602082015260408082018390526012546060808401919091523060a0840152815160018082528184019093529091816020015b614289614745565b81526020019060019003908161428157905050905081816000815181106142ac57fe5b60209081029190910101526011546040517fa67a6a4500000000000000000000000000000000000000000000000000000000815273ffffffffffffffffffffffffffffffffffffffff9091169063a67a6a459061430f90879085906004016156e4565b600060405180830381600087803b15801561432957600080fd5b505af115801561433d573d6000803e3d6000fd5b505050505050505050565b6000614352610fa4565b9050600061435e6130ee565b90508281101561439a576040517f08c379a000000000000000000000000000000000000000000000000000000000815260040161117790615864565b60006143b560016113e784611235878963ffffffff61365c16565b9050613e96816145ec565b6143df8273ffffffffffffffffffffffffffffffffffffffff166146ce565b614415576040517f08c379a0000000000000000000000000000000000000000000000000000000008152600401611177906158d4565b600060608373ffffffffffffffffffffffffffffffffffffffff168360405161443e919061561d565b6000604051808303816000865af19150503d806000811461447b576040519150601f19603f3d011682016040523d82523d6000602084013e614480565b606091505b5091509150816144bc576040517f08c379a0000000000000000000000000000000000000000000000000000000008152600401611177906157d4565b805115613e9657808060200190516144d79190810190614a79565b613e96576040517f08c379a0000000000000000000000000000000000000000000000000000000008152600401611177906158a4565b600d546040517fdb006a7500000000000000000000000000000000000000000000000000000000815273ffffffffffffffffffffffffffffffffffffffff9091169063db006a759061456390849060040161590f565b602060405180830381600087803b15801561457d57600080fd5b505af1158015614591573d6000803e3d6000fd5b505050506040513d601f19601f820116820180604052506145b59190810190614b5f565b15611c10576040517f08c379a000000000000000000000000000000000000000000000000000000000815260040161117790615774565b600e546040517f9dc29fac00000000000000000000000000000000000000000000000000000000815260009173ffffffffffffffffffffffffffffffffffffffff1690639dc29fac906146459030908690600401615650565b602060405180830381600087803b15801561465f57600080fd5b505af1158015614673573d6000803e3d6000fd5b505050506040513d601f19601f820116820180604052506146979190810190614b5f565b11611c10576040517f08c379a0000000000000000000000000000000000000000000000000000000008152600401611177906157f4565b6000813f7fc5d2460186f7233c927e7db2dcc703c0e500b653ca82273b7bfad8045d85a47081158015906130ca5750141592915050565b604080518082019091526000808252602082015290565b604080516080810190915260008082526020820190815260200160008152602001600081525090565b60408051610100810182526000808252602082015290810161476561471c565b81526020016000815260200160008152602001600073ffffffffffffffffffffffffffffffffffffffff16815260200160008152602001606081525090565b8035610f9e81615b6a565b8051610f9e81615b6a565b600082601f8301126147cb57600080fd5b81516147de6147d9826159e1565b6159ba565b9150818183526020840193506020810190508385602084028201111561480357600080fd5b60005b8381101561482f578161481988826148e5565b8452506020928301929190910190600101614806565b5050505092915050565b8051610f9e81615b7e565b600082601f83011261485557600080fd5b81516148636147d982615a02565b9150808252602083016020830185838301111561487f57600080fd5b61488a838284615af8565b50505092915050565b6000604082840312156148a557600080fd5b6148af60406159ba565b905060006148bd8484614839565b82525060206148ce848483016148e5565b60208301525092915050565b8035610f9e81615b87565b8051610f9e81615b87565b60006020828403121561490257600080fd5b60006130ca84846147a4565b60006020828403121561492057600080fd5b60006130ca84846147af565b6000806040838503121561493f57600080fd5b600061494b85856147a4565b925050602061495c858286016147a4565b9150509250929050565b6000806000806080858703121561497c57600080fd5b600061498887876147a4565b9450506020614999878288016147a4565b93505060406149aa878288016147a4565b92505060606149bb878288016147a4565b91505092959194509250565b6000806000606084860312156149dc57600080fd5b60006149e886866147a4565b93505060206149f9868287016147a4565b9250506040614a0a868287016148da565b9150509250925092565b60008060408385031215614a2757600080fd5b6000614a3385856147a4565b925050602061495c858286016148da565b600060208284031215614a5657600080fd5b815167ffffffffffffffff811115614a6d57600080fd5b6130ca848285016147ba565b600060208284031215614a8b57600080fd5b60006130ca8484614839565b600080600080600060a08688031215614aaf57600080fd5b855167ffffffffffffffff811115614ac657600080fd5b614ad288828901614844565b9550506020614ae3888289016148e5565b9450506040614af4888289016148e5565b9350506060614b05888289016148e5565b9250506080614b16888289016148e5565b9150509295509295909350565b600060408284031215614b3557600080fd5b60006130ca8484614893565b600060208284031215614b5357600080fd5b60006130ca84846148da565b600060208284031215614b7157600080fd5b60006130ca84846148e5565b600080600060608486031215614b9257600080fd5b6000614b9e86866148da565b93505060206149f9868287016148da565b6000614bbb8383614bf2565b505060200190565b600061110983836154f6565b6000614bdb83836155eb565b505060400190565b614bec81615aaf565b82525050565b614bec81615a5b565b6000614c0682615a4e565b614c108185615a52565b9350614c1b83615a48565b8060005b83811015614c49578151614c338882614baf565b9750614c3e83615a48565b925050600101614c1f565b509495945050505050565b6000614c5f82615a4e565b614c698185615a52565b935083602082028501614c7b85615a48565b8060005b85811015614cb55784840389528151614c988582614bc3565b9450614ca383615a48565b60209a909a0199925050600101614c7f565b5091979650505050505050565b6000614ccd82615a4e565b614cd78185615a52565b9350614ce283615a48565b8060005b83811015614c49578151614cfa8882614bcf565b9750614d0583615a48565b925050600101614ce6565b614bec81615a66565b6000614d2482615a4e565b614d2e8185611e4c565b9350614d3e818560208601615af8565b9290920192915050565b6000614d5382615a4e565b614d5d8185615a52565b9350614d6d818560208601615af8565b614d7681615b24565b9093019392505050565b614bec81615ab6565b614bec81615ac1565b614bec81615acc565b614bec81615ad7565b614bec81615ae2565b614bec81615aed565b6000614dc3602383615a52565b7f45524332303a207472616e7366657220746f20746865207a65726f206164647281527f6573730000000000000000000000000000000000000000000000000000000000602082015260400192915050565b6000614e22601983615a52565b7f434f4d504f554e443a207769746864726177206661696c656400000000000000815260200192915050565b6000614e5b602683615a52565b7f4f776e61626c653a206e6577206f776e657220697320746865207a65726f206181527f6464726573730000000000000000000000000000000000000000000000000000602082015260400192915050565b6000614eba602283615a52565b7f45524332303a20617070726f766520746f20746865207a65726f20616464726581527f7373000000000000000000000000000000000000000000000000000000000000602082015260400192915050565b6000614f19601783615a52565b7f434f4d504f554e443a20737570706c79206661696c6564000000000000000000815260200192915050565b6000614f52601b83615a52565b7f536166654d6174683a206164646974696f6e206f766572666c6f770000000000815260200192915050565b6000614f8b601c83615a52565b7f446576207472656173757279207472616e73666572206661696c656400000000815260200192915050565b6000614fc4602083615a52565b7f5361666545524332303a206c6f772d6c6576656c2063616c6c206661696c6564815260200192915050565b6000614ffd602183615a52565b7f536166654d6174683a206d756c7469706c69636174696f6e206f766572666c6f81527f7700000000000000000000000000000000000000000000000000000000000000602082015260400192915050565b600061505c601883615a52565b7f46554c4352554d3a207769746864726177206661696c65640000000000000000815260200192915050565b6000615095602083615a52565b7f4f776e61626c653a2063616c6c6572206973206e6f7420746865206f776e6572815260200192915050565b60006150ce603383615a52565b7f436f6e74726163747320617265206e6f7420616c6c6f77656420746f20696e7481527f6572616374207769746820746865206661726d00000000000000000000000000602082015260400192915050565b600061512d601483615a52565b7f696e73756666696369656e742062616c616e6365000000000000000000000000815260200192915050565b6000615166601f83615a52565b7f7769746864726177206d7573742062652067726561746572207468616e203000815260200192915050565b600061519f604583615a52565b7f596f75206d75737420686f6c642061203525206f6620796f7572206465706f7381527f697420696e2059454c4420746f6b656e7320746f2062652061626c6520746f2060208201527f7374616b65000000000000000000000000000000000000000000000000000000604082015260600192915050565b6000615224602583615a52565b7f45524332303a207472616e736665722066726f6d20746865207a65726f20616481527f6472657373000000000000000000000000000000000000000000000000000000602082015260400192915050565b6000610f9e600083611e4c565b6000615290601283615a52565b7f696e73756666696369656e742066756e64730000000000000000000000000000815260200192915050565b60006152c9602483615a52565b7f45524332303a20617070726f76652066726f6d20746865207a65726f2061646481527f7265737300000000000000000000000000000000000000000000000000000000602082015260400192915050565b6000615328601e83615a52565b7f6465706f736974206d7573742062652067726561746572207468616e20300000815260200192915050565b6000615361601683615a52565b7f46554c4352554d3a20737570706c79206661696c656400000000000000000000815260200192915050565b600061539a602a83615a52565b7f5361666545524332303a204552433230206f7065726174696f6e20646964206e81527f6f74207375636365656400000000000000000000000000000000000000000000602082015260400192915050565b60006153f9601f83615a52565b7f5265656e7472616e637947756172643a207265656e7472616e742063616c6c00815260200192915050565b6000615432603683615a52565b7f5361666545524332303a20617070726f76652066726f6d206e6f6e2d7a65726f81527f20746f206e6f6e2d7a65726f20616c6c6f77616e636500000000000000000000602082015260400192915050565b6000615491601f83615a52565b7f5361666545524332303a2063616c6c20746f206e6f6e2d636f6e747261637400815260200192915050565b60006154ca601f83615a52565b7f45524332303a206d696e7420746f20746865207a65726f206164647265737300815260200192915050565b805160009061016084019061550b8582614d89565b50602083015161551e602086018261560b565b50604083015161553160408601826155a1565b50606083015161554460c086018261560b565b50608083015161555760e086018261560b565b5060a083015161556b610100860182614bf2565b5060c083015161557f61012086018261560b565b5060e08301518482036101408601526155988282614d48565b95945050505050565b805160808301906155b28482614d10565b5060208201516155c56020850182614d92565b5060408201516155d86040850182614d92565b506060820151613e96606085018261560b565b805160408301906155fc8482614bf2565b506020820151613e9660208501825b614bec81610f62565b614bec81615aa9565b60006111098284614d19565b6000610f9e82615276565b60208101610f9e8284614bf2565b60208101610f9e8284614be3565b6040810161565e8285614be3565b611109602083018461560b565b604081016156798285614bf2565b6111096020830184614bf2565b606081016156948286614bf2565b6156a16020830185614bf2565b6130ca604083018461560b565b6040810161565e8285614bf2565b606081016156ca8286614bf2565b6156d7602083018561560b565b6130ca6040830184614da4565b604080825281016156f58185614cc2565b905081810360208301526130ca8184614c54565b60208101610f9e8284614d10565b60208101610f9e8284614d80565b60208101610f9e8284614d9b565b604081016157418285614dad565b81810360208301526130ca8184614bfb565b602080825281016111098184614d48565b60208082528101610f9e81614db6565b60208082528101610f9e81614e15565b60208082528101610f9e81614e4e565b60208082528101610f9e81614ead565b60208082528101610f9e81614f0c565b60208082528101610f9e81614f45565b60208082528101610f9e81614f7e565b60208082528101610f9e81614fb7565b60208082528101610f9e81614ff0565b60208082528101610f9e8161504f565b60208082528101610f9e81615088565b60208082528101610f9e816150c1565b60208082528101610f9e81615120565b60208082528101610f9e81615159565b60208082528101610f9e81615192565b60208082528101610f9e81615217565b60208082528101610f9e81615283565b60208082528101610f9e816152bc565b60208082528101610f9e8161531b565b60208082528101610f9e81615354565b60208082528101610f9e8161538d565b60208082528101610f9e816153ec565b60208082528101610f9e81615425565b60208082528101610f9e81615484565b60208082528101610f9e816154bd565b6060810161590282856155eb565b611109604083018461560b565b60208101610f9e828461560b565b6080810161592b828761560b565b818103602083015261593d8186614bfb565b905061594c6040830185614be3565b615598606083018461560b565b60a08101615967828861560b565b615974602083018761560b565b81810360408301526159868186614bfb565b90506159956060830185614be3565b6159a2608083018461560b565b9695505050505050565b60208101610f9e8284615614565b60405181810167ffffffffffffffff811182821017156159d957600080fd5b604052919050565b600067ffffffffffffffff8211156159f857600080fd5b5060209081020190565b600067ffffffffffffffff821115615a1957600080fd5b506020601f919091017fffffffffffffffffffffffffffffffffffffffffffffffffffffffffffffffe0160190565b60200190565b5190565b90815260200190565b6000610f9e82615a90565b151590565b80611e4c81615b4c565b80611e4c81615b56565b80611e4c81615b60565b61ffff1690565b73ffffffffffffffffffffffffffffffffffffffff1690565b60ff1690565b6000610f9e825b6000610f9e82615a5b565b6000610f9e82615a6b565b6000610f9e82615a75565b6000610f9e82615a7f565b6000610f9e82615a89565b6000610f9e82610f62565b60005b83811015615b13578181015183820152602001615afb565b83811115613e965750506000910152565b601f017fffffffffffffffffffffffffffffffffffffffffffffffffffffffffffffffe01690565b60028110611c1057fe5b60018110611c1057fe5b60058110611c1057fe5b615b7381615a5b565b8114611c1057600080fd5b615b7381615a66565b615b7381610f6256fe45524332303a207472616e7366657220616d6f756e7420657863656564732062616c616e636545524332303a207472616e7366657220616d6f756e74206578636565647320616c6c6f77616e636545524332303a2064656372656173656420616c6c6f77616e63652062656c6f77207a65726fa365627a7a72315820bf8dce6b6141acd1b344e0c5a2e7bafdd956e527449c36ba23da7c13025ce4cb6c6578706572696d656e74616cf564736f6c63430005110040",
  "source": "pragma solidity 0.5.17;\npragma experimental ABIEncoderV2;\n\nimport './ContractImports.sol';\nimport './CommonFunctionality.sol';\n\ncontract yUSDT is ERC20, ERC20Detailed, ReentrancyGuard, Ownable, Structs, CommonFunctionality {\n  using SafeERC20 for IERC20;\n  using Address for address;\n  using SafeMath for uint256;\n\n  uint256 public pool;\n  address public token;\n  address public compound;\n  address public fulcrum;\n  address public aave;\n  address public aaveToken;\n  address public dydx;\n  uint256 public dToken;\n  address public apr;\n\n  // Yeld\n  mapping(address => uint256) public depositBlockStarts;\n  mapping(address => uint256) public depositAmount;\n  address public uniswapRouter = 0x7a250d5630B4cF539739dF2C5dAcb4c659F2488D;\n  address public usdt = 0xdAC17F958D2ee523a2206206994597C13D831ec7;\n  address public weth = 0xC02aaA39b223FE8D0A0e5C4F27eAD9083C756Cc2;\n  address public dai = 0x6B175474E89094C44Da98b954EedeAC495271d0F;\n  address payable public retirementYeldTreasury;\n  IERC20 public yeldToken;\n  uint256 public maximumTokensToBurn = 50000 * 1e18;\n  uint256 public constant oneDayInBlocks = 6500;\n  uint256 public yeldToRewardPerDay = 0e18; // 100 YELD per day per 1 million stablecoins padded with 18 zeroes to have that flexibility\n  uint256 public constant oneMillion = 1e6;\n  uint256 public holdPercentage = 5e18;\n  address public devTreasury;\n  // Yeld\n\n  enum Lender {\n      NONE,\n      DYDX,\n      COMPOUND,\n      AAVE,\n      FULCRUM\n  }\n\n  Lender public provider = Lender.NONE;\n\n  constructor (address _yeldToken, address payable _retirementYeldTreasury, address _devTreasury) public ERC20Detailed(\"yeld USDT\", \"yUSDT\", 6) {\n    token = address(0xdAC17F958D2ee523a2206206994597C13D831ec7);\n    apr = address(0xdD6d648C991f7d47454354f4Ef326b04025a48A8);\n    dydx = address(0x1E0447b19BB6EcFdAe1e4AE1694b0C3659614e4e);\n    aave = address(0x24a42fD28C976A61Df5D00D0599C34c4f90748c8);\n    fulcrum = address(0xF013406A0B1d544238083DF0B93ad0d2cBE0f65f);\n    aaveToken = address(0x71fc860F7D3A592A4a98740e39dB31d25db65ae8);\n    compound = address(0x39AA39c021dfbaE8faC545936693aC917d5E7563);\n    dToken = 0;\n    yeldToken = IERC20(_yeldToken);\n    retirementYeldTreasury = _retirementYeldTreasury;\n    devTreasury = _devTreasury;\n    approveToken();\n  }\n\n  // Yeld\n  // To receive ETH after converting it from USDT\n  function () external payable {}\n  function setRetirementYeldTreasury(address payable _treasury) public onlyOwner {\n    retirementYeldTreasury = _treasury;\n  }\n  // In case a new uniswap router version is released\n  function setUniswapRouter(address _uniswapRouter) public onlyOwner {\n    uniswapRouter = _uniswapRouter;\n  }\n  function setYeldToken(address _yeldToken) public onlyOwner {\n    yeldToken = IERC20(_yeldToken);\n  }\n  function extractTokensIfStuck(address _token, uint256 _amount) public onlyOwner {\n    IERC20(_token).transfer(msg.sender, _amount);\n  }\n  function extractETHIfStuck() public onlyOwner {\n    owner().transfer(address(this).balance);\n  }\n  function changeYeldToRewardPerDay(uint256 _amount) public onlyOwner {\n    yeldToRewardPerDay = _amount;\n  }\n  function getGeneratedYelds() public view returns(uint256) {\n    uint256 blocksPassed;\n    if (depositBlockStarts[msg.sender] > 0) {\n      blocksPassed = block.number.sub(depositBlockStarts[msg.sender]);\n    } else {\n      return 0;\n    }\n    uint256 generatedYelds = depositAmount[msg.sender].mul(1e12).div(oneMillion).mul(yeldToRewardPerDay).div(1e18).mul(blocksPassed).div(oneDayInBlocks);\n    return generatedYelds;\n  }\n  \n  // Converts USDT to ETH and returns how much ETH has been received from Uniswap\n  function usdtToETH(uint256 _amount) internal returns(uint256) {\n      IERC20(usdt).safeApprove(uniswapRouter, 0);\n      IERC20(usdt).safeApprove(uniswapRouter, _amount);\n      address[] memory path = new address[](2);\n      path[0] = usdt;\n      path[1] = weth;\n      // swapExactTokensForETH(uint amountIn, uint amountOutMin, address[] calldata path, address to, uint deadline)\n      // 'amounts' is an array where [0] is input USDT amount and [1] is the resulting ETH after the conversion\n      // even tho we've specified the WETH address, we'll receive ETH since that's how it works on uniswap\n      // https://uniswap.org/docs/v2/smart-contracts/router02/#swapexacttokensforeth\n      uint[] memory amounts = IUniswap(uniswapRouter).swapExactTokensForETH(_amount, uint(0), path, address(this), now.add(1800));\n      return amounts[1];\n  }\n  function buyNBurn(uint256 _ethToSwap) internal returns(uint256) {\n    address[] memory path = new address[](2);\n    path[0] = weth;\n    path[1] = address(yeldToken);\n    // Burns the tokens by taking them out of circulation, sending them to the 0x0 address\n    uint[] memory amounts = IUniswap(uniswapRouter).swapExactETHForTokens.value(_ethToSwap)(uint(0), path, address(0), now.add(1800));\n    return amounts[1];\n  }\n  // Yeld\n\n  function setHoldPercentage(uint256 _holdPercentage) public onlyOwner {\n    holdPercentage = _holdPercentage;\n  }\n\n  // Quick swap low gas method for pool swaps\n  function deposit(uint256 _amount)\n      external\n      nonReentrant\n      noContract\n  {\n      require(_amount > 0, \"deposit must be greater than 0\");\n      uint256 yeldHold = yeldToken.balanceOf(msg.sender);\n      uint256 yeldPriceInDai = getYeldPriceInDai(address(yeldToken), weth, dai, uniswapRouter);\n      uint256 amountPercentage = _amount.mul(holdPercentage).div(1e20);\n      uint256 yeldRequirement = amountPercentage.div(yeldPriceInDai);\n      require(yeldHold >= yeldRequirement, 'You must hold a 5% of your deposit in YELD tokens to be able to stake');\n\n      pool = _calcPoolValueInToken();\n      IERC20(token).safeTransferFrom(msg.sender, address(this), _amount);\n        \n      // Yeld\n      depositBlockStarts[msg.sender] = block.number;\n      depositAmount[msg.sender] = depositAmount[msg.sender].add(_amount);\n      // Yeld\n\n      // Calculate pool shares\n      uint256 shares = 0;\n      if (pool == 0) {\n        shares = _amount;\n        pool = _amount;\n      } else {\n        shares = (_amount.mul(_totalSupply)).div(pool);\n      }\n      pool = _calcPoolValueInToken();\n      _mint(msg.sender, shares);\n      rebalance();\n  }\n\n  // No rebalance implementation for lower fees and faster swaps\n  function withdraw(uint256 _shares)\n      external\n      nonReentrant\n      noContract\n  {\n      require(_shares > 0, \"withdraw must be greater than 0\");\n      uint256 ibalance = balanceOf(msg.sender);\n      require(_shares <= ibalance, \"insufficient balance\");\n      pool = _calcPoolValueInToken();\n      // Yeld\n      uint256 generatedYelds = getGeneratedYelds();\n      // Yeld\n      uint256 stablecoinsToWithdraw = (pool.mul(_shares)).div(_totalSupply);\n      _balances[msg.sender] = _balances[msg.sender].sub(_shares, \"redeem amount exceeds balance\");\n      _totalSupply = _totalSupply.sub(_shares);\n      emit Transfer(msg.sender, address(0), _shares);\n      uint256 b = IERC20(token).balanceOf(address(this));\n      if (b < stablecoinsToWithdraw) {\n        _withdrawSome(stablecoinsToWithdraw.sub(b));\n      }\n\n      // Yeld\n      uint256 totalPercentage = percentageRetirementYield.add(percentageDevTreasury).add(percentageBuyBurn);\n      uint256 combined = stablecoinsToWithdraw.mul(totalPercentage).div(1e20);\n      depositBlockStarts[msg.sender] = block.number;\n      depositAmount[msg.sender] = depositAmount[msg.sender].sub(stablecoinsToWithdraw);\n      yeldToken.transfer(msg.sender, generatedYelds);\n\n      // Take a portion of the profits for the buy and burn and retirement yeld\n      // Convert half the USDT earned into ETH for the protocol algorithms\n      uint256 stakingProfits = usdtToETH(combined);\n      uint256 tokensAlreadyBurned = yeldToken.balanceOf(address(0));\n      uint256 devTreasuryAmount = stakingProfits.mul(uint256(100e18).mul(percentageDevTreasury).div(totalPercentage)).div(100e18);\n      if (tokensAlreadyBurned < maximumTokensToBurn) {\n        uint256 ethToSwap = stakingProfits.mul(uint256(100e18).mul(percentageBuyBurn).div(totalPercentage)).div(100e18);\n        buyNBurn(ethToSwap);\n        uint256 retirementYeld = stakingProfits.mul(uint256(100e18).mul(percentageRetirementYield).div(totalPercentage)).div(100e18);\n        retirementYeldTreasury.transfer(retirementYeld);\n      } else {\n        uint256 retirementYeld = stakingProfits.sub(devTreasuryAmount);\n        retirementYeldTreasury.transfer(retirementYeld);\n      }\n      (bool success, ) = devTreasury.call.value(devTreasuryAmount)(\"\");\n      require(success, \"Dev treasury transfer failed\");\n      IERC20(token).safeTransfer(msg.sender, stablecoinsToWithdraw.sub(combined));\n      // Yeld\n\n      pool = _calcPoolValueInToken();\n      rebalance();\n  }\n\n  // Ownable setters incase of support in future for these systems\n  function set_new_APR(address _new_APR) public onlyOwner {\n      apr = _new_APR;\n  }\n  function set_new_FULCRUM(address _new_FULCRUM) public onlyOwner {\n      fulcrum = _new_FULCRUM;\n  }\n  function set_new_COMPOUND(address _new_COMPOUND) public onlyOwner {\n      compound = _new_COMPOUND;\n  }\n  function set_new_DTOKEN(uint256 _new_DTOKEN) public onlyOwner {\n      dToken = _new_DTOKEN;\n  }\n\n  function recommend() public view returns (Lender) {\n    (,uint256 capr,uint256 iapr,uint256 aapr,uint256 dapr) = IIEarnManager(apr).recommend(token);\n    uint256 max = 0;\n    if (capr > max) {\n      max = capr;\n    }\n    if (iapr > max) {\n      max = iapr;\n    }\n    if (aapr > max) {\n      max = aapr;\n    }\n    if (dapr > max) {\n      max = dapr;\n    }\n\n    Lender newProvider = Lender.NONE;\n    if (max == capr) {\n      newProvider = Lender.COMPOUND;\n    } else if (max == iapr) {\n      newProvider = Lender.FULCRUM;\n    } else if (max == aapr) {\n      newProvider = Lender.AAVE;\n    } else if (max == dapr) {\n      newProvider = Lender.DYDX;\n    }\n    return newProvider;\n  }\n\n  function supplyDydx(uint256 amount) public returns(uint) {\n      Info[] memory infos = new Info[](1);\n      infos[0] = Info(address(this), 0);\n\n      AssetAmount memory amt = AssetAmount(true, AssetDenomination.Wei, AssetReference.Delta, amount);\n      ActionArgs memory act;\n      act.actionType = ActionType.Deposit;\n      act.accountId = 0;\n      act.amount = amt;\n      act.primaryMarketId = dToken;\n      act.otherAddress = address(this);\n\n      ActionArgs[] memory args = new ActionArgs[](1);\n      args[0] = act;\n\n      DyDx(dydx).operate(infos, args);\n  }\n\n  function _withdrawDydx(uint256 amount) internal {\n      Info[] memory infos = new Info[](1);\n      infos[0] = Info(address(this), 0);\n\n      AssetAmount memory amt = AssetAmount(false, AssetDenomination.Wei, AssetReference.Delta, amount);\n      ActionArgs memory act;\n      act.actionType = ActionType.Withdraw;\n      act.accountId = 0;\n      act.amount = amt;\n      act.primaryMarketId = dToken;\n      act.otherAddress = address(this);\n\n      ActionArgs[] memory args = new ActionArgs[](1);\n      args[0] = act;\n\n      DyDx(dydx).operate(infos, args);\n  }\n\n  function getAave() public view returns (address) {\n    return LendingPoolAddressesProvider(aave).getLendingPool();\n  }\n  function getAaveCore() public view returns (address) {\n    return LendingPoolAddressesProvider(aave).getLendingPoolCore();\n  }\n\n  function approveToken() public {\n      IERC20(token).safeApprove(compound, uint(-1)); //also add to constructor\n      IERC20(token).safeApprove(dydx, uint(-1));\n      IERC20(token).safeApprove(getAaveCore(), uint(-1));\n      IERC20(token).safeApprove(fulcrum, uint(-1));\n  }\n\n  function balance() public view returns (uint256) {\n    return IERC20(token).balanceOf(address(this));\n  }\n\n  function balanceDydx() public view returns (uint256) {\n      Wei memory bal = DyDx(dydx).getAccountWei(Info(address(this), 0), dToken);\n      return bal.value;\n  }\n  function balanceCompound() public view returns (uint256) {\n      return IERC20(compound).balanceOf(address(this));\n  }\n  function balanceCompoundInToken() public view returns (uint256) {\n    // Mantisa 1e18 to decimals\n    uint256 b = balanceCompound();\n    if (b > 0) {\n      b = b.mul(Compound(compound).exchangeRateStored()).div(1e18);\n    }\n    return b;\n  }\n  function balanceFulcrumInToken() public view returns (uint256) {\n    uint256 b = balanceFulcrum();\n    if (b > 0) {\n      b = Fulcrum(fulcrum).assetBalanceOf(address(this));\n    }\n    return b;\n  }\n  function balanceFulcrum() public view returns (uint256) {\n    return IERC20(fulcrum).balanceOf(address(this));\n  }\n  function balanceAave() public view returns (uint256) {\n    return IERC20(aaveToken).balanceOf(address(this));\n  }\n\n  function _balance() internal view returns (uint256) {\n    return IERC20(token).balanceOf(address(this));\n  }\n\n  function _balanceDydx() internal view returns (uint256) {\n      Wei memory bal = DyDx(dydx).getAccountWei(Info(address(this), 0), dToken);\n      return bal.value;\n  }\n  function _balanceCompound() internal view returns (uint256) {\n      return IERC20(compound).balanceOf(address(this));\n  }\n  function _balanceCompoundInToken() internal view returns (uint256) {\n    // Mantisa 1e18 to decimals\n    uint256 b = balanceCompound();\n    if (b > 0) {\n      b = b.mul(Compound(compound).exchangeRateStored()).div(1e18);\n    }\n    return b;\n  }\n  function _balanceFulcrumInToken() internal view returns (uint256) {\n    uint256 b = balanceFulcrum();\n    if (b > 0) {\n      b = Fulcrum(fulcrum).assetBalanceOf(address(this));\n    }\n    return b;\n  }\n  function _balanceFulcrum() internal view returns (uint256) {\n    return IERC20(fulcrum).balanceOf(address(this));\n  }\n  function _balanceAave() internal view returns (uint256) {\n    return IERC20(aaveToken).balanceOf(address(this));\n  }\n\n  function _withdrawAll() internal {\n    uint256 amount = _balanceCompound();\n    if (amount > 0) {\n      _withdrawCompound(amount);\n    }\n    amount = _balanceDydx();\n    if (amount > 0) {\n      _withdrawDydx(amount);\n    }\n    amount = _balanceFulcrum();\n    if (amount > 0) {\n      _withdrawFulcrum(amount);\n    }\n    amount = _balanceAave();\n    if (amount > 0) {\n      _withdrawAave(amount);\n    }\n  }\n\n  function _withdrawSomeCompound(uint256 _amount) internal {\n    uint256 b = balanceCompound();\n    uint256 bT = balanceCompoundInToken();\n    require(bT >= _amount, \"insufficient funds\");\n    // can have unintentional rounding errors\n    uint256 amount = (b.mul(_amount)).div(bT).add(1);\n    _withdrawCompound(amount);\n  }\n\n  // 1999999614570950845\n  function _withdrawSomeFulcrum(uint256 _amount) internal {\n    // Balance of fulcrum tokens, 1 iDAI = 1.00x DAI\n    uint256 b = balanceFulcrum(); // 1970469086655766652\n    // Balance of token in fulcrum\n    uint256 bT = balanceFulcrumInToken(); // 2000000803224344406\n    require(bT >= _amount, \"insufficient funds\");\n    // can have unintentional rounding errors\n    uint256 amount = (b.mul(_amount)).div(bT).add(1);\n    _withdrawFulcrum(amount);\n  }\n\n  function _withdrawSome(uint256 _amount) internal {\n    if (provider == Lender.COMPOUND) {\n      _withdrawSomeCompound(_amount);\n    }\n    if (provider == Lender.AAVE) {\n      require(balanceAave() >= _amount, \"insufficient funds\");\n      _withdrawAave(_amount);\n    }\n    if (provider == Lender.DYDX) {\n      require(balanceDydx() >= _amount, \"insufficient funds\");\n      _withdrawDydx(_amount);\n    }\n    if (provider == Lender.FULCRUM) {\n      _withdrawSomeFulcrum(_amount);\n    }\n  }\n\n  function rebalance() public {\n    Lender newProvider = recommend();\n\n    if (newProvider != provider) {\n      _withdrawAll();\n    }\n\n    if (balance() > 0) {\n      if (newProvider == Lender.DYDX) {\n        supplyDydx(balance());\n      } else if (newProvider == Lender.FULCRUM) {\n        supplyFulcrum(balance());\n      } else if (newProvider == Lender.COMPOUND) {\n        supplyCompound(balance());\n      } else if (newProvider == Lender.AAVE) {\n        supplyAave(balance());\n      }\n    }\n\n    provider = newProvider;\n  }\n\n  // Internal only rebalance for better gas in redeem\n  function _rebalance(Lender newProvider) internal {\n    if (_balance() > 0) {\n      if (newProvider == Lender.DYDX) {\n        supplyDydx(_balance());\n      } else if (newProvider == Lender.FULCRUM) {\n        supplyFulcrum(_balance());\n      } else if (newProvider == Lender.COMPOUND) {\n        supplyCompound(_balance());\n      } else if (newProvider == Lender.AAVE) {\n        supplyAave(_balance());\n      }\n    }\n    provider = newProvider;\n  }\n\n  function supplyAave(uint amount) public {\n      Aave(getAave()).deposit(token, amount, 0);\n  }\n  function supplyFulcrum(uint amount) public {\n      require(Fulcrum(fulcrum).mint(address(this), amount) > 0, \"FULCRUM: supply failed\");\n  }\n  function supplyCompound(uint amount) public {\n      require(Compound(compound).mint(amount) == 0, \"COMPOUND: supply failed\");\n  }\n  function _withdrawAave(uint amount) internal {\n      AToken(aaveToken).redeem(amount);\n  }\n  function _withdrawFulcrum(uint amount) internal {\n      require(Fulcrum(fulcrum).burn(address(this), amount) > 0, \"FULCRUM: withdraw failed\");\n  }\n  function _withdrawCompound(uint amount) internal {\n      require(Compound(compound).redeem(amount) == 0, \"COMPOUND: withdraw failed\");\n  }\n\n  function _calcPoolValueInToken() internal view returns (uint) {\n    return _balanceCompoundInToken()\n      .add(_balanceFulcrumInToken())\n      .add(_balanceDydx())\n      .add(_balanceAave())\n      .add(_balance());\n  }\n\n  function calcPoolValueInToken() public view returns (uint) {\n    return balanceCompoundInToken()\n      .add(balanceFulcrumInToken())\n      .add(balanceDydx())\n      .add(balanceAave())\n      .add(balance());\n  }\n\n  function getPricePerFullShare() public view returns (uint) {\n    uint _pool = calcPoolValueInToken();\n    return _pool.mul(1e18).div(_totalSupply);\n  }\n}\n",
  "sourcePath": "C:/Users/merun/Desktop/yeld-contracts/contracts/yUSDT.sol",
  "compiler": {
    "name": "solc",
    "version": "0.5.17+commit.d19bba13.Emscripten.clang"
  },
  "schemaVersion": "3.3.3",
  "updatedAt": "2021-01-19T20:24:37.118Z",
  "networkType": "ethereum",
  "devdoc": {
    "methods": {}
  },
  "userdoc": {
    "methods": {}
  }
}