{
  "contractName": "yUSDT",
  "abi": [
    {
      "inputs": [
        {
          "internalType": "address",
          "name": "_yeldToken",
          "type": "address"
        },
        {
          "internalType": "address payable",
          "name": "_retirementYeldTreasury",
          "type": "address"
        }
      ],
      "payable": false,
      "stateMutability": "nonpayable",
      "type": "constructor"
    },
    {
      "anonymous": false,
      "inputs": [
        {
          "indexed": true,
          "internalType": "address",
          "name": "owner",
          "type": "address"
        },
        {
          "indexed": true,
          "internalType": "address",
          "name": "spender",
          "type": "address"
        },
        {
          "indexed": false,
          "internalType": "uint256",
          "name": "value",
          "type": "uint256"
        }
      ],
      "name": "Approval",
      "type": "event"
    },
    {
      "anonymous": false,
      "inputs": [
        {
          "indexed": true,
          "internalType": "address",
          "name": "previousOwner",
          "type": "address"
        },
        {
          "indexed": true,
          "internalType": "address",
          "name": "newOwner",
          "type": "address"
        }
      ],
      "name": "OwnershipTransferred",
      "type": "event"
    },
    {
      "anonymous": false,
      "inputs": [
        {
          "indexed": true,
          "internalType": "address",
          "name": "from",
          "type": "address"
        },
        {
          "indexed": true,
          "internalType": "address",
          "name": "to",
          "type": "address"
        },
        {
          "indexed": false,
          "internalType": "uint256",
          "name": "value",
          "type": "uint256"
        }
      ],
      "name": "Transfer",
      "type": "event"
    },
    {
      "payable": true,
      "stateMutability": "payable",
      "type": "fallback"
    },
    {
      "constant": true,
      "inputs": [],
      "name": "aave",
      "outputs": [
        {
          "internalType": "address",
          "name": "",
          "type": "address"
        }
      ],
      "payable": false,
      "stateMutability": "view",
      "type": "function"
    },
    {
      "constant": true,
      "inputs": [],
      "name": "aaveToken",
      "outputs": [
        {
          "internalType": "address",
          "name": "",
          "type": "address"
        }
      ],
      "payable": false,
      "stateMutability": "view",
      "type": "function"
    },
    {
      "constant": true,
      "inputs": [
        {
          "internalType": "address",
          "name": "owner",
          "type": "address"
        },
        {
          "internalType": "address",
          "name": "spender",
          "type": "address"
        }
      ],
      "name": "allowance",
      "outputs": [
        {
          "internalType": "uint256",
          "name": "",
          "type": "uint256"
        }
      ],
      "payable": false,
      "stateMutability": "view",
      "type": "function"
    },
    {
      "constant": false,
      "inputs": [
        {
          "internalType": "address",
          "name": "spender",
          "type": "address"
        },
        {
          "internalType": "uint256",
          "name": "amount",
          "type": "uint256"
        }
      ],
      "name": "approve",
      "outputs": [
        {
          "internalType": "bool",
          "name": "",
          "type": "bool"
        }
      ],
      "payable": false,
      "stateMutability": "nonpayable",
      "type": "function"
    },
    {
      "constant": true,
      "inputs": [],
      "name": "apr",
      "outputs": [
        {
          "internalType": "address",
          "name": "",
          "type": "address"
        }
      ],
      "payable": false,
      "stateMutability": "view",
      "type": "function"
    },
    {
      "constant": true,
      "inputs": [
        {
          "internalType": "address",
          "name": "account",
          "type": "address"
        }
      ],
      "name": "balanceOf",
      "outputs": [
        {
          "internalType": "uint256",
          "name": "",
          "type": "uint256"
        }
      ],
      "payable": false,
      "stateMutability": "view",
      "type": "function"
    },
    {
      "constant": true,
      "inputs": [],
      "name": "compound",
      "outputs": [
        {
          "internalType": "address",
          "name": "",
          "type": "address"
        }
      ],
      "payable": false,
      "stateMutability": "view",
      "type": "function"
    },
    {
      "constant": true,
      "inputs": [],
      "name": "dToken",
      "outputs": [
        {
          "internalType": "uint256",
          "name": "",
          "type": "uint256"
        }
      ],
      "payable": false,
      "stateMutability": "view",
      "type": "function"
    },
    {
      "constant": true,
      "inputs": [],
      "name": "decimals",
      "outputs": [
        {
          "internalType": "uint8",
          "name": "",
          "type": "uint8"
        }
      ],
      "payable": false,
      "stateMutability": "view",
      "type": "function"
    },
    {
      "constant": false,
      "inputs": [
        {
          "internalType": "address",
          "name": "spender",
          "type": "address"
        },
        {
          "internalType": "uint256",
          "name": "subtractedValue",
          "type": "uint256"
        }
      ],
      "name": "decreaseAllowance",
      "outputs": [
        {
          "internalType": "bool",
          "name": "",
          "type": "bool"
        }
      ],
      "payable": false,
      "stateMutability": "nonpayable",
      "type": "function"
    },
    {
      "constant": true,
      "inputs": [
        {
          "internalType": "address",
          "name": "",
          "type": "address"
        }
      ],
      "name": "depositBlockStarts",
      "outputs": [
        {
          "internalType": "uint256",
          "name": "",
          "type": "uint256"
        }
      ],
      "payable": false,
      "stateMutability": "view",
      "type": "function"
    },
    {
      "constant": true,
      "inputs": [],
      "name": "dydx",
      "outputs": [
        {
          "internalType": "address",
          "name": "",
          "type": "address"
        }
      ],
      "payable": false,
      "stateMutability": "view",
      "type": "function"
    },
    {
      "constant": true,
      "inputs": [],
      "name": "fulcrum",
      "outputs": [
        {
          "internalType": "address",
          "name": "",
          "type": "address"
        }
      ],
      "payable": false,
      "stateMutability": "view",
      "type": "function"
    },
    {
      "constant": false,
      "inputs": [
        {
          "internalType": "address",
          "name": "spender",
          "type": "address"
        },
        {
          "internalType": "uint256",
          "name": "addedValue",
          "type": "uint256"
        }
      ],
      "name": "increaseAllowance",
      "outputs": [
        {
          "internalType": "bool",
          "name": "",
          "type": "bool"
        }
      ],
      "payable": false,
      "stateMutability": "nonpayable",
      "type": "function"
    },
    {
      "constant": true,
      "inputs": [],
      "name": "isOwner",
      "outputs": [
        {
          "internalType": "bool",
          "name": "",
          "type": "bool"
        }
      ],
      "payable": false,
      "stateMutability": "view",
      "type": "function"
    },
    {
      "constant": true,
      "inputs": [],
      "name": "maximumTokensToBurn",
      "outputs": [
        {
          "internalType": "uint256",
          "name": "",
          "type": "uint256"
        }
      ],
      "payable": false,
      "stateMutability": "view",
      "type": "function"
    },
    {
      "constant": true,
      "inputs": [],
      "name": "name",
      "outputs": [
        {
          "internalType": "string",
          "name": "",
          "type": "string"
        }
      ],
      "payable": false,
      "stateMutability": "view",
      "type": "function"
    },
    {
      "constant": true,
      "inputs": [],
      "name": "oneDayInBlocks",
      "outputs": [
        {
          "internalType": "uint256",
          "name": "",
          "type": "uint256"
        }
      ],
      "payable": false,
      "stateMutability": "view",
      "type": "function"
    },
    {
      "constant": true,
      "inputs": [],
      "name": "oneMillion",
      "outputs": [
        {
          "internalType": "uint256",
          "name": "",
          "type": "uint256"
        }
      ],
      "payable": false,
      "stateMutability": "view",
      "type": "function"
    },
    {
      "constant": true,
      "inputs": [],
      "name": "owner",
      "outputs": [
        {
          "internalType": "address payable",
          "name": "",
          "type": "address"
        }
      ],
      "payable": false,
      "stateMutability": "view",
      "type": "function"
    },
    {
      "constant": true,
      "inputs": [],
      "name": "pool",
      "outputs": [
        {
          "internalType": "uint256",
          "name": "",
          "type": "uint256"
        }
      ],
      "payable": false,
      "stateMutability": "view",
      "type": "function"
    },
    {
      "constant": true,
      "inputs": [],
      "name": "provider",
      "outputs": [
        {
          "internalType": "enum yUSDT.Lender",
          "name": "",
          "type": "uint8"
        }
      ],
      "payable": false,
      "stateMutability": "view",
      "type": "function"
    },
    {
      "constant": false,
      "inputs": [],
      "name": "renounceOwnership",
      "outputs": [],
      "payable": false,
      "stateMutability": "nonpayable",
      "type": "function"
    },
    {
      "constant": true,
      "inputs": [],
      "name": "retirementYeldTreasury",
      "outputs": [
        {
          "internalType": "address payable",
          "name": "",
          "type": "address"
        }
      ],
      "payable": false,
      "stateMutability": "view",
      "type": "function"
    },
    {
      "constant": true,
      "inputs": [],
      "name": "symbol",
      "outputs": [
        {
          "internalType": "string",
          "name": "",
          "type": "string"
        }
      ],
      "payable": false,
      "stateMutability": "view",
      "type": "function"
    },
    {
      "constant": true,
      "inputs": [],
      "name": "token",
      "outputs": [
        {
          "internalType": "address",
          "name": "",
          "type": "address"
        }
      ],
      "payable": false,
      "stateMutability": "view",
      "type": "function"
    },
    {
      "constant": true,
      "inputs": [],
      "name": "totalSupply",
      "outputs": [
        {
          "internalType": "uint256",
          "name": "",
          "type": "uint256"
        }
      ],
      "payable": false,
      "stateMutability": "view",
      "type": "function"
    },
    {
      "constant": false,
      "inputs": [
        {
          "internalType": "address",
          "name": "recipient",
          "type": "address"
        },
        {
          "internalType": "uint256",
          "name": "amount",
          "type": "uint256"
        }
      ],
      "name": "transfer",
      "outputs": [
        {
          "internalType": "bool",
          "name": "",
          "type": "bool"
        }
      ],
      "payable": false,
      "stateMutability": "nonpayable",
      "type": "function"
    },
    {
      "constant": false,
      "inputs": [
        {
          "internalType": "address",
          "name": "sender",
          "type": "address"
        },
        {
          "internalType": "address",
          "name": "recipient",
          "type": "address"
        },
        {
          "internalType": "uint256",
          "name": "amount",
          "type": "uint256"
        }
      ],
      "name": "transferFrom",
      "outputs": [
        {
          "internalType": "bool",
          "name": "",
          "type": "bool"
        }
      ],
      "payable": false,
      "stateMutability": "nonpayable",
      "type": "function"
    },
    {
      "constant": false,
      "inputs": [
        {
          "internalType": "address payable",
          "name": "newOwner",
          "type": "address"
        }
      ],
      "name": "transferOwnership",
      "outputs": [],
      "payable": false,
      "stateMutability": "nonpayable",
      "type": "function"
    },
    {
      "constant": true,
      "inputs": [],
      "name": "uniswapRouter",
      "outputs": [
        {
          "internalType": "address",
          "name": "",
          "type": "address"
        }
      ],
      "payable": false,
      "stateMutability": "view",
      "type": "function"
    },
    {
      "constant": true,
      "inputs": [],
      "name": "usdt",
      "outputs": [
        {
          "internalType": "address",
          "name": "",
          "type": "address"
        }
      ],
      "payable": false,
      "stateMutability": "view",
      "type": "function"
    },
    {
      "constant": true,
      "inputs": [],
      "name": "weth",
      "outputs": [
        {
          "internalType": "address",
          "name": "",
          "type": "address"
        }
      ],
      "payable": false,
      "stateMutability": "view",
      "type": "function"
    },
    {
      "constant": true,
      "inputs": [],
      "name": "yeldToRewardPerDay",
      "outputs": [
        {
          "internalType": "uint256",
          "name": "",
          "type": "uint256"
        }
      ],
      "payable": false,
      "stateMutability": "view",
      "type": "function"
    },
    {
      "constant": true,
      "inputs": [],
      "name": "yeldToken",
      "outputs": [
        {
          "internalType": "contract IERC20",
          "name": "",
          "type": "address"
        }
      ],
      "payable": false,
      "stateMutability": "view",
      "type": "function"
    },
    {
      "constant": false,
      "inputs": [
        {
          "internalType": "address payable",
          "name": "_treasury",
          "type": "address"
        }
      ],
      "name": "setRetirementYeldTreasury",
      "outputs": [],
      "payable": false,
      "stateMutability": "nonpayable",
      "type": "function"
    },
    {
      "constant": false,
      "inputs": [
        {
          "internalType": "address",
          "name": "_uniswapRouter",
          "type": "address"
        }
      ],
      "name": "setUniswapRouter",
      "outputs": [],
      "payable": false,
      "stateMutability": "nonpayable",
      "type": "function"
    },
    {
      "constant": false,
      "inputs": [
        {
          "internalType": "address",
          "name": "_yeldToken",
          "type": "address"
        }
      ],
      "name": "setYeldToken",
      "outputs": [],
      "payable": false,
      "stateMutability": "nonpayable",
      "type": "function"
    },
    {
      "constant": false,
      "inputs": [
        {
          "internalType": "address",
          "name": "_token",
          "type": "address"
        },
        {
          "internalType": "uint256",
          "name": "_amount",
          "type": "uint256"
        }
      ],
      "name": "extractTokensIfStuck",
      "outputs": [],
      "payable": false,
      "stateMutability": "nonpayable",
      "type": "function"
    },
    {
      "constant": false,
      "inputs": [],
      "name": "extractETHIfStuck",
      "outputs": [],
      "payable": false,
      "stateMutability": "nonpayable",
      "type": "function"
    },
    {
      "constant": false,
      "inputs": [
        {
          "internalType": "uint256",
          "name": "_amount",
          "type": "uint256"
        }
      ],
      "name": "changeYeldToRewardPerDay",
      "outputs": [],
      "payable": false,
      "stateMutability": "nonpayable",
      "type": "function"
    },
    {
      "constant": true,
      "inputs": [],
      "name": "getGeneratedYelds",
      "outputs": [
        {
          "internalType": "uint256",
          "name": "",
          "type": "uint256"
        }
      ],
      "payable": false,
      "stateMutability": "view",
      "type": "function"
    },
    {
      "constant": false,
      "inputs": [
        {
          "internalType": "uint256",
          "name": "_amount",
          "type": "uint256"
        }
      ],
      "name": "deposit",
      "outputs": [],
      "payable": false,
      "stateMutability": "nonpayable",
      "type": "function"
    },
    {
      "constant": false,
      "inputs": [
        {
          "internalType": "uint256",
          "name": "_shares",
          "type": "uint256"
        }
      ],
      "name": "withdraw",
      "outputs": [],
      "payable": false,
      "stateMutability": "nonpayable",
      "type": "function"
    },
    {
      "constant": false,
      "inputs": [
        {
          "internalType": "address",
          "name": "_new_APR",
          "type": "address"
        }
      ],
      "name": "set_new_APR",
      "outputs": [],
      "payable": false,
      "stateMutability": "nonpayable",
      "type": "function"
    },
    {
      "constant": false,
      "inputs": [
        {
          "internalType": "address",
          "name": "_new_FULCRUM",
          "type": "address"
        }
      ],
      "name": "set_new_FULCRUM",
      "outputs": [],
      "payable": false,
      "stateMutability": "nonpayable",
      "type": "function"
    },
    {
      "constant": false,
      "inputs": [
        {
          "internalType": "address",
          "name": "_new_COMPOUND",
          "type": "address"
        }
      ],
      "name": "set_new_COMPOUND",
      "outputs": [],
      "payable": false,
      "stateMutability": "nonpayable",
      "type": "function"
    },
    {
      "constant": false,
      "inputs": [
        {
          "internalType": "uint256",
          "name": "_new_DTOKEN",
          "type": "uint256"
        }
      ],
      "name": "set_new_DTOKEN",
      "outputs": [],
      "payable": false,
      "stateMutability": "nonpayable",
      "type": "function"
    },
    {
      "constant": true,
      "inputs": [],
      "name": "recommend",
      "outputs": [
        {
          "internalType": "enum yUSDT.Lender",
          "name": "",
          "type": "uint8"
        }
      ],
      "payable": false,
      "stateMutability": "view",
      "type": "function"
    },
    {
      "constant": false,
      "inputs": [
        {
          "internalType": "uint256",
          "name": "amount",
          "type": "uint256"
        }
      ],
      "name": "supplyDydx",
      "outputs": [
        {
          "internalType": "uint256",
          "name": "",
          "type": "uint256"
        }
      ],
      "payable": false,
      "stateMutability": "nonpayable",
      "type": "function"
    },
    {
      "constant": true,
      "inputs": [],
      "name": "getAave",
      "outputs": [
        {
          "internalType": "address",
          "name": "",
          "type": "address"
        }
      ],
      "payable": false,
      "stateMutability": "view",
      "type": "function"
    },
    {
      "constant": true,
      "inputs": [],
      "name": "getAaveCore",
      "outputs": [
        {
          "internalType": "address",
          "name": "",
          "type": "address"
        }
      ],
      "payable": false,
      "stateMutability": "view",
      "type": "function"
    },
    {
      "constant": false,
      "inputs": [],
      "name": "approveToken",
      "outputs": [],
      "payable": false,
      "stateMutability": "nonpayable",
      "type": "function"
    },
    {
      "constant": true,
      "inputs": [],
      "name": "balance",
      "outputs": [
        {
          "internalType": "uint256",
          "name": "",
          "type": "uint256"
        }
      ],
      "payable": false,
      "stateMutability": "view",
      "type": "function"
    },
    {
      "constant": true,
      "inputs": [],
      "name": "balanceDydx",
      "outputs": [
        {
          "internalType": "uint256",
          "name": "",
          "type": "uint256"
        }
      ],
      "payable": false,
      "stateMutability": "view",
      "type": "function"
    },
    {
      "constant": true,
      "inputs": [],
      "name": "balanceCompound",
      "outputs": [
        {
          "internalType": "uint256",
          "name": "",
          "type": "uint256"
        }
      ],
      "payable": false,
      "stateMutability": "view",
      "type": "function"
    },
    {
      "constant": true,
      "inputs": [],
      "name": "balanceCompoundInToken",
      "outputs": [
        {
          "internalType": "uint256",
          "name": "",
          "type": "uint256"
        }
      ],
      "payable": false,
      "stateMutability": "view",
      "type": "function"
    },
    {
      "constant": true,
      "inputs": [],
      "name": "balanceFulcrumInToken",
      "outputs": [
        {
          "internalType": "uint256",
          "name": "",
          "type": "uint256"
        }
      ],
      "payable": false,
      "stateMutability": "view",
      "type": "function"
    },
    {
      "constant": true,
      "inputs": [],
      "name": "balanceFulcrum",
      "outputs": [
        {
          "internalType": "uint256",
          "name": "",
          "type": "uint256"
        }
      ],
      "payable": false,
      "stateMutability": "view",
      "type": "function"
    },
    {
      "constant": true,
      "inputs": [],
      "name": "balanceAave",
      "outputs": [
        {
          "internalType": "uint256",
          "name": "",
          "type": "uint256"
        }
      ],
      "payable": false,
      "stateMutability": "view",
      "type": "function"
    },
    {
      "constant": false,
      "inputs": [],
      "name": "rebalance",
      "outputs": [],
      "payable": false,
      "stateMutability": "nonpayable",
      "type": "function"
    },
    {
      "constant": false,
      "inputs": [
        {
          "internalType": "uint256",
          "name": "amount",
          "type": "uint256"
        }
      ],
      "name": "supplyAave",
      "outputs": [],
      "payable": false,
      "stateMutability": "nonpayable",
      "type": "function"
    },
    {
      "constant": false,
      "inputs": [
        {
          "internalType": "uint256",
          "name": "amount",
          "type": "uint256"
        }
      ],
      "name": "supplyFulcrum",
      "outputs": [],
      "payable": false,
      "stateMutability": "nonpayable",
      "type": "function"
    },
    {
      "constant": false,
      "inputs": [
        {
          "internalType": "uint256",
          "name": "amount",
          "type": "uint256"
        }
      ],
      "name": "supplyCompound",
      "outputs": [],
      "payable": false,
      "stateMutability": "nonpayable",
      "type": "function"
    },
    {
      "constant": true,
      "inputs": [],
      "name": "calcPoolValueInToken",
      "outputs": [
        {
          "internalType": "uint256",
          "name": "",
          "type": "uint256"
        }
      ],
      "payable": false,
      "stateMutability": "view",
      "type": "function"
    },
    {
      "constant": true,
      "inputs": [],
      "name": "getPricePerFullShare",
      "outputs": [
        {
          "internalType": "uint256",
          "name": "",
          "type": "uint256"
        }
      ],
      "payable": false,
      "stateMutability": "view",
      "type": "function"
    }
  ],
  "bytecode": "0x6080604052601280546001600160a01b0319908116737a250d5630b4cf539739df2c5dacb4c659f2488d1790915560138054821673dac17f958d2ee523a2206206994597c13d831ec71790556014805490911673c02aaa39b223fe8d0a0e5c4f27ead9083c756cc2179055690a968163f0a57b40000060175560006018556019805460ff191690553480156200009457600080fd5b5060405162005c6638038062005c66833981016040819052620000b79162000751565b60408051808201825260098152681e595b19081554d11560ba1b6020808301918252835180850190945260058452641e5554d11560da1b90840152815191929160069162000109916003919062000661565b5081516200011f90600490602085019062000661565b506005805460ff191660ff929092169190911790555050600160065562000145620002b5565b600780546001600160a01b0319166001600160a01b0392831617908190556040519116906000907f8be0079c531659141344cd1fd0a4f28419497f9722a3daafe3b4186f6b6457e0908290a3600980546001600160a01b031990811673dac17f958d2ee523a2206206994597c13d831ec71790915560108054821673dd6d648c991f7d47454354f4ef326b04025a48a8179055600e80548216731e0447b19bb6ecfdae1e4ae1694b0c3659614e4e179055600c805482167324a42fd28c976a61df5d00d0599c34c4f90748c8179055600b8054821673f013406a0b1d544238083df0b93ad0d2cbe0f65f179055600d805482167371fc860f7d3a592a4a98740e39db31d25db65ae8179055600a805482167339aa39c021dfbae8fac545936693ac917d5e75631790556000600f55601680546001600160a01b03858116918416919091179091556015805491841691909216179055620002ad6001600160e01b03620002ba16565b505062000a72565b335b90565b600a54600954620002e7916001600160a01b0391821691166000196200037c602090811b6200349017901c565b600e5460095462000314916001600160a01b0391821691166000196200037c602090811b6200349017901c565b6200034d6200032b6001600160e01b036200049616565b6009546001600160a01b0316906000196200037c602090811b6200349017901c565b600b546009546200037a916001600160a01b0391821691166000196200037c602090811b6200349017901c565b565b8015806200040b5750604051636eb1769f60e11b81526001600160a01b0384169063dd62ed3e90620003b590309086906004016200095d565b60206040518083038186803b158015620003ce57600080fd5b505afa158015620003e3573d6000803e3d6000fd5b505050506040513d601f19601f82011682018060405250620004099190810190620007b1565b155b620004335760405162461bcd60e51b81526004016200042a90620009bf565b60405180910390fd5b6040516200049190849063095ea7b360e01b906200045890869086906024016200097c565b60408051808303601f190181529190526020810180516001600160e01b0319939093166001600160e01b03938416179052906200051c16565b505050565b600c546040805163076b7fbb60e51b815290516000926001600160a01b03169163ed6ff760916004808301926020929190829003018186803b158015620004dc57600080fd5b505afa158015620004f1573d6000803e3d6000fd5b505050506040513d601f19601f8201168201806040525062000517919081019062000730565b905090565b6200053b826001600160a01b03166200062460201b62003e241760201c565b6200055a5760405162461bcd60e51b81526004016200042a90620009d1565b60006060836001600160a01b03168360405162000578919062000948565b6000604051808303816000865af19150503d8060008114620005b7576040519150601f19603f3d011682016040523d82523d6000602084013e620005bc565b606091505b509150915081620005e15760405162461bcd60e51b81526004016200042a906200099b565b8051156200061e5780806020019051620005ff919081019062000790565b6200061e5760405162461bcd60e51b81526004016200042a90620009ad565b50505050565b6000813f7fc5d2460186f7233c927e7db2dcc703c0e500b653ca82273b7bfad8045d85a4708115801590620006595750808214155b949350505050565b828054600181600116156101000203166002900490600052602060002090601f016020900481019282601f10620006a457805160ff1916838001178555620006d4565b82800160010185558215620006d4579182015b82811115620006d4578251825591602001919060010190620006b7565b50620006e2929150620006e6565b5090565b620002b791905b80821115620006e25760008155600101620006ed565b8051620007108162000a42565b92915050565b8051620007108162000a5c565b8051620007108162000a67565b6000602082840312156200074357600080fd5b600062000659848462000703565b600080604083850312156200076557600080fd5b600062000773858562000703565b9250506020620007868582860162000703565b9150509250929050565b600060208284031215620007a357600080fd5b600062000659848462000716565b600060208284031215620007c457600080fd5b600062000659848462000723565b620007dd81620009f5565b82525050565b6000620007f082620009e3565b620007fc8185620009e7565b93506200080e81856020860162000a13565b9290920192915050565b600062000827602083620009ec565b7f5361666545524332303a206c6f772d6c6576656c2063616c6c206661696c6564815260200192915050565b600062000862602a83620009ec565b7f5361666545524332303a204552433230206f7065726174696f6e20646964206e8152691bdd081cdd58d8d9595960b21b602082015260400192915050565b6000620008b0603683620009ec565b7f5361666545524332303a20617070726f76652066726f6d206e6f6e2d7a65726f81527f20746f206e6f6e2d7a65726f20616c6c6f77616e636500000000000000000000602082015260400192915050565b600062000911601f83620009ec565b7f5361666545524332303a2063616c6c20746f206e6f6e2d636f6e747261637400815260200192915050565b620007dd81620002b7565b6000620009568284620007e3565b9392505050565b604081016200096d8285620007d2565b620009566020830184620007d2565b604081016200098c8285620007d2565b6200095660208301846200093d565b60208082528101620007108162000818565b60208082528101620007108162000853565b602080825281016200071081620008a1565b60208082528101620007108162000902565b5190565b919050565b90815260200190565b6000620007108262000a07565b151590565b6001600160a01b031690565b60005b8381101562000a3057818101518382015260200162000a16565b838111156200061e5750506000910152565b62000a4d81620009f5565b811462000a5957600080fd5b50565b62000a4d8162000a02565b62000a4d81620002b7565b6151e48062000a826000396000f3fe6080604052600436106103f95760003560e01c80637f50d4d81161020d578063bbf3164411610128578063f2978d98116100bb578063f5ff19161161008a578063f7c1ec771161006f578063f7c1ec7714610a92578063f82ce27d14610aa7578063fc0c546a14610abc576103f9565b8063f5ff191614610a5d578063f69e204614610a7d576103f9565b8063f2978d98146109fe578063f29e15a214610a13578063f2fde38b14610a28578063f5a41dea14610a48576103f9565b8063dd62ed3e116100f7578063dd62ed3e14610989578063e849d659146109a9578063ebc51160146109c9578063f02fbd4a146109de576103f9565b8063bbf316441461091f578063bea9849e1461093f578063cf8ca4261461095f578063d9d7858a14610974576103f9565b80639ff011b9116101a0578063a9059cbb1161016f578063a9059cbb146108aa578063a9a1015a146108ca578063b69ef8a8146108ea578063b6b55f25146108ff576103f9565b80639ff011b914610840578063a160176d14610860578063a457c2d714610875578063a728797114610895576103f9565b80638e4ec6ef116101dc5780638e4ec6ef146107ec5780638f32d59b1461080157806395d89b411461081657806399b71d5c1461082b576103f9565b80637f50d4d8146107805780638124955c146107a2578063819faf7b146107c25780638da5cb5b146107d7576103f9565b80633fc8cef31161031857806365aab749116102ab578063715018a61161027a57806377c7b8fc1161025f57806377c7b8fc146107365780637b82784c1461074b5780637d7c2a1c1461076b576103f9565b8063715018a61461070c578063735de9f714610721576103f9565b806365aab749146106a25780636ff2bf08146106c257806370a08231146106d75780637137ef99146106f7576103f9565b80634fe41129116102e75780634fe411291461064e57806357ded9c91461066357806358782c211461067857806361c1ec551461068d576103f9565b80633fc8cef3146105e4578063413e920d146105f9578063463574731461060e5780634fd96cb61461062e576103f9565b806323b872dd116103905780632f48ab7d1161035f5780632f48ab7d14610578578063313ce5671461058d57806339509351146105af57806339c0a7e1146105cf576103f9565b806323b872dd146105035780632622678c146105235780632e1a7d4d146105385780632eb4520a14610558576103f9565b8063095ea7b3116103cc578063095ea7b3146104975780630eb2a267146104c457806316f0115b146104d957806318160ddd146104ee576103f9565b806306636c1c146103fb57806306a3fe591461043157806306fdde0314610453578063085d488314610475575b005b34801561040757600080fd5b5061041b61041636600461423b565b610ad1565b6040516104289190614eb8565b60405180910390f35b34801561043d57600080fd5b50610446610c88565b6040516104289190614c1d565b34801561045f57600080fd5b50610468610ca4565b6040516104289190614d1c565b34801561048157600080fd5b5061048a610d59565b6040516104289190614d0e565b3480156104a357600080fd5b506104b76104b236600461410e565b610d62565b6040516104289190614cf2565b3480156104d057600080fd5b5061041b610d80565b3480156104e557600080fd5b5061041b610e2c565b3480156104fa57600080fd5b5061041b610e32565b34801561050f57600080fd5b506104b761051e3660046140c1565b610e38565b34801561052f57600080fd5b50610446610ee0565b34801561054457600080fd5b506103f961055336600461423b565b610efc565b34801561056457600080fd5b506103f961057336600461404b565b611494565b34801561058457600080fd5b50610446611519565b34801561059957600080fd5b506105a2611535565b6040516104289190614f55565b3480156105bb57600080fd5b506104b76105ca36600461410e565b61153e565b3480156105db57600080fd5b5061041b61159f565b3480156105f057600080fd5b5061044661166c565b34801561060557600080fd5b5061041b611688565b34801561061a57600080fd5b506103f961062936600461404b565b61168f565b34801561063a57600080fd5b506103f961064936600461404b565b611714565b34801561065a57600080fd5b506103f9611799565b34801561066f57600080fd5b50610446611827565b34801561068457600080fd5b50610446611843565b34801561069957600080fd5b5061041b61185f565b3480156106ae57600080fd5b506103f96106bd36600461423b565b6118b6565b3480156106ce57600080fd5b5061041b61194f565b3480156106e357600080fd5b5061041b6106f236600461404b565b611a1f565b34801561070357600080fd5b5061041b611a4b565b34801561071857600080fd5b506103f9611a8d565b34801561072d57600080fd5b50610446611b3a565b34801561074257600080fd5b5061041b611b56565b34801561075757600080fd5b5061041b61076636600461404b565b611b89565b34801561077757600080fd5b506103f9611b9b565b34801561078c57600080fd5b50610795611ca8565b6040516104289190614d00565b3480156107ae57600080fd5b506103f96107bd36600461423b565b611cc4565b3480156107ce57600080fd5b50610446611da6565b3480156107e357600080fd5b50610446611dc2565b3480156107f857600080fd5b50610446611dde565b34801561080d57600080fd5b506104b7611dfa565b34801561082257600080fd5b50610468611e3a565b34801561083757600080fd5b506103f9611eb9565b34801561084c57600080fd5b506103f961085b36600461423b565b611ffc565b34801561086c57600080fd5b5061048a61203f565b34801561088157600080fd5b506104b761089036600461410e565b612195565b3480156108a157600080fd5b5061041b612210565b3480156108b657600080fd5b506104b76108c536600461410e565b6122df565b3480156108d657600080fd5b506103f96108e536600461410e565b6122f3565b3480156108f657600080fd5b5061041b6123dc565b34801561090b57600080fd5b506103f961091a36600461423b565b612433565b34801561092b57600080fd5b506103f961093a36600461404b565b61258a565b34801561094b57600080fd5b506103f961095a36600461404b565b61260f565b34801561096b57600080fd5b5061041b612694565b34801561098057600080fd5b5061041b6126eb565b34801561099557600080fd5b5061041b6109a4366004614087565b6126f1565b3480156109b557600080fd5b506103f96109c436600461423b565b612729565b3480156109d557600080fd5b5061041b612808565b3480156109ea57600080fd5b506103f96109f936600461423b565b61280e565b348015610a0a57600080fd5b5061041b612851565b348015610a1f57600080fd5b5061041b612857565b348015610a3457600080fd5b506103f9610a4336600461404b565b61285d565b348015610a5457600080fd5b5061041b6128a4565b348015610a6957600080fd5b506103f9610a7836600461404b565b61295d565b348015610a8957600080fd5b506104466129e2565b348015610a9e57600080fd5b506104466129fe565b348015610ab357600080fd5b50610446612aa1565b348015610ac857600080fd5b50610446612b0c565b60408051600180825281830190925260009160609190816020015b610af4613e60565b815260200190600190039081610aec57905050905060405180604001604052803073ffffffffffffffffffffffffffffffffffffffff168152602001600081525081600081518110610b4257fe5b6020026020010181905250610b55613e77565b6040805160808101909152600181526020810160008152602001600081526020018590529050610b83613ea0565b60008181905250600060208201526040808201839052600f546060808401919091523060a0840152815160018082528184019093529091816020015b610bc7613ea0565b815260200190600190039081610bbf5790505090508181600081518110610bea57fe5b6020908102919091010152600e546040517fa67a6a4500000000000000000000000000000000000000000000000000000000815273ffffffffffffffffffffffffffffffffffffffff9091169063a67a6a4590610c4d9087908590600401614ccd565b600060405180830381600087803b158015610c6757600080fd5b505af1158015610c7b573d6000803e3d6000fd5b5050505050505050919050565b600d5473ffffffffffffffffffffffffffffffffffffffff1681565b60038054604080516020601f60027fffffffffffffffffffffffffffffffffffffffffffffffffffffffffffffffff610100600188161502019095169490940493840181900481028201810190925282815260609390929091830182828015610d4e5780601f10610d2357610100808354040283529160200191610d4e565b820191906000526020600020905b815481529060010190602001808311610d3157829003601f168201915b505050505090505b90565b60195460ff1681565b6000610d76610d6f612b28565b8484612b2c565b5060015b92915050565b600b546040517f70a0823100000000000000000000000000000000000000000000000000000000815260009173ffffffffffffffffffffffffffffffffffffffff16906370a0823190610dd7903090600401614c2b565b60206040518083038186803b158015610def57600080fd5b505afa158015610e03573d6000803e3d6000fd5b505050506040513d601f19601f82011682018060405250610e279190810190614259565b905090565b60085481565b60025490565b6000610e45848484612c3b565b610ed584610e51612b28565b610ed0856040518060600160405280602881526020016151556028913973ffffffffffffffffffffffffffffffffffffffff8a16600090815260016020526040812090610e9c612b28565b73ffffffffffffffffffffffffffffffffffffffff168152602081019190915260400160002054919063ffffffff612dc616565b612b2c565b5060015b9392505050565b60155473ffffffffffffffffffffffffffffffffffffffff1681565b6006805460010190819055610f1033612e0c565b15610f50576040517f08c379a0000000000000000000000000000000000000000000000000000000008152600401610f4790614dcd565b60405180910390fd5b60008211610f8a576040517f08c379a0000000000000000000000000000000000000000000000000000000008152600401610f4790614ded565b6000610f9533611a1f565b905080831115610fd1576040517f08c379a0000000000000000000000000000000000000000000000000000000008152600401610f4790614ddd565b610fd9611a4b565b6008556000610fe661194f565b9050600061101160025461100587600854612e1290919063ffffffff16565b9063ffffffff612e6616565b604080518082018252601d81527f72656465656d20616d6f756e7420657863656564732062616c616e636500000060208083019190915233600090815290819052919091205491925061106c9190879063ffffffff612dc616565b3360009081526020819052604090205560025461108f908663ffffffff612ea816565b60025560405160009033907fddf252ad1be2c89b69c2b068fc378daa952ba7f163c4a11628f55a4df523b3ef906110c7908990614eb8565b60405180910390a36009546040517f70a0823100000000000000000000000000000000000000000000000000000000815260009173ffffffffffffffffffffffffffffffffffffffff16906370a0823190611126903090600401614c2b565b60206040518083038186803b15801561113e57600080fd5b505afa158015611152573d6000803e3d6000fd5b505050506040513d601f19601f820116820180604052506111769190810190614259565b90508181101561119857611198611193838363ffffffff612ea816565b612eea565b60006111ab83606463ffffffff612e6616565b336000818152601160205260409081902043905560165490517fa9059cbb00000000000000000000000000000000000000000000000000000000815292935073ffffffffffffffffffffffffffffffffffffffff169163a9059cbb91611215918890600401614c39565b602060405180830381600087803b15801561122f57600080fd5b505af1158015611243573d6000803e3d6000fd5b505050506040513d601f19601f820116820180604052506112679190810190614173565b50600061127382612ff4565b6016546040517f70a0823100000000000000000000000000000000000000000000000000000000815291925060009173ffffffffffffffffffffffffffffffffffffffff909116906370a08231906112cf908490600401614c2b565b60206040518083038186803b1580156112e757600080fd5b505afa1580156112fb573d6000803e3d6000fd5b505050506040513d601f19601f8201168201806040525061131f9190810190614259565b90506017548110156113b7576000611343606461100585606263ffffffff612e1216565b905061134e816131d0565b506000611367606461100586600263ffffffff612e1216565b60155460405191925073ffffffffffffffffffffffffffffffffffffffff169082156108fc029083906000818181858888f193505050501580156113af573d6000803e3d6000fd5b505050611401565b601554604051839173ffffffffffffffffffffffffffffffffffffffff169082156108fc029083906000818181858888f193505050501580156113fe573d6000803e3d6000fd5b50505b61143b33611415878663ffffffff612ea816565b60095473ffffffffffffffffffffffffffffffffffffffff16919063ffffffff61332e16565b611443611a4b565b60085561144e611b9b565b505050505050506006548114611490576040517f08c379a0000000000000000000000000000000000000000000000000000000008152600401610f4790614e5d565b5050565b61149c611dfa565b6114d2576040517f08c379a0000000000000000000000000000000000000000000000000000000008152600401610f4790614dbd565b601580547fffffffffffffffffffffffff00000000000000000000000000000000000000001673ffffffffffffffffffffffffffffffffffffffff92909216919091179055565b60135473ffffffffffffffffffffffffffffffffffffffff1681565b60055460ff1690565b6000610d7661154b612b28565b84610ed0856001600061155c612b28565b73ffffffffffffffffffffffffffffffffffffffff908116825260208083019390935260409182016000908120918c16815292529020549063ffffffff6133eb16565b60006115a9613e60565b600e5460408051808201825230815260006020820152600f5491517fc190c2ec00000000000000000000000000000000000000000000000000000000815273ffffffffffffffffffffffffffffffffffffffff9093169263c190c2ec926116139291600401614e9d565b604080518083038186803b15801561162a57600080fd5b505afa15801561163e573d6000803e3d6000fd5b505050506040513d601f19601f82011682018060405250611662919081019061421d565b6020015191505090565b60145473ffffffffffffffffffffffffffffffffffffffff1681565b620f424081565b611697611dfa565b6116cd576040517f08c379a0000000000000000000000000000000000000000000000000000000008152600401610f4790614dbd565b601080547fffffffffffffffffffffffff00000000000000000000000000000000000000001673ffffffffffffffffffffffffffffffffffffffff92909216919091179055565b61171c611dfa565b611752576040517f08c379a0000000000000000000000000000000000000000000000000000000008152600401610f4790614dbd565b601680547fffffffffffffffffffffffff00000000000000000000000000000000000000001673ffffffffffffffffffffffffffffffffffffffff92909216919091179055565b6117a1611dfa565b6117d7576040517f08c379a0000000000000000000000000000000000000000000000000000000008152600401610f4790614dbd565b6117df611dc2565b73ffffffffffffffffffffffffffffffffffffffff166108fc479081150290604051600060405180830381858888f19350505050158015611824573d6000803e3d6000fd5b50565b60105473ffffffffffffffffffffffffffffffffffffffff1681565b600b5473ffffffffffffffffffffffffffffffffffffffff1681565b600a546040517f70a0823100000000000000000000000000000000000000000000000000000000815260009173ffffffffffffffffffffffffffffffffffffffff16906370a0823190610dd7903090600401614c2b565b6118be6129fe565b6009546040517fd2d0e06600000000000000000000000000000000000000000000000000000000815273ffffffffffffffffffffffffffffffffffffffff9283169263d2d0e0669261191a929116908590600090600401614ca5565b600060405180830381600087803b15801561193457600080fd5b505af1158015611948573d6000803e3d6000fd5b5050505050565b3360009081526011602052604081205481901561198e573360009081526011602052604090205461198790439063ffffffff612ea816565b9050611998565b6000915050610d56565b60006119a333611a1f565b9050600080600254116119b8575060006119d9565b6119d6600254611005846119ca611a4b565b9063ffffffff612e1216565b90505b6000611a16611964611005866119ca670de0b6b3a76400006110056018546119ca620f424061100564e8d4a510008d612e1290919063ffffffff16565b94505050505090565b73ffffffffffffffffffffffffffffffffffffffff81166000908152602081905260409020545b919050565b6000610e27611a586123dc565b611a81611a63612694565b611a81611a6e61159f565b611a81611a796128a4565b611a81612210565b9063ffffffff6133eb16565b611a95611dfa565b611acb576040517f08c379a0000000000000000000000000000000000000000000000000000000008152600401610f4790614dbd565b60075460405160009173ffffffffffffffffffffffffffffffffffffffff16907f8be0079c531659141344cd1fd0a4f28419497f9722a3daafe3b4186f6b6457e0908390a3600780547fffffffffffffffffffffffff0000000000000000000000000000000000000000169055565b60125473ffffffffffffffffffffffffffffffffffffffff1681565b600080611b61611a4b565b600254909150611b839061100583670de0b6b3a764000063ffffffff612e1216565b91505090565b60116020526000908152604090205481565b6000611ba561203f565b60195490915060ff166004811115611bb957fe5b816004811115611bc557fe5b14611bd257611bd261342a565b6000611bdc6123dc565b1115611c69576001816004811115611bf057fe5b1415611c0757611c016104166123dc565b50611c69565b6004816004811115611c1557fe5b1415611c2b57611c266107bd6123dc565b611c69565b6002816004811115611c3957fe5b1415611c4a57611c266109c46123dc565b6003816004811115611c5857fe5b1415611c6957611c696106bd6123dc565b601980548291907fffffffffffffffffffffffffffffffffffffffffffffffffffffffffffffff00166001836004811115611ca057fe5b021790555050565b60165473ffffffffffffffffffffffffffffffffffffffff1681565b600b546040517f40c10f1900000000000000000000000000000000000000000000000000000000815260009173ffffffffffffffffffffffffffffffffffffffff16906340c10f1990611d1d9030908690600401614c39565b602060405180830381600087803b158015611d3757600080fd5b505af1158015611d4b573d6000803e3d6000fd5b505050506040513d601f19601f82011682018060405250611d6f9190810190614259565b11611824576040517f08c379a0000000000000000000000000000000000000000000000000000000008152600401610f4790614e3d565b600c5473ffffffffffffffffffffffffffffffffffffffff1681565b60075473ffffffffffffffffffffffffffffffffffffffff1690565b600e5473ffffffffffffffffffffffffffffffffffffffff1681565b60075460009073ffffffffffffffffffffffffffffffffffffffff16611e1e612b28565b73ffffffffffffffffffffffffffffffffffffffff1614905090565b60048054604080516020601f60027fffffffffffffffffffffffffffffffffffffffffffffffffffffffffffffffff610100600188161502019095169490940493840181900481028201810190925282815260609390929091830182828015610d4e5780601f10610d2357610100808354040283529160200191610d4e565b600a54600954611f099173ffffffffffffffffffffffffffffffffffffffff91821691167fffffffffffffffffffffffffffffffffffffffffffffffffffffffffffffffff63ffffffff61349016565b600e54600954611f599173ffffffffffffffffffffffffffffffffffffffff91821691167fffffffffffffffffffffffffffffffffffffffffffffffffffffffffffffffff63ffffffff61349016565b611faa611f64612aa1565b60095473ffffffffffffffffffffffffffffffffffffffff16907fffffffffffffffffffffffffffffffffffffffffffffffffffffffffffffffff63ffffffff61349016565b600b54600954611ffa9173ffffffffffffffffffffffffffffffffffffffff91821691167fffffffffffffffffffffffffffffffffffffffffffffffffffffffffffffffff63ffffffff61349016565b565b612004611dfa565b61203a576040517f08c379a0000000000000000000000000000000000000000000000000000000008152600401610f4790614dbd565b600f55565b6010546009546040517fd88be3c0000000000000000000000000000000000000000000000000000000008152600092839283928392839273ffffffffffffffffffffffffffffffffffffffff9182169263d88be3c0926120a3921690600401614c1d565b60006040518083038186803b1580156120bb57600080fd5b505afa1580156120cf573d6000803e3d6000fd5b505050506040513d6000823e601f3d9081017fffffffffffffffffffffffffffffffffffffffffffffffffffffffffffffffe01682016040526121159190810190614191565b9297509095509350915060009050841561212c5750835b808411156121375750825b808311156121425750815b8082111561214d5750805b60008186141561215f5750600261218b565b8482141561216f5750600461218b565b8382141561217f5750600361218b565b8282141561218b575060015b9550505050505090565b6000610d766121a2612b28565b84610ed08560405180606001604052806025815260200161517d60259139600160006121cc612b28565b73ffffffffffffffffffffffffffffffffffffffff908116825260208083019390935260409182016000908120918d1681529252902054919063ffffffff612dc616565b60008061221b61185f565b90508015610e2757610d7a670de0b6b3a7640000611005600a60009054906101000a900473ffffffffffffffffffffffffffffffffffffffff1673ffffffffffffffffffffffffffffffffffffffff1663182df0f56040518163ffffffff1660e01b815260040160206040518083038186803b15801561229a57600080fd5b505afa1580156122ae573d6000803e3d6000fd5b505050506040513d601f19601f820116820180604052506122d29190810190614259565b849063ffffffff612e1216565b6000610d766122ec612b28565b8484612c3b565b6122fb611dfa565b612331576040517f08c379a0000000000000000000000000000000000000000000000000000000008152600401610f4790614dbd565b6040517fa9059cbb00000000000000000000000000000000000000000000000000000000815273ffffffffffffffffffffffffffffffffffffffff83169063a9059cbb906123859033908590600401614c39565b602060405180830381600087803b15801561239f57600080fd5b505af11580156123b3573d6000803e3d6000fd5b505050506040513d601f19601f820116820180604052506123d79190810190614173565b505050565b6009546040517f70a0823100000000000000000000000000000000000000000000000000000000815260009173ffffffffffffffffffffffffffffffffffffffff16906370a0823190610dd7903090600401614c2b565b600680546001019081905561244733612e0c565b1561247e576040517f08c379a0000000000000000000000000000000000000000000000000000000008152600401610f4790614dcd565b600082116124b8576040517f08c379a0000000000000000000000000000000000000000000000000000000008152600401610f4790614e2d565b6124c0611a4b565b6008556009546124ee9073ffffffffffffffffffffffffffffffffffffffff1633308563ffffffff6135af16565b3360009081526011602052604081204390556008546125135750600882905581612531565b61252e60085461100560025486612e1290919063ffffffff16565b90505b612539611a4b565b60085561254633826135f2565b61254e611b9b565b506006548114611490576040517f08c379a0000000000000000000000000000000000000000000000000000000008152600401610f4790614e5d565b612592611dfa565b6125c8576040517f08c379a0000000000000000000000000000000000000000000000000000000008152600401610f4790614dbd565b600b80547fffffffffffffffffffffffff00000000000000000000000000000000000000001673ffffffffffffffffffffffffffffffffffffffff92909216919091179055565b612617611dfa565b61264d576040517f08c379a0000000000000000000000000000000000000000000000000000000008152600401610f4790614dbd565b601280547fffffffffffffffffffffffff00000000000000000000000000000000000000001673ffffffffffffffffffffffffffffffffffffffff92909216919091179055565b600d546040517f70a0823100000000000000000000000000000000000000000000000000000000815260009173ffffffffffffffffffffffffffffffffffffffff16906370a0823190610dd7903090600401614c2b565b600f5481565b73ffffffffffffffffffffffffffffffffffffffff918216600090815260016020908152604080832093909416825291909152205490565b600a546040517fa0712d6800000000000000000000000000000000000000000000000000000000815273ffffffffffffffffffffffffffffffffffffffff9091169063a0712d689061277f908490600401614eb8565b602060405180830381600087803b15801561279957600080fd5b505af11580156127ad573d6000803e3d6000fd5b505050506040513d601f19601f820116820180604052506127d19190810190614259565b15611824576040517f08c379a0000000000000000000000000000000000000000000000000000000008152600401610f4790614d6d565b60185481565b612816611dfa565b61284c576040517f08c379a0000000000000000000000000000000000000000000000000000000008152600401610f4790614dbd565b601855565b61196481565b60175481565b612865611dfa565b61289b576040517f08c379a0000000000000000000000000000000000000000000000000000000008152600401610f4790614dbd565b611824816136f3565b6000806128af610d80565b90508015610e2757600b546040517f06b3efd600000000000000000000000000000000000000000000000000000000815273ffffffffffffffffffffffffffffffffffffffff909116906306b3efd69061290d903090600401614c2b565b60206040518083038186803b15801561292557600080fd5b505afa158015612939573d6000803e3d6000fd5b505050506040513d601f19601f82011682018060405250610d7a9190810190614259565b612965611dfa565b61299b576040517f08c379a0000000000000000000000000000000000000000000000000000000008152600401610f4790614dbd565b600a80547fffffffffffffffffffffffff00000000000000000000000000000000000000001673ffffffffffffffffffffffffffffffffffffffff92909216919091179055565b600a5473ffffffffffffffffffffffffffffffffffffffff1681565b600c54604080517f0261bf8b000000000000000000000000000000000000000000000000000000008152905160009273ffffffffffffffffffffffffffffffffffffffff1691630261bf8b916004808301926020929190829003018186803b158015612a6957600080fd5b505afa158015612a7d573d6000803e3d6000fd5b505050506040513d601f19601f82011682018060405250610e279190810190614069565b600c54604080517fed6ff760000000000000000000000000000000000000000000000000000000008152905160009273ffffffffffffffffffffffffffffffffffffffff169163ed6ff760916004808301926020929190829003018186803b158015612a6957600080fd5b60095473ffffffffffffffffffffffffffffffffffffffff1681565b3390565b73ffffffffffffffffffffffffffffffffffffffff8316612b79576040517f08c379a0000000000000000000000000000000000000000000000000000000008152600401610f4790614e1d565b73ffffffffffffffffffffffffffffffffffffffff8216612bc6576040517f08c379a0000000000000000000000000000000000000000000000000000000008152600401610f4790614d5d565b73ffffffffffffffffffffffffffffffffffffffff80841660008181526001602090815260408083209487168084529490915290819020849055517f8c5be1e5ebec7d5bd14f71427d1e84f3dd0314c0f7b2291e5b200ac8c7c3b92590612c2e908590614eb8565b60405180910390a3505050565b73ffffffffffffffffffffffffffffffffffffffff8316612c88576040517f08c379a0000000000000000000000000000000000000000000000000000000008152600401610f4790614dfd565b73ffffffffffffffffffffffffffffffffffffffff8216612cd5576040517f08c379a0000000000000000000000000000000000000000000000000000000008152600401610f4790614d2d565b612d258160405180606001604052806026815260200161512f6026913973ffffffffffffffffffffffffffffffffffffffff8616600090815260208190526040902054919063ffffffff612dc616565b73ffffffffffffffffffffffffffffffffffffffff8085166000908152602081905260408082209390935590841681522054612d67908263ffffffff6133eb16565b73ffffffffffffffffffffffffffffffffffffffff80841660008181526020819052604090819020939093559151908516907fddf252ad1be2c89b69c2b068fc378daa952ba7f163c4a11628f55a4df523b3ef90612c2e908590614eb8565b60008184841115612e04576040517f08c379a0000000000000000000000000000000000000000000000000000000008152600401610f479190614d1c565b505050900390565b3b151590565b600082612e2157506000610d7a565b82820282848281612e2e57fe5b0414610ed9576040517f08c379a0000000000000000000000000000000000000000000000000000000008152600401610f4790614d9d565b6000610ed983836040518060400160405280601a81526020017f536166654d6174683a206469766973696f6e206279207a65726f0000000000008152506137ce565b6000610ed983836040518060400160405280601e81526020017f536166654d6174683a207375627472616374696f6e206f766572666c6f770000815250612dc6565b600260195460ff166004811115612efd57fe5b1415612f0c57612f0c8161381f565b600360195460ff166004811115612f1f57fe5b1415612f6f5780612f2e612694565b1015612f66576040517f08c379a0000000000000000000000000000000000000000000000000000000008152600401610f4790614e0d565b612f6f81613897565b600160195460ff166004811115612f8257fe5b1415612fd25780612f9161159f565b1015612fc9576040517f08c379a0000000000000000000000000000000000000000000000000000000008152600401610f4790614e0d565b612fd2816138ed565b600460195460ff166004811115612fe557fe5b14156118245761182481613a9e565b6012546013546000916130279173ffffffffffffffffffffffffffffffffffffffff90811691168363ffffffff61349016565b6012546013546130579173ffffffffffffffffffffffffffffffffffffffff91821691168463ffffffff61349016565b60408051600280825260608083018452926020830190803883395050601354825192935073ffffffffffffffffffffffffffffffffffffffff169183915060009061309e57fe5b73ffffffffffffffffffffffffffffffffffffffff92831660209182029290920101526014548251911690829060019081106130d657fe5b73ffffffffffffffffffffffffffffffffffffffff9283166020918202929092010152601254606091166318cbafe5856000853061311c4261070863ffffffff6133eb16565b6040518663ffffffff1660e01b815260040161313c959493929190614f02565b600060405180830381600087803b15801561315657600080fd5b505af115801561316a573d6000803e3d6000fd5b505050506040513d6000823e601f3d9081017fffffffffffffffffffffffffffffffffffffffffffffffffffffffffffffffe01682016040526131b0919081019061413e565b9050806001815181106131bf57fe5b602002602001015192505050919050565b60408051600280825260608083018452600093909291906020830190803883395050601454825192935073ffffffffffffffffffffffffffffffffffffffff169183915060009061321d57fe5b73ffffffffffffffffffffffffffffffffffffffff928316602091820292909201015260165482519116908290600190811061325557fe5b73ffffffffffffffffffffffffffffffffffffffff928316602091820292909201015260125460609116637ff36ab5856000858161329b4261070863ffffffff6133eb16565b6040518663ffffffff1660e01b81526004016132ba9493929190614ec6565b6000604051808303818588803b1580156132d357600080fd5b505af11580156132e7573d6000803e3d6000fd5b50505050506040513d6000823e601f3d9081017fffffffffffffffffffffffffffffffffffffffffffffffffffffffffffffffe01682016040526131b0919081019061413e565b6040516123d79084907fa9059cbb00000000000000000000000000000000000000000000000000000000906133699086908690602401614c97565b604080517fffffffffffffffffffffffffffffffffffffffffffffffffffffffffffffffe08184030181529190526020810180517bffffffffffffffffffffffffffffffffffffffffffffffffffffffff167fffffffff0000000000000000000000000000000000000000000000000000000090931692909217909152613b16565b600082820183811015610ed9576040517f08c379a0000000000000000000000000000000000000000000000000000000008152600401610f4790614d7d565b600061343461185f565b905080156134455761344581613c63565b61344d61159f565b9050801561345e5761345e816138ed565b613466610d80565b905080156134775761347781613d42565b61347f612694565b905080156118245761182481613897565b80158061353e57506040517fdd62ed3e00000000000000000000000000000000000000000000000000000000815273ffffffffffffffffffffffffffffffffffffffff84169063dd62ed3e906134ec9030908690600401614c54565b60206040518083038186803b15801561350457600080fd5b505afa158015613518573d6000803e3d6000fd5b505050506040513d601f19601f8201168201806040525061353c9190810190614259565b155b613574576040517f08c379a0000000000000000000000000000000000000000000000000000000008152600401610f4790614e6d565b6040516123d79084907f095ea7b300000000000000000000000000000000000000000000000000000000906133699086908690602401614c97565b6040516135ec9085907f23b872dd000000000000000000000000000000000000000000000000000000009061336990879087908790602401614c6f565b50505050565b73ffffffffffffffffffffffffffffffffffffffff821661363f576040517f08c379a0000000000000000000000000000000000000000000000000000000008152600401610f4790614e8d565b600254613652908263ffffffff6133eb16565b60025573ffffffffffffffffffffffffffffffffffffffff821660009081526020819052604090205461368b908263ffffffff6133eb16565b73ffffffffffffffffffffffffffffffffffffffff83166000818152602081905260408082209390935591519091907fddf252ad1be2c89b69c2b068fc378daa952ba7f163c4a11628f55a4df523b3ef906136e7908590614eb8565b60405180910390a35050565b73ffffffffffffffffffffffffffffffffffffffff8116613740576040517f08c379a0000000000000000000000000000000000000000000000000000000008152600401610f4790614d4d565b60075460405173ffffffffffffffffffffffffffffffffffffffff8084169216907f8be0079c531659141344cd1fd0a4f28419497f9722a3daafe3b4186f6b6457e090600090a3600780547fffffffffffffffffffffffff00000000000000000000000000000000000000001673ffffffffffffffffffffffffffffffffffffffff92909216919091179055565b60008183613809576040517f08c379a0000000000000000000000000000000000000000000000000000000008152600401610f479190614d1c565b50600083858161381557fe5b0495945050505050565b600061382961185f565b90506000613835612210565b905082811015613871576040517f08c379a0000000000000000000000000000000000000000000000000000000008152600401610f4790614e0d565b600061388c6001611a8184611005878963ffffffff612e1216565b90506135ec81613c63565b600d546040517fdb006a7500000000000000000000000000000000000000000000000000000000815273ffffffffffffffffffffffffffffffffffffffff9091169063db006a759061191a908490600401614eb8565b604080516001808252818301909252606091816020015b61390c613e60565b81526020019060019003908161390457905050905060405180604001604052803073ffffffffffffffffffffffffffffffffffffffff16815260200160008152508160008151811061395a57fe5b602002602001018190525061396d613e77565b604080516080810190915260008082526020820190815260200160008152602001849052905061399b613ea0565b60018181905250600060208201526040808201839052600f546060808401919091523060a0840152815160018082528184019093529091816020015b6139df613ea0565b8152602001906001900390816139d75790505090508181600081518110613a0257fe5b6020908102919091010152600e546040517fa67a6a4500000000000000000000000000000000000000000000000000000000815273ffffffffffffffffffffffffffffffffffffffff9091169063a67a6a4590613a659087908590600401614ccd565b600060405180830381600087803b158015613a7f57600080fd5b505af1158015613a93573d6000803e3d6000fd5b505050505050505050565b6000613aa8610d80565b90506000613ab46128a4565b905082811015613af0576040517f08c379a0000000000000000000000000000000000000000000000000000000008152600401610f4790614e0d565b6000613b0b6001611a8184611005878963ffffffff612e1216565b90506135ec81613d42565b613b358273ffffffffffffffffffffffffffffffffffffffff16613e24565b613b6b576040517f08c379a0000000000000000000000000000000000000000000000000000000008152600401610f4790614e7d565b600060608373ffffffffffffffffffffffffffffffffffffffff1683604051613b949190614c11565b6000604051808303816000865af19150503d8060008114613bd1576040519150601f19603f3d011682016040523d82523d6000602084013e613bd6565b606091505b509150915081613c12576040517f08c379a0000000000000000000000000000000000000000000000000000000008152600401610f4790614d8d565b8051156135ec5780806020019051613c2d9190810190614173565b6135ec576040517f08c379a0000000000000000000000000000000000000000000000000000000008152600401610f4790614e4d565b600a546040517fdb006a7500000000000000000000000000000000000000000000000000000000815273ffffffffffffffffffffffffffffffffffffffff9091169063db006a7590613cb9908490600401614eb8565b602060405180830381600087803b158015613cd357600080fd5b505af1158015613ce7573d6000803e3d6000fd5b505050506040513d601f19601f82011682018060405250613d0b9190810190614259565b15611824576040517f08c379a0000000000000000000000000000000000000000000000000000000008152600401610f4790614d3d565b600b546040517f9dc29fac00000000000000000000000000000000000000000000000000000000815260009173ffffffffffffffffffffffffffffffffffffffff1690639dc29fac90613d9b9030908690600401614c39565b602060405180830381600087803b158015613db557600080fd5b505af1158015613dc9573d6000803e3d6000fd5b505050506040513d601f19601f82011682018060405250613ded9190810190614259565b11611824576040517f08c379a0000000000000000000000000000000000000000000000000000000008152600401610f4790614dad565b6000813f7fc5d2460186f7233c927e7db2dcc703c0e500b653ca82273b7bfad8045d85a4708115801590613e585750808214155b949350505050565b604080518082019091526000808252602082015290565b604080516080810190915260008082526020820190815260200160008152602001600081525090565b604080516101008101825260008082526020820152908101613ec0613e77565b81526020016000815260200160008152602001600073ffffffffffffffffffffffffffffffffffffffff16815260200160008152602001606081525090565b8035610d7a81615108565b8051610d7a81615108565b600082601f830112613f2657600080fd5b8151613f39613f3482614f8a565b614f63565b91508181835260208401935060208101905083856020840282011115613f5e57600080fd5b60005b83811015613f8a5781613f748882614040565b8452506020928301929190910190600101613f61565b5050505092915050565b8051610d7a8161511c565b600082601f830112613fb057600080fd5b8151613fbe613f3482614fab565b91508082526020830160208301858383011115613fda57600080fd5b613fe5838284615096565b50505092915050565b60006040828403121561400057600080fd5b61400a6040614f63565b905060006140188484613f94565b825250602061402984848301614040565b60208301525092915050565b8035610d7a81615125565b8051610d7a81615125565b60006020828403121561405d57600080fd5b6000613e588484613eff565b60006020828403121561407b57600080fd5b6000613e588484613f0a565b6000806040838503121561409a57600080fd5b60006140a68585613eff565b92505060206140b785828601613eff565b9150509250929050565b6000806000606084860312156140d657600080fd5b60006140e28686613eff565b93505060206140f386828701613eff565b925050604061410486828701614035565b9150509250925092565b6000806040838503121561412157600080fd5b600061412d8585613eff565b92505060206140b785828601614035565b60006020828403121561415057600080fd5b815167ffffffffffffffff81111561416757600080fd5b613e5884828501613f15565b60006020828403121561418557600080fd5b6000613e588484613f94565b600080600080600060a086880312156141a957600080fd5b855167ffffffffffffffff8111156141c057600080fd5b6141cc88828901613f9f565b95505060206141dd88828901614040565b94505060406141ee88828901614040565b93505060606141ff88828901614040565b925050608061421088828901614040565b9150509295509295909350565b60006040828403121561422f57600080fd5b6000613e588484613fee565b60006020828403121561424d57600080fd5b6000613e588484614035565b60006020828403121561426b57600080fd5b6000613e588484614040565b600061428383836142ba565b505060200190565b6000610ed98383614aea565b60006142a38383614bdf565b505060400190565b6142b481615058565b82525050565b6142b481615004565b60006142ce82614ff7565b6142d88185614ffb565b93506142e383614ff1565b8060005b838110156143115781516142fb8882614277565b975061430683614ff1565b9250506001016142e7565b509495945050505050565b600061432782614ff7565b6143318185614ffb565b93508360208202850161434385614ff1565b8060005b8581101561437d5784840389528151614360858261428b565b945061436b83614ff1565b60209a909a0199925050600101614347565b5091979650505050505050565b600061439582614ff7565b61439f8185614ffb565b93506143aa83614ff1565b8060005b838110156143115781516143c28882614297565b97506143cd83614ff1565b9250506001016143ae565b6142b48161500f565b60006143ec82614ff7565b6143f68185611a46565b9350614406818560208601615096565b9290920192915050565b600061441b82614ff7565b6144258185614ffb565b9350614435818560208601615096565b61443e816150c2565b9093019392505050565b6142b48161505f565b6142b48161506a565b6142b481615075565b6142b481615080565b6142b48161508b565b6000614482602383614ffb565b7f45524332303a207472616e7366657220746f20746865207a65726f206164647281527f6573730000000000000000000000000000000000000000000000000000000000602082015260400192915050565b60006144e1601983614ffb565b7f434f4d504f554e443a207769746864726177206661696c656400000000000000815260200192915050565b600061451a602683614ffb565b7f4f776e61626c653a206e6577206f776e657220697320746865207a65726f206181527f6464726573730000000000000000000000000000000000000000000000000000602082015260400192915050565b6000614579602283614ffb565b7f45524332303a20617070726f766520746f20746865207a65726f20616464726581527f7373000000000000000000000000000000000000000000000000000000000000602082015260400192915050565b60006145d8601783614ffb565b7f434f4d504f554e443a20737570706c79206661696c6564000000000000000000815260200192915050565b6000614611601b83614ffb565b7f536166654d6174683a206164646974696f6e206f766572666c6f770000000000815260200192915050565b600061464a602083614ffb565b7f5361666545524332303a206c6f772d6c6576656c2063616c6c206661696c6564815260200192915050565b6000614683602183614ffb565b7f536166654d6174683a206d756c7469706c69636174696f6e206f766572666c6f81527f7700000000000000000000000000000000000000000000000000000000000000602082015260400192915050565b60006146e2601883614ffb565b7f46554c4352554d3a207769746864726177206661696c65640000000000000000815260200192915050565b600061471b602083614ffb565b7f4f776e61626c653a2063616c6c6572206973206e6f7420746865206f776e6572815260200192915050565b6000614754603383614ffb565b7f436f6e74726163747320617265206e6f7420616c6c6f77656420746f20696e7481527f6572616374207769746820746865206661726d00000000000000000000000000602082015260400192915050565b60006147b3601483614ffb565b7f696e73756666696369656e742062616c616e6365000000000000000000000000815260200192915050565b60006147ec601f83614ffb565b7f7769746864726177206d7573742062652067726561746572207468616e203000815260200192915050565b6000614825602583614ffb565b7f45524332303a207472616e736665722066726f6d20746865207a65726f20616481527f6472657373000000000000000000000000000000000000000000000000000000602082015260400192915050565b6000614884601283614ffb565b7f696e73756666696369656e742066756e64730000000000000000000000000000815260200192915050565b60006148bd602483614ffb565b7f45524332303a20617070726f76652066726f6d20746865207a65726f2061646481527f7265737300000000000000000000000000000000000000000000000000000000602082015260400192915050565b600061491c601e83614ffb565b7f6465706f736974206d7573742062652067726561746572207468616e20300000815260200192915050565b6000614955601683614ffb565b7f46554c4352554d3a20737570706c79206661696c656400000000000000000000815260200192915050565b600061498e602a83614ffb565b7f5361666545524332303a204552433230206f7065726174696f6e20646964206e81527f6f74207375636365656400000000000000000000000000000000000000000000602082015260400192915050565b60006149ed601f83614ffb565b7f5265656e7472616e637947756172643a207265656e7472616e742063616c6c00815260200192915050565b6000614a26603683614ffb565b7f5361666545524332303a20617070726f76652066726f6d206e6f6e2d7a65726f81527f20746f206e6f6e2d7a65726f20616c6c6f77616e636500000000000000000000602082015260400192915050565b6000614a85601f83614ffb565b7f5361666545524332303a2063616c6c20746f206e6f6e2d636f6e747261637400815260200192915050565b6000614abe601f83614ffb565b7f45524332303a206d696e7420746f20746865207a65726f206164647265737300815260200192915050565b8051600090610160840190614aff8582614451565b506020830151614b126020860182614bff565b506040830151614b256040860182614b95565b506060830151614b3860c0860182614bff565b506080830151614b4b60e0860182614bff565b5060a0830151614b5f6101008601826142ba565b5060c0830151614b73610120860182614bff565b5060e0830151848203610140860152614b8c8282614410565b95945050505050565b80516080830190614ba684826143d8565b506020820151614bb9602085018261445a565b506040820151614bcc604085018261445a565b5060608201516135ec6060850182614bff565b80516040830190614bf084826142ba565b5060208201516135ec60208501825b6142b481610d56565b6142b481615052565b6000610ed982846143e1565b60208101610d7a82846142ba565b60208101610d7a82846142ab565b60408101614c4782856142ab565b610ed96020830184614bff565b60408101614c6282856142ba565b610ed960208301846142ba565b60608101614c7d82866142ba565b614c8a60208301856142ba565b613e586040830184614bff565b60408101614c4782856142ba565b60608101614cb382866142ba565b614cc06020830185614bff565b613e58604083018461446c565b60408082528101614cde818561438a565b90508181036020830152613e58818461431c565b60208101610d7a82846143d8565b60208101610d7a8284614448565b60208101610d7a8284614463565b60208082528101610ed98184614410565b60208082528101610d7a81614475565b60208082528101610d7a816144d4565b60208082528101610d7a8161450d565b60208082528101610d7a8161456c565b60208082528101610d7a816145cb565b60208082528101610d7a81614604565b60208082528101610d7a8161463d565b60208082528101610d7a81614676565b60208082528101610d7a816146d5565b60208082528101610d7a8161470e565b60208082528101610d7a81614747565b60208082528101610d7a816147a6565b60208082528101610d7a816147df565b60208082528101610d7a81614818565b60208082528101610d7a81614877565b60208082528101610d7a816148b0565b60208082528101610d7a8161490f565b60208082528101610d7a81614948565b60208082528101610d7a81614981565b60208082528101610d7a816149e0565b60208082528101610d7a81614a19565b60208082528101610d7a81614a78565b60208082528101610d7a81614ab1565b60608101614eab8285614bdf565b610ed96040830184614bff565b60208101610d7a8284614bff565b60808101614ed48287614bff565b8181036020830152614ee681866142c3565b9050614ef560408301856142ab565b614b8c6060830184614bff565b60a08101614f108288614bff565b614f1d6020830187614bff565b8181036040830152614f2f81866142c3565b9050614f3e60608301856142ab565b614f4b6080830184614bff565b9695505050505050565b60208101610d7a8284614c08565b60405181810167ffffffffffffffff81118282101715614f8257600080fd5b604052919050565b600067ffffffffffffffff821115614fa157600080fd5b5060209081020190565b600067ffffffffffffffff821115614fc257600080fd5b506020601f919091017fffffffffffffffffffffffffffffffffffffffffffffffffffffffffffffffe0160190565b60200190565b5190565b90815260200190565b6000610d7a82615039565b151590565b80611a46816150ea565b80611a46816150f4565b80611a46816150fe565b61ffff1690565b73ffffffffffffffffffffffffffffffffffffffff1690565b60ff1690565b6000610d7a825b6000610d7a82615004565b6000610d7a82615014565b6000610d7a8261501e565b6000610d7a82615028565b6000610d7a82615032565b60005b838110156150b1578181015183820152602001615099565b838111156135ec5750506000910152565b601f017fffffffffffffffffffffffffffffffffffffffffffffffffffffffffffffffe01690565b6002811061182457fe5b6001811061182457fe5b6005811061182457fe5b61511181615004565b811461182457600080fd5b6151118161500f565b61511181610d5656fe45524332303a207472616e7366657220616d6f756e7420657863656564732062616c616e636545524332303a207472616e7366657220616d6f756e74206578636565647320616c6c6f77616e636545524332303a2064656372656173656420616c6c6f77616e63652062656c6f77207a65726fa365627a7a7231582003246a1302903cceddf8d28e1c5799d5f5864871052b437c23f159ea133775756c6578706572696d656e74616cf564736f6c63430005110040",
  "source": "pragma solidity 0.5.17;\npragma experimental ABIEncoderV2;\n\nimport './ContractImports.sol';\nimport './CommonFunctionality.sol';\n\ncontract yUSDT is ERC20, ERC20Detailed, ReentrancyGuard, Ownable, Structs, CommonFunctionality {\n  using SafeERC20 for IERC20;\n  using Address for address;\n  using SafeMath for uint256;\n\n  uint256 public pool;\n  address public token;\n  address public compound;\n  address public fulcrum;\n  address public aave;\n  address public aaveToken;\n  address public dydx;\n  uint256 public dToken;\n  address public apr;\n\n  // Yeld\n  mapping(address => uint256) public depositBlockStarts;\n  address public uniswapRouter = 0x7a250d5630B4cF539739dF2C5dAcb4c659F2488D;\n  address public usdt = 0xdAC17F958D2ee523a2206206994597C13D831ec7;\n  address public weth = 0xC02aaA39b223FE8D0A0e5C4F27eAD9083C756Cc2;\n  address payable public retirementYeldTreasury;\n  IERC20 public yeldToken;\n  uint256 public maximumTokensToBurn = 50000 * 1e18;\n  uint256 public constant oneDayInBlocks = 6500;\n  uint256 public yeldToRewardPerDay = 0e18; // 100 YELD per day per 1 million stablecoins padded with 18 zeroes to have that flexibility\n  uint256 public constant oneMillion = 1e6;\n  // Yeld\n\n  enum Lender {\n      NONE,\n      DYDX,\n      COMPOUND,\n      AAVE,\n      FULCRUM\n  }\n\n  Lender public provider = Lender.NONE;\n\n  constructor (address _yeldToken, address payable _retirementYeldTreasury) public ERC20Detailed(\"yeld USDT\", \"yUSDT\", 6) {\n    token = address(0xdAC17F958D2ee523a2206206994597C13D831ec7);\n    apr = address(0xdD6d648C991f7d47454354f4Ef326b04025a48A8);\n    dydx = address(0x1E0447b19BB6EcFdAe1e4AE1694b0C3659614e4e);\n    aave = address(0x24a42fD28C976A61Df5D00D0599C34c4f90748c8);\n    fulcrum = address(0xF013406A0B1d544238083DF0B93ad0d2cBE0f65f);\n    aaveToken = address(0x71fc860F7D3A592A4a98740e39dB31d25db65ae8);\n    compound = address(0x39AA39c021dfbaE8faC545936693aC917d5E7563);\n    dToken = 0;\n    yeldToken = IERC20(_yeldToken);\n    retirementYeldTreasury = _retirementYeldTreasury;\n    approveToken();\n  }\n\n  // Yeld\n  // To receive ETH after converting it from USDT\n  function () external payable {}\n  function setRetirementYeldTreasury(address payable _treasury) public onlyOwner {\n    retirementYeldTreasury = _treasury;\n  }\n  // In case a new uniswap router version is released\n  function setUniswapRouter(address _uniswapRouter) public onlyOwner {\n    uniswapRouter = _uniswapRouter;\n  }\n  function setYeldToken(address _yeldToken) public onlyOwner {\n    yeldToken = IERC20(_yeldToken);\n  }\n  function extractTokensIfStuck(address _token, uint256 _amount) public onlyOwner {\n    IERC20(_token).transfer(msg.sender, _amount);\n  }\n  function extractETHIfStuck() public onlyOwner {\n    owner().transfer(address(this).balance);\n  }\n  function changeYeldToRewardPerDay(uint256 _amount) public onlyOwner {\n    yeldToRewardPerDay = _amount;\n  }\n  function getGeneratedYelds() public view returns(uint256) {\n    uint256 blocksPassed;\n    if (depositBlockStarts[msg.sender] > 0) {\n      blocksPassed = block.number.sub(depositBlockStarts[msg.sender]);\n    } else {\n      return 0;\n    }\n    uint256 ibalance = balanceOf(msg.sender); // Balance of yTokens\n    uint256 accomulatedStablecoins;\n    if (_totalSupply <= 0) {\n      accomulatedStablecoins = 0;\n    } else {\n      accomulatedStablecoins = (calcPoolValueInToken().mul(ibalance)).div(_totalSupply);\n    }\n    uint256 generatedYelds = accomulatedStablecoins.mul(1e12).div(oneMillion).mul(yeldToRewardPerDay).div(1e18).mul(blocksPassed).div(oneDayInBlocks);\n    return generatedYelds;\n  }\n  // Converts USDT to ETH and returns how much ETH has been received from Uniswap\n  function usdtToETH(uint256 _amount) internal returns(uint256) {\n      IERC20(usdt).safeApprove(uniswapRouter, 0);\n      IERC20(usdt).safeApprove(uniswapRouter, _amount);\n      address[] memory path = new address[](2);\n      path[0] = usdt;\n      path[1] = weth;\n      // swapExactTokensForETH(uint amountIn, uint amountOutMin, address[] calldata path, address to, uint deadline)\n      // 'amounts' is an array where [0] is input USDT amount and [1] is the resulting ETH after the conversion\n      // even tho we've specified the WETH address, we'll receive ETH since that's how it works on uniswap\n      // https://uniswap.org/docs/v2/smart-contracts/router02/#swapexacttokensforeth\n      uint[] memory amounts = IUniswap(uniswapRouter).swapExactTokensForETH(_amount, uint(0), path, address(this), now.add(1800));\n      return amounts[1];\n  }\n  function buyNBurn(uint256 _ethToSwap) internal returns(uint256) {\n    address[] memory path = new address[](2);\n    path[0] = weth;\n    path[1] = address(yeldToken);\n    // Burns the tokens by taking them out of circulation, sending them to the 0x0 address\n    uint[] memory amounts = IUniswap(uniswapRouter).swapExactETHForTokens.value(_ethToSwap)(uint(0), path, address(0), now.add(1800));\n    return amounts[1];\n  }\n  // Yeld\n\n\n  // Quick swap low gas method for pool swaps\n  function deposit(uint256 _amount)\n      external\n      nonReentrant\n      noContract\n  {\n      require(_amount > 0, \"deposit must be greater than 0\");\n      pool = _calcPoolValueInToken();\n      IERC20(token).safeTransferFrom(msg.sender, address(this), _amount);\n        \n      // Yeld\n      depositBlockStarts[msg.sender] = block.number;\n      // Yeld\n\n      // Calculate pool shares\n      uint256 shares = 0;\n      if (pool == 0) {\n        shares = _amount;\n        pool = _amount;\n      } else {\n        shares = (_amount.mul(_totalSupply)).div(pool);\n      }\n      pool = _calcPoolValueInToken();\n      _mint(msg.sender, shares);\n      rebalance();\n  }\n\n  // No rebalance implementation for lower fees and faster swaps\n  function withdraw(uint256 _shares)\n      external\n      nonReentrant\n      noContract\n  {\n      require(_shares > 0, \"withdraw must be greater than 0\");\n      uint256 ibalance = balanceOf(msg.sender);\n      require(_shares <= ibalance, \"insufficient balance\");\n      pool = _calcPoolValueInToken();\n      // Yeld\n      uint256 generatedYelds = getGeneratedYelds();\n      // Yeld\n      uint256 stablecoinsToWithdraw = (pool.mul(_shares)).div(_totalSupply);\n      _balances[msg.sender] = _balances[msg.sender].sub(_shares, \"redeem amount exceeds balance\");\n      _totalSupply = _totalSupply.sub(_shares);\n      emit Transfer(msg.sender, address(0), _shares);\n      uint256 b = IERC20(token).balanceOf(address(this));\n      if (b < stablecoinsToWithdraw) {\n        _withdrawSome(stablecoinsToWithdraw.sub(b));\n      }\n\n            // Yeld\n      // Take 1% of the amount to withdraw\n      uint256 onePercent = stablecoinsToWithdraw.div(100);\n      depositBlockStarts[msg.sender] = block.number;\n      yeldToken.transfer(msg.sender, generatedYelds);\n\n      // Take a portion of the profits for the buy and burn and retirement yeld\n      // Convert half the USDT earned into ETH for the protocol algorithms\n      uint256 stakingProfits = usdtToETH(onePercent);\n      uint256 tokensAlreadyBurned = yeldToken.balanceOf(address(0));\n      if (tokensAlreadyBurned < maximumTokensToBurn) {\n        // 98% is the 49% doubled since we already took the 50%\n        uint256 ethToSwap = stakingProfits.mul(98).div(100);\n        // Buy and burn only applies up to 50k tokens burned\n        buyNBurn(ethToSwap);\n        // 1% for the Retirement Yield\n        uint256 retirementYeld = stakingProfits.mul(2).div(100);\n        // Send to the treasury\n        retirementYeldTreasury.transfer(retirementYeld);\n      } else {\n        // If we've reached the maximum burn point, send half the profits to the treasury to reward holders\n        uint256 retirementYeld = stakingProfits;\n        // Send to the treasury\n        retirementYeldTreasury.transfer(retirementYeld);\n      }\n      IERC20(token).safeTransfer(msg.sender, stablecoinsToWithdraw.sub(onePercent));\n      // Yeld\n\n      pool = _calcPoolValueInToken();\n      rebalance();\n  }\n\n  // Ownable setters incase of support in future for these systems\n  function set_new_APR(address _new_APR) public onlyOwner {\n      apr = _new_APR;\n  }\n  function set_new_FULCRUM(address _new_FULCRUM) public onlyOwner {\n      fulcrum = _new_FULCRUM;\n  }\n  function set_new_COMPOUND(address _new_COMPOUND) public onlyOwner {\n      compound = _new_COMPOUND;\n  }\n  function set_new_DTOKEN(uint256 _new_DTOKEN) public onlyOwner {\n      dToken = _new_DTOKEN;\n  }\n\n  function recommend() public view returns (Lender) {\n    (,uint256 capr,uint256 iapr,uint256 aapr,uint256 dapr) = IIEarnManager(apr).recommend(token);\n    uint256 max = 0;\n    if (capr > max) {\n      max = capr;\n    }\n    if (iapr > max) {\n      max = iapr;\n    }\n    if (aapr > max) {\n      max = aapr;\n    }\n    if (dapr > max) {\n      max = dapr;\n    }\n\n    Lender newProvider = Lender.NONE;\n    if (max == capr) {\n      newProvider = Lender.COMPOUND;\n    } else if (max == iapr) {\n      newProvider = Lender.FULCRUM;\n    } else if (max == aapr) {\n      newProvider = Lender.AAVE;\n    } else if (max == dapr) {\n      newProvider = Lender.DYDX;\n    }\n    return newProvider;\n  }\n\n  function supplyDydx(uint256 amount) public returns(uint) {\n      Info[] memory infos = new Info[](1);\n      infos[0] = Info(address(this), 0);\n\n      AssetAmount memory amt = AssetAmount(true, AssetDenomination.Wei, AssetReference.Delta, amount);\n      ActionArgs memory act;\n      act.actionType = ActionType.Deposit;\n      act.accountId = 0;\n      act.amount = amt;\n      act.primaryMarketId = dToken;\n      act.otherAddress = address(this);\n\n      ActionArgs[] memory args = new ActionArgs[](1);\n      args[0] = act;\n\n      DyDx(dydx).operate(infos, args);\n  }\n\n  function _withdrawDydx(uint256 amount) internal {\n      Info[] memory infos = new Info[](1);\n      infos[0] = Info(address(this), 0);\n\n      AssetAmount memory amt = AssetAmount(false, AssetDenomination.Wei, AssetReference.Delta, amount);\n      ActionArgs memory act;\n      act.actionType = ActionType.Withdraw;\n      act.accountId = 0;\n      act.amount = amt;\n      act.primaryMarketId = dToken;\n      act.otherAddress = address(this);\n\n      ActionArgs[] memory args = new ActionArgs[](1);\n      args[0] = act;\n\n      DyDx(dydx).operate(infos, args);\n  }\n\n  function getAave() public view returns (address) {\n    return LendingPoolAddressesProvider(aave).getLendingPool();\n  }\n  function getAaveCore() public view returns (address) {\n    return LendingPoolAddressesProvider(aave).getLendingPoolCore();\n  }\n\n  function approveToken() public {\n      IERC20(token).safeApprove(compound, uint(-1)); //also add to constructor\n      IERC20(token).safeApprove(dydx, uint(-1));\n      IERC20(token).safeApprove(getAaveCore(), uint(-1));\n      IERC20(token).safeApprove(fulcrum, uint(-1));\n  }\n\n  function balance() public view returns (uint256) {\n    return IERC20(token).balanceOf(address(this));\n  }\n\n  function balanceDydx() public view returns (uint256) {\n      Wei memory bal = DyDx(dydx).getAccountWei(Info(address(this), 0), dToken);\n      return bal.value;\n  }\n  function balanceCompound() public view returns (uint256) {\n      return IERC20(compound).balanceOf(address(this));\n  }\n  function balanceCompoundInToken() public view returns (uint256) {\n    // Mantisa 1e18 to decimals\n    uint256 b = balanceCompound();\n    if (b > 0) {\n      b = b.mul(Compound(compound).exchangeRateStored()).div(1e18);\n    }\n    return b;\n  }\n  function balanceFulcrumInToken() public view returns (uint256) {\n    uint256 b = balanceFulcrum();\n    if (b > 0) {\n      b = Fulcrum(fulcrum).assetBalanceOf(address(this));\n    }\n    return b;\n  }\n  function balanceFulcrum() public view returns (uint256) {\n    return IERC20(fulcrum).balanceOf(address(this));\n  }\n  function balanceAave() public view returns (uint256) {\n    return IERC20(aaveToken).balanceOf(address(this));\n  }\n\n  function _balance() internal view returns (uint256) {\n    return IERC20(token).balanceOf(address(this));\n  }\n\n  function _balanceDydx() internal view returns (uint256) {\n      Wei memory bal = DyDx(dydx).getAccountWei(Info(address(this), 0), dToken);\n      return bal.value;\n  }\n  function _balanceCompound() internal view returns (uint256) {\n      return IERC20(compound).balanceOf(address(this));\n  }\n  function _balanceCompoundInToken() internal view returns (uint256) {\n    // Mantisa 1e18 to decimals\n    uint256 b = balanceCompound();\n    if (b > 0) {\n      b = b.mul(Compound(compound).exchangeRateStored()).div(1e18);\n    }\n    return b;\n  }\n  function _balanceFulcrumInToken() internal view returns (uint256) {\n    uint256 b = balanceFulcrum();\n    if (b > 0) {\n      b = Fulcrum(fulcrum).assetBalanceOf(address(this));\n    }\n    return b;\n  }\n  function _balanceFulcrum() internal view returns (uint256) {\n    return IERC20(fulcrum).balanceOf(address(this));\n  }\n  function _balanceAave() internal view returns (uint256) {\n    return IERC20(aaveToken).balanceOf(address(this));\n  }\n\n  function _withdrawAll() internal {\n    uint256 amount = _balanceCompound();\n    if (amount > 0) {\n      _withdrawCompound(amount);\n    }\n    amount = _balanceDydx();\n    if (amount > 0) {\n      _withdrawDydx(amount);\n    }\n    amount = _balanceFulcrum();\n    if (amount > 0) {\n      _withdrawFulcrum(amount);\n    }\n    amount = _balanceAave();\n    if (amount > 0) {\n      _withdrawAave(amount);\n    }\n  }\n\n  function _withdrawSomeCompound(uint256 _amount) internal {\n    uint256 b = balanceCompound();\n    uint256 bT = balanceCompoundInToken();\n    require(bT >= _amount, \"insufficient funds\");\n    // can have unintentional rounding errors\n    uint256 amount = (b.mul(_amount)).div(bT).add(1);\n    _withdrawCompound(amount);\n  }\n\n  // 1999999614570950845\n  function _withdrawSomeFulcrum(uint256 _amount) internal {\n    // Balance of fulcrum tokens, 1 iDAI = 1.00x DAI\n    uint256 b = balanceFulcrum(); // 1970469086655766652\n    // Balance of token in fulcrum\n    uint256 bT = balanceFulcrumInToken(); // 2000000803224344406\n    require(bT >= _amount, \"insufficient funds\");\n    // can have unintentional rounding errors\n    uint256 amount = (b.mul(_amount)).div(bT).add(1);\n    _withdrawFulcrum(amount);\n  }\n\n  function _withdrawSome(uint256 _amount) internal {\n    if (provider == Lender.COMPOUND) {\n      _withdrawSomeCompound(_amount);\n    }\n    if (provider == Lender.AAVE) {\n      require(balanceAave() >= _amount, \"insufficient funds\");\n      _withdrawAave(_amount);\n    }\n    if (provider == Lender.DYDX) {\n      require(balanceDydx() >= _amount, \"insufficient funds\");\n      _withdrawDydx(_amount);\n    }\n    if (provider == Lender.FULCRUM) {\n      _withdrawSomeFulcrum(_amount);\n    }\n  }\n\n  function rebalance() public {\n    Lender newProvider = recommend();\n\n    if (newProvider != provider) {\n      _withdrawAll();\n    }\n\n    if (balance() > 0) {\n      if (newProvider == Lender.DYDX) {\n        supplyDydx(balance());\n      } else if (newProvider == Lender.FULCRUM) {\n        supplyFulcrum(balance());\n      } else if (newProvider == Lender.COMPOUND) {\n        supplyCompound(balance());\n      } else if (newProvider == Lender.AAVE) {\n        supplyAave(balance());\n      }\n    }\n\n    provider = newProvider;\n  }\n\n  // Internal only rebalance for better gas in redeem\n  function _rebalance(Lender newProvider) internal {\n    if (_balance() > 0) {\n      if (newProvider == Lender.DYDX) {\n        supplyDydx(_balance());\n      } else if (newProvider == Lender.FULCRUM) {\n        supplyFulcrum(_balance());\n      } else if (newProvider == Lender.COMPOUND) {\n        supplyCompound(_balance());\n      } else if (newProvider == Lender.AAVE) {\n        supplyAave(_balance());\n      }\n    }\n    provider = newProvider;\n  }\n\n  function supplyAave(uint amount) public {\n      Aave(getAave()).deposit(token, amount, 0);\n  }\n  function supplyFulcrum(uint amount) public {\n      require(Fulcrum(fulcrum).mint(address(this), amount) > 0, \"FULCRUM: supply failed\");\n  }\n  function supplyCompound(uint amount) public {\n      require(Compound(compound).mint(amount) == 0, \"COMPOUND: supply failed\");\n  }\n  function _withdrawAave(uint amount) internal {\n      AToken(aaveToken).redeem(amount);\n  }\n  function _withdrawFulcrum(uint amount) internal {\n      require(Fulcrum(fulcrum).burn(address(this), amount) > 0, \"FULCRUM: withdraw failed\");\n  }\n  function _withdrawCompound(uint amount) internal {\n      require(Compound(compound).redeem(amount) == 0, \"COMPOUND: withdraw failed\");\n  }\n\n  function _calcPoolValueInToken() internal view returns (uint) {\n    return _balanceCompoundInToken()\n      .add(_balanceFulcrumInToken())\n      .add(_balanceDydx())\n      .add(_balanceAave())\n      .add(_balance());\n  }\n\n  function calcPoolValueInToken() public view returns (uint) {\n    return balanceCompoundInToken()\n      .add(balanceFulcrumInToken())\n      .add(balanceDydx())\n      .add(balanceAave())\n      .add(balance());\n  }\n\n  function getPricePerFullShare() public view returns (uint) {\n    uint _pool = calcPoolValueInToken();\n    return _pool.mul(1e18).div(_totalSupply);\n  }\n}\n",
  "sourcePath": "C:/Users/merun/Desktop/yeld-contracts/contracts/yUSDT.sol",
  "compiler": {
    "name": "solc",
    "version": "0.5.17+commit.d19bba13.Emscripten.clang"
  },
  "schemaVersion": "3.2.2",
  "updatedAt": "2021-01-16T17:40:37.251Z",
  "devdoc": {
    "methods": {}
  },
  "userdoc": {
    "methods": {}
  }
}