{
  "contractName": "yUSDC",
  "abi": [
    {
      "inputs": [
        {
          "internalType": "address",
          "name": "_yeldToken",
          "type": "address"
        },
        {
          "internalType": "address payable",
          "name": "_retirementYeldTreasury",
          "type": "address"
        }
      ],
      "payable": false,
      "stateMutability": "nonpayable",
      "type": "constructor"
    },
    {
      "anonymous": false,
      "inputs": [
        {
          "indexed": true,
          "internalType": "address",
          "name": "owner",
          "type": "address"
        },
        {
          "indexed": true,
          "internalType": "address",
          "name": "spender",
          "type": "address"
        },
        {
          "indexed": false,
          "internalType": "uint256",
          "name": "value",
          "type": "uint256"
        }
      ],
      "name": "Approval",
      "type": "event"
    },
    {
      "anonymous": false,
      "inputs": [
        {
          "indexed": true,
          "internalType": "address",
          "name": "previousOwner",
          "type": "address"
        },
        {
          "indexed": true,
          "internalType": "address",
          "name": "newOwner",
          "type": "address"
        }
      ],
      "name": "OwnershipTransferred",
      "type": "event"
    },
    {
      "anonymous": false,
      "inputs": [
        {
          "indexed": true,
          "internalType": "address",
          "name": "from",
          "type": "address"
        },
        {
          "indexed": true,
          "internalType": "address",
          "name": "to",
          "type": "address"
        },
        {
          "indexed": false,
          "internalType": "uint256",
          "name": "value",
          "type": "uint256"
        }
      ],
      "name": "Transfer",
      "type": "event"
    },
    {
      "payable": true,
      "stateMutability": "payable",
      "type": "fallback"
    },
    {
      "constant": true,
      "inputs": [],
      "name": "aave",
      "outputs": [
        {
          "internalType": "address",
          "name": "",
          "type": "address"
        }
      ],
      "payable": false,
      "stateMutability": "view",
      "type": "function"
    },
    {
      "constant": true,
      "inputs": [],
      "name": "aaveToken",
      "outputs": [
        {
          "internalType": "address",
          "name": "",
          "type": "address"
        }
      ],
      "payable": false,
      "stateMutability": "view",
      "type": "function"
    },
    {
      "constant": true,
      "inputs": [
        {
          "internalType": "address",
          "name": "owner",
          "type": "address"
        },
        {
          "internalType": "address",
          "name": "spender",
          "type": "address"
        }
      ],
      "name": "allowance",
      "outputs": [
        {
          "internalType": "uint256",
          "name": "",
          "type": "uint256"
        }
      ],
      "payable": false,
      "stateMutability": "view",
      "type": "function"
    },
    {
      "constant": false,
      "inputs": [
        {
          "internalType": "address",
          "name": "spender",
          "type": "address"
        },
        {
          "internalType": "uint256",
          "name": "amount",
          "type": "uint256"
        }
      ],
      "name": "approve",
      "outputs": [
        {
          "internalType": "bool",
          "name": "",
          "type": "bool"
        }
      ],
      "payable": false,
      "stateMutability": "nonpayable",
      "type": "function"
    },
    {
      "constant": true,
      "inputs": [],
      "name": "apr",
      "outputs": [
        {
          "internalType": "address",
          "name": "",
          "type": "address"
        }
      ],
      "payable": false,
      "stateMutability": "view",
      "type": "function"
    },
    {
      "constant": true,
      "inputs": [
        {
          "internalType": "address",
          "name": "account",
          "type": "address"
        }
      ],
      "name": "balanceOf",
      "outputs": [
        {
          "internalType": "uint256",
          "name": "",
          "type": "uint256"
        }
      ],
      "payable": false,
      "stateMutability": "view",
      "type": "function"
    },
    {
      "constant": true,
      "inputs": [],
      "name": "compound",
      "outputs": [
        {
          "internalType": "address",
          "name": "",
          "type": "address"
        }
      ],
      "payable": false,
      "stateMutability": "view",
      "type": "function"
    },
    {
      "constant": true,
      "inputs": [],
      "name": "dToken",
      "outputs": [
        {
          "internalType": "uint256",
          "name": "",
          "type": "uint256"
        }
      ],
      "payable": false,
      "stateMutability": "view",
      "type": "function"
    },
    {
      "constant": true,
      "inputs": [],
      "name": "decimals",
      "outputs": [
        {
          "internalType": "uint8",
          "name": "",
          "type": "uint8"
        }
      ],
      "payable": false,
      "stateMutability": "view",
      "type": "function"
    },
    {
      "constant": false,
      "inputs": [
        {
          "internalType": "address",
          "name": "spender",
          "type": "address"
        },
        {
          "internalType": "uint256",
          "name": "subtractedValue",
          "type": "uint256"
        }
      ],
      "name": "decreaseAllowance",
      "outputs": [
        {
          "internalType": "bool",
          "name": "",
          "type": "bool"
        }
      ],
      "payable": false,
      "stateMutability": "nonpayable",
      "type": "function"
    },
    {
      "constant": true,
      "inputs": [
        {
          "internalType": "address",
          "name": "",
          "type": "address"
        }
      ],
      "name": "depositBlockStarts",
      "outputs": [
        {
          "internalType": "uint256",
          "name": "",
          "type": "uint256"
        }
      ],
      "payable": false,
      "stateMutability": "view",
      "type": "function"
    },
    {
      "constant": true,
      "inputs": [],
      "name": "dydx",
      "outputs": [
        {
          "internalType": "address",
          "name": "",
          "type": "address"
        }
      ],
      "payable": false,
      "stateMutability": "view",
      "type": "function"
    },
    {
      "constant": true,
      "inputs": [],
      "name": "fulcrum",
      "outputs": [
        {
          "internalType": "address",
          "name": "",
          "type": "address"
        }
      ],
      "payable": false,
      "stateMutability": "view",
      "type": "function"
    },
    {
      "constant": false,
      "inputs": [
        {
          "internalType": "address",
          "name": "spender",
          "type": "address"
        },
        {
          "internalType": "uint256",
          "name": "addedValue",
          "type": "uint256"
        }
      ],
      "name": "increaseAllowance",
      "outputs": [
        {
          "internalType": "bool",
          "name": "",
          "type": "bool"
        }
      ],
      "payable": false,
      "stateMutability": "nonpayable",
      "type": "function"
    },
    {
      "constant": true,
      "inputs": [],
      "name": "isOwner",
      "outputs": [
        {
          "internalType": "bool",
          "name": "",
          "type": "bool"
        }
      ],
      "payable": false,
      "stateMutability": "view",
      "type": "function"
    },
    {
      "constant": true,
      "inputs": [],
      "name": "maximumTokensToBurn",
      "outputs": [
        {
          "internalType": "uint256",
          "name": "",
          "type": "uint256"
        }
      ],
      "payable": false,
      "stateMutability": "view",
      "type": "function"
    },
    {
      "constant": true,
      "inputs": [],
      "name": "name",
      "outputs": [
        {
          "internalType": "string",
          "name": "",
          "type": "string"
        }
      ],
      "payable": false,
      "stateMutability": "view",
      "type": "function"
    },
    {
      "constant": true,
      "inputs": [],
      "name": "oneDayInBlocks",
      "outputs": [
        {
          "internalType": "uint256",
          "name": "",
          "type": "uint256"
        }
      ],
      "payable": false,
      "stateMutability": "view",
      "type": "function"
    },
    {
      "constant": true,
      "inputs": [],
      "name": "oneMillion",
      "outputs": [
        {
          "internalType": "uint256",
          "name": "",
          "type": "uint256"
        }
      ],
      "payable": false,
      "stateMutability": "view",
      "type": "function"
    },
    {
      "constant": true,
      "inputs": [],
      "name": "owner",
      "outputs": [
        {
          "internalType": "address payable",
          "name": "",
          "type": "address"
        }
      ],
      "payable": false,
      "stateMutability": "view",
      "type": "function"
    },
    {
      "constant": true,
      "inputs": [],
      "name": "pool",
      "outputs": [
        {
          "internalType": "uint256",
          "name": "",
          "type": "uint256"
        }
      ],
      "payable": false,
      "stateMutability": "view",
      "type": "function"
    },
    {
      "constant": true,
      "inputs": [],
      "name": "provider",
      "outputs": [
        {
          "internalType": "enum yUSDC.Lender",
          "name": "",
          "type": "uint8"
        }
      ],
      "payable": false,
      "stateMutability": "view",
      "type": "function"
    },
    {
      "constant": false,
      "inputs": [],
      "name": "renounceOwnership",
      "outputs": [],
      "payable": false,
      "stateMutability": "nonpayable",
      "type": "function"
    },
    {
      "constant": true,
      "inputs": [],
      "name": "retirementYeldTreasury",
      "outputs": [
        {
          "internalType": "address payable",
          "name": "",
          "type": "address"
        }
      ],
      "payable": false,
      "stateMutability": "view",
      "type": "function"
    },
    {
      "constant": true,
      "inputs": [],
      "name": "symbol",
      "outputs": [
        {
          "internalType": "string",
          "name": "",
          "type": "string"
        }
      ],
      "payable": false,
      "stateMutability": "view",
      "type": "function"
    },
    {
      "constant": true,
      "inputs": [],
      "name": "token",
      "outputs": [
        {
          "internalType": "address",
          "name": "",
          "type": "address"
        }
      ],
      "payable": false,
      "stateMutability": "view",
      "type": "function"
    },
    {
      "constant": true,
      "inputs": [],
      "name": "totalSupply",
      "outputs": [
        {
          "internalType": "uint256",
          "name": "",
          "type": "uint256"
        }
      ],
      "payable": false,
      "stateMutability": "view",
      "type": "function"
    },
    {
      "constant": false,
      "inputs": [
        {
          "internalType": "address",
          "name": "recipient",
          "type": "address"
        },
        {
          "internalType": "uint256",
          "name": "amount",
          "type": "uint256"
        }
      ],
      "name": "transfer",
      "outputs": [
        {
          "internalType": "bool",
          "name": "",
          "type": "bool"
        }
      ],
      "payable": false,
      "stateMutability": "nonpayable",
      "type": "function"
    },
    {
      "constant": false,
      "inputs": [
        {
          "internalType": "address",
          "name": "sender",
          "type": "address"
        },
        {
          "internalType": "address",
          "name": "recipient",
          "type": "address"
        },
        {
          "internalType": "uint256",
          "name": "amount",
          "type": "uint256"
        }
      ],
      "name": "transferFrom",
      "outputs": [
        {
          "internalType": "bool",
          "name": "",
          "type": "bool"
        }
      ],
      "payable": false,
      "stateMutability": "nonpayable",
      "type": "function"
    },
    {
      "constant": false,
      "inputs": [
        {
          "internalType": "address payable",
          "name": "newOwner",
          "type": "address"
        }
      ],
      "name": "transferOwnership",
      "outputs": [],
      "payable": false,
      "stateMutability": "nonpayable",
      "type": "function"
    },
    {
      "constant": true,
      "inputs": [],
      "name": "uniswapRouter",
      "outputs": [
        {
          "internalType": "address",
          "name": "",
          "type": "address"
        }
      ],
      "payable": false,
      "stateMutability": "view",
      "type": "function"
    },
    {
      "constant": true,
      "inputs": [],
      "name": "usdc",
      "outputs": [
        {
          "internalType": "address",
          "name": "",
          "type": "address"
        }
      ],
      "payable": false,
      "stateMutability": "view",
      "type": "function"
    },
    {
      "constant": true,
      "inputs": [],
      "name": "weth",
      "outputs": [
        {
          "internalType": "address",
          "name": "",
          "type": "address"
        }
      ],
      "payable": false,
      "stateMutability": "view",
      "type": "function"
    },
    {
      "constant": true,
      "inputs": [],
      "name": "yeldToRewardPerDay",
      "outputs": [
        {
          "internalType": "uint256",
          "name": "",
          "type": "uint256"
        }
      ],
      "payable": false,
      "stateMutability": "view",
      "type": "function"
    },
    {
      "constant": true,
      "inputs": [],
      "name": "yeldToken",
      "outputs": [
        {
          "internalType": "contract IERC20",
          "name": "",
          "type": "address"
        }
      ],
      "payable": false,
      "stateMutability": "view",
      "type": "function"
    },
    {
      "constant": false,
      "inputs": [
        {
          "internalType": "address payable",
          "name": "_treasury",
          "type": "address"
        }
      ],
      "name": "setRetirementYeldTreasury",
      "outputs": [],
      "payable": false,
      "stateMutability": "nonpayable",
      "type": "function"
    },
    {
      "constant": false,
      "inputs": [
        {
          "internalType": "address",
          "name": "_uniswapRouter",
          "type": "address"
        }
      ],
      "name": "setUniswapRouter",
      "outputs": [],
      "payable": false,
      "stateMutability": "nonpayable",
      "type": "function"
    },
    {
      "constant": false,
      "inputs": [
        {
          "internalType": "address",
          "name": "_yeldToken",
          "type": "address"
        }
      ],
      "name": "setYeldToken",
      "outputs": [],
      "payable": false,
      "stateMutability": "nonpayable",
      "type": "function"
    },
    {
      "constant": false,
      "inputs": [
        {
          "internalType": "address",
          "name": "_token",
          "type": "address"
        },
        {
          "internalType": "uint256",
          "name": "_amount",
          "type": "uint256"
        }
      ],
      "name": "extractTokensIfStuck",
      "outputs": [],
      "payable": false,
      "stateMutability": "nonpayable",
      "type": "function"
    },
    {
      "constant": false,
      "inputs": [],
      "name": "extractETHIfStuck",
      "outputs": [],
      "payable": false,
      "stateMutability": "nonpayable",
      "type": "function"
    },
    {
      "constant": false,
      "inputs": [
        {
          "internalType": "uint256",
          "name": "_amount",
          "type": "uint256"
        }
      ],
      "name": "changeYeldToRewardPerDay",
      "outputs": [],
      "payable": false,
      "stateMutability": "nonpayable",
      "type": "function"
    },
    {
      "constant": true,
      "inputs": [],
      "name": "getGeneratedYelds",
      "outputs": [
        {
          "internalType": "uint256",
          "name": "",
          "type": "uint256"
        }
      ],
      "payable": false,
      "stateMutability": "view",
      "type": "function"
    },
    {
      "constant": false,
      "inputs": [
        {
          "internalType": "uint256",
          "name": "_amount",
          "type": "uint256"
        }
      ],
      "name": "deposit",
      "outputs": [],
      "payable": false,
      "stateMutability": "nonpayable",
      "type": "function"
    },
    {
      "constant": false,
      "inputs": [
        {
          "internalType": "uint256",
          "name": "_shares",
          "type": "uint256"
        }
      ],
      "name": "withdraw",
      "outputs": [],
      "payable": false,
      "stateMutability": "nonpayable",
      "type": "function"
    },
    {
      "constant": true,
      "inputs": [],
      "name": "recommend",
      "outputs": [
        {
          "internalType": "enum yUSDC.Lender",
          "name": "",
          "type": "uint8"
        }
      ],
      "payable": false,
      "stateMutability": "view",
      "type": "function"
    },
    {
      "constant": false,
      "inputs": [
        {
          "internalType": "uint256",
          "name": "amount",
          "type": "uint256"
        }
      ],
      "name": "supplyDydx",
      "outputs": [
        {
          "internalType": "uint256",
          "name": "",
          "type": "uint256"
        }
      ],
      "payable": false,
      "stateMutability": "nonpayable",
      "type": "function"
    },
    {
      "constant": true,
      "inputs": [],
      "name": "getAave",
      "outputs": [
        {
          "internalType": "address",
          "name": "",
          "type": "address"
        }
      ],
      "payable": false,
      "stateMutability": "view",
      "type": "function"
    },
    {
      "constant": true,
      "inputs": [],
      "name": "getAaveCore",
      "outputs": [
        {
          "internalType": "address",
          "name": "",
          "type": "address"
        }
      ],
      "payable": false,
      "stateMutability": "view",
      "type": "function"
    },
    {
      "constant": false,
      "inputs": [],
      "name": "approveToken",
      "outputs": [],
      "payable": false,
      "stateMutability": "nonpayable",
      "type": "function"
    },
    {
      "constant": true,
      "inputs": [],
      "name": "balance",
      "outputs": [
        {
          "internalType": "uint256",
          "name": "",
          "type": "uint256"
        }
      ],
      "payable": false,
      "stateMutability": "view",
      "type": "function"
    },
    {
      "constant": true,
      "inputs": [],
      "name": "balanceDydx",
      "outputs": [
        {
          "internalType": "uint256",
          "name": "",
          "type": "uint256"
        }
      ],
      "payable": false,
      "stateMutability": "view",
      "type": "function"
    },
    {
      "constant": true,
      "inputs": [],
      "name": "balanceCompound",
      "outputs": [
        {
          "internalType": "uint256",
          "name": "",
          "type": "uint256"
        }
      ],
      "payable": false,
      "stateMutability": "view",
      "type": "function"
    },
    {
      "constant": true,
      "inputs": [],
      "name": "balanceCompoundInToken",
      "outputs": [
        {
          "internalType": "uint256",
          "name": "",
          "type": "uint256"
        }
      ],
      "payable": false,
      "stateMutability": "view",
      "type": "function"
    },
    {
      "constant": true,
      "inputs": [],
      "name": "balanceFulcrumInToken",
      "outputs": [
        {
          "internalType": "uint256",
          "name": "",
          "type": "uint256"
        }
      ],
      "payable": false,
      "stateMutability": "view",
      "type": "function"
    },
    {
      "constant": true,
      "inputs": [],
      "name": "balanceFulcrum",
      "outputs": [
        {
          "internalType": "uint256",
          "name": "",
          "type": "uint256"
        }
      ],
      "payable": false,
      "stateMutability": "view",
      "type": "function"
    },
    {
      "constant": true,
      "inputs": [],
      "name": "balanceAave",
      "outputs": [
        {
          "internalType": "uint256",
          "name": "",
          "type": "uint256"
        }
      ],
      "payable": false,
      "stateMutability": "view",
      "type": "function"
    },
    {
      "constant": false,
      "inputs": [],
      "name": "rebalance",
      "outputs": [],
      "payable": false,
      "stateMutability": "nonpayable",
      "type": "function"
    },
    {
      "constant": false,
      "inputs": [
        {
          "internalType": "uint256",
          "name": "amount",
          "type": "uint256"
        }
      ],
      "name": "supplyAave",
      "outputs": [],
      "payable": false,
      "stateMutability": "nonpayable",
      "type": "function"
    },
    {
      "constant": false,
      "inputs": [
        {
          "internalType": "uint256",
          "name": "amount",
          "type": "uint256"
        }
      ],
      "name": "supplyFulcrum",
      "outputs": [],
      "payable": false,
      "stateMutability": "nonpayable",
      "type": "function"
    },
    {
      "constant": false,
      "inputs": [
        {
          "internalType": "uint256",
          "name": "amount",
          "type": "uint256"
        }
      ],
      "name": "supplyCompound",
      "outputs": [],
      "payable": false,
      "stateMutability": "nonpayable",
      "type": "function"
    },
    {
      "constant": false,
      "inputs": [
        {
          "internalType": "uint256",
          "name": "_amount",
          "type": "uint256"
        }
      ],
      "name": "invest",
      "outputs": [],
      "payable": false,
      "stateMutability": "nonpayable",
      "type": "function"
    },
    {
      "constant": true,
      "inputs": [],
      "name": "calcPoolValueInToken",
      "outputs": [
        {
          "internalType": "uint256",
          "name": "",
          "type": "uint256"
        }
      ],
      "payable": false,
      "stateMutability": "view",
      "type": "function"
    },
    {
      "constant": true,
      "inputs": [],
      "name": "getPricePerFullShare",
      "outputs": [
        {
          "internalType": "uint256",
          "name": "",
          "type": "uint256"
        }
      ],
      "payable": false,
      "stateMutability": "view",
      "type": "function"
    },
    {
      "constant": false,
      "inputs": [
        {
          "internalType": "uint256",
          "name": "_shares",
          "type": "uint256"
        }
      ],
      "name": "redeem",
      "outputs": [],
      "payable": false,
      "stateMutability": "nonpayable",
      "type": "function"
    }
  ],
  "bytecode": "0x6080604052601280546001600160a01b0319908116737a250d5630b4cf539739df2c5dacb4c659f2488d1790915560138054821673a0b86991c6218b36c1d19d4a2e9eb0ce3606eb481790556014805490911673c02aaa39b223fe8d0a0e5c4f27ead9083c756cc2179055690a968163f0a57b40000060175560006018556019805460ff191690553480156200009457600080fd5b5060405162005e6138038062005e61833981016040819052620000b79162000751565b604080518082018252600981526879656c64205553444360b81b602080830191825283518085019094526005845264795553444360d81b90840152815191929160069162000109916003919062000661565b5081516200011f90600490602085019062000661565b506005805460ff191660ff929092169190911790555050600160065562000145620002b5565b600780546001600160a01b0319166001600160a01b0392831617908190556040519116906000907f8be0079c531659141344cd1fd0a4f28419497f9722a3daafe3b4186f6b6457e0908290a3600980546001600160a01b031990811673a0b86991c6218b36c1d19d4a2e9eb0ce3606eb481790915560108054821673dd6d648c991f7d47454354f4ef326b04025a48a8179055600e80548216731e0447b19bb6ecfdae1e4ae1694b0c3659614e4e179055600c805482167324a42fd28c976a61df5d00d0599c34c4f90748c8179055600b8054821673f013406a0b1d544238083df0b93ad0d2cbe0f65f179055600d80548216739ba00d6856a4edf4665bca2c2309936572473b7e179055600a805482167339aa39c021dfbae8fac545936693ac917d5e75631790556002600f55601680546001600160a01b03858116918416919091179091556015805491841691909216179055620002ad6001600160e01b03620002ba16565b505062000a72565b335b90565b600a54600954620002e7916001600160a01b0391821691166000196200037c602090811b6200379417901c565b600e5460095462000314916001600160a01b0391821691166000196200037c602090811b6200379417901c565b6200034d6200032b6001600160e01b036200049616565b6009546001600160a01b0316906000196200037c602090811b6200379417901c565b600b546009546200037a916001600160a01b0391821691166000196200037c602090811b6200379417901c565b565b8015806200040b5750604051636eb1769f60e11b81526001600160a01b0384169063dd62ed3e90620003b590309086906004016200095d565b60206040518083038186803b158015620003ce57600080fd5b505afa158015620003e3573d6000803e3d6000fd5b505050506040513d601f19601f82011682018060405250620004099190810190620007b1565b155b620004335760405162461bcd60e51b81526004016200042a90620009bf565b60405180910390fd5b6040516200049190849063095ea7b360e01b906200045890869086906024016200097c565b60408051808303601f190181529190526020810180516001600160e01b0319939093166001600160e01b03938416179052906200051c16565b505050565b600c546040805163076b7fbb60e51b815290516000926001600160a01b03169163ed6ff760916004808301926020929190829003018186803b158015620004dc57600080fd5b505afa158015620004f1573d6000803e3d6000fd5b505050506040513d601f19601f8201168201806040525062000517919081019062000730565b905090565b6200053b826001600160a01b03166200062460201b6200401f1760201c565b6200055a5760405162461bcd60e51b81526004016200042a90620009d1565b60006060836001600160a01b03168360405162000578919062000948565b6000604051808303816000865af19150503d8060008114620005b7576040519150601f19603f3d011682016040523d82523d6000602084013e620005bc565b606091505b509150915081620005e15760405162461bcd60e51b81526004016200042a906200099b565b8051156200061e5780806020019051620005ff919081019062000790565b6200061e5760405162461bcd60e51b81526004016200042a90620009ad565b50505050565b6000813f7fc5d2460186f7233c927e7db2dcc703c0e500b653ca82273b7bfad8045d85a4708115801590620006595750808214155b949350505050565b828054600181600116156101000203166002900490600052602060002090601f016020900481019282601f10620006a457805160ff1916838001178555620006d4565b82800160010185558215620006d4579182015b82811115620006d4578251825591602001919060010190620006b7565b50620006e2929150620006e6565b5090565b620002b791905b80821115620006e25760008155600101620006ed565b8051620007108162000a42565b92915050565b8051620007108162000a5c565b8051620007108162000a67565b6000602082840312156200074357600080fd5b600062000659848462000703565b600080604083850312156200076557600080fd5b600062000773858562000703565b9250506020620007868582860162000703565b9150509250929050565b600060208284031215620007a357600080fd5b600062000659848462000716565b600060208284031215620007c457600080fd5b600062000659848462000723565b620007dd81620009f5565b82525050565b6000620007f082620009e3565b620007fc8185620009e7565b93506200080e81856020860162000a13565b9290920192915050565b600062000827602083620009ec565b7f5361666545524332303a206c6f772d6c6576656c2063616c6c206661696c6564815260200192915050565b600062000862602a83620009ec565b7f5361666545524332303a204552433230206f7065726174696f6e20646964206e8152691bdd081cdd58d8d9595960b21b602082015260400192915050565b6000620008b0603683620009ec565b7f5361666545524332303a20617070726f76652066726f6d206e6f6e2d7a65726f81527f20746f206e6f6e2d7a65726f20616c6c6f77616e636500000000000000000000602082015260400192915050565b600062000911601f83620009ec565b7f5361666545524332303a2063616c6c20746f206e6f6e2d636f6e747261637400815260200192915050565b620007dd81620002b7565b6000620009568284620007e3565b9392505050565b604081016200096d8285620007d2565b620009566020830184620007d2565b604081016200098c8285620007d2565b6200095660208301846200093d565b60208082528101620007108162000818565b60208082528101620007108162000853565b602080825281016200071081620008a1565b60208082528101620007108162000902565b5190565b919050565b90815260200190565b6000620007108262000a07565b151590565b6001600160a01b031690565b60005b8381101562000a3057818101518382015260200162000a16565b838111156200061e5750506000910152565b62000a4d81620009f5565b811462000a5957600080fd5b50565b62000a4d8162000a02565b62000a4d81620002b7565b6153df8062000a826000396000f3fe6080604052600436106103c35760003560e01c80637d7c2a1c116101f2578063bea9849e1161010d578063f2978d98116100a0578063f69e20461161006f578063f69e204614610a07578063f7c1ec7714610a1c578063f82ce27d14610a31578063fc0c546a14610a46576103c3565b8063f2978d98146109a8578063f29e15a2146109bd578063f2fde38b146109d2578063f5a41dea146109f2576103c3565b8063dd62ed3e116100dc578063dd62ed3e14610933578063e849d65914610953578063ebc5116014610973578063f02fbd4a14610988576103c3565b8063bea9849e146108c9578063cf8ca426146108e9578063d9d7858a146108fe578063db006a7514610913576103c3565b806399b71d5c11610185578063a9059cbb11610154578063a9059cbb14610854578063a9a1015a14610874578063b69ef8a814610894578063b6b55f25146108a9576103c3565b806399b71d5c146107f5578063a160176d1461080a578063a457c2d71461081f578063a72879711461083f576103c3565b80638da5cb5b116101c15780638da5cb5b146107a15780638e4ec6ef146107b65780638f32d59b146107cb57806395d89b41146107e0576103c3565b80637d7c2a1c146107355780637f50d4d81461074a5780638124955c1461076c578063819faf7b1461078c576103c3565b80633e413bee116102e257806365aab74911610275578063715018a611610244578063715018a6146106d6578063735de9f7146106eb57806377c7b8fc146107005780637b82784c14610715576103c3565b806365aab7491461066c5780636ff2bf081461068c57806370a08231146106a15780637137ef99146106c1576103c3565b80634fe41129116102b15780634fe411291461061857806357ded9c91461062d57806358782c211461064257806361c1ec5514610657576103c3565b80633e413bee146105b95780633fc8cef3146105ce578063413e920d146105e35780634fd96cb6146105f8576103c3565b806323b872dd1161035a5780632eb4520a116103295780632eb4520a14610542578063313ce56714610562578063395093511461058457806339c0a7e1146105a4576103c3565b806323b872dd146104cd5780632622678c146104ed5780632afcf480146105025780632e1a7d4d14610522576103c3565b8063095ea7b311610396578063095ea7b3146104615780630eb2a2671461048e57806316f0115b146104a357806318160ddd146104b8576103c3565b806306636c1c146103c557806306a3fe59146103fb57806306fdde031461041d578063085d48831461043f575b005b3480156103d157600080fd5b506103e56103e0366004614436565b610a5b565b6040516103f291906150b3565b60405180910390f35b34801561040757600080fd5b50610410610c12565b6040516103f29190614e18565b34801561042957600080fd5b50610432610c2e565b6040516103f29190614f17565b34801561044b57600080fd5b50610454610ce3565b6040516103f29190614f09565b34801561046d57600080fd5b5061048161047c366004614309565b610cec565b6040516103f29190614eed565b34801561049a57600080fd5b506103e5610d0a565b3480156104af57600080fd5b506103e5610db6565b3480156104c457600080fd5b506103e5610dbc565b3480156104d957600080fd5b506104816104e83660046142bc565b610dc2565b3480156104f957600080fd5b50610410610e6a565b34801561050e57600080fd5b506103c361051d366004614436565b610e86565b34801561052e57600080fd5b506103c361053d366004614436565b610fa4565b34801561054e57600080fd5b506103c361055d366004614246565b611588565b34801561056e57600080fd5b5061057761160d565b6040516103f29190615150565b34801561059057600080fd5b5061048161059f366004614309565b611616565b3480156105b057600080fd5b506103e5611677565b3480156105c557600080fd5b50610410611744565b3480156105da57600080fd5b50610410611760565b3480156105ef57600080fd5b506103e561177c565b34801561060457600080fd5b506103c3610613366004614246565b611783565b34801561062457600080fd5b506103c3611808565b34801561063957600080fd5b50610410611896565b34801561064e57600080fd5b506104106118b2565b34801561066357600080fd5b506103e56118ce565b34801561067857600080fd5b506103c3610687366004614436565b611925565b34801561069857600080fd5b506103e56119be565b3480156106ad57600080fd5b506103e56106bc366004614246565b611a8e565b3480156106cd57600080fd5b506103e5611aba565b3480156106e257600080fd5b506103c3611afc565b3480156106f757600080fd5b50610410611ba9565b34801561070c57600080fd5b506103e5611bc5565b34801561072157600080fd5b506103e5610730366004614246565b611bf8565b34801561074157600080fd5b506103c3611c0a565b34801561075657600080fd5b5061075f611d17565b6040516103f29190614efb565b34801561077857600080fd5b506103c3610787366004614436565b611d33565b34801561079857600080fd5b50610410611e15565b3480156107ad57600080fd5b50610410611e31565b3480156107c257600080fd5b50610410611e4d565b3480156107d757600080fd5b50610481611e69565b3480156107ec57600080fd5b50610432611ea9565b34801561080157600080fd5b506103c3611f28565b34801561081657600080fd5b5061045461206b565b34801561082b57600080fd5b5061048161083a366004614309565b6121c1565b34801561084b57600080fd5b506103e561223c565b34801561086057600080fd5b5061048161086f366004614309565b61230b565b34801561088057600080fd5b506103c361088f366004614309565b61231f565b3480156108a057600080fd5b506103e5612408565b3480156108b557600080fd5b506103c36108c4366004614436565b61245f565b3480156108d557600080fd5b506103c36108e4366004614246565b61257a565b3480156108f557600080fd5b506103e56125ff565b34801561090a57600080fd5b506103e5612656565b34801561091f57600080fd5b506103c361092e366004614436565b61265c565b34801561093f57600080fd5b506103e561094e366004614282565b612971565b34801561095f57600080fd5b506103c361096e366004614436565b6129a9565b34801561097f57600080fd5b506103e5612a88565b34801561099457600080fd5b506103c36109a3366004614436565b612a8e565b3480156109b457600080fd5b506103e5612ad1565b3480156109c957600080fd5b506103e5612ad7565b3480156109de57600080fd5b506103c36109ed366004614246565b612add565b3480156109fe57600080fd5b506103e5612b24565b348015610a1357600080fd5b50610410612bdd565b348015610a2857600080fd5b50610410612bf9565b348015610a3d57600080fd5b50610410612c9c565b348015610a5257600080fd5b50610410612d07565b60408051600180825281830190925260009160609190816020015b610a7e61405b565b815260200190600190039081610a7657905050905060405180604001604052803073ffffffffffffffffffffffffffffffffffffffff168152602001600081525081600081518110610acc57fe5b6020026020010181905250610adf614072565b6040805160808101909152600181526020810160008152602001600081526020018590529050610b0d61409b565b60008181905250600060208201526040808201839052600f546060808401919091523060a0840152815160018082528184019093529091816020015b610b5161409b565b815260200190600190039081610b495790505090508181600081518110610b7457fe5b6020908102919091010152600e546040517fa67a6a4500000000000000000000000000000000000000000000000000000000815273ffffffffffffffffffffffffffffffffffffffff9091169063a67a6a4590610bd79087908590600401614ec8565b600060405180830381600087803b158015610bf157600080fd5b505af1158015610c05573d6000803e3d6000fd5b5050505050505050919050565b600d5473ffffffffffffffffffffffffffffffffffffffff1681565b60038054604080516020601f60027fffffffffffffffffffffffffffffffffffffffffffffffffffffffffffffffff610100600188161502019095169490940493840181900481028201810190925282815260609390929091830182828015610cd85780601f10610cad57610100808354040283529160200191610cd8565b820191906000526020600020905b815481529060010190602001808311610cbb57829003601f168201915b505050505090505b90565b60195460ff1681565b6000610d00610cf9612d23565b8484612d27565b5060015b92915050565b600b546040517f70a0823100000000000000000000000000000000000000000000000000000000815260009173ffffffffffffffffffffffffffffffffffffffff16906370a0823190610d61903090600401614e26565b60206040518083038186803b158015610d7957600080fd5b505afa158015610d8d573d6000803e3d6000fd5b505050506040513d601f19601f82011682018060405250610db19190810190614454565b905090565b60085481565b60025490565b6000610dcf848484612e36565b610e5f84610ddb612d23565b610e5a856040518060600160405280602881526020016153506028913973ffffffffffffffffffffffffffffffffffffffff8a16600090815260016020526040812090610e26612d23565b73ffffffffffffffffffffffffffffffffffffffff168152602081019190915260400160002054919063ffffffff612fc116565b612d27565b5060015b9392505050565b60155473ffffffffffffffffffffffffffffffffffffffff1681565b600680546001019081905581610ed1576040517f08c379a0000000000000000000000000000000000000000000000000000000008152600401610ec890615028565b60405180910390fd5b610ed9611aba565b600855600954610f079073ffffffffffffffffffffffffffffffffffffffff1633308563ffffffff61300716565b610f0f611c0a565b600854600090610f255750600882905581610f4f565b610f4c600854610f40600254866130cc90919063ffffffff16565b9063ffffffff61312016565b90505b610f57611aba565b600855610f643382613162565b506006548114610fa0576040517f08c379a0000000000000000000000000000000000000000000000000000000008152600401610ec890615058565b5050565b6006805460010190819055610fb833613263565b15610fef576040517f08c379a0000000000000000000000000000000000000000000000000000000008152600401610ec890614fc8565b60008211611029576040517f08c379a0000000000000000000000000000000000000000000000000000000008152600401610ec890614fe8565b600061103433611a8e565b905080831115611070576040517f08c379a0000000000000000000000000000000000000000000000000000000008152600401610ec890614fd8565b611078611aba565b60085560006110856119be565b905060006110a4600254610f40876008546130cc90919063ffffffff16565b604080518082018252601d81527f72656465656d20616d6f756e7420657863656564732062616c616e63650000006020808301919091523360009081529081905291909120549192506110ff9190879063ffffffff612fc116565b33600090815260208190526040902055600254611122908663ffffffff61326916565b60025560405160009033907fddf252ad1be2c89b69c2b068fc378daa952ba7f163c4a11628f55a4df523b3ef9061115a9089906150b3565b60405180910390a36009546040517f70a0823100000000000000000000000000000000000000000000000000000000815260009173ffffffffffffffffffffffffffffffffffffffff16906370a08231906111b9903090600401614e26565b60206040518083038186803b1580156111d157600080fd5b505afa1580156111e5573d6000803e3d6000fd5b505050506040513d601f19601f820116820180604052506112099190810190614454565b90508181101561122b5761122b611226838363ffffffff61326916565b6132ab565b600061123e83606463ffffffff61312016565b336000818152601160205260409081902043905560165490517fa9059cbb00000000000000000000000000000000000000000000000000000000815292935073ffffffffffffffffffffffffffffffffffffffff169163a9059cbb916112a8918890600401614e34565b602060405180830381600087803b1580156112c257600080fd5b505af11580156112d6573d6000803e3d6000fd5b505050506040513d601f19601f820116820180604052506112fa919081019061436e565b506000611306826133b5565b6016546040517f70a0823100000000000000000000000000000000000000000000000000000000815291925060009173ffffffffffffffffffffffffffffffffffffffff909116906370a0823190611362908490600401614e26565b60206040518083038186803b15801561137a57600080fd5b505afa15801561138e573d6000803e3d6000fd5b505050506040513d601f19601f820116820180604052506113b29190810190614454565b905060175481101561144a5760006113d66064610f4085606263ffffffff6130cc16565b90506113e181613591565b5060006113fa6064610f4086600263ffffffff6130cc16565b60155460405191925073ffffffffffffffffffffffffffffffffffffffff169082156108fc029083906000818181858888f19350505050158015611442573d6000803e3d6000fd5b505050611494565b601554604051839173ffffffffffffffffffffffffffffffffffffffff169082156108fc029083906000818181858888f19350505050158015611491573d6000803e3d6000fd5b50505b60095473ffffffffffffffffffffffffffffffffffffffff1663a9059cbb336114c3888763ffffffff61326916565b6040518363ffffffff1660e01b81526004016114e0929190614e34565b602060405180830381600087803b1580156114fa57600080fd5b505af115801561150e573d6000803e3d6000fd5b505050506040513d601f19601f82011682018060405250611532919081019061436e565b5061153b611aba565b600855611546611c0a565b505050505050506006548114610fa0576040517f08c379a0000000000000000000000000000000000000000000000000000000008152600401610ec890615058565b611590611e69565b6115c6576040517f08c379a0000000000000000000000000000000000000000000000000000000008152600401610ec890614fb8565b601580547fffffffffffffffffffffffff00000000000000000000000000000000000000001673ffffffffffffffffffffffffffffffffffffffff92909216919091179055565b60055460ff1690565b6000610d00611623612d23565b84610e5a8560016000611634612d23565b73ffffffffffffffffffffffffffffffffffffffff908116825260208083019390935260409182016000908120918c16815292529020549063ffffffff6136ef16565b600061168161405b565b600e5460408051808201825230815260006020820152600f5491517fc190c2ec00000000000000000000000000000000000000000000000000000000815273ffffffffffffffffffffffffffffffffffffffff9093169263c190c2ec926116eb9291600401615098565b604080518083038186803b15801561170257600080fd5b505afa158015611716573d6000803e3d6000fd5b505050506040513d601f19601f8201168201806040525061173a9190810190614418565b6020015191505090565b60135473ffffffffffffffffffffffffffffffffffffffff1681565b60145473ffffffffffffffffffffffffffffffffffffffff1681565b620f424081565b61178b611e69565b6117c1576040517f08c379a0000000000000000000000000000000000000000000000000000000008152600401610ec890614fb8565b601680547fffffffffffffffffffffffff00000000000000000000000000000000000000001673ffffffffffffffffffffffffffffffffffffffff92909216919091179055565b611810611e69565b611846576040517f08c379a0000000000000000000000000000000000000000000000000000000008152600401610ec890614fb8565b61184e611e31565b73ffffffffffffffffffffffffffffffffffffffff166108fc479081150290604051600060405180830381858888f19350505050158015611893573d6000803e3d6000fd5b50565b60105473ffffffffffffffffffffffffffffffffffffffff1681565b600b5473ffffffffffffffffffffffffffffffffffffffff1681565b600a546040517f70a0823100000000000000000000000000000000000000000000000000000000815260009173ffffffffffffffffffffffffffffffffffffffff16906370a0823190610d61903090600401614e26565b61192d612bf9565b6009546040517fd2d0e06600000000000000000000000000000000000000000000000000000000815273ffffffffffffffffffffffffffffffffffffffff9283169263d2d0e06692611989929116908590600090600401614ea0565b600060405180830381600087803b1580156119a357600080fd5b505af11580156119b7573d6000803e3d6000fd5b5050505050565b336000908152601160205260408120548190156119fd57336000908152601160205260409020546119f690439063ffffffff61326916565b9050611a07565b6000915050610ce0565b6000611a1233611a8e565b905060008060025411611a2757506000611a48565b611a45600254610f4084611a39611aba565b9063ffffffff6130cc16565b90505b6000611a85611964610f4086611a39670de0b6b3a7640000610f40601854611a39620f4240610f4064e8d4a510008d6130cc90919063ffffffff16565b94505050505090565b73ffffffffffffffffffffffffffffffffffffffff81166000908152602081905260409020545b919050565b6000610db1611ac7612408565b611af0611ad26125ff565b611af0611add611677565b611af0611ae8612b24565b611af061223c565b9063ffffffff6136ef16565b611b04611e69565b611b3a576040517f08c379a0000000000000000000000000000000000000000000000000000000008152600401610ec890614fb8565b60075460405160009173ffffffffffffffffffffffffffffffffffffffff16907f8be0079c531659141344cd1fd0a4f28419497f9722a3daafe3b4186f6b6457e0908390a3600780547fffffffffffffffffffffffff0000000000000000000000000000000000000000169055565b60125473ffffffffffffffffffffffffffffffffffffffff1681565b600080611bd0611aba565b600254909150611bf290610f4083670de0b6b3a764000063ffffffff6130cc16565b91505090565b60116020526000908152604090205481565b6000611c1461206b565b60195490915060ff166004811115611c2857fe5b816004811115611c3457fe5b14611c4157611c4161372e565b6000611c4b612408565b1115611cd8576001816004811115611c5f57fe5b1415611c7657611c706103e0612408565b50611cd8565b6004816004811115611c8457fe5b1415611c9a57611c95610787612408565b611cd8565b6002816004811115611ca857fe5b1415611cb957611c9561096e612408565b6003816004811115611cc757fe5b1415611cd857611cd8610687612408565b601980548291907fffffffffffffffffffffffffffffffffffffffffffffffffffffffffffffff00166001836004811115611d0f57fe5b021790555050565b60165473ffffffffffffffffffffffffffffffffffffffff1681565b600b546040517f40c10f1900000000000000000000000000000000000000000000000000000000815260009173ffffffffffffffffffffffffffffffffffffffff16906340c10f1990611d8c9030908690600401614e34565b602060405180830381600087803b158015611da657600080fd5b505af1158015611dba573d6000803e3d6000fd5b505050506040513d601f19601f82011682018060405250611dde9190810190614454565b11611893576040517f08c379a0000000000000000000000000000000000000000000000000000000008152600401610ec890615038565b600c5473ffffffffffffffffffffffffffffffffffffffff1681565b60075473ffffffffffffffffffffffffffffffffffffffff1690565b600e5473ffffffffffffffffffffffffffffffffffffffff1681565b60075460009073ffffffffffffffffffffffffffffffffffffffff16611e8d612d23565b73ffffffffffffffffffffffffffffffffffffffff1614905090565b60048054604080516020601f60027fffffffffffffffffffffffffffffffffffffffffffffffffffffffffffffffff610100600188161502019095169490940493840181900481028201810190925282815260609390929091830182828015610cd85780601f10610cad57610100808354040283529160200191610cd8565b600a54600954611f789173ffffffffffffffffffffffffffffffffffffffff91821691167fffffffffffffffffffffffffffffffffffffffffffffffffffffffffffffffff63ffffffff61379416565b600e54600954611fc89173ffffffffffffffffffffffffffffffffffffffff91821691167fffffffffffffffffffffffffffffffffffffffffffffffffffffffffffffffff63ffffffff61379416565b612019611fd3612c9c565b60095473ffffffffffffffffffffffffffffffffffffffff16907fffffffffffffffffffffffffffffffffffffffffffffffffffffffffffffffff63ffffffff61379416565b600b546009546120699173ffffffffffffffffffffffffffffffffffffffff91821691167fffffffffffffffffffffffffffffffffffffffffffffffffffffffffffffffff63ffffffff61379416565b565b6010546009546040517fd88be3c0000000000000000000000000000000000000000000000000000000008152600092839283928392839273ffffffffffffffffffffffffffffffffffffffff9182169263d88be3c0926120cf921690600401614e18565b60006040518083038186803b1580156120e757600080fd5b505afa1580156120fb573d6000803e3d6000fd5b505050506040513d6000823e601f3d9081017fffffffffffffffffffffffffffffffffffffffffffffffffffffffffffffffe0168201604052612141919081019061438c565b929750909550935091506000905084156121585750835b808411156121635750825b8083111561216e5750815b808211156121795750805b60008186141561218b575060026121b7565b8482141561219b575060046121b7565b838214156121ab575060036121b7565b828214156121b7575060015b9550505050505090565b6000610d006121ce612d23565b84610e5a8560405180606001604052806025815260200161537860259139600160006121f8612d23565b73ffffffffffffffffffffffffffffffffffffffff908116825260208083019390935260409182016000908120918d1681529252902054919063ffffffff612fc116565b6000806122476118ce565b90508015610db157610d04670de0b6b3a7640000610f40600a60009054906101000a900473ffffffffffffffffffffffffffffffffffffffff1673ffffffffffffffffffffffffffffffffffffffff1663182df0f56040518163ffffffff1660e01b815260040160206040518083038186803b1580156122c657600080fd5b505afa1580156122da573d6000803e3d6000fd5b505050506040513d601f19601f820116820180604052506122fe9190810190614454565b849063ffffffff6130cc16565b6000610d00612318612d23565b8484612e36565b612327611e69565b61235d576040517f08c379a0000000000000000000000000000000000000000000000000000000008152600401610ec890614fb8565b6040517fa9059cbb00000000000000000000000000000000000000000000000000000000815273ffffffffffffffffffffffffffffffffffffffff83169063a9059cbb906123b19033908590600401614e34565b602060405180830381600087803b1580156123cb57600080fd5b505af11580156123df573d6000803e3d6000fd5b505050506040513d601f19601f82011682018060405250612403919081019061436e565b505050565b6009546040517f70a0823100000000000000000000000000000000000000000000000000000000815260009173ffffffffffffffffffffffffffffffffffffffff16906370a0823190610d61903090600401614e26565b600680546001019081905561247333613263565b156124aa576040517f08c379a0000000000000000000000000000000000000000000000000000000008152600401610ec890614fc8565b600082116124e4576040517f08c379a0000000000000000000000000000000000000000000000000000000008152600401610ec890615028565b6124ec611aba565b60085560095461251a9073ffffffffffffffffffffffffffffffffffffffff1633308563ffffffff61300716565b33600090815260116020526040812043905560085461253f575060088290558161255d565b61255a600854610f40600254866130cc90919063ffffffff16565b90505b612565611aba565b6008556125723382613162565b610f64611c0a565b612582611e69565b6125b8576040517f08c379a0000000000000000000000000000000000000000000000000000000008152600401610ec890614fb8565b601280547fffffffffffffffffffffffff00000000000000000000000000000000000000001673ffffffffffffffffffffffffffffffffffffffff92909216919091179055565b600d546040517f70a0823100000000000000000000000000000000000000000000000000000000815260009173ffffffffffffffffffffffffffffffffffffffff16906370a0823190610d61903090600401614e26565b600f5481565b60068054600101908190558161269e576040517f08c379a0000000000000000000000000000000000000000000000000000000008152600401610ec890614fe8565b60006126a933611a8e565b9050808311156126e5576040517f08c379a0000000000000000000000000000000000000000000000000000000008152600401610ec890614fd8565b6126ed611aba565b600881905560025460009161270d9190610f40908763ffffffff6130cc16565b604080518082018252601d81527f72656465656d20616d6f756e7420657863656564732062616c616e63650000006020808301919091523360009081529081905291909120549192506127689190869063ffffffff612fc116565b3360009081526020819052604090205560025461278b908563ffffffff61326916565b60025560405160009033907fddf252ad1be2c89b69c2b068fc378daa952ba7f163c4a11628f55a4df523b3ef906127c39088906150b3565b60405180910390a36009546040517f70a0823100000000000000000000000000000000000000000000000000000000815260009173ffffffffffffffffffffffffffffffffffffffff16906370a0823190612822903090600401614e26565b60206040518083038186803b15801561283a57600080fd5b505afa15801561284e573d6000803e3d6000fd5b505050506040513d601f19601f820116820180604052506128729190810190614454565b60195490915060ff16828210156128d05761288b61206b565b60195490915060ff16600481111561289f57fe5b8160048111156128ab57fe5b146128bd576128b861372e565b6128d0565b6128d0611226848463ffffffff61326916565b6009546128fa9073ffffffffffffffffffffffffffffffffffffffff16338563ffffffff6138b316565b60195460ff16600481111561290b57fe5b81600481111561291757fe5b146129255761292581611c41565b61292d611aba565b600855505060065483149150610fa09050576040517f08c379a0000000000000000000000000000000000000000000000000000000008152600401610ec890615058565b73ffffffffffffffffffffffffffffffffffffffff918216600090815260016020908152604080832093909416825291909152205490565b600a546040517fa0712d6800000000000000000000000000000000000000000000000000000000815273ffffffffffffffffffffffffffffffffffffffff9091169063a0712d68906129ff9084906004016150b3565b602060405180830381600087803b158015612a1957600080fd5b505af1158015612a2d573d6000803e3d6000fd5b505050506040513d601f19601f82011682018060405250612a519190810190614454565b15611893576040517f08c379a0000000000000000000000000000000000000000000000000000000008152600401610ec890614f68565b60185481565b612a96611e69565b612acc576040517f08c379a0000000000000000000000000000000000000000000000000000000008152600401610ec890614fb8565b601855565b61196481565b60175481565b612ae5611e69565b612b1b576040517f08c379a0000000000000000000000000000000000000000000000000000000008152600401610ec890614fb8565b611893816138ee565b600080612b2f610d0a565b90508015610db157600b546040517f06b3efd600000000000000000000000000000000000000000000000000000000815273ffffffffffffffffffffffffffffffffffffffff909116906306b3efd690612b8d903090600401614e26565b60206040518083038186803b158015612ba557600080fd5b505afa158015612bb9573d6000803e3d6000fd5b505050506040513d601f19601f82011682018060405250610d049190810190614454565b600a5473ffffffffffffffffffffffffffffffffffffffff1681565b600c54604080517f0261bf8b000000000000000000000000000000000000000000000000000000008152905160009273ffffffffffffffffffffffffffffffffffffffff1691630261bf8b916004808301926020929190829003018186803b158015612c6457600080fd5b505afa158015612c78573d6000803e3d6000fd5b505050506040513d601f19601f82011682018060405250610db19190810190614264565b600c54604080517fed6ff760000000000000000000000000000000000000000000000000000000008152905160009273ffffffffffffffffffffffffffffffffffffffff169163ed6ff760916004808301926020929190829003018186803b158015612c6457600080fd5b60095473ffffffffffffffffffffffffffffffffffffffff1681565b3390565b73ffffffffffffffffffffffffffffffffffffffff8316612d74576040517f08c379a0000000000000000000000000000000000000000000000000000000008152600401610ec890615018565b73ffffffffffffffffffffffffffffffffffffffff8216612dc1576040517f08c379a0000000000000000000000000000000000000000000000000000000008152600401610ec890614f58565b73ffffffffffffffffffffffffffffffffffffffff80841660008181526001602090815260408083209487168084529490915290819020849055517f8c5be1e5ebec7d5bd14f71427d1e84f3dd0314c0f7b2291e5b200ac8c7c3b92590612e299085906150b3565b60405180910390a3505050565b73ffffffffffffffffffffffffffffffffffffffff8316612e83576040517f08c379a0000000000000000000000000000000000000000000000000000000008152600401610ec890614ff8565b73ffffffffffffffffffffffffffffffffffffffff8216612ed0576040517f08c379a0000000000000000000000000000000000000000000000000000000008152600401610ec890614f28565b612f208160405180606001604052806026815260200161532a6026913973ffffffffffffffffffffffffffffffffffffffff8616600090815260208190526040902054919063ffffffff612fc116565b73ffffffffffffffffffffffffffffffffffffffff8085166000908152602081905260408082209390935590841681522054612f62908263ffffffff6136ef16565b73ffffffffffffffffffffffffffffffffffffffff80841660008181526020819052604090819020939093559151908516907fddf252ad1be2c89b69c2b068fc378daa952ba7f163c4a11628f55a4df523b3ef90612e299085906150b3565b60008184841115612fff576040517f08c379a0000000000000000000000000000000000000000000000000000000008152600401610ec89190614f17565b505050900390565b6040516130c69085907f23b872dd000000000000000000000000000000000000000000000000000000009061304490879087908790602401614e6a565b604080517fffffffffffffffffffffffffffffffffffffffffffffffffffffffffffffffe08184030181529190526020810180517bffffffffffffffffffffffffffffffffffffffffffffffffffffffff167fffffffff00000000000000000000000000000000000000000000000000000000909316929092179091526139c9565b50505050565b6000826130db57506000610d04565b828202828482816130e857fe5b0414610e63576040517f08c379a0000000000000000000000000000000000000000000000000000000008152600401610ec890614f98565b6000610e6383836040518060400160405280601a81526020017f536166654d6174683a206469766973696f6e206279207a65726f000000000000815250613b16565b73ffffffffffffffffffffffffffffffffffffffff82166131af576040517f08c379a0000000000000000000000000000000000000000000000000000000008152600401610ec890615088565b6002546131c2908263ffffffff6136ef16565b60025573ffffffffffffffffffffffffffffffffffffffff82166000908152602081905260409020546131fb908263ffffffff6136ef16565b73ffffffffffffffffffffffffffffffffffffffff83166000818152602081905260408082209390935591519091907fddf252ad1be2c89b69c2b068fc378daa952ba7f163c4a11628f55a4df523b3ef906132579085906150b3565b60405180910390a35050565b3b151590565b6000610e6383836040518060400160405280601e81526020017f536166654d6174683a207375627472616374696f6e206f766572666c6f770000815250612fc1565b600260195460ff1660048111156132be57fe5b14156132cd576132cd81613b67565b600360195460ff1660048111156132e057fe5b141561333057806132ef6125ff565b1015613327576040517f08c379a0000000000000000000000000000000000000000000000000000000008152600401610ec890615008565b61333081613bdf565b600160195460ff16600481111561334357fe5b14156133935780613352611677565b101561338a576040517f08c379a0000000000000000000000000000000000000000000000000000000008152600401610ec890615008565b61339381613c35565b600460195460ff1660048111156133a657fe5b14156118935761189381613de6565b6012546013546000916133e89173ffffffffffffffffffffffffffffffffffffffff90811691168363ffffffff61379416565b6012546013546134189173ffffffffffffffffffffffffffffffffffffffff91821691168463ffffffff61379416565b60408051600280825260608083018452926020830190803883395050601354825192935073ffffffffffffffffffffffffffffffffffffffff169183915060009061345f57fe5b73ffffffffffffffffffffffffffffffffffffffff928316602091820292909201015260145482519116908290600190811061349757fe5b73ffffffffffffffffffffffffffffffffffffffff9283166020918202929092010152601254606091166318cbafe585600085306134dd4261070863ffffffff6136ef16565b6040518663ffffffff1660e01b81526004016134fd9594939291906150fd565b600060405180830381600087803b15801561351757600080fd5b505af115801561352b573d6000803e3d6000fd5b505050506040513d6000823e601f3d9081017fffffffffffffffffffffffffffffffffffffffffffffffffffffffffffffffe01682016040526135719190810190614339565b90508060018151811061358057fe5b602002602001015192505050919050565b60408051600280825260608083018452600093909291906020830190803883395050601454825192935073ffffffffffffffffffffffffffffffffffffffff16918391506000906135de57fe5b73ffffffffffffffffffffffffffffffffffffffff928316602091820292909201015260165482519116908290600190811061361657fe5b73ffffffffffffffffffffffffffffffffffffffff928316602091820292909201015260125460609116637ff36ab5856000858161365c4261070863ffffffff6136ef16565b6040518663ffffffff1660e01b815260040161367b94939291906150c1565b6000604051808303818588803b15801561369457600080fd5b505af11580156136a8573d6000803e3d6000fd5b50505050506040513d6000823e601f3d9081017fffffffffffffffffffffffffffffffffffffffffffffffffffffffffffffffe01682016040526135719190810190614339565b600082820183811015610e63576040517f08c379a0000000000000000000000000000000000000000000000000000000008152600401610ec890614f78565b60006137386118ce565b905080156137495761374981613e5e565b613751611677565b905080156137625761376281613c35565b61376a610d0a565b9050801561377b5761377b81613f3d565b6137836125ff565b905080156118935761189381613bdf565b80158061384257506040517fdd62ed3e00000000000000000000000000000000000000000000000000000000815273ffffffffffffffffffffffffffffffffffffffff84169063dd62ed3e906137f09030908690600401614e4f565b60206040518083038186803b15801561380857600080fd5b505afa15801561381c573d6000803e3d6000fd5b505050506040513d601f19601f820116820180604052506138409190810190614454565b155b613878576040517f08c379a0000000000000000000000000000000000000000000000000000000008152600401610ec890615068565b6040516124039084907f095ea7b300000000000000000000000000000000000000000000000000000000906130449086908690602401614e92565b6040516124039084907fa9059cbb00000000000000000000000000000000000000000000000000000000906130449086908690602401614e92565b73ffffffffffffffffffffffffffffffffffffffff811661393b576040517f08c379a0000000000000000000000000000000000000000000000000000000008152600401610ec890614f48565b60075460405173ffffffffffffffffffffffffffffffffffffffff8084169216907f8be0079c531659141344cd1fd0a4f28419497f9722a3daafe3b4186f6b6457e090600090a3600780547fffffffffffffffffffffffff00000000000000000000000000000000000000001673ffffffffffffffffffffffffffffffffffffffff92909216919091179055565b6139e88273ffffffffffffffffffffffffffffffffffffffff1661401f565b613a1e576040517f08c379a0000000000000000000000000000000000000000000000000000000008152600401610ec890615078565b600060608373ffffffffffffffffffffffffffffffffffffffff1683604051613a479190614e0c565b6000604051808303816000865af19150503d8060008114613a84576040519150601f19603f3d011682016040523d82523d6000602084013e613a89565b606091505b509150915081613ac5576040517f08c379a0000000000000000000000000000000000000000000000000000000008152600401610ec890614f88565b8051156130c65780806020019051613ae0919081019061436e565b6130c6576040517f08c379a0000000000000000000000000000000000000000000000000000000008152600401610ec890615048565b60008183613b51576040517f08c379a0000000000000000000000000000000000000000000000000000000008152600401610ec89190614f17565b506000838581613b5d57fe5b0495945050505050565b6000613b716118ce565b90506000613b7d61223c565b905082811015613bb9576040517f08c379a0000000000000000000000000000000000000000000000000000000008152600401610ec890615008565b6000613bd46001611af084610f40878963ffffffff6130cc16565b90506130c681613e5e565b600d546040517fdb006a7500000000000000000000000000000000000000000000000000000000815273ffffffffffffffffffffffffffffffffffffffff9091169063db006a75906119899084906004016150b3565b604080516001808252818301909252606091816020015b613c5461405b565b815260200190600190039081613c4c57905050905060405180604001604052803073ffffffffffffffffffffffffffffffffffffffff168152602001600081525081600081518110613ca257fe5b6020026020010181905250613cb5614072565b6040805160808101909152600080825260208201908152602001600081526020018490529050613ce361409b565b60018181905250600060208201526040808201839052600f546060808401919091523060a0840152815160018082528184019093529091816020015b613d2761409b565b815260200190600190039081613d1f5790505090508181600081518110613d4a57fe5b6020908102919091010152600e546040517fa67a6a4500000000000000000000000000000000000000000000000000000000815273ffffffffffffffffffffffffffffffffffffffff9091169063a67a6a4590613dad9087908590600401614ec8565b600060405180830381600087803b158015613dc757600080fd5b505af1158015613ddb573d6000803e3d6000fd5b505050505050505050565b6000613df0610d0a565b90506000613dfc612b24565b905082811015613e38576040517f08c379a0000000000000000000000000000000000000000000000000000000008152600401610ec890615008565b6000613e536001611af084610f40878963ffffffff6130cc16565b90506130c681613f3d565b600a546040517fdb006a7500000000000000000000000000000000000000000000000000000000815273ffffffffffffffffffffffffffffffffffffffff9091169063db006a7590613eb49084906004016150b3565b602060405180830381600087803b158015613ece57600080fd5b505af1158015613ee2573d6000803e3d6000fd5b505050506040513d601f19601f82011682018060405250613f069190810190614454565b15611893576040517f08c379a0000000000000000000000000000000000000000000000000000000008152600401610ec890614f38565b600b546040517f9dc29fac00000000000000000000000000000000000000000000000000000000815260009173ffffffffffffffffffffffffffffffffffffffff1690639dc29fac90613f969030908690600401614e34565b602060405180830381600087803b158015613fb057600080fd5b505af1158015613fc4573d6000803e3d6000fd5b505050506040513d601f19601f82011682018060405250613fe89190810190614454565b11611893576040517f08c379a0000000000000000000000000000000000000000000000000000000008152600401610ec890614fa8565b6000813f7fc5d2460186f7233c927e7db2dcc703c0e500b653ca82273b7bfad8045d85a47081158015906140535750808214155b949350505050565b604080518082019091526000808252602082015290565b604080516080810190915260008082526020820190815260200160008152602001600081525090565b6040805161010081018252600080825260208201529081016140bb614072565b81526020016000815260200160008152602001600073ffffffffffffffffffffffffffffffffffffffff16815260200160008152602001606081525090565b8035610d0481615303565b8051610d0481615303565b600082601f83011261412157600080fd5b815161413461412f82615185565b61515e565b9150818183526020840193506020810190508385602084028201111561415957600080fd5b60005b83811015614185578161416f888261423b565b845250602092830192919091019060010161415c565b5050505092915050565b8051610d0481615317565b600082601f8301126141ab57600080fd5b81516141b961412f826151a6565b915080825260208301602083018583830111156141d557600080fd5b6141e0838284615291565b50505092915050565b6000604082840312156141fb57600080fd5b614205604061515e565b90506000614213848461418f565b82525060206142248484830161423b565b60208301525092915050565b8035610d0481615320565b8051610d0481615320565b60006020828403121561425857600080fd5b600061405384846140fa565b60006020828403121561427657600080fd5b60006140538484614105565b6000806040838503121561429557600080fd5b60006142a185856140fa565b92505060206142b2858286016140fa565b9150509250929050565b6000806000606084860312156142d157600080fd5b60006142dd86866140fa565b93505060206142ee868287016140fa565b92505060406142ff86828701614230565b9150509250925092565b6000806040838503121561431c57600080fd5b600061432885856140fa565b92505060206142b285828601614230565b60006020828403121561434b57600080fd5b815167ffffffffffffffff81111561436257600080fd5b61405384828501614110565b60006020828403121561438057600080fd5b6000614053848461418f565b600080600080600060a086880312156143a457600080fd5b855167ffffffffffffffff8111156143bb57600080fd5b6143c78882890161419a565b95505060206143d88882890161423b565b94505060406143e98882890161423b565b93505060606143fa8882890161423b565b925050608061440b8882890161423b565b9150509295509295909350565b60006040828403121561442a57600080fd5b600061405384846141e9565b60006020828403121561444857600080fd5b60006140538484614230565b60006020828403121561446657600080fd5b6000614053848461423b565b600061447e83836144b5565b505060200190565b6000610e638383614ce5565b600061449e8383614dda565b505060400190565b6144af81615253565b82525050565b6144af816151ff565b60006144c9826151f2565b6144d381856151f6565b93506144de836151ec565b8060005b8381101561450c5781516144f68882614472565b9750614501836151ec565b9250506001016144e2565b509495945050505050565b6000614522826151f2565b61452c81856151f6565b93508360208202850161453e856151ec565b8060005b85811015614578578484038952815161455b8582614486565b9450614566836151ec565b60209a909a0199925050600101614542565b5091979650505050505050565b6000614590826151f2565b61459a81856151f6565b93506145a5836151ec565b8060005b8381101561450c5781516145bd8882614492565b97506145c8836151ec565b9250506001016145a9565b6144af8161520a565b60006145e7826151f2565b6145f18185611ab5565b9350614601818560208601615291565b9290920192915050565b6000614616826151f2565b61462081856151f6565b9350614630818560208601615291565b614639816152bd565b9093019392505050565b6144af8161525a565b6144af81615265565b6144af81615270565b6144af8161527b565b6144af81615286565b600061467d6023836151f6565b7f45524332303a207472616e7366657220746f20746865207a65726f206164647281527f6573730000000000000000000000000000000000000000000000000000000000602082015260400192915050565b60006146dc6019836151f6565b7f434f4d504f554e443a207769746864726177206661696c656400000000000000815260200192915050565b60006147156026836151f6565b7f4f776e61626c653a206e6577206f776e657220697320746865207a65726f206181527f6464726573730000000000000000000000000000000000000000000000000000602082015260400192915050565b60006147746022836151f6565b7f45524332303a20617070726f766520746f20746865207a65726f20616464726581527f7373000000000000000000000000000000000000000000000000000000000000602082015260400192915050565b60006147d36017836151f6565b7f434f4d504f554e443a20737570706c79206661696c6564000000000000000000815260200192915050565b600061480c601b836151f6565b7f536166654d6174683a206164646974696f6e206f766572666c6f770000000000815260200192915050565b60006148456020836151f6565b7f5361666545524332303a206c6f772d6c6576656c2063616c6c206661696c6564815260200192915050565b600061487e6021836151f6565b7f536166654d6174683a206d756c7469706c69636174696f6e206f766572666c6f81527f7700000000000000000000000000000000000000000000000000000000000000602082015260400192915050565b60006148dd6018836151f6565b7f46554c4352554d3a207769746864726177206661696c65640000000000000000815260200192915050565b60006149166020836151f6565b7f4f776e61626c653a2063616c6c6572206973206e6f7420746865206f776e6572815260200192915050565b600061494f6033836151f6565b7f436f6e74726163747320617265206e6f7420616c6c6f77656420746f20696e7481527f6572616374207769746820746865206661726d00000000000000000000000000602082015260400192915050565b60006149ae6014836151f6565b7f696e73756666696369656e742062616c616e6365000000000000000000000000815260200192915050565b60006149e7601f836151f6565b7f7769746864726177206d7573742062652067726561746572207468616e203000815260200192915050565b6000614a206025836151f6565b7f45524332303a207472616e736665722066726f6d20746865207a65726f20616481527f6472657373000000000000000000000000000000000000000000000000000000602082015260400192915050565b6000614a7f6012836151f6565b7f696e73756666696369656e742066756e64730000000000000000000000000000815260200192915050565b6000614ab86024836151f6565b7f45524332303a20617070726f76652066726f6d20746865207a65726f2061646481527f7265737300000000000000000000000000000000000000000000000000000000602082015260400192915050565b6000614b17601e836151f6565b7f6465706f736974206d7573742062652067726561746572207468616e20300000815260200192915050565b6000614b506016836151f6565b7f46554c4352554d3a20737570706c79206661696c656400000000000000000000815260200192915050565b6000614b89602a836151f6565b7f5361666545524332303a204552433230206f7065726174696f6e20646964206e81527f6f74207375636365656400000000000000000000000000000000000000000000602082015260400192915050565b6000614be8601f836151f6565b7f5265656e7472616e637947756172643a207265656e7472616e742063616c6c00815260200192915050565b6000614c216036836151f6565b7f5361666545524332303a20617070726f76652066726f6d206e6f6e2d7a65726f81527f20746f206e6f6e2d7a65726f20616c6c6f77616e636500000000000000000000602082015260400192915050565b6000614c80601f836151f6565b7f5361666545524332303a2063616c6c20746f206e6f6e2d636f6e747261637400815260200192915050565b6000614cb9601f836151f6565b7f45524332303a206d696e7420746f20746865207a65726f206164647265737300815260200192915050565b8051600090610160840190614cfa858261464c565b506020830151614d0d6020860182614dfa565b506040830151614d206040860182614d90565b506060830151614d3360c0860182614dfa565b506080830151614d4660e0860182614dfa565b5060a0830151614d5a6101008601826144b5565b5060c0830151614d6e610120860182614dfa565b5060e0830151848203610140860152614d87828261460b565b95945050505050565b80516080830190614da184826145d3565b506020820151614db46020850182614655565b506040820151614dc76040850182614655565b5060608201516130c66060850182614dfa565b80516040830190614deb84826144b5565b5060208201516130c660208501825b6144af81610ce0565b6144af8161524d565b6000610e6382846145dc565b60208101610d0482846144b5565b60208101610d0482846144a6565b60408101614e4282856144a6565b610e636020830184614dfa565b60408101614e5d82856144b5565b610e6360208301846144b5565b60608101614e7882866144b5565b614e8560208301856144b5565b6140536040830184614dfa565b60408101614e4282856144b5565b60608101614eae82866144b5565b614ebb6020830185614dfa565b6140536040830184614667565b60408082528101614ed98185614585565b905081810360208301526140538184614517565b60208101610d0482846145d3565b60208101610d048284614643565b60208101610d04828461465e565b60208082528101610e63818461460b565b60208082528101610d0481614670565b60208082528101610d04816146cf565b60208082528101610d0481614708565b60208082528101610d0481614767565b60208082528101610d04816147c6565b60208082528101610d04816147ff565b60208082528101610d0481614838565b60208082528101610d0481614871565b60208082528101610d04816148d0565b60208082528101610d0481614909565b60208082528101610d0481614942565b60208082528101610d04816149a1565b60208082528101610d04816149da565b60208082528101610d0481614a13565b60208082528101610d0481614a72565b60208082528101610d0481614aab565b60208082528101610d0481614b0a565b60208082528101610d0481614b43565b60208082528101610d0481614b7c565b60208082528101610d0481614bdb565b60208082528101610d0481614c14565b60208082528101610d0481614c73565b60208082528101610d0481614cac565b606081016150a68285614dda565b610e636040830184614dfa565b60208101610d048284614dfa565b608081016150cf8287614dfa565b81810360208301526150e181866144be565b90506150f060408301856144a6565b614d876060830184614dfa565b60a0810161510b8288614dfa565b6151186020830187614dfa565b818103604083015261512a81866144be565b905061513960608301856144a6565b6151466080830184614dfa565b9695505050505050565b60208101610d048284614e03565b60405181810167ffffffffffffffff8111828210171561517d57600080fd5b604052919050565b600067ffffffffffffffff82111561519c57600080fd5b5060209081020190565b600067ffffffffffffffff8211156151bd57600080fd5b506020601f919091017fffffffffffffffffffffffffffffffffffffffffffffffffffffffffffffffe0160190565b60200190565b5190565b90815260200190565b6000610d0482615234565b151590565b80611ab5816152e5565b80611ab5816152ef565b80611ab5816152f9565b61ffff1690565b73ffffffffffffffffffffffffffffffffffffffff1690565b60ff1690565b6000610d04825b6000610d04826151ff565b6000610d048261520f565b6000610d0482615219565b6000610d0482615223565b6000610d048261522d565b60005b838110156152ac578181015183820152602001615294565b838111156130c65750506000910152565b601f017fffffffffffffffffffffffffffffffffffffffffffffffffffffffffffffffe01690565b6002811061189357fe5b6001811061189357fe5b6005811061189357fe5b61530c816151ff565b811461189357600080fd5b61530c8161520a565b61530c81610ce056fe45524332303a207472616e7366657220616d6f756e7420657863656564732062616c616e636545524332303a207472616e7366657220616d6f756e74206578636565647320616c6c6f77616e636545524332303a2064656372656173656420616c6c6f77616e63652062656c6f77207a65726fa365627a7a723158208d7b0f07dfbaf044b07f43ee44a9494f6933aa2af5ea37aaf3e1f7caf3cd8a4e6c6578706572696d656e74616cf564736f6c63430005110040",
  "source": "pragma solidity 0.5.17;\npragma experimental ABIEncoderV2;\n\nimport './ContractImports.sol';\nimport './CommonFunctionality.sol';\n\ncontract yUSDC is ERC20, ERC20Detailed, ReentrancyGuard, Structs, Ownable, CommonFunctionality {\n  using SafeERC20 for IERC20;\n  using Address for address;\n  using SafeMath for uint256;\n\n  uint256 public pool;\n  address public token;\n  address public compound;\n  address public fulcrum;\n  address public aave;\n  address public aaveToken;\n  address public dydx;\n  uint256 public dToken;\n  address public apr;\n\n  // Yeld\n  mapping(address => uint256) public depositBlockStarts;\n  address public uniswapRouter = 0x7a250d5630B4cF539739dF2C5dAcb4c659F2488D;\n  address public usdc = 0xA0b86991c6218b36c1d19D4a2e9Eb0cE3606eB48;\n  address public weth = 0xC02aaA39b223FE8D0A0e5C4F27eAD9083C756Cc2;\n  address payable public retirementYeldTreasury;\n  IERC20 public yeldToken;\n  uint256 public maximumTokensToBurn = 50000 * 1e18;\n  uint256 public constant oneDayInBlocks = 6500;\n  uint256 public yeldToRewardPerDay = 0e18; // 100 YELD per day per 1 million stablecoins padded with 18 zeroes to have that flexibility\n  uint256 public constant oneMillion = 1e6;\n  // Yeld\n\n  enum Lender {\n      NONE,\n      DYDX,\n      COMPOUND,\n      AAVE,\n      FULCRUM\n  }\n\n  Lender public provider = Lender.NONE;\n\n  constructor (address _yeldToken, address payable _retirementYeldTreasury) public ERC20Detailed(\"yeld USDC\", \"yUSDC\", 6) {\n    token = address(0xA0b86991c6218b36c1d19D4a2e9Eb0cE3606eB48);\n    apr = address(0xdD6d648C991f7d47454354f4Ef326b04025a48A8);\n    dydx = address(0x1E0447b19BB6EcFdAe1e4AE1694b0C3659614e4e);\n    aave = address(0x24a42fD28C976A61Df5D00D0599C34c4f90748c8);\n    fulcrum = address(0xF013406A0B1d544238083DF0B93ad0d2cBE0f65f);\n    aaveToken = address(0x9bA00D6856a4eDF4665BcA2C2309936572473B7E);\n    compound = address(0x39AA39c021dfbaE8faC545936693aC917d5E7563);\n    dToken = 2;\n    yeldToken = IERC20(_yeldToken);\n    retirementYeldTreasury = _retirementYeldTreasury;\n    approveToken();\n  }\n\n  // Yeld\n  // To receive ETH after converting it from USDC\n  function () external payable {}\n  function setRetirementYeldTreasury(address payable _treasury) public onlyOwner {\n    retirementYeldTreasury = _treasury;\n  }\n  // In case a new uniswap router version is released\n  function setUniswapRouter(address _uniswapRouter) public onlyOwner {\n    uniswapRouter = _uniswapRouter;\n  }\n  function setYeldToken(address _yeldToken) public onlyOwner {\n    yeldToken = IERC20(_yeldToken);\n  }\n  function extractTokensIfStuck(address _token, uint256 _amount) public onlyOwner {\n    IERC20(_token).transfer(msg.sender, _amount);\n  }\n  function extractETHIfStuck() public onlyOwner {\n    owner().transfer(address(this).balance);\n  }\n  function changeYeldToRewardPerDay(uint256 _amount) public onlyOwner {\n    yeldToRewardPerDay = _amount;\n  }\n  function getGeneratedYelds() public view returns(uint256) {\n    uint256 blocksPassed;\n    if (depositBlockStarts[msg.sender] > 0) {\n      blocksPassed = block.number.sub(depositBlockStarts[msg.sender]);\n    } else {\n      return 0;\n    }\n    uint256 ibalance = balanceOf(msg.sender); // Balance of yTokens\n    uint256 accomulatedStablecoins;\n    if (_totalSupply <= 0) {\n      accomulatedStablecoins = 0;\n    } else {\n      accomulatedStablecoins = (calcPoolValueInToken().mul(ibalance)).div(_totalSupply);\n    }\n    uint256 generatedYelds = accomulatedStablecoins.mul(1e12).div(oneMillion).mul(yeldToRewardPerDay).div(1e18).mul(blocksPassed).div(oneDayInBlocks);\n    return generatedYelds;\n  }\n  // Converts USDC to ETH and returns how much ETH has been received from Uniswap\n  function usdcToETH(uint256 _amount) internal returns(uint256) {\n      IERC20(usdc).safeApprove(uniswapRouter, 0);\n      IERC20(usdc).safeApprove(uniswapRouter, _amount);\n      address[] memory path = new address[](2);\n      path[0] = usdc;\n      path[1] = weth;\n      // swapExactTokensForETH(uint amountIn, uint amountOutMin, address[] calldata path, address to, uint deadline)\n      // 'amounts' is an array where [0] is input USDC amount and [1] is the resulting ETH after the conversion\n      // even tho we've specified the WETH address, we'll receive ETH since that's how it works on uniswap\n      // https://uniswap.org/docs/v2/smart-contracts/router02/#swapexacttokensforeth\n      uint[] memory amounts = IUniswap(uniswapRouter).swapExactTokensForETH(_amount, uint(0), path, address(this), now.add(1800));\n      return amounts[1];\n  }\n  function buyNBurn(uint256 _ethToSwap) internal returns(uint256) {\n    address[] memory path = new address[](2);\n    path[0] = weth;\n    path[1] = address(yeldToken);\n    // Burns the tokens by taking them out of circulation, sending them to the 0x0 address\n    uint[] memory amounts = IUniswap(uniswapRouter).swapExactETHForTokens.value(_ethToSwap)(uint(0), path, address(0), now.add(1800));\n    return amounts[1];\n  }\n  // Yeld\n\n  // Quick swap low gas method for pool swaps\n  function deposit(uint256 _amount)\n      external\n      nonReentrant\n      noContract\n  {\n      require(_amount > 0, \"deposit must be greater than 0\");\n      pool = _calcPoolValueInToken();\n\n      IERC20(token).safeTransferFrom(msg.sender, address(this), _amount);\n\n      // Yeld\n      depositBlockStarts[msg.sender] = block.number;\n      // Yeld\n      \n      // Calculate pool shares\n      uint256 shares = 0;\n      if (pool == 0) {\n        shares = _amount;\n        pool = _amount;\n      } else {\n        shares = (_amount.mul(_totalSupply)).div(pool);\n      }\n      pool = _calcPoolValueInToken();\n      _mint(msg.sender, shares);\n      rebalance();\n  }\n\n  // No rebalance implementation for lower fees and faster swaps\n  function withdraw(uint256 _shares)\n      external\n      nonReentrant\n      noContract\n  {\n      require(_shares > 0, \"withdraw must be greater than 0\");\n      uint256 ibalance = balanceOf(msg.sender);\n      require(_shares <= ibalance, \"insufficient balance\");\n      // Could have over value from cTokens\n      pool = _calcPoolValueInToken();\n      // Yeld\n      uint256 generatedYelds = getGeneratedYelds();\n      // Yeld\n      uint256 stablecoinsToWithdraw = (pool.mul(_shares)).div(_totalSupply);\n      _balances[msg.sender] = _balances[msg.sender].sub(_shares, \"redeem amount exceeds balance\");\n      _totalSupply = _totalSupply.sub(_shares);\n      emit Transfer(msg.sender, address(0), _shares);\n      uint256 b = IERC20(token).balanceOf(address(this));\n      if (b < stablecoinsToWithdraw) {\n        _withdrawSome(stablecoinsToWithdraw.sub(b));\n      }\n\n\n      // Yeld\n      // Take 1% of the amount to withdraw\n      uint256 onePercent = stablecoinsToWithdraw.div(100);\n      depositBlockStarts[msg.sender] = block.number;\n      yeldToken.transfer(msg.sender, generatedYelds);\n      // Take a portion of the profits for the buy and burn and retirement yeld\n      // Convert half the USDC earned into ETH for the protocol algorithms\n      uint256 stakingProfits = usdcToETH(onePercent);\n      uint256 tokensAlreadyBurned = yeldToken.balanceOf(address(0));\n      if (tokensAlreadyBurned < maximumTokensToBurn) {\n        // 98% is the 49% doubled since we already took the 50%\n        uint256 ethToSwap = stakingProfits.mul(98).div(100);\n        // Buy and burn only applies up to 50k tokens burned\n        buyNBurn(ethToSwap);\n        // 1% for the Retirement Yield\n        uint256 retirementYeld = stakingProfits.mul(2).div(100);\n        // Send to the treasury\n        retirementYeldTreasury.transfer(retirementYeld);\n      } else {\n        // If we've reached the maximum burn point, send half the profits to the treasury to reward holders\n        uint256 retirementYeld = stakingProfits;\n        // Send to the treasury\n        retirementYeldTreasury.transfer(retirementYeld);\n      }\n      IERC20(token).transfer(msg.sender, stablecoinsToWithdraw.sub(onePercent));\n      // Yeld\n\n      pool = _calcPoolValueInToken();\n      rebalance();\n  }\n\n  function recommend() public view returns (Lender) {\n    (,uint256 capr,uint256 iapr,uint256 aapr,uint256 dapr) = IIEarnManager(apr).recommend(token);\n    uint256 max = 0;\n    if (capr > max) {\n      max = capr;\n    }\n    if (iapr > max) {\n      max = iapr;\n    }\n    if (aapr > max) {\n      max = aapr;\n    }\n    if (dapr > max) {\n      max = dapr;\n    }\n\n    Lender newProvider = Lender.NONE;\n    if (max == capr) {\n      newProvider = Lender.COMPOUND;\n    } else if (max == iapr) {\n      newProvider = Lender.FULCRUM;\n    } else if (max == aapr) {\n      newProvider = Lender.AAVE;\n    } else if (max == dapr) {\n      newProvider = Lender.DYDX;\n    }\n    return newProvider;\n  }\n\n  function supplyDydx(uint256 amount) public returns(uint) {\n      Info[] memory infos = new Info[](1);\n      infos[0] = Info(address(this), 0);\n\n      AssetAmount memory amt = AssetAmount(true, AssetDenomination.Wei, AssetReference.Delta, amount);\n      ActionArgs memory act;\n      act.actionType = ActionType.Deposit;\n      act.accountId = 0;\n      act.amount = amt;\n      act.primaryMarketId = dToken;\n      act.otherAddress = address(this);\n\n      ActionArgs[] memory args = new ActionArgs[](1);\n      args[0] = act;\n\n      DyDx(dydx).operate(infos, args);\n  }\n\n  function _withdrawDydx(uint256 amount) internal {\n      Info[] memory infos = new Info[](1);\n      infos[0] = Info(address(this), 0);\n\n      AssetAmount memory amt = AssetAmount(false, AssetDenomination.Wei, AssetReference.Delta, amount);\n      ActionArgs memory act;\n      act.actionType = ActionType.Withdraw;\n      act.accountId = 0;\n      act.amount = amt;\n      act.primaryMarketId = dToken;\n      act.otherAddress = address(this);\n\n      ActionArgs[] memory args = new ActionArgs[](1);\n      args[0] = act;\n\n      DyDx(dydx).operate(infos, args);\n  }\n\n  function getAave() public view returns (address) {\n    return LendingPoolAddressesProvider(aave).getLendingPool();\n  }\n  function getAaveCore() public view returns (address) {\n    return LendingPoolAddressesProvider(aave).getLendingPoolCore();\n  }\n\n  function approveToken() public {\n      IERC20(token).safeApprove(compound, uint(-1)); //also add to constructor\n      IERC20(token).safeApprove(dydx, uint(-1));\n      IERC20(token).safeApprove(getAaveCore(), uint(-1));\n      IERC20(token).safeApprove(fulcrum, uint(-1));\n  }\n\n  function balance() public view returns (uint256) {\n    return IERC20(token).balanceOf(address(this));\n  }\n\n  function balanceDydx() public view returns (uint256) {\n      Wei memory bal = DyDx(dydx).getAccountWei(Info(address(this), 0), dToken);\n      return bal.value;\n  }\n  function balanceCompound() public view returns (uint256) {\n      return IERC20(compound).balanceOf(address(this));\n  }\n  function balanceCompoundInToken() public view returns (uint256) {\n    // Mantisa 1e18 to decimals\n    uint256 b = balanceCompound();\n    if (b > 0) {\n      b = b.mul(Compound(compound).exchangeRateStored()).div(1e18);\n    }\n    return b;\n  }\n  function balanceFulcrumInToken() public view returns (uint256) {\n    uint256 b = balanceFulcrum();\n    if (b > 0) {\n      b = Fulcrum(fulcrum).assetBalanceOf(address(this));\n    }\n    return b;\n  }\n  function balanceFulcrum() public view returns (uint256) {\n    return IERC20(fulcrum).balanceOf(address(this));\n  }\n  function balanceAave() public view returns (uint256) {\n    return IERC20(aaveToken).balanceOf(address(this));\n  }\n\n  function _balance() internal view returns (uint256) {\n    return IERC20(token).balanceOf(address(this));\n  }\n\n  function _balanceDydx() internal view returns (uint256) {\n      Wei memory bal = DyDx(dydx).getAccountWei(Info(address(this), 0), dToken);\n      return bal.value;\n  }\n  function _balanceCompound() internal view returns (uint256) {\n      return IERC20(compound).balanceOf(address(this));\n  }\n  function _balanceCompoundInToken() internal view returns (uint256) {\n    // Mantisa 1e18 to decimals\n    uint256 b = balanceCompound();\n    if (b > 0) {\n      b = b.mul(Compound(compound).exchangeRateStored()).div(1e18);\n    }\n    return b;\n  }\n  function _balanceFulcrumInToken() internal view returns (uint256) {\n    uint256 b = balanceFulcrum();\n    if (b > 0) {\n      b = Fulcrum(fulcrum).assetBalanceOf(address(this));\n    }\n    return b;\n  }\n  function _balanceFulcrum() internal view returns (uint256) {\n    return IERC20(fulcrum).balanceOf(address(this));\n  }\n  function _balanceAave() internal view returns (uint256) {\n    return IERC20(aaveToken).balanceOf(address(this));\n  }\n\n  function _withdrawAll() internal {\n    uint256 amount = _balanceCompound();\n    if (amount > 0) {\n      _withdrawCompound(amount);\n    }\n    amount = _balanceDydx();\n    if (amount > 0) {\n      _withdrawDydx(amount);\n    }\n    amount = _balanceFulcrum();\n    if (amount > 0) {\n      _withdrawFulcrum(amount);\n    }\n    amount = _balanceAave();\n    if (amount > 0) {\n      _withdrawAave(amount);\n    }\n  }\n\n  function _withdrawSomeCompound(uint256 _amount) internal {\n    uint256 b = balanceCompound();\n    uint256 bT = balanceCompoundInToken();\n    require(bT >= _amount, \"insufficient funds\");\n    // can have unintentional rounding errors\n    uint256 amount = (b.mul(_amount)).div(bT).add(1);\n    _withdrawCompound(amount);\n  }\n\n  // 1999999614570950845\n  function _withdrawSomeFulcrum(uint256 _amount) internal {\n    // Balance of fulcrum tokens, 1 iDAI = 1.00x DAI\n    uint256 b = balanceFulcrum(); // 1970469086655766652\n    // Balance of token in fulcrum\n    uint256 bT = balanceFulcrumInToken(); // 2000000803224344406\n    require(bT >= _amount, \"insufficient funds\");\n    // can have unintentional rounding errors\n    uint256 amount = (b.mul(_amount)).div(bT).add(1);\n    _withdrawFulcrum(amount);\n  }\n\n  function _withdrawSome(uint256 _amount) internal {\n    if (provider == Lender.COMPOUND) {\n      _withdrawSomeCompound(_amount);\n    }\n    if (provider == Lender.AAVE) {\n      require(balanceAave() >= _amount, \"insufficient funds\");\n      _withdrawAave(_amount);\n    }\n    if (provider == Lender.DYDX) {\n      require(balanceDydx() >= _amount, \"insufficient funds\");\n      _withdrawDydx(_amount);\n    }\n    if (provider == Lender.FULCRUM) {\n      _withdrawSomeFulcrum(_amount);\n    }\n  }\n\n  function rebalance() public {\n    Lender newProvider = recommend();\n\n    if (newProvider != provider) {\n      _withdrawAll();\n    }\n\n    if (balance() > 0) {\n      if (newProvider == Lender.DYDX) {\n        supplyDydx(balance());\n      } else if (newProvider == Lender.FULCRUM) {\n        supplyFulcrum(balance());\n      } else if (newProvider == Lender.COMPOUND) {\n        supplyCompound(balance());\n      } else if (newProvider == Lender.AAVE) {\n        supplyAave(balance());\n      }\n    }\n\n    provider = newProvider;\n  }\n\n  // Internal only rebalance for better gas in redeem\n  function _rebalance(Lender newProvider) internal {\n    if (_balance() > 0) {\n      if (newProvider == Lender.DYDX) {\n        supplyDydx(_balance());\n      } else if (newProvider == Lender.FULCRUM) {\n        supplyFulcrum(_balance());\n      } else if (newProvider == Lender.COMPOUND) {\n        supplyCompound(_balance());\n      } else if (newProvider == Lender.AAVE) {\n        supplyAave(_balance());\n      }\n    }\n    provider = newProvider;\n  }\n\n  function supplyAave(uint amount) public {\n      Aave(getAave()).deposit(token, amount, 0);\n  }\n  function supplyFulcrum(uint amount) public {\n      require(Fulcrum(fulcrum).mint(address(this), amount) > 0, \"FULCRUM: supply failed\");\n  }\n  function supplyCompound(uint amount) public {\n      require(Compound(compound).mint(amount) == 0, \"COMPOUND: supply failed\");\n  }\n  function _withdrawAave(uint amount) internal {\n      AToken(aaveToken).redeem(amount);\n  }\n  function _withdrawFulcrum(uint amount) internal {\n      require(Fulcrum(fulcrum).burn(address(this), amount) > 0, \"FULCRUM: withdraw failed\");\n  }\n  function _withdrawCompound(uint amount) internal {\n      require(Compound(compound).redeem(amount) == 0, \"COMPOUND: withdraw failed\");\n  }\n\n  function invest(uint256 _amount)\n      external\n      nonReentrant\n  {\n      require(_amount > 0, \"deposit must be greater than 0\");\n      pool = calcPoolValueInToken();\n\n      IERC20(token).safeTransferFrom(msg.sender, address(this), _amount);\n\n      rebalance();\n\n      // Calculate pool shares\n      uint256 shares = 0;\n      if (pool == 0) {\n        shares = _amount;\n        pool = _amount;\n      } else {\n        shares = (_amount.mul(_totalSupply)).div(pool);\n      }\n      pool = calcPoolValueInToken();\n      _mint(msg.sender, shares);\n  }\n\n  function _calcPoolValueInToken() internal view returns (uint) {\n    return _balanceCompoundInToken()\n      .add(_balanceFulcrumInToken())\n      .add(_balanceDydx())\n      .add(_balanceAave())\n      .add(_balance());\n  }\n\n  function calcPoolValueInToken() public view returns (uint) {\n    return balanceCompoundInToken()\n      .add(balanceFulcrumInToken())\n      .add(balanceDydx())\n      .add(balanceAave())\n      .add(balance());\n  }\n\n  function getPricePerFullShare() public view returns (uint) {\n    uint _pool = calcPoolValueInToken();\n    return _pool.mul(1e18).div(_totalSupply);\n  }\n\n  // Redeem any invested tokens from the pool\n  function redeem(uint256 _shares)\n      external\n      nonReentrant\n  {\n      require(_shares > 0, \"withdraw must be greater than 0\");\n\n      uint256 ibalance = balanceOf(msg.sender);\n      require(_shares <= ibalance, \"insufficient balance\");\n\n      // Could have over value from cTokens\n      pool = calcPoolValueInToken();\n      // Calc to redeem before updating balances\n      uint256 r = (pool.mul(_shares)).div(_totalSupply);\n\n\n      _balances[msg.sender] = _balances[msg.sender].sub(_shares, \"redeem amount exceeds balance\");\n      _totalSupply = _totalSupply.sub(_shares);\n\n      emit Transfer(msg.sender, address(0), _shares);\n\n      // Check ETH balance\n      uint256 b = IERC20(token).balanceOf(address(this));\n      Lender newProvider = provider;\n      if (b < r) {\n        newProvider = recommend();\n        if (newProvider != provider) {\n          _withdrawAll();\n        } else {\n          _withdrawSome(r.sub(b));\n        }\n      }\n\n      IERC20(token).safeTransfer(msg.sender, r);\n\n      if (newProvider != provider) {\n        _rebalance(newProvider);\n      }\n      pool = calcPoolValueInToken();\n  }\n}\n",
  "sourcePath": "C:/Users/merun/Desktop/yeld-contracts/contracts/yUSDC.sol",
  "compiler": {
    "name": "solc",
    "version": "0.5.17+commit.d19bba13.Emscripten.clang"
  },
  "schemaVersion": "3.2.2",
  "updatedAt": "2021-01-16T17:40:37.237Z",
  "devdoc": {
    "methods": {}
  },
  "userdoc": {
    "methods": {}
  }
}