{
  "contractName": "yUSDC",
  "abi": [
    {
      "inputs": [
        {
          "internalType": "address",
          "name": "_yeldToken",
          "type": "address"
        },
        {
          "internalType": "address payable",
          "name": "_retirementYeldTreasury",
          "type": "address"
        }
      ],
      "payable": false,
      "stateMutability": "nonpayable",
      "type": "constructor"
    },
    {
      "anonymous": false,
      "inputs": [
        {
          "indexed": true,
          "internalType": "address",
          "name": "owner",
          "type": "address"
        },
        {
          "indexed": true,
          "internalType": "address",
          "name": "spender",
          "type": "address"
        },
        {
          "indexed": false,
          "internalType": "uint256",
          "name": "value",
          "type": "uint256"
        }
      ],
      "name": "Approval",
      "type": "event"
    },
    {
      "anonymous": false,
      "inputs": [
        {
          "indexed": true,
          "internalType": "address",
          "name": "previousOwner",
          "type": "address"
        },
        {
          "indexed": true,
          "internalType": "address",
          "name": "newOwner",
          "type": "address"
        }
      ],
      "name": "OwnershipTransferred",
      "type": "event"
    },
    {
      "anonymous": false,
      "inputs": [
        {
          "indexed": true,
          "internalType": "address",
          "name": "from",
          "type": "address"
        },
        {
          "indexed": true,
          "internalType": "address",
          "name": "to",
          "type": "address"
        },
        {
          "indexed": false,
          "internalType": "uint256",
          "name": "value",
          "type": "uint256"
        }
      ],
      "name": "Transfer",
      "type": "event"
    },
    {
      "payable": true,
      "stateMutability": "payable",
      "type": "fallback"
    },
    {
      "constant": true,
      "inputs": [],
      "name": "aave",
      "outputs": [
        {
          "internalType": "address",
          "name": "",
          "type": "address"
        }
      ],
      "payable": false,
      "stateMutability": "view",
      "type": "function"
    },
    {
      "constant": true,
      "inputs": [],
      "name": "aaveToken",
      "outputs": [
        {
          "internalType": "address",
          "name": "",
          "type": "address"
        }
      ],
      "payable": false,
      "stateMutability": "view",
      "type": "function"
    },
    {
      "constant": true,
      "inputs": [
        {
          "internalType": "address",
          "name": "owner",
          "type": "address"
        },
        {
          "internalType": "address",
          "name": "spender",
          "type": "address"
        }
      ],
      "name": "allowance",
      "outputs": [
        {
          "internalType": "uint256",
          "name": "",
          "type": "uint256"
        }
      ],
      "payable": false,
      "stateMutability": "view",
      "type": "function"
    },
    {
      "constant": false,
      "inputs": [
        {
          "internalType": "address",
          "name": "spender",
          "type": "address"
        },
        {
          "internalType": "uint256",
          "name": "amount",
          "type": "uint256"
        }
      ],
      "name": "approve",
      "outputs": [
        {
          "internalType": "bool",
          "name": "",
          "type": "bool"
        }
      ],
      "payable": false,
      "stateMutability": "nonpayable",
      "type": "function"
    },
    {
      "constant": true,
      "inputs": [],
      "name": "apr",
      "outputs": [
        {
          "internalType": "address",
          "name": "",
          "type": "address"
        }
      ],
      "payable": false,
      "stateMutability": "view",
      "type": "function"
    },
    {
      "constant": true,
      "inputs": [
        {
          "internalType": "address",
          "name": "account",
          "type": "address"
        }
      ],
      "name": "balanceOf",
      "outputs": [
        {
          "internalType": "uint256",
          "name": "",
          "type": "uint256"
        }
      ],
      "payable": false,
      "stateMutability": "view",
      "type": "function"
    },
    {
      "constant": true,
      "inputs": [],
      "name": "compound",
      "outputs": [
        {
          "internalType": "address",
          "name": "",
          "type": "address"
        }
      ],
      "payable": false,
      "stateMutability": "view",
      "type": "function"
    },
    {
      "constant": true,
      "inputs": [],
      "name": "dToken",
      "outputs": [
        {
          "internalType": "uint256",
          "name": "",
          "type": "uint256"
        }
      ],
      "payable": false,
      "stateMutability": "view",
      "type": "function"
    },
    {
      "constant": true,
      "inputs": [],
      "name": "dai",
      "outputs": [
        {
          "internalType": "address",
          "name": "",
          "type": "address"
        }
      ],
      "payable": false,
      "stateMutability": "view",
      "type": "function"
    },
    {
      "constant": true,
      "inputs": [],
      "name": "decimals",
      "outputs": [
        {
          "internalType": "uint8",
          "name": "",
          "type": "uint8"
        }
      ],
      "payable": false,
      "stateMutability": "view",
      "type": "function"
    },
    {
      "constant": false,
      "inputs": [
        {
          "internalType": "address",
          "name": "spender",
          "type": "address"
        },
        {
          "internalType": "uint256",
          "name": "subtractedValue",
          "type": "uint256"
        }
      ],
      "name": "decreaseAllowance",
      "outputs": [
        {
          "internalType": "bool",
          "name": "",
          "type": "bool"
        }
      ],
      "payable": false,
      "stateMutability": "nonpayable",
      "type": "function"
    },
    {
      "constant": true,
      "inputs": [
        {
          "internalType": "address",
          "name": "",
          "type": "address"
        }
      ],
      "name": "depositAmount",
      "outputs": [
        {
          "internalType": "uint256",
          "name": "",
          "type": "uint256"
        }
      ],
      "payable": false,
      "stateMutability": "view",
      "type": "function"
    },
    {
      "constant": true,
      "inputs": [
        {
          "internalType": "address",
          "name": "",
          "type": "address"
        }
      ],
      "name": "depositBlockStarts",
      "outputs": [
        {
          "internalType": "uint256",
          "name": "",
          "type": "uint256"
        }
      ],
      "payable": false,
      "stateMutability": "view",
      "type": "function"
    },
    {
      "constant": true,
      "inputs": [],
      "name": "dydx",
      "outputs": [
        {
          "internalType": "address",
          "name": "",
          "type": "address"
        }
      ],
      "payable": false,
      "stateMutability": "view",
      "type": "function"
    },
    {
      "constant": true,
      "inputs": [],
      "name": "fulcrum",
      "outputs": [
        {
          "internalType": "address",
          "name": "",
          "type": "address"
        }
      ],
      "payable": false,
      "stateMutability": "view",
      "type": "function"
    },
    {
      "constant": true,
      "inputs": [
        {
          "internalType": "address",
          "name": "_yeld",
          "type": "address"
        },
        {
          "internalType": "address",
          "name": "_weth",
          "type": "address"
        },
        {
          "internalType": "address",
          "name": "_dai",
          "type": "address"
        },
        {
          "internalType": "address",
          "name": "_uniswap",
          "type": "address"
        }
      ],
      "name": "getYeldPriceInDai",
      "outputs": [
        {
          "internalType": "uint256",
          "name": "",
          "type": "uint256"
        }
      ],
      "payable": false,
      "stateMutability": "view",
      "type": "function"
    },
    {
      "constant": true,
      "inputs": [],
      "name": "holdPercentage",
      "outputs": [
        {
          "internalType": "uint256",
          "name": "",
          "type": "uint256"
        }
      ],
      "payable": false,
      "stateMutability": "view",
      "type": "function"
    },
    {
      "constant": false,
      "inputs": [
        {
          "internalType": "address",
          "name": "spender",
          "type": "address"
        },
        {
          "internalType": "uint256",
          "name": "addedValue",
          "type": "uint256"
        }
      ],
      "name": "increaseAllowance",
      "outputs": [
        {
          "internalType": "bool",
          "name": "",
          "type": "bool"
        }
      ],
      "payable": false,
      "stateMutability": "nonpayable",
      "type": "function"
    },
    {
      "constant": true,
      "inputs": [],
      "name": "isOwner",
      "outputs": [
        {
          "internalType": "bool",
          "name": "",
          "type": "bool"
        }
      ],
      "payable": false,
      "stateMutability": "view",
      "type": "function"
    },
    {
      "constant": true,
      "inputs": [],
      "name": "maximumTokensToBurn",
      "outputs": [
        {
          "internalType": "uint256",
          "name": "",
          "type": "uint256"
        }
      ],
      "payable": false,
      "stateMutability": "view",
      "type": "function"
    },
    {
      "constant": true,
      "inputs": [],
      "name": "name",
      "outputs": [
        {
          "internalType": "string",
          "name": "",
          "type": "string"
        }
      ],
      "payable": false,
      "stateMutability": "view",
      "type": "function"
    },
    {
      "constant": true,
      "inputs": [],
      "name": "oneDayInBlocks",
      "outputs": [
        {
          "internalType": "uint256",
          "name": "",
          "type": "uint256"
        }
      ],
      "payable": false,
      "stateMutability": "view",
      "type": "function"
    },
    {
      "constant": true,
      "inputs": [],
      "name": "oneMillion",
      "outputs": [
        {
          "internalType": "uint256",
          "name": "",
          "type": "uint256"
        }
      ],
      "payable": false,
      "stateMutability": "view",
      "type": "function"
    },
    {
      "constant": true,
      "inputs": [],
      "name": "owner",
      "outputs": [
        {
          "internalType": "address payable",
          "name": "",
          "type": "address"
        }
      ],
      "payable": false,
      "stateMutability": "view",
      "type": "function"
    },
    {
      "constant": true,
      "inputs": [],
      "name": "pool",
      "outputs": [
        {
          "internalType": "uint256",
          "name": "",
          "type": "uint256"
        }
      ],
      "payable": false,
      "stateMutability": "view",
      "type": "function"
    },
    {
      "constant": true,
      "inputs": [],
      "name": "provider",
      "outputs": [
        {
          "internalType": "enum yUSDC.Lender",
          "name": "",
          "type": "uint8"
        }
      ],
      "payable": false,
      "stateMutability": "view",
      "type": "function"
    },
    {
      "constant": false,
      "inputs": [],
      "name": "renounceOwnership",
      "outputs": [],
      "payable": false,
      "stateMutability": "nonpayable",
      "type": "function"
    },
    {
      "constant": true,
      "inputs": [],
      "name": "retirementYeldTreasury",
      "outputs": [
        {
          "internalType": "address payable",
          "name": "",
          "type": "address"
        }
      ],
      "payable": false,
      "stateMutability": "view",
      "type": "function"
    },
    {
      "constant": true,
      "inputs": [],
      "name": "symbol",
      "outputs": [
        {
          "internalType": "string",
          "name": "",
          "type": "string"
        }
      ],
      "payable": false,
      "stateMutability": "view",
      "type": "function"
    },
    {
      "constant": true,
      "inputs": [],
      "name": "token",
      "outputs": [
        {
          "internalType": "address",
          "name": "",
          "type": "address"
        }
      ],
      "payable": false,
      "stateMutability": "view",
      "type": "function"
    },
    {
      "constant": true,
      "inputs": [],
      "name": "totalSupply",
      "outputs": [
        {
          "internalType": "uint256",
          "name": "",
          "type": "uint256"
        }
      ],
      "payable": false,
      "stateMutability": "view",
      "type": "function"
    },
    {
      "constant": false,
      "inputs": [
        {
          "internalType": "address",
          "name": "recipient",
          "type": "address"
        },
        {
          "internalType": "uint256",
          "name": "amount",
          "type": "uint256"
        }
      ],
      "name": "transfer",
      "outputs": [
        {
          "internalType": "bool",
          "name": "",
          "type": "bool"
        }
      ],
      "payable": false,
      "stateMutability": "nonpayable",
      "type": "function"
    },
    {
      "constant": false,
      "inputs": [
        {
          "internalType": "address",
          "name": "sender",
          "type": "address"
        },
        {
          "internalType": "address",
          "name": "recipient",
          "type": "address"
        },
        {
          "internalType": "uint256",
          "name": "amount",
          "type": "uint256"
        }
      ],
      "name": "transferFrom",
      "outputs": [
        {
          "internalType": "bool",
          "name": "",
          "type": "bool"
        }
      ],
      "payable": false,
      "stateMutability": "nonpayable",
      "type": "function"
    },
    {
      "constant": false,
      "inputs": [
        {
          "internalType": "address payable",
          "name": "newOwner",
          "type": "address"
        }
      ],
      "name": "transferOwnership",
      "outputs": [],
      "payable": false,
      "stateMutability": "nonpayable",
      "type": "function"
    },
    {
      "constant": true,
      "inputs": [],
      "name": "uniswapRouter",
      "outputs": [
        {
          "internalType": "address",
          "name": "",
          "type": "address"
        }
      ],
      "payable": false,
      "stateMutability": "view",
      "type": "function"
    },
    {
      "constant": true,
      "inputs": [],
      "name": "usdc",
      "outputs": [
        {
          "internalType": "address",
          "name": "",
          "type": "address"
        }
      ],
      "payable": false,
      "stateMutability": "view",
      "type": "function"
    },
    {
      "constant": true,
      "inputs": [],
      "name": "weth",
      "outputs": [
        {
          "internalType": "address",
          "name": "",
          "type": "address"
        }
      ],
      "payable": false,
      "stateMutability": "view",
      "type": "function"
    },
    {
      "constant": true,
      "inputs": [],
      "name": "yeldToRewardPerDay",
      "outputs": [
        {
          "internalType": "uint256",
          "name": "",
          "type": "uint256"
        }
      ],
      "payable": false,
      "stateMutability": "view",
      "type": "function"
    },
    {
      "constant": true,
      "inputs": [],
      "name": "yeldToken",
      "outputs": [
        {
          "internalType": "contract IERC20",
          "name": "",
          "type": "address"
        }
      ],
      "payable": false,
      "stateMutability": "view",
      "type": "function"
    },
    {
      "constant": false,
      "inputs": [
        {
          "internalType": "address payable",
          "name": "_treasury",
          "type": "address"
        }
      ],
      "name": "setRetirementYeldTreasury",
      "outputs": [],
      "payable": false,
      "stateMutability": "nonpayable",
      "type": "function"
    },
    {
      "constant": false,
      "inputs": [
        {
          "internalType": "address",
          "name": "_uniswapRouter",
          "type": "address"
        }
      ],
      "name": "setUniswapRouter",
      "outputs": [],
      "payable": false,
      "stateMutability": "nonpayable",
      "type": "function"
    },
    {
      "constant": false,
      "inputs": [
        {
          "internalType": "address",
          "name": "_yeldToken",
          "type": "address"
        }
      ],
      "name": "setYeldToken",
      "outputs": [],
      "payable": false,
      "stateMutability": "nonpayable",
      "type": "function"
    },
    {
      "constant": false,
      "inputs": [
        {
          "internalType": "address",
          "name": "_token",
          "type": "address"
        },
        {
          "internalType": "uint256",
          "name": "_amount",
          "type": "uint256"
        }
      ],
      "name": "extractTokensIfStuck",
      "outputs": [],
      "payable": false,
      "stateMutability": "nonpayable",
      "type": "function"
    },
    {
      "constant": false,
      "inputs": [],
      "name": "extractETHIfStuck",
      "outputs": [],
      "payable": false,
      "stateMutability": "nonpayable",
      "type": "function"
    },
    {
      "constant": false,
      "inputs": [
        {
          "internalType": "uint256",
          "name": "_amount",
          "type": "uint256"
        }
      ],
      "name": "changeYeldToRewardPerDay",
      "outputs": [],
      "payable": false,
      "stateMutability": "nonpayable",
      "type": "function"
    },
    {
      "constant": true,
      "inputs": [],
      "name": "getGeneratedYelds",
      "outputs": [
        {
          "internalType": "uint256",
          "name": "",
          "type": "uint256"
        }
      ],
      "payable": false,
      "stateMutability": "view",
      "type": "function"
    },
    {
      "constant": false,
      "inputs": [
        {
          "internalType": "uint256",
          "name": "_holdPercentage",
          "type": "uint256"
        }
      ],
      "name": "setHoldPercentage",
      "outputs": [],
      "payable": false,
      "stateMutability": "nonpayable",
      "type": "function"
    },
    {
      "constant": false,
      "inputs": [
        {
          "internalType": "uint256",
          "name": "_amount",
          "type": "uint256"
        }
      ],
      "name": "deposit",
      "outputs": [],
      "payable": false,
      "stateMutability": "nonpayable",
      "type": "function"
    },
    {
      "constant": false,
      "inputs": [
        {
          "internalType": "uint256",
          "name": "_shares",
          "type": "uint256"
        }
      ],
      "name": "withdraw",
      "outputs": [],
      "payable": false,
      "stateMutability": "nonpayable",
      "type": "function"
    },
    {
      "constant": true,
      "inputs": [],
      "name": "recommend",
      "outputs": [
        {
          "internalType": "enum yUSDC.Lender",
          "name": "",
          "type": "uint8"
        }
      ],
      "payable": false,
      "stateMutability": "view",
      "type": "function"
    },
    {
      "constant": false,
      "inputs": [
        {
          "internalType": "uint256",
          "name": "amount",
          "type": "uint256"
        }
      ],
      "name": "supplyDydx",
      "outputs": [
        {
          "internalType": "uint256",
          "name": "",
          "type": "uint256"
        }
      ],
      "payable": false,
      "stateMutability": "nonpayable",
      "type": "function"
    },
    {
      "constant": true,
      "inputs": [],
      "name": "getAave",
      "outputs": [
        {
          "internalType": "address",
          "name": "",
          "type": "address"
        }
      ],
      "payable": false,
      "stateMutability": "view",
      "type": "function"
    },
    {
      "constant": true,
      "inputs": [],
      "name": "getAaveCore",
      "outputs": [
        {
          "internalType": "address",
          "name": "",
          "type": "address"
        }
      ],
      "payable": false,
      "stateMutability": "view",
      "type": "function"
    },
    {
      "constant": false,
      "inputs": [],
      "name": "approveToken",
      "outputs": [],
      "payable": false,
      "stateMutability": "nonpayable",
      "type": "function"
    },
    {
      "constant": true,
      "inputs": [],
      "name": "balance",
      "outputs": [
        {
          "internalType": "uint256",
          "name": "",
          "type": "uint256"
        }
      ],
      "payable": false,
      "stateMutability": "view",
      "type": "function"
    },
    {
      "constant": true,
      "inputs": [],
      "name": "balanceDydx",
      "outputs": [
        {
          "internalType": "uint256",
          "name": "",
          "type": "uint256"
        }
      ],
      "payable": false,
      "stateMutability": "view",
      "type": "function"
    },
    {
      "constant": true,
      "inputs": [],
      "name": "balanceCompound",
      "outputs": [
        {
          "internalType": "uint256",
          "name": "",
          "type": "uint256"
        }
      ],
      "payable": false,
      "stateMutability": "view",
      "type": "function"
    },
    {
      "constant": true,
      "inputs": [],
      "name": "balanceCompoundInToken",
      "outputs": [
        {
          "internalType": "uint256",
          "name": "",
          "type": "uint256"
        }
      ],
      "payable": false,
      "stateMutability": "view",
      "type": "function"
    },
    {
      "constant": true,
      "inputs": [],
      "name": "balanceFulcrumInToken",
      "outputs": [
        {
          "internalType": "uint256",
          "name": "",
          "type": "uint256"
        }
      ],
      "payable": false,
      "stateMutability": "view",
      "type": "function"
    },
    {
      "constant": true,
      "inputs": [],
      "name": "balanceFulcrum",
      "outputs": [
        {
          "internalType": "uint256",
          "name": "",
          "type": "uint256"
        }
      ],
      "payable": false,
      "stateMutability": "view",
      "type": "function"
    },
    {
      "constant": true,
      "inputs": [],
      "name": "balanceAave",
      "outputs": [
        {
          "internalType": "uint256",
          "name": "",
          "type": "uint256"
        }
      ],
      "payable": false,
      "stateMutability": "view",
      "type": "function"
    },
    {
      "constant": false,
      "inputs": [],
      "name": "rebalance",
      "outputs": [],
      "payable": false,
      "stateMutability": "nonpayable",
      "type": "function"
    },
    {
      "constant": false,
      "inputs": [
        {
          "internalType": "uint256",
          "name": "amount",
          "type": "uint256"
        }
      ],
      "name": "supplyAave",
      "outputs": [],
      "payable": false,
      "stateMutability": "nonpayable",
      "type": "function"
    },
    {
      "constant": false,
      "inputs": [
        {
          "internalType": "uint256",
          "name": "amount",
          "type": "uint256"
        }
      ],
      "name": "supplyFulcrum",
      "outputs": [],
      "payable": false,
      "stateMutability": "nonpayable",
      "type": "function"
    },
    {
      "constant": false,
      "inputs": [
        {
          "internalType": "uint256",
          "name": "amount",
          "type": "uint256"
        }
      ],
      "name": "supplyCompound",
      "outputs": [],
      "payable": false,
      "stateMutability": "nonpayable",
      "type": "function"
    },
    {
      "constant": false,
      "inputs": [
        {
          "internalType": "uint256",
          "name": "_amount",
          "type": "uint256"
        }
      ],
      "name": "invest",
      "outputs": [],
      "payable": false,
      "stateMutability": "nonpayable",
      "type": "function"
    },
    {
      "constant": true,
      "inputs": [],
      "name": "calcPoolValueInToken",
      "outputs": [
        {
          "internalType": "uint256",
          "name": "",
          "type": "uint256"
        }
      ],
      "payable": false,
      "stateMutability": "view",
      "type": "function"
    },
    {
      "constant": true,
      "inputs": [],
      "name": "getPricePerFullShare",
      "outputs": [
        {
          "internalType": "uint256",
          "name": "",
          "type": "uint256"
        }
      ],
      "payable": false,
      "stateMutability": "view",
      "type": "function"
    },
    {
      "constant": false,
      "inputs": [
        {
          "internalType": "uint256",
          "name": "_shares",
          "type": "uint256"
        }
      ],
      "name": "redeem",
      "outputs": [],
      "payable": false,
      "stateMutability": "nonpayable",
      "type": "function"
    }
  ],
  "bytecode": "0x6080604052601380546001600160a01b0319908116737a250d5630b4cf539739df2c5dacb4c659f2488d1790915560148054821673a0b86991c6218b36c1d19d4a2e9eb0ce3606eb4817905560158054821673c02aaa39b223fe8d0a0e5c4f27ead9083c756cc217905560168054909116736b175474e89094c44da98b954eedeac495271d0f179055690a968163f0a57b4000006019556000601a55674563918244f40000601b55601c805460ff19169055348015620000be57600080fd5b5060405162005e4b38038062005e4b833981016040819052620000e1916200037f565b604080518082018252600981526879656c64205553444360b81b602080830191825283518085019094526005845264795553444360d81b908401528151919291600691620001339160039190620002ca565b50815162000149906004906020850190620002ca565b506005805460ff191660ff92909216919091179055505060016006556200016f620002c5565b600780546001600160a01b0319166001600160a01b0392831617908190556040519116906000907f8be0079c531659141344cd1fd0a4f28419497f9722a3daafe3b4186f6b6457e0908290a3600980546001600160a01b031990811673a0b86991c6218b36c1d19d4a2e9eb0ce3606eb481790915560108054821673dd6d648c991f7d47454354f4ef326b04025a48a8179055600e80548216731e0447b19bb6ecfdae1e4ae1694b0c3659614e4e179055600c805482167324a42fd28c976a61df5d00d0599c34c4f90748c8179055600b8054821673f013406a0b1d544238083df0b93ad0d2cbe0f65f179055600d80548216739ba00d6856a4edf4665bca2c2309936572473b7e179055600a805482167339aa39c021dfbae8fac545936693ac917d5e75631790556002600f55601880546001600160a01b0394851690831617905560178054929093169116179055620003ea565b335b90565b828054600181600116156101000203166002900490600052602060002090601f016020900481019282601f106200030d57805160ff19168380011785556200033d565b828001600101855582156200033d579182015b828111156200033d57825182559160200191906001019062000320565b506200034b9291506200034f565b5090565b620002c791905b808211156200034b576000815560010162000356565b80516200037981620003d0565b92915050565b600080604083850312156200039357600080fd5b6000620003a185856200036c565b9250506020620003b4858286016200036c565b9150509250929050565b60006001600160a01b03821662000379565b620003db81620003be565b8114620003e757600080fd5b50565b615a5180620003fa6000396000f3fe60806040526004361061044a5760003560e01c80637d7c2a1c11610243578063cf8ca42611610143578063f29e15a2116100bb578063f5a41dea1161008a578063f7c1ec771161006f578063f7c1ec7714610b2d578063f82ce27d14610b42578063fc0c546a14610b575761044a565b8063f5a41dea14610b03578063f69e204614610b185761044a565b8063f29e15a214610a99578063f2fde38b14610aae578063f34ce4bb14610ace578063f4b9fa7514610aee5761044a565b8063e26f21bf11610112578063ebc51160116100f7578063ebc5116014610a4f578063f02fbd4a14610a64578063f2978d9814610a845761044a565b8063e26f21bf14610a0f578063e849d65914610a2f5761044a565b8063cf8ca426146109a5578063d9d7858a146109ba578063db006a75146109cf578063dd62ed3e146109ef5761044a565b806399b71d5c116101d6578063a9059cbb116101a5578063b69ef8a81161018a578063b69ef8a814610950578063b6b55f2514610965578063bea9849e146109855761044a565b8063a9059cbb14610910578063a9a1015a146109305761044a565b806399b71d5c146108b1578063a160176d146108c6578063a457c2d7146108db578063a7287971146108fb5761044a565b80638da5cb5b116102125780638da5cb5b1461085d5780638e4ec6ef146108725780638f32d59b1461088757806395d89b411461089c5761044a565b80637d7c2a1c146107f15780637f50d4d8146108065780638124955c14610828578063819faf7b146108485761044a565b80633e413bee1161034e57806361c1ec55116102e15780637137ef99116102b0578063735de9f711610295578063735de9f7146107a757806377c7b8fc146107bc5780637b82784c146107d15761044a565b80637137ef991461077d578063715018a6146107925761044a565b806361c1ec551461071357806365aab749146107285780636ff2bf081461074857806370a082311461075d5761044a565b80634fe411291161031d5780634fe41129146106b457806350f62da7146106c957806357ded9c9146106e957806358782c21146106fe5761044a565b80633e413bee146106555780633fc8cef31461066a578063413e920d1461067f5780634fd96cb6146106945761044a565b8063202a2735116103e15780632e1a7d4d116103b0578063313ce56711610395578063313ce567146105fe578063395093511461062057806339c0a7e1146106405761044a565b80632e1a7d4d146105be5780632eb4520a146105de5761044a565b8063202a27351461055457806323b872dd146105695780632622678c146105895780632afcf4801461059e5761044a565b8063095ea7b31161041d578063095ea7b3146104e85780630eb2a2671461051557806316f0115b1461052a57806318160ddd1461053f5761044a565b806306636c1c1461044c57806306a3fe591461048257806306fdde03146104a4578063085d4883146104c6575b005b34801561045857600080fd5b5061046c6104673660046149df565b610b6c565b604051610479919061571a565b60405180910390f35b34801561048e57600080fd5b50610497610d23565b604051610479919061544f565b3480156104b057600080fd5b506104b9610d3f565b604051610479919061556e565b3480156104d257600080fd5b506104db610df4565b6040516104799190615540565b3480156104f457600080fd5b506105086105033660046148b2565b610dfd565b6040516104799190615524565b34801561052157600080fd5b5061046c610e1b565b34801561053657600080fd5b5061046c610ec7565b34801561054b57600080fd5b5061046c610ecd565b34801561056057600080fd5b5061046c610ed3565b34801561057557600080fd5b50610508610584366004614865565b610ed9565b34801561059557600080fd5b50610497610f81565b3480156105aa57600080fd5b5061044a6105b93660046149df565b610f9d565b3480156105ca57600080fd5b5061044a6105d93660046149df565b6110bb565b3480156105ea57600080fd5b5061044a6105f936600461478e565b6116cf565b34801561060a57600080fd5b50610613611754565b60405161047991906157b7565b34801561062c57600080fd5b5061050861063b3660046148b2565b61175d565b34801561064c57600080fd5b5061046c6117be565b34801561066157600080fd5b5061049761188b565b34801561067657600080fd5b506104976118a7565b34801561068b57600080fd5b5061046c6118c3565b3480156106a057600080fd5b5061044a6106af36600461478e565b6118ca565b3480156106c057600080fd5b5061044a61194f565b3480156106d557600080fd5b5061046c6106e436600461478e565b6119dd565b3480156106f557600080fd5b506104976119ef565b34801561070a57600080fd5b50610497611a0b565b34801561071f57600080fd5b5061046c611a27565b34801561073457600080fd5b5061044a6107433660046149df565b611a7e565b34801561075457600080fd5b5061046c611b17565b34801561076957600080fd5b5061046c61077836600461478e565b611bef565b34801561078957600080fd5b5061046c611c1b565b34801561079e57600080fd5b5061044a611c5d565b3480156107b357600080fd5b50610497611d0a565b3480156107c857600080fd5b5061046c611d26565b3480156107dd57600080fd5b5061046c6107ec36600461478e565b611d59565b3480156107fd57600080fd5b5061044a611d6b565b34801561081257600080fd5b5061081b611e78565b6040516104799190615532565b34801561083457600080fd5b5061044a6108433660046149df565b611e94565b34801561085457600080fd5b50610497611f76565b34801561086957600080fd5b50610497611f92565b34801561087e57600080fd5b50610497611fae565b34801561089357600080fd5b50610508611fca565b3480156108a857600080fd5b506104b961200a565b3480156108bd57600080fd5b5061044a612089565b3480156108d257600080fd5b506104db6121cc565b3480156108e757600080fd5b506105086108f63660046148b2565b612322565b34801561090757600080fd5b5061046c61239d565b34801561091c57600080fd5b5061050861092b3660046148b2565b61246c565b34801561093c57600080fd5b5061044a61094b3660046148b2565b612480565b34801561095c57600080fd5b5061046c612569565b34801561097157600080fd5b5061044a6109803660046149df565b6125c0565b34801561099157600080fd5b5061044a6109a036600461478e565b6128a1565b3480156109b157600080fd5b5061046c612926565b3480156109c657600080fd5b5061046c61297d565b3480156109db57600080fd5b5061044a6109ea3660046149df565b612983565b3480156109fb57600080fd5b5061046c610a0a3660046147ca565b612c98565b348015610a1b57600080fd5b5061044a610a2a3660046149df565b612cd0565b348015610a3b57600080fd5b5061044a610a4a3660046149df565b612d13565b348015610a5b57600080fd5b5061046c612df2565b348015610a7057600080fd5b5061044a610a7f3660046149df565b612df8565b348015610a9057600080fd5b5061046c612e3b565b348015610aa557600080fd5b5061046c612e41565b348015610aba57600080fd5b5061044a610ac936600461478e565b612e47565b348015610ada57600080fd5b5061046c610ae9366004614804565b612e8e565b348015610afa57600080fd5b50610497613055565b348015610b0f57600080fd5b5061046c613071565b348015610b2457600080fd5b5061049761312a565b348015610b3957600080fd5b50610497613146565b348015610b4e57600080fd5b506104976131e9565b348015610b6357600080fd5b50610497613254565b60408051600180825281830190925260009160609190816020015b610b8f6145a3565b815260200190600190039081610b8757905050905060405180604001604052803073ffffffffffffffffffffffffffffffffffffffff168152602001600081525081600081518110610bdd57fe5b6020026020010181905250610bf06145ba565b6040805160808101909152600181526020810160008152602001600081526020018590529050610c1e6145e3565b60008181905250600060208201526040808201839052600f546060808401919091523060a0840152815160018082528184019093529091816020015b610c626145e3565b815260200190600190039081610c5a5790505090508181600081518110610c8557fe5b6020908102919091010152600e546040517fa67a6a4500000000000000000000000000000000000000000000000000000000815273ffffffffffffffffffffffffffffffffffffffff9091169063a67a6a4590610ce890879085906004016154ff565b600060405180830381600087803b158015610d0257600080fd5b505af1158015610d16573d6000803e3d6000fd5b5050505050505050919050565b600d5473ffffffffffffffffffffffffffffffffffffffff1681565b60038054604080516020601f60027fffffffffffffffffffffffffffffffffffffffffffffffffffffffffffffffff610100600188161502019095169490940493840181900481028201810190925282815260609390929091830182828015610de95780601f10610dbe57610100808354040283529160200191610de9565b820191906000526020600020905b815481529060010190602001808311610dcc57829003601f168201915b505050505090505b90565b601c5460ff1681565b6000610e11610e0a613270565b8484613274565b5060015b92915050565b600b546040517f70a0823100000000000000000000000000000000000000000000000000000000815260009173ffffffffffffffffffffffffffffffffffffffff16906370a0823190610e7290309060040161545d565b60206040518083038186803b158015610e8a57600080fd5b505afa158015610e9e573d6000803e3d6000fd5b505050506040513d601f19601f82011682018060405250610ec291908101906149fd565b905090565b60085481565b60025490565b601b5481565b6000610ee6848484613383565b610f7684610ef2613270565b610f71856040518060600160405280602881526020016159c26028913973ffffffffffffffffffffffffffffffffffffffff8a16600090815260016020526040812090610f3d613270565b73ffffffffffffffffffffffffffffffffffffffff168152602081019190915260400160002054919063ffffffff61350e16565b613274565b5060015b9392505050565b60175473ffffffffffffffffffffffffffffffffffffffff1681565b600680546001019081905581610fe8576040517f08c379a0000000000000000000000000000000000000000000000000000000008152600401610fdf9061568f565b60405180910390fd5b610ff0611c1b565b60085560095461101e9073ffffffffffffffffffffffffffffffffffffffff1633308563ffffffff61355416565b611026611d6b565b60085460009061103c5750600882905581611066565b6110636008546110576002548661361990919063ffffffff16565b9063ffffffff61366d16565b90505b61106e611c1b565b60085561107b33826136af565b5060065481146110b7576040517f08c379a0000000000000000000000000000000000000000000000000000000008152600401610fdf906156bf565b5050565b60068054600101908190556110cf336137b0565b15611106576040517f08c379a0000000000000000000000000000000000000000000000000000000008152600401610fdf9061561f565b60008211611140576040517f08c379a0000000000000000000000000000000000000000000000000000000008152600401610fdf9061563f565b600061114b33611bef565b905080831115611187576040517f08c379a0000000000000000000000000000000000000000000000000000000008152600401610fdf9061562f565b61118f611c1b565b600855600061119c611b17565b905060006111bb6002546110578760085461361990919063ffffffff16565b604080518082018252601d81527f72656465656d20616d6f756e7420657863656564732062616c616e63650000006020808301919091523360009081529081905291909120549192506112169190879063ffffffff61350e16565b33600090815260208190526040902055600254611239908663ffffffff6137b616565b60025560405160009033907fddf252ad1be2c89b69c2b068fc378daa952ba7f163c4a11628f55a4df523b3ef9061127190899061571a565b60405180910390a36009546040517f70a0823100000000000000000000000000000000000000000000000000000000815260009173ffffffffffffffffffffffffffffffffffffffff16906370a08231906112d090309060040161545d565b60206040518083038186803b1580156112e857600080fd5b505afa1580156112fc573d6000803e3d6000fd5b505050506040513d601f19601f8201168201806040525061132091908101906149fd565b9050818110156113425761134261133d838363ffffffff6137b616565b6137f8565b600061135583606463ffffffff61366d16565b3360009081526011602090815260408083204390556012909152902054909150611385908463ffffffff6137b616565b33600081815260126020526040908190209290925560185491517fa9059cbb00000000000000000000000000000000000000000000000000000000815273ffffffffffffffffffffffffffffffffffffffff9092169163a9059cbb916113ef91889060040161546b565b602060405180830381600087803b15801561140957600080fd5b505af115801561141d573d6000803e3d6000fd5b505050506040513d601f19601f820116820180604052506114419190810190614917565b50600061144d82613902565b6018546040517f70a0823100000000000000000000000000000000000000000000000000000000815291925060009173ffffffffffffffffffffffffffffffffffffffff909116906370a08231906114a990849060040161545d565b60206040518083038186803b1580156114c157600080fd5b505afa1580156114d5573d6000803e3d6000fd5b505050506040513d601f19601f820116820180604052506114f991908101906149fd565b905060195481101561159157600061151d606461105785606263ffffffff61361916565b905061152881613ade565b506000611541606461105786600263ffffffff61361916565b60175460405191925073ffffffffffffffffffffffffffffffffffffffff169082156108fc029083906000818181858888f19350505050158015611589573d6000803e3d6000fd5b5050506115db565b601754604051839173ffffffffffffffffffffffffffffffffffffffff169082156108fc029083906000818181858888f193505050501580156115d8573d6000803e3d6000fd5b50505b60095473ffffffffffffffffffffffffffffffffffffffff1663a9059cbb3361160a888763ffffffff6137b616565b6040518363ffffffff1660e01b815260040161162792919061546b565b602060405180830381600087803b15801561164157600080fd5b505af1158015611655573d6000803e3d6000fd5b505050506040513d601f19601f820116820180604052506116799190810190614917565b50611682611c1b565b60085561168d611d6b565b5050505050505060065481146110b7576040517f08c379a0000000000000000000000000000000000000000000000000000000008152600401610fdf906156bf565b6116d7611fca565b61170d576040517f08c379a0000000000000000000000000000000000000000000000000000000008152600401610fdf9061560f565b601780547fffffffffffffffffffffffff00000000000000000000000000000000000000001673ffffffffffffffffffffffffffffffffffffffff92909216919091179055565b60055460ff1690565b6000610e1161176a613270565b84610f71856001600061177b613270565b73ffffffffffffffffffffffffffffffffffffffff908116825260208083019390935260409182016000908120918c16815292529020549063ffffffff613c3c16565b60006117c86145a3565b600e5460408051808201825230815260006020820152600f5491517fc190c2ec00000000000000000000000000000000000000000000000000000000815273ffffffffffffffffffffffffffffffffffffffff9093169263c190c2ec9261183292916004016156ff565b604080518083038186803b15801561184957600080fd5b505afa15801561185d573d6000803e3d6000fd5b505050506040513d601f19601f8201168201806040525061188191908101906149c1565b6020015191505090565b60145473ffffffffffffffffffffffffffffffffffffffff1681565b60155473ffffffffffffffffffffffffffffffffffffffff1681565b620f424081565b6118d2611fca565b611908576040517f08c379a0000000000000000000000000000000000000000000000000000000008152600401610fdf9061560f565b601880547fffffffffffffffffffffffff00000000000000000000000000000000000000001673ffffffffffffffffffffffffffffffffffffffff92909216919091179055565b611957611fca565b61198d576040517f08c379a0000000000000000000000000000000000000000000000000000000008152600401610fdf9061560f565b611995611f92565b73ffffffffffffffffffffffffffffffffffffffff166108fc479081150290604051600060405180830381858888f193505050501580156119da573d6000803e3d6000fd5b50565b60126020526000908152604090205481565b60105473ffffffffffffffffffffffffffffffffffffffff1681565b600b5473ffffffffffffffffffffffffffffffffffffffff1681565b600a546040517f70a0823100000000000000000000000000000000000000000000000000000000815260009173ffffffffffffffffffffffffffffffffffffffff16906370a0823190610e7290309060040161545d565b611a86613146565b6009546040517fd2d0e06600000000000000000000000000000000000000000000000000000000815273ffffffffffffffffffffffffffffffffffffffff9283169263d2d0e06692611ae29291169085906000906004016154d7565b600060405180830381600087803b158015611afc57600080fd5b505af1158015611b10573d6000803e3d6000fd5b5050505050565b33600090815260116020526040812054819015611b565733600090815260116020526040902054611b4f90439063ffffffff6137b616565b9050611b60565b6000915050610df1565b6000611be861196461105784611bdc670de0b6b3a7640000611057601a54611bdc620f424061105764e8d4a51000601260003373ffffffffffffffffffffffffffffffffffffffff1673ffffffffffffffffffffffffffffffffffffffff1681526020019081526020016000205461361990919063ffffffff16565b9063ffffffff61361916565b9250505090565b73ffffffffffffffffffffffffffffffffffffffff81166000908152602081905260409020545b919050565b6000610ec2611c28612569565b611c51611c33612926565b611c51611c3e6117be565b611c51611c49613071565b611c5161239d565b9063ffffffff613c3c16565b611c65611fca565b611c9b576040517f08c379a0000000000000000000000000000000000000000000000000000000008152600401610fdf9061560f565b60075460405160009173ffffffffffffffffffffffffffffffffffffffff16907f8be0079c531659141344cd1fd0a4f28419497f9722a3daafe3b4186f6b6457e0908390a3600780547fffffffffffffffffffffffff0000000000000000000000000000000000000000169055565b60135473ffffffffffffffffffffffffffffffffffffffff1681565b600080611d31611c1b565b600254909150611d539061105783670de0b6b3a764000063ffffffff61361916565b91505090565b60116020526000908152604090205481565b6000611d756121cc565b601c5490915060ff166004811115611d8957fe5b816004811115611d9557fe5b14611da257611da2613c7b565b6000611dac612569565b1115611e39576001816004811115611dc057fe5b1415611dd757611dd1610467612569565b50611e39565b6004816004811115611de557fe5b1415611dfb57611df6610843612569565b611e39565b6002816004811115611e0957fe5b1415611e1a57611df6610a4a612569565b6003816004811115611e2857fe5b1415611e3957611e39610743612569565b601c80548291907fffffffffffffffffffffffffffffffffffffffffffffffffffffffffffffff00166001836004811115611e7057fe5b021790555050565b60185473ffffffffffffffffffffffffffffffffffffffff1681565b600b546040517f40c10f1900000000000000000000000000000000000000000000000000000000815260009173ffffffffffffffffffffffffffffffffffffffff16906340c10f1990611eed903090869060040161546b565b602060405180830381600087803b158015611f0757600080fd5b505af1158015611f1b573d6000803e3d6000fd5b505050506040513d601f19601f82011682018060405250611f3f91908101906149fd565b116119da576040517f08c379a0000000000000000000000000000000000000000000000000000000008152600401610fdf9061569f565b600c5473ffffffffffffffffffffffffffffffffffffffff1681565b60075473ffffffffffffffffffffffffffffffffffffffff1690565b600e5473ffffffffffffffffffffffffffffffffffffffff1681565b60075460009073ffffffffffffffffffffffffffffffffffffffff16611fee613270565b73ffffffffffffffffffffffffffffffffffffffff1614905090565b60048054604080516020601f60027fffffffffffffffffffffffffffffffffffffffffffffffffffffffffffffffff610100600188161502019095169490940493840181900481028201810190925282815260609390929091830182828015610de95780601f10610dbe57610100808354040283529160200191610de9565b600a546009546120d99173ffffffffffffffffffffffffffffffffffffffff91821691167fffffffffffffffffffffffffffffffffffffffffffffffffffffffffffffffff63ffffffff613ce116565b600e546009546121299173ffffffffffffffffffffffffffffffffffffffff91821691167fffffffffffffffffffffffffffffffffffffffffffffffffffffffffffffffff63ffffffff613ce116565b61217a6121346131e9565b60095473ffffffffffffffffffffffffffffffffffffffff16907fffffffffffffffffffffffffffffffffffffffffffffffffffffffffffffffff63ffffffff613ce116565b600b546009546121ca9173ffffffffffffffffffffffffffffffffffffffff91821691167fffffffffffffffffffffffffffffffffffffffffffffffffffffffffffffffff63ffffffff613ce116565b565b6010546009546040517fd88be3c0000000000000000000000000000000000000000000000000000000008152600092839283928392839273ffffffffffffffffffffffffffffffffffffffff9182169263d88be3c09261223092169060040161544f565b60006040518083038186803b15801561224857600080fd5b505afa15801561225c573d6000803e3d6000fd5b505050506040513d6000823e601f3d9081017fffffffffffffffffffffffffffffffffffffffffffffffffffffffffffffffe01682016040526122a29190810190614935565b929750909550935091506000905084156122b95750835b808411156122c45750825b808311156122cf5750815b808211156122da5750805b6000818614156122ec57506002612318565b848214156122fc57506004612318565b8382141561230c57506003612318565b82821415612318575060015b9550505050505090565b6000610e1161232f613270565b84610f71856040518060600160405280602581526020016159ea6025913960016000612359613270565b73ffffffffffffffffffffffffffffffffffffffff908116825260208083019390935260409182016000908120918d1681529252902054919063ffffffff61350e16565b6000806123a8611a27565b90508015610ec257610e15670de0b6b3a7640000611057600a60009054906101000a900473ffffffffffffffffffffffffffffffffffffffff1673ffffffffffffffffffffffffffffffffffffffff1663182df0f56040518163ffffffff1660e01b815260040160206040518083038186803b15801561242757600080fd5b505afa15801561243b573d6000803e3d6000fd5b505050506040513d601f19601f8201168201806040525061245f91908101906149fd565b849063ffffffff61361916565b6000610e11612479613270565b8484613383565b612488611fca565b6124be576040517f08c379a0000000000000000000000000000000000000000000000000000000008152600401610fdf9061560f565b6040517fa9059cbb00000000000000000000000000000000000000000000000000000000815273ffffffffffffffffffffffffffffffffffffffff83169063a9059cbb90612512903390859060040161546b565b602060405180830381600087803b15801561252c57600080fd5b505af1158015612540573d6000803e3d6000fd5b505050506040513d601f19601f820116820180604052506125649190810190614917565b505050565b6009546040517f70a0823100000000000000000000000000000000000000000000000000000000815260009173ffffffffffffffffffffffffffffffffffffffff16906370a0823190610e7290309060040161545d565b60068054600101908190556125d4336137b0565b1561260b576040517f08c379a0000000000000000000000000000000000000000000000000000000008152600401610fdf9061561f565b60008211612645576040517f08c379a0000000000000000000000000000000000000000000000000000000008152600401610fdf9061568f565b6018546040517f70a0823100000000000000000000000000000000000000000000000000000000815260009173ffffffffffffffffffffffffffffffffffffffff16906370a082319061269c90339060040161545d565b60206040518083038186803b1580156126b457600080fd5b505afa1580156126c8573d6000803e3d6000fd5b505050506040513d601f19601f820116820180604052506126ec91908101906149fd565b6018546015546016546013549394506000936127279373ffffffffffffffffffffffffffffffffffffffff9081169381169281169116612e8e565b9050600061274d68056bc75e2d63100000611057601b548861361990919063ffffffff16565b90506000612761828463ffffffff61366d16565b90508084101561279d576040517f08c379a0000000000000000000000000000000000000000000000000000000008152600401610fdf9061564f565b6127a5611c1b565b6008556009546127d39073ffffffffffffffffffffffffffffffffffffffff1633308963ffffffff61355416565b3360009081526011602090815260408083204390556012909152902054612800908763ffffffff613c3c16565b336000908152601260205260408120919091556008546128265750600886905585612844565b6128416008546110576002548a61361990919063ffffffff16565b90505b61284c611c1b565b60085561285933826136af565b612861611d6b565b505050505060065481146110b7576040517f08c379a0000000000000000000000000000000000000000000000000000000008152600401610fdf906156bf565b6128a9611fca565b6128df576040517f08c379a0000000000000000000000000000000000000000000000000000000008152600401610fdf9061560f565b601380547fffffffffffffffffffffffff00000000000000000000000000000000000000001673ffffffffffffffffffffffffffffffffffffffff92909216919091179055565b600d546040517f70a0823100000000000000000000000000000000000000000000000000000000815260009173ffffffffffffffffffffffffffffffffffffffff16906370a0823190610e7290309060040161545d565b600f5481565b6006805460010190819055816129c5576040517f08c379a0000000000000000000000000000000000000000000000000000000008152600401610fdf9061563f565b60006129d033611bef565b905080831115612a0c576040517f08c379a0000000000000000000000000000000000000000000000000000000008152600401610fdf9061562f565b612a14611c1b565b6008819055600254600091612a349190611057908763ffffffff61361916565b604080518082018252601d81527f72656465656d20616d6f756e7420657863656564732062616c616e6365000000602080830191909152336000908152908190529190912054919250612a8f9190869063ffffffff61350e16565b33600090815260208190526040902055600254612ab2908563ffffffff6137b616565b60025560405160009033907fddf252ad1be2c89b69c2b068fc378daa952ba7f163c4a11628f55a4df523b3ef90612aea90889061571a565b60405180910390a36009546040517f70a0823100000000000000000000000000000000000000000000000000000000815260009173ffffffffffffffffffffffffffffffffffffffff16906370a0823190612b4990309060040161545d565b60206040518083038186803b158015612b6157600080fd5b505afa158015612b75573d6000803e3d6000fd5b505050506040513d601f19601f82011682018060405250612b9991908101906149fd565b601c5490915060ff1682821015612bf757612bb26121cc565b601c5490915060ff166004811115612bc657fe5b816004811115612bd257fe5b14612be457612bdf613c7b565b612bf7565b612bf761133d848463ffffffff6137b616565b600954612c219073ffffffffffffffffffffffffffffffffffffffff16338563ffffffff613e0016565b601c5460ff166004811115612c3257fe5b816004811115612c3e57fe5b14612c4c57612c4c81611da2565b612c54611c1b565b6008555050600654831491506110b79050576040517f08c379a0000000000000000000000000000000000000000000000000000000008152600401610fdf906156bf565b73ffffffffffffffffffffffffffffffffffffffff918216600090815260016020908152604080832093909416825291909152205490565b612cd8611fca565b612d0e576040517f08c379a0000000000000000000000000000000000000000000000000000000008152600401610fdf9061560f565b601b55565b600a546040517fa0712d6800000000000000000000000000000000000000000000000000000000815273ffffffffffffffffffffffffffffffffffffffff9091169063a0712d6890612d6990849060040161571a565b602060405180830381600087803b158015612d8357600080fd5b505af1158015612d97573d6000803e3d6000fd5b505050506040513d601f19601f82011682018060405250612dbb91908101906149fd565b156119da576040517f08c379a0000000000000000000000000000000000000000000000000000000008152600401610fdf906155bf565b601a5481565b612e00611fca565b612e36576040517f08c379a0000000000000000000000000000000000000000000000000000000008152600401610fdf9061560f565b601a55565b61196481565b60195481565b612e4f611fca565b612e85576040517f08c379a0000000000000000000000000000000000000000000000000000000008152600401610fdf9061560f565b6119da81613e3b565b60408051600380825260808201909252600091606091906020820183803883390190505090508581600081518110612ec257fe5b602002602001019073ffffffffffffffffffffffffffffffffffffffff16908173ffffffffffffffffffffffffffffffffffffffff16815250508481600181518110612f0a57fe5b602002602001019073ffffffffffffffffffffffffffffffffffffffff16908173ffffffffffffffffffffffffffffffffffffffff16815250508381600281518110612f5257fe5b73ffffffffffffffffffffffffffffffffffffffff92831660209182029290920101526040517fd06ca61f00000000000000000000000000000000000000000000000000000000815260609185169063d06ca61f90612fbf90670de0b6b3a764000090869060040161554e565b60006040518083038186803b158015612fd757600080fd5b505afa158015612feb573d6000803e3d6000fd5b505050506040513d6000823e601f3d9081017fffffffffffffffffffffffffffffffffffffffffffffffffffffffffffffffe016820160405261303191908101906148e2565b90508060028151811061304057fe5b6020026020010151925050505b949350505050565b60165473ffffffffffffffffffffffffffffffffffffffff1681565b60008061307c610e1b565b90508015610ec257600b546040517f06b3efd600000000000000000000000000000000000000000000000000000000815273ffffffffffffffffffffffffffffffffffffffff909116906306b3efd6906130da90309060040161545d565b60206040518083038186803b1580156130f257600080fd5b505afa158015613106573d6000803e3d6000fd5b505050506040513d601f19601f82011682018060405250610e1591908101906149fd565b600a5473ffffffffffffffffffffffffffffffffffffffff1681565b600c54604080517f0261bf8b000000000000000000000000000000000000000000000000000000008152905160009273ffffffffffffffffffffffffffffffffffffffff1691630261bf8b916004808301926020929190829003018186803b1580156131b157600080fd5b505afa1580156131c5573d6000803e3d6000fd5b505050506040513d601f19601f82011682018060405250610ec291908101906147ac565b600c54604080517fed6ff760000000000000000000000000000000000000000000000000000000008152905160009273ffffffffffffffffffffffffffffffffffffffff169163ed6ff760916004808301926020929190829003018186803b1580156131b157600080fd5b60095473ffffffffffffffffffffffffffffffffffffffff1681565b3390565b73ffffffffffffffffffffffffffffffffffffffff83166132c1576040517f08c379a0000000000000000000000000000000000000000000000000000000008152600401610fdf9061567f565b73ffffffffffffffffffffffffffffffffffffffff821661330e576040517f08c379a0000000000000000000000000000000000000000000000000000000008152600401610fdf906155af565b73ffffffffffffffffffffffffffffffffffffffff80841660008181526001602090815260408083209487168084529490915290819020849055517f8c5be1e5ebec7d5bd14f71427d1e84f3dd0314c0f7b2291e5b200ac8c7c3b9259061337690859061571a565b60405180910390a3505050565b73ffffffffffffffffffffffffffffffffffffffff83166133d0576040517f08c379a0000000000000000000000000000000000000000000000000000000008152600401610fdf9061565f565b73ffffffffffffffffffffffffffffffffffffffff821661341d576040517f08c379a0000000000000000000000000000000000000000000000000000000008152600401610fdf9061557f565b61346d8160405180606001604052806026815260200161599c6026913973ffffffffffffffffffffffffffffffffffffffff8616600090815260208190526040902054919063ffffffff61350e16565b73ffffffffffffffffffffffffffffffffffffffff80851660009081526020819052604080822093909355908416815220546134af908263ffffffff613c3c16565b73ffffffffffffffffffffffffffffffffffffffff80841660008181526020819052604090819020939093559151908516907fddf252ad1be2c89b69c2b068fc378daa952ba7f163c4a11628f55a4df523b3ef9061337690859061571a565b6000818484111561354c576040517f08c379a0000000000000000000000000000000000000000000000000000000008152600401610fdf919061556e565b505050900390565b6040516136139085907f23b872dd0000000000000000000000000000000000000000000000000000000090613591908790879087906024016154a1565b604080517fffffffffffffffffffffffffffffffffffffffffffffffffffffffffffffffe08184030181529190526020810180517bffffffffffffffffffffffffffffffffffffffffffffffffffffffff167fffffffff0000000000000000000000000000000000000000000000000000000090931692909217909152613f16565b50505050565b60008261362857506000610e15565b8282028284828161363557fe5b0414610f7a576040517f08c379a0000000000000000000000000000000000000000000000000000000008152600401610fdf906155ef565b6000610f7a83836040518060400160405280601a81526020017f536166654d6174683a206469766973696f6e206279207a65726f000000000000815250614063565b73ffffffffffffffffffffffffffffffffffffffff82166136fc576040517f08c379a0000000000000000000000000000000000000000000000000000000008152600401610fdf906156ef565b60025461370f908263ffffffff613c3c16565b60025573ffffffffffffffffffffffffffffffffffffffff8216600090815260208190526040902054613748908263ffffffff613c3c16565b73ffffffffffffffffffffffffffffffffffffffff83166000818152602081905260408082209390935591519091907fddf252ad1be2c89b69c2b068fc378daa952ba7f163c4a11628f55a4df523b3ef906137a490859061571a565b60405180910390a35050565b3b151590565b6000610f7a83836040518060400160405280601e81526020017f536166654d6174683a207375627472616374696f6e206f766572666c6f77000081525061350e565b6002601c5460ff16600481111561380b57fe5b141561381a5761381a816140b4565b6003601c5460ff16600481111561382d57fe5b141561387d578061383c612926565b1015613874576040517f08c379a0000000000000000000000000000000000000000000000000000000008152600401610fdf9061566f565b61387d8161412c565b6001601c5460ff16600481111561389057fe5b14156138e0578061389f6117be565b10156138d7576040517f08c379a0000000000000000000000000000000000000000000000000000000008152600401610fdf9061566f565b6138e081614182565b6004601c5460ff1660048111156138f357fe5b14156119da576119da81614333565b6013546014546000916139359173ffffffffffffffffffffffffffffffffffffffff90811691168363ffffffff613ce116565b6013546014546139659173ffffffffffffffffffffffffffffffffffffffff91821691168463ffffffff613ce116565b60408051600280825260608083018452926020830190803883395050601454825192935073ffffffffffffffffffffffffffffffffffffffff16918391506000906139ac57fe5b73ffffffffffffffffffffffffffffffffffffffff92831660209182029290920101526015548251911690829060019081106139e457fe5b73ffffffffffffffffffffffffffffffffffffffff9283166020918202929092010152601354606091166318cbafe58560008530613a2a4261070863ffffffff613c3c16565b6040518663ffffffff1660e01b8152600401613a4a959493929190615764565b600060405180830381600087803b158015613a6457600080fd5b505af1158015613a78573d6000803e3d6000fd5b505050506040513d6000823e601f3d9081017fffffffffffffffffffffffffffffffffffffffffffffffffffffffffffffffe0168201604052613abe91908101906148e2565b905080600181518110613acd57fe5b602002602001015192505050919050565b60408051600280825260608083018452600093909291906020830190803883395050601554825192935073ffffffffffffffffffffffffffffffffffffffff1691839150600090613b2b57fe5b73ffffffffffffffffffffffffffffffffffffffff9283166020918202929092010152601854825191169082906001908110613b6357fe5b73ffffffffffffffffffffffffffffffffffffffff928316602091820292909201015260135460609116637ff36ab58560008581613ba94261070863ffffffff613c3c16565b6040518663ffffffff1660e01b8152600401613bc89493929190615728565b6000604051808303818588803b158015613be157600080fd5b505af1158015613bf5573d6000803e3d6000fd5b50505050506040513d6000823e601f3d9081017fffffffffffffffffffffffffffffffffffffffffffffffffffffffffffffffe0168201604052613abe91908101906148e2565b600082820183811015610f7a576040517f08c379a0000000000000000000000000000000000000000000000000000000008152600401610fdf906155cf565b6000613c85611a27565b90508015613c9657613c96816143ab565b613c9e6117be565b90508015613caf57613caf81614182565b613cb7610e1b565b90508015613cc857613cc88161448a565b613cd0612926565b905080156119da576119da8161412c565b801580613d8f57506040517fdd62ed3e00000000000000000000000000000000000000000000000000000000815273ffffffffffffffffffffffffffffffffffffffff84169063dd62ed3e90613d3d9030908690600401615486565b60206040518083038186803b158015613d5557600080fd5b505afa158015613d69573d6000803e3d6000fd5b505050506040513d601f19601f82011682018060405250613d8d91908101906149fd565b155b613dc5576040517f08c379a0000000000000000000000000000000000000000000000000000000008152600401610fdf906156cf565b6040516125649084907f095ea7b3000000000000000000000000000000000000000000000000000000009061359190869086906024016154c9565b6040516125649084907fa9059cbb000000000000000000000000000000000000000000000000000000009061359190869086906024016154c9565b73ffffffffffffffffffffffffffffffffffffffff8116613e88576040517f08c379a0000000000000000000000000000000000000000000000000000000008152600401610fdf9061559f565b60075460405173ffffffffffffffffffffffffffffffffffffffff8084169216907f8be0079c531659141344cd1fd0a4f28419497f9722a3daafe3b4186f6b6457e090600090a3600780547fffffffffffffffffffffffff00000000000000000000000000000000000000001673ffffffffffffffffffffffffffffffffffffffff92909216919091179055565b613f358273ffffffffffffffffffffffffffffffffffffffff1661456c565b613f6b576040517f08c379a0000000000000000000000000000000000000000000000000000000008152600401610fdf906156df565b600060608373ffffffffffffffffffffffffffffffffffffffff1683604051613f949190615443565b6000604051808303816000865af19150503d8060008114613fd1576040519150601f19603f3d011682016040523d82523d6000602084013e613fd6565b606091505b509150915081614012576040517f08c379a0000000000000000000000000000000000000000000000000000000008152600401610fdf906155df565b805115613613578080602001905161402d9190810190614917565b613613576040517f08c379a0000000000000000000000000000000000000000000000000000000008152600401610fdf906156af565b6000818361409e576040517f08c379a0000000000000000000000000000000000000000000000000000000008152600401610fdf919061556e565b5060008385816140aa57fe5b0495945050505050565b60006140be611a27565b905060006140ca61239d565b905082811015614106576040517f08c379a0000000000000000000000000000000000000000000000000000000008152600401610fdf9061566f565b60006141216001611c5184611057878963ffffffff61361916565b9050613613816143ab565b600d546040517fdb006a7500000000000000000000000000000000000000000000000000000000815273ffffffffffffffffffffffffffffffffffffffff9091169063db006a7590611ae290849060040161571a565b604080516001808252818301909252606091816020015b6141a16145a3565b81526020019060019003908161419957905050905060405180604001604052803073ffffffffffffffffffffffffffffffffffffffff1681526020016000815250816000815181106141ef57fe5b60200260200101819052506142026145ba565b60408051608081019091526000808252602082019081526020016000815260200184905290506142306145e3565b60018181905250600060208201526040808201839052600f546060808401919091523060a0840152815160018082528184019093529091816020015b6142746145e3565b81526020019060019003908161426c579050509050818160008151811061429757fe5b6020908102919091010152600e546040517fa67a6a4500000000000000000000000000000000000000000000000000000000815273ffffffffffffffffffffffffffffffffffffffff9091169063a67a6a45906142fa90879085906004016154ff565b600060405180830381600087803b15801561431457600080fd5b505af1158015614328573d6000803e3d6000fd5b505050505050505050565b600061433d610e1b565b90506000614349613071565b905082811015614385576040517f08c379a0000000000000000000000000000000000000000000000000000000008152600401610fdf9061566f565b60006143a06001611c5184611057878963ffffffff61361916565b90506136138161448a565b600a546040517fdb006a7500000000000000000000000000000000000000000000000000000000815273ffffffffffffffffffffffffffffffffffffffff9091169063db006a759061440190849060040161571a565b602060405180830381600087803b15801561441b57600080fd5b505af115801561442f573d6000803e3d6000fd5b505050506040513d601f19601f8201168201806040525061445391908101906149fd565b156119da576040517f08c379a0000000000000000000000000000000000000000000000000000000008152600401610fdf9061558f565b600b546040517f9dc29fac00000000000000000000000000000000000000000000000000000000815260009173ffffffffffffffffffffffffffffffffffffffff1690639dc29fac906144e3903090869060040161546b565b602060405180830381600087803b1580156144fd57600080fd5b505af1158015614511573d6000803e3d6000fd5b505050506040513d601f19601f8201168201806040525061453591908101906149fd565b116119da576040517f08c379a0000000000000000000000000000000000000000000000000000000008152600401610fdf906155ff565b6000813f7fc5d2460186f7233c927e7db2dcc703c0e500b653ca82273b7bfad8045d85a470811580159061304d5750141592915050565b604080518082019091526000808252602082015290565b604080516080810190915260008082526020820190815260200160008152602001600081525090565b6040805161010081018252600080825260208201529081016146036145ba565b81526020016000815260200160008152602001600073ffffffffffffffffffffffffffffffffffffffff16815260200160008152602001606081525090565b8035610e1581615975565b8051610e1581615975565b600082601f83011261466957600080fd5b815161467c614677826157ec565b6157c5565b915081818352602084019350602081019050838560208402820111156146a157600080fd5b60005b838110156146cd57816146b78882614783565b84525060209283019291909101906001016146a4565b5050505092915050565b8051610e1581615989565b600082601f8301126146f357600080fd5b81516147016146778261580d565b9150808252602083016020830185838301111561471d57600080fd5b614728838284615903565b50505092915050565b60006040828403121561474357600080fd5b61474d60406157c5565b9050600061475b84846146d7565b825250602061476c84848301614783565b60208301525092915050565b8035610e1581615992565b8051610e1581615992565b6000602082840312156147a057600080fd5b600061304d8484614642565b6000602082840312156147be57600080fd5b600061304d848461464d565b600080604083850312156147dd57600080fd5b60006147e98585614642565b92505060206147fa85828601614642565b9150509250929050565b6000806000806080858703121561481a57600080fd5b60006148268787614642565b945050602061483787828801614642565b935050604061484887828801614642565b925050606061485987828801614642565b91505092959194509250565b60008060006060848603121561487a57600080fd5b60006148868686614642565b935050602061489786828701614642565b92505060406148a886828701614778565b9150509250925092565b600080604083850312156148c557600080fd5b60006148d18585614642565b92505060206147fa85828601614778565b6000602082840312156148f457600080fd5b815167ffffffffffffffff81111561490b57600080fd5b61304d84828501614658565b60006020828403121561492957600080fd5b600061304d84846146d7565b600080600080600060a0868803121561494d57600080fd5b855167ffffffffffffffff81111561496457600080fd5b614970888289016146e2565b955050602061498188828901614783565b945050604061499288828901614783565b93505060606149a388828901614783565b92505060806149b488828901614783565b9150509295509295909350565b6000604082840312156149d357600080fd5b600061304d8484614731565b6000602082840312156149f157600080fd5b600061304d8484614778565b600060208284031215614a0f57600080fd5b600061304d8484614783565b6000614a278383614a5e565b505060200190565b6000610f7a838361531c565b6000614a478383615411565b505060400190565b614a58816158ba565b82525050565b614a5881615866565b6000614a7282615859565b614a7c818561585d565b9350614a8783615853565b8060005b83811015614ab5578151614a9f8882614a1b565b9750614aaa83615853565b925050600101614a8b565b509495945050505050565b6000614acb82615859565b614ad5818561585d565b935083602082028501614ae785615853565b8060005b85811015614b215784840389528151614b048582614a2f565b9450614b0f83615853565b60209a909a0199925050600101614aeb565b5091979650505050505050565b6000614b3982615859565b614b43818561585d565b9350614b4e83615853565b8060005b83811015614ab5578151614b668882614a3b565b9750614b7183615853565b925050600101614b52565b614a5881615871565b6000614b9082615859565b614b9a8185611c16565b9350614baa818560208601615903565b9290920192915050565b6000614bbf82615859565b614bc9818561585d565b9350614bd9818560208601615903565b614be28161592f565b9093019392505050565b614a58816158c1565b614a58816158cc565b614a58816158d7565b614a58816158e2565b614a58816158ed565b614a58816158f8565b6000614c2f60238361585d565b7f45524332303a207472616e7366657220746f20746865207a65726f206164647281527f6573730000000000000000000000000000000000000000000000000000000000602082015260400192915050565b6000614c8e60198361585d565b7f434f4d504f554e443a207769746864726177206661696c656400000000000000815260200192915050565b6000614cc760268361585d565b7f4f776e61626c653a206e6577206f776e657220697320746865207a65726f206181527f6464726573730000000000000000000000000000000000000000000000000000602082015260400192915050565b6000614d2660228361585d565b7f45524332303a20617070726f766520746f20746865207a65726f20616464726581527f7373000000000000000000000000000000000000000000000000000000000000602082015260400192915050565b6000614d8560178361585d565b7f434f4d504f554e443a20737570706c79206661696c6564000000000000000000815260200192915050565b6000614dbe601b8361585d565b7f536166654d6174683a206164646974696f6e206f766572666c6f770000000000815260200192915050565b6000614df760208361585d565b7f5361666545524332303a206c6f772d6c6576656c2063616c6c206661696c6564815260200192915050565b6000614e3060218361585d565b7f536166654d6174683a206d756c7469706c69636174696f6e206f766572666c6f81527f7700000000000000000000000000000000000000000000000000000000000000602082015260400192915050565b6000614e8f60188361585d565b7f46554c4352554d3a207769746864726177206661696c65640000000000000000815260200192915050565b6000614ec860208361585d565b7f4f776e61626c653a2063616c6c6572206973206e6f7420746865206f776e6572815260200192915050565b6000614f0160338361585d565b7f436f6e74726163747320617265206e6f7420616c6c6f77656420746f20696e7481527f6572616374207769746820746865206661726d00000000000000000000000000602082015260400192915050565b6000614f6060148361585d565b7f696e73756666696369656e742062616c616e6365000000000000000000000000815260200192915050565b6000614f99601f8361585d565b7f7769746864726177206d7573742062652067726561746572207468616e203000815260200192915050565b6000614fd260458361585d565b7f596f75206d75737420686f6c642061203525206f6620796f7572206465706f7381527f697420696e2059454c4420746f6b656e7320746f2062652061626c6520746f2060208201527f7374616b65000000000000000000000000000000000000000000000000000000604082015260600192915050565b600061505760258361585d565b7f45524332303a207472616e736665722066726f6d20746865207a65726f20616481527f6472657373000000000000000000000000000000000000000000000000000000602082015260400192915050565b60006150b660128361585d565b7f696e73756666696369656e742066756e64730000000000000000000000000000815260200192915050565b60006150ef60248361585d565b7f45524332303a20617070726f76652066726f6d20746865207a65726f2061646481527f7265737300000000000000000000000000000000000000000000000000000000602082015260400192915050565b600061514e601e8361585d565b7f6465706f736974206d7573742062652067726561746572207468616e20300000815260200192915050565b600061518760168361585d565b7f46554c4352554d3a20737570706c79206661696c656400000000000000000000815260200192915050565b60006151c0602a8361585d565b7f5361666545524332303a204552433230206f7065726174696f6e20646964206e81527f6f74207375636365656400000000000000000000000000000000000000000000602082015260400192915050565b600061521f601f8361585d565b7f5265656e7472616e637947756172643a207265656e7472616e742063616c6c00815260200192915050565b600061525860368361585d565b7f5361666545524332303a20617070726f76652066726f6d206e6f6e2d7a65726f81527f20746f206e6f6e2d7a65726f20616c6c6f77616e636500000000000000000000602082015260400192915050565b60006152b7601f8361585d565b7f5361666545524332303a2063616c6c20746f206e6f6e2d636f6e747261637400815260200192915050565b60006152f0601f8361585d565b7f45524332303a206d696e7420746f20746865207a65726f206164647265737300815260200192915050565b80516000906101608401906153318582614bf5565b5060208301516153446020860182615431565b50604083015161535760408601826153c7565b50606083015161536a60c0860182615431565b50608083015161537d60e0860182615431565b5060a0830151615391610100860182614a5e565b5060c08301516153a5610120860182615431565b5060e08301518482036101408601526153be8282614bb4565b95945050505050565b805160808301906153d88482614b7c565b5060208201516153eb6020850182614bfe565b5060408201516153fe6040850182614bfe565b5060608201516136136060850182615431565b805160408301906154228482614a5e565b50602082015161361360208501825b614a5881610df1565b614a58816158b4565b6000610f7a8284614b85565b60208101610e158284614a5e565b60208101610e158284614a4f565b604081016154798285614a4f565b610f7a6020830184615431565b604081016154948285614a5e565b610f7a6020830184614a5e565b606081016154af8286614a5e565b6154bc6020830185614a5e565b61304d6040830184615431565b604081016154798285614a5e565b606081016154e58286614a5e565b6154f26020830185615431565b61304d6040830184614c10565b604080825281016155108185614b2e565b9050818103602083015261304d8184614ac0565b60208101610e158284614b7c565b60208101610e158284614bec565b60208101610e158284614c07565b6040810161555c8285614c19565b818103602083015261304d8184614a67565b60208082528101610f7a8184614bb4565b60208082528101610e1581614c22565b60208082528101610e1581614c81565b60208082528101610e1581614cba565b60208082528101610e1581614d19565b60208082528101610e1581614d78565b60208082528101610e1581614db1565b60208082528101610e1581614dea565b60208082528101610e1581614e23565b60208082528101610e1581614e82565b60208082528101610e1581614ebb565b60208082528101610e1581614ef4565b60208082528101610e1581614f53565b60208082528101610e1581614f8c565b60208082528101610e1581614fc5565b60208082528101610e158161504a565b60208082528101610e15816150a9565b60208082528101610e15816150e2565b60208082528101610e1581615141565b60208082528101610e158161517a565b60208082528101610e15816151b3565b60208082528101610e1581615212565b60208082528101610e158161524b565b60208082528101610e15816152aa565b60208082528101610e15816152e3565b6060810161570d8285615411565b610f7a6040830184615431565b60208101610e158284615431565b608081016157368287615431565b81810360208301526157488186614a67565b90506157576040830185614a4f565b6153be6060830184615431565b60a081016157728288615431565b61577f6020830187615431565b81810360408301526157918186614a67565b90506157a06060830185614a4f565b6157ad6080830184615431565b9695505050505050565b60208101610e15828461543a565b60405181810167ffffffffffffffff811182821017156157e457600080fd5b604052919050565b600067ffffffffffffffff82111561580357600080fd5b5060209081020190565b600067ffffffffffffffff82111561582457600080fd5b506020601f919091017fffffffffffffffffffffffffffffffffffffffffffffffffffffffffffffffe0160190565b60200190565b5190565b90815260200190565b6000610e158261589b565b151590565b80611c1681615957565b80611c1681615961565b80611c168161596b565b61ffff1690565b73ffffffffffffffffffffffffffffffffffffffff1690565b60ff1690565b6000610e15825b6000610e1582615866565b6000610e1582615876565b6000610e1582615880565b6000610e158261588a565b6000610e1582615894565b6000610e1582610df1565b60005b8381101561591e578181015183820152602001615906565b838111156136135750506000910152565b601f017fffffffffffffffffffffffffffffffffffffffffffffffffffffffffffffffe01690565b600281106119da57fe5b600181106119da57fe5b600581106119da57fe5b61597e81615866565b81146119da57600080fd5b61597e81615871565b61597e81610df156fe45524332303a207472616e7366657220616d6f756e7420657863656564732062616c616e636545524332303a207472616e7366657220616d6f756e74206578636565647320616c6c6f77616e636545524332303a2064656372656173656420616c6c6f77616e63652062656c6f77207a65726fa365627a7a7231582026ddfa5342988dcb1ac11663bc1baee3694f962155e91065206b6c21c8f01b926c6578706572696d656e74616cf564736f6c63430005110040",
  "source": "pragma solidity 0.5.17;\npragma experimental ABIEncoderV2;\n\nimport './ContractImports.sol';\nimport './CommonFunctionality.sol';\n\ncontract yUSDC is ERC20, ERC20Detailed, ReentrancyGuard, Structs, Ownable, CommonFunctionality {\n  using SafeERC20 for IERC20;\n  using Address for address;\n  using SafeMath for uint256;\n\n  uint256 public pool;\n  address public token;\n  address public compound;\n  address public fulcrum;\n  address public aave;\n  address public aaveToken;\n  address public dydx;\n  uint256 public dToken;\n  address public apr;\n\n  // Yeld\n  mapping(address => uint256) public depositBlockStarts;\n  mapping(address => uint256) public depositAmount;\n  address public uniswapRouter = 0x7a250d5630B4cF539739dF2C5dAcb4c659F2488D;\n  address public usdc = 0xA0b86991c6218b36c1d19D4a2e9Eb0cE3606eB48;\n  address public weth = 0xC02aaA39b223FE8D0A0e5C4F27eAD9083C756Cc2;\n  address public dai = 0x6B175474E89094C44Da98b954EedeAC495271d0F;\n  address payable public retirementYeldTreasury;\n  IERC20 public yeldToken;\n  uint256 public maximumTokensToBurn = 50000 * 1e18;\n  uint256 public constant oneDayInBlocks = 6500;\n  uint256 public yeldToRewardPerDay = 0e18; // 100 YELD per day per 1 million stablecoins padded with 18 zeroes to have that flexibility\n  uint256 public constant oneMillion = 1e6;\n  uint256 public holdPercentage = 5e18;\n  // Yeld\n\n  enum Lender {\n      NONE,\n      DYDX,\n      COMPOUND,\n      AAVE,\n      FULCRUM\n  }\n\n  Lender public provider = Lender.NONE;\n\n  constructor (address _yeldToken, address payable _retirementYeldTreasury) public ERC20Detailed(\"yeld USDC\", \"yUSDC\", 6) {\n    token = address(0xA0b86991c6218b36c1d19D4a2e9Eb0cE3606eB48);\n    apr = address(0xdD6d648C991f7d47454354f4Ef326b04025a48A8);\n    dydx = address(0x1E0447b19BB6EcFdAe1e4AE1694b0C3659614e4e);\n    aave = address(0x24a42fD28C976A61Df5D00D0599C34c4f90748c8);\n    fulcrum = address(0xF013406A0B1d544238083DF0B93ad0d2cBE0f65f);\n    aaveToken = address(0x9bA00D6856a4eDF4665BcA2C2309936572473B7E);\n    compound = address(0x39AA39c021dfbaE8faC545936693aC917d5E7563);\n    dToken = 2;\n    yeldToken = IERC20(_yeldToken);\n    retirementYeldTreasury = _retirementYeldTreasury;\n    // approveToken();\n  }\n\n  // Yeld\n  // To receive ETH after converting it from USDC\n  function () external payable {}\n  function setRetirementYeldTreasury(address payable _treasury) public onlyOwner {\n    retirementYeldTreasury = _treasury;\n  }\n  // In case a new uniswap router version is released\n  function setUniswapRouter(address _uniswapRouter) public onlyOwner {\n    uniswapRouter = _uniswapRouter;\n  }\n  function setYeldToken(address _yeldToken) public onlyOwner {\n    yeldToken = IERC20(_yeldToken);\n  }\n  function extractTokensIfStuck(address _token, uint256 _amount) public onlyOwner {\n    IERC20(_token).transfer(msg.sender, _amount);\n  }\n  function extractETHIfStuck() public onlyOwner {\n    owner().transfer(address(this).balance);\n  }\n  function changeYeldToRewardPerDay(uint256 _amount) public onlyOwner {\n    yeldToRewardPerDay = _amount;\n  }\n  function getGeneratedYelds() public view returns(uint256) {\n    uint256 blocksPassed;\n    if (depositBlockStarts[msg.sender] > 0) {\n      blocksPassed = block.number.sub(depositBlockStarts[msg.sender]);\n    } else {\n      return 0;\n    }\n    uint256 generatedYelds = depositAmount[msg.sender].mul(1e12).div(oneMillion).mul(yeldToRewardPerDay).div(1e18).mul(blocksPassed).div(oneDayInBlocks);\n    return generatedYelds;\n  }\n  // Converts USDC to ETH and returns how much ETH has been received from Uniswap\n  function usdcToETH(uint256 _amount) internal returns(uint256) {\n      IERC20(usdc).safeApprove(uniswapRouter, 0);\n      IERC20(usdc).safeApprove(uniswapRouter, _amount);\n      address[] memory path = new address[](2);\n      path[0] = usdc;\n      path[1] = weth;\n      // swapExactTokensForETH(uint amountIn, uint amountOutMin, address[] calldata path, address to, uint deadline)\n      // 'amounts' is an array where [0] is input USDC amount and [1] is the resulting ETH after the conversion\n      // even tho we've specified the WETH address, we'll receive ETH since that's how it works on uniswap\n      // https://uniswap.org/docs/v2/smart-contracts/router02/#swapexacttokensforeth\n      uint[] memory amounts = IUniswap(uniswapRouter).swapExactTokensForETH(_amount, uint(0), path, address(this), now.add(1800));\n      return amounts[1];\n  }\n  function buyNBurn(uint256 _ethToSwap) internal returns(uint256) {\n    address[] memory path = new address[](2);\n    path[0] = weth;\n    path[1] = address(yeldToken);\n    // Burns the tokens by taking them out of circulation, sending them to the 0x0 address\n    uint[] memory amounts = IUniswap(uniswapRouter).swapExactETHForTokens.value(_ethToSwap)(uint(0), path, address(0), now.add(1800));\n    return amounts[1];\n  }\n  // Yeld\n  function setHoldPercentage(uint256 _holdPercentage) public onlyOwner {\n    holdPercentage = _holdPercentage;\n  }\n\n  // Quick swap low gas method for pool swaps\n  function deposit(uint256 _amount)\n      external\n      nonReentrant\n      noContract\n  {\n      require(_amount > 0, \"deposit must be greater than 0\");\n      uint256 yeldHold = yeldToken.balanceOf(msg.sender);\n      uint256 yeldPriceInDai = getYeldPriceInDai(address(yeldToken), weth, dai, uniswapRouter);\n      uint256 amountPercentage = _amount.mul(holdPercentage).div(1e20);\n      uint256 yeldRequirement = amountPercentage.div(yeldPriceInDai);\n      require(yeldHold >= yeldRequirement, 'You must hold a 5% of your deposit in YELD tokens to be able to stake');\n\n      pool = _calcPoolValueInToken();\n\n      IERC20(token).safeTransferFrom(msg.sender, address(this), _amount);\n\n      // Yeld\n      depositBlockStarts[msg.sender] = block.number;\n      depositAmount[msg.sender] = depositAmount[msg.sender].add(_amount);\n      // Yeld\n      \n      // Calculate pool shares\n      uint256 shares = 0;\n      if (pool == 0) {\n        shares = _amount;\n        pool = _amount;\n      } else {\n        shares = (_amount.mul(_totalSupply)).div(pool);\n      }\n      pool = _calcPoolValueInToken();\n      _mint(msg.sender, shares);\n      rebalance();\n  }\n\n  // No rebalance implementation for lower fees and faster swaps\n  function withdraw(uint256 _shares)\n      external\n      nonReentrant\n      noContract\n  {\n      require(_shares > 0, \"withdraw must be greater than 0\");\n      uint256 ibalance = balanceOf(msg.sender);\n      require(_shares <= ibalance, \"insufficient balance\");\n      // Could have over value from cTokens\n      pool = _calcPoolValueInToken();\n      // Yeld\n      uint256 generatedYelds = getGeneratedYelds();\n      // Yeld\n      uint256 stablecoinsToWithdraw = (pool.mul(_shares)).div(_totalSupply);\n      _balances[msg.sender] = _balances[msg.sender].sub(_shares, \"redeem amount exceeds balance\");\n      _totalSupply = _totalSupply.sub(_shares);\n      emit Transfer(msg.sender, address(0), _shares);\n      uint256 b = IERC20(token).balanceOf(address(this));\n      if (b < stablecoinsToWithdraw) {\n        _withdrawSome(stablecoinsToWithdraw.sub(b));\n      }\n\n\n      // Yeld\n      // Take 1% of the amount to withdraw\n      uint256 onePercent = stablecoinsToWithdraw.div(100);\n      depositBlockStarts[msg.sender] = block.number;\n      depositAmount[msg.sender] = depositAmount[msg.sender].sub(stablecoinsToWithdraw);\n      yeldToken.transfer(msg.sender, generatedYelds);\n      // Take a portion of the profits for the buy and burn and retirement yeld\n      // Convert half the USDC earned into ETH for the protocol algorithms\n      uint256 stakingProfits = usdcToETH(onePercent);\n      uint256 tokensAlreadyBurned = yeldToken.balanceOf(address(0));\n      if (tokensAlreadyBurned < maximumTokensToBurn) {\n        // 98% is the 49% doubled since we already took the 50%\n        uint256 ethToSwap = stakingProfits.mul(98).div(100);\n        // Buy and burn only applies up to 50k tokens burned\n        buyNBurn(ethToSwap);\n        // 1% for the Retirement Yield\n        uint256 retirementYeld = stakingProfits.mul(2).div(100);\n        // Send to the treasury\n        retirementYeldTreasury.transfer(retirementYeld);\n      } else {\n        // If we've reached the maximum burn point, send half the profits to the treasury to reward holders\n        uint256 retirementYeld = stakingProfits;\n        // Send to the treasury\n        retirementYeldTreasury.transfer(retirementYeld);\n      }\n      IERC20(token).transfer(msg.sender, stablecoinsToWithdraw.sub(onePercent));\n      // Yeld\n\n      pool = _calcPoolValueInToken();\n      rebalance();\n  }\n\n  function recommend() public view returns (Lender) {\n    (,uint256 capr,uint256 iapr,uint256 aapr,uint256 dapr) = IIEarnManager(apr).recommend(token);\n    uint256 max = 0;\n    if (capr > max) {\n      max = capr;\n    }\n    if (iapr > max) {\n      max = iapr;\n    }\n    if (aapr > max) {\n      max = aapr;\n    }\n    if (dapr > max) {\n      max = dapr;\n    }\n\n    Lender newProvider = Lender.NONE;\n    if (max == capr) {\n      newProvider = Lender.COMPOUND;\n    } else if (max == iapr) {\n      newProvider = Lender.FULCRUM;\n    } else if (max == aapr) {\n      newProvider = Lender.AAVE;\n    } else if (max == dapr) {\n      newProvider = Lender.DYDX;\n    }\n    return newProvider;\n  }\n\n  function supplyDydx(uint256 amount) public returns(uint) {\n      Info[] memory infos = new Info[](1);\n      infos[0] = Info(address(this), 0);\n\n      AssetAmount memory amt = AssetAmount(true, AssetDenomination.Wei, AssetReference.Delta, amount);\n      ActionArgs memory act;\n      act.actionType = ActionType.Deposit;\n      act.accountId = 0;\n      act.amount = amt;\n      act.primaryMarketId = dToken;\n      act.otherAddress = address(this);\n\n      ActionArgs[] memory args = new ActionArgs[](1);\n      args[0] = act;\n\n      DyDx(dydx).operate(infos, args);\n  }\n\n  function _withdrawDydx(uint256 amount) internal {\n      Info[] memory infos = new Info[](1);\n      infos[0] = Info(address(this), 0);\n\n      AssetAmount memory amt = AssetAmount(false, AssetDenomination.Wei, AssetReference.Delta, amount);\n      ActionArgs memory act;\n      act.actionType = ActionType.Withdraw;\n      act.accountId = 0;\n      act.amount = amt;\n      act.primaryMarketId = dToken;\n      act.otherAddress = address(this);\n\n      ActionArgs[] memory args = new ActionArgs[](1);\n      args[0] = act;\n\n      DyDx(dydx).operate(infos, args);\n  }\n\n  function getAave() public view returns (address) {\n    return LendingPoolAddressesProvider(aave).getLendingPool();\n  }\n  function getAaveCore() public view returns (address) {\n    return LendingPoolAddressesProvider(aave).getLendingPoolCore();\n  }\n\n  function approveToken() public {\n      IERC20(token).safeApprove(compound, uint(-1)); //also add to constructor\n      IERC20(token).safeApprove(dydx, uint(-1));\n      IERC20(token).safeApprove(getAaveCore(), uint(-1));\n      IERC20(token).safeApprove(fulcrum, uint(-1));\n  }\n\n  function balance() public view returns (uint256) {\n    return IERC20(token).balanceOf(address(this));\n  }\n\n  function balanceDydx() public view returns (uint256) {\n      Wei memory bal = DyDx(dydx).getAccountWei(Info(address(this), 0), dToken);\n      return bal.value;\n  }\n  function balanceCompound() public view returns (uint256) {\n      return IERC20(compound).balanceOf(address(this));\n  }\n  function balanceCompoundInToken() public view returns (uint256) {\n    // Mantisa 1e18 to decimals\n    uint256 b = balanceCompound();\n    if (b > 0) {\n      b = b.mul(Compound(compound).exchangeRateStored()).div(1e18);\n    }\n    return b;\n  }\n  function balanceFulcrumInToken() public view returns (uint256) {\n    uint256 b = balanceFulcrum();\n    if (b > 0) {\n      b = Fulcrum(fulcrum).assetBalanceOf(address(this));\n    }\n    return b;\n  }\n  function balanceFulcrum() public view returns (uint256) {\n    return IERC20(fulcrum).balanceOf(address(this));\n  }\n  function balanceAave() public view returns (uint256) {\n    return IERC20(aaveToken).balanceOf(address(this));\n  }\n\n  function _balance() internal view returns (uint256) {\n    return IERC20(token).balanceOf(address(this));\n  }\n\n  function _balanceDydx() internal view returns (uint256) {\n      Wei memory bal = DyDx(dydx).getAccountWei(Info(address(this), 0), dToken);\n      return bal.value;\n  }\n  function _balanceCompound() internal view returns (uint256) {\n      return IERC20(compound).balanceOf(address(this));\n  }\n  function _balanceCompoundInToken() internal view returns (uint256) {\n    // Mantisa 1e18 to decimals\n    uint256 b = balanceCompound();\n    if (b > 0) {\n      b = b.mul(Compound(compound).exchangeRateStored()).div(1e18);\n    }\n    return b;\n  }\n  function _balanceFulcrumInToken() internal view returns (uint256) {\n    uint256 b = balanceFulcrum();\n    if (b > 0) {\n      b = Fulcrum(fulcrum).assetBalanceOf(address(this));\n    }\n    return b;\n  }\n  function _balanceFulcrum() internal view returns (uint256) {\n    return IERC20(fulcrum).balanceOf(address(this));\n  }\n  function _balanceAave() internal view returns (uint256) {\n    return IERC20(aaveToken).balanceOf(address(this));\n  }\n\n  function _withdrawAll() internal {\n    uint256 amount = _balanceCompound();\n    if (amount > 0) {\n      _withdrawCompound(amount);\n    }\n    amount = _balanceDydx();\n    if (amount > 0) {\n      _withdrawDydx(amount);\n    }\n    amount = _balanceFulcrum();\n    if (amount > 0) {\n      _withdrawFulcrum(amount);\n    }\n    amount = _balanceAave();\n    if (amount > 0) {\n      _withdrawAave(amount);\n    }\n  }\n\n  function _withdrawSomeCompound(uint256 _amount) internal {\n    uint256 b = balanceCompound();\n    uint256 bT = balanceCompoundInToken();\n    require(bT >= _amount, \"insufficient funds\");\n    // can have unintentional rounding errors\n    uint256 amount = (b.mul(_amount)).div(bT).add(1);\n    _withdrawCompound(amount);\n  }\n\n  // 1999999614570950845\n  function _withdrawSomeFulcrum(uint256 _amount) internal {\n    // Balance of fulcrum tokens, 1 iDAI = 1.00x DAI\n    uint256 b = balanceFulcrum(); // 1970469086655766652\n    // Balance of token in fulcrum\n    uint256 bT = balanceFulcrumInToken(); // 2000000803224344406\n    require(bT >= _amount, \"insufficient funds\");\n    // can have unintentional rounding errors\n    uint256 amount = (b.mul(_amount)).div(bT).add(1);\n    _withdrawFulcrum(amount);\n  }\n\n  function _withdrawSome(uint256 _amount) internal {\n    if (provider == Lender.COMPOUND) {\n      _withdrawSomeCompound(_amount);\n    }\n    if (provider == Lender.AAVE) {\n      require(balanceAave() >= _amount, \"insufficient funds\");\n      _withdrawAave(_amount);\n    }\n    if (provider == Lender.DYDX) {\n      require(balanceDydx() >= _amount, \"insufficient funds\");\n      _withdrawDydx(_amount);\n    }\n    if (provider == Lender.FULCRUM) {\n      _withdrawSomeFulcrum(_amount);\n    }\n  }\n\n  function rebalance() public {\n    Lender newProvider = recommend();\n\n    if (newProvider != provider) {\n      _withdrawAll();\n    }\n\n    if (balance() > 0) {\n      if (newProvider == Lender.DYDX) {\n        supplyDydx(balance());\n      } else if (newProvider == Lender.FULCRUM) {\n        supplyFulcrum(balance());\n      } else if (newProvider == Lender.COMPOUND) {\n        supplyCompound(balance());\n      } else if (newProvider == Lender.AAVE) {\n        supplyAave(balance());\n      }\n    }\n\n    provider = newProvider;\n  }\n\n  // Internal only rebalance for better gas in redeem\n  function _rebalance(Lender newProvider) internal {\n    if (_balance() > 0) {\n      if (newProvider == Lender.DYDX) {\n        supplyDydx(_balance());\n      } else if (newProvider == Lender.FULCRUM) {\n        supplyFulcrum(_balance());\n      } else if (newProvider == Lender.COMPOUND) {\n        supplyCompound(_balance());\n      } else if (newProvider == Lender.AAVE) {\n        supplyAave(_balance());\n      }\n    }\n    provider = newProvider;\n  }\n\n  function supplyAave(uint amount) public {\n      Aave(getAave()).deposit(token, amount, 0);\n  }\n  function supplyFulcrum(uint amount) public {\n      require(Fulcrum(fulcrum).mint(address(this), amount) > 0, \"FULCRUM: supply failed\");\n  }\n  function supplyCompound(uint amount) public {\n      require(Compound(compound).mint(amount) == 0, \"COMPOUND: supply failed\");\n  }\n  function _withdrawAave(uint amount) internal {\n      AToken(aaveToken).redeem(amount);\n  }\n  function _withdrawFulcrum(uint amount) internal {\n      require(Fulcrum(fulcrum).burn(address(this), amount) > 0, \"FULCRUM: withdraw failed\");\n  }\n  function _withdrawCompound(uint amount) internal {\n      require(Compound(compound).redeem(amount) == 0, \"COMPOUND: withdraw failed\");\n  }\n\n  function invest(uint256 _amount)\n      external\n      nonReentrant\n  {\n      require(_amount > 0, \"deposit must be greater than 0\");\n      pool = calcPoolValueInToken();\n\n      IERC20(token).safeTransferFrom(msg.sender, address(this), _amount);\n\n      rebalance();\n\n      // Calculate pool shares\n      uint256 shares = 0;\n      if (pool == 0) {\n        shares = _amount;\n        pool = _amount;\n      } else {\n        shares = (_amount.mul(_totalSupply)).div(pool);\n      }\n      pool = calcPoolValueInToken();\n      _mint(msg.sender, shares);\n  }\n\n  function _calcPoolValueInToken() internal view returns (uint) {\n    return _balanceCompoundInToken()\n      .add(_balanceFulcrumInToken())\n      .add(_balanceDydx())\n      .add(_balanceAave())\n      .add(_balance());\n  }\n\n  function calcPoolValueInToken() public view returns (uint) {\n    return balanceCompoundInToken()\n      .add(balanceFulcrumInToken())\n      .add(balanceDydx())\n      .add(balanceAave())\n      .add(balance());\n  }\n\n  function getPricePerFullShare() public view returns (uint) {\n    uint _pool = calcPoolValueInToken();\n    return _pool.mul(1e18).div(_totalSupply);\n  }\n\n  // Redeem any invested tokens from the pool\n  function redeem(uint256 _shares)\n      external\n      nonReentrant\n  {\n      require(_shares > 0, \"withdraw must be greater than 0\");\n\n      uint256 ibalance = balanceOf(msg.sender);\n      require(_shares <= ibalance, \"insufficient balance\");\n\n      // Could have over value from cTokens\n      pool = calcPoolValueInToken();\n      // Calc to redeem before updating balances\n      uint256 r = (pool.mul(_shares)).div(_totalSupply);\n\n\n      _balances[msg.sender] = _balances[msg.sender].sub(_shares, \"redeem amount exceeds balance\");\n      _totalSupply = _totalSupply.sub(_shares);\n\n      emit Transfer(msg.sender, address(0), _shares);\n\n      // Check ETH balance\n      uint256 b = IERC20(token).balanceOf(address(this));\n      Lender newProvider = provider;\n      if (b < r) {\n        newProvider = recommend();\n        if (newProvider != provider) {\n          _withdrawAll();\n        } else {\n          _withdrawSome(r.sub(b));\n        }\n      }\n\n      IERC20(token).safeTransfer(msg.sender, r);\n\n      if (newProvider != provider) {\n        _rebalance(newProvider);\n      }\n      pool = calcPoolValueInToken();\n  }\n}\n",
  "sourcePath": "C:/Users/merun/Desktop/yeld-contracts/contracts/yUSDC.sol",
  "compiler": {
    "name": "solc",
    "version": "0.5.17+commit.d19bba13.Emscripten.clang"
  },
  "schemaVersion": "3.2.2",
  "updatedAt": "2021-01-17T18:34:01.681Z",
  "networkType": "ethereum",
  "devdoc": {
    "methods": {}
  },
  "userdoc": {
    "methods": {}
  }
}