{
  "contractName": "yUSDT",
  "abi": [
    {
      "inputs": [
        {
          "internalType": "address",
          "name": "_yeldToken",
          "type": "address"
        },
        {
          "internalType": "address payable",
          "name": "_retirementYeldTreasury",
          "type": "address"
        },
        {
          "internalType": "address",
          "name": "_devTreasury",
          "type": "address"
        }
      ],
      "payable": false,
      "stateMutability": "nonpayable",
      "type": "constructor"
    },
    {
      "anonymous": false,
      "inputs": [
        {
          "indexed": true,
          "internalType": "address",
          "name": "owner",
          "type": "address"
        },
        {
          "indexed": true,
          "internalType": "address",
          "name": "spender",
          "type": "address"
        },
        {
          "indexed": false,
          "internalType": "uint256",
          "name": "value",
          "type": "uint256"
        }
      ],
      "name": "Approval",
      "type": "event"
    },
    {
      "anonymous": false,
      "inputs": [
        {
          "indexed": true,
          "internalType": "address",
          "name": "previousOwner",
          "type": "address"
        },
        {
          "indexed": true,
          "internalType": "address",
          "name": "newOwner",
          "type": "address"
        }
      ],
      "name": "OwnershipTransferred",
      "type": "event"
    },
    {
      "anonymous": false,
      "inputs": [
        {
          "indexed": true,
          "internalType": "address",
          "name": "from",
          "type": "address"
        },
        {
          "indexed": true,
          "internalType": "address",
          "name": "to",
          "type": "address"
        },
        {
          "indexed": false,
          "internalType": "uint256",
          "name": "value",
          "type": "uint256"
        }
      ],
      "name": "Transfer",
      "type": "event"
    },
    {
      "payable": true,
      "stateMutability": "payable",
      "type": "fallback"
    },
    {
      "constant": true,
      "inputs": [],
      "name": "aave",
      "outputs": [
        {
          "internalType": "address",
          "name": "",
          "type": "address"
        }
      ],
      "payable": false,
      "stateMutability": "view",
      "type": "function"
    },
    {
      "constant": true,
      "inputs": [],
      "name": "aaveToken",
      "outputs": [
        {
          "internalType": "address",
          "name": "",
          "type": "address"
        }
      ],
      "payable": false,
      "stateMutability": "view",
      "type": "function"
    },
    {
      "constant": true,
      "inputs": [
        {
          "internalType": "address",
          "name": "owner",
          "type": "address"
        },
        {
          "internalType": "address",
          "name": "spender",
          "type": "address"
        }
      ],
      "name": "allowance",
      "outputs": [
        {
          "internalType": "uint256",
          "name": "",
          "type": "uint256"
        }
      ],
      "payable": false,
      "stateMutability": "view",
      "type": "function"
    },
    {
      "constant": false,
      "inputs": [
        {
          "internalType": "address",
          "name": "spender",
          "type": "address"
        },
        {
          "internalType": "uint256",
          "name": "amount",
          "type": "uint256"
        }
      ],
      "name": "approve",
      "outputs": [
        {
          "internalType": "bool",
          "name": "",
          "type": "bool"
        }
      ],
      "payable": false,
      "stateMutability": "nonpayable",
      "type": "function"
    },
    {
      "constant": true,
      "inputs": [],
      "name": "apr",
      "outputs": [
        {
          "internalType": "address",
          "name": "",
          "type": "address"
        }
      ],
      "payable": false,
      "stateMutability": "view",
      "type": "function"
    },
    {
      "constant": true,
      "inputs": [
        {
          "internalType": "address",
          "name": "account",
          "type": "address"
        }
      ],
      "name": "balanceOf",
      "outputs": [
        {
          "internalType": "uint256",
          "name": "",
          "type": "uint256"
        }
      ],
      "payable": false,
      "stateMutability": "view",
      "type": "function"
    },
    {
      "constant": true,
      "inputs": [],
      "name": "compound",
      "outputs": [
        {
          "internalType": "address",
          "name": "",
          "type": "address"
        }
      ],
      "payable": false,
      "stateMutability": "view",
      "type": "function"
    },
    {
      "constant": true,
      "inputs": [],
      "name": "dToken",
      "outputs": [
        {
          "internalType": "uint256",
          "name": "",
          "type": "uint256"
        }
      ],
      "payable": false,
      "stateMutability": "view",
      "type": "function"
    },
    {
      "constant": true,
      "inputs": [],
      "name": "dai",
      "outputs": [
        {
          "internalType": "address",
          "name": "",
          "type": "address"
        }
      ],
      "payable": false,
      "stateMutability": "view",
      "type": "function"
    },
    {
      "constant": true,
      "inputs": [],
      "name": "decimals",
      "outputs": [
        {
          "internalType": "uint8",
          "name": "",
          "type": "uint8"
        }
      ],
      "payable": false,
      "stateMutability": "view",
      "type": "function"
    },
    {
      "constant": false,
      "inputs": [
        {
          "internalType": "address",
          "name": "spender",
          "type": "address"
        },
        {
          "internalType": "uint256",
          "name": "subtractedValue",
          "type": "uint256"
        }
      ],
      "name": "decreaseAllowance",
      "outputs": [
        {
          "internalType": "bool",
          "name": "",
          "type": "bool"
        }
      ],
      "payable": false,
      "stateMutability": "nonpayable",
      "type": "function"
    },
    {
      "constant": true,
      "inputs": [
        {
          "internalType": "address",
          "name": "",
          "type": "address"
        }
      ],
      "name": "depositAmount",
      "outputs": [
        {
          "internalType": "uint256",
          "name": "",
          "type": "uint256"
        }
      ],
      "payable": false,
      "stateMutability": "view",
      "type": "function"
    },
    {
      "constant": true,
      "inputs": [
        {
          "internalType": "address",
          "name": "",
          "type": "address"
        }
      ],
      "name": "depositBlockStarts",
      "outputs": [
        {
          "internalType": "uint256",
          "name": "",
          "type": "uint256"
        }
      ],
      "payable": false,
      "stateMutability": "view",
      "type": "function"
    },
    {
      "constant": true,
      "inputs": [],
      "name": "devTreasury",
      "outputs": [
        {
          "internalType": "address",
          "name": "",
          "type": "address"
        }
      ],
      "payable": false,
      "stateMutability": "view",
      "type": "function"
    },
    {
      "constant": true,
      "inputs": [],
      "name": "dydx",
      "outputs": [
        {
          "internalType": "address",
          "name": "",
          "type": "address"
        }
      ],
      "payable": false,
      "stateMutability": "view",
      "type": "function"
    },
    {
      "constant": true,
      "inputs": [],
      "name": "fulcrum",
      "outputs": [
        {
          "internalType": "address",
          "name": "",
          "type": "address"
        }
      ],
      "payable": false,
      "stateMutability": "view",
      "type": "function"
    },
    {
      "constant": true,
      "inputs": [
        {
          "internalType": "address",
          "name": "_yeld",
          "type": "address"
        },
        {
          "internalType": "address",
          "name": "_weth",
          "type": "address"
        },
        {
          "internalType": "address",
          "name": "_dai",
          "type": "address"
        },
        {
          "internalType": "address",
          "name": "_uniswap",
          "type": "address"
        }
      ],
      "name": "getYeldPriceInDai",
      "outputs": [
        {
          "internalType": "uint256",
          "name": "",
          "type": "uint256"
        }
      ],
      "payable": false,
      "stateMutability": "view",
      "type": "function"
    },
    {
      "constant": true,
      "inputs": [],
      "name": "holdPercentage",
      "outputs": [
        {
          "internalType": "uint256",
          "name": "",
          "type": "uint256"
        }
      ],
      "payable": false,
      "stateMutability": "view",
      "type": "function"
    },
    {
      "constant": false,
      "inputs": [
        {
          "internalType": "address",
          "name": "spender",
          "type": "address"
        },
        {
          "internalType": "uint256",
          "name": "addedValue",
          "type": "uint256"
        }
      ],
      "name": "increaseAllowance",
      "outputs": [
        {
          "internalType": "bool",
          "name": "",
          "type": "bool"
        }
      ],
      "payable": false,
      "stateMutability": "nonpayable",
      "type": "function"
    },
    {
      "constant": true,
      "inputs": [],
      "name": "isOwner",
      "outputs": [
        {
          "internalType": "bool",
          "name": "",
          "type": "bool"
        }
      ],
      "payable": false,
      "stateMutability": "view",
      "type": "function"
    },
    {
      "constant": true,
      "inputs": [],
      "name": "maximumTokensToBurn",
      "outputs": [
        {
          "internalType": "uint256",
          "name": "",
          "type": "uint256"
        }
      ],
      "payable": false,
      "stateMutability": "view",
      "type": "function"
    },
    {
      "constant": true,
      "inputs": [],
      "name": "name",
      "outputs": [
        {
          "internalType": "string",
          "name": "",
          "type": "string"
        }
      ],
      "payable": false,
      "stateMutability": "view",
      "type": "function"
    },
    {
      "constant": true,
      "inputs": [],
      "name": "oneDayInBlocks",
      "outputs": [
        {
          "internalType": "uint256",
          "name": "",
          "type": "uint256"
        }
      ],
      "payable": false,
      "stateMutability": "view",
      "type": "function"
    },
    {
      "constant": true,
      "inputs": [],
      "name": "oneMillion",
      "outputs": [
        {
          "internalType": "uint256",
          "name": "",
          "type": "uint256"
        }
      ],
      "payable": false,
      "stateMutability": "view",
      "type": "function"
    },
    {
      "constant": true,
      "inputs": [],
      "name": "owner",
      "outputs": [
        {
          "internalType": "address payable",
          "name": "",
          "type": "address"
        }
      ],
      "payable": false,
      "stateMutability": "view",
      "type": "function"
    },
    {
      "constant": true,
      "inputs": [],
      "name": "percentageBuyBurn",
      "outputs": [
        {
          "internalType": "uint256",
          "name": "",
          "type": "uint256"
        }
      ],
      "payable": false,
      "stateMutability": "view",
      "type": "function"
    },
    {
      "constant": true,
      "inputs": [],
      "name": "percentageDevTreasury",
      "outputs": [
        {
          "internalType": "uint256",
          "name": "",
          "type": "uint256"
        }
      ],
      "payable": false,
      "stateMutability": "view",
      "type": "function"
    },
    {
      "constant": true,
      "inputs": [],
      "name": "percentageRetirementYield",
      "outputs": [
        {
          "internalType": "uint256",
          "name": "",
          "type": "uint256"
        }
      ],
      "payable": false,
      "stateMutability": "view",
      "type": "function"
    },
    {
      "constant": true,
      "inputs": [],
      "name": "pool",
      "outputs": [
        {
          "internalType": "uint256",
          "name": "",
          "type": "uint256"
        }
      ],
      "payable": false,
      "stateMutability": "view",
      "type": "function"
    },
    {
      "constant": true,
      "inputs": [],
      "name": "provider",
      "outputs": [
        {
          "internalType": "enum yUSDT.Lender",
          "name": "",
          "type": "uint8"
        }
      ],
      "payable": false,
      "stateMutability": "view",
      "type": "function"
    },
    {
      "constant": false,
      "inputs": [],
      "name": "renounceOwnership",
      "outputs": [],
      "payable": false,
      "stateMutability": "nonpayable",
      "type": "function"
    },
    {
      "constant": true,
      "inputs": [],
      "name": "retirementYeldTreasury",
      "outputs": [
        {
          "internalType": "address payable",
          "name": "",
          "type": "address"
        }
      ],
      "payable": false,
      "stateMutability": "view",
      "type": "function"
    },
    {
      "constant": true,
      "inputs": [],
      "name": "symbol",
      "outputs": [
        {
          "internalType": "string",
          "name": "",
          "type": "string"
        }
      ],
      "payable": false,
      "stateMutability": "view",
      "type": "function"
    },
    {
      "constant": true,
      "inputs": [],
      "name": "token",
      "outputs": [
        {
          "internalType": "address",
          "name": "",
          "type": "address"
        }
      ],
      "payable": false,
      "stateMutability": "view",
      "type": "function"
    },
    {
      "constant": true,
      "inputs": [],
      "name": "totalSupply",
      "outputs": [
        {
          "internalType": "uint256",
          "name": "",
          "type": "uint256"
        }
      ],
      "payable": false,
      "stateMutability": "view",
      "type": "function"
    },
    {
      "constant": false,
      "inputs": [
        {
          "internalType": "address",
          "name": "recipient",
          "type": "address"
        },
        {
          "internalType": "uint256",
          "name": "amount",
          "type": "uint256"
        }
      ],
      "name": "transfer",
      "outputs": [
        {
          "internalType": "bool",
          "name": "",
          "type": "bool"
        }
      ],
      "payable": false,
      "stateMutability": "nonpayable",
      "type": "function"
    },
    {
      "constant": false,
      "inputs": [
        {
          "internalType": "address",
          "name": "sender",
          "type": "address"
        },
        {
          "internalType": "address",
          "name": "recipient",
          "type": "address"
        },
        {
          "internalType": "uint256",
          "name": "amount",
          "type": "uint256"
        }
      ],
      "name": "transferFrom",
      "outputs": [
        {
          "internalType": "bool",
          "name": "",
          "type": "bool"
        }
      ],
      "payable": false,
      "stateMutability": "nonpayable",
      "type": "function"
    },
    {
      "constant": false,
      "inputs": [
        {
          "internalType": "address payable",
          "name": "newOwner",
          "type": "address"
        }
      ],
      "name": "transferOwnership",
      "outputs": [],
      "payable": false,
      "stateMutability": "nonpayable",
      "type": "function"
    },
    {
      "constant": true,
      "inputs": [],
      "name": "uniswapRouter",
      "outputs": [
        {
          "internalType": "address",
          "name": "",
          "type": "address"
        }
      ],
      "payable": false,
      "stateMutability": "view",
      "type": "function"
    },
    {
      "constant": false,
      "inputs": [
        {
          "internalType": "uint256",
          "name": "a",
          "type": "uint256"
        },
        {
          "internalType": "uint256",
          "name": "b",
          "type": "uint256"
        },
        {
          "internalType": "uint256",
          "name": "c",
          "type": "uint256"
        }
      ],
      "name": "updatePercentages",
      "outputs": [],
      "payable": false,
      "stateMutability": "nonpayable",
      "type": "function"
    },
    {
      "constant": true,
      "inputs": [],
      "name": "usdt",
      "outputs": [
        {
          "internalType": "address",
          "name": "",
          "type": "address"
        }
      ],
      "payable": false,
      "stateMutability": "view",
      "type": "function"
    },
    {
      "constant": true,
      "inputs": [],
      "name": "weth",
      "outputs": [
        {
          "internalType": "address",
          "name": "",
          "type": "address"
        }
      ],
      "payable": false,
      "stateMutability": "view",
      "type": "function"
    },
    {
      "constant": true,
      "inputs": [],
      "name": "yeldToRewardPerDay",
      "outputs": [
        {
          "internalType": "uint256",
          "name": "",
          "type": "uint256"
        }
      ],
      "payable": false,
      "stateMutability": "view",
      "type": "function"
    },
    {
      "constant": true,
      "inputs": [],
      "name": "yeldToken",
      "outputs": [
        {
          "internalType": "contract IERC20",
          "name": "",
          "type": "address"
        }
      ],
      "payable": false,
      "stateMutability": "view",
      "type": "function"
    },
    {
      "constant": false,
      "inputs": [
        {
          "internalType": "address payable",
          "name": "_treasury",
          "type": "address"
        }
      ],
      "name": "setRetirementYeldTreasury",
      "outputs": [],
      "payable": false,
      "stateMutability": "nonpayable",
      "type": "function"
    },
    {
      "constant": false,
      "inputs": [
        {
          "internalType": "address",
          "name": "_uniswapRouter",
          "type": "address"
        }
      ],
      "name": "setUniswapRouter",
      "outputs": [],
      "payable": false,
      "stateMutability": "nonpayable",
      "type": "function"
    },
    {
      "constant": false,
      "inputs": [
        {
          "internalType": "address",
          "name": "_yeldToken",
          "type": "address"
        }
      ],
      "name": "setYeldToken",
      "outputs": [],
      "payable": false,
      "stateMutability": "nonpayable",
      "type": "function"
    },
    {
      "constant": false,
      "inputs": [
        {
          "internalType": "address",
          "name": "_devTreasury",
          "type": "address"
        }
      ],
      "name": "setDevTreasury",
      "outputs": [],
      "payable": false,
      "stateMutability": "nonpayable",
      "type": "function"
    },
    {
      "constant": false,
      "inputs": [
        {
          "internalType": "address",
          "name": "_token",
          "type": "address"
        },
        {
          "internalType": "uint256",
          "name": "_amount",
          "type": "uint256"
        }
      ],
      "name": "extractTokensIfStuck",
      "outputs": [],
      "payable": false,
      "stateMutability": "nonpayable",
      "type": "function"
    },
    {
      "constant": false,
      "inputs": [],
      "name": "extractETHIfStuck",
      "outputs": [],
      "payable": false,
      "stateMutability": "nonpayable",
      "type": "function"
    },
    {
      "constant": false,
      "inputs": [
        {
          "internalType": "uint256",
          "name": "_amount",
          "type": "uint256"
        }
      ],
      "name": "changeYeldToRewardPerDay",
      "outputs": [],
      "payable": false,
      "stateMutability": "nonpayable",
      "type": "function"
    },
    {
      "constant": true,
      "inputs": [],
      "name": "getGeneratedYelds",
      "outputs": [
        {
          "internalType": "uint256",
          "name": "",
          "type": "uint256"
        }
      ],
      "payable": false,
      "stateMutability": "view",
      "type": "function"
    },
    {
      "constant": false,
      "inputs": [
        {
          "internalType": "uint256",
          "name": "_holdPercentage",
          "type": "uint256"
        }
      ],
      "name": "setHoldPercentage",
      "outputs": [],
      "payable": false,
      "stateMutability": "nonpayable",
      "type": "function"
    },
    {
      "constant": false,
      "inputs": [
        {
          "internalType": "uint256",
          "name": "_amount",
          "type": "uint256"
        }
      ],
      "name": "deposit",
      "outputs": [],
      "payable": false,
      "stateMutability": "nonpayable",
      "type": "function"
    },
    {
      "constant": false,
      "inputs": [
        {
          "internalType": "uint256",
          "name": "_shares",
          "type": "uint256"
        }
      ],
      "name": "withdraw",
      "outputs": [],
      "payable": false,
      "stateMutability": "nonpayable",
      "type": "function"
    },
    {
      "constant": false,
      "inputs": [
        {
          "internalType": "address",
          "name": "_new_APR",
          "type": "address"
        }
      ],
      "name": "set_new_APR",
      "outputs": [],
      "payable": false,
      "stateMutability": "nonpayable",
      "type": "function"
    },
    {
      "constant": false,
      "inputs": [
        {
          "internalType": "address",
          "name": "_new_FULCRUM",
          "type": "address"
        }
      ],
      "name": "set_new_FULCRUM",
      "outputs": [],
      "payable": false,
      "stateMutability": "nonpayable",
      "type": "function"
    },
    {
      "constant": false,
      "inputs": [
        {
          "internalType": "address",
          "name": "_new_COMPOUND",
          "type": "address"
        }
      ],
      "name": "set_new_COMPOUND",
      "outputs": [],
      "payable": false,
      "stateMutability": "nonpayable",
      "type": "function"
    },
    {
      "constant": false,
      "inputs": [
        {
          "internalType": "uint256",
          "name": "_new_DTOKEN",
          "type": "uint256"
        }
      ],
      "name": "set_new_DTOKEN",
      "outputs": [],
      "payable": false,
      "stateMutability": "nonpayable",
      "type": "function"
    },
    {
      "constant": true,
      "inputs": [],
      "name": "recommend",
      "outputs": [
        {
          "internalType": "enum yUSDT.Lender",
          "name": "",
          "type": "uint8"
        }
      ],
      "payable": false,
      "stateMutability": "view",
      "type": "function"
    },
    {
      "constant": false,
      "inputs": [
        {
          "internalType": "uint256",
          "name": "amount",
          "type": "uint256"
        }
      ],
      "name": "supplyDydx",
      "outputs": [
        {
          "internalType": "uint256",
          "name": "",
          "type": "uint256"
        }
      ],
      "payable": false,
      "stateMutability": "nonpayable",
      "type": "function"
    },
    {
      "constant": true,
      "inputs": [],
      "name": "getAave",
      "outputs": [
        {
          "internalType": "address",
          "name": "",
          "type": "address"
        }
      ],
      "payable": false,
      "stateMutability": "view",
      "type": "function"
    },
    {
      "constant": true,
      "inputs": [],
      "name": "getAaveCore",
      "outputs": [
        {
          "internalType": "address",
          "name": "",
          "type": "address"
        }
      ],
      "payable": false,
      "stateMutability": "view",
      "type": "function"
    },
    {
      "constant": false,
      "inputs": [],
      "name": "approveToken",
      "outputs": [],
      "payable": false,
      "stateMutability": "nonpayable",
      "type": "function"
    },
    {
      "constant": true,
      "inputs": [],
      "name": "balance",
      "outputs": [
        {
          "internalType": "uint256",
          "name": "",
          "type": "uint256"
        }
      ],
      "payable": false,
      "stateMutability": "view",
      "type": "function"
    },
    {
      "constant": true,
      "inputs": [],
      "name": "balanceDydx",
      "outputs": [
        {
          "internalType": "uint256",
          "name": "",
          "type": "uint256"
        }
      ],
      "payable": false,
      "stateMutability": "view",
      "type": "function"
    },
    {
      "constant": true,
      "inputs": [],
      "name": "balanceCompound",
      "outputs": [
        {
          "internalType": "uint256",
          "name": "",
          "type": "uint256"
        }
      ],
      "payable": false,
      "stateMutability": "view",
      "type": "function"
    },
    {
      "constant": true,
      "inputs": [],
      "name": "balanceCompoundInToken",
      "outputs": [
        {
          "internalType": "uint256",
          "name": "",
          "type": "uint256"
        }
      ],
      "payable": false,
      "stateMutability": "view",
      "type": "function"
    },
    {
      "constant": true,
      "inputs": [],
      "name": "balanceFulcrumInToken",
      "outputs": [
        {
          "internalType": "uint256",
          "name": "",
          "type": "uint256"
        }
      ],
      "payable": false,
      "stateMutability": "view",
      "type": "function"
    },
    {
      "constant": true,
      "inputs": [],
      "name": "balanceFulcrum",
      "outputs": [
        {
          "internalType": "uint256",
          "name": "",
          "type": "uint256"
        }
      ],
      "payable": false,
      "stateMutability": "view",
      "type": "function"
    },
    {
      "constant": true,
      "inputs": [],
      "name": "balanceAave",
      "outputs": [
        {
          "internalType": "uint256",
          "name": "",
          "type": "uint256"
        }
      ],
      "payable": false,
      "stateMutability": "view",
      "type": "function"
    },
    {
      "constant": false,
      "inputs": [],
      "name": "rebalance",
      "outputs": [],
      "payable": false,
      "stateMutability": "nonpayable",
      "type": "function"
    },
    {
      "constant": false,
      "inputs": [
        {
          "internalType": "uint256",
          "name": "amount",
          "type": "uint256"
        }
      ],
      "name": "supplyAave",
      "outputs": [],
      "payable": false,
      "stateMutability": "nonpayable",
      "type": "function"
    },
    {
      "constant": false,
      "inputs": [
        {
          "internalType": "uint256",
          "name": "amount",
          "type": "uint256"
        }
      ],
      "name": "supplyFulcrum",
      "outputs": [],
      "payable": false,
      "stateMutability": "nonpayable",
      "type": "function"
    },
    {
      "constant": false,
      "inputs": [
        {
          "internalType": "uint256",
          "name": "amount",
          "type": "uint256"
        }
      ],
      "name": "supplyCompound",
      "outputs": [],
      "payable": false,
      "stateMutability": "nonpayable",
      "type": "function"
    },
    {
      "constant": true,
      "inputs": [],
      "name": "calcPoolValueInToken",
      "outputs": [
        {
          "internalType": "uint256",
          "name": "",
          "type": "uint256"
        }
      ],
      "payable": false,
      "stateMutability": "view",
      "type": "function"
    },
    {
      "constant": true,
      "inputs": [],
      "name": "getPricePerFullShare",
      "outputs": [
        {
          "internalType": "uint256",
          "name": "",
          "type": "uint256"
        }
      ],
      "payable": false,
      "stateMutability": "view",
      "type": "function"
    }
  ],
  "bytecode": "0x60806040526714d1120d7b1600006008556722b1c8c1227a0000600955670de0b6b3a7640000600a55601680546001600160a01b0319908116737a250d5630b4cf539739df2c5dacb4c659f2488d1790915560178054821673dac17f958d2ee523a2206206994597c13d831ec717905560188054821673c02aaa39b223fe8d0a0e5c4f27ead9083c756cc217905560198054909116736b175474e89094c44da98b954eedeac495271d0f179055690a968163f0a57b400000601c556802b5e3af16b1880000601d5567d02ab486cedc0000601e55601f805460ff60a01b19169055348015620000ed57600080fd5b506040516200683b3803806200683b8339810160408190526200011091620007b8565b60408051808201825260098152681e595b19081554d11560ba1b6020808301918252835180850190945260058452641e5554d11560da1b908401528151919291600691620001629160039190620006c8565b50815162000178906004906020850190620006c8565b506005805460ff191660ff92909216919091179055505060016006556200019e6200031c565b600780546001600160a01b0319166001600160a01b0392831617908190556040519116906000907f8be0079c531659141344cd1fd0a4f28419497f9722a3daafe3b4186f6b6457e0908290a3600c80546001600160a01b031990811673dac17f958d2ee523a2206206994597c13d831ec71790915560138054821673dd6d648c991f7d47454354f4ef326b04025a48a8179055601180548216731e0447b19bb6ecfdae1e4ae1694b0c3659614e4e179055600f805482167324a42fd28c976a61df5d00d0599c34c4f90748c8179055600e8054821673f013406a0b1d544238083df0b93ad0d2cbe0f65f1790556010805482167371fc860f7d3a592a4a98740e39db31d25db65ae8179055600d805482167339aa39c021dfbae8fac545936693ac917d5e75631790556000601255601b80546001600160a01b0386811691841691909117909155601a8054858316908416179055601f805491841691909216179055620003136001600160e01b036200032116565b50505062000aee565b335b90565b600d54600c546200034e916001600160a01b039182169116600019620003e3602090811b62003e3117901c565b601154600c546200037b916001600160a01b039182169116600019620003e3602090811b62003e3117901c565b620003b4620003926001600160e01b03620004fd16565b600c546001600160a01b031690600019620003e3602090811b62003e3117901c565b600e54600c54620003e1916001600160a01b039182169116600019620003e3602090811b62003e3117901c565b565b801580620004725750604051636eb1769f60e11b81526001600160a01b0384169063dd62ed3e906200041c9030908690600401620009d9565b60206040518083038186803b1580156200043557600080fd5b505afa1580156200044a573d6000803e3d6000fd5b505050506040513d601f19601f820116820180604052506200047091908101906200082d565b155b6200049a5760405162461bcd60e51b8152600401620004919062000a3b565b60405180910390fd5b604051620004f890849063095ea7b360e01b90620004bf9086908690602401620009f8565b60408051808303601f190181529190526020810180516001600160e01b0319939093166001600160e01b03938416179052906200058316565b505050565b600f546040805163076b7fbb60e51b815290516000926001600160a01b03169163ed6ff760916004808301926020929190829003018186803b1580156200054357600080fd5b505afa15801562000558573d6000803e3d6000fd5b505050506040513d601f19601f820116820180604052506200057e919081019062000797565b905090565b620005a2826001600160a01b03166200068b60201b620047c51760201c565b620005c15760405162461bcd60e51b8152600401620004919062000a4d565b60006060836001600160a01b031683604051620005df9190620009c4565b6000604051808303816000865af19150503d80600081146200061e576040519150601f19603f3d011682016040523d82523d6000602084013e62000623565b606091505b509150915081620006485760405162461bcd60e51b8152600401620004919062000a17565b8051156200068557808060200190516200066691908101906200080c565b620006855760405162461bcd60e51b8152600401620004919062000a29565b50505050565b6000813f7fc5d2460186f7233c927e7db2dcc703c0e500b653ca82273b7bfad8045d85a4708115801590620006c05750808214155b949350505050565b828054600181600116156101000203166002900490600052602060002090601f016020900481019282601f106200070b57805160ff19168380011785556200073b565b828001600101855582156200073b579182015b828111156200073b5782518255916020019190600101906200071e565b50620007499291506200074d565b5090565b6200031e91905b8082111562000749576000815560010162000754565b8051620007778162000abe565b92915050565b8051620007778162000ad8565b8051620007778162000ae3565b600060208284031215620007aa57600080fd5b6000620006c084846200076a565b600080600060608486031215620007ce57600080fd5b6000620007dc86866200076a565b9350506020620007ef868287016200076a565b925050604062000802868287016200076a565b9150509250925092565b6000602082840312156200081f57600080fd5b6000620006c084846200077d565b6000602082840312156200084057600080fd5b6000620006c084846200078a565b620008598162000a71565b82525050565b60006200086c8262000a5f565b62000878818562000a63565b93506200088a81856020860162000a8f565b9290920192915050565b6000620008a360208362000a68565b7f5361666545524332303a206c6f772d6c6576656c2063616c6c206661696c6564815260200192915050565b6000620008de602a8362000a68565b7f5361666545524332303a204552433230206f7065726174696f6e20646964206e8152691bdd081cdd58d8d9595960b21b602082015260400192915050565b60006200092c60368362000a68565b7f5361666545524332303a20617070726f76652066726f6d206e6f6e2d7a65726f81527f20746f206e6f6e2d7a65726f20616c6c6f77616e636500000000000000000000602082015260400192915050565b60006200098d601f8362000a68565b7f5361666545524332303a2063616c6c20746f206e6f6e2d636f6e747261637400815260200192915050565b62000859816200031e565b6000620009d282846200085f565b9392505050565b60408101620009e982856200084e565b620009d260208301846200084e565b6040810162000a0882856200084e565b620009d26020830184620009b9565b60208082528101620007778162000894565b602080825281016200077781620008cf565b6020808252810162000777816200091d565b6020808252810162000777816200097e565b5190565b919050565b90815260200190565b6000620007778262000a83565b151590565b6001600160a01b031690565b60005b8381101562000aac57818101518382015260200162000a92565b83811115620006855750506000910152565b62000ac98162000a71565b811462000ad557600080fd5b50565b62000ac98162000a7e565b62000ac9816200031e565b615d3d8062000afe6000396000f3fe6080604052600436106105225760003560e01c80637f50d4d8116102af578063bea9849e11610179578063f29e15a2116100d6578063f5ff19161161008a578063f7c1ec771161006f578063f7c1ec7714610cd9578063f82ce27d14610cee578063fc0c546a14610d0357610522565b8063f5ff191614610ca4578063f69e204614610cc457610522565b8063f34ce4bb116100bb578063f34ce4bb14610c5a578063f4b9fa7514610c7a578063f5a41dea14610c8f57610522565b8063f29e15a214610c25578063f2fde38b14610c3a57610522565b8063e849d6591161012d578063ebc5116011610112578063ebc5116014610bdb578063f02fbd4a14610bf0578063f2978d9814610c1057610522565b8063e849d65914610b9b578063eb56faf014610bbb57610522565b8063d9d7858a1161015e578063d9d7858a14610b46578063dd62ed3e14610b5b578063e26f21bf14610b7b57610522565b8063bea9849e14610b11578063cf8ca42614610b3157610522565b80639ff011b911610227578063a9a1015a116101db578063b69ef8a8116101c0578063b69ef8a814610abc578063b6b55f2514610ad1578063bbf3164414610af157610522565b8063a9a1015a14610a87578063b19ab07614610aa757610522565b8063a457c2d71161020c578063a457c2d714610a32578063a728797114610a52578063a9059cbb14610a6757610522565b80639ff011b9146109fd578063a160176d14610a1d57610522565b80638da5cb5b1161027e5780638f32d59b116102635780638f32d59b146109be57806395d89b41146109d357806399b71d5c146109e857610522565b80638da5cb5b146109945780638e4ec6ef146109a957610522565b80637f50d4d8146109285780638124955c1461094a578063819faf7b1461096a578063858409ba1461097f57610522565b80633fc8cef3116103f057806365aab749116103685780637354b2e91161031c57806377c7b8fc1161030157806377c7b8fc146108de5780637b82784c146108f35780637d7c2a1c1461091357610522565b80637354b2e9146108b4578063735de9f7146108c957610522565b806370a082311161034d57806370a082311461086a5780637137ef991461088a578063715018a61461089f57610522565b806365aab749146108355780636ff2bf081461085557610522565b80634fe41129116103bf57806357ded9c9116103a457806357ded9c9146107f657806358782c211461080b57806361c1ec551461082057610522565b80634fe41129146107c157806350f62da7146107d657610522565b80633fc8cef314610757578063413e920d1461076c57806346357473146107815780634fd96cb6146107a157610522565b8063202a27351161049e5780632f48ab7d116104525780633950935111610437578063395093511461070257806339c0a7e1146107225780633bd777a81461073757610522565b80632f48ab7d146106cb578063313ce567146106e057610522565b80632622678c116104835780632622678c146106765780632e1a7d4d1461068b5780632eb4520a146106ab57610522565b8063202a27351461064157806323b872dd1461065657610522565b8063095ea7b3116104f557806310391d25116104da57806310391d251461060257806316f0115b1461061757806318160ddd1461062c57610522565b8063095ea7b3146105c05780630eb2a267146105ed57610522565b806306636c1c1461052457806306a3fe591461055a57806306fdde031461057c578063085d48831461059e575b005b34801561053057600080fd5b5061054461053f366004614c38565b610d18565b6040516105519190615a06565b60405180910390f35b34801561056657600080fd5b5061056f610ecf565b604051610551919061572b565b34801561058857600080fd5b50610591610eeb565b604051610551919061584a565b3480156105aa57600080fd5b506105b3610fa0565b604051610551919061581c565b3480156105cc57600080fd5b506105e06105db366004614b0b565b610fc1565b6040516105519190615800565b3480156105f957600080fd5b50610544610fdf565b34801561060e57600080fd5b5061054461108b565b34801561062357600080fd5b50610544611091565b34801561063857600080fd5b50610544611097565b34801561064d57600080fd5b5061054461109d565b34801561066257600080fd5b506105e0610671366004614abe565b6110a3565b34801561068257600080fd5b5061056f61114b565b34801561069757600080fd5b506105226106a6366004614c38565b611167565b3480156106b757600080fd5b506105226106c63660046149e7565b6118ed565b3480156106d757600080fd5b5061056f611972565b3480156106ec57600080fd5b506106f561198e565b6040516105519190615aa3565b34801561070e57600080fd5b506105e061071d366004614b0b565b611997565b34801561072e57600080fd5b506105446119f8565b34801561074357600080fd5b506105226107523660046149e7565b611ac5565b34801561076357600080fd5b5061056f611b4a565b34801561077857600080fd5b50610544611b66565b34801561078d57600080fd5b5061052261079c3660046149e7565b611b6d565b3480156107ad57600080fd5b506105226107bc3660046149e7565b611bf2565b3480156107cd57600080fd5b50610522611c77565b3480156107e257600080fd5b506105446107f13660046149e7565b611d05565b34801561080257600080fd5b5061056f611d17565b34801561081757600080fd5b5061056f611d33565b34801561082c57600080fd5b50610544611d4f565b34801561084157600080fd5b50610522610850366004614c38565b611da6565b34801561086157600080fd5b50610544611e3f565b34801561087657600080fd5b506105446108853660046149e7565b611f17565b34801561089657600080fd5b50610544611f43565b3480156108ab57600080fd5b50610522611f79565b3480156108c057600080fd5b50610544612026565b3480156108d557600080fd5b5061056f61202c565b3480156108ea57600080fd5b50610544612048565b3480156108ff57600080fd5b5061054461090e3660046149e7565b61207b565b34801561091f57600080fd5b5061052261208d565b34801561093457600080fd5b5061093d6121c6565b604051610551919061580e565b34801561095657600080fd5b50610522610965366004614c38565b6121e2565b34801561097657600080fd5b5061056f6122c4565b34801561098b57600080fd5b506105446122e0565b3480156109a057600080fd5b5061056f6122e6565b3480156109b557600080fd5b5061056f612302565b3480156109ca57600080fd5b506105e061231e565b3480156109df57600080fd5b5061059161235e565b3480156109f457600080fd5b506105226123dd565b348015610a0957600080fd5b50610522610a18366004614c38565b612520565b348015610a2957600080fd5b506105b3612563565b348015610a3e57600080fd5b506105e0610a4d366004614b0b565b6126b9565b348015610a5e57600080fd5b50610544612734565b348015610a7357600080fd5b506105e0610a82366004614b0b565b612803565b348015610a9357600080fd5b50610522610aa2366004614b0b565b612817565b348015610ab357600080fd5b5061056f612900565b348015610ac857600080fd5b5061054461291c565b348015610add57600080fd5b50610522610aec366004614c38565b612973565b348015610afd57600080fd5b50610522610b0c3660046149e7565b612b01565b348015610b1d57600080fd5b50610522610b2c3660046149e7565b612b86565b348015610b3d57600080fd5b50610544612c0b565b348015610b5257600080fd5b50610544612c62565b348015610b6757600080fd5b50610544610b76366004614a23565b612c68565b348015610b8757600080fd5b50610522610b96366004614c38565b612ca0565b348015610ba757600080fd5b50610522610bb6366004614c38565b612ce3565b348015610bc757600080fd5b50610522610bd6366004614c74565b612dc2565b348015610be757600080fd5b50610544612e0e565b348015610bfc57600080fd5b50610522610c0b366004614c38565b612e14565b348015610c1c57600080fd5b50610544612e57565b348015610c3157600080fd5b50610544612e5d565b348015610c4657600080fd5b50610522610c553660046149e7565b612e63565b348015610c6657600080fd5b50610544610c75366004614a5d565b612eaa565b348015610c8657600080fd5b5061056f613071565b348015610c9b57600080fd5b5061054461308d565b348015610cb057600080fd5b50610522610cbf3660046149e7565b613146565b348015610cd057600080fd5b5061056f6131cb565b348015610ce557600080fd5b5061056f6131e7565b348015610cfa57600080fd5b5061056f61328a565b348015610d0f57600080fd5b5061056f6132f5565b60408051600180825281830190925260009160609190816020015b610d3b6147fc565b815260200190600190039081610d3357905050905060405180604001604052803073ffffffffffffffffffffffffffffffffffffffff168152602001600081525081600081518110610d8957fe5b6020026020010181905250610d9c614813565b6040805160808101909152600181526020810160008152602001600081526020018590529050610dca61483c565b600081819052506000602082015260408082018390526012546060808401919091523060a0840152815160018082528184019093529091816020015b610e0e61483c565b815260200190600190039081610e065790505090508181600081518110610e3157fe5b60209081029190910101526011546040517fa67a6a4500000000000000000000000000000000000000000000000000000000815273ffffffffffffffffffffffffffffffffffffffff9091169063a67a6a4590610e9490879085906004016157db565b600060405180830381600087803b158015610eae57600080fd5b505af1158015610ec2573d6000803e3d6000fd5b5050505050505050919050565b60105473ffffffffffffffffffffffffffffffffffffffff1681565b60038054604080516020601f60027fffffffffffffffffffffffffffffffffffffffffffffffffffffffffffffffff610100600188161502019095169490940493840181900481028201810190925282815260609390929091830182828015610f955780601f10610f6a57610100808354040283529160200191610f95565b820191906000526020600020905b815481529060010190602001808311610f7857829003601f168201915b505050505090505b90565b601f5474010000000000000000000000000000000000000000900460ff1681565b6000610fd5610fce613311565b8484613315565b5060015b92915050565b600e546040517f70a0823100000000000000000000000000000000000000000000000000000000815260009173ffffffffffffffffffffffffffffffffffffffff16906370a0823190611036903090600401615739565b60206040518083038186803b15801561104e57600080fd5b505afa158015611062573d6000803e3d6000fd5b505050506040513d601f19601f820116820180604052506110869190810190614c56565b905090565b60095481565b600b5481565b60025490565b601e5481565b60006110b0848484613424565b611140846110bc613311565b61113b85604051806060016040528060288152602001615cae6028913973ffffffffffffffffffffffffffffffffffffffff8a16600090815260016020526040812090611107613311565b73ffffffffffffffffffffffffffffffffffffffff168152602081019190915260400160002054919063ffffffff6135af16565b613315565b5060015b9392505050565b601a5473ffffffffffffffffffffffffffffffffffffffff1681565b600680546001019081905561117b336135f5565b156111bb576040517f08c379a00000000000000000000000000000000000000000000000000000000081526004016111b29061591b565b60405180910390fd5b600082116111f5576040517f08c379a00000000000000000000000000000000000000000000000000000000081526004016111b29061593b565b600061120033611f17565b90508083111561123c576040517f08c379a00000000000000000000000000000000000000000000000000000000081526004016111b29061592b565b611244611f43565b600b556000611251611e3f565b9050600061127c60025461127087600b546135fb90919063ffffffff16565b9063ffffffff61364f16565b905061128781613691565b604080518082018252601d81527f72656465656d20616d6f756e7420657863656564732062616c616e63650000006020808301919091523360009081529081905291909120546112de91879063ffffffff6135af16565b33600090815260208190526040902055600254611301908663ffffffff6137e916565b60025560405160009033907fddf252ad1be2c89b69c2b068fc378daa952ba7f163c4a11628f55a4df523b3ef90611339908990615a06565b60405180910390a3600c546040517f70a0823100000000000000000000000000000000000000000000000000000000815260009173ffffffffffffffffffffffffffffffffffffffff16906370a0823190611398903090600401615739565b60206040518083038186803b1580156113b057600080fd5b505afa1580156113c4573d6000803e3d6000fd5b505050506040513d601f19601f820116820180604052506113e89190810190614c56565b90508181101561140a5761140a611405838363ffffffff6137e916565b61382b565b6000611435600a5461142960095460085461399590919063ffffffff16565b9063ffffffff61399516565b9050600061145668056bc75e2d63100000611270868563ffffffff6135fb16565b336000908152601460209081526040808320439055601590915290205490915084111561149257336000908152601560205260408120556114c3565b336000908152601560205260409020546114b2908563ffffffff6137e916565b336000908152601560205260409020555b601b546040517fa9059cbb00000000000000000000000000000000000000000000000000000000815273ffffffffffffffffffffffffffffffffffffffff9091169063a9059cbb9061151b9033908990600401615747565b602060405180830381600087803b15801561153557600080fd5b505af1158015611549573d6000803e3d6000fd5b505050506040513d601f19601f8201168201806040525061156d9190810190614b70565b506000611579826139d4565b601b546040517f70a0823100000000000000000000000000000000000000000000000000000000815291925060009173ffffffffffffffffffffffffffffffffffffffff909116906370a08231906115d5908490600401615739565b60206040518083038186803b1580156115ed57600080fd5b505afa158015611601573d6000803e3d6000fd5b505050506040513d601f19601f820116820180604052506116259190810190614c56565b9050600061166868056bc75e2d6310000061127061165b8861127060095468056bc75e2d631000006135fb90919063ffffffff16565b869063ffffffff6135fb16565b9050601c548210156117525760006116b568056bc75e2d631000006112706116a889611270600a5468056bc75e2d631000006135fb90919063ffffffff16565b879063ffffffff6135fb16565b90506116c081613bb0565b50600061170268056bc75e2d631000006112706116f58a61127060085468056bc75e2d631000006135fb90919063ffffffff16565b889063ffffffff6135fb16565b601a5460405191925073ffffffffffffffffffffffffffffffffffffffff169082156108fc029083906000818181858888f1935050505015801561174a573d6000803e3d6000fd5b5050506117af565b6000611764848363ffffffff6137e916565b601a5460405191925073ffffffffffffffffffffffffffffffffffffffff169082156108fc029083906000818181858888f193505050501580156117ac573d6000803e3d6000fd5b50505b601f5460405160009173ffffffffffffffffffffffffffffffffffffffff169083906117da90615720565b60006040518083038185875af1925050503d8060008114611817576040519150601f19603f3d011682016040523d82523d6000602084013e61181c565b606091505b5050905080611857576040517f08c379a00000000000000000000000000000000000000000000000000000000081526004016111b2906158cb565b6118913361186b8a8863ffffffff6137e916565b600c5473ffffffffffffffffffffffffffffffffffffffff16919063ffffffff613d0e16565b611899611f43565b600b556118a461208d565b5050505050505050505060065481146118e9576040517f08c379a00000000000000000000000000000000000000000000000000000000081526004016111b2906159ab565b5050565b6118f561231e565b61192b576040517f08c379a00000000000000000000000000000000000000000000000000000000081526004016111b29061590b565b601a80547fffffffffffffffffffffffff00000000000000000000000000000000000000001673ffffffffffffffffffffffffffffffffffffffff92909216919091179055565b60175473ffffffffffffffffffffffffffffffffffffffff1681565b60055460ff1690565b6000610fd56119a4613311565b8461113b85600160006119b5613311565b73ffffffffffffffffffffffffffffffffffffffff908116825260208083019390935260409182016000908120918c16815292529020549063ffffffff61399516565b6000611a026147fc565b6011546040805180820182523081526000602082015260125491517fc190c2ec00000000000000000000000000000000000000000000000000000000815273ffffffffffffffffffffffffffffffffffffffff9093169263c190c2ec92611a6c92916004016159eb565b604080518083038186803b158015611a8357600080fd5b505afa158015611a97573d6000803e3d6000fd5b505050506040513d601f19601f82011682018060405250611abb9190810190614c1a565b6020015191505090565b611acd61231e565b611b03576040517f08c379a00000000000000000000000000000000000000000000000000000000081526004016111b29061590b565b601f80547fffffffffffffffffffffffff00000000000000000000000000000000000000001673ffffffffffffffffffffffffffffffffffffffff92909216919091179055565b60185473ffffffffffffffffffffffffffffffffffffffff1681565b620f424081565b611b7561231e565b611bab576040517f08c379a00000000000000000000000000000000000000000000000000000000081526004016111b29061590b565b601380547fffffffffffffffffffffffff00000000000000000000000000000000000000001673ffffffffffffffffffffffffffffffffffffffff92909216919091179055565b611bfa61231e565b611c30576040517f08c379a00000000000000000000000000000000000000000000000000000000081526004016111b29061590b565b601b80547fffffffffffffffffffffffff00000000000000000000000000000000000000001673ffffffffffffffffffffffffffffffffffffffff92909216919091179055565b611c7f61231e565b611cb5576040517f08c379a00000000000000000000000000000000000000000000000000000000081526004016111b29061590b565b611cbd6122e6565b73ffffffffffffffffffffffffffffffffffffffff166108fc479081150290604051600060405180830381858888f19350505050158015611d02573d6000803e3d6000fd5b50565b60156020526000908152604090205481565b60135473ffffffffffffffffffffffffffffffffffffffff1681565b600e5473ffffffffffffffffffffffffffffffffffffffff1681565b600d546040517f70a0823100000000000000000000000000000000000000000000000000000000815260009173ffffffffffffffffffffffffffffffffffffffff16906370a0823190611036903090600401615739565b611dae6131e7565b600c546040517fd2d0e06600000000000000000000000000000000000000000000000000000000815273ffffffffffffffffffffffffffffffffffffffff9283169263d2d0e06692611e0a9291169085906000906004016157b3565b600060405180830381600087803b158015611e2457600080fd5b505af1158015611e38573d6000803e3d6000fd5b5050505050565b33600090815260146020526040812054819015611e7e5733600090815260146020526040902054611e7790439063ffffffff6137e916565b9050611e88565b6000915050610f9d565b6000611f1061196461127084611f04670de0b6b3a7640000611270601d54611f04620f424061127064e8d4a51000601560003373ffffffffffffffffffffffffffffffffffffffff1673ffffffffffffffffffffffffffffffffffffffff168152602001908152602001600020546135fb90919063ffffffff16565b9063ffffffff6135fb16565b9250505090565b73ffffffffffffffffffffffffffffffffffffffff81166000908152602081905260409020545b919050565b6000611086611f5061291c565b611429611f5b612c0b565b611429611f666119f8565b611429611f7161308d565b611429612734565b611f8161231e565b611fb7576040517f08c379a00000000000000000000000000000000000000000000000000000000081526004016111b29061590b565b60075460405160009173ffffffffffffffffffffffffffffffffffffffff16907f8be0079c531659141344cd1fd0a4f28419497f9722a3daafe3b4186f6b6457e0908390a3600780547fffffffffffffffffffffffff0000000000000000000000000000000000000000169055565b60085481565b60165473ffffffffffffffffffffffffffffffffffffffff1681565b600080612053611f43565b6002549091506120759061127083670de0b6b3a764000063ffffffff6135fb16565b91505090565b60146020526000908152604090205481565b6000612097612563565b601f5490915074010000000000000000000000000000000000000000900460ff1660048111156120c357fe5b8160048111156120cf57fe5b146120dc576120dc613dcb565b60006120e661291c565b11156121735760018160048111156120fa57fe5b14156121115761210b61053f61291c565b50612173565b600481600481111561211f57fe5b14156121355761213061096561291c565b612173565b600281600481111561214357fe5b141561215457612130610bb661291c565b600381600481111561216257fe5b14156121735761217361085061291c565b601f80548291907fffffffffffffffffffffff00ffffffffffffffffffffffffffffffffffffffff16740100000000000000000000000000000000000000008360048111156121be57fe5b021790555050565b601b5473ffffffffffffffffffffffffffffffffffffffff1681565b600e546040517f40c10f1900000000000000000000000000000000000000000000000000000000815260009173ffffffffffffffffffffffffffffffffffffffff16906340c10f199061223b9030908690600401615747565b602060405180830381600087803b15801561225557600080fd5b505af1158015612269573d6000803e3d6000fd5b505050506040513d601f19601f8201168201806040525061228d9190810190614c56565b11611d02576040517f08c379a00000000000000000000000000000000000000000000000000000000081526004016111b29061598b565b600f5473ffffffffffffffffffffffffffffffffffffffff1681565b600a5481565b60075473ffffffffffffffffffffffffffffffffffffffff1690565b60115473ffffffffffffffffffffffffffffffffffffffff1681565b60075460009073ffffffffffffffffffffffffffffffffffffffff16612342613311565b73ffffffffffffffffffffffffffffffffffffffff1614905090565b60048054604080516020601f60027fffffffffffffffffffffffffffffffffffffffffffffffffffffffffffffffff610100600188161502019095169490940493840181900481028201810190925282815260609390929091830182828015610f955780601f10610f6a57610100808354040283529160200191610f95565b600d54600c5461242d9173ffffffffffffffffffffffffffffffffffffffff91821691167fffffffffffffffffffffffffffffffffffffffffffffffffffffffffffffffff63ffffffff613e3116565b601154600c5461247d9173ffffffffffffffffffffffffffffffffffffffff91821691167fffffffffffffffffffffffffffffffffffffffffffffffffffffffffffffffff63ffffffff613e3116565b6124ce61248861328a565b600c5473ffffffffffffffffffffffffffffffffffffffff16907fffffffffffffffffffffffffffffffffffffffffffffffffffffffffffffffff63ffffffff613e3116565b600e54600c5461251e9173ffffffffffffffffffffffffffffffffffffffff91821691167fffffffffffffffffffffffffffffffffffffffffffffffffffffffffffffffff63ffffffff613e3116565b565b61252861231e565b61255e576040517f08c379a00000000000000000000000000000000000000000000000000000000081526004016111b29061590b565b601255565b601354600c546040517fd88be3c0000000000000000000000000000000000000000000000000000000008152600092839283928392839273ffffffffffffffffffffffffffffffffffffffff9182169263d88be3c0926125c792169060040161572b565b60006040518083038186803b1580156125df57600080fd5b505afa1580156125f3573d6000803e3d6000fd5b505050506040513d6000823e601f3d9081017fffffffffffffffffffffffffffffffffffffffffffffffffffffffffffffffe01682016040526126399190810190614b8e565b929750909550935091506000905084156126505750835b8084111561265b5750825b808311156126665750815b808211156126715750805b600081861415612683575060026126af565b84821415612693575060046126af565b838214156126a3575060036126af565b828214156126af575060015b9550505050505090565b6000610fd56126c6613311565b8461113b85604051806060016040528060258152602001615cd660259139600160006126f0613311565b73ffffffffffffffffffffffffffffffffffffffff908116825260208083019390935260409182016000908120918d1681529252902054919063ffffffff6135af16565b60008061273f611d4f565b9050801561108657610fd9670de0b6b3a7640000611270600d60009054906101000a900473ffffffffffffffffffffffffffffffffffffffff1673ffffffffffffffffffffffffffffffffffffffff1663182df0f56040518163ffffffff1660e01b815260040160206040518083038186803b1580156127be57600080fd5b505afa1580156127d2573d6000803e3d6000fd5b505050506040513d601f19601f820116820180604052506127f69190810190614c56565b849063ffffffff6135fb16565b6000610fd5612810613311565b8484613424565b61281f61231e565b612855576040517f08c379a00000000000000000000000000000000000000000000000000000000081526004016111b29061590b565b6040517fa9059cbb00000000000000000000000000000000000000000000000000000000815273ffffffffffffffffffffffffffffffffffffffff83169063a9059cbb906128a99033908590600401615747565b602060405180830381600087803b1580156128c357600080fd5b505af11580156128d7573d6000803e3d6000fd5b505050506040513d601f19601f820116820180604052506128fb9190810190614b70565b505050565b601f5473ffffffffffffffffffffffffffffffffffffffff1681565b600c546040517f70a0823100000000000000000000000000000000000000000000000000000000815260009173ffffffffffffffffffffffffffffffffffffffff16906370a0823190611036903090600401615739565b6006805460010190819055612987336135f5565b156129be576040517f08c379a00000000000000000000000000000000000000000000000000000000081526004016111b29061591b565b600082116129f8576040517f08c379a00000000000000000000000000000000000000000000000000000000081526004016111b29061597b565b612a0182613691565b612a09611f43565b600b55600c54612a379073ffffffffffffffffffffffffffffffffffffffff1633308563ffffffff613f5016565b3360009081526014602090815260408083204390556015909152902054612a64908363ffffffff61399516565b33600090815260156020526040812091909155600b54612a8a5750600b82905581612aa8565b612aa5600b54611270600254866135fb90919063ffffffff16565b90505b612ab0611f43565b600b55612abd3382613f93565b612ac561208d565b5060065481146118e9576040517f08c379a00000000000000000000000000000000000000000000000000000000081526004016111b2906159ab565b612b0961231e565b612b3f576040517f08c379a00000000000000000000000000000000000000000000000000000000081526004016111b29061590b565b600e80547fffffffffffffffffffffffff00000000000000000000000000000000000000001673ffffffffffffffffffffffffffffffffffffffff92909216919091179055565b612b8e61231e565b612bc4576040517f08c379a00000000000000000000000000000000000000000000000000000000081526004016111b29061590b565b601680547fffffffffffffffffffffffff00000000000000000000000000000000000000001673ffffffffffffffffffffffffffffffffffffffff92909216919091179055565b6010546040517f70a0823100000000000000000000000000000000000000000000000000000000815260009173ffffffffffffffffffffffffffffffffffffffff16906370a0823190611036903090600401615739565b60125481565b73ffffffffffffffffffffffffffffffffffffffff918216600090815260016020908152604080832093909416825291909152205490565b612ca861231e565b612cde576040517f08c379a00000000000000000000000000000000000000000000000000000000081526004016111b29061590b565b601e55565b600d546040517fa0712d6800000000000000000000000000000000000000000000000000000000815273ffffffffffffffffffffffffffffffffffffffff9091169063a0712d6890612d39908490600401615a06565b602060405180830381600087803b158015612d5357600080fd5b505af1158015612d67573d6000803e3d6000fd5b505050506040513d601f19601f82011682018060405250612d8b9190810190614c56565b15611d02576040517f08c379a00000000000000000000000000000000000000000000000000000000081526004016111b2906158ab565b612dca61231e565b612e00576040517f08c379a00000000000000000000000000000000000000000000000000000000081526004016111b29061590b565b600892909255600955600a55565b601d5481565b612e1c61231e565b612e52576040517f08c379a00000000000000000000000000000000000000000000000000000000081526004016111b29061590b565b601d55565b61196481565b601c5481565b612e6b61231e565b612ea1576040517f08c379a00000000000000000000000000000000000000000000000000000000081526004016111b29061590b565b611d0281614094565b60408051600380825260808201909252600091606091906020820183803883390190505090508581600081518110612ede57fe5b602002602001019073ffffffffffffffffffffffffffffffffffffffff16908173ffffffffffffffffffffffffffffffffffffffff16815250508481600181518110612f2657fe5b602002602001019073ffffffffffffffffffffffffffffffffffffffff16908173ffffffffffffffffffffffffffffffffffffffff16815250508381600281518110612f6e57fe5b73ffffffffffffffffffffffffffffffffffffffff92831660209182029290920101526040517fd06ca61f00000000000000000000000000000000000000000000000000000000815260609185169063d06ca61f90612fdb90670de0b6b3a764000090869060040161582a565b60006040518083038186803b158015612ff357600080fd5b505afa158015613007573d6000803e3d6000fd5b505050506040513d6000823e601f3d9081017fffffffffffffffffffffffffffffffffffffffffffffffffffffffffffffffe016820160405261304d9190810190614b3b565b90508060028151811061305c57fe5b6020026020010151925050505b949350505050565b60195473ffffffffffffffffffffffffffffffffffffffff1681565b600080613098610fdf565b9050801561108657600e546040517f06b3efd600000000000000000000000000000000000000000000000000000000815273ffffffffffffffffffffffffffffffffffffffff909116906306b3efd6906130f6903090600401615739565b60206040518083038186803b15801561310e57600080fd5b505afa158015613122573d6000803e3d6000fd5b505050506040513d601f19601f82011682018060405250610fd99190810190614c56565b61314e61231e565b613184576040517f08c379a00000000000000000000000000000000000000000000000000000000081526004016111b29061590b565b600d80547fffffffffffffffffffffffff00000000000000000000000000000000000000001673ffffffffffffffffffffffffffffffffffffffff92909216919091179055565b600d5473ffffffffffffffffffffffffffffffffffffffff1681565b600f54604080517f0261bf8b000000000000000000000000000000000000000000000000000000008152905160009273ffffffffffffffffffffffffffffffffffffffff1691630261bf8b916004808301926020929190829003018186803b15801561325257600080fd5b505afa158015613266573d6000803e3d6000fd5b505050506040513d601f19601f820116820180604052506110869190810190614a05565b600f54604080517fed6ff760000000000000000000000000000000000000000000000000000000008152905160009273ffffffffffffffffffffffffffffffffffffffff169163ed6ff760916004808301926020929190829003018186803b15801561325257600080fd5b600c5473ffffffffffffffffffffffffffffffffffffffff1681565b3390565b73ffffffffffffffffffffffffffffffffffffffff8316613362576040517f08c379a00000000000000000000000000000000000000000000000000000000081526004016111b29061596b565b73ffffffffffffffffffffffffffffffffffffffff82166133af576040517f08c379a00000000000000000000000000000000000000000000000000000000081526004016111b29061589b565b73ffffffffffffffffffffffffffffffffffffffff80841660008181526001602090815260408083209487168084529490915290819020849055517f8c5be1e5ebec7d5bd14f71427d1e84f3dd0314c0f7b2291e5b200ac8c7c3b92590613417908590615a06565b60405180910390a3505050565b73ffffffffffffffffffffffffffffffffffffffff8316613471576040517f08c379a00000000000000000000000000000000000000000000000000000000081526004016111b29061594b565b73ffffffffffffffffffffffffffffffffffffffff82166134be576040517f08c379a00000000000000000000000000000000000000000000000000000000081526004016111b29061585b565b61350e81604051806060016040528060268152602001615c886026913973ffffffffffffffffffffffffffffffffffffffff8616600090815260208190526040902054919063ffffffff6135af16565b73ffffffffffffffffffffffffffffffffffffffff8085166000908152602081905260408082209390935590841681522054613550908263ffffffff61399516565b73ffffffffffffffffffffffffffffffffffffffff80841660008181526020819052604090819020939093559151908516907fddf252ad1be2c89b69c2b068fc378daa952ba7f163c4a11628f55a4df523b3ef90613417908590615a06565b600081848411156135ed576040517f08c379a00000000000000000000000000000000000000000000000000000000081526004016111b2919061584a565b505050900390565b3b151590565b60008261360a57506000610fd9565b8282028284828161361757fe5b0414611144576040517f08c379a00000000000000000000000000000000000000000000000000000000081526004016111b2906158eb565b600061114483836040518060400160405280601a81526020017f536166654d6174683a206469766973696f6e206279207a65726f00000000000081525061416f565b601b546040517f70a0823100000000000000000000000000000000000000000000000000000000815260009173ffffffffffffffffffffffffffffffffffffffff16906370a08231906136e8903390600401615739565b60206040518083038186803b15801561370057600080fd5b505afa158015613714573d6000803e3d6000fd5b505050506040513d601f19601f820116820180604052506137389190810190614c56565b601b546018546019546016549394506000936137739373ffffffffffffffffffffffffffffffffffffffff9081169381169281169116612eaa565b9050600061379968056bc75e2d63100000611270601e54876135fb90919063ffffffff16565b905060006137ad828463ffffffff61364f16565b905080841015611e38576040517f08c379a00000000000000000000000000000000000000000000000000000000081526004016111b29061586b565b600061114483836040518060400160405280601e81526020017f536166654d6174683a207375627472616374696f6e206f766572666c6f7700008152506135af565b6002601f5474010000000000000000000000000000000000000000900460ff16600481111561385657fe5b141561386557613865816141c0565b6003601f5474010000000000000000000000000000000000000000900460ff16600481111561389057fe5b14156138e0578061389f612c0b565b10156138d7576040517f08c379a00000000000000000000000000000000000000000000000000000000081526004016111b29061595b565b6138e081614238565b6001601f5474010000000000000000000000000000000000000000900460ff16600481111561390b57fe5b141561395b578061391a6119f8565b1015613952576040517f08c379a00000000000000000000000000000000000000000000000000000000081526004016111b29061595b565b61395b8161428e565b6004601f5474010000000000000000000000000000000000000000900460ff16600481111561398657fe5b1415611d0257611d028161443f565b600082820183811015611144576040517f08c379a00000000000000000000000000000000000000000000000000000000081526004016111b2906158bb565b601654601754600091613a079173ffffffffffffffffffffffffffffffffffffffff90811691168363ffffffff613e3116565b601654601754613a379173ffffffffffffffffffffffffffffffffffffffff91821691168463ffffffff613e3116565b60408051600280825260608083018452926020830190803883395050601754825192935073ffffffffffffffffffffffffffffffffffffffff1691839150600090613a7e57fe5b73ffffffffffffffffffffffffffffffffffffffff9283166020918202929092010152601854825191169082906001908110613ab657fe5b73ffffffffffffffffffffffffffffffffffffffff9283166020918202929092010152601654606091166318cbafe58560008530613afc4261070863ffffffff61399516565b6040518663ffffffff1660e01b8152600401613b1c959493929190615a50565b600060405180830381600087803b158015613b3657600080fd5b505af1158015613b4a573d6000803e3d6000fd5b505050506040513d6000823e601f3d9081017fffffffffffffffffffffffffffffffffffffffffffffffffffffffffffffffe0168201604052613b909190810190614b3b565b905080600181518110613b9f57fe5b602002602001015192505050919050565b60408051600280825260608083018452600093909291906020830190803883395050601854825192935073ffffffffffffffffffffffffffffffffffffffff1691839150600090613bfd57fe5b73ffffffffffffffffffffffffffffffffffffffff9283166020918202929092010152601b54825191169082906001908110613c3557fe5b73ffffffffffffffffffffffffffffffffffffffff928316602091820292909201015260165460609116637ff36ab58560008581613c7b4261070863ffffffff61399516565b6040518663ffffffff1660e01b8152600401613c9a9493929190615a14565b6000604051808303818588803b158015613cb357600080fd5b505af1158015613cc7573d6000803e3d6000fd5b50505050506040513d6000823e601f3d9081017fffffffffffffffffffffffffffffffffffffffffffffffffffffffffffffffe0168201604052613b909190810190614b3b565b6040516128fb9084907fa9059cbb0000000000000000000000000000000000000000000000000000000090613d4990869086906024016157a5565b604080517fffffffffffffffffffffffffffffffffffffffffffffffffffffffffffffffe08184030181529190526020810180517bffffffffffffffffffffffffffffffffffffffffffffffffffffffff167fffffffff00000000000000000000000000000000000000000000000000000000909316929092179091526144b7565b6000613dd5611d4f565b90508015613de657613de681614604565b613dee6119f8565b90508015613dff57613dff8161428e565b613e07610fdf565b90508015613e1857613e18816146e3565b613e20612c0b565b90508015611d0257611d0281614238565b801580613edf57506040517fdd62ed3e00000000000000000000000000000000000000000000000000000000815273ffffffffffffffffffffffffffffffffffffffff84169063dd62ed3e90613e8d9030908690600401615762565b60206040518083038186803b158015613ea557600080fd5b505afa158015613eb9573d6000803e3d6000fd5b505050506040513d601f19601f82011682018060405250613edd9190810190614c56565b155b613f15576040517f08c379a00000000000000000000000000000000000000000000000000000000081526004016111b2906159bb565b6040516128fb9084907f095ea7b30000000000000000000000000000000000000000000000000000000090613d4990869086906024016157a5565b604051613f8d9085907f23b872dd0000000000000000000000000000000000000000000000000000000090613d499087908790879060240161577d565b50505050565b73ffffffffffffffffffffffffffffffffffffffff8216613fe0576040517f08c379a00000000000000000000000000000000000000000000000000000000081526004016111b2906159db565b600254613ff3908263ffffffff61399516565b60025573ffffffffffffffffffffffffffffffffffffffff821660009081526020819052604090205461402c908263ffffffff61399516565b73ffffffffffffffffffffffffffffffffffffffff83166000818152602081905260408082209390935591519091907fddf252ad1be2c89b69c2b068fc378daa952ba7f163c4a11628f55a4df523b3ef90614088908590615a06565b60405180910390a35050565b73ffffffffffffffffffffffffffffffffffffffff81166140e1576040517f08c379a00000000000000000000000000000000000000000000000000000000081526004016111b29061588b565b60075460405173ffffffffffffffffffffffffffffffffffffffff8084169216907f8be0079c531659141344cd1fd0a4f28419497f9722a3daafe3b4186f6b6457e090600090a3600780547fffffffffffffffffffffffff00000000000000000000000000000000000000001673ffffffffffffffffffffffffffffffffffffffff92909216919091179055565b600081836141aa576040517f08c379a00000000000000000000000000000000000000000000000000000000081526004016111b2919061584a565b5060008385816141b657fe5b0495945050505050565b60006141ca611d4f565b905060006141d6612734565b905082811015614212576040517f08c379a00000000000000000000000000000000000000000000000000000000081526004016111b29061595b565b600061422d600161142984611270878963ffffffff6135fb16565b9050613f8d81614604565b6010546040517fdb006a7500000000000000000000000000000000000000000000000000000000815273ffffffffffffffffffffffffffffffffffffffff9091169063db006a7590611e0a908490600401615a06565b604080516001808252818301909252606091816020015b6142ad6147fc565b8152602001906001900390816142a557905050905060405180604001604052803073ffffffffffffffffffffffffffffffffffffffff1681526020016000815250816000815181106142fb57fe5b602002602001018190525061430e614813565b604080516080810190915260008082526020820190815260200160008152602001849052905061433c61483c565b600181819052506000602082015260408082018390526012546060808401919091523060a0840152815160018082528184019093529091816020015b61438061483c565b81526020019060019003908161437857905050905081816000815181106143a357fe5b60209081029190910101526011546040517fa67a6a4500000000000000000000000000000000000000000000000000000000815273ffffffffffffffffffffffffffffffffffffffff9091169063a67a6a459061440690879085906004016157db565b600060405180830381600087803b15801561442057600080fd5b505af1158015614434573d6000803e3d6000fd5b505050505050505050565b6000614449610fdf565b9050600061445561308d565b905082811015614491576040517f08c379a00000000000000000000000000000000000000000000000000000000081526004016111b29061595b565b60006144ac600161142984611270878963ffffffff6135fb16565b9050613f8d816146e3565b6144d68273ffffffffffffffffffffffffffffffffffffffff166147c5565b61450c576040517f08c379a00000000000000000000000000000000000000000000000000000000081526004016111b2906159cb565b600060608373ffffffffffffffffffffffffffffffffffffffff16836040516145359190615714565b6000604051808303816000865af19150503d8060008114614572576040519150601f19603f3d011682016040523d82523d6000602084013e614577565b606091505b5091509150816145b3576040517f08c379a00000000000000000000000000000000000000000000000000000000081526004016111b2906158db565b805115613f8d57808060200190516145ce9190810190614b70565b613f8d576040517f08c379a00000000000000000000000000000000000000000000000000000000081526004016111b29061599b565b600d546040517fdb006a7500000000000000000000000000000000000000000000000000000000815273ffffffffffffffffffffffffffffffffffffffff9091169063db006a759061465a908490600401615a06565b602060405180830381600087803b15801561467457600080fd5b505af1158015614688573d6000803e3d6000fd5b505050506040513d601f19601f820116820180604052506146ac9190810190614c56565b15611d02576040517f08c379a00000000000000000000000000000000000000000000000000000000081526004016111b29061587b565b600e546040517f9dc29fac00000000000000000000000000000000000000000000000000000000815260009173ffffffffffffffffffffffffffffffffffffffff1690639dc29fac9061473c9030908690600401615747565b602060405180830381600087803b15801561475657600080fd5b505af115801561476a573d6000803e3d6000fd5b505050506040513d601f19601f8201168201806040525061478e9190810190614c56565b11611d02576040517f08c379a00000000000000000000000000000000000000000000000000000000081526004016111b2906158fb565b6000813f7fc5d2460186f7233c927e7db2dcc703c0e500b653ca82273b7bfad8045d85a47081158015906130695750141592915050565b604080518082019091526000808252602082015290565b604080516080810190915260008082526020820190815260200160008152602001600081525090565b60408051610100810182526000808252602082015290810161485c614813565b81526020016000815260200160008152602001600073ffffffffffffffffffffffffffffffffffffffff16815260200160008152602001606081525090565b8035610fd981615c61565b8051610fd981615c61565b600082601f8301126148c257600080fd5b81516148d56148d082615ad8565b615ab1565b915081818352602084019350602081019050838560208402820111156148fa57600080fd5b60005b83811015614926578161491088826149dc565b84525060209283019291909101906001016148fd565b5050505092915050565b8051610fd981615c75565b600082601f83011261494c57600080fd5b815161495a6148d082615af9565b9150808252602083016020830185838301111561497657600080fd5b614981838284615bef565b50505092915050565b60006040828403121561499c57600080fd5b6149a66040615ab1565b905060006149b48484614930565b82525060206149c5848483016149dc565b60208301525092915050565b8035610fd981615c7e565b8051610fd981615c7e565b6000602082840312156149f957600080fd5b6000613069848461489b565b600060208284031215614a1757600080fd5b600061306984846148a6565b60008060408385031215614a3657600080fd5b6000614a42858561489b565b9250506020614a538582860161489b565b9150509250929050565b60008060008060808587031215614a7357600080fd5b6000614a7f878761489b565b9450506020614a908782880161489b565b9350506040614aa18782880161489b565b9250506060614ab28782880161489b565b91505092959194509250565b600080600060608486031215614ad357600080fd5b6000614adf868661489b565b9350506020614af08682870161489b565b9250506040614b01868287016149d1565b9150509250925092565b60008060408385031215614b1e57600080fd5b6000614b2a858561489b565b9250506020614a53858286016149d1565b600060208284031215614b4d57600080fd5b815167ffffffffffffffff811115614b6457600080fd5b613069848285016148b1565b600060208284031215614b8257600080fd5b60006130698484614930565b600080600080600060a08688031215614ba657600080fd5b855167ffffffffffffffff811115614bbd57600080fd5b614bc98882890161493b565b9550506020614bda888289016149dc565b9450506040614beb888289016149dc565b9350506060614bfc888289016149dc565b9250506080614c0d888289016149dc565b9150509295509295909350565b600060408284031215614c2c57600080fd5b6000613069848461498a565b600060208284031215614c4a57600080fd5b600061306984846149d1565b600060208284031215614c6857600080fd5b600061306984846149dc565b600080600060608486031215614c8957600080fd5b6000614c9586866149d1565b9350506020614af0868287016149d1565b6000614cb28383614ce9565b505060200190565b600061114483836155ed565b6000614cd283836156e2565b505060400190565b614ce381615ba6565b82525050565b614ce381615b52565b6000614cfd82615b45565b614d078185615b49565b9350614d1283615b3f565b8060005b83811015614d40578151614d2a8882614ca6565b9750614d3583615b3f565b925050600101614d16565b509495945050505050565b6000614d5682615b45565b614d608185615b49565b935083602082028501614d7285615b3f565b8060005b85811015614dac5784840389528151614d8f8582614cba565b9450614d9a83615b3f565b60209a909a0199925050600101614d76565b5091979650505050505050565b6000614dc482615b45565b614dce8185615b49565b9350614dd983615b3f565b8060005b83811015614d40578151614df18882614cc6565b9750614dfc83615b3f565b925050600101614ddd565b614ce381615b5d565b6000614e1b82615b45565b614e258185611f3e565b9350614e35818560208601615bef565b9290920192915050565b6000614e4a82615b45565b614e548185615b49565b9350614e64818560208601615bef565b614e6d81615c1b565b9093019392505050565b614ce381615bad565b614ce381615bb8565b614ce381615bc3565b614ce381615bce565b614ce381615bd9565b614ce381615be4565b6000614eba602383615b49565b7f45524332303a207472616e7366657220746f20746865207a65726f206164647281527f6573730000000000000000000000000000000000000000000000000000000000602082015260400192915050565b6000614f19605083615b49565b7f596f75206d75737420686f6c6420612025206f6620796f7572206465706f736981527f7420696e2059454c4420746f6b656e7320746f2062652061626c6520746f207360208201527f74616b65206f7220776974686472617700000000000000000000000000000000604082015260600192915050565b6000614f9e601983615b49565b7f434f4d504f554e443a207769746864726177206661696c656400000000000000815260200192915050565b6000614fd7602683615b49565b7f4f776e61626c653a206e6577206f776e657220697320746865207a65726f206181527f6464726573730000000000000000000000000000000000000000000000000000602082015260400192915050565b6000615036602283615b49565b7f45524332303a20617070726f766520746f20746865207a65726f20616464726581527f7373000000000000000000000000000000000000000000000000000000000000602082015260400192915050565b6000615095601783615b49565b7f434f4d504f554e443a20737570706c79206661696c6564000000000000000000815260200192915050565b60006150ce601b83615b49565b7f536166654d6174683a206164646974696f6e206f766572666c6f770000000000815260200192915050565b6000615107601c83615b49565b7f446576207472656173757279207472616e73666572206661696c656400000000815260200192915050565b6000615140602083615b49565b7f5361666545524332303a206c6f772d6c6576656c2063616c6c206661696c6564815260200192915050565b6000615179602183615b49565b7f536166654d6174683a206d756c7469706c69636174696f6e206f766572666c6f81527f7700000000000000000000000000000000000000000000000000000000000000602082015260400192915050565b60006151d8601883615b49565b7f46554c4352554d3a207769746864726177206661696c65640000000000000000815260200192915050565b6000615211602083615b49565b7f4f776e61626c653a2063616c6c6572206973206e6f7420746865206f776e6572815260200192915050565b600061524a603383615b49565b7f436f6e74726163747320617265206e6f7420616c6c6f77656420746f20696e7481527f6572616374207769746820746865206661726d00000000000000000000000000602082015260400192915050565b60006152a9601483615b49565b7f696e73756666696369656e742062616c616e6365000000000000000000000000815260200192915050565b60006152e2601f83615b49565b7f7769746864726177206d7573742062652067726561746572207468616e203000815260200192915050565b600061531b602583615b49565b7f45524332303a207472616e736665722066726f6d20746865207a65726f20616481527f6472657373000000000000000000000000000000000000000000000000000000602082015260400192915050565b6000610fd9600083611f3e565b6000615387601283615b49565b7f696e73756666696369656e742066756e64730000000000000000000000000000815260200192915050565b60006153c0602483615b49565b7f45524332303a20617070726f76652066726f6d20746865207a65726f2061646481527f7265737300000000000000000000000000000000000000000000000000000000602082015260400192915050565b600061541f601e83615b49565b7f6465706f736974206d7573742062652067726561746572207468616e20300000815260200192915050565b6000615458601683615b49565b7f46554c4352554d3a20737570706c79206661696c656400000000000000000000815260200192915050565b6000615491602a83615b49565b7f5361666545524332303a204552433230206f7065726174696f6e20646964206e81527f6f74207375636365656400000000000000000000000000000000000000000000602082015260400192915050565b60006154f0601f83615b49565b7f5265656e7472616e637947756172643a207265656e7472616e742063616c6c00815260200192915050565b6000615529603683615b49565b7f5361666545524332303a20617070726f76652066726f6d206e6f6e2d7a65726f81527f20746f206e6f6e2d7a65726f20616c6c6f77616e636500000000000000000000602082015260400192915050565b6000615588601f83615b49565b7f5361666545524332303a2063616c6c20746f206e6f6e2d636f6e747261637400815260200192915050565b60006155c1601f83615b49565b7f45524332303a206d696e7420746f20746865207a65726f206164647265737300815260200192915050565b80516000906101608401906156028582614e80565b5060208301516156156020860182615702565b5060408301516156286040860182615698565b50606083015161563b60c0860182615702565b50608083015161564e60e0860182615702565b5060a0830151615662610100860182614ce9565b5060c0830151615676610120860182615702565b5060e083015184820361014086015261568f8282614e3f565b95945050505050565b805160808301906156a98482614e07565b5060208201516156bc6020850182614e89565b5060408201516156cf6040850182614e89565b506060820151613f8d6060850182615702565b805160408301906156f38482614ce9565b506020820151613f8d60208501825b614ce381610f9d565b614ce381615ba0565b60006111448284614e10565b6000610fd98261536d565b60208101610fd98284614ce9565b60208101610fd98284614cda565b604081016157558285614cda565b6111446020830184615702565b604081016157708285614ce9565b6111446020830184614ce9565b6060810161578b8286614ce9565b6157986020830185614ce9565b6130696040830184615702565b604081016157558285614ce9565b606081016157c18286614ce9565b6157ce6020830185615702565b6130696040830184614e9b565b604080825281016157ec8185614db9565b905081810360208301526130698184614d4b565b60208101610fd98284614e07565b60208101610fd98284614e77565b60208101610fd98284614e92565b604081016158388285614ea4565b81810360208301526130698184614cf2565b602080825281016111448184614e3f565b60208082528101610fd981614ead565b60208082528101610fd981614f0c565b60208082528101610fd981614f91565b60208082528101610fd981614fca565b60208082528101610fd981615029565b60208082528101610fd981615088565b60208082528101610fd9816150c1565b60208082528101610fd9816150fa565b60208082528101610fd981615133565b60208082528101610fd98161516c565b60208082528101610fd9816151cb565b60208082528101610fd981615204565b60208082528101610fd98161523d565b60208082528101610fd98161529c565b60208082528101610fd9816152d5565b60208082528101610fd98161530e565b60208082528101610fd98161537a565b60208082528101610fd9816153b3565b60208082528101610fd981615412565b60208082528101610fd98161544b565b60208082528101610fd981615484565b60208082528101610fd9816154e3565b60208082528101610fd98161551c565b60208082528101610fd98161557b565b60208082528101610fd9816155b4565b606081016159f982856156e2565b6111446040830184615702565b60208101610fd98284615702565b60808101615a228287615702565b8181036020830152615a348186614cf2565b9050615a436040830185614cda565b61568f6060830184615702565b60a08101615a5e8288615702565b615a6b6020830187615702565b8181036040830152615a7d8186614cf2565b9050615a8c6060830185614cda565b615a996080830184615702565b9695505050505050565b60208101610fd9828461570b565b60405181810167ffffffffffffffff81118282101715615ad057600080fd5b604052919050565b600067ffffffffffffffff821115615aef57600080fd5b5060209081020190565b600067ffffffffffffffff821115615b1057600080fd5b506020601f919091017fffffffffffffffffffffffffffffffffffffffffffffffffffffffffffffffe0160190565b60200190565b5190565b90815260200190565b6000610fd982615b87565b151590565b80611f3e81615c43565b80611f3e81615c4d565b80611f3e81615c57565b61ffff1690565b73ffffffffffffffffffffffffffffffffffffffff1690565b60ff1690565b6000610fd9825b6000610fd982615b52565b6000610fd982615b62565b6000610fd982615b6c565b6000610fd982615b76565b6000610fd982615b80565b6000610fd982610f9d565b60005b83811015615c0a578181015183820152602001615bf2565b83811115613f8d5750506000910152565b601f017fffffffffffffffffffffffffffffffffffffffffffffffffffffffffffffffe01690565b60028110611d0257fe5b60018110611d0257fe5b60058110611d0257fe5b615c6a81615b52565b8114611d0257600080fd5b615c6a81615b5d565b615c6a81610f9d56fe45524332303a207472616e7366657220616d6f756e7420657863656564732062616c616e636545524332303a207472616e7366657220616d6f756e74206578636565647320616c6c6f77616e636545524332303a2064656372656173656420616c6c6f77616e63652062656c6f77207a65726fa365627a7a723158209fef83b5d447f4879b1168ff237b42f3b25f315571b0775738a836926d2ab0a46c6578706572696d656e74616cf564736f6c63430005110040",
  "source": "pragma solidity 0.5.17;\npragma experimental ABIEncoderV2;\n\nimport './ContractImports.sol';\nimport './CommonFunctionality.sol';\n\ncontract yUSDT is ERC20, ERC20Detailed, ReentrancyGuard, Ownable, Structs, CommonFunctionality {\n  using SafeERC20 for IERC20;\n  using Address for address;\n  using SafeMath for uint256;\n\n  uint256 public pool;\n  address public token;\n  address public compound;\n  address public fulcrum;\n  address public aave;\n  address public aaveToken;\n  address public dydx;\n  uint256 public dToken;\n  address public apr;\n\n  // Yeld\n  mapping(address => uint256) public depositBlockStarts;\n  mapping(address => uint256) public depositAmount;\n  address public uniswapRouter = 0x7a250d5630B4cF539739dF2C5dAcb4c659F2488D;\n  address public usdt = 0xdAC17F958D2ee523a2206206994597C13D831ec7;\n  address public weth = 0xC02aaA39b223FE8D0A0e5C4F27eAD9083C756Cc2;\n  address public dai = 0x6B175474E89094C44Da98b954EedeAC495271d0F;\n  address payable public retirementYeldTreasury;\n  IERC20 public yeldToken;\n  uint256 public maximumTokensToBurn = 50000 * 1e18;\n  uint256 public constant oneDayInBlocks = 6500;\n  uint256 public yeldToRewardPerDay = 50e18; // 50 YELD per day per 1 million stablecoins padded with 18 zeroes to have that flexibility\n  uint256 public constant oneMillion = 1e6;\n  uint256 public holdPercentage = 15e18;\n  address public devTreasury;\n  // Yeld\n\n  enum Lender {\n      NONE,\n      DYDX,\n      COMPOUND,\n      AAVE,\n      FULCRUM\n  }\n\n  Lender public provider = Lender.NONE;\n\n  constructor (address _yeldToken, address payable _retirementYeldTreasury, address _devTreasury) public ERC20Detailed(\"yeld USDT\", \"yUSDT\", 6) {\n    token = address(0xdAC17F958D2ee523a2206206994597C13D831ec7);\n    apr = address(0xdD6d648C991f7d47454354f4Ef326b04025a48A8);\n    dydx = address(0x1E0447b19BB6EcFdAe1e4AE1694b0C3659614e4e);\n    aave = address(0x24a42fD28C976A61Df5D00D0599C34c4f90748c8);\n    fulcrum = address(0xF013406A0B1d544238083DF0B93ad0d2cBE0f65f);\n    aaveToken = address(0x71fc860F7D3A592A4a98740e39dB31d25db65ae8);\n    compound = address(0x39AA39c021dfbaE8faC545936693aC917d5E7563);\n    dToken = 0;\n    yeldToken = IERC20(_yeldToken);\n    retirementYeldTreasury = _retirementYeldTreasury;\n    devTreasury = _devTreasury;\n    approveToken();\n  }\n\n  // Yeld\n  // To receive ETH after converting it from USDT\n  function () external payable {}\n  function setRetirementYeldTreasury(address payable _treasury) public onlyOwner {\n    retirementYeldTreasury = _treasury;\n  }\n  // In case a new uniswap router version is released\n  function setUniswapRouter(address _uniswapRouter) public onlyOwner {\n    uniswapRouter = _uniswapRouter;\n  }\n  function setYeldToken(address _yeldToken) public onlyOwner {\n    yeldToken = IERC20(_yeldToken);\n  }\n  function setDevTreasury(address _devTreasury) public onlyOwner {\n    devTreasury = _devTreasury;\n  }\n  function extractTokensIfStuck(address _token, uint256 _amount) public onlyOwner {\n    IERC20(_token).transfer(msg.sender, _amount);\n  }\n  function extractETHIfStuck() public onlyOwner {\n    owner().transfer(address(this).balance);\n  }\n  function changeYeldToRewardPerDay(uint256 _amount) public onlyOwner {\n    yeldToRewardPerDay = _amount;\n  }\n  function getGeneratedYelds() public view returns(uint256) {\n    uint256 blocksPassed;\n    if (depositBlockStarts[msg.sender] > 0) {\n      blocksPassed = block.number.sub(depositBlockStarts[msg.sender]);\n    } else {\n      return 0;\n    }\n    uint256 generatedYelds = depositAmount[msg.sender].mul(1e12).div(oneMillion).mul(yeldToRewardPerDay).div(1e18).mul(blocksPassed).div(oneDayInBlocks);\n    return generatedYelds;\n  }\n  \n  // Converts USDT to ETH and returns how much ETH has been received from Uniswap\n  function usdtToETH(uint256 _amount) internal returns(uint256) {\n      IERC20(usdt).safeApprove(uniswapRouter, 0);\n      IERC20(usdt).safeApprove(uniswapRouter, _amount);\n      address[] memory path = new address[](2);\n      path[0] = usdt;\n      path[1] = weth;\n      // swapExactTokensForETH(uint amountIn, uint amountOutMin, address[] calldata path, address to, uint deadline)\n      // 'amounts' is an array where [0] is input USDT amount and [1] is the resulting ETH after the conversion\n      // even tho we've specified the WETH address, we'll receive ETH since that's how it works on uniswap\n      // https://uniswap.org/docs/v2/smart-contracts/router02/#swapexacttokensforeth\n      uint[] memory amounts = IUniswap(uniswapRouter).swapExactTokensForETH(_amount, uint(0), path, address(this), now.add(1800));\n      return amounts[1];\n  }\n  function buyNBurn(uint256 _ethToSwap) internal returns(uint256) {\n    address[] memory path = new address[](2);\n    path[0] = weth;\n    path[1] = address(yeldToken);\n    // Burns the tokens by taking them out of circulation, sending them to the 0x0 address\n    uint[] memory amounts = IUniswap(uniswapRouter).swapExactETHForTokens.value(_ethToSwap)(uint(0), path, address(0), now.add(1800));\n    return amounts[1];\n  }\n  // Yeld\n\n  function setHoldPercentage(uint256 _holdPercentage) public onlyOwner {\n    holdPercentage = _holdPercentage;\n  }\n\n  function yeldHoldingRequirement(uint256 _amount) internal view {\n    uint256 yeldHold = yeldToken.balanceOf(msg.sender);\n    uint256 yeldPriceInDai = getYeldPriceInDai(address(yeldToken), weth, dai, uniswapRouter);\n    uint256 amountPercentage = _amount.mul(holdPercentage).div(1e20);\n    uint256 yeldRequirement = amountPercentage.div(yeldPriceInDai);\n    require(yeldHold >= yeldRequirement, 'You must hold a % of your deposit in YELD tokens to be able to stake or withdraw');\n  }\n\n  // Quick swap low gas method for pool swaps\n  function deposit(uint256 _amount)\n      external\n      nonReentrant\n      noContract\n  {\n      require(_amount > 0, \"deposit must be greater than 0\");\n      yeldHoldingRequirement(_amount);\n\n      pool = _calcPoolValueInToken();\n      IERC20(token).safeTransferFrom(msg.sender, address(this), _amount);\n        \n      // Yeld\n      depositBlockStarts[msg.sender] = block.number;\n      depositAmount[msg.sender] = depositAmount[msg.sender].add(_amount);\n      // Yeld\n\n      // Calculate pool shares\n      uint256 shares = 0;\n      if (pool == 0) {\n        shares = _amount;\n        pool = _amount;\n      } else {\n        shares = (_amount.mul(_totalSupply)).div(pool);\n      }\n      pool = _calcPoolValueInToken();\n      _mint(msg.sender, shares);\n      rebalance();\n  }\n\n  // No rebalance implementation for lower fees and faster swaps\n  function withdraw(uint256 _shares)\n      external\n      nonReentrant\n      noContract\n  {\n      require(_shares > 0, \"withdraw must be greater than 0\");\n      uint256 ibalance = balanceOf(msg.sender);\n      require(_shares <= ibalance, \"insufficient balance\");\n      pool = _calcPoolValueInToken();\n      // Yeld\n      uint256 generatedYelds = getGeneratedYelds();\n      // Yeld\n      uint256 stablecoinsToWithdraw = (pool.mul(_shares)).div(_totalSupply);\n      yeldHoldingRequirement(stablecoinsToWithdraw);\n      _balances[msg.sender] = _balances[msg.sender].sub(_shares, \"redeem amount exceeds balance\");\n      _totalSupply = _totalSupply.sub(_shares);\n      emit Transfer(msg.sender, address(0), _shares);\n      uint256 b = IERC20(token).balanceOf(address(this));\n      if (b < stablecoinsToWithdraw) {\n        _withdrawSome(stablecoinsToWithdraw.sub(b));\n      }\n\n      // Yeld\n      uint256 totalPercentage = percentageRetirementYield.add(percentageDevTreasury).add(percentageBuyBurn);\n      uint256 combined = stablecoinsToWithdraw.mul(totalPercentage).div(1e20);\n      depositBlockStarts[msg.sender] = block.number;\n      if (stablecoinsToWithdraw > depositAmount[msg.sender]) {\n        depositAmount[msg.sender] = 0;\n      } else {\n        depositAmount[msg.sender] = depositAmount[msg.sender].sub(stablecoinsToWithdraw);\n      }\n      yeldToken.transfer(msg.sender, generatedYelds);\n\n      // Take a portion of the profits for the buy and burn and retirement yeld\n      // Convert half the USDT earned into ETH for the protocol algorithms\n      uint256 stakingProfits = usdtToETH(combined);\n      uint256 tokensAlreadyBurned = yeldToken.balanceOf(address(0));\n      uint256 devTreasuryAmount = stakingProfits.mul(uint256(100e18).mul(percentageDevTreasury).div(totalPercentage)).div(100e18);\n      if (tokensAlreadyBurned < maximumTokensToBurn) {\n        uint256 ethToSwap = stakingProfits.mul(uint256(100e18).mul(percentageBuyBurn).div(totalPercentage)).div(100e18);\n        buyNBurn(ethToSwap);\n        uint256 retirementYeld = stakingProfits.mul(uint256(100e18).mul(percentageRetirementYield).div(totalPercentage)).div(100e18);\n        retirementYeldTreasury.transfer(retirementYeld);\n      } else {\n        uint256 retirementYeld = stakingProfits.sub(devTreasuryAmount);\n        retirementYeldTreasury.transfer(retirementYeld);\n      }\n      (bool success, ) = devTreasury.call.value(devTreasuryAmount)(\"\");\n      require(success, \"Dev treasury transfer failed\");\n      IERC20(token).safeTransfer(msg.sender, stablecoinsToWithdraw.sub(combined));\n      // Yeld\n\n      pool = _calcPoolValueInToken();\n      rebalance();\n  }\n\n  // Ownable setters incase of support in future for these systems\n  function set_new_APR(address _new_APR) public onlyOwner {\n      apr = _new_APR;\n  }\n  function set_new_FULCRUM(address _new_FULCRUM) public onlyOwner {\n      fulcrum = _new_FULCRUM;\n  }\n  function set_new_COMPOUND(address _new_COMPOUND) public onlyOwner {\n      compound = _new_COMPOUND;\n  }\n  function set_new_DTOKEN(uint256 _new_DTOKEN) public onlyOwner {\n      dToken = _new_DTOKEN;\n  }\n\n  function recommend() public view returns (Lender) {\n    (,uint256 capr,uint256 iapr,uint256 aapr,uint256 dapr) = IIEarnManager(apr).recommend(token);\n    uint256 max = 0;\n    if (capr > max) {\n      max = capr;\n    }\n    if (iapr > max) {\n      max = iapr;\n    }\n    if (aapr > max) {\n      max = aapr;\n    }\n    if (dapr > max) {\n      max = dapr;\n    }\n\n    Lender newProvider = Lender.NONE;\n    if (max == capr) {\n      newProvider = Lender.COMPOUND;\n    } else if (max == iapr) {\n      newProvider = Lender.FULCRUM;\n    } else if (max == aapr) {\n      newProvider = Lender.AAVE;\n    } else if (max == dapr) {\n      newProvider = Lender.DYDX;\n    }\n    return newProvider;\n  }\n\n  function supplyDydx(uint256 amount) public returns(uint) {\n      Info[] memory infos = new Info[](1);\n      infos[0] = Info(address(this), 0);\n\n      AssetAmount memory amt = AssetAmount(true, AssetDenomination.Wei, AssetReference.Delta, amount);\n      ActionArgs memory act;\n      act.actionType = ActionType.Deposit;\n      act.accountId = 0;\n      act.amount = amt;\n      act.primaryMarketId = dToken;\n      act.otherAddress = address(this);\n\n      ActionArgs[] memory args = new ActionArgs[](1);\n      args[0] = act;\n\n      DyDx(dydx).operate(infos, args);\n  }\n\n  function _withdrawDydx(uint256 amount) internal {\n      Info[] memory infos = new Info[](1);\n      infos[0] = Info(address(this), 0);\n\n      AssetAmount memory amt = AssetAmount(false, AssetDenomination.Wei, AssetReference.Delta, amount);\n      ActionArgs memory act;\n      act.actionType = ActionType.Withdraw;\n      act.accountId = 0;\n      act.amount = amt;\n      act.primaryMarketId = dToken;\n      act.otherAddress = address(this);\n\n      ActionArgs[] memory args = new ActionArgs[](1);\n      args[0] = act;\n\n      DyDx(dydx).operate(infos, args);\n  }\n\n  function getAave() public view returns (address) {\n    return LendingPoolAddressesProvider(aave).getLendingPool();\n  }\n  function getAaveCore() public view returns (address) {\n    return LendingPoolAddressesProvider(aave).getLendingPoolCore();\n  }\n\n  function approveToken() public {\n      IERC20(token).safeApprove(compound, uint(-1)); //also add to constructor\n      IERC20(token).safeApprove(dydx, uint(-1));\n      IERC20(token).safeApprove(getAaveCore(), uint(-1));\n      IERC20(token).safeApprove(fulcrum, uint(-1));\n  }\n\n  function balance() public view returns (uint256) {\n    return IERC20(token).balanceOf(address(this));\n  }\n\n  function balanceDydx() public view returns (uint256) {\n      Wei memory bal = DyDx(dydx).getAccountWei(Info(address(this), 0), dToken);\n      return bal.value;\n  }\n  function balanceCompound() public view returns (uint256) {\n      return IERC20(compound).balanceOf(address(this));\n  }\n  function balanceCompoundInToken() public view returns (uint256) {\n    // Mantisa 1e18 to decimals\n    uint256 b = balanceCompound();\n    if (b > 0) {\n      b = b.mul(Compound(compound).exchangeRateStored()).div(1e18);\n    }\n    return b;\n  }\n  function balanceFulcrumInToken() public view returns (uint256) {\n    uint256 b = balanceFulcrum();\n    if (b > 0) {\n      b = Fulcrum(fulcrum).assetBalanceOf(address(this));\n    }\n    return b;\n  }\n  function balanceFulcrum() public view returns (uint256) {\n    return IERC20(fulcrum).balanceOf(address(this));\n  }\n  function balanceAave() public view returns (uint256) {\n    return IERC20(aaveToken).balanceOf(address(this));\n  }\n\n  function _balance() internal view returns (uint256) {\n    return IERC20(token).balanceOf(address(this));\n  }\n\n  function _balanceDydx() internal view returns (uint256) {\n      Wei memory bal = DyDx(dydx).getAccountWei(Info(address(this), 0), dToken);\n      return bal.value;\n  }\n  function _balanceCompound() internal view returns (uint256) {\n      return IERC20(compound).balanceOf(address(this));\n  }\n  function _balanceCompoundInToken() internal view returns (uint256) {\n    // Mantisa 1e18 to decimals\n    uint256 b = balanceCompound();\n    if (b > 0) {\n      b = b.mul(Compound(compound).exchangeRateStored()).div(1e18);\n    }\n    return b;\n  }\n  function _balanceFulcrumInToken() internal view returns (uint256) {\n    uint256 b = balanceFulcrum();\n    if (b > 0) {\n      b = Fulcrum(fulcrum).assetBalanceOf(address(this));\n    }\n    return b;\n  }\n  function _balanceFulcrum() internal view returns (uint256) {\n    return IERC20(fulcrum).balanceOf(address(this));\n  }\n  function _balanceAave() internal view returns (uint256) {\n    return IERC20(aaveToken).balanceOf(address(this));\n  }\n\n  function _withdrawAll() internal {\n    uint256 amount = _balanceCompound();\n    if (amount > 0) {\n      _withdrawCompound(amount);\n    }\n    amount = _balanceDydx();\n    if (amount > 0) {\n      _withdrawDydx(amount);\n    }\n    amount = _balanceFulcrum();\n    if (amount > 0) {\n      _withdrawFulcrum(amount);\n    }\n    amount = _balanceAave();\n    if (amount > 0) {\n      _withdrawAave(amount);\n    }\n  }\n\n  function _withdrawSomeCompound(uint256 _amount) internal {\n    uint256 b = balanceCompound();\n    uint256 bT = balanceCompoundInToken();\n    require(bT >= _amount, \"insufficient funds\");\n    // can have unintentional rounding errors\n    uint256 amount = (b.mul(_amount)).div(bT).add(1);\n    _withdrawCompound(amount);\n  }\n\n  // 1999999614570950845\n  function _withdrawSomeFulcrum(uint256 _amount) internal {\n    // Balance of fulcrum tokens, 1 iDAI = 1.00x DAI\n    uint256 b = balanceFulcrum(); // 1970469086655766652\n    // Balance of token in fulcrum\n    uint256 bT = balanceFulcrumInToken(); // 2000000803224344406\n    require(bT >= _amount, \"insufficient funds\");\n    // can have unintentional rounding errors\n    uint256 amount = (b.mul(_amount)).div(bT).add(1);\n    _withdrawFulcrum(amount);\n  }\n\n  function _withdrawSome(uint256 _amount) internal {\n    if (provider == Lender.COMPOUND) {\n      _withdrawSomeCompound(_amount);\n    }\n    if (provider == Lender.AAVE) {\n      require(balanceAave() >= _amount, \"insufficient funds\");\n      _withdrawAave(_amount);\n    }\n    if (provider == Lender.DYDX) {\n      require(balanceDydx() >= _amount, \"insufficient funds\");\n      _withdrawDydx(_amount);\n    }\n    if (provider == Lender.FULCRUM) {\n      _withdrawSomeFulcrum(_amount);\n    }\n  }\n\n  function rebalance() public {\n    Lender newProvider = recommend();\n\n    if (newProvider != provider) {\n      _withdrawAll();\n    }\n\n    if (balance() > 0) {\n      if (newProvider == Lender.DYDX) {\n        supplyDydx(balance());\n      } else if (newProvider == Lender.FULCRUM) {\n        supplyFulcrum(balance());\n      } else if (newProvider == Lender.COMPOUND) {\n        supplyCompound(balance());\n      } else if (newProvider == Lender.AAVE) {\n        supplyAave(balance());\n      }\n    }\n\n    provider = newProvider;\n  }\n\n  // Internal only rebalance for better gas in redeem\n  function _rebalance(Lender newProvider) internal {\n    if (_balance() > 0) {\n      if (newProvider == Lender.DYDX) {\n        supplyDydx(_balance());\n      } else if (newProvider == Lender.FULCRUM) {\n        supplyFulcrum(_balance());\n      } else if (newProvider == Lender.COMPOUND) {\n        supplyCompound(_balance());\n      } else if (newProvider == Lender.AAVE) {\n        supplyAave(_balance());\n      }\n    }\n    provider = newProvider;\n  }\n\n  function supplyAave(uint amount) public {\n      Aave(getAave()).deposit(token, amount, 0);\n  }\n  function supplyFulcrum(uint amount) public {\n      require(Fulcrum(fulcrum).mint(address(this), amount) > 0, \"FULCRUM: supply failed\");\n  }\n  function supplyCompound(uint amount) public {\n      require(Compound(compound).mint(amount) == 0, \"COMPOUND: supply failed\");\n  }\n  function _withdrawAave(uint amount) internal {\n      AToken(aaveToken).redeem(amount);\n  }\n  function _withdrawFulcrum(uint amount) internal {\n      require(Fulcrum(fulcrum).burn(address(this), amount) > 0, \"FULCRUM: withdraw failed\");\n  }\n  function _withdrawCompound(uint amount) internal {\n      require(Compound(compound).redeem(amount) == 0, \"COMPOUND: withdraw failed\");\n  }\n\n  function _calcPoolValueInToken() internal view returns (uint) {\n    return _balanceCompoundInToken()\n      .add(_balanceFulcrumInToken())\n      .add(_balanceDydx())\n      .add(_balanceAave())\n      .add(_balance());\n  }\n\n  function calcPoolValueInToken() public view returns (uint) {\n    return balanceCompoundInToken()\n      .add(balanceFulcrumInToken())\n      .add(balanceDydx())\n      .add(balanceAave())\n      .add(balance());\n  }\n\n  function getPricePerFullShare() public view returns (uint) {\n    uint _pool = calcPoolValueInToken();\n    return _pool.mul(1e18).div(_totalSupply);\n  }\n}\n",
  "sourcePath": "C:/Users/merun/Desktop/yeld & crypto/yeld-contracts/contracts/yUSDT.sol",
  "compiler": {
    "name": "solc",
    "version": "0.5.17+commit.d19bba13.Emscripten.clang"
  },
  "schemaVersion": "3.3.3",
  "updatedAt": "2021-01-30T18:30:23.382Z",
  "devdoc": {
    "methods": {}
  },
  "userdoc": {
    "methods": {}
  }
}