{
  "contractName": "yUSDC",
  "abi": [
    {
      "inputs": [
        {
          "internalType": "address",
          "name": "_yeldToken",
          "type": "address"
        },
        {
          "internalType": "address payable",
          "name": "_retirementYeldTreasury",
          "type": "address"
        },
        {
          "internalType": "address",
          "name": "_devTreasury",
          "type": "address"
        }
      ],
      "payable": false,
      "stateMutability": "nonpayable",
      "type": "constructor"
    },
    {
      "anonymous": false,
      "inputs": [
        {
          "indexed": true,
          "internalType": "address",
          "name": "owner",
          "type": "address"
        },
        {
          "indexed": true,
          "internalType": "address",
          "name": "spender",
          "type": "address"
        },
        {
          "indexed": false,
          "internalType": "uint256",
          "name": "value",
          "type": "uint256"
        }
      ],
      "name": "Approval",
      "type": "event"
    },
    {
      "anonymous": false,
      "inputs": [
        {
          "indexed": true,
          "internalType": "address",
          "name": "previousOwner",
          "type": "address"
        },
        {
          "indexed": true,
          "internalType": "address",
          "name": "newOwner",
          "type": "address"
        }
      ],
      "name": "OwnershipTransferred",
      "type": "event"
    },
    {
      "anonymous": false,
      "inputs": [
        {
          "indexed": true,
          "internalType": "address",
          "name": "from",
          "type": "address"
        },
        {
          "indexed": true,
          "internalType": "address",
          "name": "to",
          "type": "address"
        },
        {
          "indexed": false,
          "internalType": "uint256",
          "name": "value",
          "type": "uint256"
        }
      ],
      "name": "Transfer",
      "type": "event"
    },
    {
      "payable": true,
      "stateMutability": "payable",
      "type": "fallback"
    },
    {
      "constant": true,
      "inputs": [],
      "name": "aave",
      "outputs": [
        {
          "internalType": "address",
          "name": "",
          "type": "address"
        }
      ],
      "payable": false,
      "stateMutability": "view",
      "type": "function"
    },
    {
      "constant": true,
      "inputs": [],
      "name": "aaveToken",
      "outputs": [
        {
          "internalType": "address",
          "name": "",
          "type": "address"
        }
      ],
      "payable": false,
      "stateMutability": "view",
      "type": "function"
    },
    {
      "constant": true,
      "inputs": [
        {
          "internalType": "address",
          "name": "owner",
          "type": "address"
        },
        {
          "internalType": "address",
          "name": "spender",
          "type": "address"
        }
      ],
      "name": "allowance",
      "outputs": [
        {
          "internalType": "uint256",
          "name": "",
          "type": "uint256"
        }
      ],
      "payable": false,
      "stateMutability": "view",
      "type": "function"
    },
    {
      "constant": false,
      "inputs": [
        {
          "internalType": "address",
          "name": "spender",
          "type": "address"
        },
        {
          "internalType": "uint256",
          "name": "amount",
          "type": "uint256"
        }
      ],
      "name": "approve",
      "outputs": [
        {
          "internalType": "bool",
          "name": "",
          "type": "bool"
        }
      ],
      "payable": false,
      "stateMutability": "nonpayable",
      "type": "function"
    },
    {
      "constant": true,
      "inputs": [],
      "name": "apr",
      "outputs": [
        {
          "internalType": "address",
          "name": "",
          "type": "address"
        }
      ],
      "payable": false,
      "stateMutability": "view",
      "type": "function"
    },
    {
      "constant": true,
      "inputs": [
        {
          "internalType": "address",
          "name": "account",
          "type": "address"
        }
      ],
      "name": "balanceOf",
      "outputs": [
        {
          "internalType": "uint256",
          "name": "",
          "type": "uint256"
        }
      ],
      "payable": false,
      "stateMutability": "view",
      "type": "function"
    },
    {
      "constant": true,
      "inputs": [],
      "name": "compound",
      "outputs": [
        {
          "internalType": "address",
          "name": "",
          "type": "address"
        }
      ],
      "payable": false,
      "stateMutability": "view",
      "type": "function"
    },
    {
      "constant": true,
      "inputs": [],
      "name": "dToken",
      "outputs": [
        {
          "internalType": "uint256",
          "name": "",
          "type": "uint256"
        }
      ],
      "payable": false,
      "stateMutability": "view",
      "type": "function"
    },
    {
      "constant": true,
      "inputs": [],
      "name": "dai",
      "outputs": [
        {
          "internalType": "address",
          "name": "",
          "type": "address"
        }
      ],
      "payable": false,
      "stateMutability": "view",
      "type": "function"
    },
    {
      "constant": true,
      "inputs": [],
      "name": "decimals",
      "outputs": [
        {
          "internalType": "uint8",
          "name": "",
          "type": "uint8"
        }
      ],
      "payable": false,
      "stateMutability": "view",
      "type": "function"
    },
    {
      "constant": false,
      "inputs": [
        {
          "internalType": "address",
          "name": "spender",
          "type": "address"
        },
        {
          "internalType": "uint256",
          "name": "subtractedValue",
          "type": "uint256"
        }
      ],
      "name": "decreaseAllowance",
      "outputs": [
        {
          "internalType": "bool",
          "name": "",
          "type": "bool"
        }
      ],
      "payable": false,
      "stateMutability": "nonpayable",
      "type": "function"
    },
    {
      "constant": true,
      "inputs": [
        {
          "internalType": "address",
          "name": "",
          "type": "address"
        }
      ],
      "name": "depositAmount",
      "outputs": [
        {
          "internalType": "uint256",
          "name": "",
          "type": "uint256"
        }
      ],
      "payable": false,
      "stateMutability": "view",
      "type": "function"
    },
    {
      "constant": true,
      "inputs": [
        {
          "internalType": "address",
          "name": "",
          "type": "address"
        }
      ],
      "name": "depositBlockStarts",
      "outputs": [
        {
          "internalType": "uint256",
          "name": "",
          "type": "uint256"
        }
      ],
      "payable": false,
      "stateMutability": "view",
      "type": "function"
    },
    {
      "constant": true,
      "inputs": [],
      "name": "devTreasury",
      "outputs": [
        {
          "internalType": "address",
          "name": "",
          "type": "address"
        }
      ],
      "payable": false,
      "stateMutability": "view",
      "type": "function"
    },
    {
      "constant": true,
      "inputs": [],
      "name": "dydx",
      "outputs": [
        {
          "internalType": "address",
          "name": "",
          "type": "address"
        }
      ],
      "payable": false,
      "stateMutability": "view",
      "type": "function"
    },
    {
      "constant": true,
      "inputs": [],
      "name": "fulcrum",
      "outputs": [
        {
          "internalType": "address",
          "name": "",
          "type": "address"
        }
      ],
      "payable": false,
      "stateMutability": "view",
      "type": "function"
    },
    {
      "constant": true,
      "inputs": [
        {
          "internalType": "address",
          "name": "_yeld",
          "type": "address"
        },
        {
          "internalType": "address",
          "name": "_weth",
          "type": "address"
        },
        {
          "internalType": "address",
          "name": "_dai",
          "type": "address"
        },
        {
          "internalType": "address",
          "name": "_uniswap",
          "type": "address"
        }
      ],
      "name": "getYeldPriceInDai",
      "outputs": [
        {
          "internalType": "uint256",
          "name": "",
          "type": "uint256"
        }
      ],
      "payable": false,
      "stateMutability": "view",
      "type": "function"
    },
    {
      "constant": true,
      "inputs": [],
      "name": "holdPercentage",
      "outputs": [
        {
          "internalType": "uint256",
          "name": "",
          "type": "uint256"
        }
      ],
      "payable": false,
      "stateMutability": "view",
      "type": "function"
    },
    {
      "constant": false,
      "inputs": [
        {
          "internalType": "address",
          "name": "spender",
          "type": "address"
        },
        {
          "internalType": "uint256",
          "name": "addedValue",
          "type": "uint256"
        }
      ],
      "name": "increaseAllowance",
      "outputs": [
        {
          "internalType": "bool",
          "name": "",
          "type": "bool"
        }
      ],
      "payable": false,
      "stateMutability": "nonpayable",
      "type": "function"
    },
    {
      "constant": true,
      "inputs": [],
      "name": "isOwner",
      "outputs": [
        {
          "internalType": "bool",
          "name": "",
          "type": "bool"
        }
      ],
      "payable": false,
      "stateMutability": "view",
      "type": "function"
    },
    {
      "constant": true,
      "inputs": [],
      "name": "maximumTokensToBurn",
      "outputs": [
        {
          "internalType": "uint256",
          "name": "",
          "type": "uint256"
        }
      ],
      "payable": false,
      "stateMutability": "view",
      "type": "function"
    },
    {
      "constant": true,
      "inputs": [],
      "name": "name",
      "outputs": [
        {
          "internalType": "string",
          "name": "",
          "type": "string"
        }
      ],
      "payable": false,
      "stateMutability": "view",
      "type": "function"
    },
    {
      "constant": true,
      "inputs": [],
      "name": "oneDayInBlocks",
      "outputs": [
        {
          "internalType": "uint256",
          "name": "",
          "type": "uint256"
        }
      ],
      "payable": false,
      "stateMutability": "view",
      "type": "function"
    },
    {
      "constant": true,
      "inputs": [],
      "name": "oneMillion",
      "outputs": [
        {
          "internalType": "uint256",
          "name": "",
          "type": "uint256"
        }
      ],
      "payable": false,
      "stateMutability": "view",
      "type": "function"
    },
    {
      "constant": true,
      "inputs": [],
      "name": "owner",
      "outputs": [
        {
          "internalType": "address payable",
          "name": "",
          "type": "address"
        }
      ],
      "payable": false,
      "stateMutability": "view",
      "type": "function"
    },
    {
      "constant": true,
      "inputs": [],
      "name": "percentageBuyBurn",
      "outputs": [
        {
          "internalType": "uint256",
          "name": "",
          "type": "uint256"
        }
      ],
      "payable": false,
      "stateMutability": "view",
      "type": "function"
    },
    {
      "constant": true,
      "inputs": [],
      "name": "percentageDevTreasury",
      "outputs": [
        {
          "internalType": "uint256",
          "name": "",
          "type": "uint256"
        }
      ],
      "payable": false,
      "stateMutability": "view",
      "type": "function"
    },
    {
      "constant": true,
      "inputs": [],
      "name": "percentageRetirementYield",
      "outputs": [
        {
          "internalType": "uint256",
          "name": "",
          "type": "uint256"
        }
      ],
      "payable": false,
      "stateMutability": "view",
      "type": "function"
    },
    {
      "constant": true,
      "inputs": [],
      "name": "pool",
      "outputs": [
        {
          "internalType": "uint256",
          "name": "",
          "type": "uint256"
        }
      ],
      "payable": false,
      "stateMutability": "view",
      "type": "function"
    },
    {
      "constant": true,
      "inputs": [],
      "name": "provider",
      "outputs": [
        {
          "internalType": "enum yUSDC.Lender",
          "name": "",
          "type": "uint8"
        }
      ],
      "payable": false,
      "stateMutability": "view",
      "type": "function"
    },
    {
      "constant": false,
      "inputs": [],
      "name": "renounceOwnership",
      "outputs": [],
      "payable": false,
      "stateMutability": "nonpayable",
      "type": "function"
    },
    {
      "constant": true,
      "inputs": [],
      "name": "retirementYeldTreasury",
      "outputs": [
        {
          "internalType": "address payable",
          "name": "",
          "type": "address"
        }
      ],
      "payable": false,
      "stateMutability": "view",
      "type": "function"
    },
    {
      "constant": true,
      "inputs": [],
      "name": "symbol",
      "outputs": [
        {
          "internalType": "string",
          "name": "",
          "type": "string"
        }
      ],
      "payable": false,
      "stateMutability": "view",
      "type": "function"
    },
    {
      "constant": true,
      "inputs": [],
      "name": "token",
      "outputs": [
        {
          "internalType": "address",
          "name": "",
          "type": "address"
        }
      ],
      "payable": false,
      "stateMutability": "view",
      "type": "function"
    },
    {
      "constant": true,
      "inputs": [],
      "name": "totalSupply",
      "outputs": [
        {
          "internalType": "uint256",
          "name": "",
          "type": "uint256"
        }
      ],
      "payable": false,
      "stateMutability": "view",
      "type": "function"
    },
    {
      "constant": false,
      "inputs": [
        {
          "internalType": "address",
          "name": "recipient",
          "type": "address"
        },
        {
          "internalType": "uint256",
          "name": "amount",
          "type": "uint256"
        }
      ],
      "name": "transfer",
      "outputs": [
        {
          "internalType": "bool",
          "name": "",
          "type": "bool"
        }
      ],
      "payable": false,
      "stateMutability": "nonpayable",
      "type": "function"
    },
    {
      "constant": false,
      "inputs": [
        {
          "internalType": "address",
          "name": "sender",
          "type": "address"
        },
        {
          "internalType": "address",
          "name": "recipient",
          "type": "address"
        },
        {
          "internalType": "uint256",
          "name": "amount",
          "type": "uint256"
        }
      ],
      "name": "transferFrom",
      "outputs": [
        {
          "internalType": "bool",
          "name": "",
          "type": "bool"
        }
      ],
      "payable": false,
      "stateMutability": "nonpayable",
      "type": "function"
    },
    {
      "constant": false,
      "inputs": [
        {
          "internalType": "address payable",
          "name": "newOwner",
          "type": "address"
        }
      ],
      "name": "transferOwnership",
      "outputs": [],
      "payable": false,
      "stateMutability": "nonpayable",
      "type": "function"
    },
    {
      "constant": true,
      "inputs": [],
      "name": "uniswapRouter",
      "outputs": [
        {
          "internalType": "address",
          "name": "",
          "type": "address"
        }
      ],
      "payable": false,
      "stateMutability": "view",
      "type": "function"
    },
    {
      "constant": false,
      "inputs": [
        {
          "internalType": "uint256",
          "name": "a",
          "type": "uint256"
        },
        {
          "internalType": "uint256",
          "name": "b",
          "type": "uint256"
        },
        {
          "internalType": "uint256",
          "name": "c",
          "type": "uint256"
        }
      ],
      "name": "updatePercentages",
      "outputs": [],
      "payable": false,
      "stateMutability": "nonpayable",
      "type": "function"
    },
    {
      "constant": true,
      "inputs": [],
      "name": "usdc",
      "outputs": [
        {
          "internalType": "address",
          "name": "",
          "type": "address"
        }
      ],
      "payable": false,
      "stateMutability": "view",
      "type": "function"
    },
    {
      "constant": true,
      "inputs": [],
      "name": "weth",
      "outputs": [
        {
          "internalType": "address",
          "name": "",
          "type": "address"
        }
      ],
      "payable": false,
      "stateMutability": "view",
      "type": "function"
    },
    {
      "constant": true,
      "inputs": [],
      "name": "yeldToRewardPerDay",
      "outputs": [
        {
          "internalType": "uint256",
          "name": "",
          "type": "uint256"
        }
      ],
      "payable": false,
      "stateMutability": "view",
      "type": "function"
    },
    {
      "constant": true,
      "inputs": [],
      "name": "yeldToken",
      "outputs": [
        {
          "internalType": "contract IERC20",
          "name": "",
          "type": "address"
        }
      ],
      "payable": false,
      "stateMutability": "view",
      "type": "function"
    },
    {
      "constant": false,
      "inputs": [
        {
          "internalType": "address payable",
          "name": "_treasury",
          "type": "address"
        }
      ],
      "name": "setRetirementYeldTreasury",
      "outputs": [],
      "payable": false,
      "stateMutability": "nonpayable",
      "type": "function"
    },
    {
      "constant": false,
      "inputs": [
        {
          "internalType": "address",
          "name": "_uniswapRouter",
          "type": "address"
        }
      ],
      "name": "setUniswapRouter",
      "outputs": [],
      "payable": false,
      "stateMutability": "nonpayable",
      "type": "function"
    },
    {
      "constant": false,
      "inputs": [
        {
          "internalType": "address",
          "name": "_yeldToken",
          "type": "address"
        }
      ],
      "name": "setYeldToken",
      "outputs": [],
      "payable": false,
      "stateMutability": "nonpayable",
      "type": "function"
    },
    {
      "constant": false,
      "inputs": [
        {
          "internalType": "address",
          "name": "_token",
          "type": "address"
        },
        {
          "internalType": "uint256",
          "name": "_amount",
          "type": "uint256"
        }
      ],
      "name": "extractTokensIfStuck",
      "outputs": [],
      "payable": false,
      "stateMutability": "nonpayable",
      "type": "function"
    },
    {
      "constant": false,
      "inputs": [],
      "name": "extractETHIfStuck",
      "outputs": [],
      "payable": false,
      "stateMutability": "nonpayable",
      "type": "function"
    },
    {
      "constant": false,
      "inputs": [
        {
          "internalType": "uint256",
          "name": "_amount",
          "type": "uint256"
        }
      ],
      "name": "changeYeldToRewardPerDay",
      "outputs": [],
      "payable": false,
      "stateMutability": "nonpayable",
      "type": "function"
    },
    {
      "constant": true,
      "inputs": [],
      "name": "getGeneratedYelds",
      "outputs": [
        {
          "internalType": "uint256",
          "name": "",
          "type": "uint256"
        }
      ],
      "payable": false,
      "stateMutability": "view",
      "type": "function"
    },
    {
      "constant": false,
      "inputs": [
        {
          "internalType": "uint256",
          "name": "_holdPercentage",
          "type": "uint256"
        }
      ],
      "name": "setHoldPercentage",
      "outputs": [],
      "payable": false,
      "stateMutability": "nonpayable",
      "type": "function"
    },
    {
      "constant": false,
      "inputs": [
        {
          "internalType": "uint256",
          "name": "_amount",
          "type": "uint256"
        }
      ],
      "name": "deposit",
      "outputs": [],
      "payable": false,
      "stateMutability": "nonpayable",
      "type": "function"
    },
    {
      "constant": false,
      "inputs": [
        {
          "internalType": "uint256",
          "name": "_shares",
          "type": "uint256"
        }
      ],
      "name": "withdraw",
      "outputs": [],
      "payable": false,
      "stateMutability": "nonpayable",
      "type": "function"
    },
    {
      "constant": true,
      "inputs": [],
      "name": "recommend",
      "outputs": [
        {
          "internalType": "enum yUSDC.Lender",
          "name": "",
          "type": "uint8"
        }
      ],
      "payable": false,
      "stateMutability": "view",
      "type": "function"
    },
    {
      "constant": false,
      "inputs": [
        {
          "internalType": "uint256",
          "name": "amount",
          "type": "uint256"
        }
      ],
      "name": "supplyDydx",
      "outputs": [
        {
          "internalType": "uint256",
          "name": "",
          "type": "uint256"
        }
      ],
      "payable": false,
      "stateMutability": "nonpayable",
      "type": "function"
    },
    {
      "constant": true,
      "inputs": [],
      "name": "getAave",
      "outputs": [
        {
          "internalType": "address",
          "name": "",
          "type": "address"
        }
      ],
      "payable": false,
      "stateMutability": "view",
      "type": "function"
    },
    {
      "constant": true,
      "inputs": [],
      "name": "getAaveCore",
      "outputs": [
        {
          "internalType": "address",
          "name": "",
          "type": "address"
        }
      ],
      "payable": false,
      "stateMutability": "view",
      "type": "function"
    },
    {
      "constant": false,
      "inputs": [],
      "name": "approveToken",
      "outputs": [],
      "payable": false,
      "stateMutability": "nonpayable",
      "type": "function"
    },
    {
      "constant": true,
      "inputs": [],
      "name": "balance",
      "outputs": [
        {
          "internalType": "uint256",
          "name": "",
          "type": "uint256"
        }
      ],
      "payable": false,
      "stateMutability": "view",
      "type": "function"
    },
    {
      "constant": true,
      "inputs": [],
      "name": "balanceDydx",
      "outputs": [
        {
          "internalType": "uint256",
          "name": "",
          "type": "uint256"
        }
      ],
      "payable": false,
      "stateMutability": "view",
      "type": "function"
    },
    {
      "constant": true,
      "inputs": [],
      "name": "balanceCompound",
      "outputs": [
        {
          "internalType": "uint256",
          "name": "",
          "type": "uint256"
        }
      ],
      "payable": false,
      "stateMutability": "view",
      "type": "function"
    },
    {
      "constant": true,
      "inputs": [],
      "name": "balanceCompoundInToken",
      "outputs": [
        {
          "internalType": "uint256",
          "name": "",
          "type": "uint256"
        }
      ],
      "payable": false,
      "stateMutability": "view",
      "type": "function"
    },
    {
      "constant": true,
      "inputs": [],
      "name": "balanceFulcrumInToken",
      "outputs": [
        {
          "internalType": "uint256",
          "name": "",
          "type": "uint256"
        }
      ],
      "payable": false,
      "stateMutability": "view",
      "type": "function"
    },
    {
      "constant": true,
      "inputs": [],
      "name": "balanceFulcrum",
      "outputs": [
        {
          "internalType": "uint256",
          "name": "",
          "type": "uint256"
        }
      ],
      "payable": false,
      "stateMutability": "view",
      "type": "function"
    },
    {
      "constant": true,
      "inputs": [],
      "name": "balanceAave",
      "outputs": [
        {
          "internalType": "uint256",
          "name": "",
          "type": "uint256"
        }
      ],
      "payable": false,
      "stateMutability": "view",
      "type": "function"
    },
    {
      "constant": false,
      "inputs": [],
      "name": "rebalance",
      "outputs": [],
      "payable": false,
      "stateMutability": "nonpayable",
      "type": "function"
    },
    {
      "constant": false,
      "inputs": [
        {
          "internalType": "uint256",
          "name": "amount",
          "type": "uint256"
        }
      ],
      "name": "supplyAave",
      "outputs": [],
      "payable": false,
      "stateMutability": "nonpayable",
      "type": "function"
    },
    {
      "constant": false,
      "inputs": [
        {
          "internalType": "uint256",
          "name": "amount",
          "type": "uint256"
        }
      ],
      "name": "supplyFulcrum",
      "outputs": [],
      "payable": false,
      "stateMutability": "nonpayable",
      "type": "function"
    },
    {
      "constant": false,
      "inputs": [
        {
          "internalType": "uint256",
          "name": "amount",
          "type": "uint256"
        }
      ],
      "name": "supplyCompound",
      "outputs": [],
      "payable": false,
      "stateMutability": "nonpayable",
      "type": "function"
    },
    {
      "constant": false,
      "inputs": [
        {
          "internalType": "uint256",
          "name": "_amount",
          "type": "uint256"
        }
      ],
      "name": "invest",
      "outputs": [],
      "payable": false,
      "stateMutability": "nonpayable",
      "type": "function"
    },
    {
      "constant": true,
      "inputs": [],
      "name": "calcPoolValueInToken",
      "outputs": [
        {
          "internalType": "uint256",
          "name": "",
          "type": "uint256"
        }
      ],
      "payable": false,
      "stateMutability": "view",
      "type": "function"
    },
    {
      "constant": true,
      "inputs": [],
      "name": "getPricePerFullShare",
      "outputs": [
        {
          "internalType": "uint256",
          "name": "",
          "type": "uint256"
        }
      ],
      "payable": false,
      "stateMutability": "view",
      "type": "function"
    },
    {
      "constant": false,
      "inputs": [
        {
          "internalType": "uint256",
          "name": "_shares",
          "type": "uint256"
        }
      ],
      "name": "redeem",
      "outputs": [],
      "payable": false,
      "stateMutability": "nonpayable",
      "type": "function"
    }
  ],
  "bytecode": "0x60806040526714d1120d7b1600006008556722b1c8c1227a0000600955670de0b6b3a7640000600a55601680546001600160a01b0319908116737a250d5630b4cf539739df2c5dacb4c659f2488d1790915560178054821673a0b86991c6218b36c1d19d4a2e9eb0ce3606eb4817905560188054821673c02aaa39b223fe8d0a0e5c4f27ead9083c756cc217905560198054909116736b175474e89094c44da98b954eedeac495271d0f179055690a968163f0a57b400000601c556000601d55674563918244f40000601e55601f805460ff60a01b19169055348015620000e557600080fd5b50604051620069bb380380620069bb8339810160408190526200010891620007b0565b604080518082018252600981526879656c64205553444360b81b602080830191825283518085019094526005845264795553444360d81b9084015281519192916006916200015a9160039190620006c0565b50815162000170906004906020850190620006c0565b506005805460ff191660ff92909216919091179055505060016006556200019662000314565b600780546001600160a01b0319166001600160a01b0392831617908190556040519116906000907f8be0079c531659141344cd1fd0a4f28419497f9722a3daafe3b4186f6b6457e0908290a3600c80546001600160a01b031990811673a0b86991c6218b36c1d19d4a2e9eb0ce3606eb481790915560138054821673dd6d648c991f7d47454354f4ef326b04025a48a8179055601180548216731e0447b19bb6ecfdae1e4ae1694b0c3659614e4e179055600f805482167324a42fd28c976a61df5d00d0599c34c4f90748c8179055600e8054821673f013406a0b1d544238083df0b93ad0d2cbe0f65f179055601080548216739ba00d6856a4edf4665bca2c2309936572473b7e179055600d805482167339aa39c021dfbae8fac545936693ac917d5e75631790556002601255601b80546001600160a01b0386811691841691909117909155601a8054858316908416179055601f8054918416919092161790556200030b6001600160e01b036200031916565b50505062000ae6565b335b90565b600d54600c5462000346916001600160a01b039182169116600019620003db602090811b620040c217901c565b601154600c5462000373916001600160a01b039182169116600019620003db602090811b620040c217901c565b620003ac6200038a6001600160e01b03620004f516565b600c546001600160a01b031690600019620003db602090811b620040c217901c565b600e54600c54620003d9916001600160a01b039182169116600019620003db602090811b620040c217901c565b565b8015806200046a5750604051636eb1769f60e11b81526001600160a01b0384169063dd62ed3e90620004149030908690600401620009d1565b60206040518083038186803b1580156200042d57600080fd5b505afa15801562000442573d6000803e3d6000fd5b505050506040513d601f19601f8201168201806040525062000468919081019062000825565b155b620004925760405162461bcd60e51b8152600401620004899062000a33565b60405180910390fd5b604051620004f090849063095ea7b360e01b90620004b79086908690602401620009f0565b60408051808303601f190181529190526020810180516001600160e01b0319939093166001600160e01b03938416179052906200057b16565b505050565b600f546040805163076b7fbb60e51b815290516000926001600160a01b03169163ed6ff760916004808301926020929190829003018186803b1580156200053b57600080fd5b505afa15801562000550573d6000803e3d6000fd5b505050506040513d601f19601f820116820180604052506200057691908101906200078f565b905090565b6200059a826001600160a01b03166200068360201b6200494d1760201c565b620005b95760405162461bcd60e51b8152600401620004899062000a45565b60006060836001600160a01b031683604051620005d79190620009bc565b6000604051808303816000865af19150503d806000811462000616576040519150601f19603f3d011682016040523d82523d6000602084013e6200061b565b606091505b509150915081620006405760405162461bcd60e51b8152600401620004899062000a0f565b8051156200067d57808060200190516200065e919081019062000804565b6200067d5760405162461bcd60e51b8152600401620004899062000a21565b50505050565b6000813f7fc5d2460186f7233c927e7db2dcc703c0e500b653ca82273b7bfad8045d85a4708115801590620006b85750808214155b949350505050565b828054600181600116156101000203166002900490600052602060002090601f016020900481019282601f106200070357805160ff191683800117855562000733565b8280016001018555821562000733579182015b828111156200073357825182559160200191906001019062000716565b506200074192915062000745565b5090565b6200031691905b808211156200074157600081556001016200074c565b80516200076f8162000ab6565b92915050565b80516200076f8162000ad0565b80516200076f8162000adb565b600060208284031215620007a257600080fd5b6000620006b8848462000762565b600080600060608486031215620007c657600080fd5b6000620007d4868662000762565b9350506020620007e78682870162000762565b9250506040620007fa8682870162000762565b9150509250925092565b6000602082840312156200081757600080fd5b6000620006b8848462000775565b6000602082840312156200083857600080fd5b6000620006b8848462000782565b620008518162000a69565b82525050565b6000620008648262000a57565b62000870818562000a5b565b93506200088281856020860162000a87565b9290920192915050565b60006200089b60208362000a60565b7f5361666545524332303a206c6f772d6c6576656c2063616c6c206661696c6564815260200192915050565b6000620008d6602a8362000a60565b7f5361666545524332303a204552433230206f7065726174696f6e20646964206e8152691bdd081cdd58d8d9595960b21b602082015260400192915050565b60006200092460368362000a60565b7f5361666545524332303a20617070726f76652066726f6d206e6f6e2d7a65726f81527f20746f206e6f6e2d7a65726f20616c6c6f77616e636500000000000000000000602082015260400192915050565b600062000985601f8362000a60565b7f5361666545524332303a2063616c6c20746f206e6f6e2d636f6e747261637400815260200192915050565b620008518162000316565b6000620009ca828462000857565b9392505050565b60408101620009e1828562000846565b620009ca602083018462000846565b6040810162000a00828562000846565b620009ca6020830184620009b1565b602080825281016200076f816200088c565b602080825281016200076f81620008c7565b602080825281016200076f8162000915565b602080825281016200076f8162000976565b5190565b919050565b90815260200190565b60006200076f8262000a7b565b151590565b6001600160a01b031690565b60005b8381101562000aa457818101518382015260200162000a8a565b838111156200067d5750506000910152565b62000ac18162000a69565b811462000acd57600080fd5b50565b62000ac18162000a76565b62000ac18162000316565b615ec58062000af66000396000f3fe6080604052600436106104d15760003560e01c80637f50d4d811610279578063cf8ca4261161015e578063f2978d98116100d6578063f5a41dea1161008a578063f7c1ec771161006f578063f7c1ec7714610c28578063f82ce27d14610c3d578063fc0c546a14610c52576104d1565b8063f5a41dea14610bfe578063f69e204614610c13576104d1565b8063f2fde38b116100bb578063f2fde38b14610ba9578063f34ce4bb14610bc9578063f4b9fa7514610be9576104d1565b8063f2978d9814610b7f578063f29e15a214610b94576104d1565b8063e26f21bf1161012d578063eb56faf011610112578063eb56faf014610b2a578063ebc5116014610b4a578063f02fbd4a14610b5f576104d1565b8063e26f21bf14610aea578063e849d65914610b0a576104d1565b8063cf8ca42614610a80578063d9d7858a14610a95578063db006a7514610aaa578063dd62ed3e14610aca576104d1565b8063a160176d116101f1578063a9a1015a116101c0578063b69ef8a8116101a5578063b69ef8a814610a2b578063b6b55f2514610a40578063bea9849e14610a60576104d1565b8063a9a1015a146109f6578063b19ab07614610a16576104d1565b8063a160176d1461098c578063a457c2d7146109a1578063a7287971146109c1578063a9059cbb146109d6576104d1565b80638da5cb5b116102485780638f32d59b1161022d5780638f32d59b1461094d57806395d89b411461096257806399b71d5c14610977576104d1565b80638da5cb5b146109235780638e4ec6ef14610938576104d1565b80637f50d4d8146108b75780638124955c146108d9578063819faf7b146108f9578063858409ba1461090e576104d1565b80633e413bee116103ba57806365aab749116103325780637354b2e9116102e657806377c7b8fc116102cb57806377c7b8fc1461086d5780637b82784c146108825780637d7c2a1c146108a2576104d1565b80637354b2e914610843578063735de9f714610858576104d1565b806370a082311161031757806370a08231146107f95780637137ef9914610819578063715018a61461082e576104d1565b806365aab749146107c45780636ff2bf08146107e4576104d1565b80634fe411291161038957806357ded9c91161036e57806357ded9c91461078557806358782c211461079a57806361c1ec55146107af576104d1565b80634fe411291461075057806350f62da714610765576104d1565b80633e413bee146106f15780633fc8cef314610706578063413e920d1461071b5780634fd96cb614610730576104d1565b8063202a27351161044d5780632e1a7d4d1161041c578063313ce56711610401578063313ce5671461069a57806339509351146106bc57806339c0a7e1146106dc576104d1565b80632e1a7d4d1461065a5780632eb4520a1461067a576104d1565b8063202a2735146105f057806323b872dd146106055780632622678c146106255780632afcf4801461063a576104d1565b8063095ea7b3116104a457806310391d251161048957806310391d25146105b157806316f0115b146105c657806318160ddd146105db576104d1565b8063095ea7b31461056f5780630eb2a2671461059c576104d1565b806306636c1c146104d357806306a3fe591461050957806306fdde031461052b578063085d48831461054d575b005b3480156104df57600080fd5b506104f36104ee366004614dc0565b610c67565b6040516105009190615b8e565b60405180910390f35b34801561051557600080fd5b5061051e610e1e565b60405161050091906158b3565b34801561053757600080fd5b50610540610e3a565b60405161050091906159d2565b34801561055957600080fd5b50610562610eef565b60405161050091906159a4565b34801561057b57600080fd5b5061058f61058a366004614c93565b610f10565b6040516105009190615988565b3480156105a857600080fd5b506104f3610f2e565b3480156105bd57600080fd5b506104f3610fda565b3480156105d257600080fd5b506104f3610fe0565b3480156105e757600080fd5b506104f3610fe6565b3480156105fc57600080fd5b506104f3610fec565b34801561061157600080fd5b5061058f610620366004614c46565b610ff2565b34801561063157600080fd5b5061051e61109a565b34801561064657600080fd5b506104d1610655366004614dc0565b6110b6565b34801561066657600080fd5b506104d1610675366004614dc0565b6111d4565b34801561068657600080fd5b506104d1610695366004614b6f565b611974565b3480156106a657600080fd5b506106af6119f9565b6040516105009190615c2b565b3480156106c857600080fd5b5061058f6106d7366004614c93565b611a02565b3480156106e857600080fd5b506104f3611a63565b3480156106fd57600080fd5b5061051e611b30565b34801561071257600080fd5b5061051e611b4c565b34801561072757600080fd5b506104f3611b68565b34801561073c57600080fd5b506104d161074b366004614b6f565b611b6f565b34801561075c57600080fd5b506104d1611bf4565b34801561077157600080fd5b506104f3610780366004614b6f565b611c82565b34801561079157600080fd5b5061051e611c94565b3480156107a657600080fd5b5061051e611cb0565b3480156107bb57600080fd5b506104f3611ccc565b3480156107d057600080fd5b506104d16107df366004614dc0565b611d23565b3480156107f057600080fd5b506104f3611dbc565b34801561080557600080fd5b506104f3610814366004614b6f565b611e94565b34801561082557600080fd5b506104f3611ec0565b34801561083a57600080fd5b506104d1611ef6565b34801561084f57600080fd5b506104f3611fa3565b34801561086457600080fd5b5061051e611fa9565b34801561087957600080fd5b506104f3611fc5565b34801561088e57600080fd5b506104f361089d366004614b6f565b611ff8565b3480156108ae57600080fd5b506104d161200a565b3480156108c357600080fd5b506108cc612143565b6040516105009190615996565b3480156108e557600080fd5b506104d16108f4366004614dc0565b61215f565b34801561090557600080fd5b5061051e612241565b34801561091a57600080fd5b506104f361225d565b34801561092f57600080fd5b5061051e612263565b34801561094457600080fd5b5061051e61227f565b34801561095957600080fd5b5061058f61229b565b34801561096e57600080fd5b506105406122db565b34801561098357600080fd5b506104d161235a565b34801561099857600080fd5b5061056261249d565b3480156109ad57600080fd5b5061058f6109bc366004614c93565b6125f3565b3480156109cd57600080fd5b506104f361266e565b3480156109e257600080fd5b5061058f6109f1366004614c93565b61273d565b348015610a0257600080fd5b506104d1610a11366004614c93565b612751565b348015610a2257600080fd5b5061051e61283a565b348015610a3757600080fd5b506104f3612856565b348015610a4c57600080fd5b506104d1610a5b366004614dc0565b6128ad565b348015610a6c57600080fd5b506104d1610a7b366004614b6f565b612b8e565b348015610a8c57600080fd5b506104f3612c13565b348015610aa157600080fd5b506104f3612c6a565b348015610ab657600080fd5b506104d1610ac5366004614dc0565b612c70565b348015610ad657600080fd5b506104f3610ae5366004614bab565b612fcd565b348015610af657600080fd5b506104d1610b05366004614dc0565b613005565b348015610b1657600080fd5b506104d1610b25366004614dc0565b613048565b348015610b3657600080fd5b506104d1610b45366004614dfc565b613127565b348015610b5657600080fd5b506104f3613173565b348015610b6b57600080fd5b506104d1610b7a366004614dc0565b613179565b348015610b8b57600080fd5b506104f36131bc565b348015610ba057600080fd5b506104f36131c2565b348015610bb557600080fd5b506104d1610bc4366004614b6f565b6131c8565b348015610bd557600080fd5b506104f3610be4366004614be5565b61320f565b348015610bf557600080fd5b5061051e6133d6565b348015610c0a57600080fd5b506104f36133f2565b348015610c1f57600080fd5b5061051e6134ab565b348015610c3457600080fd5b5061051e6134c7565b348015610c4957600080fd5b5061051e61356a565b348015610c5e57600080fd5b5061051e6135d5565b60408051600180825281830190925260009160609190816020015b610c8a614984565b815260200190600190039081610c8257905050905060405180604001604052803073ffffffffffffffffffffffffffffffffffffffff168152602001600081525081600081518110610cd857fe5b6020026020010181905250610ceb61499b565b6040805160808101909152600181526020810160008152602001600081526020018590529050610d196149c4565b600081819052506000602082015260408082018390526012546060808401919091523060a0840152815160018082528184019093529091816020015b610d5d6149c4565b815260200190600190039081610d555790505090508181600081518110610d8057fe5b60209081029190910101526011546040517fa67a6a4500000000000000000000000000000000000000000000000000000000815273ffffffffffffffffffffffffffffffffffffffff9091169063a67a6a4590610de39087908590600401615963565b600060405180830381600087803b158015610dfd57600080fd5b505af1158015610e11573d6000803e3d6000fd5b5050505050505050919050565b60105473ffffffffffffffffffffffffffffffffffffffff1681565b60038054604080516020601f60027fffffffffffffffffffffffffffffffffffffffffffffffffffffffffffffffff610100600188161502019095169490940493840181900481028201810190925282815260609390929091830182828015610ee45780601f10610eb957610100808354040283529160200191610ee4565b820191906000526020600020905b815481529060010190602001808311610ec757829003601f168201915b505050505090505b90565b601f5474010000000000000000000000000000000000000000900460ff1681565b6000610f24610f1d6135f1565b84846135f5565b5060015b92915050565b600e546040517f70a0823100000000000000000000000000000000000000000000000000000000815260009173ffffffffffffffffffffffffffffffffffffffff16906370a0823190610f859030906004016158c1565b60206040518083038186803b158015610f9d57600080fd5b505afa158015610fb1573d6000803e3d6000fd5b505050506040513d601f19601f82011682018060405250610fd59190810190614dde565b905090565b60095481565b600b5481565b60025490565b601e5481565b6000610fff848484613704565b61108f8461100b6135f1565b61108a85604051806060016040528060288152602001615e366028913973ffffffffffffffffffffffffffffffffffffffff8a166000908152600160205260408120906110566135f1565b73ffffffffffffffffffffffffffffffffffffffff168152602081019190915260400160002054919063ffffffff61388f16565b6135f5565b5060015b9392505050565b601a5473ffffffffffffffffffffffffffffffffffffffff1681565b600680546001019081905581611101576040517f08c379a00000000000000000000000000000000000000000000000000000000081526004016110f890615b03565b60405180910390fd5b611109611ec0565b600b55600c546111379073ffffffffffffffffffffffffffffffffffffffff1633308563ffffffff6138d516565b61113f61200a565b600b546000906111555750600b8290558161117f565b61117c600b546111706002548661399a90919063ffffffff16565b9063ffffffff6139ee16565b90505b611187611ec0565b600b556111943382613a30565b5060065481146111d0576040517f08c379a00000000000000000000000000000000000000000000000000000000081526004016110f890615b33565b5050565b60068054600101908190556111e833613b31565b1561121f576040517f08c379a00000000000000000000000000000000000000000000000000000000081526004016110f890615a93565b60008211611259576040517f08c379a00000000000000000000000000000000000000000000000000000000081526004016110f890615ab3565b600061126433611e94565b9050808311156112a0576040517f08c379a00000000000000000000000000000000000000000000000000000000081526004016110f890615aa3565b6112a8611ec0565b600b5560006112b5611dbc565b905060006112d460025461117087600b5461399a90919063ffffffff16565b604080518082018252601d81527f72656465656d20616d6f756e7420657863656564732062616c616e636500000060208083019190915233600090815290819052919091205491925061132f9190879063ffffffff61388f16565b33600090815260208190526040902055600254611352908663ffffffff613b3716565b60025560405160009033907fddf252ad1be2c89b69c2b068fc378daa952ba7f163c4a11628f55a4df523b3ef9061138a908990615b8e565b60405180910390a3600c546040517f70a0823100000000000000000000000000000000000000000000000000000000815260009173ffffffffffffffffffffffffffffffffffffffff16906370a08231906113e99030906004016158c1565b60206040518083038186803b15801561140157600080fd5b505afa158015611415573d6000803e3d6000fd5b505050506040513d601f19601f820116820180604052506114399190810190614dde565b90508181101561145b5761145b611456838363ffffffff613b3716565b613b79565b6000611486600a5461147a600954600854613ce390919063ffffffff16565b9063ffffffff613ce316565b905060006114a768056bc75e2d63100000611170868563ffffffff61399a16565b33600090815260146020908152604080832043905560159091529020549091506114d7908563ffffffff613b3716565b336000818152601560205260409081902092909255601b5491517fa9059cbb00000000000000000000000000000000000000000000000000000000815273ffffffffffffffffffffffffffffffffffffffff9092169163a9059cbb916115419189906004016158cf565b602060405180830381600087803b15801561155b57600080fd5b505af115801561156f573d6000803e3d6000fd5b505050506040513d601f19601f820116820180604052506115939190810190614cf8565b50600061159f82613d22565b601b546040517f70a0823100000000000000000000000000000000000000000000000000000000815291925060009173ffffffffffffffffffffffffffffffffffffffff909116906370a08231906115fb9084906004016158c1565b60206040518083038186803b15801561161357600080fd5b505afa158015611627573d6000803e3d6000fd5b505050506040513d601f19601f8201168201806040525061164b9190810190614dde565b9050600061168e68056bc75e2d631000006111706116818861117060095468056bc75e2d6310000061399a90919063ffffffff16565b869063ffffffff61399a16565b9050601c548210156117785760006116db68056bc75e2d631000006111706116ce89611170600a5468056bc75e2d6310000061399a90919063ffffffff16565b879063ffffffff61399a16565b90506116e681613efe565b50600061172868056bc75e2d6310000061117061171b8a61117060085468056bc75e2d6310000061399a90919063ffffffff16565b889063ffffffff61399a16565b601a5460405191925073ffffffffffffffffffffffffffffffffffffffff169082156108fc029083906000818181858888f19350505050158015611770573d6000803e3d6000fd5b5050506117d5565b600061178a848363ffffffff613b3716565b601a5460405191925073ffffffffffffffffffffffffffffffffffffffff169082156108fc029083906000818181858888f193505050501580156117d2573d6000803e3d6000fd5b50505b601f5460405160009173ffffffffffffffffffffffffffffffffffffffff16908390611800906158a8565b60006040518083038185875af1925050503d806000811461183d576040519150601f19603f3d011682016040523d82523d6000602084013e611842565b606091505b505090508061187d576040517f08c379a00000000000000000000000000000000000000000000000000000000081526004016110f890615a43565b600c5473ffffffffffffffffffffffffffffffffffffffff1663a9059cbb336118ac8b8963ffffffff613b3716565b6040518363ffffffff1660e01b81526004016118c99291906158cf565b602060405180830381600087803b1580156118e357600080fd5b505af11580156118f7573d6000803e3d6000fd5b505050506040513d601f19601f8201168201806040525061191b9190810190614cf8565b50611924611ec0565b600b5561192f61200a565b5050505050505050505060065481146111d0576040517f08c379a00000000000000000000000000000000000000000000000000000000081526004016110f890615b33565b61197c61229b565b6119b2576040517f08c379a00000000000000000000000000000000000000000000000000000000081526004016110f890615a83565b601a80547fffffffffffffffffffffffff00000000000000000000000000000000000000001673ffffffffffffffffffffffffffffffffffffffff92909216919091179055565b60055460ff1690565b6000610f24611a0f6135f1565b8461108a8560016000611a206135f1565b73ffffffffffffffffffffffffffffffffffffffff908116825260208083019390935260409182016000908120918c16815292529020549063ffffffff613ce316565b6000611a6d614984565b6011546040805180820182523081526000602082015260125491517fc190c2ec00000000000000000000000000000000000000000000000000000000815273ffffffffffffffffffffffffffffffffffffffff9093169263c190c2ec92611ad79291600401615b73565b604080518083038186803b158015611aee57600080fd5b505afa158015611b02573d6000803e3d6000fd5b505050506040513d601f19601f82011682018060405250611b269190810190614da2565b6020015191505090565b60175473ffffffffffffffffffffffffffffffffffffffff1681565b60185473ffffffffffffffffffffffffffffffffffffffff1681565b620f424081565b611b7761229b565b611bad576040517f08c379a00000000000000000000000000000000000000000000000000000000081526004016110f890615a83565b601b80547fffffffffffffffffffffffff00000000000000000000000000000000000000001673ffffffffffffffffffffffffffffffffffffffff92909216919091179055565b611bfc61229b565b611c32576040517f08c379a00000000000000000000000000000000000000000000000000000000081526004016110f890615a83565b611c3a612263565b73ffffffffffffffffffffffffffffffffffffffff166108fc479081150290604051600060405180830381858888f19350505050158015611c7f573d6000803e3d6000fd5b50565b60156020526000908152604090205481565b60135473ffffffffffffffffffffffffffffffffffffffff1681565b600e5473ffffffffffffffffffffffffffffffffffffffff1681565b600d546040517f70a0823100000000000000000000000000000000000000000000000000000000815260009173ffffffffffffffffffffffffffffffffffffffff16906370a0823190610f859030906004016158c1565b611d2b6134c7565b600c546040517fd2d0e06600000000000000000000000000000000000000000000000000000000815273ffffffffffffffffffffffffffffffffffffffff9283169263d2d0e06692611d8792911690859060009060040161593b565b600060405180830381600087803b158015611da157600080fd5b505af1158015611db5573d6000803e3d6000fd5b5050505050565b33600090815260146020526040812054819015611dfb5733600090815260146020526040902054611df490439063ffffffff613b3716565b9050611e05565b6000915050610eec565b6000611e8d61196461117084611e81670de0b6b3a7640000611170601d54611e81620f424061117064e8d4a51000601560003373ffffffffffffffffffffffffffffffffffffffff1673ffffffffffffffffffffffffffffffffffffffff1681526020019081526020016000205461399a90919063ffffffff16565b9063ffffffff61399a16565b9250505090565b73ffffffffffffffffffffffffffffffffffffffff81166000908152602081905260409020545b919050565b6000610fd5611ecd612856565b61147a611ed8612c13565b61147a611ee3611a63565b61147a611eee6133f2565b61147a61266e565b611efe61229b565b611f34576040517f08c379a00000000000000000000000000000000000000000000000000000000081526004016110f890615a83565b60075460405160009173ffffffffffffffffffffffffffffffffffffffff16907f8be0079c531659141344cd1fd0a4f28419497f9722a3daafe3b4186f6b6457e0908390a3600780547fffffffffffffffffffffffff0000000000000000000000000000000000000000169055565b60085481565b60165473ffffffffffffffffffffffffffffffffffffffff1681565b600080611fd0611ec0565b600254909150611ff29061117083670de0b6b3a764000063ffffffff61399a16565b91505090565b60146020526000908152604090205481565b600061201461249d565b601f5490915074010000000000000000000000000000000000000000900460ff16600481111561204057fe5b81600481111561204c57fe5b146120595761205961405c565b6000612063612856565b11156120f057600181600481111561207757fe5b141561208e576120886104ee612856565b506120f0565b600481600481111561209c57fe5b14156120b2576120ad6108f4612856565b6120f0565b60028160048111156120c057fe5b14156120d1576120ad610b25612856565b60038160048111156120df57fe5b14156120f0576120f06107df612856565b601f80548291907fffffffffffffffffffffff00ffffffffffffffffffffffffffffffffffffffff167401000000000000000000000000000000000000000083600481111561213b57fe5b021790555050565b601b5473ffffffffffffffffffffffffffffffffffffffff1681565b600e546040517f40c10f1900000000000000000000000000000000000000000000000000000000815260009173ffffffffffffffffffffffffffffffffffffffff16906340c10f19906121b890309086906004016158cf565b602060405180830381600087803b1580156121d257600080fd5b505af11580156121e6573d6000803e3d6000fd5b505050506040513d601f19601f8201168201806040525061220a9190810190614dde565b11611c7f576040517f08c379a00000000000000000000000000000000000000000000000000000000081526004016110f890615b13565b600f5473ffffffffffffffffffffffffffffffffffffffff1681565b600a5481565b60075473ffffffffffffffffffffffffffffffffffffffff1690565b60115473ffffffffffffffffffffffffffffffffffffffff1681565b60075460009073ffffffffffffffffffffffffffffffffffffffff166122bf6135f1565b73ffffffffffffffffffffffffffffffffffffffff1614905090565b60048054604080516020601f60027fffffffffffffffffffffffffffffffffffffffffffffffffffffffffffffffff610100600188161502019095169490940493840181900481028201810190925282815260609390929091830182828015610ee45780601f10610eb957610100808354040283529160200191610ee4565b600d54600c546123aa9173ffffffffffffffffffffffffffffffffffffffff91821691167fffffffffffffffffffffffffffffffffffffffffffffffffffffffffffffffff63ffffffff6140c216565b601154600c546123fa9173ffffffffffffffffffffffffffffffffffffffff91821691167fffffffffffffffffffffffffffffffffffffffffffffffffffffffffffffffff63ffffffff6140c216565b61244b61240561356a565b600c5473ffffffffffffffffffffffffffffffffffffffff16907fffffffffffffffffffffffffffffffffffffffffffffffffffffffffffffffff63ffffffff6140c216565b600e54600c5461249b9173ffffffffffffffffffffffffffffffffffffffff91821691167fffffffffffffffffffffffffffffffffffffffffffffffffffffffffffffffff63ffffffff6140c216565b565b601354600c546040517fd88be3c0000000000000000000000000000000000000000000000000000000008152600092839283928392839273ffffffffffffffffffffffffffffffffffffffff9182169263d88be3c0926125019216906004016158b3565b60006040518083038186803b15801561251957600080fd5b505afa15801561252d573d6000803e3d6000fd5b505050506040513d6000823e601f3d9081017fffffffffffffffffffffffffffffffffffffffffffffffffffffffffffffffe01682016040526125739190810190614d16565b9297509095509350915060009050841561258a5750835b808411156125955750825b808311156125a05750815b808211156125ab5750805b6000818614156125bd575060026125e9565b848214156125cd575060046125e9565b838214156125dd575060036125e9565b828214156125e9575060015b9550505050505090565b6000610f246126006135f1565b8461108a85604051806060016040528060258152602001615e5e602591396001600061262a6135f1565b73ffffffffffffffffffffffffffffffffffffffff908116825260208083019390935260409182016000908120918d1681529252902054919063ffffffff61388f16565b600080612679611ccc565b90508015610fd557610f28670de0b6b3a7640000611170600d60009054906101000a900473ffffffffffffffffffffffffffffffffffffffff1673ffffffffffffffffffffffffffffffffffffffff1663182df0f56040518163ffffffff1660e01b815260040160206040518083038186803b1580156126f857600080fd5b505afa15801561270c573d6000803e3d6000fd5b505050506040513d601f19601f820116820180604052506127309190810190614dde565b849063ffffffff61399a16565b6000610f2461274a6135f1565b8484613704565b61275961229b565b61278f576040517f08c379a00000000000000000000000000000000000000000000000000000000081526004016110f890615a83565b6040517fa9059cbb00000000000000000000000000000000000000000000000000000000815273ffffffffffffffffffffffffffffffffffffffff83169063a9059cbb906127e390339085906004016158cf565b602060405180830381600087803b1580156127fd57600080fd5b505af1158015612811573d6000803e3d6000fd5b505050506040513d601f19601f820116820180604052506128359190810190614cf8565b505050565b601f5473ffffffffffffffffffffffffffffffffffffffff1681565b600c546040517f70a0823100000000000000000000000000000000000000000000000000000000815260009173ffffffffffffffffffffffffffffffffffffffff16906370a0823190610f859030906004016158c1565b60068054600101908190556128c133613b31565b156128f8576040517f08c379a00000000000000000000000000000000000000000000000000000000081526004016110f890615a93565b60008211612932576040517f08c379a00000000000000000000000000000000000000000000000000000000081526004016110f890615b03565b601b546040517f70a0823100000000000000000000000000000000000000000000000000000000815260009173ffffffffffffffffffffffffffffffffffffffff16906370a08231906129899033906004016158c1565b60206040518083038186803b1580156129a157600080fd5b505afa1580156129b5573d6000803e3d6000fd5b505050506040513d601f19601f820116820180604052506129d99190810190614dde565b601b54601854601954601654939450600093612a149373ffffffffffffffffffffffffffffffffffffffff908116938116928116911661320f565b90506000612a3a68056bc75e2d63100000611170601e548861399a90919063ffffffff16565b90506000612a4e828463ffffffff6139ee16565b905080841015612a8a576040517f08c379a00000000000000000000000000000000000000000000000000000000081526004016110f890615ac3565b612a92611ec0565b600b55600c54612ac09073ffffffffffffffffffffffffffffffffffffffff1633308963ffffffff6138d516565b3360009081526014602090815260408083204390556015909152902054612aed908763ffffffff613ce316565b33600090815260156020526040812091909155600b54612b135750600b86905585612b31565b612b2e600b546111706002548a61399a90919063ffffffff16565b90505b612b39611ec0565b600b55612b463382613a30565b612b4e61200a565b505050505060065481146111d0576040517f08c379a00000000000000000000000000000000000000000000000000000000081526004016110f890615b33565b612b9661229b565b612bcc576040517f08c379a00000000000000000000000000000000000000000000000000000000081526004016110f890615a83565b601680547fffffffffffffffffffffffff00000000000000000000000000000000000000001673ffffffffffffffffffffffffffffffffffffffff92909216919091179055565b6010546040517f70a0823100000000000000000000000000000000000000000000000000000000815260009173ffffffffffffffffffffffffffffffffffffffff16906370a0823190610f859030906004016158c1565b60125481565b600680546001019081905581612cb2576040517f08c379a00000000000000000000000000000000000000000000000000000000081526004016110f890615ab3565b6000612cbd33611e94565b905080831115612cf9576040517f08c379a00000000000000000000000000000000000000000000000000000000081526004016110f890615aa3565b612d01611ec0565b600b819055600254600091612d219190611170908763ffffffff61399a16565b604080518082018252601d81527f72656465656d20616d6f756e7420657863656564732062616c616e6365000000602080830191909152336000908152908190529190912054919250612d7c9190869063ffffffff61388f16565b33600090815260208190526040902055600254612d9f908563ffffffff613b3716565b60025560405160009033907fddf252ad1be2c89b69c2b068fc378daa952ba7f163c4a11628f55a4df523b3ef90612dd7908890615b8e565b60405180910390a3600c546040517f70a0823100000000000000000000000000000000000000000000000000000000815260009173ffffffffffffffffffffffffffffffffffffffff16906370a0823190612e369030906004016158c1565b60206040518083038186803b158015612e4e57600080fd5b505afa158015612e62573d6000803e3d6000fd5b505050506040513d601f19601f82011682018060405250612e869190810190614dde565b601f5490915074010000000000000000000000000000000000000000900460ff1682821015612f1457612eb761249d565b601f5490915074010000000000000000000000000000000000000000900460ff166004811115612ee357fe5b816004811115612eef57fe5b14612f0157612efc61405c565b612f14565b612f14611456848463ffffffff613b3716565b600c54612f3e9073ffffffffffffffffffffffffffffffffffffffff16338563ffffffff6141e116565b601f5474010000000000000000000000000000000000000000900460ff166004811115612f6757fe5b816004811115612f7357fe5b14612f8157612f8181612059565b612f89611ec0565b600b555050600654831491506111d09050576040517f08c379a00000000000000000000000000000000000000000000000000000000081526004016110f890615b33565b73ffffffffffffffffffffffffffffffffffffffff918216600090815260016020908152604080832093909416825291909152205490565b61300d61229b565b613043576040517f08c379a00000000000000000000000000000000000000000000000000000000081526004016110f890615a83565b601e55565b600d546040517fa0712d6800000000000000000000000000000000000000000000000000000000815273ffffffffffffffffffffffffffffffffffffffff9091169063a0712d689061309e908490600401615b8e565b602060405180830381600087803b1580156130b857600080fd5b505af11580156130cc573d6000803e3d6000fd5b505050506040513d601f19601f820116820180604052506130f09190810190614dde565b15611c7f576040517f08c379a00000000000000000000000000000000000000000000000000000000081526004016110f890615a23565b61312f61229b565b613165576040517f08c379a00000000000000000000000000000000000000000000000000000000081526004016110f890615a83565b600892909255600955600a55565b601d5481565b61318161229b565b6131b7576040517f08c379a00000000000000000000000000000000000000000000000000000000081526004016110f890615a83565b601d55565b61196481565b601c5481565b6131d061229b565b613206576040517f08c379a00000000000000000000000000000000000000000000000000000000081526004016110f890615a83565b611c7f8161421c565b6040805160038082526080820190925260009160609190602082018380388339019050509050858160008151811061324357fe5b602002602001019073ffffffffffffffffffffffffffffffffffffffff16908173ffffffffffffffffffffffffffffffffffffffff1681525050848160018151811061328b57fe5b602002602001019073ffffffffffffffffffffffffffffffffffffffff16908173ffffffffffffffffffffffffffffffffffffffff168152505083816002815181106132d357fe5b73ffffffffffffffffffffffffffffffffffffffff92831660209182029290920101526040517fd06ca61f00000000000000000000000000000000000000000000000000000000815260609185169063d06ca61f9061334090670de0b6b3a76400009086906004016159b2565b60006040518083038186803b15801561335857600080fd5b505afa15801561336c573d6000803e3d6000fd5b505050506040513d6000823e601f3d9081017fffffffffffffffffffffffffffffffffffffffffffffffffffffffffffffffe01682016040526133b29190810190614cc3565b9050806002815181106133c157fe5b6020026020010151925050505b949350505050565b60195473ffffffffffffffffffffffffffffffffffffffff1681565b6000806133fd610f2e565b90508015610fd557600e546040517f06b3efd600000000000000000000000000000000000000000000000000000000815273ffffffffffffffffffffffffffffffffffffffff909116906306b3efd69061345b9030906004016158c1565b60206040518083038186803b15801561347357600080fd5b505afa158015613487573d6000803e3d6000fd5b505050506040513d601f19601f82011682018060405250610f289190810190614dde565b600d5473ffffffffffffffffffffffffffffffffffffffff1681565b600f54604080517f0261bf8b000000000000000000000000000000000000000000000000000000008152905160009273ffffffffffffffffffffffffffffffffffffffff1691630261bf8b916004808301926020929190829003018186803b15801561353257600080fd5b505afa158015613546573d6000803e3d6000fd5b505050506040513d601f19601f82011682018060405250610fd59190810190614b8d565b600f54604080517fed6ff760000000000000000000000000000000000000000000000000000000008152905160009273ffffffffffffffffffffffffffffffffffffffff169163ed6ff760916004808301926020929190829003018186803b15801561353257600080fd5b600c5473ffffffffffffffffffffffffffffffffffffffff1681565b3390565b73ffffffffffffffffffffffffffffffffffffffff8316613642576040517f08c379a00000000000000000000000000000000000000000000000000000000081526004016110f890615af3565b73ffffffffffffffffffffffffffffffffffffffff821661368f576040517f08c379a00000000000000000000000000000000000000000000000000000000081526004016110f890615a13565b73ffffffffffffffffffffffffffffffffffffffff80841660008181526001602090815260408083209487168084529490915290819020849055517f8c5be1e5ebec7d5bd14f71427d1e84f3dd0314c0f7b2291e5b200ac8c7c3b925906136f7908590615b8e565b60405180910390a3505050565b73ffffffffffffffffffffffffffffffffffffffff8316613751576040517f08c379a00000000000000000000000000000000000000000000000000000000081526004016110f890615ad3565b73ffffffffffffffffffffffffffffffffffffffff821661379e576040517f08c379a00000000000000000000000000000000000000000000000000000000081526004016110f8906159e3565b6137ee81604051806060016040528060268152602001615e106026913973ffffffffffffffffffffffffffffffffffffffff8616600090815260208190526040902054919063ffffffff61388f16565b73ffffffffffffffffffffffffffffffffffffffff8085166000908152602081905260408082209390935590841681522054613830908263ffffffff613ce316565b73ffffffffffffffffffffffffffffffffffffffff80841660008181526020819052604090819020939093559151908516907fddf252ad1be2c89b69c2b068fc378daa952ba7f163c4a11628f55a4df523b3ef906136f7908590615b8e565b600081848411156138cd576040517f08c379a00000000000000000000000000000000000000000000000000000000081526004016110f891906159d2565b505050900390565b6040516139949085907f23b872dd000000000000000000000000000000000000000000000000000000009061391290879087908790602401615905565b604080517fffffffffffffffffffffffffffffffffffffffffffffffffffffffffffffffe08184030181529190526020810180517bffffffffffffffffffffffffffffffffffffffffffffffffffffffff167fffffffff00000000000000000000000000000000000000000000000000000000909316929092179091526142f7565b50505050565b6000826139a957506000610f28565b828202828482816139b657fe5b0414611093576040517f08c379a00000000000000000000000000000000000000000000000000000000081526004016110f890615a63565b600061109383836040518060400160405280601a81526020017f536166654d6174683a206469766973696f6e206279207a65726f000000000000815250614444565b73ffffffffffffffffffffffffffffffffffffffff8216613a7d576040517f08c379a00000000000000000000000000000000000000000000000000000000081526004016110f890615b63565b600254613a90908263ffffffff613ce316565b60025573ffffffffffffffffffffffffffffffffffffffff8216600090815260208190526040902054613ac9908263ffffffff613ce316565b73ffffffffffffffffffffffffffffffffffffffff83166000818152602081905260408082209390935591519091907fddf252ad1be2c89b69c2b068fc378daa952ba7f163c4a11628f55a4df523b3ef90613b25908590615b8e565b60405180910390a35050565b3b151590565b600061109383836040518060400160405280601e81526020017f536166654d6174683a207375627472616374696f6e206f766572666c6f77000081525061388f565b6002601f5474010000000000000000000000000000000000000000900460ff166004811115613ba457fe5b1415613bb357613bb381614495565b6003601f5474010000000000000000000000000000000000000000900460ff166004811115613bde57fe5b1415613c2e5780613bed612c13565b1015613c25576040517f08c379a00000000000000000000000000000000000000000000000000000000081526004016110f890615ae3565b613c2e8161450d565b6001601f5474010000000000000000000000000000000000000000900460ff166004811115613c5957fe5b1415613ca95780613c68611a63565b1015613ca0576040517f08c379a00000000000000000000000000000000000000000000000000000000081526004016110f890615ae3565b613ca981614563565b6004601f5474010000000000000000000000000000000000000000900460ff166004811115613cd457fe5b1415611c7f57611c7f81614714565b600082820183811015611093576040517f08c379a00000000000000000000000000000000000000000000000000000000081526004016110f890615a33565b601654601754600091613d559173ffffffffffffffffffffffffffffffffffffffff90811691168363ffffffff6140c216565b601654601754613d859173ffffffffffffffffffffffffffffffffffffffff91821691168463ffffffff6140c216565b60408051600280825260608083018452926020830190803883395050601754825192935073ffffffffffffffffffffffffffffffffffffffff1691839150600090613dcc57fe5b73ffffffffffffffffffffffffffffffffffffffff9283166020918202929092010152601854825191169082906001908110613e0457fe5b73ffffffffffffffffffffffffffffffffffffffff9283166020918202929092010152601654606091166318cbafe58560008530613e4a4261070863ffffffff613ce316565b6040518663ffffffff1660e01b8152600401613e6a959493929190615bd8565b600060405180830381600087803b158015613e8457600080fd5b505af1158015613e98573d6000803e3d6000fd5b505050506040513d6000823e601f3d9081017fffffffffffffffffffffffffffffffffffffffffffffffffffffffffffffffe0168201604052613ede9190810190614cc3565b905080600181518110613eed57fe5b602002602001015192505050919050565b60408051600280825260608083018452600093909291906020830190803883395050601854825192935073ffffffffffffffffffffffffffffffffffffffff1691839150600090613f4b57fe5b73ffffffffffffffffffffffffffffffffffffffff9283166020918202929092010152601b54825191169082906001908110613f8357fe5b73ffffffffffffffffffffffffffffffffffffffff928316602091820292909201015260165460609116637ff36ab58560008581613fc94261070863ffffffff613ce316565b6040518663ffffffff1660e01b8152600401613fe89493929190615b9c565b6000604051808303818588803b15801561400157600080fd5b505af1158015614015573d6000803e3d6000fd5b50505050506040513d6000823e601f3d9081017fffffffffffffffffffffffffffffffffffffffffffffffffffffffffffffffe0168201604052613ede9190810190614cc3565b6000614066611ccc565b90508015614077576140778161478c565b61407f611a63565b905080156140905761409081614563565b614098610f2e565b905080156140a9576140a98161486b565b6140b1612c13565b90508015611c7f57611c7f8161450d565b80158061417057506040517fdd62ed3e00000000000000000000000000000000000000000000000000000000815273ffffffffffffffffffffffffffffffffffffffff84169063dd62ed3e9061411e90309086906004016158ea565b60206040518083038186803b15801561413657600080fd5b505afa15801561414a573d6000803e3d6000fd5b505050506040513d601f19601f8201168201806040525061416e9190810190614dde565b155b6141a6576040517f08c379a00000000000000000000000000000000000000000000000000000000081526004016110f890615b43565b6040516128359084907f095ea7b30000000000000000000000000000000000000000000000000000000090613912908690869060240161592d565b6040516128359084907fa9059cbb0000000000000000000000000000000000000000000000000000000090613912908690869060240161592d565b73ffffffffffffffffffffffffffffffffffffffff8116614269576040517f08c379a00000000000000000000000000000000000000000000000000000000081526004016110f890615a03565b60075460405173ffffffffffffffffffffffffffffffffffffffff8084169216907f8be0079c531659141344cd1fd0a4f28419497f9722a3daafe3b4186f6b6457e090600090a3600780547fffffffffffffffffffffffff00000000000000000000000000000000000000001673ffffffffffffffffffffffffffffffffffffffff92909216919091179055565b6143168273ffffffffffffffffffffffffffffffffffffffff1661494d565b61434c576040517f08c379a00000000000000000000000000000000000000000000000000000000081526004016110f890615b53565b600060608373ffffffffffffffffffffffffffffffffffffffff1683604051614375919061589c565b6000604051808303816000865af19150503d80600081146143b2576040519150601f19603f3d011682016040523d82523d6000602084013e6143b7565b606091505b5091509150816143f3576040517f08c379a00000000000000000000000000000000000000000000000000000000081526004016110f890615a53565b805115613994578080602001905161440e9190810190614cf8565b613994576040517f08c379a00000000000000000000000000000000000000000000000000000000081526004016110f890615b23565b6000818361447f576040517f08c379a00000000000000000000000000000000000000000000000000000000081526004016110f891906159d2565b50600083858161448b57fe5b0495945050505050565b600061449f611ccc565b905060006144ab61266e565b9050828110156144e7576040517f08c379a00000000000000000000000000000000000000000000000000000000081526004016110f890615ae3565b6000614502600161147a84611170878963ffffffff61399a16565b90506139948161478c565b6010546040517fdb006a7500000000000000000000000000000000000000000000000000000000815273ffffffffffffffffffffffffffffffffffffffff9091169063db006a7590611d87908490600401615b8e565b604080516001808252818301909252606091816020015b614582614984565b81526020019060019003908161457a57905050905060405180604001604052803073ffffffffffffffffffffffffffffffffffffffff1681526020016000815250816000815181106145d057fe5b60200260200101819052506145e361499b565b60408051608081019091526000808252602082019081526020016000815260200184905290506146116149c4565b600181819052506000602082015260408082018390526012546060808401919091523060a0840152815160018082528184019093529091816020015b6146556149c4565b81526020019060019003908161464d579050509050818160008151811061467857fe5b60209081029190910101526011546040517fa67a6a4500000000000000000000000000000000000000000000000000000000815273ffffffffffffffffffffffffffffffffffffffff9091169063a67a6a45906146db9087908590600401615963565b600060405180830381600087803b1580156146f557600080fd5b505af1158015614709573d6000803e3d6000fd5b505050505050505050565b600061471e610f2e565b9050600061472a6133f2565b905082811015614766576040517f08c379a00000000000000000000000000000000000000000000000000000000081526004016110f890615ae3565b6000614781600161147a84611170878963ffffffff61399a16565b90506139948161486b565b600d546040517fdb006a7500000000000000000000000000000000000000000000000000000000815273ffffffffffffffffffffffffffffffffffffffff9091169063db006a75906147e2908490600401615b8e565b602060405180830381600087803b1580156147fc57600080fd5b505af1158015614810573d6000803e3d6000fd5b505050506040513d601f19601f820116820180604052506148349190810190614dde565b15611c7f576040517f08c379a00000000000000000000000000000000000000000000000000000000081526004016110f8906159f3565b600e546040517f9dc29fac00000000000000000000000000000000000000000000000000000000815260009173ffffffffffffffffffffffffffffffffffffffff1690639dc29fac906148c490309086906004016158cf565b602060405180830381600087803b1580156148de57600080fd5b505af11580156148f2573d6000803e3d6000fd5b505050506040513d601f19601f820116820180604052506149169190810190614dde565b11611c7f576040517f08c379a00000000000000000000000000000000000000000000000000000000081526004016110f890615a73565b6000813f7fc5d2460186f7233c927e7db2dcc703c0e500b653ca82273b7bfad8045d85a47081158015906133ce5750141592915050565b604080518082019091526000808252602082015290565b604080516080810190915260008082526020820190815260200160008152602001600081525090565b6040805161010081018252600080825260208201529081016149e461499b565b81526020016000815260200160008152602001600073ffffffffffffffffffffffffffffffffffffffff16815260200160008152602001606081525090565b8035610f2881615de9565b8051610f2881615de9565b600082601f830112614a4a57600080fd5b8151614a5d614a5882615c60565b615c39565b91508181835260208401935060208101905083856020840282011115614a8257600080fd5b60005b83811015614aae5781614a988882614b64565b8452506020928301929190910190600101614a85565b5050505092915050565b8051610f2881615dfd565b600082601f830112614ad457600080fd5b8151614ae2614a5882615c81565b91508082526020830160208301858383011115614afe57600080fd5b614b09838284615d77565b50505092915050565b600060408284031215614b2457600080fd5b614b2e6040615c39565b90506000614b3c8484614ab8565b8252506020614b4d84848301614b64565b60208301525092915050565b8035610f2881615e06565b8051610f2881615e06565b600060208284031215614b8157600080fd5b60006133ce8484614a23565b600060208284031215614b9f57600080fd5b60006133ce8484614a2e565b60008060408385031215614bbe57600080fd5b6000614bca8585614a23565b9250506020614bdb85828601614a23565b9150509250929050565b60008060008060808587031215614bfb57600080fd5b6000614c078787614a23565b9450506020614c1887828801614a23565b9350506040614c2987828801614a23565b9250506060614c3a87828801614a23565b91505092959194509250565b600080600060608486031215614c5b57600080fd5b6000614c678686614a23565b9350506020614c7886828701614a23565b9250506040614c8986828701614b59565b9150509250925092565b60008060408385031215614ca657600080fd5b6000614cb28585614a23565b9250506020614bdb85828601614b59565b600060208284031215614cd557600080fd5b815167ffffffffffffffff811115614cec57600080fd5b6133ce84828501614a39565b600060208284031215614d0a57600080fd5b60006133ce8484614ab8565b600080600080600060a08688031215614d2e57600080fd5b855167ffffffffffffffff811115614d4557600080fd5b614d5188828901614ac3565b9550506020614d6288828901614b64565b9450506040614d7388828901614b64565b9350506060614d8488828901614b64565b9250506080614d9588828901614b64565b9150509295509295909350565b600060408284031215614db457600080fd5b60006133ce8484614b12565b600060208284031215614dd257600080fd5b60006133ce8484614b59565b600060208284031215614df057600080fd5b60006133ce8484614b64565b600080600060608486031215614e1157600080fd5b6000614e1d8686614b59565b9350506020614c7886828701614b59565b6000614e3a8383614e71565b505060200190565b60006110938383615775565b6000614e5a838361586a565b505060400190565b614e6b81615d2e565b82525050565b614e6b81615cda565b6000614e8582615ccd565b614e8f8185615cd1565b9350614e9a83615cc7565b8060005b83811015614ec8578151614eb28882614e2e565b9750614ebd83615cc7565b925050600101614e9e565b509495945050505050565b6000614ede82615ccd565b614ee88185615cd1565b935083602082028501614efa85615cc7565b8060005b85811015614f345784840389528151614f178582614e42565b9450614f2283615cc7565b60209a909a0199925050600101614efe565b5091979650505050505050565b6000614f4c82615ccd565b614f568185615cd1565b9350614f6183615cc7565b8060005b83811015614ec8578151614f798882614e4e565b9750614f8483615cc7565b925050600101614f65565b614e6b81615ce5565b6000614fa382615ccd565b614fad8185611ebb565b9350614fbd818560208601615d77565b9290920192915050565b6000614fd282615ccd565b614fdc8185615cd1565b9350614fec818560208601615d77565b614ff581615da3565b9093019392505050565b614e6b81615d35565b614e6b81615d40565b614e6b81615d4b565b614e6b81615d56565b614e6b81615d61565b614e6b81615d6c565b6000615042602383615cd1565b7f45524332303a207472616e7366657220746f20746865207a65726f206164647281527f6573730000000000000000000000000000000000000000000000000000000000602082015260400192915050565b60006150a1601983615cd1565b7f434f4d504f554e443a207769746864726177206661696c656400000000000000815260200192915050565b60006150da602683615cd1565b7f4f776e61626c653a206e6577206f776e657220697320746865207a65726f206181527f6464726573730000000000000000000000000000000000000000000000000000602082015260400192915050565b6000615139602283615cd1565b7f45524332303a20617070726f766520746f20746865207a65726f20616464726581527f7373000000000000000000000000000000000000000000000000000000000000602082015260400192915050565b6000615198601783615cd1565b7f434f4d504f554e443a20737570706c79206661696c6564000000000000000000815260200192915050565b60006151d1601b83615cd1565b7f536166654d6174683a206164646974696f6e206f766572666c6f770000000000815260200192915050565b600061520a601c83615cd1565b7f446576207472656173757279207472616e73666572206661696c656400000000815260200192915050565b6000615243602083615cd1565b7f5361666545524332303a206c6f772d6c6576656c2063616c6c206661696c6564815260200192915050565b600061527c602183615cd1565b7f536166654d6174683a206d756c7469706c69636174696f6e206f766572666c6f81527f7700000000000000000000000000000000000000000000000000000000000000602082015260400192915050565b60006152db601883615cd1565b7f46554c4352554d3a207769746864726177206661696c65640000000000000000815260200192915050565b6000615314602083615cd1565b7f4f776e61626c653a2063616c6c6572206973206e6f7420746865206f776e6572815260200192915050565b600061534d603383615cd1565b7f436f6e74726163747320617265206e6f7420616c6c6f77656420746f20696e7481527f6572616374207769746820746865206661726d00000000000000000000000000602082015260400192915050565b60006153ac601483615cd1565b7f696e73756666696369656e742062616c616e6365000000000000000000000000815260200192915050565b60006153e5601f83615cd1565b7f7769746864726177206d7573742062652067726561746572207468616e203000815260200192915050565b600061541e604583615cd1565b7f596f75206d75737420686f6c642061203525206f6620796f7572206465706f7381527f697420696e2059454c4420746f6b656e7320746f2062652061626c6520746f2060208201527f7374616b65000000000000000000000000000000000000000000000000000000604082015260600192915050565b60006154a3602583615cd1565b7f45524332303a207472616e736665722066726f6d20746865207a65726f20616481527f6472657373000000000000000000000000000000000000000000000000000000602082015260400192915050565b6000610f28600083611ebb565b600061550f601283615cd1565b7f696e73756666696369656e742066756e64730000000000000000000000000000815260200192915050565b6000615548602483615cd1565b7f45524332303a20617070726f76652066726f6d20746865207a65726f2061646481527f7265737300000000000000000000000000000000000000000000000000000000602082015260400192915050565b60006155a7601e83615cd1565b7f6465706f736974206d7573742062652067726561746572207468616e20300000815260200192915050565b60006155e0601683615cd1565b7f46554c4352554d3a20737570706c79206661696c656400000000000000000000815260200192915050565b6000615619602a83615cd1565b7f5361666545524332303a204552433230206f7065726174696f6e20646964206e81527f6f74207375636365656400000000000000000000000000000000000000000000602082015260400192915050565b6000615678601f83615cd1565b7f5265656e7472616e637947756172643a207265656e7472616e742063616c6c00815260200192915050565b60006156b1603683615cd1565b7f5361666545524332303a20617070726f76652066726f6d206e6f6e2d7a65726f81527f20746f206e6f6e2d7a65726f20616c6c6f77616e636500000000000000000000602082015260400192915050565b6000615710601f83615cd1565b7f5361666545524332303a2063616c6c20746f206e6f6e2d636f6e747261637400815260200192915050565b6000615749601f83615cd1565b7f45524332303a206d696e7420746f20746865207a65726f206164647265737300815260200192915050565b805160009061016084019061578a8582615008565b50602083015161579d602086018261588a565b5060408301516157b06040860182615820565b5060608301516157c360c086018261588a565b5060808301516157d660e086018261588a565b5060a08301516157ea610100860182614e71565b5060c08301516157fe61012086018261588a565b5060e08301518482036101408601526158178282614fc7565b95945050505050565b805160808301906158318482614f8f565b5060208201516158446020850182615011565b5060408201516158576040850182615011565b506060820151613994606085018261588a565b8051604083019061587b8482614e71565b50602082015161399460208501825b614e6b81610eec565b614e6b81615d28565b60006110938284614f98565b6000610f28826154f5565b60208101610f288284614e71565b60208101610f288284614e62565b604081016158dd8285614e62565b611093602083018461588a565b604081016158f88285614e71565b6110936020830184614e71565b606081016159138286614e71565b6159206020830185614e71565b6133ce604083018461588a565b604081016158dd8285614e71565b606081016159498286614e71565b615956602083018561588a565b6133ce6040830184615023565b604080825281016159748185614f41565b905081810360208301526133ce8184614ed3565b60208101610f288284614f8f565b60208101610f288284614fff565b60208101610f28828461501a565b604081016159c0828561502c565b81810360208301526133ce8184614e7a565b602080825281016110938184614fc7565b60208082528101610f2881615035565b60208082528101610f2881615094565b60208082528101610f28816150cd565b60208082528101610f288161512c565b60208082528101610f288161518b565b60208082528101610f28816151c4565b60208082528101610f28816151fd565b60208082528101610f2881615236565b60208082528101610f288161526f565b60208082528101610f28816152ce565b60208082528101610f2881615307565b60208082528101610f2881615340565b60208082528101610f288161539f565b60208082528101610f28816153d8565b60208082528101610f2881615411565b60208082528101610f2881615496565b60208082528101610f2881615502565b60208082528101610f288161553b565b60208082528101610f288161559a565b60208082528101610f28816155d3565b60208082528101610f288161560c565b60208082528101610f288161566b565b60208082528101610f28816156a4565b60208082528101610f2881615703565b60208082528101610f288161573c565b60608101615b81828561586a565b611093604083018461588a565b60208101610f28828461588a565b60808101615baa828761588a565b8181036020830152615bbc8186614e7a565b9050615bcb6040830185614e62565b615817606083018461588a565b60a08101615be6828861588a565b615bf3602083018761588a565b8181036040830152615c058186614e7a565b9050615c146060830185614e62565b615c21608083018461588a565b9695505050505050565b60208101610f288284615893565b60405181810167ffffffffffffffff81118282101715615c5857600080fd5b604052919050565b600067ffffffffffffffff821115615c7757600080fd5b5060209081020190565b600067ffffffffffffffff821115615c9857600080fd5b506020601f919091017fffffffffffffffffffffffffffffffffffffffffffffffffffffffffffffffe0160190565b60200190565b5190565b90815260200190565b6000610f2882615d0f565b151590565b80611ebb81615dcb565b80611ebb81615dd5565b80611ebb81615ddf565b61ffff1690565b73ffffffffffffffffffffffffffffffffffffffff1690565b60ff1690565b6000610f28825b6000610f2882615cda565b6000610f2882615cea565b6000610f2882615cf4565b6000610f2882615cfe565b6000610f2882615d08565b6000610f2882610eec565b60005b83811015615d92578181015183820152602001615d7a565b838111156139945750506000910152565b601f017fffffffffffffffffffffffffffffffffffffffffffffffffffffffffffffffe01690565b60028110611c7f57fe5b60018110611c7f57fe5b60058110611c7f57fe5b615df281615cda565b8114611c7f57600080fd5b615df281615ce5565b615df281610eec56fe45524332303a207472616e7366657220616d6f756e7420657863656564732062616c616e636545524332303a207472616e7366657220616d6f756e74206578636565647320616c6c6f77616e636545524332303a2064656372656173656420616c6c6f77616e63652062656c6f77207a65726fa365627a7a723158206af62f2a04c9e351a7c82ba0d2851a845cc9705a2053c1cb503d5808d905930a6c6578706572696d656e74616cf564736f6c63430005110040",
  "source": "pragma solidity 0.5.17;\npragma experimental ABIEncoderV2;\n\nimport './ContractImports.sol';\nimport './CommonFunctionality.sol';\n\ncontract yUSDC is ERC20, ERC20Detailed, ReentrancyGuard, Structs, Ownable, CommonFunctionality {\n  using SafeERC20 for IERC20;\n  using Address for address;\n  using SafeMath for uint256;\n\n  uint256 public pool;\n  address public token;\n  address public compound;\n  address public fulcrum;\n  address public aave;\n  address public aaveToken;\n  address public dydx;\n  uint256 public dToken;\n  address public apr;\n\n  // Yeld\n  mapping(address => uint256) public depositBlockStarts;\n  mapping(address => uint256) public depositAmount;\n  address public uniswapRouter = 0x7a250d5630B4cF539739dF2C5dAcb4c659F2488D;\n  address public usdc = 0xA0b86991c6218b36c1d19D4a2e9Eb0cE3606eB48;\n  address public weth = 0xC02aaA39b223FE8D0A0e5C4F27eAD9083C756Cc2;\n  address public dai = 0x6B175474E89094C44Da98b954EedeAC495271d0F;\n  address payable public retirementYeldTreasury;\n  IERC20 public yeldToken;\n  uint256 public maximumTokensToBurn = 50000 * 1e18;\n  uint256 public constant oneDayInBlocks = 6500;\n  uint256 public yeldToRewardPerDay = 0e18; // 100 YELD per day per 1 million stablecoins padded with 18 zeroes to have that flexibility\n  uint256 public constant oneMillion = 1e6;\n  uint256 public holdPercentage = 5e18;\n  address public devTreasury;\n  // Yeld\n\n  enum Lender {\n      NONE,\n      DYDX,\n      COMPOUND,\n      AAVE,\n      FULCRUM\n  }\n\n  Lender public provider = Lender.NONE;\n\n  constructor (address _yeldToken, address payable _retirementYeldTreasury, address _devTreasury) public ERC20Detailed(\"yeld USDC\", \"yUSDC\", 6) {\n    token = address(0xA0b86991c6218b36c1d19D4a2e9Eb0cE3606eB48);\n    apr = address(0xdD6d648C991f7d47454354f4Ef326b04025a48A8);\n    dydx = address(0x1E0447b19BB6EcFdAe1e4AE1694b0C3659614e4e);\n    aave = address(0x24a42fD28C976A61Df5D00D0599C34c4f90748c8);\n    fulcrum = address(0xF013406A0B1d544238083DF0B93ad0d2cBE0f65f);\n    aaveToken = address(0x9bA00D6856a4eDF4665BcA2C2309936572473B7E);\n    compound = address(0x39AA39c021dfbaE8faC545936693aC917d5E7563);\n    dToken = 2;\n    yeldToken = IERC20(_yeldToken);\n    retirementYeldTreasury = _retirementYeldTreasury;\n    devTreasury = _devTreasury;\n    approveToken();\n  }\n\n  // Yeld\n  // To receive ETH after converting it from USDC\n  function () external payable {}\n  function setRetirementYeldTreasury(address payable _treasury) public onlyOwner {\n    retirementYeldTreasury = _treasury;\n  }\n  // In case a new uniswap router version is released\n  function setUniswapRouter(address _uniswapRouter) public onlyOwner {\n    uniswapRouter = _uniswapRouter;\n  }\n  function setYeldToken(address _yeldToken) public onlyOwner {\n    yeldToken = IERC20(_yeldToken);\n  }\n  function extractTokensIfStuck(address _token, uint256 _amount) public onlyOwner {\n    IERC20(_token).transfer(msg.sender, _amount);\n  }\n  function extractETHIfStuck() public onlyOwner {\n    owner().transfer(address(this).balance);\n  }\n  function changeYeldToRewardPerDay(uint256 _amount) public onlyOwner {\n    yeldToRewardPerDay = _amount;\n  }\n  function getGeneratedYelds() public view returns(uint256) {\n    uint256 blocksPassed;\n    if (depositBlockStarts[msg.sender] > 0) {\n      blocksPassed = block.number.sub(depositBlockStarts[msg.sender]);\n    } else {\n      return 0;\n    }\n    uint256 generatedYelds = depositAmount[msg.sender].mul(1e12).div(oneMillion).mul(yeldToRewardPerDay).div(1e18).mul(blocksPassed).div(oneDayInBlocks);\n    return generatedYelds;\n  }\n  // Converts USDC to ETH and returns how much ETH has been received from Uniswap\n  function usdcToETH(uint256 _amount) internal returns(uint256) {\n      IERC20(usdc).safeApprove(uniswapRouter, 0);\n      IERC20(usdc).safeApprove(uniswapRouter, _amount);\n      address[] memory path = new address[](2);\n      path[0] = usdc;\n      path[1] = weth;\n      // swapExactTokensForETH(uint amountIn, uint amountOutMin, address[] calldata path, address to, uint deadline)\n      // 'amounts' is an array where [0] is input USDC amount and [1] is the resulting ETH after the conversion\n      // even tho we've specified the WETH address, we'll receive ETH since that's how it works on uniswap\n      // https://uniswap.org/docs/v2/smart-contracts/router02/#swapexacttokensforeth\n      uint[] memory amounts = IUniswap(uniswapRouter).swapExactTokensForETH(_amount, uint(0), path, address(this), now.add(1800));\n      return amounts[1];\n  }\n  function buyNBurn(uint256 _ethToSwap) internal returns(uint256) {\n    address[] memory path = new address[](2);\n    path[0] = weth;\n    path[1] = address(yeldToken);\n    // Burns the tokens by taking them out of circulation, sending them to the 0x0 address\n    uint[] memory amounts = IUniswap(uniswapRouter).swapExactETHForTokens.value(_ethToSwap)(uint(0), path, address(0), now.add(1800));\n    return amounts[1];\n  }\n  // Yeld\n  function setHoldPercentage(uint256 _holdPercentage) public onlyOwner {\n    holdPercentage = _holdPercentage;\n  }\n\n  // Quick swap low gas method for pool swaps\n  function deposit(uint256 _amount)\n      external\n      nonReentrant\n      noContract\n  {\n      require(_amount > 0, \"deposit must be greater than 0\");\n      uint256 yeldHold = yeldToken.balanceOf(msg.sender);\n      uint256 yeldPriceInDai = getYeldPriceInDai(address(yeldToken), weth, dai, uniswapRouter);\n      uint256 amountPercentage = _amount.mul(holdPercentage).div(1e20);\n      uint256 yeldRequirement = amountPercentage.div(yeldPriceInDai);\n      require(yeldHold >= yeldRequirement, 'You must hold a 5% of your deposit in YELD tokens to be able to stake');\n\n      pool = _calcPoolValueInToken();\n\n      IERC20(token).safeTransferFrom(msg.sender, address(this), _amount);\n\n      // Yeld\n      depositBlockStarts[msg.sender] = block.number;\n      depositAmount[msg.sender] = depositAmount[msg.sender].add(_amount);\n      // Yeld\n      \n      // Calculate pool shares\n      uint256 shares = 0;\n      if (pool == 0) {\n        shares = _amount;\n        pool = _amount;\n      } else {\n        shares = (_amount.mul(_totalSupply)).div(pool);\n      }\n      pool = _calcPoolValueInToken();\n      _mint(msg.sender, shares);\n      rebalance();\n  }\n\n  // No rebalance implementation for lower fees and faster swaps\n  function withdraw(uint256 _shares)\n      external\n      nonReentrant\n      noContract\n  {\n      require(_shares > 0, \"withdraw must be greater than 0\");\n      uint256 ibalance = balanceOf(msg.sender);\n      require(_shares <= ibalance, \"insufficient balance\");\n      // Could have over value from cTokens\n      pool = _calcPoolValueInToken();\n      // Yeld\n      uint256 generatedYelds = getGeneratedYelds();\n      // Yeld\n      uint256 stablecoinsToWithdraw = (pool.mul(_shares)).div(_totalSupply);\n      _balances[msg.sender] = _balances[msg.sender].sub(_shares, \"redeem amount exceeds balance\");\n      _totalSupply = _totalSupply.sub(_shares);\n      emit Transfer(msg.sender, address(0), _shares);\n      uint256 b = IERC20(token).balanceOf(address(this));\n      if (b < stablecoinsToWithdraw) {\n        _withdrawSome(stablecoinsToWithdraw.sub(b));\n      }\n\n\n      // Yeld\n      // Take 1% of the amount to withdraw\n      uint256 totalPercentage = percentageRetirementYield.add(percentageDevTreasury).add(percentageBuyBurn);\n      uint256 combined = stablecoinsToWithdraw.mul(totalPercentage).div(1e20);\n      depositBlockStarts[msg.sender] = block.number;\n      depositAmount[msg.sender] = depositAmount[msg.sender].sub(stablecoinsToWithdraw);\n      yeldToken.transfer(msg.sender, generatedYelds);\n      // Take a portion of the profits for the buy and burn and retirement yeld\n      // Convert half the USDC earned into ETH for the protocol algorithms\n      uint256 stakingProfits = usdcToETH(combined);\n      uint256 tokensAlreadyBurned = yeldToken.balanceOf(address(0));\n      uint256 devTreasuryAmount = stakingProfits.mul(uint256(100e18).mul(percentageDevTreasury).div(totalPercentage)).div(100e18);\n      if (tokensAlreadyBurned < maximumTokensToBurn) {\n        uint256 ethToSwap = stakingProfits.mul(uint256(100e18).mul(percentageBuyBurn).div(totalPercentage)).div(100e18);\n        buyNBurn(ethToSwap);\n        uint256 retirementYeld = stakingProfits.mul(uint256(100e18).mul(percentageRetirementYield).div(totalPercentage)).div(100e18);\n        retirementYeldTreasury.transfer(retirementYeld);\n      } else {\n        uint256 retirementYeld = stakingProfits.sub(devTreasuryAmount);\n        retirementYeldTreasury.transfer(retirementYeld);\n      }\n      (bool success, ) = devTreasury.call.value(devTreasuryAmount)(\"\");\n      require(success, \"Dev treasury transfer failed\");\n      IERC20(token).transfer(msg.sender, stablecoinsToWithdraw.sub(combined));\n      // Yeld\n\n      pool = _calcPoolValueInToken();\n      rebalance();\n  }\n\n  function recommend() public view returns (Lender) {\n    (,uint256 capr,uint256 iapr,uint256 aapr,uint256 dapr) = IIEarnManager(apr).recommend(token);\n    uint256 max = 0;\n    if (capr > max) {\n      max = capr;\n    }\n    if (iapr > max) {\n      max = iapr;\n    }\n    if (aapr > max) {\n      max = aapr;\n    }\n    if (dapr > max) {\n      max = dapr;\n    }\n\n    Lender newProvider = Lender.NONE;\n    if (max == capr) {\n      newProvider = Lender.COMPOUND;\n    } else if (max == iapr) {\n      newProvider = Lender.FULCRUM;\n    } else if (max == aapr) {\n      newProvider = Lender.AAVE;\n    } else if (max == dapr) {\n      newProvider = Lender.DYDX;\n    }\n    return newProvider;\n  }\n\n  function supplyDydx(uint256 amount) public returns(uint) {\n      Info[] memory infos = new Info[](1);\n      infos[0] = Info(address(this), 0);\n\n      AssetAmount memory amt = AssetAmount(true, AssetDenomination.Wei, AssetReference.Delta, amount);\n      ActionArgs memory act;\n      act.actionType = ActionType.Deposit;\n      act.accountId = 0;\n      act.amount = amt;\n      act.primaryMarketId = dToken;\n      act.otherAddress = address(this);\n\n      ActionArgs[] memory args = new ActionArgs[](1);\n      args[0] = act;\n\n      DyDx(dydx).operate(infos, args);\n  }\n\n  function _withdrawDydx(uint256 amount) internal {\n      Info[] memory infos = new Info[](1);\n      infos[0] = Info(address(this), 0);\n\n      AssetAmount memory amt = AssetAmount(false, AssetDenomination.Wei, AssetReference.Delta, amount);\n      ActionArgs memory act;\n      act.actionType = ActionType.Withdraw;\n      act.accountId = 0;\n      act.amount = amt;\n      act.primaryMarketId = dToken;\n      act.otherAddress = address(this);\n\n      ActionArgs[] memory args = new ActionArgs[](1);\n      args[0] = act;\n\n      DyDx(dydx).operate(infos, args);\n  }\n\n  function getAave() public view returns (address) {\n    return LendingPoolAddressesProvider(aave).getLendingPool();\n  }\n  function getAaveCore() public view returns (address) {\n    return LendingPoolAddressesProvider(aave).getLendingPoolCore();\n  }\n\n  function approveToken() public {\n      IERC20(token).safeApprove(compound, uint(-1)); //also add to constructor\n      IERC20(token).safeApprove(dydx, uint(-1));\n      IERC20(token).safeApprove(getAaveCore(), uint(-1));\n      IERC20(token).safeApprove(fulcrum, uint(-1));\n  }\n\n  function balance() public view returns (uint256) {\n    return IERC20(token).balanceOf(address(this));\n  }\n\n  function balanceDydx() public view returns (uint256) {\n      Wei memory bal = DyDx(dydx).getAccountWei(Info(address(this), 0), dToken);\n      return bal.value;\n  }\n  function balanceCompound() public view returns (uint256) {\n      return IERC20(compound).balanceOf(address(this));\n  }\n  function balanceCompoundInToken() public view returns (uint256) {\n    // Mantisa 1e18 to decimals\n    uint256 b = balanceCompound();\n    if (b > 0) {\n      b = b.mul(Compound(compound).exchangeRateStored()).div(1e18);\n    }\n    return b;\n  }\n  function balanceFulcrumInToken() public view returns (uint256) {\n    uint256 b = balanceFulcrum();\n    if (b > 0) {\n      b = Fulcrum(fulcrum).assetBalanceOf(address(this));\n    }\n    return b;\n  }\n  function balanceFulcrum() public view returns (uint256) {\n    return IERC20(fulcrum).balanceOf(address(this));\n  }\n  function balanceAave() public view returns (uint256) {\n    return IERC20(aaveToken).balanceOf(address(this));\n  }\n\n  function _balance() internal view returns (uint256) {\n    return IERC20(token).balanceOf(address(this));\n  }\n\n  function _balanceDydx() internal view returns (uint256) {\n      Wei memory bal = DyDx(dydx).getAccountWei(Info(address(this), 0), dToken);\n      return bal.value;\n  }\n  function _balanceCompound() internal view returns (uint256) {\n      return IERC20(compound).balanceOf(address(this));\n  }\n  function _balanceCompoundInToken() internal view returns (uint256) {\n    // Mantisa 1e18 to decimals\n    uint256 b = balanceCompound();\n    if (b > 0) {\n      b = b.mul(Compound(compound).exchangeRateStored()).div(1e18);\n    }\n    return b;\n  }\n  function _balanceFulcrumInToken() internal view returns (uint256) {\n    uint256 b = balanceFulcrum();\n    if (b > 0) {\n      b = Fulcrum(fulcrum).assetBalanceOf(address(this));\n    }\n    return b;\n  }\n  function _balanceFulcrum() internal view returns (uint256) {\n    return IERC20(fulcrum).balanceOf(address(this));\n  }\n  function _balanceAave() internal view returns (uint256) {\n    return IERC20(aaveToken).balanceOf(address(this));\n  }\n\n  function _withdrawAll() internal {\n    uint256 amount = _balanceCompound();\n    if (amount > 0) {\n      _withdrawCompound(amount);\n    }\n    amount = _balanceDydx();\n    if (amount > 0) {\n      _withdrawDydx(amount);\n    }\n    amount = _balanceFulcrum();\n    if (amount > 0) {\n      _withdrawFulcrum(amount);\n    }\n    amount = _balanceAave();\n    if (amount > 0) {\n      _withdrawAave(amount);\n    }\n  }\n\n  function _withdrawSomeCompound(uint256 _amount) internal {\n    uint256 b = balanceCompound();\n    uint256 bT = balanceCompoundInToken();\n    require(bT >= _amount, \"insufficient funds\");\n    // can have unintentional rounding errors\n    uint256 amount = (b.mul(_amount)).div(bT).add(1);\n    _withdrawCompound(amount);\n  }\n\n  // 1999999614570950845\n  function _withdrawSomeFulcrum(uint256 _amount) internal {\n    // Balance of fulcrum tokens, 1 iDAI = 1.00x DAI\n    uint256 b = balanceFulcrum(); // 1970469086655766652\n    // Balance of token in fulcrum\n    uint256 bT = balanceFulcrumInToken(); // 2000000803224344406\n    require(bT >= _amount, \"insufficient funds\");\n    // can have unintentional rounding errors\n    uint256 amount = (b.mul(_amount)).div(bT).add(1);\n    _withdrawFulcrum(amount);\n  }\n\n  function _withdrawSome(uint256 _amount) internal {\n    if (provider == Lender.COMPOUND) {\n      _withdrawSomeCompound(_amount);\n    }\n    if (provider == Lender.AAVE) {\n      require(balanceAave() >= _amount, \"insufficient funds\");\n      _withdrawAave(_amount);\n    }\n    if (provider == Lender.DYDX) {\n      require(balanceDydx() >= _amount, \"insufficient funds\");\n      _withdrawDydx(_amount);\n    }\n    if (provider == Lender.FULCRUM) {\n      _withdrawSomeFulcrum(_amount);\n    }\n  }\n\n  function rebalance() public {\n    Lender newProvider = recommend();\n\n    if (newProvider != provider) {\n      _withdrawAll();\n    }\n\n    if (balance() > 0) {\n      if (newProvider == Lender.DYDX) {\n        supplyDydx(balance());\n      } else if (newProvider == Lender.FULCRUM) {\n        supplyFulcrum(balance());\n      } else if (newProvider == Lender.COMPOUND) {\n        supplyCompound(balance());\n      } else if (newProvider == Lender.AAVE) {\n        supplyAave(balance());\n      }\n    }\n\n    provider = newProvider;\n  }\n\n  // Internal only rebalance for better gas in redeem\n  function _rebalance(Lender newProvider) internal {\n    if (_balance() > 0) {\n      if (newProvider == Lender.DYDX) {\n        supplyDydx(_balance());\n      } else if (newProvider == Lender.FULCRUM) {\n        supplyFulcrum(_balance());\n      } else if (newProvider == Lender.COMPOUND) {\n        supplyCompound(_balance());\n      } else if (newProvider == Lender.AAVE) {\n        supplyAave(_balance());\n      }\n    }\n    provider = newProvider;\n  }\n\n  function supplyAave(uint amount) public {\n      Aave(getAave()).deposit(token, amount, 0);\n  }\n  function supplyFulcrum(uint amount) public {\n      require(Fulcrum(fulcrum).mint(address(this), amount) > 0, \"FULCRUM: supply failed\");\n  }\n  function supplyCompound(uint amount) public {\n      require(Compound(compound).mint(amount) == 0, \"COMPOUND: supply failed\");\n  }\n  function _withdrawAave(uint amount) internal {\n      AToken(aaveToken).redeem(amount);\n  }\n  function _withdrawFulcrum(uint amount) internal {\n      require(Fulcrum(fulcrum).burn(address(this), amount) > 0, \"FULCRUM: withdraw failed\");\n  }\n  function _withdrawCompound(uint amount) internal {\n      require(Compound(compound).redeem(amount) == 0, \"COMPOUND: withdraw failed\");\n  }\n\n  function invest(uint256 _amount)\n      external\n      nonReentrant\n  {\n      require(_amount > 0, \"deposit must be greater than 0\");\n      pool = calcPoolValueInToken();\n\n      IERC20(token).safeTransferFrom(msg.sender, address(this), _amount);\n\n      rebalance();\n\n      // Calculate pool shares\n      uint256 shares = 0;\n      if (pool == 0) {\n        shares = _amount;\n        pool = _amount;\n      } else {\n        shares = (_amount.mul(_totalSupply)).div(pool);\n      }\n      pool = calcPoolValueInToken();\n      _mint(msg.sender, shares);\n  }\n\n  function _calcPoolValueInToken() internal view returns (uint) {\n    return _balanceCompoundInToken()\n      .add(_balanceFulcrumInToken())\n      .add(_balanceDydx())\n      .add(_balanceAave())\n      .add(_balance());\n  }\n\n  function calcPoolValueInToken() public view returns (uint) {\n    return balanceCompoundInToken()\n      .add(balanceFulcrumInToken())\n      .add(balanceDydx())\n      .add(balanceAave())\n      .add(balance());\n  }\n\n  function getPricePerFullShare() public view returns (uint) {\n    uint _pool = calcPoolValueInToken();\n    return _pool.mul(1e18).div(_totalSupply);\n  }\n\n  // Redeem any invested tokens from the pool\n  function redeem(uint256 _shares)\n      external\n      nonReentrant\n  {\n      require(_shares > 0, \"withdraw must be greater than 0\");\n\n      uint256 ibalance = balanceOf(msg.sender);\n      require(_shares <= ibalance, \"insufficient balance\");\n\n      // Could have over value from cTokens\n      pool = calcPoolValueInToken();\n      // Calc to redeem before updating balances\n      uint256 r = (pool.mul(_shares)).div(_totalSupply);\n\n\n      _balances[msg.sender] = _balances[msg.sender].sub(_shares, \"redeem amount exceeds balance\");\n      _totalSupply = _totalSupply.sub(_shares);\n\n      emit Transfer(msg.sender, address(0), _shares);\n\n      // Check ETH balance\n      uint256 b = IERC20(token).balanceOf(address(this));\n      Lender newProvider = provider;\n      if (b < r) {\n        newProvider = recommend();\n        if (newProvider != provider) {\n          _withdrawAll();\n        } else {\n          _withdrawSome(r.sub(b));\n        }\n      }\n\n      IERC20(token).safeTransfer(msg.sender, r);\n\n      if (newProvider != provider) {\n        _rebalance(newProvider);\n      }\n      pool = calcPoolValueInToken();\n  }\n}\n",
  "sourcePath": "C:/Users/merun/Desktop/yeld-contracts/contracts/yUSDC.sol",
  "compiler": {
    "name": "solc",
    "version": "0.5.17+commit.d19bba13.Emscripten.clang"
  },
  "schemaVersion": "3.2.2",
  "updatedAt": "2021-01-17T21:33:01.883Z",
  "devdoc": {
    "methods": {}
  },
  "userdoc": {
    "methods": {}
  }
}