{
  "contractName": "yUSDC",
  "abi": [
    {
      "inputs": [
        {
          "internalType": "address",
          "name": "_yeldToken",
          "type": "address"
        },
        {
          "internalType": "address payable",
          "name": "_retirementYeldTreasury",
          "type": "address"
        },
        {
          "internalType": "address",
          "name": "_devTreasury",
          "type": "address"
        }
      ],
      "payable": false,
      "stateMutability": "nonpayable",
      "type": "constructor"
    },
    {
      "anonymous": false,
      "inputs": [
        {
          "indexed": true,
          "internalType": "address",
          "name": "owner",
          "type": "address"
        },
        {
          "indexed": true,
          "internalType": "address",
          "name": "spender",
          "type": "address"
        },
        {
          "indexed": false,
          "internalType": "uint256",
          "name": "value",
          "type": "uint256"
        }
      ],
      "name": "Approval",
      "type": "event"
    },
    {
      "anonymous": false,
      "inputs": [
        {
          "indexed": true,
          "internalType": "address",
          "name": "previousOwner",
          "type": "address"
        },
        {
          "indexed": true,
          "internalType": "address",
          "name": "newOwner",
          "type": "address"
        }
      ],
      "name": "OwnershipTransferred",
      "type": "event"
    },
    {
      "anonymous": false,
      "inputs": [
        {
          "indexed": true,
          "internalType": "address",
          "name": "from",
          "type": "address"
        },
        {
          "indexed": true,
          "internalType": "address",
          "name": "to",
          "type": "address"
        },
        {
          "indexed": false,
          "internalType": "uint256",
          "name": "value",
          "type": "uint256"
        }
      ],
      "name": "Transfer",
      "type": "event"
    },
    {
      "payable": true,
      "stateMutability": "payable",
      "type": "fallback"
    },
    {
      "constant": true,
      "inputs": [],
      "name": "aave",
      "outputs": [
        {
          "internalType": "address",
          "name": "",
          "type": "address"
        }
      ],
      "payable": false,
      "stateMutability": "view",
      "type": "function"
    },
    {
      "constant": true,
      "inputs": [],
      "name": "aaveToken",
      "outputs": [
        {
          "internalType": "address",
          "name": "",
          "type": "address"
        }
      ],
      "payable": false,
      "stateMutability": "view",
      "type": "function"
    },
    {
      "constant": true,
      "inputs": [
        {
          "internalType": "address",
          "name": "owner",
          "type": "address"
        },
        {
          "internalType": "address",
          "name": "spender",
          "type": "address"
        }
      ],
      "name": "allowance",
      "outputs": [
        {
          "internalType": "uint256",
          "name": "",
          "type": "uint256"
        }
      ],
      "payable": false,
      "stateMutability": "view",
      "type": "function"
    },
    {
      "constant": false,
      "inputs": [
        {
          "internalType": "address",
          "name": "spender",
          "type": "address"
        },
        {
          "internalType": "uint256",
          "name": "amount",
          "type": "uint256"
        }
      ],
      "name": "approve",
      "outputs": [
        {
          "internalType": "bool",
          "name": "",
          "type": "bool"
        }
      ],
      "payable": false,
      "stateMutability": "nonpayable",
      "type": "function"
    },
    {
      "constant": true,
      "inputs": [],
      "name": "apr",
      "outputs": [
        {
          "internalType": "address",
          "name": "",
          "type": "address"
        }
      ],
      "payable": false,
      "stateMutability": "view",
      "type": "function"
    },
    {
      "constant": true,
      "inputs": [
        {
          "internalType": "address",
          "name": "account",
          "type": "address"
        }
      ],
      "name": "balanceOf",
      "outputs": [
        {
          "internalType": "uint256",
          "name": "",
          "type": "uint256"
        }
      ],
      "payable": false,
      "stateMutability": "view",
      "type": "function"
    },
    {
      "constant": true,
      "inputs": [],
      "name": "compound",
      "outputs": [
        {
          "internalType": "address",
          "name": "",
          "type": "address"
        }
      ],
      "payable": false,
      "stateMutability": "view",
      "type": "function"
    },
    {
      "constant": true,
      "inputs": [],
      "name": "dToken",
      "outputs": [
        {
          "internalType": "uint256",
          "name": "",
          "type": "uint256"
        }
      ],
      "payable": false,
      "stateMutability": "view",
      "type": "function"
    },
    {
      "constant": true,
      "inputs": [],
      "name": "dai",
      "outputs": [
        {
          "internalType": "address",
          "name": "",
          "type": "address"
        }
      ],
      "payable": false,
      "stateMutability": "view",
      "type": "function"
    },
    {
      "constant": true,
      "inputs": [],
      "name": "decimals",
      "outputs": [
        {
          "internalType": "uint8",
          "name": "",
          "type": "uint8"
        }
      ],
      "payable": false,
      "stateMutability": "view",
      "type": "function"
    },
    {
      "constant": false,
      "inputs": [
        {
          "internalType": "address",
          "name": "spender",
          "type": "address"
        },
        {
          "internalType": "uint256",
          "name": "subtractedValue",
          "type": "uint256"
        }
      ],
      "name": "decreaseAllowance",
      "outputs": [
        {
          "internalType": "bool",
          "name": "",
          "type": "bool"
        }
      ],
      "payable": false,
      "stateMutability": "nonpayable",
      "type": "function"
    },
    {
      "constant": true,
      "inputs": [
        {
          "internalType": "address",
          "name": "",
          "type": "address"
        }
      ],
      "name": "depositAmount",
      "outputs": [
        {
          "internalType": "uint256",
          "name": "",
          "type": "uint256"
        }
      ],
      "payable": false,
      "stateMutability": "view",
      "type": "function"
    },
    {
      "constant": true,
      "inputs": [
        {
          "internalType": "address",
          "name": "",
          "type": "address"
        }
      ],
      "name": "depositBlockStarts",
      "outputs": [
        {
          "internalType": "uint256",
          "name": "",
          "type": "uint256"
        }
      ],
      "payable": false,
      "stateMutability": "view",
      "type": "function"
    },
    {
      "constant": true,
      "inputs": [],
      "name": "devTreasury",
      "outputs": [
        {
          "internalType": "address",
          "name": "",
          "type": "address"
        }
      ],
      "payable": false,
      "stateMutability": "view",
      "type": "function"
    },
    {
      "constant": true,
      "inputs": [],
      "name": "dydx",
      "outputs": [
        {
          "internalType": "address",
          "name": "",
          "type": "address"
        }
      ],
      "payable": false,
      "stateMutability": "view",
      "type": "function"
    },
    {
      "constant": true,
      "inputs": [],
      "name": "fulcrum",
      "outputs": [
        {
          "internalType": "address",
          "name": "",
          "type": "address"
        }
      ],
      "payable": false,
      "stateMutability": "view",
      "type": "function"
    },
    {
      "constant": true,
      "inputs": [
        {
          "internalType": "address",
          "name": "_yeld",
          "type": "address"
        },
        {
          "internalType": "address",
          "name": "_weth",
          "type": "address"
        },
        {
          "internalType": "address",
          "name": "_dai",
          "type": "address"
        },
        {
          "internalType": "address",
          "name": "_uniswap",
          "type": "address"
        }
      ],
      "name": "getYeldPriceInDai",
      "outputs": [
        {
          "internalType": "uint256",
          "name": "",
          "type": "uint256"
        }
      ],
      "payable": false,
      "stateMutability": "view",
      "type": "function"
    },
    {
      "constant": true,
      "inputs": [],
      "name": "holdPercentage",
      "outputs": [
        {
          "internalType": "uint256",
          "name": "",
          "type": "uint256"
        }
      ],
      "payable": false,
      "stateMutability": "view",
      "type": "function"
    },
    {
      "constant": false,
      "inputs": [
        {
          "internalType": "address",
          "name": "spender",
          "type": "address"
        },
        {
          "internalType": "uint256",
          "name": "addedValue",
          "type": "uint256"
        }
      ],
      "name": "increaseAllowance",
      "outputs": [
        {
          "internalType": "bool",
          "name": "",
          "type": "bool"
        }
      ],
      "payable": false,
      "stateMutability": "nonpayable",
      "type": "function"
    },
    {
      "constant": true,
      "inputs": [],
      "name": "isOwner",
      "outputs": [
        {
          "internalType": "bool",
          "name": "",
          "type": "bool"
        }
      ],
      "payable": false,
      "stateMutability": "view",
      "type": "function"
    },
    {
      "constant": true,
      "inputs": [],
      "name": "maximumTokensToBurn",
      "outputs": [
        {
          "internalType": "uint256",
          "name": "",
          "type": "uint256"
        }
      ],
      "payable": false,
      "stateMutability": "view",
      "type": "function"
    },
    {
      "constant": true,
      "inputs": [],
      "name": "name",
      "outputs": [
        {
          "internalType": "string",
          "name": "",
          "type": "string"
        }
      ],
      "payable": false,
      "stateMutability": "view",
      "type": "function"
    },
    {
      "constant": true,
      "inputs": [],
      "name": "oneDayInBlocks",
      "outputs": [
        {
          "internalType": "uint256",
          "name": "",
          "type": "uint256"
        }
      ],
      "payable": false,
      "stateMutability": "view",
      "type": "function"
    },
    {
      "constant": true,
      "inputs": [],
      "name": "oneMillion",
      "outputs": [
        {
          "internalType": "uint256",
          "name": "",
          "type": "uint256"
        }
      ],
      "payable": false,
      "stateMutability": "view",
      "type": "function"
    },
    {
      "constant": true,
      "inputs": [],
      "name": "owner",
      "outputs": [
        {
          "internalType": "address payable",
          "name": "",
          "type": "address"
        }
      ],
      "payable": false,
      "stateMutability": "view",
      "type": "function"
    },
    {
      "constant": true,
      "inputs": [],
      "name": "percentageBuyBurn",
      "outputs": [
        {
          "internalType": "uint256",
          "name": "",
          "type": "uint256"
        }
      ],
      "payable": false,
      "stateMutability": "view",
      "type": "function"
    },
    {
      "constant": true,
      "inputs": [],
      "name": "percentageDevTreasury",
      "outputs": [
        {
          "internalType": "uint256",
          "name": "",
          "type": "uint256"
        }
      ],
      "payable": false,
      "stateMutability": "view",
      "type": "function"
    },
    {
      "constant": true,
      "inputs": [],
      "name": "percentageRetirementYield",
      "outputs": [
        {
          "internalType": "uint256",
          "name": "",
          "type": "uint256"
        }
      ],
      "payable": false,
      "stateMutability": "view",
      "type": "function"
    },
    {
      "constant": true,
      "inputs": [],
      "name": "pool",
      "outputs": [
        {
          "internalType": "uint256",
          "name": "",
          "type": "uint256"
        }
      ],
      "payable": false,
      "stateMutability": "view",
      "type": "function"
    },
    {
      "constant": true,
      "inputs": [],
      "name": "provider",
      "outputs": [
        {
          "internalType": "enum yUSDC.Lender",
          "name": "",
          "type": "uint8"
        }
      ],
      "payable": false,
      "stateMutability": "view",
      "type": "function"
    },
    {
      "constant": false,
      "inputs": [],
      "name": "renounceOwnership",
      "outputs": [],
      "payable": false,
      "stateMutability": "nonpayable",
      "type": "function"
    },
    {
      "constant": true,
      "inputs": [],
      "name": "retirementYeldTreasury",
      "outputs": [
        {
          "internalType": "address payable",
          "name": "",
          "type": "address"
        }
      ],
      "payable": false,
      "stateMutability": "view",
      "type": "function"
    },
    {
      "constant": true,
      "inputs": [],
      "name": "symbol",
      "outputs": [
        {
          "internalType": "string",
          "name": "",
          "type": "string"
        }
      ],
      "payable": false,
      "stateMutability": "view",
      "type": "function"
    },
    {
      "constant": true,
      "inputs": [],
      "name": "token",
      "outputs": [
        {
          "internalType": "address",
          "name": "",
          "type": "address"
        }
      ],
      "payable": false,
      "stateMutability": "view",
      "type": "function"
    },
    {
      "constant": true,
      "inputs": [],
      "name": "totalSupply",
      "outputs": [
        {
          "internalType": "uint256",
          "name": "",
          "type": "uint256"
        }
      ],
      "payable": false,
      "stateMutability": "view",
      "type": "function"
    },
    {
      "constant": false,
      "inputs": [
        {
          "internalType": "address",
          "name": "recipient",
          "type": "address"
        },
        {
          "internalType": "uint256",
          "name": "amount",
          "type": "uint256"
        }
      ],
      "name": "transfer",
      "outputs": [
        {
          "internalType": "bool",
          "name": "",
          "type": "bool"
        }
      ],
      "payable": false,
      "stateMutability": "nonpayable",
      "type": "function"
    },
    {
      "constant": false,
      "inputs": [
        {
          "internalType": "address",
          "name": "sender",
          "type": "address"
        },
        {
          "internalType": "address",
          "name": "recipient",
          "type": "address"
        },
        {
          "internalType": "uint256",
          "name": "amount",
          "type": "uint256"
        }
      ],
      "name": "transferFrom",
      "outputs": [
        {
          "internalType": "bool",
          "name": "",
          "type": "bool"
        }
      ],
      "payable": false,
      "stateMutability": "nonpayable",
      "type": "function"
    },
    {
      "constant": false,
      "inputs": [
        {
          "internalType": "address payable",
          "name": "newOwner",
          "type": "address"
        }
      ],
      "name": "transferOwnership",
      "outputs": [],
      "payable": false,
      "stateMutability": "nonpayable",
      "type": "function"
    },
    {
      "constant": true,
      "inputs": [],
      "name": "uniswapRouter",
      "outputs": [
        {
          "internalType": "address",
          "name": "",
          "type": "address"
        }
      ],
      "payable": false,
      "stateMutability": "view",
      "type": "function"
    },
    {
      "constant": false,
      "inputs": [
        {
          "internalType": "uint256",
          "name": "a",
          "type": "uint256"
        },
        {
          "internalType": "uint256",
          "name": "b",
          "type": "uint256"
        },
        {
          "internalType": "uint256",
          "name": "c",
          "type": "uint256"
        }
      ],
      "name": "updatePercentages",
      "outputs": [],
      "payable": false,
      "stateMutability": "nonpayable",
      "type": "function"
    },
    {
      "constant": true,
      "inputs": [],
      "name": "usdc",
      "outputs": [
        {
          "internalType": "address",
          "name": "",
          "type": "address"
        }
      ],
      "payable": false,
      "stateMutability": "view",
      "type": "function"
    },
    {
      "constant": true,
      "inputs": [],
      "name": "weth",
      "outputs": [
        {
          "internalType": "address",
          "name": "",
          "type": "address"
        }
      ],
      "payable": false,
      "stateMutability": "view",
      "type": "function"
    },
    {
      "constant": true,
      "inputs": [],
      "name": "yeldToRewardPerDay",
      "outputs": [
        {
          "internalType": "uint256",
          "name": "",
          "type": "uint256"
        }
      ],
      "payable": false,
      "stateMutability": "view",
      "type": "function"
    },
    {
      "constant": true,
      "inputs": [],
      "name": "yeldToken",
      "outputs": [
        {
          "internalType": "contract IERC20",
          "name": "",
          "type": "address"
        }
      ],
      "payable": false,
      "stateMutability": "view",
      "type": "function"
    },
    {
      "constant": false,
      "inputs": [
        {
          "internalType": "address payable",
          "name": "_treasury",
          "type": "address"
        }
      ],
      "name": "setRetirementYeldTreasury",
      "outputs": [],
      "payable": false,
      "stateMutability": "nonpayable",
      "type": "function"
    },
    {
      "constant": false,
      "inputs": [
        {
          "internalType": "address",
          "name": "_uniswapRouter",
          "type": "address"
        }
      ],
      "name": "setUniswapRouter",
      "outputs": [],
      "payable": false,
      "stateMutability": "nonpayable",
      "type": "function"
    },
    {
      "constant": false,
      "inputs": [
        {
          "internalType": "address",
          "name": "_yeldToken",
          "type": "address"
        }
      ],
      "name": "setYeldToken",
      "outputs": [],
      "payable": false,
      "stateMutability": "nonpayable",
      "type": "function"
    },
    {
      "constant": false,
      "inputs": [
        {
          "internalType": "address",
          "name": "_token",
          "type": "address"
        },
        {
          "internalType": "uint256",
          "name": "_amount",
          "type": "uint256"
        }
      ],
      "name": "extractTokensIfStuck",
      "outputs": [],
      "payable": false,
      "stateMutability": "nonpayable",
      "type": "function"
    },
    {
      "constant": false,
      "inputs": [],
      "name": "extractETHIfStuck",
      "outputs": [],
      "payable": false,
      "stateMutability": "nonpayable",
      "type": "function"
    },
    {
      "constant": false,
      "inputs": [
        {
          "internalType": "uint256",
          "name": "_amount",
          "type": "uint256"
        }
      ],
      "name": "changeYeldToRewardPerDay",
      "outputs": [],
      "payable": false,
      "stateMutability": "nonpayable",
      "type": "function"
    },
    {
      "constant": true,
      "inputs": [],
      "name": "getGeneratedYelds",
      "outputs": [
        {
          "internalType": "uint256",
          "name": "",
          "type": "uint256"
        }
      ],
      "payable": false,
      "stateMutability": "view",
      "type": "function"
    },
    {
      "constant": false,
      "inputs": [
        {
          "internalType": "uint256",
          "name": "_holdPercentage",
          "type": "uint256"
        }
      ],
      "name": "setHoldPercentage",
      "outputs": [],
      "payable": false,
      "stateMutability": "nonpayable",
      "type": "function"
    },
    {
      "constant": false,
      "inputs": [
        {
          "internalType": "uint256",
          "name": "_amount",
          "type": "uint256"
        }
      ],
      "name": "deposit",
      "outputs": [],
      "payable": false,
      "stateMutability": "nonpayable",
      "type": "function"
    },
    {
      "constant": false,
      "inputs": [
        {
          "internalType": "uint256",
          "name": "_shares",
          "type": "uint256"
        }
      ],
      "name": "withdraw",
      "outputs": [],
      "payable": false,
      "stateMutability": "nonpayable",
      "type": "function"
    },
    {
      "constant": true,
      "inputs": [],
      "name": "recommend",
      "outputs": [
        {
          "internalType": "enum yUSDC.Lender",
          "name": "",
          "type": "uint8"
        }
      ],
      "payable": false,
      "stateMutability": "view",
      "type": "function"
    },
    {
      "constant": false,
      "inputs": [
        {
          "internalType": "uint256",
          "name": "amount",
          "type": "uint256"
        }
      ],
      "name": "supplyDydx",
      "outputs": [
        {
          "internalType": "uint256",
          "name": "",
          "type": "uint256"
        }
      ],
      "payable": false,
      "stateMutability": "nonpayable",
      "type": "function"
    },
    {
      "constant": true,
      "inputs": [],
      "name": "getAave",
      "outputs": [
        {
          "internalType": "address",
          "name": "",
          "type": "address"
        }
      ],
      "payable": false,
      "stateMutability": "view",
      "type": "function"
    },
    {
      "constant": true,
      "inputs": [],
      "name": "getAaveCore",
      "outputs": [
        {
          "internalType": "address",
          "name": "",
          "type": "address"
        }
      ],
      "payable": false,
      "stateMutability": "view",
      "type": "function"
    },
    {
      "constant": false,
      "inputs": [],
      "name": "approveToken",
      "outputs": [],
      "payable": false,
      "stateMutability": "nonpayable",
      "type": "function"
    },
    {
      "constant": true,
      "inputs": [],
      "name": "balance",
      "outputs": [
        {
          "internalType": "uint256",
          "name": "",
          "type": "uint256"
        }
      ],
      "payable": false,
      "stateMutability": "view",
      "type": "function"
    },
    {
      "constant": true,
      "inputs": [],
      "name": "balanceDydx",
      "outputs": [
        {
          "internalType": "uint256",
          "name": "",
          "type": "uint256"
        }
      ],
      "payable": false,
      "stateMutability": "view",
      "type": "function"
    },
    {
      "constant": true,
      "inputs": [],
      "name": "balanceCompound",
      "outputs": [
        {
          "internalType": "uint256",
          "name": "",
          "type": "uint256"
        }
      ],
      "payable": false,
      "stateMutability": "view",
      "type": "function"
    },
    {
      "constant": true,
      "inputs": [],
      "name": "balanceCompoundInToken",
      "outputs": [
        {
          "internalType": "uint256",
          "name": "",
          "type": "uint256"
        }
      ],
      "payable": false,
      "stateMutability": "view",
      "type": "function"
    },
    {
      "constant": true,
      "inputs": [],
      "name": "balanceFulcrumInToken",
      "outputs": [
        {
          "internalType": "uint256",
          "name": "",
          "type": "uint256"
        }
      ],
      "payable": false,
      "stateMutability": "view",
      "type": "function"
    },
    {
      "constant": true,
      "inputs": [],
      "name": "balanceFulcrum",
      "outputs": [
        {
          "internalType": "uint256",
          "name": "",
          "type": "uint256"
        }
      ],
      "payable": false,
      "stateMutability": "view",
      "type": "function"
    },
    {
      "constant": true,
      "inputs": [],
      "name": "balanceAave",
      "outputs": [
        {
          "internalType": "uint256",
          "name": "",
          "type": "uint256"
        }
      ],
      "payable": false,
      "stateMutability": "view",
      "type": "function"
    },
    {
      "constant": false,
      "inputs": [],
      "name": "rebalance",
      "outputs": [],
      "payable": false,
      "stateMutability": "nonpayable",
      "type": "function"
    },
    {
      "constant": false,
      "inputs": [
        {
          "internalType": "uint256",
          "name": "amount",
          "type": "uint256"
        }
      ],
      "name": "supplyAave",
      "outputs": [],
      "payable": false,
      "stateMutability": "nonpayable",
      "type": "function"
    },
    {
      "constant": false,
      "inputs": [
        {
          "internalType": "uint256",
          "name": "amount",
          "type": "uint256"
        }
      ],
      "name": "supplyFulcrum",
      "outputs": [],
      "payable": false,
      "stateMutability": "nonpayable",
      "type": "function"
    },
    {
      "constant": false,
      "inputs": [
        {
          "internalType": "uint256",
          "name": "amount",
          "type": "uint256"
        }
      ],
      "name": "supplyCompound",
      "outputs": [],
      "payable": false,
      "stateMutability": "nonpayable",
      "type": "function"
    },
    {
      "constant": false,
      "inputs": [
        {
          "internalType": "uint256",
          "name": "_amount",
          "type": "uint256"
        }
      ],
      "name": "invest",
      "outputs": [],
      "payable": false,
      "stateMutability": "nonpayable",
      "type": "function"
    },
    {
      "constant": true,
      "inputs": [],
      "name": "calcPoolValueInToken",
      "outputs": [
        {
          "internalType": "uint256",
          "name": "",
          "type": "uint256"
        }
      ],
      "payable": false,
      "stateMutability": "view",
      "type": "function"
    },
    {
      "constant": true,
      "inputs": [],
      "name": "getPricePerFullShare",
      "outputs": [
        {
          "internalType": "uint256",
          "name": "",
          "type": "uint256"
        }
      ],
      "payable": false,
      "stateMutability": "view",
      "type": "function"
    },
    {
      "constant": false,
      "inputs": [
        {
          "internalType": "uint256",
          "name": "_shares",
          "type": "uint256"
        }
      ],
      "name": "redeem",
      "outputs": [],
      "payable": false,
      "stateMutability": "nonpayable",
      "type": "function"
    }
  ],
  "bytecode": "0x60806040526714d1120d7b1600006008556722b1c8c1227a0000600955670de0b6b3a7640000600a55601680546001600160a01b0319908116737a250d5630b4cf539739df2c5dacb4c659f2488d1790915560178054821673a0b86991c6218b36c1d19d4a2e9eb0ce3606eb4817905560188054821673c02aaa39b223fe8d0a0e5c4f27ead9083c756cc217905560198054909116736b175474e89094c44da98b954eedeac495271d0f179055690a968163f0a57b400000601c556802b5e3af16b1880000601d55674563918244f40000601e55601f805460ff60a01b19169055348015620000ed57600080fd5b5060405162006993380380620069938339810160408190526200011091620007b8565b604080518082018252600981526879656c64205553444360b81b602080830191825283518085019094526005845264795553444360d81b908401528151919291600691620001629160039190620006c8565b50815162000178906004906020850190620006c8565b506005805460ff191660ff92909216919091179055505060016006556200019e6200031c565b600780546001600160a01b0319166001600160a01b0392831617908190556040519116906000907f8be0079c531659141344cd1fd0a4f28419497f9722a3daafe3b4186f6b6457e0908290a3600c80546001600160a01b031990811673a0b86991c6218b36c1d19d4a2e9eb0ce3606eb481790915560138054821673dd6d648c991f7d47454354f4ef326b04025a48a8179055601180548216731e0447b19bb6ecfdae1e4ae1694b0c3659614e4e179055600f805482167324a42fd28c976a61df5d00d0599c34c4f90748c8179055600e8054821673f013406a0b1d544238083df0b93ad0d2cbe0f65f179055601080548216739ba00d6856a4edf4665bca2c2309936572473b7e179055600d805482167339aa39c021dfbae8fac545936693ac917d5e75631790556002601255601b80546001600160a01b0386811691841691909117909155601a8054858316908416179055601f805491841691909216179055620003136001600160e01b036200032116565b50505062000aee565b335b90565b600d54600c546200034e916001600160a01b039182169116600019620003e3602090811b6200409217901c565b601154600c546200037b916001600160a01b039182169116600019620003e3602090811b6200409217901c565b620003b4620003926001600160e01b03620004fd16565b600c546001600160a01b031690600019620003e3602090811b6200409217901c565b600e54600c54620003e1916001600160a01b039182169116600019620003e3602090811b6200409217901c565b565b801580620004725750604051636eb1769f60e11b81526001600160a01b0384169063dd62ed3e906200041c9030908690600401620009d9565b60206040518083038186803b1580156200043557600080fd5b505afa1580156200044a573d6000803e3d6000fd5b505050506040513d601f19601f820116820180604052506200047091908101906200082d565b155b6200049a5760405162461bcd60e51b8152600401620004919062000a3b565b60405180910390fd5b604051620004f890849063095ea7b360e01b90620004bf9086908690602401620009f8565b60408051808303601f190181529190526020810180516001600160e01b0319939093166001600160e01b03938416179052906200058316565b505050565b600f546040805163076b7fbb60e51b815290516000926001600160a01b03169163ed6ff760916004808301926020929190829003018186803b1580156200054357600080fd5b505afa15801562000558573d6000803e3d6000fd5b505050506040513d601f19601f820116820180604052506200057e919081019062000797565b905090565b620005a2826001600160a01b03166200068b60201b6200491d1760201c565b620005c15760405162461bcd60e51b8152600401620004919062000a4d565b60006060836001600160a01b031683604051620005df9190620009c4565b6000604051808303816000865af19150503d80600081146200061e576040519150601f19603f3d011682016040523d82523d6000602084013e62000623565b606091505b509150915081620006485760405162461bcd60e51b8152600401620004919062000a17565b8051156200068557808060200190516200066691908101906200080c565b620006855760405162461bcd60e51b8152600401620004919062000a29565b50505050565b6000813f7fc5d2460186f7233c927e7db2dcc703c0e500b653ca82273b7bfad8045d85a4708115801590620006c05750808214155b949350505050565b828054600181600116156101000203166002900490600052602060002090601f016020900481019282601f106200070b57805160ff19168380011785556200073b565b828001600101855582156200073b579182015b828111156200073b5782518255916020019190600101906200071e565b50620007499291506200074d565b5090565b6200031e91905b8082111562000749576000815560010162000754565b8051620007778162000abe565b92915050565b8051620007778162000ad8565b8051620007778162000ae3565b600060208284031215620007aa57600080fd5b6000620006c084846200076a565b600080600060608486031215620007ce57600080fd5b6000620007dc86866200076a565b9350506020620007ef868287016200076a565b925050604062000802868287016200076a565b9150509250925092565b6000602082840312156200081f57600080fd5b6000620006c084846200077d565b6000602082840312156200084057600080fd5b6000620006c084846200078a565b620008598162000a71565b82525050565b60006200086c8262000a5f565b62000878818562000a63565b93506200088a81856020860162000a8f565b9290920192915050565b6000620008a360208362000a68565b7f5361666545524332303a206c6f772d6c6576656c2063616c6c206661696c6564815260200192915050565b6000620008de602a8362000a68565b7f5361666545524332303a204552433230206f7065726174696f6e20646964206e8152691bdd081cdd58d8d9595960b21b602082015260400192915050565b60006200092c60368362000a68565b7f5361666545524332303a20617070726f76652066726f6d206e6f6e2d7a65726f81527f20746f206e6f6e2d7a65726f20616c6c6f77616e636500000000000000000000602082015260400192915050565b60006200098d601f8362000a68565b7f5361666545524332303a2063616c6c20746f206e6f6e2d636f6e747261637400815260200192915050565b62000859816200031e565b6000620009d282846200085f565b9392505050565b60408101620009e982856200084e565b620009d260208301846200084e565b6040810162000a0882856200084e565b620009d26020830184620009b9565b60208082528101620007778162000894565b602080825281016200077781620008cf565b6020808252810162000777816200091d565b6020808252810162000777816200097e565b5190565b919050565b90815260200190565b6000620007778262000a83565b151590565b6001600160a01b031690565b60005b8381101562000aac57818101518382015260200162000a92565b83811115620006855750506000910152565b62000ac98162000a71565b811462000ad557600080fd5b50565b62000ac98162000a7e565b62000ac9816200031e565b615e958062000afe6000396000f3fe6080604052600436106104d15760003560e01c80637f50d4d811610279578063cf8ca4261161015e578063f2978d98116100d6578063f5a41dea1161008a578063f7c1ec771161006f578063f7c1ec7714610c28578063f82ce27d14610c3d578063fc0c546a14610c52576104d1565b8063f5a41dea14610bfe578063f69e204614610c13576104d1565b8063f2fde38b116100bb578063f2fde38b14610ba9578063f34ce4bb14610bc9578063f4b9fa7514610be9576104d1565b8063f2978d9814610b7f578063f29e15a214610b94576104d1565b8063e26f21bf1161012d578063eb56faf011610112578063eb56faf014610b2a578063ebc5116014610b4a578063f02fbd4a14610b5f576104d1565b8063e26f21bf14610aea578063e849d65914610b0a576104d1565b8063cf8ca42614610a80578063d9d7858a14610a95578063db006a7514610aaa578063dd62ed3e14610aca576104d1565b8063a160176d116101f1578063a9a1015a116101c0578063b69ef8a8116101a5578063b69ef8a814610a2b578063b6b55f2514610a40578063bea9849e14610a60576104d1565b8063a9a1015a146109f6578063b19ab07614610a16576104d1565b8063a160176d1461098c578063a457c2d7146109a1578063a7287971146109c1578063a9059cbb146109d6576104d1565b80638da5cb5b116102485780638f32d59b1161022d5780638f32d59b1461094d57806395d89b411461096257806399b71d5c14610977576104d1565b80638da5cb5b146109235780638e4ec6ef14610938576104d1565b80637f50d4d8146108b75780638124955c146108d9578063819faf7b146108f9578063858409ba1461090e576104d1565b80633e413bee116103ba57806365aab749116103325780637354b2e9116102e657806377c7b8fc116102cb57806377c7b8fc1461086d5780637b82784c146108825780637d7c2a1c146108a2576104d1565b80637354b2e914610843578063735de9f714610858576104d1565b806370a082311161031757806370a08231146107f95780637137ef9914610819578063715018a61461082e576104d1565b806365aab749146107c45780636ff2bf08146107e4576104d1565b80634fe411291161038957806357ded9c91161036e57806357ded9c91461078557806358782c211461079a57806361c1ec55146107af576104d1565b80634fe411291461075057806350f62da714610765576104d1565b80633e413bee146106f15780633fc8cef314610706578063413e920d1461071b5780634fd96cb614610730576104d1565b8063202a27351161044d5780632e1a7d4d1161041c578063313ce56711610401578063313ce5671461069a57806339509351146106bc57806339c0a7e1146106dc576104d1565b80632e1a7d4d1461065a5780632eb4520a1461067a576104d1565b8063202a2735146105f057806323b872dd146106055780632622678c146106255780632afcf4801461063a576104d1565b8063095ea7b3116104a457806310391d251161048957806310391d25146105b157806316f0115b146105c657806318160ddd146105db576104d1565b8063095ea7b31461056f5780630eb2a2671461059c576104d1565b806306636c1c146104d357806306a3fe591461050957806306fdde031461052b578063085d48831461054d575b005b3480156104df57600080fd5b506104f36104ee366004614d90565b610c67565b6040516105009190615b5e565b60405180910390f35b34801561051557600080fd5b5061051e610e1e565b6040516105009190615883565b34801561053757600080fd5b50610540610e3a565b60405161050091906159a2565b34801561055957600080fd5b50610562610eef565b6040516105009190615974565b34801561057b57600080fd5b5061058f61058a366004614c63565b610f10565b6040516105009190615958565b3480156105a857600080fd5b506104f3610f2e565b3480156105bd57600080fd5b506104f3610fda565b3480156105d257600080fd5b506104f3610fe0565b3480156105e757600080fd5b506104f3610fe6565b3480156105fc57600080fd5b506104f3610fec565b34801561061157600080fd5b5061058f610620366004614c16565b610ff2565b34801561063157600080fd5b5061051e61109a565b34801561064657600080fd5b506104d1610655366004614d90565b6110b6565b34801561066657600080fd5b506104d1610675366004614d90565b6111d4565b34801561068657600080fd5b506104d1610695366004614b3f565b61197b565b3480156106a657600080fd5b506106af611a00565b6040516105009190615bfb565b3480156106c857600080fd5b5061058f6106d7366004614c63565b611a09565b3480156106e857600080fd5b506104f3611a6a565b3480156106fd57600080fd5b5061051e611b37565b34801561071257600080fd5b5061051e611b53565b34801561072757600080fd5b506104f3611b6f565b34801561073c57600080fd5b506104d161074b366004614b3f565b611b76565b34801561075c57600080fd5b506104d1611bfb565b34801561077157600080fd5b506104f3610780366004614b3f565b611c89565b34801561079157600080fd5b5061051e611c9b565b3480156107a657600080fd5b5061051e611cb7565b3480156107bb57600080fd5b506104f3611cd3565b3480156107d057600080fd5b506104d16107df366004614d90565b611d2a565b3480156107f057600080fd5b506104f3611dc3565b34801561080557600080fd5b506104f3610814366004614b3f565b611e9b565b34801561082557600080fd5b506104f3611ec7565b34801561083a57600080fd5b506104d1611efd565b34801561084f57600080fd5b506104f3611faa565b34801561086457600080fd5b5061051e611fb0565b34801561087957600080fd5b506104f3611fcc565b34801561088e57600080fd5b506104f361089d366004614b3f565b611fff565b3480156108ae57600080fd5b506104d1612011565b3480156108c357600080fd5b506108cc61214a565b6040516105009190615966565b3480156108e557600080fd5b506104d16108f4366004614d90565b612166565b34801561090557600080fd5b5061051e612248565b34801561091a57600080fd5b506104f3612264565b34801561092f57600080fd5b5061051e61226a565b34801561094457600080fd5b5061051e612286565b34801561095957600080fd5b5061058f6122a2565b34801561096e57600080fd5b506105406122e2565b34801561098357600080fd5b506104d1612361565b34801561099857600080fd5b506105626124a4565b3480156109ad57600080fd5b5061058f6109bc366004614c63565b6125fa565b3480156109cd57600080fd5b506104f3612675565b3480156109e257600080fd5b5061058f6109f1366004614c63565b612744565b348015610a0257600080fd5b506104d1610a11366004614c63565b612758565b348015610a2257600080fd5b5061051e612841565b348015610a3757600080fd5b506104f361285d565b348015610a4c57600080fd5b506104d1610a5b366004614d90565b6128b4565b348015610a6c57600080fd5b506104d1610a7b366004614b3f565b612a06565b348015610a8c57600080fd5b506104f3612a8b565b348015610aa157600080fd5b506104f3612ae2565b348015610ab657600080fd5b506104d1610ac5366004614d90565b612ae8565b348015610ad657600080fd5b506104f3610ae5366004614b7b565b612e45565b348015610af657600080fd5b506104d1610b05366004614d90565b612e7d565b348015610b1657600080fd5b506104d1610b25366004614d90565b612ec0565b348015610b3657600080fd5b506104d1610b45366004614dcc565b612f9f565b348015610b5657600080fd5b506104f3612feb565b348015610b6b57600080fd5b506104d1610b7a366004614d90565b612ff1565b348015610b8b57600080fd5b506104f3613034565b348015610ba057600080fd5b506104f361303a565b348015610bb557600080fd5b506104d1610bc4366004614b3f565b613040565b348015610bd557600080fd5b506104f3610be4366004614bb5565b613087565b348015610bf557600080fd5b5061051e61324e565b348015610c0a57600080fd5b506104f361326a565b348015610c1f57600080fd5b5061051e613323565b348015610c3457600080fd5b5061051e61333f565b348015610c4957600080fd5b5061051e6133e2565b348015610c5e57600080fd5b5061051e61344d565b60408051600180825281830190925260009160609190816020015b610c8a614954565b815260200190600190039081610c8257905050905060405180604001604052803073ffffffffffffffffffffffffffffffffffffffff168152602001600081525081600081518110610cd857fe5b6020026020010181905250610ceb61496b565b6040805160808101909152600181526020810160008152602001600081526020018590529050610d19614994565b600081819052506000602082015260408082018390526012546060808401919091523060a0840152815160018082528184019093529091816020015b610d5d614994565b815260200190600190039081610d555790505090508181600081518110610d8057fe5b60209081029190910101526011546040517fa67a6a4500000000000000000000000000000000000000000000000000000000815273ffffffffffffffffffffffffffffffffffffffff9091169063a67a6a4590610de39087908590600401615933565b600060405180830381600087803b158015610dfd57600080fd5b505af1158015610e11573d6000803e3d6000fd5b5050505050505050919050565b60105473ffffffffffffffffffffffffffffffffffffffff1681565b60038054604080516020601f60027fffffffffffffffffffffffffffffffffffffffffffffffffffffffffffffffff610100600188161502019095169490940493840181900481028201810190925282815260609390929091830182828015610ee45780601f10610eb957610100808354040283529160200191610ee4565b820191906000526020600020905b815481529060010190602001808311610ec757829003601f168201915b505050505090505b90565b601f5474010000000000000000000000000000000000000000900460ff1681565b6000610f24610f1d613469565b848461346d565b5060015b92915050565b600e546040517f70a0823100000000000000000000000000000000000000000000000000000000815260009173ffffffffffffffffffffffffffffffffffffffff16906370a0823190610f85903090600401615891565b60206040518083038186803b158015610f9d57600080fd5b505afa158015610fb1573d6000803e3d6000fd5b505050506040513d601f19601f82011682018060405250610fd59190810190614dae565b905090565b60095481565b600b5481565b60025490565b601e5481565b6000610fff84848461357c565b61108f8461100b613469565b61108a85604051806060016040528060288152602001615e066028913973ffffffffffffffffffffffffffffffffffffffff8a16600090815260016020526040812090611056613469565b73ffffffffffffffffffffffffffffffffffffffff168152602081019190915260400160002054919063ffffffff61370716565b61346d565b5060015b9392505050565b601a5473ffffffffffffffffffffffffffffffffffffffff1681565b600680546001019081905581611101576040517f08c379a00000000000000000000000000000000000000000000000000000000081526004016110f890615ad3565b60405180910390fd5b611109611ec7565b600b55600c546111379073ffffffffffffffffffffffffffffffffffffffff1633308563ffffffff61374d16565b61113f612011565b600b546000906111555750600b8290558161117f565b61117c600b546111706002548661381290919063ffffffff16565b9063ffffffff61386616565b90505b611187611ec7565b600b5561119433826138a8565b5060065481146111d0576040517f08c379a00000000000000000000000000000000000000000000000000000000081526004016110f890615b03565b5050565b60068054600101908190556111e8336139a9565b1561121f576040517f08c379a00000000000000000000000000000000000000000000000000000000081526004016110f890615a73565b60008211611259576040517f08c379a00000000000000000000000000000000000000000000000000000000081526004016110f890615a93565b600061126433611e9b565b9050808311156112a0576040517f08c379a00000000000000000000000000000000000000000000000000000000081526004016110f890615a83565b6112a8611ec7565b600b5560006112b5611dc3565b905060006112d460025461117087600b5461381290919063ffffffff16565b90506112df816139af565b604080518082018252601d81527f72656465656d20616d6f756e7420657863656564732062616c616e636500000060208083019190915233600090815290819052919091205461133691879063ffffffff61370716565b33600090815260208190526040902055600254611359908663ffffffff613b0716565b60025560405160009033907fddf252ad1be2c89b69c2b068fc378daa952ba7f163c4a11628f55a4df523b3ef90611391908990615b5e565b60405180910390a3600c546040517f70a0823100000000000000000000000000000000000000000000000000000000815260009173ffffffffffffffffffffffffffffffffffffffff16906370a08231906113f0903090600401615891565b60206040518083038186803b15801561140857600080fd5b505afa15801561141c573d6000803e3d6000fd5b505050506040513d601f19601f820116820180604052506114409190810190614dae565b9050818110156114625761146261145d838363ffffffff613b0716565b613b49565b600061148d600a54611481600954600854613cb390919063ffffffff16565b9063ffffffff613cb316565b905060006114ae68056bc75e2d63100000611170868563ffffffff61381216565b33600090815260146020908152604080832043905560159091529020549091506114de908563ffffffff613b0716565b336000818152601560205260409081902092909255601b5491517fa9059cbb00000000000000000000000000000000000000000000000000000000815273ffffffffffffffffffffffffffffffffffffffff9092169163a9059cbb9161154891899060040161589f565b602060405180830381600087803b15801561156257600080fd5b505af1158015611576573d6000803e3d6000fd5b505050506040513d601f19601f8201168201806040525061159a9190810190614cc8565b5060006115a682613cf2565b601b546040517f70a0823100000000000000000000000000000000000000000000000000000000815291925060009173ffffffffffffffffffffffffffffffffffffffff909116906370a0823190611602908490600401615891565b60206040518083038186803b15801561161a57600080fd5b505afa15801561162e573d6000803e3d6000fd5b505050506040513d601f19601f820116820180604052506116529190810190614dae565b9050600061169568056bc75e2d631000006111706116888861117060095468056bc75e2d6310000061381290919063ffffffff16565b869063ffffffff61381216565b9050601c5482101561177f5760006116e268056bc75e2d631000006111706116d589611170600a5468056bc75e2d6310000061381290919063ffffffff16565b879063ffffffff61381216565b90506116ed81613ece565b50600061172f68056bc75e2d631000006111706117228a61117060085468056bc75e2d6310000061381290919063ffffffff16565b889063ffffffff61381216565b601a5460405191925073ffffffffffffffffffffffffffffffffffffffff169082156108fc029083906000818181858888f19350505050158015611777573d6000803e3d6000fd5b5050506117dc565b6000611791848363ffffffff613b0716565b601a5460405191925073ffffffffffffffffffffffffffffffffffffffff169082156108fc029083906000818181858888f193505050501580156117d9573d6000803e3d6000fd5b50505b601f5460405160009173ffffffffffffffffffffffffffffffffffffffff1690839061180790615878565b60006040518083038185875af1925050503d8060008114611844576040519150601f19603f3d011682016040523d82523d6000602084013e611849565b606091505b5050905080611884576040517f08c379a00000000000000000000000000000000000000000000000000000000081526004016110f890615a23565b600c5473ffffffffffffffffffffffffffffffffffffffff1663a9059cbb336118b38b8963ffffffff613b0716565b6040518363ffffffff1660e01b81526004016118d092919061589f565b602060405180830381600087803b1580156118ea57600080fd5b505af11580156118fe573d6000803e3d6000fd5b505050506040513d601f19601f820116820180604052506119229190810190614cc8565b5061192b611ec7565b600b55611936612011565b5050505050505050505060065481146111d0576040517f08c379a00000000000000000000000000000000000000000000000000000000081526004016110f890615b03565b6119836122a2565b6119b9576040517f08c379a00000000000000000000000000000000000000000000000000000000081526004016110f890615a63565b601a80547fffffffffffffffffffffffff00000000000000000000000000000000000000001673ffffffffffffffffffffffffffffffffffffffff92909216919091179055565b60055460ff1690565b6000610f24611a16613469565b8461108a8560016000611a27613469565b73ffffffffffffffffffffffffffffffffffffffff908116825260208083019390935260409182016000908120918c16815292529020549063ffffffff613cb316565b6000611a74614954565b6011546040805180820182523081526000602082015260125491517fc190c2ec00000000000000000000000000000000000000000000000000000000815273ffffffffffffffffffffffffffffffffffffffff9093169263c190c2ec92611ade9291600401615b43565b604080518083038186803b158015611af557600080fd5b505afa158015611b09573d6000803e3d6000fd5b505050506040513d601f19601f82011682018060405250611b2d9190810190614d72565b6020015191505090565b60175473ffffffffffffffffffffffffffffffffffffffff1681565b60185473ffffffffffffffffffffffffffffffffffffffff1681565b620f424081565b611b7e6122a2565b611bb4576040517f08c379a00000000000000000000000000000000000000000000000000000000081526004016110f890615a63565b601b80547fffffffffffffffffffffffff00000000000000000000000000000000000000001673ffffffffffffffffffffffffffffffffffffffff92909216919091179055565b611c036122a2565b611c39576040517f08c379a00000000000000000000000000000000000000000000000000000000081526004016110f890615a63565b611c4161226a565b73ffffffffffffffffffffffffffffffffffffffff166108fc479081150290604051600060405180830381858888f19350505050158015611c86573d6000803e3d6000fd5b50565b60156020526000908152604090205481565b60135473ffffffffffffffffffffffffffffffffffffffff1681565b600e5473ffffffffffffffffffffffffffffffffffffffff1681565b600d546040517f70a0823100000000000000000000000000000000000000000000000000000000815260009173ffffffffffffffffffffffffffffffffffffffff16906370a0823190610f85903090600401615891565b611d3261333f565b600c546040517fd2d0e06600000000000000000000000000000000000000000000000000000000815273ffffffffffffffffffffffffffffffffffffffff9283169263d2d0e06692611d8e92911690859060009060040161590b565b600060405180830381600087803b158015611da857600080fd5b505af1158015611dbc573d6000803e3d6000fd5b5050505050565b33600090815260146020526040812054819015611e025733600090815260146020526040902054611dfb90439063ffffffff613b0716565b9050611e0c565b6000915050610eec565b6000611e9461196461117084611e88670de0b6b3a7640000611170601d54611e88620f424061117064e8d4a51000601560003373ffffffffffffffffffffffffffffffffffffffff1673ffffffffffffffffffffffffffffffffffffffff1681526020019081526020016000205461381290919063ffffffff16565b9063ffffffff61381216565b9250505090565b73ffffffffffffffffffffffffffffffffffffffff81166000908152602081905260409020545b919050565b6000610fd5611ed461285d565b611481611edf612a8b565b611481611eea611a6a565b611481611ef561326a565b611481612675565b611f056122a2565b611f3b576040517f08c379a00000000000000000000000000000000000000000000000000000000081526004016110f890615a63565b60075460405160009173ffffffffffffffffffffffffffffffffffffffff16907f8be0079c531659141344cd1fd0a4f28419497f9722a3daafe3b4186f6b6457e0908390a3600780547fffffffffffffffffffffffff0000000000000000000000000000000000000000169055565b60085481565b60165473ffffffffffffffffffffffffffffffffffffffff1681565b600080611fd7611ec7565b600254909150611ff99061117083670de0b6b3a764000063ffffffff61381216565b91505090565b60146020526000908152604090205481565b600061201b6124a4565b601f5490915074010000000000000000000000000000000000000000900460ff16600481111561204757fe5b81600481111561205357fe5b146120605761206061402c565b600061206a61285d565b11156120f757600181600481111561207e57fe5b14156120955761208f6104ee61285d565b506120f7565b60048160048111156120a357fe5b14156120b9576120b46108f461285d565b6120f7565b60028160048111156120c757fe5b14156120d8576120b4610b2561285d565b60038160048111156120e657fe5b14156120f7576120f76107df61285d565b601f80548291907fffffffffffffffffffffff00ffffffffffffffffffffffffffffffffffffffff167401000000000000000000000000000000000000000083600481111561214257fe5b021790555050565b601b5473ffffffffffffffffffffffffffffffffffffffff1681565b600e546040517f40c10f1900000000000000000000000000000000000000000000000000000000815260009173ffffffffffffffffffffffffffffffffffffffff16906340c10f19906121bf903090869060040161589f565b602060405180830381600087803b1580156121d957600080fd5b505af11580156121ed573d6000803e3d6000fd5b505050506040513d601f19601f820116820180604052506122119190810190614dae565b11611c86576040517f08c379a00000000000000000000000000000000000000000000000000000000081526004016110f890615ae3565b600f5473ffffffffffffffffffffffffffffffffffffffff1681565b600a5481565b60075473ffffffffffffffffffffffffffffffffffffffff1690565b60115473ffffffffffffffffffffffffffffffffffffffff1681565b60075460009073ffffffffffffffffffffffffffffffffffffffff166122c6613469565b73ffffffffffffffffffffffffffffffffffffffff1614905090565b60048054604080516020601f60027fffffffffffffffffffffffffffffffffffffffffffffffffffffffffffffffff610100600188161502019095169490940493840181900481028201810190925282815260609390929091830182828015610ee45780601f10610eb957610100808354040283529160200191610ee4565b600d54600c546123b19173ffffffffffffffffffffffffffffffffffffffff91821691167fffffffffffffffffffffffffffffffffffffffffffffffffffffffffffffffff63ffffffff61409216565b601154600c546124019173ffffffffffffffffffffffffffffffffffffffff91821691167fffffffffffffffffffffffffffffffffffffffffffffffffffffffffffffffff63ffffffff61409216565b61245261240c6133e2565b600c5473ffffffffffffffffffffffffffffffffffffffff16907fffffffffffffffffffffffffffffffffffffffffffffffffffffffffffffffff63ffffffff61409216565b600e54600c546124a29173ffffffffffffffffffffffffffffffffffffffff91821691167fffffffffffffffffffffffffffffffffffffffffffffffffffffffffffffffff63ffffffff61409216565b565b601354600c546040517fd88be3c0000000000000000000000000000000000000000000000000000000008152600092839283928392839273ffffffffffffffffffffffffffffffffffffffff9182169263d88be3c092612508921690600401615883565b60006040518083038186803b15801561252057600080fd5b505afa158015612534573d6000803e3d6000fd5b505050506040513d6000823e601f3d9081017fffffffffffffffffffffffffffffffffffffffffffffffffffffffffffffffe016820160405261257a9190810190614ce6565b929750909550935091506000905084156125915750835b8084111561259c5750825b808311156125a75750815b808211156125b25750805b6000818614156125c4575060026125f0565b848214156125d4575060046125f0565b838214156125e4575060036125f0565b828214156125f0575060015b9550505050505090565b6000610f24612607613469565b8461108a85604051806060016040528060258152602001615e2e6025913960016000612631613469565b73ffffffffffffffffffffffffffffffffffffffff908116825260208083019390935260409182016000908120918d1681529252902054919063ffffffff61370716565b600080612680611cd3565b90508015610fd557610f28670de0b6b3a7640000611170600d60009054906101000a900473ffffffffffffffffffffffffffffffffffffffff1673ffffffffffffffffffffffffffffffffffffffff1663182df0f56040518163ffffffff1660e01b815260040160206040518083038186803b1580156126ff57600080fd5b505afa158015612713573d6000803e3d6000fd5b505050506040513d601f19601f820116820180604052506127379190810190614dae565b849063ffffffff61381216565b6000610f24612751613469565b848461357c565b6127606122a2565b612796576040517f08c379a00000000000000000000000000000000000000000000000000000000081526004016110f890615a63565b6040517fa9059cbb00000000000000000000000000000000000000000000000000000000815273ffffffffffffffffffffffffffffffffffffffff83169063a9059cbb906127ea903390859060040161589f565b602060405180830381600087803b15801561280457600080fd5b505af1158015612818573d6000803e3d6000fd5b505050506040513d601f19601f8201168201806040525061283c9190810190614cc8565b505050565b601f5473ffffffffffffffffffffffffffffffffffffffff1681565b600c546040517f70a0823100000000000000000000000000000000000000000000000000000000815260009173ffffffffffffffffffffffffffffffffffffffff16906370a0823190610f85903090600401615891565b60068054600101908190556128c8336139a9565b156128ff576040517f08c379a00000000000000000000000000000000000000000000000000000000081526004016110f890615a73565b60008211612939576040517f08c379a00000000000000000000000000000000000000000000000000000000081526004016110f890615ad3565b612942826139af565b61294a611ec7565b600b55600c546129789073ffffffffffffffffffffffffffffffffffffffff1633308563ffffffff61374d16565b33600090815260146020908152604080832043905560159091529020546129a5908363ffffffff613cb316565b33600090815260156020526040812091909155600b546129cb5750600b829055816129e9565b6129e6600b546111706002548661381290919063ffffffff16565b90505b6129f1611ec7565b600b556129fe33826138a8565b611194612011565b612a0e6122a2565b612a44576040517f08c379a00000000000000000000000000000000000000000000000000000000081526004016110f890615a63565b601680547fffffffffffffffffffffffff00000000000000000000000000000000000000001673ffffffffffffffffffffffffffffffffffffffff92909216919091179055565b6010546040517f70a0823100000000000000000000000000000000000000000000000000000000815260009173ffffffffffffffffffffffffffffffffffffffff16906370a0823190610f85903090600401615891565b60125481565b600680546001019081905581612b2a576040517f08c379a00000000000000000000000000000000000000000000000000000000081526004016110f890615a93565b6000612b3533611e9b565b905080831115612b71576040517f08c379a00000000000000000000000000000000000000000000000000000000081526004016110f890615a83565b612b79611ec7565b600b819055600254600091612b999190611170908763ffffffff61381216565b604080518082018252601d81527f72656465656d20616d6f756e7420657863656564732062616c616e6365000000602080830191909152336000908152908190529190912054919250612bf49190869063ffffffff61370716565b33600090815260208190526040902055600254612c17908563ffffffff613b0716565b60025560405160009033907fddf252ad1be2c89b69c2b068fc378daa952ba7f163c4a11628f55a4df523b3ef90612c4f908890615b5e565b60405180910390a3600c546040517f70a0823100000000000000000000000000000000000000000000000000000000815260009173ffffffffffffffffffffffffffffffffffffffff16906370a0823190612cae903090600401615891565b60206040518083038186803b158015612cc657600080fd5b505afa158015612cda573d6000803e3d6000fd5b505050506040513d601f19601f82011682018060405250612cfe9190810190614dae565b601f5490915074010000000000000000000000000000000000000000900460ff1682821015612d8c57612d2f6124a4565b601f5490915074010000000000000000000000000000000000000000900460ff166004811115612d5b57fe5b816004811115612d6757fe5b14612d7957612d7461402c565b612d8c565b612d8c61145d848463ffffffff613b0716565b600c54612db69073ffffffffffffffffffffffffffffffffffffffff16338563ffffffff6141b116565b601f5474010000000000000000000000000000000000000000900460ff166004811115612ddf57fe5b816004811115612deb57fe5b14612df957612df981612060565b612e01611ec7565b600b555050600654831491506111d09050576040517f08c379a00000000000000000000000000000000000000000000000000000000081526004016110f890615b03565b73ffffffffffffffffffffffffffffffffffffffff918216600090815260016020908152604080832093909416825291909152205490565b612e856122a2565b612ebb576040517f08c379a00000000000000000000000000000000000000000000000000000000081526004016110f890615a63565b601e55565b600d546040517fa0712d6800000000000000000000000000000000000000000000000000000000815273ffffffffffffffffffffffffffffffffffffffff9091169063a0712d6890612f16908490600401615b5e565b602060405180830381600087803b158015612f3057600080fd5b505af1158015612f44573d6000803e3d6000fd5b505050506040513d601f19601f82011682018060405250612f689190810190614dae565b15611c86576040517f08c379a00000000000000000000000000000000000000000000000000000000081526004016110f890615a03565b612fa76122a2565b612fdd576040517f08c379a00000000000000000000000000000000000000000000000000000000081526004016110f890615a63565b600892909255600955600a55565b601d5481565b612ff96122a2565b61302f576040517f08c379a00000000000000000000000000000000000000000000000000000000081526004016110f890615a63565b601d55565b61196481565b601c5481565b6130486122a2565b61307e576040517f08c379a00000000000000000000000000000000000000000000000000000000081526004016110f890615a63565b611c86816141ec565b604080516003808252608082019092526000916060919060208201838038833901905050905085816000815181106130bb57fe5b602002602001019073ffffffffffffffffffffffffffffffffffffffff16908173ffffffffffffffffffffffffffffffffffffffff1681525050848160018151811061310357fe5b602002602001019073ffffffffffffffffffffffffffffffffffffffff16908173ffffffffffffffffffffffffffffffffffffffff1681525050838160028151811061314b57fe5b73ffffffffffffffffffffffffffffffffffffffff92831660209182029290920101526040517fd06ca61f00000000000000000000000000000000000000000000000000000000815260609185169063d06ca61f906131b890670de0b6b3a7640000908690600401615982565b60006040518083038186803b1580156131d057600080fd5b505afa1580156131e4573d6000803e3d6000fd5b505050506040513d6000823e601f3d9081017fffffffffffffffffffffffffffffffffffffffffffffffffffffffffffffffe016820160405261322a9190810190614c93565b90508060028151811061323957fe5b6020026020010151925050505b949350505050565b60195473ffffffffffffffffffffffffffffffffffffffff1681565b600080613275610f2e565b90508015610fd557600e546040517f06b3efd600000000000000000000000000000000000000000000000000000000815273ffffffffffffffffffffffffffffffffffffffff909116906306b3efd6906132d3903090600401615891565b60206040518083038186803b1580156132eb57600080fd5b505afa1580156132ff573d6000803e3d6000fd5b505050506040513d601f19601f82011682018060405250610f289190810190614dae565b600d5473ffffffffffffffffffffffffffffffffffffffff1681565b600f54604080517f0261bf8b000000000000000000000000000000000000000000000000000000008152905160009273ffffffffffffffffffffffffffffffffffffffff1691630261bf8b916004808301926020929190829003018186803b1580156133aa57600080fd5b505afa1580156133be573d6000803e3d6000fd5b505050506040513d601f19601f82011682018060405250610fd59190810190614b5d565b600f54604080517fed6ff760000000000000000000000000000000000000000000000000000000008152905160009273ffffffffffffffffffffffffffffffffffffffff169163ed6ff760916004808301926020929190829003018186803b1580156133aa57600080fd5b600c5473ffffffffffffffffffffffffffffffffffffffff1681565b3390565b73ffffffffffffffffffffffffffffffffffffffff83166134ba576040517f08c379a00000000000000000000000000000000000000000000000000000000081526004016110f890615ac3565b73ffffffffffffffffffffffffffffffffffffffff8216613507576040517f08c379a00000000000000000000000000000000000000000000000000000000081526004016110f8906159f3565b73ffffffffffffffffffffffffffffffffffffffff80841660008181526001602090815260408083209487168084529490915290819020849055517f8c5be1e5ebec7d5bd14f71427d1e84f3dd0314c0f7b2291e5b200ac8c7c3b9259061356f908590615b5e565b60405180910390a3505050565b73ffffffffffffffffffffffffffffffffffffffff83166135c9576040517f08c379a00000000000000000000000000000000000000000000000000000000081526004016110f890615aa3565b73ffffffffffffffffffffffffffffffffffffffff8216613616576040517f08c379a00000000000000000000000000000000000000000000000000000000081526004016110f8906159b3565b61366681604051806060016040528060268152602001615de06026913973ffffffffffffffffffffffffffffffffffffffff8616600090815260208190526040902054919063ffffffff61370716565b73ffffffffffffffffffffffffffffffffffffffff80851660009081526020819052604080822093909355908416815220546136a8908263ffffffff613cb316565b73ffffffffffffffffffffffffffffffffffffffff80841660008181526020819052604090819020939093559151908516907fddf252ad1be2c89b69c2b068fc378daa952ba7f163c4a11628f55a4df523b3ef9061356f908590615b5e565b60008184841115613745576040517f08c379a00000000000000000000000000000000000000000000000000000000081526004016110f891906159a2565b505050900390565b60405161380c9085907f23b872dd000000000000000000000000000000000000000000000000000000009061378a908790879087906024016158d5565b604080517fffffffffffffffffffffffffffffffffffffffffffffffffffffffffffffffe08184030181529190526020810180517bffffffffffffffffffffffffffffffffffffffffffffffffffffffff167fffffffff00000000000000000000000000000000000000000000000000000000909316929092179091526142c7565b50505050565b60008261382157506000610f28565b8282028284828161382e57fe5b0414611093576040517f08c379a00000000000000000000000000000000000000000000000000000000081526004016110f890615a43565b600061109383836040518060400160405280601a81526020017f536166654d6174683a206469766973696f6e206279207a65726f000000000000815250614414565b73ffffffffffffffffffffffffffffffffffffffff82166138f5576040517f08c379a00000000000000000000000000000000000000000000000000000000081526004016110f890615b33565b600254613908908263ffffffff613cb316565b60025573ffffffffffffffffffffffffffffffffffffffff8216600090815260208190526040902054613941908263ffffffff613cb316565b73ffffffffffffffffffffffffffffffffffffffff83166000818152602081905260408082209390935591519091907fddf252ad1be2c89b69c2b068fc378daa952ba7f163c4a11628f55a4df523b3ef9061399d908590615b5e565b60405180910390a35050565b3b151590565b601b546040517f70a0823100000000000000000000000000000000000000000000000000000000815260009173ffffffffffffffffffffffffffffffffffffffff16906370a0823190613a06903390600401615891565b60206040518083038186803b158015613a1e57600080fd5b505afa158015613a32573d6000803e3d6000fd5b505050506040513d601f19601f82011682018060405250613a569190810190614dae565b601b54601854601954601654939450600093613a919373ffffffffffffffffffffffffffffffffffffffff9081169381169281169116613087565b90506000613ab768056bc75e2d63100000611170601e548761381290919063ffffffff16565b90506000613acb828463ffffffff61386616565b905080841015611dbc576040517f08c379a00000000000000000000000000000000000000000000000000000000081526004016110f8906159c3565b600061109383836040518060400160405280601e81526020017f536166654d6174683a207375627472616374696f6e206f766572666c6f770000815250613707565b6002601f5474010000000000000000000000000000000000000000900460ff166004811115613b7457fe5b1415613b8357613b8381614465565b6003601f5474010000000000000000000000000000000000000000900460ff166004811115613bae57fe5b1415613bfe5780613bbd612a8b565b1015613bf5576040517f08c379a00000000000000000000000000000000000000000000000000000000081526004016110f890615ab3565b613bfe816144dd565b6001601f5474010000000000000000000000000000000000000000900460ff166004811115613c2957fe5b1415613c795780613c38611a6a565b1015613c70576040517f08c379a00000000000000000000000000000000000000000000000000000000081526004016110f890615ab3565b613c7981614533565b6004601f5474010000000000000000000000000000000000000000900460ff166004811115613ca457fe5b1415611c8657611c86816146e4565b600082820183811015611093576040517f08c379a00000000000000000000000000000000000000000000000000000000081526004016110f890615a13565b601654601754600091613d259173ffffffffffffffffffffffffffffffffffffffff90811691168363ffffffff61409216565b601654601754613d559173ffffffffffffffffffffffffffffffffffffffff91821691168463ffffffff61409216565b60408051600280825260608083018452926020830190803883395050601754825192935073ffffffffffffffffffffffffffffffffffffffff1691839150600090613d9c57fe5b73ffffffffffffffffffffffffffffffffffffffff9283166020918202929092010152601854825191169082906001908110613dd457fe5b73ffffffffffffffffffffffffffffffffffffffff9283166020918202929092010152601654606091166318cbafe58560008530613e1a4261070863ffffffff613cb316565b6040518663ffffffff1660e01b8152600401613e3a959493929190615ba8565b600060405180830381600087803b158015613e5457600080fd5b505af1158015613e68573d6000803e3d6000fd5b505050506040513d6000823e601f3d9081017fffffffffffffffffffffffffffffffffffffffffffffffffffffffffffffffe0168201604052613eae9190810190614c93565b905080600181518110613ebd57fe5b602002602001015192505050919050565b60408051600280825260608083018452600093909291906020830190803883395050601854825192935073ffffffffffffffffffffffffffffffffffffffff1691839150600090613f1b57fe5b73ffffffffffffffffffffffffffffffffffffffff9283166020918202929092010152601b54825191169082906001908110613f5357fe5b73ffffffffffffffffffffffffffffffffffffffff928316602091820292909201015260165460609116637ff36ab58560008581613f994261070863ffffffff613cb316565b6040518663ffffffff1660e01b8152600401613fb89493929190615b6c565b6000604051808303818588803b158015613fd157600080fd5b505af1158015613fe5573d6000803e3d6000fd5b50505050506040513d6000823e601f3d9081017fffffffffffffffffffffffffffffffffffffffffffffffffffffffffffffffe0168201604052613eae9190810190614c93565b6000614036611cd3565b90508015614047576140478161475c565b61404f611a6a565b905080156140605761406081614533565b614068610f2e565b90508015614079576140798161483b565b614081612a8b565b90508015611c8657611c86816144dd565b80158061414057506040517fdd62ed3e00000000000000000000000000000000000000000000000000000000815273ffffffffffffffffffffffffffffffffffffffff84169063dd62ed3e906140ee90309086906004016158ba565b60206040518083038186803b15801561410657600080fd5b505afa15801561411a573d6000803e3d6000fd5b505050506040513d601f19601f8201168201806040525061413e9190810190614dae565b155b614176576040517f08c379a00000000000000000000000000000000000000000000000000000000081526004016110f890615b13565b60405161283c9084907f095ea7b3000000000000000000000000000000000000000000000000000000009061378a90869086906024016158fd565b60405161283c9084907fa9059cbb000000000000000000000000000000000000000000000000000000009061378a90869086906024016158fd565b73ffffffffffffffffffffffffffffffffffffffff8116614239576040517f08c379a00000000000000000000000000000000000000000000000000000000081526004016110f8906159e3565b60075460405173ffffffffffffffffffffffffffffffffffffffff8084169216907f8be0079c531659141344cd1fd0a4f28419497f9722a3daafe3b4186f6b6457e090600090a3600780547fffffffffffffffffffffffff00000000000000000000000000000000000000001673ffffffffffffffffffffffffffffffffffffffff92909216919091179055565b6142e68273ffffffffffffffffffffffffffffffffffffffff1661491d565b61431c576040517f08c379a00000000000000000000000000000000000000000000000000000000081526004016110f890615b23565b600060608373ffffffffffffffffffffffffffffffffffffffff1683604051614345919061586c565b6000604051808303816000865af19150503d8060008114614382576040519150601f19603f3d011682016040523d82523d6000602084013e614387565b606091505b5091509150816143c3576040517f08c379a00000000000000000000000000000000000000000000000000000000081526004016110f890615a33565b80511561380c57808060200190516143de9190810190614cc8565b61380c576040517f08c379a00000000000000000000000000000000000000000000000000000000081526004016110f890615af3565b6000818361444f576040517f08c379a00000000000000000000000000000000000000000000000000000000081526004016110f891906159a2565b50600083858161445b57fe5b0495945050505050565b600061446f611cd3565b9050600061447b612675565b9050828110156144b7576040517f08c379a00000000000000000000000000000000000000000000000000000000081526004016110f890615ab3565b60006144d2600161148184611170878963ffffffff61381216565b905061380c8161475c565b6010546040517fdb006a7500000000000000000000000000000000000000000000000000000000815273ffffffffffffffffffffffffffffffffffffffff9091169063db006a7590611d8e908490600401615b5e565b604080516001808252818301909252606091816020015b614552614954565b81526020019060019003908161454a57905050905060405180604001604052803073ffffffffffffffffffffffffffffffffffffffff1681526020016000815250816000815181106145a057fe5b60200260200101819052506145b361496b565b60408051608081019091526000808252602082019081526020016000815260200184905290506145e1614994565b600181819052506000602082015260408082018390526012546060808401919091523060a0840152815160018082528184019093529091816020015b614625614994565b81526020019060019003908161461d579050509050818160008151811061464857fe5b60209081029190910101526011546040517fa67a6a4500000000000000000000000000000000000000000000000000000000815273ffffffffffffffffffffffffffffffffffffffff9091169063a67a6a45906146ab9087908590600401615933565b600060405180830381600087803b1580156146c557600080fd5b505af11580156146d9573d6000803e3d6000fd5b505050505050505050565b60006146ee610f2e565b905060006146fa61326a565b905082811015614736576040517f08c379a00000000000000000000000000000000000000000000000000000000081526004016110f890615ab3565b6000614751600161148184611170878963ffffffff61381216565b905061380c8161483b565b600d546040517fdb006a7500000000000000000000000000000000000000000000000000000000815273ffffffffffffffffffffffffffffffffffffffff9091169063db006a75906147b2908490600401615b5e565b602060405180830381600087803b1580156147cc57600080fd5b505af11580156147e0573d6000803e3d6000fd5b505050506040513d601f19601f820116820180604052506148049190810190614dae565b15611c86576040517f08c379a00000000000000000000000000000000000000000000000000000000081526004016110f8906159d3565b600e546040517f9dc29fac00000000000000000000000000000000000000000000000000000000815260009173ffffffffffffffffffffffffffffffffffffffff1690639dc29fac90614894903090869060040161589f565b602060405180830381600087803b1580156148ae57600080fd5b505af11580156148c2573d6000803e3d6000fd5b505050506040513d601f19601f820116820180604052506148e69190810190614dae565b11611c86576040517f08c379a00000000000000000000000000000000000000000000000000000000081526004016110f890615a53565b6000813f7fc5d2460186f7233c927e7db2dcc703c0e500b653ca82273b7bfad8045d85a47081158015906132465750141592915050565b604080518082019091526000808252602082015290565b604080516080810190915260008082526020820190815260200160008152602001600081525090565b6040805161010081018252600080825260208201529081016149b461496b565b81526020016000815260200160008152602001600073ffffffffffffffffffffffffffffffffffffffff16815260200160008152602001606081525090565b8035610f2881615db9565b8051610f2881615db9565b600082601f830112614a1a57600080fd5b8151614a2d614a2882615c30565b615c09565b91508181835260208401935060208101905083856020840282011115614a5257600080fd5b60005b83811015614a7e5781614a688882614b34565b8452506020928301929190910190600101614a55565b5050505092915050565b8051610f2881615dcd565b600082601f830112614aa457600080fd5b8151614ab2614a2882615c51565b91508082526020830160208301858383011115614ace57600080fd5b614ad9838284615d47565b50505092915050565b600060408284031215614af457600080fd5b614afe6040615c09565b90506000614b0c8484614a88565b8252506020614b1d84848301614b34565b60208301525092915050565b8035610f2881615dd6565b8051610f2881615dd6565b600060208284031215614b5157600080fd5b600061324684846149f3565b600060208284031215614b6f57600080fd5b600061324684846149fe565b60008060408385031215614b8e57600080fd5b6000614b9a85856149f3565b9250506020614bab858286016149f3565b9150509250929050565b60008060008060808587031215614bcb57600080fd5b6000614bd787876149f3565b9450506020614be8878288016149f3565b9350506040614bf9878288016149f3565b9250506060614c0a878288016149f3565b91505092959194509250565b600080600060608486031215614c2b57600080fd5b6000614c3786866149f3565b9350506020614c48868287016149f3565b9250506040614c5986828701614b29565b9150509250925092565b60008060408385031215614c7657600080fd5b6000614c8285856149f3565b9250506020614bab85828601614b29565b600060208284031215614ca557600080fd5b815167ffffffffffffffff811115614cbc57600080fd5b61324684828501614a09565b600060208284031215614cda57600080fd5b60006132468484614a88565b600080600080600060a08688031215614cfe57600080fd5b855167ffffffffffffffff811115614d1557600080fd5b614d2188828901614a93565b9550506020614d3288828901614b34565b9450506040614d4388828901614b34565b9350506060614d5488828901614b34565b9250506080614d6588828901614b34565b9150509295509295909350565b600060408284031215614d8457600080fd5b60006132468484614ae2565b600060208284031215614da257600080fd5b60006132468484614b29565b600060208284031215614dc057600080fd5b60006132468484614b34565b600080600060608486031215614de157600080fd5b6000614ded8686614b29565b9350506020614c4886828701614b29565b6000614e0a8383614e41565b505060200190565b60006110938383615745565b6000614e2a838361583a565b505060400190565b614e3b81615cfe565b82525050565b614e3b81615caa565b6000614e5582615c9d565b614e5f8185615ca1565b9350614e6a83615c97565b8060005b83811015614e98578151614e828882614dfe565b9750614e8d83615c97565b925050600101614e6e565b509495945050505050565b6000614eae82615c9d565b614eb88185615ca1565b935083602082028501614eca85615c97565b8060005b85811015614f045784840389528151614ee78582614e12565b9450614ef283615c97565b60209a909a0199925050600101614ece565b5091979650505050505050565b6000614f1c82615c9d565b614f268185615ca1565b9350614f3183615c97565b8060005b83811015614e98578151614f498882614e1e565b9750614f5483615c97565b925050600101614f35565b614e3b81615cb5565b6000614f7382615c9d565b614f7d8185611ec2565b9350614f8d818560208601615d47565b9290920192915050565b6000614fa282615c9d565b614fac8185615ca1565b9350614fbc818560208601615d47565b614fc581615d73565b9093019392505050565b614e3b81615d05565b614e3b81615d10565b614e3b81615d1b565b614e3b81615d26565b614e3b81615d31565b614e3b81615d3c565b6000615012602383615ca1565b7f45524332303a207472616e7366657220746f20746865207a65726f206164647281527f6573730000000000000000000000000000000000000000000000000000000000602082015260400192915050565b6000615071605083615ca1565b7f596f75206d75737420686f6c6420612025206f6620796f7572206465706f736981527f7420696e2059454c4420746f6b656e7320746f2062652061626c6520746f207360208201527f74616b65206f7220776974686472617700000000000000000000000000000000604082015260600192915050565b60006150f6601983615ca1565b7f434f4d504f554e443a207769746864726177206661696c656400000000000000815260200192915050565b600061512f602683615ca1565b7f4f776e61626c653a206e6577206f776e657220697320746865207a65726f206181527f6464726573730000000000000000000000000000000000000000000000000000602082015260400192915050565b600061518e602283615ca1565b7f45524332303a20617070726f766520746f20746865207a65726f20616464726581527f7373000000000000000000000000000000000000000000000000000000000000602082015260400192915050565b60006151ed601783615ca1565b7f434f4d504f554e443a20737570706c79206661696c6564000000000000000000815260200192915050565b6000615226601b83615ca1565b7f536166654d6174683a206164646974696f6e206f766572666c6f770000000000815260200192915050565b600061525f601c83615ca1565b7f446576207472656173757279207472616e73666572206661696c656400000000815260200192915050565b6000615298602083615ca1565b7f5361666545524332303a206c6f772d6c6576656c2063616c6c206661696c6564815260200192915050565b60006152d1602183615ca1565b7f536166654d6174683a206d756c7469706c69636174696f6e206f766572666c6f81527f7700000000000000000000000000000000000000000000000000000000000000602082015260400192915050565b6000615330601883615ca1565b7f46554c4352554d3a207769746864726177206661696c65640000000000000000815260200192915050565b6000615369602083615ca1565b7f4f776e61626c653a2063616c6c6572206973206e6f7420746865206f776e6572815260200192915050565b60006153a2603383615ca1565b7f436f6e74726163747320617265206e6f7420616c6c6f77656420746f20696e7481527f6572616374207769746820746865206661726d00000000000000000000000000602082015260400192915050565b6000615401601483615ca1565b7f696e73756666696369656e742062616c616e6365000000000000000000000000815260200192915050565b600061543a601f83615ca1565b7f7769746864726177206d7573742062652067726561746572207468616e203000815260200192915050565b6000615473602583615ca1565b7f45524332303a207472616e736665722066726f6d20746865207a65726f20616481527f6472657373000000000000000000000000000000000000000000000000000000602082015260400192915050565b6000610f28600083611ec2565b60006154df601283615ca1565b7f696e73756666696369656e742066756e64730000000000000000000000000000815260200192915050565b6000615518602483615ca1565b7f45524332303a20617070726f76652066726f6d20746865207a65726f2061646481527f7265737300000000000000000000000000000000000000000000000000000000602082015260400192915050565b6000615577601e83615ca1565b7f6465706f736974206d7573742062652067726561746572207468616e20300000815260200192915050565b60006155b0601683615ca1565b7f46554c4352554d3a20737570706c79206661696c656400000000000000000000815260200192915050565b60006155e9602a83615ca1565b7f5361666545524332303a204552433230206f7065726174696f6e20646964206e81527f6f74207375636365656400000000000000000000000000000000000000000000602082015260400192915050565b6000615648601f83615ca1565b7f5265656e7472616e637947756172643a207265656e7472616e742063616c6c00815260200192915050565b6000615681603683615ca1565b7f5361666545524332303a20617070726f76652066726f6d206e6f6e2d7a65726f81527f20746f206e6f6e2d7a65726f20616c6c6f77616e636500000000000000000000602082015260400192915050565b60006156e0601f83615ca1565b7f5361666545524332303a2063616c6c20746f206e6f6e2d636f6e747261637400815260200192915050565b6000615719601f83615ca1565b7f45524332303a206d696e7420746f20746865207a65726f206164647265737300815260200192915050565b805160009061016084019061575a8582614fd8565b50602083015161576d602086018261585a565b50604083015161578060408601826157f0565b50606083015161579360c086018261585a565b5060808301516157a660e086018261585a565b5060a08301516157ba610100860182614e41565b5060c08301516157ce61012086018261585a565b5060e08301518482036101408601526157e78282614f97565b95945050505050565b805160808301906158018482614f5f565b5060208201516158146020850182614fe1565b5060408201516158276040850182614fe1565b50606082015161380c606085018261585a565b8051604083019061584b8482614e41565b50602082015161380c60208501825b614e3b81610eec565b614e3b81615cf8565b60006110938284614f68565b6000610f28826154c5565b60208101610f288284614e41565b60208101610f288284614e32565b604081016158ad8285614e32565b611093602083018461585a565b604081016158c88285614e41565b6110936020830184614e41565b606081016158e38286614e41565b6158f06020830185614e41565b613246604083018461585a565b604081016158ad8285614e41565b606081016159198286614e41565b615926602083018561585a565b6132466040830184614ff3565b604080825281016159448185614f11565b905081810360208301526132468184614ea3565b60208101610f288284614f5f565b60208101610f288284614fcf565b60208101610f288284614fea565b604081016159908285614ffc565b81810360208301526132468184614e4a565b602080825281016110938184614f97565b60208082528101610f2881615005565b60208082528101610f2881615064565b60208082528101610f28816150e9565b60208082528101610f2881615122565b60208082528101610f2881615181565b60208082528101610f28816151e0565b60208082528101610f2881615219565b60208082528101610f2881615252565b60208082528101610f288161528b565b60208082528101610f28816152c4565b60208082528101610f2881615323565b60208082528101610f288161535c565b60208082528101610f2881615395565b60208082528101610f28816153f4565b60208082528101610f288161542d565b60208082528101610f2881615466565b60208082528101610f28816154d2565b60208082528101610f288161550b565b60208082528101610f288161556a565b60208082528101610f28816155a3565b60208082528101610f28816155dc565b60208082528101610f288161563b565b60208082528101610f2881615674565b60208082528101610f28816156d3565b60208082528101610f288161570c565b60608101615b51828561583a565b611093604083018461585a565b60208101610f28828461585a565b60808101615b7a828761585a565b8181036020830152615b8c8186614e4a565b9050615b9b6040830185614e32565b6157e7606083018461585a565b60a08101615bb6828861585a565b615bc3602083018761585a565b8181036040830152615bd58186614e4a565b9050615be46060830185614e32565b615bf1608083018461585a565b9695505050505050565b60208101610f288284615863565b60405181810167ffffffffffffffff81118282101715615c2857600080fd5b604052919050565b600067ffffffffffffffff821115615c4757600080fd5b5060209081020190565b600067ffffffffffffffff821115615c6857600080fd5b506020601f919091017fffffffffffffffffffffffffffffffffffffffffffffffffffffffffffffffe0160190565b60200190565b5190565b90815260200190565b6000610f2882615cdf565b151590565b80611ec281615d9b565b80611ec281615da5565b80611ec281615daf565b61ffff1690565b73ffffffffffffffffffffffffffffffffffffffff1690565b60ff1690565b6000610f28825b6000610f2882615caa565b6000610f2882615cba565b6000610f2882615cc4565b6000610f2882615cce565b6000610f2882615cd8565b6000610f2882610eec565b60005b83811015615d62578181015183820152602001615d4a565b8381111561380c5750506000910152565b601f017fffffffffffffffffffffffffffffffffffffffffffffffffffffffffffffffe01690565b60028110611c8657fe5b60018110611c8657fe5b60058110611c8657fe5b615dc281615caa565b8114611c8657600080fd5b615dc281615cb5565b615dc281610eec56fe45524332303a207472616e7366657220616d6f756e7420657863656564732062616c616e636545524332303a207472616e7366657220616d6f756e74206578636565647320616c6c6f77616e636545524332303a2064656372656173656420616c6c6f77616e63652062656c6f77207a65726fa365627a7a72315820306738171195af9836acc4e0e758461701176fc0f2aa48fcbb8764d78facfba96c6578706572696d656e74616cf564736f6c63430005110040",
  "source": "pragma solidity 0.5.17;\npragma experimental ABIEncoderV2;\n\nimport './ContractImports.sol';\nimport './CommonFunctionality.sol';\n\ncontract yUSDC is ERC20, ERC20Detailed, ReentrancyGuard, Structs, Ownable, CommonFunctionality {\n  using SafeERC20 for IERC20;\n  using Address for address;\n  using SafeMath for uint256;\n\n  uint256 public pool;\n  address public token;\n  address public compound;\n  address public fulcrum;\n  address public aave;\n  address public aaveToken;\n  address public dydx;\n  uint256 public dToken;\n  address public apr;\n\n  // Yeld\n  mapping(address => uint256) public depositBlockStarts;\n  mapping(address => uint256) public depositAmount;\n  address public uniswapRouter = 0x7a250d5630B4cF539739dF2C5dAcb4c659F2488D;\n  address public usdc = 0xA0b86991c6218b36c1d19D4a2e9Eb0cE3606eB48;\n  address public weth = 0xC02aaA39b223FE8D0A0e5C4F27eAD9083C756Cc2;\n  address public dai = 0x6B175474E89094C44Da98b954EedeAC495271d0F;\n  address payable public retirementYeldTreasury;\n  IERC20 public yeldToken;\n  uint256 public maximumTokensToBurn = 50000 * 1e18;\n  uint256 public constant oneDayInBlocks = 6500;\n  uint256 public yeldToRewardPerDay = 50e18; // 50 YELD per day per 1 million stablecoins padded with 18 zeroes to have that flexibility\n  uint256 public constant oneMillion = 1e6;\n  uint256 public holdPercentage = 5e18;\n  address public devTreasury;\n  // Yeld\n\n  enum Lender {\n      NONE,\n      DYDX,\n      COMPOUND,\n      AAVE,\n      FULCRUM\n  }\n\n  Lender public provider = Lender.NONE;\n\n  constructor (address _yeldToken, address payable _retirementYeldTreasury, address _devTreasury) public ERC20Detailed(\"yeld USDC\", \"yUSDC\", 6) {\n    token = address(0xA0b86991c6218b36c1d19D4a2e9Eb0cE3606eB48);\n    apr = address(0xdD6d648C991f7d47454354f4Ef326b04025a48A8);\n    dydx = address(0x1E0447b19BB6EcFdAe1e4AE1694b0C3659614e4e);\n    aave = address(0x24a42fD28C976A61Df5D00D0599C34c4f90748c8);\n    fulcrum = address(0xF013406A0B1d544238083DF0B93ad0d2cBE0f65f);\n    aaveToken = address(0x9bA00D6856a4eDF4665BcA2C2309936572473B7E);\n    compound = address(0x39AA39c021dfbaE8faC545936693aC917d5E7563);\n    dToken = 2;\n    yeldToken = IERC20(_yeldToken);\n    retirementYeldTreasury = _retirementYeldTreasury;\n    devTreasury = _devTreasury;\n    approveToken();\n  }\n\n  // Yeld\n  // To receive ETH after converting it from USDC\n  function () external payable {}\n  function setRetirementYeldTreasury(address payable _treasury) public onlyOwner {\n    retirementYeldTreasury = _treasury;\n  }\n  // In case a new uniswap router version is released\n  function setUniswapRouter(address _uniswapRouter) public onlyOwner {\n    uniswapRouter = _uniswapRouter;\n  }\n  function setYeldToken(address _yeldToken) public onlyOwner {\n    yeldToken = IERC20(_yeldToken);\n  }\n  function extractTokensIfStuck(address _token, uint256 _amount) public onlyOwner {\n    IERC20(_token).transfer(msg.sender, _amount);\n  }\n  function extractETHIfStuck() public onlyOwner {\n    owner().transfer(address(this).balance);\n  }\n  function changeYeldToRewardPerDay(uint256 _amount) public onlyOwner {\n    yeldToRewardPerDay = _amount;\n  }\n  function getGeneratedYelds() public view returns(uint256) {\n    uint256 blocksPassed;\n    if (depositBlockStarts[msg.sender] > 0) {\n      blocksPassed = block.number.sub(depositBlockStarts[msg.sender]);\n    } else {\n      return 0;\n    }\n    uint256 generatedYelds = depositAmount[msg.sender].mul(1e12).div(oneMillion).mul(yeldToRewardPerDay).div(1e18).mul(blocksPassed).div(oneDayInBlocks);\n    return generatedYelds;\n  }\n  // Converts USDC to ETH and returns how much ETH has been received from Uniswap\n  function usdcToETH(uint256 _amount) internal returns(uint256) {\n      IERC20(usdc).safeApprove(uniswapRouter, 0);\n      IERC20(usdc).safeApprove(uniswapRouter, _amount);\n      address[] memory path = new address[](2);\n      path[0] = usdc;\n      path[1] = weth;\n      // swapExactTokensForETH(uint amountIn, uint amountOutMin, address[] calldata path, address to, uint deadline)\n      // 'amounts' is an array where [0] is input USDC amount and [1] is the resulting ETH after the conversion\n      // even tho we've specified the WETH address, we'll receive ETH since that's how it works on uniswap\n      // https://uniswap.org/docs/v2/smart-contracts/router02/#swapexacttokensforeth\n      uint[] memory amounts = IUniswap(uniswapRouter).swapExactTokensForETH(_amount, uint(0), path, address(this), now.add(1800));\n      return amounts[1];\n  }\n  function buyNBurn(uint256 _ethToSwap) internal returns(uint256) {\n    address[] memory path = new address[](2);\n    path[0] = weth;\n    path[1] = address(yeldToken);\n    // Burns the tokens by taking them out of circulation, sending them to the 0x0 address\n    uint[] memory amounts = IUniswap(uniswapRouter).swapExactETHForTokens.value(_ethToSwap)(uint(0), path, address(0), now.add(1800));\n    return amounts[1];\n  }\n  // Yeld\n  function setHoldPercentage(uint256 _holdPercentage) public onlyOwner {\n    holdPercentage = _holdPercentage;\n  }\n\n  function yeldHoldingRequirement(uint256 _amount) internal view {\n    uint256 yeldHold = yeldToken.balanceOf(msg.sender);\n    uint256 yeldPriceInDai = getYeldPriceInDai(address(yeldToken), weth, dai, uniswapRouter);\n    uint256 amountPercentage = _amount.mul(holdPercentage).div(1e20);\n    uint256 yeldRequirement = amountPercentage.div(yeldPriceInDai);\n    require(yeldHold >= yeldRequirement, 'You must hold a % of your deposit in YELD tokens to be able to stake or withdraw');\n  }\n\n  // Quick swap low gas method for pool swaps\n  function deposit(uint256 _amount)\n      external\n      nonReentrant\n      noContract\n  {\n      require(_amount > 0, \"deposit must be greater than 0\");\n      yeldHoldingRequirement(_amount);\n\n      pool = _calcPoolValueInToken();\n\n      IERC20(token).safeTransferFrom(msg.sender, address(this), _amount);\n\n      // Yeld\n      depositBlockStarts[msg.sender] = block.number;\n      depositAmount[msg.sender] = depositAmount[msg.sender].add(_amount);\n      // Yeld\n      \n      // Calculate pool shares\n      uint256 shares = 0;\n      if (pool == 0) {\n        shares = _amount;\n        pool = _amount;\n      } else {\n        shares = (_amount.mul(_totalSupply)).div(pool);\n      }\n      pool = _calcPoolValueInToken();\n      _mint(msg.sender, shares);\n      rebalance();\n  }\n\n  // No rebalance implementation for lower fees and faster swaps\n  function withdraw(uint256 _shares)\n      external\n      nonReentrant\n      noContract\n  {\n      require(_shares > 0, \"withdraw must be greater than 0\");\n      uint256 ibalance = balanceOf(msg.sender);\n      require(_shares <= ibalance, \"insufficient balance\");\n      // Could have over value from cTokens\n      pool = _calcPoolValueInToken();\n      // Yeld\n      uint256 generatedYelds = getGeneratedYelds();\n      // Yeld\n      uint256 stablecoinsToWithdraw = (pool.mul(_shares)).div(_totalSupply);\n      yeldHoldingRequirement(stablecoinsToWithdraw);\n      _balances[msg.sender] = _balances[msg.sender].sub(_shares, \"redeem amount exceeds balance\");\n      _totalSupply = _totalSupply.sub(_shares);\n      emit Transfer(msg.sender, address(0), _shares);\n      uint256 b = IERC20(token).balanceOf(address(this));\n      if (b < stablecoinsToWithdraw) {\n        _withdrawSome(stablecoinsToWithdraw.sub(b));\n      }\n\n\n      // Yeld\n      // Take 1% of the amount to withdraw\n      uint256 totalPercentage = percentageRetirementYield.add(percentageDevTreasury).add(percentageBuyBurn);\n      uint256 combined = stablecoinsToWithdraw.mul(totalPercentage).div(1e20);\n      depositBlockStarts[msg.sender] = block.number;\n      depositAmount[msg.sender] = depositAmount[msg.sender].sub(stablecoinsToWithdraw);\n      yeldToken.transfer(msg.sender, generatedYelds);\n      // Take a portion of the profits for the buy and burn and retirement yeld\n      // Convert half the USDC earned into ETH for the protocol algorithms\n      uint256 stakingProfits = usdcToETH(combined);\n      uint256 tokensAlreadyBurned = yeldToken.balanceOf(address(0));\n      uint256 devTreasuryAmount = stakingProfits.mul(uint256(100e18).mul(percentageDevTreasury).div(totalPercentage)).div(100e18);\n      if (tokensAlreadyBurned < maximumTokensToBurn) {\n        uint256 ethToSwap = stakingProfits.mul(uint256(100e18).mul(percentageBuyBurn).div(totalPercentage)).div(100e18);\n        buyNBurn(ethToSwap);\n        uint256 retirementYeld = stakingProfits.mul(uint256(100e18).mul(percentageRetirementYield).div(totalPercentage)).div(100e18);\n        retirementYeldTreasury.transfer(retirementYeld);\n      } else {\n        uint256 retirementYeld = stakingProfits.sub(devTreasuryAmount);\n        retirementYeldTreasury.transfer(retirementYeld);\n      }\n      (bool success, ) = devTreasury.call.value(devTreasuryAmount)(\"\");\n      require(success, \"Dev treasury transfer failed\");\n      IERC20(token).transfer(msg.sender, stablecoinsToWithdraw.sub(combined));\n      // Yeld\n\n      pool = _calcPoolValueInToken();\n      rebalance();\n  }\n\n  function recommend() public view returns (Lender) {\n    (,uint256 capr,uint256 iapr,uint256 aapr,uint256 dapr) = IIEarnManager(apr).recommend(token);\n    uint256 max = 0;\n    if (capr > max) {\n      max = capr;\n    }\n    if (iapr > max) {\n      max = iapr;\n    }\n    if (aapr > max) {\n      max = aapr;\n    }\n    if (dapr > max) {\n      max = dapr;\n    }\n\n    Lender newProvider = Lender.NONE;\n    if (max == capr) {\n      newProvider = Lender.COMPOUND;\n    } else if (max == iapr) {\n      newProvider = Lender.FULCRUM;\n    } else if (max == aapr) {\n      newProvider = Lender.AAVE;\n    } else if (max == dapr) {\n      newProvider = Lender.DYDX;\n    }\n    return newProvider;\n  }\n\n  function supplyDydx(uint256 amount) public returns(uint) {\n      Info[] memory infos = new Info[](1);\n      infos[0] = Info(address(this), 0);\n\n      AssetAmount memory amt = AssetAmount(true, AssetDenomination.Wei, AssetReference.Delta, amount);\n      ActionArgs memory act;\n      act.actionType = ActionType.Deposit;\n      act.accountId = 0;\n      act.amount = amt;\n      act.primaryMarketId = dToken;\n      act.otherAddress = address(this);\n\n      ActionArgs[] memory args = new ActionArgs[](1);\n      args[0] = act;\n\n      DyDx(dydx).operate(infos, args);\n  }\n\n  function _withdrawDydx(uint256 amount) internal {\n      Info[] memory infos = new Info[](1);\n      infos[0] = Info(address(this), 0);\n\n      AssetAmount memory amt = AssetAmount(false, AssetDenomination.Wei, AssetReference.Delta, amount);\n      ActionArgs memory act;\n      act.actionType = ActionType.Withdraw;\n      act.accountId = 0;\n      act.amount = amt;\n      act.primaryMarketId = dToken;\n      act.otherAddress = address(this);\n\n      ActionArgs[] memory args = new ActionArgs[](1);\n      args[0] = act;\n\n      DyDx(dydx).operate(infos, args);\n  }\n\n  function getAave() public view returns (address) {\n    return LendingPoolAddressesProvider(aave).getLendingPool();\n  }\n  function getAaveCore() public view returns (address) {\n    return LendingPoolAddressesProvider(aave).getLendingPoolCore();\n  }\n\n  function approveToken() public {\n      IERC20(token).safeApprove(compound, uint(-1)); //also add to constructor\n      IERC20(token).safeApprove(dydx, uint(-1));\n      IERC20(token).safeApprove(getAaveCore(), uint(-1));\n      IERC20(token).safeApprove(fulcrum, uint(-1));\n  }\n\n  function balance() public view returns (uint256) {\n    return IERC20(token).balanceOf(address(this));\n  }\n\n  function balanceDydx() public view returns (uint256) {\n      Wei memory bal = DyDx(dydx).getAccountWei(Info(address(this), 0), dToken);\n      return bal.value;\n  }\n  function balanceCompound() public view returns (uint256) {\n      return IERC20(compound).balanceOf(address(this));\n  }\n  function balanceCompoundInToken() public view returns (uint256) {\n    // Mantisa 1e18 to decimals\n    uint256 b = balanceCompound();\n    if (b > 0) {\n      b = b.mul(Compound(compound).exchangeRateStored()).div(1e18);\n    }\n    return b;\n  }\n  function balanceFulcrumInToken() public view returns (uint256) {\n    uint256 b = balanceFulcrum();\n    if (b > 0) {\n      b = Fulcrum(fulcrum).assetBalanceOf(address(this));\n    }\n    return b;\n  }\n  function balanceFulcrum() public view returns (uint256) {\n    return IERC20(fulcrum).balanceOf(address(this));\n  }\n  function balanceAave() public view returns (uint256) {\n    return IERC20(aaveToken).balanceOf(address(this));\n  }\n\n  function _balance() internal view returns (uint256) {\n    return IERC20(token).balanceOf(address(this));\n  }\n\n  function _balanceDydx() internal view returns (uint256) {\n      Wei memory bal = DyDx(dydx).getAccountWei(Info(address(this), 0), dToken);\n      return bal.value;\n  }\n  function _balanceCompound() internal view returns (uint256) {\n      return IERC20(compound).balanceOf(address(this));\n  }\n  function _balanceCompoundInToken() internal view returns (uint256) {\n    // Mantisa 1e18 to decimals\n    uint256 b = balanceCompound();\n    if (b > 0) {\n      b = b.mul(Compound(compound).exchangeRateStored()).div(1e18);\n    }\n    return b;\n  }\n  function _balanceFulcrumInToken() internal view returns (uint256) {\n    uint256 b = balanceFulcrum();\n    if (b > 0) {\n      b = Fulcrum(fulcrum).assetBalanceOf(address(this));\n    }\n    return b;\n  }\n  function _balanceFulcrum() internal view returns (uint256) {\n    return IERC20(fulcrum).balanceOf(address(this));\n  }\n  function _balanceAave() internal view returns (uint256) {\n    return IERC20(aaveToken).balanceOf(address(this));\n  }\n\n  function _withdrawAll() internal {\n    uint256 amount = _balanceCompound();\n    if (amount > 0) {\n      _withdrawCompound(amount);\n    }\n    amount = _balanceDydx();\n    if (amount > 0) {\n      _withdrawDydx(amount);\n    }\n    amount = _balanceFulcrum();\n    if (amount > 0) {\n      _withdrawFulcrum(amount);\n    }\n    amount = _balanceAave();\n    if (amount > 0) {\n      _withdrawAave(amount);\n    }\n  }\n\n  function _withdrawSomeCompound(uint256 _amount) internal {\n    uint256 b = balanceCompound();\n    uint256 bT = balanceCompoundInToken();\n    require(bT >= _amount, \"insufficient funds\");\n    // can have unintentional rounding errors\n    uint256 amount = (b.mul(_amount)).div(bT).add(1);\n    _withdrawCompound(amount);\n  }\n\n  // 1999999614570950845\n  function _withdrawSomeFulcrum(uint256 _amount) internal {\n    // Balance of fulcrum tokens, 1 iDAI = 1.00x DAI\n    uint256 b = balanceFulcrum(); // 1970469086655766652\n    // Balance of token in fulcrum\n    uint256 bT = balanceFulcrumInToken(); // 2000000803224344406\n    require(bT >= _amount, \"insufficient funds\");\n    // can have unintentional rounding errors\n    uint256 amount = (b.mul(_amount)).div(bT).add(1);\n    _withdrawFulcrum(amount);\n  }\n\n  function _withdrawSome(uint256 _amount) internal {\n    if (provider == Lender.COMPOUND) {\n      _withdrawSomeCompound(_amount);\n    }\n    if (provider == Lender.AAVE) {\n      require(balanceAave() >= _amount, \"insufficient funds\");\n      _withdrawAave(_amount);\n    }\n    if (provider == Lender.DYDX) {\n      require(balanceDydx() >= _amount, \"insufficient funds\");\n      _withdrawDydx(_amount);\n    }\n    if (provider == Lender.FULCRUM) {\n      _withdrawSomeFulcrum(_amount);\n    }\n  }\n\n  function rebalance() public {\n    Lender newProvider = recommend();\n\n    if (newProvider != provider) {\n      _withdrawAll();\n    }\n\n    if (balance() > 0) {\n      if (newProvider == Lender.DYDX) {\n        supplyDydx(balance());\n      } else if (newProvider == Lender.FULCRUM) {\n        supplyFulcrum(balance());\n      } else if (newProvider == Lender.COMPOUND) {\n        supplyCompound(balance());\n      } else if (newProvider == Lender.AAVE) {\n        supplyAave(balance());\n      }\n    }\n\n    provider = newProvider;\n  }\n\n  // Internal only rebalance for better gas in redeem\n  function _rebalance(Lender newProvider) internal {\n    if (_balance() > 0) {\n      if (newProvider == Lender.DYDX) {\n        supplyDydx(_balance());\n      } else if (newProvider == Lender.FULCRUM) {\n        supplyFulcrum(_balance());\n      } else if (newProvider == Lender.COMPOUND) {\n        supplyCompound(_balance());\n      } else if (newProvider == Lender.AAVE) {\n        supplyAave(_balance());\n      }\n    }\n    provider = newProvider;\n  }\n\n  function supplyAave(uint amount) public {\n      Aave(getAave()).deposit(token, amount, 0);\n  }\n  function supplyFulcrum(uint amount) public {\n      require(Fulcrum(fulcrum).mint(address(this), amount) > 0, \"FULCRUM: supply failed\");\n  }\n  function supplyCompound(uint amount) public {\n      require(Compound(compound).mint(amount) == 0, \"COMPOUND: supply failed\");\n  }\n  function _withdrawAave(uint amount) internal {\n      AToken(aaveToken).redeem(amount);\n  }\n  function _withdrawFulcrum(uint amount) internal {\n      require(Fulcrum(fulcrum).burn(address(this), amount) > 0, \"FULCRUM: withdraw failed\");\n  }\n  function _withdrawCompound(uint amount) internal {\n      require(Compound(compound).redeem(amount) == 0, \"COMPOUND: withdraw failed\");\n  }\n\n  function invest(uint256 _amount)\n      external\n      nonReentrant\n  {\n      require(_amount > 0, \"deposit must be greater than 0\");\n      pool = calcPoolValueInToken();\n\n      IERC20(token).safeTransferFrom(msg.sender, address(this), _amount);\n\n      rebalance();\n\n      // Calculate pool shares\n      uint256 shares = 0;\n      if (pool == 0) {\n        shares = _amount;\n        pool = _amount;\n      } else {\n        shares = (_amount.mul(_totalSupply)).div(pool);\n      }\n      pool = calcPoolValueInToken();\n      _mint(msg.sender, shares);\n  }\n\n  function _calcPoolValueInToken() internal view returns (uint) {\n    return _balanceCompoundInToken()\n      .add(_balanceFulcrumInToken())\n      .add(_balanceDydx())\n      .add(_balanceAave())\n      .add(_balance());\n  }\n\n  function calcPoolValueInToken() public view returns (uint) {\n    return balanceCompoundInToken()\n      .add(balanceFulcrumInToken())\n      .add(balanceDydx())\n      .add(balanceAave())\n      .add(balance());\n  }\n\n  function getPricePerFullShare() public view returns (uint) {\n    uint _pool = calcPoolValueInToken();\n    return _pool.mul(1e18).div(_totalSupply);\n  }\n\n  // Redeem any invested tokens from the pool\n  function redeem(uint256 _shares)\n      external\n      nonReentrant\n  {\n      require(_shares > 0, \"withdraw must be greater than 0\");\n\n      uint256 ibalance = balanceOf(msg.sender);\n      require(_shares <= ibalance, \"insufficient balance\");\n\n      // Could have over value from cTokens\n      pool = calcPoolValueInToken();\n      // Calc to redeem before updating balances\n      uint256 r = (pool.mul(_shares)).div(_totalSupply);\n\n\n      _balances[msg.sender] = _balances[msg.sender].sub(_shares, \"redeem amount exceeds balance\");\n      _totalSupply = _totalSupply.sub(_shares);\n\n      emit Transfer(msg.sender, address(0), _shares);\n\n      // Check ETH balance\n      uint256 b = IERC20(token).balanceOf(address(this));\n      Lender newProvider = provider;\n      if (b < r) {\n        newProvider = recommend();\n        if (newProvider != provider) {\n          _withdrawAll();\n        } else {\n          _withdrawSome(r.sub(b));\n        }\n      }\n\n      IERC20(token).safeTransfer(msg.sender, r);\n\n      if (newProvider != provider) {\n        _rebalance(newProvider);\n      }\n      pool = calcPoolValueInToken();\n  }\n}\n",
  "sourcePath": "C:/Users/merun/Desktop/yeld & crypto/yeld-contracts/contracts/yUSDC.sol",
  "compiler": {
    "name": "solc",
    "version": "0.5.17+commit.d19bba13.Emscripten.clang"
  },
  "schemaVersion": "3.3.3",
  "updatedAt": "2021-01-22T14:13:47.277Z",
  "devdoc": {
    "methods": {}
  },
  "userdoc": {
    "methods": {}
  }
}