{
  "contractName": "yUSDT",
  "abi": [
    {
      "inputs": [
        {
          "internalType": "address",
          "name": "_yeldToken",
          "type": "address"
        },
        {
          "internalType": "address payable",
          "name": "_retirementYeldTreasury",
          "type": "address"
        },
        {
          "internalType": "address",
          "name": "_devTreasury",
          "type": "address"
        }
      ],
      "payable": false,
      "stateMutability": "nonpayable",
      "type": "constructor"
    },
    {
      "anonymous": false,
      "inputs": [
        {
          "indexed": true,
          "internalType": "address",
          "name": "owner",
          "type": "address"
        },
        {
          "indexed": true,
          "internalType": "address",
          "name": "spender",
          "type": "address"
        },
        {
          "indexed": false,
          "internalType": "uint256",
          "name": "value",
          "type": "uint256"
        }
      ],
      "name": "Approval",
      "type": "event"
    },
    {
      "anonymous": false,
      "inputs": [
        {
          "indexed": true,
          "internalType": "address",
          "name": "previousOwner",
          "type": "address"
        },
        {
          "indexed": true,
          "internalType": "address",
          "name": "newOwner",
          "type": "address"
        }
      ],
      "name": "OwnershipTransferred",
      "type": "event"
    },
    {
      "anonymous": false,
      "inputs": [
        {
          "indexed": true,
          "internalType": "address",
          "name": "from",
          "type": "address"
        },
        {
          "indexed": true,
          "internalType": "address",
          "name": "to",
          "type": "address"
        },
        {
          "indexed": false,
          "internalType": "uint256",
          "name": "value",
          "type": "uint256"
        }
      ],
      "name": "Transfer",
      "type": "event"
    },
    {
      "payable": true,
      "stateMutability": "payable",
      "type": "fallback"
    },
    {
      "constant": true,
      "inputs": [],
      "name": "aave",
      "outputs": [
        {
          "internalType": "address",
          "name": "",
          "type": "address"
        }
      ],
      "payable": false,
      "stateMutability": "view",
      "type": "function"
    },
    {
      "constant": true,
      "inputs": [],
      "name": "aaveToken",
      "outputs": [
        {
          "internalType": "address",
          "name": "",
          "type": "address"
        }
      ],
      "payable": false,
      "stateMutability": "view",
      "type": "function"
    },
    {
      "constant": true,
      "inputs": [
        {
          "internalType": "address",
          "name": "owner",
          "type": "address"
        },
        {
          "internalType": "address",
          "name": "spender",
          "type": "address"
        }
      ],
      "name": "allowance",
      "outputs": [
        {
          "internalType": "uint256",
          "name": "",
          "type": "uint256"
        }
      ],
      "payable": false,
      "stateMutability": "view",
      "type": "function"
    },
    {
      "constant": false,
      "inputs": [
        {
          "internalType": "address",
          "name": "spender",
          "type": "address"
        },
        {
          "internalType": "uint256",
          "name": "amount",
          "type": "uint256"
        }
      ],
      "name": "approve",
      "outputs": [
        {
          "internalType": "bool",
          "name": "",
          "type": "bool"
        }
      ],
      "payable": false,
      "stateMutability": "nonpayable",
      "type": "function"
    },
    {
      "constant": true,
      "inputs": [],
      "name": "apr",
      "outputs": [
        {
          "internalType": "address",
          "name": "",
          "type": "address"
        }
      ],
      "payable": false,
      "stateMutability": "view",
      "type": "function"
    },
    {
      "constant": true,
      "inputs": [
        {
          "internalType": "address",
          "name": "account",
          "type": "address"
        }
      ],
      "name": "balanceOf",
      "outputs": [
        {
          "internalType": "uint256",
          "name": "",
          "type": "uint256"
        }
      ],
      "payable": false,
      "stateMutability": "view",
      "type": "function"
    },
    {
      "constant": true,
      "inputs": [],
      "name": "compound",
      "outputs": [
        {
          "internalType": "address",
          "name": "",
          "type": "address"
        }
      ],
      "payable": false,
      "stateMutability": "view",
      "type": "function"
    },
    {
      "constant": true,
      "inputs": [],
      "name": "dToken",
      "outputs": [
        {
          "internalType": "uint256",
          "name": "",
          "type": "uint256"
        }
      ],
      "payable": false,
      "stateMutability": "view",
      "type": "function"
    },
    {
      "constant": true,
      "inputs": [],
      "name": "dai",
      "outputs": [
        {
          "internalType": "address",
          "name": "",
          "type": "address"
        }
      ],
      "payable": false,
      "stateMutability": "view",
      "type": "function"
    },
    {
      "constant": true,
      "inputs": [],
      "name": "decimals",
      "outputs": [
        {
          "internalType": "uint8",
          "name": "",
          "type": "uint8"
        }
      ],
      "payable": false,
      "stateMutability": "view",
      "type": "function"
    },
    {
      "constant": false,
      "inputs": [
        {
          "internalType": "address",
          "name": "spender",
          "type": "address"
        },
        {
          "internalType": "uint256",
          "name": "subtractedValue",
          "type": "uint256"
        }
      ],
      "name": "decreaseAllowance",
      "outputs": [
        {
          "internalType": "bool",
          "name": "",
          "type": "bool"
        }
      ],
      "payable": false,
      "stateMutability": "nonpayable",
      "type": "function"
    },
    {
      "constant": true,
      "inputs": [
        {
          "internalType": "address",
          "name": "",
          "type": "address"
        }
      ],
      "name": "depositAmount",
      "outputs": [
        {
          "internalType": "uint256",
          "name": "",
          "type": "uint256"
        }
      ],
      "payable": false,
      "stateMutability": "view",
      "type": "function"
    },
    {
      "constant": true,
      "inputs": [
        {
          "internalType": "address",
          "name": "",
          "type": "address"
        }
      ],
      "name": "depositBlockStarts",
      "outputs": [
        {
          "internalType": "uint256",
          "name": "",
          "type": "uint256"
        }
      ],
      "payable": false,
      "stateMutability": "view",
      "type": "function"
    },
    {
      "constant": true,
      "inputs": [],
      "name": "devTreasury",
      "outputs": [
        {
          "internalType": "address",
          "name": "",
          "type": "address"
        }
      ],
      "payable": false,
      "stateMutability": "view",
      "type": "function"
    },
    {
      "constant": true,
      "inputs": [],
      "name": "dydx",
      "outputs": [
        {
          "internalType": "address",
          "name": "",
          "type": "address"
        }
      ],
      "payable": false,
      "stateMutability": "view",
      "type": "function"
    },
    {
      "constant": true,
      "inputs": [],
      "name": "fulcrum",
      "outputs": [
        {
          "internalType": "address",
          "name": "",
          "type": "address"
        }
      ],
      "payable": false,
      "stateMutability": "view",
      "type": "function"
    },
    {
      "constant": true,
      "inputs": [
        {
          "internalType": "address",
          "name": "_yeld",
          "type": "address"
        },
        {
          "internalType": "address",
          "name": "_weth",
          "type": "address"
        },
        {
          "internalType": "address",
          "name": "_dai",
          "type": "address"
        },
        {
          "internalType": "address",
          "name": "_uniswap",
          "type": "address"
        }
      ],
      "name": "getYeldPriceInDai",
      "outputs": [
        {
          "internalType": "uint256",
          "name": "",
          "type": "uint256"
        }
      ],
      "payable": false,
      "stateMutability": "view",
      "type": "function"
    },
    {
      "constant": true,
      "inputs": [],
      "name": "holdPercentage",
      "outputs": [
        {
          "internalType": "uint256",
          "name": "",
          "type": "uint256"
        }
      ],
      "payable": false,
      "stateMutability": "view",
      "type": "function"
    },
    {
      "constant": false,
      "inputs": [
        {
          "internalType": "address",
          "name": "spender",
          "type": "address"
        },
        {
          "internalType": "uint256",
          "name": "addedValue",
          "type": "uint256"
        }
      ],
      "name": "increaseAllowance",
      "outputs": [
        {
          "internalType": "bool",
          "name": "",
          "type": "bool"
        }
      ],
      "payable": false,
      "stateMutability": "nonpayable",
      "type": "function"
    },
    {
      "constant": true,
      "inputs": [],
      "name": "isOwner",
      "outputs": [
        {
          "internalType": "bool",
          "name": "",
          "type": "bool"
        }
      ],
      "payable": false,
      "stateMutability": "view",
      "type": "function"
    },
    {
      "constant": true,
      "inputs": [],
      "name": "maximumTokensToBurn",
      "outputs": [
        {
          "internalType": "uint256",
          "name": "",
          "type": "uint256"
        }
      ],
      "payable": false,
      "stateMutability": "view",
      "type": "function"
    },
    {
      "constant": true,
      "inputs": [],
      "name": "name",
      "outputs": [
        {
          "internalType": "string",
          "name": "",
          "type": "string"
        }
      ],
      "payable": false,
      "stateMutability": "view",
      "type": "function"
    },
    {
      "constant": true,
      "inputs": [],
      "name": "oneDayInBlocks",
      "outputs": [
        {
          "internalType": "uint256",
          "name": "",
          "type": "uint256"
        }
      ],
      "payable": false,
      "stateMutability": "view",
      "type": "function"
    },
    {
      "constant": true,
      "inputs": [],
      "name": "oneMillion",
      "outputs": [
        {
          "internalType": "uint256",
          "name": "",
          "type": "uint256"
        }
      ],
      "payable": false,
      "stateMutability": "view",
      "type": "function"
    },
    {
      "constant": true,
      "inputs": [],
      "name": "owner",
      "outputs": [
        {
          "internalType": "address payable",
          "name": "",
          "type": "address"
        }
      ],
      "payable": false,
      "stateMutability": "view",
      "type": "function"
    },
    {
      "constant": true,
      "inputs": [],
      "name": "percentageBuyBurn",
      "outputs": [
        {
          "internalType": "uint256",
          "name": "",
          "type": "uint256"
        }
      ],
      "payable": false,
      "stateMutability": "view",
      "type": "function"
    },
    {
      "constant": true,
      "inputs": [],
      "name": "percentageDevTreasury",
      "outputs": [
        {
          "internalType": "uint256",
          "name": "",
          "type": "uint256"
        }
      ],
      "payable": false,
      "stateMutability": "view",
      "type": "function"
    },
    {
      "constant": true,
      "inputs": [],
      "name": "percentageRetirementYield",
      "outputs": [
        {
          "internalType": "uint256",
          "name": "",
          "type": "uint256"
        }
      ],
      "payable": false,
      "stateMutability": "view",
      "type": "function"
    },
    {
      "constant": true,
      "inputs": [],
      "name": "pool",
      "outputs": [
        {
          "internalType": "uint256",
          "name": "",
          "type": "uint256"
        }
      ],
      "payable": false,
      "stateMutability": "view",
      "type": "function"
    },
    {
      "constant": true,
      "inputs": [],
      "name": "provider",
      "outputs": [
        {
          "internalType": "enum yUSDT.Lender",
          "name": "",
          "type": "uint8"
        }
      ],
      "payable": false,
      "stateMutability": "view",
      "type": "function"
    },
    {
      "constant": false,
      "inputs": [],
      "name": "renounceOwnership",
      "outputs": [],
      "payable": false,
      "stateMutability": "nonpayable",
      "type": "function"
    },
    {
      "constant": true,
      "inputs": [],
      "name": "retirementYeldTreasury",
      "outputs": [
        {
          "internalType": "address payable",
          "name": "",
          "type": "address"
        }
      ],
      "payable": false,
      "stateMutability": "view",
      "type": "function"
    },
    {
      "constant": true,
      "inputs": [],
      "name": "symbol",
      "outputs": [
        {
          "internalType": "string",
          "name": "",
          "type": "string"
        }
      ],
      "payable": false,
      "stateMutability": "view",
      "type": "function"
    },
    {
      "constant": true,
      "inputs": [],
      "name": "token",
      "outputs": [
        {
          "internalType": "address",
          "name": "",
          "type": "address"
        }
      ],
      "payable": false,
      "stateMutability": "view",
      "type": "function"
    },
    {
      "constant": true,
      "inputs": [],
      "name": "totalSupply",
      "outputs": [
        {
          "internalType": "uint256",
          "name": "",
          "type": "uint256"
        }
      ],
      "payable": false,
      "stateMutability": "view",
      "type": "function"
    },
    {
      "constant": false,
      "inputs": [
        {
          "internalType": "address",
          "name": "recipient",
          "type": "address"
        },
        {
          "internalType": "uint256",
          "name": "amount",
          "type": "uint256"
        }
      ],
      "name": "transfer",
      "outputs": [
        {
          "internalType": "bool",
          "name": "",
          "type": "bool"
        }
      ],
      "payable": false,
      "stateMutability": "nonpayable",
      "type": "function"
    },
    {
      "constant": false,
      "inputs": [
        {
          "internalType": "address",
          "name": "sender",
          "type": "address"
        },
        {
          "internalType": "address",
          "name": "recipient",
          "type": "address"
        },
        {
          "internalType": "uint256",
          "name": "amount",
          "type": "uint256"
        }
      ],
      "name": "transferFrom",
      "outputs": [
        {
          "internalType": "bool",
          "name": "",
          "type": "bool"
        }
      ],
      "payable": false,
      "stateMutability": "nonpayable",
      "type": "function"
    },
    {
      "constant": false,
      "inputs": [
        {
          "internalType": "address payable",
          "name": "newOwner",
          "type": "address"
        }
      ],
      "name": "transferOwnership",
      "outputs": [],
      "payable": false,
      "stateMutability": "nonpayable",
      "type": "function"
    },
    {
      "constant": true,
      "inputs": [],
      "name": "uniswapRouter",
      "outputs": [
        {
          "internalType": "address",
          "name": "",
          "type": "address"
        }
      ],
      "payable": false,
      "stateMutability": "view",
      "type": "function"
    },
    {
      "constant": false,
      "inputs": [
        {
          "internalType": "uint256",
          "name": "a",
          "type": "uint256"
        },
        {
          "internalType": "uint256",
          "name": "b",
          "type": "uint256"
        },
        {
          "internalType": "uint256",
          "name": "c",
          "type": "uint256"
        }
      ],
      "name": "updatePercentages",
      "outputs": [],
      "payable": false,
      "stateMutability": "nonpayable",
      "type": "function"
    },
    {
      "constant": true,
      "inputs": [],
      "name": "usdt",
      "outputs": [
        {
          "internalType": "address",
          "name": "",
          "type": "address"
        }
      ],
      "payable": false,
      "stateMutability": "view",
      "type": "function"
    },
    {
      "constant": true,
      "inputs": [],
      "name": "weth",
      "outputs": [
        {
          "internalType": "address",
          "name": "",
          "type": "address"
        }
      ],
      "payable": false,
      "stateMutability": "view",
      "type": "function"
    },
    {
      "constant": true,
      "inputs": [],
      "name": "yeldToRewardPerDay",
      "outputs": [
        {
          "internalType": "uint256",
          "name": "",
          "type": "uint256"
        }
      ],
      "payable": false,
      "stateMutability": "view",
      "type": "function"
    },
    {
      "constant": true,
      "inputs": [],
      "name": "yeldToken",
      "outputs": [
        {
          "internalType": "contract IERC20",
          "name": "",
          "type": "address"
        }
      ],
      "payable": false,
      "stateMutability": "view",
      "type": "function"
    },
    {
      "constant": false,
      "inputs": [
        {
          "internalType": "address payable",
          "name": "_treasury",
          "type": "address"
        }
      ],
      "name": "setRetirementYeldTreasury",
      "outputs": [],
      "payable": false,
      "stateMutability": "nonpayable",
      "type": "function"
    },
    {
      "constant": false,
      "inputs": [
        {
          "internalType": "address",
          "name": "_uniswapRouter",
          "type": "address"
        }
      ],
      "name": "setUniswapRouter",
      "outputs": [],
      "payable": false,
      "stateMutability": "nonpayable",
      "type": "function"
    },
    {
      "constant": false,
      "inputs": [
        {
          "internalType": "address",
          "name": "_yeldToken",
          "type": "address"
        }
      ],
      "name": "setYeldToken",
      "outputs": [],
      "payable": false,
      "stateMutability": "nonpayable",
      "type": "function"
    },
    {
      "constant": false,
      "inputs": [
        {
          "internalType": "address",
          "name": "_token",
          "type": "address"
        },
        {
          "internalType": "uint256",
          "name": "_amount",
          "type": "uint256"
        }
      ],
      "name": "extractTokensIfStuck",
      "outputs": [],
      "payable": false,
      "stateMutability": "nonpayable",
      "type": "function"
    },
    {
      "constant": false,
      "inputs": [],
      "name": "extractETHIfStuck",
      "outputs": [],
      "payable": false,
      "stateMutability": "nonpayable",
      "type": "function"
    },
    {
      "constant": false,
      "inputs": [
        {
          "internalType": "uint256",
          "name": "_amount",
          "type": "uint256"
        }
      ],
      "name": "changeYeldToRewardPerDay",
      "outputs": [],
      "payable": false,
      "stateMutability": "nonpayable",
      "type": "function"
    },
    {
      "constant": true,
      "inputs": [],
      "name": "getGeneratedYelds",
      "outputs": [
        {
          "internalType": "uint256",
          "name": "",
          "type": "uint256"
        }
      ],
      "payable": false,
      "stateMutability": "view",
      "type": "function"
    },
    {
      "constant": false,
      "inputs": [
        {
          "internalType": "uint256",
          "name": "_holdPercentage",
          "type": "uint256"
        }
      ],
      "name": "setHoldPercentage",
      "outputs": [],
      "payable": false,
      "stateMutability": "nonpayable",
      "type": "function"
    },
    {
      "constant": false,
      "inputs": [
        {
          "internalType": "uint256",
          "name": "_amount",
          "type": "uint256"
        }
      ],
      "name": "deposit",
      "outputs": [],
      "payable": false,
      "stateMutability": "nonpayable",
      "type": "function"
    },
    {
      "constant": false,
      "inputs": [
        {
          "internalType": "uint256",
          "name": "_shares",
          "type": "uint256"
        }
      ],
      "name": "withdraw",
      "outputs": [],
      "payable": false,
      "stateMutability": "nonpayable",
      "type": "function"
    },
    {
      "constant": false,
      "inputs": [
        {
          "internalType": "address",
          "name": "_new_APR",
          "type": "address"
        }
      ],
      "name": "set_new_APR",
      "outputs": [],
      "payable": false,
      "stateMutability": "nonpayable",
      "type": "function"
    },
    {
      "constant": false,
      "inputs": [
        {
          "internalType": "address",
          "name": "_new_FULCRUM",
          "type": "address"
        }
      ],
      "name": "set_new_FULCRUM",
      "outputs": [],
      "payable": false,
      "stateMutability": "nonpayable",
      "type": "function"
    },
    {
      "constant": false,
      "inputs": [
        {
          "internalType": "address",
          "name": "_new_COMPOUND",
          "type": "address"
        }
      ],
      "name": "set_new_COMPOUND",
      "outputs": [],
      "payable": false,
      "stateMutability": "nonpayable",
      "type": "function"
    },
    {
      "constant": false,
      "inputs": [
        {
          "internalType": "uint256",
          "name": "_new_DTOKEN",
          "type": "uint256"
        }
      ],
      "name": "set_new_DTOKEN",
      "outputs": [],
      "payable": false,
      "stateMutability": "nonpayable",
      "type": "function"
    },
    {
      "constant": true,
      "inputs": [],
      "name": "recommend",
      "outputs": [
        {
          "internalType": "enum yUSDT.Lender",
          "name": "",
          "type": "uint8"
        }
      ],
      "payable": false,
      "stateMutability": "view",
      "type": "function"
    },
    {
      "constant": false,
      "inputs": [
        {
          "internalType": "uint256",
          "name": "amount",
          "type": "uint256"
        }
      ],
      "name": "supplyDydx",
      "outputs": [
        {
          "internalType": "uint256",
          "name": "",
          "type": "uint256"
        }
      ],
      "payable": false,
      "stateMutability": "nonpayable",
      "type": "function"
    },
    {
      "constant": true,
      "inputs": [],
      "name": "getAave",
      "outputs": [
        {
          "internalType": "address",
          "name": "",
          "type": "address"
        }
      ],
      "payable": false,
      "stateMutability": "view",
      "type": "function"
    },
    {
      "constant": true,
      "inputs": [],
      "name": "getAaveCore",
      "outputs": [
        {
          "internalType": "address",
          "name": "",
          "type": "address"
        }
      ],
      "payable": false,
      "stateMutability": "view",
      "type": "function"
    },
    {
      "constant": false,
      "inputs": [],
      "name": "approveToken",
      "outputs": [],
      "payable": false,
      "stateMutability": "nonpayable",
      "type": "function"
    },
    {
      "constant": true,
      "inputs": [],
      "name": "balance",
      "outputs": [
        {
          "internalType": "uint256",
          "name": "",
          "type": "uint256"
        }
      ],
      "payable": false,
      "stateMutability": "view",
      "type": "function"
    },
    {
      "constant": true,
      "inputs": [],
      "name": "balanceDydx",
      "outputs": [
        {
          "internalType": "uint256",
          "name": "",
          "type": "uint256"
        }
      ],
      "payable": false,
      "stateMutability": "view",
      "type": "function"
    },
    {
      "constant": true,
      "inputs": [],
      "name": "balanceCompound",
      "outputs": [
        {
          "internalType": "uint256",
          "name": "",
          "type": "uint256"
        }
      ],
      "payable": false,
      "stateMutability": "view",
      "type": "function"
    },
    {
      "constant": true,
      "inputs": [],
      "name": "balanceCompoundInToken",
      "outputs": [
        {
          "internalType": "uint256",
          "name": "",
          "type": "uint256"
        }
      ],
      "payable": false,
      "stateMutability": "view",
      "type": "function"
    },
    {
      "constant": true,
      "inputs": [],
      "name": "balanceFulcrumInToken",
      "outputs": [
        {
          "internalType": "uint256",
          "name": "",
          "type": "uint256"
        }
      ],
      "payable": false,
      "stateMutability": "view",
      "type": "function"
    },
    {
      "constant": true,
      "inputs": [],
      "name": "balanceFulcrum",
      "outputs": [
        {
          "internalType": "uint256",
          "name": "",
          "type": "uint256"
        }
      ],
      "payable": false,
      "stateMutability": "view",
      "type": "function"
    },
    {
      "constant": true,
      "inputs": [],
      "name": "balanceAave",
      "outputs": [
        {
          "internalType": "uint256",
          "name": "",
          "type": "uint256"
        }
      ],
      "payable": false,
      "stateMutability": "view",
      "type": "function"
    },
    {
      "constant": false,
      "inputs": [],
      "name": "rebalance",
      "outputs": [],
      "payable": false,
      "stateMutability": "nonpayable",
      "type": "function"
    },
    {
      "constant": false,
      "inputs": [
        {
          "internalType": "uint256",
          "name": "amount",
          "type": "uint256"
        }
      ],
      "name": "supplyAave",
      "outputs": [],
      "payable": false,
      "stateMutability": "nonpayable",
      "type": "function"
    },
    {
      "constant": false,
      "inputs": [
        {
          "internalType": "uint256",
          "name": "amount",
          "type": "uint256"
        }
      ],
      "name": "supplyFulcrum",
      "outputs": [],
      "payable": false,
      "stateMutability": "nonpayable",
      "type": "function"
    },
    {
      "constant": false,
      "inputs": [
        {
          "internalType": "uint256",
          "name": "amount",
          "type": "uint256"
        }
      ],
      "name": "supplyCompound",
      "outputs": [],
      "payable": false,
      "stateMutability": "nonpayable",
      "type": "function"
    },
    {
      "constant": true,
      "inputs": [],
      "name": "calcPoolValueInToken",
      "outputs": [
        {
          "internalType": "uint256",
          "name": "",
          "type": "uint256"
        }
      ],
      "payable": false,
      "stateMutability": "view",
      "type": "function"
    },
    {
      "constant": true,
      "inputs": [],
      "name": "getPricePerFullShare",
      "outputs": [
        {
          "internalType": "uint256",
          "name": "",
          "type": "uint256"
        }
      ],
      "payable": false,
      "stateMutability": "view",
      "type": "function"
    }
  ],
  "bytecode": "0x60806040526714d1120d7b1600006008556722b1c8c1227a0000600955670de0b6b3a7640000600a55601680546001600160a01b0319908116737a250d5630b4cf539739df2c5dacb4c659f2488d1790915560178054821673dac17f958d2ee523a2206206994597c13d831ec717905560188054821673c02aaa39b223fe8d0a0e5c4f27ead9083c756cc217905560198054909116736b175474e89094c44da98b954eedeac495271d0f179055690a968163f0a57b400000601c556802b5e3af16b1880000601d55674563918244f40000601e55601f805460ff60a01b19169055348015620000ed57600080fd5b5060405162006750380380620067508339810160408190526200011091620007b8565b60408051808201825260098152681e595b19081554d11560ba1b6020808301918252835180850190945260058452641e5554d11560da1b908401528151919291600691620001629160039190620006c8565b50815162000178906004906020850190620006c8565b506005805460ff191660ff92909216919091179055505060016006556200019e6200031c565b600780546001600160a01b0319166001600160a01b0392831617908190556040519116906000907f8be0079c531659141344cd1fd0a4f28419497f9722a3daafe3b4186f6b6457e0908290a3600c80546001600160a01b031990811673dac17f958d2ee523a2206206994597c13d831ec71790915560138054821673dd6d648c991f7d47454354f4ef326b04025a48a8179055601180548216731e0447b19bb6ecfdae1e4ae1694b0c3659614e4e179055600f805482167324a42fd28c976a61df5d00d0599c34c4f90748c8179055600e8054821673f013406a0b1d544238083df0b93ad0d2cbe0f65f1790556010805482167371fc860f7d3a592a4a98740e39db31d25db65ae8179055600d805482167339aa39c021dfbae8fac545936693ac917d5e75631790556000601255601b80546001600160a01b0386811691841691909117909155601a8054858316908416179055601f805491841691909216179055620003136001600160e01b036200032116565b50505062000aee565b335b90565b600d54600c546200034e916001600160a01b039182169116600019620003e3602090811b62003d4617901c565b601154600c546200037b916001600160a01b039182169116600019620003e3602090811b62003d4617901c565b620003b4620003926001600160e01b03620004fd16565b600c546001600160a01b031690600019620003e3602090811b62003d4617901c565b600e54600c54620003e1916001600160a01b039182169116600019620003e3602090811b62003d4617901c565b565b801580620004725750604051636eb1769f60e11b81526001600160a01b0384169063dd62ed3e906200041c9030908690600401620009d9565b60206040518083038186803b1580156200043557600080fd5b505afa1580156200044a573d6000803e3d6000fd5b505050506040513d601f19601f820116820180604052506200047091908101906200082d565b155b6200049a5760405162461bcd60e51b8152600401620004919062000a3b565b60405180910390fd5b604051620004f890849063095ea7b360e01b90620004bf9086908690602401620009f8565b60408051808303601f190181529190526020810180516001600160e01b0319939093166001600160e01b03938416179052906200058316565b505050565b600f546040805163076b7fbb60e51b815290516000926001600160a01b03169163ed6ff760916004808301926020929190829003018186803b1580156200054357600080fd5b505afa15801562000558573d6000803e3d6000fd5b505050506040513d601f19601f820116820180604052506200057e919081019062000797565b905090565b620005a2826001600160a01b03166200068b60201b620046da1760201c565b620005c15760405162461bcd60e51b8152600401620004919062000a4d565b60006060836001600160a01b031683604051620005df9190620009c4565b6000604051808303816000865af19150503d80600081146200061e576040519150601f19603f3d011682016040523d82523d6000602084013e62000623565b606091505b509150915081620006485760405162461bcd60e51b8152600401620004919062000a17565b8051156200068557808060200190516200066691908101906200080c565b620006855760405162461bcd60e51b8152600401620004919062000a29565b50505050565b6000813f7fc5d2460186f7233c927e7db2dcc703c0e500b653ca82273b7bfad8045d85a4708115801590620006c05750808214155b949350505050565b828054600181600116156101000203166002900490600052602060002090601f016020900481019282601f106200070b57805160ff19168380011785556200073b565b828001600101855582156200073b579182015b828111156200073b5782518255916020019190600101906200071e565b50620007499291506200074d565b5090565b6200031e91905b8082111562000749576000815560010162000754565b8051620007778162000abe565b92915050565b8051620007778162000ad8565b8051620007778162000ae3565b600060208284031215620007aa57600080fd5b6000620006c084846200076a565b600080600060608486031215620007ce57600080fd5b6000620007dc86866200076a565b9350506020620007ef868287016200076a565b925050604062000802868287016200076a565b9150509250925092565b6000602082840312156200081f57600080fd5b6000620006c084846200077d565b6000602082840312156200084057600080fd5b6000620006c084846200078a565b620008598162000a71565b82525050565b60006200086c8262000a5f565b62000878818562000a63565b93506200088a81856020860162000a8f565b9290920192915050565b6000620008a360208362000a68565b7f5361666545524332303a206c6f772d6c6576656c2063616c6c206661696c6564815260200192915050565b6000620008de602a8362000a68565b7f5361666545524332303a204552433230206f7065726174696f6e20646964206e8152691bdd081cdd58d8d9595960b21b602082015260400192915050565b60006200092c60368362000a68565b7f5361666545524332303a20617070726f76652066726f6d206e6f6e2d7a65726f81527f20746f206e6f6e2d7a65726f20616c6c6f77616e636500000000000000000000602082015260400192915050565b60006200098d601f8362000a68565b7f5361666545524332303a2063616c6c20746f206e6f6e2d636f6e747261637400815260200192915050565b62000859816200031e565b6000620009d282846200085f565b9392505050565b60408101620009e982856200084e565b620009d260208301846200084e565b6040810162000a0882856200084e565b620009d26020830184620009b9565b60208082528101620007778162000894565b602080825281016200077781620008cf565b6020808252810162000777816200091d565b6020808252810162000777816200097e565b5190565b919050565b90815260200190565b6000620007778262000a83565b151590565b6001600160a01b031690565b60005b8381101562000aac57818101518382015260200162000a92565b83811115620006855750506000910152565b62000ac98162000a71565b811462000ad557600080fd5b50565b62000ac98162000a7e565b62000ac9816200031e565b615c528062000afe6000396000f3fe6080604052600436106105075760003560e01c80638124955c11610294578063cf8ca4261161015e578063f29e15a2116100d6578063f5ff19161161008a578063f7c1ec771161006f578063f7c1ec7714610c9e578063f82ce27d14610cb3578063fc0c546a14610cc857610507565b8063f5ff191614610c69578063f69e204614610c8957610507565b8063f34ce4bb116100bb578063f34ce4bb14610c1f578063f4b9fa7514610c3f578063f5a41dea14610c5457610507565b8063f29e15a214610bea578063f2fde38b14610bff57610507565b8063e849d6591161012d578063ebc5116011610112578063ebc5116014610ba0578063f02fbd4a14610bb5578063f2978d9814610bd557610507565b8063e849d65914610b60578063eb56faf014610b8057610507565b8063cf8ca42614610af6578063d9d7858a14610b0b578063dd62ed3e14610b20578063e26f21bf14610b4057610507565b8063a160176d1161020c578063b19ab076116101c0578063b6b55f25116101a5578063b6b55f2514610a96578063bbf3164414610ab6578063bea9849e14610ad657610507565b8063b19ab07614610a6c578063b69ef8a814610a8157610507565b8063a7287971116101f1578063a728797114610a17578063a9059cbb14610a2c578063a9a1015a14610a4c57610507565b8063a160176d146109e2578063a457c2d7146109f757610507565b80638e4ec6ef1161026357806395d89b411161024857806395d89b411461099857806399b71d5c146109ad5780639ff011b9146109c257610507565b80638e4ec6ef1461096e5780638f32d59b1461098357610507565b80638124955c1461090f578063819faf7b1461092f578063858409ba146109445780638da5cb5b1461095957610507565b8063413e920d116103d55780636ff2bf081161034d578063735de9f7116103015780637b82784c116102e65780637b82784c146108b85780637d7c2a1c146108d85780637f50d4d8146108ed57610507565b8063735de9f71461088e57806377c7b8fc146108a357610507565b80637137ef99116103325780637137ef991461084f578063715018a6146108645780637354b2e91461087957610507565b80636ff2bf081461081a57806370a082311461082f57610507565b806350f62da7116103a457806358782c211161038957806358782c21146107d057806361c1ec55146107e557806365aab749146107fa57610507565b806350f62da71461079b57806357ded9c9146107bb57610507565b8063413e920d1461073157806346357473146107465780634fd96cb6146107665780634fe411291461078657610507565b8063202a2735116104835780632f48ab7d11610437578063395093511161041c57806339509351146106e757806339c0a7e1146107075780633fc8cef31461071c57610507565b80632f48ab7d146106b0578063313ce567146106c557610507565b80632622678c116104685780632622678c1461065b5780632e1a7d4d146106705780632eb4520a1461069057610507565b8063202a27351461062657806323b872dd1461063b57610507565b8063095ea7b3116104da57806310391d25116104bf57806310391d25146105e757806316f0115b146105fc57806318160ddd1461061157610507565b8063095ea7b3146105a55780630eb2a267146105d257610507565b806306636c1c1461050957806306a3fe591461053f57806306fdde0314610561578063085d488314610583575b005b34801561051557600080fd5b50610529610524366004614b4d565b610cdd565b604051610536919061591b565b60405180910390f35b34801561054b57600080fd5b50610554610e94565b6040516105369190615640565b34801561056d57600080fd5b50610576610eb0565b604051610536919061575f565b34801561058f57600080fd5b50610598610f65565b6040516105369190615731565b3480156105b157600080fd5b506105c56105c0366004614a20565b610f86565b6040516105369190615715565b3480156105de57600080fd5b50610529610fa4565b3480156105f357600080fd5b50610529611050565b34801561060857600080fd5b50610529611056565b34801561061d57600080fd5b5061052961105c565b34801561063257600080fd5b50610529611062565b34801561064757600080fd5b506105c56106563660046149d3565b611068565b34801561066757600080fd5b50610554611110565b34801561067c57600080fd5b5061050761068b366004614b4d565b61112c565b34801561069c57600080fd5b506105076106ab3660046148fc565b611887565b3480156106bc57600080fd5b5061055461190c565b3480156106d157600080fd5b506106da611928565b60405161053691906159b8565b3480156106f357600080fd5b506105c5610702366004614a20565b611931565b34801561071357600080fd5b50610529611992565b34801561072857600080fd5b50610554611a5f565b34801561073d57600080fd5b50610529611a7b565b34801561075257600080fd5b506105076107613660046148fc565b611a82565b34801561077257600080fd5b506105076107813660046148fc565b611b07565b34801561079257600080fd5b50610507611b8c565b3480156107a757600080fd5b506105296107b63660046148fc565b611c1a565b3480156107c757600080fd5b50610554611c2c565b3480156107dc57600080fd5b50610554611c48565b3480156107f157600080fd5b50610529611c64565b34801561080657600080fd5b50610507610815366004614b4d565b611cbb565b34801561082657600080fd5b50610529611d54565b34801561083b57600080fd5b5061052961084a3660046148fc565b611e2c565b34801561085b57600080fd5b50610529611e58565b34801561087057600080fd5b50610507611e8e565b34801561088557600080fd5b50610529611f3b565b34801561089a57600080fd5b50610554611f41565b3480156108af57600080fd5b50610529611f5d565b3480156108c457600080fd5b506105296108d33660046148fc565b611f90565b3480156108e457600080fd5b50610507611fa2565b3480156108f957600080fd5b506109026120db565b6040516105369190615723565b34801561091b57600080fd5b5061050761092a366004614b4d565b6120f7565b34801561093b57600080fd5b506105546121d9565b34801561095057600080fd5b506105296121f5565b34801561096557600080fd5b506105546121fb565b34801561097a57600080fd5b50610554612217565b34801561098f57600080fd5b506105c5612233565b3480156109a457600080fd5b50610576612273565b3480156109b957600080fd5b506105076122f2565b3480156109ce57600080fd5b506105076109dd366004614b4d565b612435565b3480156109ee57600080fd5b50610598612478565b348015610a0357600080fd5b506105c5610a12366004614a20565b6125ce565b348015610a2357600080fd5b50610529612649565b348015610a3857600080fd5b506105c5610a47366004614a20565b612718565b348015610a5857600080fd5b50610507610a67366004614a20565b61272c565b348015610a7857600080fd5b50610554612815565b348015610a8d57600080fd5b50610529612831565b348015610aa257600080fd5b50610507610ab1366004614b4d565b612888565b348015610ac257600080fd5b50610507610ad13660046148fc565b612a16565b348015610ae257600080fd5b50610507610af13660046148fc565b612a9b565b348015610b0257600080fd5b50610529612b20565b348015610b1757600080fd5b50610529612b77565b348015610b2c57600080fd5b50610529610b3b366004614938565b612b7d565b348015610b4c57600080fd5b50610507610b5b366004614b4d565b612bb5565b348015610b6c57600080fd5b50610507610b7b366004614b4d565b612bf8565b348015610b8c57600080fd5b50610507610b9b366004614b89565b612cd7565b348015610bac57600080fd5b50610529612d23565b348015610bc157600080fd5b50610507610bd0366004614b4d565b612d29565b348015610be157600080fd5b50610529612d6c565b348015610bf657600080fd5b50610529612d72565b348015610c0b57600080fd5b50610507610c1a3660046148fc565b612d78565b348015610c2b57600080fd5b50610529610c3a366004614972565b612dbf565b348015610c4b57600080fd5b50610554612f86565b348015610c6057600080fd5b50610529612fa2565b348015610c7557600080fd5b50610507610c843660046148fc565b61305b565b348015610c9557600080fd5b506105546130e0565b348015610caa57600080fd5b506105546130fc565b348015610cbf57600080fd5b5061055461319f565b348015610cd457600080fd5b5061055461320a565b60408051600180825281830190925260009160609190816020015b610d00614711565b815260200190600190039081610cf857905050905060405180604001604052803073ffffffffffffffffffffffffffffffffffffffff168152602001600081525081600081518110610d4e57fe5b6020026020010181905250610d61614728565b6040805160808101909152600181526020810160008152602001600081526020018590529050610d8f614751565b600081819052506000602082015260408082018390526012546060808401919091523060a0840152815160018082528184019093529091816020015b610dd3614751565b815260200190600190039081610dcb5790505090508181600081518110610df657fe5b60209081029190910101526011546040517fa67a6a4500000000000000000000000000000000000000000000000000000000815273ffffffffffffffffffffffffffffffffffffffff9091169063a67a6a4590610e5990879085906004016156f0565b600060405180830381600087803b158015610e7357600080fd5b505af1158015610e87573d6000803e3d6000fd5b5050505050505050919050565b60105473ffffffffffffffffffffffffffffffffffffffff1681565b60038054604080516020601f60027fffffffffffffffffffffffffffffffffffffffffffffffffffffffffffffffff610100600188161502019095169490940493840181900481028201810190925282815260609390929091830182828015610f5a5780601f10610f2f57610100808354040283529160200191610f5a565b820191906000526020600020905b815481529060010190602001808311610f3d57829003601f168201915b505050505090505b90565b601f5474010000000000000000000000000000000000000000900460ff1681565b6000610f9a610f93613226565b848461322a565b5060015b92915050565b600e546040517f70a0823100000000000000000000000000000000000000000000000000000000815260009173ffffffffffffffffffffffffffffffffffffffff16906370a0823190610ffb90309060040161564e565b60206040518083038186803b15801561101357600080fd5b505afa158015611027573d6000803e3d6000fd5b505050506040513d601f19601f8201168201806040525061104b9190810190614b6b565b905090565b60095481565b600b5481565b60025490565b601e5481565b6000611075848484613339565b61110584611081613226565b61110085604051806060016040528060288152602001615bc36028913973ffffffffffffffffffffffffffffffffffffffff8a166000908152600160205260408120906110cc613226565b73ffffffffffffffffffffffffffffffffffffffff168152602081019190915260400160002054919063ffffffff6134c416565b61322a565b5060015b9392505050565b601a5473ffffffffffffffffffffffffffffffffffffffff1681565b60068054600101908190556111403361350a565b15611180576040517f08c379a000000000000000000000000000000000000000000000000000000000815260040161117790615830565b60405180910390fd5b600082116111ba576040517f08c379a000000000000000000000000000000000000000000000000000000000815260040161117790615850565b60006111c533611e2c565b905080831115611201576040517f08c379a000000000000000000000000000000000000000000000000000000000815260040161117790615840565b611209611e58565b600b556000611216611d54565b9050600061124160025461123587600b5461351090919063ffffffff16565b9063ffffffff61356416565b905061124c816135a6565b604080518082018252601d81527f72656465656d20616d6f756e7420657863656564732062616c616e63650000006020808301919091523360009081529081905291909120546112a391879063ffffffff6134c416565b336000908152602081905260409020556002546112c6908663ffffffff6136fe16565b60025560405160009033907fddf252ad1be2c89b69c2b068fc378daa952ba7f163c4a11628f55a4df523b3ef906112fe90899061591b565b60405180910390a3600c546040517f70a0823100000000000000000000000000000000000000000000000000000000815260009173ffffffffffffffffffffffffffffffffffffffff16906370a082319061135d90309060040161564e565b60206040518083038186803b15801561137557600080fd5b505afa158015611389573d6000803e3d6000fd5b505050506040513d601f19601f820116820180604052506113ad9190810190614b6b565b9050818110156113cf576113cf6113ca838363ffffffff6136fe16565b613740565b60006113fa600a546113ee6009546008546138aa90919063ffffffff16565b9063ffffffff6138aa16565b9050600061141b68056bc75e2d63100000611235868563ffffffff61351016565b336000908152601460209081526040808320439055601590915290205490915061144b908563ffffffff6136fe16565b336000818152601560205260409081902092909255601b5491517fa9059cbb00000000000000000000000000000000000000000000000000000000815273ffffffffffffffffffffffffffffffffffffffff9092169163a9059cbb916114b591899060040161565c565b602060405180830381600087803b1580156114cf57600080fd5b505af11580156114e3573d6000803e3d6000fd5b505050506040513d601f19601f820116820180604052506115079190810190614a85565b506000611513826138e9565b601b546040517f70a0823100000000000000000000000000000000000000000000000000000000815291925060009173ffffffffffffffffffffffffffffffffffffffff909116906370a082319061156f90849060040161564e565b60206040518083038186803b15801561158757600080fd5b505afa15801561159b573d6000803e3d6000fd5b505050506040513d601f19601f820116820180604052506115bf9190810190614b6b565b9050600061160268056bc75e2d631000006112356115f58861123560095468056bc75e2d6310000061351090919063ffffffff16565b869063ffffffff61351016565b9050601c548210156116ec57600061164f68056bc75e2d6310000061123561164289611235600a5468056bc75e2d6310000061351090919063ffffffff16565b879063ffffffff61351016565b905061165a81613ac5565b50600061169c68056bc75e2d6310000061123561168f8a61123560085468056bc75e2d6310000061351090919063ffffffff16565b889063ffffffff61351016565b601a5460405191925073ffffffffffffffffffffffffffffffffffffffff169082156108fc029083906000818181858888f193505050501580156116e4573d6000803e3d6000fd5b505050611749565b60006116fe848363ffffffff6136fe16565b601a5460405191925073ffffffffffffffffffffffffffffffffffffffff169082156108fc029083906000818181858888f19350505050158015611746573d6000803e3d6000fd5b50505b601f5460405160009173ffffffffffffffffffffffffffffffffffffffff1690839061177490615635565b60006040518083038185875af1925050503d80600081146117b1576040519150601f19603f3d011682016040523d82523d6000602084013e6117b6565b606091505b50509050806117f1576040517f08c379a0000000000000000000000000000000000000000000000000000000008152600401611177906157e0565b61182b336118058a8863ffffffff6136fe16565b600c5473ffffffffffffffffffffffffffffffffffffffff16919063ffffffff613c2316565b611833611e58565b600b5561183e611fa2565b505050505050505050506006548114611883576040517f08c379a0000000000000000000000000000000000000000000000000000000008152600401611177906158c0565b5050565b61188f612233565b6118c5576040517f08c379a000000000000000000000000000000000000000000000000000000000815260040161117790615820565b601a80547fffffffffffffffffffffffff00000000000000000000000000000000000000001673ffffffffffffffffffffffffffffffffffffffff92909216919091179055565b60175473ffffffffffffffffffffffffffffffffffffffff1681565b60055460ff1690565b6000610f9a61193e613226565b84611100856001600061194f613226565b73ffffffffffffffffffffffffffffffffffffffff908116825260208083019390935260409182016000908120918c16815292529020549063ffffffff6138aa16565b600061199c614711565b6011546040805180820182523081526000602082015260125491517fc190c2ec00000000000000000000000000000000000000000000000000000000815273ffffffffffffffffffffffffffffffffffffffff9093169263c190c2ec92611a069291600401615900565b604080518083038186803b158015611a1d57600080fd5b505afa158015611a31573d6000803e3d6000fd5b505050506040513d601f19601f82011682018060405250611a559190810190614b2f565b6020015191505090565b60185473ffffffffffffffffffffffffffffffffffffffff1681565b620f424081565b611a8a612233565b611ac0576040517f08c379a000000000000000000000000000000000000000000000000000000000815260040161117790615820565b601380547fffffffffffffffffffffffff00000000000000000000000000000000000000001673ffffffffffffffffffffffffffffffffffffffff92909216919091179055565b611b0f612233565b611b45576040517f08c379a000000000000000000000000000000000000000000000000000000000815260040161117790615820565b601b80547fffffffffffffffffffffffff00000000000000000000000000000000000000001673ffffffffffffffffffffffffffffffffffffffff92909216919091179055565b611b94612233565b611bca576040517f08c379a000000000000000000000000000000000000000000000000000000000815260040161117790615820565b611bd26121fb565b73ffffffffffffffffffffffffffffffffffffffff166108fc479081150290604051600060405180830381858888f19350505050158015611c17573d6000803e3d6000fd5b50565b60156020526000908152604090205481565b60135473ffffffffffffffffffffffffffffffffffffffff1681565b600e5473ffffffffffffffffffffffffffffffffffffffff1681565b600d546040517f70a0823100000000000000000000000000000000000000000000000000000000815260009173ffffffffffffffffffffffffffffffffffffffff16906370a0823190610ffb90309060040161564e565b611cc36130fc565b600c546040517fd2d0e06600000000000000000000000000000000000000000000000000000000815273ffffffffffffffffffffffffffffffffffffffff9283169263d2d0e06692611d1f9291169085906000906004016156c8565b600060405180830381600087803b158015611d3957600080fd5b505af1158015611d4d573d6000803e3d6000fd5b5050505050565b33600090815260146020526040812054819015611d935733600090815260146020526040902054611d8c90439063ffffffff6136fe16565b9050611d9d565b6000915050610f62565b6000611e2561196461123584611e19670de0b6b3a7640000611235601d54611e19620f424061123564e8d4a51000601560003373ffffffffffffffffffffffffffffffffffffffff1673ffffffffffffffffffffffffffffffffffffffff1681526020019081526020016000205461351090919063ffffffff16565b9063ffffffff61351016565b9250505090565b73ffffffffffffffffffffffffffffffffffffffff81166000908152602081905260409020545b919050565b600061104b611e65612831565b6113ee611e70612b20565b6113ee611e7b611992565b6113ee611e86612fa2565b6113ee612649565b611e96612233565b611ecc576040517f08c379a000000000000000000000000000000000000000000000000000000000815260040161117790615820565b60075460405160009173ffffffffffffffffffffffffffffffffffffffff16907f8be0079c531659141344cd1fd0a4f28419497f9722a3daafe3b4186f6b6457e0908390a3600780547fffffffffffffffffffffffff0000000000000000000000000000000000000000169055565b60085481565b60165473ffffffffffffffffffffffffffffffffffffffff1681565b600080611f68611e58565b600254909150611f8a9061123583670de0b6b3a764000063ffffffff61351016565b91505090565b60146020526000908152604090205481565b6000611fac612478565b601f5490915074010000000000000000000000000000000000000000900460ff166004811115611fd857fe5b816004811115611fe457fe5b14611ff157611ff1613ce0565b6000611ffb612831565b111561208857600181600481111561200f57fe5b141561202657612020610524612831565b50612088565b600481600481111561203457fe5b141561204a5761204561092a612831565b612088565b600281600481111561205857fe5b141561206957612045610b7b612831565b600381600481111561207757fe5b141561208857612088610815612831565b601f80548291907fffffffffffffffffffffff00ffffffffffffffffffffffffffffffffffffffff16740100000000000000000000000000000000000000008360048111156120d357fe5b021790555050565b601b5473ffffffffffffffffffffffffffffffffffffffff1681565b600e546040517f40c10f1900000000000000000000000000000000000000000000000000000000815260009173ffffffffffffffffffffffffffffffffffffffff16906340c10f1990612150903090869060040161565c565b602060405180830381600087803b15801561216a57600080fd5b505af115801561217e573d6000803e3d6000fd5b505050506040513d601f19601f820116820180604052506121a29190810190614b6b565b11611c17576040517f08c379a0000000000000000000000000000000000000000000000000000000008152600401611177906158a0565b600f5473ffffffffffffffffffffffffffffffffffffffff1681565b600a5481565b60075473ffffffffffffffffffffffffffffffffffffffff1690565b60115473ffffffffffffffffffffffffffffffffffffffff1681565b60075460009073ffffffffffffffffffffffffffffffffffffffff16612257613226565b73ffffffffffffffffffffffffffffffffffffffff1614905090565b60048054604080516020601f60027fffffffffffffffffffffffffffffffffffffffffffffffffffffffffffffffff610100600188161502019095169490940493840181900481028201810190925282815260609390929091830182828015610f5a5780601f10610f2f57610100808354040283529160200191610f5a565b600d54600c546123429173ffffffffffffffffffffffffffffffffffffffff91821691167fffffffffffffffffffffffffffffffffffffffffffffffffffffffffffffffff63ffffffff613d4616565b601154600c546123929173ffffffffffffffffffffffffffffffffffffffff91821691167fffffffffffffffffffffffffffffffffffffffffffffffffffffffffffffffff63ffffffff613d4616565b6123e361239d61319f565b600c5473ffffffffffffffffffffffffffffffffffffffff16907fffffffffffffffffffffffffffffffffffffffffffffffffffffffffffffffff63ffffffff613d4616565b600e54600c546124339173ffffffffffffffffffffffffffffffffffffffff91821691167fffffffffffffffffffffffffffffffffffffffffffffffffffffffffffffffff63ffffffff613d4616565b565b61243d612233565b612473576040517f08c379a000000000000000000000000000000000000000000000000000000000815260040161117790615820565b601255565b601354600c546040517fd88be3c0000000000000000000000000000000000000000000000000000000008152600092839283928392839273ffffffffffffffffffffffffffffffffffffffff9182169263d88be3c0926124dc921690600401615640565b60006040518083038186803b1580156124f457600080fd5b505afa158015612508573d6000803e3d6000fd5b505050506040513d6000823e601f3d9081017fffffffffffffffffffffffffffffffffffffffffffffffffffffffffffffffe016820160405261254e9190810190614aa3565b929750909550935091506000905084156125655750835b808411156125705750825b8083111561257b5750815b808211156125865750805b600081861415612598575060026125c4565b848214156125a8575060046125c4565b838214156125b8575060036125c4565b828214156125c4575060015b9550505050505090565b6000610f9a6125db613226565b8461110085604051806060016040528060258152602001615beb6025913960016000612605613226565b73ffffffffffffffffffffffffffffffffffffffff908116825260208083019390935260409182016000908120918d1681529252902054919063ffffffff6134c416565b600080612654611c64565b9050801561104b57610f9e670de0b6b3a7640000611235600d60009054906101000a900473ffffffffffffffffffffffffffffffffffffffff1673ffffffffffffffffffffffffffffffffffffffff1663182df0f56040518163ffffffff1660e01b815260040160206040518083038186803b1580156126d357600080fd5b505afa1580156126e7573d6000803e3d6000fd5b505050506040513d601f19601f8201168201806040525061270b9190810190614b6b565b849063ffffffff61351016565b6000610f9a612725613226565b8484613339565b612734612233565b61276a576040517f08c379a000000000000000000000000000000000000000000000000000000000815260040161117790615820565b6040517fa9059cbb00000000000000000000000000000000000000000000000000000000815273ffffffffffffffffffffffffffffffffffffffff83169063a9059cbb906127be903390859060040161565c565b602060405180830381600087803b1580156127d857600080fd5b505af11580156127ec573d6000803e3d6000fd5b505050506040513d601f19601f820116820180604052506128109190810190614a85565b505050565b601f5473ffffffffffffffffffffffffffffffffffffffff1681565b600c546040517f70a0823100000000000000000000000000000000000000000000000000000000815260009173ffffffffffffffffffffffffffffffffffffffff16906370a0823190610ffb90309060040161564e565b600680546001019081905561289c3361350a565b156128d3576040517f08c379a000000000000000000000000000000000000000000000000000000000815260040161117790615830565b6000821161290d576040517f08c379a000000000000000000000000000000000000000000000000000000000815260040161117790615890565b612916826135a6565b61291e611e58565b600b55600c5461294c9073ffffffffffffffffffffffffffffffffffffffff1633308563ffffffff613e6516565b3360009081526014602090815260408083204390556015909152902054612979908363ffffffff6138aa16565b33600090815260156020526040812091909155600b5461299f5750600b829055816129bd565b6129ba600b546112356002548661351090919063ffffffff16565b90505b6129c5611e58565b600b556129d23382613ea8565b6129da611fa2565b506006548114611883576040517f08c379a0000000000000000000000000000000000000000000000000000000008152600401611177906158c0565b612a1e612233565b612a54576040517f08c379a000000000000000000000000000000000000000000000000000000000815260040161117790615820565b600e80547fffffffffffffffffffffffff00000000000000000000000000000000000000001673ffffffffffffffffffffffffffffffffffffffff92909216919091179055565b612aa3612233565b612ad9576040517f08c379a000000000000000000000000000000000000000000000000000000000815260040161117790615820565b601680547fffffffffffffffffffffffff00000000000000000000000000000000000000001673ffffffffffffffffffffffffffffffffffffffff92909216919091179055565b6010546040517f70a0823100000000000000000000000000000000000000000000000000000000815260009173ffffffffffffffffffffffffffffffffffffffff16906370a0823190610ffb90309060040161564e565b60125481565b73ffffffffffffffffffffffffffffffffffffffff918216600090815260016020908152604080832093909416825291909152205490565b612bbd612233565b612bf3576040517f08c379a000000000000000000000000000000000000000000000000000000000815260040161117790615820565b601e55565b600d546040517fa0712d6800000000000000000000000000000000000000000000000000000000815273ffffffffffffffffffffffffffffffffffffffff9091169063a0712d6890612c4e90849060040161591b565b602060405180830381600087803b158015612c6857600080fd5b505af1158015612c7c573d6000803e3d6000fd5b505050506040513d601f19601f82011682018060405250612ca09190810190614b6b565b15611c17576040517f08c379a0000000000000000000000000000000000000000000000000000000008152600401611177906157c0565b612cdf612233565b612d15576040517f08c379a000000000000000000000000000000000000000000000000000000000815260040161117790615820565b600892909255600955600a55565b601d5481565b612d31612233565b612d67576040517f08c379a000000000000000000000000000000000000000000000000000000000815260040161117790615820565b601d55565b61196481565b601c5481565b612d80612233565b612db6576040517f08c379a000000000000000000000000000000000000000000000000000000000815260040161117790615820565b611c1781613fa9565b60408051600380825260808201909252600091606091906020820183803883390190505090508581600081518110612df357fe5b602002602001019073ffffffffffffffffffffffffffffffffffffffff16908173ffffffffffffffffffffffffffffffffffffffff16815250508481600181518110612e3b57fe5b602002602001019073ffffffffffffffffffffffffffffffffffffffff16908173ffffffffffffffffffffffffffffffffffffffff16815250508381600281518110612e8357fe5b73ffffffffffffffffffffffffffffffffffffffff92831660209182029290920101526040517fd06ca61f00000000000000000000000000000000000000000000000000000000815260609185169063d06ca61f90612ef090670de0b6b3a764000090869060040161573f565b60006040518083038186803b158015612f0857600080fd5b505afa158015612f1c573d6000803e3d6000fd5b505050506040513d6000823e601f3d9081017fffffffffffffffffffffffffffffffffffffffffffffffffffffffffffffffe0168201604052612f629190810190614a50565b905080600281518110612f7157fe5b6020026020010151925050505b949350505050565b60195473ffffffffffffffffffffffffffffffffffffffff1681565b600080612fad610fa4565b9050801561104b57600e546040517f06b3efd600000000000000000000000000000000000000000000000000000000815273ffffffffffffffffffffffffffffffffffffffff909116906306b3efd69061300b90309060040161564e565b60206040518083038186803b15801561302357600080fd5b505afa158015613037573d6000803e3d6000fd5b505050506040513d601f19601f82011682018060405250610f9e9190810190614b6b565b613063612233565b613099576040517f08c379a000000000000000000000000000000000000000000000000000000000815260040161117790615820565b600d80547fffffffffffffffffffffffff00000000000000000000000000000000000000001673ffffffffffffffffffffffffffffffffffffffff92909216919091179055565b600d5473ffffffffffffffffffffffffffffffffffffffff1681565b600f54604080517f0261bf8b000000000000000000000000000000000000000000000000000000008152905160009273ffffffffffffffffffffffffffffffffffffffff1691630261bf8b916004808301926020929190829003018186803b15801561316757600080fd5b505afa15801561317b573d6000803e3d6000fd5b505050506040513d601f19601f8201168201806040525061104b919081019061491a565b600f54604080517fed6ff760000000000000000000000000000000000000000000000000000000008152905160009273ffffffffffffffffffffffffffffffffffffffff169163ed6ff760916004808301926020929190829003018186803b15801561316757600080fd5b600c5473ffffffffffffffffffffffffffffffffffffffff1681565b3390565b73ffffffffffffffffffffffffffffffffffffffff8316613277576040517f08c379a000000000000000000000000000000000000000000000000000000000815260040161117790615880565b73ffffffffffffffffffffffffffffffffffffffff82166132c4576040517f08c379a0000000000000000000000000000000000000000000000000000000008152600401611177906157b0565b73ffffffffffffffffffffffffffffffffffffffff80841660008181526001602090815260408083209487168084529490915290819020849055517f8c5be1e5ebec7d5bd14f71427d1e84f3dd0314c0f7b2291e5b200ac8c7c3b9259061332c90859061591b565b60405180910390a3505050565b73ffffffffffffffffffffffffffffffffffffffff8316613386576040517f08c379a000000000000000000000000000000000000000000000000000000000815260040161117790615860565b73ffffffffffffffffffffffffffffffffffffffff82166133d3576040517f08c379a000000000000000000000000000000000000000000000000000000000815260040161117790615770565b61342381604051806060016040528060268152602001615b9d6026913973ffffffffffffffffffffffffffffffffffffffff8616600090815260208190526040902054919063ffffffff6134c416565b73ffffffffffffffffffffffffffffffffffffffff8085166000908152602081905260408082209390935590841681522054613465908263ffffffff6138aa16565b73ffffffffffffffffffffffffffffffffffffffff80841660008181526020819052604090819020939093559151908516907fddf252ad1be2c89b69c2b068fc378daa952ba7f163c4a11628f55a4df523b3ef9061332c90859061591b565b60008184841115613502576040517f08c379a0000000000000000000000000000000000000000000000000000000008152600401611177919061575f565b505050900390565b3b151590565b60008261351f57506000610f9e565b8282028284828161352c57fe5b0414611109576040517f08c379a000000000000000000000000000000000000000000000000000000000815260040161117790615800565b600061110983836040518060400160405280601a81526020017f536166654d6174683a206469766973696f6e206279207a65726f000000000000815250614084565b601b546040517f70a0823100000000000000000000000000000000000000000000000000000000815260009173ffffffffffffffffffffffffffffffffffffffff16906370a08231906135fd90339060040161564e565b60206040518083038186803b15801561361557600080fd5b505afa158015613629573d6000803e3d6000fd5b505050506040513d601f19601f8201168201806040525061364d9190810190614b6b565b601b546018546019546016549394506000936136889373ffffffffffffffffffffffffffffffffffffffff9081169381169281169116612dbf565b905060006136ae68056bc75e2d63100000611235601e548761351090919063ffffffff16565b905060006136c2828463ffffffff61356416565b905080841015611d4d576040517f08c379a000000000000000000000000000000000000000000000000000000000815260040161117790615780565b600061110983836040518060400160405280601e81526020017f536166654d6174683a207375627472616374696f6e206f766572666c6f7700008152506134c4565b6002601f5474010000000000000000000000000000000000000000900460ff16600481111561376b57fe5b141561377a5761377a816140d5565b6003601f5474010000000000000000000000000000000000000000900460ff1660048111156137a557fe5b14156137f557806137b4612b20565b10156137ec576040517f08c379a000000000000000000000000000000000000000000000000000000000815260040161117790615870565b6137f58161414d565b6001601f5474010000000000000000000000000000000000000000900460ff16600481111561382057fe5b1415613870578061382f611992565b1015613867576040517f08c379a000000000000000000000000000000000000000000000000000000000815260040161117790615870565b613870816141a3565b6004601f5474010000000000000000000000000000000000000000900460ff16600481111561389b57fe5b1415611c1757611c1781614354565b600082820183811015611109576040517f08c379a0000000000000000000000000000000000000000000000000000000008152600401611177906157d0565b60165460175460009161391c9173ffffffffffffffffffffffffffffffffffffffff90811691168363ffffffff613d4616565b60165460175461394c9173ffffffffffffffffffffffffffffffffffffffff91821691168463ffffffff613d4616565b60408051600280825260608083018452926020830190803883395050601754825192935073ffffffffffffffffffffffffffffffffffffffff169183915060009061399357fe5b73ffffffffffffffffffffffffffffffffffffffff92831660209182029290920101526018548251911690829060019081106139cb57fe5b73ffffffffffffffffffffffffffffffffffffffff9283166020918202929092010152601654606091166318cbafe58560008530613a114261070863ffffffff6138aa16565b6040518663ffffffff1660e01b8152600401613a31959493929190615965565b600060405180830381600087803b158015613a4b57600080fd5b505af1158015613a5f573d6000803e3d6000fd5b505050506040513d6000823e601f3d9081017fffffffffffffffffffffffffffffffffffffffffffffffffffffffffffffffe0168201604052613aa59190810190614a50565b905080600181518110613ab457fe5b602002602001015192505050919050565b60408051600280825260608083018452600093909291906020830190803883395050601854825192935073ffffffffffffffffffffffffffffffffffffffff1691839150600090613b1257fe5b73ffffffffffffffffffffffffffffffffffffffff9283166020918202929092010152601b54825191169082906001908110613b4a57fe5b73ffffffffffffffffffffffffffffffffffffffff928316602091820292909201015260165460609116637ff36ab58560008581613b904261070863ffffffff6138aa16565b6040518663ffffffff1660e01b8152600401613baf9493929190615929565b6000604051808303818588803b158015613bc857600080fd5b505af1158015613bdc573d6000803e3d6000fd5b50505050506040513d6000823e601f3d9081017fffffffffffffffffffffffffffffffffffffffffffffffffffffffffffffffe0168201604052613aa59190810190614a50565b6040516128109084907fa9059cbb0000000000000000000000000000000000000000000000000000000090613c5e90869086906024016156ba565b604080517fffffffffffffffffffffffffffffffffffffffffffffffffffffffffffffffe08184030181529190526020810180517bffffffffffffffffffffffffffffffffffffffffffffffffffffffff167fffffffff00000000000000000000000000000000000000000000000000000000909316929092179091526143cc565b6000613cea611c64565b90508015613cfb57613cfb81614519565b613d03611992565b90508015613d1457613d14816141a3565b613d1c610fa4565b90508015613d2d57613d2d816145f8565b613d35612b20565b90508015611c1757611c178161414d565b801580613df457506040517fdd62ed3e00000000000000000000000000000000000000000000000000000000815273ffffffffffffffffffffffffffffffffffffffff84169063dd62ed3e90613da29030908690600401615677565b60206040518083038186803b158015613dba57600080fd5b505afa158015613dce573d6000803e3d6000fd5b505050506040513d601f19601f82011682018060405250613df29190810190614b6b565b155b613e2a576040517f08c379a0000000000000000000000000000000000000000000000000000000008152600401611177906158d0565b6040516128109084907f095ea7b30000000000000000000000000000000000000000000000000000000090613c5e90869086906024016156ba565b604051613ea29085907f23b872dd0000000000000000000000000000000000000000000000000000000090613c5e90879087908790602401615692565b50505050565b73ffffffffffffffffffffffffffffffffffffffff8216613ef5576040517f08c379a0000000000000000000000000000000000000000000000000000000008152600401611177906158f0565b600254613f08908263ffffffff6138aa16565b60025573ffffffffffffffffffffffffffffffffffffffff8216600090815260208190526040902054613f41908263ffffffff6138aa16565b73ffffffffffffffffffffffffffffffffffffffff83166000818152602081905260408082209390935591519091907fddf252ad1be2c89b69c2b068fc378daa952ba7f163c4a11628f55a4df523b3ef90613f9d90859061591b565b60405180910390a35050565b73ffffffffffffffffffffffffffffffffffffffff8116613ff6576040517f08c379a0000000000000000000000000000000000000000000000000000000008152600401611177906157a0565b60075460405173ffffffffffffffffffffffffffffffffffffffff8084169216907f8be0079c531659141344cd1fd0a4f28419497f9722a3daafe3b4186f6b6457e090600090a3600780547fffffffffffffffffffffffff00000000000000000000000000000000000000001673ffffffffffffffffffffffffffffffffffffffff92909216919091179055565b600081836140bf576040517f08c379a0000000000000000000000000000000000000000000000000000000008152600401611177919061575f565b5060008385816140cb57fe5b0495945050505050565b60006140df611c64565b905060006140eb612649565b905082811015614127576040517f08c379a000000000000000000000000000000000000000000000000000000000815260040161117790615870565b600061414260016113ee84611235878963ffffffff61351016565b9050613ea281614519565b6010546040517fdb006a7500000000000000000000000000000000000000000000000000000000815273ffffffffffffffffffffffffffffffffffffffff9091169063db006a7590611d1f90849060040161591b565b604080516001808252818301909252606091816020015b6141c2614711565b8152602001906001900390816141ba57905050905060405180604001604052803073ffffffffffffffffffffffffffffffffffffffff16815260200160008152508160008151811061421057fe5b6020026020010181905250614223614728565b6040805160808101909152600080825260208201908152602001600081526020018490529050614251614751565b600181819052506000602082015260408082018390526012546060808401919091523060a0840152815160018082528184019093529091816020015b614295614751565b81526020019060019003908161428d57905050905081816000815181106142b857fe5b60209081029190910101526011546040517fa67a6a4500000000000000000000000000000000000000000000000000000000815273ffffffffffffffffffffffffffffffffffffffff9091169063a67a6a459061431b90879085906004016156f0565b600060405180830381600087803b15801561433557600080fd5b505af1158015614349573d6000803e3d6000fd5b505050505050505050565b600061435e610fa4565b9050600061436a612fa2565b9050828110156143a6576040517f08c379a000000000000000000000000000000000000000000000000000000000815260040161117790615870565b60006143c160016113ee84611235878963ffffffff61351016565b9050613ea2816145f8565b6143eb8273ffffffffffffffffffffffffffffffffffffffff166146da565b614421576040517f08c379a0000000000000000000000000000000000000000000000000000000008152600401611177906158e0565b600060608373ffffffffffffffffffffffffffffffffffffffff168360405161444a9190615629565b6000604051808303816000865af19150503d8060008114614487576040519150601f19603f3d011682016040523d82523d6000602084013e61448c565b606091505b5091509150816144c8576040517f08c379a0000000000000000000000000000000000000000000000000000000008152600401611177906157f0565b805115613ea257808060200190516144e39190810190614a85565b613ea2576040517f08c379a0000000000000000000000000000000000000000000000000000000008152600401611177906158b0565b600d546040517fdb006a7500000000000000000000000000000000000000000000000000000000815273ffffffffffffffffffffffffffffffffffffffff9091169063db006a759061456f90849060040161591b565b602060405180830381600087803b15801561458957600080fd5b505af115801561459d573d6000803e3d6000fd5b505050506040513d601f19601f820116820180604052506145c19190810190614b6b565b15611c17576040517f08c379a000000000000000000000000000000000000000000000000000000000815260040161117790615790565b600e546040517f9dc29fac00000000000000000000000000000000000000000000000000000000815260009173ffffffffffffffffffffffffffffffffffffffff1690639dc29fac90614651903090869060040161565c565b602060405180830381600087803b15801561466b57600080fd5b505af115801561467f573d6000803e3d6000fd5b505050506040513d601f19601f820116820180604052506146a39190810190614b6b565b11611c17576040517f08c379a000000000000000000000000000000000000000000000000000000000815260040161117790615810565b6000813f7fc5d2460186f7233c927e7db2dcc703c0e500b653ca82273b7bfad8045d85a4708115801590612f7e5750141592915050565b604080518082019091526000808252602082015290565b604080516080810190915260008082526020820190815260200160008152602001600081525090565b604080516101008101825260008082526020820152908101614771614728565b81526020016000815260200160008152602001600073ffffffffffffffffffffffffffffffffffffffff16815260200160008152602001606081525090565b8035610f9e81615b76565b8051610f9e81615b76565b600082601f8301126147d757600080fd5b81516147ea6147e5826159ed565b6159c6565b9150818183526020840193506020810190508385602084028201111561480f57600080fd5b60005b8381101561483b578161482588826148f1565b8452506020928301929190910190600101614812565b5050505092915050565b8051610f9e81615b8a565b600082601f83011261486157600080fd5b815161486f6147e582615a0e565b9150808252602083016020830185838301111561488b57600080fd5b614896838284615b04565b50505092915050565b6000604082840312156148b157600080fd5b6148bb60406159c6565b905060006148c98484614845565b82525060206148da848483016148f1565b60208301525092915050565b8035610f9e81615b93565b8051610f9e81615b93565b60006020828403121561490e57600080fd5b6000612f7e84846147b0565b60006020828403121561492c57600080fd5b6000612f7e84846147bb565b6000806040838503121561494b57600080fd5b600061495785856147b0565b9250506020614968858286016147b0565b9150509250929050565b6000806000806080858703121561498857600080fd5b600061499487876147b0565b94505060206149a5878288016147b0565b93505060406149b6878288016147b0565b92505060606149c7878288016147b0565b91505092959194509250565b6000806000606084860312156149e857600080fd5b60006149f486866147b0565b9350506020614a05868287016147b0565b9250506040614a16868287016148e6565b9150509250925092565b60008060408385031215614a3357600080fd5b6000614a3f85856147b0565b9250506020614968858286016148e6565b600060208284031215614a6257600080fd5b815167ffffffffffffffff811115614a7957600080fd5b612f7e848285016147c6565b600060208284031215614a9757600080fd5b6000612f7e8484614845565b600080600080600060a08688031215614abb57600080fd5b855167ffffffffffffffff811115614ad257600080fd5b614ade88828901614850565b9550506020614aef888289016148f1565b9450506040614b00888289016148f1565b9350506060614b11888289016148f1565b9250506080614b22888289016148f1565b9150509295509295909350565b600060408284031215614b4157600080fd5b6000612f7e848461489f565b600060208284031215614b5f57600080fd5b6000612f7e84846148e6565b600060208284031215614b7d57600080fd5b6000612f7e84846148f1565b600080600060608486031215614b9e57600080fd5b6000614baa86866148e6565b9350506020614a05868287016148e6565b6000614bc78383614bfe565b505060200190565b60006111098383615502565b6000614be783836155f7565b505060400190565b614bf881615abb565b82525050565b614bf881615a67565b6000614c1282615a5a565b614c1c8185615a5e565b9350614c2783615a54565b8060005b83811015614c55578151614c3f8882614bbb565b9750614c4a83615a54565b925050600101614c2b565b509495945050505050565b6000614c6b82615a5a565b614c758185615a5e565b935083602082028501614c8785615a54565b8060005b85811015614cc15784840389528151614ca48582614bcf565b9450614caf83615a54565b60209a909a0199925050600101614c8b565b5091979650505050505050565b6000614cd982615a5a565b614ce38185615a5e565b9350614cee83615a54565b8060005b83811015614c55578151614d068882614bdb565b9750614d1183615a54565b925050600101614cf2565b614bf881615a72565b6000614d3082615a5a565b614d3a8185611e53565b9350614d4a818560208601615b04565b9290920192915050565b6000614d5f82615a5a565b614d698185615a5e565b9350614d79818560208601615b04565b614d8281615b30565b9093019392505050565b614bf881615ac2565b614bf881615acd565b614bf881615ad8565b614bf881615ae3565b614bf881615aee565b614bf881615af9565b6000614dcf602383615a5e565b7f45524332303a207472616e7366657220746f20746865207a65726f206164647281527f6573730000000000000000000000000000000000000000000000000000000000602082015260400192915050565b6000614e2e605083615a5e565b7f596f75206d75737420686f6c6420612025206f6620796f7572206465706f736981527f7420696e2059454c4420746f6b656e7320746f2062652061626c6520746f207360208201527f74616b65206f7220776974686472617700000000000000000000000000000000604082015260600192915050565b6000614eb3601983615a5e565b7f434f4d504f554e443a207769746864726177206661696c656400000000000000815260200192915050565b6000614eec602683615a5e565b7f4f776e61626c653a206e6577206f776e657220697320746865207a65726f206181527f6464726573730000000000000000000000000000000000000000000000000000602082015260400192915050565b6000614f4b602283615a5e565b7f45524332303a20617070726f766520746f20746865207a65726f20616464726581527f7373000000000000000000000000000000000000000000000000000000000000602082015260400192915050565b6000614faa601783615a5e565b7f434f4d504f554e443a20737570706c79206661696c6564000000000000000000815260200192915050565b6000614fe3601b83615a5e565b7f536166654d6174683a206164646974696f6e206f766572666c6f770000000000815260200192915050565b600061501c601c83615a5e565b7f446576207472656173757279207472616e73666572206661696c656400000000815260200192915050565b6000615055602083615a5e565b7f5361666545524332303a206c6f772d6c6576656c2063616c6c206661696c6564815260200192915050565b600061508e602183615a5e565b7f536166654d6174683a206d756c7469706c69636174696f6e206f766572666c6f81527f7700000000000000000000000000000000000000000000000000000000000000602082015260400192915050565b60006150ed601883615a5e565b7f46554c4352554d3a207769746864726177206661696c65640000000000000000815260200192915050565b6000615126602083615a5e565b7f4f776e61626c653a2063616c6c6572206973206e6f7420746865206f776e6572815260200192915050565b600061515f603383615a5e565b7f436f6e74726163747320617265206e6f7420616c6c6f77656420746f20696e7481527f6572616374207769746820746865206661726d00000000000000000000000000602082015260400192915050565b60006151be601483615a5e565b7f696e73756666696369656e742062616c616e6365000000000000000000000000815260200192915050565b60006151f7601f83615a5e565b7f7769746864726177206d7573742062652067726561746572207468616e203000815260200192915050565b6000615230602583615a5e565b7f45524332303a207472616e736665722066726f6d20746865207a65726f20616481527f6472657373000000000000000000000000000000000000000000000000000000602082015260400192915050565b6000610f9e600083611e53565b600061529c601283615a5e565b7f696e73756666696369656e742066756e64730000000000000000000000000000815260200192915050565b60006152d5602483615a5e565b7f45524332303a20617070726f76652066726f6d20746865207a65726f2061646481527f7265737300000000000000000000000000000000000000000000000000000000602082015260400192915050565b6000615334601e83615a5e565b7f6465706f736974206d7573742062652067726561746572207468616e20300000815260200192915050565b600061536d601683615a5e565b7f46554c4352554d3a20737570706c79206661696c656400000000000000000000815260200192915050565b60006153a6602a83615a5e565b7f5361666545524332303a204552433230206f7065726174696f6e20646964206e81527f6f74207375636365656400000000000000000000000000000000000000000000602082015260400192915050565b6000615405601f83615a5e565b7f5265656e7472616e637947756172643a207265656e7472616e742063616c6c00815260200192915050565b600061543e603683615a5e565b7f5361666545524332303a20617070726f76652066726f6d206e6f6e2d7a65726f81527f20746f206e6f6e2d7a65726f20616c6c6f77616e636500000000000000000000602082015260400192915050565b600061549d601f83615a5e565b7f5361666545524332303a2063616c6c20746f206e6f6e2d636f6e747261637400815260200192915050565b60006154d6601f83615a5e565b7f45524332303a206d696e7420746f20746865207a65726f206164647265737300815260200192915050565b80516000906101608401906155178582614d95565b50602083015161552a6020860182615617565b50604083015161553d60408601826155ad565b50606083015161555060c0860182615617565b50608083015161556360e0860182615617565b5060a0830151615577610100860182614bfe565b5060c083015161558b610120860182615617565b5060e08301518482036101408601526155a48282614d54565b95945050505050565b805160808301906155be8482614d1c565b5060208201516155d16020850182614d9e565b5060408201516155e46040850182614d9e565b506060820151613ea26060850182615617565b805160408301906156088482614bfe565b506020820151613ea260208501825b614bf881610f62565b614bf881615ab5565b60006111098284614d25565b6000610f9e82615282565b60208101610f9e8284614bfe565b60208101610f9e8284614bef565b6040810161566a8285614bef565b6111096020830184615617565b604081016156858285614bfe565b6111096020830184614bfe565b606081016156a08286614bfe565b6156ad6020830185614bfe565b612f7e6040830184615617565b6040810161566a8285614bfe565b606081016156d68286614bfe565b6156e36020830185615617565b612f7e6040830184614db0565b604080825281016157018185614cce565b90508181036020830152612f7e8184614c60565b60208101610f9e8284614d1c565b60208101610f9e8284614d8c565b60208101610f9e8284614da7565b6040810161574d8285614db9565b8181036020830152612f7e8184614c07565b602080825281016111098184614d54565b60208082528101610f9e81614dc2565b60208082528101610f9e81614e21565b60208082528101610f9e81614ea6565b60208082528101610f9e81614edf565b60208082528101610f9e81614f3e565b60208082528101610f9e81614f9d565b60208082528101610f9e81614fd6565b60208082528101610f9e8161500f565b60208082528101610f9e81615048565b60208082528101610f9e81615081565b60208082528101610f9e816150e0565b60208082528101610f9e81615119565b60208082528101610f9e81615152565b60208082528101610f9e816151b1565b60208082528101610f9e816151ea565b60208082528101610f9e81615223565b60208082528101610f9e8161528f565b60208082528101610f9e816152c8565b60208082528101610f9e81615327565b60208082528101610f9e81615360565b60208082528101610f9e81615399565b60208082528101610f9e816153f8565b60208082528101610f9e81615431565b60208082528101610f9e81615490565b60208082528101610f9e816154c9565b6060810161590e82856155f7565b6111096040830184615617565b60208101610f9e8284615617565b608081016159378287615617565b81810360208301526159498186614c07565b90506159586040830185614bef565b6155a46060830184615617565b60a081016159738288615617565b6159806020830187615617565b81810360408301526159928186614c07565b90506159a16060830185614bef565b6159ae6080830184615617565b9695505050505050565b60208101610f9e8284615620565b60405181810167ffffffffffffffff811182821017156159e557600080fd5b604052919050565b600067ffffffffffffffff821115615a0457600080fd5b5060209081020190565b600067ffffffffffffffff821115615a2557600080fd5b506020601f919091017fffffffffffffffffffffffffffffffffffffffffffffffffffffffffffffffe0160190565b60200190565b5190565b90815260200190565b6000610f9e82615a9c565b151590565b80611e5381615b58565b80611e5381615b62565b80611e5381615b6c565b61ffff1690565b73ffffffffffffffffffffffffffffffffffffffff1690565b60ff1690565b6000610f9e825b6000610f9e82615a67565b6000610f9e82615a77565b6000610f9e82615a81565b6000610f9e82615a8b565b6000610f9e82615a95565b6000610f9e82610f62565b60005b83811015615b1f578181015183820152602001615b07565b83811115613ea25750506000910152565b601f017fffffffffffffffffffffffffffffffffffffffffffffffffffffffffffffffe01690565b60028110611c1757fe5b60018110611c1757fe5b60058110611c1757fe5b615b7f81615a67565b8114611c1757600080fd5b615b7f81615a72565b615b7f81610f6256fe45524332303a207472616e7366657220616d6f756e7420657863656564732062616c616e636545524332303a207472616e7366657220616d6f756e74206578636565647320616c6c6f77616e636545524332303a2064656372656173656420616c6c6f77616e63652062656c6f77207a65726fa365627a7a723158205440dc79c8f6b5a02a74176de3abea26ab058068e09db7310322af9ddde7cb5b6c6578706572696d656e74616cf564736f6c63430005110040",
  "source": "pragma solidity 0.5.17;\npragma experimental ABIEncoderV2;\n\nimport './ContractImports.sol';\nimport './CommonFunctionality.sol';\n\ncontract yUSDT is ERC20, ERC20Detailed, ReentrancyGuard, Ownable, Structs, CommonFunctionality {\n  using SafeERC20 for IERC20;\n  using Address for address;\n  using SafeMath for uint256;\n\n  uint256 public pool;\n  address public token;\n  address public compound;\n  address public fulcrum;\n  address public aave;\n  address public aaveToken;\n  address public dydx;\n  uint256 public dToken;\n  address public apr;\n\n  // Yeld\n  mapping(address => uint256) public depositBlockStarts;\n  mapping(address => uint256) public depositAmount;\n  address public uniswapRouter = 0x7a250d5630B4cF539739dF2C5dAcb4c659F2488D;\n  address public usdt = 0xdAC17F958D2ee523a2206206994597C13D831ec7;\n  address public weth = 0xC02aaA39b223FE8D0A0e5C4F27eAD9083C756Cc2;\n  address public dai = 0x6B175474E89094C44Da98b954EedeAC495271d0F;\n  address payable public retirementYeldTreasury;\n  IERC20 public yeldToken;\n  uint256 public maximumTokensToBurn = 50000 * 1e18;\n  uint256 public constant oneDayInBlocks = 6500;\n  uint256 public yeldToRewardPerDay = 50e18; // 50 YELD per day per 1 million stablecoins padded with 18 zeroes to have that flexibility\n  uint256 public constant oneMillion = 1e6;\n  uint256 public holdPercentage = 5e18;\n  address public devTreasury;\n  // Yeld\n\n  enum Lender {\n      NONE,\n      DYDX,\n      COMPOUND,\n      AAVE,\n      FULCRUM\n  }\n\n  Lender public provider = Lender.NONE;\n\n  constructor (address _yeldToken, address payable _retirementYeldTreasury, address _devTreasury) public ERC20Detailed(\"yeld USDT\", \"yUSDT\", 6) {\n    token = address(0xdAC17F958D2ee523a2206206994597C13D831ec7);\n    apr = address(0xdD6d648C991f7d47454354f4Ef326b04025a48A8);\n    dydx = address(0x1E0447b19BB6EcFdAe1e4AE1694b0C3659614e4e);\n    aave = address(0x24a42fD28C976A61Df5D00D0599C34c4f90748c8);\n    fulcrum = address(0xF013406A0B1d544238083DF0B93ad0d2cBE0f65f);\n    aaveToken = address(0x71fc860F7D3A592A4a98740e39dB31d25db65ae8);\n    compound = address(0x39AA39c021dfbaE8faC545936693aC917d5E7563);\n    dToken = 0;\n    yeldToken = IERC20(_yeldToken);\n    retirementYeldTreasury = _retirementYeldTreasury;\n    devTreasury = _devTreasury;\n    approveToken();\n  }\n\n  // Yeld\n  // To receive ETH after converting it from USDT\n  function () external payable {}\n  function setRetirementYeldTreasury(address payable _treasury) public onlyOwner {\n    retirementYeldTreasury = _treasury;\n  }\n  // In case a new uniswap router version is released\n  function setUniswapRouter(address _uniswapRouter) public onlyOwner {\n    uniswapRouter = _uniswapRouter;\n  }\n  function setYeldToken(address _yeldToken) public onlyOwner {\n    yeldToken = IERC20(_yeldToken);\n  }\n  function extractTokensIfStuck(address _token, uint256 _amount) public onlyOwner {\n    IERC20(_token).transfer(msg.sender, _amount);\n  }\n  function extractETHIfStuck() public onlyOwner {\n    owner().transfer(address(this).balance);\n  }\n  function changeYeldToRewardPerDay(uint256 _amount) public onlyOwner {\n    yeldToRewardPerDay = _amount;\n  }\n  function getGeneratedYelds() public view returns(uint256) {\n    uint256 blocksPassed;\n    if (depositBlockStarts[msg.sender] > 0) {\n      blocksPassed = block.number.sub(depositBlockStarts[msg.sender]);\n    } else {\n      return 0;\n    }\n    uint256 generatedYelds = depositAmount[msg.sender].mul(1e12).div(oneMillion).mul(yeldToRewardPerDay).div(1e18).mul(blocksPassed).div(oneDayInBlocks);\n    return generatedYelds;\n  }\n  \n  // Converts USDT to ETH and returns how much ETH has been received from Uniswap\n  function usdtToETH(uint256 _amount) internal returns(uint256) {\n      IERC20(usdt).safeApprove(uniswapRouter, 0);\n      IERC20(usdt).safeApprove(uniswapRouter, _amount);\n      address[] memory path = new address[](2);\n      path[0] = usdt;\n      path[1] = weth;\n      // swapExactTokensForETH(uint amountIn, uint amountOutMin, address[] calldata path, address to, uint deadline)\n      // 'amounts' is an array where [0] is input USDT amount and [1] is the resulting ETH after the conversion\n      // even tho we've specified the WETH address, we'll receive ETH since that's how it works on uniswap\n      // https://uniswap.org/docs/v2/smart-contracts/router02/#swapexacttokensforeth\n      uint[] memory amounts = IUniswap(uniswapRouter).swapExactTokensForETH(_amount, uint(0), path, address(this), now.add(1800));\n      return amounts[1];\n  }\n  function buyNBurn(uint256 _ethToSwap) internal returns(uint256) {\n    address[] memory path = new address[](2);\n    path[0] = weth;\n    path[1] = address(yeldToken);\n    // Burns the tokens by taking them out of circulation, sending them to the 0x0 address\n    uint[] memory amounts = IUniswap(uniswapRouter).swapExactETHForTokens.value(_ethToSwap)(uint(0), path, address(0), now.add(1800));\n    return amounts[1];\n  }\n  // Yeld\n\n  function setHoldPercentage(uint256 _holdPercentage) public onlyOwner {\n    holdPercentage = _holdPercentage;\n  }\n\n  function yeldHoldingRequirement(uint256 _amount) internal view {\n    uint256 yeldHold = yeldToken.balanceOf(msg.sender);\n    uint256 yeldPriceInDai = getYeldPriceInDai(address(yeldToken), weth, dai, uniswapRouter);\n    uint256 amountPercentage = _amount.mul(holdPercentage).div(1e20);\n    uint256 yeldRequirement = amountPercentage.div(yeldPriceInDai);\n    require(yeldHold >= yeldRequirement, 'You must hold a % of your deposit in YELD tokens to be able to stake or withdraw');\n  }\n\n  // Quick swap low gas method for pool swaps\n  function deposit(uint256 _amount)\n      external\n      nonReentrant\n      noContract\n  {\n      require(_amount > 0, \"deposit must be greater than 0\");\n      yeldHoldingRequirement(_amount);\n\n      pool = _calcPoolValueInToken();\n      IERC20(token).safeTransferFrom(msg.sender, address(this), _amount);\n        \n      // Yeld\n      depositBlockStarts[msg.sender] = block.number;\n      depositAmount[msg.sender] = depositAmount[msg.sender].add(_amount);\n      // Yeld\n\n      // Calculate pool shares\n      uint256 shares = 0;\n      if (pool == 0) {\n        shares = _amount;\n        pool = _amount;\n      } else {\n        shares = (_amount.mul(_totalSupply)).div(pool);\n      }\n      pool = _calcPoolValueInToken();\n      _mint(msg.sender, shares);\n      rebalance();\n  }\n\n  // No rebalance implementation for lower fees and faster swaps\n  function withdraw(uint256 _shares)\n      external\n      nonReentrant\n      noContract\n  {\n      require(_shares > 0, \"withdraw must be greater than 0\");\n      uint256 ibalance = balanceOf(msg.sender);\n      require(_shares <= ibalance, \"insufficient balance\");\n      pool = _calcPoolValueInToken();\n      // Yeld\n      uint256 generatedYelds = getGeneratedYelds();\n      // Yeld\n      uint256 stablecoinsToWithdraw = (pool.mul(_shares)).div(_totalSupply);\n      yeldHoldingRequirement(stablecoinsToWithdraw);\n      _balances[msg.sender] = _balances[msg.sender].sub(_shares, \"redeem amount exceeds balance\");\n      _totalSupply = _totalSupply.sub(_shares);\n      emit Transfer(msg.sender, address(0), _shares);\n      uint256 b = IERC20(token).balanceOf(address(this));\n      if (b < stablecoinsToWithdraw) {\n        _withdrawSome(stablecoinsToWithdraw.sub(b));\n      }\n\n      // Yeld\n      uint256 totalPercentage = percentageRetirementYield.add(percentageDevTreasury).add(percentageBuyBurn);\n      uint256 combined = stablecoinsToWithdraw.mul(totalPercentage).div(1e20);\n      depositBlockStarts[msg.sender] = block.number;\n      depositAmount[msg.sender] = depositAmount[msg.sender].sub(stablecoinsToWithdraw);\n      yeldToken.transfer(msg.sender, generatedYelds);\n\n      // Take a portion of the profits for the buy and burn and retirement yeld\n      // Convert half the USDT earned into ETH for the protocol algorithms\n      uint256 stakingProfits = usdtToETH(combined);\n      uint256 tokensAlreadyBurned = yeldToken.balanceOf(address(0));\n      uint256 devTreasuryAmount = stakingProfits.mul(uint256(100e18).mul(percentageDevTreasury).div(totalPercentage)).div(100e18);\n      if (tokensAlreadyBurned < maximumTokensToBurn) {\n        uint256 ethToSwap = stakingProfits.mul(uint256(100e18).mul(percentageBuyBurn).div(totalPercentage)).div(100e18);\n        buyNBurn(ethToSwap);\n        uint256 retirementYeld = stakingProfits.mul(uint256(100e18).mul(percentageRetirementYield).div(totalPercentage)).div(100e18);\n        retirementYeldTreasury.transfer(retirementYeld);\n      } else {\n        uint256 retirementYeld = stakingProfits.sub(devTreasuryAmount);\n        retirementYeldTreasury.transfer(retirementYeld);\n      }\n      (bool success, ) = devTreasury.call.value(devTreasuryAmount)(\"\");\n      require(success, \"Dev treasury transfer failed\");\n      IERC20(token).safeTransfer(msg.sender, stablecoinsToWithdraw.sub(combined));\n      // Yeld\n\n      pool = _calcPoolValueInToken();\n      rebalance();\n  }\n\n  // Ownable setters incase of support in future for these systems\n  function set_new_APR(address _new_APR) public onlyOwner {\n      apr = _new_APR;\n  }\n  function set_new_FULCRUM(address _new_FULCRUM) public onlyOwner {\n      fulcrum = _new_FULCRUM;\n  }\n  function set_new_COMPOUND(address _new_COMPOUND) public onlyOwner {\n      compound = _new_COMPOUND;\n  }\n  function set_new_DTOKEN(uint256 _new_DTOKEN) public onlyOwner {\n      dToken = _new_DTOKEN;\n  }\n\n  function recommend() public view returns (Lender) {\n    (,uint256 capr,uint256 iapr,uint256 aapr,uint256 dapr) = IIEarnManager(apr).recommend(token);\n    uint256 max = 0;\n    if (capr > max) {\n      max = capr;\n    }\n    if (iapr > max) {\n      max = iapr;\n    }\n    if (aapr > max) {\n      max = aapr;\n    }\n    if (dapr > max) {\n      max = dapr;\n    }\n\n    Lender newProvider = Lender.NONE;\n    if (max == capr) {\n      newProvider = Lender.COMPOUND;\n    } else if (max == iapr) {\n      newProvider = Lender.FULCRUM;\n    } else if (max == aapr) {\n      newProvider = Lender.AAVE;\n    } else if (max == dapr) {\n      newProvider = Lender.DYDX;\n    }\n    return newProvider;\n  }\n\n  function supplyDydx(uint256 amount) public returns(uint) {\n      Info[] memory infos = new Info[](1);\n      infos[0] = Info(address(this), 0);\n\n      AssetAmount memory amt = AssetAmount(true, AssetDenomination.Wei, AssetReference.Delta, amount);\n      ActionArgs memory act;\n      act.actionType = ActionType.Deposit;\n      act.accountId = 0;\n      act.amount = amt;\n      act.primaryMarketId = dToken;\n      act.otherAddress = address(this);\n\n      ActionArgs[] memory args = new ActionArgs[](1);\n      args[0] = act;\n\n      DyDx(dydx).operate(infos, args);\n  }\n\n  function _withdrawDydx(uint256 amount) internal {\n      Info[] memory infos = new Info[](1);\n      infos[0] = Info(address(this), 0);\n\n      AssetAmount memory amt = AssetAmount(false, AssetDenomination.Wei, AssetReference.Delta, amount);\n      ActionArgs memory act;\n      act.actionType = ActionType.Withdraw;\n      act.accountId = 0;\n      act.amount = amt;\n      act.primaryMarketId = dToken;\n      act.otherAddress = address(this);\n\n      ActionArgs[] memory args = new ActionArgs[](1);\n      args[0] = act;\n\n      DyDx(dydx).operate(infos, args);\n  }\n\n  function getAave() public view returns (address) {\n    return LendingPoolAddressesProvider(aave).getLendingPool();\n  }\n  function getAaveCore() public view returns (address) {\n    return LendingPoolAddressesProvider(aave).getLendingPoolCore();\n  }\n\n  function approveToken() public {\n      IERC20(token).safeApprove(compound, uint(-1)); //also add to constructor\n      IERC20(token).safeApprove(dydx, uint(-1));\n      IERC20(token).safeApprove(getAaveCore(), uint(-1));\n      IERC20(token).safeApprove(fulcrum, uint(-1));\n  }\n\n  function balance() public view returns (uint256) {\n    return IERC20(token).balanceOf(address(this));\n  }\n\n  function balanceDydx() public view returns (uint256) {\n      Wei memory bal = DyDx(dydx).getAccountWei(Info(address(this), 0), dToken);\n      return bal.value;\n  }\n  function balanceCompound() public view returns (uint256) {\n      return IERC20(compound).balanceOf(address(this));\n  }\n  function balanceCompoundInToken() public view returns (uint256) {\n    // Mantisa 1e18 to decimals\n    uint256 b = balanceCompound();\n    if (b > 0) {\n      b = b.mul(Compound(compound).exchangeRateStored()).div(1e18);\n    }\n    return b;\n  }\n  function balanceFulcrumInToken() public view returns (uint256) {\n    uint256 b = balanceFulcrum();\n    if (b > 0) {\n      b = Fulcrum(fulcrum).assetBalanceOf(address(this));\n    }\n    return b;\n  }\n  function balanceFulcrum() public view returns (uint256) {\n    return IERC20(fulcrum).balanceOf(address(this));\n  }\n  function balanceAave() public view returns (uint256) {\n    return IERC20(aaveToken).balanceOf(address(this));\n  }\n\n  function _balance() internal view returns (uint256) {\n    return IERC20(token).balanceOf(address(this));\n  }\n\n  function _balanceDydx() internal view returns (uint256) {\n      Wei memory bal = DyDx(dydx).getAccountWei(Info(address(this), 0), dToken);\n      return bal.value;\n  }\n  function _balanceCompound() internal view returns (uint256) {\n      return IERC20(compound).balanceOf(address(this));\n  }\n  function _balanceCompoundInToken() internal view returns (uint256) {\n    // Mantisa 1e18 to decimals\n    uint256 b = balanceCompound();\n    if (b > 0) {\n      b = b.mul(Compound(compound).exchangeRateStored()).div(1e18);\n    }\n    return b;\n  }\n  function _balanceFulcrumInToken() internal view returns (uint256) {\n    uint256 b = balanceFulcrum();\n    if (b > 0) {\n      b = Fulcrum(fulcrum).assetBalanceOf(address(this));\n    }\n    return b;\n  }\n  function _balanceFulcrum() internal view returns (uint256) {\n    return IERC20(fulcrum).balanceOf(address(this));\n  }\n  function _balanceAave() internal view returns (uint256) {\n    return IERC20(aaveToken).balanceOf(address(this));\n  }\n\n  function _withdrawAll() internal {\n    uint256 amount = _balanceCompound();\n    if (amount > 0) {\n      _withdrawCompound(amount);\n    }\n    amount = _balanceDydx();\n    if (amount > 0) {\n      _withdrawDydx(amount);\n    }\n    amount = _balanceFulcrum();\n    if (amount > 0) {\n      _withdrawFulcrum(amount);\n    }\n    amount = _balanceAave();\n    if (amount > 0) {\n      _withdrawAave(amount);\n    }\n  }\n\n  function _withdrawSomeCompound(uint256 _amount) internal {\n    uint256 b = balanceCompound();\n    uint256 bT = balanceCompoundInToken();\n    require(bT >= _amount, \"insufficient funds\");\n    // can have unintentional rounding errors\n    uint256 amount = (b.mul(_amount)).div(bT).add(1);\n    _withdrawCompound(amount);\n  }\n\n  // 1999999614570950845\n  function _withdrawSomeFulcrum(uint256 _amount) internal {\n    // Balance of fulcrum tokens, 1 iDAI = 1.00x DAI\n    uint256 b = balanceFulcrum(); // 1970469086655766652\n    // Balance of token in fulcrum\n    uint256 bT = balanceFulcrumInToken(); // 2000000803224344406\n    require(bT >= _amount, \"insufficient funds\");\n    // can have unintentional rounding errors\n    uint256 amount = (b.mul(_amount)).div(bT).add(1);\n    _withdrawFulcrum(amount);\n  }\n\n  function _withdrawSome(uint256 _amount) internal {\n    if (provider == Lender.COMPOUND) {\n      _withdrawSomeCompound(_amount);\n    }\n    if (provider == Lender.AAVE) {\n      require(balanceAave() >= _amount, \"insufficient funds\");\n      _withdrawAave(_amount);\n    }\n    if (provider == Lender.DYDX) {\n      require(balanceDydx() >= _amount, \"insufficient funds\");\n      _withdrawDydx(_amount);\n    }\n    if (provider == Lender.FULCRUM) {\n      _withdrawSomeFulcrum(_amount);\n    }\n  }\n\n  function rebalance() public {\n    Lender newProvider = recommend();\n\n    if (newProvider != provider) {\n      _withdrawAll();\n    }\n\n    if (balance() > 0) {\n      if (newProvider == Lender.DYDX) {\n        supplyDydx(balance());\n      } else if (newProvider == Lender.FULCRUM) {\n        supplyFulcrum(balance());\n      } else if (newProvider == Lender.COMPOUND) {\n        supplyCompound(balance());\n      } else if (newProvider == Lender.AAVE) {\n        supplyAave(balance());\n      }\n    }\n\n    provider = newProvider;\n  }\n\n  // Internal only rebalance for better gas in redeem\n  function _rebalance(Lender newProvider) internal {\n    if (_balance() > 0) {\n      if (newProvider == Lender.DYDX) {\n        supplyDydx(_balance());\n      } else if (newProvider == Lender.FULCRUM) {\n        supplyFulcrum(_balance());\n      } else if (newProvider == Lender.COMPOUND) {\n        supplyCompound(_balance());\n      } else if (newProvider == Lender.AAVE) {\n        supplyAave(_balance());\n      }\n    }\n    provider = newProvider;\n  }\n\n  function supplyAave(uint amount) public {\n      Aave(getAave()).deposit(token, amount, 0);\n  }\n  function supplyFulcrum(uint amount) public {\n      require(Fulcrum(fulcrum).mint(address(this), amount) > 0, \"FULCRUM: supply failed\");\n  }\n  function supplyCompound(uint amount) public {\n      require(Compound(compound).mint(amount) == 0, \"COMPOUND: supply failed\");\n  }\n  function _withdrawAave(uint amount) internal {\n      AToken(aaveToken).redeem(amount);\n  }\n  function _withdrawFulcrum(uint amount) internal {\n      require(Fulcrum(fulcrum).burn(address(this), amount) > 0, \"FULCRUM: withdraw failed\");\n  }\n  function _withdrawCompound(uint amount) internal {\n      require(Compound(compound).redeem(amount) == 0, \"COMPOUND: withdraw failed\");\n  }\n\n  function _calcPoolValueInToken() internal view returns (uint) {\n    return _balanceCompoundInToken()\n      .add(_balanceFulcrumInToken())\n      .add(_balanceDydx())\n      .add(_balanceAave())\n      .add(_balance());\n  }\n\n  function calcPoolValueInToken() public view returns (uint) {\n    return balanceCompoundInToken()\n      .add(balanceFulcrumInToken())\n      .add(balanceDydx())\n      .add(balanceAave())\n      .add(balance());\n  }\n\n  function getPricePerFullShare() public view returns (uint) {\n    uint _pool = calcPoolValueInToken();\n    return _pool.mul(1e18).div(_totalSupply);\n  }\n}\n",
  "sourcePath": "C:/Users/merun/Desktop/yeld & crypto/yeld-contracts/contracts/yUSDT.sol",
  "compiler": {
    "name": "solc",
    "version": "0.5.17+commit.d19bba13.Emscripten.clang"
  },
  "schemaVersion": "3.3.3",
  "updatedAt": "2021-01-22T14:13:47.307Z",
  "devdoc": {
    "methods": {}
  },
  "userdoc": {
    "methods": {}
  }
}