{
  "contractName": "yUSDC",
  "abi": [
    {
      "inputs": [
        {
          "internalType": "address",
          "name": "_yeldToken",
          "type": "address"
        },
        {
          "internalType": "address payable",
          "name": "_retirementYeldTreasury",
          "type": "address"
        },
        {
          "internalType": "address",
          "name": "_devTreasury",
          "type": "address"
        }
      ],
      "payable": false,
      "stateMutability": "nonpayable",
      "type": "constructor"
    },
    {
      "anonymous": false,
      "inputs": [
        {
          "indexed": true,
          "internalType": "address",
          "name": "owner",
          "type": "address"
        },
        {
          "indexed": true,
          "internalType": "address",
          "name": "spender",
          "type": "address"
        },
        {
          "indexed": false,
          "internalType": "uint256",
          "name": "value",
          "type": "uint256"
        }
      ],
      "name": "Approval",
      "type": "event"
    },
    {
      "anonymous": false,
      "inputs": [
        {
          "indexed": true,
          "internalType": "address",
          "name": "previousOwner",
          "type": "address"
        },
        {
          "indexed": true,
          "internalType": "address",
          "name": "newOwner",
          "type": "address"
        }
      ],
      "name": "OwnershipTransferred",
      "type": "event"
    },
    {
      "anonymous": false,
      "inputs": [
        {
          "indexed": true,
          "internalType": "address",
          "name": "from",
          "type": "address"
        },
        {
          "indexed": true,
          "internalType": "address",
          "name": "to",
          "type": "address"
        },
        {
          "indexed": false,
          "internalType": "uint256",
          "name": "value",
          "type": "uint256"
        }
      ],
      "name": "Transfer",
      "type": "event"
    },
    {
      "payable": true,
      "stateMutability": "payable",
      "type": "fallback"
    },
    {
      "constant": true,
      "inputs": [],
      "name": "aave",
      "outputs": [
        {
          "internalType": "address",
          "name": "",
          "type": "address"
        }
      ],
      "payable": false,
      "stateMutability": "view",
      "type": "function"
    },
    {
      "constant": true,
      "inputs": [],
      "name": "aaveToken",
      "outputs": [
        {
          "internalType": "address",
          "name": "",
          "type": "address"
        }
      ],
      "payable": false,
      "stateMutability": "view",
      "type": "function"
    },
    {
      "constant": true,
      "inputs": [
        {
          "internalType": "address",
          "name": "owner",
          "type": "address"
        },
        {
          "internalType": "address",
          "name": "spender",
          "type": "address"
        }
      ],
      "name": "allowance",
      "outputs": [
        {
          "internalType": "uint256",
          "name": "",
          "type": "uint256"
        }
      ],
      "payable": false,
      "stateMutability": "view",
      "type": "function"
    },
    {
      "constant": false,
      "inputs": [
        {
          "internalType": "address",
          "name": "spender",
          "type": "address"
        },
        {
          "internalType": "uint256",
          "name": "amount",
          "type": "uint256"
        }
      ],
      "name": "approve",
      "outputs": [
        {
          "internalType": "bool",
          "name": "",
          "type": "bool"
        }
      ],
      "payable": false,
      "stateMutability": "nonpayable",
      "type": "function"
    },
    {
      "constant": true,
      "inputs": [],
      "name": "apr",
      "outputs": [
        {
          "internalType": "address",
          "name": "",
          "type": "address"
        }
      ],
      "payable": false,
      "stateMutability": "view",
      "type": "function"
    },
    {
      "constant": true,
      "inputs": [
        {
          "internalType": "address",
          "name": "account",
          "type": "address"
        }
      ],
      "name": "balanceOf",
      "outputs": [
        {
          "internalType": "uint256",
          "name": "",
          "type": "uint256"
        }
      ],
      "payable": false,
      "stateMutability": "view",
      "type": "function"
    },
    {
      "constant": true,
      "inputs": [],
      "name": "compound",
      "outputs": [
        {
          "internalType": "address",
          "name": "",
          "type": "address"
        }
      ],
      "payable": false,
      "stateMutability": "view",
      "type": "function"
    },
    {
      "constant": true,
      "inputs": [],
      "name": "dToken",
      "outputs": [
        {
          "internalType": "uint256",
          "name": "",
          "type": "uint256"
        }
      ],
      "payable": false,
      "stateMutability": "view",
      "type": "function"
    },
    {
      "constant": true,
      "inputs": [],
      "name": "dai",
      "outputs": [
        {
          "internalType": "address",
          "name": "",
          "type": "address"
        }
      ],
      "payable": false,
      "stateMutability": "view",
      "type": "function"
    },
    {
      "constant": true,
      "inputs": [],
      "name": "decimals",
      "outputs": [
        {
          "internalType": "uint8",
          "name": "",
          "type": "uint8"
        }
      ],
      "payable": false,
      "stateMutability": "view",
      "type": "function"
    },
    {
      "constant": false,
      "inputs": [
        {
          "internalType": "address",
          "name": "spender",
          "type": "address"
        },
        {
          "internalType": "uint256",
          "name": "subtractedValue",
          "type": "uint256"
        }
      ],
      "name": "decreaseAllowance",
      "outputs": [
        {
          "internalType": "bool",
          "name": "",
          "type": "bool"
        }
      ],
      "payable": false,
      "stateMutability": "nonpayable",
      "type": "function"
    },
    {
      "constant": true,
      "inputs": [
        {
          "internalType": "address",
          "name": "",
          "type": "address"
        }
      ],
      "name": "depositAmount",
      "outputs": [
        {
          "internalType": "uint256",
          "name": "",
          "type": "uint256"
        }
      ],
      "payable": false,
      "stateMutability": "view",
      "type": "function"
    },
    {
      "constant": true,
      "inputs": [
        {
          "internalType": "address",
          "name": "",
          "type": "address"
        }
      ],
      "name": "depositBlockStarts",
      "outputs": [
        {
          "internalType": "uint256",
          "name": "",
          "type": "uint256"
        }
      ],
      "payable": false,
      "stateMutability": "view",
      "type": "function"
    },
    {
      "constant": true,
      "inputs": [],
      "name": "devTreasury",
      "outputs": [
        {
          "internalType": "address",
          "name": "",
          "type": "address"
        }
      ],
      "payable": false,
      "stateMutability": "view",
      "type": "function"
    },
    {
      "constant": true,
      "inputs": [],
      "name": "dydx",
      "outputs": [
        {
          "internalType": "address",
          "name": "",
          "type": "address"
        }
      ],
      "payable": false,
      "stateMutability": "view",
      "type": "function"
    },
    {
      "constant": true,
      "inputs": [],
      "name": "fulcrum",
      "outputs": [
        {
          "internalType": "address",
          "name": "",
          "type": "address"
        }
      ],
      "payable": false,
      "stateMutability": "view",
      "type": "function"
    },
    {
      "constant": true,
      "inputs": [
        {
          "internalType": "address",
          "name": "_yeld",
          "type": "address"
        },
        {
          "internalType": "address",
          "name": "_weth",
          "type": "address"
        },
        {
          "internalType": "address",
          "name": "_dai",
          "type": "address"
        },
        {
          "internalType": "address",
          "name": "_uniswap",
          "type": "address"
        }
      ],
      "name": "getYeldPriceInDai",
      "outputs": [
        {
          "internalType": "uint256",
          "name": "",
          "type": "uint256"
        }
      ],
      "payable": false,
      "stateMutability": "view",
      "type": "function"
    },
    {
      "constant": true,
      "inputs": [],
      "name": "holdPercentage",
      "outputs": [
        {
          "internalType": "uint256",
          "name": "",
          "type": "uint256"
        }
      ],
      "payable": false,
      "stateMutability": "view",
      "type": "function"
    },
    {
      "constant": false,
      "inputs": [
        {
          "internalType": "address",
          "name": "spender",
          "type": "address"
        },
        {
          "internalType": "uint256",
          "name": "addedValue",
          "type": "uint256"
        }
      ],
      "name": "increaseAllowance",
      "outputs": [
        {
          "internalType": "bool",
          "name": "",
          "type": "bool"
        }
      ],
      "payable": false,
      "stateMutability": "nonpayable",
      "type": "function"
    },
    {
      "constant": true,
      "inputs": [],
      "name": "isOwner",
      "outputs": [
        {
          "internalType": "bool",
          "name": "",
          "type": "bool"
        }
      ],
      "payable": false,
      "stateMutability": "view",
      "type": "function"
    },
    {
      "constant": true,
      "inputs": [],
      "name": "maximumTokensToBurn",
      "outputs": [
        {
          "internalType": "uint256",
          "name": "",
          "type": "uint256"
        }
      ],
      "payable": false,
      "stateMutability": "view",
      "type": "function"
    },
    {
      "constant": true,
      "inputs": [],
      "name": "name",
      "outputs": [
        {
          "internalType": "string",
          "name": "",
          "type": "string"
        }
      ],
      "payable": false,
      "stateMutability": "view",
      "type": "function"
    },
    {
      "constant": true,
      "inputs": [],
      "name": "oneDayInBlocks",
      "outputs": [
        {
          "internalType": "uint256",
          "name": "",
          "type": "uint256"
        }
      ],
      "payable": false,
      "stateMutability": "view",
      "type": "function"
    },
    {
      "constant": true,
      "inputs": [],
      "name": "oneMillion",
      "outputs": [
        {
          "internalType": "uint256",
          "name": "",
          "type": "uint256"
        }
      ],
      "payable": false,
      "stateMutability": "view",
      "type": "function"
    },
    {
      "constant": true,
      "inputs": [],
      "name": "owner",
      "outputs": [
        {
          "internalType": "address payable",
          "name": "",
          "type": "address"
        }
      ],
      "payable": false,
      "stateMutability": "view",
      "type": "function"
    },
    {
      "constant": true,
      "inputs": [],
      "name": "percentageBuyBurn",
      "outputs": [
        {
          "internalType": "uint256",
          "name": "",
          "type": "uint256"
        }
      ],
      "payable": false,
      "stateMutability": "view",
      "type": "function"
    },
    {
      "constant": true,
      "inputs": [],
      "name": "percentageDevTreasury",
      "outputs": [
        {
          "internalType": "uint256",
          "name": "",
          "type": "uint256"
        }
      ],
      "payable": false,
      "stateMutability": "view",
      "type": "function"
    },
    {
      "constant": true,
      "inputs": [],
      "name": "percentageRetirementYield",
      "outputs": [
        {
          "internalType": "uint256",
          "name": "",
          "type": "uint256"
        }
      ],
      "payable": false,
      "stateMutability": "view",
      "type": "function"
    },
    {
      "constant": true,
      "inputs": [],
      "name": "pool",
      "outputs": [
        {
          "internalType": "uint256",
          "name": "",
          "type": "uint256"
        }
      ],
      "payable": false,
      "stateMutability": "view",
      "type": "function"
    },
    {
      "constant": true,
      "inputs": [],
      "name": "provider",
      "outputs": [
        {
          "internalType": "enum yUSDC.Lender",
          "name": "",
          "type": "uint8"
        }
      ],
      "payable": false,
      "stateMutability": "view",
      "type": "function"
    },
    {
      "constant": false,
      "inputs": [],
      "name": "renounceOwnership",
      "outputs": [],
      "payable": false,
      "stateMutability": "nonpayable",
      "type": "function"
    },
    {
      "constant": true,
      "inputs": [],
      "name": "retirementYeldTreasury",
      "outputs": [
        {
          "internalType": "address payable",
          "name": "",
          "type": "address"
        }
      ],
      "payable": false,
      "stateMutability": "view",
      "type": "function"
    },
    {
      "constant": true,
      "inputs": [],
      "name": "symbol",
      "outputs": [
        {
          "internalType": "string",
          "name": "",
          "type": "string"
        }
      ],
      "payable": false,
      "stateMutability": "view",
      "type": "function"
    },
    {
      "constant": true,
      "inputs": [],
      "name": "token",
      "outputs": [
        {
          "internalType": "address",
          "name": "",
          "type": "address"
        }
      ],
      "payable": false,
      "stateMutability": "view",
      "type": "function"
    },
    {
      "constant": true,
      "inputs": [],
      "name": "totalSupply",
      "outputs": [
        {
          "internalType": "uint256",
          "name": "",
          "type": "uint256"
        }
      ],
      "payable": false,
      "stateMutability": "view",
      "type": "function"
    },
    {
      "constant": false,
      "inputs": [
        {
          "internalType": "address",
          "name": "recipient",
          "type": "address"
        },
        {
          "internalType": "uint256",
          "name": "amount",
          "type": "uint256"
        }
      ],
      "name": "transfer",
      "outputs": [
        {
          "internalType": "bool",
          "name": "",
          "type": "bool"
        }
      ],
      "payable": false,
      "stateMutability": "nonpayable",
      "type": "function"
    },
    {
      "constant": false,
      "inputs": [
        {
          "internalType": "address",
          "name": "sender",
          "type": "address"
        },
        {
          "internalType": "address",
          "name": "recipient",
          "type": "address"
        },
        {
          "internalType": "uint256",
          "name": "amount",
          "type": "uint256"
        }
      ],
      "name": "transferFrom",
      "outputs": [
        {
          "internalType": "bool",
          "name": "",
          "type": "bool"
        }
      ],
      "payable": false,
      "stateMutability": "nonpayable",
      "type": "function"
    },
    {
      "constant": false,
      "inputs": [
        {
          "internalType": "address payable",
          "name": "newOwner",
          "type": "address"
        }
      ],
      "name": "transferOwnership",
      "outputs": [],
      "payable": false,
      "stateMutability": "nonpayable",
      "type": "function"
    },
    {
      "constant": true,
      "inputs": [],
      "name": "uniswapRouter",
      "outputs": [
        {
          "internalType": "address",
          "name": "",
          "type": "address"
        }
      ],
      "payable": false,
      "stateMutability": "view",
      "type": "function"
    },
    {
      "constant": false,
      "inputs": [
        {
          "internalType": "uint256",
          "name": "a",
          "type": "uint256"
        },
        {
          "internalType": "uint256",
          "name": "b",
          "type": "uint256"
        },
        {
          "internalType": "uint256",
          "name": "c",
          "type": "uint256"
        }
      ],
      "name": "updatePercentages",
      "outputs": [],
      "payable": false,
      "stateMutability": "nonpayable",
      "type": "function"
    },
    {
      "constant": true,
      "inputs": [],
      "name": "usdc",
      "outputs": [
        {
          "internalType": "address",
          "name": "",
          "type": "address"
        }
      ],
      "payable": false,
      "stateMutability": "view",
      "type": "function"
    },
    {
      "constant": true,
      "inputs": [],
      "name": "weth",
      "outputs": [
        {
          "internalType": "address",
          "name": "",
          "type": "address"
        }
      ],
      "payable": false,
      "stateMutability": "view",
      "type": "function"
    },
    {
      "constant": true,
      "inputs": [],
      "name": "yeldToRewardPerDay",
      "outputs": [
        {
          "internalType": "uint256",
          "name": "",
          "type": "uint256"
        }
      ],
      "payable": false,
      "stateMutability": "view",
      "type": "function"
    },
    {
      "constant": true,
      "inputs": [],
      "name": "yeldToken",
      "outputs": [
        {
          "internalType": "contract IERC20",
          "name": "",
          "type": "address"
        }
      ],
      "payable": false,
      "stateMutability": "view",
      "type": "function"
    },
    {
      "constant": false,
      "inputs": [
        {
          "internalType": "address payable",
          "name": "_treasury",
          "type": "address"
        }
      ],
      "name": "setRetirementYeldTreasury",
      "outputs": [],
      "payable": false,
      "stateMutability": "nonpayable",
      "type": "function"
    },
    {
      "constant": false,
      "inputs": [
        {
          "internalType": "address",
          "name": "_uniswapRouter",
          "type": "address"
        }
      ],
      "name": "setUniswapRouter",
      "outputs": [],
      "payable": false,
      "stateMutability": "nonpayable",
      "type": "function"
    },
    {
      "constant": false,
      "inputs": [
        {
          "internalType": "address",
          "name": "_yeldToken",
          "type": "address"
        }
      ],
      "name": "setYeldToken",
      "outputs": [],
      "payable": false,
      "stateMutability": "nonpayable",
      "type": "function"
    },
    {
      "constant": false,
      "inputs": [
        {
          "internalType": "address",
          "name": "_devTreasury",
          "type": "address"
        }
      ],
      "name": "setDevTreasury",
      "outputs": [],
      "payable": false,
      "stateMutability": "nonpayable",
      "type": "function"
    },
    {
      "constant": false,
      "inputs": [
        {
          "internalType": "address",
          "name": "_token",
          "type": "address"
        },
        {
          "internalType": "uint256",
          "name": "_amount",
          "type": "uint256"
        }
      ],
      "name": "extractTokensIfStuck",
      "outputs": [],
      "payable": false,
      "stateMutability": "nonpayable",
      "type": "function"
    },
    {
      "constant": false,
      "inputs": [],
      "name": "extractETHIfStuck",
      "outputs": [],
      "payable": false,
      "stateMutability": "nonpayable",
      "type": "function"
    },
    {
      "constant": false,
      "inputs": [
        {
          "internalType": "uint256",
          "name": "_amount",
          "type": "uint256"
        }
      ],
      "name": "changeYeldToRewardPerDay",
      "outputs": [],
      "payable": false,
      "stateMutability": "nonpayable",
      "type": "function"
    },
    {
      "constant": true,
      "inputs": [],
      "name": "getGeneratedYelds",
      "outputs": [
        {
          "internalType": "uint256",
          "name": "",
          "type": "uint256"
        }
      ],
      "payable": false,
      "stateMutability": "view",
      "type": "function"
    },
    {
      "constant": false,
      "inputs": [
        {
          "internalType": "uint256",
          "name": "_holdPercentage",
          "type": "uint256"
        }
      ],
      "name": "setHoldPercentage",
      "outputs": [],
      "payable": false,
      "stateMutability": "nonpayable",
      "type": "function"
    },
    {
      "constant": false,
      "inputs": [
        {
          "internalType": "uint256",
          "name": "_amount",
          "type": "uint256"
        }
      ],
      "name": "deposit",
      "outputs": [],
      "payable": false,
      "stateMutability": "nonpayable",
      "type": "function"
    },
    {
      "constant": false,
      "inputs": [
        {
          "internalType": "uint256",
          "name": "_shares",
          "type": "uint256"
        }
      ],
      "name": "withdraw",
      "outputs": [],
      "payable": false,
      "stateMutability": "nonpayable",
      "type": "function"
    },
    {
      "constant": true,
      "inputs": [],
      "name": "recommend",
      "outputs": [
        {
          "internalType": "enum yUSDC.Lender",
          "name": "",
          "type": "uint8"
        }
      ],
      "payable": false,
      "stateMutability": "view",
      "type": "function"
    },
    {
      "constant": false,
      "inputs": [
        {
          "internalType": "uint256",
          "name": "amount",
          "type": "uint256"
        }
      ],
      "name": "supplyDydx",
      "outputs": [
        {
          "internalType": "uint256",
          "name": "",
          "type": "uint256"
        }
      ],
      "payable": false,
      "stateMutability": "nonpayable",
      "type": "function"
    },
    {
      "constant": true,
      "inputs": [],
      "name": "getAave",
      "outputs": [
        {
          "internalType": "address",
          "name": "",
          "type": "address"
        }
      ],
      "payable": false,
      "stateMutability": "view",
      "type": "function"
    },
    {
      "constant": true,
      "inputs": [],
      "name": "getAaveCore",
      "outputs": [
        {
          "internalType": "address",
          "name": "",
          "type": "address"
        }
      ],
      "payable": false,
      "stateMutability": "view",
      "type": "function"
    },
    {
      "constant": false,
      "inputs": [],
      "name": "approveToken",
      "outputs": [],
      "payable": false,
      "stateMutability": "nonpayable",
      "type": "function"
    },
    {
      "constant": true,
      "inputs": [],
      "name": "balance",
      "outputs": [
        {
          "internalType": "uint256",
          "name": "",
          "type": "uint256"
        }
      ],
      "payable": false,
      "stateMutability": "view",
      "type": "function"
    },
    {
      "constant": true,
      "inputs": [],
      "name": "balanceDydx",
      "outputs": [
        {
          "internalType": "uint256",
          "name": "",
          "type": "uint256"
        }
      ],
      "payable": false,
      "stateMutability": "view",
      "type": "function"
    },
    {
      "constant": true,
      "inputs": [],
      "name": "balanceCompound",
      "outputs": [
        {
          "internalType": "uint256",
          "name": "",
          "type": "uint256"
        }
      ],
      "payable": false,
      "stateMutability": "view",
      "type": "function"
    },
    {
      "constant": true,
      "inputs": [],
      "name": "balanceCompoundInToken",
      "outputs": [
        {
          "internalType": "uint256",
          "name": "",
          "type": "uint256"
        }
      ],
      "payable": false,
      "stateMutability": "view",
      "type": "function"
    },
    {
      "constant": true,
      "inputs": [],
      "name": "balanceFulcrumInToken",
      "outputs": [
        {
          "internalType": "uint256",
          "name": "",
          "type": "uint256"
        }
      ],
      "payable": false,
      "stateMutability": "view",
      "type": "function"
    },
    {
      "constant": true,
      "inputs": [],
      "name": "balanceFulcrum",
      "outputs": [
        {
          "internalType": "uint256",
          "name": "",
          "type": "uint256"
        }
      ],
      "payable": false,
      "stateMutability": "view",
      "type": "function"
    },
    {
      "constant": true,
      "inputs": [],
      "name": "balanceAave",
      "outputs": [
        {
          "internalType": "uint256",
          "name": "",
          "type": "uint256"
        }
      ],
      "payable": false,
      "stateMutability": "view",
      "type": "function"
    },
    {
      "constant": false,
      "inputs": [],
      "name": "rebalance",
      "outputs": [],
      "payable": false,
      "stateMutability": "nonpayable",
      "type": "function"
    },
    {
      "constant": false,
      "inputs": [
        {
          "internalType": "uint256",
          "name": "amount",
          "type": "uint256"
        }
      ],
      "name": "supplyAave",
      "outputs": [],
      "payable": false,
      "stateMutability": "nonpayable",
      "type": "function"
    },
    {
      "constant": false,
      "inputs": [
        {
          "internalType": "uint256",
          "name": "amount",
          "type": "uint256"
        }
      ],
      "name": "supplyFulcrum",
      "outputs": [],
      "payable": false,
      "stateMutability": "nonpayable",
      "type": "function"
    },
    {
      "constant": false,
      "inputs": [
        {
          "internalType": "uint256",
          "name": "amount",
          "type": "uint256"
        }
      ],
      "name": "supplyCompound",
      "outputs": [],
      "payable": false,
      "stateMutability": "nonpayable",
      "type": "function"
    },
    {
      "constant": false,
      "inputs": [
        {
          "internalType": "uint256",
          "name": "_amount",
          "type": "uint256"
        }
      ],
      "name": "invest",
      "outputs": [],
      "payable": false,
      "stateMutability": "nonpayable",
      "type": "function"
    },
    {
      "constant": true,
      "inputs": [],
      "name": "calcPoolValueInToken",
      "outputs": [
        {
          "internalType": "uint256",
          "name": "",
          "type": "uint256"
        }
      ],
      "payable": false,
      "stateMutability": "view",
      "type": "function"
    },
    {
      "constant": true,
      "inputs": [],
      "name": "getPricePerFullShare",
      "outputs": [
        {
          "internalType": "uint256",
          "name": "",
          "type": "uint256"
        }
      ],
      "payable": false,
      "stateMutability": "view",
      "type": "function"
    },
    {
      "constant": false,
      "inputs": [
        {
          "internalType": "uint256",
          "name": "_shares",
          "type": "uint256"
        }
      ],
      "name": "redeem",
      "outputs": [],
      "payable": false,
      "stateMutability": "nonpayable",
      "type": "function"
    }
  ],
  "bytecode": "0x60806040526714d1120d7b1600006008556722b1c8c1227a0000600955670de0b6b3a7640000600a55601680546001600160a01b0319908116737a250d5630b4cf539739df2c5dacb4c659f2488d1790915560178054821673a0b86991c6218b36c1d19d4a2e9eb0ce3606eb4817905560188054821673c02aaa39b223fe8d0a0e5c4f27ead9083c756cc217905560198054909116736b175474e89094c44da98b954eedeac495271d0f179055690a968163f0a57b400000601c556802b5e3af16b1880000601d5567d02ab486cedc0000601e55601f805460ff60a01b19169055348015620000ed57600080fd5b5060405162006a7e38038062006a7e8339810160408190526200011091620007b8565b604080518082018252600981526879656c64205553444360b81b602080830191825283518085019094526005845264795553444360d81b908401528151919291600691620001629160039190620006c8565b50815162000178906004906020850190620006c8565b506005805460ff191660ff92909216919091179055505060016006556200019e6200031c565b600780546001600160a01b0319166001600160a01b0392831617908190556040519116906000907f8be0079c531659141344cd1fd0a4f28419497f9722a3daafe3b4186f6b6457e0908290a3600c80546001600160a01b031990811673a0b86991c6218b36c1d19d4a2e9eb0ce3606eb481790915560138054821673dd6d648c991f7d47454354f4ef326b04025a48a8179055601180548216731e0447b19bb6ecfdae1e4ae1694b0c3659614e4e179055600f805482167324a42fd28c976a61df5d00d0599c34c4f90748c8179055600e8054821673f013406a0b1d544238083df0b93ad0d2cbe0f65f179055601080548216739ba00d6856a4edf4665bca2c2309936572473b7e179055600d805482167339aa39c021dfbae8fac545936693ac917d5e75631790556002601255601b80546001600160a01b0386811691841691909117909155601a8054858316908416179055601f805491841691909216179055620003136001600160e01b036200032116565b50505062000aee565b335b90565b600d54600c546200034e916001600160a01b039182169116600019620003e3602090811b6200417d17901c565b601154600c546200037b916001600160a01b039182169116600019620003e3602090811b6200417d17901c565b620003b4620003926001600160e01b03620004fd16565b600c546001600160a01b031690600019620003e3602090811b6200417d17901c565b600e54600c54620003e1916001600160a01b039182169116600019620003e3602090811b6200417d17901c565b565b801580620004725750604051636eb1769f60e11b81526001600160a01b0384169063dd62ed3e906200041c9030908690600401620009d9565b60206040518083038186803b1580156200043557600080fd5b505afa1580156200044a573d6000803e3d6000fd5b505050506040513d601f19601f820116820180604052506200047091908101906200082d565b155b6200049a5760405162461bcd60e51b8152600401620004919062000a3b565b60405180910390fd5b604051620004f890849063095ea7b360e01b90620004bf9086908690602401620009f8565b60408051808303601f190181529190526020810180516001600160e01b0319939093166001600160e01b03938416179052906200058316565b505050565b600f546040805163076b7fbb60e51b815290516000926001600160a01b03169163ed6ff760916004808301926020929190829003018186803b1580156200054357600080fd5b505afa15801562000558573d6000803e3d6000fd5b505050506040513d601f19601f820116820180604052506200057e919081019062000797565b905090565b620005a2826001600160a01b03166200068b60201b62004a081760201c565b620005c15760405162461bcd60e51b8152600401620004919062000a4d565b60006060836001600160a01b031683604051620005df9190620009c4565b6000604051808303816000865af19150503d80600081146200061e576040519150601f19603f3d011682016040523d82523d6000602084013e62000623565b606091505b509150915081620006485760405162461bcd60e51b8152600401620004919062000a17565b8051156200068557808060200190516200066691908101906200080c565b620006855760405162461bcd60e51b8152600401620004919062000a29565b50505050565b6000813f7fc5d2460186f7233c927e7db2dcc703c0e500b653ca82273b7bfad8045d85a4708115801590620006c05750808214155b949350505050565b828054600181600116156101000203166002900490600052602060002090601f016020900481019282601f106200070b57805160ff19168380011785556200073b565b828001600101855582156200073b579182015b828111156200073b5782518255916020019190600101906200071e565b50620007499291506200074d565b5090565b6200031e91905b8082111562000749576000815560010162000754565b8051620007778162000abe565b92915050565b8051620007778162000ad8565b8051620007778162000ae3565b600060208284031215620007aa57600080fd5b6000620006c084846200076a565b600080600060608486031215620007ce57600080fd5b6000620007dc86866200076a565b9350506020620007ef868287016200076a565b925050604062000802868287016200076a565b9150509250925092565b6000602082840312156200081f57600080fd5b6000620006c084846200077d565b6000602082840312156200084057600080fd5b6000620006c084846200078a565b620008598162000a71565b82525050565b60006200086c8262000a5f565b62000878818562000a63565b93506200088a81856020860162000a8f565b9290920192915050565b6000620008a360208362000a68565b7f5361666545524332303a206c6f772d6c6576656c2063616c6c206661696c6564815260200192915050565b6000620008de602a8362000a68565b7f5361666545524332303a204552433230206f7065726174696f6e20646964206e8152691bdd081cdd58d8d9595960b21b602082015260400192915050565b60006200092c60368362000a68565b7f5361666545524332303a20617070726f76652066726f6d206e6f6e2d7a65726f81527f20746f206e6f6e2d7a65726f20616c6c6f77616e636500000000000000000000602082015260400192915050565b60006200098d601f8362000a68565b7f5361666545524332303a2063616c6c20746f206e6f6e2d636f6e747261637400815260200192915050565b62000859816200031e565b6000620009d282846200085f565b9392505050565b60408101620009e982856200084e565b620009d260208301846200084e565b6040810162000a0882856200084e565b620009d26020830184620009b9565b60208082528101620007778162000894565b602080825281016200077781620008cf565b6020808252810162000777816200091d565b6020808252810162000777816200097e565b5190565b919050565b90815260200190565b6000620007778262000a83565b151590565b6001600160a01b031690565b60005b8381101562000aac57818101518382015260200162000a92565b83811115620006855750506000910152565b62000ac98162000a71565b811462000ad557600080fd5b50565b62000ac98162000a7e565b62000ac9816200031e565b615f808062000afe6000396000f3fe6080604052600436106104ec5760003560e01c80637d7c2a1c11610294578063cf8ca4261161015e578063f2978d98116100d6578063f5a41dea1161008a578063f7c1ec771161006f578063f7c1ec7714610c63578063f82ce27d14610c78578063fc0c546a14610c8d576104ec565b8063f5a41dea14610c39578063f69e204614610c4e576104ec565b8063f2fde38b116100bb578063f2fde38b14610be4578063f34ce4bb14610c04578063f4b9fa7514610c24576104ec565b8063f2978d9814610bba578063f29e15a214610bcf576104ec565b8063e26f21bf1161012d578063eb56faf011610112578063eb56faf014610b65578063ebc5116014610b85578063f02fbd4a14610b9a576104ec565b8063e26f21bf14610b25578063e849d65914610b45576104ec565b8063cf8ca42614610abb578063d9d7858a14610ad0578063db006a7514610ae5578063dd62ed3e14610b05576104ec565b806399b71d5c1161020c578063a9a1015a116101c0578063b69ef8a8116101a5578063b69ef8a814610a66578063b6b55f2514610a7b578063bea9849e14610a9b576104ec565b8063a9a1015a14610a31578063b19ab07614610a51576104ec565b8063a457c2d7116101f1578063a457c2d7146109dc578063a7287971146109fc578063a9059cbb14610a11576104ec565b806399b71d5c146109b2578063a160176d146109c7576104ec565b8063858409ba116102635780638e4ec6ef116102485780638e4ec6ef146109735780638f32d59b1461098857806395d89b411461099d576104ec565b8063858409ba146109495780638da5cb5b1461095e576104ec565b80637d7c2a1c146108dd5780637f50d4d8146108f25780638124955c14610914578063819faf7b14610934576104ec565b80633bd777a8116103d557806361c1ec551161034d578063715018a611610301578063735de9f7116102e6578063735de9f71461089357806377c7b8fc146108a85780637b82784c146108bd576104ec565b8063715018a6146108695780637354b2e91461087e576104ec565b80636ff2bf08116103325780636ff2bf081461081f57806370a08231146108345780637137ef9914610854576104ec565b806361c1ec55146107ea57806365aab749146107ff576104ec565b80634fd96cb6116103a457806350f62da71161038957806350f62da7146107a057806357ded9c9146107c057806358782c21146107d5576104ec565b80634fd96cb61461076b5780634fe411291461078b576104ec565b80633bd777a81461070c5780633e413bee1461072c5780633fc8cef314610741578063413e920d14610756576104ec565b8063202a2735116104685780632e1a7d4d11610437578063313ce5671161041c578063313ce567146106b557806339509351146106d757806339c0a7e1146106f7576104ec565b80632e1a7d4d146106755780632eb4520a14610695576104ec565b8063202a27351461060b57806323b872dd146106205780632622678c146106405780632afcf48014610655576104ec565b8063095ea7b3116104bf57806310391d25116104a457806310391d25146105cc57806316f0115b146105e157806318160ddd146105f6576104ec565b8063095ea7b31461058a5780630eb2a267146105b7576104ec565b806306636c1c146104ee57806306a3fe591461052457806306fdde0314610546578063085d488314610568575b005b3480156104fa57600080fd5b5061050e610509366004614e7b565b610ca2565b60405161051b9190615c49565b60405180910390f35b34801561053057600080fd5b50610539610e59565b60405161051b919061596e565b34801561055257600080fd5b5061055b610e75565b60405161051b9190615a8d565b34801561057457600080fd5b5061057d610f2a565b60405161051b9190615a5f565b34801561059657600080fd5b506105aa6105a5366004614d4e565b610f4b565b60405161051b9190615a43565b3480156105c357600080fd5b5061050e610f69565b3480156105d857600080fd5b5061050e611015565b3480156105ed57600080fd5b5061050e61101b565b34801561060257600080fd5b5061050e611021565b34801561061757600080fd5b5061050e611027565b34801561062c57600080fd5b506105aa61063b366004614d01565b61102d565b34801561064c57600080fd5b506105396110d5565b34801561066157600080fd5b506104ec610670366004614e7b565b6110f1565b34801561068157600080fd5b506104ec610690366004614e7b565b61120f565b3480156106a157600080fd5b506104ec6106b0366004614c2a565b6119e1565b3480156106c157600080fd5b506106ca611a66565b60405161051b9190615ce6565b3480156106e357600080fd5b506105aa6106f2366004614d4e565b611a6f565b34801561070357600080fd5b5061050e611ad0565b34801561071857600080fd5b506104ec610727366004614c2a565b611b9d565b34801561073857600080fd5b50610539611c22565b34801561074d57600080fd5b50610539611c3e565b34801561076257600080fd5b5061050e611c5a565b34801561077757600080fd5b506104ec610786366004614c2a565b611c61565b34801561079757600080fd5b506104ec611ce6565b3480156107ac57600080fd5b5061050e6107bb366004614c2a565b611d74565b3480156107cc57600080fd5b50610539611d86565b3480156107e157600080fd5b50610539611da2565b3480156107f657600080fd5b5061050e611dbe565b34801561080b57600080fd5b506104ec61081a366004614e7b565b611e15565b34801561082b57600080fd5b5061050e611eae565b34801561084057600080fd5b5061050e61084f366004614c2a565b611f86565b34801561086057600080fd5b5061050e611fb2565b34801561087557600080fd5b506104ec611fe8565b34801561088a57600080fd5b5061050e612095565b34801561089f57600080fd5b5061053961209b565b3480156108b457600080fd5b5061050e6120b7565b3480156108c957600080fd5b5061050e6108d8366004614c2a565b6120ea565b3480156108e957600080fd5b506104ec6120fc565b3480156108fe57600080fd5b50610907612235565b60405161051b9190615a51565b34801561092057600080fd5b506104ec61092f366004614e7b565b612251565b34801561094057600080fd5b50610539612333565b34801561095557600080fd5b5061050e61234f565b34801561096a57600080fd5b50610539612355565b34801561097f57600080fd5b50610539612371565b34801561099457600080fd5b506105aa61238d565b3480156109a957600080fd5b5061055b6123cd565b3480156109be57600080fd5b506104ec61244c565b3480156109d357600080fd5b5061057d61258f565b3480156109e857600080fd5b506105aa6109f7366004614d4e565b6126e5565b348015610a0857600080fd5b5061050e612760565b348015610a1d57600080fd5b506105aa610a2c366004614d4e565b61282f565b348015610a3d57600080fd5b506104ec610a4c366004614d4e565b612843565b348015610a5d57600080fd5b5061053961292c565b348015610a7257600080fd5b5061050e612948565b348015610a8757600080fd5b506104ec610a96366004614e7b565b61299f565b348015610aa757600080fd5b506104ec610ab6366004614c2a565b612af1565b348015610ac757600080fd5b5061050e612b76565b348015610adc57600080fd5b5061050e612bcd565b348015610af157600080fd5b506104ec610b00366004614e7b565b612bd3565b348015610b1157600080fd5b5061050e610b20366004614c66565b612f30565b348015610b3157600080fd5b506104ec610b40366004614e7b565b612f68565b348015610b5157600080fd5b506104ec610b60366004614e7b565b612fab565b348015610b7157600080fd5b506104ec610b80366004614eb7565b61308a565b348015610b9157600080fd5b5061050e6130d6565b348015610ba657600080fd5b506104ec610bb5366004614e7b565b6130dc565b348015610bc657600080fd5b5061050e61311f565b348015610bdb57600080fd5b5061050e613125565b348015610bf057600080fd5b506104ec610bff366004614c2a565b61312b565b348015610c1057600080fd5b5061050e610c1f366004614ca0565b613172565b348015610c3057600080fd5b50610539613339565b348015610c4557600080fd5b5061050e613355565b348015610c5a57600080fd5b5061053961340e565b348015610c6f57600080fd5b5061053961342a565b348015610c8457600080fd5b506105396134cd565b348015610c9957600080fd5b50610539613538565b60408051600180825281830190925260009160609190816020015b610cc5614a3f565b815260200190600190039081610cbd57905050905060405180604001604052803073ffffffffffffffffffffffffffffffffffffffff168152602001600081525081600081518110610d1357fe5b6020026020010181905250610d26614a56565b6040805160808101909152600181526020810160008152602001600081526020018590529050610d54614a7f565b600081819052506000602082015260408082018390526012546060808401919091523060a0840152815160018082528184019093529091816020015b610d98614a7f565b815260200190600190039081610d905790505090508181600081518110610dbb57fe5b60209081029190910101526011546040517fa67a6a4500000000000000000000000000000000000000000000000000000000815273ffffffffffffffffffffffffffffffffffffffff9091169063a67a6a4590610e1e9087908590600401615a1e565b600060405180830381600087803b158015610e3857600080fd5b505af1158015610e4c573d6000803e3d6000fd5b5050505050505050919050565b60105473ffffffffffffffffffffffffffffffffffffffff1681565b60038054604080516020601f60027fffffffffffffffffffffffffffffffffffffffffffffffffffffffffffffffff610100600188161502019095169490940493840181900481028201810190925282815260609390929091830182828015610f1f5780601f10610ef457610100808354040283529160200191610f1f565b820191906000526020600020905b815481529060010190602001808311610f0257829003601f168201915b505050505090505b90565b601f5474010000000000000000000000000000000000000000900460ff1681565b6000610f5f610f58613554565b8484613558565b5060015b92915050565b600e546040517f70a0823100000000000000000000000000000000000000000000000000000000815260009173ffffffffffffffffffffffffffffffffffffffff16906370a0823190610fc090309060040161597c565b60206040518083038186803b158015610fd857600080fd5b505afa158015610fec573d6000803e3d6000fd5b505050506040513d601f19601f820116820180604052506110109190810190614e99565b905090565b60095481565b600b5481565b60025490565b601e5481565b600061103a848484613667565b6110ca84611046613554565b6110c585604051806060016040528060288152602001615ef16028913973ffffffffffffffffffffffffffffffffffffffff8a16600090815260016020526040812090611091613554565b73ffffffffffffffffffffffffffffffffffffffff168152602081019190915260400160002054919063ffffffff6137f216565b613558565b5060015b9392505050565b601a5473ffffffffffffffffffffffffffffffffffffffff1681565b60068054600101908190558161113c576040517f08c379a000000000000000000000000000000000000000000000000000000000815260040161113390615bbe565b60405180910390fd5b611144611fb2565b600b55600c546111729073ffffffffffffffffffffffffffffffffffffffff1633308563ffffffff61383816565b61117a6120fc565b600b546000906111905750600b829055816111ba565b6111b7600b546111ab600254866138fd90919063ffffffff16565b9063ffffffff61395116565b90505b6111c2611fb2565b600b556111cf3382613993565b50600654811461120b576040517f08c379a000000000000000000000000000000000000000000000000000000000815260040161113390615bee565b5050565b600680546001019081905561122333613a94565b1561125a576040517f08c379a000000000000000000000000000000000000000000000000000000000815260040161113390615b5e565b60008211611294576040517f08c379a000000000000000000000000000000000000000000000000000000000815260040161113390615b7e565b600061129f33611f86565b9050808311156112db576040517f08c379a000000000000000000000000000000000000000000000000000000000815260040161113390615b6e565b6112e3611fb2565b600b5560006112f0611eae565b9050600061130f6002546111ab87600b546138fd90919063ffffffff16565b905061131a81613a9a565b604080518082018252601d81527f72656465656d20616d6f756e7420657863656564732062616c616e636500000060208083019190915233600090815290819052919091205461137191879063ffffffff6137f216565b33600090815260208190526040902055600254611394908663ffffffff613bf216565b60025560405160009033907fddf252ad1be2c89b69c2b068fc378daa952ba7f163c4a11628f55a4df523b3ef906113cc908990615c49565b60405180910390a3600c546040517f70a0823100000000000000000000000000000000000000000000000000000000815260009173ffffffffffffffffffffffffffffffffffffffff16906370a082319061142b90309060040161597c565b60206040518083038186803b15801561144357600080fd5b505afa158015611457573d6000803e3d6000fd5b505050506040513d601f19601f8201168201806040525061147b9190810190614e99565b90508181101561149d5761149d611498838363ffffffff613bf216565b613c34565b60006114c8600a546114bc600954600854613d9e90919063ffffffff16565b9063ffffffff613d9e16565b905060006114e968056bc75e2d631000006111ab868563ffffffff6138fd16565b33600090815260146020908152604080832043905560159091529020549091508411156115255733600090815260156020526040812055611556565b33600090815260156020526040902054611545908563ffffffff613bf216565b336000908152601560205260409020555b601b546040517fa9059cbb00000000000000000000000000000000000000000000000000000000815273ffffffffffffffffffffffffffffffffffffffff9091169063a9059cbb906115ae903390899060040161598a565b602060405180830381600087803b1580156115c857600080fd5b505af11580156115dc573d6000803e3d6000fd5b505050506040513d601f19601f820116820180604052506116009190810190614db3565b50600061160c82613ddd565b601b546040517f70a0823100000000000000000000000000000000000000000000000000000000815291925060009173ffffffffffffffffffffffffffffffffffffffff909116906370a082319061166890849060040161597c565b60206040518083038186803b15801561168057600080fd5b505afa158015611694573d6000803e3d6000fd5b505050506040513d601f19601f820116820180604052506116b89190810190614e99565b905060006116fb68056bc75e2d631000006111ab6116ee886111ab60095468056bc75e2d631000006138fd90919063ffffffff16565b869063ffffffff6138fd16565b9050601c548210156117e557600061174868056bc75e2d631000006111ab61173b896111ab600a5468056bc75e2d631000006138fd90919063ffffffff16565b879063ffffffff6138fd16565b905061175381613fb9565b50600061179568056bc75e2d631000006111ab6117888a6111ab60085468056bc75e2d631000006138fd90919063ffffffff16565b889063ffffffff6138fd16565b601a5460405191925073ffffffffffffffffffffffffffffffffffffffff169082156108fc029083906000818181858888f193505050501580156117dd573d6000803e3d6000fd5b505050611842565b60006117f7848363ffffffff613bf216565b601a5460405191925073ffffffffffffffffffffffffffffffffffffffff169082156108fc029083906000818181858888f1935050505015801561183f573d6000803e3d6000fd5b50505b601f5460405160009173ffffffffffffffffffffffffffffffffffffffff1690839061186d90615963565b60006040518083038185875af1925050503d80600081146118aa576040519150601f19603f3d011682016040523d82523d6000602084013e6118af565b606091505b50509050806118ea576040517f08c379a000000000000000000000000000000000000000000000000000000000815260040161113390615b0e565b600c5473ffffffffffffffffffffffffffffffffffffffff1663a9059cbb336119198b8963ffffffff613bf216565b6040518363ffffffff1660e01b815260040161193692919061598a565b602060405180830381600087803b15801561195057600080fd5b505af1158015611964573d6000803e3d6000fd5b505050506040513d601f19601f820116820180604052506119889190810190614db3565b50611991611fb2565b600b5561199c6120fc565b50505050505050505050600654811461120b576040517f08c379a000000000000000000000000000000000000000000000000000000000815260040161113390615bee565b6119e961238d565b611a1f576040517f08c379a000000000000000000000000000000000000000000000000000000000815260040161113390615b4e565b601a80547fffffffffffffffffffffffff00000000000000000000000000000000000000001673ffffffffffffffffffffffffffffffffffffffff92909216919091179055565b60055460ff1690565b6000610f5f611a7c613554565b846110c58560016000611a8d613554565b73ffffffffffffffffffffffffffffffffffffffff908116825260208083019390935260409182016000908120918c16815292529020549063ffffffff613d9e16565b6000611ada614a3f565b6011546040805180820182523081526000602082015260125491517fc190c2ec00000000000000000000000000000000000000000000000000000000815273ffffffffffffffffffffffffffffffffffffffff9093169263c190c2ec92611b449291600401615c2e565b604080518083038186803b158015611b5b57600080fd5b505afa158015611b6f573d6000803e3d6000fd5b505050506040513d601f19601f82011682018060405250611b939190810190614e5d565b6020015191505090565b611ba561238d565b611bdb576040517f08c379a000000000000000000000000000000000000000000000000000000000815260040161113390615b4e565b601f80547fffffffffffffffffffffffff00000000000000000000000000000000000000001673ffffffffffffffffffffffffffffffffffffffff92909216919091179055565b60175473ffffffffffffffffffffffffffffffffffffffff1681565b60185473ffffffffffffffffffffffffffffffffffffffff1681565b620f424081565b611c6961238d565b611c9f576040517f08c379a000000000000000000000000000000000000000000000000000000000815260040161113390615b4e565b601b80547fffffffffffffffffffffffff00000000000000000000000000000000000000001673ffffffffffffffffffffffffffffffffffffffff92909216919091179055565b611cee61238d565b611d24576040517f08c379a000000000000000000000000000000000000000000000000000000000815260040161113390615b4e565b611d2c612355565b73ffffffffffffffffffffffffffffffffffffffff166108fc479081150290604051600060405180830381858888f19350505050158015611d71573d6000803e3d6000fd5b50565b60156020526000908152604090205481565b60135473ffffffffffffffffffffffffffffffffffffffff1681565b600e5473ffffffffffffffffffffffffffffffffffffffff1681565b600d546040517f70a0823100000000000000000000000000000000000000000000000000000000815260009173ffffffffffffffffffffffffffffffffffffffff16906370a0823190610fc090309060040161597c565b611e1d61342a565b600c546040517fd2d0e06600000000000000000000000000000000000000000000000000000000815273ffffffffffffffffffffffffffffffffffffffff9283169263d2d0e06692611e799291169085906000906004016159f6565b600060405180830381600087803b158015611e9357600080fd5b505af1158015611ea7573d6000803e3d6000fd5b5050505050565b33600090815260146020526040812054819015611eed5733600090815260146020526040902054611ee690439063ffffffff613bf216565b9050611ef7565b6000915050610f27565b6000611f7f6119646111ab84611f73670de0b6b3a76400006111ab601d54611f73620f42406111ab64e8d4a51000601560003373ffffffffffffffffffffffffffffffffffffffff1673ffffffffffffffffffffffffffffffffffffffff168152602001908152602001600020546138fd90919063ffffffff16565b9063ffffffff6138fd16565b9250505090565b73ffffffffffffffffffffffffffffffffffffffff81166000908152602081905260409020545b919050565b6000611010611fbf612948565b6114bc611fca612b76565b6114bc611fd5611ad0565b6114bc611fe0613355565b6114bc612760565b611ff061238d565b612026576040517f08c379a000000000000000000000000000000000000000000000000000000000815260040161113390615b4e565b60075460405160009173ffffffffffffffffffffffffffffffffffffffff16907f8be0079c531659141344cd1fd0a4f28419497f9722a3daafe3b4186f6b6457e0908390a3600780547fffffffffffffffffffffffff0000000000000000000000000000000000000000169055565b60085481565b60165473ffffffffffffffffffffffffffffffffffffffff1681565b6000806120c2611fb2565b6002549091506120e4906111ab83670de0b6b3a764000063ffffffff6138fd16565b91505090565b60146020526000908152604090205481565b600061210661258f565b601f5490915074010000000000000000000000000000000000000000900460ff16600481111561213257fe5b81600481111561213e57fe5b1461214b5761214b614117565b6000612155612948565b11156121e257600181600481111561216957fe5b14156121805761217a610509612948565b506121e2565b600481600481111561218e57fe5b14156121a45761219f61092f612948565b6121e2565b60028160048111156121b257fe5b14156121c35761219f610b60612948565b60038160048111156121d157fe5b14156121e2576121e261081a612948565b601f80548291907fffffffffffffffffffffff00ffffffffffffffffffffffffffffffffffffffff167401000000000000000000000000000000000000000083600481111561222d57fe5b021790555050565b601b5473ffffffffffffffffffffffffffffffffffffffff1681565b600e546040517f40c10f1900000000000000000000000000000000000000000000000000000000815260009173ffffffffffffffffffffffffffffffffffffffff16906340c10f19906122aa903090869060040161598a565b602060405180830381600087803b1580156122c457600080fd5b505af11580156122d8573d6000803e3d6000fd5b505050506040513d601f19601f820116820180604052506122fc9190810190614e99565b11611d71576040517f08c379a000000000000000000000000000000000000000000000000000000000815260040161113390615bce565b600f5473ffffffffffffffffffffffffffffffffffffffff1681565b600a5481565b60075473ffffffffffffffffffffffffffffffffffffffff1690565b60115473ffffffffffffffffffffffffffffffffffffffff1681565b60075460009073ffffffffffffffffffffffffffffffffffffffff166123b1613554565b73ffffffffffffffffffffffffffffffffffffffff1614905090565b60048054604080516020601f60027fffffffffffffffffffffffffffffffffffffffffffffffffffffffffffffffff610100600188161502019095169490940493840181900481028201810190925282815260609390929091830182828015610f1f5780601f10610ef457610100808354040283529160200191610f1f565b600d54600c5461249c9173ffffffffffffffffffffffffffffffffffffffff91821691167fffffffffffffffffffffffffffffffffffffffffffffffffffffffffffffffff63ffffffff61417d16565b601154600c546124ec9173ffffffffffffffffffffffffffffffffffffffff91821691167fffffffffffffffffffffffffffffffffffffffffffffffffffffffffffffffff63ffffffff61417d16565b61253d6124f76134cd565b600c5473ffffffffffffffffffffffffffffffffffffffff16907fffffffffffffffffffffffffffffffffffffffffffffffffffffffffffffffff63ffffffff61417d16565b600e54600c5461258d9173ffffffffffffffffffffffffffffffffffffffff91821691167fffffffffffffffffffffffffffffffffffffffffffffffffffffffffffffffff63ffffffff61417d16565b565b601354600c546040517fd88be3c0000000000000000000000000000000000000000000000000000000008152600092839283928392839273ffffffffffffffffffffffffffffffffffffffff9182169263d88be3c0926125f392169060040161596e565b60006040518083038186803b15801561260b57600080fd5b505afa15801561261f573d6000803e3d6000fd5b505050506040513d6000823e601f3d9081017fffffffffffffffffffffffffffffffffffffffffffffffffffffffffffffffe01682016040526126659190810190614dd1565b9297509095509350915060009050841561267c5750835b808411156126875750825b808311156126925750815b8082111561269d5750805b6000818614156126af575060026126db565b848214156126bf575060046126db565b838214156126cf575060036126db565b828214156126db575060015b9550505050505090565b6000610f5f6126f2613554565b846110c585604051806060016040528060258152602001615f19602591396001600061271c613554565b73ffffffffffffffffffffffffffffffffffffffff908116825260208083019390935260409182016000908120918d1681529252902054919063ffffffff6137f216565b60008061276b611dbe565b9050801561101057610f63670de0b6b3a76400006111ab600d60009054906101000a900473ffffffffffffffffffffffffffffffffffffffff1673ffffffffffffffffffffffffffffffffffffffff1663182df0f56040518163ffffffff1660e01b815260040160206040518083038186803b1580156127ea57600080fd5b505afa1580156127fe573d6000803e3d6000fd5b505050506040513d601f19601f820116820180604052506128229190810190614e99565b849063ffffffff6138fd16565b6000610f5f61283c613554565b8484613667565b61284b61238d565b612881576040517f08c379a000000000000000000000000000000000000000000000000000000000815260040161113390615b4e565b6040517fa9059cbb00000000000000000000000000000000000000000000000000000000815273ffffffffffffffffffffffffffffffffffffffff83169063a9059cbb906128d5903390859060040161598a565b602060405180830381600087803b1580156128ef57600080fd5b505af1158015612903573d6000803e3d6000fd5b505050506040513d601f19601f820116820180604052506129279190810190614db3565b505050565b601f5473ffffffffffffffffffffffffffffffffffffffff1681565b600c546040517f70a0823100000000000000000000000000000000000000000000000000000000815260009173ffffffffffffffffffffffffffffffffffffffff16906370a0823190610fc090309060040161597c565b60068054600101908190556129b333613a94565b156129ea576040517f08c379a000000000000000000000000000000000000000000000000000000000815260040161113390615b5e565b60008211612a24576040517f08c379a000000000000000000000000000000000000000000000000000000000815260040161113390615bbe565b612a2d82613a9a565b612a35611fb2565b600b55600c54612a639073ffffffffffffffffffffffffffffffffffffffff1633308563ffffffff61383816565b3360009081526014602090815260408083204390556015909152902054612a90908363ffffffff613d9e16565b33600090815260156020526040812091909155600b54612ab65750600b82905581612ad4565b612ad1600b546111ab600254866138fd90919063ffffffff16565b90505b612adc611fb2565b600b55612ae93382613993565b6111cf6120fc565b612af961238d565b612b2f576040517f08c379a000000000000000000000000000000000000000000000000000000000815260040161113390615b4e565b601680547fffffffffffffffffffffffff00000000000000000000000000000000000000001673ffffffffffffffffffffffffffffffffffffffff92909216919091179055565b6010546040517f70a0823100000000000000000000000000000000000000000000000000000000815260009173ffffffffffffffffffffffffffffffffffffffff16906370a0823190610fc090309060040161597c565b60125481565b600680546001019081905581612c15576040517f08c379a000000000000000000000000000000000000000000000000000000000815260040161113390615b7e565b6000612c2033611f86565b905080831115612c5c576040517f08c379a000000000000000000000000000000000000000000000000000000000815260040161113390615b6e565b612c64611fb2565b600b819055600254600091612c8491906111ab908763ffffffff6138fd16565b604080518082018252601d81527f72656465656d20616d6f756e7420657863656564732062616c616e6365000000602080830191909152336000908152908190529190912054919250612cdf9190869063ffffffff6137f216565b33600090815260208190526040902055600254612d02908563ffffffff613bf216565b60025560405160009033907fddf252ad1be2c89b69c2b068fc378daa952ba7f163c4a11628f55a4df523b3ef90612d3a908890615c49565b60405180910390a3600c546040517f70a0823100000000000000000000000000000000000000000000000000000000815260009173ffffffffffffffffffffffffffffffffffffffff16906370a0823190612d9990309060040161597c565b60206040518083038186803b158015612db157600080fd5b505afa158015612dc5573d6000803e3d6000fd5b505050506040513d601f19601f82011682018060405250612de99190810190614e99565b601f5490915074010000000000000000000000000000000000000000900460ff1682821015612e7757612e1a61258f565b601f5490915074010000000000000000000000000000000000000000900460ff166004811115612e4657fe5b816004811115612e5257fe5b14612e6457612e5f614117565b612e77565b612e77611498848463ffffffff613bf216565b600c54612ea19073ffffffffffffffffffffffffffffffffffffffff16338563ffffffff61429c16565b601f5474010000000000000000000000000000000000000000900460ff166004811115612eca57fe5b816004811115612ed657fe5b14612ee457612ee48161214b565b612eec611fb2565b600b5550506006548314915061120b9050576040517f08c379a000000000000000000000000000000000000000000000000000000000815260040161113390615bee565b73ffffffffffffffffffffffffffffffffffffffff918216600090815260016020908152604080832093909416825291909152205490565b612f7061238d565b612fa6576040517f08c379a000000000000000000000000000000000000000000000000000000000815260040161113390615b4e565b601e55565b600d546040517fa0712d6800000000000000000000000000000000000000000000000000000000815273ffffffffffffffffffffffffffffffffffffffff9091169063a0712d6890613001908490600401615c49565b602060405180830381600087803b15801561301b57600080fd5b505af115801561302f573d6000803e3d6000fd5b505050506040513d601f19601f820116820180604052506130539190810190614e99565b15611d71576040517f08c379a000000000000000000000000000000000000000000000000000000000815260040161113390615aee565b61309261238d565b6130c8576040517f08c379a000000000000000000000000000000000000000000000000000000000815260040161113390615b4e565b600892909255600955600a55565b601d5481565b6130e461238d565b61311a576040517f08c379a000000000000000000000000000000000000000000000000000000000815260040161113390615b4e565b601d55565b61196481565b601c5481565b61313361238d565b613169576040517f08c379a000000000000000000000000000000000000000000000000000000000815260040161113390615b4e565b611d71816142d7565b604080516003808252608082019092526000916060919060208201838038833901905050905085816000815181106131a657fe5b602002602001019073ffffffffffffffffffffffffffffffffffffffff16908173ffffffffffffffffffffffffffffffffffffffff168152505084816001815181106131ee57fe5b602002602001019073ffffffffffffffffffffffffffffffffffffffff16908173ffffffffffffffffffffffffffffffffffffffff1681525050838160028151811061323657fe5b73ffffffffffffffffffffffffffffffffffffffff92831660209182029290920101526040517fd06ca61f00000000000000000000000000000000000000000000000000000000815260609185169063d06ca61f906132a390670de0b6b3a7640000908690600401615a6d565b60006040518083038186803b1580156132bb57600080fd5b505afa1580156132cf573d6000803e3d6000fd5b505050506040513d6000823e601f3d9081017fffffffffffffffffffffffffffffffffffffffffffffffffffffffffffffffe01682016040526133159190810190614d7e565b90508060028151811061332457fe5b6020026020010151925050505b949350505050565b60195473ffffffffffffffffffffffffffffffffffffffff1681565b600080613360610f69565b9050801561101057600e546040517f06b3efd600000000000000000000000000000000000000000000000000000000815273ffffffffffffffffffffffffffffffffffffffff909116906306b3efd6906133be90309060040161597c565b60206040518083038186803b1580156133d657600080fd5b505afa1580156133ea573d6000803e3d6000fd5b505050506040513d601f19601f82011682018060405250610f639190810190614e99565b600d5473ffffffffffffffffffffffffffffffffffffffff1681565b600f54604080517f0261bf8b000000000000000000000000000000000000000000000000000000008152905160009273ffffffffffffffffffffffffffffffffffffffff1691630261bf8b916004808301926020929190829003018186803b15801561349557600080fd5b505afa1580156134a9573d6000803e3d6000fd5b505050506040513d601f19601f820116820180604052506110109190810190614c48565b600f54604080517fed6ff760000000000000000000000000000000000000000000000000000000008152905160009273ffffffffffffffffffffffffffffffffffffffff169163ed6ff760916004808301926020929190829003018186803b15801561349557600080fd5b600c5473ffffffffffffffffffffffffffffffffffffffff1681565b3390565b73ffffffffffffffffffffffffffffffffffffffff83166135a5576040517f08c379a000000000000000000000000000000000000000000000000000000000815260040161113390615bae565b73ffffffffffffffffffffffffffffffffffffffff82166135f2576040517f08c379a000000000000000000000000000000000000000000000000000000000815260040161113390615ade565b73ffffffffffffffffffffffffffffffffffffffff80841660008181526001602090815260408083209487168084529490915290819020849055517f8c5be1e5ebec7d5bd14f71427d1e84f3dd0314c0f7b2291e5b200ac8c7c3b9259061365a908590615c49565b60405180910390a3505050565b73ffffffffffffffffffffffffffffffffffffffff83166136b4576040517f08c379a000000000000000000000000000000000000000000000000000000000815260040161113390615b8e565b73ffffffffffffffffffffffffffffffffffffffff8216613701576040517f08c379a000000000000000000000000000000000000000000000000000000000815260040161113390615a9e565b61375181604051806060016040528060268152602001615ecb6026913973ffffffffffffffffffffffffffffffffffffffff8616600090815260208190526040902054919063ffffffff6137f216565b73ffffffffffffffffffffffffffffffffffffffff8085166000908152602081905260408082209390935590841681522054613793908263ffffffff613d9e16565b73ffffffffffffffffffffffffffffffffffffffff80841660008181526020819052604090819020939093559151908516907fddf252ad1be2c89b69c2b068fc378daa952ba7f163c4a11628f55a4df523b3ef9061365a908590615c49565b60008184841115613830576040517f08c379a00000000000000000000000000000000000000000000000000000000081526004016111339190615a8d565b505050900390565b6040516138f79085907f23b872dd0000000000000000000000000000000000000000000000000000000090613875908790879087906024016159c0565b604080517fffffffffffffffffffffffffffffffffffffffffffffffffffffffffffffffe08184030181529190526020810180517bffffffffffffffffffffffffffffffffffffffffffffffffffffffff167fffffffff00000000000000000000000000000000000000000000000000000000909316929092179091526143b2565b50505050565b60008261390c57506000610f63565b8282028284828161391957fe5b04146110ce576040517f08c379a000000000000000000000000000000000000000000000000000000000815260040161113390615b2e565b60006110ce83836040518060400160405280601a81526020017f536166654d6174683a206469766973696f6e206279207a65726f0000000000008152506144ff565b73ffffffffffffffffffffffffffffffffffffffff82166139e0576040517f08c379a000000000000000000000000000000000000000000000000000000000815260040161113390615c1e565b6002546139f3908263ffffffff613d9e16565b60025573ffffffffffffffffffffffffffffffffffffffff8216600090815260208190526040902054613a2c908263ffffffff613d9e16565b73ffffffffffffffffffffffffffffffffffffffff83166000818152602081905260408082209390935591519091907fddf252ad1be2c89b69c2b068fc378daa952ba7f163c4a11628f55a4df523b3ef90613a88908590615c49565b60405180910390a35050565b3b151590565b601b546040517f70a0823100000000000000000000000000000000000000000000000000000000815260009173ffffffffffffffffffffffffffffffffffffffff16906370a0823190613af190339060040161597c565b60206040518083038186803b158015613b0957600080fd5b505afa158015613b1d573d6000803e3d6000fd5b505050506040513d601f19601f82011682018060405250613b419190810190614e99565b601b54601854601954601654939450600093613b7c9373ffffffffffffffffffffffffffffffffffffffff9081169381169281169116613172565b90506000613ba268056bc75e2d631000006111ab601e54876138fd90919063ffffffff16565b90506000613bb6828463ffffffff61395116565b905080841015611ea7576040517f08c379a000000000000000000000000000000000000000000000000000000000815260040161113390615aae565b60006110ce83836040518060400160405280601e81526020017f536166654d6174683a207375627472616374696f6e206f766572666c6f7700008152506137f2565b6002601f5474010000000000000000000000000000000000000000900460ff166004811115613c5f57fe5b1415613c6e57613c6e81614550565b6003601f5474010000000000000000000000000000000000000000900460ff166004811115613c9957fe5b1415613ce95780613ca8612b76565b1015613ce0576040517f08c379a000000000000000000000000000000000000000000000000000000000815260040161113390615b9e565b613ce9816145c8565b6001601f5474010000000000000000000000000000000000000000900460ff166004811115613d1457fe5b1415613d645780613d23611ad0565b1015613d5b576040517f08c379a000000000000000000000000000000000000000000000000000000000815260040161113390615b9e565b613d648161461e565b6004601f5474010000000000000000000000000000000000000000900460ff166004811115613d8f57fe5b1415611d7157611d71816147cf565b6000828201838110156110ce576040517f08c379a000000000000000000000000000000000000000000000000000000000815260040161113390615afe565b601654601754600091613e109173ffffffffffffffffffffffffffffffffffffffff90811691168363ffffffff61417d16565b601654601754613e409173ffffffffffffffffffffffffffffffffffffffff91821691168463ffffffff61417d16565b60408051600280825260608083018452926020830190803883395050601754825192935073ffffffffffffffffffffffffffffffffffffffff1691839150600090613e8757fe5b73ffffffffffffffffffffffffffffffffffffffff9283166020918202929092010152601854825191169082906001908110613ebf57fe5b73ffffffffffffffffffffffffffffffffffffffff9283166020918202929092010152601654606091166318cbafe58560008530613f054261070863ffffffff613d9e16565b6040518663ffffffff1660e01b8152600401613f25959493929190615c93565b600060405180830381600087803b158015613f3f57600080fd5b505af1158015613f53573d6000803e3d6000fd5b505050506040513d6000823e601f3d9081017fffffffffffffffffffffffffffffffffffffffffffffffffffffffffffffffe0168201604052613f999190810190614d7e565b905080600181518110613fa857fe5b602002602001015192505050919050565b60408051600280825260608083018452600093909291906020830190803883395050601854825192935073ffffffffffffffffffffffffffffffffffffffff169183915060009061400657fe5b73ffffffffffffffffffffffffffffffffffffffff9283166020918202929092010152601b5482519116908290600190811061403e57fe5b73ffffffffffffffffffffffffffffffffffffffff928316602091820292909201015260165460609116637ff36ab585600085816140844261070863ffffffff613d9e16565b6040518663ffffffff1660e01b81526004016140a39493929190615c57565b6000604051808303818588803b1580156140bc57600080fd5b505af11580156140d0573d6000803e3d6000fd5b50505050506040513d6000823e601f3d9081017fffffffffffffffffffffffffffffffffffffffffffffffffffffffffffffffe0168201604052613f999190810190614d7e565b6000614121611dbe565b905080156141325761413281614847565b61413a611ad0565b9050801561414b5761414b8161461e565b614153610f69565b905080156141645761416481614926565b61416c612b76565b90508015611d7157611d71816145c8565b80158061422b57506040517fdd62ed3e00000000000000000000000000000000000000000000000000000000815273ffffffffffffffffffffffffffffffffffffffff84169063dd62ed3e906141d990309086906004016159a5565b60206040518083038186803b1580156141f157600080fd5b505afa158015614205573d6000803e3d6000fd5b505050506040513d601f19601f820116820180604052506142299190810190614e99565b155b614261576040517f08c379a000000000000000000000000000000000000000000000000000000000815260040161113390615bfe565b6040516129279084907f095ea7b3000000000000000000000000000000000000000000000000000000009061387590869086906024016159e8565b6040516129279084907fa9059cbb000000000000000000000000000000000000000000000000000000009061387590869086906024016159e8565b73ffffffffffffffffffffffffffffffffffffffff8116614324576040517f08c379a000000000000000000000000000000000000000000000000000000000815260040161113390615ace565b60075460405173ffffffffffffffffffffffffffffffffffffffff8084169216907f8be0079c531659141344cd1fd0a4f28419497f9722a3daafe3b4186f6b6457e090600090a3600780547fffffffffffffffffffffffff00000000000000000000000000000000000000001673ffffffffffffffffffffffffffffffffffffffff92909216919091179055565b6143d18273ffffffffffffffffffffffffffffffffffffffff16614a08565b614407576040517f08c379a000000000000000000000000000000000000000000000000000000000815260040161113390615c0e565b600060608373ffffffffffffffffffffffffffffffffffffffff16836040516144309190615957565b6000604051808303816000865af19150503d806000811461446d576040519150601f19603f3d011682016040523d82523d6000602084013e614472565b606091505b5091509150816144ae576040517f08c379a000000000000000000000000000000000000000000000000000000000815260040161113390615b1e565b8051156138f757808060200190516144c99190810190614db3565b6138f7576040517f08c379a000000000000000000000000000000000000000000000000000000000815260040161113390615bde565b6000818361453a576040517f08c379a00000000000000000000000000000000000000000000000000000000081526004016111339190615a8d565b50600083858161454657fe5b0495945050505050565b600061455a611dbe565b90506000614566612760565b9050828110156145a2576040517f08c379a000000000000000000000000000000000000000000000000000000000815260040161113390615b9e565b60006145bd60016114bc846111ab878963ffffffff6138fd16565b90506138f781614847565b6010546040517fdb006a7500000000000000000000000000000000000000000000000000000000815273ffffffffffffffffffffffffffffffffffffffff9091169063db006a7590611e79908490600401615c49565b604080516001808252818301909252606091816020015b61463d614a3f565b81526020019060019003908161463557905050905060405180604001604052803073ffffffffffffffffffffffffffffffffffffffff16815260200160008152508160008151811061468b57fe5b602002602001018190525061469e614a56565b60408051608081019091526000808252602082019081526020016000815260200184905290506146cc614a7f565b600181819052506000602082015260408082018390526012546060808401919091523060a0840152815160018082528184019093529091816020015b614710614a7f565b815260200190600190039081614708579050509050818160008151811061473357fe5b60209081029190910101526011546040517fa67a6a4500000000000000000000000000000000000000000000000000000000815273ffffffffffffffffffffffffffffffffffffffff9091169063a67a6a45906147969087908590600401615a1e565b600060405180830381600087803b1580156147b057600080fd5b505af11580156147c4573d6000803e3d6000fd5b505050505050505050565b60006147d9610f69565b905060006147e5613355565b905082811015614821576040517f08c379a000000000000000000000000000000000000000000000000000000000815260040161113390615b9e565b600061483c60016114bc846111ab878963ffffffff6138fd16565b90506138f781614926565b600d546040517fdb006a7500000000000000000000000000000000000000000000000000000000815273ffffffffffffffffffffffffffffffffffffffff9091169063db006a759061489d908490600401615c49565b602060405180830381600087803b1580156148b757600080fd5b505af11580156148cb573d6000803e3d6000fd5b505050506040513d601f19601f820116820180604052506148ef9190810190614e99565b15611d71576040517f08c379a000000000000000000000000000000000000000000000000000000000815260040161113390615abe565b600e546040517f9dc29fac00000000000000000000000000000000000000000000000000000000815260009173ffffffffffffffffffffffffffffffffffffffff1690639dc29fac9061497f903090869060040161598a565b602060405180830381600087803b15801561499957600080fd5b505af11580156149ad573d6000803e3d6000fd5b505050506040513d601f19601f820116820180604052506149d19190810190614e99565b11611d71576040517f08c379a000000000000000000000000000000000000000000000000000000000815260040161113390615b3e565b6000813f7fc5d2460186f7233c927e7db2dcc703c0e500b653ca82273b7bfad8045d85a47081158015906133315750141592915050565b604080518082019091526000808252602082015290565b604080516080810190915260008082526020820190815260200160008152602001600081525090565b604080516101008101825260008082526020820152908101614a9f614a56565b81526020016000815260200160008152602001600073ffffffffffffffffffffffffffffffffffffffff16815260200160008152602001606081525090565b8035610f6381615ea4565b8051610f6381615ea4565b600082601f830112614b0557600080fd5b8151614b18614b1382615d1b565b615cf4565b91508181835260208401935060208101905083856020840282011115614b3d57600080fd5b60005b83811015614b695781614b538882614c1f565b8452506020928301929190910190600101614b40565b5050505092915050565b8051610f6381615eb8565b600082601f830112614b8f57600080fd5b8151614b9d614b1382615d3c565b91508082526020830160208301858383011115614bb957600080fd5b614bc4838284615e32565b50505092915050565b600060408284031215614bdf57600080fd5b614be96040615cf4565b90506000614bf78484614b73565b8252506020614c0884848301614c1f565b60208301525092915050565b8035610f6381615ec1565b8051610f6381615ec1565b600060208284031215614c3c57600080fd5b60006133318484614ade565b600060208284031215614c5a57600080fd5b60006133318484614ae9565b60008060408385031215614c7957600080fd5b6000614c858585614ade565b9250506020614c9685828601614ade565b9150509250929050565b60008060008060808587031215614cb657600080fd5b6000614cc28787614ade565b9450506020614cd387828801614ade565b9350506040614ce487828801614ade565b9250506060614cf587828801614ade565b91505092959194509250565b600080600060608486031215614d1657600080fd5b6000614d228686614ade565b9350506020614d3386828701614ade565b9250506040614d4486828701614c14565b9150509250925092565b60008060408385031215614d6157600080fd5b6000614d6d8585614ade565b9250506020614c9685828601614c14565b600060208284031215614d9057600080fd5b815167ffffffffffffffff811115614da757600080fd5b61333184828501614af4565b600060208284031215614dc557600080fd5b60006133318484614b73565b600080600080600060a08688031215614de957600080fd5b855167ffffffffffffffff811115614e0057600080fd5b614e0c88828901614b7e565b9550506020614e1d88828901614c1f565b9450506040614e2e88828901614c1f565b9350506060614e3f88828901614c1f565b9250506080614e5088828901614c1f565b9150509295509295909350565b600060408284031215614e6f57600080fd5b60006133318484614bcd565b600060208284031215614e8d57600080fd5b60006133318484614c14565b600060208284031215614eab57600080fd5b60006133318484614c1f565b600080600060608486031215614ecc57600080fd5b6000614ed88686614c14565b9350506020614d3386828701614c14565b6000614ef58383614f2c565b505060200190565b60006110ce8383615830565b6000614f158383615925565b505060400190565b614f2681615de9565b82525050565b614f2681615d95565b6000614f4082615d88565b614f4a8185615d8c565b9350614f5583615d82565b8060005b83811015614f83578151614f6d8882614ee9565b9750614f7883615d82565b925050600101614f59565b509495945050505050565b6000614f9982615d88565b614fa38185615d8c565b935083602082028501614fb585615d82565b8060005b85811015614fef5784840389528151614fd28582614efd565b9450614fdd83615d82565b60209a909a0199925050600101614fb9565b5091979650505050505050565b600061500782615d88565b6150118185615d8c565b935061501c83615d82565b8060005b83811015614f835781516150348882614f09565b975061503f83615d82565b925050600101615020565b614f2681615da0565b600061505e82615d88565b6150688185611fad565b9350615078818560208601615e32565b9290920192915050565b600061508d82615d88565b6150978185615d8c565b93506150a7818560208601615e32565b6150b081615e5e565b9093019392505050565b614f2681615df0565b614f2681615dfb565b614f2681615e06565b614f2681615e11565b614f2681615e1c565b614f2681615e27565b60006150fd602383615d8c565b7f45524332303a207472616e7366657220746f20746865207a65726f206164647281527f6573730000000000000000000000000000000000000000000000000000000000602082015260400192915050565b600061515c605083615d8c565b7f596f75206d75737420686f6c6420612025206f6620796f7572206465706f736981527f7420696e2059454c4420746f6b656e7320746f2062652061626c6520746f207360208201527f74616b65206f7220776974686472617700000000000000000000000000000000604082015260600192915050565b60006151e1601983615d8c565b7f434f4d504f554e443a207769746864726177206661696c656400000000000000815260200192915050565b600061521a602683615d8c565b7f4f776e61626c653a206e6577206f776e657220697320746865207a65726f206181527f6464726573730000000000000000000000000000000000000000000000000000602082015260400192915050565b6000615279602283615d8c565b7f45524332303a20617070726f766520746f20746865207a65726f20616464726581527f7373000000000000000000000000000000000000000000000000000000000000602082015260400192915050565b60006152d8601783615d8c565b7f434f4d504f554e443a20737570706c79206661696c6564000000000000000000815260200192915050565b6000615311601b83615d8c565b7f536166654d6174683a206164646974696f6e206f766572666c6f770000000000815260200192915050565b600061534a601c83615d8c565b7f446576207472656173757279207472616e73666572206661696c656400000000815260200192915050565b6000615383602083615d8c565b7f5361666545524332303a206c6f772d6c6576656c2063616c6c206661696c6564815260200192915050565b60006153bc602183615d8c565b7f536166654d6174683a206d756c7469706c69636174696f6e206f766572666c6f81527f7700000000000000000000000000000000000000000000000000000000000000602082015260400192915050565b600061541b601883615d8c565b7f46554c4352554d3a207769746864726177206661696c65640000000000000000815260200192915050565b6000615454602083615d8c565b7f4f776e61626c653a2063616c6c6572206973206e6f7420746865206f776e6572815260200192915050565b600061548d603383615d8c565b7f436f6e74726163747320617265206e6f7420616c6c6f77656420746f20696e7481527f6572616374207769746820746865206661726d00000000000000000000000000602082015260400192915050565b60006154ec601483615d8c565b7f696e73756666696369656e742062616c616e6365000000000000000000000000815260200192915050565b6000615525601f83615d8c565b7f7769746864726177206d7573742062652067726561746572207468616e203000815260200192915050565b600061555e602583615d8c565b7f45524332303a207472616e736665722066726f6d20746865207a65726f20616481527f6472657373000000000000000000000000000000000000000000000000000000602082015260400192915050565b6000610f63600083611fad565b60006155ca601283615d8c565b7f696e73756666696369656e742066756e64730000000000000000000000000000815260200192915050565b6000615603602483615d8c565b7f45524332303a20617070726f76652066726f6d20746865207a65726f2061646481527f7265737300000000000000000000000000000000000000000000000000000000602082015260400192915050565b6000615662601e83615d8c565b7f6465706f736974206d7573742062652067726561746572207468616e20300000815260200192915050565b600061569b601683615d8c565b7f46554c4352554d3a20737570706c79206661696c656400000000000000000000815260200192915050565b60006156d4602a83615d8c565b7f5361666545524332303a204552433230206f7065726174696f6e20646964206e81527f6f74207375636365656400000000000000000000000000000000000000000000602082015260400192915050565b6000615733601f83615d8c565b7f5265656e7472616e637947756172643a207265656e7472616e742063616c6c00815260200192915050565b600061576c603683615d8c565b7f5361666545524332303a20617070726f76652066726f6d206e6f6e2d7a65726f81527f20746f206e6f6e2d7a65726f20616c6c6f77616e636500000000000000000000602082015260400192915050565b60006157cb601f83615d8c565b7f5361666545524332303a2063616c6c20746f206e6f6e2d636f6e747261637400815260200192915050565b6000615804601f83615d8c565b7f45524332303a206d696e7420746f20746865207a65726f206164647265737300815260200192915050565b805160009061016084019061584585826150c3565b5060208301516158586020860182615945565b50604083015161586b60408601826158db565b50606083015161587e60c0860182615945565b50608083015161589160e0860182615945565b5060a08301516158a5610100860182614f2c565b5060c08301516158b9610120860182615945565b5060e08301518482036101408601526158d28282615082565b95945050505050565b805160808301906158ec848261504a565b5060208201516158ff60208501826150cc565b50604082015161591260408501826150cc565b5060608201516138f76060850182615945565b805160408301906159368482614f2c565b5060208201516138f760208501825b614f2681610f27565b614f2681615de3565b60006110ce8284615053565b6000610f63826155b0565b60208101610f638284614f2c565b60208101610f638284614f1d565b604081016159988285614f1d565b6110ce6020830184615945565b604081016159b38285614f2c565b6110ce6020830184614f2c565b606081016159ce8286614f2c565b6159db6020830185614f2c565b6133316040830184615945565b604081016159988285614f2c565b60608101615a048286614f2c565b615a116020830185615945565b61333160408301846150de565b60408082528101615a2f8185614ffc565b905081810360208301526133318184614f8e565b60208101610f63828461504a565b60208101610f6382846150ba565b60208101610f6382846150d5565b60408101615a7b82856150e7565b81810360208301526133318184614f35565b602080825281016110ce8184615082565b60208082528101610f63816150f0565b60208082528101610f638161514f565b60208082528101610f63816151d4565b60208082528101610f638161520d565b60208082528101610f638161526c565b60208082528101610f63816152cb565b60208082528101610f6381615304565b60208082528101610f638161533d565b60208082528101610f6381615376565b60208082528101610f63816153af565b60208082528101610f638161540e565b60208082528101610f6381615447565b60208082528101610f6381615480565b60208082528101610f63816154df565b60208082528101610f6381615518565b60208082528101610f6381615551565b60208082528101610f63816155bd565b60208082528101610f63816155f6565b60208082528101610f6381615655565b60208082528101610f638161568e565b60208082528101610f63816156c7565b60208082528101610f6381615726565b60208082528101610f638161575f565b60208082528101610f63816157be565b60208082528101610f63816157f7565b60608101615c3c8285615925565b6110ce6040830184615945565b60208101610f638284615945565b60808101615c658287615945565b8181036020830152615c778186614f35565b9050615c866040830185614f1d565b6158d26060830184615945565b60a08101615ca18288615945565b615cae6020830187615945565b8181036040830152615cc08186614f35565b9050615ccf6060830185614f1d565b615cdc6080830184615945565b9695505050505050565b60208101610f63828461594e565b60405181810167ffffffffffffffff81118282101715615d1357600080fd5b604052919050565b600067ffffffffffffffff821115615d3257600080fd5b5060209081020190565b600067ffffffffffffffff821115615d5357600080fd5b506020601f919091017fffffffffffffffffffffffffffffffffffffffffffffffffffffffffffffffe0160190565b60200190565b5190565b90815260200190565b6000610f6382615dca565b151590565b80611fad81615e86565b80611fad81615e90565b80611fad81615e9a565b61ffff1690565b73ffffffffffffffffffffffffffffffffffffffff1690565b60ff1690565b6000610f63825b6000610f6382615d95565b6000610f6382615da5565b6000610f6382615daf565b6000610f6382615db9565b6000610f6382615dc3565b6000610f6382610f27565b60005b83811015615e4d578181015183820152602001615e35565b838111156138f75750506000910152565b601f017fffffffffffffffffffffffffffffffffffffffffffffffffffffffffffffffe01690565b60028110611d7157fe5b60018110611d7157fe5b60058110611d7157fe5b615ead81615d95565b8114611d7157600080fd5b615ead81615da0565b615ead81610f2756fe45524332303a207472616e7366657220616d6f756e7420657863656564732062616c616e636545524332303a207472616e7366657220616d6f756e74206578636565647320616c6c6f77616e636545524332303a2064656372656173656420616c6c6f77616e63652062656c6f77207a65726fa365627a7a72315820aaec4cd5b52daf82265e82dc25f1c1577b5001130ac4329ab3198e3f5886a22d6c6578706572696d656e74616cf564736f6c63430005110040",
  "source": "pragma solidity 0.5.17;\npragma experimental ABIEncoderV2;\n\nimport './ContractImports.sol';\nimport './CommonFunctionality.sol';\n\ncontract yUSDC is ERC20, ERC20Detailed, ReentrancyGuard, Structs, Ownable, CommonFunctionality {\n  using SafeERC20 for IERC20;\n  using Address for address;\n  using SafeMath for uint256;\n\n  uint256 public pool;\n  address public token;\n  address public compound;\n  address public fulcrum;\n  address public aave;\n  address public aaveToken;\n  address public dydx;\n  uint256 public dToken;\n  address public apr;\n\n  // Yeld\n  mapping(address => uint256) public depositBlockStarts;\n  mapping(address => uint256) public depositAmount;\n  address public uniswapRouter = 0x7a250d5630B4cF539739dF2C5dAcb4c659F2488D;\n  address public usdc = 0xA0b86991c6218b36c1d19D4a2e9Eb0cE3606eB48;\n  address public weth = 0xC02aaA39b223FE8D0A0e5C4F27eAD9083C756Cc2;\n  address public dai = 0x6B175474E89094C44Da98b954EedeAC495271d0F;\n  address payable public retirementYeldTreasury;\n  IERC20 public yeldToken;\n  uint256 public maximumTokensToBurn = 50000 * 1e18;\n  uint256 public constant oneDayInBlocks = 6500;\n  uint256 public yeldToRewardPerDay = 50e18; // 50 YELD per day per 1 million stablecoins padded with 18 zeroes to have that flexibility\n  uint256 public constant oneMillion = 1e6;\n  uint256 public holdPercentage = 15e18;\n  address public devTreasury;\n  // Yeld\n\n  enum Lender {\n      NONE,\n      DYDX,\n      COMPOUND,\n      AAVE,\n      FULCRUM\n  }\n\n  Lender public provider = Lender.NONE;\n\n  constructor (address _yeldToken, address payable _retirementYeldTreasury, address _devTreasury) public ERC20Detailed(\"yeld USDC\", \"yUSDC\", 6) {\n    token = address(0xA0b86991c6218b36c1d19D4a2e9Eb0cE3606eB48);\n    apr = address(0xdD6d648C991f7d47454354f4Ef326b04025a48A8);\n    dydx = address(0x1E0447b19BB6EcFdAe1e4AE1694b0C3659614e4e);\n    aave = address(0x24a42fD28C976A61Df5D00D0599C34c4f90748c8);\n    fulcrum = address(0xF013406A0B1d544238083DF0B93ad0d2cBE0f65f);\n    aaveToken = address(0x9bA00D6856a4eDF4665BcA2C2309936572473B7E);\n    compound = address(0x39AA39c021dfbaE8faC545936693aC917d5E7563);\n    dToken = 2;\n    yeldToken = IERC20(_yeldToken);\n    retirementYeldTreasury = _retirementYeldTreasury;\n    devTreasury = _devTreasury;\n    approveToken();\n  }\n\n  // Yeld\n  // To receive ETH after converting it from USDC\n  function () external payable {}\n  function setRetirementYeldTreasury(address payable _treasury) public onlyOwner {\n    retirementYeldTreasury = _treasury;\n  }\n  // In case a new uniswap router version is released\n  function setUniswapRouter(address _uniswapRouter) public onlyOwner {\n    uniswapRouter = _uniswapRouter;\n  }\n  function setYeldToken(address _yeldToken) public onlyOwner {\n    yeldToken = IERC20(_yeldToken);\n  }\n  function setDevTreasury(address _devTreasury) public onlyOwner {\n    devTreasury = _devTreasury;\n  }\n  function extractTokensIfStuck(address _token, uint256 _amount) public onlyOwner {\n    IERC20(_token).transfer(msg.sender, _amount);\n  }\n  function extractETHIfStuck() public onlyOwner {\n    owner().transfer(address(this).balance);\n  }\n  function changeYeldToRewardPerDay(uint256 _amount) public onlyOwner {\n    yeldToRewardPerDay = _amount;\n  }\n  function getGeneratedYelds() public view returns(uint256) {\n    uint256 blocksPassed;\n    if (depositBlockStarts[msg.sender] > 0) {\n      blocksPassed = block.number.sub(depositBlockStarts[msg.sender]);\n    } else {\n      return 0;\n    }\n    uint256 generatedYelds = depositAmount[msg.sender].mul(1e12).div(oneMillion).mul(yeldToRewardPerDay).div(1e18).mul(blocksPassed).div(oneDayInBlocks);\n    return generatedYelds;\n  }\n  // Converts USDC to ETH and returns how much ETH has been received from Uniswap\n  function usdcToETH(uint256 _amount) internal returns(uint256) {\n      IERC20(usdc).safeApprove(uniswapRouter, 0);\n      IERC20(usdc).safeApprove(uniswapRouter, _amount);\n      address[] memory path = new address[](2);\n      path[0] = usdc;\n      path[1] = weth;\n      // swapExactTokensForETH(uint amountIn, uint amountOutMin, address[] calldata path, address to, uint deadline)\n      // 'amounts' is an array where [0] is input USDC amount and [1] is the resulting ETH after the conversion\n      // even tho we've specified the WETH address, we'll receive ETH since that's how it works on uniswap\n      // https://uniswap.org/docs/v2/smart-contracts/router02/#swapexacttokensforeth\n      uint[] memory amounts = IUniswap(uniswapRouter).swapExactTokensForETH(_amount, uint(0), path, address(this), now.add(1800));\n      return amounts[1];\n  }\n  function buyNBurn(uint256 _ethToSwap) internal returns(uint256) {\n    address[] memory path = new address[](2);\n    path[0] = weth;\n    path[1] = address(yeldToken);\n    // Burns the tokens by taking them out of circulation, sending them to the 0x0 address\n    uint[] memory amounts = IUniswap(uniswapRouter).swapExactETHForTokens.value(_ethToSwap)(uint(0), path, address(0), now.add(1800));\n    return amounts[1];\n  }\n  // Yeld\n  function setHoldPercentage(uint256 _holdPercentage) public onlyOwner {\n    holdPercentage = _holdPercentage;\n  }\n\n  function yeldHoldingRequirement(uint256 _amount) internal view {\n    uint256 yeldHold = yeldToken.balanceOf(msg.sender);\n    uint256 yeldPriceInDai = getYeldPriceInDai(address(yeldToken), weth, dai, uniswapRouter);\n    uint256 amountPercentage = _amount.mul(holdPercentage).div(1e20);\n    uint256 yeldRequirement = amountPercentage.div(yeldPriceInDai);\n    require(yeldHold >= yeldRequirement, 'You must hold a % of your deposit in YELD tokens to be able to stake or withdraw');\n  }\n\n  // Quick swap low gas method for pool swaps\n  function deposit(uint256 _amount)\n      external\n      nonReentrant\n      noContract\n  {\n      require(_amount > 0, \"deposit must be greater than 0\");\n      yeldHoldingRequirement(_amount);\n\n      pool = _calcPoolValueInToken();\n\n      IERC20(token).safeTransferFrom(msg.sender, address(this), _amount);\n\n      // Yeld\n      depositBlockStarts[msg.sender] = block.number;\n      depositAmount[msg.sender] = depositAmount[msg.sender].add(_amount);\n      // Yeld\n      \n      // Calculate pool shares\n      uint256 shares = 0;\n      if (pool == 0) {\n        shares = _amount;\n        pool = _amount;\n      } else {\n        shares = (_amount.mul(_totalSupply)).div(pool);\n      }\n      pool = _calcPoolValueInToken();\n      _mint(msg.sender, shares);\n      rebalance();\n  }\n\n  // No rebalance implementation for lower fees and faster swaps\n  function withdraw(uint256 _shares)\n      external\n      nonReentrant\n      noContract\n  {\n      require(_shares > 0, \"withdraw must be greater than 0\");\n      uint256 ibalance = balanceOf(msg.sender);\n      require(_shares <= ibalance, \"insufficient balance\");\n      // Could have over value from cTokens\n      pool = _calcPoolValueInToken();\n      // Yeld\n      uint256 generatedYelds = getGeneratedYelds();\n      // Yeld\n      uint256 stablecoinsToWithdraw = (pool.mul(_shares)).div(_totalSupply);\n      yeldHoldingRequirement(stablecoinsToWithdraw);\n      _balances[msg.sender] = _balances[msg.sender].sub(_shares, \"redeem amount exceeds balance\");\n      _totalSupply = _totalSupply.sub(_shares);\n      emit Transfer(msg.sender, address(0), _shares);\n      uint256 b = IERC20(token).balanceOf(address(this));\n      if (b < stablecoinsToWithdraw) {\n        _withdrawSome(stablecoinsToWithdraw.sub(b));\n      }\n\n\n      // Yeld\n      // Take 1% of the amount to withdraw\n      uint256 totalPercentage = percentageRetirementYield.add(percentageDevTreasury).add(percentageBuyBurn);\n      uint256 combined = stablecoinsToWithdraw.mul(totalPercentage).div(1e20);\n      depositBlockStarts[msg.sender] = block.number;\n      if (stablecoinsToWithdraw > depositAmount[msg.sender]) {\n        depositAmount[msg.sender] = 0;\n      } else {\n        depositAmount[msg.sender] = depositAmount[msg.sender].sub(stablecoinsToWithdraw);\n      }\n      yeldToken.transfer(msg.sender, generatedYelds);\n      // Take a portion of the profits for the buy and burn and retirement yeld\n      // Convert half the USDC earned into ETH for the protocol algorithms\n      uint256 stakingProfits = usdcToETH(combined);\n      uint256 tokensAlreadyBurned = yeldToken.balanceOf(address(0));\n      uint256 devTreasuryAmount = stakingProfits.mul(uint256(100e18).mul(percentageDevTreasury).div(totalPercentage)).div(100e18);\n      if (tokensAlreadyBurned < maximumTokensToBurn) {\n        uint256 ethToSwap = stakingProfits.mul(uint256(100e18).mul(percentageBuyBurn).div(totalPercentage)).div(100e18);\n        buyNBurn(ethToSwap);\n        uint256 retirementYeld = stakingProfits.mul(uint256(100e18).mul(percentageRetirementYield).div(totalPercentage)).div(100e18);\n        retirementYeldTreasury.transfer(retirementYeld);\n      } else {\n        uint256 retirementYeld = stakingProfits.sub(devTreasuryAmount);\n        retirementYeldTreasury.transfer(retirementYeld);\n      }\n      (bool success, ) = devTreasury.call.value(devTreasuryAmount)(\"\");\n      require(success, \"Dev treasury transfer failed\");\n      IERC20(token).transfer(msg.sender, stablecoinsToWithdraw.sub(combined));\n      // Yeld\n\n      pool = _calcPoolValueInToken();\n      rebalance();\n  }\n\n  function recommend() public view returns (Lender) {\n    (,uint256 capr,uint256 iapr,uint256 aapr,uint256 dapr) = IIEarnManager(apr).recommend(token);\n    uint256 max = 0;\n    if (capr > max) {\n      max = capr;\n    }\n    if (iapr > max) {\n      max = iapr;\n    }\n    if (aapr > max) {\n      max = aapr;\n    }\n    if (dapr > max) {\n      max = dapr;\n    }\n\n    Lender newProvider = Lender.NONE;\n    if (max == capr) {\n      newProvider = Lender.COMPOUND;\n    } else if (max == iapr) {\n      newProvider = Lender.FULCRUM;\n    } else if (max == aapr) {\n      newProvider = Lender.AAVE;\n    } else if (max == dapr) {\n      newProvider = Lender.DYDX;\n    }\n    return newProvider;\n  }\n\n  function supplyDydx(uint256 amount) public returns(uint) {\n      Info[] memory infos = new Info[](1);\n      infos[0] = Info(address(this), 0);\n\n      AssetAmount memory amt = AssetAmount(true, AssetDenomination.Wei, AssetReference.Delta, amount);\n      ActionArgs memory act;\n      act.actionType = ActionType.Deposit;\n      act.accountId = 0;\n      act.amount = amt;\n      act.primaryMarketId = dToken;\n      act.otherAddress = address(this);\n\n      ActionArgs[] memory args = new ActionArgs[](1);\n      args[0] = act;\n\n      DyDx(dydx).operate(infos, args);\n  }\n\n  function _withdrawDydx(uint256 amount) internal {\n      Info[] memory infos = new Info[](1);\n      infos[0] = Info(address(this), 0);\n\n      AssetAmount memory amt = AssetAmount(false, AssetDenomination.Wei, AssetReference.Delta, amount);\n      ActionArgs memory act;\n      act.actionType = ActionType.Withdraw;\n      act.accountId = 0;\n      act.amount = amt;\n      act.primaryMarketId = dToken;\n      act.otherAddress = address(this);\n\n      ActionArgs[] memory args = new ActionArgs[](1);\n      args[0] = act;\n\n      DyDx(dydx).operate(infos, args);\n  }\n\n  function getAave() public view returns (address) {\n    return LendingPoolAddressesProvider(aave).getLendingPool();\n  }\n  function getAaveCore() public view returns (address) {\n    return LendingPoolAddressesProvider(aave).getLendingPoolCore();\n  }\n\n  function approveToken() public {\n      IERC20(token).safeApprove(compound, uint(-1)); //also add to constructor\n      IERC20(token).safeApprove(dydx, uint(-1));\n      IERC20(token).safeApprove(getAaveCore(), uint(-1));\n      IERC20(token).safeApprove(fulcrum, uint(-1));\n  }\n\n  function balance() public view returns (uint256) {\n    return IERC20(token).balanceOf(address(this));\n  }\n\n  function balanceDydx() public view returns (uint256) {\n      Wei memory bal = DyDx(dydx).getAccountWei(Info(address(this), 0), dToken);\n      return bal.value;\n  }\n  function balanceCompound() public view returns (uint256) {\n      return IERC20(compound).balanceOf(address(this));\n  }\n  function balanceCompoundInToken() public view returns (uint256) {\n    // Mantisa 1e18 to decimals\n    uint256 b = balanceCompound();\n    if (b > 0) {\n      b = b.mul(Compound(compound).exchangeRateStored()).div(1e18);\n    }\n    return b;\n  }\n  function balanceFulcrumInToken() public view returns (uint256) {\n    uint256 b = balanceFulcrum();\n    if (b > 0) {\n      b = Fulcrum(fulcrum).assetBalanceOf(address(this));\n    }\n    return b;\n  }\n  function balanceFulcrum() public view returns (uint256) {\n    return IERC20(fulcrum).balanceOf(address(this));\n  }\n  function balanceAave() public view returns (uint256) {\n    return IERC20(aaveToken).balanceOf(address(this));\n  }\n\n  function _balance() internal view returns (uint256) {\n    return IERC20(token).balanceOf(address(this));\n  }\n\n  function _balanceDydx() internal view returns (uint256) {\n      Wei memory bal = DyDx(dydx).getAccountWei(Info(address(this), 0), dToken);\n      return bal.value;\n  }\n  function _balanceCompound() internal view returns (uint256) {\n      return IERC20(compound).balanceOf(address(this));\n  }\n  function _balanceCompoundInToken() internal view returns (uint256) {\n    // Mantisa 1e18 to decimals\n    uint256 b = balanceCompound();\n    if (b > 0) {\n      b = b.mul(Compound(compound).exchangeRateStored()).div(1e18);\n    }\n    return b;\n  }\n  function _balanceFulcrumInToken() internal view returns (uint256) {\n    uint256 b = balanceFulcrum();\n    if (b > 0) {\n      b = Fulcrum(fulcrum).assetBalanceOf(address(this));\n    }\n    return b;\n  }\n  function _balanceFulcrum() internal view returns (uint256) {\n    return IERC20(fulcrum).balanceOf(address(this));\n  }\n  function _balanceAave() internal view returns (uint256) {\n    return IERC20(aaveToken).balanceOf(address(this));\n  }\n\n  function _withdrawAll() internal {\n    uint256 amount = _balanceCompound();\n    if (amount > 0) {\n      _withdrawCompound(amount);\n    }\n    amount = _balanceDydx();\n    if (amount > 0) {\n      _withdrawDydx(amount);\n    }\n    amount = _balanceFulcrum();\n    if (amount > 0) {\n      _withdrawFulcrum(amount);\n    }\n    amount = _balanceAave();\n    if (amount > 0) {\n      _withdrawAave(amount);\n    }\n  }\n\n  function _withdrawSomeCompound(uint256 _amount) internal {\n    uint256 b = balanceCompound();\n    uint256 bT = balanceCompoundInToken();\n    require(bT >= _amount, \"insufficient funds\");\n    // can have unintentional rounding errors\n    uint256 amount = (b.mul(_amount)).div(bT).add(1);\n    _withdrawCompound(amount);\n  }\n\n  // 1999999614570950845\n  function _withdrawSomeFulcrum(uint256 _amount) internal {\n    // Balance of fulcrum tokens, 1 iDAI = 1.00x DAI\n    uint256 b = balanceFulcrum(); // 1970469086655766652\n    // Balance of token in fulcrum\n    uint256 bT = balanceFulcrumInToken(); // 2000000803224344406\n    require(bT >= _amount, \"insufficient funds\");\n    // can have unintentional rounding errors\n    uint256 amount = (b.mul(_amount)).div(bT).add(1);\n    _withdrawFulcrum(amount);\n  }\n\n  function _withdrawSome(uint256 _amount) internal {\n    if (provider == Lender.COMPOUND) {\n      _withdrawSomeCompound(_amount);\n    }\n    if (provider == Lender.AAVE) {\n      require(balanceAave() >= _amount, \"insufficient funds\");\n      _withdrawAave(_amount);\n    }\n    if (provider == Lender.DYDX) {\n      require(balanceDydx() >= _amount, \"insufficient funds\");\n      _withdrawDydx(_amount);\n    }\n    if (provider == Lender.FULCRUM) {\n      _withdrawSomeFulcrum(_amount);\n    }\n  }\n\n  function rebalance() public {\n    Lender newProvider = recommend();\n\n    if (newProvider != provider) {\n      _withdrawAll();\n    }\n\n    if (balance() > 0) {\n      if (newProvider == Lender.DYDX) {\n        supplyDydx(balance());\n      } else if (newProvider == Lender.FULCRUM) {\n        supplyFulcrum(balance());\n      } else if (newProvider == Lender.COMPOUND) {\n        supplyCompound(balance());\n      } else if (newProvider == Lender.AAVE) {\n        supplyAave(balance());\n      }\n    }\n\n    provider = newProvider;\n  }\n\n  // Internal only rebalance for better gas in redeem\n  function _rebalance(Lender newProvider) internal {\n    if (_balance() > 0) {\n      if (newProvider == Lender.DYDX) {\n        supplyDydx(_balance());\n      } else if (newProvider == Lender.FULCRUM) {\n        supplyFulcrum(_balance());\n      } else if (newProvider == Lender.COMPOUND) {\n        supplyCompound(_balance());\n      } else if (newProvider == Lender.AAVE) {\n        supplyAave(_balance());\n      }\n    }\n    provider = newProvider;\n  }\n\n  function supplyAave(uint amount) public {\n      Aave(getAave()).deposit(token, amount, 0);\n  }\n  function supplyFulcrum(uint amount) public {\n      require(Fulcrum(fulcrum).mint(address(this), amount) > 0, \"FULCRUM: supply failed\");\n  }\n  function supplyCompound(uint amount) public {\n      require(Compound(compound).mint(amount) == 0, \"COMPOUND: supply failed\");\n  }\n  function _withdrawAave(uint amount) internal {\n      AToken(aaveToken).redeem(amount);\n  }\n  function _withdrawFulcrum(uint amount) internal {\n      require(Fulcrum(fulcrum).burn(address(this), amount) > 0, \"FULCRUM: withdraw failed\");\n  }\n  function _withdrawCompound(uint amount) internal {\n      require(Compound(compound).redeem(amount) == 0, \"COMPOUND: withdraw failed\");\n  }\n\n  function invest(uint256 _amount)\n      external\n      nonReentrant\n  {\n      require(_amount > 0, \"deposit must be greater than 0\");\n      pool = calcPoolValueInToken();\n\n      IERC20(token).safeTransferFrom(msg.sender, address(this), _amount);\n\n      rebalance();\n\n      // Calculate pool shares\n      uint256 shares = 0;\n      if (pool == 0) {\n        shares = _amount;\n        pool = _amount;\n      } else {\n        shares = (_amount.mul(_totalSupply)).div(pool);\n      }\n      pool = calcPoolValueInToken();\n      _mint(msg.sender, shares);\n  }\n\n  function _calcPoolValueInToken() internal view returns (uint) {\n    return _balanceCompoundInToken()\n      .add(_balanceFulcrumInToken())\n      .add(_balanceDydx())\n      .add(_balanceAave())\n      .add(_balance());\n  }\n\n  function calcPoolValueInToken() public view returns (uint) {\n    return balanceCompoundInToken()\n      .add(balanceFulcrumInToken())\n      .add(balanceDydx())\n      .add(balanceAave())\n      .add(balance());\n  }\n\n  function getPricePerFullShare() public view returns (uint) {\n    uint _pool = calcPoolValueInToken();\n    return _pool.mul(1e18).div(_totalSupply);\n  }\n\n  // Redeem any invested tokens from the pool\n  function redeem(uint256 _shares)\n      external\n      nonReentrant\n  {\n      require(_shares > 0, \"withdraw must be greater than 0\");\n\n      uint256 ibalance = balanceOf(msg.sender);\n      require(_shares <= ibalance, \"insufficient balance\");\n\n      // Could have over value from cTokens\n      pool = calcPoolValueInToken();\n      // Calc to redeem before updating balances\n      uint256 r = (pool.mul(_shares)).div(_totalSupply);\n\n\n      _balances[msg.sender] = _balances[msg.sender].sub(_shares, \"redeem amount exceeds balance\");\n      _totalSupply = _totalSupply.sub(_shares);\n\n      emit Transfer(msg.sender, address(0), _shares);\n\n      // Check ETH balance\n      uint256 b = IERC20(token).balanceOf(address(this));\n      Lender newProvider = provider;\n      if (b < r) {\n        newProvider = recommend();\n        if (newProvider != provider) {\n          _withdrawAll();\n        } else {\n          _withdrawSome(r.sub(b));\n        }\n      }\n\n      IERC20(token).safeTransfer(msg.sender, r);\n\n      if (newProvider != provider) {\n        _rebalance(newProvider);\n      }\n      pool = calcPoolValueInToken();\n  }\n}\n",
  "sourcePath": "C:/Users/merun/Desktop/yeld & crypto/yeld-contracts/contracts/yUSDC.sol",
  "compiler": {
    "name": "solc",
    "version": "0.5.17+commit.d19bba13.Emscripten.clang"
  },
  "schemaVersion": "3.3.3",
  "updatedAt": "2021-01-30T18:30:23.366Z",
  "devdoc": {
    "methods": {}
  },
  "userdoc": {
    "methods": {}
  }
}